{
	"contracts/AttacBadRandom.sol": {
		"AttacBadRandom": {
			"abi": [
				{
					"inputs": [
						{
							"internalType": "address",
							"name": "mintAddr",
							"type": "address"
						}
					],
					"name": "attacBadMint",
					"outputs": [
						{
							"internalType": "bool",
							"name": "",
							"type": "bool"
						},
						{
							"internalType": "bytes",
							"name": "",
							"type": "bytes"
						}
					],
					"stateMutability": "nonpayable",
					"type": "function"
				}
			],
			"devdoc": {
				"kind": "dev",
				"methods": {},
				"version": 1
			},
			"evm": {
				"assembly": "    /* \"contracts/AttacBadRandom.sol\":70:538  contract AttacBadRandom {... */\n  mstore(0x40, 0x80)\n  callvalue\n  dup1\n  iszero\n  tag_1\n  jumpi\n  0x00\n  dup1\n  revert\ntag_1:\n  pop\n  dataSize(sub_0)\n  dup1\n  dataOffset(sub_0)\n  0x00\n  codecopy\n  0x00\n  return\nstop\n\nsub_0: assembly {\n        /* \"contracts/AttacBadRandom.sol\":70:538  contract AttacBadRandom {... */\n      mstore(0x40, 0x80)\n      callvalue\n      dup1\n      iszero\n      tag_1\n      jumpi\n      0x00\n      dup1\n      revert\n    tag_1:\n      pop\n      jumpi(tag_2, lt(calldatasize, 0x04))\n      shr(0xe0, calldataload(0x00))\n      dup1\n      0xe55aa43d\n      eq\n      tag_3\n      jumpi\n    tag_2:\n      0x00\n      dup1\n      revert\n        /* \"contracts/AttacBadRandom.sol\":100:536  function attacBadMint(address mintAddr)... */\n    tag_3:\n      tag_4\n      0x04\n      dup1\n      calldatasize\n      sub\n      dup2\n      add\n      swap1\n      tag_5\n      swap2\n      swap1\n      tag_6\n      jump\t// in\n    tag_5:\n      tag_7\n      jump\t// in\n    tag_4:\n      mload(0x40)\n      tag_8\n      swap3\n      swap2\n      swap1\n      tag_9\n      jump\t// in\n    tag_8:\n      mload(0x40)\n      dup1\n      swap2\n      sub\n      swap1\n      return\n    tag_7:\n        /* \"contracts/AttacBadRandom.sol\":174:178  bool */\n      0x00\n        /* \"contracts/AttacBadRandom.sol\":180:192  bytes memory */\n      0x60\n        /* \"contracts/AttacBadRandom.sol\":208:223  uint256 luckNum */\n      0x00\n        /* \"contracts/AttacBadRandom.sol\":363:366  100 */\n      0x64\n        /* \"contracts/AttacBadRandom.sol\":316:317  1 */\n      0x01\n        /* \"contracts/AttacBadRandom.sol\":301:313  block.number */\n      number\n        /* \"contracts/AttacBadRandom.sol\":301:317  block.number - 1 */\n      tag_11\n      swap2\n      swap1\n      tag_12\n      jump\t// in\n    tag_11:\n        /* \"contracts/AttacBadRandom.sol\":291:318  blockhash(block.number - 1) */\n      blockhash\n        /* \"contracts/AttacBadRandom.sol\":320:335  block.timestamp */\n      timestamp\n        /* \"contracts/AttacBadRandom.sol\":274:336  abi.encodePacked(blockhash(block.number - 1), block.timestamp) */\n      add(0x20, mload(0x40))\n      tag_13\n      swap3\n      swap2\n      swap1\n      tag_14\n      jump\t// in\n    tag_13:\n      mload(0x40)\n      0x20\n      dup2\n      dup4\n      sub\n      sub\n      dup2\n      mstore\n      swap1\n      0x40\n      mstore\n        /* \"contracts/AttacBadRandom.sol\":247:350  keccak256(... */\n      dup1\n      mload\n      swap1\n      0x20\n      add\n      keccak256\n        /* \"contracts/AttacBadRandom.sol\":226:360  uint256(... */\n      0x00\n      shr\n        /* \"contracts/AttacBadRandom.sol\":226:366  uint256(... */\n      tag_15\n      swap2\n      swap1\n      tag_16\n      jump\t// in\n    tag_15:\n        /* \"contracts/AttacBadRandom.sol\":208:366  uint256 luckNum = uint256(... */\n      swap1\n      pop\n        /* \"contracts/AttacBadRandom.sol\":377:389  bool success */\n      0x00\n        /* \"contracts/AttacBadRandom.sol\":391:408  bytes memory data */\n      dup1\n        /* \"contracts/AttacBadRandom.sol\":420:424  this */\n      address\n        /* \"contracts/AttacBadRandom.sol\":412:430  address(this).call */\n      0xffffffffffffffffffffffffffffffffffffffff\n      and\n        /* \"contracts/AttacBadRandom.sol\":467:477  0xa0712d68 */\n      0xa0712d68\n        /* \"contracts/AttacBadRandom.sol\":479:486  luckNum */\n      dup5\n        /* \"contracts/AttacBadRandom.sol\":444:487  abi.encodeWithSelector(0xa0712d68, luckNum) */\n      add(0x24, mload(0x40))\n      tag_17\n      swap2\n      swap1\n      tag_18\n      jump\t// in\n    tag_17:\n      mload(0x40)\n      0x20\n      dup2\n      dup4\n      sub\n      sub\n      dup2\n      mstore\n      swap1\n      0x40\n      mstore\n      swap1\n      0xe0\n      shl\n      0x20\n      dup3\n      add\n      dup1\n      mload\n      0xffffffffffffffffffffffffffffffffffffffffffffffffffffffff\n      dup4\n      dup2\n      dup4\n      and\n      or\n      dup4\n      mstore\n      pop\n      pop\n      pop\n      pop\n        /* \"contracts/AttacBadRandom.sol\":412:497  address(this).call(... */\n      mload(0x40)\n      tag_19\n      swap2\n      swap1\n      tag_20\n      jump\t// in\n    tag_19:\n      0x00\n      mload(0x40)\n      dup1\n      dup4\n      sub\n      dup2\n      0x00\n      dup7\n      gas\n      call\n      swap2\n      pop\n      pop\n      returndatasize\n      dup1\n      0x00\n      dup2\n      eq\n      tag_23\n      jumpi\n      mload(0x40)\n      swap2\n      pop\n      and(add(returndatasize, 0x3f), not(0x1f))\n      dup3\n      add\n      0x40\n      mstore\n      returndatasize\n      dup3\n      mstore\n      returndatasize\n      0x00\n      0x20\n      dup5\n      add\n      returndatacopy\n      jump(tag_22)\n    tag_23:\n      0x60\n      swap2\n      pop\n    tag_22:\n      pop\n        /* \"contracts/AttacBadRandom.sol\":376:497  (bool success, bytes memory data) = address(this).call(... */\n      swap2\n      pop\n      swap2\n      pop\n        /* \"contracts/AttacBadRandom.sol\":515:522  success */\n      dup2\n        /* \"contracts/AttacBadRandom.sol\":524:528  data */\n      dup2\n        /* \"contracts/AttacBadRandom.sol\":507:529  return (success, data) */\n      swap5\n      pop\n      swap5\n      pop\n      pop\n      pop\n      pop\n        /* \"contracts/AttacBadRandom.sol\":100:536  function attacBadMint(address mintAddr)... */\n      swap2\n      pop\n      swap2\n      jump\t// out\n        /* \"#utility.yul\":88:205   */\n    tag_25:\n        /* \"#utility.yul\":197:198   */\n      0x00\n        /* \"#utility.yul\":194:195   */\n      dup1\n        /* \"#utility.yul\":187:199   */\n      revert\n        /* \"#utility.yul\":334:460   */\n    tag_27:\n        /* \"#utility.yul\":371:378   */\n      0x00\n        /* \"#utility.yul\":411:453   */\n      0xffffffffffffffffffffffffffffffffffffffff\n        /* \"#utility.yul\":404:409   */\n      dup3\n        /* \"#utility.yul\":400:454   */\n      and\n        /* \"#utility.yul\":389:454   */\n      swap1\n      pop\n        /* \"#utility.yul\":334:460   */\n      swap2\n      swap1\n      pop\n      jump\t// out\n        /* \"#utility.yul\":466:562   */\n    tag_28:\n        /* \"#utility.yul\":503:510   */\n      0x00\n        /* \"#utility.yul\":532:556   */\n      tag_55\n        /* \"#utility.yul\":550:555   */\n      dup3\n        /* \"#utility.yul\":532:556   */\n      tag_27\n      jump\t// in\n    tag_55:\n        /* \"#utility.yul\":521:556   */\n      swap1\n      pop\n        /* \"#utility.yul\":466:562   */\n      swap2\n      swap1\n      pop\n      jump\t// out\n        /* \"#utility.yul\":568:690   */\n    tag_29:\n        /* \"#utility.yul\":641:665   */\n      tag_57\n        /* \"#utility.yul\":659:664   */\n      dup2\n        /* \"#utility.yul\":641:665   */\n      tag_28\n      jump\t// in\n    tag_57:\n        /* \"#utility.yul\":634:639   */\n      dup2\n        /* \"#utility.yul\":631:666   */\n      eq\n        /* \"#utility.yul\":621:684   */\n      tag_58\n      jumpi\n        /* \"#utility.yul\":680:681   */\n      0x00\n        /* \"#utility.yul\":677:678   */\n      dup1\n        /* \"#utility.yul\":670:682   */\n      revert\n        /* \"#utility.yul\":621:684   */\n    tag_58:\n        /* \"#utility.yul\":568:690   */\n      pop\n      jump\t// out\n        /* \"#utility.yul\":696:835   */\n    tag_30:\n        /* \"#utility.yul\":742:747   */\n      0x00\n        /* \"#utility.yul\":780:786   */\n      dup2\n        /* \"#utility.yul\":767:787   */\n      calldataload\n        /* \"#utility.yul\":758:787   */\n      swap1\n      pop\n        /* \"#utility.yul\":796:829   */\n      tag_60\n        /* \"#utility.yul\":823:828   */\n      dup2\n        /* \"#utility.yul\":796:829   */\n      tag_29\n      jump\t// in\n    tag_60:\n        /* \"#utility.yul\":696:835   */\n      swap3\n      swap2\n      pop\n      pop\n      jump\t// out\n        /* \"#utility.yul\":841:1170   */\n    tag_6:\n        /* \"#utility.yul\":900:906   */\n      0x00\n        /* \"#utility.yul\":949:951   */\n      0x20\n        /* \"#utility.yul\":937:946   */\n      dup3\n        /* \"#utility.yul\":928:935   */\n      dup5\n        /* \"#utility.yul\":924:947   */\n      sub\n        /* \"#utility.yul\":920:952   */\n      slt\n        /* \"#utility.yul\":917:1036   */\n      iszero\n      tag_62\n      jumpi\n        /* \"#utility.yul\":955:1034   */\n      tag_63\n      tag_25\n      jump\t// in\n    tag_63:\n        /* \"#utility.yul\":917:1036   */\n    tag_62:\n        /* \"#utility.yul\":1075:1076   */\n      0x00\n        /* \"#utility.yul\":1100:1153   */\n      tag_64\n        /* \"#utility.yul\":1145:1152   */\n      dup5\n        /* \"#utility.yul\":1136:1142   */\n      dup3\n        /* \"#utility.yul\":1125:1134   */\n      dup6\n        /* \"#utility.yul\":1121:1143   */\n      add\n        /* \"#utility.yul\":1100:1153   */\n      tag_30\n      jump\t// in\n    tag_64:\n        /* \"#utility.yul\":1090:1153   */\n      swap2\n      pop\n        /* \"#utility.yul\":1046:1163   */\n      pop\n        /* \"#utility.yul\":841:1170   */\n      swap3\n      swap2\n      pop\n      pop\n      jump\t// out\n        /* \"#utility.yul\":1176:1266   */\n    tag_31:\n        /* \"#utility.yul\":1210:1217   */\n      0x00\n        /* \"#utility.yul\":1253:1258   */\n      dup2\n        /* \"#utility.yul\":1246:1259   */\n      iszero\n        /* \"#utility.yul\":1239:1260   */\n      iszero\n        /* \"#utility.yul\":1228:1260   */\n      swap1\n      pop\n        /* \"#utility.yul\":1176:1266   */\n      swap2\n      swap1\n      pop\n      jump\t// out\n        /* \"#utility.yul\":1272:1381   */\n    tag_32:\n        /* \"#utility.yul\":1353:1374   */\n      tag_67\n        /* \"#utility.yul\":1368:1373   */\n      dup2\n        /* \"#utility.yul\":1353:1374   */\n      tag_31\n      jump\t// in\n    tag_67:\n        /* \"#utility.yul\":1348:1351   */\n      dup3\n        /* \"#utility.yul\":1341:1375   */\n      mstore\n        /* \"#utility.yul\":1272:1381   */\n      pop\n      pop\n      jump\t// out\n        /* \"#utility.yul\":1387:1485   */\n    tag_33:\n        /* \"#utility.yul\":1438:1444   */\n      0x00\n        /* \"#utility.yul\":1472:1477   */\n      dup2\n        /* \"#utility.yul\":1466:1478   */\n      mload\n        /* \"#utility.yul\":1456:1478   */\n      swap1\n      pop\n        /* \"#utility.yul\":1387:1485   */\n      swap2\n      swap1\n      pop\n      jump\t// out\n        /* \"#utility.yul\":1491:1659   */\n    tag_34:\n        /* \"#utility.yul\":1574:1585   */\n      0x00\n        /* \"#utility.yul\":1608:1614   */\n      dup3\n        /* \"#utility.yul\":1603:1606   */\n      dup3\n        /* \"#utility.yul\":1596:1615   */\n      mstore\n        /* \"#utility.yul\":1648:1652   */\n      0x20\n        /* \"#utility.yul\":1643:1646   */\n      dup3\n        /* \"#utility.yul\":1639:1653   */\n      add\n        /* \"#utility.yul\":1624:1653   */\n      swap1\n      pop\n        /* \"#utility.yul\":1491:1659   */\n      swap3\n      swap2\n      pop\n      pop\n      jump\t// out\n        /* \"#utility.yul\":1665:1911   */\n    tag_35:\n        /* \"#utility.yul\":1746:1747   */\n      0x00\n        /* \"#utility.yul\":1756:1869   */\n    tag_71:\n        /* \"#utility.yul\":1770:1776   */\n      dup4\n        /* \"#utility.yul\":1767:1768   */\n      dup2\n        /* \"#utility.yul\":1764:1777   */\n      lt\n        /* \"#utility.yul\":1756:1869   */\n      iszero\n      tag_73\n      jumpi\n        /* \"#utility.yul\":1855:1856   */\n      dup1\n        /* \"#utility.yul\":1850:1853   */\n      dup3\n        /* \"#utility.yul\":1846:1857   */\n      add\n        /* \"#utility.yul\":1840:1858   */\n      mload\n        /* \"#utility.yul\":1836:1837   */\n      dup2\n        /* \"#utility.yul\":1831:1834   */\n      dup5\n        /* \"#utility.yul\":1827:1838   */\n      add\n        /* \"#utility.yul\":1820:1859   */\n      mstore\n        /* \"#utility.yul\":1792:1794   */\n      0x20\n        /* \"#utility.yul\":1789:1790   */\n      dup2\n        /* \"#utility.yul\":1785:1795   */\n      add\n        /* \"#utility.yul\":1780:1795   */\n      swap1\n      pop\n        /* \"#utility.yul\":1756:1869   */\n      jump(tag_71)\n    tag_73:\n        /* \"#utility.yul\":1903:1904   */\n      0x00\n        /* \"#utility.yul\":1894:1900   */\n      dup5\n        /* \"#utility.yul\":1889:1892   */\n      dup5\n        /* \"#utility.yul\":1885:1901   */\n      add\n        /* \"#utility.yul\":1878:1905   */\n      mstore\n        /* \"#utility.yul\":1727:1911   */\n      pop\n        /* \"#utility.yul\":1665:1911   */\n      pop\n      pop\n      pop\n      jump\t// out\n        /* \"#utility.yul\":1917:2019   */\n    tag_36:\n        /* \"#utility.yul\":1958:1964   */\n      0x00\n        /* \"#utility.yul\":2009:2011   */\n      0x1f\n        /* \"#utility.yul\":2005:2012   */\n      not\n        /* \"#utility.yul\":2000:2002   */\n      0x1f\n        /* \"#utility.yul\":1993:1998   */\n      dup4\n        /* \"#utility.yul\":1989:2003   */\n      add\n        /* \"#utility.yul\":1985:2013   */\n      and\n        /* \"#utility.yul\":1975:2013   */\n      swap1\n      pop\n        /* \"#utility.yul\":1917:2019   */\n      swap2\n      swap1\n      pop\n      jump\t// out\n        /* \"#utility.yul\":2025:2398   */\n    tag_37:\n        /* \"#utility.yul\":2111:2114   */\n      0x00\n        /* \"#utility.yul\":2139:2177   */\n      tag_76\n        /* \"#utility.yul\":2171:2176   */\n      dup3\n        /* \"#utility.yul\":2139:2177   */\n      tag_33\n      jump\t// in\n    tag_76:\n        /* \"#utility.yul\":2193:2263   */\n      tag_77\n        /* \"#utility.yul\":2256:2262   */\n      dup2\n        /* \"#utility.yul\":2251:2254   */\n      dup6\n        /* \"#utility.yul\":2193:2263   */\n      tag_34\n      jump\t// in\n    tag_77:\n        /* \"#utility.yul\":2186:2263   */\n      swap4\n      pop\n        /* \"#utility.yul\":2272:2337   */\n      tag_78\n        /* \"#utility.yul\":2330:2336   */\n      dup2\n        /* \"#utility.yul\":2325:2328   */\n      dup6\n        /* \"#utility.yul\":2318:2322   */\n      0x20\n        /* \"#utility.yul\":2311:2316   */\n      dup7\n        /* \"#utility.yul\":2307:2323   */\n      add\n        /* \"#utility.yul\":2272:2337   */\n      tag_35\n      jump\t// in\n    tag_78:\n        /* \"#utility.yul\":2362:2391   */\n      tag_79\n        /* \"#utility.yul\":2384:2390   */\n      dup2\n        /* \"#utility.yul\":2362:2391   */\n      tag_36\n      jump\t// in\n    tag_79:\n        /* \"#utility.yul\":2357:2360   */\n      dup5\n        /* \"#utility.yul\":2353:2392   */\n      add\n        /* \"#utility.yul\":2346:2392   */\n      swap2\n      pop\n        /* \"#utility.yul\":2115:2398   */\n      pop\n        /* \"#utility.yul\":2025:2398   */\n      swap3\n      swap2\n      pop\n      pop\n      jump\t// out\n        /* \"#utility.yul\":2404:2811   */\n    tag_9:\n        /* \"#utility.yul\":2537:2541   */\n      0x00\n        /* \"#utility.yul\":2575:2577   */\n      0x40\n        /* \"#utility.yul\":2564:2573   */\n      dup3\n        /* \"#utility.yul\":2560:2578   */\n      add\n        /* \"#utility.yul\":2552:2578   */\n      swap1\n      pop\n        /* \"#utility.yul\":2588:2653   */\n      tag_81\n        /* \"#utility.yul\":2650:2651   */\n      0x00\n        /* \"#utility.yul\":2639:2648   */\n      dup4\n        /* \"#utility.yul\":2635:2652   */\n      add\n        /* \"#utility.yul\":2626:2632   */\n      dup6\n        /* \"#utility.yul\":2588:2653   */\n      tag_32\n      jump\t// in\n    tag_81:\n        /* \"#utility.yul\":2700:2709   */\n      dup2\n        /* \"#utility.yul\":2694:2698   */\n      dup2\n        /* \"#utility.yul\":2690:2710   */\n      sub\n        /* \"#utility.yul\":2685:2687   */\n      0x20\n        /* \"#utility.yul\":2674:2683   */\n      dup4\n        /* \"#utility.yul\":2670:2688   */\n      add\n        /* \"#utility.yul\":2663:2711   */\n      mstore\n        /* \"#utility.yul\":2728:2804   */\n      tag_82\n        /* \"#utility.yul\":2799:2803   */\n      dup2\n        /* \"#utility.yul\":2790:2796   */\n      dup5\n        /* \"#utility.yul\":2728:2804   */\n      tag_37\n      jump\t// in\n    tag_82:\n        /* \"#utility.yul\":2720:2804   */\n      swap1\n      pop\n        /* \"#utility.yul\":2404:2811   */\n      swap4\n      swap3\n      pop\n      pop\n      pop\n      jump\t// out\n        /* \"#utility.yul\":2817:2894   */\n    tag_38:\n        /* \"#utility.yul\":2854:2861   */\n      0x00\n        /* \"#utility.yul\":2883:2888   */\n      dup2\n        /* \"#utility.yul\":2872:2888   */\n      swap1\n      pop\n        /* \"#utility.yul\":2817:2894   */\n      swap2\n      swap1\n      pop\n      jump\t// out\n        /* \"#utility.yul\":2900:3080   */\n    tag_39:\n        /* \"#utility.yul\":2948:3025   */\n      0x4e487b7100000000000000000000000000000000000000000000000000000000\n        /* \"#utility.yul\":2945:2946   */\n      0x00\n        /* \"#utility.yul\":2938:3026   */\n      mstore\n        /* \"#utility.yul\":3045:3049   */\n      0x11\n        /* \"#utility.yul\":3042:3043   */\n      0x04\n        /* \"#utility.yul\":3035:3050   */\n      mstore\n        /* \"#utility.yul\":3069:3073   */\n      0x24\n        /* \"#utility.yul\":3066:3067   */\n      0x00\n        /* \"#utility.yul\":3059:3074   */\n      revert\n        /* \"#utility.yul\":3086:3280   */\n    tag_12:\n        /* \"#utility.yul\":3126:3130   */\n      0x00\n        /* \"#utility.yul\":3146:3166   */\n      tag_86\n        /* \"#utility.yul\":3164:3165   */\n      dup3\n        /* \"#utility.yul\":3146:3166   */\n      tag_38\n      jump\t// in\n    tag_86:\n        /* \"#utility.yul\":3141:3166   */\n      swap2\n      pop\n        /* \"#utility.yul\":3180:3200   */\n      tag_87\n        /* \"#utility.yul\":3198:3199   */\n      dup4\n        /* \"#utility.yul\":3180:3200   */\n      tag_38\n      jump\t// in\n    tag_87:\n        /* \"#utility.yul\":3175:3200   */\n      swap3\n      pop\n        /* \"#utility.yul\":3224:3225   */\n      dup3\n        /* \"#utility.yul\":3221:3222   */\n      dup3\n        /* \"#utility.yul\":3217:3226   */\n      sub\n        /* \"#utility.yul\":3209:3226   */\n      swap1\n      pop\n        /* \"#utility.yul\":3248:3249   */\n      dup2\n        /* \"#utility.yul\":3242:3246   */\n      dup2\n        /* \"#utility.yul\":3239:3250   */\n      gt\n        /* \"#utility.yul\":3236:3273   */\n      iszero\n      tag_88\n      jumpi\n        /* \"#utility.yul\":3253:3271   */\n      tag_89\n      tag_39\n      jump\t// in\n    tag_89:\n        /* \"#utility.yul\":3236:3273   */\n    tag_88:\n        /* \"#utility.yul\":3086:3280   */\n      swap3\n      swap2\n      pop\n      pop\n      jump\t// out\n        /* \"#utility.yul\":3286:3363   */\n    tag_40:\n        /* \"#utility.yul\":3323:3330   */\n      0x00\n        /* \"#utility.yul\":3352:3357   */\n      dup2\n        /* \"#utility.yul\":3341:3357   */\n      swap1\n      pop\n        /* \"#utility.yul\":3286:3363   */\n      swap2\n      swap1\n      pop\n      jump\t// out\n        /* \"#utility.yul\":3369:3448   */\n    tag_41:\n        /* \"#utility.yul\":3408:3415   */\n      0x00\n        /* \"#utility.yul\":3437:3442   */\n      dup2\n        /* \"#utility.yul\":3426:3442   */\n      swap1\n      pop\n        /* \"#utility.yul\":3369:3448   */\n      swap2\n      swap1\n      pop\n      jump\t// out\n        /* \"#utility.yul\":3454:3611   */\n    tag_42:\n        /* \"#utility.yul\":3559:3604   */\n      tag_93\n        /* \"#utility.yul\":3579:3603   */\n      tag_94\n        /* \"#utility.yul\":3597:3602   */\n      dup3\n        /* \"#utility.yul\":3579:3603   */\n      tag_40\n      jump\t// in\n    tag_94:\n        /* \"#utility.yul\":3559:3604   */\n      tag_41\n      jump\t// in\n    tag_93:\n        /* \"#utility.yul\":3554:3557   */\n      dup3\n        /* \"#utility.yul\":3547:3605   */\n      mstore\n        /* \"#utility.yul\":3454:3611   */\n      pop\n      pop\n      jump\t// out\n        /* \"#utility.yul\":3617:3696   */\n    tag_43:\n        /* \"#utility.yul\":3656:3663   */\n      0x00\n        /* \"#utility.yul\":3685:3690   */\n      dup2\n        /* \"#utility.yul\":3674:3690   */\n      swap1\n      pop\n        /* \"#utility.yul\":3617:3696   */\n      swap2\n      swap1\n      pop\n      jump\t// out\n        /* \"#utility.yul\":3702:3859   */\n    tag_44:\n        /* \"#utility.yul\":3807:3852   */\n      tag_97\n        /* \"#utility.yul\":3827:3851   */\n      tag_98\n        /* \"#utility.yul\":3845:3850   */\n      dup3\n        /* \"#utility.yul\":3827:3851   */\n      tag_38\n      jump\t// in\n    tag_98:\n        /* \"#utility.yul\":3807:3852   */\n      tag_43\n      jump\t// in\n    tag_97:\n        /* \"#utility.yul\":3802:3805   */\n      dup3\n        /* \"#utility.yul\":3795:3853   */\n      mstore\n        /* \"#utility.yul\":3702:3859   */\n      pop\n      pop\n      jump\t// out\n        /* \"#utility.yul\":3865:4262   */\n    tag_14:\n        /* \"#utility.yul\":4005:4008   */\n      0x00\n        /* \"#utility.yul\":4020:4095   */\n      tag_100\n        /* \"#utility.yul\":4091:4094   */\n      dup3\n        /* \"#utility.yul\":4082:4088   */\n      dup6\n        /* \"#utility.yul\":4020:4095   */\n      tag_42\n      jump\t// in\n    tag_100:\n        /* \"#utility.yul\":4120:4122   */\n      0x20\n        /* \"#utility.yul\":4115:4118   */\n      dup3\n        /* \"#utility.yul\":4111:4123   */\n      add\n        /* \"#utility.yul\":4104:4123   */\n      swap2\n      pop\n        /* \"#utility.yul\":4133:4208   */\n      tag_101\n        /* \"#utility.yul\":4204:4207   */\n      dup3\n        /* \"#utility.yul\":4195:4201   */\n      dup5\n        /* \"#utility.yul\":4133:4208   */\n      tag_44\n      jump\t// in\n    tag_101:\n        /* \"#utility.yul\":4233:4235   */\n      0x20\n        /* \"#utility.yul\":4228:4231   */\n      dup3\n        /* \"#utility.yul\":4224:4236   */\n      add\n        /* \"#utility.yul\":4217:4236   */\n      swap2\n      pop\n        /* \"#utility.yul\":4253:4256   */\n      dup2\n        /* \"#utility.yul\":4246:4256   */\n      swap1\n      pop\n        /* \"#utility.yul\":3865:4262   */\n      swap4\n      swap3\n      pop\n      pop\n      pop\n      jump\t// out\n        /* \"#utility.yul\":4268:4448   */\n    tag_45:\n        /* \"#utility.yul\":4316:4393   */\n      0x4e487b7100000000000000000000000000000000000000000000000000000000\n        /* \"#utility.yul\":4313:4314   */\n      0x00\n        /* \"#utility.yul\":4306:4394   */\n      mstore\n        /* \"#utility.yul\":4413:4417   */\n      0x12\n        /* \"#utility.yul\":4410:4411   */\n      0x04\n        /* \"#utility.yul\":4403:4418   */\n      mstore\n        /* \"#utility.yul\":4437:4441   */\n      0x24\n        /* \"#utility.yul\":4434:4435   */\n      0x00\n        /* \"#utility.yul\":4427:4442   */\n      revert\n        /* \"#utility.yul\":4454:4630   */\n    tag_16:\n        /* \"#utility.yul\":4486:4487   */\n      0x00\n        /* \"#utility.yul\":4503:4523   */\n      tag_104\n        /* \"#utility.yul\":4521:4522   */\n      dup3\n        /* \"#utility.yul\":4503:4523   */\n      tag_38\n      jump\t// in\n    tag_104:\n        /* \"#utility.yul\":4498:4523   */\n      swap2\n      pop\n        /* \"#utility.yul\":4537:4557   */\n      tag_105\n        /* \"#utility.yul\":4555:4556   */\n      dup4\n        /* \"#utility.yul\":4537:4557   */\n      tag_38\n      jump\t// in\n    tag_105:\n        /* \"#utility.yul\":4532:4557   */\n      swap3\n      pop\n        /* \"#utility.yul\":4576:4577   */\n      dup3\n        /* \"#utility.yul\":4566:4601   */\n      tag_106\n      jumpi\n        /* \"#utility.yul\":4581:4599   */\n      tag_107\n      tag_45\n      jump\t// in\n    tag_107:\n        /* \"#utility.yul\":4566:4601   */\n    tag_106:\n        /* \"#utility.yul\":4622:4623   */\n      dup3\n        /* \"#utility.yul\":4619:4620   */\n      dup3\n        /* \"#utility.yul\":4615:4624   */\n      mod\n        /* \"#utility.yul\":4610:4624   */\n      swap1\n      pop\n        /* \"#utility.yul\":4454:4630   */\n      swap3\n      swap2\n      pop\n      pop\n      jump\t// out\n        /* \"#utility.yul\":4636:4754   */\n    tag_46:\n        /* \"#utility.yul\":4723:4747   */\n      tag_109\n        /* \"#utility.yul\":4741:4746   */\n      dup2\n        /* \"#utility.yul\":4723:4747   */\n      tag_38\n      jump\t// in\n    tag_109:\n        /* \"#utility.yul\":4718:4721   */\n      dup3\n        /* \"#utility.yul\":4711:4748   */\n      mstore\n        /* \"#utility.yul\":4636:4754   */\n      pop\n      pop\n      jump\t// out\n        /* \"#utility.yul\":4760:4982   */\n    tag_18:\n        /* \"#utility.yul\":4853:4857   */\n      0x00\n        /* \"#utility.yul\":4891:4893   */\n      0x20\n        /* \"#utility.yul\":4880:4889   */\n      dup3\n        /* \"#utility.yul\":4876:4894   */\n      add\n        /* \"#utility.yul\":4868:4894   */\n      swap1\n      pop\n        /* \"#utility.yul\":4904:4975   */\n      tag_111\n        /* \"#utility.yul\":4972:4973   */\n      0x00\n        /* \"#utility.yul\":4961:4970   */\n      dup4\n        /* \"#utility.yul\":4957:4974   */\n      add\n        /* \"#utility.yul\":4948:4954   */\n      dup5\n        /* \"#utility.yul\":4904:4975   */\n      tag_46\n      jump\t// in\n    tag_111:\n        /* \"#utility.yul\":4760:4982   */\n      swap3\n      swap2\n      pop\n      pop\n      jump\t// out\n        /* \"#utility.yul\":4988:5135   */\n    tag_47:\n        /* \"#utility.yul\":5089:5100   */\n      0x00\n        /* \"#utility.yul\":5126:5129   */\n      dup2\n        /* \"#utility.yul\":5111:5129   */\n      swap1\n      pop\n        /* \"#utility.yul\":4988:5135   */\n      swap3\n      swap2\n      pop\n      pop\n      jump\t// out\n        /* \"#utility.yul\":5141:5527   */\n    tag_48:\n        /* \"#utility.yul\":5245:5248   */\n      0x00\n        /* \"#utility.yul\":5273:5311   */\n      tag_114\n        /* \"#utility.yul\":5305:5310   */\n      dup3\n        /* \"#utility.yul\":5273:5311   */\n      tag_33\n      jump\t// in\n    tag_114:\n        /* \"#utility.yul\":5327:5415   */\n      tag_115\n        /* \"#utility.yul\":5408:5414   */\n      dup2\n        /* \"#utility.yul\":5403:5406   */\n      dup6\n        /* \"#utility.yul\":5327:5415   */\n      tag_47\n      jump\t// in\n    tag_115:\n        /* \"#utility.yul\":5320:5415   */\n      swap4\n      pop\n        /* \"#utility.yul\":5424:5489   */\n      tag_116\n        /* \"#utility.yul\":5482:5488   */\n      dup2\n        /* \"#utility.yul\":5477:5480   */\n      dup6\n        /* \"#utility.yul\":5470:5474   */\n      0x20\n        /* \"#utility.yul\":5463:5468   */\n      dup7\n        /* \"#utility.yul\":5459:5475   */\n      add\n        /* \"#utility.yul\":5424:5489   */\n      tag_35\n      jump\t// in\n    tag_116:\n        /* \"#utility.yul\":5514:5520   */\n      dup1\n        /* \"#utility.yul\":5509:5512   */\n      dup5\n        /* \"#utility.yul\":5505:5521   */\n      add\n        /* \"#utility.yul\":5498:5521   */\n      swap2\n      pop\n        /* \"#utility.yul\":5249:5527   */\n      pop\n        /* \"#utility.yul\":5141:5527   */\n      swap3\n      swap2\n      pop\n      pop\n      jump\t// out\n        /* \"#utility.yul\":5533:5804   */\n    tag_20:\n        /* \"#utility.yul\":5663:5666   */\n      0x00\n        /* \"#utility.yul\":5685:5778   */\n      tag_118\n        /* \"#utility.yul\":5774:5777   */\n      dup3\n        /* \"#utility.yul\":5765:5771   */\n      dup5\n        /* \"#utility.yul\":5685:5778   */\n      tag_48\n      jump\t// in\n    tag_118:\n        /* \"#utility.yul\":5678:5778   */\n      swap2\n      pop\n        /* \"#utility.yul\":5795:5798   */\n      dup2\n        /* \"#utility.yul\":5788:5798   */\n      swap1\n      pop\n        /* \"#utility.yul\":5533:5804   */\n      swap3\n      swap2\n      pop\n      pop\n      jump\t// out\n\n    auxdata: 0xa2646970667358221220c60ed3c53706cee21cbef7181de842bf70b41de4ff1a0b3fd8ec4ef7040417c164736f6c63430008130033\n}\n",
				"bytecode": {
					"linkReferences": {},
					"object": "608060405234801561001057600080fd5b506104e4806100206000396000f3fe608060405234801561001057600080fd5b506004361061002b5760003560e01c8063e55aa43d14610030575b600080fd5b61004a600480360381019061004591906101e4565b610061565b6040516100589291906102bc565b60405180910390f35b60006060600060646001436100769190610325565b40426040516020016100899291906103a5565b6040516020818303038152906040528051906020012060001c6100ac9190610400565b90506000803073ffffffffffffffffffffffffffffffffffffffff1663a0712d68846040516024016100de9190610440565b6040516020818303038152906040529060e01b6020820180517bffffffffffffffffffffffffffffffffffffffffffffffffffffffff838183161783525050505060405161012c9190610497565b6000604051808303816000865af19150503d8060008114610169576040519150601f19603f3d011682016040523d82523d6000602084013e61016e565b606091505b5091509150818194509450505050915091565b600080fd5b600073ffffffffffffffffffffffffffffffffffffffff82169050919050565b60006101b182610186565b9050919050565b6101c1816101a6565b81146101cc57600080fd5b50565b6000813590506101de816101b8565b92915050565b6000602082840312156101fa576101f9610181565b5b6000610208848285016101cf565b91505092915050565b60008115159050919050565b61022681610211565b82525050565b600081519050919050565b600082825260208201905092915050565b60005b8381101561026657808201518184015260208101905061024b565b60008484015250505050565b6000601f19601f8301169050919050565b600061028e8261022c565b6102988185610237565b93506102a8818560208601610248565b6102b181610272565b840191505092915050565b60006040820190506102d1600083018561021d565b81810360208301526102e38184610283565b90509392505050565b6000819050919050565b7f4e487b7100000000000000000000000000000000000000000000000000000000600052601160045260246000fd5b6000610330826102ec565b915061033b836102ec565b9250828203905081811115610353576103526102f6565b5b92915050565b6000819050919050565b6000819050919050565b61037e61037982610359565b610363565b82525050565b6000819050919050565b61039f61039a826102ec565b610384565b82525050565b60006103b1828561036d565b6020820191506103c1828461038e565b6020820191508190509392505050565b7f4e487b7100000000000000000000000000000000000000000000000000000000600052601260045260246000fd5b600061040b826102ec565b9150610416836102ec565b925082610426576104256103d1565b5b828206905092915050565b61043a816102ec565b82525050565b60006020820190506104556000830184610431565b92915050565b600081905092915050565b60006104718261022c565b61047b818561045b565b935061048b818560208601610248565b80840191505092915050565b60006104a38284610466565b91508190509291505056fea2646970667358221220c60ed3c53706cee21cbef7181de842bf70b41de4ff1a0b3fd8ec4ef7040417c164736f6c63430008130033",
					"opcodes": "PUSH1 0x80 PUSH1 0x40 MSTORE CALLVALUE DUP1 ISZERO PUSH2 0x10 JUMPI PUSH1 0x0 DUP1 REVERT JUMPDEST POP PUSH2 0x4E4 DUP1 PUSH2 0x20 PUSH1 0x0 CODECOPY PUSH1 0x0 RETURN INVALID PUSH1 0x80 PUSH1 0x40 MSTORE CALLVALUE DUP1 ISZERO PUSH2 0x10 JUMPI PUSH1 0x0 DUP1 REVERT JUMPDEST POP PUSH1 0x4 CALLDATASIZE LT PUSH2 0x2B JUMPI PUSH1 0x0 CALLDATALOAD PUSH1 0xE0 SHR DUP1 PUSH4 0xE55AA43D EQ PUSH2 0x30 JUMPI JUMPDEST PUSH1 0x0 DUP1 REVERT JUMPDEST PUSH2 0x4A PUSH1 0x4 DUP1 CALLDATASIZE SUB DUP2 ADD SWAP1 PUSH2 0x45 SWAP2 SWAP1 PUSH2 0x1E4 JUMP JUMPDEST PUSH2 0x61 JUMP JUMPDEST PUSH1 0x40 MLOAD PUSH2 0x58 SWAP3 SWAP2 SWAP1 PUSH2 0x2BC JUMP JUMPDEST PUSH1 0x40 MLOAD DUP1 SWAP2 SUB SWAP1 RETURN JUMPDEST PUSH1 0x0 PUSH1 0x60 PUSH1 0x0 PUSH1 0x64 PUSH1 0x1 NUMBER PUSH2 0x76 SWAP2 SWAP1 PUSH2 0x325 JUMP JUMPDEST BLOCKHASH TIMESTAMP PUSH1 0x40 MLOAD PUSH1 0x20 ADD PUSH2 0x89 SWAP3 SWAP2 SWAP1 PUSH2 0x3A5 JUMP JUMPDEST PUSH1 0x40 MLOAD PUSH1 0x20 DUP2 DUP4 SUB SUB DUP2 MSTORE SWAP1 PUSH1 0x40 MSTORE DUP1 MLOAD SWAP1 PUSH1 0x20 ADD KECCAK256 PUSH1 0x0 SHR PUSH2 0xAC SWAP2 SWAP1 PUSH2 0x400 JUMP JUMPDEST SWAP1 POP PUSH1 0x0 DUP1 ADDRESS PUSH20 0xFFFFFFFFFFFFFFFFFFFFFFFFFFFFFFFFFFFFFFFF AND PUSH4 0xA0712D68 DUP5 PUSH1 0x40 MLOAD PUSH1 0x24 ADD PUSH2 0xDE SWAP2 SWAP1 PUSH2 0x440 JUMP JUMPDEST PUSH1 0x40 MLOAD PUSH1 0x20 DUP2 DUP4 SUB SUB DUP2 MSTORE SWAP1 PUSH1 0x40 MSTORE SWAP1 PUSH1 0xE0 SHL PUSH1 0x20 DUP3 ADD DUP1 MLOAD PUSH28 0xFFFFFFFFFFFFFFFFFFFFFFFFFFFFFFFFFFFFFFFFFFFFFFFFFFFFFFFF DUP4 DUP2 DUP4 AND OR DUP4 MSTORE POP POP POP POP PUSH1 0x40 MLOAD PUSH2 0x12C SWAP2 SWAP1 PUSH2 0x497 JUMP JUMPDEST PUSH1 0x0 PUSH1 0x40 MLOAD DUP1 DUP4 SUB DUP2 PUSH1 0x0 DUP7 GAS CALL SWAP2 POP POP RETURNDATASIZE DUP1 PUSH1 0x0 DUP2 EQ PUSH2 0x169 JUMPI PUSH1 0x40 MLOAD SWAP2 POP PUSH1 0x1F NOT PUSH1 0x3F RETURNDATASIZE ADD AND DUP3 ADD PUSH1 0x40 MSTORE RETURNDATASIZE DUP3 MSTORE RETURNDATASIZE PUSH1 0x0 PUSH1 0x20 DUP5 ADD RETURNDATACOPY PUSH2 0x16E JUMP JUMPDEST PUSH1 0x60 SWAP2 POP JUMPDEST POP SWAP2 POP SWAP2 POP DUP2 DUP2 SWAP5 POP SWAP5 POP POP POP POP SWAP2 POP SWAP2 JUMP JUMPDEST PUSH1 0x0 DUP1 REVERT JUMPDEST PUSH1 0x0 PUSH20 0xFFFFFFFFFFFFFFFFFFFFFFFFFFFFFFFFFFFFFFFF DUP3 AND SWAP1 POP SWAP2 SWAP1 POP JUMP JUMPDEST PUSH1 0x0 PUSH2 0x1B1 DUP3 PUSH2 0x186 JUMP JUMPDEST SWAP1 POP SWAP2 SWAP1 POP JUMP JUMPDEST PUSH2 0x1C1 DUP2 PUSH2 0x1A6 JUMP JUMPDEST DUP2 EQ PUSH2 0x1CC JUMPI PUSH1 0x0 DUP1 REVERT JUMPDEST POP JUMP JUMPDEST PUSH1 0x0 DUP2 CALLDATALOAD SWAP1 POP PUSH2 0x1DE DUP2 PUSH2 0x1B8 JUMP JUMPDEST SWAP3 SWAP2 POP POP JUMP JUMPDEST PUSH1 0x0 PUSH1 0x20 DUP3 DUP5 SUB SLT ISZERO PUSH2 0x1FA JUMPI PUSH2 0x1F9 PUSH2 0x181 JUMP JUMPDEST JUMPDEST PUSH1 0x0 PUSH2 0x208 DUP5 DUP3 DUP6 ADD PUSH2 0x1CF JUMP JUMPDEST SWAP2 POP POP SWAP3 SWAP2 POP POP JUMP JUMPDEST PUSH1 0x0 DUP2 ISZERO ISZERO SWAP1 POP SWAP2 SWAP1 POP JUMP JUMPDEST PUSH2 0x226 DUP2 PUSH2 0x211 JUMP JUMPDEST DUP3 MSTORE POP POP JUMP JUMPDEST PUSH1 0x0 DUP2 MLOAD SWAP1 POP SWAP2 SWAP1 POP JUMP JUMPDEST PUSH1 0x0 DUP3 DUP3 MSTORE PUSH1 0x20 DUP3 ADD SWAP1 POP SWAP3 SWAP2 POP POP JUMP JUMPDEST PUSH1 0x0 JUMPDEST DUP4 DUP2 LT ISZERO PUSH2 0x266 JUMPI DUP1 DUP3 ADD MLOAD DUP2 DUP5 ADD MSTORE PUSH1 0x20 DUP2 ADD SWAP1 POP PUSH2 0x24B JUMP JUMPDEST PUSH1 0x0 DUP5 DUP5 ADD MSTORE POP POP POP POP JUMP JUMPDEST PUSH1 0x0 PUSH1 0x1F NOT PUSH1 0x1F DUP4 ADD AND SWAP1 POP SWAP2 SWAP1 POP JUMP JUMPDEST PUSH1 0x0 PUSH2 0x28E DUP3 PUSH2 0x22C JUMP JUMPDEST PUSH2 0x298 DUP2 DUP6 PUSH2 0x237 JUMP JUMPDEST SWAP4 POP PUSH2 0x2A8 DUP2 DUP6 PUSH1 0x20 DUP7 ADD PUSH2 0x248 JUMP JUMPDEST PUSH2 0x2B1 DUP2 PUSH2 0x272 JUMP JUMPDEST DUP5 ADD SWAP2 POP POP SWAP3 SWAP2 POP POP JUMP JUMPDEST PUSH1 0x0 PUSH1 0x40 DUP3 ADD SWAP1 POP PUSH2 0x2D1 PUSH1 0x0 DUP4 ADD DUP6 PUSH2 0x21D JUMP JUMPDEST DUP2 DUP2 SUB PUSH1 0x20 DUP4 ADD MSTORE PUSH2 0x2E3 DUP2 DUP5 PUSH2 0x283 JUMP JUMPDEST SWAP1 POP SWAP4 SWAP3 POP POP POP JUMP JUMPDEST PUSH1 0x0 DUP2 SWAP1 POP SWAP2 SWAP1 POP JUMP JUMPDEST PUSH32 0x4E487B7100000000000000000000000000000000000000000000000000000000 PUSH1 0x0 MSTORE PUSH1 0x11 PUSH1 0x4 MSTORE PUSH1 0x24 PUSH1 0x0 REVERT JUMPDEST PUSH1 0x0 PUSH2 0x330 DUP3 PUSH2 0x2EC JUMP JUMPDEST SWAP2 POP PUSH2 0x33B DUP4 PUSH2 0x2EC JUMP JUMPDEST SWAP3 POP DUP3 DUP3 SUB SWAP1 POP DUP2 DUP2 GT ISZERO PUSH2 0x353 JUMPI PUSH2 0x352 PUSH2 0x2F6 JUMP JUMPDEST JUMPDEST SWAP3 SWAP2 POP POP JUMP JUMPDEST PUSH1 0x0 DUP2 SWAP1 POP SWAP2 SWAP1 POP JUMP JUMPDEST PUSH1 0x0 DUP2 SWAP1 POP SWAP2 SWAP1 POP JUMP JUMPDEST PUSH2 0x37E PUSH2 0x379 DUP3 PUSH2 0x359 JUMP JUMPDEST PUSH2 0x363 JUMP JUMPDEST DUP3 MSTORE POP POP JUMP JUMPDEST PUSH1 0x0 DUP2 SWAP1 POP SWAP2 SWAP1 POP JUMP JUMPDEST PUSH2 0x39F PUSH2 0x39A DUP3 PUSH2 0x2EC JUMP JUMPDEST PUSH2 0x384 JUMP JUMPDEST DUP3 MSTORE POP POP JUMP JUMPDEST PUSH1 0x0 PUSH2 0x3B1 DUP3 DUP6 PUSH2 0x36D JUMP JUMPDEST PUSH1 0x20 DUP3 ADD SWAP2 POP PUSH2 0x3C1 DUP3 DUP5 PUSH2 0x38E JUMP JUMPDEST PUSH1 0x20 DUP3 ADD SWAP2 POP DUP2 SWAP1 POP SWAP4 SWAP3 POP POP POP JUMP JUMPDEST PUSH32 0x4E487B7100000000000000000000000000000000000000000000000000000000 PUSH1 0x0 MSTORE PUSH1 0x12 PUSH1 0x4 MSTORE PUSH1 0x24 PUSH1 0x0 REVERT JUMPDEST PUSH1 0x0 PUSH2 0x40B DUP3 PUSH2 0x2EC JUMP JUMPDEST SWAP2 POP PUSH2 0x416 DUP4 PUSH2 0x2EC JUMP JUMPDEST SWAP3 POP DUP3 PUSH2 0x426 JUMPI PUSH2 0x425 PUSH2 0x3D1 JUMP JUMPDEST JUMPDEST DUP3 DUP3 MOD SWAP1 POP SWAP3 SWAP2 POP POP JUMP JUMPDEST PUSH2 0x43A DUP2 PUSH2 0x2EC JUMP JUMPDEST DUP3 MSTORE POP POP JUMP JUMPDEST PUSH1 0x0 PUSH1 0x20 DUP3 ADD SWAP1 POP PUSH2 0x455 PUSH1 0x0 DUP4 ADD DUP5 PUSH2 0x431 JUMP JUMPDEST SWAP3 SWAP2 POP POP JUMP JUMPDEST PUSH1 0x0 DUP2 SWAP1 POP SWAP3 SWAP2 POP POP JUMP JUMPDEST PUSH1 0x0 PUSH2 0x471 DUP3 PUSH2 0x22C JUMP JUMPDEST PUSH2 0x47B DUP2 DUP6 PUSH2 0x45B JUMP JUMPDEST SWAP4 POP PUSH2 0x48B DUP2 DUP6 PUSH1 0x20 DUP7 ADD PUSH2 0x248 JUMP JUMPDEST DUP1 DUP5 ADD SWAP2 POP POP SWAP3 SWAP2 POP POP JUMP JUMPDEST PUSH1 0x0 PUSH2 0x4A3 DUP3 DUP5 PUSH2 0x466 JUMP JUMPDEST SWAP2 POP DUP2 SWAP1 POP SWAP3 SWAP2 POP POP JUMP INVALID LOG2 PUSH5 0x6970667358 0x22 SLT KECCAK256 0xC6 0xE 0xD3 0xC5 CALLDATACOPY MOD 0xCE 0xE2 SHR 0xBE 0xF7 XOR SAR 0xE8 TIMESTAMP 0xBF PUSH17 0xB41DE4FF1A0B3FD8EC4EF7040417C16473 PUSH16 0x6C634300081300330000000000000000 "
				},
				"gasEstimates": {
					"creation": {
						"codeDepositCost": "250400",
						"executionCost": "294",
						"totalCost": "250694"
					},
					"external": {
						"attacBadMint(address)": "infinite"
					}
				},
				"methodIdentifiers": {
					"attacBadMint(address)": "e55aa43d"
				}
			},
			"storageLayout": {
				"storage": [],
				"types": null
			},
			"userdoc": {
				"kind": "user",
				"methods": {},
				"version": 1
			}
		}
	}
}