{
	"contracts/_LearnEvent.sol": {
		"LearnError": {
			"abi": [
				{
					"inputs": [],
					"stateMutability": "nonpayable",
					"type": "constructor"
				},
				{
					"inputs": [
						{
							"internalType": "uint256",
							"name": "payMount",
							"type": "uint256"
						},
						{
							"internalType": "uint256",
							"name": "amount",
							"type": "uint256"
						}
					],
					"name": "NotEnoughFunds",
					"type": "error"
				},
				{
					"inputs": [
						{
							"internalType": "address",
							"name": "add",
							"type": "address"
						}
					],
					"name": "getBalance",
					"outputs": [
						{
							"internalType": "uint256",
							"name": "",
							"type": "uint256"
						}
					],
					"stateMutability": "view",
					"type": "function"
				},
				{
					"inputs": [
						{
							"internalType": "address",
							"name": "reviceAdd",
							"type": "address"
						},
						{
							"internalType": "uint256",
							"name": "payAmount",
							"type": "uint256"
						}
					],
					"name": "pay",
					"outputs": [],
					"stateMutability": "nonpayable",
					"type": "function"
				}
			],
			"devdoc": {
				"kind": "dev",
				"methods": {},
				"version": 1
			},
			"evm": {
				"assembly": "    /* \"contracts/_LearnEvent.sol\":157:1242  contract LearnError {... */\n  mstore(0x40, 0x80)\n    /* \"contracts/_LearnEvent.sol\":328:383  constructor() {... */\n  callvalue\n  dup1\n  iszero\n  tag_1\n  jumpi\n  0x00\n  dup1\n  revert\ntag_1:\n  pop\n    /* \"contracts/_LearnEvent.sol\":366:376  msg.sender */\n  caller\n    /* \"contracts/_LearnEvent.sol\":352:363  chairperson */\n  0x00\n  dup1\n    /* \"contracts/_LearnEvent.sol\":352:376  chairperson = msg.sender */\n  0x0100\n  exp\n  dup2\n  sload\n  dup2\n  0xffffffffffffffffffffffffffffffffffffffff\n  mul\n  not\n  and\n  swap1\n  dup4\n  0xffffffffffffffffffffffffffffffffffffffff\n  and\n  mul\n  or\n  swap1\n  sstore\n  pop\n    /* \"contracts/_LearnEvent.sol\":157:1242  contract LearnError {... */\n  dataSize(sub_0)\n  dup1\n  dataOffset(sub_0)\n  0x00\n  codecopy\n  0x00\n  return\nstop\n\nsub_0: assembly {\n        /* \"contracts/_LearnEvent.sol\":157:1242  contract LearnError {... */\n      mstore(0x40, 0x80)\n      callvalue\n      dup1\n      iszero\n      tag_1\n      jumpi\n      0x00\n      dup1\n      revert\n    tag_1:\n      pop\n      jumpi(tag_2, lt(calldatasize, 0x04))\n      shr(0xe0, calldataload(0x00))\n      dup1\n      0xc4076876\n      eq\n      tag_3\n      jumpi\n      dup1\n      0xf8b2cb4f\n      eq\n      tag_4\n      jumpi\n    tag_2:\n      0x00\n      dup1\n      revert\n        /* \"contracts/_LearnEvent.sol\":554:1136  function pay(address reviceAdd, uint256 payAmount) public _isOwner {... */\n    tag_3:\n      tag_5\n      0x04\n      dup1\n      calldatasize\n      sub\n      dup2\n      add\n      swap1\n      tag_6\n      swap2\n      swap1\n      tag_7\n      jump\t// in\n    tag_6:\n      tag_8\n      jump\t// in\n    tag_5:\n      stop\n        /* \"contracts/_LearnEvent.sol\":1142:1240  function getBalance(address add) public view returns (uint256) {... */\n    tag_4:\n      tag_9\n      0x04\n      dup1\n      calldatasize\n      sub\n      dup2\n      add\n      swap1\n      tag_10\n      swap2\n      swap1\n      tag_11\n      jump\t// in\n    tag_10:\n      tag_12\n      jump\t// in\n    tag_9:\n      mload(0x40)\n      tag_13\n      swap2\n      swap1\n      tag_14\n      jump\t// in\n    tag_13:\n      mload(0x40)\n      dup1\n      swap2\n      sub\n      swap1\n      return\n        /* \"contracts/_LearnEvent.sol\":554:1136  function pay(address reviceAdd, uint256 payAmount) public _isOwner {... */\n    tag_8:\n        /* \"contracts/_LearnEvent.sol\":269:280  chairperson */\n      0x00\n      dup1\n      sload\n      swap1\n      0x0100\n      exp\n      swap1\n      div\n      0xffffffffffffffffffffffffffffffffffffffff\n      and\n        /* \"contracts/_LearnEvent.sol\":255:280  msg.sender == chairperson */\n      0xffffffffffffffffffffffffffffffffffffffff\n      and\n        /* \"contracts/_LearnEvent.sol\":255:265  msg.sender */\n      caller\n        /* \"contracts/_LearnEvent.sol\":255:280  msg.sender == chairperson */\n      0xffffffffffffffffffffffffffffffffffffffff\n      and\n      eq\n        /* \"contracts/_LearnEvent.sol\":247:304  require(msg.sender == chairperson, \"Caller is not owner\") */\n      tag_16\n      jumpi\n      mload(0x40)\n      0x08c379a000000000000000000000000000000000000000000000000000000000\n      dup2\n      mstore\n      0x04\n      add\n      tag_17\n      swap1\n      tag_18\n      jump\t// in\n    tag_17:\n      mload(0x40)\n      dup1\n      swap2\n      sub\n      swap1\n      revert\n    tag_16:\n        /* \"contracts/_LearnEvent.sol\":713:728  uint256 balance */\n      0x00\n        /* \"contracts/_LearnEvent.sol\":731:753  getBalance(msg.sender) */\n      tag_20\n        /* \"contracts/_LearnEvent.sol\":742:752  msg.sender */\n      caller\n        /* \"contracts/_LearnEvent.sol\":731:741  getBalance */\n      tag_12\n        /* \"contracts/_LearnEvent.sol\":731:753  getBalance(msg.sender) */\n      jump\t// in\n    tag_20:\n        /* \"contracts/_LearnEvent.sol\":713:753  uint256 balance = getBalance(msg.sender) */\n      swap1\n      pop\n        /* \"contracts/_LearnEvent.sol\":763:803  console.log(\"current account:\", balance) */\n      tag_21\n      mload(0x40)\n      dup1\n      0x40\n      add\n      0x40\n      mstore\n      dup1\n      0x10\n      dup2\n      mstore\n      0x20\n      add\n      0x63757272656e74206163636f756e743a00000000000000000000000000000000\n      dup2\n      mstore\n      pop\n        /* \"contracts/_LearnEvent.sol\":795:802  balance */\n      dup3\n        /* \"contracts/_LearnEvent.sol\":763:774  console.log */\n      tag_22\n        /* \"contracts/_LearnEvent.sol\":763:803  console.log(\"current account:\", balance) */\n      jump\t// in\n    tag_21:\n        /* \"contracts/_LearnEvent.sol\":814:854  console.log(\"current account:\", balance) */\n      tag_23\n      mload(0x40)\n      dup1\n      0x40\n      add\n      0x40\n      mstore\n      dup1\n      0x10\n      dup2\n      mstore\n      0x20\n      add\n      0x63757272656e74206163636f756e743a00000000000000000000000000000000\n      dup2\n      mstore\n      pop\n        /* \"contracts/_LearnEvent.sol\":846:853  balance */\n      dup3\n        /* \"contracts/_LearnEvent.sol\":814:825  console.log */\n      tag_22\n        /* \"contracts/_LearnEvent.sol\":814:854  console.log(\"current account:\", balance) */\n      jump\t// in\n    tag_23:\n        /* \"contracts/_LearnEvent.sol\":866:906  console.log(\"current account:\", balance) */\n      tag_24\n      mload(0x40)\n      dup1\n      0x40\n      add\n      0x40\n      mstore\n      dup1\n      0x10\n      dup2\n      mstore\n      0x20\n      add\n      0x63757272656e74206163636f756e743a00000000000000000000000000000000\n      dup2\n      mstore\n      pop\n        /* \"contracts/_LearnEvent.sol\":898:905  balance */\n      dup3\n        /* \"contracts/_LearnEvent.sol\":866:877  console.log */\n      tag_22\n        /* \"contracts/_LearnEvent.sol\":866:906  console.log(\"current account:\", balance) */\n      jump\t// in\n    tag_24:\n        /* \"contracts/_LearnEvent.sol\":930:939  payAmount */\n      dup2\n        /* \"contracts/_LearnEvent.sol\":920:927  balance */\n      dup2\n        /* \"contracts/_LearnEvent.sol\":920:939  balance < payAmount */\n      lt\n        /* \"contracts/_LearnEvent.sol\":916:1007  if (balance < payAmount) {... */\n      iszero\n      tag_25\n      jumpi\n        /* \"contracts/_LearnEvent.sol\":977:986  payAmount */\n      dup2\n        /* \"contracts/_LearnEvent.sol\":988:995  balance */\n      dup2\n        /* \"contracts/_LearnEvent.sol\":962:996  NotEnoughFunds(payAmount, balance) */\n      mload(0x40)\n      0x8c90536800000000000000000000000000000000000000000000000000000000\n      dup2\n      mstore\n      0x04\n      add\n      tag_26\n      swap3\n      swap2\n      swap1\n      tag_27\n      jump\t// in\n    tag_26:\n      mload(0x40)\n      dup1\n      swap2\n      sub\n      swap1\n      revert\n        /* \"contracts/_LearnEvent.sol\":916:1007  if (balance < payAmount) {... */\n    tag_25:\n        /* \"contracts/_LearnEvent.sol\":1078:1087  payAmount */\n      dup2\n        /* \"contracts/_LearnEvent.sol\":1054:1062  balances */\n      0x01\n        /* \"contracts/_LearnEvent.sol\":1054:1074  balances[msg.sender] */\n      0x00\n        /* \"contracts/_LearnEvent.sol\":1063:1073  msg.sender */\n      caller\n        /* \"contracts/_LearnEvent.sol\":1054:1074  balances[msg.sender] */\n      0xffffffffffffffffffffffffffffffffffffffff\n      and\n      0xffffffffffffffffffffffffffffffffffffffff\n      and\n      dup2\n      mstore\n      0x20\n      add\n      swap1\n      dup2\n      mstore\n      0x20\n      add\n      0x00\n      keccak256\n      0x00\n        /* \"contracts/_LearnEvent.sol\":1054:1087  balances[msg.sender] -= payAmount */\n      dup3\n      dup3\n      sload\n      tag_28\n      swap2\n      swap1\n      tag_29\n      jump\t// in\n    tag_28:\n      swap3\n      pop\n      pop\n      dup2\n      swap1\n      sstore\n      pop\n        /* \"contracts/_LearnEvent.sol\":1120:1129  payAmount */\n      dup2\n        /* \"contracts/_LearnEvent.sol\":1097:1105  balances */\n      0x01\n        /* \"contracts/_LearnEvent.sol\":1097:1116  balances[reviceAdd] */\n      0x00\n        /* \"contracts/_LearnEvent.sol\":1106:1115  reviceAdd */\n      dup6\n        /* \"contracts/_LearnEvent.sol\":1097:1116  balances[reviceAdd] */\n      0xffffffffffffffffffffffffffffffffffffffff\n      and\n      0xffffffffffffffffffffffffffffffffffffffff\n      and\n      dup2\n      mstore\n      0x20\n      add\n      swap1\n      dup2\n      mstore\n      0x20\n      add\n      0x00\n      keccak256\n      0x00\n        /* \"contracts/_LearnEvent.sol\":1097:1129  balances[reviceAdd] += payAmount */\n      dup3\n      dup3\n      sload\n      tag_30\n      swap2\n      swap1\n      tag_31\n      jump\t// in\n    tag_30:\n      swap3\n      pop\n      pop\n      dup2\n      swap1\n      sstore\n      pop\n        /* \"contracts/_LearnEvent.sol\":621:1136  {... */\n      pop\n        /* \"contracts/_LearnEvent.sol\":554:1136  function pay(address reviceAdd, uint256 payAmount) public _isOwner {... */\n      pop\n      pop\n      jump\t// out\n        /* \"contracts/_LearnEvent.sol\":1142:1240  function getBalance(address add) public view returns (uint256) {... */\n    tag_12:\n        /* \"contracts/_LearnEvent.sol\":1196:1203  uint256 */\n      0x00\n        /* \"contracts/_LearnEvent.sol\":1222:1225  add */\n      dup2\n        /* \"contracts/_LearnEvent.sol\":1222:1233  add.balance */\n      0xffffffffffffffffffffffffffffffffffffffff\n      and\n      balance\n        /* \"contracts/_LearnEvent.sol\":1215:1233  return add.balance */\n      swap1\n      pop\n        /* \"contracts/_LearnEvent.sol\":1142:1240  function getBalance(address add) public view returns (uint256) {... */\n      swap2\n      swap1\n      pop\n      jump\t// out\n        /* \"hardhat/console.sol\":5936:6072  function log(string memory p0, uint256 p1) internal view {... */\n    tag_22:\n        /* \"hardhat/console.sol\":5997:6068  _sendLogPayload(abi.encodeWithSignature(\"log(string,uint256)\", p0, p1)) */\n      tag_34\n        /* \"hardhat/console.sol\":6060:6062  p0 */\n      dup3\n        /* \"hardhat/console.sol\":6064:6066  p1 */\n      dup3\n        /* \"hardhat/console.sol\":6013:6067  abi.encodeWithSignature(\"log(string,uint256)\", p0, p1) */\n      add(0x24, mload(0x40))\n      tag_35\n      swap3\n      swap2\n      swap1\n      tag_36\n      jump\t// in\n    tag_35:\n      mload(0x40)\n      0x20\n      dup2\n      dup4\n      sub\n      sub\n      dup2\n      mstore\n      swap1\n      0x40\n      mstore\n      and(not(0xffffffffffffffffffffffffffffffffffffffffffffffffffffffff), 0xb60e72cc00000000000000000000000000000000000000000000000000000000)\n      0x20\n      dup3\n      add\n      dup1\n      mload\n      0xffffffffffffffffffffffffffffffffffffffffffffffffffffffff\n      dup4\n      dup2\n      dup4\n      and\n      or\n      dup4\n      mstore\n      pop\n      pop\n      pop\n      pop\n        /* \"hardhat/console.sol\":5997:6012  _sendLogPayload */\n      tag_37\n        /* \"hardhat/console.sol\":5997:6068  _sendLogPayload(abi.encodeWithSignature(\"log(string,uint256)\", p0, p1)) */\n      jump\t// in\n    tag_34:\n        /* \"hardhat/console.sol\":5936:6072  function log(string memory p0, uint256 p1) internal view {... */\n      pop\n      pop\n      jump\t// out\n        /* \"hardhat/console.sol\":176:464  function _sendLogPayload(bytes memory payload) private view {... */\n    tag_37:\n        /* \"hardhat/console.sol\":240:261  uint256 payloadLength */\n      0x00\n        /* \"hardhat/console.sol\":264:271  payload */\n      dup2\n        /* \"hardhat/console.sol\":264:278  payload.length */\n      mload\n        /* \"hardhat/console.sol\":240:278  uint256 payloadLength = payload.length */\n      swap1\n      pop\n        /* \"hardhat/console.sol\":282:304  address consoleAddress */\n      0x00\n        /* \"hardhat/console.sol\":129:171  0x000000000000000000636F6e736F6c652e6c6f67 */\n      0x636f6e736f6c652e6c6f67\n        /* \"hardhat/console.sol\":282:322  address consoleAddress = CONSOLE_ADDRESS */\n      swap1\n      pop\n        /* \"hardhat/console.sol\":373:375  32 */\n      0x20\n        /* \"hardhat/console.sol\":364:371  payload */\n      dup4\n        /* \"hardhat/console.sol\":360:376  add(payload, 32) */\n      add\n        /* \"hardhat/console.sol\":455:456  0 */\n      0x00\n        /* \"hardhat/console.sol\":452:453  0 */\n      dup1\n        /* \"hardhat/console.sol\":437:450  payloadLength */\n      dup5\n        /* \"hardhat/console.sol\":423:435  payloadStart */\n      dup4\n        /* \"hardhat/console.sol\":407:421  consoleAddress */\n      dup6\n        /* \"hardhat/console.sol\":400:405  gas() */\n      gas\n        /* \"hardhat/console.sol\":389:457  staticcall(gas(), consoleAddress, payloadStart, payloadLength, 0, 0) */\n      staticcall\n        /* \"hardhat/console.sol\":335:461  {... */\n      pop\n      pop\n      pop\n      pop\n        /* \"hardhat/console.sol\":176:464  function _sendLogPayload(bytes memory payload) private view {... */\n      pop\n      jump\t// out\n        /* \"#utility.yul\":7:146   */\n    tag_40:\n        /* \"#utility.yul\":53:58   */\n      0x00\n        /* \"#utility.yul\":91:97   */\n      dup2\n        /* \"#utility.yul\":78:98   */\n      calldataload\n        /* \"#utility.yul\":69:98   */\n      swap1\n      pop\n        /* \"#utility.yul\":107:140   */\n      tag_42\n        /* \"#utility.yul\":134:139   */\n      dup2\n        /* \"#utility.yul\":107:140   */\n      tag_43\n      jump\t// in\n    tag_42:\n        /* \"#utility.yul\":7:146   */\n      swap3\n      swap2\n      pop\n      pop\n      jump\t// out\n        /* \"#utility.yul\":152:291   */\n    tag_44:\n        /* \"#utility.yul\":198:203   */\n      0x00\n        /* \"#utility.yul\":236:242   */\n      dup2\n        /* \"#utility.yul\":223:243   */\n      calldataload\n        /* \"#utility.yul\":214:243   */\n      swap1\n      pop\n        /* \"#utility.yul\":252:285   */\n      tag_46\n        /* \"#utility.yul\":279:284   */\n      dup2\n        /* \"#utility.yul\":252:285   */\n      tag_47\n      jump\t// in\n    tag_46:\n        /* \"#utility.yul\":152:291   */\n      swap3\n      swap2\n      pop\n      pop\n      jump\t// out\n        /* \"#utility.yul\":297:626   */\n    tag_11:\n        /* \"#utility.yul\":356:362   */\n      0x00\n        /* \"#utility.yul\":405:407   */\n      0x20\n        /* \"#utility.yul\":393:402   */\n      dup3\n        /* \"#utility.yul\":384:391   */\n      dup5\n        /* \"#utility.yul\":380:403   */\n      sub\n        /* \"#utility.yul\":376:408   */\n      slt\n        /* \"#utility.yul\":373:492   */\n      iszero\n      tag_49\n      jumpi\n        /* \"#utility.yul\":411:490   */\n      tag_50\n      tag_51\n      jump\t// in\n    tag_50:\n        /* \"#utility.yul\":373:492   */\n    tag_49:\n        /* \"#utility.yul\":531:532   */\n      0x00\n        /* \"#utility.yul\":556:609   */\n      tag_52\n        /* \"#utility.yul\":601:608   */\n      dup5\n        /* \"#utility.yul\":592:598   */\n      dup3\n        /* \"#utility.yul\":581:590   */\n      dup6\n        /* \"#utility.yul\":577:599   */\n      add\n        /* \"#utility.yul\":556:609   */\n      tag_40\n      jump\t// in\n    tag_52:\n        /* \"#utility.yul\":546:609   */\n      swap2\n      pop\n        /* \"#utility.yul\":502:619   */\n      pop\n        /* \"#utility.yul\":297:626   */\n      swap3\n      swap2\n      pop\n      pop\n      jump\t// out\n        /* \"#utility.yul\":632:1106   */\n    tag_7:\n        /* \"#utility.yul\":700:706   */\n      0x00\n        /* \"#utility.yul\":708:714   */\n      dup1\n        /* \"#utility.yul\":757:759   */\n      0x40\n        /* \"#utility.yul\":745:754   */\n      dup4\n        /* \"#utility.yul\":736:743   */\n      dup6\n        /* \"#utility.yul\":732:755   */\n      sub\n        /* \"#utility.yul\":728:760   */\n      slt\n        /* \"#utility.yul\":725:844   */\n      iszero\n      tag_54\n      jumpi\n        /* \"#utility.yul\":763:842   */\n      tag_55\n      tag_51\n      jump\t// in\n    tag_55:\n        /* \"#utility.yul\":725:844   */\n    tag_54:\n        /* \"#utility.yul\":883:884   */\n      0x00\n        /* \"#utility.yul\":908:961   */\n      tag_56\n        /* \"#utility.yul\":953:960   */\n      dup6\n        /* \"#utility.yul\":944:950   */\n      dup3\n        /* \"#utility.yul\":933:942   */\n      dup7\n        /* \"#utility.yul\":929:951   */\n      add\n        /* \"#utility.yul\":908:961   */\n      tag_40\n      jump\t// in\n    tag_56:\n        /* \"#utility.yul\":898:961   */\n      swap3\n      pop\n        /* \"#utility.yul\":854:971   */\n      pop\n        /* \"#utility.yul\":1010:1012   */\n      0x20\n        /* \"#utility.yul\":1036:1089   */\n      tag_57\n        /* \"#utility.yul\":1081:1088   */\n      dup6\n        /* \"#utility.yul\":1072:1078   */\n      dup3\n        /* \"#utility.yul\":1061:1070   */\n      dup7\n        /* \"#utility.yul\":1057:1079   */\n      add\n        /* \"#utility.yul\":1036:1089   */\n      tag_44\n      jump\t// in\n    tag_57:\n        /* \"#utility.yul\":1026:1089   */\n      swap2\n      pop\n        /* \"#utility.yul\":981:1099   */\n      pop\n        /* \"#utility.yul\":632:1106   */\n      swap3\n      pop\n      swap3\n      swap1\n      pop\n      jump\t// out\n        /* \"#utility.yul\":1112:1476   */\n    tag_58:\n        /* \"#utility.yul\":1200:1203   */\n      0x00\n        /* \"#utility.yul\":1228:1267   */\n      tag_60\n        /* \"#utility.yul\":1261:1266   */\n      dup3\n        /* \"#utility.yul\":1228:1267   */\n      tag_61\n      jump\t// in\n    tag_60:\n        /* \"#utility.yul\":1283:1354   */\n      tag_62\n        /* \"#utility.yul\":1347:1353   */\n      dup2\n        /* \"#utility.yul\":1342:1345   */\n      dup6\n        /* \"#utility.yul\":1283:1354   */\n      tag_63\n      jump\t// in\n    tag_62:\n        /* \"#utility.yul\":1276:1354   */\n      swap4\n      pop\n        /* \"#utility.yul\":1363:1415   */\n      tag_64\n        /* \"#utility.yul\":1408:1414   */\n      dup2\n        /* \"#utility.yul\":1403:1406   */\n      dup6\n        /* \"#utility.yul\":1396:1400   */\n      0x20\n        /* \"#utility.yul\":1389:1394   */\n      dup7\n        /* \"#utility.yul\":1385:1401   */\n      add\n        /* \"#utility.yul\":1363:1415   */\n      tag_65\n      jump\t// in\n    tag_64:\n        /* \"#utility.yul\":1440:1469   */\n      tag_66\n        /* \"#utility.yul\":1462:1468   */\n      dup2\n        /* \"#utility.yul\":1440:1469   */\n      tag_67\n      jump\t// in\n    tag_66:\n        /* \"#utility.yul\":1435:1438   */\n      dup5\n        /* \"#utility.yul\":1431:1470   */\n      add\n        /* \"#utility.yul\":1424:1470   */\n      swap2\n      pop\n        /* \"#utility.yul\":1204:1476   */\n      pop\n        /* \"#utility.yul\":1112:1476   */\n      swap3\n      swap2\n      pop\n      pop\n      jump\t// out\n        /* \"#utility.yul\":1482:1848   */\n    tag_68:\n        /* \"#utility.yul\":1624:1627   */\n      0x00\n        /* \"#utility.yul\":1645:1712   */\n      tag_70\n        /* \"#utility.yul\":1709:1711   */\n      0x13\n        /* \"#utility.yul\":1704:1707   */\n      dup4\n        /* \"#utility.yul\":1645:1712   */\n      tag_63\n      jump\t// in\n    tag_70:\n        /* \"#utility.yul\":1638:1712   */\n      swap2\n      pop\n        /* \"#utility.yul\":1721:1814   */\n      tag_71\n        /* \"#utility.yul\":1810:1813   */\n      dup3\n        /* \"#utility.yul\":1721:1814   */\n      tag_72\n      jump\t// in\n    tag_71:\n        /* \"#utility.yul\":1839:1841   */\n      0x20\n        /* \"#utility.yul\":1834:1837   */\n      dup3\n        /* \"#utility.yul\":1830:1842   */\n      add\n        /* \"#utility.yul\":1823:1842   */\n      swap1\n      pop\n        /* \"#utility.yul\":1482:1848   */\n      swap2\n      swap1\n      pop\n      jump\t// out\n        /* \"#utility.yul\":1854:1972   */\n    tag_73:\n        /* \"#utility.yul\":1941:1965   */\n      tag_75\n        /* \"#utility.yul\":1959:1964   */\n      dup2\n        /* \"#utility.yul\":1941:1965   */\n      tag_76\n      jump\t// in\n    tag_75:\n        /* \"#utility.yul\":1936:1939   */\n      dup3\n        /* \"#utility.yul\":1929:1966   */\n      mstore\n        /* \"#utility.yul\":1854:1972   */\n      pop\n      pop\n      jump\t// out\n        /* \"#utility.yul\":1978:2401   */\n    tag_36:\n        /* \"#utility.yul\":2119:2123   */\n      0x00\n        /* \"#utility.yul\":2157:2159   */\n      0x40\n        /* \"#utility.yul\":2146:2155   */\n      dup3\n        /* \"#utility.yul\":2142:2160   */\n      add\n        /* \"#utility.yul\":2134:2160   */\n      swap1\n      pop\n        /* \"#utility.yul\":2206:2215   */\n      dup2\n        /* \"#utility.yul\":2200:2204   */\n      dup2\n        /* \"#utility.yul\":2196:2216   */\n      sub\n        /* \"#utility.yul\":2192:2193   */\n      0x00\n        /* \"#utility.yul\":2181:2190   */\n      dup4\n        /* \"#utility.yul\":2177:2194   */\n      add\n        /* \"#utility.yul\":2170:2217   */\n      mstore\n        /* \"#utility.yul\":2234:2312   */\n      tag_78\n        /* \"#utility.yul\":2307:2311   */\n      dup2\n        /* \"#utility.yul\":2298:2304   */\n      dup6\n        /* \"#utility.yul\":2234:2312   */\n      tag_58\n      jump\t// in\n    tag_78:\n        /* \"#utility.yul\":2226:2312   */\n      swap1\n      pop\n        /* \"#utility.yul\":2322:2394   */\n      tag_79\n        /* \"#utility.yul\":2390:2392   */\n      0x20\n        /* \"#utility.yul\":2379:2388   */\n      dup4\n        /* \"#utility.yul\":2375:2393   */\n      add\n        /* \"#utility.yul\":2366:2372   */\n      dup5\n        /* \"#utility.yul\":2322:2394   */\n      tag_73\n      jump\t// in\n    tag_79:\n        /* \"#utility.yul\":1978:2401   */\n      swap4\n      swap3\n      pop\n      pop\n      pop\n      jump\t// out\n        /* \"#utility.yul\":2407:2826   */\n    tag_18:\n        /* \"#utility.yul\":2573:2577   */\n      0x00\n        /* \"#utility.yul\":2611:2613   */\n      0x20\n        /* \"#utility.yul\":2600:2609   */\n      dup3\n        /* \"#utility.yul\":2596:2614   */\n      add\n        /* \"#utility.yul\":2588:2614   */\n      swap1\n      pop\n        /* \"#utility.yul\":2660:2669   */\n      dup2\n        /* \"#utility.yul\":2654:2658   */\n      dup2\n        /* \"#utility.yul\":2650:2670   */\n      sub\n        /* \"#utility.yul\":2646:2647   */\n      0x00\n        /* \"#utility.yul\":2635:2644   */\n      dup4\n        /* \"#utility.yul\":2631:2648   */\n      add\n        /* \"#utility.yul\":2624:2671   */\n      mstore\n        /* \"#utility.yul\":2688:2819   */\n      tag_81\n        /* \"#utility.yul\":2814:2818   */\n      dup2\n        /* \"#utility.yul\":2688:2819   */\n      tag_68\n      jump\t// in\n    tag_81:\n        /* \"#utility.yul\":2680:2819   */\n      swap1\n      pop\n        /* \"#utility.yul\":2407:2826   */\n      swap2\n      swap1\n      pop\n      jump\t// out\n        /* \"#utility.yul\":2832:3054   */\n    tag_14:\n        /* \"#utility.yul\":2925:2929   */\n      0x00\n        /* \"#utility.yul\":2963:2965   */\n      0x20\n        /* \"#utility.yul\":2952:2961   */\n      dup3\n        /* \"#utility.yul\":2948:2966   */\n      add\n        /* \"#utility.yul\":2940:2966   */\n      swap1\n      pop\n        /* \"#utility.yul\":2976:3047   */\n      tag_83\n        /* \"#utility.yul\":3044:3045   */\n      0x00\n        /* \"#utility.yul\":3033:3042   */\n      dup4\n        /* \"#utility.yul\":3029:3046   */\n      add\n        /* \"#utility.yul\":3020:3026   */\n      dup5\n        /* \"#utility.yul\":2976:3047   */\n      tag_73\n      jump\t// in\n    tag_83:\n        /* \"#utility.yul\":2832:3054   */\n      swap3\n      swap2\n      pop\n      pop\n      jump\t// out\n        /* \"#utility.yul\":3060:3392   */\n    tag_27:\n        /* \"#utility.yul\":3181:3185   */\n      0x00\n        /* \"#utility.yul\":3219:3221   */\n      0x40\n        /* \"#utility.yul\":3208:3217   */\n      dup3\n        /* \"#utility.yul\":3204:3222   */\n      add\n        /* \"#utility.yul\":3196:3222   */\n      swap1\n      pop\n        /* \"#utility.yul\":3232:3303   */\n      tag_85\n        /* \"#utility.yul\":3300:3301   */\n      0x00\n        /* \"#utility.yul\":3289:3298   */\n      dup4\n        /* \"#utility.yul\":3285:3302   */\n      add\n        /* \"#utility.yul\":3276:3282   */\n      dup6\n        /* \"#utility.yul\":3232:3303   */\n      tag_73\n      jump\t// in\n    tag_85:\n        /* \"#utility.yul\":3313:3385   */\n      tag_86\n        /* \"#utility.yul\":3381:3383   */\n      0x20\n        /* \"#utility.yul\":3370:3379   */\n      dup4\n        /* \"#utility.yul\":3366:3384   */\n      add\n        /* \"#utility.yul\":3357:3363   */\n      dup5\n        /* \"#utility.yul\":3313:3385   */\n      tag_73\n      jump\t// in\n    tag_86:\n        /* \"#utility.yul\":3060:3392   */\n      swap4\n      swap3\n      pop\n      pop\n      pop\n      jump\t// out\n        /* \"#utility.yul\":3479:3578   */\n    tag_61:\n        /* \"#utility.yul\":3531:3537   */\n      0x00\n        /* \"#utility.yul\":3565:3570   */\n      dup2\n        /* \"#utility.yul\":3559:3571   */\n      mload\n        /* \"#utility.yul\":3549:3571   */\n      swap1\n      pop\n        /* \"#utility.yul\":3479:3578   */\n      swap2\n      swap1\n      pop\n      jump\t// out\n        /* \"#utility.yul\":3584:3753   */\n    tag_63:\n        /* \"#utility.yul\":3668:3679   */\n      0x00\n        /* \"#utility.yul\":3702:3708   */\n      dup3\n        /* \"#utility.yul\":3697:3700   */\n      dup3\n        /* \"#utility.yul\":3690:3709   */\n      mstore\n        /* \"#utility.yul\":3742:3746   */\n      0x20\n        /* \"#utility.yul\":3737:3740   */\n      dup3\n        /* \"#utility.yul\":3733:3747   */\n      add\n        /* \"#utility.yul\":3718:3747   */\n      swap1\n      pop\n        /* \"#utility.yul\":3584:3753   */\n      swap3\n      swap2\n      pop\n      pop\n      jump\t// out\n        /* \"#utility.yul\":3759:4064   */\n    tag_31:\n        /* \"#utility.yul\":3799:3802   */\n      0x00\n        /* \"#utility.yul\":3818:3838   */\n      tag_92\n        /* \"#utility.yul\":3836:3837   */\n      dup3\n        /* \"#utility.yul\":3818:3838   */\n      tag_76\n      jump\t// in\n    tag_92:\n        /* \"#utility.yul\":3813:3838   */\n      swap2\n      pop\n        /* \"#utility.yul\":3852:3872   */\n      tag_93\n        /* \"#utility.yul\":3870:3871   */\n      dup4\n        /* \"#utility.yul\":3852:3872   */\n      tag_76\n      jump\t// in\n    tag_93:\n        /* \"#utility.yul\":3847:3872   */\n      swap3\n      pop\n        /* \"#utility.yul\":4006:4007   */\n      dup3\n        /* \"#utility.yul\":3938:4004   */\n      0xffffffffffffffffffffffffffffffffffffffffffffffffffffffffffffffff\n        /* \"#utility.yul\":3934:4008   */\n      sub\n        /* \"#utility.yul\":3931:3932   */\n      dup3\n        /* \"#utility.yul\":3928:4009   */\n      gt\n        /* \"#utility.yul\":3925:4032   */\n      iszero\n      tag_94\n      jumpi\n        /* \"#utility.yul\":4012:4030   */\n      tag_95\n      tag_96\n      jump\t// in\n    tag_95:\n        /* \"#utility.yul\":3925:4032   */\n    tag_94:\n        /* \"#utility.yul\":4056:4057   */\n      dup3\n        /* \"#utility.yul\":4053:4054   */\n      dup3\n        /* \"#utility.yul\":4049:4058   */\n      add\n        /* \"#utility.yul\":4042:4058   */\n      swap1\n      pop\n        /* \"#utility.yul\":3759:4064   */\n      swap3\n      swap2\n      pop\n      pop\n      jump\t// out\n        /* \"#utility.yul\":4070:4261   */\n    tag_29:\n        /* \"#utility.yul\":4110:4114   */\n      0x00\n        /* \"#utility.yul\":4130:4150   */\n      tag_98\n        /* \"#utility.yul\":4148:4149   */\n      dup3\n        /* \"#utility.yul\":4130:4150   */\n      tag_76\n      jump\t// in\n    tag_98:\n        /* \"#utility.yul\":4125:4150   */\n      swap2\n      pop\n        /* \"#utility.yul\":4164:4184   */\n      tag_99\n        /* \"#utility.yul\":4182:4183   */\n      dup4\n        /* \"#utility.yul\":4164:4184   */\n      tag_76\n      jump\t// in\n    tag_99:\n        /* \"#utility.yul\":4159:4184   */\n      swap3\n      pop\n        /* \"#utility.yul\":4203:4204   */\n      dup3\n        /* \"#utility.yul\":4200:4201   */\n      dup3\n        /* \"#utility.yul\":4197:4205   */\n      lt\n        /* \"#utility.yul\":4194:4228   */\n      iszero\n      tag_100\n      jumpi\n        /* \"#utility.yul\":4208:4226   */\n      tag_101\n      tag_96\n      jump\t// in\n    tag_101:\n        /* \"#utility.yul\":4194:4228   */\n    tag_100:\n        /* \"#utility.yul\":4253:4254   */\n      dup3\n        /* \"#utility.yul\":4250:4251   */\n      dup3\n        /* \"#utility.yul\":4246:4255   */\n      sub\n        /* \"#utility.yul\":4238:4255   */\n      swap1\n      pop\n        /* \"#utility.yul\":4070:4261   */\n      swap3\n      swap2\n      pop\n      pop\n      jump\t// out\n        /* \"#utility.yul\":4267:4363   */\n    tag_102:\n        /* \"#utility.yul\":4304:4311   */\n      0x00\n        /* \"#utility.yul\":4333:4357   */\n      tag_104\n        /* \"#utility.yul\":4351:4356   */\n      dup3\n        /* \"#utility.yul\":4333:4357   */\n      tag_105\n      jump\t// in\n    tag_104:\n        /* \"#utility.yul\":4322:4357   */\n      swap1\n      pop\n        /* \"#utility.yul\":4267:4363   */\n      swap2\n      swap1\n      pop\n      jump\t// out\n        /* \"#utility.yul\":4369:4495   */\n    tag_105:\n        /* \"#utility.yul\":4406:4413   */\n      0x00\n        /* \"#utility.yul\":4446:4488   */\n      0xffffffffffffffffffffffffffffffffffffffff\n        /* \"#utility.yul\":4439:4444   */\n      dup3\n        /* \"#utility.yul\":4435:4489   */\n      and\n        /* \"#utility.yul\":4424:4489   */\n      swap1\n      pop\n        /* \"#utility.yul\":4369:4495   */\n      swap2\n      swap1\n      pop\n      jump\t// out\n        /* \"#utility.yul\":4501:4578   */\n    tag_76:\n        /* \"#utility.yul\":4538:4545   */\n      0x00\n        /* \"#utility.yul\":4567:4572   */\n      dup2\n        /* \"#utility.yul\":4556:4572   */\n      swap1\n      pop\n        /* \"#utility.yul\":4501:4578   */\n      swap2\n      swap1\n      pop\n      jump\t// out\n        /* \"#utility.yul\":4584:4891   */\n    tag_65:\n        /* \"#utility.yul\":4652:4653   */\n      0x00\n        /* \"#utility.yul\":4662:4775   */\n    tag_109:\n        /* \"#utility.yul\":4676:4682   */\n      dup4\n        /* \"#utility.yul\":4673:4674   */\n      dup2\n        /* \"#utility.yul\":4670:4683   */\n      lt\n        /* \"#utility.yul\":4662:4775   */\n      iszero\n      tag_111\n      jumpi\n        /* \"#utility.yul\":4761:4762   */\n      dup1\n        /* \"#utility.yul\":4756:4759   */\n      dup3\n        /* \"#utility.yul\":4752:4763   */\n      add\n        /* \"#utility.yul\":4746:4764   */\n      mload\n        /* \"#utility.yul\":4742:4743   */\n      dup2\n        /* \"#utility.yul\":4737:4740   */\n      dup5\n        /* \"#utility.yul\":4733:4744   */\n      add\n        /* \"#utility.yul\":4726:4765   */\n      mstore\n        /* \"#utility.yul\":4698:4700   */\n      0x20\n        /* \"#utility.yul\":4695:4696   */\n      dup2\n        /* \"#utility.yul\":4691:4701   */\n      add\n        /* \"#utility.yul\":4686:4701   */\n      swap1\n      pop\n        /* \"#utility.yul\":4662:4775   */\n      jump(tag_109)\n    tag_111:\n        /* \"#utility.yul\":4793:4799   */\n      dup4\n        /* \"#utility.yul\":4790:4791   */\n      dup2\n        /* \"#utility.yul\":4787:4800   */\n      gt\n        /* \"#utility.yul\":4784:4885   */\n      iszero\n      tag_112\n      jumpi\n        /* \"#utility.yul\":4873:4874   */\n      0x00\n        /* \"#utility.yul\":4864:4870   */\n      dup5\n        /* \"#utility.yul\":4859:4862   */\n      dup5\n        /* \"#utility.yul\":4855:4871   */\n      add\n        /* \"#utility.yul\":4848:4875   */\n      mstore\n        /* \"#utility.yul\":4784:4885   */\n    tag_112:\n        /* \"#utility.yul\":4633:4891   */\n      pop\n        /* \"#utility.yul\":4584:4891   */\n      pop\n      pop\n      pop\n      jump\t// out\n        /* \"#utility.yul\":4897:5077   */\n    tag_96:\n        /* \"#utility.yul\":4945:5022   */\n      0x4e487b7100000000000000000000000000000000000000000000000000000000\n        /* \"#utility.yul\":4942:4943   */\n      0x00\n        /* \"#utility.yul\":4935:5023   */\n      mstore\n        /* \"#utility.yul\":5042:5046   */\n      0x11\n        /* \"#utility.yul\":5039:5040   */\n      0x04\n        /* \"#utility.yul\":5032:5047   */\n      mstore\n        /* \"#utility.yul\":5066:5070   */\n      0x24\n        /* \"#utility.yul\":5063:5064   */\n      0x00\n        /* \"#utility.yul\":5056:5071   */\n      revert\n        /* \"#utility.yul\":5206:5323   */\n    tag_51:\n        /* \"#utility.yul\":5315:5316   */\n      0x00\n        /* \"#utility.yul\":5312:5313   */\n      dup1\n        /* \"#utility.yul\":5305:5317   */\n      revert\n        /* \"#utility.yul\":5329:5431   */\n    tag_67:\n        /* \"#utility.yul\":5370:5376   */\n      0x00\n        /* \"#utility.yul\":5421:5423   */\n      0x1f\n        /* \"#utility.yul\":5417:5424   */\n      not\n        /* \"#utility.yul\":5412:5414   */\n      0x1f\n        /* \"#utility.yul\":5405:5410   */\n      dup4\n        /* \"#utility.yul\":5401:5415   */\n      add\n        /* \"#utility.yul\":5397:5425   */\n      and\n        /* \"#utility.yul\":5387:5425   */\n      swap1\n      pop\n        /* \"#utility.yul\":5329:5431   */\n      swap2\n      swap1\n      pop\n      jump\t// out\n        /* \"#utility.yul\":5437:5606   */\n    tag_72:\n        /* \"#utility.yul\":5577:5598   */\n      0x43616c6c6572206973206e6f74206f776e657200000000000000000000000000\n        /* \"#utility.yul\":5573:5574   */\n      0x00\n        /* \"#utility.yul\":5565:5571   */\n      dup3\n        /* \"#utility.yul\":5561:5575   */\n      add\n        /* \"#utility.yul\":5554:5599   */\n      mstore\n        /* \"#utility.yul\":5437:5606   */\n      pop\n      jump\t// out\n        /* \"#utility.yul\":5612:5734   */\n    tag_43:\n        /* \"#utility.yul\":5685:5709   */\n      tag_120\n        /* \"#utility.yul\":5703:5708   */\n      dup2\n        /* \"#utility.yul\":5685:5709   */\n      tag_102\n      jump\t// in\n    tag_120:\n        /* \"#utility.yul\":5678:5683   */\n      dup2\n        /* \"#utility.yul\":5675:5710   */\n      eq\n        /* \"#utility.yul\":5665:5728   */\n      tag_121\n      jumpi\n        /* \"#utility.yul\":5724:5725   */\n      0x00\n        /* \"#utility.yul\":5721:5722   */\n      dup1\n        /* \"#utility.yul\":5714:5726   */\n      revert\n        /* \"#utility.yul\":5665:5728   */\n    tag_121:\n        /* \"#utility.yul\":5612:5734   */\n      pop\n      jump\t// out\n        /* \"#utility.yul\":5740:5862   */\n    tag_47:\n        /* \"#utility.yul\":5813:5837   */\n      tag_123\n        /* \"#utility.yul\":5831:5836   */\n      dup2\n        /* \"#utility.yul\":5813:5837   */\n      tag_76\n      jump\t// in\n    tag_123:\n        /* \"#utility.yul\":5806:5811   */\n      dup2\n        /* \"#utility.yul\":5803:5838   */\n      eq\n        /* \"#utility.yul\":5793:5856   */\n      tag_124\n      jumpi\n        /* \"#utility.yul\":5852:5853   */\n      0x00\n        /* \"#utility.yul\":5849:5850   */\n      dup1\n        /* \"#utility.yul\":5842:5854   */\n      revert\n        /* \"#utility.yul\":5793:5856   */\n    tag_124:\n        /* \"#utility.yul\":5740:5862   */\n      pop\n      jump\t// out\n\n    auxdata: 0xa264697066735822122091e466f72c5e3f6c2718b897e1e281df085ea1d7aef82cb1b8d569aec1be4ee864736f6c63430008070033\n}\n",
				"bytecode": {
					"linkReferences": {},
					"object": "608060405234801561001057600080fd5b50336000806101000a81548173ffffffffffffffffffffffffffffffffffffffff021916908373ffffffffffffffffffffffffffffffffffffffff16021790555061073a806100606000396000f3fe608060405234801561001057600080fd5b50600436106100365760003560e01c8063c40768761461003b578063f8b2cb4f14610057575b600080fd5b61005560048036038101906100509190610414565b610087565b005b610071600480360381019061006c91906103e7565b6102d7565b60405161007e919061050f565b60405180910390f35b60008054906101000a900473ffffffffffffffffffffffffffffffffffffffff1673ffffffffffffffffffffffffffffffffffffffff163373ffffffffffffffffffffffffffffffffffffffff1614610115576040517f08c379a000000000000000000000000000000000000000000000000000000000815260040161010c906104ef565b60405180910390fd5b6000610120336102d7565b90506101616040518060400160405280601081526020017f63757272656e74206163636f756e743a00000000000000000000000000000000815250826102f8565b6101a06040518060400160405280601081526020017f63757272656e74206163636f756e743a00000000000000000000000000000000815250826102f8565b6101df6040518060400160405280601081526020017f63757272656e74206163636f756e743a00000000000000000000000000000000815250826102f8565b818110156102265781816040517f8c90536800000000000000000000000000000000000000000000000000000000815260040161021d92919061052a565b60405180910390fd5b81600160003373ffffffffffffffffffffffffffffffffffffffff1673ffffffffffffffffffffffffffffffffffffffff168152602001908152602001600020600082825461027591906105c5565b9250508190555081600160008573ffffffffffffffffffffffffffffffffffffffff1673ffffffffffffffffffffffffffffffffffffffff16815260200190815260200160002060008282546102cb919061056f565b92505081905550505050565b60008173ffffffffffffffffffffffffffffffffffffffff16319050919050565b610390828260405160240161030e9291906104bf565b6040516020818303038152906040527fb60e72cc000000000000000000000000000000000000000000000000000000007bffffffffffffffffffffffffffffffffffffffffffffffffffffffff19166020820180517bffffffffffffffffffffffffffffffffffffffffffffffffffffffff8381831617835250505050610394565b5050565b60008151905060006a636f6e736f6c652e6c6f679050602083016000808483855afa5050505050565b6000813590506103cc816106d6565b92915050565b6000813590506103e1816106ed565b92915050565b6000602082840312156103fd576103fc610697565b5b600061040b848285016103bd565b91505092915050565b6000806040838503121561042b5761042a610697565b5b6000610439858286016103bd565b925050602061044a858286016103d2565b9150509250929050565b600061045f82610553565b610469818561055e565b9350610479818560208601610635565b6104828161069c565b840191505092915050565b600061049a60138361055e565b91506104a5826106ad565b602082019050919050565b6104b98161062b565b82525050565b600060408201905081810360008301526104d98185610454565b90506104e860208301846104b0565b9392505050565b600060208201905081810360008301526105088161048d565b9050919050565b600060208201905061052460008301846104b0565b92915050565b600060408201905061053f60008301856104b0565b61054c60208301846104b0565b9392505050565b600081519050919050565b600082825260208201905092915050565b600061057a8261062b565b91506105858361062b565b9250827fffffffffffffffffffffffffffffffffffffffffffffffffffffffffffffffff038211156105ba576105b9610668565b5b828201905092915050565b60006105d08261062b565b91506105db8361062b565b9250828210156105ee576105ed610668565b5b828203905092915050565b60006106048261060b565b9050919050565b600073ffffffffffffffffffffffffffffffffffffffff82169050919050565b6000819050919050565b60005b83811015610653578082015181840152602081019050610638565b83811115610662576000848401525b50505050565b7f4e487b7100000000000000000000000000000000000000000000000000000000600052601160045260246000fd5b600080fd5b6000601f19601f8301169050919050565b7f43616c6c6572206973206e6f74206f776e657200000000000000000000000000600082015250565b6106df816105f9565b81146106ea57600080fd5b50565b6106f68161062b565b811461070157600080fd5b5056fea264697066735822122091e466f72c5e3f6c2718b897e1e281df085ea1d7aef82cb1b8d569aec1be4ee864736f6c63430008070033",
					"opcodes": "PUSH1 0x80 PUSH1 0x40 MSTORE CALLVALUE DUP1 ISZERO PUSH2 0x10 JUMPI PUSH1 0x0 DUP1 REVERT JUMPDEST POP CALLER PUSH1 0x0 DUP1 PUSH2 0x100 EXP DUP2 SLOAD DUP2 PUSH20 0xFFFFFFFFFFFFFFFFFFFFFFFFFFFFFFFFFFFFFFFF MUL NOT AND SWAP1 DUP4 PUSH20 0xFFFFFFFFFFFFFFFFFFFFFFFFFFFFFFFFFFFFFFFF AND MUL OR SWAP1 SSTORE POP PUSH2 0x73A DUP1 PUSH2 0x60 PUSH1 0x0 CODECOPY PUSH1 0x0 RETURN INVALID PUSH1 0x80 PUSH1 0x40 MSTORE CALLVALUE DUP1 ISZERO PUSH2 0x10 JUMPI PUSH1 0x0 DUP1 REVERT JUMPDEST POP PUSH1 0x4 CALLDATASIZE LT PUSH2 0x36 JUMPI PUSH1 0x0 CALLDATALOAD PUSH1 0xE0 SHR DUP1 PUSH4 0xC4076876 EQ PUSH2 0x3B JUMPI DUP1 PUSH4 0xF8B2CB4F EQ PUSH2 0x57 JUMPI JUMPDEST PUSH1 0x0 DUP1 REVERT JUMPDEST PUSH2 0x55 PUSH1 0x4 DUP1 CALLDATASIZE SUB DUP2 ADD SWAP1 PUSH2 0x50 SWAP2 SWAP1 PUSH2 0x414 JUMP JUMPDEST PUSH2 0x87 JUMP JUMPDEST STOP JUMPDEST PUSH2 0x71 PUSH1 0x4 DUP1 CALLDATASIZE SUB DUP2 ADD SWAP1 PUSH2 0x6C SWAP2 SWAP1 PUSH2 0x3E7 JUMP JUMPDEST PUSH2 0x2D7 JUMP JUMPDEST PUSH1 0x40 MLOAD PUSH2 0x7E SWAP2 SWAP1 PUSH2 0x50F JUMP JUMPDEST PUSH1 0x40 MLOAD DUP1 SWAP2 SUB SWAP1 RETURN JUMPDEST PUSH1 0x0 DUP1 SLOAD SWAP1 PUSH2 0x100 EXP SWAP1 DIV PUSH20 0xFFFFFFFFFFFFFFFFFFFFFFFFFFFFFFFFFFFFFFFF AND PUSH20 0xFFFFFFFFFFFFFFFFFFFFFFFFFFFFFFFFFFFFFFFF AND CALLER PUSH20 0xFFFFFFFFFFFFFFFFFFFFFFFFFFFFFFFFFFFFFFFF AND EQ PUSH2 0x115 JUMPI PUSH1 0x40 MLOAD PUSH32 0x8C379A000000000000000000000000000000000000000000000000000000000 DUP2 MSTORE PUSH1 0x4 ADD PUSH2 0x10C SWAP1 PUSH2 0x4EF JUMP JUMPDEST PUSH1 0x40 MLOAD DUP1 SWAP2 SUB SWAP1 REVERT JUMPDEST PUSH1 0x0 PUSH2 0x120 CALLER PUSH2 0x2D7 JUMP JUMPDEST SWAP1 POP PUSH2 0x161 PUSH1 0x40 MLOAD DUP1 PUSH1 0x40 ADD PUSH1 0x40 MSTORE DUP1 PUSH1 0x10 DUP2 MSTORE PUSH1 0x20 ADD PUSH32 0x63757272656E74206163636F756E743A00000000000000000000000000000000 DUP2 MSTORE POP DUP3 PUSH2 0x2F8 JUMP JUMPDEST PUSH2 0x1A0 PUSH1 0x40 MLOAD DUP1 PUSH1 0x40 ADD PUSH1 0x40 MSTORE DUP1 PUSH1 0x10 DUP2 MSTORE PUSH1 0x20 ADD PUSH32 0x63757272656E74206163636F756E743A00000000000000000000000000000000 DUP2 MSTORE POP DUP3 PUSH2 0x2F8 JUMP JUMPDEST PUSH2 0x1DF PUSH1 0x40 MLOAD DUP1 PUSH1 0x40 ADD PUSH1 0x40 MSTORE DUP1 PUSH1 0x10 DUP2 MSTORE PUSH1 0x20 ADD PUSH32 0x63757272656E74206163636F756E743A00000000000000000000000000000000 DUP2 MSTORE POP DUP3 PUSH2 0x2F8 JUMP JUMPDEST DUP2 DUP2 LT ISZERO PUSH2 0x226 JUMPI DUP2 DUP2 PUSH1 0x40 MLOAD PUSH32 0x8C90536800000000000000000000000000000000000000000000000000000000 DUP2 MSTORE PUSH1 0x4 ADD PUSH2 0x21D SWAP3 SWAP2 SWAP1 PUSH2 0x52A JUMP JUMPDEST PUSH1 0x40 MLOAD DUP1 SWAP2 SUB SWAP1 REVERT JUMPDEST DUP2 PUSH1 0x1 PUSH1 0x0 CALLER PUSH20 0xFFFFFFFFFFFFFFFFFFFFFFFFFFFFFFFFFFFFFFFF AND PUSH20 0xFFFFFFFFFFFFFFFFFFFFFFFFFFFFFFFFFFFFFFFF AND DUP2 MSTORE PUSH1 0x20 ADD SWAP1 DUP2 MSTORE PUSH1 0x20 ADD PUSH1 0x0 KECCAK256 PUSH1 0x0 DUP3 DUP3 SLOAD PUSH2 0x275 SWAP2 SWAP1 PUSH2 0x5C5 JUMP JUMPDEST SWAP3 POP POP DUP2 SWAP1 SSTORE POP DUP2 PUSH1 0x1 PUSH1 0x0 DUP6 PUSH20 0xFFFFFFFFFFFFFFFFFFFFFFFFFFFFFFFFFFFFFFFF AND PUSH20 0xFFFFFFFFFFFFFFFFFFFFFFFFFFFFFFFFFFFFFFFF AND DUP2 MSTORE PUSH1 0x20 ADD SWAP1 DUP2 MSTORE PUSH1 0x20 ADD PUSH1 0x0 KECCAK256 PUSH1 0x0 DUP3 DUP3 SLOAD PUSH2 0x2CB SWAP2 SWAP1 PUSH2 0x56F JUMP JUMPDEST SWAP3 POP POP DUP2 SWAP1 SSTORE POP POP POP POP JUMP JUMPDEST PUSH1 0x0 DUP2 PUSH20 0xFFFFFFFFFFFFFFFFFFFFFFFFFFFFFFFFFFFFFFFF AND BALANCE SWAP1 POP SWAP2 SWAP1 POP JUMP JUMPDEST PUSH2 0x390 DUP3 DUP3 PUSH1 0x40 MLOAD PUSH1 0x24 ADD PUSH2 0x30E SWAP3 SWAP2 SWAP1 PUSH2 0x4BF JUMP JUMPDEST PUSH1 0x40 MLOAD PUSH1 0x20 DUP2 DUP4 SUB SUB DUP2 MSTORE SWAP1 PUSH1 0x40 MSTORE PUSH32 0xB60E72CC00000000000000000000000000000000000000000000000000000000 PUSH28 0xFFFFFFFFFFFFFFFFFFFFFFFFFFFFFFFFFFFFFFFFFFFFFFFFFFFFFFFF NOT AND PUSH1 0x20 DUP3 ADD DUP1 MLOAD PUSH28 0xFFFFFFFFFFFFFFFFFFFFFFFFFFFFFFFFFFFFFFFFFFFFFFFFFFFFFFFF DUP4 DUP2 DUP4 AND OR DUP4 MSTORE POP POP POP POP PUSH2 0x394 JUMP JUMPDEST POP POP JUMP JUMPDEST PUSH1 0x0 DUP2 MLOAD SWAP1 POP PUSH1 0x0 PUSH11 0x636F6E736F6C652E6C6F67 SWAP1 POP PUSH1 0x20 DUP4 ADD PUSH1 0x0 DUP1 DUP5 DUP4 DUP6 GAS STATICCALL POP POP POP POP POP JUMP JUMPDEST PUSH1 0x0 DUP2 CALLDATALOAD SWAP1 POP PUSH2 0x3CC DUP2 PUSH2 0x6D6 JUMP JUMPDEST SWAP3 SWAP2 POP POP JUMP JUMPDEST PUSH1 0x0 DUP2 CALLDATALOAD SWAP1 POP PUSH2 0x3E1 DUP2 PUSH2 0x6ED JUMP JUMPDEST SWAP3 SWAP2 POP POP JUMP JUMPDEST PUSH1 0x0 PUSH1 0x20 DUP3 DUP5 SUB SLT ISZERO PUSH2 0x3FD JUMPI PUSH2 0x3FC PUSH2 0x697 JUMP JUMPDEST JUMPDEST PUSH1 0x0 PUSH2 0x40B DUP5 DUP3 DUP6 ADD PUSH2 0x3BD JUMP JUMPDEST SWAP2 POP POP SWAP3 SWAP2 POP POP JUMP JUMPDEST PUSH1 0x0 DUP1 PUSH1 0x40 DUP4 DUP6 SUB SLT ISZERO PUSH2 0x42B JUMPI PUSH2 0x42A PUSH2 0x697 JUMP JUMPDEST JUMPDEST PUSH1 0x0 PUSH2 0x439 DUP6 DUP3 DUP7 ADD PUSH2 0x3BD JUMP JUMPDEST SWAP3 POP POP PUSH1 0x20 PUSH2 0x44A DUP6 DUP3 DUP7 ADD PUSH2 0x3D2 JUMP JUMPDEST SWAP2 POP POP SWAP3 POP SWAP3 SWAP1 POP JUMP JUMPDEST PUSH1 0x0 PUSH2 0x45F DUP3 PUSH2 0x553 JUMP JUMPDEST PUSH2 0x469 DUP2 DUP6 PUSH2 0x55E JUMP JUMPDEST SWAP4 POP PUSH2 0x479 DUP2 DUP6 PUSH1 0x20 DUP7 ADD PUSH2 0x635 JUMP JUMPDEST PUSH2 0x482 DUP2 PUSH2 0x69C JUMP JUMPDEST DUP5 ADD SWAP2 POP POP SWAP3 SWAP2 POP POP JUMP JUMPDEST PUSH1 0x0 PUSH2 0x49A PUSH1 0x13 DUP4 PUSH2 0x55E JUMP JUMPDEST SWAP2 POP PUSH2 0x4A5 DUP3 PUSH2 0x6AD JUMP JUMPDEST PUSH1 0x20 DUP3 ADD SWAP1 POP SWAP2 SWAP1 POP JUMP JUMPDEST PUSH2 0x4B9 DUP2 PUSH2 0x62B JUMP JUMPDEST DUP3 MSTORE POP POP JUMP JUMPDEST PUSH1 0x0 PUSH1 0x40 DUP3 ADD SWAP1 POP DUP2 DUP2 SUB PUSH1 0x0 DUP4 ADD MSTORE PUSH2 0x4D9 DUP2 DUP6 PUSH2 0x454 JUMP JUMPDEST SWAP1 POP PUSH2 0x4E8 PUSH1 0x20 DUP4 ADD DUP5 PUSH2 0x4B0 JUMP JUMPDEST SWAP4 SWAP3 POP POP POP JUMP JUMPDEST PUSH1 0x0 PUSH1 0x20 DUP3 ADD SWAP1 POP DUP2 DUP2 SUB PUSH1 0x0 DUP4 ADD MSTORE PUSH2 0x508 DUP2 PUSH2 0x48D JUMP JUMPDEST SWAP1 POP SWAP2 SWAP1 POP JUMP JUMPDEST PUSH1 0x0 PUSH1 0x20 DUP3 ADD SWAP1 POP PUSH2 0x524 PUSH1 0x0 DUP4 ADD DUP5 PUSH2 0x4B0 JUMP JUMPDEST SWAP3 SWAP2 POP POP JUMP JUMPDEST PUSH1 0x0 PUSH1 0x40 DUP3 ADD SWAP1 POP PUSH2 0x53F PUSH1 0x0 DUP4 ADD DUP6 PUSH2 0x4B0 JUMP JUMPDEST PUSH2 0x54C PUSH1 0x20 DUP4 ADD DUP5 PUSH2 0x4B0 JUMP JUMPDEST SWAP4 SWAP3 POP POP POP JUMP JUMPDEST PUSH1 0x0 DUP2 MLOAD SWAP1 POP SWAP2 SWAP1 POP JUMP JUMPDEST PUSH1 0x0 DUP3 DUP3 MSTORE PUSH1 0x20 DUP3 ADD SWAP1 POP SWAP3 SWAP2 POP POP JUMP JUMPDEST PUSH1 0x0 PUSH2 0x57A DUP3 PUSH2 0x62B JUMP JUMPDEST SWAP2 POP PUSH2 0x585 DUP4 PUSH2 0x62B JUMP JUMPDEST SWAP3 POP DUP3 PUSH32 0xFFFFFFFFFFFFFFFFFFFFFFFFFFFFFFFFFFFFFFFFFFFFFFFFFFFFFFFFFFFFFFFF SUB DUP3 GT ISZERO PUSH2 0x5BA JUMPI PUSH2 0x5B9 PUSH2 0x668 JUMP JUMPDEST JUMPDEST DUP3 DUP3 ADD SWAP1 POP SWAP3 SWAP2 POP POP JUMP JUMPDEST PUSH1 0x0 PUSH2 0x5D0 DUP3 PUSH2 0x62B JUMP JUMPDEST SWAP2 POP PUSH2 0x5DB DUP4 PUSH2 0x62B JUMP JUMPDEST SWAP3 POP DUP3 DUP3 LT ISZERO PUSH2 0x5EE JUMPI PUSH2 0x5ED PUSH2 0x668 JUMP JUMPDEST JUMPDEST DUP3 DUP3 SUB SWAP1 POP SWAP3 SWAP2 POP POP JUMP JUMPDEST PUSH1 0x0 PUSH2 0x604 DUP3 PUSH2 0x60B JUMP JUMPDEST SWAP1 POP SWAP2 SWAP1 POP JUMP JUMPDEST PUSH1 0x0 PUSH20 0xFFFFFFFFFFFFFFFFFFFFFFFFFFFFFFFFFFFFFFFF DUP3 AND SWAP1 POP SWAP2 SWAP1 POP JUMP JUMPDEST PUSH1 0x0 DUP2 SWAP1 POP SWAP2 SWAP1 POP JUMP JUMPDEST PUSH1 0x0 JUMPDEST DUP4 DUP2 LT ISZERO PUSH2 0x653 JUMPI DUP1 DUP3 ADD MLOAD DUP2 DUP5 ADD MSTORE PUSH1 0x20 DUP2 ADD SWAP1 POP PUSH2 0x638 JUMP JUMPDEST DUP4 DUP2 GT ISZERO PUSH2 0x662 JUMPI PUSH1 0x0 DUP5 DUP5 ADD MSTORE JUMPDEST POP POP POP POP JUMP JUMPDEST PUSH32 0x4E487B7100000000000000000000000000000000000000000000000000000000 PUSH1 0x0 MSTORE PUSH1 0x11 PUSH1 0x4 MSTORE PUSH1 0x24 PUSH1 0x0 REVERT JUMPDEST PUSH1 0x0 DUP1 REVERT JUMPDEST PUSH1 0x0 PUSH1 0x1F NOT PUSH1 0x1F DUP4 ADD AND SWAP1 POP SWAP2 SWAP1 POP JUMP JUMPDEST PUSH32 0x43616C6C6572206973206E6F74206F776E657200000000000000000000000000 PUSH1 0x0 DUP3 ADD MSTORE POP JUMP JUMPDEST PUSH2 0x6DF DUP2 PUSH2 0x5F9 JUMP JUMPDEST DUP2 EQ PUSH2 0x6EA JUMPI PUSH1 0x0 DUP1 REVERT JUMPDEST POP JUMP JUMPDEST PUSH2 0x6F6 DUP2 PUSH2 0x62B JUMP JUMPDEST DUP2 EQ PUSH2 0x701 JUMPI PUSH1 0x0 DUP1 REVERT JUMPDEST POP JUMP INVALID LOG2 PUSH5 0x6970667358 0x22 SLT KECCAK256 SWAP2 0xE4 PUSH7 0xF72C5E3F6C2718 0xB8 SWAP8 0xE1 0xE2 DUP2 0xDF ADDMOD 0x5E LOG1 0xD7 0xAE 0xF8 0x2C 0xB1 0xB8 0xD5 PUSH10 0xAEC1BE4EE864736F6C63 NUMBER STOP ADDMOD SMOD STOP CALLER "
				},
				"gasEstimates": {
					"creation": {
						"codeDepositCost": "370000",
						"executionCost": "24671",
						"totalCost": "394671"
					},
					"external": {
						"getBalance(address)": "3257",
						"pay(address,uint256)": "infinite"
					}
				},
				"methodIdentifiers": {
					"getBalance(address)": "f8b2cb4f",
					"pay(address,uint256)": "c4076876"
				}
			},
			"storageLayout": {
				"storage": [
					{
						"astId": 10,
						"contract": "contracts/_LearnEvent.sol:LearnError",
						"label": "chairperson",
						"offset": 0,
						"slot": "0",
						"type": "t_address"
					},
					{
						"astId": 35,
						"contract": "contracts/_LearnEvent.sol:LearnError",
						"label": "balances",
						"offset": 0,
						"slot": "1",
						"type": "t_mapping(t_address,t_uint256)"
					}
				],
				"types": {
					"t_address": {
						"encoding": "inplace",
						"label": "address",
						"numberOfBytes": "20"
					},
					"t_mapping(t_address,t_uint256)": {
						"encoding": "mapping",
						"key": "t_address",
						"label": "mapping(address => uint256)",
						"numberOfBytes": "32",
						"value": "t_uint256"
					},
					"t_uint256": {
						"encoding": "inplace",
						"label": "uint256",
						"numberOfBytes": "32"
					}
				}
			},
			"userdoc": {
				"kind": "user",
				"methods": {},
				"version": 1
			}
		}
	}
}