{
	"contracts/_LearnMapping.sol": {
		"MapTest": {
			"abi": [
				{
					"inputs": [
						{
							"internalType": "address",
							"name": "add",
							"type": "address"
						}
					],
					"name": "getIdByAccountAddress",
					"outputs": [
						{
							"internalType": "uint256",
							"name": "",
							"type": "uint256"
						}
					],
					"stateMutability": "view",
					"type": "function"
				},
				{
					"inputs": [
						{
							"internalType": "uint256",
							"name": "id",
							"type": "uint256"
						}
					],
					"name": "getNameById",
					"outputs": [
						{
							"internalType": "string",
							"name": "",
							"type": "string"
						}
					],
					"stateMutability": "view",
					"type": "function"
				},
				{
					"inputs": [
						{
							"internalType": "string",
							"name": "name",
							"type": "string"
						}
					],
					"name": "regis",
					"outputs": [],
					"stateMutability": "nonpayable",
					"type": "function"
				},
				{
					"inputs": [],
					"name": "sum",
					"outputs": [
						{
							"internalType": "uint256",
							"name": "",
							"type": "uint256"
						}
					],
					"stateMutability": "view",
					"type": "function"
				}
			],
			"devdoc": {
				"kind": "dev",
				"methods": {},
				"version": 1
			},
			"evm": {
				"assembly": "    /* \"contracts/_LearnMapping.sol\":33:538  contract MapTest {... */\n  mstore(0x40, 0x80)\n    /* \"contracts/_LearnMapping.sol\":158:159  0 */\n  0x00\n    /* \"contracts/_LearnMapping.sol\":137:159  uint256 public sum = 0 */\n  0x02\n  sstore\n    /* \"contracts/_LearnMapping.sol\":33:538  contract MapTest {... */\n  callvalue\n  dup1\n  iszero\n  tag_1\n  jumpi\n  0x00\n  dup1\n  revert\ntag_1:\n  pop\n  dataSize(sub_0)\n  dup1\n  dataOffset(sub_0)\n  0x00\n  codecopy\n  0x00\n  return\nstop\n\nsub_0: assembly {\n        /* \"contracts/_LearnMapping.sol\":33:538  contract MapTest {... */\n      mstore(0x40, 0x80)\n      callvalue\n      dup1\n      iszero\n      tag_1\n      jumpi\n      0x00\n      dup1\n      revert\n    tag_1:\n      pop\n      jumpi(tag_2, lt(calldatasize, 0x04))\n      shr(0xe0, calldataload(0x00))\n      dup1\n      0x81d78a90\n      eq\n      tag_3\n      jumpi\n      dup1\n      0x853255cc\n      eq\n      tag_4\n      jumpi\n      dup1\n      0x9d63df22\n      eq\n      tag_5\n      jumpi\n      dup1\n      0xc7176426\n      eq\n      tag_6\n      jumpi\n    tag_2:\n      0x00\n      dup1\n      revert\n        /* \"contracts/_LearnMapping.sol\":434:536  function getNameById(uint id)view public returns(string memory){... */\n    tag_3:\n      tag_7\n      0x04\n      dup1\n      calldatasize\n      sub\n      dup2\n      add\n      swap1\n      tag_8\n      swap2\n      swap1\n      tag_9\n      jump\t// in\n    tag_8:\n      tag_10\n      jump\t// in\n    tag_7:\n      mload(0x40)\n      tag_11\n      swap2\n      swap1\n      tag_12\n      jump\t// in\n    tag_11:\n      mload(0x40)\n      dup1\n      swap2\n      sub\n      swap1\n      return\n        /* \"contracts/_LearnMapping.sol\":137:159  uint256 public sum = 0 */\n    tag_4:\n      tag_13\n      tag_14\n      jump\t// in\n    tag_13:\n      mload(0x40)\n      tag_15\n      swap2\n      swap1\n      tag_16\n      jump\t// in\n    tag_15:\n      mload(0x40)\n      dup1\n      swap2\n      sub\n      swap1\n      return\n        /* \"contracts/_LearnMapping.sol\":328:428  function getIdByAccountAddress(address add)view public returns (uint){... */\n    tag_5:\n      tag_17\n      0x04\n      dup1\n      calldatasize\n      sub\n      dup2\n      add\n      swap1\n      tag_18\n      swap2\n      swap1\n      tag_19\n      jump\t// in\n    tag_18:\n      tag_20\n      jump\t// in\n    tag_17:\n      mload(0x40)\n      tag_21\n      swap2\n      swap1\n      tag_16\n      jump\t// in\n    tag_21:\n      mload(0x40)\n      dup1\n      swap2\n      sub\n      swap1\n      return\n        /* \"contracts/_LearnMapping.sol\":166:322  function regis(string memory name) public {... */\n    tag_6:\n      tag_22\n      0x04\n      dup1\n      calldatasize\n      sub\n      dup2\n      add\n      swap1\n      tag_23\n      swap2\n      swap1\n      tag_24\n      jump\t// in\n    tag_23:\n      tag_25\n      jump\t// in\n    tag_22:\n      stop\n        /* \"contracts/_LearnMapping.sol\":434:536  function getNameById(uint id)view public returns(string memory){... */\n    tag_10:\n        /* \"contracts/_LearnMapping.sol\":483:496  string memory */\n      0x60\n        /* \"contracts/_LearnMapping.sol\":514:525  accountName */\n      0x01\n        /* \"contracts/_LearnMapping.sol\":514:529  accountName[id] */\n      0x00\n        /* \"contracts/_LearnMapping.sol\":526:528  id */\n      dup4\n        /* \"contracts/_LearnMapping.sol\":514:529  accountName[id] */\n      dup2\n      mstore\n      0x20\n      add\n      swap1\n      dup2\n      mstore\n      0x20\n      add\n      0x00\n      keccak256\n        /* \"contracts/_LearnMapping.sol\":507:529  return accountName[id] */\n      dup1\n      sload\n      tag_27\n      swap1\n      tag_28\n      jump\t// in\n    tag_27:\n      dup1\n      0x1f\n      add\n      0x20\n      dup1\n      swap2\n      div\n      mul\n      0x20\n      add\n      mload(0x40)\n      swap1\n      dup2\n      add\n      0x40\n      mstore\n      dup1\n      swap3\n      swap2\n      swap1\n      dup2\n      dup2\n      mstore\n      0x20\n      add\n      dup3\n      dup1\n      sload\n      tag_29\n      swap1\n      tag_28\n      jump\t// in\n    tag_29:\n      dup1\n      iszero\n      tag_30\n      jumpi\n      dup1\n      0x1f\n      lt\n      tag_31\n      jumpi\n      0x0100\n      dup1\n      dup4\n      sload\n      div\n      mul\n      dup4\n      mstore\n      swap2\n      0x20\n      add\n      swap2\n      jump(tag_30)\n    tag_31:\n      dup3\n      add\n      swap2\n      swap1\n      0x00\n      mstore\n      keccak256(0x00, 0x20)\n      swap1\n    tag_32:\n      dup2\n      sload\n      dup2\n      mstore\n      swap1\n      0x01\n      add\n      swap1\n      0x20\n      add\n      dup1\n      dup4\n      gt\n      tag_32\n      jumpi\n      dup3\n      swap1\n      sub\n      0x1f\n      and\n      dup3\n      add\n      swap2\n    tag_30:\n      pop\n      pop\n      pop\n      pop\n      pop\n      swap1\n      pop\n        /* \"contracts/_LearnMapping.sol\":434:536  function getNameById(uint id)view public returns(string memory){... */\n      swap2\n      swap1\n      pop\n      jump\t// out\n        /* \"contracts/_LearnMapping.sol\":137:159  uint256 public sum = 0 */\n    tag_14:\n      sload(0x02)\n      dup2\n      jump\t// out\n        /* \"contracts/_LearnMapping.sol\":328:428  function getIdByAccountAddress(address add)view public returns (uint){... */\n    tag_20:\n        /* \"contracts/_LearnMapping.sol\":392:396  uint */\n      0x00\n        /* \"contracts/_LearnMapping.sol\":414:416  id */\n      dup1\n        /* \"contracts/_LearnMapping.sol\":414:421  id[add] */\n      0x00\n        /* \"contracts/_LearnMapping.sol\":417:420  add */\n      dup4\n        /* \"contracts/_LearnMapping.sol\":414:421  id[add] */\n      0xffffffffffffffffffffffffffffffffffffffff\n      and\n      0xffffffffffffffffffffffffffffffffffffffff\n      and\n      dup2\n      mstore\n      0x20\n      add\n      swap1\n      dup2\n      mstore\n      0x20\n      add\n      0x00\n      keccak256\n      sload\n        /* \"contracts/_LearnMapping.sol\":407:421  return id[add] */\n      swap1\n      pop\n        /* \"contracts/_LearnMapping.sol\":328:428  function getIdByAccountAddress(address add)view public returns (uint){... */\n      swap2\n      swap1\n      pop\n      jump\t// out\n        /* \"contracts/_LearnMapping.sol\":166:322  function regis(string memory name) public {... */\n    tag_25:\n        /* \"contracts/_LearnMapping.sol\":218:233  address account */\n      0x00\n        /* \"contracts/_LearnMapping.sol\":234:244  msg.sender */\n      caller\n        /* \"contracts/_LearnMapping.sol\":218:244  address account=msg.sender */\n      swap1\n      pop\n        /* \"contracts/_LearnMapping.sol\":254:257  sum */\n      0x02\n      0x00\n        /* \"contracts/_LearnMapping.sol\":254:259  sum++ */\n      dup2\n      sload\n      dup1\n      swap3\n      swap2\n      swap1\n      tag_35\n      swap1\n      tag_36\n      jump\t// in\n    tag_35:\n      swap2\n      swap1\n      pop\n      sstore\n      pop\n        /* \"contracts/_LearnMapping.sol\":281:284  sum */\n      sload(0x02)\n        /* \"contracts/_LearnMapping.sol\":269:271  id */\n      0x00\n        /* \"contracts/_LearnMapping.sol\":269:280  id[account] */\n      dup1\n        /* \"contracts/_LearnMapping.sol\":272:279  account */\n      dup4\n        /* \"contracts/_LearnMapping.sol\":269:280  id[account] */\n      0xffffffffffffffffffffffffffffffffffffffff\n      and\n      0xffffffffffffffffffffffffffffffffffffffff\n      and\n      dup2\n      mstore\n      0x20\n      add\n      swap1\n      dup2\n      mstore\n      0x20\n      add\n      0x00\n      keccak256\n        /* \"contracts/_LearnMapping.sol\":269:284  id[account]=sum */\n      dup2\n      swap1\n      sstore\n      pop\n        /* \"contracts/_LearnMapping.sol\":311:315  name */\n      dup2\n        /* \"contracts/_LearnMapping.sol\":294:305  accountName */\n      0x01\n        /* \"contracts/_LearnMapping.sol\":294:310  accountName[sum] */\n      0x00\n        /* \"contracts/_LearnMapping.sol\":306:309  sum */\n      sload(0x02)\n        /* \"contracts/_LearnMapping.sol\":294:310  accountName[sum] */\n      dup2\n      mstore\n      0x20\n      add\n      swap1\n      dup2\n      mstore\n      0x20\n      add\n      0x00\n      keccak256\n        /* \"contracts/_LearnMapping.sol\":294:315  accountName[sum]=name */\n      swap1\n      dup1\n      mload\n      swap1\n      0x20\n      add\n      swap1\n      tag_37\n      swap3\n      swap2\n      swap1\n      tag_38\n      jump\t// in\n    tag_37:\n      pop\n        /* \"contracts/_LearnMapping.sol\":208:322  {... */\n      pop\n        /* \"contracts/_LearnMapping.sol\":166:322  function regis(string memory name) public {... */\n      pop\n      jump\t// out\n    tag_38:\n      dup3\n      dup1\n      sload\n      tag_39\n      swap1\n      tag_28\n      jump\t// in\n    tag_39:\n      swap1\n      0x00\n      mstore\n      keccak256(0x00, 0x20)\n      swap1\n      0x1f\n      add\n      0x20\n      swap1\n      div\n      dup2\n      add\n      swap3\n      dup3\n      tag_41\n      jumpi\n      0x00\n      dup6\n      sstore\n      jump(tag_40)\n    tag_41:\n      dup3\n      0x1f\n      lt\n      tag_42\n      jumpi\n      dup1\n      mload\n      not(0xff)\n      and\n      dup4\n      dup1\n      add\n      or\n      dup6\n      sstore\n      jump(tag_40)\n    tag_42:\n      dup3\n      dup1\n      add\n      0x01\n      add\n      dup6\n      sstore\n      dup3\n      iszero\n      tag_40\n      jumpi\n      swap2\n      dup3\n      add\n    tag_43:\n      dup3\n      dup2\n      gt\n      iszero\n      tag_44\n      jumpi\n      dup3\n      mload\n      dup3\n      sstore\n      swap2\n      0x20\n      add\n      swap2\n      swap1\n      0x01\n      add\n      swap1\n      jump(tag_43)\n    tag_44:\n    tag_40:\n      pop\n      swap1\n      pop\n      tag_45\n      swap2\n      swap1\n      tag_46\n      jump\t// in\n    tag_45:\n      pop\n      swap1\n      jump\t// out\n    tag_46:\n    tag_47:\n      dup1\n      dup3\n      gt\n      iszero\n      tag_48\n      jumpi\n      0x00\n      dup2\n      0x00\n      swap1\n      sstore\n      pop\n      0x01\n      add\n      jump(tag_47)\n    tag_48:\n      pop\n      swap1\n      jump\t// out\n        /* \"#utility.yul\":7:419   */\n    tag_50:\n        /* \"#utility.yul\":85:90   */\n      0x00\n        /* \"#utility.yul\":110:176   */\n      tag_52\n        /* \"#utility.yul\":126:175   */\n      tag_53\n        /* \"#utility.yul\":168:174   */\n      dup5\n        /* \"#utility.yul\":126:175   */\n      tag_54\n      jump\t// in\n    tag_53:\n        /* \"#utility.yul\":110:176   */\n      tag_55\n      jump\t// in\n    tag_52:\n        /* \"#utility.yul\":101:176   */\n      swap1\n      pop\n        /* \"#utility.yul\":199:205   */\n      dup3\n        /* \"#utility.yul\":192:197   */\n      dup2\n        /* \"#utility.yul\":185:206   */\n      mstore\n        /* \"#utility.yul\":237:241   */\n      0x20\n        /* \"#utility.yul\":230:235   */\n      dup2\n        /* \"#utility.yul\":226:242   */\n      add\n        /* \"#utility.yul\":275:278   */\n      dup5\n        /* \"#utility.yul\":266:272   */\n      dup5\n        /* \"#utility.yul\":261:264   */\n      dup5\n        /* \"#utility.yul\":257:273   */\n      add\n        /* \"#utility.yul\":254:279   */\n      gt\n        /* \"#utility.yul\":251:363   */\n      iszero\n      tag_56\n      jumpi\n        /* \"#utility.yul\":282:361   */\n      tag_57\n      tag_58\n      jump\t// in\n    tag_57:\n        /* \"#utility.yul\":251:363   */\n    tag_56:\n        /* \"#utility.yul\":372:413   */\n      tag_59\n        /* \"#utility.yul\":406:412   */\n      dup5\n        /* \"#utility.yul\":401:404   */\n      dup3\n        /* \"#utility.yul\":396:399   */\n      dup6\n        /* \"#utility.yul\":372:413   */\n      tag_60\n      jump\t// in\n    tag_59:\n        /* \"#utility.yul\":91:419   */\n      pop\n        /* \"#utility.yul\":7:419   */\n      swap4\n      swap3\n      pop\n      pop\n      pop\n      jump\t// out\n        /* \"#utility.yul\":425:564   */\n    tag_61:\n        /* \"#utility.yul\":471:476   */\n      0x00\n        /* \"#utility.yul\":509:515   */\n      dup2\n        /* \"#utility.yul\":496:516   */\n      calldataload\n        /* \"#utility.yul\":487:516   */\n      swap1\n      pop\n        /* \"#utility.yul\":525:558   */\n      tag_63\n        /* \"#utility.yul\":552:557   */\n      dup2\n        /* \"#utility.yul\":525:558   */\n      tag_64\n      jump\t// in\n    tag_63:\n        /* \"#utility.yul\":425:564   */\n      swap3\n      swap2\n      pop\n      pop\n      jump\t// out\n        /* \"#utility.yul\":584:924   */\n    tag_65:\n        /* \"#utility.yul\":640:645   */\n      0x00\n        /* \"#utility.yul\":689:692   */\n      dup3\n        /* \"#utility.yul\":682:686   */\n      0x1f\n        /* \"#utility.yul\":674:680   */\n      dup4\n        /* \"#utility.yul\":670:687   */\n      add\n        /* \"#utility.yul\":666:693   */\n      slt\n        /* \"#utility.yul\":656:778   */\n      tag_67\n      jumpi\n        /* \"#utility.yul\":697:776   */\n      tag_68\n      tag_69\n      jump\t// in\n    tag_68:\n        /* \"#utility.yul\":656:778   */\n    tag_67:\n        /* \"#utility.yul\":814:820   */\n      dup2\n        /* \"#utility.yul\":801:821   */\n      calldataload\n        /* \"#utility.yul\":839:918   */\n      tag_70\n        /* \"#utility.yul\":914:917   */\n      dup5\n        /* \"#utility.yul\":906:912   */\n      dup3\n        /* \"#utility.yul\":899:903   */\n      0x20\n        /* \"#utility.yul\":891:897   */\n      dup7\n        /* \"#utility.yul\":887:904   */\n      add\n        /* \"#utility.yul\":839:918   */\n      tag_50\n      jump\t// in\n    tag_70:\n        /* \"#utility.yul\":830:918   */\n      swap2\n      pop\n        /* \"#utility.yul\":646:924   */\n      pop\n        /* \"#utility.yul\":584:924   */\n      swap3\n      swap2\n      pop\n      pop\n      jump\t// out\n        /* \"#utility.yul\":930:1069   */\n    tag_71:\n        /* \"#utility.yul\":976:981   */\n      0x00\n        /* \"#utility.yul\":1014:1020   */\n      dup2\n        /* \"#utility.yul\":1001:1021   */\n      calldataload\n        /* \"#utility.yul\":992:1021   */\n      swap1\n      pop\n        /* \"#utility.yul\":1030:1063   */\n      tag_73\n        /* \"#utility.yul\":1057:1062   */\n      dup2\n        /* \"#utility.yul\":1030:1063   */\n      tag_74\n      jump\t// in\n    tag_73:\n        /* \"#utility.yul\":930:1069   */\n      swap3\n      swap2\n      pop\n      pop\n      jump\t// out\n        /* \"#utility.yul\":1075:1404   */\n    tag_19:\n        /* \"#utility.yul\":1134:1140   */\n      0x00\n        /* \"#utility.yul\":1183:1185   */\n      0x20\n        /* \"#utility.yul\":1171:1180   */\n      dup3\n        /* \"#utility.yul\":1162:1169   */\n      dup5\n        /* \"#utility.yul\":1158:1181   */\n      sub\n        /* \"#utility.yul\":1154:1186   */\n      slt\n        /* \"#utility.yul\":1151:1270   */\n      iszero\n      tag_76\n      jumpi\n        /* \"#utility.yul\":1189:1268   */\n      tag_77\n      tag_78\n      jump\t// in\n    tag_77:\n        /* \"#utility.yul\":1151:1270   */\n    tag_76:\n        /* \"#utility.yul\":1309:1310   */\n      0x00\n        /* \"#utility.yul\":1334:1387   */\n      tag_79\n        /* \"#utility.yul\":1379:1386   */\n      dup5\n        /* \"#utility.yul\":1370:1376   */\n      dup3\n        /* \"#utility.yul\":1359:1368   */\n      dup6\n        /* \"#utility.yul\":1355:1377   */\n      add\n        /* \"#utility.yul\":1334:1387   */\n      tag_61\n      jump\t// in\n    tag_79:\n        /* \"#utility.yul\":1324:1387   */\n      swap2\n      pop\n        /* \"#utility.yul\":1280:1397   */\n      pop\n        /* \"#utility.yul\":1075:1404   */\n      swap3\n      swap2\n      pop\n      pop\n      jump\t// out\n        /* \"#utility.yul\":1410:1919   */\n    tag_24:\n        /* \"#utility.yul\":1479:1485   */\n      0x00\n        /* \"#utility.yul\":1528:1530   */\n      0x20\n        /* \"#utility.yul\":1516:1525   */\n      dup3\n        /* \"#utility.yul\":1507:1514   */\n      dup5\n        /* \"#utility.yul\":1503:1526   */\n      sub\n        /* \"#utility.yul\":1499:1531   */\n      slt\n        /* \"#utility.yul\":1496:1615   */\n      iszero\n      tag_81\n      jumpi\n        /* \"#utility.yul\":1534:1613   */\n      tag_82\n      tag_78\n      jump\t// in\n    tag_82:\n        /* \"#utility.yul\":1496:1615   */\n    tag_81:\n        /* \"#utility.yul\":1682:1683   */\n      0x00\n        /* \"#utility.yul\":1671:1680   */\n      dup3\n        /* \"#utility.yul\":1667:1684   */\n      add\n        /* \"#utility.yul\":1654:1685   */\n      calldataload\n        /* \"#utility.yul\":1712:1730   */\n      0xffffffffffffffff\n        /* \"#utility.yul\":1704:1710   */\n      dup2\n        /* \"#utility.yul\":1701:1731   */\n      gt\n        /* \"#utility.yul\":1698:1815   */\n      iszero\n      tag_83\n      jumpi\n        /* \"#utility.yul\":1734:1813   */\n      tag_84\n      tag_85\n      jump\t// in\n    tag_84:\n        /* \"#utility.yul\":1698:1815   */\n    tag_83:\n        /* \"#utility.yul\":1839:1902   */\n      tag_86\n        /* \"#utility.yul\":1894:1901   */\n      dup5\n        /* \"#utility.yul\":1885:1891   */\n      dup3\n        /* \"#utility.yul\":1874:1883   */\n      dup6\n        /* \"#utility.yul\":1870:1892   */\n      add\n        /* \"#utility.yul\":1839:1902   */\n      tag_65\n      jump\t// in\n    tag_86:\n        /* \"#utility.yul\":1829:1902   */\n      swap2\n      pop\n        /* \"#utility.yul\":1625:1912   */\n      pop\n        /* \"#utility.yul\":1410:1919   */\n      swap3\n      swap2\n      pop\n      pop\n      jump\t// out\n        /* \"#utility.yul\":1925:2254   */\n    tag_9:\n        /* \"#utility.yul\":1984:1990   */\n      0x00\n        /* \"#utility.yul\":2033:2035   */\n      0x20\n        /* \"#utility.yul\":2021:2030   */\n      dup3\n        /* \"#utility.yul\":2012:2019   */\n      dup5\n        /* \"#utility.yul\":2008:2031   */\n      sub\n        /* \"#utility.yul\":2004:2036   */\n      slt\n        /* \"#utility.yul\":2001:2120   */\n      iszero\n      tag_88\n      jumpi\n        /* \"#utility.yul\":2039:2118   */\n      tag_89\n      tag_78\n      jump\t// in\n    tag_89:\n        /* \"#utility.yul\":2001:2120   */\n    tag_88:\n        /* \"#utility.yul\":2159:2160   */\n      0x00\n        /* \"#utility.yul\":2184:2237   */\n      tag_90\n        /* \"#utility.yul\":2229:2236   */\n      dup5\n        /* \"#utility.yul\":2220:2226   */\n      dup3\n        /* \"#utility.yul\":2209:2218   */\n      dup6\n        /* \"#utility.yul\":2205:2227   */\n      add\n        /* \"#utility.yul\":2184:2237   */\n      tag_71\n      jump\t// in\n    tag_90:\n        /* \"#utility.yul\":2174:2237   */\n      swap2\n      pop\n        /* \"#utility.yul\":2130:2247   */\n      pop\n        /* \"#utility.yul\":1925:2254   */\n      swap3\n      swap2\n      pop\n      pop\n      jump\t// out\n        /* \"#utility.yul\":2260:2624   */\n    tag_91:\n        /* \"#utility.yul\":2348:2351   */\n      0x00\n        /* \"#utility.yul\":2376:2415   */\n      tag_93\n        /* \"#utility.yul\":2409:2414   */\n      dup3\n        /* \"#utility.yul\":2376:2415   */\n      tag_94\n      jump\t// in\n    tag_93:\n        /* \"#utility.yul\":2431:2502   */\n      tag_95\n        /* \"#utility.yul\":2495:2501   */\n      dup2\n        /* \"#utility.yul\":2490:2493   */\n      dup6\n        /* \"#utility.yul\":2431:2502   */\n      tag_96\n      jump\t// in\n    tag_95:\n        /* \"#utility.yul\":2424:2502   */\n      swap4\n      pop\n        /* \"#utility.yul\":2511:2563   */\n      tag_97\n        /* \"#utility.yul\":2556:2562   */\n      dup2\n        /* \"#utility.yul\":2551:2554   */\n      dup6\n        /* \"#utility.yul\":2544:2548   */\n      0x20\n        /* \"#utility.yul\":2537:2542   */\n      dup7\n        /* \"#utility.yul\":2533:2549   */\n      add\n        /* \"#utility.yul\":2511:2563   */\n      tag_98\n      jump\t// in\n    tag_97:\n        /* \"#utility.yul\":2588:2617   */\n      tag_99\n        /* \"#utility.yul\":2610:2616   */\n      dup2\n        /* \"#utility.yul\":2588:2617   */\n      tag_100\n      jump\t// in\n    tag_99:\n        /* \"#utility.yul\":2583:2586   */\n      dup5\n        /* \"#utility.yul\":2579:2618   */\n      add\n        /* \"#utility.yul\":2572:2618   */\n      swap2\n      pop\n        /* \"#utility.yul\":2352:2624   */\n      pop\n        /* \"#utility.yul\":2260:2624   */\n      swap3\n      swap2\n      pop\n      pop\n      jump\t// out\n        /* \"#utility.yul\":2630:2748   */\n    tag_101:\n        /* \"#utility.yul\":2717:2741   */\n      tag_103\n        /* \"#utility.yul\":2735:2740   */\n      dup2\n        /* \"#utility.yul\":2717:2741   */\n      tag_104\n      jump\t// in\n    tag_103:\n        /* \"#utility.yul\":2712:2715   */\n      dup3\n        /* \"#utility.yul\":2705:2742   */\n      mstore\n        /* \"#utility.yul\":2630:2748   */\n      pop\n      pop\n      jump\t// out\n        /* \"#utility.yul\":2754:3067   */\n    tag_12:\n        /* \"#utility.yul\":2867:2871   */\n      0x00\n        /* \"#utility.yul\":2905:2907   */\n      0x20\n        /* \"#utility.yul\":2894:2903   */\n      dup3\n        /* \"#utility.yul\":2890:2908   */\n      add\n        /* \"#utility.yul\":2882:2908   */\n      swap1\n      pop\n        /* \"#utility.yul\":2954:2963   */\n      dup2\n        /* \"#utility.yul\":2948:2952   */\n      dup2\n        /* \"#utility.yul\":2944:2964   */\n      sub\n        /* \"#utility.yul\":2940:2941   */\n      0x00\n        /* \"#utility.yul\":2929:2938   */\n      dup4\n        /* \"#utility.yul\":2925:2942   */\n      add\n        /* \"#utility.yul\":2918:2965   */\n      mstore\n        /* \"#utility.yul\":2982:3060   */\n      tag_106\n        /* \"#utility.yul\":3055:3059   */\n      dup2\n        /* \"#utility.yul\":3046:3052   */\n      dup5\n        /* \"#utility.yul\":2982:3060   */\n      tag_91\n      jump\t// in\n    tag_106:\n        /* \"#utility.yul\":2974:3060   */\n      swap1\n      pop\n        /* \"#utility.yul\":2754:3067   */\n      swap3\n      swap2\n      pop\n      pop\n      jump\t// out\n        /* \"#utility.yul\":3073:3295   */\n    tag_16:\n        /* \"#utility.yul\":3166:3170   */\n      0x00\n        /* \"#utility.yul\":3204:3206   */\n      0x20\n        /* \"#utility.yul\":3193:3202   */\n      dup3\n        /* \"#utility.yul\":3189:3207   */\n      add\n        /* \"#utility.yul\":3181:3207   */\n      swap1\n      pop\n        /* \"#utility.yul\":3217:3288   */\n      tag_108\n        /* \"#utility.yul\":3285:3286   */\n      0x00\n        /* \"#utility.yul\":3274:3283   */\n      dup4\n        /* \"#utility.yul\":3270:3287   */\n      add\n        /* \"#utility.yul\":3261:3267   */\n      dup5\n        /* \"#utility.yul\":3217:3288   */\n      tag_101\n      jump\t// in\n    tag_108:\n        /* \"#utility.yul\":3073:3295   */\n      swap3\n      swap2\n      pop\n      pop\n      jump\t// out\n        /* \"#utility.yul\":3301:3430   */\n    tag_55:\n        /* \"#utility.yul\":3335:3341   */\n      0x00\n        /* \"#utility.yul\":3362:3382   */\n      tag_110\n      tag_111\n      jump\t// in\n    tag_110:\n        /* \"#utility.yul\":3352:3382   */\n      swap1\n      pop\n        /* \"#utility.yul\":3391:3424   */\n      tag_112\n        /* \"#utility.yul\":3419:3423   */\n      dup3\n        /* \"#utility.yul\":3411:3417   */\n      dup3\n        /* \"#utility.yul\":3391:3424   */\n      tag_113\n      jump\t// in\n    tag_112:\n        /* \"#utility.yul\":3301:3430   */\n      swap2\n      swap1\n      pop\n      jump\t// out\n        /* \"#utility.yul\":3436:3511   */\n    tag_111:\n        /* \"#utility.yul\":3469:3475   */\n      0x00\n        /* \"#utility.yul\":3502:3504   */\n      0x40\n        /* \"#utility.yul\":3496:3505   */\n      mload\n        /* \"#utility.yul\":3486:3505   */\n      swap1\n      pop\n        /* \"#utility.yul\":3436:3511   */\n      swap1\n      jump\t// out\n        /* \"#utility.yul\":3517:3825   */\n    tag_54:\n        /* \"#utility.yul\":3579:3583   */\n      0x00\n        /* \"#utility.yul\":3669:3687   */\n      0xffffffffffffffff\n        /* \"#utility.yul\":3661:3667   */\n      dup3\n        /* \"#utility.yul\":3658:3688   */\n      gt\n        /* \"#utility.yul\":3655:3711   */\n      iszero\n      tag_116\n      jumpi\n        /* \"#utility.yul\":3691:3709   */\n      tag_117\n      tag_118\n      jump\t// in\n    tag_117:\n        /* \"#utility.yul\":3655:3711   */\n    tag_116:\n        /* \"#utility.yul\":3729:3758   */\n      tag_119\n        /* \"#utility.yul\":3751:3757   */\n      dup3\n        /* \"#utility.yul\":3729:3758   */\n      tag_100\n      jump\t// in\n    tag_119:\n        /* \"#utility.yul\":3721:3758   */\n      swap1\n      pop\n        /* \"#utility.yul\":3813:3817   */\n      0x20\n        /* \"#utility.yul\":3807:3811   */\n      dup2\n        /* \"#utility.yul\":3803:3818   */\n      add\n        /* \"#utility.yul\":3795:3818   */\n      swap1\n      pop\n        /* \"#utility.yul\":3517:3825   */\n      swap2\n      swap1\n      pop\n      jump\t// out\n        /* \"#utility.yul\":3831:3930   */\n    tag_94:\n        /* \"#utility.yul\":3883:3889   */\n      0x00\n        /* \"#utility.yul\":3917:3922   */\n      dup2\n        /* \"#utility.yul\":3911:3923   */\n      mload\n        /* \"#utility.yul\":3901:3923   */\n      swap1\n      pop\n        /* \"#utility.yul\":3831:3930   */\n      swap2\n      swap1\n      pop\n      jump\t// out\n        /* \"#utility.yul\":3936:4105   */\n    tag_96:\n        /* \"#utility.yul\":4020:4031   */\n      0x00\n        /* \"#utility.yul\":4054:4060   */\n      dup3\n        /* \"#utility.yul\":4049:4052   */\n      dup3\n        /* \"#utility.yul\":4042:4061   */\n      mstore\n        /* \"#utility.yul\":4094:4098   */\n      0x20\n        /* \"#utility.yul\":4089:4092   */\n      dup3\n        /* \"#utility.yul\":4085:4099   */\n      add\n        /* \"#utility.yul\":4070:4099   */\n      swap1\n      pop\n        /* \"#utility.yul\":3936:4105   */\n      swap3\n      swap2\n      pop\n      pop\n      jump\t// out\n        /* \"#utility.yul\":4111:4207   */\n    tag_122:\n        /* \"#utility.yul\":4148:4155   */\n      0x00\n        /* \"#utility.yul\":4177:4201   */\n      tag_124\n        /* \"#utility.yul\":4195:4200   */\n      dup3\n        /* \"#utility.yul\":4177:4201   */\n      tag_125\n      jump\t// in\n    tag_124:\n        /* \"#utility.yul\":4166:4201   */\n      swap1\n      pop\n        /* \"#utility.yul\":4111:4207   */\n      swap2\n      swap1\n      pop\n      jump\t// out\n        /* \"#utility.yul\":4213:4339   */\n    tag_125:\n        /* \"#utility.yul\":4250:4257   */\n      0x00\n        /* \"#utility.yul\":4290:4332   */\n      0xffffffffffffffffffffffffffffffffffffffff\n        /* \"#utility.yul\":4283:4288   */\n      dup3\n        /* \"#utility.yul\":4279:4333   */\n      and\n        /* \"#utility.yul\":4268:4333   */\n      swap1\n      pop\n        /* \"#utility.yul\":4213:4339   */\n      swap2\n      swap1\n      pop\n      jump\t// out\n        /* \"#utility.yul\":4345:4422   */\n    tag_104:\n        /* \"#utility.yul\":4382:4389   */\n      0x00\n        /* \"#utility.yul\":4411:4416   */\n      dup2\n        /* \"#utility.yul\":4400:4416   */\n      swap1\n      pop\n        /* \"#utility.yul\":4345:4422   */\n      swap2\n      swap1\n      pop\n      jump\t// out\n        /* \"#utility.yul\":4428:4582   */\n    tag_60:\n        /* \"#utility.yul\":4512:4518   */\n      dup3\n        /* \"#utility.yul\":4507:4510   */\n      dup2\n        /* \"#utility.yul\":4502:4505   */\n      dup4\n        /* \"#utility.yul\":4489:4519   */\n      calldatacopy\n        /* \"#utility.yul\":4574:4575   */\n      0x00\n        /* \"#utility.yul\":4565:4571   */\n      dup4\n        /* \"#utility.yul\":4560:4563   */\n      dup4\n        /* \"#utility.yul\":4556:4572   */\n      add\n        /* \"#utility.yul\":4549:4576   */\n      mstore\n        /* \"#utility.yul\":4428:4582   */\n      pop\n      pop\n      pop\n      jump\t// out\n        /* \"#utility.yul\":4588:4895   */\n    tag_98:\n        /* \"#utility.yul\":4656:4657   */\n      0x00\n        /* \"#utility.yul\":4666:4779   */\n    tag_130:\n        /* \"#utility.yul\":4680:4686   */\n      dup4\n        /* \"#utility.yul\":4677:4678   */\n      dup2\n        /* \"#utility.yul\":4674:4687   */\n      lt\n        /* \"#utility.yul\":4666:4779   */\n      iszero\n      tag_132\n      jumpi\n        /* \"#utility.yul\":4765:4766   */\n      dup1\n        /* \"#utility.yul\":4760:4763   */\n      dup3\n        /* \"#utility.yul\":4756:4767   */\n      add\n        /* \"#utility.yul\":4750:4768   */\n      mload\n        /* \"#utility.yul\":4746:4747   */\n      dup2\n        /* \"#utility.yul\":4741:4744   */\n      dup5\n        /* \"#utility.yul\":4737:4748   */\n      add\n        /* \"#utility.yul\":4730:4769   */\n      mstore\n        /* \"#utility.yul\":4702:4704   */\n      0x20\n        /* \"#utility.yul\":4699:4700   */\n      dup2\n        /* \"#utility.yul\":4695:4705   */\n      add\n        /* \"#utility.yul\":4690:4705   */\n      swap1\n      pop\n        /* \"#utility.yul\":4666:4779   */\n      jump(tag_130)\n    tag_132:\n        /* \"#utility.yul\":4797:4803   */\n      dup4\n        /* \"#utility.yul\":4794:4795   */\n      dup2\n        /* \"#utility.yul\":4791:4804   */\n      gt\n        /* \"#utility.yul\":4788:4889   */\n      iszero\n      tag_133\n      jumpi\n        /* \"#utility.yul\":4877:4878   */\n      0x00\n        /* \"#utility.yul\":4868:4874   */\n      dup5\n        /* \"#utility.yul\":4863:4866   */\n      dup5\n        /* \"#utility.yul\":4859:4875   */\n      add\n        /* \"#utility.yul\":4852:4879   */\n      mstore\n        /* \"#utility.yul\":4788:4889   */\n    tag_133:\n        /* \"#utility.yul\":4637:4895   */\n      pop\n        /* \"#utility.yul\":4588:4895   */\n      pop\n      pop\n      pop\n      jump\t// out\n        /* \"#utility.yul\":4901:5221   */\n    tag_28:\n        /* \"#utility.yul\":4945:4951   */\n      0x00\n        /* \"#utility.yul\":4982:4983   */\n      0x02\n        /* \"#utility.yul\":4976:4980   */\n      dup3\n        /* \"#utility.yul\":4972:4984   */\n      div\n        /* \"#utility.yul\":4962:4984   */\n      swap1\n      pop\n        /* \"#utility.yul\":5029:5030   */\n      0x01\n        /* \"#utility.yul\":5023:5027   */\n      dup3\n        /* \"#utility.yul\":5019:5031   */\n      and\n        /* \"#utility.yul\":5050:5068   */\n      dup1\n        /* \"#utility.yul\":5040:5121   */\n      tag_135\n      jumpi\n        /* \"#utility.yul\":5106:5110   */\n      0x7f\n        /* \"#utility.yul\":5098:5104   */\n      dup3\n        /* \"#utility.yul\":5094:5111   */\n      and\n        /* \"#utility.yul\":5084:5111   */\n      swap2\n      pop\n        /* \"#utility.yul\":5040:5121   */\n    tag_135:\n        /* \"#utility.yul\":5168:5170   */\n      0x20\n        /* \"#utility.yul\":5160:5166   */\n      dup3\n        /* \"#utility.yul\":5157:5171   */\n      lt\n        /* \"#utility.yul\":5137:5155   */\n      dup2\n        /* \"#utility.yul\":5134:5172   */\n      eq\n        /* \"#utility.yul\":5131:5215   */\n      iszero\n      tag_136\n      jumpi\n        /* \"#utility.yul\":5187:5205   */\n      tag_137\n      tag_138\n      jump\t// in\n    tag_137:\n        /* \"#utility.yul\":5131:5215   */\n    tag_136:\n        /* \"#utility.yul\":4952:5221   */\n      pop\n        /* \"#utility.yul\":4901:5221   */\n      swap2\n      swap1\n      pop\n      jump\t// out\n        /* \"#utility.yul\":5227:5508   */\n    tag_113:\n        /* \"#utility.yul\":5310:5337   */\n      tag_140\n        /* \"#utility.yul\":5332:5336   */\n      dup3\n        /* \"#utility.yul\":5310:5337   */\n      tag_100\n      jump\t// in\n    tag_140:\n        /* \"#utility.yul\":5302:5308   */\n      dup2\n        /* \"#utility.yul\":5298:5338   */\n      add\n        /* \"#utility.yul\":5440:5446   */\n      dup2\n        /* \"#utility.yul\":5428:5438   */\n      dup2\n        /* \"#utility.yul\":5425:5447   */\n      lt\n        /* \"#utility.yul\":5404:5422   */\n      0xffffffffffffffff\n        /* \"#utility.yul\":5392:5402   */\n      dup3\n        /* \"#utility.yul\":5389:5423   */\n      gt\n        /* \"#utility.yul\":5386:5448   */\n      or\n        /* \"#utility.yul\":5383:5471   */\n      iszero\n      tag_141\n      jumpi\n        /* \"#utility.yul\":5451:5469   */\n      tag_142\n      tag_118\n      jump\t// in\n    tag_142:\n        /* \"#utility.yul\":5383:5471   */\n    tag_141:\n        /* \"#utility.yul\":5491:5501   */\n      dup1\n        /* \"#utility.yul\":5487:5489   */\n      0x40\n        /* \"#utility.yul\":5480:5502   */\n      mstore\n        /* \"#utility.yul\":5270:5508   */\n      pop\n        /* \"#utility.yul\":5227:5508   */\n      pop\n      pop\n      jump\t// out\n        /* \"#utility.yul\":5514:5747   */\n    tag_36:\n        /* \"#utility.yul\":5553:5556   */\n      0x00\n        /* \"#utility.yul\":5576:5600   */\n      tag_144\n        /* \"#utility.yul\":5594:5599   */\n      dup3\n        /* \"#utility.yul\":5576:5600   */\n      tag_104\n      jump\t// in\n    tag_144:\n        /* \"#utility.yul\":5567:5600   */\n      swap2\n      pop\n        /* \"#utility.yul\":5622:5688   */\n      0xffffffffffffffffffffffffffffffffffffffffffffffffffffffffffffffff\n        /* \"#utility.yul\":5615:5620   */\n      dup3\n        /* \"#utility.yul\":5612:5689   */\n      eq\n        /* \"#utility.yul\":5609:5712   */\n      iszero\n      tag_145\n      jumpi\n        /* \"#utility.yul\":5692:5710   */\n      tag_146\n      tag_147\n      jump\t// in\n    tag_146:\n        /* \"#utility.yul\":5609:5712   */\n    tag_145:\n        /* \"#utility.yul\":5739:5740   */\n      0x01\n        /* \"#utility.yul\":5732:5737   */\n      dup3\n        /* \"#utility.yul\":5728:5741   */\n      add\n        /* \"#utility.yul\":5721:5741   */\n      swap1\n      pop\n        /* \"#utility.yul\":5514:5747   */\n      swap2\n      swap1\n      pop\n      jump\t// out\n        /* \"#utility.yul\":5753:5933   */\n    tag_147:\n        /* \"#utility.yul\":5801:5878   */\n      0x4e487b7100000000000000000000000000000000000000000000000000000000\n        /* \"#utility.yul\":5798:5799   */\n      0x00\n        /* \"#utility.yul\":5791:5879   */\n      mstore\n        /* \"#utility.yul\":5898:5902   */\n      0x11\n        /* \"#utility.yul\":5895:5896   */\n      0x04\n        /* \"#utility.yul\":5888:5903   */\n      mstore\n        /* \"#utility.yul\":5922:5926   */\n      0x24\n        /* \"#utility.yul\":5919:5920   */\n      0x00\n        /* \"#utility.yul\":5912:5927   */\n      revert\n        /* \"#utility.yul\":5939:6119   */\n    tag_138:\n        /* \"#utility.yul\":5987:6064   */\n      0x4e487b7100000000000000000000000000000000000000000000000000000000\n        /* \"#utility.yul\":5984:5985   */\n      0x00\n        /* \"#utility.yul\":5977:6065   */\n      mstore\n        /* \"#utility.yul\":6084:6088   */\n      0x22\n        /* \"#utility.yul\":6081:6082   */\n      0x04\n        /* \"#utility.yul\":6074:6089   */\n      mstore\n        /* \"#utility.yul\":6108:6112   */\n      0x24\n        /* \"#utility.yul\":6105:6106   */\n      0x00\n        /* \"#utility.yul\":6098:6113   */\n      revert\n        /* \"#utility.yul\":6125:6305   */\n    tag_118:\n        /* \"#utility.yul\":6173:6250   */\n      0x4e487b7100000000000000000000000000000000000000000000000000000000\n        /* \"#utility.yul\":6170:6171   */\n      0x00\n        /* \"#utility.yul\":6163:6251   */\n      mstore\n        /* \"#utility.yul\":6270:6274   */\n      0x41\n        /* \"#utility.yul\":6267:6268   */\n      0x04\n        /* \"#utility.yul\":6260:6275   */\n      mstore\n        /* \"#utility.yul\":6294:6298   */\n      0x24\n        /* \"#utility.yul\":6291:6292   */\n      0x00\n        /* \"#utility.yul\":6284:6299   */\n      revert\n        /* \"#utility.yul\":6311:6428   */\n    tag_69:\n        /* \"#utility.yul\":6420:6421   */\n      0x00\n        /* \"#utility.yul\":6417:6418   */\n      dup1\n        /* \"#utility.yul\":6410:6422   */\n      revert\n        /* \"#utility.yul\":6434:6551   */\n    tag_58:\n        /* \"#utility.yul\":6543:6544   */\n      0x00\n        /* \"#utility.yul\":6540:6541   */\n      dup1\n        /* \"#utility.yul\":6533:6545   */\n      revert\n        /* \"#utility.yul\":6557:6674   */\n    tag_85:\n        /* \"#utility.yul\":6666:6667   */\n      0x00\n        /* \"#utility.yul\":6663:6664   */\n      dup1\n        /* \"#utility.yul\":6656:6668   */\n      revert\n        /* \"#utility.yul\":6680:6797   */\n    tag_78:\n        /* \"#utility.yul\":6789:6790   */\n      0x00\n        /* \"#utility.yul\":6786:6787   */\n      dup1\n        /* \"#utility.yul\":6779:6791   */\n      revert\n        /* \"#utility.yul\":6803:6905   */\n    tag_100:\n        /* \"#utility.yul\":6844:6850   */\n      0x00\n        /* \"#utility.yul\":6895:6897   */\n      0x1f\n        /* \"#utility.yul\":6891:6898   */\n      not\n        /* \"#utility.yul\":6886:6888   */\n      0x1f\n        /* \"#utility.yul\":6879:6884   */\n      dup4\n        /* \"#utility.yul\":6875:6889   */\n      add\n        /* \"#utility.yul\":6871:6899   */\n      and\n        /* \"#utility.yul\":6861:6899   */\n      swap1\n      pop\n        /* \"#utility.yul\":6803:6905   */\n      swap2\n      swap1\n      pop\n      jump\t// out\n        /* \"#utility.yul\":6911:7033   */\n    tag_64:\n        /* \"#utility.yul\":6984:7008   */\n      tag_157\n        /* \"#utility.yul\":7002:7007   */\n      dup2\n        /* \"#utility.yul\":6984:7008   */\n      tag_122\n      jump\t// in\n    tag_157:\n        /* \"#utility.yul\":6977:6982   */\n      dup2\n        /* \"#utility.yul\":6974:7009   */\n      eq\n        /* \"#utility.yul\":6964:7027   */\n      tag_158\n      jumpi\n        /* \"#utility.yul\":7023:7024   */\n      0x00\n        /* \"#utility.yul\":7020:7021   */\n      dup1\n        /* \"#utility.yul\":7013:7025   */\n      revert\n        /* \"#utility.yul\":6964:7027   */\n    tag_158:\n        /* \"#utility.yul\":6911:7033   */\n      pop\n      jump\t// out\n        /* \"#utility.yul\":7039:7161   */\n    tag_74:\n        /* \"#utility.yul\":7112:7136   */\n      tag_160\n        /* \"#utility.yul\":7130:7135   */\n      dup2\n        /* \"#utility.yul\":7112:7136   */\n      tag_104\n      jump\t// in\n    tag_160:\n        /* \"#utility.yul\":7105:7110   */\n      dup2\n        /* \"#utility.yul\":7102:7137   */\n      eq\n        /* \"#utility.yul\":7092:7155   */\n      tag_161\n      jumpi\n        /* \"#utility.yul\":7151:7152   */\n      0x00\n        /* \"#utility.yul\":7148:7149   */\n      dup1\n        /* \"#utility.yul\":7141:7153   */\n      revert\n        /* \"#utility.yul\":7092:7155   */\n    tag_161:\n        /* \"#utility.yul\":7039:7161   */\n      pop\n      jump\t// out\n\n    auxdata: 0xa2646970667358221220c6957cd0fc07a132b178802e0fbde9bb5b2247ca9ccec6ea4dfde4d31d9d3bae64736f6c63430008070033\n}\n",
				"bytecode": {
					"linkReferences": {},
					"object": "6080604052600060025534801561001557600080fd5b50610785806100256000396000f3fe608060405234801561001057600080fd5b506004361061004c5760003560e01c806381d78a9014610051578063853255cc146100815780639d63df221461009f578063c7176426146100cf575b600080fd5b61006b60048036038101906100669190610421565b6100eb565b6040516100789190610496565b60405180910390f35b610089610190565b60405161009691906104b8565b60405180910390f35b6100b960048036038101906100b491906103ab565b610196565b6040516100c691906104b8565b60405180910390f35b6100e960048036038101906100e491906103d8565b6101de565b005b606060016000838152602001908152602001600020805461010b906105c3565b80601f0160208091040260200160405190810160405280929190818152602001828054610137906105c3565b80156101845780601f1061015957610100808354040283529160200191610184565b820191906000526020600020905b81548152906001019060200180831161016757829003601f168201915b50505050509050919050565b60025481565b60008060008373ffffffffffffffffffffffffffffffffffffffff1673ffffffffffffffffffffffffffffffffffffffff168152602001908152602001600020549050919050565b6000339050600260008154809291906101f690610626565b91905055506002546000808373ffffffffffffffffffffffffffffffffffffffff1673ffffffffffffffffffffffffffffffffffffffff1681526020019081526020016000208190555081600160006002548152602001908152602001600020908051906020019061026992919061026e565b505050565b82805461027a906105c3565b90600052602060002090601f01602090048101928261029c57600085556102e3565b82601f106102b557805160ff19168380011785556102e3565b828001600101855582156102e3579182015b828111156102e25782518255916020019190600101906102c7565b5b5090506102f091906102f4565b5090565b5b8082111561030d5760008160009055506001016102f5565b5090565b600061032461031f846104f8565b6104d3565b9050828152602081018484840111156103405761033f610701565b5b61034b848285610581565b509392505050565b60008135905061036281610721565b92915050565b600082601f83011261037d5761037c6106fc565b5b813561038d848260208601610311565b91505092915050565b6000813590506103a581610738565b92915050565b6000602082840312156103c1576103c061070b565b5b60006103cf84828501610353565b91505092915050565b6000602082840312156103ee576103ed61070b565b5b600082013567ffffffffffffffff81111561040c5761040b610706565b5b61041884828501610368565b91505092915050565b6000602082840312156104375761043661070b565b5b600061044584828501610396565b91505092915050565b600061045982610529565b6104638185610534565b9350610473818560208601610590565b61047c81610710565b840191505092915050565b61049081610577565b82525050565b600060208201905081810360008301526104b0818461044e565b905092915050565b60006020820190506104cd6000830184610487565b92915050565b60006104dd6104ee565b90506104e982826105f5565b919050565b6000604051905090565b600067ffffffffffffffff821115610513576105126106cd565b5b61051c82610710565b9050602081019050919050565b600081519050919050565b600082825260208201905092915050565b600061055082610557565b9050919050565b600073ffffffffffffffffffffffffffffffffffffffff82169050919050565b6000819050919050565b82818337600083830152505050565b60005b838110156105ae578082015181840152602081019050610593565b838111156105bd576000848401525b50505050565b600060028204905060018216806105db57607f821691505b602082108114156105ef576105ee61069e565b5b50919050565b6105fe82610710565b810181811067ffffffffffffffff8211171561061d5761061c6106cd565b5b80604052505050565b600061063182610577565b91507fffffffffffffffffffffffffffffffffffffffffffffffffffffffffffffffff8214156106645761066361066f565b5b600182019050919050565b7f4e487b7100000000000000000000000000000000000000000000000000000000600052601160045260246000fd5b7f4e487b7100000000000000000000000000000000000000000000000000000000600052602260045260246000fd5b7f4e487b7100000000000000000000000000000000000000000000000000000000600052604160045260246000fd5b600080fd5b600080fd5b600080fd5b600080fd5b6000601f19601f8301169050919050565b61072a81610545565b811461073557600080fd5b50565b61074181610577565b811461074c57600080fd5b5056fea2646970667358221220c6957cd0fc07a132b178802e0fbde9bb5b2247ca9ccec6ea4dfde4d31d9d3bae64736f6c63430008070033",
					"opcodes": "PUSH1 0x80 PUSH1 0x40 MSTORE PUSH1 0x0 PUSH1 0x2 SSTORE CALLVALUE DUP1 ISZERO PUSH2 0x15 JUMPI PUSH1 0x0 DUP1 REVERT JUMPDEST POP PUSH2 0x785 DUP1 PUSH2 0x25 PUSH1 0x0 CODECOPY PUSH1 0x0 RETURN INVALID PUSH1 0x80 PUSH1 0x40 MSTORE CALLVALUE DUP1 ISZERO PUSH2 0x10 JUMPI PUSH1 0x0 DUP1 REVERT JUMPDEST POP PUSH1 0x4 CALLDATASIZE LT PUSH2 0x4C JUMPI PUSH1 0x0 CALLDATALOAD PUSH1 0xE0 SHR DUP1 PUSH4 0x81D78A90 EQ PUSH2 0x51 JUMPI DUP1 PUSH4 0x853255CC EQ PUSH2 0x81 JUMPI DUP1 PUSH4 0x9D63DF22 EQ PUSH2 0x9F JUMPI DUP1 PUSH4 0xC7176426 EQ PUSH2 0xCF JUMPI JUMPDEST PUSH1 0x0 DUP1 REVERT JUMPDEST PUSH2 0x6B PUSH1 0x4 DUP1 CALLDATASIZE SUB DUP2 ADD SWAP1 PUSH2 0x66 SWAP2 SWAP1 PUSH2 0x421 JUMP JUMPDEST PUSH2 0xEB JUMP JUMPDEST PUSH1 0x40 MLOAD PUSH2 0x78 SWAP2 SWAP1 PUSH2 0x496 JUMP JUMPDEST PUSH1 0x40 MLOAD DUP1 SWAP2 SUB SWAP1 RETURN JUMPDEST PUSH2 0x89 PUSH2 0x190 JUMP JUMPDEST PUSH1 0x40 MLOAD PUSH2 0x96 SWAP2 SWAP1 PUSH2 0x4B8 JUMP JUMPDEST PUSH1 0x40 MLOAD DUP1 SWAP2 SUB SWAP1 RETURN JUMPDEST PUSH2 0xB9 PUSH1 0x4 DUP1 CALLDATASIZE SUB DUP2 ADD SWAP1 PUSH2 0xB4 SWAP2 SWAP1 PUSH2 0x3AB JUMP JUMPDEST PUSH2 0x196 JUMP JUMPDEST PUSH1 0x40 MLOAD PUSH2 0xC6 SWAP2 SWAP1 PUSH2 0x4B8 JUMP JUMPDEST PUSH1 0x40 MLOAD DUP1 SWAP2 SUB SWAP1 RETURN JUMPDEST PUSH2 0xE9 PUSH1 0x4 DUP1 CALLDATASIZE SUB DUP2 ADD SWAP1 PUSH2 0xE4 SWAP2 SWAP1 PUSH2 0x3D8 JUMP JUMPDEST PUSH2 0x1DE JUMP JUMPDEST STOP JUMPDEST PUSH1 0x60 PUSH1 0x1 PUSH1 0x0 DUP4 DUP2 MSTORE PUSH1 0x20 ADD SWAP1 DUP2 MSTORE PUSH1 0x20 ADD PUSH1 0x0 KECCAK256 DUP1 SLOAD PUSH2 0x10B SWAP1 PUSH2 0x5C3 JUMP JUMPDEST DUP1 PUSH1 0x1F ADD PUSH1 0x20 DUP1 SWAP2 DIV MUL PUSH1 0x20 ADD PUSH1 0x40 MLOAD SWAP1 DUP2 ADD PUSH1 0x40 MSTORE DUP1 SWAP3 SWAP2 SWAP1 DUP2 DUP2 MSTORE PUSH1 0x20 ADD DUP3 DUP1 SLOAD PUSH2 0x137 SWAP1 PUSH2 0x5C3 JUMP JUMPDEST DUP1 ISZERO PUSH2 0x184 JUMPI DUP1 PUSH1 0x1F LT PUSH2 0x159 JUMPI PUSH2 0x100 DUP1 DUP4 SLOAD DIV MUL DUP4 MSTORE SWAP2 PUSH1 0x20 ADD SWAP2 PUSH2 0x184 JUMP JUMPDEST DUP3 ADD SWAP2 SWAP1 PUSH1 0x0 MSTORE PUSH1 0x20 PUSH1 0x0 KECCAK256 SWAP1 JUMPDEST DUP2 SLOAD DUP2 MSTORE SWAP1 PUSH1 0x1 ADD SWAP1 PUSH1 0x20 ADD DUP1 DUP4 GT PUSH2 0x167 JUMPI DUP3 SWAP1 SUB PUSH1 0x1F AND DUP3 ADD SWAP2 JUMPDEST POP POP POP POP POP SWAP1 POP SWAP2 SWAP1 POP JUMP JUMPDEST PUSH1 0x2 SLOAD DUP2 JUMP JUMPDEST PUSH1 0x0 DUP1 PUSH1 0x0 DUP4 PUSH20 0xFFFFFFFFFFFFFFFFFFFFFFFFFFFFFFFFFFFFFFFF AND PUSH20 0xFFFFFFFFFFFFFFFFFFFFFFFFFFFFFFFFFFFFFFFF AND DUP2 MSTORE PUSH1 0x20 ADD SWAP1 DUP2 MSTORE PUSH1 0x20 ADD PUSH1 0x0 KECCAK256 SLOAD SWAP1 POP SWAP2 SWAP1 POP JUMP JUMPDEST PUSH1 0x0 CALLER SWAP1 POP PUSH1 0x2 PUSH1 0x0 DUP2 SLOAD DUP1 SWAP3 SWAP2 SWAP1 PUSH2 0x1F6 SWAP1 PUSH2 0x626 JUMP JUMPDEST SWAP2 SWAP1 POP SSTORE POP PUSH1 0x2 SLOAD PUSH1 0x0 DUP1 DUP4 PUSH20 0xFFFFFFFFFFFFFFFFFFFFFFFFFFFFFFFFFFFFFFFF AND PUSH20 0xFFFFFFFFFFFFFFFFFFFFFFFFFFFFFFFFFFFFFFFF AND DUP2 MSTORE PUSH1 0x20 ADD SWAP1 DUP2 MSTORE PUSH1 0x20 ADD PUSH1 0x0 KECCAK256 DUP2 SWAP1 SSTORE POP DUP2 PUSH1 0x1 PUSH1 0x0 PUSH1 0x2 SLOAD DUP2 MSTORE PUSH1 0x20 ADD SWAP1 DUP2 MSTORE PUSH1 0x20 ADD PUSH1 0x0 KECCAK256 SWAP1 DUP1 MLOAD SWAP1 PUSH1 0x20 ADD SWAP1 PUSH2 0x269 SWAP3 SWAP2 SWAP1 PUSH2 0x26E JUMP JUMPDEST POP POP POP JUMP JUMPDEST DUP3 DUP1 SLOAD PUSH2 0x27A SWAP1 PUSH2 0x5C3 JUMP JUMPDEST SWAP1 PUSH1 0x0 MSTORE PUSH1 0x20 PUSH1 0x0 KECCAK256 SWAP1 PUSH1 0x1F ADD PUSH1 0x20 SWAP1 DIV DUP2 ADD SWAP3 DUP3 PUSH2 0x29C JUMPI PUSH1 0x0 DUP6 SSTORE PUSH2 0x2E3 JUMP JUMPDEST DUP3 PUSH1 0x1F LT PUSH2 0x2B5 JUMPI DUP1 MLOAD PUSH1 0xFF NOT AND DUP4 DUP1 ADD OR DUP6 SSTORE PUSH2 0x2E3 JUMP JUMPDEST DUP3 DUP1 ADD PUSH1 0x1 ADD DUP6 SSTORE DUP3 ISZERO PUSH2 0x2E3 JUMPI SWAP2 DUP3 ADD JUMPDEST DUP3 DUP2 GT ISZERO PUSH2 0x2E2 JUMPI DUP3 MLOAD DUP3 SSTORE SWAP2 PUSH1 0x20 ADD SWAP2 SWAP1 PUSH1 0x1 ADD SWAP1 PUSH2 0x2C7 JUMP JUMPDEST JUMPDEST POP SWAP1 POP PUSH2 0x2F0 SWAP2 SWAP1 PUSH2 0x2F4 JUMP JUMPDEST POP SWAP1 JUMP JUMPDEST JUMPDEST DUP1 DUP3 GT ISZERO PUSH2 0x30D JUMPI PUSH1 0x0 DUP2 PUSH1 0x0 SWAP1 SSTORE POP PUSH1 0x1 ADD PUSH2 0x2F5 JUMP JUMPDEST POP SWAP1 JUMP JUMPDEST PUSH1 0x0 PUSH2 0x324 PUSH2 0x31F DUP5 PUSH2 0x4F8 JUMP JUMPDEST PUSH2 0x4D3 JUMP JUMPDEST SWAP1 POP DUP3 DUP2 MSTORE PUSH1 0x20 DUP2 ADD DUP5 DUP5 DUP5 ADD GT ISZERO PUSH2 0x340 JUMPI PUSH2 0x33F PUSH2 0x701 JUMP JUMPDEST JUMPDEST PUSH2 0x34B DUP5 DUP3 DUP6 PUSH2 0x581 JUMP JUMPDEST POP SWAP4 SWAP3 POP POP POP JUMP JUMPDEST PUSH1 0x0 DUP2 CALLDATALOAD SWAP1 POP PUSH2 0x362 DUP2 PUSH2 0x721 JUMP JUMPDEST SWAP3 SWAP2 POP POP JUMP JUMPDEST PUSH1 0x0 DUP3 PUSH1 0x1F DUP4 ADD SLT PUSH2 0x37D JUMPI PUSH2 0x37C PUSH2 0x6FC JUMP JUMPDEST JUMPDEST DUP2 CALLDATALOAD PUSH2 0x38D DUP5 DUP3 PUSH1 0x20 DUP7 ADD PUSH2 0x311 JUMP JUMPDEST SWAP2 POP POP SWAP3 SWAP2 POP POP JUMP JUMPDEST PUSH1 0x0 DUP2 CALLDATALOAD SWAP1 POP PUSH2 0x3A5 DUP2 PUSH2 0x738 JUMP JUMPDEST SWAP3 SWAP2 POP POP JUMP JUMPDEST PUSH1 0x0 PUSH1 0x20 DUP3 DUP5 SUB SLT ISZERO PUSH2 0x3C1 JUMPI PUSH2 0x3C0 PUSH2 0x70B JUMP JUMPDEST JUMPDEST PUSH1 0x0 PUSH2 0x3CF DUP5 DUP3 DUP6 ADD PUSH2 0x353 JUMP JUMPDEST SWAP2 POP POP SWAP3 SWAP2 POP POP JUMP JUMPDEST PUSH1 0x0 PUSH1 0x20 DUP3 DUP5 SUB SLT ISZERO PUSH2 0x3EE JUMPI PUSH2 0x3ED PUSH2 0x70B JUMP JUMPDEST JUMPDEST PUSH1 0x0 DUP3 ADD CALLDATALOAD PUSH8 0xFFFFFFFFFFFFFFFF DUP2 GT ISZERO PUSH2 0x40C JUMPI PUSH2 0x40B PUSH2 0x706 JUMP JUMPDEST JUMPDEST PUSH2 0x418 DUP5 DUP3 DUP6 ADD PUSH2 0x368 JUMP JUMPDEST SWAP2 POP POP SWAP3 SWAP2 POP POP JUMP JUMPDEST PUSH1 0x0 PUSH1 0x20 DUP3 DUP5 SUB SLT ISZERO PUSH2 0x437 JUMPI PUSH2 0x436 PUSH2 0x70B JUMP JUMPDEST JUMPDEST PUSH1 0x0 PUSH2 0x445 DUP5 DUP3 DUP6 ADD PUSH2 0x396 JUMP JUMPDEST SWAP2 POP POP SWAP3 SWAP2 POP POP JUMP JUMPDEST PUSH1 0x0 PUSH2 0x459 DUP3 PUSH2 0x529 JUMP JUMPDEST PUSH2 0x463 DUP2 DUP6 PUSH2 0x534 JUMP JUMPDEST SWAP4 POP PUSH2 0x473 DUP2 DUP6 PUSH1 0x20 DUP7 ADD PUSH2 0x590 JUMP JUMPDEST PUSH2 0x47C DUP2 PUSH2 0x710 JUMP JUMPDEST DUP5 ADD SWAP2 POP POP SWAP3 SWAP2 POP POP JUMP JUMPDEST PUSH2 0x490 DUP2 PUSH2 0x577 JUMP JUMPDEST DUP3 MSTORE POP POP JUMP JUMPDEST PUSH1 0x0 PUSH1 0x20 DUP3 ADD SWAP1 POP DUP2 DUP2 SUB PUSH1 0x0 DUP4 ADD MSTORE PUSH2 0x4B0 DUP2 DUP5 PUSH2 0x44E JUMP JUMPDEST SWAP1 POP SWAP3 SWAP2 POP POP JUMP JUMPDEST PUSH1 0x0 PUSH1 0x20 DUP3 ADD SWAP1 POP PUSH2 0x4CD PUSH1 0x0 DUP4 ADD DUP5 PUSH2 0x487 JUMP JUMPDEST SWAP3 SWAP2 POP POP JUMP JUMPDEST PUSH1 0x0 PUSH2 0x4DD PUSH2 0x4EE JUMP JUMPDEST SWAP1 POP PUSH2 0x4E9 DUP3 DUP3 PUSH2 0x5F5 JUMP JUMPDEST SWAP2 SWAP1 POP JUMP JUMPDEST PUSH1 0x0 PUSH1 0x40 MLOAD SWAP1 POP SWAP1 JUMP JUMPDEST PUSH1 0x0 PUSH8 0xFFFFFFFFFFFFFFFF DUP3 GT ISZERO PUSH2 0x513 JUMPI PUSH2 0x512 PUSH2 0x6CD JUMP JUMPDEST JUMPDEST PUSH2 0x51C DUP3 PUSH2 0x710 JUMP JUMPDEST SWAP1 POP PUSH1 0x20 DUP2 ADD SWAP1 POP SWAP2 SWAP1 POP JUMP JUMPDEST PUSH1 0x0 DUP2 MLOAD SWAP1 POP SWAP2 SWAP1 POP JUMP JUMPDEST PUSH1 0x0 DUP3 DUP3 MSTORE PUSH1 0x20 DUP3 ADD SWAP1 POP SWAP3 SWAP2 POP POP JUMP JUMPDEST PUSH1 0x0 PUSH2 0x550 DUP3 PUSH2 0x557 JUMP JUMPDEST SWAP1 POP SWAP2 SWAP1 POP JUMP JUMPDEST PUSH1 0x0 PUSH20 0xFFFFFFFFFFFFFFFFFFFFFFFFFFFFFFFFFFFFFFFF DUP3 AND SWAP1 POP SWAP2 SWAP1 POP JUMP JUMPDEST PUSH1 0x0 DUP2 SWAP1 POP SWAP2 SWAP1 POP JUMP JUMPDEST DUP3 DUP2 DUP4 CALLDATACOPY PUSH1 0x0 DUP4 DUP4 ADD MSTORE POP POP POP JUMP JUMPDEST PUSH1 0x0 JUMPDEST DUP4 DUP2 LT ISZERO PUSH2 0x5AE JUMPI DUP1 DUP3 ADD MLOAD DUP2 DUP5 ADD MSTORE PUSH1 0x20 DUP2 ADD SWAP1 POP PUSH2 0x593 JUMP JUMPDEST DUP4 DUP2 GT ISZERO PUSH2 0x5BD JUMPI PUSH1 0x0 DUP5 DUP5 ADD MSTORE JUMPDEST POP POP POP POP JUMP JUMPDEST PUSH1 0x0 PUSH1 0x2 DUP3 DIV SWAP1 POP PUSH1 0x1 DUP3 AND DUP1 PUSH2 0x5DB JUMPI PUSH1 0x7F DUP3 AND SWAP2 POP JUMPDEST PUSH1 0x20 DUP3 LT DUP2 EQ ISZERO PUSH2 0x5EF JUMPI PUSH2 0x5EE PUSH2 0x69E JUMP JUMPDEST JUMPDEST POP SWAP2 SWAP1 POP JUMP JUMPDEST PUSH2 0x5FE DUP3 PUSH2 0x710 JUMP JUMPDEST DUP2 ADD DUP2 DUP2 LT PUSH8 0xFFFFFFFFFFFFFFFF DUP3 GT OR ISZERO PUSH2 0x61D JUMPI PUSH2 0x61C PUSH2 0x6CD JUMP JUMPDEST JUMPDEST DUP1 PUSH1 0x40 MSTORE POP POP POP JUMP JUMPDEST PUSH1 0x0 PUSH2 0x631 DUP3 PUSH2 0x577 JUMP JUMPDEST SWAP2 POP PUSH32 0xFFFFFFFFFFFFFFFFFFFFFFFFFFFFFFFFFFFFFFFFFFFFFFFFFFFFFFFFFFFFFFFF DUP3 EQ ISZERO PUSH2 0x664 JUMPI PUSH2 0x663 PUSH2 0x66F JUMP JUMPDEST JUMPDEST PUSH1 0x1 DUP3 ADD SWAP1 POP SWAP2 SWAP1 POP JUMP JUMPDEST PUSH32 0x4E487B7100000000000000000000000000000000000000000000000000000000 PUSH1 0x0 MSTORE PUSH1 0x11 PUSH1 0x4 MSTORE PUSH1 0x24 PUSH1 0x0 REVERT JUMPDEST PUSH32 0x4E487B7100000000000000000000000000000000000000000000000000000000 PUSH1 0x0 MSTORE PUSH1 0x22 PUSH1 0x4 MSTORE PUSH1 0x24 PUSH1 0x0 REVERT JUMPDEST PUSH32 0x4E487B7100000000000000000000000000000000000000000000000000000000 PUSH1 0x0 MSTORE PUSH1 0x41 PUSH1 0x4 MSTORE PUSH1 0x24 PUSH1 0x0 REVERT JUMPDEST PUSH1 0x0 DUP1 REVERT JUMPDEST PUSH1 0x0 DUP1 REVERT JUMPDEST PUSH1 0x0 DUP1 REVERT JUMPDEST PUSH1 0x0 DUP1 REVERT JUMPDEST PUSH1 0x0 PUSH1 0x1F NOT PUSH1 0x1F DUP4 ADD AND SWAP1 POP SWAP2 SWAP1 POP JUMP JUMPDEST PUSH2 0x72A DUP2 PUSH2 0x545 JUMP JUMPDEST DUP2 EQ PUSH2 0x735 JUMPI PUSH1 0x0 DUP1 REVERT JUMPDEST POP JUMP JUMPDEST PUSH2 0x741 DUP2 PUSH2 0x577 JUMP JUMPDEST DUP2 EQ PUSH2 0x74C JUMPI PUSH1 0x0 DUP1 REVERT JUMPDEST POP JUMP INVALID LOG2 PUSH5 0x6970667358 0x22 SLT KECCAK256 0xC6 SWAP6 PUSH29 0xD0FC07A132B178802E0FBDE9BB5B2247CA9CCEC6EA4DFDE4D31D9D3BAE PUSH5 0x736F6C6343 STOP ADDMOD SMOD STOP CALLER "
				},
				"gasEstimates": {
					"creation": {
						"codeDepositCost": "385000",
						"executionCost": "5430",
						"totalCost": "390430"
					},
					"external": {
						"getIdByAccountAddress(address)": "2863",
						"getNameById(uint256)": "infinite",
						"regis(string)": "infinite",
						"sum()": "2429"
					}
				},
				"methodIdentifiers": {
					"getIdByAccountAddress(address)": "9d63df22",
					"getNameById(uint256)": "81d78a90",
					"regis(string)": "c7176426",
					"sum()": "853255cc"
				}
			},
			"storageLayout": {
				"storage": [
					{
						"astId": 5,
						"contract": "contracts/_LearnMapping.sol:MapTest",
						"label": "id",
						"offset": 0,
						"slot": "0",
						"type": "t_mapping(t_address,t_uint256)"
					},
					{
						"astId": 9,
						"contract": "contracts/_LearnMapping.sol:MapTest",
						"label": "accountName",
						"offset": 0,
						"slot": "1",
						"type": "t_mapping(t_uint256,t_string_storage)"
					},
					{
						"astId": 12,
						"contract": "contracts/_LearnMapping.sol:MapTest",
						"label": "sum",
						"offset": 0,
						"slot": "2",
						"type": "t_uint256"
					}
				],
				"types": {
					"t_address": {
						"encoding": "inplace",
						"label": "address",
						"numberOfBytes": "20"
					},
					"t_mapping(t_address,t_uint256)": {
						"encoding": "mapping",
						"key": "t_address",
						"label": "mapping(address => uint256)",
						"numberOfBytes": "32",
						"value": "t_uint256"
					},
					"t_mapping(t_uint256,t_string_storage)": {
						"encoding": "mapping",
						"key": "t_uint256",
						"label": "mapping(uint256 => string)",
						"numberOfBytes": "32",
						"value": "t_string_storage"
					},
					"t_string_storage": {
						"encoding": "bytes",
						"label": "string",
						"numberOfBytes": "32"
					},
					"t_uint256": {
						"encoding": "inplace",
						"label": "uint256",
						"numberOfBytes": "32"
					}
				}
			},
			"userdoc": {
				"kind": "user",
				"methods": {},
				"version": 1
			}
		}
	}
}