{
	"contracts/Father.sol": {
		"Father": {
			"abi": [
				{
					"anonymous": false,
					"inputs": [
						{
							"indexed": false,
							"internalType": "string",
							"name": "msg",
							"type": "string"
						}
					],
					"name": "log",
					"type": "event"
				},
				{
					"inputs": [],
					"name": "jump",
					"outputs": [],
					"stateMutability": "nonpayable",
					"type": "function"
				},
				{
					"inputs": [],
					"name": "jumpF",
					"outputs": [],
					"stateMutability": "nonpayable",
					"type": "function"
				},
				{
					"inputs": [],
					"name": "logName",
					"outputs": [],
					"stateMutability": "nonpayable",
					"type": "function"
				},
				{
					"inputs": [],
					"name": "logNameF",
					"outputs": [],
					"stateMutability": "nonpayable",
					"type": "function"
				},
				{
					"inputs": [],
					"name": "run",
					"outputs": [],
					"stateMutability": "nonpayable",
					"type": "function"
				},
				{
					"inputs": [],
					"name": "runF",
					"outputs": [],
					"stateMutability": "nonpayable",
					"type": "function"
				}
			],
			"devdoc": {
				"kind": "dev",
				"methods": {},
				"version": 1
			},
			"evm": {
				"assembly": "    /* \"contracts/Father.sol\":91:333  contract Father is Yeye {... */\n  mstore(0x40, 0x80)\n  callvalue\n  dup1\n  iszero\n  tag_1\n  jumpi\n  0x00\n  dup1\n  revert\ntag_1:\n  pop\n  dataSize(sub_0)\n  dup1\n  dataOffset(sub_0)\n  0x00\n  codecopy\n  0x00\n  return\nstop\n\nsub_0: assembly {\n        /* \"contracts/Father.sol\":91:333  contract Father is Yeye {... */\n      mstore(0x40, 0x80)\n      callvalue\n      dup1\n      iszero\n      tag_1\n      jumpi\n      0x00\n      dup1\n      revert\n    tag_1:\n      pop\n      jumpi(tag_2, lt(calldatasize, 0x04))\n      shr(0xe0, calldataload(0x00))\n      dup1\n      0x268901aa\n      eq\n      tag_3\n      jumpi\n      dup1\n      0x82bbb2a9\n      eq\n      tag_4\n      jumpi\n      dup1\n      0x8f6c696b\n      eq\n      tag_5\n      jumpi\n      dup1\n      0x9b4f5e44\n      eq\n      tag_6\n      jumpi\n      dup1\n      0xc0406226\n      eq\n      tag_7\n      jumpi\n      dup1\n      0xdccda98a\n      eq\n      tag_8\n      jumpi\n    tag_2:\n      0x00\n      dup1\n      revert\n        /* \"contracts/Father.sol\":259:331  function logNameF() public {... */\n    tag_3:\n      tag_9\n      tag_10\n      jump\t// in\n    tag_9:\n      stop\n        /* \"contracts/Yeye.sol\":250:326  function logName() public {... */\n    tag_4:\n      tag_11\n      tag_12\n      jump\t// in\n    tag_11:\n      stop\n        /* \"contracts/Yeye.sol\":118:179  function jump() public {... */\n    tag_5:\n      tag_13\n      tag_14\n      jump\t// in\n    tag_13:\n      stop\n        /* \"contracts/Father.sol\":191:253  function runF() public {... */\n    tag_6:\n      tag_15\n      tag_16\n      jump\t// in\n    tag_15:\n      stop\n        /* \"contracts/Yeye.sol\":185:244  function run() public {... */\n    tag_7:\n      tag_17\n      tag_18\n      jump\t// in\n    tag_17:\n      stop\n        /* \"contracts/Father.sol\":121:185  function jumpF() public {... */\n    tag_8:\n      tag_19\n      tag_20\n      jump\t// in\n    tag_19:\n      stop\n        /* \"contracts/Father.sol\":259:331  function logNameF() public {... */\n    tag_10:\n        /* \"contracts/Father.sol\":301:324  log(\"father name jobs\") */\n      0x41304facd9323d75b11bcdd609cb38effffdb05710f7caf0e9b16c6d9d709f50\n      mload(0x40)\n      tag_22\n      swap1\n      tag_23\n      jump\t// in\n    tag_22:\n      mload(0x40)\n      dup1\n      swap2\n      sub\n      swap1\n      log1\n        /* \"contracts/Father.sol\":259:331  function logNameF() public {... */\n      jump\t// out\n        /* \"contracts/Yeye.sol\":250:326  function logName() public {... */\n    tag_12:\n        /* \"contracts/Yeye.sol\":291:319  log(\"yeye name macbook pro\") */\n      0x41304facd9323d75b11bcdd609cb38effffdb05710f7caf0e9b16c6d9d709f50\n      mload(0x40)\n      tag_25\n      swap1\n      tag_26\n      jump\t// in\n    tag_25:\n      mload(0x40)\n      dup1\n      swap2\n      sub\n      swap1\n      log1\n        /* \"contracts/Yeye.sol\":250:326  function logName() public {... */\n      jump\t// out\n        /* \"contracts/Yeye.sol\":118:179  function jump() public {... */\n    tag_14:\n        /* \"contracts/Yeye.sol\":156:172  log(\"yeye jump\") */\n      0x41304facd9323d75b11bcdd609cb38effffdb05710f7caf0e9b16c6d9d709f50\n      mload(0x40)\n      tag_28\n      swap1\n      tag_29\n      jump\t// in\n    tag_28:\n      mload(0x40)\n      dup1\n      swap2\n      sub\n      swap1\n      log1\n        /* \"contracts/Yeye.sol\":118:179  function jump() public {... */\n      jump\t// out\n        /* \"contracts/Father.sol\":191:253  function runF() public {... */\n    tag_16:\n        /* \"contracts/Father.sol\":229:246  log(\"father run\") */\n      0x41304facd9323d75b11bcdd609cb38effffdb05710f7caf0e9b16c6d9d709f50\n      mload(0x40)\n      tag_31\n      swap1\n      tag_32\n      jump\t// in\n    tag_31:\n      mload(0x40)\n      dup1\n      swap2\n      sub\n      swap1\n      log1\n        /* \"contracts/Father.sol\":191:253  function runF() public {... */\n      jump\t// out\n        /* \"contracts/Yeye.sol\":185:244  function run() public {... */\n    tag_18:\n        /* \"contracts/Yeye.sol\":222:237  log(\"yeye run\") */\n      0x41304facd9323d75b11bcdd609cb38effffdb05710f7caf0e9b16c6d9d709f50\n      mload(0x40)\n      tag_34\n      swap1\n      tag_35\n      jump\t// in\n    tag_34:\n      mload(0x40)\n      dup1\n      swap2\n      sub\n      swap1\n      log1\n        /* \"contracts/Yeye.sol\":185:244  function run() public {... */\n      jump\t// out\n        /* \"contracts/Father.sol\":121:185  function jumpF() public {... */\n    tag_20:\n        /* \"contracts/Father.sol\":160:178  log(\"father jump\") */\n      0x41304facd9323d75b11bcdd609cb38effffdb05710f7caf0e9b16c6d9d709f50\n      mload(0x40)\n      tag_37\n      swap1\n      tag_38\n      jump\t// in\n    tag_37:\n      mload(0x40)\n      dup1\n      swap2\n      sub\n      swap1\n      log1\n        /* \"contracts/Father.sol\":121:185  function jumpF() public {... */\n      jump\t// out\n        /* \"#utility.yul\":7:372   */\n    tag_40:\n        /* \"#utility.yul\":149:152   */\n      0x00\n        /* \"#utility.yul\":170:236   */\n      tag_42\n        /* \"#utility.yul\":234:235   */\n      0x09\n        /* \"#utility.yul\":229:232   */\n      dup4\n        /* \"#utility.yul\":170:236   */\n      tag_43\n      jump\t// in\n    tag_42:\n        /* \"#utility.yul\":163:236   */\n      swap2\n      pop\n        /* \"#utility.yul\":245:338   */\n      tag_44\n        /* \"#utility.yul\":334:337   */\n      dup3\n        /* \"#utility.yul\":245:338   */\n      tag_45\n      jump\t// in\n    tag_44:\n        /* \"#utility.yul\":363:365   */\n      0x20\n        /* \"#utility.yul\":358:361   */\n      dup3\n        /* \"#utility.yul\":354:366   */\n      add\n        /* \"#utility.yul\":347:366   */\n      swap1\n      pop\n        /* \"#utility.yul\":7:372   */\n      swap2\n      swap1\n      pop\n      jump\t// out\n        /* \"#utility.yul\":378:743   */\n    tag_46:\n        /* \"#utility.yul\":520:523   */\n      0x00\n        /* \"#utility.yul\":541:607   */\n      tag_48\n        /* \"#utility.yul\":605:606   */\n      0x08\n        /* \"#utility.yul\":600:603   */\n      dup4\n        /* \"#utility.yul\":541:607   */\n      tag_43\n      jump\t// in\n    tag_48:\n        /* \"#utility.yul\":534:607   */\n      swap2\n      pop\n        /* \"#utility.yul\":616:709   */\n      tag_49\n        /* \"#utility.yul\":705:708   */\n      dup3\n        /* \"#utility.yul\":616:709   */\n      tag_50\n      jump\t// in\n    tag_49:\n        /* \"#utility.yul\":734:736   */\n      0x20\n        /* \"#utility.yul\":729:732   */\n      dup3\n        /* \"#utility.yul\":725:737   */\n      add\n        /* \"#utility.yul\":718:737   */\n      swap1\n      pop\n        /* \"#utility.yul\":378:743   */\n      swap2\n      swap1\n      pop\n      jump\t// out\n        /* \"#utility.yul\":749:1115   */\n    tag_51:\n        /* \"#utility.yul\":891:894   */\n      0x00\n        /* \"#utility.yul\":912:979   */\n      tag_53\n        /* \"#utility.yul\":976:978   */\n      0x15\n        /* \"#utility.yul\":971:974   */\n      dup4\n        /* \"#utility.yul\":912:979   */\n      tag_43\n      jump\t// in\n    tag_53:\n        /* \"#utility.yul\":905:979   */\n      swap2\n      pop\n        /* \"#utility.yul\":988:1081   */\n      tag_54\n        /* \"#utility.yul\":1077:1080   */\n      dup3\n        /* \"#utility.yul\":988:1081   */\n      tag_55\n      jump\t// in\n    tag_54:\n        /* \"#utility.yul\":1106:1108   */\n      0x20\n        /* \"#utility.yul\":1101:1104   */\n      dup3\n        /* \"#utility.yul\":1097:1109   */\n      add\n        /* \"#utility.yul\":1090:1109   */\n      swap1\n      pop\n        /* \"#utility.yul\":749:1115   */\n      swap2\n      swap1\n      pop\n      jump\t// out\n        /* \"#utility.yul\":1121:1487   */\n    tag_56:\n        /* \"#utility.yul\":1263:1266   */\n      0x00\n        /* \"#utility.yul\":1284:1351   */\n      tag_58\n        /* \"#utility.yul\":1348:1350   */\n      0x0a\n        /* \"#utility.yul\":1343:1346   */\n      dup4\n        /* \"#utility.yul\":1284:1351   */\n      tag_43\n      jump\t// in\n    tag_58:\n        /* \"#utility.yul\":1277:1351   */\n      swap2\n      pop\n        /* \"#utility.yul\":1360:1453   */\n      tag_59\n        /* \"#utility.yul\":1449:1452   */\n      dup3\n        /* \"#utility.yul\":1360:1453   */\n      tag_60\n      jump\t// in\n    tag_59:\n        /* \"#utility.yul\":1478:1480   */\n      0x20\n        /* \"#utility.yul\":1473:1476   */\n      dup3\n        /* \"#utility.yul\":1469:1481   */\n      add\n        /* \"#utility.yul\":1462:1481   */\n      swap1\n      pop\n        /* \"#utility.yul\":1121:1487   */\n      swap2\n      swap1\n      pop\n      jump\t// out\n        /* \"#utility.yul\":1493:1859   */\n    tag_61:\n        /* \"#utility.yul\":1635:1638   */\n      0x00\n        /* \"#utility.yul\":1656:1723   */\n      tag_63\n        /* \"#utility.yul\":1720:1722   */\n      0x10\n        /* \"#utility.yul\":1715:1718   */\n      dup4\n        /* \"#utility.yul\":1656:1723   */\n      tag_43\n      jump\t// in\n    tag_63:\n        /* \"#utility.yul\":1649:1723   */\n      swap2\n      pop\n        /* \"#utility.yul\":1732:1825   */\n      tag_64\n        /* \"#utility.yul\":1821:1824   */\n      dup3\n        /* \"#utility.yul\":1732:1825   */\n      tag_65\n      jump\t// in\n    tag_64:\n        /* \"#utility.yul\":1850:1852   */\n      0x20\n        /* \"#utility.yul\":1845:1848   */\n      dup3\n        /* \"#utility.yul\":1841:1853   */\n      add\n        /* \"#utility.yul\":1834:1853   */\n      swap1\n      pop\n        /* \"#utility.yul\":1493:1859   */\n      swap2\n      swap1\n      pop\n      jump\t// out\n        /* \"#utility.yul\":1865:2231   */\n    tag_66:\n        /* \"#utility.yul\":2007:2010   */\n      0x00\n        /* \"#utility.yul\":2028:2095   */\n      tag_68\n        /* \"#utility.yul\":2092:2094   */\n      0x0b\n        /* \"#utility.yul\":2087:2090   */\n      dup4\n        /* \"#utility.yul\":2028:2095   */\n      tag_43\n      jump\t// in\n    tag_68:\n        /* \"#utility.yul\":2021:2095   */\n      swap2\n      pop\n        /* \"#utility.yul\":2104:2197   */\n      tag_69\n        /* \"#utility.yul\":2193:2196   */\n      dup3\n        /* \"#utility.yul\":2104:2197   */\n      tag_70\n      jump\t// in\n    tag_69:\n        /* \"#utility.yul\":2222:2224   */\n      0x20\n        /* \"#utility.yul\":2217:2220   */\n      dup3\n        /* \"#utility.yul\":2213:2225   */\n      add\n        /* \"#utility.yul\":2206:2225   */\n      swap1\n      pop\n        /* \"#utility.yul\":1865:2231   */\n      swap2\n      swap1\n      pop\n      jump\t// out\n        /* \"#utility.yul\":2237:2656   */\n    tag_29:\n        /* \"#utility.yul\":2403:2407   */\n      0x00\n        /* \"#utility.yul\":2441:2443   */\n      0x20\n        /* \"#utility.yul\":2430:2439   */\n      dup3\n        /* \"#utility.yul\":2426:2444   */\n      add\n        /* \"#utility.yul\":2418:2444   */\n      swap1\n      pop\n        /* \"#utility.yul\":2490:2499   */\n      dup2\n        /* \"#utility.yul\":2484:2488   */\n      dup2\n        /* \"#utility.yul\":2480:2500   */\n      sub\n        /* \"#utility.yul\":2476:2477   */\n      0x00\n        /* \"#utility.yul\":2465:2474   */\n      dup4\n        /* \"#utility.yul\":2461:2478   */\n      add\n        /* \"#utility.yul\":2454:2501   */\n      mstore\n        /* \"#utility.yul\":2518:2649   */\n      tag_72\n        /* \"#utility.yul\":2644:2648   */\n      dup2\n        /* \"#utility.yul\":2518:2649   */\n      tag_40\n      jump\t// in\n    tag_72:\n        /* \"#utility.yul\":2510:2649   */\n      swap1\n      pop\n        /* \"#utility.yul\":2237:2656   */\n      swap2\n      swap1\n      pop\n      jump\t// out\n        /* \"#utility.yul\":2662:3081   */\n    tag_35:\n        /* \"#utility.yul\":2828:2832   */\n      0x00\n        /* \"#utility.yul\":2866:2868   */\n      0x20\n        /* \"#utility.yul\":2855:2864   */\n      dup3\n        /* \"#utility.yul\":2851:2869   */\n      add\n        /* \"#utility.yul\":2843:2869   */\n      swap1\n      pop\n        /* \"#utility.yul\":2915:2924   */\n      dup2\n        /* \"#utility.yul\":2909:2913   */\n      dup2\n        /* \"#utility.yul\":2905:2925   */\n      sub\n        /* \"#utility.yul\":2901:2902   */\n      0x00\n        /* \"#utility.yul\":2890:2899   */\n      dup4\n        /* \"#utility.yul\":2886:2903   */\n      add\n        /* \"#utility.yul\":2879:2926   */\n      mstore\n        /* \"#utility.yul\":2943:3074   */\n      tag_74\n        /* \"#utility.yul\":3069:3073   */\n      dup2\n        /* \"#utility.yul\":2943:3074   */\n      tag_46\n      jump\t// in\n    tag_74:\n        /* \"#utility.yul\":2935:3074   */\n      swap1\n      pop\n        /* \"#utility.yul\":2662:3081   */\n      swap2\n      swap1\n      pop\n      jump\t// out\n        /* \"#utility.yul\":3087:3506   */\n    tag_26:\n        /* \"#utility.yul\":3253:3257   */\n      0x00\n        /* \"#utility.yul\":3291:3293   */\n      0x20\n        /* \"#utility.yul\":3280:3289   */\n      dup3\n        /* \"#utility.yul\":3276:3294   */\n      add\n        /* \"#utility.yul\":3268:3294   */\n      swap1\n      pop\n        /* \"#utility.yul\":3340:3349   */\n      dup2\n        /* \"#utility.yul\":3334:3338   */\n      dup2\n        /* \"#utility.yul\":3330:3350   */\n      sub\n        /* \"#utility.yul\":3326:3327   */\n      0x00\n        /* \"#utility.yul\":3315:3324   */\n      dup4\n        /* \"#utility.yul\":3311:3328   */\n      add\n        /* \"#utility.yul\":3304:3351   */\n      mstore\n        /* \"#utility.yul\":3368:3499   */\n      tag_76\n        /* \"#utility.yul\":3494:3498   */\n      dup2\n        /* \"#utility.yul\":3368:3499   */\n      tag_51\n      jump\t// in\n    tag_76:\n        /* \"#utility.yul\":3360:3499   */\n      swap1\n      pop\n        /* \"#utility.yul\":3087:3506   */\n      swap2\n      swap1\n      pop\n      jump\t// out\n        /* \"#utility.yul\":3512:3931   */\n    tag_32:\n        /* \"#utility.yul\":3678:3682   */\n      0x00\n        /* \"#utility.yul\":3716:3718   */\n      0x20\n        /* \"#utility.yul\":3705:3714   */\n      dup3\n        /* \"#utility.yul\":3701:3719   */\n      add\n        /* \"#utility.yul\":3693:3719   */\n      swap1\n      pop\n        /* \"#utility.yul\":3765:3774   */\n      dup2\n        /* \"#utility.yul\":3759:3763   */\n      dup2\n        /* \"#utility.yul\":3755:3775   */\n      sub\n        /* \"#utility.yul\":3751:3752   */\n      0x00\n        /* \"#utility.yul\":3740:3749   */\n      dup4\n        /* \"#utility.yul\":3736:3753   */\n      add\n        /* \"#utility.yul\":3729:3776   */\n      mstore\n        /* \"#utility.yul\":3793:3924   */\n      tag_78\n        /* \"#utility.yul\":3919:3923   */\n      dup2\n        /* \"#utility.yul\":3793:3924   */\n      tag_56\n      jump\t// in\n    tag_78:\n        /* \"#utility.yul\":3785:3924   */\n      swap1\n      pop\n        /* \"#utility.yul\":3512:3931   */\n      swap2\n      swap1\n      pop\n      jump\t// out\n        /* \"#utility.yul\":3937:4356   */\n    tag_23:\n        /* \"#utility.yul\":4103:4107   */\n      0x00\n        /* \"#utility.yul\":4141:4143   */\n      0x20\n        /* \"#utility.yul\":4130:4139   */\n      dup3\n        /* \"#utility.yul\":4126:4144   */\n      add\n        /* \"#utility.yul\":4118:4144   */\n      swap1\n      pop\n        /* \"#utility.yul\":4190:4199   */\n      dup2\n        /* \"#utility.yul\":4184:4188   */\n      dup2\n        /* \"#utility.yul\":4180:4200   */\n      sub\n        /* \"#utility.yul\":4176:4177   */\n      0x00\n        /* \"#utility.yul\":4165:4174   */\n      dup4\n        /* \"#utility.yul\":4161:4178   */\n      add\n        /* \"#utility.yul\":4154:4201   */\n      mstore\n        /* \"#utility.yul\":4218:4349   */\n      tag_80\n        /* \"#utility.yul\":4344:4348   */\n      dup2\n        /* \"#utility.yul\":4218:4349   */\n      tag_61\n      jump\t// in\n    tag_80:\n        /* \"#utility.yul\":4210:4349   */\n      swap1\n      pop\n        /* \"#utility.yul\":3937:4356   */\n      swap2\n      swap1\n      pop\n      jump\t// out\n        /* \"#utility.yul\":4362:4781   */\n    tag_38:\n        /* \"#utility.yul\":4528:4532   */\n      0x00\n        /* \"#utility.yul\":4566:4568   */\n      0x20\n        /* \"#utility.yul\":4555:4564   */\n      dup3\n        /* \"#utility.yul\":4551:4569   */\n      add\n        /* \"#utility.yul\":4543:4569   */\n      swap1\n      pop\n        /* \"#utility.yul\":4615:4624   */\n      dup2\n        /* \"#utility.yul\":4609:4613   */\n      dup2\n        /* \"#utility.yul\":4605:4625   */\n      sub\n        /* \"#utility.yul\":4601:4602   */\n      0x00\n        /* \"#utility.yul\":4590:4599   */\n      dup4\n        /* \"#utility.yul\":4586:4603   */\n      add\n        /* \"#utility.yul\":4579:4626   */\n      mstore\n        /* \"#utility.yul\":4643:4774   */\n      tag_82\n        /* \"#utility.yul\":4769:4773   */\n      dup2\n        /* \"#utility.yul\":4643:4774   */\n      tag_66\n      jump\t// in\n    tag_82:\n        /* \"#utility.yul\":4635:4774   */\n      swap1\n      pop\n        /* \"#utility.yul\":4362:4781   */\n      swap2\n      swap1\n      pop\n      jump\t// out\n        /* \"#utility.yul\":4787:4956   */\n    tag_43:\n        /* \"#utility.yul\":4871:4882   */\n      0x00\n        /* \"#utility.yul\":4905:4911   */\n      dup3\n        /* \"#utility.yul\":4900:4903   */\n      dup3\n        /* \"#utility.yul\":4893:4912   */\n      mstore\n        /* \"#utility.yul\":4945:4949   */\n      0x20\n        /* \"#utility.yul\":4940:4943   */\n      dup3\n        /* \"#utility.yul\":4936:4950   */\n      add\n        /* \"#utility.yul\":4921:4950   */\n      swap1\n      pop\n        /* \"#utility.yul\":4787:4956   */\n      swap3\n      swap2\n      pop\n      pop\n      jump\t// out\n        /* \"#utility.yul\":4962:5121   */\n    tag_45:\n        /* \"#utility.yul\":5102:5113   */\n      0x79657965206a756d700000000000000000000000000000000000000000000000\n        /* \"#utility.yul\":5098:5099   */\n      0x00\n        /* \"#utility.yul\":5090:5096   */\n      dup3\n        /* \"#utility.yul\":5086:5100   */\n      add\n        /* \"#utility.yul\":5079:5114   */\n      mstore\n        /* \"#utility.yul\":4962:5121   */\n      pop\n      jump\t// out\n        /* \"#utility.yul\":5127:5285   */\n    tag_50:\n        /* \"#utility.yul\":5267:5277   */\n      0x796579652072756e000000000000000000000000000000000000000000000000\n        /* \"#utility.yul\":5263:5264   */\n      0x00\n        /* \"#utility.yul\":5255:5261   */\n      dup3\n        /* \"#utility.yul\":5251:5265   */\n      add\n        /* \"#utility.yul\":5244:5278   */\n      mstore\n        /* \"#utility.yul\":5127:5285   */\n      pop\n      jump\t// out\n        /* \"#utility.yul\":5291:5462   */\n    tag_55:\n        /* \"#utility.yul\":5431:5454   */\n      0x79657965206e616d65206d6163626f6f6b2070726f0000000000000000000000\n        /* \"#utility.yul\":5427:5428   */\n      0x00\n        /* \"#utility.yul\":5419:5425   */\n      dup3\n        /* \"#utility.yul\":5415:5429   */\n      add\n        /* \"#utility.yul\":5408:5455   */\n      mstore\n        /* \"#utility.yul\":5291:5462   */\n      pop\n      jump\t// out\n        /* \"#utility.yul\":5468:5628   */\n    tag_60:\n        /* \"#utility.yul\":5608:5620   */\n      0x6661746865722072756e00000000000000000000000000000000000000000000\n        /* \"#utility.yul\":5604:5605   */\n      0x00\n        /* \"#utility.yul\":5596:5602   */\n      dup3\n        /* \"#utility.yul\":5592:5606   */\n      add\n        /* \"#utility.yul\":5585:5621   */\n      mstore\n        /* \"#utility.yul\":5468:5628   */\n      pop\n      jump\t// out\n        /* \"#utility.yul\":5634:5800   */\n    tag_65:\n        /* \"#utility.yul\":5774:5792   */\n      0x666174686572206e616d65206a6f627300000000000000000000000000000000\n        /* \"#utility.yul\":5770:5771   */\n      0x00\n        /* \"#utility.yul\":5762:5768   */\n      dup3\n        /* \"#utility.yul\":5758:5772   */\n      add\n        /* \"#utility.yul\":5751:5793   */\n      mstore\n        /* \"#utility.yul\":5634:5800   */\n      pop\n      jump\t// out\n        /* \"#utility.yul\":5806:5967   */\n    tag_70:\n        /* \"#utility.yul\":5946:5959   */\n      0x666174686572206a756d70000000000000000000000000000000000000000000\n        /* \"#utility.yul\":5942:5943   */\n      0x00\n        /* \"#utility.yul\":5934:5940   */\n      dup3\n        /* \"#utility.yul\":5930:5944   */\n      add\n        /* \"#utility.yul\":5923:5960   */\n      mstore\n        /* \"#utility.yul\":5806:5967   */\n      pop\n      jump\t// out\n\n    auxdata: 0xa26469706673582212201fdfc88e1cd667c97ae60a0a653e385d8eb51801bc6d15c8834754b9202323e264736f6c63430008070033\n}\n",
				"bytecode": {
					"linkReferences": {},
					"object": "608060405234801561001057600080fd5b506104bc806100206000396000f3fe608060405234801561001057600080fd5b50600436106100625760003560e01c8063268901aa1461006757806382bbb2a9146100715780638f6c696b1461007b5780639b4f5e4414610085578063c04062261461008f578063dccda98a14610099575b600080fd5b61006f6100a3565b005b6100796100da565b005b610083610111565b005b61008d610148565b005b61009761017f565b005b6100a16101b6565b005b7f41304facd9323d75b11bcdd609cb38effffdb05710f7caf0e9b16c6d9d709f506040516100d09061033f565b60405180910390a1565b7f41304facd9323d75b11bcdd609cb38effffdb05710f7caf0e9b16c6d9d709f50604051610107906102ff565b60405180910390a1565b7f41304facd9323d75b11bcdd609cb38effffdb05710f7caf0e9b16c6d9d709f5060405161013e906102bf565b60405180910390a1565b7f41304facd9323d75b11bcdd609cb38effffdb05710f7caf0e9b16c6d9d709f506040516101759061031f565b60405180910390a1565b7f41304facd9323d75b11bcdd609cb38effffdb05710f7caf0e9b16c6d9d709f506040516101ac906102df565b60405180910390a1565b7f41304facd9323d75b11bcdd609cb38effffdb05710f7caf0e9b16c6d9d709f506040516101e39061035f565b60405180910390a1565b60006101fa60098361037f565b915061020582610390565b602082019050919050565b600061021d60088361037f565b9150610228826103b9565b602082019050919050565b600061024060158361037f565b915061024b826103e2565b602082019050919050565b6000610263600a8361037f565b915061026e8261040b565b602082019050919050565b600061028660108361037f565b915061029182610434565b602082019050919050565b60006102a9600b8361037f565b91506102b48261045d565b602082019050919050565b600060208201905081810360008301526102d8816101ed565b9050919050565b600060208201905081810360008301526102f881610210565b9050919050565b6000602082019050818103600083015261031881610233565b9050919050565b6000602082019050818103600083015261033881610256565b9050919050565b6000602082019050818103600083015261035881610279565b9050919050565b600060208201905081810360008301526103788161029c565b9050919050565b600082825260208201905092915050565b7f79657965206a756d700000000000000000000000000000000000000000000000600082015250565b7f796579652072756e000000000000000000000000000000000000000000000000600082015250565b7f79657965206e616d65206d6163626f6f6b2070726f0000000000000000000000600082015250565b7f6661746865722072756e00000000000000000000000000000000000000000000600082015250565b7f666174686572206e616d65206a6f627300000000000000000000000000000000600082015250565b7f666174686572206a756d7000000000000000000000000000000000000000000060008201525056fea26469706673582212201fdfc88e1cd667c97ae60a0a653e385d8eb51801bc6d15c8834754b9202323e264736f6c63430008070033",
					"opcodes": "PUSH1 0x80 PUSH1 0x40 MSTORE CALLVALUE DUP1 ISZERO PUSH2 0x10 JUMPI PUSH1 0x0 DUP1 REVERT JUMPDEST POP PUSH2 0x4BC DUP1 PUSH2 0x20 PUSH1 0x0 CODECOPY PUSH1 0x0 RETURN INVALID PUSH1 0x80 PUSH1 0x40 MSTORE CALLVALUE DUP1 ISZERO PUSH2 0x10 JUMPI PUSH1 0x0 DUP1 REVERT JUMPDEST POP PUSH1 0x4 CALLDATASIZE LT PUSH2 0x62 JUMPI PUSH1 0x0 CALLDATALOAD PUSH1 0xE0 SHR DUP1 PUSH4 0x268901AA EQ PUSH2 0x67 JUMPI DUP1 PUSH4 0x82BBB2A9 EQ PUSH2 0x71 JUMPI DUP1 PUSH4 0x8F6C696B EQ PUSH2 0x7B JUMPI DUP1 PUSH4 0x9B4F5E44 EQ PUSH2 0x85 JUMPI DUP1 PUSH4 0xC0406226 EQ PUSH2 0x8F JUMPI DUP1 PUSH4 0xDCCDA98A EQ PUSH2 0x99 JUMPI JUMPDEST PUSH1 0x0 DUP1 REVERT JUMPDEST PUSH2 0x6F PUSH2 0xA3 JUMP JUMPDEST STOP JUMPDEST PUSH2 0x79 PUSH2 0xDA JUMP JUMPDEST STOP JUMPDEST PUSH2 0x83 PUSH2 0x111 JUMP JUMPDEST STOP JUMPDEST PUSH2 0x8D PUSH2 0x148 JUMP JUMPDEST STOP JUMPDEST PUSH2 0x97 PUSH2 0x17F JUMP JUMPDEST STOP JUMPDEST PUSH2 0xA1 PUSH2 0x1B6 JUMP JUMPDEST STOP JUMPDEST PUSH32 0x41304FACD9323D75B11BCDD609CB38EFFFFDB05710F7CAF0E9B16C6D9D709F50 PUSH1 0x40 MLOAD PUSH2 0xD0 SWAP1 PUSH2 0x33F JUMP JUMPDEST PUSH1 0x40 MLOAD DUP1 SWAP2 SUB SWAP1 LOG1 JUMP JUMPDEST PUSH32 0x41304FACD9323D75B11BCDD609CB38EFFFFDB05710F7CAF0E9B16C6D9D709F50 PUSH1 0x40 MLOAD PUSH2 0x107 SWAP1 PUSH2 0x2FF JUMP JUMPDEST PUSH1 0x40 MLOAD DUP1 SWAP2 SUB SWAP1 LOG1 JUMP JUMPDEST PUSH32 0x41304FACD9323D75B11BCDD609CB38EFFFFDB05710F7CAF0E9B16C6D9D709F50 PUSH1 0x40 MLOAD PUSH2 0x13E SWAP1 PUSH2 0x2BF JUMP JUMPDEST PUSH1 0x40 MLOAD DUP1 SWAP2 SUB SWAP1 LOG1 JUMP JUMPDEST PUSH32 0x41304FACD9323D75B11BCDD609CB38EFFFFDB05710F7CAF0E9B16C6D9D709F50 PUSH1 0x40 MLOAD PUSH2 0x175 SWAP1 PUSH2 0x31F JUMP JUMPDEST PUSH1 0x40 MLOAD DUP1 SWAP2 SUB SWAP1 LOG1 JUMP JUMPDEST PUSH32 0x41304FACD9323D75B11BCDD609CB38EFFFFDB05710F7CAF0E9B16C6D9D709F50 PUSH1 0x40 MLOAD PUSH2 0x1AC SWAP1 PUSH2 0x2DF JUMP JUMPDEST PUSH1 0x40 MLOAD DUP1 SWAP2 SUB SWAP1 LOG1 JUMP JUMPDEST PUSH32 0x41304FACD9323D75B11BCDD609CB38EFFFFDB05710F7CAF0E9B16C6D9D709F50 PUSH1 0x40 MLOAD PUSH2 0x1E3 SWAP1 PUSH2 0x35F JUMP JUMPDEST PUSH1 0x40 MLOAD DUP1 SWAP2 SUB SWAP1 LOG1 JUMP JUMPDEST PUSH1 0x0 PUSH2 0x1FA PUSH1 0x9 DUP4 PUSH2 0x37F JUMP JUMPDEST SWAP2 POP PUSH2 0x205 DUP3 PUSH2 0x390 JUMP JUMPDEST PUSH1 0x20 DUP3 ADD SWAP1 POP SWAP2 SWAP1 POP JUMP JUMPDEST PUSH1 0x0 PUSH2 0x21D PUSH1 0x8 DUP4 PUSH2 0x37F JUMP JUMPDEST SWAP2 POP PUSH2 0x228 DUP3 PUSH2 0x3B9 JUMP JUMPDEST PUSH1 0x20 DUP3 ADD SWAP1 POP SWAP2 SWAP1 POP JUMP JUMPDEST PUSH1 0x0 PUSH2 0x240 PUSH1 0x15 DUP4 PUSH2 0x37F JUMP JUMPDEST SWAP2 POP PUSH2 0x24B DUP3 PUSH2 0x3E2 JUMP JUMPDEST PUSH1 0x20 DUP3 ADD SWAP1 POP SWAP2 SWAP1 POP JUMP JUMPDEST PUSH1 0x0 PUSH2 0x263 PUSH1 0xA DUP4 PUSH2 0x37F JUMP JUMPDEST SWAP2 POP PUSH2 0x26E DUP3 PUSH2 0x40B JUMP JUMPDEST PUSH1 0x20 DUP3 ADD SWAP1 POP SWAP2 SWAP1 POP JUMP JUMPDEST PUSH1 0x0 PUSH2 0x286 PUSH1 0x10 DUP4 PUSH2 0x37F JUMP JUMPDEST SWAP2 POP PUSH2 0x291 DUP3 PUSH2 0x434 JUMP JUMPDEST PUSH1 0x20 DUP3 ADD SWAP1 POP SWAP2 SWAP1 POP JUMP JUMPDEST PUSH1 0x0 PUSH2 0x2A9 PUSH1 0xB DUP4 PUSH2 0x37F JUMP JUMPDEST SWAP2 POP PUSH2 0x2B4 DUP3 PUSH2 0x45D JUMP JUMPDEST PUSH1 0x20 DUP3 ADD SWAP1 POP SWAP2 SWAP1 POP JUMP JUMPDEST PUSH1 0x0 PUSH1 0x20 DUP3 ADD SWAP1 POP DUP2 DUP2 SUB PUSH1 0x0 DUP4 ADD MSTORE PUSH2 0x2D8 DUP2 PUSH2 0x1ED JUMP JUMPDEST SWAP1 POP SWAP2 SWAP1 POP JUMP JUMPDEST PUSH1 0x0 PUSH1 0x20 DUP3 ADD SWAP1 POP DUP2 DUP2 SUB PUSH1 0x0 DUP4 ADD MSTORE PUSH2 0x2F8 DUP2 PUSH2 0x210 JUMP JUMPDEST SWAP1 POP SWAP2 SWAP1 POP JUMP JUMPDEST PUSH1 0x0 PUSH1 0x20 DUP3 ADD SWAP1 POP DUP2 DUP2 SUB PUSH1 0x0 DUP4 ADD MSTORE PUSH2 0x318 DUP2 PUSH2 0x233 JUMP JUMPDEST SWAP1 POP SWAP2 SWAP1 POP JUMP JUMPDEST PUSH1 0x0 PUSH1 0x20 DUP3 ADD SWAP1 POP DUP2 DUP2 SUB PUSH1 0x0 DUP4 ADD MSTORE PUSH2 0x338 DUP2 PUSH2 0x256 JUMP JUMPDEST SWAP1 POP SWAP2 SWAP1 POP JUMP JUMPDEST PUSH1 0x0 PUSH1 0x20 DUP3 ADD SWAP1 POP DUP2 DUP2 SUB PUSH1 0x0 DUP4 ADD MSTORE PUSH2 0x358 DUP2 PUSH2 0x279 JUMP JUMPDEST SWAP1 POP SWAP2 SWAP1 POP JUMP JUMPDEST PUSH1 0x0 PUSH1 0x20 DUP3 ADD SWAP1 POP DUP2 DUP2 SUB PUSH1 0x0 DUP4 ADD MSTORE PUSH2 0x378 DUP2 PUSH2 0x29C JUMP JUMPDEST SWAP1 POP SWAP2 SWAP1 POP JUMP JUMPDEST PUSH1 0x0 DUP3 DUP3 MSTORE PUSH1 0x20 DUP3 ADD SWAP1 POP SWAP3 SWAP2 POP POP JUMP JUMPDEST PUSH32 0x79657965206A756D700000000000000000000000000000000000000000000000 PUSH1 0x0 DUP3 ADD MSTORE POP JUMP JUMPDEST PUSH32 0x796579652072756E000000000000000000000000000000000000000000000000 PUSH1 0x0 DUP3 ADD MSTORE POP JUMP JUMPDEST PUSH32 0x79657965206E616D65206D6163626F6F6B2070726F0000000000000000000000 PUSH1 0x0 DUP3 ADD MSTORE POP JUMP JUMPDEST PUSH32 0x6661746865722072756E00000000000000000000000000000000000000000000 PUSH1 0x0 DUP3 ADD MSTORE POP JUMP JUMPDEST PUSH32 0x666174686572206E616D65206A6F627300000000000000000000000000000000 PUSH1 0x0 DUP3 ADD MSTORE POP JUMP JUMPDEST PUSH32 0x666174686572206A756D70000000000000000000000000000000000000000000 PUSH1 0x0 DUP3 ADD MSTORE POP JUMP INVALID LOG2 PUSH5 0x6970667358 0x22 SLT KECCAK256 0x1F 0xDF 0xC8 DUP15 SHR 0xD6 PUSH8 0xC97AE60A0A653E38 0x5D DUP15 0xB5 XOR ADD 0xBC PUSH14 0x15C8834754B9202323E264736F6C PUSH4 0x43000807 STOP CALLER "
				},
				"gasEstimates": {
					"creation": {
						"codeDepositCost": "242400",
						"executionCost": "281",
						"totalCost": "242681"
					},
					"external": {
						"jump()": "1968",
						"jumpF()": "2034",
						"logName()": "1946",
						"logNameF()": "1924",
						"run()": "2012",
						"runF()": "1990"
					}
				},
				"methodIdentifiers": {
					"jump()": "8f6c696b",
					"jumpF()": "dccda98a",
					"logName()": "82bbb2a9",
					"logNameF()": "268901aa",
					"run()": "c0406226",
					"runF()": "9b4f5e44"
				}
			},
			"storageLayout": {
				"storage": [],
				"types": null
			},
			"userdoc": {
				"kind": "user",
				"methods": {},
				"version": 1
			}
		}
	}
}