{
	"contracts/feidian.sol": {
		"Feidian": {
			"abi": [
				{
					"anonymous": false,
					"inputs": [
						{
							"indexed": false,
							"internalType": "uint256",
							"name": "amount",
							"type": "uint256"
						},
						{
							"indexed": false,
							"internalType": "uint256",
							"name": "gas",
							"type": "uint256"
						}
					],
					"name": "LogInEvent",
					"type": "event"
				},
				{
					"inputs": [],
					"name": "getBalance",
					"outputs": [
						{
							"internalType": "uint256",
							"name": "",
							"type": "uint256"
						}
					],
					"stateMutability": "view",
					"type": "function"
				},
				{
					"inputs": [],
					"name": "getX",
					"outputs": [
						{
							"internalType": "uint256",
							"name": "x",
							"type": "uint256"
						}
					],
					"stateMutability": "view",
					"type": "function"
				},
				{
					"inputs": [
						{
							"internalType": "uint256",
							"name": "x",
							"type": "uint256"
						}
					],
					"name": "setX",
					"outputs": [],
					"stateMutability": "payable",
					"type": "function"
				}
			],
			"devdoc": {
				"kind": "dev",
				"methods": {},
				"version": 1
			},
			"evm": {
				"assembly": "    /* \"contracts/feidian.sol\":70:583  contract Feidian {... */\n  mstore(0x40, 0x80)\n    /* \"contracts/feidian.sol\":114:115  0 */\n  0x00\n    /* \"contracts/feidian.sol\":93:115  uint256 private _x = 0 */\n  dup1\n  sstore\n    /* \"contracts/feidian.sol\":70:583  contract Feidian {... */\n  callvalue\n  dup1\n  iszero\n  tag_1\n  jumpi\n  0x00\n  dup1\n  revert\ntag_1:\n  pop\n  dataSize(sub_0)\n  dup1\n  dataOffset(sub_0)\n  0x00\n  codecopy\n  0x00\n  return\nstop\n\nsub_0: assembly {\n        /* \"contracts/feidian.sol\":70:583  contract Feidian {... */\n      mstore(0x40, 0x80)\n      jumpi(tag_1, lt(calldatasize, 0x04))\n      shr(0xe0, calldataload(0x00))\n      dup1\n      0x12065fe0\n      eq\n      tag_2\n      jumpi\n      dup1\n      0x4018d9aa\n      eq\n      tag_3\n      jumpi\n      dup1\n      0x5197c7aa\n      eq\n      tag_4\n      jumpi\n    tag_1:\n      0x00\n      dup1\n      revert\n        /* \"contracts/feidian.sol\":207:304  function getBalance() public view returns (uint256) {... */\n    tag_2:\n      callvalue\n      dup1\n      iszero\n      tag_5\n      jumpi\n      0x00\n      dup1\n      revert\n    tag_5:\n      pop\n      tag_6\n      tag_7\n      jump\t// in\n    tag_6:\n      mload(0x40)\n      tag_8\n      swap2\n      swap1\n      tag_9\n      jump\t// in\n    tag_8:\n      mload(0x40)\n      dup1\n      swap2\n      sub\n      swap1\n      return\n        /* \"contracts/feidian.sol\":310:465  function setX(uint256 x) external payable {... */\n    tag_3:\n      tag_10\n      0x04\n      dup1\n      calldatasize\n      sub\n      dup2\n      add\n      swap1\n      tag_11\n      swap2\n      swap1\n      tag_12\n      jump\t// in\n    tag_11:\n      tag_13\n      jump\t// in\n    tag_10:\n      stop\n        /* \"contracts/feidian.sol\":508:581  function getX() external view returns (uint256 x) {... */\n    tag_4:\n      callvalue\n      dup1\n      iszero\n      tag_14\n      jumpi\n      0x00\n      dup1\n      revert\n    tag_14:\n      pop\n      tag_15\n      tag_16\n      jump\t// in\n    tag_15:\n      mload(0x40)\n      tag_17\n      swap2\n      swap1\n      tag_9\n      jump\t// in\n    tag_17:\n      mload(0x40)\n      dup1\n      swap2\n      sub\n      swap1\n      return\n        /* \"contracts/feidian.sol\":207:304  function getBalance() public view returns (uint256) {... */\n    tag_7:\n        /* \"contracts/feidian.sol\":250:257  uint256 */\n      0x00\n        /* \"contracts/feidian.sol\":276:297  address(this).balance */\n      selfbalance\n        /* \"contracts/feidian.sol\":269:297  return address(this).balance */\n      swap1\n      pop\n        /* \"contracts/feidian.sol\":207:304  function getBalance() public view returns (uint256) {... */\n      swap1\n      jump\t// out\n        /* \"contracts/feidian.sol\":310:465  function setX(uint256 x) external payable {... */\n    tag_13:\n        /* \"contracts/feidian.sol\":367:368  x */\n      dup1\n        /* \"contracts/feidian.sol\":362:364  _x */\n      0x00\n        /* \"contracts/feidian.sol\":362:368  _x = x */\n      dup2\n      swap1\n      sstore\n      pop\n        /* \"contracts/feidian.sol\":394:395  0 */\n      0x00\n        /* \"contracts/feidian.sol\":382:391  msg.value */\n      callvalue\n        /* \"contracts/feidian.sol\":382:395  msg.value > 0 */\n      gt\n        /* \"contracts/feidian.sol\":378:459  if (msg.value > 0) {... */\n      iszero\n      tag_20\n      jumpi\n        /* \"contracts/feidian.sol\":416:448  LogInEvent(msg.value, gasleft()) */\n      0x446ac8acf302d0a79908137d55c17c83579ede636aa9dc13ace71ab1e8b06db7\n        /* \"contracts/feidian.sol\":427:436  msg.value */\n      callvalue\n        /* \"contracts/feidian.sol\":438:447  gasleft() */\n      gas\n        /* \"contracts/feidian.sol\":416:448  LogInEvent(msg.value, gasleft()) */\n      mload(0x40)\n      tag_21\n      swap3\n      swap2\n      swap1\n      tag_22\n      jump\t// in\n    tag_21:\n      mload(0x40)\n      dup1\n      swap2\n      sub\n      swap1\n      log1\n        /* \"contracts/feidian.sol\":378:459  if (msg.value > 0) {... */\n    tag_20:\n        /* \"contracts/feidian.sol\":310:465  function setX(uint256 x) external payable {... */\n      pop\n      jump\t// out\n        /* \"contracts/feidian.sol\":508:581  function getX() external view returns (uint256 x) {... */\n    tag_16:\n        /* \"contracts/feidian.sol\":547:556  uint256 x */\n      0x00\n        /* \"contracts/feidian.sol\":572:574  _x */\n      dup1\n      sload\n        /* \"contracts/feidian.sol\":568:574  x = _x */\n      swap1\n      pop\n        /* \"contracts/feidian.sol\":508:581  function getX() external view returns (uint256 x) {... */\n      swap1\n      jump\t// out\n        /* \"#utility.yul\":7:146   */\n    tag_25:\n        /* \"#utility.yul\":53:58   */\n      0x00\n        /* \"#utility.yul\":91:97   */\n      dup2\n        /* \"#utility.yul\":78:98   */\n      calldataload\n        /* \"#utility.yul\":69:98   */\n      swap1\n      pop\n        /* \"#utility.yul\":107:140   */\n      tag_27\n        /* \"#utility.yul\":134:139   */\n      dup2\n        /* \"#utility.yul\":107:140   */\n      tag_28\n      jump\t// in\n    tag_27:\n        /* \"#utility.yul\":7:146   */\n      swap3\n      swap2\n      pop\n      pop\n      jump\t// out\n        /* \"#utility.yul\":152:481   */\n    tag_12:\n        /* \"#utility.yul\":211:217   */\n      0x00\n        /* \"#utility.yul\":260:262   */\n      0x20\n        /* \"#utility.yul\":248:257   */\n      dup3\n        /* \"#utility.yul\":239:246   */\n      dup5\n        /* \"#utility.yul\":235:258   */\n      sub\n        /* \"#utility.yul\":231:263   */\n      slt\n        /* \"#utility.yul\":228:347   */\n      iszero\n      tag_30\n      jumpi\n        /* \"#utility.yul\":266:345   */\n      tag_31\n      tag_32\n      jump\t// in\n    tag_31:\n        /* \"#utility.yul\":228:347   */\n    tag_30:\n        /* \"#utility.yul\":386:387   */\n      0x00\n        /* \"#utility.yul\":411:464   */\n      tag_33\n        /* \"#utility.yul\":456:463   */\n      dup5\n        /* \"#utility.yul\":447:453   */\n      dup3\n        /* \"#utility.yul\":436:445   */\n      dup6\n        /* \"#utility.yul\":432:454   */\n      add\n        /* \"#utility.yul\":411:464   */\n      tag_25\n      jump\t// in\n    tag_33:\n        /* \"#utility.yul\":401:464   */\n      swap2\n      pop\n        /* \"#utility.yul\":357:474   */\n      pop\n        /* \"#utility.yul\":152:481   */\n      swap3\n      swap2\n      pop\n      pop\n      jump\t// out\n        /* \"#utility.yul\":487:605   */\n    tag_34:\n        /* \"#utility.yul\":574:598   */\n      tag_36\n        /* \"#utility.yul\":592:597   */\n      dup2\n        /* \"#utility.yul\":574:598   */\n      tag_37\n      jump\t// in\n    tag_36:\n        /* \"#utility.yul\":569:572   */\n      dup3\n        /* \"#utility.yul\":562:599   */\n      mstore\n        /* \"#utility.yul\":487:605   */\n      pop\n      pop\n      jump\t// out\n        /* \"#utility.yul\":611:833   */\n    tag_9:\n        /* \"#utility.yul\":704:708   */\n      0x00\n        /* \"#utility.yul\":742:744   */\n      0x20\n        /* \"#utility.yul\":731:740   */\n      dup3\n        /* \"#utility.yul\":727:745   */\n      add\n        /* \"#utility.yul\":719:745   */\n      swap1\n      pop\n        /* \"#utility.yul\":755:826   */\n      tag_39\n        /* \"#utility.yul\":823:824   */\n      0x00\n        /* \"#utility.yul\":812:821   */\n      dup4\n        /* \"#utility.yul\":808:825   */\n      add\n        /* \"#utility.yul\":799:805   */\n      dup5\n        /* \"#utility.yul\":755:826   */\n      tag_34\n      jump\t// in\n    tag_39:\n        /* \"#utility.yul\":611:833   */\n      swap3\n      swap2\n      pop\n      pop\n      jump\t// out\n        /* \"#utility.yul\":839:1171   */\n    tag_22:\n        /* \"#utility.yul\":960:964   */\n      0x00\n        /* \"#utility.yul\":998:1000   */\n      0x40\n        /* \"#utility.yul\":987:996   */\n      dup3\n        /* \"#utility.yul\":983:1001   */\n      add\n        /* \"#utility.yul\":975:1001   */\n      swap1\n      pop\n        /* \"#utility.yul\":1011:1082   */\n      tag_41\n        /* \"#utility.yul\":1079:1080   */\n      0x00\n        /* \"#utility.yul\":1068:1077   */\n      dup4\n        /* \"#utility.yul\":1064:1081   */\n      add\n        /* \"#utility.yul\":1055:1061   */\n      dup6\n        /* \"#utility.yul\":1011:1082   */\n      tag_34\n      jump\t// in\n    tag_41:\n        /* \"#utility.yul\":1092:1164   */\n      tag_42\n        /* \"#utility.yul\":1160:1162   */\n      0x20\n        /* \"#utility.yul\":1149:1158   */\n      dup4\n        /* \"#utility.yul\":1145:1163   */\n      add\n        /* \"#utility.yul\":1136:1142   */\n      dup5\n        /* \"#utility.yul\":1092:1164   */\n      tag_34\n      jump\t// in\n    tag_42:\n        /* \"#utility.yul\":839:1171   */\n      swap4\n      swap3\n      pop\n      pop\n      pop\n      jump\t// out\n        /* \"#utility.yul\":1258:1335   */\n    tag_37:\n        /* \"#utility.yul\":1295:1302   */\n      0x00\n        /* \"#utility.yul\":1324:1329   */\n      dup2\n        /* \"#utility.yul\":1313:1329   */\n      swap1\n      pop\n        /* \"#utility.yul\":1258:1335   */\n      swap2\n      swap1\n      pop\n      jump\t// out\n        /* \"#utility.yul\":1464:1581   */\n    tag_32:\n        /* \"#utility.yul\":1573:1574   */\n      0x00\n        /* \"#utility.yul\":1570:1571   */\n      dup1\n        /* \"#utility.yul\":1563:1575   */\n      revert\n        /* \"#utility.yul\":1587:1709   */\n    tag_28:\n        /* \"#utility.yul\":1660:1684   */\n      tag_50\n        /* \"#utility.yul\":1678:1683   */\n      dup2\n        /* \"#utility.yul\":1660:1684   */\n      tag_37\n      jump\t// in\n    tag_50:\n        /* \"#utility.yul\":1653:1658   */\n      dup2\n        /* \"#utility.yul\":1650:1685   */\n      eq\n        /* \"#utility.yul\":1640:1703   */\n      tag_51\n      jumpi\n        /* \"#utility.yul\":1699:1700   */\n      0x00\n        /* \"#utility.yul\":1696:1697   */\n      dup1\n        /* \"#utility.yul\":1689:1701   */\n      revert\n        /* \"#utility.yul\":1640:1703   */\n    tag_51:\n        /* \"#utility.yul\":1587:1709   */\n      pop\n      jump\t// out\n\n    auxdata: 0xa264697066735822122050dc5f3788f373df8f66d8c170121628e186af5c10fb1adcf7f903d063e8f83264736f6c63430008070033\n}\n",
				"bytecode": {
					"linkReferences": {},
					"object": "60806040526000805534801561001457600080fd5b506101fa806100246000396000f3fe6080604052600436106100345760003560e01c806312065fe0146100395780634018d9aa146100645780635197c7aa14610080575b600080fd5b34801561004557600080fd5b5061004e6100ab565b60405161005b919061015a565b60405180910390f35b61007e6004803603810190610079919061011e565b6100b3565b005b34801561008c57600080fd5b50610095610100565b6040516100a2919061015a565b60405180910390f35b600047905090565b8060008190555060003411156100fd577f446ac8acf302d0a79908137d55c17c83579ede636aa9dc13ace71ab1e8b06db7345a6040516100f4929190610175565b60405180910390a15b50565b60008054905090565b600081359050610118816101ad565b92915050565b600060208284031215610134576101336101a8565b5b600061014284828501610109565b91505092915050565b6101548161019e565b82525050565b600060208201905061016f600083018461014b565b92915050565b600060408201905061018a600083018561014b565b610197602083018461014b565b9392505050565b6000819050919050565b600080fd5b6101b68161019e565b81146101c157600080fd5b5056fea264697066735822122050dc5f3788f373df8f66d8c170121628e186af5c10fb1adcf7f903d063e8f83264736f6c63430008070033",
					"opcodes": "PUSH1 0x80 PUSH1 0x40 MSTORE PUSH1 0x0 DUP1 SSTORE CALLVALUE DUP1 ISZERO PUSH2 0x14 JUMPI PUSH1 0x0 DUP1 REVERT JUMPDEST POP PUSH2 0x1FA DUP1 PUSH2 0x24 PUSH1 0x0 CODECOPY PUSH1 0x0 RETURN INVALID PUSH1 0x80 PUSH1 0x40 MSTORE PUSH1 0x4 CALLDATASIZE LT PUSH2 0x34 JUMPI PUSH1 0x0 CALLDATALOAD PUSH1 0xE0 SHR DUP1 PUSH4 0x12065FE0 EQ PUSH2 0x39 JUMPI DUP1 PUSH4 0x4018D9AA EQ PUSH2 0x64 JUMPI DUP1 PUSH4 0x5197C7AA EQ PUSH2 0x80 JUMPI JUMPDEST PUSH1 0x0 DUP1 REVERT JUMPDEST CALLVALUE DUP1 ISZERO PUSH2 0x45 JUMPI PUSH1 0x0 DUP1 REVERT JUMPDEST POP PUSH2 0x4E PUSH2 0xAB JUMP JUMPDEST PUSH1 0x40 MLOAD PUSH2 0x5B SWAP2 SWAP1 PUSH2 0x15A JUMP JUMPDEST PUSH1 0x40 MLOAD DUP1 SWAP2 SUB SWAP1 RETURN JUMPDEST PUSH2 0x7E PUSH1 0x4 DUP1 CALLDATASIZE SUB DUP2 ADD SWAP1 PUSH2 0x79 SWAP2 SWAP1 PUSH2 0x11E JUMP JUMPDEST PUSH2 0xB3 JUMP JUMPDEST STOP JUMPDEST CALLVALUE DUP1 ISZERO PUSH2 0x8C JUMPI PUSH1 0x0 DUP1 REVERT JUMPDEST POP PUSH2 0x95 PUSH2 0x100 JUMP JUMPDEST PUSH1 0x40 MLOAD PUSH2 0xA2 SWAP2 SWAP1 PUSH2 0x15A JUMP JUMPDEST PUSH1 0x40 MLOAD DUP1 SWAP2 SUB SWAP1 RETURN JUMPDEST PUSH1 0x0 SELFBALANCE SWAP1 POP SWAP1 JUMP JUMPDEST DUP1 PUSH1 0x0 DUP2 SWAP1 SSTORE POP PUSH1 0x0 CALLVALUE GT ISZERO PUSH2 0xFD JUMPI PUSH32 0x446AC8ACF302D0A79908137D55C17C83579EDE636AA9DC13ACE71AB1E8B06DB7 CALLVALUE GAS PUSH1 0x40 MLOAD PUSH2 0xF4 SWAP3 SWAP2 SWAP1 PUSH2 0x175 JUMP JUMPDEST PUSH1 0x40 MLOAD DUP1 SWAP2 SUB SWAP1 LOG1 JUMPDEST POP JUMP JUMPDEST PUSH1 0x0 DUP1 SLOAD SWAP1 POP SWAP1 JUMP JUMPDEST PUSH1 0x0 DUP2 CALLDATALOAD SWAP1 POP PUSH2 0x118 DUP2 PUSH2 0x1AD JUMP JUMPDEST SWAP3 SWAP2 POP POP JUMP JUMPDEST PUSH1 0x0 PUSH1 0x20 DUP3 DUP5 SUB SLT ISZERO PUSH2 0x134 JUMPI PUSH2 0x133 PUSH2 0x1A8 JUMP JUMPDEST JUMPDEST PUSH1 0x0 PUSH2 0x142 DUP5 DUP3 DUP6 ADD PUSH2 0x109 JUMP JUMPDEST SWAP2 POP POP SWAP3 SWAP2 POP POP JUMP JUMPDEST PUSH2 0x154 DUP2 PUSH2 0x19E JUMP JUMPDEST DUP3 MSTORE POP POP JUMP JUMPDEST PUSH1 0x0 PUSH1 0x20 DUP3 ADD SWAP1 POP PUSH2 0x16F PUSH1 0x0 DUP4 ADD DUP5 PUSH2 0x14B JUMP JUMPDEST SWAP3 SWAP2 POP POP JUMP JUMPDEST PUSH1 0x0 PUSH1 0x40 DUP3 ADD SWAP1 POP PUSH2 0x18A PUSH1 0x0 DUP4 ADD DUP6 PUSH2 0x14B JUMP JUMPDEST PUSH2 0x197 PUSH1 0x20 DUP4 ADD DUP5 PUSH2 0x14B JUMP JUMPDEST SWAP4 SWAP3 POP POP POP JUMP JUMPDEST PUSH1 0x0 DUP2 SWAP1 POP SWAP2 SWAP1 POP JUMP JUMPDEST PUSH1 0x0 DUP1 REVERT JUMPDEST PUSH2 0x1B6 DUP2 PUSH2 0x19E JUMP JUMPDEST DUP2 EQ PUSH2 0x1C1 JUMPI PUSH1 0x0 DUP1 REVERT JUMPDEST POP JUMP INVALID LOG2 PUSH5 0x6970667358 0x22 SLT KECCAK256 POP 0xDC 0x5F CALLDATACOPY DUP9 RETURN PUSH20 0xDF8F66D8C170121628E186AF5C10FB1ADCF7F903 0xD0 PUSH4 0xE8F83264 PUSH20 0x6F6C634300080700330000000000000000000000 "
				},
				"gasEstimates": {
					"creation": {
						"codeDepositCost": "101200",
						"executionCost": "5153",
						"totalCost": "106353"
					},
					"external": {
						"getBalance()": "317",
						"getX()": "2459",
						"setX(uint256)": "infinite"
					}
				},
				"methodIdentifiers": {
					"getBalance()": "12065fe0",
					"getX()": "5197c7aa",
					"setX(uint256)": "4018d9aa"
				}
			},
			"storageLayout": {
				"storage": [
					{
						"astId": 4,
						"contract": "contracts/feidian.sol:Feidian",
						"label": "_x",
						"offset": 0,
						"slot": "0",
						"type": "t_uint256"
					}
				],
				"types": {
					"t_uint256": {
						"encoding": "inplace",
						"label": "uint256",
						"numberOfBytes": "32"
					}
				}
			},
			"userdoc": {
				"kind": "user",
				"methods": {},
				"version": 1
			}
		}
	}
}