{
	"contracts/pairFactor.sol": {
		"PairFactor": {
			"abi": [
				{
					"inputs": [
						{
							"internalType": "address",
							"name": "_tokenA",
							"type": "address"
						},
						{
							"internalType": "address",
							"name": "token_B",
							"type": "address"
						}
					],
					"name": "createPair",
					"outputs": [
						{
							"internalType": "address",
							"name": "pairAddr",
							"type": "address"
						}
					],
					"stateMutability": "nonpayable",
					"type": "function"
				},
				{
					"inputs": [
						{
							"internalType": "address",
							"name": "",
							"type": "address"
						},
						{
							"internalType": "address",
							"name": "",
							"type": "address"
						}
					],
					"name": "getPair",
					"outputs": [
						{
							"internalType": "address",
							"name": "",
							"type": "address"
						}
					],
					"stateMutability": "view",
					"type": "function"
				}
			],
			"devdoc": {
				"kind": "dev",
				"methods": {},
				"version": 1
			},
			"evm": {
				"assembly": "    /* \"contracts/pairFactor.sol\":121:881  contract PairFactor {... */\n  mstore(0x40, 0x80)\n  callvalue\n  dup1\n  iszero\n  tag_1\n  jumpi\n  0x00\n  dup1\n  revert\ntag_1:\n  pop\n  dataSize(sub_0)\n  dup1\n  dataOffset(sub_0)\n  0x00\n  codecopy\n  0x00\n  return\nstop\n\nsub_0: assembly {\n        /* \"contracts/pairFactor.sol\":121:881  contract PairFactor {... */\n      mstore(0x40, 0x80)\n      callvalue\n      dup1\n      iszero\n      tag_1\n      jumpi\n      0x00\n      dup1\n      revert\n    tag_1:\n      pop\n      jumpi(tag_2, lt(calldatasize, 0x04))\n      shr(0xe0, calldataload(0x00))\n      dup1\n      0xc9c65396\n      eq\n      tag_3\n      jumpi\n      dup1\n      0xe6a43905\n      eq\n      tag_4\n      jumpi\n    tag_2:\n      0x00\n      dup1\n      revert\n        /* \"contracts/pairFactor.sol\":359:879  function createPair(address _tokenA, address token_B)... */\n    tag_3:\n      tag_5\n      0x04\n      dup1\n      calldatasize\n      sub\n      dup2\n      add\n      swap1\n      tag_6\n      swap2\n      swap1\n      tag_7\n      jump\t// in\n    tag_6:\n      tag_8\n      jump\t// in\n    tag_5:\n      mload(0x40)\n      tag_9\n      swap2\n      swap1\n      tag_10\n      jump\t// in\n    tag_9:\n      mload(0x40)\n      dup1\n      swap2\n      sub\n      swap1\n      return\n        /* \"contracts/pairFactor.sol\":188:250  mapping(address => mapping(address => address)) public getPair */\n    tag_4:\n      tag_11\n      0x04\n      dup1\n      calldatasize\n      sub\n      dup2\n      add\n      swap1\n      tag_12\n      swap2\n      swap1\n      tag_7\n      jump\t// in\n    tag_12:\n      tag_13\n      jump\t// in\n    tag_11:\n      mload(0x40)\n      tag_14\n      swap2\n      swap1\n      tag_10\n      jump\t// in\n    tag_14:\n      mload(0x40)\n      dup1\n      swap2\n      sub\n      swap1\n      return\n        /* \"contracts/pairFactor.sol\":359:879  function createPair(address _tokenA, address token_B)... */\n    tag_8:\n        /* \"contracts/pairFactor.sol\":447:463  address pairAddr */\n      0x00\n        /* \"contracts/pairFactor.sol\":505:517  PairCon pair */\n      dup1\n        /* \"contracts/pairFactor.sol\":520:533  new PairCon() */\n      mload(0x40)\n      tag_16\n      swap1\n      tag_17\n      jump\t// in\n    tag_16:\n      mload(0x40)\n      dup1\n      swap2\n      sub\n      swap1\n      0x00\n      create\n      dup1\n      iszero\n      dup1\n      iszero\n      tag_18\n      jumpi\n      returndatasize\n      0x00\n      dup1\n      returndatacopy\n      revert(0x00, returndatasize)\n    tag_18:\n      pop\n        /* \"contracts/pairFactor.sol\":505:533  PairCon pair = new PairCon() */\n      swap1\n      pop\n        /* \"contracts/pairFactor.sol\":575:579  pair */\n      dup1\n        /* \"contracts/pairFactor.sol\":575:584  pair.init */\n      0xffffffffffffffffffffffffffffffffffffffff\n      and\n      0xf09a4016\n        /* \"contracts/pairFactor.sol\":585:592  _tokenA */\n      dup6\n        /* \"contracts/pairFactor.sol\":594:601  token_B */\n      dup6\n        /* \"contracts/pairFactor.sol\":575:602  pair.init(_tokenA, token_B) */\n      mload(0x40)\n      dup4\n      0xffffffff\n      and\n      0xe0\n      shl\n      dup2\n      mstore\n      0x04\n      add\n      tag_19\n      swap3\n      swap2\n      swap1\n      tag_20\n      jump\t// in\n    tag_19:\n      0x00\n      mload(0x40)\n      dup1\n      dup4\n      sub\n      dup2\n      0x00\n      dup8\n      dup1\n      extcodesize\n      iszero\n      dup1\n      iszero\n      tag_21\n      jumpi\n      0x00\n      dup1\n      revert\n    tag_21:\n      pop\n      gas\n      call\n      iszero\n      dup1\n      iszero\n      tag_23\n      jumpi\n      returndatasize\n      0x00\n      dup1\n      returndatacopy\n      revert(0x00, returndatasize)\n    tag_23:\n      pop\n      pop\n      pop\n      pop\n        /* \"contracts/pairFactor.sol\":681:685  pair */\n      dup1\n        /* \"contracts/pairFactor.sol\":662:686  pairAddr = address(pair) */\n      swap2\n      pop\n        /* \"contracts/pairFactor.sol\":758:765  allPair */\n      0x01\n        /* \"contracts/pairFactor.sol\":771:779  pairAddr */\n      dup3\n        /* \"contracts/pairFactor.sol\":758:780  allPair.push(pairAddr) */\n      swap1\n      dup1\n      0x01\n      dup2\n      sload\n      add\n      dup1\n      dup3\n      sstore\n      dup1\n      swap2\n      pop\n      pop\n      0x01\n      swap1\n      sub\n      swap1\n      0x00\n      mstore\n      keccak256(0x00, 0x20)\n      add\n      0x00\n      swap1\n      swap2\n      swap1\n      swap2\n      swap1\n      swap2\n      0x0100\n      exp\n      dup2\n      sload\n      dup2\n      0xffffffffffffffffffffffffffffffffffffffff\n      mul\n      not\n      and\n      swap1\n      dup4\n      0xffffffffffffffffffffffffffffffffffffffff\n      and\n      mul\n      or\n      swap1\n      sstore\n      pop\n        /* \"contracts/pairFactor.sol\":818:826  pairAddr */\n      dup2\n        /* \"contracts/pairFactor.sol\":790:797  getPair */\n      0x00\n        /* \"contracts/pairFactor.sol\":790:806  getPair[_tokenA] */\n      dup1\n        /* \"contracts/pairFactor.sol\":798:805  _tokenA */\n      dup7\n        /* \"contracts/pairFactor.sol\":790:806  getPair[_tokenA] */\n      0xffffffffffffffffffffffffffffffffffffffff\n      and\n      0xffffffffffffffffffffffffffffffffffffffff\n      and\n      dup2\n      mstore\n      0x20\n      add\n      swap1\n      dup2\n      mstore\n      0x20\n      add\n      0x00\n      keccak256\n        /* \"contracts/pairFactor.sol\":790:815  getPair[_tokenA][token_B] */\n      0x00\n        /* \"contracts/pairFactor.sol\":807:814  token_B */\n      dup6\n        /* \"contracts/pairFactor.sol\":790:815  getPair[_tokenA][token_B] */\n      0xffffffffffffffffffffffffffffffffffffffff\n      and\n      0xffffffffffffffffffffffffffffffffffffffff\n      and\n      dup2\n      mstore\n      0x20\n      add\n      swap1\n      dup2\n      mstore\n      0x20\n      add\n      0x00\n      keccak256\n      0x00\n        /* \"contracts/pairFactor.sol\":790:826  getPair[_tokenA][token_B] = pairAddr */\n      0x0100\n      exp\n      dup2\n      sload\n      dup2\n      0xffffffffffffffffffffffffffffffffffffffff\n      mul\n      not\n      and\n      swap1\n      dup4\n      0xffffffffffffffffffffffffffffffffffffffff\n      and\n      mul\n      or\n      swap1\n      sstore\n      pop\n        /* \"contracts/pairFactor.sol\":864:872  pairAddr */\n      dup2\n        /* \"contracts/pairFactor.sol\":836:843  getPair */\n      0x00\n        /* \"contracts/pairFactor.sol\":836:852  getPair[_tokenA] */\n      dup1\n        /* \"contracts/pairFactor.sol\":844:851  _tokenA */\n      dup7\n        /* \"contracts/pairFactor.sol\":836:852  getPair[_tokenA] */\n      0xffffffffffffffffffffffffffffffffffffffff\n      and\n      0xffffffffffffffffffffffffffffffffffffffff\n      and\n      dup2\n      mstore\n      0x20\n      add\n      swap1\n      dup2\n      mstore\n      0x20\n      add\n      0x00\n      keccak256\n        /* \"contracts/pairFactor.sol\":836:861  getPair[_tokenA][token_B] */\n      0x00\n        /* \"contracts/pairFactor.sol\":853:860  token_B */\n      dup6\n        /* \"contracts/pairFactor.sol\":836:861  getPair[_tokenA][token_B] */\n      0xffffffffffffffffffffffffffffffffffffffff\n      and\n      0xffffffffffffffffffffffffffffffffffffffff\n      and\n      dup2\n      mstore\n      0x20\n      add\n      swap1\n      dup2\n      mstore\n      0x20\n      add\n      0x00\n      keccak256\n      0x00\n        /* \"contracts/pairFactor.sol\":836:872  getPair[_tokenA][token_B] = pairAddr */\n      0x0100\n      exp\n      dup2\n      sload\n      dup2\n      0xffffffffffffffffffffffffffffffffffffffff\n      mul\n      not\n      and\n      swap1\n      dup4\n      0xffffffffffffffffffffffffffffffffffffffff\n      and\n      mul\n      or\n      swap1\n      sstore\n      pop\n        /* \"contracts/pairFactor.sol\":469:879  {... */\n      pop\n        /* \"contracts/pairFactor.sol\":359:879  function createPair(address _tokenA, address token_B)... */\n      swap3\n      swap2\n      pop\n      pop\n      jump\t// out\n        /* \"contracts/pairFactor.sol\":188:250  mapping(address => mapping(address => address)) public getPair */\n    tag_13:\n      mstore(0x20, 0x00)\n      dup2\n      0x00\n      mstore\n      mstore(0x20, keccak256(0x00, 0x40))\n      dup1\n      0x00\n      mstore\n      keccak256(0x00, 0x40)\n      0x00\n      swap2\n      pop\n      swap2\n      pop\n      swap1\n      sload\n      swap1\n      0x0100\n      exp\n      swap1\n      div\n      0xffffffffffffffffffffffffffffffffffffffff\n      and\n      dup2\n      jump\t// out\n    tag_17:\n      dataSize(sub_0)\n      dup1\n      dataOffset(sub_0)\n      dup4\n      codecopy\n      add\n      swap1\n      jump\t// out\n        /* \"#utility.yul\":7:146   */\n    tag_26:\n        /* \"#utility.yul\":53:58   */\n      0x00\n        /* \"#utility.yul\":91:97   */\n      dup2\n        /* \"#utility.yul\":78:98   */\n      calldataload\n        /* \"#utility.yul\":69:98   */\n      swap1\n      pop\n        /* \"#utility.yul\":107:140   */\n      tag_28\n        /* \"#utility.yul\":134:139   */\n      dup2\n        /* \"#utility.yul\":107:140   */\n      tag_29\n      jump\t// in\n    tag_28:\n        /* \"#utility.yul\":7:146   */\n      swap3\n      swap2\n      pop\n      pop\n      jump\t// out\n        /* \"#utility.yul\":152:626   */\n    tag_7:\n        /* \"#utility.yul\":220:226   */\n      0x00\n        /* \"#utility.yul\":228:234   */\n      dup1\n        /* \"#utility.yul\":277:279   */\n      0x40\n        /* \"#utility.yul\":265:274   */\n      dup4\n        /* \"#utility.yul\":256:263   */\n      dup6\n        /* \"#utility.yul\":252:275   */\n      sub\n        /* \"#utility.yul\":248:280   */\n      slt\n        /* \"#utility.yul\":245:364   */\n      iszero\n      tag_31\n      jumpi\n        /* \"#utility.yul\":283:362   */\n      tag_32\n      tag_33\n      jump\t// in\n    tag_32:\n        /* \"#utility.yul\":245:364   */\n    tag_31:\n        /* \"#utility.yul\":403:404   */\n      0x00\n        /* \"#utility.yul\":428:481   */\n      tag_34\n        /* \"#utility.yul\":473:480   */\n      dup6\n        /* \"#utility.yul\":464:470   */\n      dup3\n        /* \"#utility.yul\":453:462   */\n      dup7\n        /* \"#utility.yul\":449:471   */\n      add\n        /* \"#utility.yul\":428:481   */\n      tag_26\n      jump\t// in\n    tag_34:\n        /* \"#utility.yul\":418:481   */\n      swap3\n      pop\n        /* \"#utility.yul\":374:491   */\n      pop\n        /* \"#utility.yul\":530:532   */\n      0x20\n        /* \"#utility.yul\":556:609   */\n      tag_35\n        /* \"#utility.yul\":601:608   */\n      dup6\n        /* \"#utility.yul\":592:598   */\n      dup3\n        /* \"#utility.yul\":581:590   */\n      dup7\n        /* \"#utility.yul\":577:599   */\n      add\n        /* \"#utility.yul\":556:609   */\n      tag_26\n      jump\t// in\n    tag_35:\n        /* \"#utility.yul\":546:609   */\n      swap2\n      pop\n        /* \"#utility.yul\":501:619   */\n      pop\n        /* \"#utility.yul\":152:626   */\n      swap3\n      pop\n      swap3\n      swap1\n      pop\n      jump\t// out\n        /* \"#utility.yul\":632:750   */\n    tag_36:\n        /* \"#utility.yul\":719:743   */\n      tag_38\n        /* \"#utility.yul\":737:742   */\n      dup2\n        /* \"#utility.yul\":719:743   */\n      tag_39\n      jump\t// in\n    tag_38:\n        /* \"#utility.yul\":714:717   */\n      dup3\n        /* \"#utility.yul\":707:744   */\n      mstore\n        /* \"#utility.yul\":632:750   */\n      pop\n      pop\n      jump\t// out\n        /* \"#utility.yul\":756:978   */\n    tag_10:\n        /* \"#utility.yul\":849:853   */\n      0x00\n        /* \"#utility.yul\":887:889   */\n      0x20\n        /* \"#utility.yul\":876:885   */\n      dup3\n        /* \"#utility.yul\":872:890   */\n      add\n        /* \"#utility.yul\":864:890   */\n      swap1\n      pop\n        /* \"#utility.yul\":900:971   */\n      tag_41\n        /* \"#utility.yul\":968:969   */\n      0x00\n        /* \"#utility.yul\":957:966   */\n      dup4\n        /* \"#utility.yul\":953:970   */\n      add\n        /* \"#utility.yul\":944:950   */\n      dup5\n        /* \"#utility.yul\":900:971   */\n      tag_36\n      jump\t// in\n    tag_41:\n        /* \"#utility.yul\":756:978   */\n      swap3\n      swap2\n      pop\n      pop\n      jump\t// out\n        /* \"#utility.yul\":984:1316   */\n    tag_20:\n        /* \"#utility.yul\":1105:1109   */\n      0x00\n        /* \"#utility.yul\":1143:1145   */\n      0x40\n        /* \"#utility.yul\":1132:1141   */\n      dup3\n        /* \"#utility.yul\":1128:1146   */\n      add\n        /* \"#utility.yul\":1120:1146   */\n      swap1\n      pop\n        /* \"#utility.yul\":1156:1227   */\n      tag_43\n        /* \"#utility.yul\":1224:1225   */\n      0x00\n        /* \"#utility.yul\":1213:1222   */\n      dup4\n        /* \"#utility.yul\":1209:1226   */\n      add\n        /* \"#utility.yul\":1200:1206   */\n      dup6\n        /* \"#utility.yul\":1156:1227   */\n      tag_36\n      jump\t// in\n    tag_43:\n        /* \"#utility.yul\":1237:1309   */\n      tag_44\n        /* \"#utility.yul\":1305:1307   */\n      0x20\n        /* \"#utility.yul\":1294:1303   */\n      dup4\n        /* \"#utility.yul\":1290:1308   */\n      add\n        /* \"#utility.yul\":1281:1287   */\n      dup5\n        /* \"#utility.yul\":1237:1309   */\n      tag_36\n      jump\t// in\n    tag_44:\n        /* \"#utility.yul\":984:1316   */\n      swap4\n      swap3\n      pop\n      pop\n      pop\n      jump\t// out\n        /* \"#utility.yul\":1403:1499   */\n    tag_39:\n        /* \"#utility.yul\":1440:1447   */\n      0x00\n        /* \"#utility.yul\":1469:1493   */\n      tag_48\n        /* \"#utility.yul\":1487:1492   */\n      dup3\n        /* \"#utility.yul\":1469:1493   */\n      tag_49\n      jump\t// in\n    tag_48:\n        /* \"#utility.yul\":1458:1493   */\n      swap1\n      pop\n        /* \"#utility.yul\":1403:1499   */\n      swap2\n      swap1\n      pop\n      jump\t// out\n        /* \"#utility.yul\":1505:1631   */\n    tag_49:\n        /* \"#utility.yul\":1542:1549   */\n      0x00\n        /* \"#utility.yul\":1582:1624   */\n      0xffffffffffffffffffffffffffffffffffffffff\n        /* \"#utility.yul\":1575:1580   */\n      dup3\n        /* \"#utility.yul\":1571:1625   */\n      and\n        /* \"#utility.yul\":1560:1625   */\n      swap1\n      pop\n        /* \"#utility.yul\":1505:1631   */\n      swap2\n      swap1\n      pop\n      jump\t// out\n        /* \"#utility.yul\":1760:1877   */\n    tag_33:\n        /* \"#utility.yul\":1869:1870   */\n      0x00\n        /* \"#utility.yul\":1866:1867   */\n      dup1\n        /* \"#utility.yul\":1859:1871   */\n      revert\n        /* \"#utility.yul\":1883:2005   */\n    tag_29:\n        /* \"#utility.yul\":1956:1980   */\n      tag_55\n        /* \"#utility.yul\":1974:1979   */\n      dup2\n        /* \"#utility.yul\":1956:1980   */\n      tag_39\n      jump\t// in\n    tag_55:\n        /* \"#utility.yul\":1949:1954   */\n      dup2\n        /* \"#utility.yul\":1946:1981   */\n      eq\n        /* \"#utility.yul\":1936:1999   */\n      tag_56\n      jumpi\n        /* \"#utility.yul\":1995:1996   */\n      0x00\n        /* \"#utility.yul\":1992:1993   */\n      dup1\n        /* \"#utility.yul\":1985:1997   */\n      revert\n        /* \"#utility.yul\":1936:1999   */\n    tag_56:\n        /* \"#utility.yul\":1883:2005   */\n      pop\n      jump\t// out\n    stop\n\n    sub_0: assembly {\n            /* \"contracts/pairCon.sol\":70:406  contract PairCon {... */\n          mstore(0x40, 0x80)\n            /* \"contracts/pairCon.sol\":195:205  msg.sender */\n          caller\n            /* \"contracts/pairCon.sol\":186:192  factor */\n          0x00\n          dup1\n            /* \"contracts/pairCon.sol\":186:205  factor = msg.sender */\n          0x0100\n          exp\n          dup2\n          sload\n          dup2\n          0xffffffffffffffffffffffffffffffffffffffff\n          mul\n          not\n          and\n          swap1\n          dup4\n          0xffffffffffffffffffffffffffffffffffffffff\n          and\n          mul\n          or\n          swap1\n          sstore\n          pop\n            /* \"contracts/pairCon.sol\":70:406  contract PairCon {... */\n          dataSize(sub_0)\n          dup1\n          dataOffset(sub_0)\n          0x00\n          codecopy\n          0x00\n          return\n        stop\n\n        sub_0: assembly {\n                /* \"contracts/pairCon.sol\":70:406  contract PairCon {... */\n              mstore(0x40, 0x80)\n              callvalue\n              dup1\n              iszero\n              tag_1\n              jumpi\n              0x00\n              dup1\n              revert\n            tag_1:\n              pop\n              jumpi(tag_2, lt(calldatasize, 0x04))\n              shr(0xe0, calldataload(0x00))\n              dup1\n              0xf09a4016\n              eq\n              tag_3\n              jumpi\n            tag_2:\n              0x00\n              dup1\n              revert\n                /* \"contracts/pairCon.sol\":218:404  function init(address _token0, address _token1) external {... */\n            tag_3:\n              tag_4\n              0x04\n              dup1\n              calldatasize\n              sub\n              dup2\n              add\n              swap1\n              tag_5\n              swap2\n              swap1\n              tag_6\n              jump\t// in\n            tag_5:\n              tag_7\n              jump\t// in\n            tag_4:\n              stop\n            tag_7:\n                /* \"contracts/pairCon.sol\":307:313  factor */\n              0x00\n              dup1\n              sload\n              swap1\n              0x0100\n              exp\n              swap1\n              div\n              0xffffffffffffffffffffffffffffffffffffffff\n              and\n                /* \"contracts/pairCon.sol\":293:313  msg.sender == factor */\n              0xffffffffffffffffffffffffffffffffffffffff\n              and\n                /* \"contracts/pairCon.sol\":293:303  msg.sender */\n              caller\n                /* \"contracts/pairCon.sol\":293:313  msg.sender == factor */\n              0xffffffffffffffffffffffffffffffffffffffff\n              and\n              eq\n                /* \"contracts/pairCon.sol\":285:345  require(msg.sender == factor, \"error of msg.sender!=factor\") */\n              tag_9\n              jumpi\n              mload(0x40)\n              0x08c379a000000000000000000000000000000000000000000000000000000000\n              dup2\n              mstore\n              0x04\n              add\n              tag_10\n              swap1\n              tag_11\n              jump\t// in\n            tag_10:\n              mload(0x40)\n              dup1\n              swap2\n              sub\n              swap1\n              revert\n            tag_9:\n                /* \"contracts/pairCon.sol\":364:371  _token0 */\n              dup2\n                /* \"contracts/pairCon.sol\":355:361  token0 */\n              0x01\n              0x00\n                /* \"contracts/pairCon.sol\":355:371  token0 = _token0 */\n              0x0100\n              exp\n              dup2\n              sload\n              dup2\n              0xffffffffffffffffffffffffffffffffffffffff\n              mul\n              not\n              and\n              swap1\n              dup4\n              0xffffffffffffffffffffffffffffffffffffffff\n              and\n              mul\n              or\n              swap1\n              sstore\n              pop\n                /* \"contracts/pairCon.sol\":390:397  _token1 */\n              dup1\n                /* \"contracts/pairCon.sol\":381:387  token1 */\n              0x02\n              0x00\n                /* \"contracts/pairCon.sol\":381:397  token1 = _token1 */\n              0x0100\n              exp\n              dup2\n              sload\n              dup2\n              0xffffffffffffffffffffffffffffffffffffffff\n              mul\n              not\n              and\n              swap1\n              dup4\n              0xffffffffffffffffffffffffffffffffffffffff\n              and\n              mul\n              or\n              swap1\n              sstore\n              pop\n                /* \"contracts/pairCon.sol\":218:404  function init(address _token0, address _token1) external {... */\n              pop\n              pop\n              jump\t// out\n                /* \"#utility.yul\":7:146   */\n            tag_13:\n                /* \"#utility.yul\":53:58   */\n              0x00\n                /* \"#utility.yul\":91:97   */\n              dup2\n                /* \"#utility.yul\":78:98   */\n              calldataload\n                /* \"#utility.yul\":69:98   */\n              swap1\n              pop\n                /* \"#utility.yul\":107:140   */\n              tag_15\n                /* \"#utility.yul\":134:139   */\n              dup2\n                /* \"#utility.yul\":107:140   */\n              tag_16\n              jump\t// in\n            tag_15:\n                /* \"#utility.yul\":7:146   */\n              swap3\n              swap2\n              pop\n              pop\n              jump\t// out\n                /* \"#utility.yul\":152:626   */\n            tag_6:\n                /* \"#utility.yul\":220:226   */\n              0x00\n                /* \"#utility.yul\":228:234   */\n              dup1\n                /* \"#utility.yul\":277:279   */\n              0x40\n                /* \"#utility.yul\":265:274   */\n              dup4\n                /* \"#utility.yul\":256:263   */\n              dup6\n                /* \"#utility.yul\":252:275   */\n              sub\n                /* \"#utility.yul\":248:280   */\n              slt\n                /* \"#utility.yul\":245:364   */\n              iszero\n              tag_18\n              jumpi\n                /* \"#utility.yul\":283:362   */\n              tag_19\n              tag_20\n              jump\t// in\n            tag_19:\n                /* \"#utility.yul\":245:364   */\n            tag_18:\n                /* \"#utility.yul\":403:404   */\n              0x00\n                /* \"#utility.yul\":428:481   */\n              tag_21\n                /* \"#utility.yul\":473:480   */\n              dup6\n                /* \"#utility.yul\":464:470   */\n              dup3\n                /* \"#utility.yul\":453:462   */\n              dup7\n                /* \"#utility.yul\":449:471   */\n              add\n                /* \"#utility.yul\":428:481   */\n              tag_13\n              jump\t// in\n            tag_21:\n                /* \"#utility.yul\":418:481   */\n              swap3\n              pop\n                /* \"#utility.yul\":374:491   */\n              pop\n                /* \"#utility.yul\":530:532   */\n              0x20\n                /* \"#utility.yul\":556:609   */\n              tag_22\n                /* \"#utility.yul\":601:608   */\n              dup6\n                /* \"#utility.yul\":592:598   */\n              dup3\n                /* \"#utility.yul\":581:590   */\n              dup7\n                /* \"#utility.yul\":577:599   */\n              add\n                /* \"#utility.yul\":556:609   */\n              tag_13\n              jump\t// in\n            tag_22:\n                /* \"#utility.yul\":546:609   */\n              swap2\n              pop\n                /* \"#utility.yul\":501:619   */\n              pop\n                /* \"#utility.yul\":152:626   */\n              swap3\n              pop\n              swap3\n              swap1\n              pop\n              jump\t// out\n                /* \"#utility.yul\":632:998   */\n            tag_23:\n                /* \"#utility.yul\":774:777   */\n              0x00\n                /* \"#utility.yul\":795:862   */\n              tag_25\n                /* \"#utility.yul\":859:861   */\n              0x1b\n                /* \"#utility.yul\":854:857   */\n              dup4\n                /* \"#utility.yul\":795:862   */\n              tag_26\n              jump\t// in\n            tag_25:\n                /* \"#utility.yul\":788:862   */\n              swap2\n              pop\n                /* \"#utility.yul\":871:964   */\n              tag_27\n                /* \"#utility.yul\":960:963   */\n              dup3\n                /* \"#utility.yul\":871:964   */\n              tag_28\n              jump\t// in\n            tag_27:\n                /* \"#utility.yul\":989:991   */\n              0x20\n                /* \"#utility.yul\":984:987   */\n              dup3\n                /* \"#utility.yul\":980:992   */\n              add\n                /* \"#utility.yul\":973:992   */\n              swap1\n              pop\n                /* \"#utility.yul\":632:998   */\n              swap2\n              swap1\n              pop\n              jump\t// out\n                /* \"#utility.yul\":1004:1423   */\n            tag_11:\n                /* \"#utility.yul\":1170:1174   */\n              0x00\n                /* \"#utility.yul\":1208:1210   */\n              0x20\n                /* \"#utility.yul\":1197:1206   */\n              dup3\n                /* \"#utility.yul\":1193:1211   */\n              add\n                /* \"#utility.yul\":1185:1211   */\n              swap1\n              pop\n                /* \"#utility.yul\":1257:1266   */\n              dup2\n                /* \"#utility.yul\":1251:1255   */\n              dup2\n                /* \"#utility.yul\":1247:1267   */\n              sub\n                /* \"#utility.yul\":1243:1244   */\n              0x00\n                /* \"#utility.yul\":1232:1241   */\n              dup4\n                /* \"#utility.yul\":1228:1245   */\n              add\n                /* \"#utility.yul\":1221:1268   */\n              mstore\n                /* \"#utility.yul\":1285:1416   */\n              tag_30\n                /* \"#utility.yul\":1411:1415   */\n              dup2\n                /* \"#utility.yul\":1285:1416   */\n              tag_23\n              jump\t// in\n            tag_30:\n                /* \"#utility.yul\":1277:1416   */\n              swap1\n              pop\n                /* \"#utility.yul\":1004:1423   */\n              swap2\n              swap1\n              pop\n              jump\t// out\n                /* \"#utility.yul\":1510:1679   */\n            tag_26:\n                /* \"#utility.yul\":1594:1605   */\n              0x00\n                /* \"#utility.yul\":1628:1634   */\n              dup3\n                /* \"#utility.yul\":1623:1626   */\n              dup3\n                /* \"#utility.yul\":1616:1635   */\n              mstore\n                /* \"#utility.yul\":1668:1672   */\n              0x20\n                /* \"#utility.yul\":1663:1666   */\n              dup3\n                /* \"#utility.yul\":1659:1673   */\n              add\n                /* \"#utility.yul\":1644:1673   */\n              swap1\n              pop\n                /* \"#utility.yul\":1510:1679   */\n              swap3\n              swap2\n              pop\n              pop\n              jump\t// out\n                /* \"#utility.yul\":1685:1781   */\n            tag_34:\n                /* \"#utility.yul\":1722:1729   */\n              0x00\n                /* \"#utility.yul\":1751:1775   */\n              tag_36\n                /* \"#utility.yul\":1769:1774   */\n              dup3\n                /* \"#utility.yul\":1751:1775   */\n              tag_37\n              jump\t// in\n            tag_36:\n                /* \"#utility.yul\":1740:1775   */\n              swap1\n              pop\n                /* \"#utility.yul\":1685:1781   */\n              swap2\n              swap1\n              pop\n              jump\t// out\n                /* \"#utility.yul\":1787:1913   */\n            tag_37:\n                /* \"#utility.yul\":1824:1831   */\n              0x00\n                /* \"#utility.yul\":1864:1906   */\n              0xffffffffffffffffffffffffffffffffffffffff\n                /* \"#utility.yul\":1857:1862   */\n              dup3\n                /* \"#utility.yul\":1853:1907   */\n              and\n                /* \"#utility.yul\":1842:1907   */\n              swap1\n              pop\n                /* \"#utility.yul\":1787:1913   */\n              swap2\n              swap1\n              pop\n              jump\t// out\n                /* \"#utility.yul\":2042:2159   */\n            tag_20:\n                /* \"#utility.yul\":2151:2152   */\n              0x00\n                /* \"#utility.yul\":2148:2149   */\n              dup1\n                /* \"#utility.yul\":2141:2153   */\n              revert\n                /* \"#utility.yul\":2165:2342   */\n            tag_28:\n                /* \"#utility.yul\":2305:2334   */\n              0x6572726f72206f66206d73672e73656e646572213d666163746f720000000000\n                /* \"#utility.yul\":2301:2302   */\n              0x00\n                /* \"#utility.yul\":2293:2299   */\n              dup3\n                /* \"#utility.yul\":2289:2303   */\n              add\n                /* \"#utility.yul\":2282:2335   */\n              mstore\n                /* \"#utility.yul\":2165:2342   */\n              pop\n              jump\t// out\n                /* \"#utility.yul\":2348:2470   */\n            tag_16:\n                /* \"#utility.yul\":2421:2445   */\n              tag_44\n                /* \"#utility.yul\":2439:2444   */\n              dup2\n                /* \"#utility.yul\":2421:2445   */\n              tag_34\n              jump\t// in\n            tag_44:\n                /* \"#utility.yul\":2414:2419   */\n              dup2\n                /* \"#utility.yul\":2411:2446   */\n              eq\n                /* \"#utility.yul\":2401:2464   */\n              tag_45\n              jumpi\n                /* \"#utility.yul\":2460:2461   */\n              0x00\n                /* \"#utility.yul\":2457:2458   */\n              dup1\n                /* \"#utility.yul\":2450:2462   */\n              revert\n                /* \"#utility.yul\":2401:2464   */\n            tag_45:\n                /* \"#utility.yul\":2348:2470   */\n              pop\n              jump\t// out\n\n            auxdata: 0xa26469706673582212204a326baab14879b58508b99c8515f8dd64e32fa9b8d1d4cf6ceb89c0ca614a5a64736f6c63430008070033\n        }\n    }\n\n    auxdata: 0xa264697066735822122024b64bc0bfb40a8d41b4926f42e73e2f8667534f9dc0fa2f2e614006f3c5d76e64736f6c63430008070033\n}\n",
				"bytecode": {
					"linkReferences": {},
					"object": "608060405234801561001057600080fd5b5061079b806100206000396000f3fe608060405234801561001057600080fd5b50600436106100365760003560e01c8063c9c653961461003b578063e6a439051461006b575b600080fd5b6100556004803603810190610050919061037b565b61009b565b60405161006291906103ca565b60405180910390f35b6100856004803603810190610080919061037b565b610317565b60405161009291906103ca565b60405180910390f35b6000806040516100aa90610359565b604051809103906000f0801580156100c6573d6000803e3d6000fd5b5090508073ffffffffffffffffffffffffffffffffffffffff1663f09a401685856040518363ffffffff1660e01b81526004016101049291906103e5565b600060405180830381600087803b15801561011e57600080fd5b505af1158015610132573d6000803e3d6000fd5b505050508091506001829080600181540180825580915050600190039060005260206000200160009091909190916101000a81548173ffffffffffffffffffffffffffffffffffffffff021916908373ffffffffffffffffffffffffffffffffffffffff160217905550816000808673ffffffffffffffffffffffffffffffffffffffff1673ffffffffffffffffffffffffffffffffffffffff16815260200190815260200160002060008573ffffffffffffffffffffffffffffffffffffffff1673ffffffffffffffffffffffffffffffffffffffff16815260200190815260200160002060006101000a81548173ffffffffffffffffffffffffffffffffffffffff021916908373ffffffffffffffffffffffffffffffffffffffff160217905550816000808673ffffffffffffffffffffffffffffffffffffffff1673ffffffffffffffffffffffffffffffffffffffff16815260200190815260200160002060008573ffffffffffffffffffffffffffffffffffffffff1673ffffffffffffffffffffffffffffffffffffffff16815260200190815260200160002060006101000a81548173ffffffffffffffffffffffffffffffffffffffff021916908373ffffffffffffffffffffffffffffffffffffffff1602179055505092915050565b60006020528160005260406000206020528060005260406000206000915091509054906101000a900473ffffffffffffffffffffffffffffffffffffffff1681565b6103098061045d83390190565b60008135905061037581610445565b92915050565b6000806040838503121561039257610391610440565b5b60006103a085828601610366565b92505060206103b185828601610366565b9150509250929050565b6103c48161040e565b82525050565b60006020820190506103df60008301846103bb565b92915050565b60006040820190506103fa60008301856103bb565b61040760208301846103bb565b9392505050565b600061041982610420565b9050919050565b600073ffffffffffffffffffffffffffffffffffffffff82169050919050565b600080fd5b61044e8161040e565b811461045957600080fd5b5056fe6080604052336000806101000a81548173ffffffffffffffffffffffffffffffffffffffff021916908373ffffffffffffffffffffffffffffffffffffffff1602179055506102b6806100536000396000f3fe608060405234801561001057600080fd5b506004361061002b5760003560e01c8063f09a401614610030575b600080fd5b61004a60048036038101906100459190610175565b61004c565b005b60008054906101000a900473ffffffffffffffffffffffffffffffffffffffff1673ffffffffffffffffffffffffffffffffffffffff163373ffffffffffffffffffffffffffffffffffffffff16146100da576040517f08c379a00000000000000000000000000000000000000000000000000000000081526004016100d1906101d8565b60405180910390fd5b81600160006101000a81548173ffffffffffffffffffffffffffffffffffffffff021916908373ffffffffffffffffffffffffffffffffffffffff16021790555080600260006101000a81548173ffffffffffffffffffffffffffffffffffffffff021916908373ffffffffffffffffffffffffffffffffffffffff1602179055505050565b60008135905061016f81610269565b92915050565b6000806040838503121561018c5761018b61023b565b5b600061019a85828601610160565b92505060206101ab85828601610160565b9150509250929050565b60006101c2601b836101f8565b91506101cd82610240565b602082019050919050565b600060208201905081810360008301526101f1816101b5565b9050919050565b600082825260208201905092915050565b60006102148261021b565b9050919050565b600073ffffffffffffffffffffffffffffffffffffffff82169050919050565b600080fd5b7f6572726f72206f66206d73672e73656e646572213d666163746f720000000000600082015250565b61027281610209565b811461027d57600080fd5b5056fea26469706673582212204a326baab14879b58508b99c8515f8dd64e32fa9b8d1d4cf6ceb89c0ca614a5a64736f6c63430008070033a264697066735822122024b64bc0bfb40a8d41b4926f42e73e2f8667534f9dc0fa2f2e614006f3c5d76e64736f6c63430008070033",
					"opcodes": "PUSH1 0x80 PUSH1 0x40 MSTORE CALLVALUE DUP1 ISZERO PUSH2 0x10 JUMPI PUSH1 0x0 DUP1 REVERT JUMPDEST POP PUSH2 0x79B DUP1 PUSH2 0x20 PUSH1 0x0 CODECOPY PUSH1 0x0 RETURN INVALID PUSH1 0x80 PUSH1 0x40 MSTORE CALLVALUE DUP1 ISZERO PUSH2 0x10 JUMPI PUSH1 0x0 DUP1 REVERT JUMPDEST POP PUSH1 0x4 CALLDATASIZE LT PUSH2 0x36 JUMPI PUSH1 0x0 CALLDATALOAD PUSH1 0xE0 SHR DUP1 PUSH4 0xC9C65396 EQ PUSH2 0x3B JUMPI DUP1 PUSH4 0xE6A43905 EQ PUSH2 0x6B JUMPI JUMPDEST PUSH1 0x0 DUP1 REVERT JUMPDEST PUSH2 0x55 PUSH1 0x4 DUP1 CALLDATASIZE SUB DUP2 ADD SWAP1 PUSH2 0x50 SWAP2 SWAP1 PUSH2 0x37B JUMP JUMPDEST PUSH2 0x9B JUMP JUMPDEST PUSH1 0x40 MLOAD PUSH2 0x62 SWAP2 SWAP1 PUSH2 0x3CA JUMP JUMPDEST PUSH1 0x40 MLOAD DUP1 SWAP2 SUB SWAP1 RETURN JUMPDEST PUSH2 0x85 PUSH1 0x4 DUP1 CALLDATASIZE SUB DUP2 ADD SWAP1 PUSH2 0x80 SWAP2 SWAP1 PUSH2 0x37B JUMP JUMPDEST PUSH2 0x317 JUMP JUMPDEST PUSH1 0x40 MLOAD PUSH2 0x92 SWAP2 SWAP1 PUSH2 0x3CA JUMP JUMPDEST PUSH1 0x40 MLOAD DUP1 SWAP2 SUB SWAP1 RETURN JUMPDEST PUSH1 0x0 DUP1 PUSH1 0x40 MLOAD PUSH2 0xAA SWAP1 PUSH2 0x359 JUMP JUMPDEST PUSH1 0x40 MLOAD DUP1 SWAP2 SUB SWAP1 PUSH1 0x0 CREATE DUP1 ISZERO DUP1 ISZERO PUSH2 0xC6 JUMPI RETURNDATASIZE PUSH1 0x0 DUP1 RETURNDATACOPY RETURNDATASIZE PUSH1 0x0 REVERT JUMPDEST POP SWAP1 POP DUP1 PUSH20 0xFFFFFFFFFFFFFFFFFFFFFFFFFFFFFFFFFFFFFFFF AND PUSH4 0xF09A4016 DUP6 DUP6 PUSH1 0x40 MLOAD DUP4 PUSH4 0xFFFFFFFF AND PUSH1 0xE0 SHL DUP2 MSTORE PUSH1 0x4 ADD PUSH2 0x104 SWAP3 SWAP2 SWAP1 PUSH2 0x3E5 JUMP JUMPDEST PUSH1 0x0 PUSH1 0x40 MLOAD DUP1 DUP4 SUB DUP2 PUSH1 0x0 DUP8 DUP1 EXTCODESIZE ISZERO DUP1 ISZERO PUSH2 0x11E JUMPI PUSH1 0x0 DUP1 REVERT JUMPDEST POP GAS CALL ISZERO DUP1 ISZERO PUSH2 0x132 JUMPI RETURNDATASIZE PUSH1 0x0 DUP1 RETURNDATACOPY RETURNDATASIZE PUSH1 0x0 REVERT JUMPDEST POP POP POP POP DUP1 SWAP2 POP PUSH1 0x1 DUP3 SWAP1 DUP1 PUSH1 0x1 DUP2 SLOAD ADD DUP1 DUP3 SSTORE DUP1 SWAP2 POP POP PUSH1 0x1 SWAP1 SUB SWAP1 PUSH1 0x0 MSTORE PUSH1 0x20 PUSH1 0x0 KECCAK256 ADD PUSH1 0x0 SWAP1 SWAP2 SWAP1 SWAP2 SWAP1 SWAP2 PUSH2 0x100 EXP DUP2 SLOAD DUP2 PUSH20 0xFFFFFFFFFFFFFFFFFFFFFFFFFFFFFFFFFFFFFFFF MUL NOT AND SWAP1 DUP4 PUSH20 0xFFFFFFFFFFFFFFFFFFFFFFFFFFFFFFFFFFFFFFFF AND MUL OR SWAP1 SSTORE POP DUP2 PUSH1 0x0 DUP1 DUP7 PUSH20 0xFFFFFFFFFFFFFFFFFFFFFFFFFFFFFFFFFFFFFFFF AND PUSH20 0xFFFFFFFFFFFFFFFFFFFFFFFFFFFFFFFFFFFFFFFF AND DUP2 MSTORE PUSH1 0x20 ADD SWAP1 DUP2 MSTORE PUSH1 0x20 ADD PUSH1 0x0 KECCAK256 PUSH1 0x0 DUP6 PUSH20 0xFFFFFFFFFFFFFFFFFFFFFFFFFFFFFFFFFFFFFFFF AND PUSH20 0xFFFFFFFFFFFFFFFFFFFFFFFFFFFFFFFFFFFFFFFF AND DUP2 MSTORE PUSH1 0x20 ADD SWAP1 DUP2 MSTORE PUSH1 0x20 ADD PUSH1 0x0 KECCAK256 PUSH1 0x0 PUSH2 0x100 EXP DUP2 SLOAD DUP2 PUSH20 0xFFFFFFFFFFFFFFFFFFFFFFFFFFFFFFFFFFFFFFFF MUL NOT AND SWAP1 DUP4 PUSH20 0xFFFFFFFFFFFFFFFFFFFFFFFFFFFFFFFFFFFFFFFF AND MUL OR SWAP1 SSTORE POP DUP2 PUSH1 0x0 DUP1 DUP7 PUSH20 0xFFFFFFFFFFFFFFFFFFFFFFFFFFFFFFFFFFFFFFFF AND PUSH20 0xFFFFFFFFFFFFFFFFFFFFFFFFFFFFFFFFFFFFFFFF AND DUP2 MSTORE PUSH1 0x20 ADD SWAP1 DUP2 MSTORE PUSH1 0x20 ADD PUSH1 0x0 KECCAK256 PUSH1 0x0 DUP6 PUSH20 0xFFFFFFFFFFFFFFFFFFFFFFFFFFFFFFFFFFFFFFFF AND PUSH20 0xFFFFFFFFFFFFFFFFFFFFFFFFFFFFFFFFFFFFFFFF AND DUP2 MSTORE PUSH1 0x20 ADD SWAP1 DUP2 MSTORE PUSH1 0x20 ADD PUSH1 0x0 KECCAK256 PUSH1 0x0 PUSH2 0x100 EXP DUP2 SLOAD DUP2 PUSH20 0xFFFFFFFFFFFFFFFFFFFFFFFFFFFFFFFFFFFFFFFF MUL NOT AND SWAP1 DUP4 PUSH20 0xFFFFFFFFFFFFFFFFFFFFFFFFFFFFFFFFFFFFFFFF AND MUL OR SWAP1 SSTORE POP POP SWAP3 SWAP2 POP POP JUMP JUMPDEST PUSH1 0x0 PUSH1 0x20 MSTORE DUP2 PUSH1 0x0 MSTORE PUSH1 0x40 PUSH1 0x0 KECCAK256 PUSH1 0x20 MSTORE DUP1 PUSH1 0x0 MSTORE PUSH1 0x40 PUSH1 0x0 KECCAK256 PUSH1 0x0 SWAP2 POP SWAP2 POP SWAP1 SLOAD SWAP1 PUSH2 0x100 EXP SWAP1 DIV PUSH20 0xFFFFFFFFFFFFFFFFFFFFFFFFFFFFFFFFFFFFFFFF AND DUP2 JUMP JUMPDEST PUSH2 0x309 DUP1 PUSH2 0x45D DUP4 CODECOPY ADD SWAP1 JUMP JUMPDEST PUSH1 0x0 DUP2 CALLDATALOAD SWAP1 POP PUSH2 0x375 DUP2 PUSH2 0x445 JUMP JUMPDEST SWAP3 SWAP2 POP POP JUMP JUMPDEST PUSH1 0x0 DUP1 PUSH1 0x40 DUP4 DUP6 SUB SLT ISZERO PUSH2 0x392 JUMPI PUSH2 0x391 PUSH2 0x440 JUMP JUMPDEST JUMPDEST PUSH1 0x0 PUSH2 0x3A0 DUP6 DUP3 DUP7 ADD PUSH2 0x366 JUMP JUMPDEST SWAP3 POP POP PUSH1 0x20 PUSH2 0x3B1 DUP6 DUP3 DUP7 ADD PUSH2 0x366 JUMP JUMPDEST SWAP2 POP POP SWAP3 POP SWAP3 SWAP1 POP JUMP JUMPDEST PUSH2 0x3C4 DUP2 PUSH2 0x40E JUMP JUMPDEST DUP3 MSTORE POP POP JUMP JUMPDEST PUSH1 0x0 PUSH1 0x20 DUP3 ADD SWAP1 POP PUSH2 0x3DF PUSH1 0x0 DUP4 ADD DUP5 PUSH2 0x3BB JUMP JUMPDEST SWAP3 SWAP2 POP POP JUMP JUMPDEST PUSH1 0x0 PUSH1 0x40 DUP3 ADD SWAP1 POP PUSH2 0x3FA PUSH1 0x0 DUP4 ADD DUP6 PUSH2 0x3BB JUMP JUMPDEST PUSH2 0x407 PUSH1 0x20 DUP4 ADD DUP5 PUSH2 0x3BB JUMP JUMPDEST SWAP4 SWAP3 POP POP POP JUMP JUMPDEST PUSH1 0x0 PUSH2 0x419 DUP3 PUSH2 0x420 JUMP JUMPDEST SWAP1 POP SWAP2 SWAP1 POP JUMP JUMPDEST PUSH1 0x0 PUSH20 0xFFFFFFFFFFFFFFFFFFFFFFFFFFFFFFFFFFFFFFFF DUP3 AND SWAP1 POP SWAP2 SWAP1 POP JUMP JUMPDEST PUSH1 0x0 DUP1 REVERT JUMPDEST PUSH2 0x44E DUP2 PUSH2 0x40E JUMP JUMPDEST DUP2 EQ PUSH2 0x459 JUMPI PUSH1 0x0 DUP1 REVERT JUMPDEST POP JUMP INVALID PUSH1 0x80 PUSH1 0x40 MSTORE CALLER PUSH1 0x0 DUP1 PUSH2 0x100 EXP DUP2 SLOAD DUP2 PUSH20 0xFFFFFFFFFFFFFFFFFFFFFFFFFFFFFFFFFFFFFFFF MUL NOT AND SWAP1 DUP4 PUSH20 0xFFFFFFFFFFFFFFFFFFFFFFFFFFFFFFFFFFFFFFFF AND MUL OR SWAP1 SSTORE POP PUSH2 0x2B6 DUP1 PUSH2 0x53 PUSH1 0x0 CODECOPY PUSH1 0x0 RETURN INVALID PUSH1 0x80 PUSH1 0x40 MSTORE CALLVALUE DUP1 ISZERO PUSH2 0x10 JUMPI PUSH1 0x0 DUP1 REVERT JUMPDEST POP PUSH1 0x4 CALLDATASIZE LT PUSH2 0x2B JUMPI PUSH1 0x0 CALLDATALOAD PUSH1 0xE0 SHR DUP1 PUSH4 0xF09A4016 EQ PUSH2 0x30 JUMPI JUMPDEST PUSH1 0x0 DUP1 REVERT JUMPDEST PUSH2 0x4A PUSH1 0x4 DUP1 CALLDATASIZE SUB DUP2 ADD SWAP1 PUSH2 0x45 SWAP2 SWAP1 PUSH2 0x175 JUMP JUMPDEST PUSH2 0x4C JUMP JUMPDEST STOP JUMPDEST PUSH1 0x0 DUP1 SLOAD SWAP1 PUSH2 0x100 EXP SWAP1 DIV PUSH20 0xFFFFFFFFFFFFFFFFFFFFFFFFFFFFFFFFFFFFFFFF AND PUSH20 0xFFFFFFFFFFFFFFFFFFFFFFFFFFFFFFFFFFFFFFFF AND CALLER PUSH20 0xFFFFFFFFFFFFFFFFFFFFFFFFFFFFFFFFFFFFFFFF AND EQ PUSH2 0xDA JUMPI PUSH1 0x40 MLOAD PUSH32 0x8C379A000000000000000000000000000000000000000000000000000000000 DUP2 MSTORE PUSH1 0x4 ADD PUSH2 0xD1 SWAP1 PUSH2 0x1D8 JUMP JUMPDEST PUSH1 0x40 MLOAD DUP1 SWAP2 SUB SWAP1 REVERT JUMPDEST DUP2 PUSH1 0x1 PUSH1 0x0 PUSH2 0x100 EXP DUP2 SLOAD DUP2 PUSH20 0xFFFFFFFFFFFFFFFFFFFFFFFFFFFFFFFFFFFFFFFF MUL NOT AND SWAP1 DUP4 PUSH20 0xFFFFFFFFFFFFFFFFFFFFFFFFFFFFFFFFFFFFFFFF AND MUL OR SWAP1 SSTORE POP DUP1 PUSH1 0x2 PUSH1 0x0 PUSH2 0x100 EXP DUP2 SLOAD DUP2 PUSH20 0xFFFFFFFFFFFFFFFFFFFFFFFFFFFFFFFFFFFFFFFF MUL NOT AND SWAP1 DUP4 PUSH20 0xFFFFFFFFFFFFFFFFFFFFFFFFFFFFFFFFFFFFFFFF AND MUL OR SWAP1 SSTORE POP POP POP JUMP JUMPDEST PUSH1 0x0 DUP2 CALLDATALOAD SWAP1 POP PUSH2 0x16F DUP2 PUSH2 0x269 JUMP JUMPDEST SWAP3 SWAP2 POP POP JUMP JUMPDEST PUSH1 0x0 DUP1 PUSH1 0x40 DUP4 DUP6 SUB SLT ISZERO PUSH2 0x18C JUMPI PUSH2 0x18B PUSH2 0x23B JUMP JUMPDEST JUMPDEST PUSH1 0x0 PUSH2 0x19A DUP6 DUP3 DUP7 ADD PUSH2 0x160 JUMP JUMPDEST SWAP3 POP POP PUSH1 0x20 PUSH2 0x1AB DUP6 DUP3 DUP7 ADD PUSH2 0x160 JUMP JUMPDEST SWAP2 POP POP SWAP3 POP SWAP3 SWAP1 POP JUMP JUMPDEST PUSH1 0x0 PUSH2 0x1C2 PUSH1 0x1B DUP4 PUSH2 0x1F8 JUMP JUMPDEST SWAP2 POP PUSH2 0x1CD DUP3 PUSH2 0x240 JUMP JUMPDEST PUSH1 0x20 DUP3 ADD SWAP1 POP SWAP2 SWAP1 POP JUMP JUMPDEST PUSH1 0x0 PUSH1 0x20 DUP3 ADD SWAP1 POP DUP2 DUP2 SUB PUSH1 0x0 DUP4 ADD MSTORE PUSH2 0x1F1 DUP2 PUSH2 0x1B5 JUMP JUMPDEST SWAP1 POP SWAP2 SWAP1 POP JUMP JUMPDEST PUSH1 0x0 DUP3 DUP3 MSTORE PUSH1 0x20 DUP3 ADD SWAP1 POP SWAP3 SWAP2 POP POP JUMP JUMPDEST PUSH1 0x0 PUSH2 0x214 DUP3 PUSH2 0x21B JUMP JUMPDEST SWAP1 POP SWAP2 SWAP1 POP JUMP JUMPDEST PUSH1 0x0 PUSH20 0xFFFFFFFFFFFFFFFFFFFFFFFFFFFFFFFFFFFFFFFF DUP3 AND SWAP1 POP SWAP2 SWAP1 POP JUMP JUMPDEST PUSH1 0x0 DUP1 REVERT JUMPDEST PUSH32 0x6572726F72206F66206D73672E73656E646572213D666163746F720000000000 PUSH1 0x0 DUP3 ADD MSTORE POP JUMP JUMPDEST PUSH2 0x272 DUP2 PUSH2 0x209 JUMP JUMPDEST DUP2 EQ PUSH2 0x27D JUMPI PUSH1 0x0 DUP1 REVERT JUMPDEST POP JUMP INVALID LOG2 PUSH5 0x6970667358 0x22 SLT KECCAK256 0x4A ORIGIN PUSH12 0xAAB14879B58508B99C8515F8 0xDD PUSH5 0xE32FA9B8D1 0xD4 0xCF PUSH13 0xEB89C0CA614A5A64736F6C6343 STOP ADDMOD SMOD STOP CALLER LOG2 PUSH5 0x6970667358 0x22 SLT KECCAK256 0x24 0xB6 0x4B 0xC0 0xBF 0xB4 EXP DUP14 COINBASE 0xB4 SWAP3 PUSH16 0x42E73E2F8667534F9DC0FA2F2E614006 RETURN 0xC5 0xD7 PUSH15 0x64736F6C6343000807003300000000 "
				},
				"gasEstimates": {
					"creation": {
						"codeDepositCost": "389400",
						"executionCost": "424",
						"totalCost": "389824"
					},
					"external": {
						"createPair(address,address)": "infinite",
						"getPair(address,address)": "infinite"
					}
				},
				"methodIdentifiers": {
					"createPair(address,address)": "c9c65396",
					"getPair(address,address)": "e6a43905"
				}
			},
			"storageLayout": {
				"storage": [
					{
						"astId": 50,
						"contract": "contracts/pairFactor.sol:PairFactor",
						"label": "getPair",
						"offset": 0,
						"slot": "0",
						"type": "t_mapping(t_address,t_mapping(t_address,t_address))"
					},
					{
						"astId": 53,
						"contract": "contracts/pairFactor.sol:PairFactor",
						"label": "allPair",
						"offset": 0,
						"slot": "1",
						"type": "t_array(t_address)dyn_storage"
					}
				],
				"types": {
					"t_address": {
						"encoding": "inplace",
						"label": "address",
						"numberOfBytes": "20"
					},
					"t_array(t_address)dyn_storage": {
						"base": "t_address",
						"encoding": "dynamic_array",
						"label": "address[]",
						"numberOfBytes": "32"
					},
					"t_mapping(t_address,t_address)": {
						"encoding": "mapping",
						"key": "t_address",
						"label": "mapping(address => address)",
						"numberOfBytes": "32",
						"value": "t_address"
					},
					"t_mapping(t_address,t_mapping(t_address,t_address))": {
						"encoding": "mapping",
						"key": "t_address",
						"label": "mapping(address => mapping(address => address))",
						"numberOfBytes": "32",
						"value": "t_mapping(t_address,t_address)"
					}
				}
			},
			"userdoc": {
				"kind": "user",
				"methods": {
					"createPair(address,address)": {
						"notice": "使用两个token的地址创建交易对，将交易对的地址返回"
					}
				},
				"version": 1
			}
		}
	}
}