{
	"contracts/SigReplay.sol": {
		"SigReplay": {
			"abi": [
				{
					"inputs": [
						{
							"internalType": "string",
							"name": "_name",
							"type": "string"
						},
						{
							"internalType": "string",
							"name": "_symbol",
							"type": "string"
						}
					],
					"stateMutability": "nonpayable",
					"type": "constructor"
				},
				{
					"anonymous": false,
					"inputs": [
						{
							"indexed": true,
							"internalType": "address",
							"name": "owner",
							"type": "address"
						},
						{
							"indexed": true,
							"internalType": "address",
							"name": "spender",
							"type": "address"
						},
						{
							"indexed": false,
							"internalType": "uint256",
							"name": "value",
							"type": "uint256"
						}
					],
					"name": "Approval",
					"type": "event"
				},
				{
					"anonymous": false,
					"inputs": [
						{
							"indexed": true,
							"internalType": "address",
							"name": "from",
							"type": "address"
						},
						{
							"indexed": true,
							"internalType": "address",
							"name": "to",
							"type": "address"
						},
						{
							"indexed": false,
							"internalType": "uint256",
							"name": "value",
							"type": "uint256"
						}
					],
					"name": "Transfer",
					"type": "event"
				},
				{
					"inputs": [
						{
							"internalType": "address",
							"name": "owner",
							"type": "address"
						},
						{
							"internalType": "address",
							"name": "spender",
							"type": "address"
						}
					],
					"name": "allowance",
					"outputs": [
						{
							"internalType": "uint256",
							"name": "",
							"type": "uint256"
						}
					],
					"stateMutability": "view",
					"type": "function"
				},
				{
					"inputs": [
						{
							"internalType": "address",
							"name": "spender",
							"type": "address"
						},
						{
							"internalType": "uint256",
							"name": "amount",
							"type": "uint256"
						}
					],
					"name": "approve",
					"outputs": [
						{
							"internalType": "bool",
							"name": "",
							"type": "bool"
						}
					],
					"stateMutability": "nonpayable",
					"type": "function"
				},
				{
					"inputs": [
						{
							"internalType": "address",
							"name": "to",
							"type": "address"
						},
						{
							"internalType": "uint256",
							"name": "amount",
							"type": "uint256"
						},
						{
							"internalType": "bytes",
							"name": "sig",
							"type": "bytes"
						}
					],
					"name": "badMint",
					"outputs": [],
					"stateMutability": "nonpayable",
					"type": "function"
				},
				{
					"inputs": [
						{
							"internalType": "address",
							"name": "account",
							"type": "address"
						}
					],
					"name": "balanceOf",
					"outputs": [
						{
							"internalType": "uint256",
							"name": "",
							"type": "uint256"
						}
					],
					"stateMutability": "view",
					"type": "function"
				},
				{
					"inputs": [
						{
							"internalType": "bytes32",
							"name": "hash",
							"type": "bytes32"
						}
					],
					"name": "createEthSigMess",
					"outputs": [
						{
							"internalType": "bytes32",
							"name": "",
							"type": "bytes32"
						}
					],
					"stateMutability": "pure",
					"type": "function"
				},
				{
					"inputs": [
						{
							"internalType": "address",
							"name": "to",
							"type": "address"
						},
						{
							"internalType": "uint256",
							"name": "amount",
							"type": "uint256"
						}
					],
					"name": "createSing",
					"outputs": [
						{
							"internalType": "bytes32",
							"name": "",
							"type": "bytes32"
						}
					],
					"stateMutability": "view",
					"type": "function"
				},
				{
					"inputs": [],
					"name": "decimals",
					"outputs": [
						{
							"internalType": "uint8",
							"name": "",
							"type": "uint8"
						}
					],
					"stateMutability": "view",
					"type": "function"
				},
				{
					"inputs": [
						{
							"internalType": "address",
							"name": "spender",
							"type": "address"
						},
						{
							"internalType": "uint256",
							"name": "subtractedValue",
							"type": "uint256"
						}
					],
					"name": "decreaseAllowance",
					"outputs": [
						{
							"internalType": "bool",
							"name": "",
							"type": "bool"
						}
					],
					"stateMutability": "nonpayable",
					"type": "function"
				},
				{
					"inputs": [
						{
							"internalType": "address",
							"name": "spender",
							"type": "address"
						},
						{
							"internalType": "uint256",
							"name": "addedValue",
							"type": "uint256"
						}
					],
					"name": "increaseAllowance",
					"outputs": [
						{
							"internalType": "bool",
							"name": "",
							"type": "bool"
						}
					],
					"stateMutability": "nonpayable",
					"type": "function"
				},
				{
					"inputs": [
						{
							"internalType": "address",
							"name": "",
							"type": "address"
						}
					],
					"name": "minted",
					"outputs": [
						{
							"internalType": "bool",
							"name": "",
							"type": "bool"
						}
					],
					"stateMutability": "view",
					"type": "function"
				},
				{
					"inputs": [],
					"name": "name",
					"outputs": [
						{
							"internalType": "string",
							"name": "",
							"type": "string"
						}
					],
					"stateMutability": "view",
					"type": "function"
				},
				{
					"inputs": [],
					"name": "nonce",
					"outputs": [
						{
							"internalType": "uint256",
							"name": "",
							"type": "uint256"
						}
					],
					"stateMutability": "view",
					"type": "function"
				},
				{
					"inputs": [],
					"name": "signer",
					"outputs": [
						{
							"internalType": "address",
							"name": "",
							"type": "address"
						}
					],
					"stateMutability": "view",
					"type": "function"
				},
				{
					"inputs": [],
					"name": "symbol",
					"outputs": [
						{
							"internalType": "string",
							"name": "",
							"type": "string"
						}
					],
					"stateMutability": "view",
					"type": "function"
				},
				{
					"inputs": [],
					"name": "totalSupply",
					"outputs": [
						{
							"internalType": "uint256",
							"name": "",
							"type": "uint256"
						}
					],
					"stateMutability": "view",
					"type": "function"
				},
				{
					"inputs": [
						{
							"internalType": "address",
							"name": "to",
							"type": "address"
						},
						{
							"internalType": "uint256",
							"name": "amount",
							"type": "uint256"
						}
					],
					"name": "transfer",
					"outputs": [
						{
							"internalType": "bool",
							"name": "",
							"type": "bool"
						}
					],
					"stateMutability": "nonpayable",
					"type": "function"
				},
				{
					"inputs": [
						{
							"internalType": "address",
							"name": "from",
							"type": "address"
						},
						{
							"internalType": "address",
							"name": "to",
							"type": "address"
						},
						{
							"internalType": "uint256",
							"name": "amount",
							"type": "uint256"
						}
					],
					"name": "transferFrom",
					"outputs": [
						{
							"internalType": "bool",
							"name": "",
							"type": "bool"
						}
					],
					"stateMutability": "nonpayable",
					"type": "function"
				},
				{
					"inputs": [
						{
							"internalType": "bytes32",
							"name": "_msgHash",
							"type": "bytes32"
						},
						{
							"internalType": "bytes",
							"name": "_signature",
							"type": "bytes"
						}
					],
					"name": "verifyFun",
					"outputs": [
						{
							"internalType": "bool",
							"name": "",
							"type": "bool"
						}
					],
					"stateMutability": "view",
					"type": "function"
				}
			],
			"devdoc": {
				"events": {
					"Approval(address,address,uint256)": {
						"details": "Emitted when the allowance of a `spender` for an `owner` is set by a call to {approve}. `value` is the new allowance."
					},
					"Transfer(address,address,uint256)": {
						"details": "Emitted when `value` tokens are moved from one account (`from`) to another (`to`). Note that `value` may be zero."
					}
				},
				"kind": "dev",
				"methods": {
					"allowance(address,address)": {
						"details": "See {IERC20-allowance}."
					},
					"approve(address,uint256)": {
						"details": "See {IERC20-approve}. NOTE: If `amount` is the maximum `uint256`, the allowance is not updated on `transferFrom`. This is semantically equivalent to an infinite approval. Requirements: - `spender` cannot be the zero address."
					},
					"balanceOf(address)": {
						"details": "See {IERC20-balanceOf}."
					},
					"decimals()": {
						"details": "Returns the number of decimals used to get its user representation. For example, if `decimals` equals `2`, a balance of `505` tokens should be displayed to a user as `5.05` (`505 / 10 ** 2`). Tokens usually opt for a value of 18, imitating the relationship between Ether and Wei. This is the value {ERC20} uses, unless this function is overridden; NOTE: This information is only used for _display_ purposes: it in no way affects any of the arithmetic of the contract, including {IERC20-balanceOf} and {IERC20-transfer}."
					},
					"decreaseAllowance(address,uint256)": {
						"details": "Atomically decreases the allowance granted to `spender` by the caller. This is an alternative to {approve} that can be used as a mitigation for problems described in {IERC20-approve}. Emits an {Approval} event indicating the updated allowance. Requirements: - `spender` cannot be the zero address. - `spender` must have allowance for the caller of at least `subtractedValue`."
					},
					"increaseAllowance(address,uint256)": {
						"details": "Atomically increases the allowance granted to `spender` by the caller. This is an alternative to {approve} that can be used as a mitigation for problems described in {IERC20-approve}. Emits an {Approval} event indicating the updated allowance. Requirements: - `spender` cannot be the zero address."
					},
					"name()": {
						"details": "Returns the name of the token."
					},
					"symbol()": {
						"details": "Returns the symbol of the token, usually a shorter version of the name."
					},
					"totalSupply()": {
						"details": "See {IERC20-totalSupply}."
					},
					"transfer(address,uint256)": {
						"details": "See {IERC20-transfer}. Requirements: - `to` cannot be the zero address. - the caller must have a balance of at least `amount`."
					},
					"transferFrom(address,address,uint256)": {
						"details": "See {IERC20-transferFrom}. Emits an {Approval} event indicating the updated allowance. This is not required by the EIP. See the note at the beginning of {ERC20}. NOTE: Does not update the allowance if the current allowance is the maximum `uint256`. Requirements: - `from` and `to` cannot be the zero address. - `from` must have a balance of at least `amount`. - the caller must have allowance for ``from``'s tokens of at least `amount`."
					}
				},
				"version": 1
			},
			"evm": {
				"assembly": "    /* \"contracts/SigReplay.sol\":418:3594  contract SigReplay is ERC20 {... */\n  mstore(0x40, 0x80)\n    /* \"contracts/SigReplay.sol\":584:710  constructor(string memory _name, string memory _symbol)... */\n  callvalue\n  dup1\n  iszero\n  tag_1\n  jumpi\n  0x00\n  dup1\n  revert\ntag_1:\n  pop\n  mload(0x40)\n  sub(codesize, bytecodeSize)\n  dup1\n  bytecodeSize\n  dup4\n  codecopy\n  dup2\n  dup2\n  add\n  0x40\n  mstore\n  dup2\n  add\n  swap1\n  tag_2\n  swap2\n  swap1\n  tag_3\n  jump\t// in\ntag_2:\n    /* \"contracts/SigReplay.sol\":654:659  _name */\n  dup2\n    /* \"contracts/SigReplay.sol\":661:668  _symbol */\n  dup2\n    /* \"@openzeppelin/contracts/token/ERC20/ERC20.sol\":2050:2055  name_ */\n  dup2\n    /* \"@openzeppelin/contracts/token/ERC20/ERC20.sol\":2042:2047  _name */\n  0x03\n    /* \"@openzeppelin/contracts/token/ERC20/ERC20.sol\":2042:2055  _name = name_ */\n  swap1\n  dup2\n  tag_7\n  swap2\n  swap1\n  tag_8\n  jump\t// in\ntag_7:\n  pop\n    /* \"@openzeppelin/contracts/token/ERC20/ERC20.sol\":2075:2082  symbol_ */\n  dup1\n    /* \"@openzeppelin/contracts/token/ERC20/ERC20.sol\":2065:2072  _symbol */\n  0x04\n    /* \"@openzeppelin/contracts/token/ERC20/ERC20.sol\":2065:2082  _symbol = symbol_ */\n  swap1\n  dup2\n  tag_9\n  swap2\n  swap1\n  tag_8\n  jump\t// in\ntag_9:\n  pop\n    /* \"@openzeppelin/contracts/token/ERC20/ERC20.sol\":1976:2089  constructor(string memory name_, string memory symbol_) {... */\n  pop\n  pop\n    /* \"contracts/SigReplay.sol\":693:703  msg.sender */\n  caller\n    /* \"contracts/SigReplay.sol\":684:690  signer */\n  0x05\n  0x00\n    /* \"contracts/SigReplay.sol\":684:703  signer = msg.sender */\n  0x0100\n  exp\n  dup2\n  sload\n  dup2\n  0xffffffffffffffffffffffffffffffffffffffff\n  mul\n  not\n  and\n  swap1\n  dup4\n  0xffffffffffffffffffffffffffffffffffffffff\n  and\n  mul\n  or\n  swap1\n  sstore\n  pop\n    /* \"contracts/SigReplay.sol\":584:710  constructor(string memory _name, string memory _symbol)... */\n  pop\n  pop\n    /* \"contracts/SigReplay.sol\":418:3594  contract SigReplay is ERC20 {... */\n  jump(tag_11)\n    /* \"#utility.yul\":7:82   */\ntag_12:\n    /* \"#utility.yul\":40:46   */\n  0x00\n    /* \"#utility.yul\":73:75   */\n  0x40\n    /* \"#utility.yul\":67:76   */\n  mload\n    /* \"#utility.yul\":57:76   */\n  swap1\n  pop\n    /* \"#utility.yul\":7:82   */\n  swap1\n  jump\t// out\n    /* \"#utility.yul\":88:205   */\ntag_13:\n    /* \"#utility.yul\":197:198   */\n  0x00\n    /* \"#utility.yul\":194:195   */\n  dup1\n    /* \"#utility.yul\":187:199   */\n  revert\n    /* \"#utility.yul\":211:328   */\ntag_14:\n    /* \"#utility.yul\":320:321   */\n  0x00\n    /* \"#utility.yul\":317:318   */\n  dup1\n    /* \"#utility.yul\":310:322   */\n  revert\n    /* \"#utility.yul\":334:451   */\ntag_15:\n    /* \"#utility.yul\":443:444   */\n  0x00\n    /* \"#utility.yul\":440:441   */\n  dup1\n    /* \"#utility.yul\":433:445   */\n  revert\n    /* \"#utility.yul\":457:574   */\ntag_16:\n    /* \"#utility.yul\":566:567   */\n  0x00\n    /* \"#utility.yul\":563:564   */\n  dup1\n    /* \"#utility.yul\":556:568   */\n  revert\n    /* \"#utility.yul\":580:682   */\ntag_17:\n    /* \"#utility.yul\":621:627   */\n  0x00\n    /* \"#utility.yul\":672:674   */\n  0x1f\n    /* \"#utility.yul\":668:675   */\n  not\n    /* \"#utility.yul\":663:665   */\n  0x1f\n    /* \"#utility.yul\":656:661   */\n  dup4\n    /* \"#utility.yul\":652:666   */\n  add\n    /* \"#utility.yul\":648:676   */\n  and\n    /* \"#utility.yul\":638:676   */\n  swap1\n  pop\n    /* \"#utility.yul\":580:682   */\n  swap2\n  swap1\n  pop\n  jump\t// out\n    /* \"#utility.yul\":688:868   */\ntag_18:\n    /* \"#utility.yul\":736:813   */\n  0x4e487b7100000000000000000000000000000000000000000000000000000000\n    /* \"#utility.yul\":733:734   */\n  0x00\n    /* \"#utility.yul\":726:814   */\n  mstore\n    /* \"#utility.yul\":833:837   */\n  0x41\n    /* \"#utility.yul\":830:831   */\n  0x04\n    /* \"#utility.yul\":823:838   */\n  mstore\n    /* \"#utility.yul\":857:861   */\n  0x24\n    /* \"#utility.yul\":854:855   */\n  0x00\n    /* \"#utility.yul\":847:862   */\n  revert\n    /* \"#utility.yul\":874:1155   */\ntag_19:\n    /* \"#utility.yul\":957:984   */\n  tag_53\n    /* \"#utility.yul\":979:983   */\n  dup3\n    /* \"#utility.yul\":957:984   */\n  tag_17\n  jump\t// in\ntag_53:\n    /* \"#utility.yul\":949:955   */\n  dup2\n    /* \"#utility.yul\":945:985   */\n  add\n    /* \"#utility.yul\":1087:1093   */\n  dup2\n    /* \"#utility.yul\":1075:1085   */\n  dup2\n    /* \"#utility.yul\":1072:1094   */\n  lt\n    /* \"#utility.yul\":1051:1069   */\n  0xffffffffffffffff\n    /* \"#utility.yul\":1039:1049   */\n  dup3\n    /* \"#utility.yul\":1036:1070   */\n  gt\n    /* \"#utility.yul\":1033:1095   */\n  or\n    /* \"#utility.yul\":1030:1118   */\n  iszero\n  tag_54\n  jumpi\n    /* \"#utility.yul\":1098:1116   */\n  tag_55\n  tag_18\n  jump\t// in\ntag_55:\n    /* \"#utility.yul\":1030:1118   */\ntag_54:\n    /* \"#utility.yul\":1138:1148   */\n  dup1\n    /* \"#utility.yul\":1134:1136   */\n  0x40\n    /* \"#utility.yul\":1127:1149   */\n  mstore\n    /* \"#utility.yul\":917:1155   */\n  pop\n    /* \"#utility.yul\":874:1155   */\n  pop\n  pop\n  jump\t// out\n    /* \"#utility.yul\":1161:1290   */\ntag_20:\n    /* \"#utility.yul\":1195:1201   */\n  0x00\n    /* \"#utility.yul\":1222:1242   */\n  tag_57\n  tag_12\n  jump\t// in\ntag_57:\n    /* \"#utility.yul\":1212:1242   */\n  swap1\n  pop\n    /* \"#utility.yul\":1251:1284   */\n  tag_58\n    /* \"#utility.yul\":1279:1283   */\n  dup3\n    /* \"#utility.yul\":1271:1277   */\n  dup3\n    /* \"#utility.yul\":1251:1284   */\n  tag_19\n  jump\t// in\ntag_58:\n    /* \"#utility.yul\":1161:1290   */\n  swap2\n  swap1\n  pop\n  jump\t// out\n    /* \"#utility.yul\":1296:1604   */\ntag_21:\n    /* \"#utility.yul\":1358:1362   */\n  0x00\n    /* \"#utility.yul\":1448:1466   */\n  0xffffffffffffffff\n    /* \"#utility.yul\":1440:1446   */\n  dup3\n    /* \"#utility.yul\":1437:1467   */\n  gt\n    /* \"#utility.yul\":1434:1490   */\n  iszero\n  tag_60\n  jumpi\n    /* \"#utility.yul\":1470:1488   */\n  tag_61\n  tag_18\n  jump\t// in\ntag_61:\n    /* \"#utility.yul\":1434:1490   */\ntag_60:\n    /* \"#utility.yul\":1508:1537   */\n  tag_62\n    /* \"#utility.yul\":1530:1536   */\n  dup3\n    /* \"#utility.yul\":1508:1537   */\n  tag_17\n  jump\t// in\ntag_62:\n    /* \"#utility.yul\":1500:1537   */\n  swap1\n  pop\n    /* \"#utility.yul\":1592:1596   */\n  0x20\n    /* \"#utility.yul\":1586:1590   */\n  dup2\n    /* \"#utility.yul\":1582:1597   */\n  add\n    /* \"#utility.yul\":1574:1597   */\n  swap1\n  pop\n    /* \"#utility.yul\":1296:1604   */\n  swap2\n  swap1\n  pop\n  jump\t// out\n    /* \"#utility.yul\":1610:1856   */\ntag_22:\n    /* \"#utility.yul\":1691:1692   */\n  0x00\n    /* \"#utility.yul\":1701:1814   */\ntag_64:\n    /* \"#utility.yul\":1715:1721   */\n  dup4\n    /* \"#utility.yul\":1712:1713   */\n  dup2\n    /* \"#utility.yul\":1709:1722   */\n  lt\n    /* \"#utility.yul\":1701:1814   */\n  iszero\n  tag_66\n  jumpi\n    /* \"#utility.yul\":1800:1801   */\n  dup1\n    /* \"#utility.yul\":1795:1798   */\n  dup3\n    /* \"#utility.yul\":1791:1802   */\n  add\n    /* \"#utility.yul\":1785:1803   */\n  mload\n    /* \"#utility.yul\":1781:1782   */\n  dup2\n    /* \"#utility.yul\":1776:1779   */\n  dup5\n    /* \"#utility.yul\":1772:1783   */\n  add\n    /* \"#utility.yul\":1765:1804   */\n  mstore\n    /* \"#utility.yul\":1737:1739   */\n  0x20\n    /* \"#utility.yul\":1734:1735   */\n  dup2\n    /* \"#utility.yul\":1730:1740   */\n  add\n    /* \"#utility.yul\":1725:1740   */\n  swap1\n  pop\n    /* \"#utility.yul\":1701:1814   */\n  jump(tag_64)\ntag_66:\n    /* \"#utility.yul\":1848:1849   */\n  0x00\n    /* \"#utility.yul\":1839:1845   */\n  dup5\n    /* \"#utility.yul\":1834:1837   */\n  dup5\n    /* \"#utility.yul\":1830:1846   */\n  add\n    /* \"#utility.yul\":1823:1850   */\n  mstore\n    /* \"#utility.yul\":1672:1856   */\n  pop\n    /* \"#utility.yul\":1610:1856   */\n  pop\n  pop\n  pop\n  jump\t// out\n    /* \"#utility.yul\":1862:2296   */\ntag_23:\n    /* \"#utility.yul\":1951:1956   */\n  0x00\n    /* \"#utility.yul\":1976:2042   */\n  tag_68\n    /* \"#utility.yul\":1992:2041   */\n  tag_69\n    /* \"#utility.yul\":2034:2040   */\n  dup5\n    /* \"#utility.yul\":1992:2041   */\n  tag_21\n  jump\t// in\ntag_69:\n    /* \"#utility.yul\":1976:2042   */\n  tag_20\n  jump\t// in\ntag_68:\n    /* \"#utility.yul\":1967:2042   */\n  swap1\n  pop\n    /* \"#utility.yul\":2065:2071   */\n  dup3\n    /* \"#utility.yul\":2058:2063   */\n  dup2\n    /* \"#utility.yul\":2051:2072   */\n  mstore\n    /* \"#utility.yul\":2103:2107   */\n  0x20\n    /* \"#utility.yul\":2096:2101   */\n  dup2\n    /* \"#utility.yul\":2092:2108   */\n  add\n    /* \"#utility.yul\":2141:2144   */\n  dup5\n    /* \"#utility.yul\":2132:2138   */\n  dup5\n    /* \"#utility.yul\":2127:2130   */\n  dup5\n    /* \"#utility.yul\":2123:2139   */\n  add\n    /* \"#utility.yul\":2120:2145   */\n  gt\n    /* \"#utility.yul\":2117:2229   */\n  iszero\n  tag_70\n  jumpi\n    /* \"#utility.yul\":2148:2227   */\n  tag_71\n  tag_16\n  jump\t// in\ntag_71:\n    /* \"#utility.yul\":2117:2229   */\ntag_70:\n    /* \"#utility.yul\":2238:2290   */\n  tag_72\n    /* \"#utility.yul\":2283:2289   */\n  dup5\n    /* \"#utility.yul\":2278:2281   */\n  dup3\n    /* \"#utility.yul\":2273:2276   */\n  dup6\n    /* \"#utility.yul\":2238:2290   */\n  tag_22\n  jump\t// in\ntag_72:\n    /* \"#utility.yul\":1957:2296   */\n  pop\n    /* \"#utility.yul\":1862:2296   */\n  swap4\n  swap3\n  pop\n  pop\n  pop\n  jump\t// out\n    /* \"#utility.yul\":2316:2671   */\ntag_24:\n    /* \"#utility.yul\":2383:2388   */\n  0x00\n    /* \"#utility.yul\":2432:2435   */\n  dup3\n    /* \"#utility.yul\":2425:2429   */\n  0x1f\n    /* \"#utility.yul\":2417:2423   */\n  dup4\n    /* \"#utility.yul\":2413:2430   */\n  add\n    /* \"#utility.yul\":2409:2436   */\n  slt\n    /* \"#utility.yul\":2399:2521   */\n  tag_74\n  jumpi\n    /* \"#utility.yul\":2440:2519   */\n  tag_75\n  tag_15\n  jump\t// in\ntag_75:\n    /* \"#utility.yul\":2399:2521   */\ntag_74:\n    /* \"#utility.yul\":2550:2556   */\n  dup2\n    /* \"#utility.yul\":2544:2557   */\n  mload\n    /* \"#utility.yul\":2575:2665   */\n  tag_76\n    /* \"#utility.yul\":2661:2664   */\n  dup5\n    /* \"#utility.yul\":2653:2659   */\n  dup3\n    /* \"#utility.yul\":2646:2650   */\n  0x20\n    /* \"#utility.yul\":2638:2644   */\n  dup7\n    /* \"#utility.yul\":2634:2651   */\n  add\n    /* \"#utility.yul\":2575:2665   */\n  tag_23\n  jump\t// in\ntag_76:\n    /* \"#utility.yul\":2566:2665   */\n  swap2\n  pop\n    /* \"#utility.yul\":2389:2671   */\n  pop\n    /* \"#utility.yul\":2316:2671   */\n  swap3\n  swap2\n  pop\n  pop\n  jump\t// out\n    /* \"#utility.yul\":2677:3530   */\ntag_3:\n    /* \"#utility.yul\":2776:2782   */\n  0x00\n    /* \"#utility.yul\":2784:2790   */\n  dup1\n    /* \"#utility.yul\":2833:2835   */\n  0x40\n    /* \"#utility.yul\":2821:2830   */\n  dup4\n    /* \"#utility.yul\":2812:2819   */\n  dup6\n    /* \"#utility.yul\":2808:2831   */\n  sub\n    /* \"#utility.yul\":2804:2836   */\n  slt\n    /* \"#utility.yul\":2801:2920   */\n  iszero\n  tag_78\n  jumpi\n    /* \"#utility.yul\":2839:2918   */\n  tag_79\n  tag_13\n  jump\t// in\ntag_79:\n    /* \"#utility.yul\":2801:2920   */\ntag_78:\n    /* \"#utility.yul\":2980:2981   */\n  0x00\n    /* \"#utility.yul\":2969:2978   */\n  dup4\n    /* \"#utility.yul\":2965:2982   */\n  add\n    /* \"#utility.yul\":2959:2983   */\n  mload\n    /* \"#utility.yul\":3010:3028   */\n  0xffffffffffffffff\n    /* \"#utility.yul\":3002:3008   */\n  dup2\n    /* \"#utility.yul\":2999:3029   */\n  gt\n    /* \"#utility.yul\":2996:3113   */\n  iszero\n  tag_80\n  jumpi\n    /* \"#utility.yul\":3032:3111   */\n  tag_81\n  tag_14\n  jump\t// in\ntag_81:\n    /* \"#utility.yul\":2996:3113   */\ntag_80:\n    /* \"#utility.yul\":3137:3211   */\n  tag_82\n    /* \"#utility.yul\":3203:3210   */\n  dup6\n    /* \"#utility.yul\":3194:3200   */\n  dup3\n    /* \"#utility.yul\":3183:3192   */\n  dup7\n    /* \"#utility.yul\":3179:3201   */\n  add\n    /* \"#utility.yul\":3137:3211   */\n  tag_24\n  jump\t// in\ntag_82:\n    /* \"#utility.yul\":3127:3211   */\n  swap3\n  pop\n    /* \"#utility.yul\":2930:3221   */\n  pop\n    /* \"#utility.yul\":3281:3283   */\n  0x20\n    /* \"#utility.yul\":3270:3279   */\n  dup4\n    /* \"#utility.yul\":3266:3284   */\n  add\n    /* \"#utility.yul\":3260:3285   */\n  mload\n    /* \"#utility.yul\":3312:3330   */\n  0xffffffffffffffff\n    /* \"#utility.yul\":3304:3310   */\n  dup2\n    /* \"#utility.yul\":3301:3331   */\n  gt\n    /* \"#utility.yul\":3298:3415   */\n  iszero\n  tag_83\n  jumpi\n    /* \"#utility.yul\":3334:3413   */\n  tag_84\n  tag_14\n  jump\t// in\ntag_84:\n    /* \"#utility.yul\":3298:3415   */\ntag_83:\n    /* \"#utility.yul\":3439:3513   */\n  tag_85\n    /* \"#utility.yul\":3505:3512   */\n  dup6\n    /* \"#utility.yul\":3496:3502   */\n  dup3\n    /* \"#utility.yul\":3485:3494   */\n  dup7\n    /* \"#utility.yul\":3481:3503   */\n  add\n    /* \"#utility.yul\":3439:3513   */\n  tag_24\n  jump\t// in\ntag_85:\n    /* \"#utility.yul\":3429:3513   */\n  swap2\n  pop\n    /* \"#utility.yul\":3231:3523   */\n  pop\n    /* \"#utility.yul\":2677:3530   */\n  swap3\n  pop\n  swap3\n  swap1\n  pop\n  jump\t// out\n    /* \"#utility.yul\":3536:3635   */\ntag_25:\n    /* \"#utility.yul\":3588:3594   */\n  0x00\n    /* \"#utility.yul\":3622:3627   */\n  dup2\n    /* \"#utility.yul\":3616:3628   */\n  mload\n    /* \"#utility.yul\":3606:3628   */\n  swap1\n  pop\n    /* \"#utility.yul\":3536:3635   */\n  swap2\n  swap1\n  pop\n  jump\t// out\n    /* \"#utility.yul\":3641:3821   */\ntag_26:\n    /* \"#utility.yul\":3689:3766   */\n  0x4e487b7100000000000000000000000000000000000000000000000000000000\n    /* \"#utility.yul\":3686:3687   */\n  0x00\n    /* \"#utility.yul\":3679:3767   */\n  mstore\n    /* \"#utility.yul\":3786:3790   */\n  0x22\n    /* \"#utility.yul\":3783:3784   */\n  0x04\n    /* \"#utility.yul\":3776:3791   */\n  mstore\n    /* \"#utility.yul\":3810:3814   */\n  0x24\n    /* \"#utility.yul\":3807:3808   */\n  0x00\n    /* \"#utility.yul\":3800:3815   */\n  revert\n    /* \"#utility.yul\":3827:4147   */\ntag_27:\n    /* \"#utility.yul\":3871:3877   */\n  0x00\n    /* \"#utility.yul\":3908:3909   */\n  0x02\n    /* \"#utility.yul\":3902:3906   */\n  dup3\n    /* \"#utility.yul\":3898:3910   */\n  div\n    /* \"#utility.yul\":3888:3910   */\n  swap1\n  pop\n    /* \"#utility.yul\":3955:3956   */\n  0x01\n    /* \"#utility.yul\":3949:3953   */\n  dup3\n    /* \"#utility.yul\":3945:3957   */\n  and\n    /* \"#utility.yul\":3976:3994   */\n  dup1\n    /* \"#utility.yul\":3966:4047   */\n  tag_89\n  jumpi\n    /* \"#utility.yul\":4032:4036   */\n  0x7f\n    /* \"#utility.yul\":4024:4030   */\n  dup3\n    /* \"#utility.yul\":4020:4037   */\n  and\n    /* \"#utility.yul\":4010:4037   */\n  swap2\n  pop\n    /* \"#utility.yul\":3966:4047   */\ntag_89:\n    /* \"#utility.yul\":4094:4096   */\n  0x20\n    /* \"#utility.yul\":4086:4092   */\n  dup3\n    /* \"#utility.yul\":4083:4097   */\n  lt\n    /* \"#utility.yul\":4063:4081   */\n  dup2\n    /* \"#utility.yul\":4060:4098   */\n  sub\n    /* \"#utility.yul\":4057:4141   */\n  tag_90\n  jumpi\n    /* \"#utility.yul\":4113:4131   */\n  tag_91\n  tag_26\n  jump\t// in\ntag_91:\n    /* \"#utility.yul\":4057:4141   */\ntag_90:\n    /* \"#utility.yul\":3878:4147   */\n  pop\n    /* \"#utility.yul\":3827:4147   */\n  swap2\n  swap1\n  pop\n  jump\t// out\n    /* \"#utility.yul\":4153:4294   */\ntag_28:\n    /* \"#utility.yul\":4202:4206   */\n  0x00\n    /* \"#utility.yul\":4225:4228   */\n  dup2\n    /* \"#utility.yul\":4217:4228   */\n  swap1\n  pop\n    /* \"#utility.yul\":4248:4251   */\n  dup2\n    /* \"#utility.yul\":4245:4246   */\n  0x00\n    /* \"#utility.yul\":4238:4252   */\n  mstore\n    /* \"#utility.yul\":4282:4286   */\n  0x20\n    /* \"#utility.yul\":4279:4280   */\n  0x00\n    /* \"#utility.yul\":4269:4287   */\n  keccak256\n    /* \"#utility.yul\":4261:4287   */\n  swap1\n  pop\n    /* \"#utility.yul\":4153:4294   */\n  swap2\n  swap1\n  pop\n  jump\t// out\n    /* \"#utility.yul\":4300:4393   */\ntag_29:\n    /* \"#utility.yul\":4337:4343   */\n  0x00\n    /* \"#utility.yul\":4384:4386   */\n  0x20\n    /* \"#utility.yul\":4379:4381   */\n  0x1f\n    /* \"#utility.yul\":4372:4377   */\n  dup4\n    /* \"#utility.yul\":4368:4382   */\n  add\n    /* \"#utility.yul\":4364:4387   */\n  div\n    /* \"#utility.yul\":4354:4387   */\n  swap1\n  pop\n    /* \"#utility.yul\":4300:4393   */\n  swap2\n  swap1\n  pop\n  jump\t// out\n    /* \"#utility.yul\":4399:4506   */\ntag_30:\n    /* \"#utility.yul\":4443:4451   */\n  0x00\n    /* \"#utility.yul\":4493:4498   */\n  dup3\n    /* \"#utility.yul\":4487:4491   */\n  dup3\n    /* \"#utility.yul\":4483:4499   */\n  shl\n    /* \"#utility.yul\":4462:4499   */\n  swap1\n  pop\n    /* \"#utility.yul\":4399:4506   */\n  swap3\n  swap2\n  pop\n  pop\n  jump\t// out\n    /* \"#utility.yul\":4512:4905   */\ntag_31:\n    /* \"#utility.yul\":4581:4587   */\n  0x00\n    /* \"#utility.yul\":4631:4632   */\n  0x08\n    /* \"#utility.yul\":4619:4629   */\n  dup4\n    /* \"#utility.yul\":4615:4633   */\n  mul\n    /* \"#utility.yul\":4654:4751   */\n  tag_96\n    /* \"#utility.yul\":4684:4750   */\n  0xffffffffffffffffffffffffffffffffffffffffffffffffffffffffffffffff\n    /* \"#utility.yul\":4673:4682   */\n  dup3\n    /* \"#utility.yul\":4654:4751   */\n  tag_30\n  jump\t// in\ntag_96:\n    /* \"#utility.yul\":4772:4811   */\n  tag_97\n    /* \"#utility.yul\":4802:4810   */\n  dup7\n    /* \"#utility.yul\":4791:4800   */\n  dup4\n    /* \"#utility.yul\":4772:4811   */\n  tag_30\n  jump\t// in\ntag_97:\n    /* \"#utility.yul\":4760:4811   */\n  swap6\n  pop\n    /* \"#utility.yul\":4844:4848   */\n  dup1\n    /* \"#utility.yul\":4840:4849   */\n  not\n    /* \"#utility.yul\":4833:4838   */\n  dup5\n    /* \"#utility.yul\":4829:4850   */\n  and\n    /* \"#utility.yul\":4820:4850   */\n  swap4\n  pop\n    /* \"#utility.yul\":4893:4897   */\n  dup1\n    /* \"#utility.yul\":4883:4891   */\n  dup7\n    /* \"#utility.yul\":4879:4898   */\n  and\n    /* \"#utility.yul\":4872:4877   */\n  dup5\n    /* \"#utility.yul\":4869:4899   */\n  or\n    /* \"#utility.yul\":4859:4899   */\n  swap3\n  pop\n    /* \"#utility.yul\":4588:4905   */\n  pop\n  pop\n    /* \"#utility.yul\":4512:4905   */\n  swap4\n  swap3\n  pop\n  pop\n  pop\n  jump\t// out\n    /* \"#utility.yul\":4911:4988   */\ntag_32:\n    /* \"#utility.yul\":4948:4955   */\n  0x00\n    /* \"#utility.yul\":4977:4982   */\n  dup2\n    /* \"#utility.yul\":4966:4982   */\n  swap1\n  pop\n    /* \"#utility.yul\":4911:4988   */\n  swap2\n  swap1\n  pop\n  jump\t// out\n    /* \"#utility.yul\":4994:5054   */\ntag_33:\n    /* \"#utility.yul\":5022:5025   */\n  0x00\n    /* \"#utility.yul\":5043:5048   */\n  dup2\n    /* \"#utility.yul\":5036:5048   */\n  swap1\n  pop\n    /* \"#utility.yul\":4994:5054   */\n  swap2\n  swap1\n  pop\n  jump\t// out\n    /* \"#utility.yul\":5060:5202   */\ntag_34:\n    /* \"#utility.yul\":5110:5119   */\n  0x00\n    /* \"#utility.yul\":5143:5196   */\n  tag_101\n    /* \"#utility.yul\":5161:5195   */\n  tag_102\n    /* \"#utility.yul\":5170:5194   */\n  tag_103\n    /* \"#utility.yul\":5188:5193   */\n  dup5\n    /* \"#utility.yul\":5170:5194   */\n  tag_32\n  jump\t// in\ntag_103:\n    /* \"#utility.yul\":5161:5195   */\n  tag_33\n  jump\t// in\ntag_102:\n    /* \"#utility.yul\":5143:5196   */\n  tag_32\n  jump\t// in\ntag_101:\n    /* \"#utility.yul\":5130:5196   */\n  swap1\n  pop\n    /* \"#utility.yul\":5060:5202   */\n  swap2\n  swap1\n  pop\n  jump\t// out\n    /* \"#utility.yul\":5208:5283   */\ntag_35:\n    /* \"#utility.yul\":5251:5254   */\n  0x00\n    /* \"#utility.yul\":5272:5277   */\n  dup2\n    /* \"#utility.yul\":5265:5277   */\n  swap1\n  pop\n    /* \"#utility.yul\":5208:5283   */\n  swap2\n  swap1\n  pop\n  jump\t// out\n    /* \"#utility.yul\":5289:5558   */\ntag_36:\n    /* \"#utility.yul\":5399:5438   */\n  tag_106\n    /* \"#utility.yul\":5430:5437   */\n  dup4\n    /* \"#utility.yul\":5399:5438   */\n  tag_34\n  jump\t// in\ntag_106:\n    /* \"#utility.yul\":5460:5551   */\n  tag_107\n    /* \"#utility.yul\":5509:5550   */\n  tag_108\n    /* \"#utility.yul\":5533:5549   */\n  dup3\n    /* \"#utility.yul\":5509:5550   */\n  tag_35\n  jump\t// in\ntag_108:\n    /* \"#utility.yul\":5501:5507   */\n  dup5\n    /* \"#utility.yul\":5494:5498   */\n  dup5\n    /* \"#utility.yul\":5488:5499   */\n  sload\n    /* \"#utility.yul\":5460:5551   */\n  tag_31\n  jump\t// in\ntag_107:\n    /* \"#utility.yul\":5454:5458   */\n  dup3\n    /* \"#utility.yul\":5447:5552   */\n  sstore\n    /* \"#utility.yul\":5365:5558   */\n  pop\n    /* \"#utility.yul\":5289:5558   */\n  pop\n  pop\n  pop\n  jump\t// out\n    /* \"#utility.yul\":5564:5637   */\ntag_37:\n    /* \"#utility.yul\":5609:5612   */\n  0x00\n    /* \"#utility.yul\":5564:5637   */\n  swap1\n  jump\t// out\n    /* \"#utility.yul\":5643:5832   */\ntag_38:\n    /* \"#utility.yul\":5720:5752   */\n  tag_111\n  tag_37\n  jump\t// in\ntag_111:\n    /* \"#utility.yul\":5761:5826   */\n  tag_112\n    /* \"#utility.yul\":5819:5825   */\n  dup2\n    /* \"#utility.yul\":5811:5817   */\n  dup5\n    /* \"#utility.yul\":5805:5809   */\n  dup5\n    /* \"#utility.yul\":5761:5826   */\n  tag_36\n  jump\t// in\ntag_112:\n    /* \"#utility.yul\":5696:5832   */\n  pop\n    /* \"#utility.yul\":5643:5832   */\n  pop\n  pop\n  jump\t// out\n    /* \"#utility.yul\":5838:6024   */\ntag_39:\n    /* \"#utility.yul\":5898:6018   */\ntag_114:\n    /* \"#utility.yul\":5915:5918   */\n  dup2\n    /* \"#utility.yul\":5908:5913   */\n  dup2\n    /* \"#utility.yul\":5905:5919   */\n  lt\n    /* \"#utility.yul\":5898:6018   */\n  iszero\n  tag_116\n  jumpi\n    /* \"#utility.yul\":5969:6008   */\n  tag_117\n    /* \"#utility.yul\":6006:6007   */\n  0x00\n    /* \"#utility.yul\":5999:6004   */\n  dup3\n    /* \"#utility.yul\":5969:6008   */\n  tag_38\n  jump\t// in\ntag_117:\n    /* \"#utility.yul\":5942:5943   */\n  0x01\n    /* \"#utility.yul\":5935:5940   */\n  dup2\n    /* \"#utility.yul\":5931:5944   */\n  add\n    /* \"#utility.yul\":5922:5944   */\n  swap1\n  pop\n    /* \"#utility.yul\":5898:6018   */\n  jump(tag_114)\ntag_116:\n    /* \"#utility.yul\":5838:6024   */\n  pop\n  pop\n  jump\t// out\n    /* \"#utility.yul\":6030:6573   */\ntag_40:\n    /* \"#utility.yul\":6131:6133   */\n  0x1f\n    /* \"#utility.yul\":6126:6129   */\n  dup3\n    /* \"#utility.yul\":6123:6134   */\n  gt\n    /* \"#utility.yul\":6120:6566   */\n  iszero\n  tag_119\n  jumpi\n    /* \"#utility.yul\":6165:6203   */\n  tag_120\n    /* \"#utility.yul\":6197:6202   */\n  dup2\n    /* \"#utility.yul\":6165:6203   */\n  tag_28\n  jump\t// in\ntag_120:\n    /* \"#utility.yul\":6249:6278   */\n  tag_121\n    /* \"#utility.yul\":6267:6277   */\n  dup5\n    /* \"#utility.yul\":6249:6278   */\n  tag_29\n  jump\t// in\ntag_121:\n    /* \"#utility.yul\":6239:6247   */\n  dup2\n    /* \"#utility.yul\":6235:6279   */\n  add\n    /* \"#utility.yul\":6432:6434   */\n  0x20\n    /* \"#utility.yul\":6420:6430   */\n  dup6\n    /* \"#utility.yul\":6417:6435   */\n  lt\n    /* \"#utility.yul\":6414:6463   */\n  iszero\n  tag_122\n  jumpi\n    /* \"#utility.yul\":6453:6461   */\n  dup2\n    /* \"#utility.yul\":6438:6461   */\n  swap1\n  pop\n    /* \"#utility.yul\":6414:6463   */\ntag_122:\n    /* \"#utility.yul\":6476:6556   */\n  tag_123\n    /* \"#utility.yul\":6532:6554   */\n  tag_124\n    /* \"#utility.yul\":6550:6553   */\n  dup6\n    /* \"#utility.yul\":6532:6554   */\n  tag_29\n  jump\t// in\ntag_124:\n    /* \"#utility.yul\":6522:6530   */\n  dup4\n    /* \"#utility.yul\":6518:6555   */\n  add\n    /* \"#utility.yul\":6505:6516   */\n  dup3\n    /* \"#utility.yul\":6476:6556   */\n  tag_39\n  jump\t// in\ntag_123:\n    /* \"#utility.yul\":6135:6566   */\n  pop\n  pop\n    /* \"#utility.yul\":6120:6566   */\ntag_119:\n    /* \"#utility.yul\":6030:6573   */\n  pop\n  pop\n  pop\n  jump\t// out\n    /* \"#utility.yul\":6579:6696   */\ntag_41:\n    /* \"#utility.yul\":6633:6641   */\n  0x00\n    /* \"#utility.yul\":6683:6688   */\n  dup3\n    /* \"#utility.yul\":6677:6681   */\n  dup3\n    /* \"#utility.yul\":6673:6689   */\n  shr\n    /* \"#utility.yul\":6652:6689   */\n  swap1\n  pop\n    /* \"#utility.yul\":6579:6696   */\n  swap3\n  swap2\n  pop\n  pop\n  jump\t// out\n    /* \"#utility.yul\":6702:6871   */\ntag_42:\n    /* \"#utility.yul\":6746:6752   */\n  0x00\n    /* \"#utility.yul\":6779:6830   */\n  tag_127\n    /* \"#utility.yul\":6827:6828   */\n  0x00\n    /* \"#utility.yul\":6823:6829   */\n  not\n    /* \"#utility.yul\":6815:6820   */\n  dup5\n    /* \"#utility.yul\":6812:6813   */\n  0x08\n    /* \"#utility.yul\":6808:6821   */\n  mul\n    /* \"#utility.yul\":6779:6830   */\n  tag_41\n  jump\t// in\ntag_127:\n    /* \"#utility.yul\":6775:6831   */\n  not\n    /* \"#utility.yul\":6860:6864   */\n  dup1\n    /* \"#utility.yul\":6854:6858   */\n  dup4\n    /* \"#utility.yul\":6850:6865   */\n  and\n    /* \"#utility.yul\":6840:6865   */\n  swap2\n  pop\n    /* \"#utility.yul\":6753:6871   */\n  pop\n    /* \"#utility.yul\":6702:6871   */\n  swap3\n  swap2\n  pop\n  pop\n  jump\t// out\n    /* \"#utility.yul\":6876:7171   */\ntag_43:\n    /* \"#utility.yul\":6952:6956   */\n  0x00\n    /* \"#utility.yul\":7098:7127   */\n  tag_129\n    /* \"#utility.yul\":7123:7126   */\n  dup4\n    /* \"#utility.yul\":7117:7121   */\n  dup4\n    /* \"#utility.yul\":7098:7127   */\n  tag_42\n  jump\t// in\ntag_129:\n    /* \"#utility.yul\":7090:7127   */\n  swap2\n  pop\n    /* \"#utility.yul\":7160:7163   */\n  dup3\n    /* \"#utility.yul\":7157:7158   */\n  0x02\n    /* \"#utility.yul\":7153:7164   */\n  mul\n    /* \"#utility.yul\":7147:7151   */\n  dup3\n    /* \"#utility.yul\":7144:7165   */\n  or\n    /* \"#utility.yul\":7136:7165   */\n  swap1\n  pop\n    /* \"#utility.yul\":6876:7171   */\n  swap3\n  swap2\n  pop\n  pop\n  jump\t// out\n    /* \"#utility.yul\":7176:8571   */\ntag_8:\n    /* \"#utility.yul\":7293:7330   */\n  tag_131\n    /* \"#utility.yul\":7326:7329   */\n  dup3\n    /* \"#utility.yul\":7293:7330   */\n  tag_25\n  jump\t// in\ntag_131:\n    /* \"#utility.yul\":7395:7413   */\n  0xffffffffffffffff\n    /* \"#utility.yul\":7387:7393   */\n  dup2\n    /* \"#utility.yul\":7384:7414   */\n  gt\n    /* \"#utility.yul\":7381:7437   */\n  iszero\n  tag_132\n  jumpi\n    /* \"#utility.yul\":7417:7435   */\n  tag_133\n  tag_18\n  jump\t// in\ntag_133:\n    /* \"#utility.yul\":7381:7437   */\ntag_132:\n    /* \"#utility.yul\":7461:7499   */\n  tag_134\n    /* \"#utility.yul\":7493:7497   */\n  dup3\n    /* \"#utility.yul\":7487:7498   */\n  sload\n    /* \"#utility.yul\":7461:7499   */\n  tag_27\n  jump\t// in\ntag_134:\n    /* \"#utility.yul\":7546:7613   */\n  tag_135\n    /* \"#utility.yul\":7606:7612   */\n  dup3\n    /* \"#utility.yul\":7598:7604   */\n  dup3\n    /* \"#utility.yul\":7592:7596   */\n  dup6\n    /* \"#utility.yul\":7546:7613   */\n  tag_40\n  jump\t// in\ntag_135:\n    /* \"#utility.yul\":7640:7641   */\n  0x00\n    /* \"#utility.yul\":7664:7668   */\n  0x20\n    /* \"#utility.yul\":7651:7668   */\n  swap1\n  pop\n    /* \"#utility.yul\":7696:7698   */\n  0x1f\n    /* \"#utility.yul\":7688:7694   */\n  dup4\n    /* \"#utility.yul\":7685:7699   */\n  gt\n    /* \"#utility.yul\":7713:7714   */\n  0x01\n    /* \"#utility.yul\":7708:8326   */\n  dup2\n  eq\n  tag_137\n  jumpi\n    /* \"#utility.yul\":8370:8371   */\n  0x00\n    /* \"#utility.yul\":8387:8393   */\n  dup5\n    /* \"#utility.yul\":8384:8461   */\n  iszero\n  tag_138\n  jumpi\n    /* \"#utility.yul\":8436:8445   */\n  dup3\n    /* \"#utility.yul\":8431:8434   */\n  dup8\n    /* \"#utility.yul\":8427:8446   */\n  add\n    /* \"#utility.yul\":8421:8447   */\n  mload\n    /* \"#utility.yul\":8412:8447   */\n  swap1\n  pop\n    /* \"#utility.yul\":8384:8461   */\ntag_138:\n    /* \"#utility.yul\":8487:8554   */\n  tag_139\n    /* \"#utility.yul\":8547:8553   */\n  dup6\n    /* \"#utility.yul\":8540:8545   */\n  dup3\n    /* \"#utility.yul\":8487:8554   */\n  tag_43\n  jump\t// in\ntag_139:\n    /* \"#utility.yul\":8481:8485   */\n  dup7\n    /* \"#utility.yul\":8474:8555   */\n  sstore\n    /* \"#utility.yul\":8343:8565   */\n  pop\n    /* \"#utility.yul\":7678:8565   */\n  jump(tag_136)\n    /* \"#utility.yul\":7708:8326   */\ntag_137:\n    /* \"#utility.yul\":7760:7764   */\n  0x1f\n    /* \"#utility.yul\":7756:7765   */\n  not\n    /* \"#utility.yul\":7748:7754   */\n  dup5\n    /* \"#utility.yul\":7744:7766   */\n  and\n    /* \"#utility.yul\":7794:7831   */\n  tag_140\n    /* \"#utility.yul\":7826:7830   */\n  dup7\n    /* \"#utility.yul\":7794:7831   */\n  tag_28\n  jump\t// in\ntag_140:\n    /* \"#utility.yul\":7853:7854   */\n  0x00\n    /* \"#utility.yul\":7867:8075   */\ntag_141:\n    /* \"#utility.yul\":7881:7888   */\n  dup3\n    /* \"#utility.yul\":7878:7879   */\n  dup2\n    /* \"#utility.yul\":7875:7889   */\n  lt\n    /* \"#utility.yul\":7867:8075   */\n  iszero\n  tag_143\n  jumpi\n    /* \"#utility.yul\":7960:7969   */\n  dup5\n    /* \"#utility.yul\":7955:7958   */\n  dup10\n    /* \"#utility.yul\":7951:7970   */\n  add\n    /* \"#utility.yul\":7945:7971   */\n  mload\n    /* \"#utility.yul\":7937:7943   */\n  dup3\n    /* \"#utility.yul\":7930:7972   */\n  sstore\n    /* \"#utility.yul\":8011:8012   */\n  0x01\n    /* \"#utility.yul\":8003:8009   */\n  dup3\n    /* \"#utility.yul\":7999:8013   */\n  add\n    /* \"#utility.yul\":7989:8013   */\n  swap2\n  pop\n    /* \"#utility.yul\":8058:8060   */\n  0x20\n    /* \"#utility.yul\":8047:8056   */\n  dup6\n    /* \"#utility.yul\":8043:8061   */\n  add\n    /* \"#utility.yul\":8030:8061   */\n  swap5\n  pop\n    /* \"#utility.yul\":7904:7908   */\n  0x20\n    /* \"#utility.yul\":7901:7902   */\n  dup2\n    /* \"#utility.yul\":7897:7909   */\n  add\n    /* \"#utility.yul\":7892:7909   */\n  swap1\n  pop\n    /* \"#utility.yul\":7867:8075   */\n  jump(tag_141)\ntag_143:\n    /* \"#utility.yul\":8103:8109   */\n  dup7\n    /* \"#utility.yul\":8094:8101   */\n  dup4\n    /* \"#utility.yul\":8091:8110   */\n  lt\n    /* \"#utility.yul\":8088:8267   */\n  iszero\n  tag_144\n  jumpi\n    /* \"#utility.yul\":8161:8170   */\n  dup5\n    /* \"#utility.yul\":8156:8159   */\n  dup10\n    /* \"#utility.yul\":8152:8171   */\n  add\n    /* \"#utility.yul\":8146:8172   */\n  mload\n    /* \"#utility.yul\":8204:8252   */\n  tag_145\n    /* \"#utility.yul\":8246:8250   */\n  0x1f\n    /* \"#utility.yul\":8238:8244   */\n  dup10\n    /* \"#utility.yul\":8234:8251   */\n  and\n    /* \"#utility.yul\":8223:8232   */\n  dup3\n    /* \"#utility.yul\":8204:8252   */\n  tag_42\n  jump\t// in\ntag_145:\n    /* \"#utility.yul\":8196:8202   */\n  dup4\n    /* \"#utility.yul\":8189:8253   */\n  sstore\n    /* \"#utility.yul\":8111:8267   */\n  pop\n    /* \"#utility.yul\":8088:8267   */\ntag_144:\n    /* \"#utility.yul\":8313:8314   */\n  0x01\n    /* \"#utility.yul\":8309:8310   */\n  0x02\n    /* \"#utility.yul\":8301:8307   */\n  dup9\n    /* \"#utility.yul\":8297:8311   */\n  mul\n    /* \"#utility.yul\":8293:8315   */\n  add\n    /* \"#utility.yul\":8287:8291   */\n  dup9\n    /* \"#utility.yul\":8280:8316   */\n  sstore\n    /* \"#utility.yul\":7715:8326   */\n  pop\n  pop\n  pop\n    /* \"#utility.yul\":7678:8565   */\ntag_136:\n  pop\n    /* \"#utility.yul\":7268:8571   */\n  pop\n  pop\n  pop\n    /* \"#utility.yul\":7176:8571   */\n  pop\n  pop\n  jump\t// out\n    /* \"contracts/SigReplay.sol\":418:3594  contract SigReplay is ERC20 {... */\ntag_11:\n  dataSize(sub_0)\n  dup1\n  dataOffset(sub_0)\n  0x00\n  codecopy\n  0x00\n  return\nstop\n\nsub_0: assembly {\n        /* \"contracts/SigReplay.sol\":418:3594  contract SigReplay is ERC20 {... */\n      mstore(0x40, 0x80)\n      callvalue\n      dup1\n      iszero\n      tag_1\n      jumpi\n      0x00\n      dup1\n      revert\n    tag_1:\n      pop\n      jumpi(tag_2, lt(calldatasize, 0x04))\n      shr(0xe0, calldataload(0x00))\n      dup1\n      0x53b91ae0\n      gt\n      tag_21\n      jumpi\n      dup1\n      0xa457c2d7\n      gt\n      tag_22\n      jumpi\n      dup1\n      0xa457c2d7\n      eq\n      tag_16\n      jumpi\n      dup1\n      0xa9059cbb\n      eq\n      tag_17\n      jumpi\n      dup1\n      0xaffed0e0\n      eq\n      tag_18\n      jumpi\n      dup1\n      0xdd62ed3e\n      eq\n      tag_19\n      jumpi\n      dup1\n      0xf9c7cb75\n      eq\n      tag_20\n      jumpi\n      jump(tag_2)\n    tag_22:\n      dup1\n      0x53b91ae0\n      eq\n      tag_12\n      jumpi\n      dup1\n      0x70a08231\n      eq\n      tag_13\n      jumpi\n      dup1\n      0x732e3c4d\n      eq\n      tag_14\n      jumpi\n      dup1\n      0x95d89b41\n      eq\n      tag_15\n      jumpi\n      jump(tag_2)\n    tag_21:\n      dup1\n      0x238ac933\n      gt\n      tag_23\n      jumpi\n      dup1\n      0x238ac933\n      eq\n      tag_7\n      jumpi\n      dup1\n      0x23b872dd\n      eq\n      tag_8\n      jumpi\n      dup1\n      0x2d02d85e\n      eq\n      tag_9\n      jumpi\n      dup1\n      0x313ce567\n      eq\n      tag_10\n      jumpi\n      dup1\n      0x39509351\n      eq\n      tag_11\n      jumpi\n      jump(tag_2)\n    tag_23:\n      dup1\n      0x06fdde03\n      eq\n      tag_3\n      jumpi\n      dup1\n      0x095ea7b3\n      eq\n      tag_4\n      jumpi\n      dup1\n      0x18160ddd\n      eq\n      tag_5\n      jumpi\n      dup1\n      0x1e7269c5\n      eq\n      tag_6\n      jumpi\n    tag_2:\n      0x00\n      dup1\n      revert\n        /* \"@openzeppelin/contracts/token/ERC20/ERC20.sol\":2154:2252  function name() public view virtual override returns (string memory) {... */\n    tag_3:\n      tag_24\n      tag_25\n      jump\t// in\n    tag_24:\n      mload(0x40)\n      tag_26\n      swap2\n      swap1\n      tag_27\n      jump\t// in\n    tag_26:\n      mload(0x40)\n      dup1\n      swap2\n      sub\n      swap1\n      return\n        /* \"@openzeppelin/contracts/token/ERC20/ERC20.sol\":4431:4628  function approve(address spender, uint256 amount) public virtual override returns (bool) {... */\n    tag_4:\n      tag_28\n      0x04\n      dup1\n      calldatasize\n      sub\n      dup2\n      add\n      swap1\n      tag_29\n      swap2\n      swap1\n      tag_30\n      jump\t// in\n    tag_29:\n      tag_31\n      jump\t// in\n    tag_28:\n      mload(0x40)\n      tag_32\n      swap2\n      swap1\n      tag_33\n      jump\t// in\n    tag_32:\n      mload(0x40)\n      dup1\n      swap2\n      sub\n      swap1\n      return\n        /* \"@openzeppelin/contracts/token/ERC20/ERC20.sol\":3242:3348  function totalSupply() public view virtual override returns (uint256) {... */\n    tag_5:\n      tag_34\n      tag_35\n      jump\t// in\n    tag_34:\n      mload(0x40)\n      tag_36\n      swap2\n      swap1\n      tag_37\n      jump\t// in\n    tag_36:\n      mload(0x40)\n      dup1\n      swap2\n      sub\n      swap1\n      return\n        /* \"contracts/SigReplay.sol\":479:517  mapping(address => bool) public minted */\n    tag_6:\n      tag_38\n      0x04\n      dup1\n      calldatasize\n      sub\n      dup2\n      add\n      swap1\n      tag_39\n      swap2\n      swap1\n      tag_40\n      jump\t// in\n    tag_39:\n      tag_41\n      jump\t// in\n    tag_38:\n      mload(0x40)\n      tag_42\n      swap2\n      swap1\n      tag_33\n      jump\t// in\n    tag_42:\n      mload(0x40)\n      dup1\n      swap2\n      sub\n      swap1\n      return\n        /* \"contracts/SigReplay.sol\":452:473  address public signer */\n    tag_7:\n      tag_43\n      tag_44\n      jump\t// in\n    tag_43:\n      mload(0x40)\n      tag_45\n      swap2\n      swap1\n      tag_46\n      jump\t// in\n    tag_45:\n      mload(0x40)\n      dup1\n      swap2\n      sub\n      swap1\n      return\n        /* \"@openzeppelin/contracts/token/ERC20/ERC20.sol\":5190:5476  function transferFrom(... */\n    tag_8:\n      tag_47\n      0x04\n      dup1\n      calldatasize\n      sub\n      dup2\n      add\n      swap1\n      tag_48\n      swap2\n      swap1\n      tag_49\n      jump\t// in\n    tag_48:\n      tag_50\n      jump\t// in\n    tag_47:\n      mload(0x40)\n      tag_51\n      swap2\n      swap1\n      tag_33\n      jump\t// in\n    tag_51:\n      mload(0x40)\n      dup1\n      swap2\n      sub\n      swap1\n      return\n        /* \"contracts/SigReplay.sol\":3406:3592  function verifyFun(bytes32 _msgHash, bytes memory _signature)... */\n    tag_9:\n      tag_52\n      0x04\n      dup1\n      calldatasize\n      sub\n      dup2\n      add\n      swap1\n      tag_53\n      swap2\n      swap1\n      tag_54\n      jump\t// in\n    tag_53:\n      tag_55\n      jump\t// in\n    tag_52:\n      mload(0x40)\n      tag_56\n      swap2\n      swap1\n      tag_33\n      jump\t// in\n    tag_56:\n      mload(0x40)\n      dup1\n      swap2\n      sub\n      swap1\n      return\n        /* \"@openzeppelin/contracts/token/ERC20/ERC20.sol\":3091:3182  function decimals() public view virtual override returns (uint8) {... */\n    tag_10:\n      tag_57\n      tag_58\n      jump\t// in\n    tag_57:\n      mload(0x40)\n      tag_59\n      swap2\n      swap1\n      tag_60\n      jump\t// in\n    tag_59:\n      mload(0x40)\n      dup1\n      swap2\n      sub\n      swap1\n      return\n        /* \"@openzeppelin/contracts/token/ERC20/ERC20.sol\":5871:6105  function increaseAllowance(address spender, uint256 addedValue) public virtual returns (bool) {... */\n    tag_11:\n      tag_61\n      0x04\n      dup1\n      calldatasize\n      sub\n      dup2\n      add\n      swap1\n      tag_62\n      swap2\n      swap1\n      tag_30\n      jump\t// in\n    tag_62:\n      tag_63\n      jump\t// in\n    tag_61:\n      mload(0x40)\n      tag_64\n      swap2\n      swap1\n      tag_33\n      jump\t// in\n    tag_64:\n      mload(0x40)\n      dup1\n      swap2\n      sub\n      swap1\n      return\n        /* \"contracts/SigReplay.sol\":2797:3002  function createEthSigMess(bytes32 hash) public pure returns (bytes32) {... */\n    tag_12:\n      tag_65\n      0x04\n      dup1\n      calldatasize\n      sub\n      dup2\n      add\n      swap1\n      tag_66\n      swap2\n      swap1\n      tag_67\n      jump\t// in\n    tag_66:\n      tag_68\n      jump\t// in\n    tag_65:\n      mload(0x40)\n      tag_69\n      swap2\n      swap1\n      tag_70\n      jump\t// in\n    tag_69:\n      mload(0x40)\n      dup1\n      swap2\n      sub\n      swap1\n      return\n        /* \"@openzeppelin/contracts/token/ERC20/ERC20.sol\":3406:3531  function balanceOf(address account) public view virtual override returns (uint256) {... */\n    tag_13:\n      tag_71\n      0x04\n      dup1\n      calldatasize\n      sub\n      dup2\n      add\n      swap1\n      tag_72\n      swap2\n      swap1\n      tag_40\n      jump\t// in\n    tag_72:\n      tag_73\n      jump\t// in\n    tag_71:\n      mload(0x40)\n      tag_74\n      swap2\n      swap1\n      tag_37\n      jump\t// in\n    tag_74:\n      mload(0x40)\n      dup1\n      swap2\n      sub\n      swap1\n      return\n        /* \"contracts/SigReplay.sol\":1545:1736  function createSing(address to, uint256 amount)... */\n    tag_14:\n      tag_75\n      0x04\n      dup1\n      calldatasize\n      sub\n      dup2\n      add\n      swap1\n      tag_76\n      swap2\n      swap1\n      tag_30\n      jump\t// in\n    tag_76:\n      tag_77\n      jump\t// in\n    tag_75:\n      mload(0x40)\n      tag_78\n      swap2\n      swap1\n      tag_70\n      jump\t// in\n    tag_78:\n      mload(0x40)\n      dup1\n      swap2\n      sub\n      swap1\n      return\n        /* \"@openzeppelin/contracts/token/ERC20/ERC20.sol\":2365:2467  function symbol() public view virtual override returns (string memory) {... */\n    tag_15:\n      tag_79\n      tag_80\n      jump\t// in\n    tag_79:\n      mload(0x40)\n      tag_81\n      swap2\n      swap1\n      tag_27\n      jump\t// in\n    tag_81:\n      mload(0x40)\n      dup1\n      swap2\n      sub\n      swap1\n      return\n        /* \"@openzeppelin/contracts/token/ERC20/ERC20.sol\":6592:7019  function decreaseAllowance(address spender, uint256 subtractedValue) public virtual returns (bool) {... */\n    tag_16:\n      tag_82\n      0x04\n      dup1\n      calldatasize\n      sub\n      dup2\n      add\n      swap1\n      tag_83\n      swap2\n      swap1\n      tag_30\n      jump\t// in\n    tag_83:\n      tag_84\n      jump\t// in\n    tag_82:\n      mload(0x40)\n      tag_85\n      swap2\n      swap1\n      tag_33\n      jump\t// in\n    tag_85:\n      mload(0x40)\n      dup1\n      swap2\n      sub\n      swap1\n      return\n        /* \"@openzeppelin/contracts/token/ERC20/ERC20.sol\":3727:3916  function transfer(address to, uint256 amount) public virtual override returns (bool) {... */\n    tag_17:\n      tag_86\n      0x04\n      dup1\n      calldatasize\n      sub\n      dup2\n      add\n      swap1\n      tag_87\n      swap2\n      swap1\n      tag_30\n      jump\t// in\n    tag_87:\n      tag_88\n      jump\t// in\n    tag_86:\n      mload(0x40)\n      tag_89\n      swap2\n      swap1\n      tag_33\n      jump\t// in\n    tag_89:\n      mload(0x40)\n      dup1\n      swap2\n      sub\n      swap1\n      return\n        /* \"contracts/SigReplay.sol\":557:577  uint256 public nonce */\n    tag_18:\n      tag_90\n      tag_91\n      jump\t// in\n    tag_90:\n      mload(0x40)\n      tag_92\n      swap2\n      swap1\n      tag_37\n      jump\t// in\n    tag_92:\n      mload(0x40)\n      dup1\n      swap2\n      sub\n      swap1\n      return\n        /* \"@openzeppelin/contracts/token/ERC20/ERC20.sol\":3974:4123  function allowance(address owner, address spender) public view virtual override returns (uint256) {... */\n    tag_19:\n      tag_93\n      0x04\n      dup1\n      calldatasize\n      sub\n      dup2\n      add\n      swap1\n      tag_94\n      swap2\n      swap1\n      tag_95\n      jump\t// in\n    tag_94:\n      tag_96\n      jump\t// in\n    tag_93:\n      mload(0x40)\n      tag_97\n      swap2\n      swap1\n      tag_37\n      jump\t// in\n    tag_97:\n      mload(0x40)\n      dup1\n      swap2\n      sub\n      swap1\n      return\n        /* \"contracts/SigReplay.sol\":781:1148  function badMint(... */\n    tag_20:\n      tag_98\n      0x04\n      dup1\n      calldatasize\n      sub\n      dup2\n      add\n      swap1\n      tag_99\n      swap2\n      swap1\n      tag_100\n      jump\t// in\n    tag_99:\n      tag_101\n      jump\t// in\n    tag_98:\n      stop\n        /* \"@openzeppelin/contracts/token/ERC20/ERC20.sol\":2154:2252  function name() public view virtual override returns (string memory) {... */\n    tag_25:\n        /* \"@openzeppelin/contracts/token/ERC20/ERC20.sol\":2208:2221  string memory */\n      0x60\n        /* \"@openzeppelin/contracts/token/ERC20/ERC20.sol\":2240:2245  _name */\n      0x03\n        /* \"@openzeppelin/contracts/token/ERC20/ERC20.sol\":2233:2245  return _name */\n      dup1\n      sload\n      tag_103\n      swap1\n      tag_104\n      jump\t// in\n    tag_103:\n      dup1\n      0x1f\n      add\n      0x20\n      dup1\n      swap2\n      div\n      mul\n      0x20\n      add\n      mload(0x40)\n      swap1\n      dup2\n      add\n      0x40\n      mstore\n      dup1\n      swap3\n      swap2\n      swap1\n      dup2\n      dup2\n      mstore\n      0x20\n      add\n      dup3\n      dup1\n      sload\n      tag_105\n      swap1\n      tag_104\n      jump\t// in\n    tag_105:\n      dup1\n      iszero\n      tag_106\n      jumpi\n      dup1\n      0x1f\n      lt\n      tag_107\n      jumpi\n      0x0100\n      dup1\n      dup4\n      sload\n      div\n      mul\n      dup4\n      mstore\n      swap2\n      0x20\n      add\n      swap2\n      jump(tag_106)\n    tag_107:\n      dup3\n      add\n      swap2\n      swap1\n      0x00\n      mstore\n      keccak256(0x00, 0x20)\n      swap1\n    tag_108:\n      dup2\n      sload\n      dup2\n      mstore\n      swap1\n      0x01\n      add\n      swap1\n      0x20\n      add\n      dup1\n      dup4\n      gt\n      tag_108\n      jumpi\n      dup3\n      swap1\n      sub\n      0x1f\n      and\n      dup3\n      add\n      swap2\n    tag_106:\n      pop\n      pop\n      pop\n      pop\n      pop\n      swap1\n      pop\n        /* \"@openzeppelin/contracts/token/ERC20/ERC20.sol\":2154:2252  function name() public view virtual override returns (string memory) {... */\n      swap1\n      jump\t// out\n        /* \"@openzeppelin/contracts/token/ERC20/ERC20.sol\":4431:4628  function approve(address spender, uint256 amount) public virtual override returns (bool) {... */\n    tag_31:\n        /* \"@openzeppelin/contracts/token/ERC20/ERC20.sol\":4514:4518  bool */\n      0x00\n        /* \"@openzeppelin/contracts/token/ERC20/ERC20.sol\":4530:4543  address owner */\n      dup1\n        /* \"@openzeppelin/contracts/token/ERC20/ERC20.sol\":4546:4558  _msgSender() */\n      tag_110\n        /* \"@openzeppelin/contracts/token/ERC20/ERC20.sol\":4546:4556  _msgSender */\n      tag_111\n        /* \"@openzeppelin/contracts/token/ERC20/ERC20.sol\":4546:4558  _msgSender() */\n      jump\t// in\n    tag_110:\n        /* \"@openzeppelin/contracts/token/ERC20/ERC20.sol\":4530:4558  address owner = _msgSender() */\n      swap1\n      pop\n        /* \"@openzeppelin/contracts/token/ERC20/ERC20.sol\":4568:4600  _approve(owner, spender, amount) */\n      tag_112\n        /* \"@openzeppelin/contracts/token/ERC20/ERC20.sol\":4577:4582  owner */\n      dup2\n        /* \"@openzeppelin/contracts/token/ERC20/ERC20.sol\":4584:4591  spender */\n      dup6\n        /* \"@openzeppelin/contracts/token/ERC20/ERC20.sol\":4593:4599  amount */\n      dup6\n        /* \"@openzeppelin/contracts/token/ERC20/ERC20.sol\":4568:4576  _approve */\n      tag_113\n        /* \"@openzeppelin/contracts/token/ERC20/ERC20.sol\":4568:4600  _approve(owner, spender, amount) */\n      jump\t// in\n    tag_112:\n        /* \"@openzeppelin/contracts/token/ERC20/ERC20.sol\":4617:4621  true */\n      0x01\n        /* \"@openzeppelin/contracts/token/ERC20/ERC20.sol\":4610:4621  return true */\n      swap2\n      pop\n      pop\n        /* \"@openzeppelin/contracts/token/ERC20/ERC20.sol\":4431:4628  function approve(address spender, uint256 amount) public virtual override returns (bool) {... */\n      swap3\n      swap2\n      pop\n      pop\n      jump\t// out\n        /* \"@openzeppelin/contracts/token/ERC20/ERC20.sol\":3242:3348  function totalSupply() public view virtual override returns (uint256) {... */\n    tag_35:\n        /* \"@openzeppelin/contracts/token/ERC20/ERC20.sol\":3303:3310  uint256 */\n      0x00\n        /* \"@openzeppelin/contracts/token/ERC20/ERC20.sol\":3329:3341  _totalSupply */\n      sload(0x02)\n        /* \"@openzeppelin/contracts/token/ERC20/ERC20.sol\":3322:3341  return _totalSupply */\n      swap1\n      pop\n        /* \"@openzeppelin/contracts/token/ERC20/ERC20.sol\":3242:3348  function totalSupply() public view virtual override returns (uint256) {... */\n      swap1\n      jump\t// out\n        /* \"contracts/SigReplay.sol\":479:517  mapping(address => bool) public minted */\n    tag_41:\n      mstore(0x20, 0x06)\n      dup1\n      0x00\n      mstore\n      keccak256(0x00, 0x40)\n      0x00\n      swap2\n      pop\n      sload\n      swap1\n      0x0100\n      exp\n      swap1\n      div\n      0xff\n      and\n      dup2\n      jump\t// out\n        /* \"contracts/SigReplay.sol\":452:473  address public signer */\n    tag_44:\n      0x05\n      0x00\n      swap1\n      sload\n      swap1\n      0x0100\n      exp\n      swap1\n      div\n      0xffffffffffffffffffffffffffffffffffffffff\n      and\n      dup2\n      jump\t// out\n        /* \"@openzeppelin/contracts/token/ERC20/ERC20.sol\":5190:5476  function transferFrom(... */\n    tag_50:\n        /* \"@openzeppelin/contracts/token/ERC20/ERC20.sol\":5317:5321  bool */\n      0x00\n        /* \"@openzeppelin/contracts/token/ERC20/ERC20.sol\":5333:5348  address spender */\n      dup1\n        /* \"@openzeppelin/contracts/token/ERC20/ERC20.sol\":5351:5363  _msgSender() */\n      tag_116\n        /* \"@openzeppelin/contracts/token/ERC20/ERC20.sol\":5351:5361  _msgSender */\n      tag_111\n        /* \"@openzeppelin/contracts/token/ERC20/ERC20.sol\":5351:5363  _msgSender() */\n      jump\t// in\n    tag_116:\n        /* \"@openzeppelin/contracts/token/ERC20/ERC20.sol\":5333:5363  address spender = _msgSender() */\n      swap1\n      pop\n        /* \"@openzeppelin/contracts/token/ERC20/ERC20.sol\":5373:5411  _spendAllowance(from, spender, amount) */\n      tag_117\n        /* \"@openzeppelin/contracts/token/ERC20/ERC20.sol\":5389:5393  from */\n      dup6\n        /* \"@openzeppelin/contracts/token/ERC20/ERC20.sol\":5395:5402  spender */\n      dup3\n        /* \"@openzeppelin/contracts/token/ERC20/ERC20.sol\":5404:5410  amount */\n      dup6\n        /* \"@openzeppelin/contracts/token/ERC20/ERC20.sol\":5373:5388  _spendAllowance */\n      tag_118\n        /* \"@openzeppelin/contracts/token/ERC20/ERC20.sol\":5373:5411  _spendAllowance(from, spender, amount) */\n      jump\t// in\n    tag_117:\n        /* \"@openzeppelin/contracts/token/ERC20/ERC20.sol\":5421:5448  _transfer(from, to, amount) */\n      tag_119\n        /* \"@openzeppelin/contracts/token/ERC20/ERC20.sol\":5431:5435  from */\n      dup6\n        /* \"@openzeppelin/contracts/token/ERC20/ERC20.sol\":5437:5439  to */\n      dup6\n        /* \"@openzeppelin/contracts/token/ERC20/ERC20.sol\":5441:5447  amount */\n      dup6\n        /* \"@openzeppelin/contracts/token/ERC20/ERC20.sol\":5421:5430  _transfer */\n      tag_120\n        /* \"@openzeppelin/contracts/token/ERC20/ERC20.sol\":5421:5448  _transfer(from, to, amount) */\n      jump\t// in\n    tag_119:\n        /* \"@openzeppelin/contracts/token/ERC20/ERC20.sol\":5465:5469  true */\n      0x01\n        /* \"@openzeppelin/contracts/token/ERC20/ERC20.sol\":5458:5469  return true */\n      swap2\n      pop\n      pop\n        /* \"@openzeppelin/contracts/token/ERC20/ERC20.sol\":5190:5476  function transferFrom(... */\n      swap4\n      swap3\n      pop\n      pop\n      pop\n      jump\t// out\n        /* \"contracts/SigReplay.sol\":3406:3592  function verifyFun(bytes32 _msgHash, bytes memory _signature)... */\n    tag_55:\n        /* \"contracts/SigReplay.sol\":3513:3517  bool */\n      0x00\n        /* \"contracts/SigReplay.sol\":3579:3585  signer */\n      0x05\n      0x00\n      swap1\n      sload\n      swap1\n      0x0100\n      exp\n      swap1\n      div\n      0xffffffffffffffffffffffffffffffffffffffff\n      and\n        /* \"contracts/SigReplay.sol\":3540:3585  ECDSA.recover(_msgHash, _signature) == signer */\n      0xffffffffffffffffffffffffffffffffffffffff\n      and\n        /* \"contracts/SigReplay.sol\":3540:3575  ECDSA.recover(_msgHash, _signature) */\n      tag_122\n        /* \"contracts/SigReplay.sol\":3554:3562  _msgHash */\n      dup5\n        /* \"contracts/SigReplay.sol\":3564:3574  _signature */\n      dup5\n        /* \"contracts/SigReplay.sol\":3540:3553  ECDSA.recover */\n      tag_123\n        /* \"contracts/SigReplay.sol\":3540:3575  ECDSA.recover(_msgHash, _signature) */\n      jump\t// in\n    tag_122:\n        /* \"contracts/SigReplay.sol\":3540:3585  ECDSA.recover(_msgHash, _signature) == signer */\n      0xffffffffffffffffffffffffffffffffffffffff\n      and\n      eq\n        /* \"contracts/SigReplay.sol\":3533:3585  return ECDSA.recover(_msgHash, _signature) == signer */\n      swap1\n      pop\n        /* \"contracts/SigReplay.sol\":3406:3592  function verifyFun(bytes32 _msgHash, bytes memory _signature)... */\n      swap3\n      swap2\n      pop\n      pop\n      jump\t// out\n        /* \"@openzeppelin/contracts/token/ERC20/ERC20.sol\":3091:3182  function decimals() public view virtual override returns (uint8) {... */\n    tag_58:\n        /* \"@openzeppelin/contracts/token/ERC20/ERC20.sol\":3149:3154  uint8 */\n      0x00\n        /* \"@openzeppelin/contracts/token/ERC20/ERC20.sol\":3173:3175  18 */\n      0x12\n        /* \"@openzeppelin/contracts/token/ERC20/ERC20.sol\":3166:3175  return 18 */\n      swap1\n      pop\n        /* \"@openzeppelin/contracts/token/ERC20/ERC20.sol\":3091:3182  function decimals() public view virtual override returns (uint8) {... */\n      swap1\n      jump\t// out\n        /* \"@openzeppelin/contracts/token/ERC20/ERC20.sol\":5871:6105  function increaseAllowance(address spender, uint256 addedValue) public virtual returns (bool) {... */\n    tag_63:\n        /* \"@openzeppelin/contracts/token/ERC20/ERC20.sol\":5959:5963  bool */\n      0x00\n        /* \"@openzeppelin/contracts/token/ERC20/ERC20.sol\":5975:5988  address owner */\n      dup1\n        /* \"@openzeppelin/contracts/token/ERC20/ERC20.sol\":5991:6003  _msgSender() */\n      tag_126\n        /* \"@openzeppelin/contracts/token/ERC20/ERC20.sol\":5991:6001  _msgSender */\n      tag_111\n        /* \"@openzeppelin/contracts/token/ERC20/ERC20.sol\":5991:6003  _msgSender() */\n      jump\t// in\n    tag_126:\n        /* \"@openzeppelin/contracts/token/ERC20/ERC20.sol\":5975:6003  address owner = _msgSender() */\n      swap1\n      pop\n        /* \"@openzeppelin/contracts/token/ERC20/ERC20.sol\":6013:6077  _approve(owner, spender, allowance(owner, spender) + addedValue) */\n      tag_127\n        /* \"@openzeppelin/contracts/token/ERC20/ERC20.sol\":6022:6027  owner */\n      dup2\n        /* \"@openzeppelin/contracts/token/ERC20/ERC20.sol\":6029:6036  spender */\n      dup6\n        /* \"@openzeppelin/contracts/token/ERC20/ERC20.sol\":6066:6076  addedValue */\n      dup6\n        /* \"@openzeppelin/contracts/token/ERC20/ERC20.sol\":6038:6063  allowance(owner, spender) */\n      tag_128\n        /* \"@openzeppelin/contracts/token/ERC20/ERC20.sol\":6048:6053  owner */\n      dup6\n        /* \"@openzeppelin/contracts/token/ERC20/ERC20.sol\":6055:6062  spender */\n      dup10\n        /* \"@openzeppelin/contracts/token/ERC20/ERC20.sol\":6038:6047  allowance */\n      tag_96\n        /* \"@openzeppelin/contracts/token/ERC20/ERC20.sol\":6038:6063  allowance(owner, spender) */\n      jump\t// in\n    tag_128:\n        /* \"@openzeppelin/contracts/token/ERC20/ERC20.sol\":6038:6076  allowance(owner, spender) + addedValue */\n      tag_129\n      swap2\n      swap1\n      tag_130\n      jump\t// in\n    tag_129:\n        /* \"@openzeppelin/contracts/token/ERC20/ERC20.sol\":6013:6021  _approve */\n      tag_113\n        /* \"@openzeppelin/contracts/token/ERC20/ERC20.sol\":6013:6077  _approve(owner, spender, allowance(owner, spender) + addedValue) */\n      jump\t// in\n    tag_127:\n        /* \"@openzeppelin/contracts/token/ERC20/ERC20.sol\":6094:6098  true */\n      0x01\n        /* \"@openzeppelin/contracts/token/ERC20/ERC20.sol\":6087:6098  return true */\n      swap2\n      pop\n      pop\n        /* \"@openzeppelin/contracts/token/ERC20/ERC20.sol\":5871:6105  function increaseAllowance(address spender, uint256 addedValue) public virtual returns (bool) {... */\n      swap3\n      swap2\n      pop\n      pop\n      jump\t// out\n        /* \"contracts/SigReplay.sol\":2797:3002  function createEthSigMess(bytes32 hash) public pure returns (bytes32) {... */\n    tag_68:\n        /* \"contracts/SigReplay.sol\":2858:2865  bytes32 */\n      0x00\n        /* \"contracts/SigReplay.sol\":2976:2980  hash */\n      dup2\n        /* \"contracts/SigReplay.sol\":2923:2981  abi.encodePacked(\"\\x19Ethereum Signed Message:\\n32\", hash) */\n      add(0x20, mload(0x40))\n      tag_132\n      swap2\n      swap1\n      tag_133\n      jump\t// in\n    tag_132:\n      mload(0x40)\n      0x20\n      dup2\n      dup4\n      sub\n      sub\n      dup2\n      mstore\n      swap1\n      0x40\n      mstore\n        /* \"contracts/SigReplay.sol\":2896:2995  keccak256(... */\n      dup1\n      mload\n      swap1\n      0x20\n      add\n      keccak256\n        /* \"contracts/SigReplay.sol\":2877:2995  return... */\n      swap1\n      pop\n        /* \"contracts/SigReplay.sol\":2797:3002  function createEthSigMess(bytes32 hash) public pure returns (bytes32) {... */\n      swap2\n      swap1\n      pop\n      jump\t// out\n        /* \"@openzeppelin/contracts/token/ERC20/ERC20.sol\":3406:3531  function balanceOf(address account) public view virtual override returns (uint256) {... */\n    tag_73:\n        /* \"@openzeppelin/contracts/token/ERC20/ERC20.sol\":3480:3487  uint256 */\n      0x00\n        /* \"@openzeppelin/contracts/token/ERC20/ERC20.sol\":3506:3515  _balances */\n      dup1\n        /* \"@openzeppelin/contracts/token/ERC20/ERC20.sol\":3506:3524  _balances[account] */\n      0x00\n        /* \"@openzeppelin/contracts/token/ERC20/ERC20.sol\":3516:3523  account */\n      dup4\n        /* \"@openzeppelin/contracts/token/ERC20/ERC20.sol\":3506:3524  _balances[account] */\n      0xffffffffffffffffffffffffffffffffffffffff\n      and\n      0xffffffffffffffffffffffffffffffffffffffff\n      and\n      dup2\n      mstore\n      0x20\n      add\n      swap1\n      dup2\n      mstore\n      0x20\n      add\n      0x00\n      keccak256\n      sload\n        /* \"@openzeppelin/contracts/token/ERC20/ERC20.sol\":3499:3524  return _balances[account] */\n      swap1\n      pop\n        /* \"@openzeppelin/contracts/token/ERC20/ERC20.sol\":3406:3531  function balanceOf(address account) public view virtual override returns (uint256) {... */\n      swap2\n      swap1\n      pop\n      jump\t// out\n        /* \"contracts/SigReplay.sol\":1545:1736  function createSing(address to, uint256 amount)... */\n    tag_77:\n        /* \"contracts/SigReplay.sol\":1638:1645  bytes32 */\n      0x00\n        /* \"contracts/SigReplay.sol\":1695:1697  to */\n      dup3\n        /* \"contracts/SigReplay.sol\":1699:1705  amount */\n      dup3\n        /* \"contracts/SigReplay.sol\":1707:1712  nonce */\n      sload(0x07)\n        /* \"contracts/SigReplay.sol\":1714:1727  block.chainid */\n      chainid\n        /* \"contracts/SigReplay.sol\":1678:1728  abi.encodePacked(to, amount, nonce, block.chainid) */\n      add(0x20, mload(0x40))\n      tag_136\n      swap5\n      swap4\n      swap3\n      swap2\n      swap1\n      tag_137\n      jump\t// in\n    tag_136:\n      mload(0x40)\n      0x20\n      dup2\n      dup4\n      sub\n      sub\n      dup2\n      mstore\n      swap1\n      0x40\n      mstore\n        /* \"contracts/SigReplay.sol\":1668:1729  keccak256(abi.encodePacked(to, amount, nonce, block.chainid)) */\n      dup1\n      mload\n      swap1\n      0x20\n      add\n      keccak256\n        /* \"contracts/SigReplay.sol\":1661:1729  return keccak256(abi.encodePacked(to, amount, nonce, block.chainid)) */\n      swap1\n      pop\n        /* \"contracts/SigReplay.sol\":1545:1736  function createSing(address to, uint256 amount)... */\n      swap3\n      swap2\n      pop\n      pop\n      jump\t// out\n        /* \"@openzeppelin/contracts/token/ERC20/ERC20.sol\":2365:2467  function symbol() public view virtual override returns (string memory) {... */\n    tag_80:\n        /* \"@openzeppelin/contracts/token/ERC20/ERC20.sol\":2421:2434  string memory */\n      0x60\n        /* \"@openzeppelin/contracts/token/ERC20/ERC20.sol\":2453:2460  _symbol */\n      0x04\n        /* \"@openzeppelin/contracts/token/ERC20/ERC20.sol\":2446:2460  return _symbol */\n      dup1\n      sload\n      tag_139\n      swap1\n      tag_104\n      jump\t// in\n    tag_139:\n      dup1\n      0x1f\n      add\n      0x20\n      dup1\n      swap2\n      div\n      mul\n      0x20\n      add\n      mload(0x40)\n      swap1\n      dup2\n      add\n      0x40\n      mstore\n      dup1\n      swap3\n      swap2\n      swap1\n      dup2\n      dup2\n      mstore\n      0x20\n      add\n      dup3\n      dup1\n      sload\n      tag_140\n      swap1\n      tag_104\n      jump\t// in\n    tag_140:\n      dup1\n      iszero\n      tag_141\n      jumpi\n      dup1\n      0x1f\n      lt\n      tag_142\n      jumpi\n      0x0100\n      dup1\n      dup4\n      sload\n      div\n      mul\n      dup4\n      mstore\n      swap2\n      0x20\n      add\n      swap2\n      jump(tag_141)\n    tag_142:\n      dup3\n      add\n      swap2\n      swap1\n      0x00\n      mstore\n      keccak256(0x00, 0x20)\n      swap1\n    tag_143:\n      dup2\n      sload\n      dup2\n      mstore\n      swap1\n      0x01\n      add\n      swap1\n      0x20\n      add\n      dup1\n      dup4\n      gt\n      tag_143\n      jumpi\n      dup3\n      swap1\n      sub\n      0x1f\n      and\n      dup3\n      add\n      swap2\n    tag_141:\n      pop\n      pop\n      pop\n      pop\n      pop\n      swap1\n      pop\n        /* \"@openzeppelin/contracts/token/ERC20/ERC20.sol\":2365:2467  function symbol() public view virtual override returns (string memory) {... */\n      swap1\n      jump\t// out\n        /* \"@openzeppelin/contracts/token/ERC20/ERC20.sol\":6592:7019  function decreaseAllowance(address spender, uint256 subtractedValue) public virtual returns (bool) {... */\n    tag_84:\n        /* \"@openzeppelin/contracts/token/ERC20/ERC20.sol\":6685:6689  bool */\n      0x00\n        /* \"@openzeppelin/contracts/token/ERC20/ERC20.sol\":6701:6714  address owner */\n      dup1\n        /* \"@openzeppelin/contracts/token/ERC20/ERC20.sol\":6717:6729  _msgSender() */\n      tag_145\n        /* \"@openzeppelin/contracts/token/ERC20/ERC20.sol\":6717:6727  _msgSender */\n      tag_111\n        /* \"@openzeppelin/contracts/token/ERC20/ERC20.sol\":6717:6729  _msgSender() */\n      jump\t// in\n    tag_145:\n        /* \"@openzeppelin/contracts/token/ERC20/ERC20.sol\":6701:6729  address owner = _msgSender() */\n      swap1\n      pop\n        /* \"@openzeppelin/contracts/token/ERC20/ERC20.sol\":6739:6763  uint256 currentAllowance */\n      0x00\n        /* \"@openzeppelin/contracts/token/ERC20/ERC20.sol\":6766:6791  allowance(owner, spender) */\n      tag_146\n        /* \"@openzeppelin/contracts/token/ERC20/ERC20.sol\":6776:6781  owner */\n      dup3\n        /* \"@openzeppelin/contracts/token/ERC20/ERC20.sol\":6783:6790  spender */\n      dup7\n        /* \"@openzeppelin/contracts/token/ERC20/ERC20.sol\":6766:6775  allowance */\n      tag_96\n        /* \"@openzeppelin/contracts/token/ERC20/ERC20.sol\":6766:6791  allowance(owner, spender) */\n      jump\t// in\n    tag_146:\n        /* \"@openzeppelin/contracts/token/ERC20/ERC20.sol\":6739:6791  uint256 currentAllowance = allowance(owner, spender) */\n      swap1\n      pop\n        /* \"@openzeppelin/contracts/token/ERC20/ERC20.sol\":6829:6844  subtractedValue */\n      dup4\n        /* \"@openzeppelin/contracts/token/ERC20/ERC20.sol\":6809:6825  currentAllowance */\n      dup2\n        /* \"@openzeppelin/contracts/token/ERC20/ERC20.sol\":6809:6844  currentAllowance >= subtractedValue */\n      lt\n      iszero\n        /* \"@openzeppelin/contracts/token/ERC20/ERC20.sol\":6801:6886  require(currentAllowance >= subtractedValue, \"ERC20: decreased allowance below zero\") */\n      tag_147\n      jumpi\n      mload(0x40)\n      0x08c379a000000000000000000000000000000000000000000000000000000000\n      dup2\n      mstore\n      0x04\n      add\n      tag_148\n      swap1\n      tag_149\n      jump\t// in\n    tag_148:\n      mload(0x40)\n      dup1\n      swap2\n      sub\n      swap1\n      revert\n    tag_147:\n        /* \"@openzeppelin/contracts/token/ERC20/ERC20.sol\":6920:6980  _approve(owner, spender, currentAllowance - subtractedValue) */\n      tag_150\n        /* \"@openzeppelin/contracts/token/ERC20/ERC20.sol\":6929:6934  owner */\n      dup3\n        /* \"@openzeppelin/contracts/token/ERC20/ERC20.sol\":6936:6943  spender */\n      dup7\n        /* \"@openzeppelin/contracts/token/ERC20/ERC20.sol\":6964:6979  subtractedValue */\n      dup7\n        /* \"@openzeppelin/contracts/token/ERC20/ERC20.sol\":6945:6961  currentAllowance */\n      dup5\n        /* \"@openzeppelin/contracts/token/ERC20/ERC20.sol\":6945:6979  currentAllowance - subtractedValue */\n      sub\n        /* \"@openzeppelin/contracts/token/ERC20/ERC20.sol\":6920:6928  _approve */\n      tag_113\n        /* \"@openzeppelin/contracts/token/ERC20/ERC20.sol\":6920:6980  _approve(owner, spender, currentAllowance - subtractedValue) */\n      jump\t// in\n    tag_150:\n        /* \"@openzeppelin/contracts/token/ERC20/ERC20.sol\":7008:7012  true */\n      0x01\n        /* \"@openzeppelin/contracts/token/ERC20/ERC20.sol\":7001:7012  return true */\n      swap3\n      pop\n      pop\n      pop\n        /* \"@openzeppelin/contracts/token/ERC20/ERC20.sol\":6592:7019  function decreaseAllowance(address spender, uint256 subtractedValue) public virtual returns (bool) {... */\n      swap3\n      swap2\n      pop\n      pop\n      jump\t// out\n        /* \"@openzeppelin/contracts/token/ERC20/ERC20.sol\":3727:3916  function transfer(address to, uint256 amount) public virtual override returns (bool) {... */\n    tag_88:\n        /* \"@openzeppelin/contracts/token/ERC20/ERC20.sol\":3806:3810  bool */\n      0x00\n        /* \"@openzeppelin/contracts/token/ERC20/ERC20.sol\":3822:3835  address owner */\n      dup1\n        /* \"@openzeppelin/contracts/token/ERC20/ERC20.sol\":3838:3850  _msgSender() */\n      tag_152\n        /* \"@openzeppelin/contracts/token/ERC20/ERC20.sol\":3838:3848  _msgSender */\n      tag_111\n        /* \"@openzeppelin/contracts/token/ERC20/ERC20.sol\":3838:3850  _msgSender() */\n      jump\t// in\n    tag_152:\n        /* \"@openzeppelin/contracts/token/ERC20/ERC20.sol\":3822:3850  address owner = _msgSender() */\n      swap1\n      pop\n        /* \"@openzeppelin/contracts/token/ERC20/ERC20.sol\":3860:3888  _transfer(owner, to, amount) */\n      tag_153\n        /* \"@openzeppelin/contracts/token/ERC20/ERC20.sol\":3870:3875  owner */\n      dup2\n        /* \"@openzeppelin/contracts/token/ERC20/ERC20.sol\":3877:3879  to */\n      dup6\n        /* \"@openzeppelin/contracts/token/ERC20/ERC20.sol\":3881:3887  amount */\n      dup6\n        /* \"@openzeppelin/contracts/token/ERC20/ERC20.sol\":3860:3869  _transfer */\n      tag_120\n        /* \"@openzeppelin/contracts/token/ERC20/ERC20.sol\":3860:3888  _transfer(owner, to, amount) */\n      jump\t// in\n    tag_153:\n        /* \"@openzeppelin/contracts/token/ERC20/ERC20.sol\":3905:3909  true */\n      0x01\n        /* \"@openzeppelin/contracts/token/ERC20/ERC20.sol\":3898:3909  return true */\n      swap2\n      pop\n      pop\n        /* \"@openzeppelin/contracts/token/ERC20/ERC20.sol\":3727:3916  function transfer(address to, uint256 amount) public virtual override returns (bool) {... */\n      swap3\n      swap2\n      pop\n      pop\n      jump\t// out\n        /* \"contracts/SigReplay.sol\":557:577  uint256 public nonce */\n    tag_91:\n      sload(0x07)\n      dup2\n      jump\t// out\n        /* \"@openzeppelin/contracts/token/ERC20/ERC20.sol\":3974:4123  function allowance(address owner, address spender) public view virtual override returns (uint256) {... */\n    tag_96:\n        /* \"@openzeppelin/contracts/token/ERC20/ERC20.sol\":4063:4070  uint256 */\n      0x00\n        /* \"@openzeppelin/contracts/token/ERC20/ERC20.sol\":4089:4100  _allowances */\n      0x01\n        /* \"@openzeppelin/contracts/token/ERC20/ERC20.sol\":4089:4107  _allowances[owner] */\n      0x00\n        /* \"@openzeppelin/contracts/token/ERC20/ERC20.sol\":4101:4106  owner */\n      dup5\n        /* \"@openzeppelin/contracts/token/ERC20/ERC20.sol\":4089:4107  _allowances[owner] */\n      0xffffffffffffffffffffffffffffffffffffffff\n      and\n      0xffffffffffffffffffffffffffffffffffffffff\n      and\n      dup2\n      mstore\n      0x20\n      add\n      swap1\n      dup2\n      mstore\n      0x20\n      add\n      0x00\n      keccak256\n        /* \"@openzeppelin/contracts/token/ERC20/ERC20.sol\":4089:4116  _allowances[owner][spender] */\n      0x00\n        /* \"@openzeppelin/contracts/token/ERC20/ERC20.sol\":4108:4115  spender */\n      dup4\n        /* \"@openzeppelin/contracts/token/ERC20/ERC20.sol\":4089:4116  _allowances[owner][spender] */\n      0xffffffffffffffffffffffffffffffffffffffff\n      and\n      0xffffffffffffffffffffffffffffffffffffffff\n      and\n      dup2\n      mstore\n      0x20\n      add\n      swap1\n      dup2\n      mstore\n      0x20\n      add\n      0x00\n      keccak256\n      sload\n        /* \"@openzeppelin/contracts/token/ERC20/ERC20.sol\":4082:4116  return _allowances[owner][spender] */\n      swap1\n      pop\n        /* \"@openzeppelin/contracts/token/ERC20/ERC20.sol\":3974:4123  function allowance(address owner, address spender) public view virtual override returns (uint256) {... */\n      swap3\n      swap2\n      pop\n      pop\n      jump\t// out\n        /* \"contracts/SigReplay.sol\":781:1148  function badMint(... */\n    tag_101:\n        /* \"contracts/SigReplay.sol\":891:904  bytes32 _hash */\n      0x00\n        /* \"contracts/SigReplay.sol\":907:947  createEthSigMess(createSing(to, amount)) */\n      tag_156\n        /* \"contracts/SigReplay.sol\":924:946  createSing(to, amount) */\n      tag_157\n        /* \"contracts/SigReplay.sol\":935:937  to */\n      dup6\n        /* \"contracts/SigReplay.sol\":939:945  amount */\n      dup6\n        /* \"contracts/SigReplay.sol\":924:934  createSing */\n      tag_77\n        /* \"contracts/SigReplay.sol\":924:946  createSing(to, amount) */\n      jump\t// in\n    tag_157:\n        /* \"contracts/SigReplay.sol\":907:923  createEthSigMess */\n      tag_68\n        /* \"contracts/SigReplay.sol\":907:947  createEthSigMess(createSing(to, amount)) */\n      jump\t// in\n    tag_156:\n        /* \"contracts/SigReplay.sol\":891:947  bytes32 _hash = createEthSigMess(createSing(to, amount)) */\n      swap1\n      pop\n        /* \"contracts/SigReplay.sol\":965:986  verifyFun(_hash, sig) */\n      tag_158\n        /* \"contracts/SigReplay.sol\":975:980  _hash */\n      dup2\n        /* \"contracts/SigReplay.sol\":982:985  sig */\n      dup4\n        /* \"contracts/SigReplay.sol\":965:974  verifyFun */\n      tag_55\n        /* \"contracts/SigReplay.sol\":965:986  verifyFun(_hash, sig) */\n      jump\t// in\n    tag_158:\n        /* \"contracts/SigReplay.sol\":957:1006  require(verifyFun(_hash, sig), \"error---bad sig\") */\n      tag_159\n      jumpi\n      mload(0x40)\n      0x08c379a000000000000000000000000000000000000000000000000000000000\n      dup2\n      mstore\n      0x04\n      add\n      tag_160\n      swap1\n      tag_161\n      jump\t// in\n    tag_160:\n      mload(0x40)\n      dup1\n      swap2\n      sub\n      swap1\n      revert\n    tag_159:\n        /* \"contracts/SigReplay.sol\":1025:1031  minted */\n      0x06\n        /* \"contracts/SigReplay.sol\":1025:1043  minted[msg.sender] */\n      0x00\n        /* \"contracts/SigReplay.sol\":1032:1042  msg.sender */\n      caller\n        /* \"contracts/SigReplay.sol\":1025:1043  minted[msg.sender] */\n      0xffffffffffffffffffffffffffffffffffffffff\n      and\n      0xffffffffffffffffffffffffffffffffffffffff\n      and\n      dup2\n      mstore\n      0x20\n      add\n      swap1\n      dup2\n      mstore\n      0x20\n      add\n      0x00\n      keccak256\n      0x00\n      swap1\n      sload\n      swap1\n      0x0100\n      exp\n      swap1\n      div\n      0xff\n      and\n        /* \"contracts/SigReplay.sol\":1024:1043  !minted[msg.sender] */\n      iszero\n        /* \"contracts/SigReplay.sol\":1016:1062  require(!minted[msg.sender], \"error---minted\") */\n      tag_162\n      jumpi\n      mload(0x40)\n      0x08c379a000000000000000000000000000000000000000000000000000000000\n      dup2\n      mstore\n      0x04\n      add\n      tag_163\n      swap1\n      tag_164\n      jump\t// in\n    tag_163:\n      mload(0x40)\n      dup1\n      swap2\n      sub\n      swap1\n      revert\n    tag_162:\n        /* \"contracts/SigReplay.sol\":1093:1097  true */\n      0x01\n        /* \"contracts/SigReplay.sol\":1072:1078  minted */\n      0x06\n        /* \"contracts/SigReplay.sol\":1072:1090  minted[msg.sender] */\n      0x00\n        /* \"contracts/SigReplay.sol\":1079:1089  msg.sender */\n      caller\n        /* \"contracts/SigReplay.sol\":1072:1090  minted[msg.sender] */\n      0xffffffffffffffffffffffffffffffffffffffff\n      and\n      0xffffffffffffffffffffffffffffffffffffffff\n      and\n      dup2\n      mstore\n      0x20\n      add\n      swap1\n      dup2\n      mstore\n      0x20\n      add\n      0x00\n      keccak256\n      0x00\n        /* \"contracts/SigReplay.sol\":1072:1097  minted[msg.sender] = true */\n      0x0100\n      exp\n      dup2\n      sload\n      dup2\n      0xff\n      mul\n      not\n      and\n      swap1\n      dup4\n      iszero\n      iszero\n      mul\n      or\n      swap1\n      sstore\n      pop\n        /* \"contracts/SigReplay.sol\":1107:1124  _mint(to, amount) */\n      tag_165\n        /* \"contracts/SigReplay.sol\":1113:1115  to */\n      dup5\n        /* \"contracts/SigReplay.sol\":1117:1123  amount */\n      dup5\n        /* \"contracts/SigReplay.sol\":1107:1112  _mint */\n      tag_166\n        /* \"contracts/SigReplay.sol\":1107:1124  _mint(to, amount) */\n      jump\t// in\n    tag_165:\n        /* \"contracts/SigReplay.sol\":1134:1139  nonce */\n      0x07\n      0x00\n        /* \"contracts/SigReplay.sol\":1134:1141  nonce++ */\n      dup2\n      sload\n      dup1\n      swap3\n      swap2\n      swap1\n      tag_167\n      swap1\n      tag_168\n      jump\t// in\n    tag_167:\n      swap2\n      swap1\n      pop\n      sstore\n      pop\n        /* \"contracts/SigReplay.sol\":881:1148  {... */\n      pop\n        /* \"contracts/SigReplay.sol\":781:1148  function badMint(... */\n      pop\n      pop\n      pop\n      jump\t// out\n        /* \"@openzeppelin/contracts/utils/Context.sol\":640:736  function _msgSender() internal view virtual returns (address) {... */\n    tag_111:\n        /* \"@openzeppelin/contracts/utils/Context.sol\":693:700  address */\n      0x00\n        /* \"@openzeppelin/contracts/utils/Context.sol\":719:729  msg.sender */\n      caller\n        /* \"@openzeppelin/contracts/utils/Context.sol\":712:729  return msg.sender */\n      swap1\n      pop\n        /* \"@openzeppelin/contracts/utils/Context.sol\":640:736  function _msgSender() internal view virtual returns (address) {... */\n      swap1\n      jump\t// out\n        /* \"@openzeppelin/contracts/token/ERC20/ERC20.sol\":10504:10874  function _approve(... */\n    tag_113:\n        /* \"@openzeppelin/contracts/token/ERC20/ERC20.sol\":10652:10653  0 */\n      0x00\n        /* \"@openzeppelin/contracts/token/ERC20/ERC20.sol\":10635:10654  owner != address(0) */\n      0xffffffffffffffffffffffffffffffffffffffff\n      and\n        /* \"@openzeppelin/contracts/token/ERC20/ERC20.sol\":10635:10640  owner */\n      dup4\n        /* \"@openzeppelin/contracts/token/ERC20/ERC20.sol\":10635:10654  owner != address(0) */\n      0xffffffffffffffffffffffffffffffffffffffff\n      and\n      sub\n        /* \"@openzeppelin/contracts/token/ERC20/ERC20.sol\":10627:10695  require(owner != address(0), \"ERC20: approve from the zero address\") */\n      tag_171\n      jumpi\n      mload(0x40)\n      0x08c379a000000000000000000000000000000000000000000000000000000000\n      dup2\n      mstore\n      0x04\n      add\n      tag_172\n      swap1\n      tag_173\n      jump\t// in\n    tag_172:\n      mload(0x40)\n      dup1\n      swap2\n      sub\n      swap1\n      revert\n    tag_171:\n        /* \"@openzeppelin/contracts/token/ERC20/ERC20.sol\":10732:10733  0 */\n      0x00\n        /* \"@openzeppelin/contracts/token/ERC20/ERC20.sol\":10713:10734  spender != address(0) */\n      0xffffffffffffffffffffffffffffffffffffffff\n      and\n        /* \"@openzeppelin/contracts/token/ERC20/ERC20.sol\":10713:10720  spender */\n      dup3\n        /* \"@openzeppelin/contracts/token/ERC20/ERC20.sol\":10713:10734  spender != address(0) */\n      0xffffffffffffffffffffffffffffffffffffffff\n      and\n      sub\n        /* \"@openzeppelin/contracts/token/ERC20/ERC20.sol\":10705:10773  require(spender != address(0), \"ERC20: approve to the zero address\") */\n      tag_174\n      jumpi\n      mload(0x40)\n      0x08c379a000000000000000000000000000000000000000000000000000000000\n      dup2\n      mstore\n      0x04\n      add\n      tag_175\n      swap1\n      tag_176\n      jump\t// in\n    tag_175:\n      mload(0x40)\n      dup1\n      swap2\n      sub\n      swap1\n      revert\n    tag_174:\n        /* \"@openzeppelin/contracts/token/ERC20/ERC20.sol\":10814:10820  amount */\n      dup1\n        /* \"@openzeppelin/contracts/token/ERC20/ERC20.sol\":10784:10795  _allowances */\n      0x01\n        /* \"@openzeppelin/contracts/token/ERC20/ERC20.sol\":10784:10802  _allowances[owner] */\n      0x00\n        /* \"@openzeppelin/contracts/token/ERC20/ERC20.sol\":10796:10801  owner */\n      dup6\n        /* \"@openzeppelin/contracts/token/ERC20/ERC20.sol\":10784:10802  _allowances[owner] */\n      0xffffffffffffffffffffffffffffffffffffffff\n      and\n      0xffffffffffffffffffffffffffffffffffffffff\n      and\n      dup2\n      mstore\n      0x20\n      add\n      swap1\n      dup2\n      mstore\n      0x20\n      add\n      0x00\n      keccak256\n        /* \"@openzeppelin/contracts/token/ERC20/ERC20.sol\":10784:10811  _allowances[owner][spender] */\n      0x00\n        /* \"@openzeppelin/contracts/token/ERC20/ERC20.sol\":10803:10810  spender */\n      dup5\n        /* \"@openzeppelin/contracts/token/ERC20/ERC20.sol\":10784:10811  _allowances[owner][spender] */\n      0xffffffffffffffffffffffffffffffffffffffff\n      and\n      0xffffffffffffffffffffffffffffffffffffffff\n      and\n      dup2\n      mstore\n      0x20\n      add\n      swap1\n      dup2\n      mstore\n      0x20\n      add\n      0x00\n      keccak256\n        /* \"@openzeppelin/contracts/token/ERC20/ERC20.sol\":10784:10820  _allowances[owner][spender] = amount */\n      dup2\n      swap1\n      sstore\n      pop\n        /* \"@openzeppelin/contracts/token/ERC20/ERC20.sol\":10851:10858  spender */\n      dup2\n        /* \"@openzeppelin/contracts/token/ERC20/ERC20.sol\":10835:10867  Approval(owner, spender, amount) */\n      0xffffffffffffffffffffffffffffffffffffffff\n      and\n        /* \"@openzeppelin/contracts/token/ERC20/ERC20.sol\":10844:10849  owner */\n      dup4\n        /* \"@openzeppelin/contracts/token/ERC20/ERC20.sol\":10835:10867  Approval(owner, spender, amount) */\n      0xffffffffffffffffffffffffffffffffffffffff\n      and\n      0x8c5be1e5ebec7d5bd14f71427d1e84f3dd0314c0f7b2291e5b200ac8c7c3b925\n        /* \"@openzeppelin/contracts/token/ERC20/ERC20.sol\":10860:10866  amount */\n      dup4\n        /* \"@openzeppelin/contracts/token/ERC20/ERC20.sol\":10835:10867  Approval(owner, spender, amount) */\n      mload(0x40)\n      tag_177\n      swap2\n      swap1\n      tag_37\n      jump\t// in\n    tag_177:\n      mload(0x40)\n      dup1\n      swap2\n      sub\n      swap1\n      log3\n        /* \"@openzeppelin/contracts/token/ERC20/ERC20.sol\":10504:10874  function _approve(... */\n      pop\n      pop\n      pop\n      jump\t// out\n        /* \"@openzeppelin/contracts/token/ERC20/ERC20.sol\":11155:11596  function _spendAllowance(... */\n    tag_118:\n        /* \"@openzeppelin/contracts/token/ERC20/ERC20.sol\":11285:11309  uint256 currentAllowance */\n      0x00\n        /* \"@openzeppelin/contracts/token/ERC20/ERC20.sol\":11312:11337  allowance(owner, spender) */\n      tag_179\n        /* \"@openzeppelin/contracts/token/ERC20/ERC20.sol\":11322:11327  owner */\n      dup5\n        /* \"@openzeppelin/contracts/token/ERC20/ERC20.sol\":11329:11336  spender */\n      dup5\n        /* \"@openzeppelin/contracts/token/ERC20/ERC20.sol\":11312:11321  allowance */\n      tag_96\n        /* \"@openzeppelin/contracts/token/ERC20/ERC20.sol\":11312:11337  allowance(owner, spender) */\n      jump\t// in\n    tag_179:\n        /* \"@openzeppelin/contracts/token/ERC20/ERC20.sol\":11285:11337  uint256 currentAllowance = allowance(owner, spender) */\n      swap1\n      pop\n        /* \"@openzeppelin/contracts/token/ERC20/ERC20.sol\":11371:11388  type(uint256).max */\n      0xffffffffffffffffffffffffffffffffffffffffffffffffffffffffffffffff\n        /* \"@openzeppelin/contracts/token/ERC20/ERC20.sol\":11351:11367  currentAllowance */\n      dup2\n        /* \"@openzeppelin/contracts/token/ERC20/ERC20.sol\":11351:11388  currentAllowance != type(uint256).max */\n      eq\n        /* \"@openzeppelin/contracts/token/ERC20/ERC20.sol\":11347:11590  if (currentAllowance != type(uint256).max) {... */\n      tag_180\n      jumpi\n        /* \"@openzeppelin/contracts/token/ERC20/ERC20.sol\":11432:11438  amount */\n      dup2\n        /* \"@openzeppelin/contracts/token/ERC20/ERC20.sol\":11412:11428  currentAllowance */\n      dup2\n        /* \"@openzeppelin/contracts/token/ERC20/ERC20.sol\":11412:11438  currentAllowance >= amount */\n      lt\n      iszero\n        /* \"@openzeppelin/contracts/token/ERC20/ERC20.sol\":11404:11472  require(currentAllowance >= amount, \"ERC20: insufficient allowance\") */\n      tag_181\n      jumpi\n      mload(0x40)\n      0x08c379a000000000000000000000000000000000000000000000000000000000\n      dup2\n      mstore\n      0x04\n      add\n      tag_182\n      swap1\n      tag_183\n      jump\t// in\n    tag_182:\n      mload(0x40)\n      dup1\n      swap2\n      sub\n      swap1\n      revert\n    tag_181:\n        /* \"@openzeppelin/contracts/token/ERC20/ERC20.sol\":11514:11565  _approve(owner, spender, currentAllowance - amount) */\n      tag_184\n        /* \"@openzeppelin/contracts/token/ERC20/ERC20.sol\":11523:11528  owner */\n      dup5\n        /* \"@openzeppelin/contracts/token/ERC20/ERC20.sol\":11530:11537  spender */\n      dup5\n        /* \"@openzeppelin/contracts/token/ERC20/ERC20.sol\":11558:11564  amount */\n      dup5\n        /* \"@openzeppelin/contracts/token/ERC20/ERC20.sol\":11539:11555  currentAllowance */\n      dup5\n        /* \"@openzeppelin/contracts/token/ERC20/ERC20.sol\":11539:11564  currentAllowance - amount */\n      sub\n        /* \"@openzeppelin/contracts/token/ERC20/ERC20.sol\":11514:11522  _approve */\n      tag_113\n        /* \"@openzeppelin/contracts/token/ERC20/ERC20.sol\":11514:11565  _approve(owner, spender, currentAllowance - amount) */\n      jump\t// in\n    tag_184:\n        /* \"@openzeppelin/contracts/token/ERC20/ERC20.sol\":11347:11590  if (currentAllowance != type(uint256).max) {... */\n    tag_180:\n        /* \"@openzeppelin/contracts/token/ERC20/ERC20.sol\":11275:11596  {... */\n      pop\n        /* \"@openzeppelin/contracts/token/ERC20/ERC20.sol\":11155:11596  function _spendAllowance(... */\n      pop\n      pop\n      pop\n      jump\t// out\n        /* \"@openzeppelin/contracts/token/ERC20/ERC20.sol\":7473:8291  function _transfer(... */\n    tag_120:\n        /* \"@openzeppelin/contracts/token/ERC20/ERC20.sol\":7615:7616  0 */\n      0x00\n        /* \"@openzeppelin/contracts/token/ERC20/ERC20.sol\":7599:7617  from != address(0) */\n      0xffffffffffffffffffffffffffffffffffffffff\n      and\n        /* \"@openzeppelin/contracts/token/ERC20/ERC20.sol\":7599:7603  from */\n      dup4\n        /* \"@openzeppelin/contracts/token/ERC20/ERC20.sol\":7599:7617  from != address(0) */\n      0xffffffffffffffffffffffffffffffffffffffff\n      and\n      sub\n        /* \"@openzeppelin/contracts/token/ERC20/ERC20.sol\":7591:7659  require(from != address(0), \"ERC20: transfer from the zero address\") */\n      tag_186\n      jumpi\n      mload(0x40)\n      0x08c379a000000000000000000000000000000000000000000000000000000000\n      dup2\n      mstore\n      0x04\n      add\n      tag_187\n      swap1\n      tag_188\n      jump\t// in\n    tag_187:\n      mload(0x40)\n      dup1\n      swap2\n      sub\n      swap1\n      revert\n    tag_186:\n        /* \"@openzeppelin/contracts/token/ERC20/ERC20.sol\":7691:7692  0 */\n      0x00\n        /* \"@openzeppelin/contracts/token/ERC20/ERC20.sol\":7677:7693  to != address(0) */\n      0xffffffffffffffffffffffffffffffffffffffff\n      and\n        /* \"@openzeppelin/contracts/token/ERC20/ERC20.sol\":7677:7679  to */\n      dup3\n        /* \"@openzeppelin/contracts/token/ERC20/ERC20.sol\":7677:7693  to != address(0) */\n      0xffffffffffffffffffffffffffffffffffffffff\n      and\n      sub\n        /* \"@openzeppelin/contracts/token/ERC20/ERC20.sol\":7669:7733  require(to != address(0), \"ERC20: transfer to the zero address\") */\n      tag_189\n      jumpi\n      mload(0x40)\n      0x08c379a000000000000000000000000000000000000000000000000000000000\n      dup2\n      mstore\n      0x04\n      add\n      tag_190\n      swap1\n      tag_191\n      jump\t// in\n    tag_190:\n      mload(0x40)\n      dup1\n      swap2\n      sub\n      swap1\n      revert\n    tag_189:\n        /* \"@openzeppelin/contracts/token/ERC20/ERC20.sol\":7744:7782  _beforeTokenTransfer(from, to, amount) */\n      tag_192\n        /* \"@openzeppelin/contracts/token/ERC20/ERC20.sol\":7765:7769  from */\n      dup4\n        /* \"@openzeppelin/contracts/token/ERC20/ERC20.sol\":7771:7773  to */\n      dup4\n        /* \"@openzeppelin/contracts/token/ERC20/ERC20.sol\":7775:7781  amount */\n      dup4\n        /* \"@openzeppelin/contracts/token/ERC20/ERC20.sol\":7744:7764  _beforeTokenTransfer */\n      tag_193\n        /* \"@openzeppelin/contracts/token/ERC20/ERC20.sol\":7744:7782  _beforeTokenTransfer(from, to, amount) */\n      jump\t// in\n    tag_192:\n        /* \"@openzeppelin/contracts/token/ERC20/ERC20.sol\":7793:7812  uint256 fromBalance */\n      0x00\n        /* \"@openzeppelin/contracts/token/ERC20/ERC20.sol\":7815:7824  _balances */\n      dup1\n        /* \"@openzeppelin/contracts/token/ERC20/ERC20.sol\":7815:7830  _balances[from] */\n      0x00\n        /* \"@openzeppelin/contracts/token/ERC20/ERC20.sol\":7825:7829  from */\n      dup6\n        /* \"@openzeppelin/contracts/token/ERC20/ERC20.sol\":7815:7830  _balances[from] */\n      0xffffffffffffffffffffffffffffffffffffffff\n      and\n      0xffffffffffffffffffffffffffffffffffffffff\n      and\n      dup2\n      mstore\n      0x20\n      add\n      swap1\n      dup2\n      mstore\n      0x20\n      add\n      0x00\n      keccak256\n      sload\n        /* \"@openzeppelin/contracts/token/ERC20/ERC20.sol\":7793:7830  uint256 fromBalance = _balances[from] */\n      swap1\n      pop\n        /* \"@openzeppelin/contracts/token/ERC20/ERC20.sol\":7863:7869  amount */\n      dup2\n        /* \"@openzeppelin/contracts/token/ERC20/ERC20.sol\":7848:7859  fromBalance */\n      dup2\n        /* \"@openzeppelin/contracts/token/ERC20/ERC20.sol\":7848:7869  fromBalance >= amount */\n      lt\n      iszero\n        /* \"@openzeppelin/contracts/token/ERC20/ERC20.sol\":7840:7912  require(fromBalance >= amount, \"ERC20: transfer amount exceeds balance\") */\n      tag_194\n      jumpi\n      mload(0x40)\n      0x08c379a000000000000000000000000000000000000000000000000000000000\n      dup2\n      mstore\n      0x04\n      add\n      tag_195\n      swap1\n      tag_196\n      jump\t// in\n    tag_195:\n      mload(0x40)\n      dup1\n      swap2\n      sub\n      swap1\n      revert\n    tag_194:\n        /* \"@openzeppelin/contracts/token/ERC20/ERC20.sol\":7978:7984  amount */\n      dup2\n        /* \"@openzeppelin/contracts/token/ERC20/ERC20.sol\":7964:7975  fromBalance */\n      dup2\n        /* \"@openzeppelin/contracts/token/ERC20/ERC20.sol\":7964:7984  fromBalance - amount */\n      sub\n        /* \"@openzeppelin/contracts/token/ERC20/ERC20.sol\":7946:7955  _balances */\n      0x00\n        /* \"@openzeppelin/contracts/token/ERC20/ERC20.sol\":7946:7961  _balances[from] */\n      dup1\n        /* \"@openzeppelin/contracts/token/ERC20/ERC20.sol\":7956:7960  from */\n      dup7\n        /* \"@openzeppelin/contracts/token/ERC20/ERC20.sol\":7946:7961  _balances[from] */\n      0xffffffffffffffffffffffffffffffffffffffff\n      and\n      0xffffffffffffffffffffffffffffffffffffffff\n      and\n      dup2\n      mstore\n      0x20\n      add\n      swap1\n      dup2\n      mstore\n      0x20\n      add\n      0x00\n      keccak256\n        /* \"@openzeppelin/contracts/token/ERC20/ERC20.sol\":7946:7984  _balances[from] = fromBalance - amount */\n      dup2\n      swap1\n      sstore\n      pop\n        /* \"@openzeppelin/contracts/token/ERC20/ERC20.sol\":8178:8184  amount */\n      dup2\n        /* \"@openzeppelin/contracts/token/ERC20/ERC20.sol\":8161:8170  _balances */\n      0x00\n        /* \"@openzeppelin/contracts/token/ERC20/ERC20.sol\":8161:8174  _balances[to] */\n      dup1\n        /* \"@openzeppelin/contracts/token/ERC20/ERC20.sol\":8171:8173  to */\n      dup6\n        /* \"@openzeppelin/contracts/token/ERC20/ERC20.sol\":8161:8174  _balances[to] */\n      0xffffffffffffffffffffffffffffffffffffffff\n      and\n      0xffffffffffffffffffffffffffffffffffffffff\n      and\n      dup2\n      mstore\n      0x20\n      add\n      swap1\n      dup2\n      mstore\n      0x20\n      add\n      0x00\n      keccak256\n      0x00\n        /* \"@openzeppelin/contracts/token/ERC20/ERC20.sol\":8161:8184  _balances[to] += amount */\n      dup3\n      dup3\n      sload\n      add\n      swap3\n      pop\n      pop\n      dup2\n      swap1\n      sstore\n      pop\n        /* \"@openzeppelin/contracts/token/ERC20/ERC20.sol\":8225:8227  to */\n      dup3\n        /* \"@openzeppelin/contracts/token/ERC20/ERC20.sol\":8210:8236  Transfer(from, to, amount) */\n      0xffffffffffffffffffffffffffffffffffffffff\n      and\n        /* \"@openzeppelin/contracts/token/ERC20/ERC20.sol\":8219:8223  from */\n      dup5\n        /* \"@openzeppelin/contracts/token/ERC20/ERC20.sol\":8210:8236  Transfer(from, to, amount) */\n      0xffffffffffffffffffffffffffffffffffffffff\n      and\n      0xddf252ad1be2c89b69c2b068fc378daa952ba7f163c4a11628f55a4df523b3ef\n        /* \"@openzeppelin/contracts/token/ERC20/ERC20.sol\":8229:8235  amount */\n      dup5\n        /* \"@openzeppelin/contracts/token/ERC20/ERC20.sol\":8210:8236  Transfer(from, to, amount) */\n      mload(0x40)\n      tag_197\n      swap2\n      swap1\n      tag_37\n      jump\t// in\n    tag_197:\n      mload(0x40)\n      dup1\n      swap2\n      sub\n      swap1\n      log3\n        /* \"@openzeppelin/contracts/token/ERC20/ERC20.sol\":8247:8284  _afterTokenTransfer(from, to, amount) */\n      tag_198\n        /* \"@openzeppelin/contracts/token/ERC20/ERC20.sol\":8267:8271  from */\n      dup5\n        /* \"@openzeppelin/contracts/token/ERC20/ERC20.sol\":8273:8275  to */\n      dup5\n        /* \"@openzeppelin/contracts/token/ERC20/ERC20.sol\":8277:8283  amount */\n      dup5\n        /* \"@openzeppelin/contracts/token/ERC20/ERC20.sol\":8247:8266  _afterTokenTransfer */\n      tag_199\n        /* \"@openzeppelin/contracts/token/ERC20/ERC20.sol\":8247:8284  _afterTokenTransfer(from, to, amount) */\n      jump\t// in\n    tag_198:\n        /* \"@openzeppelin/contracts/token/ERC20/ERC20.sol\":7581:8291  {... */\n      pop\n        /* \"@openzeppelin/contracts/token/ERC20/ERC20.sol\":7473:8291  function _transfer(... */\n      pop\n      pop\n      pop\n      jump\t// out\n        /* \"@openzeppelin/contracts/utils/cryptography/ECDSA.sol\":3661:3888  function recover(bytes32 hash, bytes memory signature) internal pure returns (address) {... */\n    tag_123:\n        /* \"@openzeppelin/contracts/utils/cryptography/ECDSA.sol\":3739:3746  address */\n      0x00\n        /* \"@openzeppelin/contracts/utils/cryptography/ECDSA.sol\":3759:3776  address recovered */\n      dup1\n        /* \"@openzeppelin/contracts/utils/cryptography/ECDSA.sol\":3778:3796  RecoverError error */\n      0x00\n        /* \"@openzeppelin/contracts/utils/cryptography/ECDSA.sol\":3800:3827  tryRecover(hash, signature) */\n      tag_201\n        /* \"@openzeppelin/contracts/utils/cryptography/ECDSA.sol\":3811:3815  hash */\n      dup6\n        /* \"@openzeppelin/contracts/utils/cryptography/ECDSA.sol\":3817:3826  signature */\n      dup6\n        /* \"@openzeppelin/contracts/utils/cryptography/ECDSA.sol\":3800:3810  tryRecover */\n      tag_202\n        /* \"@openzeppelin/contracts/utils/cryptography/ECDSA.sol\":3800:3827  tryRecover(hash, signature) */\n      jump\t// in\n    tag_201:\n        /* \"@openzeppelin/contracts/utils/cryptography/ECDSA.sol\":3758:3827  (address recovered, RecoverError error) = tryRecover(hash, signature) */\n      swap2\n      pop\n      swap2\n      pop\n        /* \"@openzeppelin/contracts/utils/cryptography/ECDSA.sol\":3837:3855  _throwError(error) */\n      tag_203\n        /* \"@openzeppelin/contracts/utils/cryptography/ECDSA.sol\":3849:3854  error */\n      dup2\n        /* \"@openzeppelin/contracts/utils/cryptography/ECDSA.sol\":3837:3848  _throwError */\n      tag_204\n        /* \"@openzeppelin/contracts/utils/cryptography/ECDSA.sol\":3837:3855  _throwError(error) */\n      jump\t// in\n    tag_203:\n        /* \"@openzeppelin/contracts/utils/cryptography/ECDSA.sol\":3872:3881  recovered */\n      dup2\n        /* \"@openzeppelin/contracts/utils/cryptography/ECDSA.sol\":3865:3881  return recovered */\n      swap3\n      pop\n      pop\n      pop\n        /* \"@openzeppelin/contracts/utils/cryptography/ECDSA.sol\":3661:3888  function recover(bytes32 hash, bytes memory signature) internal pure returns (address) {... */\n      swap3\n      swap2\n      pop\n      pop\n      jump\t// out\n        /* \"@openzeppelin/contracts/token/ERC20/ERC20.sol\":8567:9102  function _mint(address account, uint256 amount) internal virtual {... */\n    tag_166:\n        /* \"@openzeppelin/contracts/token/ERC20/ERC20.sol\":8669:8670  0 */\n      0x00\n        /* \"@openzeppelin/contracts/token/ERC20/ERC20.sol\":8650:8671  account != address(0) */\n      0xffffffffffffffffffffffffffffffffffffffff\n      and\n        /* \"@openzeppelin/contracts/token/ERC20/ERC20.sol\":8650:8657  account */\n      dup3\n        /* \"@openzeppelin/contracts/token/ERC20/ERC20.sol\":8650:8671  account != address(0) */\n      0xffffffffffffffffffffffffffffffffffffffff\n      and\n      sub\n        /* \"@openzeppelin/contracts/token/ERC20/ERC20.sol\":8642:8707  require(account != address(0), \"ERC20: mint to the zero address\") */\n      tag_206\n      jumpi\n      mload(0x40)\n      0x08c379a000000000000000000000000000000000000000000000000000000000\n      dup2\n      mstore\n      0x04\n      add\n      tag_207\n      swap1\n      tag_208\n      jump\t// in\n    tag_207:\n      mload(0x40)\n      dup1\n      swap2\n      sub\n      swap1\n      revert\n    tag_206:\n        /* \"@openzeppelin/contracts/token/ERC20/ERC20.sol\":8718:8767  _beforeTokenTransfer(address(0), account, amount) */\n      tag_209\n        /* \"@openzeppelin/contracts/token/ERC20/ERC20.sol\":8747:8748  0 */\n      0x00\n        /* \"@openzeppelin/contracts/token/ERC20/ERC20.sol\":8751:8758  account */\n      dup4\n        /* \"@openzeppelin/contracts/token/ERC20/ERC20.sol\":8760:8766  amount */\n      dup4\n        /* \"@openzeppelin/contracts/token/ERC20/ERC20.sol\":8718:8738  _beforeTokenTransfer */\n      tag_193\n        /* \"@openzeppelin/contracts/token/ERC20/ERC20.sol\":8718:8767  _beforeTokenTransfer(address(0), account, amount) */\n      jump\t// in\n    tag_209:\n        /* \"@openzeppelin/contracts/token/ERC20/ERC20.sol\":8794:8800  amount */\n      dup1\n        /* \"@openzeppelin/contracts/token/ERC20/ERC20.sol\":8778:8790  _totalSupply */\n      0x02\n      0x00\n        /* \"@openzeppelin/contracts/token/ERC20/ERC20.sol\":8778:8800  _totalSupply += amount */\n      dup3\n      dup3\n      sload\n      tag_210\n      swap2\n      swap1\n      tag_130\n      jump\t// in\n    tag_210:\n      swap3\n      pop\n      pop\n      dup2\n      swap1\n      sstore\n      pop\n        /* \"@openzeppelin/contracts/token/ERC20/ERC20.sol\":8968:8974  amount */\n      dup1\n        /* \"@openzeppelin/contracts/token/ERC20/ERC20.sol\":8946:8955  _balances */\n      0x00\n        /* \"@openzeppelin/contracts/token/ERC20/ERC20.sol\":8946:8964  _balances[account] */\n      dup1\n        /* \"@openzeppelin/contracts/token/ERC20/ERC20.sol\":8956:8963  account */\n      dup5\n        /* \"@openzeppelin/contracts/token/ERC20/ERC20.sol\":8946:8964  _balances[account] */\n      0xffffffffffffffffffffffffffffffffffffffff\n      and\n      0xffffffffffffffffffffffffffffffffffffffff\n      and\n      dup2\n      mstore\n      0x20\n      add\n      swap1\n      dup2\n      mstore\n      0x20\n      add\n      0x00\n      keccak256\n      0x00\n        /* \"@openzeppelin/contracts/token/ERC20/ERC20.sol\":8946:8974  _balances[account] += amount */\n      dup3\n      dup3\n      sload\n      add\n      swap3\n      pop\n      pop\n      dup2\n      swap1\n      sstore\n      pop\n        /* \"@openzeppelin/contracts/token/ERC20/ERC20.sol\":9020:9027  account */\n      dup2\n        /* \"@openzeppelin/contracts/token/ERC20/ERC20.sol\":8999:9036  Transfer(address(0), account, amount) */\n      0xffffffffffffffffffffffffffffffffffffffff\n      and\n        /* \"@openzeppelin/contracts/token/ERC20/ERC20.sol\":9016:9017  0 */\n      0x00\n        /* \"@openzeppelin/contracts/token/ERC20/ERC20.sol\":8999:9036  Transfer(address(0), account, amount) */\n      0xffffffffffffffffffffffffffffffffffffffff\n      and\n      0xddf252ad1be2c89b69c2b068fc378daa952ba7f163c4a11628f55a4df523b3ef\n        /* \"@openzeppelin/contracts/token/ERC20/ERC20.sol\":9029:9035  amount */\n      dup4\n        /* \"@openzeppelin/contracts/token/ERC20/ERC20.sol\":8999:9036  Transfer(address(0), account, amount) */\n      mload(0x40)\n      tag_211\n      swap2\n      swap1\n      tag_37\n      jump\t// in\n    tag_211:\n      mload(0x40)\n      dup1\n      swap2\n      sub\n      swap1\n      log3\n        /* \"@openzeppelin/contracts/token/ERC20/ERC20.sol\":9047:9095  _afterTokenTransfer(address(0), account, amount) */\n      tag_212\n        /* \"@openzeppelin/contracts/token/ERC20/ERC20.sol\":9075:9076  0 */\n      0x00\n        /* \"@openzeppelin/contracts/token/ERC20/ERC20.sol\":9079:9086  account */\n      dup4\n        /* \"@openzeppelin/contracts/token/ERC20/ERC20.sol\":9088:9094  amount */\n      dup4\n        /* \"@openzeppelin/contracts/token/ERC20/ERC20.sol\":9047:9066  _afterTokenTransfer */\n      tag_199\n        /* \"@openzeppelin/contracts/token/ERC20/ERC20.sol\":9047:9095  _afterTokenTransfer(address(0), account, amount) */\n      jump\t// in\n    tag_212:\n        /* \"@openzeppelin/contracts/token/ERC20/ERC20.sol\":8567:9102  function _mint(address account, uint256 amount) internal virtual {... */\n      pop\n      pop\n      jump\t// out\n        /* \"@openzeppelin/contracts/token/ERC20/ERC20.sol\":12180:12301  function _beforeTokenTransfer(... */\n    tag_193:\n      pop\n      pop\n      pop\n      jump\t// out\n        /* \"@openzeppelin/contracts/token/ERC20/ERC20.sol\":12889:13009  function _afterTokenTransfer(... */\n    tag_199:\n      pop\n      pop\n      pop\n      jump\t// out\n        /* \"@openzeppelin/contracts/utils/cryptography/ECDSA.sol\":2145:2875  function tryRecover(bytes32 hash, bytes memory signature) internal pure returns (address, RecoverError) {... */\n    tag_202:\n        /* \"@openzeppelin/contracts/utils/cryptography/ECDSA.sol\":2226:2233  address */\n      0x00\n        /* \"@openzeppelin/contracts/utils/cryptography/ECDSA.sol\":2235:2247  RecoverError */\n      dup1\n        /* \"@openzeppelin/contracts/utils/cryptography/ECDSA.sol\":2283:2285  65 */\n      0x41\n        /* \"@openzeppelin/contracts/utils/cryptography/ECDSA.sol\":2263:2272  signature */\n      dup4\n        /* \"@openzeppelin/contracts/utils/cryptography/ECDSA.sol\":2263:2279  signature.length */\n      mload\n        /* \"@openzeppelin/contracts/utils/cryptography/ECDSA.sol\":2263:2285  signature.length == 65 */\n      sub\n        /* \"@openzeppelin/contracts/utils/cryptography/ECDSA.sol\":2259:2869  if (signature.length == 65) {... */\n      tag_216\n      jumpi\n        /* \"@openzeppelin/contracts/utils/cryptography/ECDSA.sol\":2301:2310  bytes32 r */\n      0x00\n        /* \"@openzeppelin/contracts/utils/cryptography/ECDSA.sol\":2324:2333  bytes32 s */\n      dup1\n        /* \"@openzeppelin/contracts/utils/cryptography/ECDSA.sol\":2347:2354  uint8 v */\n      0x00\n        /* \"@openzeppelin/contracts/utils/cryptography/ECDSA.sol\":2599:2603  0x20 */\n      0x20\n        /* \"@openzeppelin/contracts/utils/cryptography/ECDSA.sol\":2588:2597  signature */\n      dup7\n        /* \"@openzeppelin/contracts/utils/cryptography/ECDSA.sol\":2584:2604  add(signature, 0x20) */\n      add\n        /* \"@openzeppelin/contracts/utils/cryptography/ECDSA.sol\":2578:2605  mload(add(signature, 0x20)) */\n      mload\n        /* \"@openzeppelin/contracts/utils/cryptography/ECDSA.sol\":2573:2605  r := mload(add(signature, 0x20)) */\n      swap3\n      pop\n        /* \"@openzeppelin/contracts/utils/cryptography/ECDSA.sol\":2648:2652  0x40 */\n      0x40\n        /* \"@openzeppelin/contracts/utils/cryptography/ECDSA.sol\":2637:2646  signature */\n      dup7\n        /* \"@openzeppelin/contracts/utils/cryptography/ECDSA.sol\":2633:2653  add(signature, 0x40) */\n      add\n        /* \"@openzeppelin/contracts/utils/cryptography/ECDSA.sol\":2627:2654  mload(add(signature, 0x40)) */\n      mload\n        /* \"@openzeppelin/contracts/utils/cryptography/ECDSA.sol\":2622:2654  s := mload(add(signature, 0x40)) */\n      swap2\n      pop\n        /* \"@openzeppelin/contracts/utils/cryptography/ECDSA.sol\":2705:2709  0x60 */\n      0x60\n        /* \"@openzeppelin/contracts/utils/cryptography/ECDSA.sol\":2694:2703  signature */\n      dup7\n        /* \"@openzeppelin/contracts/utils/cryptography/ECDSA.sol\":2690:2710  add(signature, 0x60) */\n      add\n        /* \"@openzeppelin/contracts/utils/cryptography/ECDSA.sol\":2684:2711  mload(add(signature, 0x60)) */\n      mload\n        /* \"@openzeppelin/contracts/utils/cryptography/ECDSA.sol\":2681:2682  0 */\n      0x00\n        /* \"@openzeppelin/contracts/utils/cryptography/ECDSA.sol\":2676:2712  byte(0, mload(add(signature, 0x60))) */\n      byte\n        /* \"@openzeppelin/contracts/utils/cryptography/ECDSA.sol\":2671:2712  v := byte(0, mload(add(signature, 0x60))) */\n      swap1\n      pop\n        /* \"@openzeppelin/contracts/utils/cryptography/ECDSA.sol\":2746:2771  tryRecover(hash, v, r, s) */\n      tag_217\n        /* \"@openzeppelin/contracts/utils/cryptography/ECDSA.sol\":2757:2761  hash */\n      dup8\n        /* \"@openzeppelin/contracts/utils/cryptography/ECDSA.sol\":2763:2764  v */\n      dup3\n        /* \"@openzeppelin/contracts/utils/cryptography/ECDSA.sol\":2766:2767  r */\n      dup6\n        /* \"@openzeppelin/contracts/utils/cryptography/ECDSA.sol\":2769:2770  s */\n      dup6\n        /* \"@openzeppelin/contracts/utils/cryptography/ECDSA.sol\":2746:2756  tryRecover */\n      tag_218\n        /* \"@openzeppelin/contracts/utils/cryptography/ECDSA.sol\":2746:2771  tryRecover(hash, v, r, s) */\n      jump\t// in\n    tag_217:\n        /* \"@openzeppelin/contracts/utils/cryptography/ECDSA.sol\":2739:2771  return tryRecover(hash, v, r, s) */\n      swap5\n      pop\n      swap5\n      pop\n      pop\n      pop\n      pop\n      jump(tag_215)\n        /* \"@openzeppelin/contracts/utils/cryptography/ECDSA.sol\":2259:2869  if (signature.length == 65) {... */\n    tag_216:\n        /* \"@openzeppelin/contracts/utils/cryptography/ECDSA.sol\":2818:2819  0 */\n      0x00\n        /* \"@openzeppelin/contracts/utils/cryptography/ECDSA.sol\":2822:2857  RecoverError.InvalidSignatureLength */\n      0x02\n        /* \"@openzeppelin/contracts/utils/cryptography/ECDSA.sol\":2802:2858  return (address(0), RecoverError.InvalidSignatureLength) */\n      swap2\n      pop\n      swap2\n      pop\n        /* \"@openzeppelin/contracts/utils/cryptography/ECDSA.sol\":2145:2875  function tryRecover(bytes32 hash, bytes memory signature) internal pure returns (address, RecoverError) {... */\n    tag_215:\n      swap3\n      pop\n      swap3\n      swap1\n      pop\n      jump\t// out\n        /* \"@openzeppelin/contracts/utils/cryptography/ECDSA.sol\":570:1081  function _throwError(RecoverError error) private pure {... */\n    tag_204:\n        /* \"@openzeppelin/contracts/utils/cryptography/ECDSA.sol\":647:667  RecoverError.NoError */\n      0x00\n        /* \"@openzeppelin/contracts/utils/cryptography/ECDSA.sol\":638:667  error == RecoverError.NoError */\n      0x04\n      dup2\n      gt\n      iszero\n      tag_221\n      jumpi\n      tag_222\n      tag_223\n      jump\t// in\n    tag_222:\n    tag_221:\n        /* \"@openzeppelin/contracts/utils/cryptography/ECDSA.sol\":638:643  error */\n      dup2\n        /* \"@openzeppelin/contracts/utils/cryptography/ECDSA.sol\":638:667  error == RecoverError.NoError */\n      0x04\n      dup2\n      gt\n      iszero\n      tag_224\n      jumpi\n      tag_225\n      tag_223\n      jump\t// in\n    tag_225:\n    tag_224:\n      sub\n        /* \"@openzeppelin/contracts/utils/cryptography/ECDSA.sol\":634:1075  if (error == RecoverError.NoError) {... */\n      iszero\n        /* \"@openzeppelin/contracts/utils/cryptography/ECDSA.sol\":683:690  return; */\n      tag_220\n        /* \"@openzeppelin/contracts/utils/cryptography/ECDSA.sol\":634:1075  if (error == RecoverError.NoError) {... */\n      jumpi\n        /* \"@openzeppelin/contracts/utils/cryptography/ECDSA.sol\":743:772  RecoverError.InvalidSignature */\n      0x01\n        /* \"@openzeppelin/contracts/utils/cryptography/ECDSA.sol\":734:772  error == RecoverError.InvalidSignature */\n      0x04\n      dup2\n      gt\n      iszero\n      tag_228\n      jumpi\n      tag_229\n      tag_223\n      jump\t// in\n    tag_229:\n    tag_228:\n        /* \"@openzeppelin/contracts/utils/cryptography/ECDSA.sol\":734:739  error */\n      dup2\n        /* \"@openzeppelin/contracts/utils/cryptography/ECDSA.sol\":734:772  error == RecoverError.InvalidSignature */\n      0x04\n      dup2\n      gt\n      iszero\n      tag_230\n      jumpi\n      tag_231\n      tag_223\n      jump\t// in\n    tag_231:\n    tag_230:\n      sub\n        /* \"@openzeppelin/contracts/utils/cryptography/ECDSA.sol\":730:1075  if (error == RecoverError.InvalidSignature) {... */\n      tag_232\n      jumpi\n        /* \"@openzeppelin/contracts/utils/cryptography/ECDSA.sol\":788:822  revert(\"ECDSA: invalid signature\") */\n      mload(0x40)\n      0x08c379a000000000000000000000000000000000000000000000000000000000\n      dup2\n      mstore\n      0x04\n      add\n      tag_233\n      swap1\n      tag_234\n      jump\t// in\n    tag_233:\n      mload(0x40)\n      dup1\n      swap2\n      sub\n      swap1\n      revert\n        /* \"@openzeppelin/contracts/utils/cryptography/ECDSA.sol\":730:1075  if (error == RecoverError.InvalidSignature) {... */\n    tag_232:\n        /* \"@openzeppelin/contracts/utils/cryptography/ECDSA.sol\":852:887  RecoverError.InvalidSignatureLength */\n      0x02\n        /* \"@openzeppelin/contracts/utils/cryptography/ECDSA.sol\":843:887  error == RecoverError.InvalidSignatureLength */\n      0x04\n      dup2\n      gt\n      iszero\n      tag_236\n      jumpi\n      tag_237\n      tag_223\n      jump\t// in\n    tag_237:\n    tag_236:\n        /* \"@openzeppelin/contracts/utils/cryptography/ECDSA.sol\":843:848  error */\n      dup2\n        /* \"@openzeppelin/contracts/utils/cryptography/ECDSA.sol\":843:887  error == RecoverError.InvalidSignatureLength */\n      0x04\n      dup2\n      gt\n      iszero\n      tag_238\n      jumpi\n      tag_239\n      tag_223\n      jump\t// in\n    tag_239:\n    tag_238:\n      sub\n        /* \"@openzeppelin/contracts/utils/cryptography/ECDSA.sol\":839:1075  if (error == RecoverError.InvalidSignatureLength) {... */\n      tag_240\n      jumpi\n        /* \"@openzeppelin/contracts/utils/cryptography/ECDSA.sol\":903:944  revert(\"ECDSA: invalid signature length\") */\n      mload(0x40)\n      0x08c379a000000000000000000000000000000000000000000000000000000000\n      dup2\n      mstore\n      0x04\n      add\n      tag_241\n      swap1\n      tag_242\n      jump\t// in\n    tag_241:\n      mload(0x40)\n      dup1\n      swap2\n      sub\n      swap1\n      revert\n        /* \"@openzeppelin/contracts/utils/cryptography/ECDSA.sol\":839:1075  if (error == RecoverError.InvalidSignatureLength) {... */\n    tag_240:\n        /* \"@openzeppelin/contracts/utils/cryptography/ECDSA.sol\":974:1004  RecoverError.InvalidSignatureS */\n      0x03\n        /* \"@openzeppelin/contracts/utils/cryptography/ECDSA.sol\":965:1004  error == RecoverError.InvalidSignatureS */\n      0x04\n      dup2\n      gt\n      iszero\n      tag_244\n      jumpi\n      tag_245\n      tag_223\n      jump\t// in\n    tag_245:\n    tag_244:\n        /* \"@openzeppelin/contracts/utils/cryptography/ECDSA.sol\":965:970  error */\n      dup2\n        /* \"@openzeppelin/contracts/utils/cryptography/ECDSA.sol\":965:1004  error == RecoverError.InvalidSignatureS */\n      0x04\n      dup2\n      gt\n      iszero\n      tag_246\n      jumpi\n      tag_247\n      tag_223\n      jump\t// in\n    tag_247:\n    tag_246:\n      sub\n        /* \"@openzeppelin/contracts/utils/cryptography/ECDSA.sol\":961:1075  if (error == RecoverError.InvalidSignatureS) {... */\n      tag_248\n      jumpi\n        /* \"@openzeppelin/contracts/utils/cryptography/ECDSA.sol\":1020:1064  revert(\"ECDSA: invalid signature 's' value\") */\n      mload(0x40)\n      0x08c379a000000000000000000000000000000000000000000000000000000000\n      dup2\n      mstore\n      0x04\n      add\n      tag_249\n      swap1\n      tag_250\n      jump\t// in\n    tag_249:\n      mload(0x40)\n      dup1\n      swap2\n      sub\n      swap1\n      revert\n        /* \"@openzeppelin/contracts/utils/cryptography/ECDSA.sol\":961:1075  if (error == RecoverError.InvalidSignatureS) {... */\n    tag_248:\n        /* \"@openzeppelin/contracts/utils/cryptography/ECDSA.sol\":570:1081  function _throwError(RecoverError error) private pure {... */\n    tag_220:\n      pop\n      jump\t// out\n        /* \"@openzeppelin/contracts/utils/cryptography/ECDSA.sol\":5069:6563  function tryRecover(... */\n    tag_218:\n        /* \"@openzeppelin/contracts/utils/cryptography/ECDSA.sol\":5195:5202  address */\n      0x00\n        /* \"@openzeppelin/contracts/utils/cryptography/ECDSA.sol\":5204:5216  RecoverError */\n      dup1\n        /* \"@openzeppelin/contracts/utils/cryptography/ECDSA.sol\":6119:6185  0x7FFFFFFFFFFFFFFFFFFFFFFFFFFFFFFF5D576E7357A4501DDFE92F46681B20A0 */\n      0x7fffffffffffffffffffffffffffffff5d576e7357a4501ddfe92f46681b20a0\n        /* \"@openzeppelin/contracts/utils/cryptography/ECDSA.sol\":6114:6115  s */\n      dup4\n        /* \"@openzeppelin/contracts/utils/cryptography/ECDSA.sol\":6106:6116  uint256(s) */\n      0x00\n      shr\n        /* \"@openzeppelin/contracts/utils/cryptography/ECDSA.sol\":6106:6185  uint256(s) > 0x7FFFFFFFFFFFFFFFFFFFFFFFFFFFFFFF5D576E7357A4501DDFE92F46681B20A0 */\n      gt\n        /* \"@openzeppelin/contracts/utils/cryptography/ECDSA.sol\":6102:6263  if (uint256(s) > 0x7FFFFFFFFFFFFFFFFFFFFFFFFFFFFFFF5D576E7357A4501DDFE92F46681B20A0) {... */\n      iszero\n      tag_252\n      jumpi\n        /* \"@openzeppelin/contracts/utils/cryptography/ECDSA.sol\":6217:6218  0 */\n      0x00\n        /* \"@openzeppelin/contracts/utils/cryptography/ECDSA.sol\":6221:6251  RecoverError.InvalidSignatureS */\n      0x03\n        /* \"@openzeppelin/contracts/utils/cryptography/ECDSA.sol\":6201:6252  return (address(0), RecoverError.InvalidSignatureS) */\n      swap2\n      pop\n      swap2\n      pop\n      jump(tag_251)\n        /* \"@openzeppelin/contracts/utils/cryptography/ECDSA.sol\":6102:6263  if (uint256(s) > 0x7FFFFFFFFFFFFFFFFFFFFFFFFFFFFFFF5D576E7357A4501DDFE92F46681B20A0) {... */\n    tag_252:\n        /* \"@openzeppelin/contracts/utils/cryptography/ECDSA.sol\":6357:6371  address signer */\n      0x00\n        /* \"@openzeppelin/contracts/utils/cryptography/ECDSA.sol\":6374:6398  ecrecover(hash, v, r, s) */\n      0x01\n        /* \"@openzeppelin/contracts/utils/cryptography/ECDSA.sol\":6384:6388  hash */\n      dup8\n        /* \"@openzeppelin/contracts/utils/cryptography/ECDSA.sol\":6390:6391  v */\n      dup8\n        /* \"@openzeppelin/contracts/utils/cryptography/ECDSA.sol\":6393:6394  r */\n      dup8\n        /* \"@openzeppelin/contracts/utils/cryptography/ECDSA.sol\":6396:6397  s */\n      dup8\n        /* \"@openzeppelin/contracts/utils/cryptography/ECDSA.sol\":6374:6398  ecrecover(hash, v, r, s) */\n      mload(0x40)\n      0x00\n      dup2\n      mstore\n      0x20\n      add\n      0x40\n      mstore\n      mload(0x40)\n      tag_253\n      swap5\n      swap4\n      swap3\n      swap2\n      swap1\n      tag_254\n      jump\t// in\n    tag_253:\n      0x20\n      mload(0x40)\n      0x20\n      dup2\n      sub\n      swap1\n      dup1\n      dup5\n      sub\n      swap1\n      dup6\n      gas\n      staticcall\n      iszero\n      dup1\n      iszero\n      tag_256\n      jumpi\n      returndatasize\n      0x00\n      dup1\n      returndatacopy\n      revert(0x00, returndatasize)\n    tag_256:\n      pop\n      pop\n      pop\n      mload(sub(mload(0x40), 0x20))\n        /* \"@openzeppelin/contracts/utils/cryptography/ECDSA.sol\":6357:6398  address signer = ecrecover(hash, v, r, s) */\n      swap1\n      pop\n        /* \"@openzeppelin/contracts/utils/cryptography/ECDSA.sol\":6430:6431  0 */\n      0x00\n        /* \"@openzeppelin/contracts/utils/cryptography/ECDSA.sol\":6412:6432  signer == address(0) */\n      0xffffffffffffffffffffffffffffffffffffffff\n      and\n        /* \"@openzeppelin/contracts/utils/cryptography/ECDSA.sol\":6412:6418  signer */\n      dup2\n        /* \"@openzeppelin/contracts/utils/cryptography/ECDSA.sol\":6412:6432  signer == address(0) */\n      0xffffffffffffffffffffffffffffffffffffffff\n      and\n      sub\n        /* \"@openzeppelin/contracts/utils/cryptography/ECDSA.sol\":6408:6509  if (signer == address(0)) {... */\n      tag_257\n      jumpi\n        /* \"@openzeppelin/contracts/utils/cryptography/ECDSA.sol\":6464:6465  0 */\n      0x00\n        /* \"@openzeppelin/contracts/utils/cryptography/ECDSA.sol\":6468:6497  RecoverError.InvalidSignature */\n      0x01\n        /* \"@openzeppelin/contracts/utils/cryptography/ECDSA.sol\":6448:6498  return (address(0), RecoverError.InvalidSignature) */\n      swap3\n      pop\n      swap3\n      pop\n      pop\n      jump(tag_251)\n        /* \"@openzeppelin/contracts/utils/cryptography/ECDSA.sol\":6408:6509  if (signer == address(0)) {... */\n    tag_257:\n        /* \"@openzeppelin/contracts/utils/cryptography/ECDSA.sol\":6527:6533  signer */\n      dup1\n        /* \"@openzeppelin/contracts/utils/cryptography/ECDSA.sol\":6535:6555  RecoverError.NoError */\n      0x00\n        /* \"@openzeppelin/contracts/utils/cryptography/ECDSA.sol\":6519:6556  return (signer, RecoverError.NoError) */\n      swap3\n      pop\n      swap3\n      pop\n      pop\n        /* \"@openzeppelin/contracts/utils/cryptography/ECDSA.sol\":5069:6563  function tryRecover(... */\n    tag_251:\n      swap5\n      pop\n      swap5\n      swap3\n      pop\n      pop\n      pop\n      jump\t// out\n        /* \"#utility.yul\":7:106   */\n    tag_258:\n        /* \"#utility.yul\":59:65   */\n      0x00\n        /* \"#utility.yul\":93:98   */\n      dup2\n        /* \"#utility.yul\":87:99   */\n      mload\n        /* \"#utility.yul\":77:99   */\n      swap1\n      pop\n        /* \"#utility.yul\":7:106   */\n      swap2\n      swap1\n      pop\n      jump\t// out\n        /* \"#utility.yul\":112:281   */\n    tag_259:\n        /* \"#utility.yul\":196:207   */\n      0x00\n        /* \"#utility.yul\":230:236   */\n      dup3\n        /* \"#utility.yul\":225:228   */\n      dup3\n        /* \"#utility.yul\":218:237   */\n      mstore\n        /* \"#utility.yul\":270:274   */\n      0x20\n        /* \"#utility.yul\":265:268   */\n      dup3\n        /* \"#utility.yul\":261:275   */\n      add\n        /* \"#utility.yul\":246:275   */\n      swap1\n      pop\n        /* \"#utility.yul\":112:281   */\n      swap3\n      swap2\n      pop\n      pop\n      jump\t// out\n        /* \"#utility.yul\":287:533   */\n    tag_260:\n        /* \"#utility.yul\":368:369   */\n      0x00\n        /* \"#utility.yul\":378:491   */\n    tag_335:\n        /* \"#utility.yul\":392:398   */\n      dup4\n        /* \"#utility.yul\":389:390   */\n      dup2\n        /* \"#utility.yul\":386:399   */\n      lt\n        /* \"#utility.yul\":378:491   */\n      iszero\n      tag_337\n      jumpi\n        /* \"#utility.yul\":477:478   */\n      dup1\n        /* \"#utility.yul\":472:475   */\n      dup3\n        /* \"#utility.yul\":468:479   */\n      add\n        /* \"#utility.yul\":462:480   */\n      mload\n        /* \"#utility.yul\":458:459   */\n      dup2\n        /* \"#utility.yul\":453:456   */\n      dup5\n        /* \"#utility.yul\":449:460   */\n      add\n        /* \"#utility.yul\":442:481   */\n      mstore\n        /* \"#utility.yul\":414:416   */\n      0x20\n        /* \"#utility.yul\":411:412   */\n      dup2\n        /* \"#utility.yul\":407:417   */\n      add\n        /* \"#utility.yul\":402:417   */\n      swap1\n      pop\n        /* \"#utility.yul\":378:491   */\n      jump(tag_335)\n    tag_337:\n        /* \"#utility.yul\":525:526   */\n      0x00\n        /* \"#utility.yul\":516:522   */\n      dup5\n        /* \"#utility.yul\":511:514   */\n      dup5\n        /* \"#utility.yul\":507:523   */\n      add\n        /* \"#utility.yul\":500:527   */\n      mstore\n        /* \"#utility.yul\":349:533   */\n      pop\n        /* \"#utility.yul\":287:533   */\n      pop\n      pop\n      pop\n      jump\t// out\n        /* \"#utility.yul\":539:641   */\n    tag_261:\n        /* \"#utility.yul\":580:586   */\n      0x00\n        /* \"#utility.yul\":631:633   */\n      0x1f\n        /* \"#utility.yul\":627:634   */\n      not\n        /* \"#utility.yul\":622:624   */\n      0x1f\n        /* \"#utility.yul\":615:620   */\n      dup4\n        /* \"#utility.yul\":611:625   */\n      add\n        /* \"#utility.yul\":607:635   */\n      and\n        /* \"#utility.yul\":597:635   */\n      swap1\n      pop\n        /* \"#utility.yul\":539:641   */\n      swap2\n      swap1\n      pop\n      jump\t// out\n        /* \"#utility.yul\":647:1024   */\n    tag_262:\n        /* \"#utility.yul\":735:738   */\n      0x00\n        /* \"#utility.yul\":763:802   */\n      tag_340\n        /* \"#utility.yul\":796:801   */\n      dup3\n        /* \"#utility.yul\":763:802   */\n      tag_258\n      jump\t// in\n    tag_340:\n        /* \"#utility.yul\":818:889   */\n      tag_341\n        /* \"#utility.yul\":882:888   */\n      dup2\n        /* \"#utility.yul\":877:880   */\n      dup6\n        /* \"#utility.yul\":818:889   */\n      tag_259\n      jump\t// in\n    tag_341:\n        /* \"#utility.yul\":811:889   */\n      swap4\n      pop\n        /* \"#utility.yul\":898:963   */\n      tag_342\n        /* \"#utility.yul\":956:962   */\n      dup2\n        /* \"#utility.yul\":951:954   */\n      dup6\n        /* \"#utility.yul\":944:948   */\n      0x20\n        /* \"#utility.yul\":937:942   */\n      dup7\n        /* \"#utility.yul\":933:949   */\n      add\n        /* \"#utility.yul\":898:963   */\n      tag_260\n      jump\t// in\n    tag_342:\n        /* \"#utility.yul\":988:1017   */\n      tag_343\n        /* \"#utility.yul\":1010:1016   */\n      dup2\n        /* \"#utility.yul\":988:1017   */\n      tag_261\n      jump\t// in\n    tag_343:\n        /* \"#utility.yul\":983:986   */\n      dup5\n        /* \"#utility.yul\":979:1018   */\n      add\n        /* \"#utility.yul\":972:1018   */\n      swap2\n      pop\n        /* \"#utility.yul\":739:1024   */\n      pop\n        /* \"#utility.yul\":647:1024   */\n      swap3\n      swap2\n      pop\n      pop\n      jump\t// out\n        /* \"#utility.yul\":1030:1343   */\n    tag_27:\n        /* \"#utility.yul\":1143:1147   */\n      0x00\n        /* \"#utility.yul\":1181:1183   */\n      0x20\n        /* \"#utility.yul\":1170:1179   */\n      dup3\n        /* \"#utility.yul\":1166:1184   */\n      add\n        /* \"#utility.yul\":1158:1184   */\n      swap1\n      pop\n        /* \"#utility.yul\":1230:1239   */\n      dup2\n        /* \"#utility.yul\":1224:1228   */\n      dup2\n        /* \"#utility.yul\":1220:1240   */\n      sub\n        /* \"#utility.yul\":1216:1217   */\n      0x00\n        /* \"#utility.yul\":1205:1214   */\n      dup4\n        /* \"#utility.yul\":1201:1218   */\n      add\n        /* \"#utility.yul\":1194:1241   */\n      mstore\n        /* \"#utility.yul\":1258:1336   */\n      tag_345\n        /* \"#utility.yul\":1331:1335   */\n      dup2\n        /* \"#utility.yul\":1322:1328   */\n      dup5\n        /* \"#utility.yul\":1258:1336   */\n      tag_262\n      jump\t// in\n    tag_345:\n        /* \"#utility.yul\":1250:1336   */\n      swap1\n      pop\n        /* \"#utility.yul\":1030:1343   */\n      swap3\n      swap2\n      pop\n      pop\n      jump\t// out\n        /* \"#utility.yul\":1349:1424   */\n    tag_263:\n        /* \"#utility.yul\":1382:1388   */\n      0x00\n        /* \"#utility.yul\":1415:1417   */\n      0x40\n        /* \"#utility.yul\":1409:1418   */\n      mload\n        /* \"#utility.yul\":1399:1418   */\n      swap1\n      pop\n        /* \"#utility.yul\":1349:1424   */\n      swap1\n      jump\t// out\n        /* \"#utility.yul\":1430:1547   */\n    tag_264:\n        /* \"#utility.yul\":1539:1540   */\n      0x00\n        /* \"#utility.yul\":1536:1537   */\n      dup1\n        /* \"#utility.yul\":1529:1541   */\n      revert\n        /* \"#utility.yul\":1553:1670   */\n    tag_265:\n        /* \"#utility.yul\":1662:1663   */\n      0x00\n        /* \"#utility.yul\":1659:1660   */\n      dup1\n        /* \"#utility.yul\":1652:1664   */\n      revert\n        /* \"#utility.yul\":1676:1802   */\n    tag_266:\n        /* \"#utility.yul\":1713:1720   */\n      0x00\n        /* \"#utility.yul\":1753:1795   */\n      0xffffffffffffffffffffffffffffffffffffffff\n        /* \"#utility.yul\":1746:1751   */\n      dup3\n        /* \"#utility.yul\":1742:1796   */\n      and\n        /* \"#utility.yul\":1731:1796   */\n      swap1\n      pop\n        /* \"#utility.yul\":1676:1802   */\n      swap2\n      swap1\n      pop\n      jump\t// out\n        /* \"#utility.yul\":1808:1904   */\n    tag_267:\n        /* \"#utility.yul\":1845:1852   */\n      0x00\n        /* \"#utility.yul\":1874:1898   */\n      tag_351\n        /* \"#utility.yul\":1892:1897   */\n      dup3\n        /* \"#utility.yul\":1874:1898   */\n      tag_266\n      jump\t// in\n    tag_351:\n        /* \"#utility.yul\":1863:1898   */\n      swap1\n      pop\n        /* \"#utility.yul\":1808:1904   */\n      swap2\n      swap1\n      pop\n      jump\t// out\n        /* \"#utility.yul\":1910:2032   */\n    tag_268:\n        /* \"#utility.yul\":1983:2007   */\n      tag_353\n        /* \"#utility.yul\":2001:2006   */\n      dup2\n        /* \"#utility.yul\":1983:2007   */\n      tag_267\n      jump\t// in\n    tag_353:\n        /* \"#utility.yul\":1976:1981   */\n      dup2\n        /* \"#utility.yul\":1973:2008   */\n      eq\n        /* \"#utility.yul\":1963:2026   */\n      tag_354\n      jumpi\n        /* \"#utility.yul\":2022:2023   */\n      0x00\n        /* \"#utility.yul\":2019:2020   */\n      dup1\n        /* \"#utility.yul\":2012:2024   */\n      revert\n        /* \"#utility.yul\":1963:2026   */\n    tag_354:\n        /* \"#utility.yul\":1910:2032   */\n      pop\n      jump\t// out\n        /* \"#utility.yul\":2038:2177   */\n    tag_269:\n        /* \"#utility.yul\":2084:2089   */\n      0x00\n        /* \"#utility.yul\":2122:2128   */\n      dup2\n        /* \"#utility.yul\":2109:2129   */\n      calldataload\n        /* \"#utility.yul\":2100:2129   */\n      swap1\n      pop\n        /* \"#utility.yul\":2138:2171   */\n      tag_356\n        /* \"#utility.yul\":2165:2170   */\n      dup2\n        /* \"#utility.yul\":2138:2171   */\n      tag_268\n      jump\t// in\n    tag_356:\n        /* \"#utility.yul\":2038:2177   */\n      swap3\n      swap2\n      pop\n      pop\n      jump\t// out\n        /* \"#utility.yul\":2183:2260   */\n    tag_270:\n        /* \"#utility.yul\":2220:2227   */\n      0x00\n        /* \"#utility.yul\":2249:2254   */\n      dup2\n        /* \"#utility.yul\":2238:2254   */\n      swap1\n      pop\n        /* \"#utility.yul\":2183:2260   */\n      swap2\n      swap1\n      pop\n      jump\t// out\n        /* \"#utility.yul\":2266:2388   */\n    tag_271:\n        /* \"#utility.yul\":2339:2363   */\n      tag_359\n        /* \"#utility.yul\":2357:2362   */\n      dup2\n        /* \"#utility.yul\":2339:2363   */\n      tag_270\n      jump\t// in\n    tag_359:\n        /* \"#utility.yul\":2332:2337   */\n      dup2\n        /* \"#utility.yul\":2329:2364   */\n      eq\n        /* \"#utility.yul\":2319:2382   */\n      tag_360\n      jumpi\n        /* \"#utility.yul\":2378:2379   */\n      0x00\n        /* \"#utility.yul\":2375:2376   */\n      dup1\n        /* \"#utility.yul\":2368:2380   */\n      revert\n        /* \"#utility.yul\":2319:2382   */\n    tag_360:\n        /* \"#utility.yul\":2266:2388   */\n      pop\n      jump\t// out\n        /* \"#utility.yul\":2394:2533   */\n    tag_272:\n        /* \"#utility.yul\":2440:2445   */\n      0x00\n        /* \"#utility.yul\":2478:2484   */\n      dup2\n        /* \"#utility.yul\":2465:2485   */\n      calldataload\n        /* \"#utility.yul\":2456:2485   */\n      swap1\n      pop\n        /* \"#utility.yul\":2494:2527   */\n      tag_362\n        /* \"#utility.yul\":2521:2526   */\n      dup2\n        /* \"#utility.yul\":2494:2527   */\n      tag_271\n      jump\t// in\n    tag_362:\n        /* \"#utility.yul\":2394:2533   */\n      swap3\n      swap2\n      pop\n      pop\n      jump\t// out\n        /* \"#utility.yul\":2539:3013   */\n    tag_30:\n        /* \"#utility.yul\":2607:2613   */\n      0x00\n        /* \"#utility.yul\":2615:2621   */\n      dup1\n        /* \"#utility.yul\":2664:2666   */\n      0x40\n        /* \"#utility.yul\":2652:2661   */\n      dup4\n        /* \"#utility.yul\":2643:2650   */\n      dup6\n        /* \"#utility.yul\":2639:2662   */\n      sub\n        /* \"#utility.yul\":2635:2667   */\n      slt\n        /* \"#utility.yul\":2632:2751   */\n      iszero\n      tag_364\n      jumpi\n        /* \"#utility.yul\":2670:2749   */\n      tag_365\n      tag_264\n      jump\t// in\n    tag_365:\n        /* \"#utility.yul\":2632:2751   */\n    tag_364:\n        /* \"#utility.yul\":2790:2791   */\n      0x00\n        /* \"#utility.yul\":2815:2868   */\n      tag_366\n        /* \"#utility.yul\":2860:2867   */\n      dup6\n        /* \"#utility.yul\":2851:2857   */\n      dup3\n        /* \"#utility.yul\":2840:2849   */\n      dup7\n        /* \"#utility.yul\":2836:2858   */\n      add\n        /* \"#utility.yul\":2815:2868   */\n      tag_269\n      jump\t// in\n    tag_366:\n        /* \"#utility.yul\":2805:2868   */\n      swap3\n      pop\n        /* \"#utility.yul\":2761:2878   */\n      pop\n        /* \"#utility.yul\":2917:2919   */\n      0x20\n        /* \"#utility.yul\":2943:2996   */\n      tag_367\n        /* \"#utility.yul\":2988:2995   */\n      dup6\n        /* \"#utility.yul\":2979:2985   */\n      dup3\n        /* \"#utility.yul\":2968:2977   */\n      dup7\n        /* \"#utility.yul\":2964:2986   */\n      add\n        /* \"#utility.yul\":2943:2996   */\n      tag_272\n      jump\t// in\n    tag_367:\n        /* \"#utility.yul\":2933:2996   */\n      swap2\n      pop\n        /* \"#utility.yul\":2888:3006   */\n      pop\n        /* \"#utility.yul\":2539:3013   */\n      swap3\n      pop\n      swap3\n      swap1\n      pop\n      jump\t// out\n        /* \"#utility.yul\":3019:3109   */\n    tag_273:\n        /* \"#utility.yul\":3053:3060   */\n      0x00\n        /* \"#utility.yul\":3096:3101   */\n      dup2\n        /* \"#utility.yul\":3089:3102   */\n      iszero\n        /* \"#utility.yul\":3082:3103   */\n      iszero\n        /* \"#utility.yul\":3071:3103   */\n      swap1\n      pop\n        /* \"#utility.yul\":3019:3109   */\n      swap2\n      swap1\n      pop\n      jump\t// out\n        /* \"#utility.yul\":3115:3224   */\n    tag_274:\n        /* \"#utility.yul\":3196:3217   */\n      tag_370\n        /* \"#utility.yul\":3211:3216   */\n      dup2\n        /* \"#utility.yul\":3196:3217   */\n      tag_273\n      jump\t// in\n    tag_370:\n        /* \"#utility.yul\":3191:3194   */\n      dup3\n        /* \"#utility.yul\":3184:3218   */\n      mstore\n        /* \"#utility.yul\":3115:3224   */\n      pop\n      pop\n      jump\t// out\n        /* \"#utility.yul\":3230:3440   */\n    tag_33:\n        /* \"#utility.yul\":3317:3321   */\n      0x00\n        /* \"#utility.yul\":3355:3357   */\n      0x20\n        /* \"#utility.yul\":3344:3353   */\n      dup3\n        /* \"#utility.yul\":3340:3358   */\n      add\n        /* \"#utility.yul\":3332:3358   */\n      swap1\n      pop\n        /* \"#utility.yul\":3368:3433   */\n      tag_372\n        /* \"#utility.yul\":3430:3431   */\n      0x00\n        /* \"#utility.yul\":3419:3428   */\n      dup4\n        /* \"#utility.yul\":3415:3432   */\n      add\n        /* \"#utility.yul\":3406:3412   */\n      dup5\n        /* \"#utility.yul\":3368:3433   */\n      tag_274\n      jump\t// in\n    tag_372:\n        /* \"#utility.yul\":3230:3440   */\n      swap3\n      swap2\n      pop\n      pop\n      jump\t// out\n        /* \"#utility.yul\":3446:3564   */\n    tag_275:\n        /* \"#utility.yul\":3533:3557   */\n      tag_374\n        /* \"#utility.yul\":3551:3556   */\n      dup2\n        /* \"#utility.yul\":3533:3557   */\n      tag_270\n      jump\t// in\n    tag_374:\n        /* \"#utility.yul\":3528:3531   */\n      dup3\n        /* \"#utility.yul\":3521:3558   */\n      mstore\n        /* \"#utility.yul\":3446:3564   */\n      pop\n      pop\n      jump\t// out\n        /* \"#utility.yul\":3570:3792   */\n    tag_37:\n        /* \"#utility.yul\":3663:3667   */\n      0x00\n        /* \"#utility.yul\":3701:3703   */\n      0x20\n        /* \"#utility.yul\":3690:3699   */\n      dup3\n        /* \"#utility.yul\":3686:3704   */\n      add\n        /* \"#utility.yul\":3678:3704   */\n      swap1\n      pop\n        /* \"#utility.yul\":3714:3785   */\n      tag_376\n        /* \"#utility.yul\":3782:3783   */\n      0x00\n        /* \"#utility.yul\":3771:3780   */\n      dup4\n        /* \"#utility.yul\":3767:3784   */\n      add\n        /* \"#utility.yul\":3758:3764   */\n      dup5\n        /* \"#utility.yul\":3714:3785   */\n      tag_275\n      jump\t// in\n    tag_376:\n        /* \"#utility.yul\":3570:3792   */\n      swap3\n      swap2\n      pop\n      pop\n      jump\t// out\n        /* \"#utility.yul\":3798:4127   */\n    tag_40:\n        /* \"#utility.yul\":3857:3863   */\n      0x00\n        /* \"#utility.yul\":3906:3908   */\n      0x20\n        /* \"#utility.yul\":3894:3903   */\n      dup3\n        /* \"#utility.yul\":3885:3892   */\n      dup5\n        /* \"#utility.yul\":3881:3904   */\n      sub\n        /* \"#utility.yul\":3877:3909   */\n      slt\n        /* \"#utility.yul\":3874:3993   */\n      iszero\n      tag_378\n      jumpi\n        /* \"#utility.yul\":3912:3991   */\n      tag_379\n      tag_264\n      jump\t// in\n    tag_379:\n        /* \"#utility.yul\":3874:3993   */\n    tag_378:\n        /* \"#utility.yul\":4032:4033   */\n      0x00\n        /* \"#utility.yul\":4057:4110   */\n      tag_380\n        /* \"#utility.yul\":4102:4109   */\n      dup5\n        /* \"#utility.yul\":4093:4099   */\n      dup3\n        /* \"#utility.yul\":4082:4091   */\n      dup6\n        /* \"#utility.yul\":4078:4100   */\n      add\n        /* \"#utility.yul\":4057:4110   */\n      tag_269\n      jump\t// in\n    tag_380:\n        /* \"#utility.yul\":4047:4110   */\n      swap2\n      pop\n        /* \"#utility.yul\":4003:4120   */\n      pop\n        /* \"#utility.yul\":3798:4127   */\n      swap3\n      swap2\n      pop\n      pop\n      jump\t// out\n        /* \"#utility.yul\":4133:4251   */\n    tag_276:\n        /* \"#utility.yul\":4220:4244   */\n      tag_382\n        /* \"#utility.yul\":4238:4243   */\n      dup2\n        /* \"#utility.yul\":4220:4244   */\n      tag_267\n      jump\t// in\n    tag_382:\n        /* \"#utility.yul\":4215:4218   */\n      dup3\n        /* \"#utility.yul\":4208:4245   */\n      mstore\n        /* \"#utility.yul\":4133:4251   */\n      pop\n      pop\n      jump\t// out\n        /* \"#utility.yul\":4257:4479   */\n    tag_46:\n        /* \"#utility.yul\":4350:4354   */\n      0x00\n        /* \"#utility.yul\":4388:4390   */\n      0x20\n        /* \"#utility.yul\":4377:4386   */\n      dup3\n        /* \"#utility.yul\":4373:4391   */\n      add\n        /* \"#utility.yul\":4365:4391   */\n      swap1\n      pop\n        /* \"#utility.yul\":4401:4472   */\n      tag_384\n        /* \"#utility.yul\":4469:4470   */\n      0x00\n        /* \"#utility.yul\":4458:4467   */\n      dup4\n        /* \"#utility.yul\":4454:4471   */\n      add\n        /* \"#utility.yul\":4445:4451   */\n      dup5\n        /* \"#utility.yul\":4401:4472   */\n      tag_276\n      jump\t// in\n    tag_384:\n        /* \"#utility.yul\":4257:4479   */\n      swap3\n      swap2\n      pop\n      pop\n      jump\t// out\n        /* \"#utility.yul\":4485:5104   */\n    tag_49:\n        /* \"#utility.yul\":4562:4568   */\n      0x00\n        /* \"#utility.yul\":4570:4576   */\n      dup1\n        /* \"#utility.yul\":4578:4584   */\n      0x00\n        /* \"#utility.yul\":4627:4629   */\n      0x60\n        /* \"#utility.yul\":4615:4624   */\n      dup5\n        /* \"#utility.yul\":4606:4613   */\n      dup7\n        /* \"#utility.yul\":4602:4625   */\n      sub\n        /* \"#utility.yul\":4598:4630   */\n      slt\n        /* \"#utility.yul\":4595:4714   */\n      iszero\n      tag_386\n      jumpi\n        /* \"#utility.yul\":4633:4712   */\n      tag_387\n      tag_264\n      jump\t// in\n    tag_387:\n        /* \"#utility.yul\":4595:4714   */\n    tag_386:\n        /* \"#utility.yul\":4753:4754   */\n      0x00\n        /* \"#utility.yul\":4778:4831   */\n      tag_388\n        /* \"#utility.yul\":4823:4830   */\n      dup7\n        /* \"#utility.yul\":4814:4820   */\n      dup3\n        /* \"#utility.yul\":4803:4812   */\n      dup8\n        /* \"#utility.yul\":4799:4821   */\n      add\n        /* \"#utility.yul\":4778:4831   */\n      tag_269\n      jump\t// in\n    tag_388:\n        /* \"#utility.yul\":4768:4831   */\n      swap4\n      pop\n        /* \"#utility.yul\":4724:4841   */\n      pop\n        /* \"#utility.yul\":4880:4882   */\n      0x20\n        /* \"#utility.yul\":4906:4959   */\n      tag_389\n        /* \"#utility.yul\":4951:4958   */\n      dup7\n        /* \"#utility.yul\":4942:4948   */\n      dup3\n        /* \"#utility.yul\":4931:4940   */\n      dup8\n        /* \"#utility.yul\":4927:4949   */\n      add\n        /* \"#utility.yul\":4906:4959   */\n      tag_269\n      jump\t// in\n    tag_389:\n        /* \"#utility.yul\":4896:4959   */\n      swap3\n      pop\n        /* \"#utility.yul\":4851:4969   */\n      pop\n        /* \"#utility.yul\":5008:5010   */\n      0x40\n        /* \"#utility.yul\":5034:5087   */\n      tag_390\n        /* \"#utility.yul\":5079:5086   */\n      dup7\n        /* \"#utility.yul\":5070:5076   */\n      dup3\n        /* \"#utility.yul\":5059:5068   */\n      dup8\n        /* \"#utility.yul\":5055:5077   */\n      add\n        /* \"#utility.yul\":5034:5087   */\n      tag_272\n      jump\t// in\n    tag_390:\n        /* \"#utility.yul\":5024:5087   */\n      swap2\n      pop\n        /* \"#utility.yul\":4979:5097   */\n      pop\n        /* \"#utility.yul\":4485:5104   */\n      swap3\n      pop\n      swap3\n      pop\n      swap3\n      jump\t// out\n        /* \"#utility.yul\":5110:5187   */\n    tag_277:\n        /* \"#utility.yul\":5147:5154   */\n      0x00\n        /* \"#utility.yul\":5176:5181   */\n      dup2\n        /* \"#utility.yul\":5165:5181   */\n      swap1\n      pop\n        /* \"#utility.yul\":5110:5187   */\n      swap2\n      swap1\n      pop\n      jump\t// out\n        /* \"#utility.yul\":5193:5315   */\n    tag_278:\n        /* \"#utility.yul\":5266:5290   */\n      tag_393\n        /* \"#utility.yul\":5284:5289   */\n      dup2\n        /* \"#utility.yul\":5266:5290   */\n      tag_277\n      jump\t// in\n    tag_393:\n        /* \"#utility.yul\":5259:5264   */\n      dup2\n        /* \"#utility.yul\":5256:5291   */\n      eq\n        /* \"#utility.yul\":5246:5309   */\n      tag_394\n      jumpi\n        /* \"#utility.yul\":5305:5306   */\n      0x00\n        /* \"#utility.yul\":5302:5303   */\n      dup1\n        /* \"#utility.yul\":5295:5307   */\n      revert\n        /* \"#utility.yul\":5246:5309   */\n    tag_394:\n        /* \"#utility.yul\":5193:5315   */\n      pop\n      jump\t// out\n        /* \"#utility.yul\":5321:5460   */\n    tag_279:\n        /* \"#utility.yul\":5367:5372   */\n      0x00\n        /* \"#utility.yul\":5405:5411   */\n      dup2\n        /* \"#utility.yul\":5392:5412   */\n      calldataload\n        /* \"#utility.yul\":5383:5412   */\n      swap1\n      pop\n        /* \"#utility.yul\":5421:5454   */\n      tag_396\n        /* \"#utility.yul\":5448:5453   */\n      dup2\n        /* \"#utility.yul\":5421:5454   */\n      tag_278\n      jump\t// in\n    tag_396:\n        /* \"#utility.yul\":5321:5460   */\n      swap3\n      swap2\n      pop\n      pop\n      jump\t// out\n        /* \"#utility.yul\":5466:5583   */\n    tag_280:\n        /* \"#utility.yul\":5575:5576   */\n      0x00\n        /* \"#utility.yul\":5572:5573   */\n      dup1\n        /* \"#utility.yul\":5565:5577   */\n      revert\n        /* \"#utility.yul\":5589:5706   */\n    tag_281:\n        /* \"#utility.yul\":5698:5699   */\n      0x00\n        /* \"#utility.yul\":5695:5696   */\n      dup1\n        /* \"#utility.yul\":5688:5700   */\n      revert\n        /* \"#utility.yul\":5712:5892   */\n    tag_282:\n        /* \"#utility.yul\":5760:5837   */\n      0x4e487b7100000000000000000000000000000000000000000000000000000000\n        /* \"#utility.yul\":5757:5758   */\n      0x00\n        /* \"#utility.yul\":5750:5838   */\n      mstore\n        /* \"#utility.yul\":5857:5861   */\n      0x41\n        /* \"#utility.yul\":5854:5855   */\n      0x04\n        /* \"#utility.yul\":5847:5862   */\n      mstore\n        /* \"#utility.yul\":5881:5885   */\n      0x24\n        /* \"#utility.yul\":5878:5879   */\n      0x00\n        /* \"#utility.yul\":5871:5886   */\n      revert\n        /* \"#utility.yul\":5898:6179   */\n    tag_283:\n        /* \"#utility.yul\":5981:6008   */\n      tag_401\n        /* \"#utility.yul\":6003:6007   */\n      dup3\n        /* \"#utility.yul\":5981:6008   */\n      tag_261\n      jump\t// in\n    tag_401:\n        /* \"#utility.yul\":5973:5979   */\n      dup2\n        /* \"#utility.yul\":5969:6009   */\n      add\n        /* \"#utility.yul\":6111:6117   */\n      dup2\n        /* \"#utility.yul\":6099:6109   */\n      dup2\n        /* \"#utility.yul\":6096:6118   */\n      lt\n        /* \"#utility.yul\":6075:6093   */\n      0xffffffffffffffff\n        /* \"#utility.yul\":6063:6073   */\n      dup3\n        /* \"#utility.yul\":6060:6094   */\n      gt\n        /* \"#utility.yul\":6057:6119   */\n      or\n        /* \"#utility.yul\":6054:6142   */\n      iszero\n      tag_402\n      jumpi\n        /* \"#utility.yul\":6122:6140   */\n      tag_403\n      tag_282\n      jump\t// in\n    tag_403:\n        /* \"#utility.yul\":6054:6142   */\n    tag_402:\n        /* \"#utility.yul\":6162:6172   */\n      dup1\n        /* \"#utility.yul\":6158:6160   */\n      0x40\n        /* \"#utility.yul\":6151:6173   */\n      mstore\n        /* \"#utility.yul\":5941:6179   */\n      pop\n        /* \"#utility.yul\":5898:6179   */\n      pop\n      pop\n      jump\t// out\n        /* \"#utility.yul\":6185:6314   */\n    tag_284:\n        /* \"#utility.yul\":6219:6225   */\n      0x00\n        /* \"#utility.yul\":6246:6266   */\n      tag_405\n      tag_263\n      jump\t// in\n    tag_405:\n        /* \"#utility.yul\":6236:6266   */\n      swap1\n      pop\n        /* \"#utility.yul\":6275:6308   */\n      tag_406\n        /* \"#utility.yul\":6303:6307   */\n      dup3\n        /* \"#utility.yul\":6295:6301   */\n      dup3\n        /* \"#utility.yul\":6275:6308   */\n      tag_283\n      jump\t// in\n    tag_406:\n        /* \"#utility.yul\":6185:6314   */\n      swap2\n      swap1\n      pop\n      jump\t// out\n        /* \"#utility.yul\":6320:6627   */\n    tag_285:\n        /* \"#utility.yul\":6381:6385   */\n      0x00\n        /* \"#utility.yul\":6471:6489   */\n      0xffffffffffffffff\n        /* \"#utility.yul\":6463:6469   */\n      dup3\n        /* \"#utility.yul\":6460:6490   */\n      gt\n        /* \"#utility.yul\":6457:6513   */\n      iszero\n      tag_408\n      jumpi\n        /* \"#utility.yul\":6493:6511   */\n      tag_409\n      tag_282\n      jump\t// in\n    tag_409:\n        /* \"#utility.yul\":6457:6513   */\n    tag_408:\n        /* \"#utility.yul\":6531:6560   */\n      tag_410\n        /* \"#utility.yul\":6553:6559   */\n      dup3\n        /* \"#utility.yul\":6531:6560   */\n      tag_261\n      jump\t// in\n    tag_410:\n        /* \"#utility.yul\":6523:6560   */\n      swap1\n      pop\n        /* \"#utility.yul\":6615:6619   */\n      0x20\n        /* \"#utility.yul\":6609:6613   */\n      dup2\n        /* \"#utility.yul\":6605:6620   */\n      add\n        /* \"#utility.yul\":6597:6620   */\n      swap1\n      pop\n        /* \"#utility.yul\":6320:6627   */\n      swap2\n      swap1\n      pop\n      jump\t// out\n        /* \"#utility.yul\":6633:6779   */\n    tag_286:\n        /* \"#utility.yul\":6730:6736   */\n      dup3\n        /* \"#utility.yul\":6725:6728   */\n      dup2\n        /* \"#utility.yul\":6720:6723   */\n      dup4\n        /* \"#utility.yul\":6707:6737   */\n      calldatacopy\n        /* \"#utility.yul\":6771:6772   */\n      0x00\n        /* \"#utility.yul\":6762:6768   */\n      dup4\n        /* \"#utility.yul\":6757:6760   */\n      dup4\n        /* \"#utility.yul\":6753:6769   */\n      add\n        /* \"#utility.yul\":6746:6773   */\n      mstore\n        /* \"#utility.yul\":6633:6779   */\n      pop\n      pop\n      pop\n      jump\t// out\n        /* \"#utility.yul\":6785:7208   */\n    tag_287:\n        /* \"#utility.yul\":6862:6867   */\n      0x00\n        /* \"#utility.yul\":6887:6952   */\n      tag_413\n        /* \"#utility.yul\":6903:6951   */\n      tag_414\n        /* \"#utility.yul\":6944:6950   */\n      dup5\n        /* \"#utility.yul\":6903:6951   */\n      tag_285\n      jump\t// in\n    tag_414:\n        /* \"#utility.yul\":6887:6952   */\n      tag_284\n      jump\t// in\n    tag_413:\n        /* \"#utility.yul\":6878:6952   */\n      swap1\n      pop\n        /* \"#utility.yul\":6975:6981   */\n      dup3\n        /* \"#utility.yul\":6968:6973   */\n      dup2\n        /* \"#utility.yul\":6961:6982   */\n      mstore\n        /* \"#utility.yul\":7013:7017   */\n      0x20\n        /* \"#utility.yul\":7006:7011   */\n      dup2\n        /* \"#utility.yul\":7002:7018   */\n      add\n        /* \"#utility.yul\":7051:7054   */\n      dup5\n        /* \"#utility.yul\":7042:7048   */\n      dup5\n        /* \"#utility.yul\":7037:7040   */\n      dup5\n        /* \"#utility.yul\":7033:7049   */\n      add\n        /* \"#utility.yul\":7030:7055   */\n      gt\n        /* \"#utility.yul\":7027:7139   */\n      iszero\n      tag_415\n      jumpi\n        /* \"#utility.yul\":7058:7137   */\n      tag_416\n      tag_281\n      jump\t// in\n    tag_416:\n        /* \"#utility.yul\":7027:7139   */\n    tag_415:\n        /* \"#utility.yul\":7148:7202   */\n      tag_417\n        /* \"#utility.yul\":7195:7201   */\n      dup5\n        /* \"#utility.yul\":7190:7193   */\n      dup3\n        /* \"#utility.yul\":7185:7188   */\n      dup6\n        /* \"#utility.yul\":7148:7202   */\n      tag_286\n      jump\t// in\n    tag_417:\n        /* \"#utility.yul\":6868:7208   */\n      pop\n        /* \"#utility.yul\":6785:7208   */\n      swap4\n      swap3\n      pop\n      pop\n      pop\n      jump\t// out\n        /* \"#utility.yul\":7227:7565   */\n    tag_288:\n        /* \"#utility.yul\":7282:7287   */\n      0x00\n        /* \"#utility.yul\":7331:7334   */\n      dup3\n        /* \"#utility.yul\":7324:7328   */\n      0x1f\n        /* \"#utility.yul\":7316:7322   */\n      dup4\n        /* \"#utility.yul\":7312:7329   */\n      add\n        /* \"#utility.yul\":7308:7335   */\n      slt\n        /* \"#utility.yul\":7298:7420   */\n      tag_419\n      jumpi\n        /* \"#utility.yul\":7339:7418   */\n      tag_420\n      tag_280\n      jump\t// in\n    tag_420:\n        /* \"#utility.yul\":7298:7420   */\n    tag_419:\n        /* \"#utility.yul\":7456:7462   */\n      dup2\n        /* \"#utility.yul\":7443:7463   */\n      calldataload\n        /* \"#utility.yul\":7481:7559   */\n      tag_421\n        /* \"#utility.yul\":7555:7558   */\n      dup5\n        /* \"#utility.yul\":7547:7553   */\n      dup3\n        /* \"#utility.yul\":7540:7544   */\n      0x20\n        /* \"#utility.yul\":7532:7538   */\n      dup7\n        /* \"#utility.yul\":7528:7545   */\n      add\n        /* \"#utility.yul\":7481:7559   */\n      tag_287\n      jump\t// in\n    tag_421:\n        /* \"#utility.yul\":7472:7559   */\n      swap2\n      pop\n        /* \"#utility.yul\":7288:7565   */\n      pop\n        /* \"#utility.yul\":7227:7565   */\n      swap3\n      swap2\n      pop\n      pop\n      jump\t// out\n        /* \"#utility.yul\":7571:8223   */\n    tag_54:\n        /* \"#utility.yul\":7648:7654   */\n      0x00\n        /* \"#utility.yul\":7656:7662   */\n      dup1\n        /* \"#utility.yul\":7705:7707   */\n      0x40\n        /* \"#utility.yul\":7693:7702   */\n      dup4\n        /* \"#utility.yul\":7684:7691   */\n      dup6\n        /* \"#utility.yul\":7680:7703   */\n      sub\n        /* \"#utility.yul\":7676:7708   */\n      slt\n        /* \"#utility.yul\":7673:7792   */\n      iszero\n      tag_423\n      jumpi\n        /* \"#utility.yul\":7711:7790   */\n      tag_424\n      tag_264\n      jump\t// in\n    tag_424:\n        /* \"#utility.yul\":7673:7792   */\n    tag_423:\n        /* \"#utility.yul\":7831:7832   */\n      0x00\n        /* \"#utility.yul\":7856:7909   */\n      tag_425\n        /* \"#utility.yul\":7901:7908   */\n      dup6\n        /* \"#utility.yul\":7892:7898   */\n      dup3\n        /* \"#utility.yul\":7881:7890   */\n      dup7\n        /* \"#utility.yul\":7877:7899   */\n      add\n        /* \"#utility.yul\":7856:7909   */\n      tag_279\n      jump\t// in\n    tag_425:\n        /* \"#utility.yul\":7846:7909   */\n      swap3\n      pop\n        /* \"#utility.yul\":7802:7919   */\n      pop\n        /* \"#utility.yul\":7986:7988   */\n      0x20\n        /* \"#utility.yul\":7975:7984   */\n      dup4\n        /* \"#utility.yul\":7971:7989   */\n      add\n        /* \"#utility.yul\":7958:7990   */\n      calldataload\n        /* \"#utility.yul\":8017:8035   */\n      0xffffffffffffffff\n        /* \"#utility.yul\":8009:8015   */\n      dup2\n        /* \"#utility.yul\":8006:8036   */\n      gt\n        /* \"#utility.yul\":8003:8120   */\n      iszero\n      tag_426\n      jumpi\n        /* \"#utility.yul\":8039:8118   */\n      tag_427\n      tag_265\n      jump\t// in\n    tag_427:\n        /* \"#utility.yul\":8003:8120   */\n    tag_426:\n        /* \"#utility.yul\":8144:8206   */\n      tag_428\n        /* \"#utility.yul\":8198:8205   */\n      dup6\n        /* \"#utility.yul\":8189:8195   */\n      dup3\n        /* \"#utility.yul\":8178:8187   */\n      dup7\n        /* \"#utility.yul\":8174:8196   */\n      add\n        /* \"#utility.yul\":8144:8206   */\n      tag_288\n      jump\t// in\n    tag_428:\n        /* \"#utility.yul\":8134:8206   */\n      swap2\n      pop\n        /* \"#utility.yul\":7929:8216   */\n      pop\n        /* \"#utility.yul\":7571:8223   */\n      swap3\n      pop\n      swap3\n      swap1\n      pop\n      jump\t// out\n        /* \"#utility.yul\":8229:8315   */\n    tag_289:\n        /* \"#utility.yul\":8264:8271   */\n      0x00\n        /* \"#utility.yul\":8304:8308   */\n      0xff\n        /* \"#utility.yul\":8297:8302   */\n      dup3\n        /* \"#utility.yul\":8293:8309   */\n      and\n        /* \"#utility.yul\":8282:8309   */\n      swap1\n      pop\n        /* \"#utility.yul\":8229:8315   */\n      swap2\n      swap1\n      pop\n      jump\t// out\n        /* \"#utility.yul\":8321:8433   */\n    tag_290:\n        /* \"#utility.yul\":8404:8426   */\n      tag_431\n        /* \"#utility.yul\":8420:8425   */\n      dup2\n        /* \"#utility.yul\":8404:8426   */\n      tag_289\n      jump\t// in\n    tag_431:\n        /* \"#utility.yul\":8399:8402   */\n      dup3\n        /* \"#utility.yul\":8392:8427   */\n      mstore\n        /* \"#utility.yul\":8321:8433   */\n      pop\n      pop\n      jump\t// out\n        /* \"#utility.yul\":8439:8653   */\n    tag_60:\n        /* \"#utility.yul\":8528:8532   */\n      0x00\n        /* \"#utility.yul\":8566:8568   */\n      0x20\n        /* \"#utility.yul\":8555:8564   */\n      dup3\n        /* \"#utility.yul\":8551:8569   */\n      add\n        /* \"#utility.yul\":8543:8569   */\n      swap1\n      pop\n        /* \"#utility.yul\":8579:8646   */\n      tag_433\n        /* \"#utility.yul\":8643:8644   */\n      0x00\n        /* \"#utility.yul\":8632:8641   */\n      dup4\n        /* \"#utility.yul\":8628:8645   */\n      add\n        /* \"#utility.yul\":8619:8625   */\n      dup5\n        /* \"#utility.yul\":8579:8646   */\n      tag_290\n      jump\t// in\n    tag_433:\n        /* \"#utility.yul\":8439:8653   */\n      swap3\n      swap2\n      pop\n      pop\n      jump\t// out\n        /* \"#utility.yul\":8659:8988   */\n    tag_67:\n        /* \"#utility.yul\":8718:8724   */\n      0x00\n        /* \"#utility.yul\":8767:8769   */\n      0x20\n        /* \"#utility.yul\":8755:8764   */\n      dup3\n        /* \"#utility.yul\":8746:8753   */\n      dup5\n        /* \"#utility.yul\":8742:8765   */\n      sub\n        /* \"#utility.yul\":8738:8770   */\n      slt\n        /* \"#utility.yul\":8735:8854   */\n      iszero\n      tag_435\n      jumpi\n        /* \"#utility.yul\":8773:8852   */\n      tag_436\n      tag_264\n      jump\t// in\n    tag_436:\n        /* \"#utility.yul\":8735:8854   */\n    tag_435:\n        /* \"#utility.yul\":8893:8894   */\n      0x00\n        /* \"#utility.yul\":8918:8971   */\n      tag_437\n        /* \"#utility.yul\":8963:8970   */\n      dup5\n        /* \"#utility.yul\":8954:8960   */\n      dup3\n        /* \"#utility.yul\":8943:8952   */\n      dup6\n        /* \"#utility.yul\":8939:8961   */\n      add\n        /* \"#utility.yul\":8918:8971   */\n      tag_279\n      jump\t// in\n    tag_437:\n        /* \"#utility.yul\":8908:8971   */\n      swap2\n      pop\n        /* \"#utility.yul\":8864:8981   */\n      pop\n        /* \"#utility.yul\":8659:8988   */\n      swap3\n      swap2\n      pop\n      pop\n      jump\t// out\n        /* \"#utility.yul\":8994:9112   */\n    tag_291:\n        /* \"#utility.yul\":9081:9105   */\n      tag_439\n        /* \"#utility.yul\":9099:9104   */\n      dup2\n        /* \"#utility.yul\":9081:9105   */\n      tag_277\n      jump\t// in\n    tag_439:\n        /* \"#utility.yul\":9076:9079   */\n      dup3\n        /* \"#utility.yul\":9069:9106   */\n      mstore\n        /* \"#utility.yul\":8994:9112   */\n      pop\n      pop\n      jump\t// out\n        /* \"#utility.yul\":9118:9340   */\n    tag_70:\n        /* \"#utility.yul\":9211:9215   */\n      0x00\n        /* \"#utility.yul\":9249:9251   */\n      0x20\n        /* \"#utility.yul\":9238:9247   */\n      dup3\n        /* \"#utility.yul\":9234:9252   */\n      add\n        /* \"#utility.yul\":9226:9252   */\n      swap1\n      pop\n        /* \"#utility.yul\":9262:9333   */\n      tag_441\n        /* \"#utility.yul\":9330:9331   */\n      0x00\n        /* \"#utility.yul\":9319:9328   */\n      dup4\n        /* \"#utility.yul\":9315:9332   */\n      add\n        /* \"#utility.yul\":9306:9312   */\n      dup5\n        /* \"#utility.yul\":9262:9333   */\n      tag_291\n      jump\t// in\n    tag_441:\n        /* \"#utility.yul\":9118:9340   */\n      swap3\n      swap2\n      pop\n      pop\n      jump\t// out\n        /* \"#utility.yul\":9346:9820   */\n    tag_95:\n        /* \"#utility.yul\":9414:9420   */\n      0x00\n        /* \"#utility.yul\":9422:9428   */\n      dup1\n        /* \"#utility.yul\":9471:9473   */\n      0x40\n        /* \"#utility.yul\":9459:9468   */\n      dup4\n        /* \"#utility.yul\":9450:9457   */\n      dup6\n        /* \"#utility.yul\":9446:9469   */\n      sub\n        /* \"#utility.yul\":9442:9474   */\n      slt\n        /* \"#utility.yul\":9439:9558   */\n      iszero\n      tag_443\n      jumpi\n        /* \"#utility.yul\":9477:9556   */\n      tag_444\n      tag_264\n      jump\t// in\n    tag_444:\n        /* \"#utility.yul\":9439:9558   */\n    tag_443:\n        /* \"#utility.yul\":9597:9598   */\n      0x00\n        /* \"#utility.yul\":9622:9675   */\n      tag_445\n        /* \"#utility.yul\":9667:9674   */\n      dup6\n        /* \"#utility.yul\":9658:9664   */\n      dup3\n        /* \"#utility.yul\":9647:9656   */\n      dup7\n        /* \"#utility.yul\":9643:9665   */\n      add\n        /* \"#utility.yul\":9622:9675   */\n      tag_269\n      jump\t// in\n    tag_445:\n        /* \"#utility.yul\":9612:9675   */\n      swap3\n      pop\n        /* \"#utility.yul\":9568:9685   */\n      pop\n        /* \"#utility.yul\":9724:9726   */\n      0x20\n        /* \"#utility.yul\":9750:9803   */\n      tag_446\n        /* \"#utility.yul\":9795:9802   */\n      dup6\n        /* \"#utility.yul\":9786:9792   */\n      dup3\n        /* \"#utility.yul\":9775:9784   */\n      dup7\n        /* \"#utility.yul\":9771:9793   */\n      add\n        /* \"#utility.yul\":9750:9803   */\n      tag_269\n      jump\t// in\n    tag_446:\n        /* \"#utility.yul\":9740:9803   */\n      swap2\n      pop\n        /* \"#utility.yul\":9695:9813   */\n      pop\n        /* \"#utility.yul\":9346:9820   */\n      swap3\n      pop\n      swap3\n      swap1\n      pop\n      jump\t// out\n        /* \"#utility.yul\":9826:10623   */\n    tag_100:\n        /* \"#utility.yul\":9912:9918   */\n      0x00\n        /* \"#utility.yul\":9920:9926   */\n      dup1\n        /* \"#utility.yul\":9928:9934   */\n      0x00\n        /* \"#utility.yul\":9977:9979   */\n      0x60\n        /* \"#utility.yul\":9965:9974   */\n      dup5\n        /* \"#utility.yul\":9956:9963   */\n      dup7\n        /* \"#utility.yul\":9952:9975   */\n      sub\n        /* \"#utility.yul\":9948:9980   */\n      slt\n        /* \"#utility.yul\":9945:10064   */\n      iszero\n      tag_448\n      jumpi\n        /* \"#utility.yul\":9983:10062   */\n      tag_449\n      tag_264\n      jump\t// in\n    tag_449:\n        /* \"#utility.yul\":9945:10064   */\n    tag_448:\n        /* \"#utility.yul\":10103:10104   */\n      0x00\n        /* \"#utility.yul\":10128:10181   */\n      tag_450\n        /* \"#utility.yul\":10173:10180   */\n      dup7\n        /* \"#utility.yul\":10164:10170   */\n      dup3\n        /* \"#utility.yul\":10153:10162   */\n      dup8\n        /* \"#utility.yul\":10149:10171   */\n      add\n        /* \"#utility.yul\":10128:10181   */\n      tag_269\n      jump\t// in\n    tag_450:\n        /* \"#utility.yul\":10118:10181   */\n      swap4\n      pop\n        /* \"#utility.yul\":10074:10191   */\n      pop\n        /* \"#utility.yul\":10230:10232   */\n      0x20\n        /* \"#utility.yul\":10256:10309   */\n      tag_451\n        /* \"#utility.yul\":10301:10308   */\n      dup7\n        /* \"#utility.yul\":10292:10298   */\n      dup3\n        /* \"#utility.yul\":10281:10290   */\n      dup8\n        /* \"#utility.yul\":10277:10299   */\n      add\n        /* \"#utility.yul\":10256:10309   */\n      tag_272\n      jump\t// in\n    tag_451:\n        /* \"#utility.yul\":10246:10309   */\n      swap3\n      pop\n        /* \"#utility.yul\":10201:10319   */\n      pop\n        /* \"#utility.yul\":10386:10388   */\n      0x40\n        /* \"#utility.yul\":10375:10384   */\n      dup5\n        /* \"#utility.yul\":10371:10389   */\n      add\n        /* \"#utility.yul\":10358:10390   */\n      calldataload\n        /* \"#utility.yul\":10417:10435   */\n      0xffffffffffffffff\n        /* \"#utility.yul\":10409:10415   */\n      dup2\n        /* \"#utility.yul\":10406:10436   */\n      gt\n        /* \"#utility.yul\":10403:10520   */\n      iszero\n      tag_452\n      jumpi\n        /* \"#utility.yul\":10439:10518   */\n      tag_453\n      tag_265\n      jump\t// in\n    tag_453:\n        /* \"#utility.yul\":10403:10520   */\n    tag_452:\n        /* \"#utility.yul\":10544:10606   */\n      tag_454\n        /* \"#utility.yul\":10598:10605   */\n      dup7\n        /* \"#utility.yul\":10589:10595   */\n      dup3\n        /* \"#utility.yul\":10578:10587   */\n      dup8\n        /* \"#utility.yul\":10574:10596   */\n      add\n        /* \"#utility.yul\":10544:10606   */\n      tag_288\n      jump\t// in\n    tag_454:\n        /* \"#utility.yul\":10534:10606   */\n      swap2\n      pop\n        /* \"#utility.yul\":10329:10616   */\n      pop\n        /* \"#utility.yul\":9826:10623   */\n      swap3\n      pop\n      swap3\n      pop\n      swap3\n      jump\t// out\n        /* \"#utility.yul\":10629:10809   */\n    tag_292:\n        /* \"#utility.yul\":10677:10754   */\n      0x4e487b7100000000000000000000000000000000000000000000000000000000\n        /* \"#utility.yul\":10674:10675   */\n      0x00\n        /* \"#utility.yul\":10667:10755   */\n      mstore\n        /* \"#utility.yul\":10774:10778   */\n      0x22\n        /* \"#utility.yul\":10771:10772   */\n      0x04\n        /* \"#utility.yul\":10764:10779   */\n      mstore\n        /* \"#utility.yul\":10798:10802   */\n      0x24\n        /* \"#utility.yul\":10795:10796   */\n      0x00\n        /* \"#utility.yul\":10788:10803   */\n      revert\n        /* \"#utility.yul\":10815:11135   */\n    tag_104:\n        /* \"#utility.yul\":10859:10865   */\n      0x00\n        /* \"#utility.yul\":10896:10897   */\n      0x02\n        /* \"#utility.yul\":10890:10894   */\n      dup3\n        /* \"#utility.yul\":10886:10898   */\n      div\n        /* \"#utility.yul\":10876:10898   */\n      swap1\n      pop\n        /* \"#utility.yul\":10943:10944   */\n      0x01\n        /* \"#utility.yul\":10937:10941   */\n      dup3\n        /* \"#utility.yul\":10933:10945   */\n      and\n        /* \"#utility.yul\":10964:10982   */\n      dup1\n        /* \"#utility.yul\":10954:11035   */\n      tag_457\n      jumpi\n        /* \"#utility.yul\":11020:11024   */\n      0x7f\n        /* \"#utility.yul\":11012:11018   */\n      dup3\n        /* \"#utility.yul\":11008:11025   */\n      and\n        /* \"#utility.yul\":10998:11025   */\n      swap2\n      pop\n        /* \"#utility.yul\":10954:11035   */\n    tag_457:\n        /* \"#utility.yul\":11082:11084   */\n      0x20\n        /* \"#utility.yul\":11074:11080   */\n      dup3\n        /* \"#utility.yul\":11071:11085   */\n      lt\n        /* \"#utility.yul\":11051:11069   */\n      dup2\n        /* \"#utility.yul\":11048:11086   */\n      sub\n        /* \"#utility.yul\":11045:11129   */\n      tag_458\n      jumpi\n        /* \"#utility.yul\":11101:11119   */\n      tag_459\n      tag_292\n      jump\t// in\n    tag_459:\n        /* \"#utility.yul\":11045:11129   */\n    tag_458:\n        /* \"#utility.yul\":10866:11135   */\n      pop\n        /* \"#utility.yul\":10815:11135   */\n      swap2\n      swap1\n      pop\n      jump\t// out\n        /* \"#utility.yul\":11141:11321   */\n    tag_293:\n        /* \"#utility.yul\":11189:11266   */\n      0x4e487b7100000000000000000000000000000000000000000000000000000000\n        /* \"#utility.yul\":11186:11187   */\n      0x00\n        /* \"#utility.yul\":11179:11267   */\n      mstore\n        /* \"#utility.yul\":11286:11290   */\n      0x11\n        /* \"#utility.yul\":11283:11284   */\n      0x04\n        /* \"#utility.yul\":11276:11291   */\n      mstore\n        /* \"#utility.yul\":11310:11314   */\n      0x24\n        /* \"#utility.yul\":11307:11308   */\n      0x00\n        /* \"#utility.yul\":11300:11315   */\n      revert\n        /* \"#utility.yul\":11327:11518   */\n    tag_130:\n        /* \"#utility.yul\":11367:11370   */\n      0x00\n        /* \"#utility.yul\":11386:11406   */\n      tag_462\n        /* \"#utility.yul\":11404:11405   */\n      dup3\n        /* \"#utility.yul\":11386:11406   */\n      tag_270\n      jump\t// in\n    tag_462:\n        /* \"#utility.yul\":11381:11406   */\n      swap2\n      pop\n        /* \"#utility.yul\":11420:11440   */\n      tag_463\n        /* \"#utility.yul\":11438:11439   */\n      dup4\n        /* \"#utility.yul\":11420:11440   */\n      tag_270\n      jump\t// in\n    tag_463:\n        /* \"#utility.yul\":11415:11440   */\n      swap3\n      pop\n        /* \"#utility.yul\":11463:11464   */\n      dup3\n        /* \"#utility.yul\":11460:11461   */\n      dup3\n        /* \"#utility.yul\":11456:11465   */\n      add\n        /* \"#utility.yul\":11449:11465   */\n      swap1\n      pop\n        /* \"#utility.yul\":11484:11487   */\n      dup1\n        /* \"#utility.yul\":11481:11482   */\n      dup3\n        /* \"#utility.yul\":11478:11488   */\n      gt\n        /* \"#utility.yul\":11475:11511   */\n      iszero\n      tag_464\n      jumpi\n        /* \"#utility.yul\":11491:11509   */\n      tag_465\n      tag_293\n      jump\t// in\n    tag_465:\n        /* \"#utility.yul\":11475:11511   */\n    tag_464:\n        /* \"#utility.yul\":11327:11518   */\n      swap3\n      swap2\n      pop\n      pop\n      jump\t// out\n        /* \"#utility.yul\":11524:11672   */\n    tag_294:\n        /* \"#utility.yul\":11626:11637   */\n      0x00\n        /* \"#utility.yul\":11663:11666   */\n      dup2\n        /* \"#utility.yul\":11648:11666   */\n      swap1\n      pop\n        /* \"#utility.yul\":11524:11672   */\n      swap3\n      swap2\n      pop\n      pop\n      jump\t// out\n        /* \"#utility.yul\":11678:11892   */\n    tag_295:\n        /* \"#utility.yul\":11818:11884   */\n      0x19457468657265756d205369676e6564204d6573736167653a0a333200000000\n        /* \"#utility.yul\":11814:11815   */\n      0x00\n        /* \"#utility.yul\":11806:11812   */\n      dup3\n        /* \"#utility.yul\":11802:11816   */\n      add\n        /* \"#utility.yul\":11795:11885   */\n      mstore\n        /* \"#utility.yul\":11678:11892   */\n      pop\n      jump\t// out\n        /* \"#utility.yul\":11898:12300   */\n    tag_296:\n        /* \"#utility.yul\":12058:12061   */\n      0x00\n        /* \"#utility.yul\":12079:12164   */\n      tag_469\n        /* \"#utility.yul\":12161:12163   */\n      0x1c\n        /* \"#utility.yul\":12156:12159   */\n      dup4\n        /* \"#utility.yul\":12079:12164   */\n      tag_294\n      jump\t// in\n    tag_469:\n        /* \"#utility.yul\":12072:12164   */\n      swap2\n      pop\n        /* \"#utility.yul\":12173:12266   */\n      tag_470\n        /* \"#utility.yul\":12262:12265   */\n      dup3\n        /* \"#utility.yul\":12173:12266   */\n      tag_295\n      jump\t// in\n    tag_470:\n        /* \"#utility.yul\":12291:12293   */\n      0x1c\n        /* \"#utility.yul\":12286:12289   */\n      dup3\n        /* \"#utility.yul\":12282:12294   */\n      add\n        /* \"#utility.yul\":12275:12294   */\n      swap1\n      pop\n        /* \"#utility.yul\":11898:12300   */\n      swap2\n      swap1\n      pop\n      jump\t// out\n        /* \"#utility.yul\":12306:12385   */\n    tag_297:\n        /* \"#utility.yul\":12345:12352   */\n      0x00\n        /* \"#utility.yul\":12374:12379   */\n      dup2\n        /* \"#utility.yul\":12363:12379   */\n      swap1\n      pop\n        /* \"#utility.yul\":12306:12385   */\n      swap2\n      swap1\n      pop\n      jump\t// out\n        /* \"#utility.yul\":12391:12548   */\n    tag_298:\n        /* \"#utility.yul\":12496:12541   */\n      tag_473\n        /* \"#utility.yul\":12516:12540   */\n      tag_474\n        /* \"#utility.yul\":12534:12539   */\n      dup3\n        /* \"#utility.yul\":12516:12540   */\n      tag_277\n      jump\t// in\n    tag_474:\n        /* \"#utility.yul\":12496:12541   */\n      tag_297\n      jump\t// in\n    tag_473:\n        /* \"#utility.yul\":12491:12494   */\n      dup3\n        /* \"#utility.yul\":12484:12542   */\n      mstore\n        /* \"#utility.yul\":12391:12548   */\n      pop\n      pop\n      jump\t// out\n        /* \"#utility.yul\":12554:13076   */\n    tag_133:\n        /* \"#utility.yul\":12767:12770   */\n      0x00\n        /* \"#utility.yul\":12789:12937   */\n      tag_476\n        /* \"#utility.yul\":12933:12936   */\n      dup3\n        /* \"#utility.yul\":12789:12937   */\n      tag_296\n      jump\t// in\n    tag_476:\n        /* \"#utility.yul\":12782:12937   */\n      swap2\n      pop\n        /* \"#utility.yul\":12947:13022   */\n      tag_477\n        /* \"#utility.yul\":13018:13021   */\n      dup3\n        /* \"#utility.yul\":13009:13015   */\n      dup5\n        /* \"#utility.yul\":12947:13022   */\n      tag_298\n      jump\t// in\n    tag_477:\n        /* \"#utility.yul\":13047:13049   */\n      0x20\n        /* \"#utility.yul\":13042:13045   */\n      dup3\n        /* \"#utility.yul\":13038:13050   */\n      add\n        /* \"#utility.yul\":13031:13050   */\n      swap2\n      pop\n        /* \"#utility.yul\":13067:13070   */\n      dup2\n        /* \"#utility.yul\":13060:13070   */\n      swap1\n      pop\n        /* \"#utility.yul\":12554:13076   */\n      swap3\n      swap2\n      pop\n      pop\n      jump\t// out\n        /* \"#utility.yul\":13082:13176   */\n    tag_299:\n        /* \"#utility.yul\":13115:13123   */\n      0x00\n        /* \"#utility.yul\":13163:13168   */\n      dup2\n        /* \"#utility.yul\":13159:13161   */\n      0x60\n        /* \"#utility.yul\":13155:13169   */\n      shl\n        /* \"#utility.yul\":13134:13169   */\n      swap1\n      pop\n        /* \"#utility.yul\":13082:13176   */\n      swap2\n      swap1\n      pop\n      jump\t// out\n        /* \"#utility.yul\":13182:13276   */\n    tag_300:\n        /* \"#utility.yul\":13221:13228   */\n      0x00\n        /* \"#utility.yul\":13250:13270   */\n      tag_480\n        /* \"#utility.yul\":13264:13269   */\n      dup3\n        /* \"#utility.yul\":13250:13270   */\n      tag_299\n      jump\t// in\n    tag_480:\n        /* \"#utility.yul\":13239:13270   */\n      swap1\n      pop\n        /* \"#utility.yul\":13182:13276   */\n      swap2\n      swap1\n      pop\n      jump\t// out\n        /* \"#utility.yul\":13282:13382   */\n    tag_301:\n        /* \"#utility.yul\":13321:13328   */\n      0x00\n        /* \"#utility.yul\":13350:13376   */\n      tag_482\n        /* \"#utility.yul\":13370:13375   */\n      dup3\n        /* \"#utility.yul\":13350:13376   */\n      tag_300\n      jump\t// in\n    tag_482:\n        /* \"#utility.yul\":13339:13376   */\n      swap1\n      pop\n        /* \"#utility.yul\":13282:13382   */\n      swap2\n      swap1\n      pop\n      jump\t// out\n        /* \"#utility.yul\":13388:13545   */\n    tag_302:\n        /* \"#utility.yul\":13493:13538   */\n      tag_484\n        /* \"#utility.yul\":13513:13537   */\n      tag_485\n        /* \"#utility.yul\":13531:13536   */\n      dup3\n        /* \"#utility.yul\":13513:13537   */\n      tag_267\n      jump\t// in\n    tag_485:\n        /* \"#utility.yul\":13493:13538   */\n      tag_301\n      jump\t// in\n    tag_484:\n        /* \"#utility.yul\":13488:13491   */\n      dup3\n        /* \"#utility.yul\":13481:13539   */\n      mstore\n        /* \"#utility.yul\":13388:13545   */\n      pop\n      pop\n      jump\t// out\n        /* \"#utility.yul\":13551:13630   */\n    tag_303:\n        /* \"#utility.yul\":13590:13597   */\n      0x00\n        /* \"#utility.yul\":13619:13624   */\n      dup2\n        /* \"#utility.yul\":13608:13624   */\n      swap1\n      pop\n        /* \"#utility.yul\":13551:13630   */\n      swap2\n      swap1\n      pop\n      jump\t// out\n        /* \"#utility.yul\":13636:13793   */\n    tag_304:\n        /* \"#utility.yul\":13741:13786   */\n      tag_488\n        /* \"#utility.yul\":13761:13785   */\n      tag_489\n        /* \"#utility.yul\":13779:13784   */\n      dup3\n        /* \"#utility.yul\":13761:13785   */\n      tag_270\n      jump\t// in\n    tag_489:\n        /* \"#utility.yul\":13741:13786   */\n      tag_303\n      jump\t// in\n    tag_488:\n        /* \"#utility.yul\":13736:13739   */\n      dup3\n        /* \"#utility.yul\":13729:13787   */\n      mstore\n        /* \"#utility.yul\":13636:13793   */\n      pop\n      pop\n      jump\t// out\n        /* \"#utility.yul\":13799:14478   */\n    tag_137:\n        /* \"#utility.yul\":13995:13998   */\n      0x00\n        /* \"#utility.yul\":14010:14085   */\n      tag_491\n        /* \"#utility.yul\":14081:14084   */\n      dup3\n        /* \"#utility.yul\":14072:14078   */\n      dup8\n        /* \"#utility.yul\":14010:14085   */\n      tag_302\n      jump\t// in\n    tag_491:\n        /* \"#utility.yul\":14110:14112   */\n      0x14\n        /* \"#utility.yul\":14105:14108   */\n      dup3\n        /* \"#utility.yul\":14101:14113   */\n      add\n        /* \"#utility.yul\":14094:14113   */\n      swap2\n      pop\n        /* \"#utility.yul\":14123:14198   */\n      tag_492\n        /* \"#utility.yul\":14194:14197   */\n      dup3\n        /* \"#utility.yul\":14185:14191   */\n      dup7\n        /* \"#utility.yul\":14123:14198   */\n      tag_304\n      jump\t// in\n    tag_492:\n        /* \"#utility.yul\":14223:14225   */\n      0x20\n        /* \"#utility.yul\":14218:14221   */\n      dup3\n        /* \"#utility.yul\":14214:14226   */\n      add\n        /* \"#utility.yul\":14207:14226   */\n      swap2\n      pop\n        /* \"#utility.yul\":14236:14311   */\n      tag_493\n        /* \"#utility.yul\":14307:14310   */\n      dup3\n        /* \"#utility.yul\":14298:14304   */\n      dup6\n        /* \"#utility.yul\":14236:14311   */\n      tag_304\n      jump\t// in\n    tag_493:\n        /* \"#utility.yul\":14336:14338   */\n      0x20\n        /* \"#utility.yul\":14331:14334   */\n      dup3\n        /* \"#utility.yul\":14327:14339   */\n      add\n        /* \"#utility.yul\":14320:14339   */\n      swap2\n      pop\n        /* \"#utility.yul\":14349:14424   */\n      tag_494\n        /* \"#utility.yul\":14420:14423   */\n      dup3\n        /* \"#utility.yul\":14411:14417   */\n      dup5\n        /* \"#utility.yul\":14349:14424   */\n      tag_304\n      jump\t// in\n    tag_494:\n        /* \"#utility.yul\":14449:14451   */\n      0x20\n        /* \"#utility.yul\":14444:14447   */\n      dup3\n        /* \"#utility.yul\":14440:14452   */\n      add\n        /* \"#utility.yul\":14433:14452   */\n      swap2\n      pop\n        /* \"#utility.yul\":14469:14472   */\n      dup2\n        /* \"#utility.yul\":14462:14472   */\n      swap1\n      pop\n        /* \"#utility.yul\":13799:14478   */\n      swap6\n      swap5\n      pop\n      pop\n      pop\n      pop\n      pop\n      jump\t// out\n        /* \"#utility.yul\":14484:14708   */\n    tag_305:\n        /* \"#utility.yul\":14624:14658   */\n      0x45524332303a2064656372656173656420616c6c6f77616e63652062656c6f77\n        /* \"#utility.yul\":14620:14621   */\n      0x00\n        /* \"#utility.yul\":14612:14618   */\n      dup3\n        /* \"#utility.yul\":14608:14622   */\n      add\n        /* \"#utility.yul\":14601:14659   */\n      mstore\n        /* \"#utility.yul\":14693:14700   */\n      0x207a65726f000000000000000000000000000000000000000000000000000000\n        /* \"#utility.yul\":14688:14690   */\n      0x20\n        /* \"#utility.yul\":14680:14686   */\n      dup3\n        /* \"#utility.yul\":14676:14691   */\n      add\n        /* \"#utility.yul\":14669:14701   */\n      mstore\n        /* \"#utility.yul\":14484:14708   */\n      pop\n      jump\t// out\n        /* \"#utility.yul\":14714:15080   */\n    tag_306:\n        /* \"#utility.yul\":14856:14859   */\n      0x00\n        /* \"#utility.yul\":14877:14944   */\n      tag_497\n        /* \"#utility.yul\":14941:14943   */\n      0x25\n        /* \"#utility.yul\":14936:14939   */\n      dup4\n        /* \"#utility.yul\":14877:14944   */\n      tag_259\n      jump\t// in\n    tag_497:\n        /* \"#utility.yul\":14870:14944   */\n      swap2\n      pop\n        /* \"#utility.yul\":14953:15046   */\n      tag_498\n        /* \"#utility.yul\":15042:15045   */\n      dup3\n        /* \"#utility.yul\":14953:15046   */\n      tag_305\n      jump\t// in\n    tag_498:\n        /* \"#utility.yul\":15071:15073   */\n      0x40\n        /* \"#utility.yul\":15066:15069   */\n      dup3\n        /* \"#utility.yul\":15062:15074   */\n      add\n        /* \"#utility.yul\":15055:15074   */\n      swap1\n      pop\n        /* \"#utility.yul\":14714:15080   */\n      swap2\n      swap1\n      pop\n      jump\t// out\n        /* \"#utility.yul\":15086:15505   */\n    tag_149:\n        /* \"#utility.yul\":15252:15256   */\n      0x00\n        /* \"#utility.yul\":15290:15292   */\n      0x20\n        /* \"#utility.yul\":15279:15288   */\n      dup3\n        /* \"#utility.yul\":15275:15293   */\n      add\n        /* \"#utility.yul\":15267:15293   */\n      swap1\n      pop\n        /* \"#utility.yul\":15339:15348   */\n      dup2\n        /* \"#utility.yul\":15333:15337   */\n      dup2\n        /* \"#utility.yul\":15329:15349   */\n      sub\n        /* \"#utility.yul\":15325:15326   */\n      0x00\n        /* \"#utility.yul\":15314:15323   */\n      dup4\n        /* \"#utility.yul\":15310:15327   */\n      add\n        /* \"#utility.yul\":15303:15350   */\n      mstore\n        /* \"#utility.yul\":15367:15498   */\n      tag_500\n        /* \"#utility.yul\":15493:15497   */\n      dup2\n        /* \"#utility.yul\":15367:15498   */\n      tag_306\n      jump\t// in\n    tag_500:\n        /* \"#utility.yul\":15359:15498   */\n      swap1\n      pop\n        /* \"#utility.yul\":15086:15505   */\n      swap2\n      swap1\n      pop\n      jump\t// out\n        /* \"#utility.yul\":15511:15676   */\n    tag_307:\n        /* \"#utility.yul\":15651:15668   */\n      0x6572726f722d2d2d626164207369670000000000000000000000000000000000\n        /* \"#utility.yul\":15647:15648   */\n      0x00\n        /* \"#utility.yul\":15639:15645   */\n      dup3\n        /* \"#utility.yul\":15635:15649   */\n      add\n        /* \"#utility.yul\":15628:15669   */\n      mstore\n        /* \"#utility.yul\":15511:15676   */\n      pop\n      jump\t// out\n        /* \"#utility.yul\":15682:16048   */\n    tag_308:\n        /* \"#utility.yul\":15824:15827   */\n      0x00\n        /* \"#utility.yul\":15845:15912   */\n      tag_503\n        /* \"#utility.yul\":15909:15911   */\n      0x0f\n        /* \"#utility.yul\":15904:15907   */\n      dup4\n        /* \"#utility.yul\":15845:15912   */\n      tag_259\n      jump\t// in\n    tag_503:\n        /* \"#utility.yul\":15838:15912   */\n      swap2\n      pop\n        /* \"#utility.yul\":15921:16014   */\n      tag_504\n        /* \"#utility.yul\":16010:16013   */\n      dup3\n        /* \"#utility.yul\":15921:16014   */\n      tag_307\n      jump\t// in\n    tag_504:\n        /* \"#utility.yul\":16039:16041   */\n      0x20\n        /* \"#utility.yul\":16034:16037   */\n      dup3\n        /* \"#utility.yul\":16030:16042   */\n      add\n        /* \"#utility.yul\":16023:16042   */\n      swap1\n      pop\n        /* \"#utility.yul\":15682:16048   */\n      swap2\n      swap1\n      pop\n      jump\t// out\n        /* \"#utility.yul\":16054:16473   */\n    tag_161:\n        /* \"#utility.yul\":16220:16224   */\n      0x00\n        /* \"#utility.yul\":16258:16260   */\n      0x20\n        /* \"#utility.yul\":16247:16256   */\n      dup3\n        /* \"#utility.yul\":16243:16261   */\n      add\n        /* \"#utility.yul\":16235:16261   */\n      swap1\n      pop\n        /* \"#utility.yul\":16307:16316   */\n      dup2\n        /* \"#utility.yul\":16301:16305   */\n      dup2\n        /* \"#utility.yul\":16297:16317   */\n      sub\n        /* \"#utility.yul\":16293:16294   */\n      0x00\n        /* \"#utility.yul\":16282:16291   */\n      dup4\n        /* \"#utility.yul\":16278:16295   */\n      add\n        /* \"#utility.yul\":16271:16318   */\n      mstore\n        /* \"#utility.yul\":16335:16466   */\n      tag_506\n        /* \"#utility.yul\":16461:16465   */\n      dup2\n        /* \"#utility.yul\":16335:16466   */\n      tag_308\n      jump\t// in\n    tag_506:\n        /* \"#utility.yul\":16327:16466   */\n      swap1\n      pop\n        /* \"#utility.yul\":16054:16473   */\n      swap2\n      swap1\n      pop\n      jump\t// out\n        /* \"#utility.yul\":16479:16643   */\n    tag_309:\n        /* \"#utility.yul\":16619:16635   */\n      0x6572726f722d2d2d6d696e746564000000000000000000000000000000000000\n        /* \"#utility.yul\":16615:16616   */\n      0x00\n        /* \"#utility.yul\":16607:16613   */\n      dup3\n        /* \"#utility.yul\":16603:16617   */\n      add\n        /* \"#utility.yul\":16596:16636   */\n      mstore\n        /* \"#utility.yul\":16479:16643   */\n      pop\n      jump\t// out\n        /* \"#utility.yul\":16649:17015   */\n    tag_310:\n        /* \"#utility.yul\":16791:16794   */\n      0x00\n        /* \"#utility.yul\":16812:16879   */\n      tag_509\n        /* \"#utility.yul\":16876:16878   */\n      0x0e\n        /* \"#utility.yul\":16871:16874   */\n      dup4\n        /* \"#utility.yul\":16812:16879   */\n      tag_259\n      jump\t// in\n    tag_509:\n        /* \"#utility.yul\":16805:16879   */\n      swap2\n      pop\n        /* \"#utility.yul\":16888:16981   */\n      tag_510\n        /* \"#utility.yul\":16977:16980   */\n      dup3\n        /* \"#utility.yul\":16888:16981   */\n      tag_309\n      jump\t// in\n    tag_510:\n        /* \"#utility.yul\":17006:17008   */\n      0x20\n        /* \"#utility.yul\":17001:17004   */\n      dup3\n        /* \"#utility.yul\":16997:17009   */\n      add\n        /* \"#utility.yul\":16990:17009   */\n      swap1\n      pop\n        /* \"#utility.yul\":16649:17015   */\n      swap2\n      swap1\n      pop\n      jump\t// out\n        /* \"#utility.yul\":17021:17440   */\n    tag_164:\n        /* \"#utility.yul\":17187:17191   */\n      0x00\n        /* \"#utility.yul\":17225:17227   */\n      0x20\n        /* \"#utility.yul\":17214:17223   */\n      dup3\n        /* \"#utility.yul\":17210:17228   */\n      add\n        /* \"#utility.yul\":17202:17228   */\n      swap1\n      pop\n        /* \"#utility.yul\":17274:17283   */\n      dup2\n        /* \"#utility.yul\":17268:17272   */\n      dup2\n        /* \"#utility.yul\":17264:17284   */\n      sub\n        /* \"#utility.yul\":17260:17261   */\n      0x00\n        /* \"#utility.yul\":17249:17258   */\n      dup4\n        /* \"#utility.yul\":17245:17262   */\n      add\n        /* \"#utility.yul\":17238:17285   */\n      mstore\n        /* \"#utility.yul\":17302:17433   */\n      tag_512\n        /* \"#utility.yul\":17428:17432   */\n      dup2\n        /* \"#utility.yul\":17302:17433   */\n      tag_310\n      jump\t// in\n    tag_512:\n        /* \"#utility.yul\":17294:17433   */\n      swap1\n      pop\n        /* \"#utility.yul\":17021:17440   */\n      swap2\n      swap1\n      pop\n      jump\t// out\n        /* \"#utility.yul\":17446:17679   */\n    tag_168:\n        /* \"#utility.yul\":17485:17488   */\n      0x00\n        /* \"#utility.yul\":17508:17532   */\n      tag_514\n        /* \"#utility.yul\":17526:17531   */\n      dup3\n        /* \"#utility.yul\":17508:17532   */\n      tag_270\n      jump\t// in\n    tag_514:\n        /* \"#utility.yul\":17499:17532   */\n      swap2\n      pop\n        /* \"#utility.yul\":17554:17620   */\n      0xffffffffffffffffffffffffffffffffffffffffffffffffffffffffffffffff\n        /* \"#utility.yul\":17547:17552   */\n      dup3\n        /* \"#utility.yul\":17544:17621   */\n      sub\n        /* \"#utility.yul\":17541:17644   */\n      tag_515\n      jumpi\n        /* \"#utility.yul\":17624:17642   */\n      tag_516\n      tag_293\n      jump\t// in\n    tag_516:\n        /* \"#utility.yul\":17541:17644   */\n    tag_515:\n        /* \"#utility.yul\":17671:17672   */\n      0x01\n        /* \"#utility.yul\":17664:17669   */\n      dup3\n        /* \"#utility.yul\":17660:17673   */\n      add\n        /* \"#utility.yul\":17653:17673   */\n      swap1\n      pop\n        /* \"#utility.yul\":17446:17679   */\n      swap2\n      swap1\n      pop\n      jump\t// out\n        /* \"#utility.yul\":17685:17908   */\n    tag_311:\n        /* \"#utility.yul\":17825:17859   */\n      0x45524332303a20617070726f76652066726f6d20746865207a65726f20616464\n        /* \"#utility.yul\":17821:17822   */\n      0x00\n        /* \"#utility.yul\":17813:17819   */\n      dup3\n        /* \"#utility.yul\":17809:17823   */\n      add\n        /* \"#utility.yul\":17802:17860   */\n      mstore\n        /* \"#utility.yul\":17894:17900   */\n      0x7265737300000000000000000000000000000000000000000000000000000000\n        /* \"#utility.yul\":17889:17891   */\n      0x20\n        /* \"#utility.yul\":17881:17887   */\n      dup3\n        /* \"#utility.yul\":17877:17892   */\n      add\n        /* \"#utility.yul\":17870:17901   */\n      mstore\n        /* \"#utility.yul\":17685:17908   */\n      pop\n      jump\t// out\n        /* \"#utility.yul\":17914:18280   */\n    tag_312:\n        /* \"#utility.yul\":18056:18059   */\n      0x00\n        /* \"#utility.yul\":18077:18144   */\n      tag_519\n        /* \"#utility.yul\":18141:18143   */\n      0x24\n        /* \"#utility.yul\":18136:18139   */\n      dup4\n        /* \"#utility.yul\":18077:18144   */\n      tag_259\n      jump\t// in\n    tag_519:\n        /* \"#utility.yul\":18070:18144   */\n      swap2\n      pop\n        /* \"#utility.yul\":18153:18246   */\n      tag_520\n        /* \"#utility.yul\":18242:18245   */\n      dup3\n        /* \"#utility.yul\":18153:18246   */\n      tag_311\n      jump\t// in\n    tag_520:\n        /* \"#utility.yul\":18271:18273   */\n      0x40\n        /* \"#utility.yul\":18266:18269   */\n      dup3\n        /* \"#utility.yul\":18262:18274   */\n      add\n        /* \"#utility.yul\":18255:18274   */\n      swap1\n      pop\n        /* \"#utility.yul\":17914:18280   */\n      swap2\n      swap1\n      pop\n      jump\t// out\n        /* \"#utility.yul\":18286:18705   */\n    tag_173:\n        /* \"#utility.yul\":18452:18456   */\n      0x00\n        /* \"#utility.yul\":18490:18492   */\n      0x20\n        /* \"#utility.yul\":18479:18488   */\n      dup3\n        /* \"#utility.yul\":18475:18493   */\n      add\n        /* \"#utility.yul\":18467:18493   */\n      swap1\n      pop\n        /* \"#utility.yul\":18539:18548   */\n      dup2\n        /* \"#utility.yul\":18533:18537   */\n      dup2\n        /* \"#utility.yul\":18529:18549   */\n      sub\n        /* \"#utility.yul\":18525:18526   */\n      0x00\n        /* \"#utility.yul\":18514:18523   */\n      dup4\n        /* \"#utility.yul\":18510:18527   */\n      add\n        /* \"#utility.yul\":18503:18550   */\n      mstore\n        /* \"#utility.yul\":18567:18698   */\n      tag_522\n        /* \"#utility.yul\":18693:18697   */\n      dup2\n        /* \"#utility.yul\":18567:18698   */\n      tag_312\n      jump\t// in\n    tag_522:\n        /* \"#utility.yul\":18559:18698   */\n      swap1\n      pop\n        /* \"#utility.yul\":18286:18705   */\n      swap2\n      swap1\n      pop\n      jump\t// out\n        /* \"#utility.yul\":18711:18932   */\n    tag_313:\n        /* \"#utility.yul\":18851:18885   */\n      0x45524332303a20617070726f766520746f20746865207a65726f206164647265\n        /* \"#utility.yul\":18847:18848   */\n      0x00\n        /* \"#utility.yul\":18839:18845   */\n      dup3\n        /* \"#utility.yul\":18835:18849   */\n      add\n        /* \"#utility.yul\":18828:18886   */\n      mstore\n        /* \"#utility.yul\":18920:18924   */\n      0x7373000000000000000000000000000000000000000000000000000000000000\n        /* \"#utility.yul\":18915:18917   */\n      0x20\n        /* \"#utility.yul\":18907:18913   */\n      dup3\n        /* \"#utility.yul\":18903:18918   */\n      add\n        /* \"#utility.yul\":18896:18925   */\n      mstore\n        /* \"#utility.yul\":18711:18932   */\n      pop\n      jump\t// out\n        /* \"#utility.yul\":18938:19304   */\n    tag_314:\n        /* \"#utility.yul\":19080:19083   */\n      0x00\n        /* \"#utility.yul\":19101:19168   */\n      tag_525\n        /* \"#utility.yul\":19165:19167   */\n      0x22\n        /* \"#utility.yul\":19160:19163   */\n      dup4\n        /* \"#utility.yul\":19101:19168   */\n      tag_259\n      jump\t// in\n    tag_525:\n        /* \"#utility.yul\":19094:19168   */\n      swap2\n      pop\n        /* \"#utility.yul\":19177:19270   */\n      tag_526\n        /* \"#utility.yul\":19266:19269   */\n      dup3\n        /* \"#utility.yul\":19177:19270   */\n      tag_313\n      jump\t// in\n    tag_526:\n        /* \"#utility.yul\":19295:19297   */\n      0x40\n        /* \"#utility.yul\":19290:19293   */\n      dup3\n        /* \"#utility.yul\":19286:19298   */\n      add\n        /* \"#utility.yul\":19279:19298   */\n      swap1\n      pop\n        /* \"#utility.yul\":18938:19304   */\n      swap2\n      swap1\n      pop\n      jump\t// out\n        /* \"#utility.yul\":19310:19729   */\n    tag_176:\n        /* \"#utility.yul\":19476:19480   */\n      0x00\n        /* \"#utility.yul\":19514:19516   */\n      0x20\n        /* \"#utility.yul\":19503:19512   */\n      dup3\n        /* \"#utility.yul\":19499:19517   */\n      add\n        /* \"#utility.yul\":19491:19517   */\n      swap1\n      pop\n        /* \"#utility.yul\":19563:19572   */\n      dup2\n        /* \"#utility.yul\":19557:19561   */\n      dup2\n        /* \"#utility.yul\":19553:19573   */\n      sub\n        /* \"#utility.yul\":19549:19550   */\n      0x00\n        /* \"#utility.yul\":19538:19547   */\n      dup4\n        /* \"#utility.yul\":19534:19551   */\n      add\n        /* \"#utility.yul\":19527:19574   */\n      mstore\n        /* \"#utility.yul\":19591:19722   */\n      tag_528\n        /* \"#utility.yul\":19717:19721   */\n      dup2\n        /* \"#utility.yul\":19591:19722   */\n      tag_314\n      jump\t// in\n    tag_528:\n        /* \"#utility.yul\":19583:19722   */\n      swap1\n      pop\n        /* \"#utility.yul\":19310:19729   */\n      swap2\n      swap1\n      pop\n      jump\t// out\n        /* \"#utility.yul\":19735:19914   */\n    tag_315:\n        /* \"#utility.yul\":19875:19906   */\n      0x45524332303a20696e73756666696369656e7420616c6c6f77616e6365000000\n        /* \"#utility.yul\":19871:19872   */\n      0x00\n        /* \"#utility.yul\":19863:19869   */\n      dup3\n        /* \"#utility.yul\":19859:19873   */\n      add\n        /* \"#utility.yul\":19852:19907   */\n      mstore\n        /* \"#utility.yul\":19735:19914   */\n      pop\n      jump\t// out\n        /* \"#utility.yul\":19920:20286   */\n    tag_316:\n        /* \"#utility.yul\":20062:20065   */\n      0x00\n        /* \"#utility.yul\":20083:20150   */\n      tag_531\n        /* \"#utility.yul\":20147:20149   */\n      0x1d\n        /* \"#utility.yul\":20142:20145   */\n      dup4\n        /* \"#utility.yul\":20083:20150   */\n      tag_259\n      jump\t// in\n    tag_531:\n        /* \"#utility.yul\":20076:20150   */\n      swap2\n      pop\n        /* \"#utility.yul\":20159:20252   */\n      tag_532\n        /* \"#utility.yul\":20248:20251   */\n      dup3\n        /* \"#utility.yul\":20159:20252   */\n      tag_315\n      jump\t// in\n    tag_532:\n        /* \"#utility.yul\":20277:20279   */\n      0x20\n        /* \"#utility.yul\":20272:20275   */\n      dup3\n        /* \"#utility.yul\":20268:20280   */\n      add\n        /* \"#utility.yul\":20261:20280   */\n      swap1\n      pop\n        /* \"#utility.yul\":19920:20286   */\n      swap2\n      swap1\n      pop\n      jump\t// out\n        /* \"#utility.yul\":20292:20711   */\n    tag_183:\n        /* \"#utility.yul\":20458:20462   */\n      0x00\n        /* \"#utility.yul\":20496:20498   */\n      0x20\n        /* \"#utility.yul\":20485:20494   */\n      dup3\n        /* \"#utility.yul\":20481:20499   */\n      add\n        /* \"#utility.yul\":20473:20499   */\n      swap1\n      pop\n        /* \"#utility.yul\":20545:20554   */\n      dup2\n        /* \"#utility.yul\":20539:20543   */\n      dup2\n        /* \"#utility.yul\":20535:20555   */\n      sub\n        /* \"#utility.yul\":20531:20532   */\n      0x00\n        /* \"#utility.yul\":20520:20529   */\n      dup4\n        /* \"#utility.yul\":20516:20533   */\n      add\n        /* \"#utility.yul\":20509:20556   */\n      mstore\n        /* \"#utility.yul\":20573:20704   */\n      tag_534\n        /* \"#utility.yul\":20699:20703   */\n      dup2\n        /* \"#utility.yul\":20573:20704   */\n      tag_316\n      jump\t// in\n    tag_534:\n        /* \"#utility.yul\":20565:20704   */\n      swap1\n      pop\n        /* \"#utility.yul\":20292:20711   */\n      swap2\n      swap1\n      pop\n      jump\t// out\n        /* \"#utility.yul\":20717:20941   */\n    tag_317:\n        /* \"#utility.yul\":20857:20891   */\n      0x45524332303a207472616e736665722066726f6d20746865207a65726f206164\n        /* \"#utility.yul\":20853:20854   */\n      0x00\n        /* \"#utility.yul\":20845:20851   */\n      dup3\n        /* \"#utility.yul\":20841:20855   */\n      add\n        /* \"#utility.yul\":20834:20892   */\n      mstore\n        /* \"#utility.yul\":20926:20933   */\n      0x6472657373000000000000000000000000000000000000000000000000000000\n        /* \"#utility.yul\":20921:20923   */\n      0x20\n        /* \"#utility.yul\":20913:20919   */\n      dup3\n        /* \"#utility.yul\":20909:20924   */\n      add\n        /* \"#utility.yul\":20902:20934   */\n      mstore\n        /* \"#utility.yul\":20717:20941   */\n      pop\n      jump\t// out\n        /* \"#utility.yul\":20947:21313   */\n    tag_318:\n        /* \"#utility.yul\":21089:21092   */\n      0x00\n        /* \"#utility.yul\":21110:21177   */\n      tag_537\n        /* \"#utility.yul\":21174:21176   */\n      0x25\n        /* \"#utility.yul\":21169:21172   */\n      dup4\n        /* \"#utility.yul\":21110:21177   */\n      tag_259\n      jump\t// in\n    tag_537:\n        /* \"#utility.yul\":21103:21177   */\n      swap2\n      pop\n        /* \"#utility.yul\":21186:21279   */\n      tag_538\n        /* \"#utility.yul\":21275:21278   */\n      dup3\n        /* \"#utility.yul\":21186:21279   */\n      tag_317\n      jump\t// in\n    tag_538:\n        /* \"#utility.yul\":21304:21306   */\n      0x40\n        /* \"#utility.yul\":21299:21302   */\n      dup3\n        /* \"#utility.yul\":21295:21307   */\n      add\n        /* \"#utility.yul\":21288:21307   */\n      swap1\n      pop\n        /* \"#utility.yul\":20947:21313   */\n      swap2\n      swap1\n      pop\n      jump\t// out\n        /* \"#utility.yul\":21319:21738   */\n    tag_188:\n        /* \"#utility.yul\":21485:21489   */\n      0x00\n        /* \"#utility.yul\":21523:21525   */\n      0x20\n        /* \"#utility.yul\":21512:21521   */\n      dup3\n        /* \"#utility.yul\":21508:21526   */\n      add\n        /* \"#utility.yul\":21500:21526   */\n      swap1\n      pop\n        /* \"#utility.yul\":21572:21581   */\n      dup2\n        /* \"#utility.yul\":21566:21570   */\n      dup2\n        /* \"#utility.yul\":21562:21582   */\n      sub\n        /* \"#utility.yul\":21558:21559   */\n      0x00\n        /* \"#utility.yul\":21547:21556   */\n      dup4\n        /* \"#utility.yul\":21543:21560   */\n      add\n        /* \"#utility.yul\":21536:21583   */\n      mstore\n        /* \"#utility.yul\":21600:21731   */\n      tag_540\n        /* \"#utility.yul\":21726:21730   */\n      dup2\n        /* \"#utility.yul\":21600:21731   */\n      tag_318\n      jump\t// in\n    tag_540:\n        /* \"#utility.yul\":21592:21731   */\n      swap1\n      pop\n        /* \"#utility.yul\":21319:21738   */\n      swap2\n      swap1\n      pop\n      jump\t// out\n        /* \"#utility.yul\":21744:21966   */\n    tag_319:\n        /* \"#utility.yul\":21884:21918   */\n      0x45524332303a207472616e7366657220746f20746865207a65726f2061646472\n        /* \"#utility.yul\":21880:21881   */\n      0x00\n        /* \"#utility.yul\":21872:21878   */\n      dup3\n        /* \"#utility.yul\":21868:21882   */\n      add\n        /* \"#utility.yul\":21861:21919   */\n      mstore\n        /* \"#utility.yul\":21953:21958   */\n      0x6573730000000000000000000000000000000000000000000000000000000000\n        /* \"#utility.yul\":21948:21950   */\n      0x20\n        /* \"#utility.yul\":21940:21946   */\n      dup3\n        /* \"#utility.yul\":21936:21951   */\n      add\n        /* \"#utility.yul\":21929:21959   */\n      mstore\n        /* \"#utility.yul\":21744:21966   */\n      pop\n      jump\t// out\n        /* \"#utility.yul\":21972:22338   */\n    tag_320:\n        /* \"#utility.yul\":22114:22117   */\n      0x00\n        /* \"#utility.yul\":22135:22202   */\n      tag_543\n        /* \"#utility.yul\":22199:22201   */\n      0x23\n        /* \"#utility.yul\":22194:22197   */\n      dup4\n        /* \"#utility.yul\":22135:22202   */\n      tag_259\n      jump\t// in\n    tag_543:\n        /* \"#utility.yul\":22128:22202   */\n      swap2\n      pop\n        /* \"#utility.yul\":22211:22304   */\n      tag_544\n        /* \"#utility.yul\":22300:22303   */\n      dup3\n        /* \"#utility.yul\":22211:22304   */\n      tag_319\n      jump\t// in\n    tag_544:\n        /* \"#utility.yul\":22329:22331   */\n      0x40\n        /* \"#utility.yul\":22324:22327   */\n      dup3\n        /* \"#utility.yul\":22320:22332   */\n      add\n        /* \"#utility.yul\":22313:22332   */\n      swap1\n      pop\n        /* \"#utility.yul\":21972:22338   */\n      swap2\n      swap1\n      pop\n      jump\t// out\n        /* \"#utility.yul\":22344:22763   */\n    tag_191:\n        /* \"#utility.yul\":22510:22514   */\n      0x00\n        /* \"#utility.yul\":22548:22550   */\n      0x20\n        /* \"#utility.yul\":22537:22546   */\n      dup3\n        /* \"#utility.yul\":22533:22551   */\n      add\n        /* \"#utility.yul\":22525:22551   */\n      swap1\n      pop\n        /* \"#utility.yul\":22597:22606   */\n      dup2\n        /* \"#utility.yul\":22591:22595   */\n      dup2\n        /* \"#utility.yul\":22587:22607   */\n      sub\n        /* \"#utility.yul\":22583:22584   */\n      0x00\n        /* \"#utility.yul\":22572:22581   */\n      dup4\n        /* \"#utility.yul\":22568:22585   */\n      add\n        /* \"#utility.yul\":22561:22608   */\n      mstore\n        /* \"#utility.yul\":22625:22756   */\n      tag_546\n        /* \"#utility.yul\":22751:22755   */\n      dup2\n        /* \"#utility.yul\":22625:22756   */\n      tag_320\n      jump\t// in\n    tag_546:\n        /* \"#utility.yul\":22617:22756   */\n      swap1\n      pop\n        /* \"#utility.yul\":22344:22763   */\n      swap2\n      swap1\n      pop\n      jump\t// out\n        /* \"#utility.yul\":22769:22994   */\n    tag_321:\n        /* \"#utility.yul\":22909:22943   */\n      0x45524332303a207472616e7366657220616d6f756e7420657863656564732062\n        /* \"#utility.yul\":22905:22906   */\n      0x00\n        /* \"#utility.yul\":22897:22903   */\n      dup3\n        /* \"#utility.yul\":22893:22907   */\n      add\n        /* \"#utility.yul\":22886:22944   */\n      mstore\n        /* \"#utility.yul\":22978:22986   */\n      0x616c616e63650000000000000000000000000000000000000000000000000000\n        /* \"#utility.yul\":22973:22975   */\n      0x20\n        /* \"#utility.yul\":22965:22971   */\n      dup3\n        /* \"#utility.yul\":22961:22976   */\n      add\n        /* \"#utility.yul\":22954:22987   */\n      mstore\n        /* \"#utility.yul\":22769:22994   */\n      pop\n      jump\t// out\n        /* \"#utility.yul\":23000:23366   */\n    tag_322:\n        /* \"#utility.yul\":23142:23145   */\n      0x00\n        /* \"#utility.yul\":23163:23230   */\n      tag_549\n        /* \"#utility.yul\":23227:23229   */\n      0x26\n        /* \"#utility.yul\":23222:23225   */\n      dup4\n        /* \"#utility.yul\":23163:23230   */\n      tag_259\n      jump\t// in\n    tag_549:\n        /* \"#utility.yul\":23156:23230   */\n      swap2\n      pop\n        /* \"#utility.yul\":23239:23332   */\n      tag_550\n        /* \"#utility.yul\":23328:23331   */\n      dup3\n        /* \"#utility.yul\":23239:23332   */\n      tag_321\n      jump\t// in\n    tag_550:\n        /* \"#utility.yul\":23357:23359   */\n      0x40\n        /* \"#utility.yul\":23352:23355   */\n      dup3\n        /* \"#utility.yul\":23348:23360   */\n      add\n        /* \"#utility.yul\":23341:23360   */\n      swap1\n      pop\n        /* \"#utility.yul\":23000:23366   */\n      swap2\n      swap1\n      pop\n      jump\t// out\n        /* \"#utility.yul\":23372:23791   */\n    tag_196:\n        /* \"#utility.yul\":23538:23542   */\n      0x00\n        /* \"#utility.yul\":23576:23578   */\n      0x20\n        /* \"#utility.yul\":23565:23574   */\n      dup3\n        /* \"#utility.yul\":23561:23579   */\n      add\n        /* \"#utility.yul\":23553:23579   */\n      swap1\n      pop\n        /* \"#utility.yul\":23625:23634   */\n      dup2\n        /* \"#utility.yul\":23619:23623   */\n      dup2\n        /* \"#utility.yul\":23615:23635   */\n      sub\n        /* \"#utility.yul\":23611:23612   */\n      0x00\n        /* \"#utility.yul\":23600:23609   */\n      dup4\n        /* \"#utility.yul\":23596:23613   */\n      add\n        /* \"#utility.yul\":23589:23636   */\n      mstore\n        /* \"#utility.yul\":23653:23784   */\n      tag_552\n        /* \"#utility.yul\":23779:23783   */\n      dup2\n        /* \"#utility.yul\":23653:23784   */\n      tag_322\n      jump\t// in\n    tag_552:\n        /* \"#utility.yul\":23645:23784   */\n      swap1\n      pop\n        /* \"#utility.yul\":23372:23791   */\n      swap2\n      swap1\n      pop\n      jump\t// out\n        /* \"#utility.yul\":23797:23978   */\n    tag_323:\n        /* \"#utility.yul\":23937:23970   */\n      0x45524332303a206d696e7420746f20746865207a65726f206164647265737300\n        /* \"#utility.yul\":23933:23934   */\n      0x00\n        /* \"#utility.yul\":23925:23931   */\n      dup3\n        /* \"#utility.yul\":23921:23935   */\n      add\n        /* \"#utility.yul\":23914:23971   */\n      mstore\n        /* \"#utility.yul\":23797:23978   */\n      pop\n      jump\t// out\n        /* \"#utility.yul\":23984:24350   */\n    tag_324:\n        /* \"#utility.yul\":24126:24129   */\n      0x00\n        /* \"#utility.yul\":24147:24214   */\n      tag_555\n        /* \"#utility.yul\":24211:24213   */\n      0x1f\n        /* \"#utility.yul\":24206:24209   */\n      dup4\n        /* \"#utility.yul\":24147:24214   */\n      tag_259\n      jump\t// in\n    tag_555:\n        /* \"#utility.yul\":24140:24214   */\n      swap2\n      pop\n        /* \"#utility.yul\":24223:24316   */\n      tag_556\n        /* \"#utility.yul\":24312:24315   */\n      dup3\n        /* \"#utility.yul\":24223:24316   */\n      tag_323\n      jump\t// in\n    tag_556:\n        /* \"#utility.yul\":24341:24343   */\n      0x20\n        /* \"#utility.yul\":24336:24339   */\n      dup3\n        /* \"#utility.yul\":24332:24344   */\n      add\n        /* \"#utility.yul\":24325:24344   */\n      swap1\n      pop\n        /* \"#utility.yul\":23984:24350   */\n      swap2\n      swap1\n      pop\n      jump\t// out\n        /* \"#utility.yul\":24356:24775   */\n    tag_208:\n        /* \"#utility.yul\":24522:24526   */\n      0x00\n        /* \"#utility.yul\":24560:24562   */\n      0x20\n        /* \"#utility.yul\":24549:24558   */\n      dup3\n        /* \"#utility.yul\":24545:24563   */\n      add\n        /* \"#utility.yul\":24537:24563   */\n      swap1\n      pop\n        /* \"#utility.yul\":24609:24618   */\n      dup2\n        /* \"#utility.yul\":24603:24607   */\n      dup2\n        /* \"#utility.yul\":24599:24619   */\n      sub\n        /* \"#utility.yul\":24595:24596   */\n      0x00\n        /* \"#utility.yul\":24584:24593   */\n      dup4\n        /* \"#utility.yul\":24580:24597   */\n      add\n        /* \"#utility.yul\":24573:24620   */\n      mstore\n        /* \"#utility.yul\":24637:24768   */\n      tag_558\n        /* \"#utility.yul\":24763:24767   */\n      dup2\n        /* \"#utility.yul\":24637:24768   */\n      tag_324\n      jump\t// in\n    tag_558:\n        /* \"#utility.yul\":24629:24768   */\n      swap1\n      pop\n        /* \"#utility.yul\":24356:24775   */\n      swap2\n      swap1\n      pop\n      jump\t// out\n        /* \"#utility.yul\":24781:24961   */\n    tag_223:\n        /* \"#utility.yul\":24829:24906   */\n      0x4e487b7100000000000000000000000000000000000000000000000000000000\n        /* \"#utility.yul\":24826:24827   */\n      0x00\n        /* \"#utility.yul\":24819:24907   */\n      mstore\n        /* \"#utility.yul\":24926:24930   */\n      0x21\n        /* \"#utility.yul\":24923:24924   */\n      0x04\n        /* \"#utility.yul\":24916:24931   */\n      mstore\n        /* \"#utility.yul\":24950:24954   */\n      0x24\n        /* \"#utility.yul\":24947:24948   */\n      0x00\n        /* \"#utility.yul\":24940:24955   */\n      revert\n        /* \"#utility.yul\":24967:25141   */\n    tag_325:\n        /* \"#utility.yul\":25107:25133   */\n      0x45434453413a20696e76616c6964207369676e61747572650000000000000000\n        /* \"#utility.yul\":25103:25104   */\n      0x00\n        /* \"#utility.yul\":25095:25101   */\n      dup3\n        /* \"#utility.yul\":25091:25105   */\n      add\n        /* \"#utility.yul\":25084:25134   */\n      mstore\n        /* \"#utility.yul\":24967:25141   */\n      pop\n      jump\t// out\n        /* \"#utility.yul\":25147:25513   */\n    tag_326:\n        /* \"#utility.yul\":25289:25292   */\n      0x00\n        /* \"#utility.yul\":25310:25377   */\n      tag_562\n        /* \"#utility.yul\":25374:25376   */\n      0x18\n        /* \"#utility.yul\":25369:25372   */\n      dup4\n        /* \"#utility.yul\":25310:25377   */\n      tag_259\n      jump\t// in\n    tag_562:\n        /* \"#utility.yul\":25303:25377   */\n      swap2\n      pop\n        /* \"#utility.yul\":25386:25479   */\n      tag_563\n        /* \"#utility.yul\":25475:25478   */\n      dup3\n        /* \"#utility.yul\":25386:25479   */\n      tag_325\n      jump\t// in\n    tag_563:\n        /* \"#utility.yul\":25504:25506   */\n      0x20\n        /* \"#utility.yul\":25499:25502   */\n      dup3\n        /* \"#utility.yul\":25495:25507   */\n      add\n        /* \"#utility.yul\":25488:25507   */\n      swap1\n      pop\n        /* \"#utility.yul\":25147:25513   */\n      swap2\n      swap1\n      pop\n      jump\t// out\n        /* \"#utility.yul\":25519:25938   */\n    tag_234:\n        /* \"#utility.yul\":25685:25689   */\n      0x00\n        /* \"#utility.yul\":25723:25725   */\n      0x20\n        /* \"#utility.yul\":25712:25721   */\n      dup3\n        /* \"#utility.yul\":25708:25726   */\n      add\n        /* \"#utility.yul\":25700:25726   */\n      swap1\n      pop\n        /* \"#utility.yul\":25772:25781   */\n      dup2\n        /* \"#utility.yul\":25766:25770   */\n      dup2\n        /* \"#utility.yul\":25762:25782   */\n      sub\n        /* \"#utility.yul\":25758:25759   */\n      0x00\n        /* \"#utility.yul\":25747:25756   */\n      dup4\n        /* \"#utility.yul\":25743:25760   */\n      add\n        /* \"#utility.yul\":25736:25783   */\n      mstore\n        /* \"#utility.yul\":25800:25931   */\n      tag_565\n        /* \"#utility.yul\":25926:25930   */\n      dup2\n        /* \"#utility.yul\":25800:25931   */\n      tag_326\n      jump\t// in\n    tag_565:\n        /* \"#utility.yul\":25792:25931   */\n      swap1\n      pop\n        /* \"#utility.yul\":25519:25938   */\n      swap2\n      swap1\n      pop\n      jump\t// out\n        /* \"#utility.yul\":25944:26125   */\n    tag_327:\n        /* \"#utility.yul\":26084:26117   */\n      0x45434453413a20696e76616c6964207369676e6174757265206c656e67746800\n        /* \"#utility.yul\":26080:26081   */\n      0x00\n        /* \"#utility.yul\":26072:26078   */\n      dup3\n        /* \"#utility.yul\":26068:26082   */\n      add\n        /* \"#utility.yul\":26061:26118   */\n      mstore\n        /* \"#utility.yul\":25944:26125   */\n      pop\n      jump\t// out\n        /* \"#utility.yul\":26131:26497   */\n    tag_328:\n        /* \"#utility.yul\":26273:26276   */\n      0x00\n        /* \"#utility.yul\":26294:26361   */\n      tag_568\n        /* \"#utility.yul\":26358:26360   */\n      0x1f\n        /* \"#utility.yul\":26353:26356   */\n      dup4\n        /* \"#utility.yul\":26294:26361   */\n      tag_259\n      jump\t// in\n    tag_568:\n        /* \"#utility.yul\":26287:26361   */\n      swap2\n      pop\n        /* \"#utility.yul\":26370:26463   */\n      tag_569\n        /* \"#utility.yul\":26459:26462   */\n      dup3\n        /* \"#utility.yul\":26370:26463   */\n      tag_327\n      jump\t// in\n    tag_569:\n        /* \"#utility.yul\":26488:26490   */\n      0x20\n        /* \"#utility.yul\":26483:26486   */\n      dup3\n        /* \"#utility.yul\":26479:26491   */\n      add\n        /* \"#utility.yul\":26472:26491   */\n      swap1\n      pop\n        /* \"#utility.yul\":26131:26497   */\n      swap2\n      swap1\n      pop\n      jump\t// out\n        /* \"#utility.yul\":26503:26922   */\n    tag_242:\n        /* \"#utility.yul\":26669:26673   */\n      0x00\n        /* \"#utility.yul\":26707:26709   */\n      0x20\n        /* \"#utility.yul\":26696:26705   */\n      dup3\n        /* \"#utility.yul\":26692:26710   */\n      add\n        /* \"#utility.yul\":26684:26710   */\n      swap1\n      pop\n        /* \"#utility.yul\":26756:26765   */\n      dup2\n        /* \"#utility.yul\":26750:26754   */\n      dup2\n        /* \"#utility.yul\":26746:26766   */\n      sub\n        /* \"#utility.yul\":26742:26743   */\n      0x00\n        /* \"#utility.yul\":26731:26740   */\n      dup4\n        /* \"#utility.yul\":26727:26744   */\n      add\n        /* \"#utility.yul\":26720:26767   */\n      mstore\n        /* \"#utility.yul\":26784:26915   */\n      tag_571\n        /* \"#utility.yul\":26910:26914   */\n      dup2\n        /* \"#utility.yul\":26784:26915   */\n      tag_328\n      jump\t// in\n    tag_571:\n        /* \"#utility.yul\":26776:26915   */\n      swap1\n      pop\n        /* \"#utility.yul\":26503:26922   */\n      swap2\n      swap1\n      pop\n      jump\t// out\n        /* \"#utility.yul\":26928:27149   */\n    tag_329:\n        /* \"#utility.yul\":27068:27102   */\n      0x45434453413a20696e76616c6964207369676e6174757265202773272076616c\n        /* \"#utility.yul\":27064:27065   */\n      0x00\n        /* \"#utility.yul\":27056:27062   */\n      dup3\n        /* \"#utility.yul\":27052:27066   */\n      add\n        /* \"#utility.yul\":27045:27103   */\n      mstore\n        /* \"#utility.yul\":27137:27141   */\n      0x7565000000000000000000000000000000000000000000000000000000000000\n        /* \"#utility.yul\":27132:27134   */\n      0x20\n        /* \"#utility.yul\":27124:27130   */\n      dup3\n        /* \"#utility.yul\":27120:27135   */\n      add\n        /* \"#utility.yul\":27113:27142   */\n      mstore\n        /* \"#utility.yul\":26928:27149   */\n      pop\n      jump\t// out\n        /* \"#utility.yul\":27155:27521   */\n    tag_330:\n        /* \"#utility.yul\":27297:27300   */\n      0x00\n        /* \"#utility.yul\":27318:27385   */\n      tag_574\n        /* \"#utility.yul\":27382:27384   */\n      0x22\n        /* \"#utility.yul\":27377:27380   */\n      dup4\n        /* \"#utility.yul\":27318:27385   */\n      tag_259\n      jump\t// in\n    tag_574:\n        /* \"#utility.yul\":27311:27385   */\n      swap2\n      pop\n        /* \"#utility.yul\":27394:27487   */\n      tag_575\n        /* \"#utility.yul\":27483:27486   */\n      dup3\n        /* \"#utility.yul\":27394:27487   */\n      tag_329\n      jump\t// in\n    tag_575:\n        /* \"#utility.yul\":27512:27514   */\n      0x40\n        /* \"#utility.yul\":27507:27510   */\n      dup3\n        /* \"#utility.yul\":27503:27515   */\n      add\n        /* \"#utility.yul\":27496:27515   */\n      swap1\n      pop\n        /* \"#utility.yul\":27155:27521   */\n      swap2\n      swap1\n      pop\n      jump\t// out\n        /* \"#utility.yul\":27527:27946   */\n    tag_250:\n        /* \"#utility.yul\":27693:27697   */\n      0x00\n        /* \"#utility.yul\":27731:27733   */\n      0x20\n        /* \"#utility.yul\":27720:27729   */\n      dup3\n        /* \"#utility.yul\":27716:27734   */\n      add\n        /* \"#utility.yul\":27708:27734   */\n      swap1\n      pop\n        /* \"#utility.yul\":27780:27789   */\n      dup2\n        /* \"#utility.yul\":27774:27778   */\n      dup2\n        /* \"#utility.yul\":27770:27790   */\n      sub\n        /* \"#utility.yul\":27766:27767   */\n      0x00\n        /* \"#utility.yul\":27755:27764   */\n      dup4\n        /* \"#utility.yul\":27751:27768   */\n      add\n        /* \"#utility.yul\":27744:27791   */\n      mstore\n        /* \"#utility.yul\":27808:27939   */\n      tag_577\n        /* \"#utility.yul\":27934:27938   */\n      dup2\n        /* \"#utility.yul\":27808:27939   */\n      tag_330\n      jump\t// in\n    tag_577:\n        /* \"#utility.yul\":27800:27939   */\n      swap1\n      pop\n        /* \"#utility.yul\":27527:27946   */\n      swap2\n      swap1\n      pop\n      jump\t// out\n        /* \"#utility.yul\":27952:28497   */\n    tag_254:\n        /* \"#utility.yul\":28125:28129   */\n      0x00\n        /* \"#utility.yul\":28163:28166   */\n      0x80\n        /* \"#utility.yul\":28152:28161   */\n      dup3\n        /* \"#utility.yul\":28148:28167   */\n      add\n        /* \"#utility.yul\":28140:28167   */\n      swap1\n      pop\n        /* \"#utility.yul\":28177:28248   */\n      tag_579\n        /* \"#utility.yul\":28245:28246   */\n      0x00\n        /* \"#utility.yul\":28234:28243   */\n      dup4\n        /* \"#utility.yul\":28230:28247   */\n      add\n        /* \"#utility.yul\":28221:28227   */\n      dup8\n        /* \"#utility.yul\":28177:28248   */\n      tag_291\n      jump\t// in\n    tag_579:\n        /* \"#utility.yul\":28258:28326   */\n      tag_580\n        /* \"#utility.yul\":28322:28324   */\n      0x20\n        /* \"#utility.yul\":28311:28320   */\n      dup4\n        /* \"#utility.yul\":28307:28325   */\n      add\n        /* \"#utility.yul\":28298:28304   */\n      dup7\n        /* \"#utility.yul\":28258:28326   */\n      tag_290\n      jump\t// in\n    tag_580:\n        /* \"#utility.yul\":28336:28408   */\n      tag_581\n        /* \"#utility.yul\":28404:28406   */\n      0x40\n        /* \"#utility.yul\":28393:28402   */\n      dup4\n        /* \"#utility.yul\":28389:28407   */\n      add\n        /* \"#utility.yul\":28380:28386   */\n      dup6\n        /* \"#utility.yul\":28336:28408   */\n      tag_291\n      jump\t// in\n    tag_581:\n        /* \"#utility.yul\":28418:28490   */\n      tag_582\n        /* \"#utility.yul\":28486:28488   */\n      0x60\n        /* \"#utility.yul\":28475:28484   */\n      dup4\n        /* \"#utility.yul\":28471:28489   */\n      add\n        /* \"#utility.yul\":28462:28468   */\n      dup5\n        /* \"#utility.yul\":28418:28490   */\n      tag_291\n      jump\t// in\n    tag_582:\n        /* \"#utility.yul\":27952:28497   */\n      swap6\n      swap5\n      pop\n      pop\n      pop\n      pop\n      pop\n      jump\t// out\n\n    auxdata: 0xa26469706673582212201981912a6693a3a0f0201dd303becddc09b76e7757ec42f6c51ab39702addd2f64736f6c63430008120033\n}\n",
				"bytecode": {
					"linkReferences": {},
					"object": "60806040523480156200001157600080fd5b50604051620027d6380380620027d683398181016040528101906200003791906200023b565b818181600390816200004a91906200050b565b5080600490816200005c91906200050b565b50505033600560006101000a81548173ffffffffffffffffffffffffffffffffffffffff021916908373ffffffffffffffffffffffffffffffffffffffff1602179055505050620005f2565b6000604051905090565b600080fd5b600080fd5b600080fd5b600080fd5b6000601f19601f8301169050919050565b7f4e487b7100000000000000000000000000000000000000000000000000000000600052604160045260246000fd5b6200011182620000c6565b810181811067ffffffffffffffff82111715620001335762000132620000d7565b5b80604052505050565b600062000148620000a8565b905062000156828262000106565b919050565b600067ffffffffffffffff821115620001795762000178620000d7565b5b6200018482620000c6565b9050602081019050919050565b60005b83811015620001b157808201518184015260208101905062000194565b60008484015250505050565b6000620001d4620001ce846200015b565b6200013c565b905082815260208101848484011115620001f357620001f2620000c1565b5b6200020084828562000191565b509392505050565b600082601f83011262000220576200021f620000bc565b5b815162000232848260208601620001bd565b91505092915050565b60008060408385031215620002555762000254620000b2565b5b600083015167ffffffffffffffff811115620002765762000275620000b7565b5b620002848582860162000208565b925050602083015167ffffffffffffffff811115620002a857620002a7620000b7565b5b620002b68582860162000208565b9150509250929050565b600081519050919050565b7f4e487b7100000000000000000000000000000000000000000000000000000000600052602260045260246000fd5b600060028204905060018216806200031357607f821691505b602082108103620003295762000328620002cb565b5b50919050565b60008190508160005260206000209050919050565b60006020601f8301049050919050565b600082821b905092915050565b600060088302620003937fffffffffffffffffffffffffffffffffffffffffffffffffffffffffffffffff8262000354565b6200039f868362000354565b95508019841693508086168417925050509392505050565b6000819050919050565b6000819050919050565b6000620003ec620003e6620003e084620003b7565b620003c1565b620003b7565b9050919050565b6000819050919050565b6200040883620003cb565b620004206200041782620003f3565b84845462000361565b825550505050565b600090565b6200043762000428565b62000444818484620003fd565b505050565b5b818110156200046c57620004606000826200042d565b6001810190506200044a565b5050565b601f821115620004bb5762000485816200032f565b620004908462000344565b81016020851015620004a0578190505b620004b8620004af8562000344565b83018262000449565b50505b505050565b600082821c905092915050565b6000620004e060001984600802620004c0565b1980831691505092915050565b6000620004fb8383620004cd565b9150826002028217905092915050565b6200051682620002c0565b67ffffffffffffffff811115620005325762000531620000d7565b5b6200053e8254620002fa565b6200054b82828562000470565b600060209050601f8311600181146200058357600084156200056e578287015190505b6200057a8582620004ed565b865550620005ea565b601f19841662000593866200032f565b60005b82811015620005bd5784890151825560018201915060208501945060208101905062000596565b86831015620005dd5784890151620005d9601f891682620004cd565b8355505b6001600288020188555050505b505050505050565b6121d480620006026000396000f3fe608060405234801561001057600080fd5b50600436106101165760003560e01c806353b91ae0116100a2578063a457c2d711610071578063a457c2d714610331578063a9059cbb14610361578063affed0e014610391578063dd62ed3e146103af578063f9c7cb75146103df57610116565b806353b91ae01461028357806370a08231146102b3578063732e3c4d146102e357806395d89b411461031357610116565b8063238ac933116100e9578063238ac933146101b757806323b872dd146101d55780632d02d85e14610205578063313ce56714610235578063395093511461025357610116565b806306fdde031461011b578063095ea7b31461013957806318160ddd146101695780631e7269c514610187575b600080fd5b6101236103fb565b604051610130919061132c565b60405180910390f35b610153600480360381019061014e91906113f6565b61048d565b6040516101609190611451565b60405180910390f35b6101716104b0565b60405161017e919061147b565b60405180910390f35b6101a1600480360381019061019c9190611496565b6104ba565b6040516101ae9190611451565b60405180910390f35b6101bf6104da565b6040516101cc91906114d2565b60405180910390f35b6101ef60048036038101906101ea91906114ed565b610500565b6040516101fc9190611451565b60405180910390f35b61021f600480360381019061021a91906116ab565b61052f565b60405161022c9190611451565b60405180910390f35b61023d610593565b60405161024a9190611723565b60405180910390f35b61026d600480360381019061026891906113f6565b61059c565b60405161027a9190611451565b60405180910390f35b61029d6004803603810190610298919061173e565b6105d3565b6040516102aa919061177a565b60405180910390f35b6102cd60048036038101906102c89190611496565b610603565b6040516102da919061147b565b60405180910390f35b6102fd60048036038101906102f891906113f6565b61064b565b60405161030a919061177a565b60405180910390f35b61031b610684565b604051610328919061132c565b60405180910390f35b61034b600480360381019061034691906113f6565b610716565b6040516103589190611451565b60405180910390f35b61037b600480360381019061037691906113f6565b61078d565b6040516103889190611451565b60405180910390f35b6103996107b0565b6040516103a6919061147b565b60405180910390f35b6103c960048036038101906103c49190611795565b6107b6565b6040516103d6919061147b565b60405180910390f35b6103f960048036038101906103f491906117d5565b61083d565b005b60606003805461040a90611873565b80601f016020809104026020016040519081016040528092919081815260200182805461043690611873565b80156104835780601f1061045857610100808354040283529160200191610483565b820191906000526020600020905b81548152906001019060200180831161046657829003601f168201915b5050505050905090565b6000806104986109a9565b90506104a58185856109b1565b600191505092915050565b6000600254905090565b60066020528060005260406000206000915054906101000a900460ff1681565b600560009054906101000a900473ffffffffffffffffffffffffffffffffffffffff1681565b60008061050b6109a9565b9050610518858285610b7a565b610523858585610c06565b60019150509392505050565b6000600560009054906101000a900473ffffffffffffffffffffffffffffffffffffffff1673ffffffffffffffffffffffffffffffffffffffff166105748484610e7c565b73ffffffffffffffffffffffffffffffffffffffff1614905092915050565b60006012905090565b6000806105a76109a9565b90506105c88185856105b985896107b6565b6105c391906118d3565b6109b1565b600191505092915050565b6000816040516020016105e6919061197f565b604051602081830303815290604052805190602001209050919050565b60008060008373ffffffffffffffffffffffffffffffffffffffff1673ffffffffffffffffffffffffffffffffffffffff168152602001908152602001600020549050919050565b60008282600754466040516020016106669493929190611a0e565b60405160208183030381529060405280519060200120905092915050565b60606004805461069390611873565b80601f01602080910402602001604051908101604052809291908181526020018280546106bf90611873565b801561070c5780601f106106e15761010080835404028352916020019161070c565b820191906000526020600020905b8154815290600101906020018083116106ef57829003601f168201915b5050505050905090565b6000806107216109a9565b9050600061072f82866107b6565b905083811015610774576040517f08c379a000000000000000000000000000000000000000000000000000000000815260040161076b90611ace565b60405180910390fd5b61078182868684036109b1565b60019250505092915050565b6000806107986109a9565b90506107a5818585610c06565b600191505092915050565b60075481565b6000600160008473ffffffffffffffffffffffffffffffffffffffff1673ffffffffffffffffffffffffffffffffffffffff16815260200190815260200160002060008373ffffffffffffffffffffffffffffffffffffffff1673ffffffffffffffffffffffffffffffffffffffff16815260200190815260200160002054905092915050565b600061085161084c858561064b565b6105d3565b905061085d818361052f565b61089c576040517f08c379a000000000000000000000000000000000000000000000000000000000815260040161089390611b3a565b60405180910390fd5b600660003373ffffffffffffffffffffffffffffffffffffffff1673ffffffffffffffffffffffffffffffffffffffff16815260200190815260200160002060009054906101000a900460ff1615610929576040517f08c379a000000000000000000000000000000000000000000000000000000000815260040161092090611ba6565b60405180910390fd5b6001600660003373ffffffffffffffffffffffffffffffffffffffff1673ffffffffffffffffffffffffffffffffffffffff16815260200190815260200160002060006101000a81548160ff02191690831515021790555061098b8484610ea3565b6007600081548092919061099e90611bc6565b919050555050505050565b600033905090565b600073ffffffffffffffffffffffffffffffffffffffff168373ffffffffffffffffffffffffffffffffffffffff1603610a20576040517f08c379a0000000000000000000000000000000000000000000000000000000008152600401610a1790611c80565b60405180910390fd5b600073ffffffffffffffffffffffffffffffffffffffff168273ffffffffffffffffffffffffffffffffffffffff1603610a8f576040517f08c379a0000000000000000000000000000000000000000000000000000000008152600401610a8690611d12565b60405180910390fd5b80600160008573ffffffffffffffffffffffffffffffffffffffff1673ffffffffffffffffffffffffffffffffffffffff16815260200190815260200160002060008473ffffffffffffffffffffffffffffffffffffffff1673ffffffffffffffffffffffffffffffffffffffff168152602001908152602001600020819055508173ffffffffffffffffffffffffffffffffffffffff168373ffffffffffffffffffffffffffffffffffffffff167f8c5be1e5ebec7d5bd14f71427d1e84f3dd0314c0f7b2291e5b200ac8c7c3b92583604051610b6d919061147b565b60405180910390a3505050565b6000610b8684846107b6565b90507fffffffffffffffffffffffffffffffffffffffffffffffffffffffffffffffff8114610c005781811015610bf2576040517f08c379a0000000000000000000000000000000000000000000000000000000008152600401610be990611d7e565b60405180910390fd5b610bff84848484036109b1565b5b50505050565b600073ffffffffffffffffffffffffffffffffffffffff168373ffffffffffffffffffffffffffffffffffffffff1603610c75576040517f08c379a0000000000000000000000000000000000000000000000000000000008152600401610c6c90611e10565b60405180910390fd5b600073ffffffffffffffffffffffffffffffffffffffff168273ffffffffffffffffffffffffffffffffffffffff1603610ce4576040517f08c379a0000000000000000000000000000000000000000000000000000000008152600401610cdb90611ea2565b60405180910390fd5b610cef838383610ff9565b60008060008573ffffffffffffffffffffffffffffffffffffffff1673ffffffffffffffffffffffffffffffffffffffff16815260200190815260200160002054905081811015610d75576040517f08c379a0000000000000000000000000000000000000000000000000000000008152600401610d6c90611f34565b60405180910390fd5b8181036000808673ffffffffffffffffffffffffffffffffffffffff1673ffffffffffffffffffffffffffffffffffffffff16815260200190815260200160002081905550816000808573ffffffffffffffffffffffffffffffffffffffff1673ffffffffffffffffffffffffffffffffffffffff168152602001908152602001600020600082825401925050819055508273ffffffffffffffffffffffffffffffffffffffff168473ffffffffffffffffffffffffffffffffffffffff167fddf252ad1be2c89b69c2b068fc378daa952ba7f163c4a11628f55a4df523b3ef84604051610e63919061147b565b60405180910390a3610e76848484610ffe565b50505050565b6000806000610e8b8585611003565b91509150610e9881611054565b819250505092915050565b600073ffffffffffffffffffffffffffffffffffffffff168273ffffffffffffffffffffffffffffffffffffffff1603610f12576040517f08c379a0000000000000000000000000000000000000000000000000000000008152600401610f0990611fa0565b60405180910390fd5b610f1e60008383610ff9565b8060026000828254610f3091906118d3565b92505081905550806000808473ffffffffffffffffffffffffffffffffffffffff1673ffffffffffffffffffffffffffffffffffffffff168152602001908152602001600020600082825401925050819055508173ffffffffffffffffffffffffffffffffffffffff16600073ffffffffffffffffffffffffffffffffffffffff167fddf252ad1be2c89b69c2b068fc378daa952ba7f163c4a11628f55a4df523b3ef83604051610fe1919061147b565b60405180910390a3610ff560008383610ffe565b5050565b505050565b505050565b60008060418351036110445760008060006020860151925060408601519150606086015160001a9050611038878285856111ba565b9450945050505061104d565b60006002915091505b9250929050565b6000600481111561106857611067611fc0565b5b81600481111561107b5761107a611fc0565b5b03156111b7576001600481111561109557611094611fc0565b5b8160048111156110a8576110a7611fc0565b5b036110e8576040517f08c379a00000000000000000000000000000000000000000000000000000000081526004016110df9061203b565b60405180910390fd5b600260048111156110fc576110fb611fc0565b5b81600481111561110f5761110e611fc0565b5b0361114f576040517f08c379a0000000000000000000000000000000000000000000000000000000008152600401611146906120a7565b60405180910390fd5b6003600481111561116357611162611fc0565b5b81600481111561117657611175611fc0565b5b036111b6576040517f08c379a00000000000000000000000000000000000000000000000000000000081526004016111ad90612139565b60405180910390fd5b5b50565b6000807f7fffffffffffffffffffffffffffffff5d576e7357a4501ddfe92f46681b20a08360001c11156111f5576000600391509150611293565b60006001878787876040516000815260200160405260405161121a9493929190612159565b6020604051602081039080840390855afa15801561123c573d6000803e3d6000fd5b505050602060405103519050600073ffffffffffffffffffffffffffffffffffffffff168173ffffffffffffffffffffffffffffffffffffffff160361128a57600060019250925050611293565b80600092509250505b94509492505050565b600081519050919050565b600082825260208201905092915050565b60005b838110156112d65780820151818401526020810190506112bb565b60008484015250505050565b6000601f19601f8301169050919050565b60006112fe8261129c565b61130881856112a7565b93506113188185602086016112b8565b611321816112e2565b840191505092915050565b6000602082019050818103600083015261134681846112f3565b905092915050565b6000604051905090565b600080fd5b600080fd5b600073ffffffffffffffffffffffffffffffffffffffff82169050919050565b600061138d82611362565b9050919050565b61139d81611382565b81146113a857600080fd5b50565b6000813590506113ba81611394565b92915050565b6000819050919050565b6113d3816113c0565b81146113de57600080fd5b50565b6000813590506113f0816113ca565b92915050565b6000806040838503121561140d5761140c611358565b5b600061141b858286016113ab565b925050602061142c858286016113e1565b9150509250929050565b60008115159050919050565b61144b81611436565b82525050565b60006020820190506114666000830184611442565b92915050565b611475816113c0565b82525050565b6000602082019050611490600083018461146c565b92915050565b6000602082840312156114ac576114ab611358565b5b60006114ba848285016113ab565b91505092915050565b6114cc81611382565b82525050565b60006020820190506114e760008301846114c3565b92915050565b60008060006060848603121561150657611505611358565b5b6000611514868287016113ab565b9350506020611525868287016113ab565b9250506040611536868287016113e1565b9150509250925092565b6000819050919050565b61155381611540565b811461155e57600080fd5b50565b6000813590506115708161154a565b92915050565b600080fd5b600080fd5b7f4e487b7100000000000000000000000000000000000000000000000000000000600052604160045260246000fd5b6115b8826112e2565b810181811067ffffffffffffffff821117156115d7576115d6611580565b5b80604052505050565b60006115ea61134e565b90506115f682826115af565b919050565b600067ffffffffffffffff82111561161657611615611580565b5b61161f826112e2565b9050602081019050919050565b82818337600083830152505050565b600061164e611649846115fb565b6115e0565b90508281526020810184848401111561166a5761166961157b565b5b61167584828561162c565b509392505050565b600082601f83011261169257611691611576565b5b81356116a284826020860161163b565b91505092915050565b600080604083850312156116c2576116c1611358565b5b60006116d085828601611561565b925050602083013567ffffffffffffffff8111156116f1576116f061135d565b5b6116fd8582860161167d565b9150509250929050565b600060ff82169050919050565b61171d81611707565b82525050565b60006020820190506117386000830184611714565b92915050565b60006020828403121561175457611753611358565b5b600061176284828501611561565b91505092915050565b61177481611540565b82525050565b600060208201905061178f600083018461176b565b92915050565b600080604083850312156117ac576117ab611358565b5b60006117ba858286016113ab565b92505060206117cb858286016113ab565b9150509250929050565b6000806000606084860312156117ee576117ed611358565b5b60006117fc868287016113ab565b935050602061180d868287016113e1565b925050604084013567ffffffffffffffff81111561182e5761182d61135d565b5b61183a8682870161167d565b9150509250925092565b7f4e487b7100000000000000000000000000000000000000000000000000000000600052602260045260246000fd5b6000600282049050600182168061188b57607f821691505b60208210810361189e5761189d611844565b5b50919050565b7f4e487b7100000000000000000000000000000000000000000000000000000000600052601160045260246000fd5b60006118de826113c0565b91506118e9836113c0565b9250828201905080821115611901576119006118a4565b5b92915050565b600081905092915050565b7f19457468657265756d205369676e6564204d6573736167653a0a333200000000600082015250565b6000611948601c83611907565b915061195382611912565b601c82019050919050565b6000819050919050565b61197961197482611540565b61195e565b82525050565b600061198a8261193b565b91506119968284611968565b60208201915081905092915050565b60008160601b9050919050565b60006119bd826119a5565b9050919050565b60006119cf826119b2565b9050919050565b6119e76119e282611382565b6119c4565b82525050565b6000819050919050565b611a08611a03826113c0565b6119ed565b82525050565b6000611a1a82876119d6565b601482019150611a2a82866119f7565b602082019150611a3a82856119f7565b602082019150611a4a82846119f7565b60208201915081905095945050505050565b7f45524332303a2064656372656173656420616c6c6f77616e63652062656c6f7760008201527f207a65726f000000000000000000000000000000000000000000000000000000602082015250565b6000611ab86025836112a7565b9150611ac382611a5c565b604082019050919050565b60006020820190508181036000830152611ae781611aab565b9050919050565b7f6572726f722d2d2d626164207369670000000000000000000000000000000000600082015250565b6000611b24600f836112a7565b9150611b2f82611aee565b602082019050919050565b60006020820190508181036000830152611b5381611b17565b9050919050565b7f6572726f722d2d2d6d696e746564000000000000000000000000000000000000600082015250565b6000611b90600e836112a7565b9150611b9b82611b5a565b602082019050919050565b60006020820190508181036000830152611bbf81611b83565b9050919050565b6000611bd1826113c0565b91507fffffffffffffffffffffffffffffffffffffffffffffffffffffffffffffffff8203611c0357611c026118a4565b5b600182019050919050565b7f45524332303a20617070726f76652066726f6d20746865207a65726f2061646460008201527f7265737300000000000000000000000000000000000000000000000000000000602082015250565b6000611c6a6024836112a7565b9150611c7582611c0e565b604082019050919050565b60006020820190508181036000830152611c9981611c5d565b9050919050565b7f45524332303a20617070726f766520746f20746865207a65726f20616464726560008201527f7373000000000000000000000000000000000000000000000000000000000000602082015250565b6000611cfc6022836112a7565b9150611d0782611ca0565b604082019050919050565b60006020820190508181036000830152611d2b81611cef565b9050919050565b7f45524332303a20696e73756666696369656e7420616c6c6f77616e6365000000600082015250565b6000611d68601d836112a7565b9150611d7382611d32565b602082019050919050565b60006020820190508181036000830152611d9781611d5b565b9050919050565b7f45524332303a207472616e736665722066726f6d20746865207a65726f20616460008201527f6472657373000000000000000000000000000000000000000000000000000000602082015250565b6000611dfa6025836112a7565b9150611e0582611d9e565b604082019050919050565b60006020820190508181036000830152611e2981611ded565b9050919050565b7f45524332303a207472616e7366657220746f20746865207a65726f206164647260008201527f6573730000000000000000000000000000000000000000000000000000000000602082015250565b6000611e8c6023836112a7565b9150611e9782611e30565b604082019050919050565b60006020820190508181036000830152611ebb81611e7f565b9050919050565b7f45524332303a207472616e7366657220616d6f756e742065786365656473206260008201527f616c616e63650000000000000000000000000000000000000000000000000000602082015250565b6000611f1e6026836112a7565b9150611f2982611ec2565b604082019050919050565b60006020820190508181036000830152611f4d81611f11565b9050919050565b7f45524332303a206d696e7420746f20746865207a65726f206164647265737300600082015250565b6000611f8a601f836112a7565b9150611f9582611f54565b602082019050919050565b60006020820190508181036000830152611fb981611f7d565b9050919050565b7f4e487b7100000000000000000000000000000000000000000000000000000000600052602160045260246000fd5b7f45434453413a20696e76616c6964207369676e61747572650000000000000000600082015250565b60006120256018836112a7565b915061203082611fef565b602082019050919050565b6000602082019050818103600083015261205481612018565b9050919050565b7f45434453413a20696e76616c6964207369676e6174757265206c656e67746800600082015250565b6000612091601f836112a7565b915061209c8261205b565b602082019050919050565b600060208201905081810360008301526120c081612084565b9050919050565b7f45434453413a20696e76616c6964207369676e6174757265202773272076616c60008201527f7565000000000000000000000000000000000000000000000000000000000000602082015250565b60006121236022836112a7565b915061212e826120c7565b604082019050919050565b6000602082019050818103600083015261215281612116565b9050919050565b600060808201905061216e600083018761176b565b61217b6020830186611714565b612188604083018561176b565b612195606083018461176b565b9594505050505056fea26469706673582212201981912a6693a3a0f0201dd303becddc09b76e7757ec42f6c51ab39702addd2f64736f6c63430008120033",
					"opcodes": "PUSH1 0x80 PUSH1 0x40 MSTORE CALLVALUE DUP1 ISZERO PUSH3 0x11 JUMPI PUSH1 0x0 DUP1 REVERT JUMPDEST POP PUSH1 0x40 MLOAD PUSH3 0x27D6 CODESIZE SUB DUP1 PUSH3 0x27D6 DUP4 CODECOPY DUP2 DUP2 ADD PUSH1 0x40 MSTORE DUP2 ADD SWAP1 PUSH3 0x37 SWAP2 SWAP1 PUSH3 0x23B JUMP JUMPDEST DUP2 DUP2 DUP2 PUSH1 0x3 SWAP1 DUP2 PUSH3 0x4A SWAP2 SWAP1 PUSH3 0x50B JUMP JUMPDEST POP DUP1 PUSH1 0x4 SWAP1 DUP2 PUSH3 0x5C SWAP2 SWAP1 PUSH3 0x50B JUMP JUMPDEST POP POP POP CALLER PUSH1 0x5 PUSH1 0x0 PUSH2 0x100 EXP DUP2 SLOAD DUP2 PUSH20 0xFFFFFFFFFFFFFFFFFFFFFFFFFFFFFFFFFFFFFFFF MUL NOT AND SWAP1 DUP4 PUSH20 0xFFFFFFFFFFFFFFFFFFFFFFFFFFFFFFFFFFFFFFFF AND MUL OR SWAP1 SSTORE POP POP POP PUSH3 0x5F2 JUMP JUMPDEST PUSH1 0x0 PUSH1 0x40 MLOAD SWAP1 POP SWAP1 JUMP JUMPDEST PUSH1 0x0 DUP1 REVERT JUMPDEST PUSH1 0x0 DUP1 REVERT JUMPDEST PUSH1 0x0 DUP1 REVERT JUMPDEST PUSH1 0x0 DUP1 REVERT JUMPDEST PUSH1 0x0 PUSH1 0x1F NOT PUSH1 0x1F DUP4 ADD AND SWAP1 POP SWAP2 SWAP1 POP JUMP JUMPDEST PUSH32 0x4E487B7100000000000000000000000000000000000000000000000000000000 PUSH1 0x0 MSTORE PUSH1 0x41 PUSH1 0x4 MSTORE PUSH1 0x24 PUSH1 0x0 REVERT JUMPDEST PUSH3 0x111 DUP3 PUSH3 0xC6 JUMP JUMPDEST DUP2 ADD DUP2 DUP2 LT PUSH8 0xFFFFFFFFFFFFFFFF DUP3 GT OR ISZERO PUSH3 0x133 JUMPI PUSH3 0x132 PUSH3 0xD7 JUMP JUMPDEST JUMPDEST DUP1 PUSH1 0x40 MSTORE POP POP POP JUMP JUMPDEST PUSH1 0x0 PUSH3 0x148 PUSH3 0xA8 JUMP JUMPDEST SWAP1 POP PUSH3 0x156 DUP3 DUP3 PUSH3 0x106 JUMP JUMPDEST SWAP2 SWAP1 POP JUMP JUMPDEST PUSH1 0x0 PUSH8 0xFFFFFFFFFFFFFFFF DUP3 GT ISZERO PUSH3 0x179 JUMPI PUSH3 0x178 PUSH3 0xD7 JUMP JUMPDEST JUMPDEST PUSH3 0x184 DUP3 PUSH3 0xC6 JUMP JUMPDEST SWAP1 POP PUSH1 0x20 DUP2 ADD SWAP1 POP SWAP2 SWAP1 POP JUMP JUMPDEST PUSH1 0x0 JUMPDEST DUP4 DUP2 LT ISZERO PUSH3 0x1B1 JUMPI DUP1 DUP3 ADD MLOAD DUP2 DUP5 ADD MSTORE PUSH1 0x20 DUP2 ADD SWAP1 POP PUSH3 0x194 JUMP JUMPDEST PUSH1 0x0 DUP5 DUP5 ADD MSTORE POP POP POP POP JUMP JUMPDEST PUSH1 0x0 PUSH3 0x1D4 PUSH3 0x1CE DUP5 PUSH3 0x15B JUMP JUMPDEST PUSH3 0x13C JUMP JUMPDEST SWAP1 POP DUP3 DUP2 MSTORE PUSH1 0x20 DUP2 ADD DUP5 DUP5 DUP5 ADD GT ISZERO PUSH3 0x1F3 JUMPI PUSH3 0x1F2 PUSH3 0xC1 JUMP JUMPDEST JUMPDEST PUSH3 0x200 DUP5 DUP3 DUP6 PUSH3 0x191 JUMP JUMPDEST POP SWAP4 SWAP3 POP POP POP JUMP JUMPDEST PUSH1 0x0 DUP3 PUSH1 0x1F DUP4 ADD SLT PUSH3 0x220 JUMPI PUSH3 0x21F PUSH3 0xBC JUMP JUMPDEST JUMPDEST DUP2 MLOAD PUSH3 0x232 DUP5 DUP3 PUSH1 0x20 DUP7 ADD PUSH3 0x1BD JUMP JUMPDEST SWAP2 POP POP SWAP3 SWAP2 POP POP JUMP JUMPDEST PUSH1 0x0 DUP1 PUSH1 0x40 DUP4 DUP6 SUB SLT ISZERO PUSH3 0x255 JUMPI PUSH3 0x254 PUSH3 0xB2 JUMP JUMPDEST JUMPDEST PUSH1 0x0 DUP4 ADD MLOAD PUSH8 0xFFFFFFFFFFFFFFFF DUP2 GT ISZERO PUSH3 0x276 JUMPI PUSH3 0x275 PUSH3 0xB7 JUMP JUMPDEST JUMPDEST PUSH3 0x284 DUP6 DUP3 DUP7 ADD PUSH3 0x208 JUMP JUMPDEST SWAP3 POP POP PUSH1 0x20 DUP4 ADD MLOAD PUSH8 0xFFFFFFFFFFFFFFFF DUP2 GT ISZERO PUSH3 0x2A8 JUMPI PUSH3 0x2A7 PUSH3 0xB7 JUMP JUMPDEST JUMPDEST PUSH3 0x2B6 DUP6 DUP3 DUP7 ADD PUSH3 0x208 JUMP JUMPDEST SWAP2 POP POP SWAP3 POP SWAP3 SWAP1 POP JUMP JUMPDEST PUSH1 0x0 DUP2 MLOAD SWAP1 POP SWAP2 SWAP1 POP JUMP JUMPDEST PUSH32 0x4E487B7100000000000000000000000000000000000000000000000000000000 PUSH1 0x0 MSTORE PUSH1 0x22 PUSH1 0x4 MSTORE PUSH1 0x24 PUSH1 0x0 REVERT JUMPDEST PUSH1 0x0 PUSH1 0x2 DUP3 DIV SWAP1 POP PUSH1 0x1 DUP3 AND DUP1 PUSH3 0x313 JUMPI PUSH1 0x7F DUP3 AND SWAP2 POP JUMPDEST PUSH1 0x20 DUP3 LT DUP2 SUB PUSH3 0x329 JUMPI PUSH3 0x328 PUSH3 0x2CB JUMP JUMPDEST JUMPDEST POP SWAP2 SWAP1 POP JUMP JUMPDEST PUSH1 0x0 DUP2 SWAP1 POP DUP2 PUSH1 0x0 MSTORE PUSH1 0x20 PUSH1 0x0 KECCAK256 SWAP1 POP SWAP2 SWAP1 POP JUMP JUMPDEST PUSH1 0x0 PUSH1 0x20 PUSH1 0x1F DUP4 ADD DIV SWAP1 POP SWAP2 SWAP1 POP JUMP JUMPDEST PUSH1 0x0 DUP3 DUP3 SHL SWAP1 POP SWAP3 SWAP2 POP POP JUMP JUMPDEST PUSH1 0x0 PUSH1 0x8 DUP4 MUL PUSH3 0x393 PUSH32 0xFFFFFFFFFFFFFFFFFFFFFFFFFFFFFFFFFFFFFFFFFFFFFFFFFFFFFFFFFFFFFFFF DUP3 PUSH3 0x354 JUMP JUMPDEST PUSH3 0x39F DUP7 DUP4 PUSH3 0x354 JUMP JUMPDEST SWAP6 POP DUP1 NOT DUP5 AND SWAP4 POP DUP1 DUP7 AND DUP5 OR SWAP3 POP POP POP SWAP4 SWAP3 POP POP POP JUMP JUMPDEST PUSH1 0x0 DUP2 SWAP1 POP SWAP2 SWAP1 POP JUMP JUMPDEST PUSH1 0x0 DUP2 SWAP1 POP SWAP2 SWAP1 POP JUMP JUMPDEST PUSH1 0x0 PUSH3 0x3EC PUSH3 0x3E6 PUSH3 0x3E0 DUP5 PUSH3 0x3B7 JUMP JUMPDEST PUSH3 0x3C1 JUMP JUMPDEST PUSH3 0x3B7 JUMP JUMPDEST SWAP1 POP SWAP2 SWAP1 POP JUMP JUMPDEST PUSH1 0x0 DUP2 SWAP1 POP SWAP2 SWAP1 POP JUMP JUMPDEST PUSH3 0x408 DUP4 PUSH3 0x3CB JUMP JUMPDEST PUSH3 0x420 PUSH3 0x417 DUP3 PUSH3 0x3F3 JUMP JUMPDEST DUP5 DUP5 SLOAD PUSH3 0x361 JUMP JUMPDEST DUP3 SSTORE POP POP POP POP JUMP JUMPDEST PUSH1 0x0 SWAP1 JUMP JUMPDEST PUSH3 0x437 PUSH3 0x428 JUMP JUMPDEST PUSH3 0x444 DUP2 DUP5 DUP5 PUSH3 0x3FD JUMP JUMPDEST POP POP POP JUMP JUMPDEST JUMPDEST DUP2 DUP2 LT ISZERO PUSH3 0x46C JUMPI PUSH3 0x460 PUSH1 0x0 DUP3 PUSH3 0x42D JUMP JUMPDEST PUSH1 0x1 DUP2 ADD SWAP1 POP PUSH3 0x44A JUMP JUMPDEST POP POP JUMP JUMPDEST PUSH1 0x1F DUP3 GT ISZERO PUSH3 0x4BB JUMPI PUSH3 0x485 DUP2 PUSH3 0x32F JUMP JUMPDEST PUSH3 0x490 DUP5 PUSH3 0x344 JUMP JUMPDEST DUP2 ADD PUSH1 0x20 DUP6 LT ISZERO PUSH3 0x4A0 JUMPI DUP2 SWAP1 POP JUMPDEST PUSH3 0x4B8 PUSH3 0x4AF DUP6 PUSH3 0x344 JUMP JUMPDEST DUP4 ADD DUP3 PUSH3 0x449 JUMP JUMPDEST POP POP JUMPDEST POP POP POP JUMP JUMPDEST PUSH1 0x0 DUP3 DUP3 SHR SWAP1 POP SWAP3 SWAP2 POP POP JUMP JUMPDEST PUSH1 0x0 PUSH3 0x4E0 PUSH1 0x0 NOT DUP5 PUSH1 0x8 MUL PUSH3 0x4C0 JUMP JUMPDEST NOT DUP1 DUP4 AND SWAP2 POP POP SWAP3 SWAP2 POP POP JUMP JUMPDEST PUSH1 0x0 PUSH3 0x4FB DUP4 DUP4 PUSH3 0x4CD JUMP JUMPDEST SWAP2 POP DUP3 PUSH1 0x2 MUL DUP3 OR SWAP1 POP SWAP3 SWAP2 POP POP JUMP JUMPDEST PUSH3 0x516 DUP3 PUSH3 0x2C0 JUMP JUMPDEST PUSH8 0xFFFFFFFFFFFFFFFF DUP2 GT ISZERO PUSH3 0x532 JUMPI PUSH3 0x531 PUSH3 0xD7 JUMP JUMPDEST JUMPDEST PUSH3 0x53E DUP3 SLOAD PUSH3 0x2FA JUMP JUMPDEST PUSH3 0x54B DUP3 DUP3 DUP6 PUSH3 0x470 JUMP JUMPDEST PUSH1 0x0 PUSH1 0x20 SWAP1 POP PUSH1 0x1F DUP4 GT PUSH1 0x1 DUP2 EQ PUSH3 0x583 JUMPI PUSH1 0x0 DUP5 ISZERO PUSH3 0x56E JUMPI DUP3 DUP8 ADD MLOAD SWAP1 POP JUMPDEST PUSH3 0x57A DUP6 DUP3 PUSH3 0x4ED JUMP JUMPDEST DUP7 SSTORE POP PUSH3 0x5EA JUMP JUMPDEST PUSH1 0x1F NOT DUP5 AND PUSH3 0x593 DUP7 PUSH3 0x32F JUMP JUMPDEST PUSH1 0x0 JUMPDEST DUP3 DUP2 LT ISZERO PUSH3 0x5BD JUMPI DUP5 DUP10 ADD MLOAD DUP3 SSTORE PUSH1 0x1 DUP3 ADD SWAP2 POP PUSH1 0x20 DUP6 ADD SWAP5 POP PUSH1 0x20 DUP2 ADD SWAP1 POP PUSH3 0x596 JUMP JUMPDEST DUP7 DUP4 LT ISZERO PUSH3 0x5DD JUMPI DUP5 DUP10 ADD MLOAD PUSH3 0x5D9 PUSH1 0x1F DUP10 AND DUP3 PUSH3 0x4CD JUMP JUMPDEST DUP4 SSTORE POP JUMPDEST PUSH1 0x1 PUSH1 0x2 DUP9 MUL ADD DUP9 SSTORE POP POP POP JUMPDEST POP POP POP POP POP POP JUMP JUMPDEST PUSH2 0x21D4 DUP1 PUSH3 0x602 PUSH1 0x0 CODECOPY PUSH1 0x0 RETURN INVALID PUSH1 0x80 PUSH1 0x40 MSTORE CALLVALUE DUP1 ISZERO PUSH2 0x10 JUMPI PUSH1 0x0 DUP1 REVERT JUMPDEST POP PUSH1 0x4 CALLDATASIZE LT PUSH2 0x116 JUMPI PUSH1 0x0 CALLDATALOAD PUSH1 0xE0 SHR DUP1 PUSH4 0x53B91AE0 GT PUSH2 0xA2 JUMPI DUP1 PUSH4 0xA457C2D7 GT PUSH2 0x71 JUMPI DUP1 PUSH4 0xA457C2D7 EQ PUSH2 0x331 JUMPI DUP1 PUSH4 0xA9059CBB EQ PUSH2 0x361 JUMPI DUP1 PUSH4 0xAFFED0E0 EQ PUSH2 0x391 JUMPI DUP1 PUSH4 0xDD62ED3E EQ PUSH2 0x3AF JUMPI DUP1 PUSH4 0xF9C7CB75 EQ PUSH2 0x3DF JUMPI PUSH2 0x116 JUMP JUMPDEST DUP1 PUSH4 0x53B91AE0 EQ PUSH2 0x283 JUMPI DUP1 PUSH4 0x70A08231 EQ PUSH2 0x2B3 JUMPI DUP1 PUSH4 0x732E3C4D EQ PUSH2 0x2E3 JUMPI DUP1 PUSH4 0x95D89B41 EQ PUSH2 0x313 JUMPI PUSH2 0x116 JUMP JUMPDEST DUP1 PUSH4 0x238AC933 GT PUSH2 0xE9 JUMPI DUP1 PUSH4 0x238AC933 EQ PUSH2 0x1B7 JUMPI DUP1 PUSH4 0x23B872DD EQ PUSH2 0x1D5 JUMPI DUP1 PUSH4 0x2D02D85E EQ PUSH2 0x205 JUMPI DUP1 PUSH4 0x313CE567 EQ PUSH2 0x235 JUMPI DUP1 PUSH4 0x39509351 EQ PUSH2 0x253 JUMPI PUSH2 0x116 JUMP JUMPDEST DUP1 PUSH4 0x6FDDE03 EQ PUSH2 0x11B JUMPI DUP1 PUSH4 0x95EA7B3 EQ PUSH2 0x139 JUMPI DUP1 PUSH4 0x18160DDD EQ PUSH2 0x169 JUMPI DUP1 PUSH4 0x1E7269C5 EQ PUSH2 0x187 JUMPI JUMPDEST PUSH1 0x0 DUP1 REVERT JUMPDEST PUSH2 0x123 PUSH2 0x3FB JUMP JUMPDEST PUSH1 0x40 MLOAD PUSH2 0x130 SWAP2 SWAP1 PUSH2 0x132C JUMP JUMPDEST PUSH1 0x40 MLOAD DUP1 SWAP2 SUB SWAP1 RETURN JUMPDEST PUSH2 0x153 PUSH1 0x4 DUP1 CALLDATASIZE SUB DUP2 ADD SWAP1 PUSH2 0x14E SWAP2 SWAP1 PUSH2 0x13F6 JUMP JUMPDEST PUSH2 0x48D JUMP JUMPDEST PUSH1 0x40 MLOAD PUSH2 0x160 SWAP2 SWAP1 PUSH2 0x1451 JUMP JUMPDEST PUSH1 0x40 MLOAD DUP1 SWAP2 SUB SWAP1 RETURN JUMPDEST PUSH2 0x171 PUSH2 0x4B0 JUMP JUMPDEST PUSH1 0x40 MLOAD PUSH2 0x17E SWAP2 SWAP1 PUSH2 0x147B JUMP JUMPDEST PUSH1 0x40 MLOAD DUP1 SWAP2 SUB SWAP1 RETURN JUMPDEST PUSH2 0x1A1 PUSH1 0x4 DUP1 CALLDATASIZE SUB DUP2 ADD SWAP1 PUSH2 0x19C SWAP2 SWAP1 PUSH2 0x1496 JUMP JUMPDEST PUSH2 0x4BA JUMP JUMPDEST PUSH1 0x40 MLOAD PUSH2 0x1AE SWAP2 SWAP1 PUSH2 0x1451 JUMP JUMPDEST PUSH1 0x40 MLOAD DUP1 SWAP2 SUB SWAP1 RETURN JUMPDEST PUSH2 0x1BF PUSH2 0x4DA JUMP JUMPDEST PUSH1 0x40 MLOAD PUSH2 0x1CC SWAP2 SWAP1 PUSH2 0x14D2 JUMP JUMPDEST PUSH1 0x40 MLOAD DUP1 SWAP2 SUB SWAP1 RETURN JUMPDEST PUSH2 0x1EF PUSH1 0x4 DUP1 CALLDATASIZE SUB DUP2 ADD SWAP1 PUSH2 0x1EA SWAP2 SWAP1 PUSH2 0x14ED JUMP JUMPDEST PUSH2 0x500 JUMP JUMPDEST PUSH1 0x40 MLOAD PUSH2 0x1FC SWAP2 SWAP1 PUSH2 0x1451 JUMP JUMPDEST PUSH1 0x40 MLOAD DUP1 SWAP2 SUB SWAP1 RETURN JUMPDEST PUSH2 0x21F PUSH1 0x4 DUP1 CALLDATASIZE SUB DUP2 ADD SWAP1 PUSH2 0x21A SWAP2 SWAP1 PUSH2 0x16AB JUMP JUMPDEST PUSH2 0x52F JUMP JUMPDEST PUSH1 0x40 MLOAD PUSH2 0x22C SWAP2 SWAP1 PUSH2 0x1451 JUMP JUMPDEST PUSH1 0x40 MLOAD DUP1 SWAP2 SUB SWAP1 RETURN JUMPDEST PUSH2 0x23D PUSH2 0x593 JUMP JUMPDEST PUSH1 0x40 MLOAD PUSH2 0x24A SWAP2 SWAP1 PUSH2 0x1723 JUMP JUMPDEST PUSH1 0x40 MLOAD DUP1 SWAP2 SUB SWAP1 RETURN JUMPDEST PUSH2 0x26D PUSH1 0x4 DUP1 CALLDATASIZE SUB DUP2 ADD SWAP1 PUSH2 0x268 SWAP2 SWAP1 PUSH2 0x13F6 JUMP JUMPDEST PUSH2 0x59C JUMP JUMPDEST PUSH1 0x40 MLOAD PUSH2 0x27A SWAP2 SWAP1 PUSH2 0x1451 JUMP JUMPDEST PUSH1 0x40 MLOAD DUP1 SWAP2 SUB SWAP1 RETURN JUMPDEST PUSH2 0x29D PUSH1 0x4 DUP1 CALLDATASIZE SUB DUP2 ADD SWAP1 PUSH2 0x298 SWAP2 SWAP1 PUSH2 0x173E JUMP JUMPDEST PUSH2 0x5D3 JUMP JUMPDEST PUSH1 0x40 MLOAD PUSH2 0x2AA SWAP2 SWAP1 PUSH2 0x177A JUMP JUMPDEST PUSH1 0x40 MLOAD DUP1 SWAP2 SUB SWAP1 RETURN JUMPDEST PUSH2 0x2CD PUSH1 0x4 DUP1 CALLDATASIZE SUB DUP2 ADD SWAP1 PUSH2 0x2C8 SWAP2 SWAP1 PUSH2 0x1496 JUMP JUMPDEST PUSH2 0x603 JUMP JUMPDEST PUSH1 0x40 MLOAD PUSH2 0x2DA SWAP2 SWAP1 PUSH2 0x147B JUMP JUMPDEST PUSH1 0x40 MLOAD DUP1 SWAP2 SUB SWAP1 RETURN JUMPDEST PUSH2 0x2FD PUSH1 0x4 DUP1 CALLDATASIZE SUB DUP2 ADD SWAP1 PUSH2 0x2F8 SWAP2 SWAP1 PUSH2 0x13F6 JUMP JUMPDEST PUSH2 0x64B JUMP JUMPDEST PUSH1 0x40 MLOAD PUSH2 0x30A SWAP2 SWAP1 PUSH2 0x177A JUMP JUMPDEST PUSH1 0x40 MLOAD DUP1 SWAP2 SUB SWAP1 RETURN JUMPDEST PUSH2 0x31B PUSH2 0x684 JUMP JUMPDEST PUSH1 0x40 MLOAD PUSH2 0x328 SWAP2 SWAP1 PUSH2 0x132C JUMP JUMPDEST PUSH1 0x40 MLOAD DUP1 SWAP2 SUB SWAP1 RETURN JUMPDEST PUSH2 0x34B PUSH1 0x4 DUP1 CALLDATASIZE SUB DUP2 ADD SWAP1 PUSH2 0x346 SWAP2 SWAP1 PUSH2 0x13F6 JUMP JUMPDEST PUSH2 0x716 JUMP JUMPDEST PUSH1 0x40 MLOAD PUSH2 0x358 SWAP2 SWAP1 PUSH2 0x1451 JUMP JUMPDEST PUSH1 0x40 MLOAD DUP1 SWAP2 SUB SWAP1 RETURN JUMPDEST PUSH2 0x37B PUSH1 0x4 DUP1 CALLDATASIZE SUB DUP2 ADD SWAP1 PUSH2 0x376 SWAP2 SWAP1 PUSH2 0x13F6 JUMP JUMPDEST PUSH2 0x78D JUMP JUMPDEST PUSH1 0x40 MLOAD PUSH2 0x388 SWAP2 SWAP1 PUSH2 0x1451 JUMP JUMPDEST PUSH1 0x40 MLOAD DUP1 SWAP2 SUB SWAP1 RETURN JUMPDEST PUSH2 0x399 PUSH2 0x7B0 JUMP JUMPDEST PUSH1 0x40 MLOAD PUSH2 0x3A6 SWAP2 SWAP1 PUSH2 0x147B JUMP JUMPDEST PUSH1 0x40 MLOAD DUP1 SWAP2 SUB SWAP1 RETURN JUMPDEST PUSH2 0x3C9 PUSH1 0x4 DUP1 CALLDATASIZE SUB DUP2 ADD SWAP1 PUSH2 0x3C4 SWAP2 SWAP1 PUSH2 0x1795 JUMP JUMPDEST PUSH2 0x7B6 JUMP JUMPDEST PUSH1 0x40 MLOAD PUSH2 0x3D6 SWAP2 SWAP1 PUSH2 0x147B JUMP JUMPDEST PUSH1 0x40 MLOAD DUP1 SWAP2 SUB SWAP1 RETURN JUMPDEST PUSH2 0x3F9 PUSH1 0x4 DUP1 CALLDATASIZE SUB DUP2 ADD SWAP1 PUSH2 0x3F4 SWAP2 SWAP1 PUSH2 0x17D5 JUMP JUMPDEST PUSH2 0x83D JUMP JUMPDEST STOP JUMPDEST PUSH1 0x60 PUSH1 0x3 DUP1 SLOAD PUSH2 0x40A SWAP1 PUSH2 0x1873 JUMP JUMPDEST DUP1 PUSH1 0x1F ADD PUSH1 0x20 DUP1 SWAP2 DIV MUL PUSH1 0x20 ADD PUSH1 0x40 MLOAD SWAP1 DUP2 ADD PUSH1 0x40 MSTORE DUP1 SWAP3 SWAP2 SWAP1 DUP2 DUP2 MSTORE PUSH1 0x20 ADD DUP3 DUP1 SLOAD PUSH2 0x436 SWAP1 PUSH2 0x1873 JUMP JUMPDEST DUP1 ISZERO PUSH2 0x483 JUMPI DUP1 PUSH1 0x1F LT PUSH2 0x458 JUMPI PUSH2 0x100 DUP1 DUP4 SLOAD DIV MUL DUP4 MSTORE SWAP2 PUSH1 0x20 ADD SWAP2 PUSH2 0x483 JUMP JUMPDEST DUP3 ADD SWAP2 SWAP1 PUSH1 0x0 MSTORE PUSH1 0x20 PUSH1 0x0 KECCAK256 SWAP1 JUMPDEST DUP2 SLOAD DUP2 MSTORE SWAP1 PUSH1 0x1 ADD SWAP1 PUSH1 0x20 ADD DUP1 DUP4 GT PUSH2 0x466 JUMPI DUP3 SWAP1 SUB PUSH1 0x1F AND DUP3 ADD SWAP2 JUMPDEST POP POP POP POP POP SWAP1 POP SWAP1 JUMP JUMPDEST PUSH1 0x0 DUP1 PUSH2 0x498 PUSH2 0x9A9 JUMP JUMPDEST SWAP1 POP PUSH2 0x4A5 DUP2 DUP6 DUP6 PUSH2 0x9B1 JUMP JUMPDEST PUSH1 0x1 SWAP2 POP POP SWAP3 SWAP2 POP POP JUMP JUMPDEST PUSH1 0x0 PUSH1 0x2 SLOAD SWAP1 POP SWAP1 JUMP JUMPDEST PUSH1 0x6 PUSH1 0x20 MSTORE DUP1 PUSH1 0x0 MSTORE PUSH1 0x40 PUSH1 0x0 KECCAK256 PUSH1 0x0 SWAP2 POP SLOAD SWAP1 PUSH2 0x100 EXP SWAP1 DIV PUSH1 0xFF AND DUP2 JUMP JUMPDEST PUSH1 0x5 PUSH1 0x0 SWAP1 SLOAD SWAP1 PUSH2 0x100 EXP SWAP1 DIV PUSH20 0xFFFFFFFFFFFFFFFFFFFFFFFFFFFFFFFFFFFFFFFF AND DUP2 JUMP JUMPDEST PUSH1 0x0 DUP1 PUSH2 0x50B PUSH2 0x9A9 JUMP JUMPDEST SWAP1 POP PUSH2 0x518 DUP6 DUP3 DUP6 PUSH2 0xB7A JUMP JUMPDEST PUSH2 0x523 DUP6 DUP6 DUP6 PUSH2 0xC06 JUMP JUMPDEST PUSH1 0x1 SWAP2 POP POP SWAP4 SWAP3 POP POP POP JUMP JUMPDEST PUSH1 0x0 PUSH1 0x5 PUSH1 0x0 SWAP1 SLOAD SWAP1 PUSH2 0x100 EXP SWAP1 DIV PUSH20 0xFFFFFFFFFFFFFFFFFFFFFFFFFFFFFFFFFFFFFFFF AND PUSH20 0xFFFFFFFFFFFFFFFFFFFFFFFFFFFFFFFFFFFFFFFF AND PUSH2 0x574 DUP5 DUP5 PUSH2 0xE7C JUMP JUMPDEST PUSH20 0xFFFFFFFFFFFFFFFFFFFFFFFFFFFFFFFFFFFFFFFF AND EQ SWAP1 POP SWAP3 SWAP2 POP POP JUMP JUMPDEST PUSH1 0x0 PUSH1 0x12 SWAP1 POP SWAP1 JUMP JUMPDEST PUSH1 0x0 DUP1 PUSH2 0x5A7 PUSH2 0x9A9 JUMP JUMPDEST SWAP1 POP PUSH2 0x5C8 DUP2 DUP6 DUP6 PUSH2 0x5B9 DUP6 DUP10 PUSH2 0x7B6 JUMP JUMPDEST PUSH2 0x5C3 SWAP2 SWAP1 PUSH2 0x18D3 JUMP JUMPDEST PUSH2 0x9B1 JUMP JUMPDEST PUSH1 0x1 SWAP2 POP POP SWAP3 SWAP2 POP POP JUMP JUMPDEST PUSH1 0x0 DUP2 PUSH1 0x40 MLOAD PUSH1 0x20 ADD PUSH2 0x5E6 SWAP2 SWAP1 PUSH2 0x197F JUMP JUMPDEST PUSH1 0x40 MLOAD PUSH1 0x20 DUP2 DUP4 SUB SUB DUP2 MSTORE SWAP1 PUSH1 0x40 MSTORE DUP1 MLOAD SWAP1 PUSH1 0x20 ADD KECCAK256 SWAP1 POP SWAP2 SWAP1 POP JUMP JUMPDEST PUSH1 0x0 DUP1 PUSH1 0x0 DUP4 PUSH20 0xFFFFFFFFFFFFFFFFFFFFFFFFFFFFFFFFFFFFFFFF AND PUSH20 0xFFFFFFFFFFFFFFFFFFFFFFFFFFFFFFFFFFFFFFFF AND DUP2 MSTORE PUSH1 0x20 ADD SWAP1 DUP2 MSTORE PUSH1 0x20 ADD PUSH1 0x0 KECCAK256 SLOAD SWAP1 POP SWAP2 SWAP1 POP JUMP JUMPDEST PUSH1 0x0 DUP3 DUP3 PUSH1 0x7 SLOAD CHAINID PUSH1 0x40 MLOAD PUSH1 0x20 ADD PUSH2 0x666 SWAP5 SWAP4 SWAP3 SWAP2 SWAP1 PUSH2 0x1A0E JUMP JUMPDEST PUSH1 0x40 MLOAD PUSH1 0x20 DUP2 DUP4 SUB SUB DUP2 MSTORE SWAP1 PUSH1 0x40 MSTORE DUP1 MLOAD SWAP1 PUSH1 0x20 ADD KECCAK256 SWAP1 POP SWAP3 SWAP2 POP POP JUMP JUMPDEST PUSH1 0x60 PUSH1 0x4 DUP1 SLOAD PUSH2 0x693 SWAP1 PUSH2 0x1873 JUMP JUMPDEST DUP1 PUSH1 0x1F ADD PUSH1 0x20 DUP1 SWAP2 DIV MUL PUSH1 0x20 ADD PUSH1 0x40 MLOAD SWAP1 DUP2 ADD PUSH1 0x40 MSTORE DUP1 SWAP3 SWAP2 SWAP1 DUP2 DUP2 MSTORE PUSH1 0x20 ADD DUP3 DUP1 SLOAD PUSH2 0x6BF SWAP1 PUSH2 0x1873 JUMP JUMPDEST DUP1 ISZERO PUSH2 0x70C JUMPI DUP1 PUSH1 0x1F LT PUSH2 0x6E1 JUMPI PUSH2 0x100 DUP1 DUP4 SLOAD DIV MUL DUP4 MSTORE SWAP2 PUSH1 0x20 ADD SWAP2 PUSH2 0x70C JUMP JUMPDEST DUP3 ADD SWAP2 SWAP1 PUSH1 0x0 MSTORE PUSH1 0x20 PUSH1 0x0 KECCAK256 SWAP1 JUMPDEST DUP2 SLOAD DUP2 MSTORE SWAP1 PUSH1 0x1 ADD SWAP1 PUSH1 0x20 ADD DUP1 DUP4 GT PUSH2 0x6EF JUMPI DUP3 SWAP1 SUB PUSH1 0x1F AND DUP3 ADD SWAP2 JUMPDEST POP POP POP POP POP SWAP1 POP SWAP1 JUMP JUMPDEST PUSH1 0x0 DUP1 PUSH2 0x721 PUSH2 0x9A9 JUMP JUMPDEST SWAP1 POP PUSH1 0x0 PUSH2 0x72F DUP3 DUP7 PUSH2 0x7B6 JUMP JUMPDEST SWAP1 POP DUP4 DUP2 LT ISZERO PUSH2 0x774 JUMPI PUSH1 0x40 MLOAD PUSH32 0x8C379A000000000000000000000000000000000000000000000000000000000 DUP2 MSTORE PUSH1 0x4 ADD PUSH2 0x76B SWAP1 PUSH2 0x1ACE JUMP JUMPDEST PUSH1 0x40 MLOAD DUP1 SWAP2 SUB SWAP1 REVERT JUMPDEST PUSH2 0x781 DUP3 DUP7 DUP7 DUP5 SUB PUSH2 0x9B1 JUMP JUMPDEST PUSH1 0x1 SWAP3 POP POP POP SWAP3 SWAP2 POP POP JUMP JUMPDEST PUSH1 0x0 DUP1 PUSH2 0x798 PUSH2 0x9A9 JUMP JUMPDEST SWAP1 POP PUSH2 0x7A5 DUP2 DUP6 DUP6 PUSH2 0xC06 JUMP JUMPDEST PUSH1 0x1 SWAP2 POP POP SWAP3 SWAP2 POP POP JUMP JUMPDEST PUSH1 0x7 SLOAD DUP2 JUMP JUMPDEST PUSH1 0x0 PUSH1 0x1 PUSH1 0x0 DUP5 PUSH20 0xFFFFFFFFFFFFFFFFFFFFFFFFFFFFFFFFFFFFFFFF AND PUSH20 0xFFFFFFFFFFFFFFFFFFFFFFFFFFFFFFFFFFFFFFFF AND DUP2 MSTORE PUSH1 0x20 ADD SWAP1 DUP2 MSTORE PUSH1 0x20 ADD PUSH1 0x0 KECCAK256 PUSH1 0x0 DUP4 PUSH20 0xFFFFFFFFFFFFFFFFFFFFFFFFFFFFFFFFFFFFFFFF AND PUSH20 0xFFFFFFFFFFFFFFFFFFFFFFFFFFFFFFFFFFFFFFFF AND DUP2 MSTORE PUSH1 0x20 ADD SWAP1 DUP2 MSTORE PUSH1 0x20 ADD PUSH1 0x0 KECCAK256 SLOAD SWAP1 POP SWAP3 SWAP2 POP POP JUMP JUMPDEST PUSH1 0x0 PUSH2 0x851 PUSH2 0x84C DUP6 DUP6 PUSH2 0x64B JUMP JUMPDEST PUSH2 0x5D3 JUMP JUMPDEST SWAP1 POP PUSH2 0x85D DUP2 DUP4 PUSH2 0x52F JUMP JUMPDEST PUSH2 0x89C JUMPI PUSH1 0x40 MLOAD PUSH32 0x8C379A000000000000000000000000000000000000000000000000000000000 DUP2 MSTORE PUSH1 0x4 ADD PUSH2 0x893 SWAP1 PUSH2 0x1B3A JUMP JUMPDEST PUSH1 0x40 MLOAD DUP1 SWAP2 SUB SWAP1 REVERT JUMPDEST PUSH1 0x6 PUSH1 0x0 CALLER PUSH20 0xFFFFFFFFFFFFFFFFFFFFFFFFFFFFFFFFFFFFFFFF AND PUSH20 0xFFFFFFFFFFFFFFFFFFFFFFFFFFFFFFFFFFFFFFFF AND DUP2 MSTORE PUSH1 0x20 ADD SWAP1 DUP2 MSTORE PUSH1 0x20 ADD PUSH1 0x0 KECCAK256 PUSH1 0x0 SWAP1 SLOAD SWAP1 PUSH2 0x100 EXP SWAP1 DIV PUSH1 0xFF AND ISZERO PUSH2 0x929 JUMPI PUSH1 0x40 MLOAD PUSH32 0x8C379A000000000000000000000000000000000000000000000000000000000 DUP2 MSTORE PUSH1 0x4 ADD PUSH2 0x920 SWAP1 PUSH2 0x1BA6 JUMP JUMPDEST PUSH1 0x40 MLOAD DUP1 SWAP2 SUB SWAP1 REVERT JUMPDEST PUSH1 0x1 PUSH1 0x6 PUSH1 0x0 CALLER PUSH20 0xFFFFFFFFFFFFFFFFFFFFFFFFFFFFFFFFFFFFFFFF AND PUSH20 0xFFFFFFFFFFFFFFFFFFFFFFFFFFFFFFFFFFFFFFFF AND DUP2 MSTORE PUSH1 0x20 ADD SWAP1 DUP2 MSTORE PUSH1 0x20 ADD PUSH1 0x0 KECCAK256 PUSH1 0x0 PUSH2 0x100 EXP DUP2 SLOAD DUP2 PUSH1 0xFF MUL NOT AND SWAP1 DUP4 ISZERO ISZERO MUL OR SWAP1 SSTORE POP PUSH2 0x98B DUP5 DUP5 PUSH2 0xEA3 JUMP JUMPDEST PUSH1 0x7 PUSH1 0x0 DUP2 SLOAD DUP1 SWAP3 SWAP2 SWAP1 PUSH2 0x99E SWAP1 PUSH2 0x1BC6 JUMP JUMPDEST SWAP2 SWAP1 POP SSTORE POP POP POP POP POP JUMP JUMPDEST PUSH1 0x0 CALLER SWAP1 POP SWAP1 JUMP JUMPDEST PUSH1 0x0 PUSH20 0xFFFFFFFFFFFFFFFFFFFFFFFFFFFFFFFFFFFFFFFF AND DUP4 PUSH20 0xFFFFFFFFFFFFFFFFFFFFFFFFFFFFFFFFFFFFFFFF AND SUB PUSH2 0xA20 JUMPI PUSH1 0x40 MLOAD PUSH32 0x8C379A000000000000000000000000000000000000000000000000000000000 DUP2 MSTORE PUSH1 0x4 ADD PUSH2 0xA17 SWAP1 PUSH2 0x1C80 JUMP JUMPDEST PUSH1 0x40 MLOAD DUP1 SWAP2 SUB SWAP1 REVERT JUMPDEST PUSH1 0x0 PUSH20 0xFFFFFFFFFFFFFFFFFFFFFFFFFFFFFFFFFFFFFFFF AND DUP3 PUSH20 0xFFFFFFFFFFFFFFFFFFFFFFFFFFFFFFFFFFFFFFFF AND SUB PUSH2 0xA8F JUMPI PUSH1 0x40 MLOAD PUSH32 0x8C379A000000000000000000000000000000000000000000000000000000000 DUP2 MSTORE PUSH1 0x4 ADD PUSH2 0xA86 SWAP1 PUSH2 0x1D12 JUMP JUMPDEST PUSH1 0x40 MLOAD DUP1 SWAP2 SUB SWAP1 REVERT JUMPDEST DUP1 PUSH1 0x1 PUSH1 0x0 DUP6 PUSH20 0xFFFFFFFFFFFFFFFFFFFFFFFFFFFFFFFFFFFFFFFF AND PUSH20 0xFFFFFFFFFFFFFFFFFFFFFFFFFFFFFFFFFFFFFFFF AND DUP2 MSTORE PUSH1 0x20 ADD SWAP1 DUP2 MSTORE PUSH1 0x20 ADD PUSH1 0x0 KECCAK256 PUSH1 0x0 DUP5 PUSH20 0xFFFFFFFFFFFFFFFFFFFFFFFFFFFFFFFFFFFFFFFF AND PUSH20 0xFFFFFFFFFFFFFFFFFFFFFFFFFFFFFFFFFFFFFFFF AND DUP2 MSTORE PUSH1 0x20 ADD SWAP1 DUP2 MSTORE PUSH1 0x20 ADD PUSH1 0x0 KECCAK256 DUP2 SWAP1 SSTORE POP DUP2 PUSH20 0xFFFFFFFFFFFFFFFFFFFFFFFFFFFFFFFFFFFFFFFF AND DUP4 PUSH20 0xFFFFFFFFFFFFFFFFFFFFFFFFFFFFFFFFFFFFFFFF AND PUSH32 0x8C5BE1E5EBEC7D5BD14F71427D1E84F3DD0314C0F7B2291E5B200AC8C7C3B925 DUP4 PUSH1 0x40 MLOAD PUSH2 0xB6D SWAP2 SWAP1 PUSH2 0x147B JUMP JUMPDEST PUSH1 0x40 MLOAD DUP1 SWAP2 SUB SWAP1 LOG3 POP POP POP JUMP JUMPDEST PUSH1 0x0 PUSH2 0xB86 DUP5 DUP5 PUSH2 0x7B6 JUMP JUMPDEST SWAP1 POP PUSH32 0xFFFFFFFFFFFFFFFFFFFFFFFFFFFFFFFFFFFFFFFFFFFFFFFFFFFFFFFFFFFFFFFF DUP2 EQ PUSH2 0xC00 JUMPI DUP2 DUP2 LT ISZERO PUSH2 0xBF2 JUMPI PUSH1 0x40 MLOAD PUSH32 0x8C379A000000000000000000000000000000000000000000000000000000000 DUP2 MSTORE PUSH1 0x4 ADD PUSH2 0xBE9 SWAP1 PUSH2 0x1D7E JUMP JUMPDEST PUSH1 0x40 MLOAD DUP1 SWAP2 SUB SWAP1 REVERT JUMPDEST PUSH2 0xBFF DUP5 DUP5 DUP5 DUP5 SUB PUSH2 0x9B1 JUMP JUMPDEST JUMPDEST POP POP POP POP JUMP JUMPDEST PUSH1 0x0 PUSH20 0xFFFFFFFFFFFFFFFFFFFFFFFFFFFFFFFFFFFFFFFF AND DUP4 PUSH20 0xFFFFFFFFFFFFFFFFFFFFFFFFFFFFFFFFFFFFFFFF AND SUB PUSH2 0xC75 JUMPI PUSH1 0x40 MLOAD PUSH32 0x8C379A000000000000000000000000000000000000000000000000000000000 DUP2 MSTORE PUSH1 0x4 ADD PUSH2 0xC6C SWAP1 PUSH2 0x1E10 JUMP JUMPDEST PUSH1 0x40 MLOAD DUP1 SWAP2 SUB SWAP1 REVERT JUMPDEST PUSH1 0x0 PUSH20 0xFFFFFFFFFFFFFFFFFFFFFFFFFFFFFFFFFFFFFFFF AND DUP3 PUSH20 0xFFFFFFFFFFFFFFFFFFFFFFFFFFFFFFFFFFFFFFFF AND SUB PUSH2 0xCE4 JUMPI PUSH1 0x40 MLOAD PUSH32 0x8C379A000000000000000000000000000000000000000000000000000000000 DUP2 MSTORE PUSH1 0x4 ADD PUSH2 0xCDB SWAP1 PUSH2 0x1EA2 JUMP JUMPDEST PUSH1 0x40 MLOAD DUP1 SWAP2 SUB SWAP1 REVERT JUMPDEST PUSH2 0xCEF DUP4 DUP4 DUP4 PUSH2 0xFF9 JUMP JUMPDEST PUSH1 0x0 DUP1 PUSH1 0x0 DUP6 PUSH20 0xFFFFFFFFFFFFFFFFFFFFFFFFFFFFFFFFFFFFFFFF AND PUSH20 0xFFFFFFFFFFFFFFFFFFFFFFFFFFFFFFFFFFFFFFFF AND DUP2 MSTORE PUSH1 0x20 ADD SWAP1 DUP2 MSTORE PUSH1 0x20 ADD PUSH1 0x0 KECCAK256 SLOAD SWAP1 POP DUP2 DUP2 LT ISZERO PUSH2 0xD75 JUMPI PUSH1 0x40 MLOAD PUSH32 0x8C379A000000000000000000000000000000000000000000000000000000000 DUP2 MSTORE PUSH1 0x4 ADD PUSH2 0xD6C SWAP1 PUSH2 0x1F34 JUMP JUMPDEST PUSH1 0x40 MLOAD DUP1 SWAP2 SUB SWAP1 REVERT JUMPDEST DUP2 DUP2 SUB PUSH1 0x0 DUP1 DUP7 PUSH20 0xFFFFFFFFFFFFFFFFFFFFFFFFFFFFFFFFFFFFFFFF AND PUSH20 0xFFFFFFFFFFFFFFFFFFFFFFFFFFFFFFFFFFFFFFFF AND DUP2 MSTORE PUSH1 0x20 ADD SWAP1 DUP2 MSTORE PUSH1 0x20 ADD PUSH1 0x0 KECCAK256 DUP2 SWAP1 SSTORE POP DUP2 PUSH1 0x0 DUP1 DUP6 PUSH20 0xFFFFFFFFFFFFFFFFFFFFFFFFFFFFFFFFFFFFFFFF AND PUSH20 0xFFFFFFFFFFFFFFFFFFFFFFFFFFFFFFFFFFFFFFFF AND DUP2 MSTORE PUSH1 0x20 ADD SWAP1 DUP2 MSTORE PUSH1 0x20 ADD PUSH1 0x0 KECCAK256 PUSH1 0x0 DUP3 DUP3 SLOAD ADD SWAP3 POP POP DUP2 SWAP1 SSTORE POP DUP3 PUSH20 0xFFFFFFFFFFFFFFFFFFFFFFFFFFFFFFFFFFFFFFFF AND DUP5 PUSH20 0xFFFFFFFFFFFFFFFFFFFFFFFFFFFFFFFFFFFFFFFF AND PUSH32 0xDDF252AD1BE2C89B69C2B068FC378DAA952BA7F163C4A11628F55A4DF523B3EF DUP5 PUSH1 0x40 MLOAD PUSH2 0xE63 SWAP2 SWAP1 PUSH2 0x147B JUMP JUMPDEST PUSH1 0x40 MLOAD DUP1 SWAP2 SUB SWAP1 LOG3 PUSH2 0xE76 DUP5 DUP5 DUP5 PUSH2 0xFFE JUMP JUMPDEST POP POP POP POP JUMP JUMPDEST PUSH1 0x0 DUP1 PUSH1 0x0 PUSH2 0xE8B DUP6 DUP6 PUSH2 0x1003 JUMP JUMPDEST SWAP2 POP SWAP2 POP PUSH2 0xE98 DUP2 PUSH2 0x1054 JUMP JUMPDEST DUP2 SWAP3 POP POP POP SWAP3 SWAP2 POP POP JUMP JUMPDEST PUSH1 0x0 PUSH20 0xFFFFFFFFFFFFFFFFFFFFFFFFFFFFFFFFFFFFFFFF AND DUP3 PUSH20 0xFFFFFFFFFFFFFFFFFFFFFFFFFFFFFFFFFFFFFFFF AND SUB PUSH2 0xF12 JUMPI PUSH1 0x40 MLOAD PUSH32 0x8C379A000000000000000000000000000000000000000000000000000000000 DUP2 MSTORE PUSH1 0x4 ADD PUSH2 0xF09 SWAP1 PUSH2 0x1FA0 JUMP JUMPDEST PUSH1 0x40 MLOAD DUP1 SWAP2 SUB SWAP1 REVERT JUMPDEST PUSH2 0xF1E PUSH1 0x0 DUP4 DUP4 PUSH2 0xFF9 JUMP JUMPDEST DUP1 PUSH1 0x2 PUSH1 0x0 DUP3 DUP3 SLOAD PUSH2 0xF30 SWAP2 SWAP1 PUSH2 0x18D3 JUMP JUMPDEST SWAP3 POP POP DUP2 SWAP1 SSTORE POP DUP1 PUSH1 0x0 DUP1 DUP5 PUSH20 0xFFFFFFFFFFFFFFFFFFFFFFFFFFFFFFFFFFFFFFFF AND PUSH20 0xFFFFFFFFFFFFFFFFFFFFFFFFFFFFFFFFFFFFFFFF AND DUP2 MSTORE PUSH1 0x20 ADD SWAP1 DUP2 MSTORE PUSH1 0x20 ADD PUSH1 0x0 KECCAK256 PUSH1 0x0 DUP3 DUP3 SLOAD ADD SWAP3 POP POP DUP2 SWAP1 SSTORE POP DUP2 PUSH20 0xFFFFFFFFFFFFFFFFFFFFFFFFFFFFFFFFFFFFFFFF AND PUSH1 0x0 PUSH20 0xFFFFFFFFFFFFFFFFFFFFFFFFFFFFFFFFFFFFFFFF AND PUSH32 0xDDF252AD1BE2C89B69C2B068FC378DAA952BA7F163C4A11628F55A4DF523B3EF DUP4 PUSH1 0x40 MLOAD PUSH2 0xFE1 SWAP2 SWAP1 PUSH2 0x147B JUMP JUMPDEST PUSH1 0x40 MLOAD DUP1 SWAP2 SUB SWAP1 LOG3 PUSH2 0xFF5 PUSH1 0x0 DUP4 DUP4 PUSH2 0xFFE JUMP JUMPDEST POP POP JUMP JUMPDEST POP POP POP JUMP JUMPDEST POP POP POP JUMP JUMPDEST PUSH1 0x0 DUP1 PUSH1 0x41 DUP4 MLOAD SUB PUSH2 0x1044 JUMPI PUSH1 0x0 DUP1 PUSH1 0x0 PUSH1 0x20 DUP7 ADD MLOAD SWAP3 POP PUSH1 0x40 DUP7 ADD MLOAD SWAP2 POP PUSH1 0x60 DUP7 ADD MLOAD PUSH1 0x0 BYTE SWAP1 POP PUSH2 0x1038 DUP8 DUP3 DUP6 DUP6 PUSH2 0x11BA JUMP JUMPDEST SWAP5 POP SWAP5 POP POP POP POP PUSH2 0x104D JUMP JUMPDEST PUSH1 0x0 PUSH1 0x2 SWAP2 POP SWAP2 POP JUMPDEST SWAP3 POP SWAP3 SWAP1 POP JUMP JUMPDEST PUSH1 0x0 PUSH1 0x4 DUP2 GT ISZERO PUSH2 0x1068 JUMPI PUSH2 0x1067 PUSH2 0x1FC0 JUMP JUMPDEST JUMPDEST DUP2 PUSH1 0x4 DUP2 GT ISZERO PUSH2 0x107B JUMPI PUSH2 0x107A PUSH2 0x1FC0 JUMP JUMPDEST JUMPDEST SUB ISZERO PUSH2 0x11B7 JUMPI PUSH1 0x1 PUSH1 0x4 DUP2 GT ISZERO PUSH2 0x1095 JUMPI PUSH2 0x1094 PUSH2 0x1FC0 JUMP JUMPDEST JUMPDEST DUP2 PUSH1 0x4 DUP2 GT ISZERO PUSH2 0x10A8 JUMPI PUSH2 0x10A7 PUSH2 0x1FC0 JUMP JUMPDEST JUMPDEST SUB PUSH2 0x10E8 JUMPI PUSH1 0x40 MLOAD PUSH32 0x8C379A000000000000000000000000000000000000000000000000000000000 DUP2 MSTORE PUSH1 0x4 ADD PUSH2 0x10DF SWAP1 PUSH2 0x203B JUMP JUMPDEST PUSH1 0x40 MLOAD DUP1 SWAP2 SUB SWAP1 REVERT JUMPDEST PUSH1 0x2 PUSH1 0x4 DUP2 GT ISZERO PUSH2 0x10FC JUMPI PUSH2 0x10FB PUSH2 0x1FC0 JUMP JUMPDEST JUMPDEST DUP2 PUSH1 0x4 DUP2 GT ISZERO PUSH2 0x110F JUMPI PUSH2 0x110E PUSH2 0x1FC0 JUMP JUMPDEST JUMPDEST SUB PUSH2 0x114F JUMPI PUSH1 0x40 MLOAD PUSH32 0x8C379A000000000000000000000000000000000000000000000000000000000 DUP2 MSTORE PUSH1 0x4 ADD PUSH2 0x1146 SWAP1 PUSH2 0x20A7 JUMP JUMPDEST PUSH1 0x40 MLOAD DUP1 SWAP2 SUB SWAP1 REVERT JUMPDEST PUSH1 0x3 PUSH1 0x4 DUP2 GT ISZERO PUSH2 0x1163 JUMPI PUSH2 0x1162 PUSH2 0x1FC0 JUMP JUMPDEST JUMPDEST DUP2 PUSH1 0x4 DUP2 GT ISZERO PUSH2 0x1176 JUMPI PUSH2 0x1175 PUSH2 0x1FC0 JUMP JUMPDEST JUMPDEST SUB PUSH2 0x11B6 JUMPI PUSH1 0x40 MLOAD PUSH32 0x8C379A000000000000000000000000000000000000000000000000000000000 DUP2 MSTORE PUSH1 0x4 ADD PUSH2 0x11AD SWAP1 PUSH2 0x2139 JUMP JUMPDEST PUSH1 0x40 MLOAD DUP1 SWAP2 SUB SWAP1 REVERT JUMPDEST JUMPDEST POP JUMP JUMPDEST PUSH1 0x0 DUP1 PUSH32 0x7FFFFFFFFFFFFFFFFFFFFFFFFFFFFFFF5D576E7357A4501DDFE92F46681B20A0 DUP4 PUSH1 0x0 SHR GT ISZERO PUSH2 0x11F5 JUMPI PUSH1 0x0 PUSH1 0x3 SWAP2 POP SWAP2 POP PUSH2 0x1293 JUMP JUMPDEST PUSH1 0x0 PUSH1 0x1 DUP8 DUP8 DUP8 DUP8 PUSH1 0x40 MLOAD PUSH1 0x0 DUP2 MSTORE PUSH1 0x20 ADD PUSH1 0x40 MSTORE PUSH1 0x40 MLOAD PUSH2 0x121A SWAP5 SWAP4 SWAP3 SWAP2 SWAP1 PUSH2 0x2159 JUMP JUMPDEST PUSH1 0x20 PUSH1 0x40 MLOAD PUSH1 0x20 DUP2 SUB SWAP1 DUP1 DUP5 SUB SWAP1 DUP6 GAS STATICCALL ISZERO DUP1 ISZERO PUSH2 0x123C JUMPI RETURNDATASIZE PUSH1 0x0 DUP1 RETURNDATACOPY RETURNDATASIZE PUSH1 0x0 REVERT JUMPDEST POP POP POP PUSH1 0x20 PUSH1 0x40 MLOAD SUB MLOAD SWAP1 POP PUSH1 0x0 PUSH20 0xFFFFFFFFFFFFFFFFFFFFFFFFFFFFFFFFFFFFFFFF AND DUP2 PUSH20 0xFFFFFFFFFFFFFFFFFFFFFFFFFFFFFFFFFFFFFFFF AND SUB PUSH2 0x128A JUMPI PUSH1 0x0 PUSH1 0x1 SWAP3 POP SWAP3 POP POP PUSH2 0x1293 JUMP JUMPDEST DUP1 PUSH1 0x0 SWAP3 POP SWAP3 POP POP JUMPDEST SWAP5 POP SWAP5 SWAP3 POP POP POP JUMP JUMPDEST PUSH1 0x0 DUP2 MLOAD SWAP1 POP SWAP2 SWAP1 POP JUMP JUMPDEST PUSH1 0x0 DUP3 DUP3 MSTORE PUSH1 0x20 DUP3 ADD SWAP1 POP SWAP3 SWAP2 POP POP JUMP JUMPDEST PUSH1 0x0 JUMPDEST DUP4 DUP2 LT ISZERO PUSH2 0x12D6 JUMPI DUP1 DUP3 ADD MLOAD DUP2 DUP5 ADD MSTORE PUSH1 0x20 DUP2 ADD SWAP1 POP PUSH2 0x12BB JUMP JUMPDEST PUSH1 0x0 DUP5 DUP5 ADD MSTORE POP POP POP POP JUMP JUMPDEST PUSH1 0x0 PUSH1 0x1F NOT PUSH1 0x1F DUP4 ADD AND SWAP1 POP SWAP2 SWAP1 POP JUMP JUMPDEST PUSH1 0x0 PUSH2 0x12FE DUP3 PUSH2 0x129C JUMP JUMPDEST PUSH2 0x1308 DUP2 DUP6 PUSH2 0x12A7 JUMP JUMPDEST SWAP4 POP PUSH2 0x1318 DUP2 DUP6 PUSH1 0x20 DUP7 ADD PUSH2 0x12B8 JUMP JUMPDEST PUSH2 0x1321 DUP2 PUSH2 0x12E2 JUMP JUMPDEST DUP5 ADD SWAP2 POP POP SWAP3 SWAP2 POP POP JUMP JUMPDEST PUSH1 0x0 PUSH1 0x20 DUP3 ADD SWAP1 POP DUP2 DUP2 SUB PUSH1 0x0 DUP4 ADD MSTORE PUSH2 0x1346 DUP2 DUP5 PUSH2 0x12F3 JUMP JUMPDEST SWAP1 POP SWAP3 SWAP2 POP POP JUMP JUMPDEST PUSH1 0x0 PUSH1 0x40 MLOAD SWAP1 POP SWAP1 JUMP JUMPDEST PUSH1 0x0 DUP1 REVERT JUMPDEST PUSH1 0x0 DUP1 REVERT JUMPDEST PUSH1 0x0 PUSH20 0xFFFFFFFFFFFFFFFFFFFFFFFFFFFFFFFFFFFFFFFF DUP3 AND SWAP1 POP SWAP2 SWAP1 POP JUMP JUMPDEST PUSH1 0x0 PUSH2 0x138D DUP3 PUSH2 0x1362 JUMP JUMPDEST SWAP1 POP SWAP2 SWAP1 POP JUMP JUMPDEST PUSH2 0x139D DUP2 PUSH2 0x1382 JUMP JUMPDEST DUP2 EQ PUSH2 0x13A8 JUMPI PUSH1 0x0 DUP1 REVERT JUMPDEST POP JUMP JUMPDEST PUSH1 0x0 DUP2 CALLDATALOAD SWAP1 POP PUSH2 0x13BA DUP2 PUSH2 0x1394 JUMP JUMPDEST SWAP3 SWAP2 POP POP JUMP JUMPDEST PUSH1 0x0 DUP2 SWAP1 POP SWAP2 SWAP1 POP JUMP JUMPDEST PUSH2 0x13D3 DUP2 PUSH2 0x13C0 JUMP JUMPDEST DUP2 EQ PUSH2 0x13DE JUMPI PUSH1 0x0 DUP1 REVERT JUMPDEST POP JUMP JUMPDEST PUSH1 0x0 DUP2 CALLDATALOAD SWAP1 POP PUSH2 0x13F0 DUP2 PUSH2 0x13CA JUMP JUMPDEST SWAP3 SWAP2 POP POP JUMP JUMPDEST PUSH1 0x0 DUP1 PUSH1 0x40 DUP4 DUP6 SUB SLT ISZERO PUSH2 0x140D JUMPI PUSH2 0x140C PUSH2 0x1358 JUMP JUMPDEST JUMPDEST PUSH1 0x0 PUSH2 0x141B DUP6 DUP3 DUP7 ADD PUSH2 0x13AB JUMP JUMPDEST SWAP3 POP POP PUSH1 0x20 PUSH2 0x142C DUP6 DUP3 DUP7 ADD PUSH2 0x13E1 JUMP JUMPDEST SWAP2 POP POP SWAP3 POP SWAP3 SWAP1 POP JUMP JUMPDEST PUSH1 0x0 DUP2 ISZERO ISZERO SWAP1 POP SWAP2 SWAP1 POP JUMP JUMPDEST PUSH2 0x144B DUP2 PUSH2 0x1436 JUMP JUMPDEST DUP3 MSTORE POP POP JUMP JUMPDEST PUSH1 0x0 PUSH1 0x20 DUP3 ADD SWAP1 POP PUSH2 0x1466 PUSH1 0x0 DUP4 ADD DUP5 PUSH2 0x1442 JUMP JUMPDEST SWAP3 SWAP2 POP POP JUMP JUMPDEST PUSH2 0x1475 DUP2 PUSH2 0x13C0 JUMP JUMPDEST DUP3 MSTORE POP POP JUMP JUMPDEST PUSH1 0x0 PUSH1 0x20 DUP3 ADD SWAP1 POP PUSH2 0x1490 PUSH1 0x0 DUP4 ADD DUP5 PUSH2 0x146C JUMP JUMPDEST SWAP3 SWAP2 POP POP JUMP JUMPDEST PUSH1 0x0 PUSH1 0x20 DUP3 DUP5 SUB SLT ISZERO PUSH2 0x14AC JUMPI PUSH2 0x14AB PUSH2 0x1358 JUMP JUMPDEST JUMPDEST PUSH1 0x0 PUSH2 0x14BA DUP5 DUP3 DUP6 ADD PUSH2 0x13AB JUMP JUMPDEST SWAP2 POP POP SWAP3 SWAP2 POP POP JUMP JUMPDEST PUSH2 0x14CC DUP2 PUSH2 0x1382 JUMP JUMPDEST DUP3 MSTORE POP POP JUMP JUMPDEST PUSH1 0x0 PUSH1 0x20 DUP3 ADD SWAP1 POP PUSH2 0x14E7 PUSH1 0x0 DUP4 ADD DUP5 PUSH2 0x14C3 JUMP JUMPDEST SWAP3 SWAP2 POP POP JUMP JUMPDEST PUSH1 0x0 DUP1 PUSH1 0x0 PUSH1 0x60 DUP5 DUP7 SUB SLT ISZERO PUSH2 0x1506 JUMPI PUSH2 0x1505 PUSH2 0x1358 JUMP JUMPDEST JUMPDEST PUSH1 0x0 PUSH2 0x1514 DUP7 DUP3 DUP8 ADD PUSH2 0x13AB JUMP JUMPDEST SWAP4 POP POP PUSH1 0x20 PUSH2 0x1525 DUP7 DUP3 DUP8 ADD PUSH2 0x13AB JUMP JUMPDEST SWAP3 POP POP PUSH1 0x40 PUSH2 0x1536 DUP7 DUP3 DUP8 ADD PUSH2 0x13E1 JUMP JUMPDEST SWAP2 POP POP SWAP3 POP SWAP3 POP SWAP3 JUMP JUMPDEST PUSH1 0x0 DUP2 SWAP1 POP SWAP2 SWAP1 POP JUMP JUMPDEST PUSH2 0x1553 DUP2 PUSH2 0x1540 JUMP JUMPDEST DUP2 EQ PUSH2 0x155E JUMPI PUSH1 0x0 DUP1 REVERT JUMPDEST POP JUMP JUMPDEST PUSH1 0x0 DUP2 CALLDATALOAD SWAP1 POP PUSH2 0x1570 DUP2 PUSH2 0x154A JUMP JUMPDEST SWAP3 SWAP2 POP POP JUMP JUMPDEST PUSH1 0x0 DUP1 REVERT JUMPDEST PUSH1 0x0 DUP1 REVERT JUMPDEST PUSH32 0x4E487B7100000000000000000000000000000000000000000000000000000000 PUSH1 0x0 MSTORE PUSH1 0x41 PUSH1 0x4 MSTORE PUSH1 0x24 PUSH1 0x0 REVERT JUMPDEST PUSH2 0x15B8 DUP3 PUSH2 0x12E2 JUMP JUMPDEST DUP2 ADD DUP2 DUP2 LT PUSH8 0xFFFFFFFFFFFFFFFF DUP3 GT OR ISZERO PUSH2 0x15D7 JUMPI PUSH2 0x15D6 PUSH2 0x1580 JUMP JUMPDEST JUMPDEST DUP1 PUSH1 0x40 MSTORE POP POP POP JUMP JUMPDEST PUSH1 0x0 PUSH2 0x15EA PUSH2 0x134E JUMP JUMPDEST SWAP1 POP PUSH2 0x15F6 DUP3 DUP3 PUSH2 0x15AF JUMP JUMPDEST SWAP2 SWAP1 POP JUMP JUMPDEST PUSH1 0x0 PUSH8 0xFFFFFFFFFFFFFFFF DUP3 GT ISZERO PUSH2 0x1616 JUMPI PUSH2 0x1615 PUSH2 0x1580 JUMP JUMPDEST JUMPDEST PUSH2 0x161F DUP3 PUSH2 0x12E2 JUMP JUMPDEST SWAP1 POP PUSH1 0x20 DUP2 ADD SWAP1 POP SWAP2 SWAP1 POP JUMP JUMPDEST DUP3 DUP2 DUP4 CALLDATACOPY PUSH1 0x0 DUP4 DUP4 ADD MSTORE POP POP POP JUMP JUMPDEST PUSH1 0x0 PUSH2 0x164E PUSH2 0x1649 DUP5 PUSH2 0x15FB JUMP JUMPDEST PUSH2 0x15E0 JUMP JUMPDEST SWAP1 POP DUP3 DUP2 MSTORE PUSH1 0x20 DUP2 ADD DUP5 DUP5 DUP5 ADD GT ISZERO PUSH2 0x166A JUMPI PUSH2 0x1669 PUSH2 0x157B JUMP JUMPDEST JUMPDEST PUSH2 0x1675 DUP5 DUP3 DUP6 PUSH2 0x162C JUMP JUMPDEST POP SWAP4 SWAP3 POP POP POP JUMP JUMPDEST PUSH1 0x0 DUP3 PUSH1 0x1F DUP4 ADD SLT PUSH2 0x1692 JUMPI PUSH2 0x1691 PUSH2 0x1576 JUMP JUMPDEST JUMPDEST DUP2 CALLDATALOAD PUSH2 0x16A2 DUP5 DUP3 PUSH1 0x20 DUP7 ADD PUSH2 0x163B JUMP JUMPDEST SWAP2 POP POP SWAP3 SWAP2 POP POP JUMP JUMPDEST PUSH1 0x0 DUP1 PUSH1 0x40 DUP4 DUP6 SUB SLT ISZERO PUSH2 0x16C2 JUMPI PUSH2 0x16C1 PUSH2 0x1358 JUMP JUMPDEST JUMPDEST PUSH1 0x0 PUSH2 0x16D0 DUP6 DUP3 DUP7 ADD PUSH2 0x1561 JUMP JUMPDEST SWAP3 POP POP PUSH1 0x20 DUP4 ADD CALLDATALOAD PUSH8 0xFFFFFFFFFFFFFFFF DUP2 GT ISZERO PUSH2 0x16F1 JUMPI PUSH2 0x16F0 PUSH2 0x135D JUMP JUMPDEST JUMPDEST PUSH2 0x16FD DUP6 DUP3 DUP7 ADD PUSH2 0x167D JUMP JUMPDEST SWAP2 POP POP SWAP3 POP SWAP3 SWAP1 POP JUMP JUMPDEST PUSH1 0x0 PUSH1 0xFF DUP3 AND SWAP1 POP SWAP2 SWAP1 POP JUMP JUMPDEST PUSH2 0x171D DUP2 PUSH2 0x1707 JUMP JUMPDEST DUP3 MSTORE POP POP JUMP JUMPDEST PUSH1 0x0 PUSH1 0x20 DUP3 ADD SWAP1 POP PUSH2 0x1738 PUSH1 0x0 DUP4 ADD DUP5 PUSH2 0x1714 JUMP JUMPDEST SWAP3 SWAP2 POP POP JUMP JUMPDEST PUSH1 0x0 PUSH1 0x20 DUP3 DUP5 SUB SLT ISZERO PUSH2 0x1754 JUMPI PUSH2 0x1753 PUSH2 0x1358 JUMP JUMPDEST JUMPDEST PUSH1 0x0 PUSH2 0x1762 DUP5 DUP3 DUP6 ADD PUSH2 0x1561 JUMP JUMPDEST SWAP2 POP POP SWAP3 SWAP2 POP POP JUMP JUMPDEST PUSH2 0x1774 DUP2 PUSH2 0x1540 JUMP JUMPDEST DUP3 MSTORE POP POP JUMP JUMPDEST PUSH1 0x0 PUSH1 0x20 DUP3 ADD SWAP1 POP PUSH2 0x178F PUSH1 0x0 DUP4 ADD DUP5 PUSH2 0x176B JUMP JUMPDEST SWAP3 SWAP2 POP POP JUMP JUMPDEST PUSH1 0x0 DUP1 PUSH1 0x40 DUP4 DUP6 SUB SLT ISZERO PUSH2 0x17AC JUMPI PUSH2 0x17AB PUSH2 0x1358 JUMP JUMPDEST JUMPDEST PUSH1 0x0 PUSH2 0x17BA DUP6 DUP3 DUP7 ADD PUSH2 0x13AB JUMP JUMPDEST SWAP3 POP POP PUSH1 0x20 PUSH2 0x17CB DUP6 DUP3 DUP7 ADD PUSH2 0x13AB JUMP JUMPDEST SWAP2 POP POP SWAP3 POP SWAP3 SWAP1 POP JUMP JUMPDEST PUSH1 0x0 DUP1 PUSH1 0x0 PUSH1 0x60 DUP5 DUP7 SUB SLT ISZERO PUSH2 0x17EE JUMPI PUSH2 0x17ED PUSH2 0x1358 JUMP JUMPDEST JUMPDEST PUSH1 0x0 PUSH2 0x17FC DUP7 DUP3 DUP8 ADD PUSH2 0x13AB JUMP JUMPDEST SWAP4 POP POP PUSH1 0x20 PUSH2 0x180D DUP7 DUP3 DUP8 ADD PUSH2 0x13E1 JUMP JUMPDEST SWAP3 POP POP PUSH1 0x40 DUP5 ADD CALLDATALOAD PUSH8 0xFFFFFFFFFFFFFFFF DUP2 GT ISZERO PUSH2 0x182E JUMPI PUSH2 0x182D PUSH2 0x135D JUMP JUMPDEST JUMPDEST PUSH2 0x183A DUP7 DUP3 DUP8 ADD PUSH2 0x167D JUMP JUMPDEST SWAP2 POP POP SWAP3 POP SWAP3 POP SWAP3 JUMP JUMPDEST PUSH32 0x4E487B7100000000000000000000000000000000000000000000000000000000 PUSH1 0x0 MSTORE PUSH1 0x22 PUSH1 0x4 MSTORE PUSH1 0x24 PUSH1 0x0 REVERT JUMPDEST PUSH1 0x0 PUSH1 0x2 DUP3 DIV SWAP1 POP PUSH1 0x1 DUP3 AND DUP1 PUSH2 0x188B JUMPI PUSH1 0x7F DUP3 AND SWAP2 POP JUMPDEST PUSH1 0x20 DUP3 LT DUP2 SUB PUSH2 0x189E JUMPI PUSH2 0x189D PUSH2 0x1844 JUMP JUMPDEST JUMPDEST POP SWAP2 SWAP1 POP JUMP JUMPDEST PUSH32 0x4E487B7100000000000000000000000000000000000000000000000000000000 PUSH1 0x0 MSTORE PUSH1 0x11 PUSH1 0x4 MSTORE PUSH1 0x24 PUSH1 0x0 REVERT JUMPDEST PUSH1 0x0 PUSH2 0x18DE DUP3 PUSH2 0x13C0 JUMP JUMPDEST SWAP2 POP PUSH2 0x18E9 DUP4 PUSH2 0x13C0 JUMP JUMPDEST SWAP3 POP DUP3 DUP3 ADD SWAP1 POP DUP1 DUP3 GT ISZERO PUSH2 0x1901 JUMPI PUSH2 0x1900 PUSH2 0x18A4 JUMP JUMPDEST JUMPDEST SWAP3 SWAP2 POP POP JUMP JUMPDEST PUSH1 0x0 DUP2 SWAP1 POP SWAP3 SWAP2 POP POP JUMP JUMPDEST PUSH32 0x19457468657265756D205369676E6564204D6573736167653A0A333200000000 PUSH1 0x0 DUP3 ADD MSTORE POP JUMP JUMPDEST PUSH1 0x0 PUSH2 0x1948 PUSH1 0x1C DUP4 PUSH2 0x1907 JUMP JUMPDEST SWAP2 POP PUSH2 0x1953 DUP3 PUSH2 0x1912 JUMP JUMPDEST PUSH1 0x1C DUP3 ADD SWAP1 POP SWAP2 SWAP1 POP JUMP JUMPDEST PUSH1 0x0 DUP2 SWAP1 POP SWAP2 SWAP1 POP JUMP JUMPDEST PUSH2 0x1979 PUSH2 0x1974 DUP3 PUSH2 0x1540 JUMP JUMPDEST PUSH2 0x195E JUMP JUMPDEST DUP3 MSTORE POP POP JUMP JUMPDEST PUSH1 0x0 PUSH2 0x198A DUP3 PUSH2 0x193B JUMP JUMPDEST SWAP2 POP PUSH2 0x1996 DUP3 DUP5 PUSH2 0x1968 JUMP JUMPDEST PUSH1 0x20 DUP3 ADD SWAP2 POP DUP2 SWAP1 POP SWAP3 SWAP2 POP POP JUMP JUMPDEST PUSH1 0x0 DUP2 PUSH1 0x60 SHL SWAP1 POP SWAP2 SWAP1 POP JUMP JUMPDEST PUSH1 0x0 PUSH2 0x19BD DUP3 PUSH2 0x19A5 JUMP JUMPDEST SWAP1 POP SWAP2 SWAP1 POP JUMP JUMPDEST PUSH1 0x0 PUSH2 0x19CF DUP3 PUSH2 0x19B2 JUMP JUMPDEST SWAP1 POP SWAP2 SWAP1 POP JUMP JUMPDEST PUSH2 0x19E7 PUSH2 0x19E2 DUP3 PUSH2 0x1382 JUMP JUMPDEST PUSH2 0x19C4 JUMP JUMPDEST DUP3 MSTORE POP POP JUMP JUMPDEST PUSH1 0x0 DUP2 SWAP1 POP SWAP2 SWAP1 POP JUMP JUMPDEST PUSH2 0x1A08 PUSH2 0x1A03 DUP3 PUSH2 0x13C0 JUMP JUMPDEST PUSH2 0x19ED JUMP JUMPDEST DUP3 MSTORE POP POP JUMP JUMPDEST PUSH1 0x0 PUSH2 0x1A1A DUP3 DUP8 PUSH2 0x19D6 JUMP JUMPDEST PUSH1 0x14 DUP3 ADD SWAP2 POP PUSH2 0x1A2A DUP3 DUP7 PUSH2 0x19F7 JUMP JUMPDEST PUSH1 0x20 DUP3 ADD SWAP2 POP PUSH2 0x1A3A DUP3 DUP6 PUSH2 0x19F7 JUMP JUMPDEST PUSH1 0x20 DUP3 ADD SWAP2 POP PUSH2 0x1A4A DUP3 DUP5 PUSH2 0x19F7 JUMP JUMPDEST PUSH1 0x20 DUP3 ADD SWAP2 POP DUP2 SWAP1 POP SWAP6 SWAP5 POP POP POP POP POP JUMP JUMPDEST PUSH32 0x45524332303A2064656372656173656420616C6C6F77616E63652062656C6F77 PUSH1 0x0 DUP3 ADD MSTORE PUSH32 0x207A65726F000000000000000000000000000000000000000000000000000000 PUSH1 0x20 DUP3 ADD MSTORE POP JUMP JUMPDEST PUSH1 0x0 PUSH2 0x1AB8 PUSH1 0x25 DUP4 PUSH2 0x12A7 JUMP JUMPDEST SWAP2 POP PUSH2 0x1AC3 DUP3 PUSH2 0x1A5C JUMP JUMPDEST PUSH1 0x40 DUP3 ADD SWAP1 POP SWAP2 SWAP1 POP JUMP JUMPDEST PUSH1 0x0 PUSH1 0x20 DUP3 ADD SWAP1 POP DUP2 DUP2 SUB PUSH1 0x0 DUP4 ADD MSTORE PUSH2 0x1AE7 DUP2 PUSH2 0x1AAB JUMP JUMPDEST SWAP1 POP SWAP2 SWAP1 POP JUMP JUMPDEST PUSH32 0x6572726F722D2D2D626164207369670000000000000000000000000000000000 PUSH1 0x0 DUP3 ADD MSTORE POP JUMP JUMPDEST PUSH1 0x0 PUSH2 0x1B24 PUSH1 0xF DUP4 PUSH2 0x12A7 JUMP JUMPDEST SWAP2 POP PUSH2 0x1B2F DUP3 PUSH2 0x1AEE JUMP JUMPDEST PUSH1 0x20 DUP3 ADD SWAP1 POP SWAP2 SWAP1 POP JUMP JUMPDEST PUSH1 0x0 PUSH1 0x20 DUP3 ADD SWAP1 POP DUP2 DUP2 SUB PUSH1 0x0 DUP4 ADD MSTORE PUSH2 0x1B53 DUP2 PUSH2 0x1B17 JUMP JUMPDEST SWAP1 POP SWAP2 SWAP1 POP JUMP JUMPDEST PUSH32 0x6572726F722D2D2D6D696E746564000000000000000000000000000000000000 PUSH1 0x0 DUP3 ADD MSTORE POP JUMP JUMPDEST PUSH1 0x0 PUSH2 0x1B90 PUSH1 0xE DUP4 PUSH2 0x12A7 JUMP JUMPDEST SWAP2 POP PUSH2 0x1B9B DUP3 PUSH2 0x1B5A JUMP JUMPDEST PUSH1 0x20 DUP3 ADD SWAP1 POP SWAP2 SWAP1 POP JUMP JUMPDEST PUSH1 0x0 PUSH1 0x20 DUP3 ADD SWAP1 POP DUP2 DUP2 SUB PUSH1 0x0 DUP4 ADD MSTORE PUSH2 0x1BBF DUP2 PUSH2 0x1B83 JUMP JUMPDEST SWAP1 POP SWAP2 SWAP1 POP JUMP JUMPDEST PUSH1 0x0 PUSH2 0x1BD1 DUP3 PUSH2 0x13C0 JUMP JUMPDEST SWAP2 POP PUSH32 0xFFFFFFFFFFFFFFFFFFFFFFFFFFFFFFFFFFFFFFFFFFFFFFFFFFFFFFFFFFFFFFFF DUP3 SUB PUSH2 0x1C03 JUMPI PUSH2 0x1C02 PUSH2 0x18A4 JUMP JUMPDEST JUMPDEST PUSH1 0x1 DUP3 ADD SWAP1 POP SWAP2 SWAP1 POP JUMP JUMPDEST PUSH32 0x45524332303A20617070726F76652066726F6D20746865207A65726F20616464 PUSH1 0x0 DUP3 ADD MSTORE PUSH32 0x7265737300000000000000000000000000000000000000000000000000000000 PUSH1 0x20 DUP3 ADD MSTORE POP JUMP JUMPDEST PUSH1 0x0 PUSH2 0x1C6A PUSH1 0x24 DUP4 PUSH2 0x12A7 JUMP JUMPDEST SWAP2 POP PUSH2 0x1C75 DUP3 PUSH2 0x1C0E JUMP JUMPDEST PUSH1 0x40 DUP3 ADD SWAP1 POP SWAP2 SWAP1 POP JUMP JUMPDEST PUSH1 0x0 PUSH1 0x20 DUP3 ADD SWAP1 POP DUP2 DUP2 SUB PUSH1 0x0 DUP4 ADD MSTORE PUSH2 0x1C99 DUP2 PUSH2 0x1C5D JUMP JUMPDEST SWAP1 POP SWAP2 SWAP1 POP JUMP JUMPDEST PUSH32 0x45524332303A20617070726F766520746F20746865207A65726F206164647265 PUSH1 0x0 DUP3 ADD MSTORE PUSH32 0x7373000000000000000000000000000000000000000000000000000000000000 PUSH1 0x20 DUP3 ADD MSTORE POP JUMP JUMPDEST PUSH1 0x0 PUSH2 0x1CFC PUSH1 0x22 DUP4 PUSH2 0x12A7 JUMP JUMPDEST SWAP2 POP PUSH2 0x1D07 DUP3 PUSH2 0x1CA0 JUMP JUMPDEST PUSH1 0x40 DUP3 ADD SWAP1 POP SWAP2 SWAP1 POP JUMP JUMPDEST PUSH1 0x0 PUSH1 0x20 DUP3 ADD SWAP1 POP DUP2 DUP2 SUB PUSH1 0x0 DUP4 ADD MSTORE PUSH2 0x1D2B DUP2 PUSH2 0x1CEF JUMP JUMPDEST SWAP1 POP SWAP2 SWAP1 POP JUMP JUMPDEST PUSH32 0x45524332303A20696E73756666696369656E7420616C6C6F77616E6365000000 PUSH1 0x0 DUP3 ADD MSTORE POP JUMP JUMPDEST PUSH1 0x0 PUSH2 0x1D68 PUSH1 0x1D DUP4 PUSH2 0x12A7 JUMP JUMPDEST SWAP2 POP PUSH2 0x1D73 DUP3 PUSH2 0x1D32 JUMP JUMPDEST PUSH1 0x20 DUP3 ADD SWAP1 POP SWAP2 SWAP1 POP JUMP JUMPDEST PUSH1 0x0 PUSH1 0x20 DUP3 ADD SWAP1 POP DUP2 DUP2 SUB PUSH1 0x0 DUP4 ADD MSTORE PUSH2 0x1D97 DUP2 PUSH2 0x1D5B JUMP JUMPDEST SWAP1 POP SWAP2 SWAP1 POP JUMP JUMPDEST PUSH32 0x45524332303A207472616E736665722066726F6D20746865207A65726F206164 PUSH1 0x0 DUP3 ADD MSTORE PUSH32 0x6472657373000000000000000000000000000000000000000000000000000000 PUSH1 0x20 DUP3 ADD MSTORE POP JUMP JUMPDEST PUSH1 0x0 PUSH2 0x1DFA PUSH1 0x25 DUP4 PUSH2 0x12A7 JUMP JUMPDEST SWAP2 POP PUSH2 0x1E05 DUP3 PUSH2 0x1D9E JUMP JUMPDEST PUSH1 0x40 DUP3 ADD SWAP1 POP SWAP2 SWAP1 POP JUMP JUMPDEST PUSH1 0x0 PUSH1 0x20 DUP3 ADD SWAP1 POP DUP2 DUP2 SUB PUSH1 0x0 DUP4 ADD MSTORE PUSH2 0x1E29 DUP2 PUSH2 0x1DED JUMP JUMPDEST SWAP1 POP SWAP2 SWAP1 POP JUMP JUMPDEST PUSH32 0x45524332303A207472616E7366657220746F20746865207A65726F2061646472 PUSH1 0x0 DUP3 ADD MSTORE PUSH32 0x6573730000000000000000000000000000000000000000000000000000000000 PUSH1 0x20 DUP3 ADD MSTORE POP JUMP JUMPDEST PUSH1 0x0 PUSH2 0x1E8C PUSH1 0x23 DUP4 PUSH2 0x12A7 JUMP JUMPDEST SWAP2 POP PUSH2 0x1E97 DUP3 PUSH2 0x1E30 JUMP JUMPDEST PUSH1 0x40 DUP3 ADD SWAP1 POP SWAP2 SWAP1 POP JUMP JUMPDEST PUSH1 0x0 PUSH1 0x20 DUP3 ADD SWAP1 POP DUP2 DUP2 SUB PUSH1 0x0 DUP4 ADD MSTORE PUSH2 0x1EBB DUP2 PUSH2 0x1E7F JUMP JUMPDEST SWAP1 POP SWAP2 SWAP1 POP JUMP JUMPDEST PUSH32 0x45524332303A207472616E7366657220616D6F756E7420657863656564732062 PUSH1 0x0 DUP3 ADD MSTORE PUSH32 0x616C616E63650000000000000000000000000000000000000000000000000000 PUSH1 0x20 DUP3 ADD MSTORE POP JUMP JUMPDEST PUSH1 0x0 PUSH2 0x1F1E PUSH1 0x26 DUP4 PUSH2 0x12A7 JUMP JUMPDEST SWAP2 POP PUSH2 0x1F29 DUP3 PUSH2 0x1EC2 JUMP JUMPDEST PUSH1 0x40 DUP3 ADD SWAP1 POP SWAP2 SWAP1 POP JUMP JUMPDEST PUSH1 0x0 PUSH1 0x20 DUP3 ADD SWAP1 POP DUP2 DUP2 SUB PUSH1 0x0 DUP4 ADD MSTORE PUSH2 0x1F4D DUP2 PUSH2 0x1F11 JUMP JUMPDEST SWAP1 POP SWAP2 SWAP1 POP JUMP JUMPDEST PUSH32 0x45524332303A206D696E7420746F20746865207A65726F206164647265737300 PUSH1 0x0 DUP3 ADD MSTORE POP JUMP JUMPDEST PUSH1 0x0 PUSH2 0x1F8A PUSH1 0x1F DUP4 PUSH2 0x12A7 JUMP JUMPDEST SWAP2 POP PUSH2 0x1F95 DUP3 PUSH2 0x1F54 JUMP JUMPDEST PUSH1 0x20 DUP3 ADD SWAP1 POP SWAP2 SWAP1 POP JUMP JUMPDEST PUSH1 0x0 PUSH1 0x20 DUP3 ADD SWAP1 POP DUP2 DUP2 SUB PUSH1 0x0 DUP4 ADD MSTORE PUSH2 0x1FB9 DUP2 PUSH2 0x1F7D JUMP JUMPDEST SWAP1 POP SWAP2 SWAP1 POP JUMP JUMPDEST PUSH32 0x4E487B7100000000000000000000000000000000000000000000000000000000 PUSH1 0x0 MSTORE PUSH1 0x21 PUSH1 0x4 MSTORE PUSH1 0x24 PUSH1 0x0 REVERT JUMPDEST PUSH32 0x45434453413A20696E76616C6964207369676E61747572650000000000000000 PUSH1 0x0 DUP3 ADD MSTORE POP JUMP JUMPDEST PUSH1 0x0 PUSH2 0x2025 PUSH1 0x18 DUP4 PUSH2 0x12A7 JUMP JUMPDEST SWAP2 POP PUSH2 0x2030 DUP3 PUSH2 0x1FEF JUMP JUMPDEST PUSH1 0x20 DUP3 ADD SWAP1 POP SWAP2 SWAP1 POP JUMP JUMPDEST PUSH1 0x0 PUSH1 0x20 DUP3 ADD SWAP1 POP DUP2 DUP2 SUB PUSH1 0x0 DUP4 ADD MSTORE PUSH2 0x2054 DUP2 PUSH2 0x2018 JUMP JUMPDEST SWAP1 POP SWAP2 SWAP1 POP JUMP JUMPDEST PUSH32 0x45434453413A20696E76616C6964207369676E6174757265206C656E67746800 PUSH1 0x0 DUP3 ADD MSTORE POP JUMP JUMPDEST PUSH1 0x0 PUSH2 0x2091 PUSH1 0x1F DUP4 PUSH2 0x12A7 JUMP JUMPDEST SWAP2 POP PUSH2 0x209C DUP3 PUSH2 0x205B JUMP JUMPDEST PUSH1 0x20 DUP3 ADD SWAP1 POP SWAP2 SWAP1 POP JUMP JUMPDEST PUSH1 0x0 PUSH1 0x20 DUP3 ADD SWAP1 POP DUP2 DUP2 SUB PUSH1 0x0 DUP4 ADD MSTORE PUSH2 0x20C0 DUP2 PUSH2 0x2084 JUMP JUMPDEST SWAP1 POP SWAP2 SWAP1 POP JUMP JUMPDEST PUSH32 0x45434453413A20696E76616C6964207369676E6174757265202773272076616C PUSH1 0x0 DUP3 ADD MSTORE PUSH32 0x7565000000000000000000000000000000000000000000000000000000000000 PUSH1 0x20 DUP3 ADD MSTORE POP JUMP JUMPDEST PUSH1 0x0 PUSH2 0x2123 PUSH1 0x22 DUP4 PUSH2 0x12A7 JUMP JUMPDEST SWAP2 POP PUSH2 0x212E DUP3 PUSH2 0x20C7 JUMP JUMPDEST PUSH1 0x40 DUP3 ADD SWAP1 POP SWAP2 SWAP1 POP JUMP JUMPDEST PUSH1 0x0 PUSH1 0x20 DUP3 ADD SWAP1 POP DUP2 DUP2 SUB PUSH1 0x0 DUP4 ADD MSTORE PUSH2 0x2152 DUP2 PUSH2 0x2116 JUMP JUMPDEST SWAP1 POP SWAP2 SWAP1 POP JUMP JUMPDEST PUSH1 0x0 PUSH1 0x80 DUP3 ADD SWAP1 POP PUSH2 0x216E PUSH1 0x0 DUP4 ADD DUP8 PUSH2 0x176B JUMP JUMPDEST PUSH2 0x217B PUSH1 0x20 DUP4 ADD DUP7 PUSH2 0x1714 JUMP JUMPDEST PUSH2 0x2188 PUSH1 0x40 DUP4 ADD DUP6 PUSH2 0x176B JUMP JUMPDEST PUSH2 0x2195 PUSH1 0x60 DUP4 ADD DUP5 PUSH2 0x176B JUMP JUMPDEST SWAP6 SWAP5 POP POP POP POP POP JUMP INVALID LOG2 PUSH5 0x6970667358 0x22 SLT KECCAK256 NOT DUP2 SWAP2 0x2A PUSH7 0x93A3A0F0201DD3 SUB 0xBE 0xCD 0xDC MULMOD 0xB7 PUSH15 0x7757EC42F6C51AB39702ADDD2F6473 PUSH16 0x6C634300081200330000000000000000 "
				},
				"gasEstimates": {
					"creation": {
						"codeDepositCost": "1732000",
						"executionCost": "infinite",
						"totalCost": "infinite"
					},
					"external": {
						"allowance(address,address)": "infinite",
						"approve(address,uint256)": "infinite",
						"badMint(address,uint256,bytes)": "infinite",
						"balanceOf(address)": "2886",
						"createEthSigMess(bytes32)": "infinite",
						"createSing(address,uint256)": "infinite",
						"decimals()": "432",
						"decreaseAllowance(address,uint256)": "infinite",
						"increaseAllowance(address,uint256)": "infinite",
						"minted(address)": "2935",
						"name()": "infinite",
						"nonce()": "2495",
						"signer()": "2537",
						"symbol()": "infinite",
						"totalSupply()": "2505",
						"transfer(address,uint256)": "infinite",
						"transferFrom(address,address,uint256)": "infinite",
						"verifyFun(bytes32,bytes)": "infinite"
					}
				},
				"methodIdentifiers": {
					"allowance(address,address)": "dd62ed3e",
					"approve(address,uint256)": "095ea7b3",
					"badMint(address,uint256,bytes)": "f9c7cb75",
					"balanceOf(address)": "70a08231",
					"createEthSigMess(bytes32)": "53b91ae0",
					"createSing(address,uint256)": "732e3c4d",
					"decimals()": "313ce567",
					"decreaseAllowance(address,uint256)": "a457c2d7",
					"increaseAllowance(address,uint256)": "39509351",
					"minted(address)": "1e7269c5",
					"name()": "06fdde03",
					"nonce()": "affed0e0",
					"signer()": "238ac933",
					"symbol()": "95d89b41",
					"totalSupply()": "18160ddd",
					"transfer(address,uint256)": "a9059cbb",
					"transferFrom(address,address,uint256)": "23b872dd",
					"verifyFun(bytes32,bytes)": "2d02d85e"
				}
			},
			"storageLayout": {
				"storage": [
					{
						"astId": 128,
						"contract": "contracts/SigReplay.sol:SigReplay",
						"label": "_balances",
						"offset": 0,
						"slot": "0",
						"type": "t_mapping(t_address,t_uint256)"
					},
					{
						"astId": 134,
						"contract": "contracts/SigReplay.sol:SigReplay",
						"label": "_allowances",
						"offset": 0,
						"slot": "1",
						"type": "t_mapping(t_address,t_mapping(t_address,t_uint256))"
					},
					{
						"astId": 136,
						"contract": "contracts/SigReplay.sol:SigReplay",
						"label": "_totalSupply",
						"offset": 0,
						"slot": "2",
						"type": "t_uint256"
					},
					{
						"astId": 138,
						"contract": "contracts/SigReplay.sol:SigReplay",
						"label": "_name",
						"offset": 0,
						"slot": "3",
						"type": "t_string_storage"
					},
					{
						"astId": 140,
						"contract": "contracts/SigReplay.sol:SigReplay",
						"label": "_symbol",
						"offset": 0,
						"slot": "4",
						"type": "t_string_storage"
					},
					{
						"astId": 2234,
						"contract": "contracts/SigReplay.sol:SigReplay",
						"label": "signer",
						"offset": 0,
						"slot": "5",
						"type": "t_address"
					},
					{
						"astId": 2238,
						"contract": "contracts/SigReplay.sol:SigReplay",
						"label": "minted",
						"offset": 0,
						"slot": "6",
						"type": "t_mapping(t_address,t_bool)"
					},
					{
						"astId": 2240,
						"contract": "contracts/SigReplay.sol:SigReplay",
						"label": "nonce",
						"offset": 0,
						"slot": "7",
						"type": "t_uint256"
					}
				],
				"types": {
					"t_address": {
						"encoding": "inplace",
						"label": "address",
						"numberOfBytes": "20"
					},
					"t_bool": {
						"encoding": "inplace",
						"label": "bool",
						"numberOfBytes": "1"
					},
					"t_mapping(t_address,t_bool)": {
						"encoding": "mapping",
						"key": "t_address",
						"label": "mapping(address => bool)",
						"numberOfBytes": "32",
						"value": "t_bool"
					},
					"t_mapping(t_address,t_mapping(t_address,t_uint256))": {
						"encoding": "mapping",
						"key": "t_address",
						"label": "mapping(address => mapping(address => uint256))",
						"numberOfBytes": "32",
						"value": "t_mapping(t_address,t_uint256)"
					},
					"t_mapping(t_address,t_uint256)": {
						"encoding": "mapping",
						"key": "t_address",
						"label": "mapping(address => uint256)",
						"numberOfBytes": "32",
						"value": "t_uint256"
					},
					"t_string_storage": {
						"encoding": "bytes",
						"label": "string",
						"numberOfBytes": "32"
					},
					"t_uint256": {
						"encoding": "inplace",
						"label": "uint256",
						"numberOfBytes": "32"
					}
				}
			},
			"userdoc": {
				"kind": "user",
				"methods": {},
				"version": 1
			}
		}
	}
}