{
	"contracts/pairFactor.sol": {
		"PairFactor": {
			"abi": [
				{
					"inputs": [
						{
							"internalType": "address",
							"name": "tokenA",
							"type": "address"
						},
						{
							"internalType": "address",
							"name": "tokenB",
							"type": "address"
						}
					],
					"name": "calculateAddr",
					"outputs": [
						{
							"internalType": "address",
							"name": "predictedAddress",
							"type": "address"
						}
					],
					"stateMutability": "view",
					"type": "function"
				},
				{
					"inputs": [
						{
							"internalType": "address",
							"name": "tokenA",
							"type": "address"
						},
						{
							"internalType": "address",
							"name": "tokenB",
							"type": "address"
						}
					],
					"name": "create2Pair",
					"outputs": [
						{
							"internalType": "address",
							"name": "pairAdd",
							"type": "address"
						}
					],
					"stateMutability": "nonpayable",
					"type": "function"
				},
				{
					"inputs": [
						{
							"internalType": "address",
							"name": "_tokenA",
							"type": "address"
						},
						{
							"internalType": "address",
							"name": "token_B",
							"type": "address"
						}
					],
					"name": "createPair",
					"outputs": [
						{
							"internalType": "address",
							"name": "pairAddr",
							"type": "address"
						}
					],
					"stateMutability": "nonpayable",
					"type": "function"
				},
				{
					"inputs": [
						{
							"internalType": "address",
							"name": "",
							"type": "address"
						},
						{
							"internalType": "address",
							"name": "",
							"type": "address"
						}
					],
					"name": "getPair",
					"outputs": [
						{
							"internalType": "address",
							"name": "",
							"type": "address"
						}
					],
					"stateMutability": "view",
					"type": "function"
				}
			],
			"devdoc": {
				"kind": "dev",
				"methods": {},
				"version": 1
			},
			"evm": {
				"assembly": "    /* \"contracts/pairFactor.sol\":121:2854  contract PairFactor {... */\n  mstore(0x40, 0x80)\n  callvalue\n  dup1\n  iszero\n  tag_1\n  jumpi\n  0x00\n  dup1\n  revert\ntag_1:\n  pop\n  dataSize(sub_0)\n  dup1\n  dataOffset(sub_0)\n  0x00\n  codecopy\n  0x00\n  return\nstop\n\nsub_0: assembly {\n        /* \"contracts/pairFactor.sol\":121:2854  contract PairFactor {... */\n      mstore(0x40, 0x80)\n      callvalue\n      dup1\n      iszero\n      tag_1\n      jumpi\n      0x00\n      dup1\n      revert\n    tag_1:\n      pop\n      jumpi(tag_2, lt(calldatasize, 0x04))\n      shr(0xe0, calldataload(0x00))\n      dup1\n      0xb41edcb3\n      eq\n      tag_3\n      jumpi\n      dup1\n      0xc9c65396\n      eq\n      tag_4\n      jumpi\n      dup1\n      0xdf06b188\n      eq\n      tag_5\n      jumpi\n      dup1\n      0xe6a43905\n      eq\n      tag_6\n      jumpi\n    tag_2:\n      0x00\n      dup1\n      revert\n        /* \"contracts/pairFactor.sol\":1076:1753  function create2Pair(address tokenA, address tokenB)... */\n    tag_3:\n      tag_7\n      0x04\n      dup1\n      calldatasize\n      sub\n      dup2\n      add\n      swap1\n      tag_8\n      swap2\n      swap1\n      tag_9\n      jump\t// in\n    tag_8:\n      tag_10\n      jump\t// in\n    tag_7:\n      mload(0x40)\n      tag_11\n      swap2\n      swap1\n      tag_12\n      jump\t// in\n    tag_11:\n      mload(0x40)\n      dup1\n      swap2\n      sub\n      swap1\n      return\n        /* \"contracts/pairFactor.sol\":384:904  function createPair(address _tokenA, address token_B)... */\n    tag_4:\n      tag_13\n      0x04\n      dup1\n      calldatasize\n      sub\n      dup2\n      add\n      swap1\n      tag_14\n      swap2\n      swap1\n      tag_9\n      jump\t// in\n    tag_14:\n      tag_15\n      jump\t// in\n    tag_13:\n      mload(0x40)\n      tag_16\n      swap2\n      swap1\n      tag_12\n      jump\t// in\n    tag_16:\n      mload(0x40)\n      dup1\n      swap2\n      sub\n      swap1\n      return\n        /* \"contracts/pairFactor.sol\":1860:2852  function calculateAddr(address tokenA, address tokenB)... */\n    tag_5:\n      tag_17\n      0x04\n      dup1\n      calldatasize\n      sub\n      dup2\n      add\n      swap1\n      tag_18\n      swap2\n      swap1\n      tag_9\n      jump\t// in\n    tag_18:\n      tag_19\n      jump\t// in\n    tag_17:\n      mload(0x40)\n      tag_20\n      swap2\n      swap1\n      tag_12\n      jump\t// in\n    tag_20:\n      mload(0x40)\n      dup1\n      swap2\n      sub\n      swap1\n      return\n        /* \"contracts/pairFactor.sol\":188:250  mapping(address => mapping(address => address)) public getPair */\n    tag_6:\n      tag_21\n      0x04\n      dup1\n      calldatasize\n      sub\n      dup2\n      add\n      swap1\n      tag_22\n      swap2\n      swap1\n      tag_9\n      jump\t// in\n    tag_22:\n      tag_23\n      jump\t// in\n    tag_21:\n      mload(0x40)\n      tag_24\n      swap2\n      swap1\n      tag_12\n      jump\t// in\n    tag_24:\n      mload(0x40)\n      dup1\n      swap2\n      sub\n      swap1\n      return\n        /* \"contracts/pairFactor.sol\":1076:1753  function create2Pair(address tokenA, address tokenB)... */\n    tag_10:\n        /* \"contracts/pairFactor.sol\":1163:1178  address pairAdd */\n      0x00\n        /* \"contracts/pairFactor.sol\":1212:1218  tokenB */\n      dup2\n        /* \"contracts/pairFactor.sol\":1202:1218  tokenA != tokenB */\n      0xffffffffffffffffffffffffffffffffffffffff\n      and\n        /* \"contracts/pairFactor.sol\":1202:1208  tokenA */\n      dup4\n        /* \"contracts/pairFactor.sol\":1202:1218  tokenA != tokenB */\n      0xffffffffffffffffffffffffffffffffffffffff\n      and\n      eq\n      iszero\n        /* \"contracts/pairFactor.sol\":1194:1228  require(tokenA != tokenB, \"error\") */\n      tag_26\n      jumpi\n      mload(0x40)\n      0x08c379a000000000000000000000000000000000000000000000000000000000\n      dup2\n      mstore\n      0x04\n      add\n      tag_27\n      swap1\n      tag_28\n      jump\t// in\n    tag_27:\n      mload(0x40)\n      dup1\n      swap2\n      sub\n      swap1\n      revert\n    tag_26:\n        /* \"contracts/pairFactor.sol\":1239:1249  address t0 */\n      0x00\n        /* \"contracts/pairFactor.sol\":1251:1261  address t1 */\n      dup1\n        /* \"contracts/pairFactor.sol\":1274:1280  tokenB */\n      dup4\n        /* \"contracts/pairFactor.sol\":1265:1280  tokenA < tokenB */\n      0xffffffffffffffffffffffffffffffffffffffff\n      and\n        /* \"contracts/pairFactor.sol\":1265:1271  tokenA */\n      dup6\n        /* \"contracts/pairFactor.sol\":1265:1280  tokenA < tokenB */\n      0xffffffffffffffffffffffffffffffffffffffff\n      and\n      lt\n        /* \"contracts/pairFactor.sol\":1265:1342  tokenA < tokenB... */\n      tag_29\n      jumpi\n        /* \"contracts/pairFactor.sol\":1327:1333  tokenB */\n      dup4\n        /* \"contracts/pairFactor.sol\":1335:1341  tokenA */\n      dup6\n        /* \"contracts/pairFactor.sol\":1265:1342  tokenA < tokenB... */\n      jump(tag_30)\n    tag_29:\n        /* \"contracts/pairFactor.sol\":1296:1302  tokenA */\n      dup5\n        /* \"contracts/pairFactor.sol\":1304:1310  tokenB */\n      dup5\n        /* \"contracts/pairFactor.sol\":1265:1342  tokenA < tokenB... */\n    tag_30:\n        /* \"contracts/pairFactor.sol\":1238:1342  (address t0, address t1) = tokenA < tokenB... */\n      swap2\n      pop\n      swap2\n      pop\n        /* \"contracts/pairFactor.sol\":1386:1398  bytes32 salt */\n      0x00\n        /* \"contracts/pairFactor.sol\":1428:1430  t0 */\n      dup3\n        /* \"contracts/pairFactor.sol\":1432:1434  t1 */\n      dup3\n        /* \"contracts/pairFactor.sol\":1411:1435  abi.encodePacked(t0, t1) */\n      add(0x20, mload(0x40))\n      tag_31\n      swap3\n      swap2\n      swap1\n      tag_32\n      jump\t// in\n    tag_31:\n      mload(0x40)\n      0x20\n      dup2\n      dup4\n      sub\n      sub\n      dup2\n      mstore\n      swap1\n      0x40\n      mstore\n        /* \"contracts/pairFactor.sol\":1401:1436  keccak256(abi.encodePacked(t0, t1)) */\n      dup1\n      mload\n      swap1\n      0x20\n      add\n      keccak256\n        /* \"contracts/pairFactor.sol\":1386:1436  bytes32 salt = keccak256(abi.encodePacked(t0, t1)) */\n      swap1\n      pop\n        /* \"contracts/pairFactor.sol\":1491:1504  PairCon pair2 */\n      0x00\n        /* \"contracts/pairFactor.sol\":1525:1529  salt */\n      dup2\n        /* \"contracts/pairFactor.sol\":1507:1532  new PairCon{salt: salt}() */\n      mload(0x40)\n      tag_33\n      swap1\n      tag_34\n      jump\t// in\n    tag_33:\n      dup2\n      swap1\n      mload(0x40)\n      dup1\n      swap2\n      sub\n      swap1\n      0x00\n      create2\n      swap1\n      pop\n      dup1\n      iszero\n      dup1\n      iszero\n      tag_35\n      jumpi\n      returndatasize\n      0x00\n      dup1\n      returndatacopy\n      revert(0x00, returndatasize)\n    tag_35:\n      pop\n        /* \"contracts/pairFactor.sol\":1491:1532  PairCon pair2 = new PairCon{salt: salt}() */\n      swap1\n      pop\n        /* \"contracts/pairFactor.sol\":1542:1547  pair2 */\n      dup1\n        /* \"contracts/pairFactor.sol\":1542:1552  pair2.init */\n      0xffffffffffffffffffffffffffffffffffffffff\n      and\n      0xf09a4016\n        /* \"contracts/pairFactor.sol\":1553:1559  tokenA */\n      dup9\n        /* \"contracts/pairFactor.sol\":1561:1567  tokenB */\n      dup9\n        /* \"contracts/pairFactor.sol\":1542:1568  pair2.init(tokenA, tokenB) */\n      mload(0x40)\n      dup4\n      0xffffffff\n      and\n      0xe0\n      shl\n      dup2\n      mstore\n      0x04\n      add\n      tag_36\n      swap3\n      swap2\n      swap1\n      tag_37\n      jump\t// in\n    tag_36:\n      0x00\n      mload(0x40)\n      dup1\n      dup4\n      sub\n      dup2\n      0x00\n      dup8\n      dup1\n      extcodesize\n      iszero\n      dup1\n      iszero\n      tag_38\n      jumpi\n      0x00\n      dup1\n      revert\n    tag_38:\n      pop\n      gas\n      call\n      iszero\n      dup1\n      iszero\n      tag_40\n      jumpi\n      returndatasize\n      0x00\n      dup1\n      returndatacopy\n      revert(0x00, returndatasize)\n    tag_40:\n      pop\n      pop\n      pop\n      pop\n        /* \"contracts/pairFactor.sol\":1623:1628  pair2 */\n      dup1\n        /* \"contracts/pairFactor.sol\":1605:1629  pairAdd = address(pair2) */\n      swap5\n      pop\n        /* \"contracts/pairFactor.sol\":1639:1646  allPair */\n      0x01\n        /* \"contracts/pairFactor.sol\":1652:1659  pairAdd */\n      dup6\n        /* \"contracts/pairFactor.sol\":1639:1660  allPair.push(pairAdd) */\n      swap1\n      dup1\n      0x01\n      dup2\n      sload\n      add\n      dup1\n      dup3\n      sstore\n      dup1\n      swap2\n      pop\n      pop\n      0x01\n      swap1\n      sub\n      swap1\n      0x00\n      mstore\n      keccak256(0x00, 0x20)\n      add\n      0x00\n      swap1\n      swap2\n      swap1\n      swap2\n      swap1\n      swap2\n      0x0100\n      exp\n      dup2\n      sload\n      dup2\n      0xffffffffffffffffffffffffffffffffffffffff\n      mul\n      not\n      and\n      swap1\n      dup4\n      0xffffffffffffffffffffffffffffffffffffffff\n      and\n      mul\n      or\n      swap1\n      sstore\n      pop\n        /* \"contracts/pairFactor.sol\":1696:1703  pairAdd */\n      dup5\n        /* \"contracts/pairFactor.sol\":1670:1677  getPair */\n      0x00\n        /* \"contracts/pairFactor.sol\":1670:1685  getPair[tokenA] */\n      dup1\n        /* \"contracts/pairFactor.sol\":1678:1684  tokenA */\n      dup10\n        /* \"contracts/pairFactor.sol\":1670:1685  getPair[tokenA] */\n      0xffffffffffffffffffffffffffffffffffffffff\n      and\n      0xffffffffffffffffffffffffffffffffffffffff\n      and\n      dup2\n      mstore\n      0x20\n      add\n      swap1\n      dup2\n      mstore\n      0x20\n      add\n      0x00\n      keccak256\n        /* \"contracts/pairFactor.sol\":1670:1693  getPair[tokenA][tokenB] */\n      0x00\n        /* \"contracts/pairFactor.sol\":1686:1692  tokenB */\n      dup9\n        /* \"contracts/pairFactor.sol\":1670:1693  getPair[tokenA][tokenB] */\n      0xffffffffffffffffffffffffffffffffffffffff\n      and\n      0xffffffffffffffffffffffffffffffffffffffff\n      and\n      dup2\n      mstore\n      0x20\n      add\n      swap1\n      dup2\n      mstore\n      0x20\n      add\n      0x00\n      keccak256\n      0x00\n        /* \"contracts/pairFactor.sol\":1670:1703  getPair[tokenA][tokenB] = pairAdd */\n      0x0100\n      exp\n      dup2\n      sload\n      dup2\n      0xffffffffffffffffffffffffffffffffffffffff\n      mul\n      not\n      and\n      swap1\n      dup4\n      0xffffffffffffffffffffffffffffffffffffffff\n      and\n      mul\n      or\n      swap1\n      sstore\n      pop\n        /* \"contracts/pairFactor.sol\":1739:1746  pairAdd */\n      dup5\n        /* \"contracts/pairFactor.sol\":1713:1720  getPair */\n      0x00\n        /* \"contracts/pairFactor.sol\":1713:1728  getPair[tokenB] */\n      dup1\n        /* \"contracts/pairFactor.sol\":1721:1727  tokenB */\n      dup9\n        /* \"contracts/pairFactor.sol\":1713:1728  getPair[tokenB] */\n      0xffffffffffffffffffffffffffffffffffffffff\n      and\n      0xffffffffffffffffffffffffffffffffffffffff\n      and\n      dup2\n      mstore\n      0x20\n      add\n      swap1\n      dup2\n      mstore\n      0x20\n      add\n      0x00\n      keccak256\n        /* \"contracts/pairFactor.sol\":1713:1736  getPair[tokenB][tokenA] */\n      0x00\n        /* \"contracts/pairFactor.sol\":1729:1735  tokenA */\n      dup10\n        /* \"contracts/pairFactor.sol\":1713:1736  getPair[tokenB][tokenA] */\n      0xffffffffffffffffffffffffffffffffffffffff\n      and\n      0xffffffffffffffffffffffffffffffffffffffff\n      and\n      dup2\n      mstore\n      0x20\n      add\n      swap1\n      dup2\n      mstore\n      0x20\n      add\n      0x00\n      keccak256\n      0x00\n        /* \"contracts/pairFactor.sol\":1713:1746  getPair[tokenB][tokenA] = pairAdd */\n      0x0100\n      exp\n      dup2\n      sload\n      dup2\n      0xffffffffffffffffffffffffffffffffffffffff\n      mul\n      not\n      and\n      swap1\n      dup4\n      0xffffffffffffffffffffffffffffffffffffffff\n      and\n      mul\n      or\n      swap1\n      sstore\n      pop\n        /* \"contracts/pairFactor.sol\":1184:1753  {... */\n      pop\n      pop\n      pop\n      pop\n        /* \"contracts/pairFactor.sol\":1076:1753  function create2Pair(address tokenA, address tokenB)... */\n      swap3\n      swap2\n      pop\n      pop\n      jump\t// out\n        /* \"contracts/pairFactor.sol\":384:904  function createPair(address _tokenA, address token_B)... */\n    tag_15:\n        /* \"contracts/pairFactor.sol\":472:488  address pairAddr */\n      0x00\n        /* \"contracts/pairFactor.sol\":530:542  PairCon pair */\n      dup1\n        /* \"contracts/pairFactor.sol\":545:558  new PairCon() */\n      mload(0x40)\n      tag_43\n      swap1\n      tag_34\n      jump\t// in\n    tag_43:\n      mload(0x40)\n      dup1\n      swap2\n      sub\n      swap1\n      0x00\n      create\n      dup1\n      iszero\n      dup1\n      iszero\n      tag_44\n      jumpi\n      returndatasize\n      0x00\n      dup1\n      returndatacopy\n      revert(0x00, returndatasize)\n    tag_44:\n      pop\n        /* \"contracts/pairFactor.sol\":530:558  PairCon pair = new PairCon() */\n      swap1\n      pop\n        /* \"contracts/pairFactor.sol\":600:604  pair */\n      dup1\n        /* \"contracts/pairFactor.sol\":600:609  pair.init */\n      0xffffffffffffffffffffffffffffffffffffffff\n      and\n      0xf09a4016\n        /* \"contracts/pairFactor.sol\":610:617  _tokenA */\n      dup6\n        /* \"contracts/pairFactor.sol\":619:626  token_B */\n      dup6\n        /* \"contracts/pairFactor.sol\":600:627  pair.init(_tokenA, token_B) */\n      mload(0x40)\n      dup4\n      0xffffffff\n      and\n      0xe0\n      shl\n      dup2\n      mstore\n      0x04\n      add\n      tag_45\n      swap3\n      swap2\n      swap1\n      tag_37\n      jump\t// in\n    tag_45:\n      0x00\n      mload(0x40)\n      dup1\n      dup4\n      sub\n      dup2\n      0x00\n      dup8\n      dup1\n      extcodesize\n      iszero\n      dup1\n      iszero\n      tag_46\n      jumpi\n      0x00\n      dup1\n      revert\n    tag_46:\n      pop\n      gas\n      call\n      iszero\n      dup1\n      iszero\n      tag_48\n      jumpi\n      returndatasize\n      0x00\n      dup1\n      returndatacopy\n      revert(0x00, returndatasize)\n    tag_48:\n      pop\n      pop\n      pop\n      pop\n        /* \"contracts/pairFactor.sol\":706:710  pair */\n      dup1\n        /* \"contracts/pairFactor.sol\":687:711  pairAddr = address(pair) */\n      swap2\n      pop\n        /* \"contracts/pairFactor.sol\":783:790  allPair */\n      0x01\n        /* \"contracts/pairFactor.sol\":796:804  pairAddr */\n      dup3\n        /* \"contracts/pairFactor.sol\":783:805  allPair.push(pairAddr) */\n      swap1\n      dup1\n      0x01\n      dup2\n      sload\n      add\n      dup1\n      dup3\n      sstore\n      dup1\n      swap2\n      pop\n      pop\n      0x01\n      swap1\n      sub\n      swap1\n      0x00\n      mstore\n      keccak256(0x00, 0x20)\n      add\n      0x00\n      swap1\n      swap2\n      swap1\n      swap2\n      swap1\n      swap2\n      0x0100\n      exp\n      dup2\n      sload\n      dup2\n      0xffffffffffffffffffffffffffffffffffffffff\n      mul\n      not\n      and\n      swap1\n      dup4\n      0xffffffffffffffffffffffffffffffffffffffff\n      and\n      mul\n      or\n      swap1\n      sstore\n      pop\n        /* \"contracts/pairFactor.sol\":843:851  pairAddr */\n      dup2\n        /* \"contracts/pairFactor.sol\":815:822  getPair */\n      0x00\n        /* \"contracts/pairFactor.sol\":815:831  getPair[_tokenA] */\n      dup1\n        /* \"contracts/pairFactor.sol\":823:830  _tokenA */\n      dup7\n        /* \"contracts/pairFactor.sol\":815:831  getPair[_tokenA] */\n      0xffffffffffffffffffffffffffffffffffffffff\n      and\n      0xffffffffffffffffffffffffffffffffffffffff\n      and\n      dup2\n      mstore\n      0x20\n      add\n      swap1\n      dup2\n      mstore\n      0x20\n      add\n      0x00\n      keccak256\n        /* \"contracts/pairFactor.sol\":815:840  getPair[_tokenA][token_B] */\n      0x00\n        /* \"contracts/pairFactor.sol\":832:839  token_B */\n      dup6\n        /* \"contracts/pairFactor.sol\":815:840  getPair[_tokenA][token_B] */\n      0xffffffffffffffffffffffffffffffffffffffff\n      and\n      0xffffffffffffffffffffffffffffffffffffffff\n      and\n      dup2\n      mstore\n      0x20\n      add\n      swap1\n      dup2\n      mstore\n      0x20\n      add\n      0x00\n      keccak256\n      0x00\n        /* \"contracts/pairFactor.sol\":815:851  getPair[_tokenA][token_B] = pairAddr */\n      0x0100\n      exp\n      dup2\n      sload\n      dup2\n      0xffffffffffffffffffffffffffffffffffffffff\n      mul\n      not\n      and\n      swap1\n      dup4\n      0xffffffffffffffffffffffffffffffffffffffff\n      and\n      mul\n      or\n      swap1\n      sstore\n      pop\n        /* \"contracts/pairFactor.sol\":889:897  pairAddr */\n      dup2\n        /* \"contracts/pairFactor.sol\":861:868  getPair */\n      0x00\n        /* \"contracts/pairFactor.sol\":861:877  getPair[_tokenA] */\n      dup1\n        /* \"contracts/pairFactor.sol\":869:876  _tokenA */\n      dup7\n        /* \"contracts/pairFactor.sol\":861:877  getPair[_tokenA] */\n      0xffffffffffffffffffffffffffffffffffffffff\n      and\n      0xffffffffffffffffffffffffffffffffffffffff\n      and\n      dup2\n      mstore\n      0x20\n      add\n      swap1\n      dup2\n      mstore\n      0x20\n      add\n      0x00\n      keccak256\n        /* \"contracts/pairFactor.sol\":861:886  getPair[_tokenA][token_B] */\n      0x00\n        /* \"contracts/pairFactor.sol\":878:885  token_B */\n      dup6\n        /* \"contracts/pairFactor.sol\":861:886  getPair[_tokenA][token_B] */\n      0xffffffffffffffffffffffffffffffffffffffff\n      and\n      0xffffffffffffffffffffffffffffffffffffffff\n      and\n      dup2\n      mstore\n      0x20\n      add\n      swap1\n      dup2\n      mstore\n      0x20\n      add\n      0x00\n      keccak256\n      0x00\n        /* \"contracts/pairFactor.sol\":861:897  getPair[_tokenA][token_B] = pairAddr */\n      0x0100\n      exp\n      dup2\n      sload\n      dup2\n      0xffffffffffffffffffffffffffffffffffffffff\n      mul\n      not\n      and\n      swap1\n      dup4\n      0xffffffffffffffffffffffffffffffffffffffff\n      and\n      mul\n      or\n      swap1\n      sstore\n      pop\n        /* \"contracts/pairFactor.sol\":494:904  {... */\n      pop\n        /* \"contracts/pairFactor.sol\":384:904  function createPair(address _tokenA, address token_B)... */\n      swap3\n      swap2\n      pop\n      pop\n      jump\t// out\n        /* \"contracts/pairFactor.sol\":1860:2852  function calculateAddr(address tokenA, address tokenB)... */\n    tag_19:\n        /* \"contracts/pairFactor.sol\":1960:1984  address predictedAddress */\n      0x00\n        /* \"contracts/pairFactor.sol\":2018:2024  tokenB */\n      dup2\n        /* \"contracts/pairFactor.sol\":2008:2024  tokenA != tokenB */\n      0xffffffffffffffffffffffffffffffffffffffff\n      and\n        /* \"contracts/pairFactor.sol\":2008:2014  tokenA */\n      dup4\n        /* \"contracts/pairFactor.sol\":2008:2024  tokenA != tokenB */\n      0xffffffffffffffffffffffffffffffffffffffff\n      and\n      eq\n      iszero\n        /* \"contracts/pairFactor.sol\":2000:2048  require(tokenA != tokenB, \"IDENTICAL_ADDRESSES\") */\n      tag_51\n      jumpi\n      mload(0x40)\n      0x08c379a000000000000000000000000000000000000000000000000000000000\n      dup2\n      mstore\n      0x04\n      add\n      tag_52\n      swap1\n      tag_53\n      jump\t// in\n    tag_52:\n      mload(0x40)\n      dup1\n      swap2\n      sub\n      swap1\n      revert\n    tag_51:\n        /* \"contracts/pairFactor.sol\":2156:2170  address token0 */\n      0x00\n        /* \"contracts/pairFactor.sol\":2172:2186  address token1 */\n      dup1\n        /* \"contracts/pairFactor.sol\":2199:2205  tokenB */\n      dup4\n        /* \"contracts/pairFactor.sol\":2190:2205  tokenA < tokenB */\n      0xffffffffffffffffffffffffffffffffffffffff\n      and\n        /* \"contracts/pairFactor.sol\":2190:2196  tokenA */\n      dup6\n        /* \"contracts/pairFactor.sol\":2190:2205  tokenA < tokenB */\n      0xffffffffffffffffffffffffffffffffffffffff\n      and\n      lt\n        /* \"contracts/pairFactor.sol\":2190:2267  tokenA < tokenB... */\n      tag_54\n      jumpi\n        /* \"contracts/pairFactor.sol\":2252:2258  tokenB */\n      dup4\n        /* \"contracts/pairFactor.sol\":2260:2266  tokenA */\n      dup6\n        /* \"contracts/pairFactor.sol\":2190:2267  tokenA < tokenB... */\n      jump(tag_55)\n    tag_54:\n        /* \"contracts/pairFactor.sol\":2221:2227  tokenA */\n      dup5\n        /* \"contracts/pairFactor.sol\":2229:2235  tokenB */\n      dup5\n        /* \"contracts/pairFactor.sol\":2190:2267  tokenA < tokenB... */\n    tag_55:\n        /* \"contracts/pairFactor.sol\":2155:2267  (address token0, address token1) = tokenA < tokenB... */\n      swap2\n      pop\n      swap2\n      pop\n        /* \"contracts/pairFactor.sol\":2313:2325  bytes32 salt */\n      0x00\n        /* \"contracts/pairFactor.sol\":2355:2361  token0 */\n      dup3\n        /* \"contracts/pairFactor.sol\":2363:2369  token1 */\n      dup3\n        /* \"contracts/pairFactor.sol\":2338:2370  abi.encodePacked(token0, token1) */\n      add(0x20, mload(0x40))\n      tag_56\n      swap3\n      swap2\n      swap1\n      tag_32\n      jump\t// in\n    tag_56:\n      mload(0x40)\n      0x20\n      dup2\n      dup4\n      sub\n      sub\n      dup2\n      mstore\n      swap1\n      0x40\n      mstore\n        /* \"contracts/pairFactor.sol\":2328:2371  keccak256(abi.encodePacked(token0, token1)) */\n      dup1\n      mload\n      swap1\n      0x20\n      add\n      keccak256\n        /* \"contracts/pairFactor.sol\":2313:2371  bytes32 salt = keccak256(abi.encodePacked(token0, token1)) */\n      swap1\n      pop\n        /* \"contracts/pairFactor.sol\":2606:2610  0xff */\n      0xff\n        /* \"contracts/pairFactor.sol\":2599:2611  bytes1(0xff) */\n      0xf8\n      shl\n        /* \"contracts/pairFactor.sol\":2649:2653  this */\n      address\n        /* \"contracts/pairFactor.sol\":2684:2688  salt */\n      dup3\n        /* \"contracts/pairFactor.sol\":2728:2754  type(PairCon).creationCode */\n      mload(0x40)\n      dup1\n      0x20\n      add\n      tag_57\n      swap1\n      tag_34\n      jump\t// in\n    tag_57:\n      0x20\n      dup3\n      add\n      dup2\n      sub\n      dup3\n      mstore\n      not(0x1f)\n      0x1f\n      dup3\n      add\n      and\n      0x40\n      mstore\n      pop\n        /* \"contracts/pairFactor.sol\":2718:2755  keccak256(type(PairCon).creationCode) */\n      dup1\n      mload\n      swap1\n      0x20\n      add\n      keccak256\n        /* \"contracts/pairFactor.sol\":2553:2781  abi.encodePacked(... */\n      add(0x20, mload(0x40))\n      tag_58\n      swap5\n      swap4\n      swap3\n      swap2\n      swap1\n      tag_59\n      jump\t// in\n    tag_58:\n      mload(0x40)\n      0x20\n      dup2\n      dup4\n      sub\n      sub\n      dup2\n      mstore\n      swap1\n      0x40\n      mstore\n        /* \"contracts/pairFactor.sol\":2518:2803  keccak256(... */\n      dup1\n      mload\n      swap1\n      0x20\n      add\n      keccak256\n        /* \"contracts/pairFactor.sol\":2489:2821  uint256(... */\n      0x00\n      shr\n        /* \"contracts/pairFactor.sol\":2424:2845  predictedAddress = address(... */\n      swap4\n      pop\n        /* \"contracts/pairFactor.sol\":1990:2852  {... */\n      pop\n      pop\n      pop\n        /* \"contracts/pairFactor.sol\":1860:2852  function calculateAddr(address tokenA, address tokenB)... */\n      swap3\n      swap2\n      pop\n      pop\n      jump\t// out\n        /* \"contracts/pairFactor.sol\":188:250  mapping(address => mapping(address => address)) public getPair */\n    tag_23:\n      mstore(0x20, 0x00)\n      dup2\n      0x00\n      mstore\n      mstore(0x20, keccak256(0x00, 0x40))\n      dup1\n      0x00\n      mstore\n      keccak256(0x00, 0x40)\n      0x00\n      swap2\n      pop\n      swap2\n      pop\n      swap1\n      sload\n      swap1\n      0x0100\n      exp\n      swap1\n      div\n      0xffffffffffffffffffffffffffffffffffffffff\n      and\n      dup2\n      jump\t// out\n    tag_34:\n      dataSize(sub_0)\n      dup1\n      dataOffset(sub_0)\n      dup4\n      codecopy\n      add\n      swap1\n      jump\t// out\n        /* \"#utility.yul\":7:146   */\n    tag_61:\n        /* \"#utility.yul\":53:58   */\n      0x00\n        /* \"#utility.yul\":91:97   */\n      dup2\n        /* \"#utility.yul\":78:98   */\n      calldataload\n        /* \"#utility.yul\":69:98   */\n      swap1\n      pop\n        /* \"#utility.yul\":107:140   */\n      tag_63\n        /* \"#utility.yul\":134:139   */\n      dup2\n        /* \"#utility.yul\":107:140   */\n      tag_64\n      jump\t// in\n    tag_63:\n        /* \"#utility.yul\":7:146   */\n      swap3\n      swap2\n      pop\n      pop\n      jump\t// out\n        /* \"#utility.yul\":152:626   */\n    tag_9:\n        /* \"#utility.yul\":220:226   */\n      0x00\n        /* \"#utility.yul\":228:234   */\n      dup1\n        /* \"#utility.yul\":277:279   */\n      0x40\n        /* \"#utility.yul\":265:274   */\n      dup4\n        /* \"#utility.yul\":256:263   */\n      dup6\n        /* \"#utility.yul\":252:275   */\n      sub\n        /* \"#utility.yul\":248:280   */\n      slt\n        /* \"#utility.yul\":245:364   */\n      iszero\n      tag_66\n      jumpi\n        /* \"#utility.yul\":283:362   */\n      tag_67\n      tag_68\n      jump\t// in\n    tag_67:\n        /* \"#utility.yul\":245:364   */\n    tag_66:\n        /* \"#utility.yul\":403:404   */\n      0x00\n        /* \"#utility.yul\":428:481   */\n      tag_69\n        /* \"#utility.yul\":473:480   */\n      dup6\n        /* \"#utility.yul\":464:470   */\n      dup3\n        /* \"#utility.yul\":453:462   */\n      dup7\n        /* \"#utility.yul\":449:471   */\n      add\n        /* \"#utility.yul\":428:481   */\n      tag_61\n      jump\t// in\n    tag_69:\n        /* \"#utility.yul\":418:481   */\n      swap3\n      pop\n        /* \"#utility.yul\":374:491   */\n      pop\n        /* \"#utility.yul\":530:532   */\n      0x20\n        /* \"#utility.yul\":556:609   */\n      tag_70\n        /* \"#utility.yul\":601:608   */\n      dup6\n        /* \"#utility.yul\":592:598   */\n      dup3\n        /* \"#utility.yul\":581:590   */\n      dup7\n        /* \"#utility.yul\":577:599   */\n      add\n        /* \"#utility.yul\":556:609   */\n      tag_61\n      jump\t// in\n    tag_70:\n        /* \"#utility.yul\":546:609   */\n      swap2\n      pop\n        /* \"#utility.yul\":501:619   */\n      pop\n        /* \"#utility.yul\":152:626   */\n      swap3\n      pop\n      swap3\n      swap1\n      pop\n      jump\t// out\n        /* \"#utility.yul\":632:750   */\n    tag_71:\n        /* \"#utility.yul\":719:743   */\n      tag_73\n        /* \"#utility.yul\":737:742   */\n      dup2\n        /* \"#utility.yul\":719:743   */\n      tag_74\n      jump\t// in\n    tag_73:\n        /* \"#utility.yul\":714:717   */\n      dup3\n        /* \"#utility.yul\":707:744   */\n      mstore\n        /* \"#utility.yul\":632:750   */\n      pop\n      pop\n      jump\t// out\n        /* \"#utility.yul\":756:913   */\n    tag_75:\n        /* \"#utility.yul\":861:906   */\n      tag_77\n        /* \"#utility.yul\":881:905   */\n      tag_78\n        /* \"#utility.yul\":899:904   */\n      dup3\n        /* \"#utility.yul\":881:905   */\n      tag_74\n      jump\t// in\n    tag_78:\n        /* \"#utility.yul\":861:906   */\n      tag_79\n      jump\t// in\n    tag_77:\n        /* \"#utility.yul\":856:859   */\n      dup3\n        /* \"#utility.yul\":849:907   */\n      mstore\n        /* \"#utility.yul\":756:913   */\n      pop\n      pop\n      jump\t// out\n        /* \"#utility.yul\":919:1072   */\n    tag_80:\n        /* \"#utility.yul\":1022:1065   */\n      tag_82\n        /* \"#utility.yul\":1041:1064   */\n      tag_83\n        /* \"#utility.yul\":1058:1063   */\n      dup3\n        /* \"#utility.yul\":1041:1064   */\n      tag_84\n      jump\t// in\n    tag_83:\n        /* \"#utility.yul\":1022:1065   */\n      tag_85\n      jump\t// in\n    tag_82:\n        /* \"#utility.yul\":1017:1020   */\n      dup3\n        /* \"#utility.yul\":1010:1066   */\n      mstore\n        /* \"#utility.yul\":919:1072   */\n      pop\n      pop\n      jump\t// out\n        /* \"#utility.yul\":1078:1235   */\n    tag_86:\n        /* \"#utility.yul\":1183:1228   */\n      tag_88\n        /* \"#utility.yul\":1203:1227   */\n      tag_89\n        /* \"#utility.yul\":1221:1226   */\n      dup3\n        /* \"#utility.yul\":1203:1227   */\n      tag_90\n      jump\t// in\n    tag_89:\n        /* \"#utility.yul\":1183:1228   */\n      tag_91\n      jump\t// in\n    tag_88:\n        /* \"#utility.yul\":1178:1181   */\n      dup3\n        /* \"#utility.yul\":1171:1229   */\n      mstore\n        /* \"#utility.yul\":1078:1235   */\n      pop\n      pop\n      jump\t// out\n        /* \"#utility.yul\":1241:1606   */\n    tag_92:\n        /* \"#utility.yul\":1383:1386   */\n      0x00\n        /* \"#utility.yul\":1404:1470   */\n      tag_94\n        /* \"#utility.yul\":1468:1469   */\n      0x05\n        /* \"#utility.yul\":1463:1466   */\n      dup4\n        /* \"#utility.yul\":1404:1470   */\n      tag_95\n      jump\t// in\n    tag_94:\n        /* \"#utility.yul\":1397:1470   */\n      swap2\n      pop\n        /* \"#utility.yul\":1479:1572   */\n      tag_96\n        /* \"#utility.yul\":1568:1571   */\n      dup3\n        /* \"#utility.yul\":1479:1572   */\n      tag_97\n      jump\t// in\n    tag_96:\n        /* \"#utility.yul\":1597:1599   */\n      0x20\n        /* \"#utility.yul\":1592:1595   */\n      dup3\n        /* \"#utility.yul\":1588:1600   */\n      add\n        /* \"#utility.yul\":1581:1600   */\n      swap1\n      pop\n        /* \"#utility.yul\":1241:1606   */\n      swap2\n      swap1\n      pop\n      jump\t// out\n        /* \"#utility.yul\":1612:1978   */\n    tag_98:\n        /* \"#utility.yul\":1754:1757   */\n      0x00\n        /* \"#utility.yul\":1775:1842   */\n      tag_100\n        /* \"#utility.yul\":1839:1841   */\n      0x13\n        /* \"#utility.yul\":1834:1837   */\n      dup4\n        /* \"#utility.yul\":1775:1842   */\n      tag_95\n      jump\t// in\n    tag_100:\n        /* \"#utility.yul\":1768:1842   */\n      swap2\n      pop\n        /* \"#utility.yul\":1851:1944   */\n      tag_101\n        /* \"#utility.yul\":1940:1943   */\n      dup3\n        /* \"#utility.yul\":1851:1944   */\n      tag_102\n      jump\t// in\n    tag_101:\n        /* \"#utility.yul\":1969:1971   */\n      0x20\n        /* \"#utility.yul\":1964:1967   */\n      dup3\n        /* \"#utility.yul\":1960:1972   */\n      add\n        /* \"#utility.yul\":1953:1972   */\n      swap1\n      pop\n        /* \"#utility.yul\":1612:1978   */\n      swap2\n      swap1\n      pop\n      jump\t// out\n        /* \"#utility.yul\":1984:2381   */\n    tag_32:\n        /* \"#utility.yul\":2124:2127   */\n      0x00\n        /* \"#utility.yul\":2139:2214   */\n      tag_104\n        /* \"#utility.yul\":2210:2213   */\n      dup3\n        /* \"#utility.yul\":2201:2207   */\n      dup6\n        /* \"#utility.yul\":2139:2214   */\n      tag_75\n      jump\t// in\n    tag_104:\n        /* \"#utility.yul\":2239:2241   */\n      0x14\n        /* \"#utility.yul\":2234:2237   */\n      dup3\n        /* \"#utility.yul\":2230:2242   */\n      add\n        /* \"#utility.yul\":2223:2242   */\n      swap2\n      pop\n        /* \"#utility.yul\":2252:2327   */\n      tag_105\n        /* \"#utility.yul\":2323:2326   */\n      dup3\n        /* \"#utility.yul\":2314:2320   */\n      dup5\n        /* \"#utility.yul\":2252:2327   */\n      tag_75\n      jump\t// in\n    tag_105:\n        /* \"#utility.yul\":2352:2354   */\n      0x14\n        /* \"#utility.yul\":2347:2350   */\n      dup3\n        /* \"#utility.yul\":2343:2355   */\n      add\n        /* \"#utility.yul\":2336:2355   */\n      swap2\n      pop\n        /* \"#utility.yul\":2372:2375   */\n      dup2\n        /* \"#utility.yul\":2365:2375   */\n      swap1\n      pop\n        /* \"#utility.yul\":1984:2381   */\n      swap4\n      swap3\n      pop\n      pop\n      pop\n      jump\t// out\n        /* \"#utility.yul\":2387:3061   */\n    tag_59:\n        /* \"#utility.yul\":2581:2584   */\n      0x00\n        /* \"#utility.yul\":2596:2669   */\n      tag_107\n        /* \"#utility.yul\":2665:2668   */\n      dup3\n        /* \"#utility.yul\":2656:2662   */\n      dup8\n        /* \"#utility.yul\":2596:2669   */\n      tag_80\n      jump\t// in\n    tag_107:\n        /* \"#utility.yul\":2694:2695   */\n      0x01\n        /* \"#utility.yul\":2689:2692   */\n      dup3\n        /* \"#utility.yul\":2685:2696   */\n      add\n        /* \"#utility.yul\":2678:2696   */\n      swap2\n      pop\n        /* \"#utility.yul\":2706:2781   */\n      tag_108\n        /* \"#utility.yul\":2777:2780   */\n      dup3\n        /* \"#utility.yul\":2768:2774   */\n      dup7\n        /* \"#utility.yul\":2706:2781   */\n      tag_75\n      jump\t// in\n    tag_108:\n        /* \"#utility.yul\":2806:2808   */\n      0x14\n        /* \"#utility.yul\":2801:2804   */\n      dup3\n        /* \"#utility.yul\":2797:2809   */\n      add\n        /* \"#utility.yul\":2790:2809   */\n      swap2\n      pop\n        /* \"#utility.yul\":2819:2894   */\n      tag_109\n        /* \"#utility.yul\":2890:2893   */\n      dup3\n        /* \"#utility.yul\":2881:2887   */\n      dup6\n        /* \"#utility.yul\":2819:2894   */\n      tag_86\n      jump\t// in\n    tag_109:\n        /* \"#utility.yul\":2919:2921   */\n      0x20\n        /* \"#utility.yul\":2914:2917   */\n      dup3\n        /* \"#utility.yul\":2910:2922   */\n      add\n        /* \"#utility.yul\":2903:2922   */\n      swap2\n      pop\n        /* \"#utility.yul\":2932:3007   */\n      tag_110\n        /* \"#utility.yul\":3003:3006   */\n      dup3\n        /* \"#utility.yul\":2994:3000   */\n      dup5\n        /* \"#utility.yul\":2932:3007   */\n      tag_86\n      jump\t// in\n    tag_110:\n        /* \"#utility.yul\":3032:3034   */\n      0x20\n        /* \"#utility.yul\":3027:3030   */\n      dup3\n        /* \"#utility.yul\":3023:3035   */\n      add\n        /* \"#utility.yul\":3016:3035   */\n      swap2\n      pop\n        /* \"#utility.yul\":3052:3055   */\n      dup2\n        /* \"#utility.yul\":3045:3055   */\n      swap1\n      pop\n        /* \"#utility.yul\":2387:3061   */\n      swap6\n      swap5\n      pop\n      pop\n      pop\n      pop\n      pop\n      jump\t// out\n        /* \"#utility.yul\":3067:3289   */\n    tag_12:\n        /* \"#utility.yul\":3160:3164   */\n      0x00\n        /* \"#utility.yul\":3198:3200   */\n      0x20\n        /* \"#utility.yul\":3187:3196   */\n      dup3\n        /* \"#utility.yul\":3183:3201   */\n      add\n        /* \"#utility.yul\":3175:3201   */\n      swap1\n      pop\n        /* \"#utility.yul\":3211:3282   */\n      tag_112\n        /* \"#utility.yul\":3279:3280   */\n      0x00\n        /* \"#utility.yul\":3268:3277   */\n      dup4\n        /* \"#utility.yul\":3264:3281   */\n      add\n        /* \"#utility.yul\":3255:3261   */\n      dup5\n        /* \"#utility.yul\":3211:3282   */\n      tag_71\n      jump\t// in\n    tag_112:\n        /* \"#utility.yul\":3067:3289   */\n      swap3\n      swap2\n      pop\n      pop\n      jump\t// out\n        /* \"#utility.yul\":3295:3627   */\n    tag_37:\n        /* \"#utility.yul\":3416:3420   */\n      0x00\n        /* \"#utility.yul\":3454:3456   */\n      0x40\n        /* \"#utility.yul\":3443:3452   */\n      dup3\n        /* \"#utility.yul\":3439:3457   */\n      add\n        /* \"#utility.yul\":3431:3457   */\n      swap1\n      pop\n        /* \"#utility.yul\":3467:3538   */\n      tag_114\n        /* \"#utility.yul\":3535:3536   */\n      0x00\n        /* \"#utility.yul\":3524:3533   */\n      dup4\n        /* \"#utility.yul\":3520:3537   */\n      add\n        /* \"#utility.yul\":3511:3517   */\n      dup6\n        /* \"#utility.yul\":3467:3538   */\n      tag_71\n      jump\t// in\n    tag_114:\n        /* \"#utility.yul\":3548:3620   */\n      tag_115\n        /* \"#utility.yul\":3616:3618   */\n      0x20\n        /* \"#utility.yul\":3605:3614   */\n      dup4\n        /* \"#utility.yul\":3601:3619   */\n      add\n        /* \"#utility.yul\":3592:3598   */\n      dup5\n        /* \"#utility.yul\":3548:3620   */\n      tag_71\n      jump\t// in\n    tag_115:\n        /* \"#utility.yul\":3295:3627   */\n      swap4\n      swap3\n      pop\n      pop\n      pop\n      jump\t// out\n        /* \"#utility.yul\":3633:4052   */\n    tag_28:\n        /* \"#utility.yul\":3799:3803   */\n      0x00\n        /* \"#utility.yul\":3837:3839   */\n      0x20\n        /* \"#utility.yul\":3826:3835   */\n      dup3\n        /* \"#utility.yul\":3822:3840   */\n      add\n        /* \"#utility.yul\":3814:3840   */\n      swap1\n      pop\n        /* \"#utility.yul\":3886:3895   */\n      dup2\n        /* \"#utility.yul\":3880:3884   */\n      dup2\n        /* \"#utility.yul\":3876:3896   */\n      sub\n        /* \"#utility.yul\":3872:3873   */\n      0x00\n        /* \"#utility.yul\":3861:3870   */\n      dup4\n        /* \"#utility.yul\":3857:3874   */\n      add\n        /* \"#utility.yul\":3850:3897   */\n      mstore\n        /* \"#utility.yul\":3914:4045   */\n      tag_117\n        /* \"#utility.yul\":4040:4044   */\n      dup2\n        /* \"#utility.yul\":3914:4045   */\n      tag_92\n      jump\t// in\n    tag_117:\n        /* \"#utility.yul\":3906:4045   */\n      swap1\n      pop\n        /* \"#utility.yul\":3633:4052   */\n      swap2\n      swap1\n      pop\n      jump\t// out\n        /* \"#utility.yul\":4058:4477   */\n    tag_53:\n        /* \"#utility.yul\":4224:4228   */\n      0x00\n        /* \"#utility.yul\":4262:4264   */\n      0x20\n        /* \"#utility.yul\":4251:4260   */\n      dup3\n        /* \"#utility.yul\":4247:4265   */\n      add\n        /* \"#utility.yul\":4239:4265   */\n      swap1\n      pop\n        /* \"#utility.yul\":4311:4320   */\n      dup2\n        /* \"#utility.yul\":4305:4309   */\n      dup2\n        /* \"#utility.yul\":4301:4321   */\n      sub\n        /* \"#utility.yul\":4297:4298   */\n      0x00\n        /* \"#utility.yul\":4286:4295   */\n      dup4\n        /* \"#utility.yul\":4282:4299   */\n      add\n        /* \"#utility.yul\":4275:4322   */\n      mstore\n        /* \"#utility.yul\":4339:4470   */\n      tag_119\n        /* \"#utility.yul\":4465:4469   */\n      dup2\n        /* \"#utility.yul\":4339:4470   */\n      tag_98\n      jump\t// in\n    tag_119:\n        /* \"#utility.yul\":4331:4470   */\n      swap1\n      pop\n        /* \"#utility.yul\":4058:4477   */\n      swap2\n      swap1\n      pop\n      jump\t// out\n        /* \"#utility.yul\":4564:4733   */\n    tag_95:\n        /* \"#utility.yul\":4648:4659   */\n      0x00\n        /* \"#utility.yul\":4682:4688   */\n      dup3\n        /* \"#utility.yul\":4677:4680   */\n      dup3\n        /* \"#utility.yul\":4670:4689   */\n      mstore\n        /* \"#utility.yul\":4722:4726   */\n      0x20\n        /* \"#utility.yul\":4717:4720   */\n      dup3\n        /* \"#utility.yul\":4713:4727   */\n      add\n        /* \"#utility.yul\":4698:4727   */\n      swap1\n      pop\n        /* \"#utility.yul\":4564:4733   */\n      swap3\n      swap2\n      pop\n      pop\n      jump\t// out\n        /* \"#utility.yul\":4739:4835   */\n    tag_74:\n        /* \"#utility.yul\":4776:4783   */\n      0x00\n        /* \"#utility.yul\":4805:4829   */\n      tag_124\n        /* \"#utility.yul\":4823:4828   */\n      dup3\n        /* \"#utility.yul\":4805:4829   */\n      tag_125\n      jump\t// in\n    tag_124:\n        /* \"#utility.yul\":4794:4829   */\n      swap1\n      pop\n        /* \"#utility.yul\":4739:4835   */\n      swap2\n      swap1\n      pop\n      jump\t// out\n        /* \"#utility.yul\":4841:4990   */\n    tag_84:\n        /* \"#utility.yul\":4877:4884   */\n      0x00\n        /* \"#utility.yul\":4917:4983   */\n      0xff00000000000000000000000000000000000000000000000000000000000000\n        /* \"#utility.yul\":4910:4915   */\n      dup3\n        /* \"#utility.yul\":4906:4984   */\n      and\n        /* \"#utility.yul\":4895:4984   */\n      swap1\n      pop\n        /* \"#utility.yul\":4841:4990   */\n      swap2\n      swap1\n      pop\n      jump\t// out\n        /* \"#utility.yul\":4996:5073   */\n    tag_90:\n        /* \"#utility.yul\":5033:5040   */\n      0x00\n        /* \"#utility.yul\":5062:5067   */\n      dup2\n        /* \"#utility.yul\":5051:5067   */\n      swap1\n      pop\n        /* \"#utility.yul\":4996:5073   */\n      swap2\n      swap1\n      pop\n      jump\t// out\n        /* \"#utility.yul\":5079:5205   */\n    tag_125:\n        /* \"#utility.yul\":5116:5123   */\n      0x00\n        /* \"#utility.yul\":5156:5198   */\n      0xffffffffffffffffffffffffffffffffffffffff\n        /* \"#utility.yul\":5149:5154   */\n      dup3\n        /* \"#utility.yul\":5145:5199   */\n      and\n        /* \"#utility.yul\":5134:5199   */\n      swap1\n      pop\n        /* \"#utility.yul\":5079:5205   */\n      swap2\n      swap1\n      pop\n      jump\t// out\n        /* \"#utility.yul\":5211:5311   */\n    tag_79:\n        /* \"#utility.yul\":5250:5257   */\n      0x00\n        /* \"#utility.yul\":5279:5305   */\n      tag_130\n        /* \"#utility.yul\":5299:5304   */\n      dup3\n        /* \"#utility.yul\":5279:5305   */\n      tag_131\n      jump\t// in\n    tag_130:\n        /* \"#utility.yul\":5268:5305   */\n      swap1\n      pop\n        /* \"#utility.yul\":5211:5311   */\n      swap2\n      swap1\n      pop\n      jump\t// out\n        /* \"#utility.yul\":5317:5395   */\n    tag_85:\n        /* \"#utility.yul\":5355:5362   */\n      0x00\n        /* \"#utility.yul\":5384:5389   */\n      dup2\n        /* \"#utility.yul\":5373:5389   */\n      swap1\n      pop\n        /* \"#utility.yul\":5317:5395   */\n      swap2\n      swap1\n      pop\n      jump\t// out\n        /* \"#utility.yul\":5401:5480   */\n    tag_91:\n        /* \"#utility.yul\":5440:5447   */\n      0x00\n        /* \"#utility.yul\":5469:5474   */\n      dup2\n        /* \"#utility.yul\":5458:5474   */\n      swap1\n      pop\n        /* \"#utility.yul\":5401:5480   */\n      swap2\n      swap1\n      pop\n      jump\t// out\n        /* \"#utility.yul\":5486:5580   */\n    tag_131:\n        /* \"#utility.yul\":5525:5532   */\n      0x00\n        /* \"#utility.yul\":5554:5574   */\n      tag_135\n        /* \"#utility.yul\":5568:5573   */\n      dup3\n        /* \"#utility.yul\":5554:5574   */\n      tag_136\n      jump\t// in\n    tag_135:\n        /* \"#utility.yul\":5543:5574   */\n      swap1\n      pop\n        /* \"#utility.yul\":5486:5580   */\n      swap2\n      swap1\n      pop\n      jump\t// out\n        /* \"#utility.yul\":5709:5826   */\n    tag_68:\n        /* \"#utility.yul\":5818:5819   */\n      0x00\n        /* \"#utility.yul\":5815:5816   */\n      dup1\n        /* \"#utility.yul\":5808:5820   */\n      revert\n        /* \"#utility.yul\":5832:5926   */\n    tag_136:\n        /* \"#utility.yul\":5865:5873   */\n      0x00\n        /* \"#utility.yul\":5913:5918   */\n      dup2\n        /* \"#utility.yul\":5909:5911   */\n      0x60\n        /* \"#utility.yul\":5905:5919   */\n      shl\n        /* \"#utility.yul\":5884:5919   */\n      swap1\n      pop\n        /* \"#utility.yul\":5832:5926   */\n      swap2\n      swap1\n      pop\n      jump\t// out\n        /* \"#utility.yul\":5932:6087   */\n    tag_97:\n        /* \"#utility.yul\":6072:6079   */\n      0x6572726f72000000000000000000000000000000000000000000000000000000\n        /* \"#utility.yul\":6068:6069   */\n      0x00\n        /* \"#utility.yul\":6060:6066   */\n      dup3\n        /* \"#utility.yul\":6056:6070   */\n      add\n        /* \"#utility.yul\":6049:6080   */\n      mstore\n        /* \"#utility.yul\":5932:6087   */\n      pop\n      jump\t// out\n        /* \"#utility.yul\":6093:6262   */\n    tag_102:\n        /* \"#utility.yul\":6233:6254   */\n      0x4944454e544943414c5f41444452455353455300000000000000000000000000\n        /* \"#utility.yul\":6229:6230   */\n      0x00\n        /* \"#utility.yul\":6221:6227   */\n      dup3\n        /* \"#utility.yul\":6217:6231   */\n      add\n        /* \"#utility.yul\":6210:6255   */\n      mstore\n        /* \"#utility.yul\":6093:6262   */\n      pop\n      jump\t// out\n        /* \"#utility.yul\":6268:6390   */\n    tag_64:\n        /* \"#utility.yul\":6341:6365   */\n      tag_144\n        /* \"#utility.yul\":6359:6364   */\n      dup2\n        /* \"#utility.yul\":6341:6365   */\n      tag_74\n      jump\t// in\n    tag_144:\n        /* \"#utility.yul\":6334:6339   */\n      dup2\n        /* \"#utility.yul\":6331:6366   */\n      eq\n        /* \"#utility.yul\":6321:6384   */\n      tag_145\n      jumpi\n        /* \"#utility.yul\":6380:6381   */\n      0x00\n        /* \"#utility.yul\":6377:6378   */\n      dup1\n        /* \"#utility.yul\":6370:6382   */\n      revert\n        /* \"#utility.yul\":6321:6384   */\n    tag_145:\n        /* \"#utility.yul\":6268:6390   */\n      pop\n      jump\t// out\n    stop\n\n    sub_0: assembly {\n            /* \"contracts/pairCon.sol\":70:406  contract PairCon {... */\n          mstore(0x40, 0x80)\n            /* \"contracts/pairCon.sol\":195:205  msg.sender */\n          caller\n            /* \"contracts/pairCon.sol\":186:192  factor */\n          0x00\n          dup1\n            /* \"contracts/pairCon.sol\":186:205  factor = msg.sender */\n          0x0100\n          exp\n          dup2\n          sload\n          dup2\n          0xffffffffffffffffffffffffffffffffffffffff\n          mul\n          not\n          and\n          swap1\n          dup4\n          0xffffffffffffffffffffffffffffffffffffffff\n          and\n          mul\n          or\n          swap1\n          sstore\n          pop\n            /* \"contracts/pairCon.sol\":70:406  contract PairCon {... */\n          dataSize(sub_0)\n          dup1\n          dataOffset(sub_0)\n          0x00\n          codecopy\n          0x00\n          return\n        stop\n\n        sub_0: assembly {\n                /* \"contracts/pairCon.sol\":70:406  contract PairCon {... */\n              mstore(0x40, 0x80)\n              callvalue\n              dup1\n              iszero\n              tag_1\n              jumpi\n              0x00\n              dup1\n              revert\n            tag_1:\n              pop\n              jumpi(tag_2, lt(calldatasize, 0x04))\n              shr(0xe0, calldataload(0x00))\n              dup1\n              0xf09a4016\n              eq\n              tag_3\n              jumpi\n            tag_2:\n              0x00\n              dup1\n              revert\n                /* \"contracts/pairCon.sol\":218:404  function init(address _token0, address _token1) external {... */\n            tag_3:\n              tag_4\n              0x04\n              dup1\n              calldatasize\n              sub\n              dup2\n              add\n              swap1\n              tag_5\n              swap2\n              swap1\n              tag_6\n              jump\t// in\n            tag_5:\n              tag_7\n              jump\t// in\n            tag_4:\n              stop\n            tag_7:\n                /* \"contracts/pairCon.sol\":307:313  factor */\n              0x00\n              dup1\n              sload\n              swap1\n              0x0100\n              exp\n              swap1\n              div\n              0xffffffffffffffffffffffffffffffffffffffff\n              and\n                /* \"contracts/pairCon.sol\":293:313  msg.sender == factor */\n              0xffffffffffffffffffffffffffffffffffffffff\n              and\n                /* \"contracts/pairCon.sol\":293:303  msg.sender */\n              caller\n                /* \"contracts/pairCon.sol\":293:313  msg.sender == factor */\n              0xffffffffffffffffffffffffffffffffffffffff\n              and\n              eq\n                /* \"contracts/pairCon.sol\":285:345  require(msg.sender == factor, \"error of msg.sender!=factor\") */\n              tag_9\n              jumpi\n              mload(0x40)\n              0x08c379a000000000000000000000000000000000000000000000000000000000\n              dup2\n              mstore\n              0x04\n              add\n              tag_10\n              swap1\n              tag_11\n              jump\t// in\n            tag_10:\n              mload(0x40)\n              dup1\n              swap2\n              sub\n              swap1\n              revert\n            tag_9:\n                /* \"contracts/pairCon.sol\":364:371  _token0 */\n              dup2\n                /* \"contracts/pairCon.sol\":355:361  token0 */\n              0x01\n              0x00\n                /* \"contracts/pairCon.sol\":355:371  token0 = _token0 */\n              0x0100\n              exp\n              dup2\n              sload\n              dup2\n              0xffffffffffffffffffffffffffffffffffffffff\n              mul\n              not\n              and\n              swap1\n              dup4\n              0xffffffffffffffffffffffffffffffffffffffff\n              and\n              mul\n              or\n              swap1\n              sstore\n              pop\n                /* \"contracts/pairCon.sol\":390:397  _token1 */\n              dup1\n                /* \"contracts/pairCon.sol\":381:387  token1 */\n              0x02\n              0x00\n                /* \"contracts/pairCon.sol\":381:397  token1 = _token1 */\n              0x0100\n              exp\n              dup2\n              sload\n              dup2\n              0xffffffffffffffffffffffffffffffffffffffff\n              mul\n              not\n              and\n              swap1\n              dup4\n              0xffffffffffffffffffffffffffffffffffffffff\n              and\n              mul\n              or\n              swap1\n              sstore\n              pop\n                /* \"contracts/pairCon.sol\":218:404  function init(address _token0, address _token1) external {... */\n              pop\n              pop\n              jump\t// out\n                /* \"#utility.yul\":7:146   */\n            tag_13:\n                /* \"#utility.yul\":53:58   */\n              0x00\n                /* \"#utility.yul\":91:97   */\n              dup2\n                /* \"#utility.yul\":78:98   */\n              calldataload\n                /* \"#utility.yul\":69:98   */\n              swap1\n              pop\n                /* \"#utility.yul\":107:140   */\n              tag_15\n                /* \"#utility.yul\":134:139   */\n              dup2\n                /* \"#utility.yul\":107:140   */\n              tag_16\n              jump\t// in\n            tag_15:\n                /* \"#utility.yul\":7:146   */\n              swap3\n              swap2\n              pop\n              pop\n              jump\t// out\n                /* \"#utility.yul\":152:626   */\n            tag_6:\n                /* \"#utility.yul\":220:226   */\n              0x00\n                /* \"#utility.yul\":228:234   */\n              dup1\n                /* \"#utility.yul\":277:279   */\n              0x40\n                /* \"#utility.yul\":265:274   */\n              dup4\n                /* \"#utility.yul\":256:263   */\n              dup6\n                /* \"#utility.yul\":252:275   */\n              sub\n                /* \"#utility.yul\":248:280   */\n              slt\n                /* \"#utility.yul\":245:364   */\n              iszero\n              tag_18\n              jumpi\n                /* \"#utility.yul\":283:362   */\n              tag_19\n              tag_20\n              jump\t// in\n            tag_19:\n                /* \"#utility.yul\":245:364   */\n            tag_18:\n                /* \"#utility.yul\":403:404   */\n              0x00\n                /* \"#utility.yul\":428:481   */\n              tag_21\n                /* \"#utility.yul\":473:480   */\n              dup6\n                /* \"#utility.yul\":464:470   */\n              dup3\n                /* \"#utility.yul\":453:462   */\n              dup7\n                /* \"#utility.yul\":449:471   */\n              add\n                /* \"#utility.yul\":428:481   */\n              tag_13\n              jump\t// in\n            tag_21:\n                /* \"#utility.yul\":418:481   */\n              swap3\n              pop\n                /* \"#utility.yul\":374:491   */\n              pop\n                /* \"#utility.yul\":530:532   */\n              0x20\n                /* \"#utility.yul\":556:609   */\n              tag_22\n                /* \"#utility.yul\":601:608   */\n              dup6\n                /* \"#utility.yul\":592:598   */\n              dup3\n                /* \"#utility.yul\":581:590   */\n              dup7\n                /* \"#utility.yul\":577:599   */\n              add\n                /* \"#utility.yul\":556:609   */\n              tag_13\n              jump\t// in\n            tag_22:\n                /* \"#utility.yul\":546:609   */\n              swap2\n              pop\n                /* \"#utility.yul\":501:619   */\n              pop\n                /* \"#utility.yul\":152:626   */\n              swap3\n              pop\n              swap3\n              swap1\n              pop\n              jump\t// out\n                /* \"#utility.yul\":632:998   */\n            tag_23:\n                /* \"#utility.yul\":774:777   */\n              0x00\n                /* \"#utility.yul\":795:862   */\n              tag_25\n                /* \"#utility.yul\":859:861   */\n              0x1b\n                /* \"#utility.yul\":854:857   */\n              dup4\n                /* \"#utility.yul\":795:862   */\n              tag_26\n              jump\t// in\n            tag_25:\n                /* \"#utility.yul\":788:862   */\n              swap2\n              pop\n                /* \"#utility.yul\":871:964   */\n              tag_27\n                /* \"#utility.yul\":960:963   */\n              dup3\n                /* \"#utility.yul\":871:964   */\n              tag_28\n              jump\t// in\n            tag_27:\n                /* \"#utility.yul\":989:991   */\n              0x20\n                /* \"#utility.yul\":984:987   */\n              dup3\n                /* \"#utility.yul\":980:992   */\n              add\n                /* \"#utility.yul\":973:992   */\n              swap1\n              pop\n                /* \"#utility.yul\":632:998   */\n              swap2\n              swap1\n              pop\n              jump\t// out\n                /* \"#utility.yul\":1004:1423   */\n            tag_11:\n                /* \"#utility.yul\":1170:1174   */\n              0x00\n                /* \"#utility.yul\":1208:1210   */\n              0x20\n                /* \"#utility.yul\":1197:1206   */\n              dup3\n                /* \"#utility.yul\":1193:1211   */\n              add\n                /* \"#utility.yul\":1185:1211   */\n              swap1\n              pop\n                /* \"#utility.yul\":1257:1266   */\n              dup2\n                /* \"#utility.yul\":1251:1255   */\n              dup2\n                /* \"#utility.yul\":1247:1267   */\n              sub\n                /* \"#utility.yul\":1243:1244   */\n              0x00\n                /* \"#utility.yul\":1232:1241   */\n              dup4\n                /* \"#utility.yul\":1228:1245   */\n              add\n                /* \"#utility.yul\":1221:1268   */\n              mstore\n                /* \"#utility.yul\":1285:1416   */\n              tag_30\n                /* \"#utility.yul\":1411:1415   */\n              dup2\n                /* \"#utility.yul\":1285:1416   */\n              tag_23\n              jump\t// in\n            tag_30:\n                /* \"#utility.yul\":1277:1416   */\n              swap1\n              pop\n                /* \"#utility.yul\":1004:1423   */\n              swap2\n              swap1\n              pop\n              jump\t// out\n                /* \"#utility.yul\":1510:1679   */\n            tag_26:\n                /* \"#utility.yul\":1594:1605   */\n              0x00\n                /* \"#utility.yul\":1628:1634   */\n              dup3\n                /* \"#utility.yul\":1623:1626   */\n              dup3\n                /* \"#utility.yul\":1616:1635   */\n              mstore\n                /* \"#utility.yul\":1668:1672   */\n              0x20\n                /* \"#utility.yul\":1663:1666   */\n              dup3\n                /* \"#utility.yul\":1659:1673   */\n              add\n                /* \"#utility.yul\":1644:1673   */\n              swap1\n              pop\n                /* \"#utility.yul\":1510:1679   */\n              swap3\n              swap2\n              pop\n              pop\n              jump\t// out\n                /* \"#utility.yul\":1685:1781   */\n            tag_34:\n                /* \"#utility.yul\":1722:1729   */\n              0x00\n                /* \"#utility.yul\":1751:1775   */\n              tag_36\n                /* \"#utility.yul\":1769:1774   */\n              dup3\n                /* \"#utility.yul\":1751:1775   */\n              tag_37\n              jump\t// in\n            tag_36:\n                /* \"#utility.yul\":1740:1775   */\n              swap1\n              pop\n                /* \"#utility.yul\":1685:1781   */\n              swap2\n              swap1\n              pop\n              jump\t// out\n                /* \"#utility.yul\":1787:1913   */\n            tag_37:\n                /* \"#utility.yul\":1824:1831   */\n              0x00\n                /* \"#utility.yul\":1864:1906   */\n              0xffffffffffffffffffffffffffffffffffffffff\n                /* \"#utility.yul\":1857:1862   */\n              dup3\n                /* \"#utility.yul\":1853:1907   */\n              and\n                /* \"#utility.yul\":1842:1907   */\n              swap1\n              pop\n                /* \"#utility.yul\":1787:1913   */\n              swap2\n              swap1\n              pop\n              jump\t// out\n                /* \"#utility.yul\":2042:2159   */\n            tag_20:\n                /* \"#utility.yul\":2151:2152   */\n              0x00\n                /* \"#utility.yul\":2148:2149   */\n              dup1\n                /* \"#utility.yul\":2141:2153   */\n              revert\n                /* \"#utility.yul\":2165:2342   */\n            tag_28:\n                /* \"#utility.yul\":2305:2334   */\n              0x6572726f72206f66206d73672e73656e646572213d666163746f720000000000\n                /* \"#utility.yul\":2301:2302   */\n              0x00\n                /* \"#utility.yul\":2293:2299   */\n              dup3\n                /* \"#utility.yul\":2289:2303   */\n              add\n                /* \"#utility.yul\":2282:2335   */\n              mstore\n                /* \"#utility.yul\":2165:2342   */\n              pop\n              jump\t// out\n                /* \"#utility.yul\":2348:2470   */\n            tag_16:\n                /* \"#utility.yul\":2421:2445   */\n              tag_44\n                /* \"#utility.yul\":2439:2444   */\n              dup2\n                /* \"#utility.yul\":2421:2445   */\n              tag_34\n              jump\t// in\n            tag_44:\n                /* \"#utility.yul\":2414:2419   */\n              dup2\n                /* \"#utility.yul\":2411:2446   */\n              eq\n                /* \"#utility.yul\":2401:2464   */\n              tag_45\n              jumpi\n                /* \"#utility.yul\":2460:2461   */\n              0x00\n                /* \"#utility.yul\":2457:2458   */\n              dup1\n                /* \"#utility.yul\":2450:2462   */\n              revert\n                /* \"#utility.yul\":2401:2464   */\n            tag_45:\n                /* \"#utility.yul\":2348:2470   */\n              pop\n              jump\t// out\n\n            auxdata: 0xa26469706673582212204a326baab14879b58508b99c8515f8dd64e32fa9b8d1d4cf6ceb89c0ca614a5a64736f6c63430008070033\n        }\n    }\n\n    auxdata: 0xa26469706673582212204c3c6732937a947477c4872671a492691cace58a9249daa385477673e3b79f4464736f6c63430008070033\n}\n",
				"bytecode": {
					"linkReferences": {},
					"object": "608060405234801561001057600080fd5b50610ee4806100206000396000f3fe608060405234801561001057600080fd5b506004361061004c5760003560e01c8063b41edcb314610051578063c9c6539614610081578063df06b188146100b1578063e6a43905146100e1575b600080fd5b61006b600480360381019061006691906108a1565b610111565b60405161007891906109f5565b60405180910390f35b61009b600480360381019061009691906108a1565b610476565b6040516100a891906109f5565b60405180910390f35b6100cb60048036038101906100c691906108a1565b6106f2565b6040516100d891906109f5565b60405180910390f35b6100fb60048036038101906100f691906108a1565b61083d565b60405161010891906109f5565b60405180910390f35b60008173ffffffffffffffffffffffffffffffffffffffff168373ffffffffffffffffffffffffffffffffffffffff161415610182576040517f08c379a000000000000000000000000000000000000000000000000000000000815260040161017990610a39565b60405180910390fd5b6000808373ffffffffffffffffffffffffffffffffffffffff168573ffffffffffffffffffffffffffffffffffffffff16106101bf5783856101c2565b84845b91509150600082826040516020016101db92919061097b565b6040516020818303038152906040528051906020012090506000816040516102029061087f565b8190604051809103906000f5905080158015610222573d6000803e3d6000fd5b5090508073ffffffffffffffffffffffffffffffffffffffff1663f09a401688886040518363ffffffff1660e01b8152600401610260929190610a10565b600060405180830381600087803b15801561027a57600080fd5b505af115801561028e573d6000803e3d6000fd5b505050508094506001859080600181540180825580915050600190039060005260206000200160009091909190916101000a81548173ffffffffffffffffffffffffffffffffffffffff021916908373ffffffffffffffffffffffffffffffffffffffff160217905550846000808973ffffffffffffffffffffffffffffffffffffffff1673ffffffffffffffffffffffffffffffffffffffff16815260200190815260200160002060008873ffffffffffffffffffffffffffffffffffffffff1673ffffffffffffffffffffffffffffffffffffffff16815260200190815260200160002060006101000a81548173ffffffffffffffffffffffffffffffffffffffff021916908373ffffffffffffffffffffffffffffffffffffffff160217905550846000808873ffffffffffffffffffffffffffffffffffffffff1673ffffffffffffffffffffffffffffffffffffffff16815260200190815260200160002060008973ffffffffffffffffffffffffffffffffffffffff1673ffffffffffffffffffffffffffffffffffffffff16815260200190815260200160002060006101000a81548173ffffffffffffffffffffffffffffffffffffffff021916908373ffffffffffffffffffffffffffffffffffffffff1602179055505050505092915050565b6000806040516104859061087f565b604051809103906000f0801580156104a1573d6000803e3d6000fd5b5090508073ffffffffffffffffffffffffffffffffffffffff1663f09a401685856040518363ffffffff1660e01b81526004016104df929190610a10565b600060405180830381600087803b1580156104f957600080fd5b505af115801561050d573d6000803e3d6000fd5b505050508091506001829080600181540180825580915050600190039060005260206000200160009091909190916101000a81548173ffffffffffffffffffffffffffffffffffffffff021916908373ffffffffffffffffffffffffffffffffffffffff160217905550816000808673ffffffffffffffffffffffffffffffffffffffff1673ffffffffffffffffffffffffffffffffffffffff16815260200190815260200160002060008573ffffffffffffffffffffffffffffffffffffffff1673ffffffffffffffffffffffffffffffffffffffff16815260200190815260200160002060006101000a81548173ffffffffffffffffffffffffffffffffffffffff021916908373ffffffffffffffffffffffffffffffffffffffff160217905550816000808673ffffffffffffffffffffffffffffffffffffffff1673ffffffffffffffffffffffffffffffffffffffff16815260200190815260200160002060008573ffffffffffffffffffffffffffffffffffffffff1673ffffffffffffffffffffffffffffffffffffffff16815260200190815260200160002060006101000a81548173ffffffffffffffffffffffffffffffffffffffff021916908373ffffffffffffffffffffffffffffffffffffffff1602179055505092915050565b60008173ffffffffffffffffffffffffffffffffffffffff168373ffffffffffffffffffffffffffffffffffffffff161415610763576040517f08c379a000000000000000000000000000000000000000000000000000000000815260040161075a90610a59565b60405180910390fd5b6000808373ffffffffffffffffffffffffffffffffffffffff168573ffffffffffffffffffffffffffffffffffffffff16106107a05783856107a3565b84845b91509150600082826040516020016107bc92919061097b565b60405160208183030381529060405280519060200120905060ff60f81b3082604051806020016107eb9061087f565b6020820181038252601f19601f820116604052508051906020012060405160200161081994939291906109a7565b6040516020818303038152906040528051906020012060001c935050505092915050565b60006020528160005260406000206020528060005260406000206000915091509054906101000a900473ffffffffffffffffffffffffffffffffffffffff1681565b61030980610ba683390190565b60008135905061089b81610b8e565b92915050565b600080604083850312156108b8576108b7610b2a565b5b60006108c68582860161088c565b92505060206108d78582860161088c565b9150509250929050565b6108ea81610a8a565b82525050565b6109016108fc82610a8a565b610af2565b82525050565b61091861091382610a9c565b610b04565b82525050565b61092f61092a82610ac8565b610b0e565b82525050565b6000610942600583610a79565b915061094d82610b3c565b602082019050919050565b6000610965601383610a79565b915061097082610b65565b602082019050919050565b600061098782856108f0565b60148201915061099782846108f0565b6014820191508190509392505050565b60006109b38287610907565b6001820191506109c382866108f0565b6014820191506109d3828561091e565b6020820191506109e3828461091e565b60208201915081905095945050505050565b6000602082019050610a0a60008301846108e1565b92915050565b6000604082019050610a2560008301856108e1565b610a3260208301846108e1565b9392505050565b60006020820190508181036000830152610a5281610935565b9050919050565b60006020820190508181036000830152610a7281610958565b9050919050565b600082825260208201905092915050565b6000610a9582610ad2565b9050919050565b60007fff0000000000000000000000000000000000000000000000000000000000000082169050919050565b6000819050919050565b600073ffffffffffffffffffffffffffffffffffffffff82169050919050565b6000610afd82610b18565b9050919050565b6000819050919050565b6000819050919050565b6000610b2382610b2f565b9050919050565b600080fd5b60008160601b9050919050565b7f6572726f72000000000000000000000000000000000000000000000000000000600082015250565b7f4944454e544943414c5f41444452455353455300000000000000000000000000600082015250565b610b9781610a8a565b8114610ba257600080fd5b5056fe6080604052336000806101000a81548173ffffffffffffffffffffffffffffffffffffffff021916908373ffffffffffffffffffffffffffffffffffffffff1602179055506102b6806100536000396000f3fe608060405234801561001057600080fd5b506004361061002b5760003560e01c8063f09a401614610030575b600080fd5b61004a60048036038101906100459190610175565b61004c565b005b60008054906101000a900473ffffffffffffffffffffffffffffffffffffffff1673ffffffffffffffffffffffffffffffffffffffff163373ffffffffffffffffffffffffffffffffffffffff16146100da576040517f08c379a00000000000000000000000000000000000000000000000000000000081526004016100d1906101d8565b60405180910390fd5b81600160006101000a81548173ffffffffffffffffffffffffffffffffffffffff021916908373ffffffffffffffffffffffffffffffffffffffff16021790555080600260006101000a81548173ffffffffffffffffffffffffffffffffffffffff021916908373ffffffffffffffffffffffffffffffffffffffff1602179055505050565b60008135905061016f81610269565b92915050565b6000806040838503121561018c5761018b61023b565b5b600061019a85828601610160565b92505060206101ab85828601610160565b9150509250929050565b60006101c2601b836101f8565b91506101cd82610240565b602082019050919050565b600060208201905081810360008301526101f1816101b5565b9050919050565b600082825260208201905092915050565b60006102148261021b565b9050919050565b600073ffffffffffffffffffffffffffffffffffffffff82169050919050565b600080fd5b7f6572726f72206f66206d73672e73656e646572213d666163746f720000000000600082015250565b61027281610209565b811461027d57600080fd5b5056fea26469706673582212204a326baab14879b58508b99c8515f8dd64e32fa9b8d1d4cf6ceb89c0ca614a5a64736f6c63430008070033a26469706673582212204c3c6732937a947477c4872671a492691cace58a9249daa385477673e3b79f4464736f6c63430008070033",
					"opcodes": "PUSH1 0x80 PUSH1 0x40 MSTORE CALLVALUE DUP1 ISZERO PUSH2 0x10 JUMPI PUSH1 0x0 DUP1 REVERT JUMPDEST POP PUSH2 0xEE4 DUP1 PUSH2 0x20 PUSH1 0x0 CODECOPY PUSH1 0x0 RETURN INVALID PUSH1 0x80 PUSH1 0x40 MSTORE CALLVALUE DUP1 ISZERO PUSH2 0x10 JUMPI PUSH1 0x0 DUP1 REVERT JUMPDEST POP PUSH1 0x4 CALLDATASIZE LT PUSH2 0x4C JUMPI PUSH1 0x0 CALLDATALOAD PUSH1 0xE0 SHR DUP1 PUSH4 0xB41EDCB3 EQ PUSH2 0x51 JUMPI DUP1 PUSH4 0xC9C65396 EQ PUSH2 0x81 JUMPI DUP1 PUSH4 0xDF06B188 EQ PUSH2 0xB1 JUMPI DUP1 PUSH4 0xE6A43905 EQ PUSH2 0xE1 JUMPI JUMPDEST PUSH1 0x0 DUP1 REVERT JUMPDEST PUSH2 0x6B PUSH1 0x4 DUP1 CALLDATASIZE SUB DUP2 ADD SWAP1 PUSH2 0x66 SWAP2 SWAP1 PUSH2 0x8A1 JUMP JUMPDEST PUSH2 0x111 JUMP JUMPDEST PUSH1 0x40 MLOAD PUSH2 0x78 SWAP2 SWAP1 PUSH2 0x9F5 JUMP JUMPDEST PUSH1 0x40 MLOAD DUP1 SWAP2 SUB SWAP1 RETURN JUMPDEST PUSH2 0x9B PUSH1 0x4 DUP1 CALLDATASIZE SUB DUP2 ADD SWAP1 PUSH2 0x96 SWAP2 SWAP1 PUSH2 0x8A1 JUMP JUMPDEST PUSH2 0x476 JUMP JUMPDEST PUSH1 0x40 MLOAD PUSH2 0xA8 SWAP2 SWAP1 PUSH2 0x9F5 JUMP JUMPDEST PUSH1 0x40 MLOAD DUP1 SWAP2 SUB SWAP1 RETURN JUMPDEST PUSH2 0xCB PUSH1 0x4 DUP1 CALLDATASIZE SUB DUP2 ADD SWAP1 PUSH2 0xC6 SWAP2 SWAP1 PUSH2 0x8A1 JUMP JUMPDEST PUSH2 0x6F2 JUMP JUMPDEST PUSH1 0x40 MLOAD PUSH2 0xD8 SWAP2 SWAP1 PUSH2 0x9F5 JUMP JUMPDEST PUSH1 0x40 MLOAD DUP1 SWAP2 SUB SWAP1 RETURN JUMPDEST PUSH2 0xFB PUSH1 0x4 DUP1 CALLDATASIZE SUB DUP2 ADD SWAP1 PUSH2 0xF6 SWAP2 SWAP1 PUSH2 0x8A1 JUMP JUMPDEST PUSH2 0x83D JUMP JUMPDEST PUSH1 0x40 MLOAD PUSH2 0x108 SWAP2 SWAP1 PUSH2 0x9F5 JUMP JUMPDEST PUSH1 0x40 MLOAD DUP1 SWAP2 SUB SWAP1 RETURN JUMPDEST PUSH1 0x0 DUP2 PUSH20 0xFFFFFFFFFFFFFFFFFFFFFFFFFFFFFFFFFFFFFFFF AND DUP4 PUSH20 0xFFFFFFFFFFFFFFFFFFFFFFFFFFFFFFFFFFFFFFFF AND EQ ISZERO PUSH2 0x182 JUMPI PUSH1 0x40 MLOAD PUSH32 0x8C379A000000000000000000000000000000000000000000000000000000000 DUP2 MSTORE PUSH1 0x4 ADD PUSH2 0x179 SWAP1 PUSH2 0xA39 JUMP JUMPDEST PUSH1 0x40 MLOAD DUP1 SWAP2 SUB SWAP1 REVERT JUMPDEST PUSH1 0x0 DUP1 DUP4 PUSH20 0xFFFFFFFFFFFFFFFFFFFFFFFFFFFFFFFFFFFFFFFF AND DUP6 PUSH20 0xFFFFFFFFFFFFFFFFFFFFFFFFFFFFFFFFFFFFFFFF AND LT PUSH2 0x1BF JUMPI DUP4 DUP6 PUSH2 0x1C2 JUMP JUMPDEST DUP5 DUP5 JUMPDEST SWAP2 POP SWAP2 POP PUSH1 0x0 DUP3 DUP3 PUSH1 0x40 MLOAD PUSH1 0x20 ADD PUSH2 0x1DB SWAP3 SWAP2 SWAP1 PUSH2 0x97B JUMP JUMPDEST PUSH1 0x40 MLOAD PUSH1 0x20 DUP2 DUP4 SUB SUB DUP2 MSTORE SWAP1 PUSH1 0x40 MSTORE DUP1 MLOAD SWAP1 PUSH1 0x20 ADD KECCAK256 SWAP1 POP PUSH1 0x0 DUP2 PUSH1 0x40 MLOAD PUSH2 0x202 SWAP1 PUSH2 0x87F JUMP JUMPDEST DUP2 SWAP1 PUSH1 0x40 MLOAD DUP1 SWAP2 SUB SWAP1 PUSH1 0x0 CREATE2 SWAP1 POP DUP1 ISZERO DUP1 ISZERO PUSH2 0x222 JUMPI RETURNDATASIZE PUSH1 0x0 DUP1 RETURNDATACOPY RETURNDATASIZE PUSH1 0x0 REVERT JUMPDEST POP SWAP1 POP DUP1 PUSH20 0xFFFFFFFFFFFFFFFFFFFFFFFFFFFFFFFFFFFFFFFF AND PUSH4 0xF09A4016 DUP9 DUP9 PUSH1 0x40 MLOAD DUP4 PUSH4 0xFFFFFFFF AND PUSH1 0xE0 SHL DUP2 MSTORE PUSH1 0x4 ADD PUSH2 0x260 SWAP3 SWAP2 SWAP1 PUSH2 0xA10 JUMP JUMPDEST PUSH1 0x0 PUSH1 0x40 MLOAD DUP1 DUP4 SUB DUP2 PUSH1 0x0 DUP8 DUP1 EXTCODESIZE ISZERO DUP1 ISZERO PUSH2 0x27A JUMPI PUSH1 0x0 DUP1 REVERT JUMPDEST POP GAS CALL ISZERO DUP1 ISZERO PUSH2 0x28E JUMPI RETURNDATASIZE PUSH1 0x0 DUP1 RETURNDATACOPY RETURNDATASIZE PUSH1 0x0 REVERT JUMPDEST POP POP POP POP DUP1 SWAP5 POP PUSH1 0x1 DUP6 SWAP1 DUP1 PUSH1 0x1 DUP2 SLOAD ADD DUP1 DUP3 SSTORE DUP1 SWAP2 POP POP PUSH1 0x1 SWAP1 SUB SWAP1 PUSH1 0x0 MSTORE PUSH1 0x20 PUSH1 0x0 KECCAK256 ADD PUSH1 0x0 SWAP1 SWAP2 SWAP1 SWAP2 SWAP1 SWAP2 PUSH2 0x100 EXP DUP2 SLOAD DUP2 PUSH20 0xFFFFFFFFFFFFFFFFFFFFFFFFFFFFFFFFFFFFFFFF MUL NOT AND SWAP1 DUP4 PUSH20 0xFFFFFFFFFFFFFFFFFFFFFFFFFFFFFFFFFFFFFFFF AND MUL OR SWAP1 SSTORE POP DUP5 PUSH1 0x0 DUP1 DUP10 PUSH20 0xFFFFFFFFFFFFFFFFFFFFFFFFFFFFFFFFFFFFFFFF AND PUSH20 0xFFFFFFFFFFFFFFFFFFFFFFFFFFFFFFFFFFFFFFFF AND DUP2 MSTORE PUSH1 0x20 ADD SWAP1 DUP2 MSTORE PUSH1 0x20 ADD PUSH1 0x0 KECCAK256 PUSH1 0x0 DUP9 PUSH20 0xFFFFFFFFFFFFFFFFFFFFFFFFFFFFFFFFFFFFFFFF AND PUSH20 0xFFFFFFFFFFFFFFFFFFFFFFFFFFFFFFFFFFFFFFFF AND DUP2 MSTORE PUSH1 0x20 ADD SWAP1 DUP2 MSTORE PUSH1 0x20 ADD PUSH1 0x0 KECCAK256 PUSH1 0x0 PUSH2 0x100 EXP DUP2 SLOAD DUP2 PUSH20 0xFFFFFFFFFFFFFFFFFFFFFFFFFFFFFFFFFFFFFFFF MUL NOT AND SWAP1 DUP4 PUSH20 0xFFFFFFFFFFFFFFFFFFFFFFFFFFFFFFFFFFFFFFFF AND MUL OR SWAP1 SSTORE POP DUP5 PUSH1 0x0 DUP1 DUP9 PUSH20 0xFFFFFFFFFFFFFFFFFFFFFFFFFFFFFFFFFFFFFFFF AND PUSH20 0xFFFFFFFFFFFFFFFFFFFFFFFFFFFFFFFFFFFFFFFF AND DUP2 MSTORE PUSH1 0x20 ADD SWAP1 DUP2 MSTORE PUSH1 0x20 ADD PUSH1 0x0 KECCAK256 PUSH1 0x0 DUP10 PUSH20 0xFFFFFFFFFFFFFFFFFFFFFFFFFFFFFFFFFFFFFFFF AND PUSH20 0xFFFFFFFFFFFFFFFFFFFFFFFFFFFFFFFFFFFFFFFF AND DUP2 MSTORE PUSH1 0x20 ADD SWAP1 DUP2 MSTORE PUSH1 0x20 ADD PUSH1 0x0 KECCAK256 PUSH1 0x0 PUSH2 0x100 EXP DUP2 SLOAD DUP2 PUSH20 0xFFFFFFFFFFFFFFFFFFFFFFFFFFFFFFFFFFFFFFFF MUL NOT AND SWAP1 DUP4 PUSH20 0xFFFFFFFFFFFFFFFFFFFFFFFFFFFFFFFFFFFFFFFF AND MUL OR SWAP1 SSTORE POP POP POP POP POP SWAP3 SWAP2 POP POP JUMP JUMPDEST PUSH1 0x0 DUP1 PUSH1 0x40 MLOAD PUSH2 0x485 SWAP1 PUSH2 0x87F JUMP JUMPDEST PUSH1 0x40 MLOAD DUP1 SWAP2 SUB SWAP1 PUSH1 0x0 CREATE DUP1 ISZERO DUP1 ISZERO PUSH2 0x4A1 JUMPI RETURNDATASIZE PUSH1 0x0 DUP1 RETURNDATACOPY RETURNDATASIZE PUSH1 0x0 REVERT JUMPDEST POP SWAP1 POP DUP1 PUSH20 0xFFFFFFFFFFFFFFFFFFFFFFFFFFFFFFFFFFFFFFFF AND PUSH4 0xF09A4016 DUP6 DUP6 PUSH1 0x40 MLOAD DUP4 PUSH4 0xFFFFFFFF AND PUSH1 0xE0 SHL DUP2 MSTORE PUSH1 0x4 ADD PUSH2 0x4DF SWAP3 SWAP2 SWAP1 PUSH2 0xA10 JUMP JUMPDEST PUSH1 0x0 PUSH1 0x40 MLOAD DUP1 DUP4 SUB DUP2 PUSH1 0x0 DUP8 DUP1 EXTCODESIZE ISZERO DUP1 ISZERO PUSH2 0x4F9 JUMPI PUSH1 0x0 DUP1 REVERT JUMPDEST POP GAS CALL ISZERO DUP1 ISZERO PUSH2 0x50D JUMPI RETURNDATASIZE PUSH1 0x0 DUP1 RETURNDATACOPY RETURNDATASIZE PUSH1 0x0 REVERT JUMPDEST POP POP POP POP DUP1 SWAP2 POP PUSH1 0x1 DUP3 SWAP1 DUP1 PUSH1 0x1 DUP2 SLOAD ADD DUP1 DUP3 SSTORE DUP1 SWAP2 POP POP PUSH1 0x1 SWAP1 SUB SWAP1 PUSH1 0x0 MSTORE PUSH1 0x20 PUSH1 0x0 KECCAK256 ADD PUSH1 0x0 SWAP1 SWAP2 SWAP1 SWAP2 SWAP1 SWAP2 PUSH2 0x100 EXP DUP2 SLOAD DUP2 PUSH20 0xFFFFFFFFFFFFFFFFFFFFFFFFFFFFFFFFFFFFFFFF MUL NOT AND SWAP1 DUP4 PUSH20 0xFFFFFFFFFFFFFFFFFFFFFFFFFFFFFFFFFFFFFFFF AND MUL OR SWAP1 SSTORE POP DUP2 PUSH1 0x0 DUP1 DUP7 PUSH20 0xFFFFFFFFFFFFFFFFFFFFFFFFFFFFFFFFFFFFFFFF AND PUSH20 0xFFFFFFFFFFFFFFFFFFFFFFFFFFFFFFFFFFFFFFFF AND DUP2 MSTORE PUSH1 0x20 ADD SWAP1 DUP2 MSTORE PUSH1 0x20 ADD PUSH1 0x0 KECCAK256 PUSH1 0x0 DUP6 PUSH20 0xFFFFFFFFFFFFFFFFFFFFFFFFFFFFFFFFFFFFFFFF AND PUSH20 0xFFFFFFFFFFFFFFFFFFFFFFFFFFFFFFFFFFFFFFFF AND DUP2 MSTORE PUSH1 0x20 ADD SWAP1 DUP2 MSTORE PUSH1 0x20 ADD PUSH1 0x0 KECCAK256 PUSH1 0x0 PUSH2 0x100 EXP DUP2 SLOAD DUP2 PUSH20 0xFFFFFFFFFFFFFFFFFFFFFFFFFFFFFFFFFFFFFFFF MUL NOT AND SWAP1 DUP4 PUSH20 0xFFFFFFFFFFFFFFFFFFFFFFFFFFFFFFFFFFFFFFFF AND MUL OR SWAP1 SSTORE POP DUP2 PUSH1 0x0 DUP1 DUP7 PUSH20 0xFFFFFFFFFFFFFFFFFFFFFFFFFFFFFFFFFFFFFFFF AND PUSH20 0xFFFFFFFFFFFFFFFFFFFFFFFFFFFFFFFFFFFFFFFF AND DUP2 MSTORE PUSH1 0x20 ADD SWAP1 DUP2 MSTORE PUSH1 0x20 ADD PUSH1 0x0 KECCAK256 PUSH1 0x0 DUP6 PUSH20 0xFFFFFFFFFFFFFFFFFFFFFFFFFFFFFFFFFFFFFFFF AND PUSH20 0xFFFFFFFFFFFFFFFFFFFFFFFFFFFFFFFFFFFFFFFF AND DUP2 MSTORE PUSH1 0x20 ADD SWAP1 DUP2 MSTORE PUSH1 0x20 ADD PUSH1 0x0 KECCAK256 PUSH1 0x0 PUSH2 0x100 EXP DUP2 SLOAD DUP2 PUSH20 0xFFFFFFFFFFFFFFFFFFFFFFFFFFFFFFFFFFFFFFFF MUL NOT AND SWAP1 DUP4 PUSH20 0xFFFFFFFFFFFFFFFFFFFFFFFFFFFFFFFFFFFFFFFF AND MUL OR SWAP1 SSTORE POP POP SWAP3 SWAP2 POP POP JUMP JUMPDEST PUSH1 0x0 DUP2 PUSH20 0xFFFFFFFFFFFFFFFFFFFFFFFFFFFFFFFFFFFFFFFF AND DUP4 PUSH20 0xFFFFFFFFFFFFFFFFFFFFFFFFFFFFFFFFFFFFFFFF AND EQ ISZERO PUSH2 0x763 JUMPI PUSH1 0x40 MLOAD PUSH32 0x8C379A000000000000000000000000000000000000000000000000000000000 DUP2 MSTORE PUSH1 0x4 ADD PUSH2 0x75A SWAP1 PUSH2 0xA59 JUMP JUMPDEST PUSH1 0x40 MLOAD DUP1 SWAP2 SUB SWAP1 REVERT JUMPDEST PUSH1 0x0 DUP1 DUP4 PUSH20 0xFFFFFFFFFFFFFFFFFFFFFFFFFFFFFFFFFFFFFFFF AND DUP6 PUSH20 0xFFFFFFFFFFFFFFFFFFFFFFFFFFFFFFFFFFFFFFFF AND LT PUSH2 0x7A0 JUMPI DUP4 DUP6 PUSH2 0x7A3 JUMP JUMPDEST DUP5 DUP5 JUMPDEST SWAP2 POP SWAP2 POP PUSH1 0x0 DUP3 DUP3 PUSH1 0x40 MLOAD PUSH1 0x20 ADD PUSH2 0x7BC SWAP3 SWAP2 SWAP1 PUSH2 0x97B JUMP JUMPDEST PUSH1 0x40 MLOAD PUSH1 0x20 DUP2 DUP4 SUB SUB DUP2 MSTORE SWAP1 PUSH1 0x40 MSTORE DUP1 MLOAD SWAP1 PUSH1 0x20 ADD KECCAK256 SWAP1 POP PUSH1 0xFF PUSH1 0xF8 SHL ADDRESS DUP3 PUSH1 0x40 MLOAD DUP1 PUSH1 0x20 ADD PUSH2 0x7EB SWAP1 PUSH2 0x87F JUMP JUMPDEST PUSH1 0x20 DUP3 ADD DUP2 SUB DUP3 MSTORE PUSH1 0x1F NOT PUSH1 0x1F DUP3 ADD AND PUSH1 0x40 MSTORE POP DUP1 MLOAD SWAP1 PUSH1 0x20 ADD KECCAK256 PUSH1 0x40 MLOAD PUSH1 0x20 ADD PUSH2 0x819 SWAP5 SWAP4 SWAP3 SWAP2 SWAP1 PUSH2 0x9A7 JUMP JUMPDEST PUSH1 0x40 MLOAD PUSH1 0x20 DUP2 DUP4 SUB SUB DUP2 MSTORE SWAP1 PUSH1 0x40 MSTORE DUP1 MLOAD SWAP1 PUSH1 0x20 ADD KECCAK256 PUSH1 0x0 SHR SWAP4 POP POP POP POP SWAP3 SWAP2 POP POP JUMP JUMPDEST PUSH1 0x0 PUSH1 0x20 MSTORE DUP2 PUSH1 0x0 MSTORE PUSH1 0x40 PUSH1 0x0 KECCAK256 PUSH1 0x20 MSTORE DUP1 PUSH1 0x0 MSTORE PUSH1 0x40 PUSH1 0x0 KECCAK256 PUSH1 0x0 SWAP2 POP SWAP2 POP SWAP1 SLOAD SWAP1 PUSH2 0x100 EXP SWAP1 DIV PUSH20 0xFFFFFFFFFFFFFFFFFFFFFFFFFFFFFFFFFFFFFFFF AND DUP2 JUMP JUMPDEST PUSH2 0x309 DUP1 PUSH2 0xBA6 DUP4 CODECOPY ADD SWAP1 JUMP JUMPDEST PUSH1 0x0 DUP2 CALLDATALOAD SWAP1 POP PUSH2 0x89B DUP2 PUSH2 0xB8E JUMP JUMPDEST SWAP3 SWAP2 POP POP JUMP JUMPDEST PUSH1 0x0 DUP1 PUSH1 0x40 DUP4 DUP6 SUB SLT ISZERO PUSH2 0x8B8 JUMPI PUSH2 0x8B7 PUSH2 0xB2A JUMP JUMPDEST JUMPDEST PUSH1 0x0 PUSH2 0x8C6 DUP6 DUP3 DUP7 ADD PUSH2 0x88C JUMP JUMPDEST SWAP3 POP POP PUSH1 0x20 PUSH2 0x8D7 DUP6 DUP3 DUP7 ADD PUSH2 0x88C JUMP JUMPDEST SWAP2 POP POP SWAP3 POP SWAP3 SWAP1 POP JUMP JUMPDEST PUSH2 0x8EA DUP2 PUSH2 0xA8A JUMP JUMPDEST DUP3 MSTORE POP POP JUMP JUMPDEST PUSH2 0x901 PUSH2 0x8FC DUP3 PUSH2 0xA8A JUMP JUMPDEST PUSH2 0xAF2 JUMP JUMPDEST DUP3 MSTORE POP POP JUMP JUMPDEST PUSH2 0x918 PUSH2 0x913 DUP3 PUSH2 0xA9C JUMP JUMPDEST PUSH2 0xB04 JUMP JUMPDEST DUP3 MSTORE POP POP JUMP JUMPDEST PUSH2 0x92F PUSH2 0x92A DUP3 PUSH2 0xAC8 JUMP JUMPDEST PUSH2 0xB0E JUMP JUMPDEST DUP3 MSTORE POP POP JUMP JUMPDEST PUSH1 0x0 PUSH2 0x942 PUSH1 0x5 DUP4 PUSH2 0xA79 JUMP JUMPDEST SWAP2 POP PUSH2 0x94D DUP3 PUSH2 0xB3C JUMP JUMPDEST PUSH1 0x20 DUP3 ADD SWAP1 POP SWAP2 SWAP1 POP JUMP JUMPDEST PUSH1 0x0 PUSH2 0x965 PUSH1 0x13 DUP4 PUSH2 0xA79 JUMP JUMPDEST SWAP2 POP PUSH2 0x970 DUP3 PUSH2 0xB65 JUMP JUMPDEST PUSH1 0x20 DUP3 ADD SWAP1 POP SWAP2 SWAP1 POP JUMP JUMPDEST PUSH1 0x0 PUSH2 0x987 DUP3 DUP6 PUSH2 0x8F0 JUMP JUMPDEST PUSH1 0x14 DUP3 ADD SWAP2 POP PUSH2 0x997 DUP3 DUP5 PUSH2 0x8F0 JUMP JUMPDEST PUSH1 0x14 DUP3 ADD SWAP2 POP DUP2 SWAP1 POP SWAP4 SWAP3 POP POP POP JUMP JUMPDEST PUSH1 0x0 PUSH2 0x9B3 DUP3 DUP8 PUSH2 0x907 JUMP JUMPDEST PUSH1 0x1 DUP3 ADD SWAP2 POP PUSH2 0x9C3 DUP3 DUP7 PUSH2 0x8F0 JUMP JUMPDEST PUSH1 0x14 DUP3 ADD SWAP2 POP PUSH2 0x9D3 DUP3 DUP6 PUSH2 0x91E JUMP JUMPDEST PUSH1 0x20 DUP3 ADD SWAP2 POP PUSH2 0x9E3 DUP3 DUP5 PUSH2 0x91E JUMP JUMPDEST PUSH1 0x20 DUP3 ADD SWAP2 POP DUP2 SWAP1 POP SWAP6 SWAP5 POP POP POP POP POP JUMP JUMPDEST PUSH1 0x0 PUSH1 0x20 DUP3 ADD SWAP1 POP PUSH2 0xA0A PUSH1 0x0 DUP4 ADD DUP5 PUSH2 0x8E1 JUMP JUMPDEST SWAP3 SWAP2 POP POP JUMP JUMPDEST PUSH1 0x0 PUSH1 0x40 DUP3 ADD SWAP1 POP PUSH2 0xA25 PUSH1 0x0 DUP4 ADD DUP6 PUSH2 0x8E1 JUMP JUMPDEST PUSH2 0xA32 PUSH1 0x20 DUP4 ADD DUP5 PUSH2 0x8E1 JUMP JUMPDEST SWAP4 SWAP3 POP POP POP JUMP JUMPDEST PUSH1 0x0 PUSH1 0x20 DUP3 ADD SWAP1 POP DUP2 DUP2 SUB PUSH1 0x0 DUP4 ADD MSTORE PUSH2 0xA52 DUP2 PUSH2 0x935 JUMP JUMPDEST SWAP1 POP SWAP2 SWAP1 POP JUMP JUMPDEST PUSH1 0x0 PUSH1 0x20 DUP3 ADD SWAP1 POP DUP2 DUP2 SUB PUSH1 0x0 DUP4 ADD MSTORE PUSH2 0xA72 DUP2 PUSH2 0x958 JUMP JUMPDEST SWAP1 POP SWAP2 SWAP1 POP JUMP JUMPDEST PUSH1 0x0 DUP3 DUP3 MSTORE PUSH1 0x20 DUP3 ADD SWAP1 POP SWAP3 SWAP2 POP POP JUMP JUMPDEST PUSH1 0x0 PUSH2 0xA95 DUP3 PUSH2 0xAD2 JUMP JUMPDEST SWAP1 POP SWAP2 SWAP1 POP JUMP JUMPDEST PUSH1 0x0 PUSH32 0xFF00000000000000000000000000000000000000000000000000000000000000 DUP3 AND SWAP1 POP SWAP2 SWAP1 POP JUMP JUMPDEST PUSH1 0x0 DUP2 SWAP1 POP SWAP2 SWAP1 POP JUMP JUMPDEST PUSH1 0x0 PUSH20 0xFFFFFFFFFFFFFFFFFFFFFFFFFFFFFFFFFFFFFFFF DUP3 AND SWAP1 POP SWAP2 SWAP1 POP JUMP JUMPDEST PUSH1 0x0 PUSH2 0xAFD DUP3 PUSH2 0xB18 JUMP JUMPDEST SWAP1 POP SWAP2 SWAP1 POP JUMP JUMPDEST PUSH1 0x0 DUP2 SWAP1 POP SWAP2 SWAP1 POP JUMP JUMPDEST PUSH1 0x0 DUP2 SWAP1 POP SWAP2 SWAP1 POP JUMP JUMPDEST PUSH1 0x0 PUSH2 0xB23 DUP3 PUSH2 0xB2F JUMP JUMPDEST SWAP1 POP SWAP2 SWAP1 POP JUMP JUMPDEST PUSH1 0x0 DUP1 REVERT JUMPDEST PUSH1 0x0 DUP2 PUSH1 0x60 SHL SWAP1 POP SWAP2 SWAP1 POP JUMP JUMPDEST PUSH32 0x6572726F72000000000000000000000000000000000000000000000000000000 PUSH1 0x0 DUP3 ADD MSTORE POP JUMP JUMPDEST PUSH32 0x4944454E544943414C5F41444452455353455300000000000000000000000000 PUSH1 0x0 DUP3 ADD MSTORE POP JUMP JUMPDEST PUSH2 0xB97 DUP2 PUSH2 0xA8A JUMP JUMPDEST DUP2 EQ PUSH2 0xBA2 JUMPI PUSH1 0x0 DUP1 REVERT JUMPDEST POP JUMP INVALID PUSH1 0x80 PUSH1 0x40 MSTORE CALLER PUSH1 0x0 DUP1 PUSH2 0x100 EXP DUP2 SLOAD DUP2 PUSH20 0xFFFFFFFFFFFFFFFFFFFFFFFFFFFFFFFFFFFFFFFF MUL NOT AND SWAP1 DUP4 PUSH20 0xFFFFFFFFFFFFFFFFFFFFFFFFFFFFFFFFFFFFFFFF AND MUL OR SWAP1 SSTORE POP PUSH2 0x2B6 DUP1 PUSH2 0x53 PUSH1 0x0 CODECOPY PUSH1 0x0 RETURN INVALID PUSH1 0x80 PUSH1 0x40 MSTORE CALLVALUE DUP1 ISZERO PUSH2 0x10 JUMPI PUSH1 0x0 DUP1 REVERT JUMPDEST POP PUSH1 0x4 CALLDATASIZE LT PUSH2 0x2B JUMPI PUSH1 0x0 CALLDATALOAD PUSH1 0xE0 SHR DUP1 PUSH4 0xF09A4016 EQ PUSH2 0x30 JUMPI JUMPDEST PUSH1 0x0 DUP1 REVERT JUMPDEST PUSH2 0x4A PUSH1 0x4 DUP1 CALLDATASIZE SUB DUP2 ADD SWAP1 PUSH2 0x45 SWAP2 SWAP1 PUSH2 0x175 JUMP JUMPDEST PUSH2 0x4C JUMP JUMPDEST STOP JUMPDEST PUSH1 0x0 DUP1 SLOAD SWAP1 PUSH2 0x100 EXP SWAP1 DIV PUSH20 0xFFFFFFFFFFFFFFFFFFFFFFFFFFFFFFFFFFFFFFFF AND PUSH20 0xFFFFFFFFFFFFFFFFFFFFFFFFFFFFFFFFFFFFFFFF AND CALLER PUSH20 0xFFFFFFFFFFFFFFFFFFFFFFFFFFFFFFFFFFFFFFFF AND EQ PUSH2 0xDA JUMPI PUSH1 0x40 MLOAD PUSH32 0x8C379A000000000000000000000000000000000000000000000000000000000 DUP2 MSTORE PUSH1 0x4 ADD PUSH2 0xD1 SWAP1 PUSH2 0x1D8 JUMP JUMPDEST PUSH1 0x40 MLOAD DUP1 SWAP2 SUB SWAP1 REVERT JUMPDEST DUP2 PUSH1 0x1 PUSH1 0x0 PUSH2 0x100 EXP DUP2 SLOAD DUP2 PUSH20 0xFFFFFFFFFFFFFFFFFFFFFFFFFFFFFFFFFFFFFFFF MUL NOT AND SWAP1 DUP4 PUSH20 0xFFFFFFFFFFFFFFFFFFFFFFFFFFFFFFFFFFFFFFFF AND MUL OR SWAP1 SSTORE POP DUP1 PUSH1 0x2 PUSH1 0x0 PUSH2 0x100 EXP DUP2 SLOAD DUP2 PUSH20 0xFFFFFFFFFFFFFFFFFFFFFFFFFFFFFFFFFFFFFFFF MUL NOT AND SWAP1 DUP4 PUSH20 0xFFFFFFFFFFFFFFFFFFFFFFFFFFFFFFFFFFFFFFFF AND MUL OR SWAP1 SSTORE POP POP POP JUMP JUMPDEST PUSH1 0x0 DUP2 CALLDATALOAD SWAP1 POP PUSH2 0x16F DUP2 PUSH2 0x269 JUMP JUMPDEST SWAP3 SWAP2 POP POP JUMP JUMPDEST PUSH1 0x0 DUP1 PUSH1 0x40 DUP4 DUP6 SUB SLT ISZERO PUSH2 0x18C JUMPI PUSH2 0x18B PUSH2 0x23B JUMP JUMPDEST JUMPDEST PUSH1 0x0 PUSH2 0x19A DUP6 DUP3 DUP7 ADD PUSH2 0x160 JUMP JUMPDEST SWAP3 POP POP PUSH1 0x20 PUSH2 0x1AB DUP6 DUP3 DUP7 ADD PUSH2 0x160 JUMP JUMPDEST SWAP2 POP POP SWAP3 POP SWAP3 SWAP1 POP JUMP JUMPDEST PUSH1 0x0 PUSH2 0x1C2 PUSH1 0x1B DUP4 PUSH2 0x1F8 JUMP JUMPDEST SWAP2 POP PUSH2 0x1CD DUP3 PUSH2 0x240 JUMP JUMPDEST PUSH1 0x20 DUP3 ADD SWAP1 POP SWAP2 SWAP1 POP JUMP JUMPDEST PUSH1 0x0 PUSH1 0x20 DUP3 ADD SWAP1 POP DUP2 DUP2 SUB PUSH1 0x0 DUP4 ADD MSTORE PUSH2 0x1F1 DUP2 PUSH2 0x1B5 JUMP JUMPDEST SWAP1 POP SWAP2 SWAP1 POP JUMP JUMPDEST PUSH1 0x0 DUP3 DUP3 MSTORE PUSH1 0x20 DUP3 ADD SWAP1 POP SWAP3 SWAP2 POP POP JUMP JUMPDEST PUSH1 0x0 PUSH2 0x214 DUP3 PUSH2 0x21B JUMP JUMPDEST SWAP1 POP SWAP2 SWAP1 POP JUMP JUMPDEST PUSH1 0x0 PUSH20 0xFFFFFFFFFFFFFFFFFFFFFFFFFFFFFFFFFFFFFFFF DUP3 AND SWAP1 POP SWAP2 SWAP1 POP JUMP JUMPDEST PUSH1 0x0 DUP1 REVERT JUMPDEST PUSH32 0x6572726F72206F66206D73672E73656E646572213D666163746F720000000000 PUSH1 0x0 DUP3 ADD MSTORE POP JUMP JUMPDEST PUSH2 0x272 DUP2 PUSH2 0x209 JUMP JUMPDEST DUP2 EQ PUSH2 0x27D JUMPI PUSH1 0x0 DUP1 REVERT JUMPDEST POP JUMP INVALID LOG2 PUSH5 0x6970667358 0x22 SLT KECCAK256 0x4A ORIGIN PUSH12 0xAAB14879B58508B99C8515F8 0xDD PUSH5 0xE32FA9B8D1 0xD4 0xCF PUSH13 0xEB89C0CA614A5A64736F6C6343 STOP ADDMOD SMOD STOP CALLER LOG2 PUSH5 0x6970667358 0x22 SLT KECCAK256 0x4C EXTCODECOPY PUSH8 0x32937A947477C487 0x26 PUSH18 0xA492691CACE58A9249DAA385477673E3B79F DIFFICULTY PUSH5 0x736F6C6343 STOP ADDMOD SMOD STOP CALLER "
				},
				"gasEstimates": {
					"creation": {
						"codeDepositCost": "762400",
						"executionCost": "799",
						"totalCost": "763199"
					},
					"external": {
						"calculateAddr(address,address)": "infinite",
						"create2Pair(address,address)": "infinite",
						"createPair(address,address)": "infinite",
						"getPair(address,address)": "infinite"
					}
				},
				"methodIdentifiers": {
					"calculateAddr(address,address)": "df06b188",
					"create2Pair(address,address)": "b41edcb3",
					"createPair(address,address)": "c9c65396",
					"getPair(address,address)": "e6a43905"
				}
			},
			"storageLayout": {
				"storage": [
					{
						"astId": 50,
						"contract": "contracts/pairFactor.sol:PairFactor",
						"label": "getPair",
						"offset": 0,
						"slot": "0",
						"type": "t_mapping(t_address,t_mapping(t_address,t_address))"
					},
					{
						"astId": 53,
						"contract": "contracts/pairFactor.sol:PairFactor",
						"label": "allPair",
						"offset": 0,
						"slot": "1",
						"type": "t_array(t_address)dyn_storage"
					}
				],
				"types": {
					"t_address": {
						"encoding": "inplace",
						"label": "address",
						"numberOfBytes": "20"
					},
					"t_array(t_address)dyn_storage": {
						"base": "t_address",
						"encoding": "dynamic_array",
						"label": "address[]",
						"numberOfBytes": "32"
					},
					"t_mapping(t_address,t_address)": {
						"encoding": "mapping",
						"key": "t_address",
						"label": "mapping(address => address)",
						"numberOfBytes": "32",
						"value": "t_address"
					},
					"t_mapping(t_address,t_mapping(t_address,t_address))": {
						"encoding": "mapping",
						"key": "t_address",
						"label": "mapping(address => mapping(address => address))",
						"numberOfBytes": "32",
						"value": "t_mapping(t_address,t_address)"
					}
				}
			},
			"userdoc": {
				"kind": "user",
				"methods": {
					"createPair(address,address)": {
						"notice": "使用两个token的地址创建交易对，将交易对的地址返回,使用create创建合约"
					}
				},
				"version": 1
			}
		}
	}
}