{
	"contracts/callCon.sol": {
		"CallCon": {
			"abi": [
				{
					"anonymous": false,
					"inputs": [
						{
							"indexed": false,
							"internalType": "bool",
							"name": "success",
							"type": "bool"
						},
						{
							"indexed": false,
							"internalType": "bytes",
							"name": "data",
							"type": "bytes"
						}
					],
					"name": "Response",
					"type": "event"
				},
				{
					"inputs": [
						{
							"internalType": "address payable",
							"name": "addr",
							"type": "address"
						},
						{
							"internalType": "uint256",
							"name": "amount",
							"type": "uint256"
						}
					],
					"name": "callTargetFun",
					"outputs": [],
					"stateMutability": "payable",
					"type": "function"
				},
				{
					"inputs": [
						{
							"internalType": "address",
							"name": "addr",
							"type": "address"
						}
					],
					"name": "callTargetFun2",
					"outputs": [
						{
							"internalType": "uint256",
							"name": "",
							"type": "uint256"
						}
					],
					"stateMutability": "nonpayable",
					"type": "function"
				},
				{
					"inputs": [
						{
							"internalType": "address",
							"name": "_addr",
							"type": "address"
						}
					],
					"name": "callTargetNotExitFun",
					"outputs": [],
					"stateMutability": "nonpayable",
					"type": "function"
				}
			],
			"devdoc": {
				"kind": "dev",
				"methods": {},
				"version": 1
			},
			"evm": {
				"assembly": "    /* \"contracts/callCon.sol\":188:1219  contract CallCon {... */\n  mstore(0x40, 0x80)\n  callvalue\n  dup1\n  iszero\n  tag_1\n  jumpi\n  0x00\n  dup1\n  revert\ntag_1:\n  pop\n  dataSize(sub_0)\n  dup1\n  dataOffset(sub_0)\n  0x00\n  codecopy\n  0x00\n  return\nstop\n\nsub_0: assembly {\n        /* \"contracts/callCon.sol\":188:1219  contract CallCon {... */\n      mstore(0x40, 0x80)\n      jumpi(tag_1, lt(calldatasize, 0x04))\n      shr(0xe0, calldataload(0x00))\n      dup1\n      0x392f4fc2\n      eq\n      tag_2\n      jumpi\n      dup1\n      0x8d5e7d08\n      eq\n      tag_3\n      jumpi\n      dup1\n      0xd99853bf\n      eq\n      tag_4\n      jumpi\n    tag_1:\n      0x00\n      dup1\n      revert\n        /* \"contracts/callCon.sol\":960:1217  function callTargetNotExitFun(address _addr) external {... */\n    tag_2:\n      callvalue\n      dup1\n      iszero\n      tag_5\n      jumpi\n      0x00\n      dup1\n      revert\n    tag_5:\n      pop\n      tag_6\n      0x04\n      dup1\n      calldatasize\n      sub\n      dup2\n      add\n      swap1\n      tag_7\n      swap2\n      swap1\n      tag_8\n      jump\t// in\n    tag_7:\n      tag_9\n      jump\t// in\n    tag_6:\n      stop\n        /* \"contracts/callCon.sol\":572:839  function callTargetFun2(address addr) external returns (uint256) {... */\n    tag_3:\n      callvalue\n      dup1\n      iszero\n      tag_10\n      jumpi\n      0x00\n      dup1\n      revert\n    tag_10:\n      pop\n      tag_11\n      0x04\n      dup1\n      calldatasize\n      sub\n      dup2\n      add\n      swap1\n      tag_12\n      swap2\n      swap1\n      tag_8\n      jump\t// in\n    tag_12:\n      tag_13\n      jump\t// in\n    tag_11:\n      mload(0x40)\n      tag_14\n      swap2\n      swap1\n      tag_15\n      jump\t// in\n    tag_14:\n      mload(0x40)\n      dup1\n      swap2\n      sub\n      swap1\n      return\n        /* \"contracts/callCon.sol\":318:566  function callTargetFun(address payable addr, uint256 amount)... */\n    tag_4:\n      tag_16\n      0x04\n      dup1\n      calldatasize\n      sub\n      dup2\n      add\n      swap1\n      tag_17\n      swap2\n      swap1\n      tag_18\n      jump\t// in\n    tag_17:\n      tag_19\n      jump\t// in\n    tag_16:\n      stop\n        /* \"contracts/callCon.sol\":960:1217  function callTargetNotExitFun(address _addr) external {... */\n    tag_9:\n        /* \"contracts/callCon.sol\":1048:1060  bool success */\n      0x00\n        /* \"contracts/callCon.sol\":1062:1079  bytes memory data */\n      dup1\n        /* \"contracts/callCon.sol\":1083:1088  _addr */\n      dup3\n        /* \"contracts/callCon.sol\":1083:1093  _addr.call */\n      0xffffffffffffffffffffffffffffffffffffffff\n      and\n        /* \"contracts/callCon.sol\":1107:1146  abi.encodeWithSignature(\"foo(uint256)\") */\n      add(0x24, mload(0x40))\n      mload(0x40)\n      0x20\n      dup2\n      dup4\n      sub\n      sub\n      dup2\n      mstore\n      swap1\n      0x40\n      mstore\n      and(not(0xffffffffffffffffffffffffffffffffffffffffffffffffffffffff), 0x2fbebd3800000000000000000000000000000000000000000000000000000000)\n      0x20\n      dup3\n      add\n      dup1\n      mload\n      0xffffffffffffffffffffffffffffffffffffffffffffffffffffffff\n      dup4\n      dup2\n      dup4\n      and\n      or\n      dup4\n      mstore\n      pop\n      pop\n      pop\n      pop\n        /* \"contracts/callCon.sol\":1083:1156  _addr.call(... */\n      mload(0x40)\n      tag_21\n      swap2\n      swap1\n      tag_22\n      jump\t// in\n    tag_21:\n      0x00\n      mload(0x40)\n      dup1\n      dup4\n      sub\n      dup2\n      0x00\n      dup7\n      gas\n      call\n      swap2\n      pop\n      pop\n      returndatasize\n      dup1\n      0x00\n      dup2\n      eq\n      tag_25\n      jumpi\n      mload(0x40)\n      swap2\n      pop\n      and(add(returndatasize, 0x3f), not(0x1f))\n      dup3\n      add\n      0x40\n      mstore\n      returndatasize\n      dup3\n      mstore\n      returndatasize\n      0x00\n      0x20\n      dup5\n      add\n      returndatacopy\n      jump(tag_24)\n    tag_25:\n      0x60\n      swap2\n      pop\n    tag_24:\n      pop\n        /* \"contracts/callCon.sol\":1047:1156  (bool success, bytes memory data) = _addr.call(... */\n      swap2\n      pop\n      swap2\n      pop\n        /* \"contracts/callCon.sol\":1172:1195  Response(success, data) */\n      0x13848c3e38f8886f3f5d2ad9dff80d8092c2bbb8efd5b887a99c2c6cfc09ac2a\n        /* \"contracts/callCon.sol\":1181:1188  success */\n      dup3\n        /* \"contracts/callCon.sol\":1190:1194  data */\n      dup3\n        /* \"contracts/callCon.sol\":1172:1195  Response(success, data) */\n      mload(0x40)\n      tag_26\n      swap3\n      swap2\n      swap1\n      tag_27\n      jump\t// in\n    tag_26:\n      mload(0x40)\n      dup1\n      swap2\n      sub\n      swap1\n      log1\n        /* \"contracts/callCon.sol\":1014:1217  {... */\n      pop\n      pop\n        /* \"contracts/callCon.sol\":960:1217  function callTargetNotExitFun(address _addr) external {... */\n      pop\n      jump\t// out\n        /* \"contracts/callCon.sol\":572:839  function callTargetFun2(address addr) external returns (uint256) {... */\n    tag_13:\n        /* \"contracts/callCon.sol\":628:635  uint256 */\n      0x00\n        /* \"contracts/callCon.sol\":648:660  bool success */\n      dup1\n        /* \"contracts/callCon.sol\":662:679  bytes memory data */\n      0x00\n        /* \"contracts/callCon.sol\":683:687  addr */\n      dup4\n        /* \"contracts/callCon.sol\":683:692  addr.call */\n      0xffffffffffffffffffffffffffffffffffffffff\n      and\n        /* \"contracts/callCon.sol\":706:739  abi.encodeWithSignature(\"getX()\") */\n      add(0x24, mload(0x40))\n      mload(0x40)\n      0x20\n      dup2\n      dup4\n      sub\n      sub\n      dup2\n      mstore\n      swap1\n      0x40\n      mstore\n      and(not(0xffffffffffffffffffffffffffffffffffffffffffffffffffffffff), 0x5197c7aa00000000000000000000000000000000000000000000000000000000)\n      0x20\n      dup3\n      add\n      dup1\n      mload\n      0xffffffffffffffffffffffffffffffffffffffffffffffffffffffff\n      dup4\n      dup2\n      dup4\n      and\n      or\n      dup4\n      mstore\n      pop\n      pop\n      pop\n      pop\n        /* \"contracts/callCon.sol\":683:749  addr.call(... */\n      mload(0x40)\n      tag_29\n      swap2\n      swap1\n      tag_22\n      jump\t// in\n    tag_29:\n      0x00\n      mload(0x40)\n      dup1\n      dup4\n      sub\n      dup2\n      0x00\n      dup7\n      gas\n      call\n      swap2\n      pop\n      pop\n      returndatasize\n      dup1\n      0x00\n      dup2\n      eq\n      tag_32\n      jumpi\n      mload(0x40)\n      swap2\n      pop\n      and(add(returndatasize, 0x3f), not(0x1f))\n      dup3\n      add\n      0x40\n      mstore\n      returndatasize\n      dup3\n      mstore\n      returndatasize\n      0x00\n      0x20\n      dup5\n      add\n      returndatacopy\n      jump(tag_31)\n    tag_32:\n      0x60\n      swap2\n      pop\n    tag_31:\n      pop\n        /* \"contracts/callCon.sol\":647:749  (bool success, bytes memory data) = addr.call(... */\n      swap2\n      pop\n      swap2\n      pop\n        /* \"contracts/callCon.sol\":765:788  Response(success, data) */\n      0x13848c3e38f8886f3f5d2ad9dff80d8092c2bbb8efd5b887a99c2c6cfc09ac2a\n        /* \"contracts/callCon.sol\":774:781  success */\n      dup3\n        /* \"contracts/callCon.sol\":783:787  data */\n      dup3\n        /* \"contracts/callCon.sol\":765:788  Response(success, data) */\n      mload(0x40)\n      tag_33\n      swap3\n      swap2\n      swap1\n      tag_27\n      jump\t// in\n    tag_33:\n      mload(0x40)\n      dup1\n      swap2\n      sub\n      swap1\n      log1\n        /* \"contracts/callCon.sol\":816:820  data */\n      dup1\n        /* \"contracts/callCon.sol\":805:832  abi.decode(data, (uint256)) */\n      dup1\n      0x20\n      add\n      swap1\n      mload\n      dup2\n      add\n      swap1\n      tag_34\n      swap2\n      swap1\n      tag_35\n      jump\t// in\n    tag_34:\n        /* \"contracts/callCon.sol\":798:832  return abi.decode(data, (uint256)) */\n      swap3\n      pop\n      pop\n      pop\n        /* \"contracts/callCon.sol\":572:839  function callTargetFun2(address addr) external returns (uint256) {... */\n      swap2\n      swap1\n      pop\n      jump\t// out\n        /* \"contracts/callCon.sol\":318:566  function callTargetFun(address payable addr, uint256 amount)... */\n    tag_19:\n        /* \"contracts/callCon.sol\":425:437  bool success */\n      0x00\n        /* \"contracts/callCon.sol\":439:456  bytes memory data */\n      dup1\n        /* \"contracts/callCon.sol\":460:464  addr */\n      dup4\n        /* \"contracts/callCon.sol\":460:469  addr.call */\n      0xffffffffffffffffffffffffffffffffffffffff\n      and\n        /* \"contracts/callCon.sol\":477:486  msg.value */\n      callvalue\n        /* \"contracts/callCon.sol\":542:548  amount */\n      dup5\n        /* \"contracts/callCon.sol\":501:549  abi.encodeWithSignature(\"setX(uint256)\", amount) */\n      add(0x24, mload(0x40))\n      tag_37\n      swap2\n      swap1\n      tag_15\n      jump\t// in\n    tag_37:\n      mload(0x40)\n      0x20\n      dup2\n      dup4\n      sub\n      sub\n      dup2\n      mstore\n      swap1\n      0x40\n      mstore\n      and(not(0xffffffffffffffffffffffffffffffffffffffffffffffffffffffff), 0x4018d9aa00000000000000000000000000000000000000000000000000000000)\n      0x20\n      dup3\n      add\n      dup1\n      mload\n      0xffffffffffffffffffffffffffffffffffffffffffffffffffffffff\n      dup4\n      dup2\n      dup4\n      and\n      or\n      dup4\n      mstore\n      pop\n      pop\n      pop\n      pop\n        /* \"contracts/callCon.sol\":460:559  addr.call{value: msg.value}(... */\n      mload(0x40)\n      tag_38\n      swap2\n      swap1\n      tag_22\n      jump\t// in\n    tag_38:\n      0x00\n      mload(0x40)\n      dup1\n      dup4\n      sub\n      dup2\n      dup6\n      dup8\n      gas\n      call\n      swap3\n      pop\n      pop\n      pop\n      returndatasize\n      dup1\n      0x00\n      dup2\n      eq\n      tag_41\n      jumpi\n      mload(0x40)\n      swap2\n      pop\n      and(add(returndatasize, 0x3f), not(0x1f))\n      dup3\n      add\n      0x40\n      mstore\n      returndatasize\n      dup3\n      mstore\n      returndatasize\n      0x00\n      0x20\n      dup5\n      add\n      returndatacopy\n      jump(tag_40)\n    tag_41:\n      0x60\n      swap2\n      pop\n    tag_40:\n      pop\n        /* \"contracts/callCon.sol\":424:559  (bool success, bytes memory data) = addr.call{value: msg.value}(... */\n      swap2\n      pop\n      swap2\n      pop\n        /* \"contracts/callCon.sol\":414:566  {... */\n      pop\n      pop\n        /* \"contracts/callCon.sol\":318:566  function callTargetFun(address payable addr, uint256 amount)... */\n      pop\n      pop\n      jump\t// out\n        /* \"#utility.yul\":7:146   */\n    tag_43:\n        /* \"#utility.yul\":53:58   */\n      0x00\n        /* \"#utility.yul\":91:97   */\n      dup2\n        /* \"#utility.yul\":78:98   */\n      calldataload\n        /* \"#utility.yul\":69:98   */\n      swap1\n      pop\n        /* \"#utility.yul\":107:140   */\n      tag_45\n        /* \"#utility.yul\":134:139   */\n      dup2\n        /* \"#utility.yul\":107:140   */\n      tag_46\n      jump\t// in\n    tag_45:\n        /* \"#utility.yul\":7:146   */\n      swap3\n      swap2\n      pop\n      pop\n      jump\t// out\n        /* \"#utility.yul\":152:307   */\n    tag_47:\n        /* \"#utility.yul\":206:211   */\n      0x00\n        /* \"#utility.yul\":244:250   */\n      dup2\n        /* \"#utility.yul\":231:251   */\n      calldataload\n        /* \"#utility.yul\":222:251   */\n      swap1\n      pop\n        /* \"#utility.yul\":260:301   */\n      tag_49\n        /* \"#utility.yul\":295:300   */\n      dup2\n        /* \"#utility.yul\":260:301   */\n      tag_50\n      jump\t// in\n    tag_49:\n        /* \"#utility.yul\":152:307   */\n      swap3\n      swap2\n      pop\n      pop\n      jump\t// out\n        /* \"#utility.yul\":313:452   */\n    tag_51:\n        /* \"#utility.yul\":359:364   */\n      0x00\n        /* \"#utility.yul\":397:403   */\n      dup2\n        /* \"#utility.yul\":384:404   */\n      calldataload\n        /* \"#utility.yul\":375:404   */\n      swap1\n      pop\n        /* \"#utility.yul\":413:446   */\n      tag_53\n        /* \"#utility.yul\":440:445   */\n      dup2\n        /* \"#utility.yul\":413:446   */\n      tag_54\n      jump\t// in\n    tag_53:\n        /* \"#utility.yul\":313:452   */\n      swap3\n      swap2\n      pop\n      pop\n      jump\t// out\n        /* \"#utility.yul\":458:601   */\n    tag_55:\n        /* \"#utility.yul\":515:520   */\n      0x00\n        /* \"#utility.yul\":546:552   */\n      dup2\n        /* \"#utility.yul\":540:553   */\n      mload\n        /* \"#utility.yul\":531:553   */\n      swap1\n      pop\n        /* \"#utility.yul\":562:595   */\n      tag_57\n        /* \"#utility.yul\":589:594   */\n      dup2\n        /* \"#utility.yul\":562:595   */\n      tag_54\n      jump\t// in\n    tag_57:\n        /* \"#utility.yul\":458:601   */\n      swap3\n      swap2\n      pop\n      pop\n      jump\t// out\n        /* \"#utility.yul\":607:936   */\n    tag_8:\n        /* \"#utility.yul\":666:672   */\n      0x00\n        /* \"#utility.yul\":715:717   */\n      0x20\n        /* \"#utility.yul\":703:712   */\n      dup3\n        /* \"#utility.yul\":694:701   */\n      dup5\n        /* \"#utility.yul\":690:713   */\n      sub\n        /* \"#utility.yul\":686:718   */\n      slt\n        /* \"#utility.yul\":683:802   */\n      iszero\n      tag_59\n      jumpi\n        /* \"#utility.yul\":721:800   */\n      tag_60\n      tag_61\n      jump\t// in\n    tag_60:\n        /* \"#utility.yul\":683:802   */\n    tag_59:\n        /* \"#utility.yul\":841:842   */\n      0x00\n        /* \"#utility.yul\":866:919   */\n      tag_62\n        /* \"#utility.yul\":911:918   */\n      dup5\n        /* \"#utility.yul\":902:908   */\n      dup3\n        /* \"#utility.yul\":891:900   */\n      dup6\n        /* \"#utility.yul\":887:909   */\n      add\n        /* \"#utility.yul\":866:919   */\n      tag_43\n      jump\t// in\n    tag_62:\n        /* \"#utility.yul\":856:919   */\n      swap2\n      pop\n        /* \"#utility.yul\":812:929   */\n      pop\n        /* \"#utility.yul\":607:936   */\n      swap3\n      swap2\n      pop\n      pop\n      jump\t// out\n        /* \"#utility.yul\":942:1432   */\n    tag_18:\n        /* \"#utility.yul\":1018:1024   */\n      0x00\n        /* \"#utility.yul\":1026:1032   */\n      dup1\n        /* \"#utility.yul\":1075:1077   */\n      0x40\n        /* \"#utility.yul\":1063:1072   */\n      dup4\n        /* \"#utility.yul\":1054:1061   */\n      dup6\n        /* \"#utility.yul\":1050:1073   */\n      sub\n        /* \"#utility.yul\":1046:1078   */\n      slt\n        /* \"#utility.yul\":1043:1162   */\n      iszero\n      tag_64\n      jumpi\n        /* \"#utility.yul\":1081:1160   */\n      tag_65\n      tag_61\n      jump\t// in\n    tag_65:\n        /* \"#utility.yul\":1043:1162   */\n    tag_64:\n        /* \"#utility.yul\":1201:1202   */\n      0x00\n        /* \"#utility.yul\":1226:1287   */\n      tag_66\n        /* \"#utility.yul\":1279:1286   */\n      dup6\n        /* \"#utility.yul\":1270:1276   */\n      dup3\n        /* \"#utility.yul\":1259:1268   */\n      dup7\n        /* \"#utility.yul\":1255:1277   */\n      add\n        /* \"#utility.yul\":1226:1287   */\n      tag_47\n      jump\t// in\n    tag_66:\n        /* \"#utility.yul\":1216:1287   */\n      swap3\n      pop\n        /* \"#utility.yul\":1172:1297   */\n      pop\n        /* \"#utility.yul\":1336:1338   */\n      0x20\n        /* \"#utility.yul\":1362:1415   */\n      tag_67\n        /* \"#utility.yul\":1407:1414   */\n      dup6\n        /* \"#utility.yul\":1398:1404   */\n      dup3\n        /* \"#utility.yul\":1387:1396   */\n      dup7\n        /* \"#utility.yul\":1383:1405   */\n      add\n        /* \"#utility.yul\":1362:1415   */\n      tag_51\n      jump\t// in\n    tag_67:\n        /* \"#utility.yul\":1352:1415   */\n      swap2\n      pop\n        /* \"#utility.yul\":1307:1425   */\n      pop\n        /* \"#utility.yul\":942:1432   */\n      swap3\n      pop\n      swap3\n      swap1\n      pop\n      jump\t// out\n        /* \"#utility.yul\":1438:1789   */\n    tag_35:\n        /* \"#utility.yul\":1508:1514   */\n      0x00\n        /* \"#utility.yul\":1557:1559   */\n      0x20\n        /* \"#utility.yul\":1545:1554   */\n      dup3\n        /* \"#utility.yul\":1536:1543   */\n      dup5\n        /* \"#utility.yul\":1532:1555   */\n      sub\n        /* \"#utility.yul\":1528:1560   */\n      slt\n        /* \"#utility.yul\":1525:1644   */\n      iszero\n      tag_69\n      jumpi\n        /* \"#utility.yul\":1563:1642   */\n      tag_70\n      tag_61\n      jump\t// in\n    tag_70:\n        /* \"#utility.yul\":1525:1644   */\n    tag_69:\n        /* \"#utility.yul\":1683:1684   */\n      0x00\n        /* \"#utility.yul\":1708:1772   */\n      tag_71\n        /* \"#utility.yul\":1764:1771   */\n      dup5\n        /* \"#utility.yul\":1755:1761   */\n      dup3\n        /* \"#utility.yul\":1744:1753   */\n      dup6\n        /* \"#utility.yul\":1740:1762   */\n      add\n        /* \"#utility.yul\":1708:1772   */\n      tag_55\n      jump\t// in\n    tag_71:\n        /* \"#utility.yul\":1698:1772   */\n      swap2\n      pop\n        /* \"#utility.yul\":1654:1782   */\n      pop\n        /* \"#utility.yul\":1438:1789   */\n      swap3\n      swap2\n      pop\n      pop\n      jump\t// out\n        /* \"#utility.yul\":1795:1904   */\n    tag_72:\n        /* \"#utility.yul\":1876:1897   */\n      tag_74\n        /* \"#utility.yul\":1891:1896   */\n      dup2\n        /* \"#utility.yul\":1876:1897   */\n      tag_75\n      jump\t// in\n    tag_74:\n        /* \"#utility.yul\":1871:1874   */\n      dup3\n        /* \"#utility.yul\":1864:1898   */\n      mstore\n        /* \"#utility.yul\":1795:1904   */\n      pop\n      pop\n      jump\t// out\n        /* \"#utility.yul\":1910:2270   */\n    tag_76:\n        /* \"#utility.yul\":1996:1999   */\n      0x00\n        /* \"#utility.yul\":2024:2062   */\n      tag_78\n        /* \"#utility.yul\":2056:2061   */\n      dup3\n        /* \"#utility.yul\":2024:2062   */\n      tag_79\n      jump\t// in\n    tag_78:\n        /* \"#utility.yul\":2078:2148   */\n      tag_80\n        /* \"#utility.yul\":2141:2147   */\n      dup2\n        /* \"#utility.yul\":2136:2139   */\n      dup6\n        /* \"#utility.yul\":2078:2148   */\n      tag_81\n      jump\t// in\n    tag_80:\n        /* \"#utility.yul\":2071:2148   */\n      swap4\n      pop\n        /* \"#utility.yul\":2157:2209   */\n      tag_82\n        /* \"#utility.yul\":2202:2208   */\n      dup2\n        /* \"#utility.yul\":2197:2200   */\n      dup6\n        /* \"#utility.yul\":2190:2194   */\n      0x20\n        /* \"#utility.yul\":2183:2188   */\n      dup7\n        /* \"#utility.yul\":2179:2195   */\n      add\n        /* \"#utility.yul\":2157:2209   */\n      tag_83\n      jump\t// in\n    tag_82:\n        /* \"#utility.yul\":2234:2263   */\n      tag_84\n        /* \"#utility.yul\":2256:2262   */\n      dup2\n        /* \"#utility.yul\":2234:2263   */\n      tag_85\n      jump\t// in\n    tag_84:\n        /* \"#utility.yul\":2229:2232   */\n      dup5\n        /* \"#utility.yul\":2225:2264   */\n      add\n        /* \"#utility.yul\":2218:2264   */\n      swap2\n      pop\n        /* \"#utility.yul\":2000:2270   */\n      pop\n        /* \"#utility.yul\":1910:2270   */\n      swap3\n      swap2\n      pop\n      pop\n      jump\t// out\n        /* \"#utility.yul\":2276:2649   */\n    tag_86:\n        /* \"#utility.yul\":2380:2383   */\n      0x00\n        /* \"#utility.yul\":2408:2446   */\n      tag_88\n        /* \"#utility.yul\":2440:2445   */\n      dup3\n        /* \"#utility.yul\":2408:2446   */\n      tag_79\n      jump\t// in\n    tag_88:\n        /* \"#utility.yul\":2462:2550   */\n      tag_89\n        /* \"#utility.yul\":2543:2549   */\n      dup2\n        /* \"#utility.yul\":2538:2541   */\n      dup6\n        /* \"#utility.yul\":2462:2550   */\n      tag_90\n      jump\t// in\n    tag_89:\n        /* \"#utility.yul\":2455:2550   */\n      swap4\n      pop\n        /* \"#utility.yul\":2559:2611   */\n      tag_91\n        /* \"#utility.yul\":2604:2610   */\n      dup2\n        /* \"#utility.yul\":2599:2602   */\n      dup6\n        /* \"#utility.yul\":2592:2596   */\n      0x20\n        /* \"#utility.yul\":2585:2590   */\n      dup7\n        /* \"#utility.yul\":2581:2597   */\n      add\n        /* \"#utility.yul\":2559:2611   */\n      tag_83\n      jump\t// in\n    tag_91:\n        /* \"#utility.yul\":2636:2642   */\n      dup1\n        /* \"#utility.yul\":2631:2634   */\n      dup5\n        /* \"#utility.yul\":2627:2643   */\n      add\n        /* \"#utility.yul\":2620:2643   */\n      swap2\n      pop\n        /* \"#utility.yul\":2384:2649   */\n      pop\n        /* \"#utility.yul\":2276:2649   */\n      swap3\n      swap2\n      pop\n      pop\n      jump\t// out\n        /* \"#utility.yul\":2655:2773   */\n    tag_92:\n        /* \"#utility.yul\":2742:2766   */\n      tag_94\n        /* \"#utility.yul\":2760:2765   */\n      dup2\n        /* \"#utility.yul\":2742:2766   */\n      tag_95\n      jump\t// in\n    tag_94:\n        /* \"#utility.yul\":2737:2740   */\n      dup3\n        /* \"#utility.yul\":2730:2767   */\n      mstore\n        /* \"#utility.yul\":2655:2773   */\n      pop\n      pop\n      jump\t// out\n        /* \"#utility.yul\":2779:3050   */\n    tag_22:\n        /* \"#utility.yul\":2909:2912   */\n      0x00\n        /* \"#utility.yul\":2931:3024   */\n      tag_97\n        /* \"#utility.yul\":3020:3023   */\n      dup3\n        /* \"#utility.yul\":3011:3017   */\n      dup5\n        /* \"#utility.yul\":2931:3024   */\n      tag_86\n      jump\t// in\n    tag_97:\n        /* \"#utility.yul\":2924:3024   */\n      swap2\n      pop\n        /* \"#utility.yul\":3041:3044   */\n      dup2\n        /* \"#utility.yul\":3034:3044   */\n      swap1\n      pop\n        /* \"#utility.yul\":2779:3050   */\n      swap3\n      swap2\n      pop\n      pop\n      jump\t// out\n        /* \"#utility.yul\":3056:3463   */\n    tag_27:\n        /* \"#utility.yul\":3189:3193   */\n      0x00\n        /* \"#utility.yul\":3227:3229   */\n      0x40\n        /* \"#utility.yul\":3216:3225   */\n      dup3\n        /* \"#utility.yul\":3212:3230   */\n      add\n        /* \"#utility.yul\":3204:3230   */\n      swap1\n      pop\n        /* \"#utility.yul\":3240:3305   */\n      tag_99\n        /* \"#utility.yul\":3302:3303   */\n      0x00\n        /* \"#utility.yul\":3291:3300   */\n      dup4\n        /* \"#utility.yul\":3287:3304   */\n      add\n        /* \"#utility.yul\":3278:3284   */\n      dup6\n        /* \"#utility.yul\":3240:3305   */\n      tag_72\n      jump\t// in\n    tag_99:\n        /* \"#utility.yul\":3352:3361   */\n      dup2\n        /* \"#utility.yul\":3346:3350   */\n      dup2\n        /* \"#utility.yul\":3342:3362   */\n      sub\n        /* \"#utility.yul\":3337:3339   */\n      0x20\n        /* \"#utility.yul\":3326:3335   */\n      dup4\n        /* \"#utility.yul\":3322:3340   */\n      add\n        /* \"#utility.yul\":3315:3363   */\n      mstore\n        /* \"#utility.yul\":3380:3456   */\n      tag_100\n        /* \"#utility.yul\":3451:3455   */\n      dup2\n        /* \"#utility.yul\":3442:3448   */\n      dup5\n        /* \"#utility.yul\":3380:3456   */\n      tag_76\n      jump\t// in\n    tag_100:\n        /* \"#utility.yul\":3372:3456   */\n      swap1\n      pop\n        /* \"#utility.yul\":3056:3463   */\n      swap4\n      swap3\n      pop\n      pop\n      pop\n      jump\t// out\n        /* \"#utility.yul\":3469:3691   */\n    tag_15:\n        /* \"#utility.yul\":3562:3566   */\n      0x00\n        /* \"#utility.yul\":3600:3602   */\n      0x20\n        /* \"#utility.yul\":3589:3598   */\n      dup3\n        /* \"#utility.yul\":3585:3603   */\n      add\n        /* \"#utility.yul\":3577:3603   */\n      swap1\n      pop\n        /* \"#utility.yul\":3613:3684   */\n      tag_102\n        /* \"#utility.yul\":3681:3682   */\n      0x00\n        /* \"#utility.yul\":3670:3679   */\n      dup4\n        /* \"#utility.yul\":3666:3683   */\n      add\n        /* \"#utility.yul\":3657:3663   */\n      dup5\n        /* \"#utility.yul\":3613:3684   */\n      tag_92\n      jump\t// in\n    tag_102:\n        /* \"#utility.yul\":3469:3691   */\n      swap3\n      swap2\n      pop\n      pop\n      jump\t// out\n        /* \"#utility.yul\":3778:3876   */\n    tag_79:\n        /* \"#utility.yul\":3829:3835   */\n      0x00\n        /* \"#utility.yul\":3863:3868   */\n      dup2\n        /* \"#utility.yul\":3857:3869   */\n      mload\n        /* \"#utility.yul\":3847:3869   */\n      swap1\n      pop\n        /* \"#utility.yul\":3778:3876   */\n      swap2\n      swap1\n      pop\n      jump\t// out\n        /* \"#utility.yul\":3882:4050   */\n    tag_81:\n        /* \"#utility.yul\":3965:3976   */\n      0x00\n        /* \"#utility.yul\":3999:4005   */\n      dup3\n        /* \"#utility.yul\":3994:3997   */\n      dup3\n        /* \"#utility.yul\":3987:4006   */\n      mstore\n        /* \"#utility.yul\":4039:4043   */\n      0x20\n        /* \"#utility.yul\":4034:4037   */\n      dup3\n        /* \"#utility.yul\":4030:4044   */\n      add\n        /* \"#utility.yul\":4015:4044   */\n      swap1\n      pop\n        /* \"#utility.yul\":3882:4050   */\n      swap3\n      swap2\n      pop\n      pop\n      jump\t// out\n        /* \"#utility.yul\":4056:4203   */\n    tag_90:\n        /* \"#utility.yul\":4157:4168   */\n      0x00\n        /* \"#utility.yul\":4194:4197   */\n      dup2\n        /* \"#utility.yul\":4179:4197   */\n      swap1\n      pop\n        /* \"#utility.yul\":4056:4203   */\n      swap3\n      swap2\n      pop\n      pop\n      jump\t// out\n        /* \"#utility.yul\":4209:4305   */\n    tag_108:\n        /* \"#utility.yul\":4246:4253   */\n      0x00\n        /* \"#utility.yul\":4275:4299   */\n      tag_110\n        /* \"#utility.yul\":4293:4298   */\n      dup3\n        /* \"#utility.yul\":4275:4299   */\n      tag_111\n      jump\t// in\n    tag_110:\n        /* \"#utility.yul\":4264:4299   */\n      swap1\n      pop\n        /* \"#utility.yul\":4209:4305   */\n      swap2\n      swap1\n      pop\n      jump\t// out\n        /* \"#utility.yul\":4311:4415   */\n    tag_112:\n        /* \"#utility.yul\":4356:4363   */\n      0x00\n        /* \"#utility.yul\":4385:4409   */\n      tag_114\n        /* \"#utility.yul\":4403:4408   */\n      dup3\n        /* \"#utility.yul\":4385:4409   */\n      tag_111\n      jump\t// in\n    tag_114:\n        /* \"#utility.yul\":4374:4409   */\n      swap1\n      pop\n        /* \"#utility.yul\":4311:4415   */\n      swap2\n      swap1\n      pop\n      jump\t// out\n        /* \"#utility.yul\":4421:4511   */\n    tag_75:\n        /* \"#utility.yul\":4455:4462   */\n      0x00\n        /* \"#utility.yul\":4498:4503   */\n      dup2\n        /* \"#utility.yul\":4491:4504   */\n      iszero\n        /* \"#utility.yul\":4484:4505   */\n      iszero\n        /* \"#utility.yul\":4473:4505   */\n      swap1\n      pop\n        /* \"#utility.yul\":4421:4511   */\n      swap2\n      swap1\n      pop\n      jump\t// out\n        /* \"#utility.yul\":4517:4643   */\n    tag_111:\n        /* \"#utility.yul\":4554:4561   */\n      0x00\n        /* \"#utility.yul\":4594:4636   */\n      0xffffffffffffffffffffffffffffffffffffffff\n        /* \"#utility.yul\":4587:4592   */\n      dup3\n        /* \"#utility.yul\":4583:4637   */\n      and\n        /* \"#utility.yul\":4572:4637   */\n      swap1\n      pop\n        /* \"#utility.yul\":4517:4643   */\n      swap2\n      swap1\n      pop\n      jump\t// out\n        /* \"#utility.yul\":4649:4726   */\n    tag_95:\n        /* \"#utility.yul\":4686:4693   */\n      0x00\n        /* \"#utility.yul\":4715:4720   */\n      dup2\n        /* \"#utility.yul\":4704:4720   */\n      swap1\n      pop\n        /* \"#utility.yul\":4649:4726   */\n      swap2\n      swap1\n      pop\n      jump\t// out\n        /* \"#utility.yul\":4732:5039   */\n    tag_83:\n        /* \"#utility.yul\":4800:4801   */\n      0x00\n        /* \"#utility.yul\":4810:4923   */\n    tag_119:\n        /* \"#utility.yul\":4824:4830   */\n      dup4\n        /* \"#utility.yul\":4821:4822   */\n      dup2\n        /* \"#utility.yul\":4818:4831   */\n      lt\n        /* \"#utility.yul\":4810:4923   */\n      iszero\n      tag_121\n      jumpi\n        /* \"#utility.yul\":4909:4910   */\n      dup1\n        /* \"#utility.yul\":4904:4907   */\n      dup3\n        /* \"#utility.yul\":4900:4911   */\n      add\n        /* \"#utility.yul\":4894:4912   */\n      mload\n        /* \"#utility.yul\":4890:4891   */\n      dup2\n        /* \"#utility.yul\":4885:4888   */\n      dup5\n        /* \"#utility.yul\":4881:4892   */\n      add\n        /* \"#utility.yul\":4874:4913   */\n      mstore\n        /* \"#utility.yul\":4846:4848   */\n      0x20\n        /* \"#utility.yul\":4843:4844   */\n      dup2\n        /* \"#utility.yul\":4839:4849   */\n      add\n        /* \"#utility.yul\":4834:4849   */\n      swap1\n      pop\n        /* \"#utility.yul\":4810:4923   */\n      jump(tag_119)\n    tag_121:\n        /* \"#utility.yul\":4941:4947   */\n      dup4\n        /* \"#utility.yul\":4938:4939   */\n      dup2\n        /* \"#utility.yul\":4935:4948   */\n      gt\n        /* \"#utility.yul\":4932:5033   */\n      iszero\n      tag_122\n      jumpi\n        /* \"#utility.yul\":5021:5022   */\n      0x00\n        /* \"#utility.yul\":5012:5018   */\n      dup5\n        /* \"#utility.yul\":5007:5010   */\n      dup5\n        /* \"#utility.yul\":5003:5019   */\n      add\n        /* \"#utility.yul\":4996:5023   */\n      mstore\n        /* \"#utility.yul\":4932:5033   */\n    tag_122:\n        /* \"#utility.yul\":4781:5039   */\n      pop\n        /* \"#utility.yul\":4732:5039   */\n      pop\n      pop\n      pop\n      jump\t// out\n        /* \"#utility.yul\":5168:5285   */\n    tag_61:\n        /* \"#utility.yul\":5277:5278   */\n      0x00\n        /* \"#utility.yul\":5274:5275   */\n      dup1\n        /* \"#utility.yul\":5267:5279   */\n      revert\n        /* \"#utility.yul\":5291:5393   */\n    tag_85:\n        /* \"#utility.yul\":5332:5338   */\n      0x00\n        /* \"#utility.yul\":5383:5385   */\n      0x1f\n        /* \"#utility.yul\":5379:5386   */\n      not\n        /* \"#utility.yul\":5374:5376   */\n      0x1f\n        /* \"#utility.yul\":5367:5372   */\n      dup4\n        /* \"#utility.yul\":5363:5377   */\n      add\n        /* \"#utility.yul\":5359:5387   */\n      and\n        /* \"#utility.yul\":5349:5387   */\n      swap1\n      pop\n        /* \"#utility.yul\":5291:5393   */\n      swap2\n      swap1\n      pop\n      jump\t// out\n        /* \"#utility.yul\":5399:5521   */\n    tag_46:\n        /* \"#utility.yul\":5472:5496   */\n      tag_128\n        /* \"#utility.yul\":5490:5495   */\n      dup2\n        /* \"#utility.yul\":5472:5496   */\n      tag_108\n      jump\t// in\n    tag_128:\n        /* \"#utility.yul\":5465:5470   */\n      dup2\n        /* \"#utility.yul\":5462:5497   */\n      eq\n        /* \"#utility.yul\":5452:5515   */\n      tag_129\n      jumpi\n        /* \"#utility.yul\":5511:5512   */\n      0x00\n        /* \"#utility.yul\":5508:5509   */\n      dup1\n        /* \"#utility.yul\":5501:5513   */\n      revert\n        /* \"#utility.yul\":5452:5515   */\n    tag_129:\n        /* \"#utility.yul\":5399:5521   */\n      pop\n      jump\t// out\n        /* \"#utility.yul\":5527:5665   */\n    tag_50:\n        /* \"#utility.yul\":5608:5640   */\n      tag_131\n        /* \"#utility.yul\":5634:5639   */\n      dup2\n        /* \"#utility.yul\":5608:5640   */\n      tag_112\n      jump\t// in\n    tag_131:\n        /* \"#utility.yul\":5601:5606   */\n      dup2\n        /* \"#utility.yul\":5598:5641   */\n      eq\n        /* \"#utility.yul\":5588:5659   */\n      tag_132\n      jumpi\n        /* \"#utility.yul\":5655:5656   */\n      0x00\n        /* \"#utility.yul\":5652:5653   */\n      dup1\n        /* \"#utility.yul\":5645:5657   */\n      revert\n        /* \"#utility.yul\":5588:5659   */\n    tag_132:\n        /* \"#utility.yul\":5527:5665   */\n      pop\n      jump\t// out\n        /* \"#utility.yul\":5671:5793   */\n    tag_54:\n        /* \"#utility.yul\":5744:5768   */\n      tag_134\n        /* \"#utility.yul\":5762:5767   */\n      dup2\n        /* \"#utility.yul\":5744:5768   */\n      tag_95\n      jump\t// in\n    tag_134:\n        /* \"#utility.yul\":5737:5742   */\n      dup2\n        /* \"#utility.yul\":5734:5769   */\n      eq\n        /* \"#utility.yul\":5724:5787   */\n      tag_135\n      jumpi\n        /* \"#utility.yul\":5783:5784   */\n      0x00\n        /* \"#utility.yul\":5780:5781   */\n      dup1\n        /* \"#utility.yul\":5773:5785   */\n      revert\n        /* \"#utility.yul\":5724:5787   */\n    tag_135:\n        /* \"#utility.yul\":5671:5793   */\n      pop\n      jump\t// out\n\n    auxdata: 0xa2646970667358221220824c6138008b7c31d860b047df4a9f95cd541debb6a7cf0d59b560f886310d4164736f6c63430008070033\n}\n",
				"bytecode": {
					"linkReferences": {},
					"object": "608060405234801561001057600080fd5b50610753806100206000396000f3fe6080604052600436106100345760003560e01c8063392f4fc2146100395780638d5e7d0814610062578063d99853bf1461009f575b600080fd5b34801561004557600080fd5b50610060600480360381019061005b919061048a565b6100bb565b005b34801561006e57600080fd5b506100896004803603810190610084919061048a565b6101ea565b60405161009691906105f3565b60405180910390f35b6100b960048036038101906100b491906104b7565b610333565b005b6000808273ffffffffffffffffffffffffffffffffffffffff166040516024016040516020818303038152906040527f2fbebd38000000000000000000000000000000000000000000000000000000007bffffffffffffffffffffffffffffffffffffffffffffffffffffffff19166020820180517bffffffffffffffffffffffffffffffffffffffffffffffffffffffff838183161783525050505060405161016591906105ac565b6000604051808303816000865af19150503d80600081146101a2576040519150601f19603f3d011682016040523d82523d6000602084013e6101a7565b606091505b50915091507f13848c3e38f8886f3f5d2ad9dff80d8092c2bbb8efd5b887a99c2c6cfc09ac2a82826040516101dd9291906105c3565b60405180910390a1505050565b60008060008373ffffffffffffffffffffffffffffffffffffffff166040516024016040516020818303038152906040527f5197c7aa000000000000000000000000000000000000000000000000000000007bffffffffffffffffffffffffffffffffffffffffffffffffffffffff19166020820180517bffffffffffffffffffffffffffffffffffffffffffffffffffffffff838183161783525050505060405161029691906105ac565b6000604051808303816000865af19150503d80600081146102d3576040519150601f19603f3d011682016040523d82523d6000602084013e6102d8565b606091505b50915091507f13848c3e38f8886f3f5d2ad9dff80d8092c2bbb8efd5b887a99c2c6cfc09ac2a828260405161030e9291906105c3565b60405180910390a18080602001905181019061032a91906104f7565b92505050919050565b6000808373ffffffffffffffffffffffffffffffffffffffff16348460405160240161035f91906105f3565b6040516020818303038152906040527f4018d9aa000000000000000000000000000000000000000000000000000000007bffffffffffffffffffffffffffffffffffffffffffffffffffffffff19166020820180517bffffffffffffffffffffffffffffffffffffffffffffffffffffffff83818316178352505050506040516103e991906105ac565b60006040518083038185875af1925050503d8060008114610426576040519150601f19603f3d011682016040523d82523d6000602084013e61042b565b606091505b509150915050505050565b600081359050610445816106d8565b92915050565b60008135905061045a816106ef565b92915050565b60008135905061046f81610706565b92915050565b60008151905061048481610706565b92915050565b6000602082840312156104a05761049f6106c2565b5b60006104ae84828501610436565b91505092915050565b600080604083850312156104ce576104cd6106c2565b5b60006104dc8582860161044b565b92505060206104ed85828601610460565b9150509250929050565b60006020828403121561050d5761050c6106c2565b5b600061051b84828501610475565b91505092915050565b61052d81610659565b82525050565b600061053e8261060e565b6105488185610619565b935061055881856020860161068f565b610561816106c7565b840191505092915050565b60006105778261060e565b610581818561062a565b935061059181856020860161068f565b80840191505092915050565b6105a681610685565b82525050565b60006105b8828461056c565b915081905092915050565b60006040820190506105d86000830185610524565b81810360208301526105ea8184610533565b90509392505050565b6000602082019050610608600083018461059d565b92915050565b600081519050919050565b600082825260208201905092915050565b600081905092915050565b600061064082610665565b9050919050565b600061065282610665565b9050919050565b60008115159050919050565b600073ffffffffffffffffffffffffffffffffffffffff82169050919050565b6000819050919050565b60005b838110156106ad578082015181840152602081019050610692565b838111156106bc576000848401525b50505050565b600080fd5b6000601f19601f8301169050919050565b6106e181610635565b81146106ec57600080fd5b50565b6106f881610647565b811461070357600080fd5b50565b61070f81610685565b811461071a57600080fd5b5056fea2646970667358221220824c6138008b7c31d860b047df4a9f95cd541debb6a7cf0d59b560f886310d4164736f6c63430008070033",
					"opcodes": "PUSH1 0x80 PUSH1 0x40 MSTORE CALLVALUE DUP1 ISZERO PUSH2 0x10 JUMPI PUSH1 0x0 DUP1 REVERT JUMPDEST POP PUSH2 0x753 DUP1 PUSH2 0x20 PUSH1 0x0 CODECOPY PUSH1 0x0 RETURN INVALID PUSH1 0x80 PUSH1 0x40 MSTORE PUSH1 0x4 CALLDATASIZE LT PUSH2 0x34 JUMPI PUSH1 0x0 CALLDATALOAD PUSH1 0xE0 SHR DUP1 PUSH4 0x392F4FC2 EQ PUSH2 0x39 JUMPI DUP1 PUSH4 0x8D5E7D08 EQ PUSH2 0x62 JUMPI DUP1 PUSH4 0xD99853BF EQ PUSH2 0x9F JUMPI JUMPDEST PUSH1 0x0 DUP1 REVERT JUMPDEST CALLVALUE DUP1 ISZERO PUSH2 0x45 JUMPI PUSH1 0x0 DUP1 REVERT JUMPDEST POP PUSH2 0x60 PUSH1 0x4 DUP1 CALLDATASIZE SUB DUP2 ADD SWAP1 PUSH2 0x5B SWAP2 SWAP1 PUSH2 0x48A JUMP JUMPDEST PUSH2 0xBB JUMP JUMPDEST STOP JUMPDEST CALLVALUE DUP1 ISZERO PUSH2 0x6E JUMPI PUSH1 0x0 DUP1 REVERT JUMPDEST POP PUSH2 0x89 PUSH1 0x4 DUP1 CALLDATASIZE SUB DUP2 ADD SWAP1 PUSH2 0x84 SWAP2 SWAP1 PUSH2 0x48A JUMP JUMPDEST PUSH2 0x1EA JUMP JUMPDEST PUSH1 0x40 MLOAD PUSH2 0x96 SWAP2 SWAP1 PUSH2 0x5F3 JUMP JUMPDEST PUSH1 0x40 MLOAD DUP1 SWAP2 SUB SWAP1 RETURN JUMPDEST PUSH2 0xB9 PUSH1 0x4 DUP1 CALLDATASIZE SUB DUP2 ADD SWAP1 PUSH2 0xB4 SWAP2 SWAP1 PUSH2 0x4B7 JUMP JUMPDEST PUSH2 0x333 JUMP JUMPDEST STOP JUMPDEST PUSH1 0x0 DUP1 DUP3 PUSH20 0xFFFFFFFFFFFFFFFFFFFFFFFFFFFFFFFFFFFFFFFF AND PUSH1 0x40 MLOAD PUSH1 0x24 ADD PUSH1 0x40 MLOAD PUSH1 0x20 DUP2 DUP4 SUB SUB DUP2 MSTORE SWAP1 PUSH1 0x40 MSTORE PUSH32 0x2FBEBD3800000000000000000000000000000000000000000000000000000000 PUSH28 0xFFFFFFFFFFFFFFFFFFFFFFFFFFFFFFFFFFFFFFFFFFFFFFFFFFFFFFFF NOT AND PUSH1 0x20 DUP3 ADD DUP1 MLOAD PUSH28 0xFFFFFFFFFFFFFFFFFFFFFFFFFFFFFFFFFFFFFFFFFFFFFFFFFFFFFFFF DUP4 DUP2 DUP4 AND OR DUP4 MSTORE POP POP POP POP PUSH1 0x40 MLOAD PUSH2 0x165 SWAP2 SWAP1 PUSH2 0x5AC JUMP JUMPDEST PUSH1 0x0 PUSH1 0x40 MLOAD DUP1 DUP4 SUB DUP2 PUSH1 0x0 DUP7 GAS CALL SWAP2 POP POP RETURNDATASIZE DUP1 PUSH1 0x0 DUP2 EQ PUSH2 0x1A2 JUMPI PUSH1 0x40 MLOAD SWAP2 POP PUSH1 0x1F NOT PUSH1 0x3F RETURNDATASIZE ADD AND DUP3 ADD PUSH1 0x40 MSTORE RETURNDATASIZE DUP3 MSTORE RETURNDATASIZE PUSH1 0x0 PUSH1 0x20 DUP5 ADD RETURNDATACOPY PUSH2 0x1A7 JUMP JUMPDEST PUSH1 0x60 SWAP2 POP JUMPDEST POP SWAP2 POP SWAP2 POP PUSH32 0x13848C3E38F8886F3F5D2AD9DFF80D8092C2BBB8EFD5B887A99C2C6CFC09AC2A DUP3 DUP3 PUSH1 0x40 MLOAD PUSH2 0x1DD SWAP3 SWAP2 SWAP1 PUSH2 0x5C3 JUMP JUMPDEST PUSH1 0x40 MLOAD DUP1 SWAP2 SUB SWAP1 LOG1 POP POP POP JUMP JUMPDEST PUSH1 0x0 DUP1 PUSH1 0x0 DUP4 PUSH20 0xFFFFFFFFFFFFFFFFFFFFFFFFFFFFFFFFFFFFFFFF AND PUSH1 0x40 MLOAD PUSH1 0x24 ADD PUSH1 0x40 MLOAD PUSH1 0x20 DUP2 DUP4 SUB SUB DUP2 MSTORE SWAP1 PUSH1 0x40 MSTORE PUSH32 0x5197C7AA00000000000000000000000000000000000000000000000000000000 PUSH28 0xFFFFFFFFFFFFFFFFFFFFFFFFFFFFFFFFFFFFFFFFFFFFFFFFFFFFFFFF NOT AND PUSH1 0x20 DUP3 ADD DUP1 MLOAD PUSH28 0xFFFFFFFFFFFFFFFFFFFFFFFFFFFFFFFFFFFFFFFFFFFFFFFFFFFFFFFF DUP4 DUP2 DUP4 AND OR DUP4 MSTORE POP POP POP POP PUSH1 0x40 MLOAD PUSH2 0x296 SWAP2 SWAP1 PUSH2 0x5AC JUMP JUMPDEST PUSH1 0x0 PUSH1 0x40 MLOAD DUP1 DUP4 SUB DUP2 PUSH1 0x0 DUP7 GAS CALL SWAP2 POP POP RETURNDATASIZE DUP1 PUSH1 0x0 DUP2 EQ PUSH2 0x2D3 JUMPI PUSH1 0x40 MLOAD SWAP2 POP PUSH1 0x1F NOT PUSH1 0x3F RETURNDATASIZE ADD AND DUP3 ADD PUSH1 0x40 MSTORE RETURNDATASIZE DUP3 MSTORE RETURNDATASIZE PUSH1 0x0 PUSH1 0x20 DUP5 ADD RETURNDATACOPY PUSH2 0x2D8 JUMP JUMPDEST PUSH1 0x60 SWAP2 POP JUMPDEST POP SWAP2 POP SWAP2 POP PUSH32 0x13848C3E38F8886F3F5D2AD9DFF80D8092C2BBB8EFD5B887A99C2C6CFC09AC2A DUP3 DUP3 PUSH1 0x40 MLOAD PUSH2 0x30E SWAP3 SWAP2 SWAP1 PUSH2 0x5C3 JUMP JUMPDEST PUSH1 0x40 MLOAD DUP1 SWAP2 SUB SWAP1 LOG1 DUP1 DUP1 PUSH1 0x20 ADD SWAP1 MLOAD DUP2 ADD SWAP1 PUSH2 0x32A SWAP2 SWAP1 PUSH2 0x4F7 JUMP JUMPDEST SWAP3 POP POP POP SWAP2 SWAP1 POP JUMP JUMPDEST PUSH1 0x0 DUP1 DUP4 PUSH20 0xFFFFFFFFFFFFFFFFFFFFFFFFFFFFFFFFFFFFFFFF AND CALLVALUE DUP5 PUSH1 0x40 MLOAD PUSH1 0x24 ADD PUSH2 0x35F SWAP2 SWAP1 PUSH2 0x5F3 JUMP JUMPDEST PUSH1 0x40 MLOAD PUSH1 0x20 DUP2 DUP4 SUB SUB DUP2 MSTORE SWAP1 PUSH1 0x40 MSTORE PUSH32 0x4018D9AA00000000000000000000000000000000000000000000000000000000 PUSH28 0xFFFFFFFFFFFFFFFFFFFFFFFFFFFFFFFFFFFFFFFFFFFFFFFFFFFFFFFF NOT AND PUSH1 0x20 DUP3 ADD DUP1 MLOAD PUSH28 0xFFFFFFFFFFFFFFFFFFFFFFFFFFFFFFFFFFFFFFFFFFFFFFFFFFFFFFFF DUP4 DUP2 DUP4 AND OR DUP4 MSTORE POP POP POP POP PUSH1 0x40 MLOAD PUSH2 0x3E9 SWAP2 SWAP1 PUSH2 0x5AC JUMP JUMPDEST PUSH1 0x0 PUSH1 0x40 MLOAD DUP1 DUP4 SUB DUP2 DUP6 DUP8 GAS CALL SWAP3 POP POP POP RETURNDATASIZE DUP1 PUSH1 0x0 DUP2 EQ PUSH2 0x426 JUMPI PUSH1 0x40 MLOAD SWAP2 POP PUSH1 0x1F NOT PUSH1 0x3F RETURNDATASIZE ADD AND DUP3 ADD PUSH1 0x40 MSTORE RETURNDATASIZE DUP3 MSTORE RETURNDATASIZE PUSH1 0x0 PUSH1 0x20 DUP5 ADD RETURNDATACOPY PUSH2 0x42B JUMP JUMPDEST PUSH1 0x60 SWAP2 POP JUMPDEST POP SWAP2 POP SWAP2 POP POP POP POP POP JUMP JUMPDEST PUSH1 0x0 DUP2 CALLDATALOAD SWAP1 POP PUSH2 0x445 DUP2 PUSH2 0x6D8 JUMP JUMPDEST SWAP3 SWAP2 POP POP JUMP JUMPDEST PUSH1 0x0 DUP2 CALLDATALOAD SWAP1 POP PUSH2 0x45A DUP2 PUSH2 0x6EF JUMP JUMPDEST SWAP3 SWAP2 POP POP JUMP JUMPDEST PUSH1 0x0 DUP2 CALLDATALOAD SWAP1 POP PUSH2 0x46F DUP2 PUSH2 0x706 JUMP JUMPDEST SWAP3 SWAP2 POP POP JUMP JUMPDEST PUSH1 0x0 DUP2 MLOAD SWAP1 POP PUSH2 0x484 DUP2 PUSH2 0x706 JUMP JUMPDEST SWAP3 SWAP2 POP POP JUMP JUMPDEST PUSH1 0x0 PUSH1 0x20 DUP3 DUP5 SUB SLT ISZERO PUSH2 0x4A0 JUMPI PUSH2 0x49F PUSH2 0x6C2 JUMP JUMPDEST JUMPDEST PUSH1 0x0 PUSH2 0x4AE DUP5 DUP3 DUP6 ADD PUSH2 0x436 JUMP JUMPDEST SWAP2 POP POP SWAP3 SWAP2 POP POP JUMP JUMPDEST PUSH1 0x0 DUP1 PUSH1 0x40 DUP4 DUP6 SUB SLT ISZERO PUSH2 0x4CE JUMPI PUSH2 0x4CD PUSH2 0x6C2 JUMP JUMPDEST JUMPDEST PUSH1 0x0 PUSH2 0x4DC DUP6 DUP3 DUP7 ADD PUSH2 0x44B JUMP JUMPDEST SWAP3 POP POP PUSH1 0x20 PUSH2 0x4ED DUP6 DUP3 DUP7 ADD PUSH2 0x460 JUMP JUMPDEST SWAP2 POP POP SWAP3 POP SWAP3 SWAP1 POP JUMP JUMPDEST PUSH1 0x0 PUSH1 0x20 DUP3 DUP5 SUB SLT ISZERO PUSH2 0x50D JUMPI PUSH2 0x50C PUSH2 0x6C2 JUMP JUMPDEST JUMPDEST PUSH1 0x0 PUSH2 0x51B DUP5 DUP3 DUP6 ADD PUSH2 0x475 JUMP JUMPDEST SWAP2 POP POP SWAP3 SWAP2 POP POP JUMP JUMPDEST PUSH2 0x52D DUP2 PUSH2 0x659 JUMP JUMPDEST DUP3 MSTORE POP POP JUMP JUMPDEST PUSH1 0x0 PUSH2 0x53E DUP3 PUSH2 0x60E JUMP JUMPDEST PUSH2 0x548 DUP2 DUP6 PUSH2 0x619 JUMP JUMPDEST SWAP4 POP PUSH2 0x558 DUP2 DUP6 PUSH1 0x20 DUP7 ADD PUSH2 0x68F JUMP JUMPDEST PUSH2 0x561 DUP2 PUSH2 0x6C7 JUMP JUMPDEST DUP5 ADD SWAP2 POP POP SWAP3 SWAP2 POP POP JUMP JUMPDEST PUSH1 0x0 PUSH2 0x577 DUP3 PUSH2 0x60E JUMP JUMPDEST PUSH2 0x581 DUP2 DUP6 PUSH2 0x62A JUMP JUMPDEST SWAP4 POP PUSH2 0x591 DUP2 DUP6 PUSH1 0x20 DUP7 ADD PUSH2 0x68F JUMP JUMPDEST DUP1 DUP5 ADD SWAP2 POP POP SWAP3 SWAP2 POP POP JUMP JUMPDEST PUSH2 0x5A6 DUP2 PUSH2 0x685 JUMP JUMPDEST DUP3 MSTORE POP POP JUMP JUMPDEST PUSH1 0x0 PUSH2 0x5B8 DUP3 DUP5 PUSH2 0x56C JUMP JUMPDEST SWAP2 POP DUP2 SWAP1 POP SWAP3 SWAP2 POP POP JUMP JUMPDEST PUSH1 0x0 PUSH1 0x40 DUP3 ADD SWAP1 POP PUSH2 0x5D8 PUSH1 0x0 DUP4 ADD DUP6 PUSH2 0x524 JUMP JUMPDEST DUP2 DUP2 SUB PUSH1 0x20 DUP4 ADD MSTORE PUSH2 0x5EA DUP2 DUP5 PUSH2 0x533 JUMP JUMPDEST SWAP1 POP SWAP4 SWAP3 POP POP POP JUMP JUMPDEST PUSH1 0x0 PUSH1 0x20 DUP3 ADD SWAP1 POP PUSH2 0x608 PUSH1 0x0 DUP4 ADD DUP5 PUSH2 0x59D JUMP JUMPDEST SWAP3 SWAP2 POP POP JUMP JUMPDEST PUSH1 0x0 DUP2 MLOAD SWAP1 POP SWAP2 SWAP1 POP JUMP JUMPDEST PUSH1 0x0 DUP3 DUP3 MSTORE PUSH1 0x20 DUP3 ADD SWAP1 POP SWAP3 SWAP2 POP POP JUMP JUMPDEST PUSH1 0x0 DUP2 SWAP1 POP SWAP3 SWAP2 POP POP JUMP JUMPDEST PUSH1 0x0 PUSH2 0x640 DUP3 PUSH2 0x665 JUMP JUMPDEST SWAP1 POP SWAP2 SWAP1 POP JUMP JUMPDEST PUSH1 0x0 PUSH2 0x652 DUP3 PUSH2 0x665 JUMP JUMPDEST SWAP1 POP SWAP2 SWAP1 POP JUMP JUMPDEST PUSH1 0x0 DUP2 ISZERO ISZERO SWAP1 POP SWAP2 SWAP1 POP JUMP JUMPDEST PUSH1 0x0 PUSH20 0xFFFFFFFFFFFFFFFFFFFFFFFFFFFFFFFFFFFFFFFF DUP3 AND SWAP1 POP SWAP2 SWAP1 POP JUMP JUMPDEST PUSH1 0x0 DUP2 SWAP1 POP SWAP2 SWAP1 POP JUMP JUMPDEST PUSH1 0x0 JUMPDEST DUP4 DUP2 LT ISZERO PUSH2 0x6AD JUMPI DUP1 DUP3 ADD MLOAD DUP2 DUP5 ADD MSTORE PUSH1 0x20 DUP2 ADD SWAP1 POP PUSH2 0x692 JUMP JUMPDEST DUP4 DUP2 GT ISZERO PUSH2 0x6BC JUMPI PUSH1 0x0 DUP5 DUP5 ADD MSTORE JUMPDEST POP POP POP POP JUMP JUMPDEST PUSH1 0x0 DUP1 REVERT JUMPDEST PUSH1 0x0 PUSH1 0x1F NOT PUSH1 0x1F DUP4 ADD AND SWAP1 POP SWAP2 SWAP1 POP JUMP JUMPDEST PUSH2 0x6E1 DUP2 PUSH2 0x635 JUMP JUMPDEST DUP2 EQ PUSH2 0x6EC JUMPI PUSH1 0x0 DUP1 REVERT JUMPDEST POP JUMP JUMPDEST PUSH2 0x6F8 DUP2 PUSH2 0x647 JUMP JUMPDEST DUP2 EQ PUSH2 0x703 JUMPI PUSH1 0x0 DUP1 REVERT JUMPDEST POP JUMP JUMPDEST PUSH2 0x70F DUP2 PUSH2 0x685 JUMP JUMPDEST DUP2 EQ PUSH2 0x71A JUMPI PUSH1 0x0 DUP1 REVERT JUMPDEST POP JUMP INVALID LOG2 PUSH5 0x6970667358 0x22 SLT KECCAK256 DUP3 0x4C PUSH2 0x3800 DUP12 PUSH29 0x31D860B047DF4A9F95CD541DEBB6A7CF0D59B560F886310D4164736F6C PUSH4 0x43000807 STOP CALLER "
				},
				"gasEstimates": {
					"creation": {
						"codeDepositCost": "375000",
						"executionCost": "411",
						"totalCost": "375411"
					},
					"external": {
						"callTargetFun(address,uint256)": "infinite",
						"callTargetFun2(address)": "infinite",
						"callTargetNotExitFun(address)": "infinite"
					}
				},
				"methodIdentifiers": {
					"callTargetFun(address,uint256)": "d99853bf",
					"callTargetFun2(address)": "8d5e7d08",
					"callTargetNotExitFun(address)": "392f4fc2"
				}
			},
			"storageLayout": {
				"storage": [],
				"types": null
			},
			"userdoc": {
				"kind": "user",
				"methods": {},
				"version": 1
			}
		}
	}
}