{
	"contracts/_LearnEvent.sol": {
		"LearnError": {
			"abi": [
				{
					"inputs": [],
					"stateMutability": "nonpayable",
					"type": "constructor"
				},
				{
					"inputs": [
						{
							"internalType": "uint256",
							"name": "payMount",
							"type": "uint256"
						},
						{
							"internalType": "uint256",
							"name": "amount",
							"type": "uint256"
						}
					],
					"name": "NotEnoughFunds",
					"type": "error"
				},
				{
					"inputs": [
						{
							"internalType": "address",
							"name": "reviceAdd",
							"type": "address"
						},
						{
							"internalType": "uint256",
							"name": "payAmount",
							"type": "uint256"
						}
					],
					"name": "pay",
					"outputs": [],
					"stateMutability": "nonpayable",
					"type": "function"
				}
			],
			"devdoc": {
				"kind": "dev",
				"methods": {},
				"version": 1
			},
			"evm": {
				"assembly": "    /* \"contracts/_LearnEvent.sol\":157:1024  contract LearnError {... */\n  mstore(0x40, 0x80)\n    /* \"contracts/_LearnEvent.sol\":328:383  constructor() {... */\n  callvalue\n  dup1\n  iszero\n  tag_1\n  jumpi\n  0x00\n  dup1\n  revert\ntag_1:\n  pop\n    /* \"contracts/_LearnEvent.sol\":366:376  msg.sender */\n  caller\n    /* \"contracts/_LearnEvent.sol\":352:363  chairperson */\n  0x00\n  dup1\n    /* \"contracts/_LearnEvent.sol\":352:376  chairperson = msg.sender */\n  0x0100\n  exp\n  dup2\n  sload\n  dup2\n  0xffffffffffffffffffffffffffffffffffffffff\n  mul\n  not\n  and\n  swap1\n  dup4\n  0xffffffffffffffffffffffffffffffffffffffff\n  and\n  mul\n  or\n  swap1\n  sstore\n  pop\n    /* \"contracts/_LearnEvent.sol\":157:1024  contract LearnError {... */\n  dataSize(sub_0)\n  dup1\n  dataOffset(sub_0)\n  0x00\n  codecopy\n  0x00\n  return\nstop\n\nsub_0: assembly {\n        /* \"contracts/_LearnEvent.sol\":157:1024  contract LearnError {... */\n      mstore(0x40, 0x80)\n      callvalue\n      dup1\n      iszero\n      tag_1\n      jumpi\n      0x00\n      dup1\n      revert\n    tag_1:\n      pop\n      jumpi(tag_2, lt(calldatasize, 0x04))\n      shr(0xe0, calldataload(0x00))\n      dup1\n      0xc4076876\n      eq\n      tag_3\n      jumpi\n    tag_2:\n      0x00\n      dup1\n      revert\n        /* \"contracts/_LearnEvent.sol\":551:1022  function pay(address reviceAdd, uint payAmount) public _isOwner {... */\n    tag_3:\n      tag_4\n      0x04\n      dup1\n      calldatasize\n      sub\n      dup2\n      add\n      swap1\n      tag_5\n      swap2\n      swap1\n      tag_6\n      jump\t// in\n    tag_5:\n      tag_7\n      jump\t// in\n    tag_4:\n      stop\n    tag_7:\n        /* \"contracts/_LearnEvent.sol\":269:280  chairperson */\n      0x00\n      dup1\n      sload\n      swap1\n      0x0100\n      exp\n      swap1\n      div\n      0xffffffffffffffffffffffffffffffffffffffff\n      and\n        /* \"contracts/_LearnEvent.sol\":255:280  msg.sender == chairperson */\n      0xffffffffffffffffffffffffffffffffffffffff\n      and\n        /* \"contracts/_LearnEvent.sol\":255:265  msg.sender */\n      caller\n        /* \"contracts/_LearnEvent.sol\":255:280  msg.sender == chairperson */\n      0xffffffffffffffffffffffffffffffffffffffff\n      and\n      eq\n        /* \"contracts/_LearnEvent.sol\":247:304  require(msg.sender == chairperson, \"Caller is not owner\") */\n      tag_9\n      jumpi\n      mload(0x40)\n      0x08c379a000000000000000000000000000000000000000000000000000000000\n      dup2\n      mstore\n      0x04\n      add\n      tag_10\n      swap1\n      tag_11\n      jump\t// in\n    tag_10:\n      mload(0x40)\n      dup1\n      swap2\n      sub\n      swap1\n      revert\n    tag_9:\n        /* \"contracts/_LearnEvent.sol\":707:719  uint balance */\n      0x00\n        /* \"contracts/_LearnEvent.sol\":722:730  balances */\n      0x01\n        /* \"contracts/_LearnEvent.sol\":722:743  balances[chairperson] */\n      0x00\n        /* \"contracts/_LearnEvent.sol\":731:742  chairperson */\n      dup1\n      0x00\n      swap1\n      sload\n      swap1\n      0x0100\n      exp\n      swap1\n      div\n      0xffffffffffffffffffffffffffffffffffffffff\n      and\n        /* \"contracts/_LearnEvent.sol\":722:743  balances[chairperson] */\n      0xffffffffffffffffffffffffffffffffffffffff\n      and\n      0xffffffffffffffffffffffffffffffffffffffff\n      and\n      dup2\n      mstore\n      0x20\n      add\n      swap1\n      dup2\n      mstore\n      0x20\n      add\n      0x00\n      keccak256\n      sload\n        /* \"contracts/_LearnEvent.sol\":707:743  uint balance = balances[chairperson] */\n      swap1\n      pop\n        /* \"contracts/_LearnEvent.sol\":753:792  console.log(\"current account:\",balance) */\n      tag_13\n      mload(0x40)\n      dup1\n      0x40\n      add\n      0x40\n      mstore\n      dup1\n      0x10\n      dup2\n      mstore\n      0x20\n      add\n      0x63757272656e74206163636f756e743a00000000000000000000000000000000\n      dup2\n      mstore\n      pop\n        /* \"contracts/_LearnEvent.sol\":784:791  balance */\n      dup3\n        /* \"contracts/_LearnEvent.sol\":753:764  console.log */\n      tag_14\n        /* \"contracts/_LearnEvent.sol\":753:792  console.log(\"current account:\",balance) */\n      jump\t// in\n    tag_13:\n        /* \"contracts/_LearnEvent.sol\":816:825  payAmount */\n      dup2\n        /* \"contracts/_LearnEvent.sol\":806:813  balance */\n      dup2\n        /* \"contracts/_LearnEvent.sol\":806:825  balance < payAmount */\n      lt\n        /* \"contracts/_LearnEvent.sol\":802:893  if (balance < payAmount) {... */\n      iszero\n      tag_15\n      jumpi\n        /* \"contracts/_LearnEvent.sol\":863:872  payAmount */\n      dup2\n        /* \"contracts/_LearnEvent.sol\":874:881  balance */\n      dup2\n        /* \"contracts/_LearnEvent.sol\":848:882  NotEnoughFunds(payAmount, balance) */\n      mload(0x40)\n      0x8c90536800000000000000000000000000000000000000000000000000000000\n      dup2\n      mstore\n      0x04\n      add\n      tag_16\n      swap3\n      swap2\n      swap1\n      tag_17\n      jump\t// in\n    tag_16:\n      mload(0x40)\n      dup1\n      swap2\n      sub\n      swap1\n      revert\n        /* \"contracts/_LearnEvent.sol\":802:893  if (balance < payAmount) {... */\n    tag_15:\n        /* \"contracts/_LearnEvent.sol\":964:973  payAmount */\n      dup2\n        /* \"contracts/_LearnEvent.sol\":940:948  balances */\n      0x01\n        /* \"contracts/_LearnEvent.sol\":940:960  balances[msg.sender] */\n      0x00\n        /* \"contracts/_LearnEvent.sol\":949:959  msg.sender */\n      caller\n        /* \"contracts/_LearnEvent.sol\":940:960  balances[msg.sender] */\n      0xffffffffffffffffffffffffffffffffffffffff\n      and\n      0xffffffffffffffffffffffffffffffffffffffff\n      and\n      dup2\n      mstore\n      0x20\n      add\n      swap1\n      dup2\n      mstore\n      0x20\n      add\n      0x00\n      keccak256\n      0x00\n        /* \"contracts/_LearnEvent.sol\":940:973  balances[msg.sender] -= payAmount */\n      dup3\n      dup3\n      sload\n      tag_18\n      swap2\n      swap1\n      tag_19\n      jump\t// in\n    tag_18:\n      swap3\n      pop\n      pop\n      dup2\n      swap1\n      sstore\n      pop\n        /* \"contracts/_LearnEvent.sol\":1006:1015  payAmount */\n      dup2\n        /* \"contracts/_LearnEvent.sol\":983:991  balances */\n      0x01\n        /* \"contracts/_LearnEvent.sol\":983:1002  balances[reviceAdd] */\n      0x00\n        /* \"contracts/_LearnEvent.sol\":992:1001  reviceAdd */\n      dup6\n        /* \"contracts/_LearnEvent.sol\":983:1002  balances[reviceAdd] */\n      0xffffffffffffffffffffffffffffffffffffffff\n      and\n      0xffffffffffffffffffffffffffffffffffffffff\n      and\n      dup2\n      mstore\n      0x20\n      add\n      swap1\n      dup2\n      mstore\n      0x20\n      add\n      0x00\n      keccak256\n      0x00\n        /* \"contracts/_LearnEvent.sol\":983:1015  balances[reviceAdd] += payAmount */\n      dup3\n      dup3\n      sload\n      tag_20\n      swap2\n      swap1\n      tag_21\n      jump\t// in\n    tag_20:\n      swap3\n      pop\n      pop\n      dup2\n      swap1\n      sstore\n      pop\n        /* \"contracts/_LearnEvent.sol\":615:1022  {... */\n      pop\n        /* \"contracts/_LearnEvent.sol\":551:1022  function pay(address reviceAdd, uint payAmount) public _isOwner {... */\n      pop\n      pop\n      jump\t// out\n        /* \"hardhat/console.sol\":5936:6072  function log(string memory p0, uint256 p1) internal view {... */\n    tag_14:\n        /* \"hardhat/console.sol\":5997:6068  _sendLogPayload(abi.encodeWithSignature(\"log(string,uint256)\", p0, p1)) */\n      tag_23\n        /* \"hardhat/console.sol\":6060:6062  p0 */\n      dup3\n        /* \"hardhat/console.sol\":6064:6066  p1 */\n      dup3\n        /* \"hardhat/console.sol\":6013:6067  abi.encodeWithSignature(\"log(string,uint256)\", p0, p1) */\n      add(0x24, mload(0x40))\n      tag_24\n      swap3\n      swap2\n      swap1\n      tag_25\n      jump\t// in\n    tag_24:\n      mload(0x40)\n      0x20\n      dup2\n      dup4\n      sub\n      sub\n      dup2\n      mstore\n      swap1\n      0x40\n      mstore\n      and(not(0xffffffffffffffffffffffffffffffffffffffffffffffffffffffff), 0xb60e72cc00000000000000000000000000000000000000000000000000000000)\n      0x20\n      dup3\n      add\n      dup1\n      mload\n      0xffffffffffffffffffffffffffffffffffffffffffffffffffffffff\n      dup4\n      dup2\n      dup4\n      and\n      or\n      dup4\n      mstore\n      pop\n      pop\n      pop\n      pop\n        /* \"hardhat/console.sol\":5997:6012  _sendLogPayload */\n      tag_26\n        /* \"hardhat/console.sol\":5997:6068  _sendLogPayload(abi.encodeWithSignature(\"log(string,uint256)\", p0, p1)) */\n      jump\t// in\n    tag_23:\n        /* \"hardhat/console.sol\":5936:6072  function log(string memory p0, uint256 p1) internal view {... */\n      pop\n      pop\n      jump\t// out\n        /* \"hardhat/console.sol\":176:464  function _sendLogPayload(bytes memory payload) private view {... */\n    tag_26:\n        /* \"hardhat/console.sol\":240:261  uint256 payloadLength */\n      0x00\n        /* \"hardhat/console.sol\":264:271  payload */\n      dup2\n        /* \"hardhat/console.sol\":264:278  payload.length */\n      mload\n        /* \"hardhat/console.sol\":240:278  uint256 payloadLength = payload.length */\n      swap1\n      pop\n        /* \"hardhat/console.sol\":282:304  address consoleAddress */\n      0x00\n        /* \"hardhat/console.sol\":129:171  0x000000000000000000636F6e736F6c652e6c6f67 */\n      0x636f6e736f6c652e6c6f67\n        /* \"hardhat/console.sol\":282:322  address consoleAddress = CONSOLE_ADDRESS */\n      swap1\n      pop\n        /* \"hardhat/console.sol\":373:375  32 */\n      0x20\n        /* \"hardhat/console.sol\":364:371  payload */\n      dup4\n        /* \"hardhat/console.sol\":360:376  add(payload, 32) */\n      add\n        /* \"hardhat/console.sol\":455:456  0 */\n      0x00\n        /* \"hardhat/console.sol\":452:453  0 */\n      dup1\n        /* \"hardhat/console.sol\":437:450  payloadLength */\n      dup5\n        /* \"hardhat/console.sol\":423:435  payloadStart */\n      dup4\n        /* \"hardhat/console.sol\":407:421  consoleAddress */\n      dup6\n        /* \"hardhat/console.sol\":400:405  gas() */\n      gas\n        /* \"hardhat/console.sol\":389:457  staticcall(gas(), consoleAddress, payloadStart, payloadLength, 0, 0) */\n      staticcall\n        /* \"hardhat/console.sol\":335:461  {... */\n      pop\n      pop\n      pop\n      pop\n        /* \"hardhat/console.sol\":176:464  function _sendLogPayload(bytes memory payload) private view {... */\n      pop\n      jump\t// out\n        /* \"#utility.yul\":7:146   */\n    tag_29:\n        /* \"#utility.yul\":53:58   */\n      0x00\n        /* \"#utility.yul\":91:97   */\n      dup2\n        /* \"#utility.yul\":78:98   */\n      calldataload\n        /* \"#utility.yul\":69:98   */\n      swap1\n      pop\n        /* \"#utility.yul\":107:140   */\n      tag_31\n        /* \"#utility.yul\":134:139   */\n      dup2\n        /* \"#utility.yul\":107:140   */\n      tag_32\n      jump\t// in\n    tag_31:\n        /* \"#utility.yul\":7:146   */\n      swap3\n      swap2\n      pop\n      pop\n      jump\t// out\n        /* \"#utility.yul\":152:291   */\n    tag_33:\n        /* \"#utility.yul\":198:203   */\n      0x00\n        /* \"#utility.yul\":236:242   */\n      dup2\n        /* \"#utility.yul\":223:243   */\n      calldataload\n        /* \"#utility.yul\":214:243   */\n      swap1\n      pop\n        /* \"#utility.yul\":252:285   */\n      tag_35\n        /* \"#utility.yul\":279:284   */\n      dup2\n        /* \"#utility.yul\":252:285   */\n      tag_36\n      jump\t// in\n    tag_35:\n        /* \"#utility.yul\":152:291   */\n      swap3\n      swap2\n      pop\n      pop\n      jump\t// out\n        /* \"#utility.yul\":297:771   */\n    tag_6:\n        /* \"#utility.yul\":365:371   */\n      0x00\n        /* \"#utility.yul\":373:379   */\n      dup1\n        /* \"#utility.yul\":422:424   */\n      0x40\n        /* \"#utility.yul\":410:419   */\n      dup4\n        /* \"#utility.yul\":401:408   */\n      dup6\n        /* \"#utility.yul\":397:420   */\n      sub\n        /* \"#utility.yul\":393:425   */\n      slt\n        /* \"#utility.yul\":390:509   */\n      iszero\n      tag_38\n      jumpi\n        /* \"#utility.yul\":428:507   */\n      tag_39\n      tag_40\n      jump\t// in\n    tag_39:\n        /* \"#utility.yul\":390:509   */\n    tag_38:\n        /* \"#utility.yul\":548:549   */\n      0x00\n        /* \"#utility.yul\":573:626   */\n      tag_41\n        /* \"#utility.yul\":618:625   */\n      dup6\n        /* \"#utility.yul\":609:615   */\n      dup3\n        /* \"#utility.yul\":598:607   */\n      dup7\n        /* \"#utility.yul\":594:616   */\n      add\n        /* \"#utility.yul\":573:626   */\n      tag_29\n      jump\t// in\n    tag_41:\n        /* \"#utility.yul\":563:626   */\n      swap3\n      pop\n        /* \"#utility.yul\":519:636   */\n      pop\n        /* \"#utility.yul\":675:677   */\n      0x20\n        /* \"#utility.yul\":701:754   */\n      tag_42\n        /* \"#utility.yul\":746:753   */\n      dup6\n        /* \"#utility.yul\":737:743   */\n      dup3\n        /* \"#utility.yul\":726:735   */\n      dup7\n        /* \"#utility.yul\":722:744   */\n      add\n        /* \"#utility.yul\":701:754   */\n      tag_33\n      jump\t// in\n    tag_42:\n        /* \"#utility.yul\":691:754   */\n      swap2\n      pop\n        /* \"#utility.yul\":646:764   */\n      pop\n        /* \"#utility.yul\":297:771   */\n      swap3\n      pop\n      swap3\n      swap1\n      pop\n      jump\t// out\n        /* \"#utility.yul\":777:1141   */\n    tag_43:\n        /* \"#utility.yul\":865:868   */\n      0x00\n        /* \"#utility.yul\":893:932   */\n      tag_45\n        /* \"#utility.yul\":926:931   */\n      dup3\n        /* \"#utility.yul\":893:932   */\n      tag_46\n      jump\t// in\n    tag_45:\n        /* \"#utility.yul\":948:1019   */\n      tag_47\n        /* \"#utility.yul\":1012:1018   */\n      dup2\n        /* \"#utility.yul\":1007:1010   */\n      dup6\n        /* \"#utility.yul\":948:1019   */\n      tag_48\n      jump\t// in\n    tag_47:\n        /* \"#utility.yul\":941:1019   */\n      swap4\n      pop\n        /* \"#utility.yul\":1028:1080   */\n      tag_49\n        /* \"#utility.yul\":1073:1079   */\n      dup2\n        /* \"#utility.yul\":1068:1071   */\n      dup6\n        /* \"#utility.yul\":1061:1065   */\n      0x20\n        /* \"#utility.yul\":1054:1059   */\n      dup7\n        /* \"#utility.yul\":1050:1066   */\n      add\n        /* \"#utility.yul\":1028:1080   */\n      tag_50\n      jump\t// in\n    tag_49:\n        /* \"#utility.yul\":1105:1134   */\n      tag_51\n        /* \"#utility.yul\":1127:1133   */\n      dup2\n        /* \"#utility.yul\":1105:1134   */\n      tag_52\n      jump\t// in\n    tag_51:\n        /* \"#utility.yul\":1100:1103   */\n      dup5\n        /* \"#utility.yul\":1096:1135   */\n      add\n        /* \"#utility.yul\":1089:1135   */\n      swap2\n      pop\n        /* \"#utility.yul\":869:1141   */\n      pop\n        /* \"#utility.yul\":777:1141   */\n      swap3\n      swap2\n      pop\n      pop\n      jump\t// out\n        /* \"#utility.yul\":1147:1513   */\n    tag_53:\n        /* \"#utility.yul\":1289:1292   */\n      0x00\n        /* \"#utility.yul\":1310:1377   */\n      tag_55\n        /* \"#utility.yul\":1374:1376   */\n      0x13\n        /* \"#utility.yul\":1369:1372   */\n      dup4\n        /* \"#utility.yul\":1310:1377   */\n      tag_48\n      jump\t// in\n    tag_55:\n        /* \"#utility.yul\":1303:1377   */\n      swap2\n      pop\n        /* \"#utility.yul\":1386:1479   */\n      tag_56\n        /* \"#utility.yul\":1475:1478   */\n      dup3\n        /* \"#utility.yul\":1386:1479   */\n      tag_57\n      jump\t// in\n    tag_56:\n        /* \"#utility.yul\":1504:1506   */\n      0x20\n        /* \"#utility.yul\":1499:1502   */\n      dup3\n        /* \"#utility.yul\":1495:1507   */\n      add\n        /* \"#utility.yul\":1488:1507   */\n      swap1\n      pop\n        /* \"#utility.yul\":1147:1513   */\n      swap2\n      swap1\n      pop\n      jump\t// out\n        /* \"#utility.yul\":1519:1637   */\n    tag_58:\n        /* \"#utility.yul\":1606:1630   */\n      tag_60\n        /* \"#utility.yul\":1624:1629   */\n      dup2\n        /* \"#utility.yul\":1606:1630   */\n      tag_61\n      jump\t// in\n    tag_60:\n        /* \"#utility.yul\":1601:1604   */\n      dup3\n        /* \"#utility.yul\":1594:1631   */\n      mstore\n        /* \"#utility.yul\":1519:1637   */\n      pop\n      pop\n      jump\t// out\n        /* \"#utility.yul\":1643:2066   */\n    tag_25:\n        /* \"#utility.yul\":1784:1788   */\n      0x00\n        /* \"#utility.yul\":1822:1824   */\n      0x40\n        /* \"#utility.yul\":1811:1820   */\n      dup3\n        /* \"#utility.yul\":1807:1825   */\n      add\n        /* \"#utility.yul\":1799:1825   */\n      swap1\n      pop\n        /* \"#utility.yul\":1871:1880   */\n      dup2\n        /* \"#utility.yul\":1865:1869   */\n      dup2\n        /* \"#utility.yul\":1861:1881   */\n      sub\n        /* \"#utility.yul\":1857:1858   */\n      0x00\n        /* \"#utility.yul\":1846:1855   */\n      dup4\n        /* \"#utility.yul\":1842:1859   */\n      add\n        /* \"#utility.yul\":1835:1882   */\n      mstore\n        /* \"#utility.yul\":1899:1977   */\n      tag_63\n        /* \"#utility.yul\":1972:1976   */\n      dup2\n        /* \"#utility.yul\":1963:1969   */\n      dup6\n        /* \"#utility.yul\":1899:1977   */\n      tag_43\n      jump\t// in\n    tag_63:\n        /* \"#utility.yul\":1891:1977   */\n      swap1\n      pop\n        /* \"#utility.yul\":1987:2059   */\n      tag_64\n        /* \"#utility.yul\":2055:2057   */\n      0x20\n        /* \"#utility.yul\":2044:2053   */\n      dup4\n        /* \"#utility.yul\":2040:2058   */\n      add\n        /* \"#utility.yul\":2031:2037   */\n      dup5\n        /* \"#utility.yul\":1987:2059   */\n      tag_58\n      jump\t// in\n    tag_64:\n        /* \"#utility.yul\":1643:2066   */\n      swap4\n      swap3\n      pop\n      pop\n      pop\n      jump\t// out\n        /* \"#utility.yul\":2072:2491   */\n    tag_11:\n        /* \"#utility.yul\":2238:2242   */\n      0x00\n        /* \"#utility.yul\":2276:2278   */\n      0x20\n        /* \"#utility.yul\":2265:2274   */\n      dup3\n        /* \"#utility.yul\":2261:2279   */\n      add\n        /* \"#utility.yul\":2253:2279   */\n      swap1\n      pop\n        /* \"#utility.yul\":2325:2334   */\n      dup2\n        /* \"#utility.yul\":2319:2323   */\n      dup2\n        /* \"#utility.yul\":2315:2335   */\n      sub\n        /* \"#utility.yul\":2311:2312   */\n      0x00\n        /* \"#utility.yul\":2300:2309   */\n      dup4\n        /* \"#utility.yul\":2296:2313   */\n      add\n        /* \"#utility.yul\":2289:2336   */\n      mstore\n        /* \"#utility.yul\":2353:2484   */\n      tag_66\n        /* \"#utility.yul\":2479:2483   */\n      dup2\n        /* \"#utility.yul\":2353:2484   */\n      tag_53\n      jump\t// in\n    tag_66:\n        /* \"#utility.yul\":2345:2484   */\n      swap1\n      pop\n        /* \"#utility.yul\":2072:2491   */\n      swap2\n      swap1\n      pop\n      jump\t// out\n        /* \"#utility.yul\":2497:2829   */\n    tag_17:\n        /* \"#utility.yul\":2618:2622   */\n      0x00\n        /* \"#utility.yul\":2656:2658   */\n      0x40\n        /* \"#utility.yul\":2645:2654   */\n      dup3\n        /* \"#utility.yul\":2641:2659   */\n      add\n        /* \"#utility.yul\":2633:2659   */\n      swap1\n      pop\n        /* \"#utility.yul\":2669:2740   */\n      tag_68\n        /* \"#utility.yul\":2737:2738   */\n      0x00\n        /* \"#utility.yul\":2726:2735   */\n      dup4\n        /* \"#utility.yul\":2722:2739   */\n      add\n        /* \"#utility.yul\":2713:2719   */\n      dup6\n        /* \"#utility.yul\":2669:2740   */\n      tag_58\n      jump\t// in\n    tag_68:\n        /* \"#utility.yul\":2750:2822   */\n      tag_69\n        /* \"#utility.yul\":2818:2820   */\n      0x20\n        /* \"#utility.yul\":2807:2816   */\n      dup4\n        /* \"#utility.yul\":2803:2821   */\n      add\n        /* \"#utility.yul\":2794:2800   */\n      dup5\n        /* \"#utility.yul\":2750:2822   */\n      tag_58\n      jump\t// in\n    tag_69:\n        /* \"#utility.yul\":2497:2829   */\n      swap4\n      swap3\n      pop\n      pop\n      pop\n      jump\t// out\n        /* \"#utility.yul\":2916:3015   */\n    tag_46:\n        /* \"#utility.yul\":2968:2974   */\n      0x00\n        /* \"#utility.yul\":3002:3007   */\n      dup2\n        /* \"#utility.yul\":2996:3008   */\n      mload\n        /* \"#utility.yul\":2986:3008   */\n      swap1\n      pop\n        /* \"#utility.yul\":2916:3015   */\n      swap2\n      swap1\n      pop\n      jump\t// out\n        /* \"#utility.yul\":3021:3190   */\n    tag_48:\n        /* \"#utility.yul\":3105:3116   */\n      0x00\n        /* \"#utility.yul\":3139:3145   */\n      dup3\n        /* \"#utility.yul\":3134:3137   */\n      dup3\n        /* \"#utility.yul\":3127:3146   */\n      mstore\n        /* \"#utility.yul\":3179:3183   */\n      0x20\n        /* \"#utility.yul\":3174:3177   */\n      dup3\n        /* \"#utility.yul\":3170:3184   */\n      add\n        /* \"#utility.yul\":3155:3184   */\n      swap1\n      pop\n        /* \"#utility.yul\":3021:3190   */\n      swap3\n      swap2\n      pop\n      pop\n      jump\t// out\n        /* \"#utility.yul\":3196:3501   */\n    tag_21:\n        /* \"#utility.yul\":3236:3239   */\n      0x00\n        /* \"#utility.yul\":3255:3275   */\n      tag_75\n        /* \"#utility.yul\":3273:3274   */\n      dup3\n        /* \"#utility.yul\":3255:3275   */\n      tag_61\n      jump\t// in\n    tag_75:\n        /* \"#utility.yul\":3250:3275   */\n      swap2\n      pop\n        /* \"#utility.yul\":3289:3309   */\n      tag_76\n        /* \"#utility.yul\":3307:3308   */\n      dup4\n        /* \"#utility.yul\":3289:3309   */\n      tag_61\n      jump\t// in\n    tag_76:\n        /* \"#utility.yul\":3284:3309   */\n      swap3\n      pop\n        /* \"#utility.yul\":3443:3444   */\n      dup3\n        /* \"#utility.yul\":3375:3441   */\n      0xffffffffffffffffffffffffffffffffffffffffffffffffffffffffffffffff\n        /* \"#utility.yul\":3371:3445   */\n      sub\n        /* \"#utility.yul\":3368:3369   */\n      dup3\n        /* \"#utility.yul\":3365:3446   */\n      gt\n        /* \"#utility.yul\":3362:3469   */\n      iszero\n      tag_77\n      jumpi\n        /* \"#utility.yul\":3449:3467   */\n      tag_78\n      tag_79\n      jump\t// in\n    tag_78:\n        /* \"#utility.yul\":3362:3469   */\n    tag_77:\n        /* \"#utility.yul\":3493:3494   */\n      dup3\n        /* \"#utility.yul\":3490:3491   */\n      dup3\n        /* \"#utility.yul\":3486:3495   */\n      add\n        /* \"#utility.yul\":3479:3495   */\n      swap1\n      pop\n        /* \"#utility.yul\":3196:3501   */\n      swap3\n      swap2\n      pop\n      pop\n      jump\t// out\n        /* \"#utility.yul\":3507:3698   */\n    tag_19:\n        /* \"#utility.yul\":3547:3551   */\n      0x00\n        /* \"#utility.yul\":3567:3587   */\n      tag_81\n        /* \"#utility.yul\":3585:3586   */\n      dup3\n        /* \"#utility.yul\":3567:3587   */\n      tag_61\n      jump\t// in\n    tag_81:\n        /* \"#utility.yul\":3562:3587   */\n      swap2\n      pop\n        /* \"#utility.yul\":3601:3621   */\n      tag_82\n        /* \"#utility.yul\":3619:3620   */\n      dup4\n        /* \"#utility.yul\":3601:3621   */\n      tag_61\n      jump\t// in\n    tag_82:\n        /* \"#utility.yul\":3596:3621   */\n      swap3\n      pop\n        /* \"#utility.yul\":3640:3641   */\n      dup3\n        /* \"#utility.yul\":3637:3638   */\n      dup3\n        /* \"#utility.yul\":3634:3642   */\n      lt\n        /* \"#utility.yul\":3631:3665   */\n      iszero\n      tag_83\n      jumpi\n        /* \"#utility.yul\":3645:3663   */\n      tag_84\n      tag_79\n      jump\t// in\n    tag_84:\n        /* \"#utility.yul\":3631:3665   */\n    tag_83:\n        /* \"#utility.yul\":3690:3691   */\n      dup3\n        /* \"#utility.yul\":3687:3688   */\n      dup3\n        /* \"#utility.yul\":3683:3692   */\n      sub\n        /* \"#utility.yul\":3675:3692   */\n      swap1\n      pop\n        /* \"#utility.yul\":3507:3698   */\n      swap3\n      swap2\n      pop\n      pop\n      jump\t// out\n        /* \"#utility.yul\":3704:3800   */\n    tag_85:\n        /* \"#utility.yul\":3741:3748   */\n      0x00\n        /* \"#utility.yul\":3770:3794   */\n      tag_87\n        /* \"#utility.yul\":3788:3793   */\n      dup3\n        /* \"#utility.yul\":3770:3794   */\n      tag_88\n      jump\t// in\n    tag_87:\n        /* \"#utility.yul\":3759:3794   */\n      swap1\n      pop\n        /* \"#utility.yul\":3704:3800   */\n      swap2\n      swap1\n      pop\n      jump\t// out\n        /* \"#utility.yul\":3806:3932   */\n    tag_88:\n        /* \"#utility.yul\":3843:3850   */\n      0x00\n        /* \"#utility.yul\":3883:3925   */\n      0xffffffffffffffffffffffffffffffffffffffff\n        /* \"#utility.yul\":3876:3881   */\n      dup3\n        /* \"#utility.yul\":3872:3926   */\n      and\n        /* \"#utility.yul\":3861:3926   */\n      swap1\n      pop\n        /* \"#utility.yul\":3806:3932   */\n      swap2\n      swap1\n      pop\n      jump\t// out\n        /* \"#utility.yul\":3938:4015   */\n    tag_61:\n        /* \"#utility.yul\":3975:3982   */\n      0x00\n        /* \"#utility.yul\":4004:4009   */\n      dup2\n        /* \"#utility.yul\":3993:4009   */\n      swap1\n      pop\n        /* \"#utility.yul\":3938:4015   */\n      swap2\n      swap1\n      pop\n      jump\t// out\n        /* \"#utility.yul\":4021:4328   */\n    tag_50:\n        /* \"#utility.yul\":4089:4090   */\n      0x00\n        /* \"#utility.yul\":4099:4212   */\n    tag_92:\n        /* \"#utility.yul\":4113:4119   */\n      dup4\n        /* \"#utility.yul\":4110:4111   */\n      dup2\n        /* \"#utility.yul\":4107:4120   */\n      lt\n        /* \"#utility.yul\":4099:4212   */\n      iszero\n      tag_94\n      jumpi\n        /* \"#utility.yul\":4198:4199   */\n      dup1\n        /* \"#utility.yul\":4193:4196   */\n      dup3\n        /* \"#utility.yul\":4189:4200   */\n      add\n        /* \"#utility.yul\":4183:4201   */\n      mload\n        /* \"#utility.yul\":4179:4180   */\n      dup2\n        /* \"#utility.yul\":4174:4177   */\n      dup5\n        /* \"#utility.yul\":4170:4181   */\n      add\n        /* \"#utility.yul\":4163:4202   */\n      mstore\n        /* \"#utility.yul\":4135:4137   */\n      0x20\n        /* \"#utility.yul\":4132:4133   */\n      dup2\n        /* \"#utility.yul\":4128:4138   */\n      add\n        /* \"#utility.yul\":4123:4138   */\n      swap1\n      pop\n        /* \"#utility.yul\":4099:4212   */\n      jump(tag_92)\n    tag_94:\n        /* \"#utility.yul\":4230:4236   */\n      dup4\n        /* \"#utility.yul\":4227:4228   */\n      dup2\n        /* \"#utility.yul\":4224:4237   */\n      gt\n        /* \"#utility.yul\":4221:4322   */\n      iszero\n      tag_95\n      jumpi\n        /* \"#utility.yul\":4310:4311   */\n      0x00\n        /* \"#utility.yul\":4301:4307   */\n      dup5\n        /* \"#utility.yul\":4296:4299   */\n      dup5\n        /* \"#utility.yul\":4292:4308   */\n      add\n        /* \"#utility.yul\":4285:4312   */\n      mstore\n        /* \"#utility.yul\":4221:4322   */\n    tag_95:\n        /* \"#utility.yul\":4070:4328   */\n      pop\n        /* \"#utility.yul\":4021:4328   */\n      pop\n      pop\n      pop\n      jump\t// out\n        /* \"#utility.yul\":4334:4514   */\n    tag_79:\n        /* \"#utility.yul\":4382:4459   */\n      0x4e487b7100000000000000000000000000000000000000000000000000000000\n        /* \"#utility.yul\":4379:4380   */\n      0x00\n        /* \"#utility.yul\":4372:4460   */\n      mstore\n        /* \"#utility.yul\":4479:4483   */\n      0x11\n        /* \"#utility.yul\":4476:4477   */\n      0x04\n        /* \"#utility.yul\":4469:4484   */\n      mstore\n        /* \"#utility.yul\":4503:4507   */\n      0x24\n        /* \"#utility.yul\":4500:4501   */\n      0x00\n        /* \"#utility.yul\":4493:4508   */\n      revert\n        /* \"#utility.yul\":4643:4760   */\n    tag_40:\n        /* \"#utility.yul\":4752:4753   */\n      0x00\n        /* \"#utility.yul\":4749:4750   */\n      dup1\n        /* \"#utility.yul\":4742:4754   */\n      revert\n        /* \"#utility.yul\":4766:4868   */\n    tag_52:\n        /* \"#utility.yul\":4807:4813   */\n      0x00\n        /* \"#utility.yul\":4858:4860   */\n      0x1f\n        /* \"#utility.yul\":4854:4861   */\n      not\n        /* \"#utility.yul\":4849:4851   */\n      0x1f\n        /* \"#utility.yul\":4842:4847   */\n      dup4\n        /* \"#utility.yul\":4838:4852   */\n      add\n        /* \"#utility.yul\":4834:4862   */\n      and\n        /* \"#utility.yul\":4824:4862   */\n      swap1\n      pop\n        /* \"#utility.yul\":4766:4868   */\n      swap2\n      swap1\n      pop\n      jump\t// out\n        /* \"#utility.yul\":4874:5043   */\n    tag_57:\n        /* \"#utility.yul\":5014:5035   */\n      0x43616c6c6572206973206e6f74206f776e657200000000000000000000000000\n        /* \"#utility.yul\":5010:5011   */\n      0x00\n        /* \"#utility.yul\":5002:5008   */\n      dup3\n        /* \"#utility.yul\":4998:5012   */\n      add\n        /* \"#utility.yul\":4991:5036   */\n      mstore\n        /* \"#utility.yul\":4874:5043   */\n      pop\n      jump\t// out\n        /* \"#utility.yul\":5049:5171   */\n    tag_32:\n        /* \"#utility.yul\":5122:5146   */\n      tag_103\n        /* \"#utility.yul\":5140:5145   */\n      dup2\n        /* \"#utility.yul\":5122:5146   */\n      tag_85\n      jump\t// in\n    tag_103:\n        /* \"#utility.yul\":5115:5120   */\n      dup2\n        /* \"#utility.yul\":5112:5147   */\n      eq\n        /* \"#utility.yul\":5102:5165   */\n      tag_104\n      jumpi\n        /* \"#utility.yul\":5161:5162   */\n      0x00\n        /* \"#utility.yul\":5158:5159   */\n      dup1\n        /* \"#utility.yul\":5151:5163   */\n      revert\n        /* \"#utility.yul\":5102:5165   */\n    tag_104:\n        /* \"#utility.yul\":5049:5171   */\n      pop\n      jump\t// out\n        /* \"#utility.yul\":5177:5299   */\n    tag_36:\n        /* \"#utility.yul\":5250:5274   */\n      tag_106\n        /* \"#utility.yul\":5268:5273   */\n      dup2\n        /* \"#utility.yul\":5250:5274   */\n      tag_61\n      jump\t// in\n    tag_106:\n        /* \"#utility.yul\":5243:5248   */\n      dup2\n        /* \"#utility.yul\":5240:5275   */\n      eq\n        /* \"#utility.yul\":5230:5293   */\n      tag_107\n      jumpi\n        /* \"#utility.yul\":5289:5290   */\n      0x00\n        /* \"#utility.yul\":5286:5287   */\n      dup1\n        /* \"#utility.yul\":5279:5291   */\n      revert\n        /* \"#utility.yul\":5230:5293   */\n    tag_107:\n        /* \"#utility.yul\":5177:5299   */\n      pop\n      jump\t// out\n\n    auxdata: 0xa2646970667358221220bf23c8d284ff8d310c238636e0644e5d56c46f4bcc3547f138f0cacf42007be564736f6c63430008070033\n}\n",
				"bytecode": {
					"linkReferences": {},
					"object": "608060405234801561001057600080fd5b50336000806101000a81548173ffffffffffffffffffffffffffffffffffffffff021916908373ffffffffffffffffffffffffffffffffffffffff160217905550610670806100606000396000f3fe608060405234801561001057600080fd5b506004361061002b5760003560e01c8063c407687614610030575b600080fd5b61004a60048036038101906100459190610365565b61004c565b005b60008054906101000a900473ffffffffffffffffffffffffffffffffffffffff1673ffffffffffffffffffffffffffffffffffffffff163373ffffffffffffffffffffffffffffffffffffffff16146100da576040517f08c379a00000000000000000000000000000000000000000000000000000000081526004016100d190610440565b60405180910390fd5b6000600160008060009054906101000a900473ffffffffffffffffffffffffffffffffffffffff1673ffffffffffffffffffffffffffffffffffffffff1673ffffffffffffffffffffffffffffffffffffffff16815260200190815260200160002054905061017e6040518060400160405280601081526020017f63757272656e74206163636f756e743a0000000000000000000000000000000081525082610276565b818110156101c55781816040517f8c9053680000000000000000000000000000000000000000000000000000000081526004016101bc929190610460565b60405180910390fd5b81600160003373ffffffffffffffffffffffffffffffffffffffff1673ffffffffffffffffffffffffffffffffffffffff168152602001908152602001600020600082825461021491906104fb565b9250508190555081600160008573ffffffffffffffffffffffffffffffffffffffff1673ffffffffffffffffffffffffffffffffffffffff168152602001908152602001600020600082825461026a91906104a5565b92505081905550505050565b61030e828260405160240161028c929190610410565b6040516020818303038152906040527fb60e72cc000000000000000000000000000000000000000000000000000000007bffffffffffffffffffffffffffffffffffffffffffffffffffffffff19166020820180517bffffffffffffffffffffffffffffffffffffffffffffffffffffffff8381831617835250505050610312565b5050565b60008151905060006a636f6e736f6c652e6c6f679050602083016000808483855afa5050505050565b60008135905061034a8161060c565b92915050565b60008135905061035f81610623565b92915050565b6000806040838503121561037c5761037b6105cd565b5b600061038a8582860161033b565b925050602061039b85828601610350565b9150509250929050565b60006103b082610489565b6103ba8185610494565b93506103ca81856020860161056b565b6103d3816105d2565b840191505092915050565b60006103eb601383610494565b91506103f6826105e3565b602082019050919050565b61040a81610561565b82525050565b6000604082019050818103600083015261042a81856103a5565b90506104396020830184610401565b9392505050565b60006020820190508181036000830152610459816103de565b9050919050565b60006040820190506104756000830185610401565b6104826020830184610401565b9392505050565b600081519050919050565b600082825260208201905092915050565b60006104b082610561565b91506104bb83610561565b9250827fffffffffffffffffffffffffffffffffffffffffffffffffffffffffffffffff038211156104f0576104ef61059e565b5b828201905092915050565b600061050682610561565b915061051183610561565b9250828210156105245761052361059e565b5b828203905092915050565b600061053a82610541565b9050919050565b600073ffffffffffffffffffffffffffffffffffffffff82169050919050565b6000819050919050565b60005b8381101561058957808201518184015260208101905061056e565b83811115610598576000848401525b50505050565b7f4e487b7100000000000000000000000000000000000000000000000000000000600052601160045260246000fd5b600080fd5b6000601f19601f8301169050919050565b7f43616c6c6572206973206e6f74206f776e657200000000000000000000000000600082015250565b6106158161052f565b811461062057600080fd5b50565b61062c81610561565b811461063757600080fd5b5056fea2646970667358221220bf23c8d284ff8d310c238636e0644e5d56c46f4bcc3547f138f0cacf42007be564736f6c63430008070033",
					"opcodes": "PUSH1 0x80 PUSH1 0x40 MSTORE CALLVALUE DUP1 ISZERO PUSH2 0x10 JUMPI PUSH1 0x0 DUP1 REVERT JUMPDEST POP CALLER PUSH1 0x0 DUP1 PUSH2 0x100 EXP DUP2 SLOAD DUP2 PUSH20 0xFFFFFFFFFFFFFFFFFFFFFFFFFFFFFFFFFFFFFFFF MUL NOT AND SWAP1 DUP4 PUSH20 0xFFFFFFFFFFFFFFFFFFFFFFFFFFFFFFFFFFFFFFFF AND MUL OR SWAP1 SSTORE POP PUSH2 0x670 DUP1 PUSH2 0x60 PUSH1 0x0 CODECOPY PUSH1 0x0 RETURN INVALID PUSH1 0x80 PUSH1 0x40 MSTORE CALLVALUE DUP1 ISZERO PUSH2 0x10 JUMPI PUSH1 0x0 DUP1 REVERT JUMPDEST POP PUSH1 0x4 CALLDATASIZE LT PUSH2 0x2B JUMPI PUSH1 0x0 CALLDATALOAD PUSH1 0xE0 SHR DUP1 PUSH4 0xC4076876 EQ PUSH2 0x30 JUMPI JUMPDEST PUSH1 0x0 DUP1 REVERT JUMPDEST PUSH2 0x4A PUSH1 0x4 DUP1 CALLDATASIZE SUB DUP2 ADD SWAP1 PUSH2 0x45 SWAP2 SWAP1 PUSH2 0x365 JUMP JUMPDEST PUSH2 0x4C JUMP JUMPDEST STOP JUMPDEST PUSH1 0x0 DUP1 SLOAD SWAP1 PUSH2 0x100 EXP SWAP1 DIV PUSH20 0xFFFFFFFFFFFFFFFFFFFFFFFFFFFFFFFFFFFFFFFF AND PUSH20 0xFFFFFFFFFFFFFFFFFFFFFFFFFFFFFFFFFFFFFFFF AND CALLER PUSH20 0xFFFFFFFFFFFFFFFFFFFFFFFFFFFFFFFFFFFFFFFF AND EQ PUSH2 0xDA JUMPI PUSH1 0x40 MLOAD PUSH32 0x8C379A000000000000000000000000000000000000000000000000000000000 DUP2 MSTORE PUSH1 0x4 ADD PUSH2 0xD1 SWAP1 PUSH2 0x440 JUMP JUMPDEST PUSH1 0x40 MLOAD DUP1 SWAP2 SUB SWAP1 REVERT JUMPDEST PUSH1 0x0 PUSH1 0x1 PUSH1 0x0 DUP1 PUSH1 0x0 SWAP1 SLOAD SWAP1 PUSH2 0x100 EXP SWAP1 DIV PUSH20 0xFFFFFFFFFFFFFFFFFFFFFFFFFFFFFFFFFFFFFFFF AND PUSH20 0xFFFFFFFFFFFFFFFFFFFFFFFFFFFFFFFFFFFFFFFF AND PUSH20 0xFFFFFFFFFFFFFFFFFFFFFFFFFFFFFFFFFFFFFFFF AND DUP2 MSTORE PUSH1 0x20 ADD SWAP1 DUP2 MSTORE PUSH1 0x20 ADD PUSH1 0x0 KECCAK256 SLOAD SWAP1 POP PUSH2 0x17E PUSH1 0x40 MLOAD DUP1 PUSH1 0x40 ADD PUSH1 0x40 MSTORE DUP1 PUSH1 0x10 DUP2 MSTORE PUSH1 0x20 ADD PUSH32 0x63757272656E74206163636F756E743A00000000000000000000000000000000 DUP2 MSTORE POP DUP3 PUSH2 0x276 JUMP JUMPDEST DUP2 DUP2 LT ISZERO PUSH2 0x1C5 JUMPI DUP2 DUP2 PUSH1 0x40 MLOAD PUSH32 0x8C90536800000000000000000000000000000000000000000000000000000000 DUP2 MSTORE PUSH1 0x4 ADD PUSH2 0x1BC SWAP3 SWAP2 SWAP1 PUSH2 0x460 JUMP JUMPDEST PUSH1 0x40 MLOAD DUP1 SWAP2 SUB SWAP1 REVERT JUMPDEST DUP2 PUSH1 0x1 PUSH1 0x0 CALLER PUSH20 0xFFFFFFFFFFFFFFFFFFFFFFFFFFFFFFFFFFFFFFFF AND PUSH20 0xFFFFFFFFFFFFFFFFFFFFFFFFFFFFFFFFFFFFFFFF AND DUP2 MSTORE PUSH1 0x20 ADD SWAP1 DUP2 MSTORE PUSH1 0x20 ADD PUSH1 0x0 KECCAK256 PUSH1 0x0 DUP3 DUP3 SLOAD PUSH2 0x214 SWAP2 SWAP1 PUSH2 0x4FB JUMP JUMPDEST SWAP3 POP POP DUP2 SWAP1 SSTORE POP DUP2 PUSH1 0x1 PUSH1 0x0 DUP6 PUSH20 0xFFFFFFFFFFFFFFFFFFFFFFFFFFFFFFFFFFFFFFFF AND PUSH20 0xFFFFFFFFFFFFFFFFFFFFFFFFFFFFFFFFFFFFFFFF AND DUP2 MSTORE PUSH1 0x20 ADD SWAP1 DUP2 MSTORE PUSH1 0x20 ADD PUSH1 0x0 KECCAK256 PUSH1 0x0 DUP3 DUP3 SLOAD PUSH2 0x26A SWAP2 SWAP1 PUSH2 0x4A5 JUMP JUMPDEST SWAP3 POP POP DUP2 SWAP1 SSTORE POP POP POP POP JUMP JUMPDEST PUSH2 0x30E DUP3 DUP3 PUSH1 0x40 MLOAD PUSH1 0x24 ADD PUSH2 0x28C SWAP3 SWAP2 SWAP1 PUSH2 0x410 JUMP JUMPDEST PUSH1 0x40 MLOAD PUSH1 0x20 DUP2 DUP4 SUB SUB DUP2 MSTORE SWAP1 PUSH1 0x40 MSTORE PUSH32 0xB60E72CC00000000000000000000000000000000000000000000000000000000 PUSH28 0xFFFFFFFFFFFFFFFFFFFFFFFFFFFFFFFFFFFFFFFFFFFFFFFFFFFFFFFF NOT AND PUSH1 0x20 DUP3 ADD DUP1 MLOAD PUSH28 0xFFFFFFFFFFFFFFFFFFFFFFFFFFFFFFFFFFFFFFFFFFFFFFFFFFFFFFFF DUP4 DUP2 DUP4 AND OR DUP4 MSTORE POP POP POP POP PUSH2 0x312 JUMP JUMPDEST POP POP JUMP JUMPDEST PUSH1 0x0 DUP2 MLOAD SWAP1 POP PUSH1 0x0 PUSH11 0x636F6E736F6C652E6C6F67 SWAP1 POP PUSH1 0x20 DUP4 ADD PUSH1 0x0 DUP1 DUP5 DUP4 DUP6 GAS STATICCALL POP POP POP POP POP JUMP JUMPDEST PUSH1 0x0 DUP2 CALLDATALOAD SWAP1 POP PUSH2 0x34A DUP2 PUSH2 0x60C JUMP JUMPDEST SWAP3 SWAP2 POP POP JUMP JUMPDEST PUSH1 0x0 DUP2 CALLDATALOAD SWAP1 POP PUSH2 0x35F DUP2 PUSH2 0x623 JUMP JUMPDEST SWAP3 SWAP2 POP POP JUMP JUMPDEST PUSH1 0x0 DUP1 PUSH1 0x40 DUP4 DUP6 SUB SLT ISZERO PUSH2 0x37C JUMPI PUSH2 0x37B PUSH2 0x5CD JUMP JUMPDEST JUMPDEST PUSH1 0x0 PUSH2 0x38A DUP6 DUP3 DUP7 ADD PUSH2 0x33B JUMP JUMPDEST SWAP3 POP POP PUSH1 0x20 PUSH2 0x39B DUP6 DUP3 DUP7 ADD PUSH2 0x350 JUMP JUMPDEST SWAP2 POP POP SWAP3 POP SWAP3 SWAP1 POP JUMP JUMPDEST PUSH1 0x0 PUSH2 0x3B0 DUP3 PUSH2 0x489 JUMP JUMPDEST PUSH2 0x3BA DUP2 DUP6 PUSH2 0x494 JUMP JUMPDEST SWAP4 POP PUSH2 0x3CA DUP2 DUP6 PUSH1 0x20 DUP7 ADD PUSH2 0x56B JUMP JUMPDEST PUSH2 0x3D3 DUP2 PUSH2 0x5D2 JUMP JUMPDEST DUP5 ADD SWAP2 POP POP SWAP3 SWAP2 POP POP JUMP JUMPDEST PUSH1 0x0 PUSH2 0x3EB PUSH1 0x13 DUP4 PUSH2 0x494 JUMP JUMPDEST SWAP2 POP PUSH2 0x3F6 DUP3 PUSH2 0x5E3 JUMP JUMPDEST PUSH1 0x20 DUP3 ADD SWAP1 POP SWAP2 SWAP1 POP JUMP JUMPDEST PUSH2 0x40A DUP2 PUSH2 0x561 JUMP JUMPDEST DUP3 MSTORE POP POP JUMP JUMPDEST PUSH1 0x0 PUSH1 0x40 DUP3 ADD SWAP1 POP DUP2 DUP2 SUB PUSH1 0x0 DUP4 ADD MSTORE PUSH2 0x42A DUP2 DUP6 PUSH2 0x3A5 JUMP JUMPDEST SWAP1 POP PUSH2 0x439 PUSH1 0x20 DUP4 ADD DUP5 PUSH2 0x401 JUMP JUMPDEST SWAP4 SWAP3 POP POP POP JUMP JUMPDEST PUSH1 0x0 PUSH1 0x20 DUP3 ADD SWAP1 POP DUP2 DUP2 SUB PUSH1 0x0 DUP4 ADD MSTORE PUSH2 0x459 DUP2 PUSH2 0x3DE JUMP JUMPDEST SWAP1 POP SWAP2 SWAP1 POP JUMP JUMPDEST PUSH1 0x0 PUSH1 0x40 DUP3 ADD SWAP1 POP PUSH2 0x475 PUSH1 0x0 DUP4 ADD DUP6 PUSH2 0x401 JUMP JUMPDEST PUSH2 0x482 PUSH1 0x20 DUP4 ADD DUP5 PUSH2 0x401 JUMP JUMPDEST SWAP4 SWAP3 POP POP POP JUMP JUMPDEST PUSH1 0x0 DUP2 MLOAD SWAP1 POP SWAP2 SWAP1 POP JUMP JUMPDEST PUSH1 0x0 DUP3 DUP3 MSTORE PUSH1 0x20 DUP3 ADD SWAP1 POP SWAP3 SWAP2 POP POP JUMP JUMPDEST PUSH1 0x0 PUSH2 0x4B0 DUP3 PUSH2 0x561 JUMP JUMPDEST SWAP2 POP PUSH2 0x4BB DUP4 PUSH2 0x561 JUMP JUMPDEST SWAP3 POP DUP3 PUSH32 0xFFFFFFFFFFFFFFFFFFFFFFFFFFFFFFFFFFFFFFFFFFFFFFFFFFFFFFFFFFFFFFFF SUB DUP3 GT ISZERO PUSH2 0x4F0 JUMPI PUSH2 0x4EF PUSH2 0x59E JUMP JUMPDEST JUMPDEST DUP3 DUP3 ADD SWAP1 POP SWAP3 SWAP2 POP POP JUMP JUMPDEST PUSH1 0x0 PUSH2 0x506 DUP3 PUSH2 0x561 JUMP JUMPDEST SWAP2 POP PUSH2 0x511 DUP4 PUSH2 0x561 JUMP JUMPDEST SWAP3 POP DUP3 DUP3 LT ISZERO PUSH2 0x524 JUMPI PUSH2 0x523 PUSH2 0x59E JUMP JUMPDEST JUMPDEST DUP3 DUP3 SUB SWAP1 POP SWAP3 SWAP2 POP POP JUMP JUMPDEST PUSH1 0x0 PUSH2 0x53A DUP3 PUSH2 0x541 JUMP JUMPDEST SWAP1 POP SWAP2 SWAP1 POP JUMP JUMPDEST PUSH1 0x0 PUSH20 0xFFFFFFFFFFFFFFFFFFFFFFFFFFFFFFFFFFFFFFFF DUP3 AND SWAP1 POP SWAP2 SWAP1 POP JUMP JUMPDEST PUSH1 0x0 DUP2 SWAP1 POP SWAP2 SWAP1 POP JUMP JUMPDEST PUSH1 0x0 JUMPDEST DUP4 DUP2 LT ISZERO PUSH2 0x589 JUMPI DUP1 DUP3 ADD MLOAD DUP2 DUP5 ADD MSTORE PUSH1 0x20 DUP2 ADD SWAP1 POP PUSH2 0x56E JUMP JUMPDEST DUP4 DUP2 GT ISZERO PUSH2 0x598 JUMPI PUSH1 0x0 DUP5 DUP5 ADD MSTORE JUMPDEST POP POP POP POP JUMP JUMPDEST PUSH32 0x4E487B7100000000000000000000000000000000000000000000000000000000 PUSH1 0x0 MSTORE PUSH1 0x11 PUSH1 0x4 MSTORE PUSH1 0x24 PUSH1 0x0 REVERT JUMPDEST PUSH1 0x0 DUP1 REVERT JUMPDEST PUSH1 0x0 PUSH1 0x1F NOT PUSH1 0x1F DUP4 ADD AND SWAP1 POP SWAP2 SWAP1 POP JUMP JUMPDEST PUSH32 0x43616C6C6572206973206E6F74206F776E657200000000000000000000000000 PUSH1 0x0 DUP3 ADD MSTORE POP JUMP JUMPDEST PUSH2 0x615 DUP2 PUSH2 0x52F JUMP JUMPDEST DUP2 EQ PUSH2 0x620 JUMPI PUSH1 0x0 DUP1 REVERT JUMPDEST POP JUMP JUMPDEST PUSH2 0x62C DUP2 PUSH2 0x561 JUMP JUMPDEST DUP2 EQ PUSH2 0x637 JUMPI PUSH1 0x0 DUP1 REVERT JUMPDEST POP JUMP INVALID LOG2 PUSH5 0x6970667358 0x22 SLT KECCAK256 0xBF 0x23 0xC8 0xD2 DUP5 SELFDESTRUCT DUP14 BALANCE 0xC 0x23 DUP7 CALLDATASIZE 0xE0 PUSH5 0x4E5D56C46F 0x4B 0xCC CALLDATALOAD SELFBALANCE CALL CODESIZE CREATE 0xCA 0xCF TIMESTAMP STOP PUSH28 0xE564736F6C6343000807003300000000000000000000000000000000 "
				},
				"gasEstimates": {
					"creation": {
						"codeDepositCost": "329600",
						"executionCost": "24634",
						"totalCost": "354234"
					},
					"external": {
						"pay(address,uint256)": "infinite"
					}
				},
				"methodIdentifiers": {
					"pay(address,uint256)": "c4076876"
				}
			},
			"storageLayout": {
				"storage": [
					{
						"astId": 10,
						"contract": "contracts/_LearnEvent.sol:LearnError",
						"label": "chairperson",
						"offset": 0,
						"slot": "0",
						"type": "t_address"
					},
					{
						"astId": 35,
						"contract": "contracts/_LearnEvent.sol:LearnError",
						"label": "balances",
						"offset": 0,
						"slot": "1",
						"type": "t_mapping(t_address,t_uint256)"
					}
				],
				"types": {
					"t_address": {
						"encoding": "inplace",
						"label": "address",
						"numberOfBytes": "20"
					},
					"t_mapping(t_address,t_uint256)": {
						"encoding": "mapping",
						"key": "t_address",
						"label": "mapping(address => uint256)",
						"numberOfBytes": "32",
						"value": "t_uint256"
					},
					"t_uint256": {
						"encoding": "inplace",
						"label": "uint256",
						"numberOfBytes": "32"
					}
				}
			},
			"userdoc": {
				"kind": "user",
				"methods": {},
				"version": 1
			}
		}
	}
}