{
	"contracts/txOrigin.sol": {
		"TXOrigin": {
			"abi": [
				{
					"inputs": [],
					"stateMutability": "payable",
					"type": "constructor"
				},
				{
					"anonymous": false,
					"inputs": [
						{
							"indexed": false,
							"internalType": "string",
							"name": "message",
							"type": "string"
						},
						{
							"indexed": false,
							"internalType": "address",
							"name": "add",
							"type": "address"
						}
					],
					"name": "ExecutionResult",
					"type": "event"
				},
				{
					"inputs": [],
					"name": "callAdd",
					"outputs": [
						{
							"internalType": "address",
							"name": "",
							"type": "address"
						}
					],
					"stateMutability": "view",
					"type": "function"
				},
				{
					"inputs": [],
					"name": "callNum",
					"outputs": [
						{
							"internalType": "uint256",
							"name": "",
							"type": "uint256"
						}
					],
					"stateMutability": "view",
					"type": "function"
				},
				{
					"inputs": [],
					"name": "owner",
					"outputs": [
						{
							"internalType": "address",
							"name": "",
							"type": "address"
						}
					],
					"stateMutability": "view",
					"type": "function"
				},
				{
					"inputs": [
						{
							"internalType": "address payable",
							"name": "_to",
							"type": "address"
						},
						{
							"internalType": "uint256",
							"name": "amount",
							"type": "uint256"
						}
					],
					"name": "tra",
					"outputs": [],
					"stateMutability": "nonpayable",
					"type": "function"
				},
				{
					"inputs": [
						{
							"internalType": "address",
							"name": "_to",
							"type": "address"
						}
					],
					"name": "tra2",
					"outputs": [],
					"stateMutability": "nonpayable",
					"type": "function"
				}
			],
			"devdoc": {
				"kind": "dev",
				"methods": {},
				"version": 1
			},
			"evm": {
				"assembly": "    /* \"contracts/txOrigin.sol\":70:935  contract TXOrigin {... */\n  mstore(0x40, 0x80)\n    /* \"contracts/txOrigin.sol\":276:286  msg.sender */\n  caller\n    /* \"contracts/txOrigin.sol\":268:273  owner */\n  0x00\n  dup1\n    /* \"contracts/txOrigin.sol\":268:286  owner = msg.sender */\n  0x0100\n  exp\n  dup2\n  sload\n  dup2\n  0xffffffffffffffffffffffffffffffffffffffff\n  mul\n  not\n  and\n  swap1\n  dup4\n  0xffffffffffffffffffffffffffffffffffffffff\n  and\n  mul\n  or\n  swap1\n  sstore\n  pop\n    /* \"contracts/txOrigin.sol\":70:935  contract TXOrigin {... */\n  dataSize(sub_0)\n  dup1\n  dataOffset(sub_0)\n  0x00\n  codecopy\n  0x00\n  return\nstop\n\nsub_0: assembly {\n        /* \"contracts/txOrigin.sol\":70:935  contract TXOrigin {... */\n      mstore(0x40, 0x80)\n      callvalue\n      dup1\n      iszero\n      tag_1\n      jumpi\n      0x00\n      dup1\n      revert\n    tag_1:\n      pop\n      jumpi(tag_2, lt(calldatasize, 0x04))\n      shr(0xe0, calldataload(0x00))\n      dup1\n      0x240dc84f\n      eq\n      tag_3\n      jumpi\n      dup1\n      0x5f6e4446\n      eq\n      tag_4\n      jumpi\n      dup1\n      0x69a3f230\n      eq\n      tag_5\n      jumpi\n      dup1\n      0x8da5cb5b\n      eq\n      tag_6\n      jumpi\n      dup1\n      0xd4b7bd4e\n      eq\n      tag_7\n      jumpi\n    tag_2:\n      0x00\n      dup1\n      revert\n        /* \"contracts/txOrigin.sol\":121:143  address public callAdd */\n    tag_3:\n      tag_8\n      tag_9\n      jump\t// in\n    tag_8:\n      mload(0x40)\n      tag_10\n      swap2\n      swap1\n      tag_11\n      jump\t// in\n    tag_10:\n      mload(0x40)\n      dup1\n      swap2\n      sub\n      swap1\n      return\n        /* \"contracts/txOrigin.sol\":818:933  function tra2(address _to) public {... */\n    tag_4:\n      tag_12\n      0x04\n      dup1\n      calldatasize\n      sub\n      dup2\n      add\n      swap1\n      tag_13\n      swap2\n      swap1\n      tag_14\n      jump\t// in\n    tag_13:\n      tag_15\n      jump\t// in\n    tag_12:\n      stop\n        /* \"contracts/txOrigin.sol\":539:812  function tra(address payable _to, uint256 amount) public {... */\n    tag_5:\n      tag_16\n      0x04\n      dup1\n      calldatasize\n      sub\n      dup2\n      add\n      swap1\n      tag_17\n      swap2\n      swap1\n      tag_18\n      jump\t// in\n    tag_17:\n      tag_19\n      jump\t// in\n    tag_16:\n      stop\n        /* \"contracts/txOrigin.sol\":94:114  address public owner */\n    tag_6:\n      tag_20\n      tag_21\n      jump\t// in\n    tag_20:\n      mload(0x40)\n      tag_22\n      swap2\n      swap1\n      tag_11\n      jump\t// in\n    tag_22:\n      mload(0x40)\n      dup1\n      swap2\n      sub\n      swap1\n      return\n        /* \"contracts/txOrigin.sol\":150:172  uint256 public callNum */\n    tag_7:\n      tag_23\n      tag_24\n      jump\t// in\n    tag_23:\n      mload(0x40)\n      tag_25\n      swap2\n      swap1\n      tag_26\n      jump\t// in\n    tag_25:\n      mload(0x40)\n      dup1\n      swap2\n      sub\n      swap1\n      return\n        /* \"contracts/txOrigin.sol\":121:143  address public callAdd */\n    tag_9:\n      0x01\n      0x00\n      swap1\n      sload\n      swap1\n      0x0100\n      exp\n      swap1\n      div\n      0xffffffffffffffffffffffffffffffffffffffff\n      and\n      dup2\n      jump\t// out\n        /* \"contracts/txOrigin.sol\":818:933  function tra2(address _to) public {... */\n    tag_15:\n        /* \"contracts/txOrigin.sol\":872:875  _to */\n      dup1\n        /* \"contracts/txOrigin.sol\":862:869  callAdd */\n      0x01\n      0x00\n        /* \"contracts/txOrigin.sol\":862:875  callAdd = _to */\n      0x0100\n      exp\n      dup2\n      sload\n      dup2\n      0xffffffffffffffffffffffffffffffffffffffff\n      mul\n      not\n      and\n      swap1\n      dup4\n      0xffffffffffffffffffffffffffffffffffffffff\n      and\n      mul\n      or\n      swap1\n      sstore\n      pop\n        /* \"contracts/txOrigin.sol\":890:926  ExecutionResult(\" run success\", _to) */\n      0x0410c0d9c01a6c4c5fc217ddcc525ec2b73ee2d6253c448c9594f46e0210aad1\n        /* \"contracts/txOrigin.sol\":922:925  _to */\n      dup2\n        /* \"contracts/txOrigin.sol\":890:926  ExecutionResult(\" run success\", _to) */\n      mload(0x40)\n      tag_28\n      swap2\n      swap1\n      tag_29\n      jump\t// in\n    tag_28:\n      mload(0x40)\n      dup1\n      swap2\n      sub\n      swap1\n      log1\n        /* \"contracts/txOrigin.sol\":818:933  function tra2(address _to) public {... */\n      pop\n      jump\t// out\n        /* \"contracts/txOrigin.sol\":539:812  function tra(address payable _to, uint256 amount) public {... */\n    tag_19:\n        /* \"contracts/txOrigin.sol\":616:619  _to */\n      dup2\n        /* \"contracts/txOrigin.sol\":606:613  callAdd */\n      0x01\n      0x00\n        /* \"contracts/txOrigin.sol\":606:619  callAdd = _to */\n      0x0100\n      exp\n      dup2\n      sload\n      dup2\n      0xffffffffffffffffffffffffffffffffffffffff\n      mul\n      not\n      and\n      swap1\n      dup4\n      0xffffffffffffffffffffffffffffffffffffffff\n      and\n      mul\n      or\n      swap1\n      sstore\n      pop\n        /* \"contracts/txOrigin.sol\":639:645  amount */\n      dup1\n        /* \"contracts/txOrigin.sol\":629:636  callNum */\n      0x02\n        /* \"contracts/txOrigin.sol\":629:645  callNum = amount */\n      dup2\n      swap1\n      sstore\n      pop\n        /* \"contracts/txOrigin.sol\":676:681  owner */\n      0x00\n      dup1\n      sload\n      swap1\n      0x0100\n      exp\n      swap1\n      div\n      0xffffffffffffffffffffffffffffffffffffffff\n      and\n        /* \"contracts/txOrigin.sol\":663:681  tx.origin == owner */\n      0xffffffffffffffffffffffffffffffffffffffff\n      and\n        /* \"contracts/txOrigin.sol\":663:672  tx.origin */\n      origin\n        /* \"contracts/txOrigin.sol\":663:681  tx.origin == owner */\n      0xffffffffffffffffffffffffffffffffffffffff\n      and\n      eq\n        /* \"contracts/txOrigin.sol\":655:701  require(tx.origin == owner, \"error:not owner\") */\n      tag_31\n      jumpi\n      mload(0x40)\n      0x08c379a000000000000000000000000000000000000000000000000000000000\n      dup2\n      mstore\n      0x04\n      add\n      tag_32\n      swap1\n      tag_33\n      jump\t// in\n    tag_32:\n      mload(0x40)\n      dup1\n      swap2\n      sub\n      swap1\n      revert\n    tag_31:\n        /* \"contracts/txOrigin.sol\":712:724  bool success */\n      0x00\n        /* \"contracts/txOrigin.sol\":730:733  _to */\n      dup3\n        /* \"contracts/txOrigin.sol\":730:738  _to.call */\n      0xffffffffffffffffffffffffffffffffffffffff\n      and\n        /* \"contracts/txOrigin.sol\":746:752  amount */\n      dup3\n        /* \"contracts/txOrigin.sol\":730:757  _to.call{value: amount}(\"\") */\n      mload(0x40)\n      tag_34\n      swap1\n      tag_35\n      jump\t// in\n    tag_34:\n      0x00\n      mload(0x40)\n      dup1\n      dup4\n      sub\n      dup2\n      dup6\n      dup8\n      gas\n      call\n      swap3\n      pop\n      pop\n      pop\n      returndatasize\n      dup1\n      0x00\n      dup2\n      eq\n      tag_38\n      jumpi\n      mload(0x40)\n      swap2\n      pop\n      and(add(returndatasize, 0x3f), not(0x1f))\n      dup3\n      add\n      0x40\n      mstore\n      returndatasize\n      dup3\n      mstore\n      returndatasize\n      0x00\n      0x20\n      dup5\n      add\n      returndatacopy\n      jump(tag_37)\n    tag_38:\n      0x60\n      swap2\n      pop\n    tag_37:\n      pop\n        /* \"contracts/txOrigin.sol\":711:757  (bool success, ) = _to.call{value: amount}(\"\") */\n      pop\n      swap1\n      pop\n        /* \"contracts/txOrigin.sol\":775:782  success */\n      dup1\n        /* \"contracts/txOrigin.sol\":767:805  require(success, \"error:must success\") */\n      tag_39\n      jumpi\n      mload(0x40)\n      0x08c379a000000000000000000000000000000000000000000000000000000000\n      dup2\n      mstore\n      0x04\n      add\n      tag_40\n      swap1\n      tag_41\n      jump\t// in\n    tag_40:\n      mload(0x40)\n      dup1\n      swap2\n      sub\n      swap1\n      revert\n    tag_39:\n        /* \"contracts/txOrigin.sol\":596:812  {... */\n      pop\n        /* \"contracts/txOrigin.sol\":539:812  function tra(address payable _to, uint256 amount) public {... */\n      pop\n      pop\n      jump\t// out\n        /* \"contracts/txOrigin.sol\":94:114  address public owner */\n    tag_21:\n      0x00\n      dup1\n      sload\n      swap1\n      0x0100\n      exp\n      swap1\n      div\n      0xffffffffffffffffffffffffffffffffffffffff\n      and\n      dup2\n      jump\t// out\n        /* \"contracts/txOrigin.sol\":150:172  uint256 public callNum */\n    tag_24:\n      sload(0x02)\n      dup2\n      jump\t// out\n        /* \"#utility.yul\":7:133   */\n    tag_42:\n        /* \"#utility.yul\":44:51   */\n      0x00\n        /* \"#utility.yul\":84:126   */\n      0xffffffffffffffffffffffffffffffffffffffff\n        /* \"#utility.yul\":77:82   */\n      dup3\n        /* \"#utility.yul\":73:127   */\n      and\n        /* \"#utility.yul\":62:127   */\n      swap1\n      pop\n        /* \"#utility.yul\":7:133   */\n      swap2\n      swap1\n      pop\n      jump\t// out\n        /* \"#utility.yul\":139:235   */\n    tag_43:\n        /* \"#utility.yul\":176:183   */\n      0x00\n        /* \"#utility.yul\":205:229   */\n      tag_70\n        /* \"#utility.yul\":223:228   */\n      dup3\n        /* \"#utility.yul\":205:229   */\n      tag_42\n      jump\t// in\n    tag_70:\n        /* \"#utility.yul\":194:229   */\n      swap1\n      pop\n        /* \"#utility.yul\":139:235   */\n      swap2\n      swap1\n      pop\n      jump\t// out\n        /* \"#utility.yul\":241:359   */\n    tag_44:\n        /* \"#utility.yul\":328:352   */\n      tag_72\n        /* \"#utility.yul\":346:351   */\n      dup2\n        /* \"#utility.yul\":328:352   */\n      tag_43\n      jump\t// in\n    tag_72:\n        /* \"#utility.yul\":323:326   */\n      dup3\n        /* \"#utility.yul\":316:353   */\n      mstore\n        /* \"#utility.yul\":241:359   */\n      pop\n      pop\n      jump\t// out\n        /* \"#utility.yul\":365:587   */\n    tag_11:\n        /* \"#utility.yul\":458:462   */\n      0x00\n        /* \"#utility.yul\":496:498   */\n      0x20\n        /* \"#utility.yul\":485:494   */\n      dup3\n        /* \"#utility.yul\":481:499   */\n      add\n        /* \"#utility.yul\":473:499   */\n      swap1\n      pop\n        /* \"#utility.yul\":509:580   */\n      tag_74\n        /* \"#utility.yul\":577:578   */\n      0x00\n        /* \"#utility.yul\":566:575   */\n      dup4\n        /* \"#utility.yul\":562:579   */\n      add\n        /* \"#utility.yul\":553:559   */\n      dup5\n        /* \"#utility.yul\":509:580   */\n      tag_44\n      jump\t// in\n    tag_74:\n        /* \"#utility.yul\":365:587   */\n      swap3\n      swap2\n      pop\n      pop\n      jump\t// out\n        /* \"#utility.yul\":674:791   */\n    tag_46:\n        /* \"#utility.yul\":783:784   */\n      0x00\n        /* \"#utility.yul\":780:781   */\n      dup1\n        /* \"#utility.yul\":773:785   */\n      revert\n        /* \"#utility.yul\":920:1042   */\n    tag_48:\n        /* \"#utility.yul\":993:1017   */\n      tag_79\n        /* \"#utility.yul\":1011:1016   */\n      dup2\n        /* \"#utility.yul\":993:1017   */\n      tag_43\n      jump\t// in\n    tag_79:\n        /* \"#utility.yul\":986:991   */\n      dup2\n        /* \"#utility.yul\":983:1018   */\n      eq\n        /* \"#utility.yul\":973:1036   */\n      tag_80\n      jumpi\n        /* \"#utility.yul\":1032:1033   */\n      0x00\n        /* \"#utility.yul\":1029:1030   */\n      dup1\n        /* \"#utility.yul\":1022:1034   */\n      revert\n        /* \"#utility.yul\":973:1036   */\n    tag_80:\n        /* \"#utility.yul\":920:1042   */\n      pop\n      jump\t// out\n        /* \"#utility.yul\":1048:1187   */\n    tag_49:\n        /* \"#utility.yul\":1094:1099   */\n      0x00\n        /* \"#utility.yul\":1132:1138   */\n      dup2\n        /* \"#utility.yul\":1119:1139   */\n      calldataload\n        /* \"#utility.yul\":1110:1139   */\n      swap1\n      pop\n        /* \"#utility.yul\":1148:1181   */\n      tag_82\n        /* \"#utility.yul\":1175:1180   */\n      dup2\n        /* \"#utility.yul\":1148:1181   */\n      tag_48\n      jump\t// in\n    tag_82:\n        /* \"#utility.yul\":1048:1187   */\n      swap3\n      swap2\n      pop\n      pop\n      jump\t// out\n        /* \"#utility.yul\":1193:1522   */\n    tag_14:\n        /* \"#utility.yul\":1252:1258   */\n      0x00\n        /* \"#utility.yul\":1301:1303   */\n      0x20\n        /* \"#utility.yul\":1289:1298   */\n      dup3\n        /* \"#utility.yul\":1280:1287   */\n      dup5\n        /* \"#utility.yul\":1276:1299   */\n      sub\n        /* \"#utility.yul\":1272:1304   */\n      slt\n        /* \"#utility.yul\":1269:1388   */\n      iszero\n      tag_84\n      jumpi\n        /* \"#utility.yul\":1307:1386   */\n      tag_85\n      tag_46\n      jump\t// in\n    tag_85:\n        /* \"#utility.yul\":1269:1388   */\n    tag_84:\n        /* \"#utility.yul\":1427:1428   */\n      0x00\n        /* \"#utility.yul\":1452:1505   */\n      tag_86\n        /* \"#utility.yul\":1497:1504   */\n      dup5\n        /* \"#utility.yul\":1488:1494   */\n      dup3\n        /* \"#utility.yul\":1477:1486   */\n      dup6\n        /* \"#utility.yul\":1473:1495   */\n      add\n        /* \"#utility.yul\":1452:1505   */\n      tag_49\n      jump\t// in\n    tag_86:\n        /* \"#utility.yul\":1442:1505   */\n      swap2\n      pop\n        /* \"#utility.yul\":1398:1515   */\n      pop\n        /* \"#utility.yul\":1193:1522   */\n      swap3\n      swap2\n      pop\n      pop\n      jump\t// out\n        /* \"#utility.yul\":1528:1632   */\n    tag_50:\n        /* \"#utility.yul\":1573:1580   */\n      0x00\n        /* \"#utility.yul\":1602:1626   */\n      tag_88\n        /* \"#utility.yul\":1620:1625   */\n      dup3\n        /* \"#utility.yul\":1602:1626   */\n      tag_42\n      jump\t// in\n    tag_88:\n        /* \"#utility.yul\":1591:1626   */\n      swap1\n      pop\n        /* \"#utility.yul\":1528:1632   */\n      swap2\n      swap1\n      pop\n      jump\t// out\n        /* \"#utility.yul\":1638:1776   */\n    tag_51:\n        /* \"#utility.yul\":1719:1751   */\n      tag_90\n        /* \"#utility.yul\":1745:1750   */\n      dup2\n        /* \"#utility.yul\":1719:1751   */\n      tag_50\n      jump\t// in\n    tag_90:\n        /* \"#utility.yul\":1712:1717   */\n      dup2\n        /* \"#utility.yul\":1709:1752   */\n      eq\n        /* \"#utility.yul\":1699:1770   */\n      tag_91\n      jumpi\n        /* \"#utility.yul\":1766:1767   */\n      0x00\n        /* \"#utility.yul\":1763:1764   */\n      dup1\n        /* \"#utility.yul\":1756:1768   */\n      revert\n        /* \"#utility.yul\":1699:1770   */\n    tag_91:\n        /* \"#utility.yul\":1638:1776   */\n      pop\n      jump\t// out\n        /* \"#utility.yul\":1782:1937   */\n    tag_52:\n        /* \"#utility.yul\":1836:1841   */\n      0x00\n        /* \"#utility.yul\":1874:1880   */\n      dup2\n        /* \"#utility.yul\":1861:1881   */\n      calldataload\n        /* \"#utility.yul\":1852:1881   */\n      swap1\n      pop\n        /* \"#utility.yul\":1890:1931   */\n      tag_93\n        /* \"#utility.yul\":1925:1930   */\n      dup2\n        /* \"#utility.yul\":1890:1931   */\n      tag_51\n      jump\t// in\n    tag_93:\n        /* \"#utility.yul\":1782:1937   */\n      swap3\n      swap2\n      pop\n      pop\n      jump\t// out\n        /* \"#utility.yul\":1943:2020   */\n    tag_53:\n        /* \"#utility.yul\":1980:1987   */\n      0x00\n        /* \"#utility.yul\":2009:2014   */\n      dup2\n        /* \"#utility.yul\":1998:2014   */\n      swap1\n      pop\n        /* \"#utility.yul\":1943:2020   */\n      swap2\n      swap1\n      pop\n      jump\t// out\n        /* \"#utility.yul\":2026:2148   */\n    tag_54:\n        /* \"#utility.yul\":2099:2123   */\n      tag_96\n        /* \"#utility.yul\":2117:2122   */\n      dup2\n        /* \"#utility.yul\":2099:2123   */\n      tag_53\n      jump\t// in\n    tag_96:\n        /* \"#utility.yul\":2092:2097   */\n      dup2\n        /* \"#utility.yul\":2089:2124   */\n      eq\n        /* \"#utility.yul\":2079:2142   */\n      tag_97\n      jumpi\n        /* \"#utility.yul\":2138:2139   */\n      0x00\n        /* \"#utility.yul\":2135:2136   */\n      dup1\n        /* \"#utility.yul\":2128:2140   */\n      revert\n        /* \"#utility.yul\":2079:2142   */\n    tag_97:\n        /* \"#utility.yul\":2026:2148   */\n      pop\n      jump\t// out\n        /* \"#utility.yul\":2154:2293   */\n    tag_55:\n        /* \"#utility.yul\":2200:2205   */\n      0x00\n        /* \"#utility.yul\":2238:2244   */\n      dup2\n        /* \"#utility.yul\":2225:2245   */\n      calldataload\n        /* \"#utility.yul\":2216:2245   */\n      swap1\n      pop\n        /* \"#utility.yul\":2254:2287   */\n      tag_99\n        /* \"#utility.yul\":2281:2286   */\n      dup2\n        /* \"#utility.yul\":2254:2287   */\n      tag_54\n      jump\t// in\n    tag_99:\n        /* \"#utility.yul\":2154:2293   */\n      swap3\n      swap2\n      pop\n      pop\n      jump\t// out\n        /* \"#utility.yul\":2299:2789   */\n    tag_18:\n        /* \"#utility.yul\":2375:2381   */\n      0x00\n        /* \"#utility.yul\":2383:2389   */\n      dup1\n        /* \"#utility.yul\":2432:2434   */\n      0x40\n        /* \"#utility.yul\":2420:2429   */\n      dup4\n        /* \"#utility.yul\":2411:2418   */\n      dup6\n        /* \"#utility.yul\":2407:2430   */\n      sub\n        /* \"#utility.yul\":2403:2435   */\n      slt\n        /* \"#utility.yul\":2400:2519   */\n      iszero\n      tag_101\n      jumpi\n        /* \"#utility.yul\":2438:2517   */\n      tag_102\n      tag_46\n      jump\t// in\n    tag_102:\n        /* \"#utility.yul\":2400:2519   */\n    tag_101:\n        /* \"#utility.yul\":2558:2559   */\n      0x00\n        /* \"#utility.yul\":2583:2644   */\n      tag_103\n        /* \"#utility.yul\":2636:2643   */\n      dup6\n        /* \"#utility.yul\":2627:2633   */\n      dup3\n        /* \"#utility.yul\":2616:2625   */\n      dup7\n        /* \"#utility.yul\":2612:2634   */\n      add\n        /* \"#utility.yul\":2583:2644   */\n      tag_52\n      jump\t// in\n    tag_103:\n        /* \"#utility.yul\":2573:2644   */\n      swap3\n      pop\n        /* \"#utility.yul\":2529:2654   */\n      pop\n        /* \"#utility.yul\":2693:2695   */\n      0x20\n        /* \"#utility.yul\":2719:2772   */\n      tag_104\n        /* \"#utility.yul\":2764:2771   */\n      dup6\n        /* \"#utility.yul\":2755:2761   */\n      dup3\n        /* \"#utility.yul\":2744:2753   */\n      dup7\n        /* \"#utility.yul\":2740:2762   */\n      add\n        /* \"#utility.yul\":2719:2772   */\n      tag_55\n      jump\t// in\n    tag_104:\n        /* \"#utility.yul\":2709:2772   */\n      swap2\n      pop\n        /* \"#utility.yul\":2664:2782   */\n      pop\n        /* \"#utility.yul\":2299:2789   */\n      swap3\n      pop\n      swap3\n      swap1\n      pop\n      jump\t// out\n        /* \"#utility.yul\":2795:2913   */\n    tag_56:\n        /* \"#utility.yul\":2882:2906   */\n      tag_106\n        /* \"#utility.yul\":2900:2905   */\n      dup2\n        /* \"#utility.yul\":2882:2906   */\n      tag_53\n      jump\t// in\n    tag_106:\n        /* \"#utility.yul\":2877:2880   */\n      dup3\n        /* \"#utility.yul\":2870:2907   */\n      mstore\n        /* \"#utility.yul\":2795:2913   */\n      pop\n      pop\n      jump\t// out\n        /* \"#utility.yul\":2919:3141   */\n    tag_26:\n        /* \"#utility.yul\":3012:3016   */\n      0x00\n        /* \"#utility.yul\":3050:3052   */\n      0x20\n        /* \"#utility.yul\":3039:3048   */\n      dup3\n        /* \"#utility.yul\":3035:3053   */\n      add\n        /* \"#utility.yul\":3027:3053   */\n      swap1\n      pop\n        /* \"#utility.yul\":3063:3134   */\n      tag_108\n        /* \"#utility.yul\":3131:3132   */\n      0x00\n        /* \"#utility.yul\":3120:3129   */\n      dup4\n        /* \"#utility.yul\":3116:3133   */\n      add\n        /* \"#utility.yul\":3107:3113   */\n      dup5\n        /* \"#utility.yul\":3063:3134   */\n      tag_56\n      jump\t// in\n    tag_108:\n        /* \"#utility.yul\":2919:3141   */\n      swap3\n      swap2\n      pop\n      pop\n      jump\t// out\n        /* \"#utility.yul\":3147:3316   */\n    tag_57:\n        /* \"#utility.yul\":3231:3242   */\n      0x00\n        /* \"#utility.yul\":3265:3271   */\n      dup3\n        /* \"#utility.yul\":3260:3263   */\n      dup3\n        /* \"#utility.yul\":3253:3272   */\n      mstore\n        /* \"#utility.yul\":3305:3309   */\n      0x20\n        /* \"#utility.yul\":3300:3303   */\n      dup3\n        /* \"#utility.yul\":3296:3310   */\n      add\n        /* \"#utility.yul\":3281:3310   */\n      swap1\n      pop\n        /* \"#utility.yul\":3147:3316   */\n      swap3\n      swap2\n      pop\n      pop\n      jump\t// out\n        /* \"#utility.yul\":3322:3484   */\n    tag_58:\n        /* \"#utility.yul\":3462:3476   */\n      0x2072756e20737563636573730000000000000000000000000000000000000000\n        /* \"#utility.yul\":3458:3459   */\n      0x00\n        /* \"#utility.yul\":3450:3456   */\n      dup3\n        /* \"#utility.yul\":3446:3460   */\n      add\n        /* \"#utility.yul\":3439:3477   */\n      mstore\n        /* \"#utility.yul\":3322:3484   */\n      pop\n      jump\t// out\n        /* \"#utility.yul\":3490:3856   */\n    tag_59:\n        /* \"#utility.yul\":3632:3635   */\n      0x00\n        /* \"#utility.yul\":3653:3720   */\n      tag_112\n        /* \"#utility.yul\":3717:3719   */\n      0x0c\n        /* \"#utility.yul\":3712:3715   */\n      dup4\n        /* \"#utility.yul\":3653:3720   */\n      tag_57\n      jump\t// in\n    tag_112:\n        /* \"#utility.yul\":3646:3720   */\n      swap2\n      pop\n        /* \"#utility.yul\":3729:3822   */\n      tag_113\n        /* \"#utility.yul\":3818:3821   */\n      dup3\n        /* \"#utility.yul\":3729:3822   */\n      tag_58\n      jump\t// in\n    tag_113:\n        /* \"#utility.yul\":3847:3849   */\n      0x20\n        /* \"#utility.yul\":3842:3845   */\n      dup3\n        /* \"#utility.yul\":3838:3850   */\n      add\n        /* \"#utility.yul\":3831:3850   */\n      swap1\n      pop\n        /* \"#utility.yul\":3490:3856   */\n      swap2\n      swap1\n      pop\n      jump\t// out\n        /* \"#utility.yul\":3862:4391   */\n    tag_29:\n        /* \"#utility.yul\":4056:4060   */\n      0x00\n        /* \"#utility.yul\":4094:4096   */\n      0x40\n        /* \"#utility.yul\":4083:4092   */\n      dup3\n        /* \"#utility.yul\":4079:4097   */\n      add\n        /* \"#utility.yul\":4071:4097   */\n      swap1\n      pop\n        /* \"#utility.yul\":4143:4152   */\n      dup2\n        /* \"#utility.yul\":4137:4141   */\n      dup2\n        /* \"#utility.yul\":4133:4153   */\n      sub\n        /* \"#utility.yul\":4129:4130   */\n      0x00\n        /* \"#utility.yul\":4118:4127   */\n      dup4\n        /* \"#utility.yul\":4114:4131   */\n      add\n        /* \"#utility.yul\":4107:4154   */\n      mstore\n        /* \"#utility.yul\":4171:4302   */\n      tag_115\n        /* \"#utility.yul\":4297:4301   */\n      dup2\n        /* \"#utility.yul\":4171:4302   */\n      tag_59\n      jump\t// in\n    tag_115:\n        /* \"#utility.yul\":4163:4302   */\n      swap1\n      pop\n        /* \"#utility.yul\":4312:4384   */\n      tag_116\n        /* \"#utility.yul\":4380:4382   */\n      0x20\n        /* \"#utility.yul\":4369:4378   */\n      dup4\n        /* \"#utility.yul\":4365:4383   */\n      add\n        /* \"#utility.yul\":4356:4362   */\n      dup5\n        /* \"#utility.yul\":4312:4384   */\n      tag_44\n      jump\t// in\n    tag_116:\n        /* \"#utility.yul\":3862:4391   */\n      swap3\n      swap2\n      pop\n      pop\n      jump\t// out\n        /* \"#utility.yul\":4397:4562   */\n    tag_60:\n        /* \"#utility.yul\":4537:4554   */\n      0x6572726f723a6e6f74206f776e65720000000000000000000000000000000000\n        /* \"#utility.yul\":4533:4534   */\n      0x00\n        /* \"#utility.yul\":4525:4531   */\n      dup3\n        /* \"#utility.yul\":4521:4535   */\n      add\n        /* \"#utility.yul\":4514:4555   */\n      mstore\n        /* \"#utility.yul\":4397:4562   */\n      pop\n      jump\t// out\n        /* \"#utility.yul\":4568:4934   */\n    tag_61:\n        /* \"#utility.yul\":4710:4713   */\n      0x00\n        /* \"#utility.yul\":4731:4798   */\n      tag_119\n        /* \"#utility.yul\":4795:4797   */\n      0x0f\n        /* \"#utility.yul\":4790:4793   */\n      dup4\n        /* \"#utility.yul\":4731:4798   */\n      tag_57\n      jump\t// in\n    tag_119:\n        /* \"#utility.yul\":4724:4798   */\n      swap2\n      pop\n        /* \"#utility.yul\":4807:4900   */\n      tag_120\n        /* \"#utility.yul\":4896:4899   */\n      dup3\n        /* \"#utility.yul\":4807:4900   */\n      tag_60\n      jump\t// in\n    tag_120:\n        /* \"#utility.yul\":4925:4927   */\n      0x20\n        /* \"#utility.yul\":4920:4923   */\n      dup3\n        /* \"#utility.yul\":4916:4928   */\n      add\n        /* \"#utility.yul\":4909:4928   */\n      swap1\n      pop\n        /* \"#utility.yul\":4568:4934   */\n      swap2\n      swap1\n      pop\n      jump\t// out\n        /* \"#utility.yul\":4940:5359   */\n    tag_33:\n        /* \"#utility.yul\":5106:5110   */\n      0x00\n        /* \"#utility.yul\":5144:5146   */\n      0x20\n        /* \"#utility.yul\":5133:5142   */\n      dup3\n        /* \"#utility.yul\":5129:5147   */\n      add\n        /* \"#utility.yul\":5121:5147   */\n      swap1\n      pop\n        /* \"#utility.yul\":5193:5202   */\n      dup2\n        /* \"#utility.yul\":5187:5191   */\n      dup2\n        /* \"#utility.yul\":5183:5203   */\n      sub\n        /* \"#utility.yul\":5179:5180   */\n      0x00\n        /* \"#utility.yul\":5168:5177   */\n      dup4\n        /* \"#utility.yul\":5164:5181   */\n      add\n        /* \"#utility.yul\":5157:5204   */\n      mstore\n        /* \"#utility.yul\":5221:5352   */\n      tag_122\n        /* \"#utility.yul\":5347:5351   */\n      dup2\n        /* \"#utility.yul\":5221:5352   */\n      tag_61\n      jump\t// in\n    tag_122:\n        /* \"#utility.yul\":5213:5352   */\n      swap1\n      pop\n        /* \"#utility.yul\":4940:5359   */\n      swap2\n      swap1\n      pop\n      jump\t// out\n        /* \"#utility.yul\":5365:5512   */\n    tag_62:\n        /* \"#utility.yul\":5466:5477   */\n      0x00\n        /* \"#utility.yul\":5503:5506   */\n      dup2\n        /* \"#utility.yul\":5488:5506   */\n      swap1\n      pop\n        /* \"#utility.yul\":5365:5512   */\n      swap3\n      swap2\n      pop\n      pop\n      jump\t// out\n        /* \"#utility.yul\":5518:5632   */\n    tag_63:\n      pop\n      jump\t// out\n        /* \"#utility.yul\":5638:6036   */\n    tag_64:\n        /* \"#utility.yul\":5797:5800   */\n      0x00\n        /* \"#utility.yul\":5818:5901   */\n      tag_126\n        /* \"#utility.yul\":5899:5900   */\n      0x00\n        /* \"#utility.yul\":5894:5897   */\n      dup4\n        /* \"#utility.yul\":5818:5901   */\n      tag_62\n      jump\t// in\n    tag_126:\n        /* \"#utility.yul\":5811:5901   */\n      swap2\n      pop\n        /* \"#utility.yul\":5910:6003   */\n      tag_127\n        /* \"#utility.yul\":5999:6002   */\n      dup3\n        /* \"#utility.yul\":5910:6003   */\n      tag_63\n      jump\t// in\n    tag_127:\n        /* \"#utility.yul\":6028:6029   */\n      0x00\n        /* \"#utility.yul\":6023:6026   */\n      dup3\n        /* \"#utility.yul\":6019:6030   */\n      add\n        /* \"#utility.yul\":6012:6030   */\n      swap1\n      pop\n        /* \"#utility.yul\":5638:6036   */\n      swap2\n      swap1\n      pop\n      jump\t// out\n        /* \"#utility.yul\":6042:6421   */\n    tag_35:\n        /* \"#utility.yul\":6226:6229   */\n      0x00\n        /* \"#utility.yul\":6248:6395   */\n      tag_129\n        /* \"#utility.yul\":6391:6394   */\n      dup3\n        /* \"#utility.yul\":6248:6395   */\n      tag_64\n      jump\t// in\n    tag_129:\n        /* \"#utility.yul\":6241:6395   */\n      swap2\n      pop\n        /* \"#utility.yul\":6412:6415   */\n      dup2\n        /* \"#utility.yul\":6405:6415   */\n      swap1\n      pop\n        /* \"#utility.yul\":6042:6421   */\n      swap2\n      swap1\n      pop\n      jump\t// out\n        /* \"#utility.yul\":6427:6595   */\n    tag_65:\n        /* \"#utility.yul\":6567:6587   */\n      0x6572726f723a6d75737420737563636573730000000000000000000000000000\n        /* \"#utility.yul\":6563:6564   */\n      0x00\n        /* \"#utility.yul\":6555:6561   */\n      dup3\n        /* \"#utility.yul\":6551:6565   */\n      add\n        /* \"#utility.yul\":6544:6588   */\n      mstore\n        /* \"#utility.yul\":6427:6595   */\n      pop\n      jump\t// out\n        /* \"#utility.yul\":6601:6967   */\n    tag_66:\n        /* \"#utility.yul\":6743:6746   */\n      0x00\n        /* \"#utility.yul\":6764:6831   */\n      tag_132\n        /* \"#utility.yul\":6828:6830   */\n      0x12\n        /* \"#utility.yul\":6823:6826   */\n      dup4\n        /* \"#utility.yul\":6764:6831   */\n      tag_57\n      jump\t// in\n    tag_132:\n        /* \"#utility.yul\":6757:6831   */\n      swap2\n      pop\n        /* \"#utility.yul\":6840:6933   */\n      tag_133\n        /* \"#utility.yul\":6929:6932   */\n      dup3\n        /* \"#utility.yul\":6840:6933   */\n      tag_65\n      jump\t// in\n    tag_133:\n        /* \"#utility.yul\":6958:6960   */\n      0x20\n        /* \"#utility.yul\":6953:6956   */\n      dup3\n        /* \"#utility.yul\":6949:6961   */\n      add\n        /* \"#utility.yul\":6942:6961   */\n      swap1\n      pop\n        /* \"#utility.yul\":6601:6967   */\n      swap2\n      swap1\n      pop\n      jump\t// out\n        /* \"#utility.yul\":6973:7392   */\n    tag_41:\n        /* \"#utility.yul\":7139:7143   */\n      0x00\n        /* \"#utility.yul\":7177:7179   */\n      0x20\n        /* \"#utility.yul\":7166:7175   */\n      dup3\n        /* \"#utility.yul\":7162:7180   */\n      add\n        /* \"#utility.yul\":7154:7180   */\n      swap1\n      pop\n        /* \"#utility.yul\":7226:7235   */\n      dup2\n        /* \"#utility.yul\":7220:7224   */\n      dup2\n        /* \"#utility.yul\":7216:7236   */\n      sub\n        /* \"#utility.yul\":7212:7213   */\n      0x00\n        /* \"#utility.yul\":7201:7210   */\n      dup4\n        /* \"#utility.yul\":7197:7214   */\n      add\n        /* \"#utility.yul\":7190:7237   */\n      mstore\n        /* \"#utility.yul\":7254:7385   */\n      tag_135\n        /* \"#utility.yul\":7380:7384   */\n      dup2\n        /* \"#utility.yul\":7254:7385   */\n      tag_66\n      jump\t// in\n    tag_135:\n        /* \"#utility.yul\":7246:7385   */\n      swap1\n      pop\n        /* \"#utility.yul\":6973:7392   */\n      swap2\n      swap1\n      pop\n      jump\t// out\n\n    auxdata: 0xa26469706673582212206916f923e213e6b718ca902585ce0d44db6953547ef70be8de01b895404cb1cc64736f6c63430008120033\n}\n",
				"bytecode": {
					"linkReferences": {},
					"object": "6080604052336000806101000a81548173ffffffffffffffffffffffffffffffffffffffff021916908373ffffffffffffffffffffffffffffffffffffffff1602179055506106b7806100536000396000f3fe608060405234801561001057600080fd5b50600436106100575760003560e01c8063240dc84f1461005c5780635f6e44461461007a57806369a3f230146100965780638da5cb5b146100b2578063d4b7bd4e146100d0575b600080fd5b6100646100ee565b6040516100719190610381565b60405180910390f35b610094600480360381019061008f91906103cd565b610114565b005b6100b060048036038101906100ab919061046e565b61018f565b005b6100ba610316565b6040516100c79190610381565b60405180910390f35b6100d861033a565b6040516100e591906104bd565b60405180910390f35b600160009054906101000a900473ffffffffffffffffffffffffffffffffffffffff1681565b80600160006101000a81548173ffffffffffffffffffffffffffffffffffffffff021916908373ffffffffffffffffffffffffffffffffffffffff1602179055507f0410c0d9c01a6c4c5fc217ddcc525ec2b73ee2d6253c448c9594f46e0210aad1816040516101849190610535565b60405180910390a150565b81600160006101000a81548173ffffffffffffffffffffffffffffffffffffffff021916908373ffffffffffffffffffffffffffffffffffffffff1602179055508060028190555060008054906101000a900473ffffffffffffffffffffffffffffffffffffffff1673ffffffffffffffffffffffffffffffffffffffff163273ffffffffffffffffffffffffffffffffffffffff1614610265576040517f08c379a000000000000000000000000000000000000000000000000000000000815260040161025c906105af565b60405180910390fd5b60008273ffffffffffffffffffffffffffffffffffffffff168260405161028b90610600565b60006040518083038185875af1925050503d80600081146102c8576040519150601f19603f3d011682016040523d82523d6000602084013e6102cd565b606091505b5050905080610311576040517f08c379a000000000000000000000000000000000000000000000000000000000815260040161030890610661565b60405180910390fd5b505050565b60008054906101000a900473ffffffffffffffffffffffffffffffffffffffff1681565b60025481565b600073ffffffffffffffffffffffffffffffffffffffff82169050919050565b600061036b82610340565b9050919050565b61037b81610360565b82525050565b60006020820190506103966000830184610372565b92915050565b600080fd5b6103aa81610360565b81146103b557600080fd5b50565b6000813590506103c7816103a1565b92915050565b6000602082840312156103e3576103e261039c565b5b60006103f1848285016103b8565b91505092915050565b600061040582610340565b9050919050565b610415816103fa565b811461042057600080fd5b50565b6000813590506104328161040c565b92915050565b6000819050919050565b61044b81610438565b811461045657600080fd5b50565b60008135905061046881610442565b92915050565b600080604083850312156104855761048461039c565b5b600061049385828601610423565b92505060206104a485828601610459565b9150509250929050565b6104b781610438565b82525050565b60006020820190506104d260008301846104ae565b92915050565b600082825260208201905092915050565b7f2072756e20737563636573730000000000000000000000000000000000000000600082015250565b600061051f600c836104d8565b915061052a826104e9565b602082019050919050565b6000604082019050818103600083015261054e81610512565b905061055d6020830184610372565b92915050565b7f6572726f723a6e6f74206f776e65720000000000000000000000000000000000600082015250565b6000610599600f836104d8565b91506105a482610563565b602082019050919050565b600060208201905081810360008301526105c88161058c565b9050919050565b600081905092915050565b50565b60006105ea6000836105cf565b91506105f5826105da565b600082019050919050565b600061060b826105dd565b9150819050919050565b7f6572726f723a6d75737420737563636573730000000000000000000000000000600082015250565b600061064b6012836104d8565b915061065682610615565b602082019050919050565b6000602082019050818103600083015261067a8161063e565b905091905056fea26469706673582212206916f923e213e6b718ca902585ce0d44db6953547ef70be8de01b895404cb1cc64736f6c63430008120033",
					"opcodes": "PUSH1 0x80 PUSH1 0x40 MSTORE CALLER PUSH1 0x0 DUP1 PUSH2 0x100 EXP DUP2 SLOAD DUP2 PUSH20 0xFFFFFFFFFFFFFFFFFFFFFFFFFFFFFFFFFFFFFFFF MUL NOT AND SWAP1 DUP4 PUSH20 0xFFFFFFFFFFFFFFFFFFFFFFFFFFFFFFFFFFFFFFFF AND MUL OR SWAP1 SSTORE POP PUSH2 0x6B7 DUP1 PUSH2 0x53 PUSH1 0x0 CODECOPY PUSH1 0x0 RETURN INVALID PUSH1 0x80 PUSH1 0x40 MSTORE CALLVALUE DUP1 ISZERO PUSH2 0x10 JUMPI PUSH1 0x0 DUP1 REVERT JUMPDEST POP PUSH1 0x4 CALLDATASIZE LT PUSH2 0x57 JUMPI PUSH1 0x0 CALLDATALOAD PUSH1 0xE0 SHR DUP1 PUSH4 0x240DC84F EQ PUSH2 0x5C JUMPI DUP1 PUSH4 0x5F6E4446 EQ PUSH2 0x7A JUMPI DUP1 PUSH4 0x69A3F230 EQ PUSH2 0x96 JUMPI DUP1 PUSH4 0x8DA5CB5B EQ PUSH2 0xB2 JUMPI DUP1 PUSH4 0xD4B7BD4E EQ PUSH2 0xD0 JUMPI JUMPDEST PUSH1 0x0 DUP1 REVERT JUMPDEST PUSH2 0x64 PUSH2 0xEE JUMP JUMPDEST PUSH1 0x40 MLOAD PUSH2 0x71 SWAP2 SWAP1 PUSH2 0x381 JUMP JUMPDEST PUSH1 0x40 MLOAD DUP1 SWAP2 SUB SWAP1 RETURN JUMPDEST PUSH2 0x94 PUSH1 0x4 DUP1 CALLDATASIZE SUB DUP2 ADD SWAP1 PUSH2 0x8F SWAP2 SWAP1 PUSH2 0x3CD JUMP JUMPDEST PUSH2 0x114 JUMP JUMPDEST STOP JUMPDEST PUSH2 0xB0 PUSH1 0x4 DUP1 CALLDATASIZE SUB DUP2 ADD SWAP1 PUSH2 0xAB SWAP2 SWAP1 PUSH2 0x46E JUMP JUMPDEST PUSH2 0x18F JUMP JUMPDEST STOP JUMPDEST PUSH2 0xBA PUSH2 0x316 JUMP JUMPDEST PUSH1 0x40 MLOAD PUSH2 0xC7 SWAP2 SWAP1 PUSH2 0x381 JUMP JUMPDEST PUSH1 0x40 MLOAD DUP1 SWAP2 SUB SWAP1 RETURN JUMPDEST PUSH2 0xD8 PUSH2 0x33A JUMP JUMPDEST PUSH1 0x40 MLOAD PUSH2 0xE5 SWAP2 SWAP1 PUSH2 0x4BD JUMP JUMPDEST PUSH1 0x40 MLOAD DUP1 SWAP2 SUB SWAP1 RETURN JUMPDEST PUSH1 0x1 PUSH1 0x0 SWAP1 SLOAD SWAP1 PUSH2 0x100 EXP SWAP1 DIV PUSH20 0xFFFFFFFFFFFFFFFFFFFFFFFFFFFFFFFFFFFFFFFF AND DUP2 JUMP JUMPDEST DUP1 PUSH1 0x1 PUSH1 0x0 PUSH2 0x100 EXP DUP2 SLOAD DUP2 PUSH20 0xFFFFFFFFFFFFFFFFFFFFFFFFFFFFFFFFFFFFFFFF MUL NOT AND SWAP1 DUP4 PUSH20 0xFFFFFFFFFFFFFFFFFFFFFFFFFFFFFFFFFFFFFFFF AND MUL OR SWAP1 SSTORE POP PUSH32 0x410C0D9C01A6C4C5FC217DDCC525EC2B73EE2D6253C448C9594F46E0210AAD1 DUP2 PUSH1 0x40 MLOAD PUSH2 0x184 SWAP2 SWAP1 PUSH2 0x535 JUMP JUMPDEST PUSH1 0x40 MLOAD DUP1 SWAP2 SUB SWAP1 LOG1 POP JUMP JUMPDEST DUP2 PUSH1 0x1 PUSH1 0x0 PUSH2 0x100 EXP DUP2 SLOAD DUP2 PUSH20 0xFFFFFFFFFFFFFFFFFFFFFFFFFFFFFFFFFFFFFFFF MUL NOT AND SWAP1 DUP4 PUSH20 0xFFFFFFFFFFFFFFFFFFFFFFFFFFFFFFFFFFFFFFFF AND MUL OR SWAP1 SSTORE POP DUP1 PUSH1 0x2 DUP2 SWAP1 SSTORE POP PUSH1 0x0 DUP1 SLOAD SWAP1 PUSH2 0x100 EXP SWAP1 DIV PUSH20 0xFFFFFFFFFFFFFFFFFFFFFFFFFFFFFFFFFFFFFFFF AND PUSH20 0xFFFFFFFFFFFFFFFFFFFFFFFFFFFFFFFFFFFFFFFF AND ORIGIN PUSH20 0xFFFFFFFFFFFFFFFFFFFFFFFFFFFFFFFFFFFFFFFF AND EQ PUSH2 0x265 JUMPI PUSH1 0x40 MLOAD PUSH32 0x8C379A000000000000000000000000000000000000000000000000000000000 DUP2 MSTORE PUSH1 0x4 ADD PUSH2 0x25C SWAP1 PUSH2 0x5AF JUMP JUMPDEST PUSH1 0x40 MLOAD DUP1 SWAP2 SUB SWAP1 REVERT JUMPDEST PUSH1 0x0 DUP3 PUSH20 0xFFFFFFFFFFFFFFFFFFFFFFFFFFFFFFFFFFFFFFFF AND DUP3 PUSH1 0x40 MLOAD PUSH2 0x28B SWAP1 PUSH2 0x600 JUMP JUMPDEST PUSH1 0x0 PUSH1 0x40 MLOAD DUP1 DUP4 SUB DUP2 DUP6 DUP8 GAS CALL SWAP3 POP POP POP RETURNDATASIZE DUP1 PUSH1 0x0 DUP2 EQ PUSH2 0x2C8 JUMPI PUSH1 0x40 MLOAD SWAP2 POP PUSH1 0x1F NOT PUSH1 0x3F RETURNDATASIZE ADD AND DUP3 ADD PUSH1 0x40 MSTORE RETURNDATASIZE DUP3 MSTORE RETURNDATASIZE PUSH1 0x0 PUSH1 0x20 DUP5 ADD RETURNDATACOPY PUSH2 0x2CD JUMP JUMPDEST PUSH1 0x60 SWAP2 POP JUMPDEST POP POP SWAP1 POP DUP1 PUSH2 0x311 JUMPI PUSH1 0x40 MLOAD PUSH32 0x8C379A000000000000000000000000000000000000000000000000000000000 DUP2 MSTORE PUSH1 0x4 ADD PUSH2 0x308 SWAP1 PUSH2 0x661 JUMP JUMPDEST PUSH1 0x40 MLOAD DUP1 SWAP2 SUB SWAP1 REVERT JUMPDEST POP POP POP JUMP JUMPDEST PUSH1 0x0 DUP1 SLOAD SWAP1 PUSH2 0x100 EXP SWAP1 DIV PUSH20 0xFFFFFFFFFFFFFFFFFFFFFFFFFFFFFFFFFFFFFFFF AND DUP2 JUMP JUMPDEST PUSH1 0x2 SLOAD DUP2 JUMP JUMPDEST PUSH1 0x0 PUSH20 0xFFFFFFFFFFFFFFFFFFFFFFFFFFFFFFFFFFFFFFFF DUP3 AND SWAP1 POP SWAP2 SWAP1 POP JUMP JUMPDEST PUSH1 0x0 PUSH2 0x36B DUP3 PUSH2 0x340 JUMP JUMPDEST SWAP1 POP SWAP2 SWAP1 POP JUMP JUMPDEST PUSH2 0x37B DUP2 PUSH2 0x360 JUMP JUMPDEST DUP3 MSTORE POP POP JUMP JUMPDEST PUSH1 0x0 PUSH1 0x20 DUP3 ADD SWAP1 POP PUSH2 0x396 PUSH1 0x0 DUP4 ADD DUP5 PUSH2 0x372 JUMP JUMPDEST SWAP3 SWAP2 POP POP JUMP JUMPDEST PUSH1 0x0 DUP1 REVERT JUMPDEST PUSH2 0x3AA DUP2 PUSH2 0x360 JUMP JUMPDEST DUP2 EQ PUSH2 0x3B5 JUMPI PUSH1 0x0 DUP1 REVERT JUMPDEST POP JUMP JUMPDEST PUSH1 0x0 DUP2 CALLDATALOAD SWAP1 POP PUSH2 0x3C7 DUP2 PUSH2 0x3A1 JUMP JUMPDEST SWAP3 SWAP2 POP POP JUMP JUMPDEST PUSH1 0x0 PUSH1 0x20 DUP3 DUP5 SUB SLT ISZERO PUSH2 0x3E3 JUMPI PUSH2 0x3E2 PUSH2 0x39C JUMP JUMPDEST JUMPDEST PUSH1 0x0 PUSH2 0x3F1 DUP5 DUP3 DUP6 ADD PUSH2 0x3B8 JUMP JUMPDEST SWAP2 POP POP SWAP3 SWAP2 POP POP JUMP JUMPDEST PUSH1 0x0 PUSH2 0x405 DUP3 PUSH2 0x340 JUMP JUMPDEST SWAP1 POP SWAP2 SWAP1 POP JUMP JUMPDEST PUSH2 0x415 DUP2 PUSH2 0x3FA JUMP JUMPDEST DUP2 EQ PUSH2 0x420 JUMPI PUSH1 0x0 DUP1 REVERT JUMPDEST POP JUMP JUMPDEST PUSH1 0x0 DUP2 CALLDATALOAD SWAP1 POP PUSH2 0x432 DUP2 PUSH2 0x40C JUMP JUMPDEST SWAP3 SWAP2 POP POP JUMP JUMPDEST PUSH1 0x0 DUP2 SWAP1 POP SWAP2 SWAP1 POP JUMP JUMPDEST PUSH2 0x44B DUP2 PUSH2 0x438 JUMP JUMPDEST DUP2 EQ PUSH2 0x456 JUMPI PUSH1 0x0 DUP1 REVERT JUMPDEST POP JUMP JUMPDEST PUSH1 0x0 DUP2 CALLDATALOAD SWAP1 POP PUSH2 0x468 DUP2 PUSH2 0x442 JUMP JUMPDEST SWAP3 SWAP2 POP POP JUMP JUMPDEST PUSH1 0x0 DUP1 PUSH1 0x40 DUP4 DUP6 SUB SLT ISZERO PUSH2 0x485 JUMPI PUSH2 0x484 PUSH2 0x39C JUMP JUMPDEST JUMPDEST PUSH1 0x0 PUSH2 0x493 DUP6 DUP3 DUP7 ADD PUSH2 0x423 JUMP JUMPDEST SWAP3 POP POP PUSH1 0x20 PUSH2 0x4A4 DUP6 DUP3 DUP7 ADD PUSH2 0x459 JUMP JUMPDEST SWAP2 POP POP SWAP3 POP SWAP3 SWAP1 POP JUMP JUMPDEST PUSH2 0x4B7 DUP2 PUSH2 0x438 JUMP JUMPDEST DUP3 MSTORE POP POP JUMP JUMPDEST PUSH1 0x0 PUSH1 0x20 DUP3 ADD SWAP1 POP PUSH2 0x4D2 PUSH1 0x0 DUP4 ADD DUP5 PUSH2 0x4AE JUMP JUMPDEST SWAP3 SWAP2 POP POP JUMP JUMPDEST PUSH1 0x0 DUP3 DUP3 MSTORE PUSH1 0x20 DUP3 ADD SWAP1 POP SWAP3 SWAP2 POP POP JUMP JUMPDEST PUSH32 0x2072756E20737563636573730000000000000000000000000000000000000000 PUSH1 0x0 DUP3 ADD MSTORE POP JUMP JUMPDEST PUSH1 0x0 PUSH2 0x51F PUSH1 0xC DUP4 PUSH2 0x4D8 JUMP JUMPDEST SWAP2 POP PUSH2 0x52A DUP3 PUSH2 0x4E9 JUMP JUMPDEST PUSH1 0x20 DUP3 ADD SWAP1 POP SWAP2 SWAP1 POP JUMP JUMPDEST PUSH1 0x0 PUSH1 0x40 DUP3 ADD SWAP1 POP DUP2 DUP2 SUB PUSH1 0x0 DUP4 ADD MSTORE PUSH2 0x54E DUP2 PUSH2 0x512 JUMP JUMPDEST SWAP1 POP PUSH2 0x55D PUSH1 0x20 DUP4 ADD DUP5 PUSH2 0x372 JUMP JUMPDEST SWAP3 SWAP2 POP POP JUMP JUMPDEST PUSH32 0x6572726F723A6E6F74206F776E65720000000000000000000000000000000000 PUSH1 0x0 DUP3 ADD MSTORE POP JUMP JUMPDEST PUSH1 0x0 PUSH2 0x599 PUSH1 0xF DUP4 PUSH2 0x4D8 JUMP JUMPDEST SWAP2 POP PUSH2 0x5A4 DUP3 PUSH2 0x563 JUMP JUMPDEST PUSH1 0x20 DUP3 ADD SWAP1 POP SWAP2 SWAP1 POP JUMP JUMPDEST PUSH1 0x0 PUSH1 0x20 DUP3 ADD SWAP1 POP DUP2 DUP2 SUB PUSH1 0x0 DUP4 ADD MSTORE PUSH2 0x5C8 DUP2 PUSH2 0x58C JUMP JUMPDEST SWAP1 POP SWAP2 SWAP1 POP JUMP JUMPDEST PUSH1 0x0 DUP2 SWAP1 POP SWAP3 SWAP2 POP POP JUMP JUMPDEST POP JUMP JUMPDEST PUSH1 0x0 PUSH2 0x5EA PUSH1 0x0 DUP4 PUSH2 0x5CF JUMP JUMPDEST SWAP2 POP PUSH2 0x5F5 DUP3 PUSH2 0x5DA JUMP JUMPDEST PUSH1 0x0 DUP3 ADD SWAP1 POP SWAP2 SWAP1 POP JUMP JUMPDEST PUSH1 0x0 PUSH2 0x60B DUP3 PUSH2 0x5DD JUMP JUMPDEST SWAP2 POP DUP2 SWAP1 POP SWAP2 SWAP1 POP JUMP JUMPDEST PUSH32 0x6572726F723A6D75737420737563636573730000000000000000000000000000 PUSH1 0x0 DUP3 ADD MSTORE POP JUMP JUMPDEST PUSH1 0x0 PUSH2 0x64B PUSH1 0x12 DUP4 PUSH2 0x4D8 JUMP JUMPDEST SWAP2 POP PUSH2 0x656 DUP3 PUSH2 0x615 JUMP JUMPDEST PUSH1 0x20 DUP3 ADD SWAP1 POP SWAP2 SWAP1 POP JUMP JUMPDEST PUSH1 0x0 PUSH1 0x20 DUP3 ADD SWAP1 POP DUP2 DUP2 SUB PUSH1 0x0 DUP4 ADD MSTORE PUSH2 0x67A DUP2 PUSH2 0x63E JUMP JUMPDEST SWAP1 POP SWAP2 SWAP1 POP JUMP INVALID LOG2 PUSH5 0x6970667358 0x22 SLT KECCAK256 PUSH10 0x16F923E213E6B718CA90 0x25 DUP6 0xCE 0xD PREVRANDAO 0xDB PUSH10 0x53547EF70BE8DE01B895 BLOCKHASH 0x4C 0xB1 0xCC PUSH5 0x736F6C6343 STOP ADDMOD SLT STOP CALLER "
				},
				"gasEstimates": {
					"creation": {
						"codeDepositCost": "343800",
						"executionCost": "24622",
						"totalCost": "368422"
					},
					"external": {
						"callAdd()": "2492",
						"callNum()": "2495",
						"owner()": "2555",
						"tra(address,uint256)": "infinite",
						"tra2(address)": "infinite"
					}
				},
				"methodIdentifiers": {
					"callAdd()": "240dc84f",
					"callNum()": "d4b7bd4e",
					"owner()": "8da5cb5b",
					"tra(address,uint256)": "69a3f230",
					"tra2(address)": "5f6e4446"
				}
			},
			"storageLayout": {
				"storage": [
					{
						"astId": 3,
						"contract": "contracts/txOrigin.sol:TXOrigin",
						"label": "owner",
						"offset": 0,
						"slot": "0",
						"type": "t_address"
					},
					{
						"astId": 5,
						"contract": "contracts/txOrigin.sol:TXOrigin",
						"label": "callAdd",
						"offset": 0,
						"slot": "1",
						"type": "t_address"
					},
					{
						"astId": 7,
						"contract": "contracts/txOrigin.sol:TXOrigin",
						"label": "callNum",
						"offset": 0,
						"slot": "2",
						"type": "t_uint256"
					}
				],
				"types": {
					"t_address": {
						"encoding": "inplace",
						"label": "address",
						"numberOfBytes": "20"
					},
					"t_uint256": {
						"encoding": "inplace",
						"label": "uint256",
						"numberOfBytes": "32"
					}
				}
			},
			"userdoc": {
				"kind": "user",
				"methods": {},
				"version": 1
			}
		}
	}
}