{
	"contracts/callCon.sol": {
		"CallCon": {
			"abi": [
				{
					"inputs": [],
					"name": "TransferHack",
					"type": "error"
				},
				{
					"anonymous": false,
					"inputs": [
						{
							"indexed": false,
							"internalType": "bool",
							"name": "success",
							"type": "bool"
						},
						{
							"indexed": false,
							"internalType": "bytes",
							"name": "data",
							"type": "bytes"
						}
					],
					"name": "Response",
					"type": "event"
				},
				{
					"inputs": [
						{
							"internalType": "address payable",
							"name": "addr",
							"type": "address"
						},
						{
							"internalType": "uint256",
							"name": "amount",
							"type": "uint256"
						}
					],
					"name": "callTargetFun",
					"outputs": [],
					"stateMutability": "payable",
					"type": "function"
				},
				{
					"inputs": [
						{
							"internalType": "address",
							"name": "addr",
							"type": "address"
						}
					],
					"name": "callTargetFun2",
					"outputs": [
						{
							"internalType": "uint256",
							"name": "",
							"type": "uint256"
						}
					],
					"stateMutability": "nonpayable",
					"type": "function"
				},
				{
					"inputs": [
						{
							"internalType": "address",
							"name": "add",
							"type": "address"
						},
						{
							"internalType": "uint256",
							"name": "num",
							"type": "uint256"
						}
					],
					"name": "callTargetFun3",
					"outputs": [],
					"stateMutability": "nonpayable",
					"type": "function"
				},
				{
					"inputs": [
						{
							"internalType": "address payable",
							"name": "add",
							"type": "address"
						}
					],
					"name": "callTargetFun4",
					"outputs": [],
					"stateMutability": "payable",
					"type": "function"
				},
				{
					"inputs": [
						{
							"internalType": "address",
							"name": "_addr",
							"type": "address"
						}
					],
					"name": "callTargetNotExitFun",
					"outputs": [],
					"stateMutability": "nonpayable",
					"type": "function"
				}
			],
			"devdoc": {
				"kind": "dev",
				"methods": {},
				"version": 1
			},
			"evm": {
				"assembly": "    /* \"contracts/callCon.sol\":188:1852  contract CallCon {... */\n  mstore(0x40, 0x80)\n  callvalue\n  dup1\n  iszero\n  tag_1\n  jumpi\n  0x00\n  dup1\n  revert\ntag_1:\n  pop\n  dataSize(sub_0)\n  dup1\n  dataOffset(sub_0)\n  0x00\n  codecopy\n  0x00\n  return\nstop\n\nsub_0: assembly {\n        /* \"contracts/callCon.sol\":188:1852  contract CallCon {... */\n      mstore(0x40, 0x80)\n      jumpi(tag_1, lt(calldatasize, 0x04))\n      shr(0xe0, calldataload(0x00))\n      dup1\n      0x392f4fc2\n      eq\n      tag_2\n      jumpi\n      dup1\n      0x4b5a53a7\n      eq\n      tag_3\n      jumpi\n      dup1\n      0x6b4bf2a7\n      eq\n      tag_4\n      jumpi\n      dup1\n      0x8d5e7d08\n      eq\n      tag_5\n      jumpi\n      dup1\n      0xd99853bf\n      eq\n      tag_6\n      jumpi\n    tag_1:\n      0x00\n      dup1\n      revert\n        /* \"contracts/callCon.sol\":1066:1323  function callTargetNotExitFun(address _addr) external {... */\n    tag_2:\n      callvalue\n      dup1\n      iszero\n      tag_7\n      jumpi\n      0x00\n      dup1\n      revert\n    tag_7:\n      pop\n      tag_8\n      0x04\n      dup1\n      calldatasize\n      sub\n      dup2\n      add\n      swap1\n      tag_9\n      swap2\n      swap1\n      tag_10\n      jump\t// in\n    tag_9:\n      tag_11\n      jump\t// in\n    tag_8:\n      stop\n        /* \"contracts/callCon.sol\":1532:1850  function callTargetFun4(address payable add) external payable {... */\n    tag_3:\n      tag_12\n      0x04\n      dup1\n      calldatasize\n      sub\n      dup2\n      add\n      swap1\n      tag_13\n      swap2\n      swap1\n      tag_14\n      jump\t// in\n    tag_13:\n      tag_15\n      jump\t// in\n    tag_12:\n      stop\n        /* \"contracts/callCon.sol\":1329:1526  function callTargetFun3(address add, uint256 num) external {... */\n    tag_4:\n      callvalue\n      dup1\n      iszero\n      tag_16\n      jumpi\n      0x00\n      dup1\n      revert\n    tag_16:\n      pop\n      tag_17\n      0x04\n      dup1\n      calldatasize\n      sub\n      dup2\n      add\n      swap1\n      tag_18\n      swap2\n      swap1\n      tag_19\n      jump\t// in\n    tag_18:\n      tag_20\n      jump\t// in\n    tag_17:\n      stop\n        /* \"contracts/callCon.sol\":678:945  function callTargetFun2(address addr) external returns (uint256) {... */\n    tag_5:\n      callvalue\n      dup1\n      iszero\n      tag_21\n      jumpi\n      0x00\n      dup1\n      revert\n    tag_21:\n      pop\n      tag_22\n      0x04\n      dup1\n      calldatasize\n      sub\n      dup2\n      add\n      swap1\n      tag_23\n      swap2\n      swap1\n      tag_10\n      jump\t// in\n    tag_23:\n      tag_24\n      jump\t// in\n    tag_22:\n      mload(0x40)\n      tag_25\n      swap2\n      swap1\n      tag_26\n      jump\t// in\n    tag_25:\n      mload(0x40)\n      dup1\n      swap2\n      sub\n      swap1\n      return\n        /* \"contracts/callCon.sol\":424:672  function callTargetFun(address payable addr, uint256 amount)... */\n    tag_6:\n      tag_27\n      0x04\n      dup1\n      calldatasize\n      sub\n      dup2\n      add\n      swap1\n      tag_28\n      swap2\n      swap1\n      tag_29\n      jump\t// in\n    tag_28:\n      tag_30\n      jump\t// in\n    tag_27:\n      stop\n        /* \"contracts/callCon.sol\":1066:1323  function callTargetNotExitFun(address _addr) external {... */\n    tag_11:\n        /* \"contracts/callCon.sol\":1154:1166  bool success */\n      0x00\n        /* \"contracts/callCon.sol\":1168:1185  bytes memory data */\n      dup1\n        /* \"contracts/callCon.sol\":1189:1194  _addr */\n      dup3\n        /* \"contracts/callCon.sol\":1189:1199  _addr.call */\n      0xffffffffffffffffffffffffffffffffffffffff\n      and\n        /* \"contracts/callCon.sol\":1213:1252  abi.encodeWithSignature(\"foo(uint256)\") */\n      add(0x24, mload(0x40))\n      mload(0x40)\n      0x20\n      dup2\n      dup4\n      sub\n      sub\n      dup2\n      mstore\n      swap1\n      0x40\n      mstore\n      and(not(0xffffffffffffffffffffffffffffffffffffffffffffffffffffffff), 0x2fbebd3800000000000000000000000000000000000000000000000000000000)\n      0x20\n      dup3\n      add\n      dup1\n      mload\n      0xffffffffffffffffffffffffffffffffffffffffffffffffffffffff\n      dup4\n      dup2\n      dup4\n      and\n      or\n      dup4\n      mstore\n      pop\n      pop\n      pop\n      pop\n        /* \"contracts/callCon.sol\":1189:1262  _addr.call(... */\n      mload(0x40)\n      tag_32\n      swap2\n      swap1\n      tag_33\n      jump\t// in\n    tag_32:\n      0x00\n      mload(0x40)\n      dup1\n      dup4\n      sub\n      dup2\n      0x00\n      dup7\n      gas\n      call\n      swap2\n      pop\n      pop\n      returndatasize\n      dup1\n      0x00\n      dup2\n      eq\n      tag_36\n      jumpi\n      mload(0x40)\n      swap2\n      pop\n      and(add(returndatasize, 0x3f), not(0x1f))\n      dup3\n      add\n      0x40\n      mstore\n      returndatasize\n      dup3\n      mstore\n      returndatasize\n      0x00\n      0x20\n      dup5\n      add\n      returndatacopy\n      jump(tag_35)\n    tag_36:\n      0x60\n      swap2\n      pop\n    tag_35:\n      pop\n        /* \"contracts/callCon.sol\":1153:1262  (bool success, bytes memory data) = _addr.call(... */\n      swap2\n      pop\n      swap2\n      pop\n        /* \"contracts/callCon.sol\":1278:1301  Response(success, data) */\n      0x13848c3e38f8886f3f5d2ad9dff80d8092c2bbb8efd5b887a99c2c6cfc09ac2a\n        /* \"contracts/callCon.sol\":1287:1294  success */\n      dup3\n        /* \"contracts/callCon.sol\":1296:1300  data */\n      dup3\n        /* \"contracts/callCon.sol\":1278:1301  Response(success, data) */\n      mload(0x40)\n      tag_37\n      swap3\n      swap2\n      swap1\n      tag_38\n      jump\t// in\n    tag_37:\n      mload(0x40)\n      dup1\n      swap2\n      sub\n      swap1\n      log1\n        /* \"contracts/callCon.sol\":1120:1323  {... */\n      pop\n      pop\n        /* \"contracts/callCon.sol\":1066:1323  function callTargetNotExitFun(address _addr) external {... */\n      pop\n      jump\t// out\n        /* \"contracts/callCon.sol\":1532:1850  function callTargetFun4(address payable add) external payable {... */\n    tag_15:\n        /* \"contracts/callCon.sol\":1605:1617  bool success */\n      0x00\n        /* \"contracts/callCon.sol\":1619:1636  bytes memory data */\n      dup1\n        /* \"contracts/callCon.sol\":1640:1643  add */\n      dup3\n        /* \"contracts/callCon.sol\":1640:1648  add.call */\n      0xffffffffffffffffffffffffffffffffffffffff\n      and\n        /* \"contracts/callCon.sol\":1656:1665  msg.value */\n      callvalue\n        /* \"contracts/callCon.sol\":1640:1670  add.call{value: msg.value}(\"\") */\n      mload(0x40)\n      tag_40\n      swap1\n      tag_41\n      jump\t// in\n    tag_40:\n      0x00\n      mload(0x40)\n      dup1\n      dup4\n      sub\n      dup2\n      dup6\n      dup8\n      gas\n      call\n      swap3\n      pop\n      pop\n      pop\n      returndatasize\n      dup1\n      0x00\n      dup2\n      eq\n      tag_44\n      jumpi\n      mload(0x40)\n      swap2\n      pop\n      and(add(returndatasize, 0x3f), not(0x1f))\n      dup3\n      add\n      0x40\n      mstore\n      returndatasize\n      dup3\n      mstore\n      returndatasize\n      0x00\n      0x20\n      dup5\n      add\n      returndatacopy\n      jump(tag_43)\n    tag_44:\n      0x60\n      swap2\n      pop\n    tag_43:\n      pop\n        /* \"contracts/callCon.sol\":1604:1670  (bool success, bytes memory data) = add.call{value: msg.value}(\"\") */\n      swap2\n      pop\n      swap2\n      pop\n        /* \"contracts/callCon.sol\":1688:1695  success */\n      dup2\n        /* \"contracts/callCon.sol\":1680:1716  require(success, \"error-send error\") */\n      tag_45\n      jumpi\n      mload(0x40)\n      0x08c379a000000000000000000000000000000000000000000000000000000000\n      dup2\n      mstore\n      0x04\n      add\n      tag_46\n      swap1\n      tag_47\n      jump\t// in\n    tag_46:\n      mload(0x40)\n      dup1\n      swap2\n      sub\n      swap1\n      revert\n    tag_45:\n        /* \"contracts/callCon.sol\":1730:1737  success */\n      dup2\n        /* \"contracts/callCon.sol\":1726:1844  if (success) {... */\n      iszero\n      tag_48\n      jumpi\n        /* \"contracts/callCon.sol\":1758:1781  Response(success, data) */\n      0x13848c3e38f8886f3f5d2ad9dff80d8092c2bbb8efd5b887a99c2c6cfc09ac2a\n        /* \"contracts/callCon.sol\":1767:1774  success */\n      dup3\n        /* \"contracts/callCon.sol\":1776:1780  data */\n      dup3\n        /* \"contracts/callCon.sol\":1758:1781  Response(success, data) */\n      mload(0x40)\n      tag_49\n      swap3\n      swap2\n      swap1\n      tag_38\n      jump\t// in\n    tag_49:\n      mload(0x40)\n      dup1\n      swap2\n      sub\n      swap1\n      log1\n        /* \"contracts/callCon.sol\":1726:1844  if (success) {... */\n      jump(tag_50)\n    tag_48:\n        /* \"contracts/callCon.sol\":1819:1833  TransferHack() */\n      mload(0x40)\n      0x7be827d300000000000000000000000000000000000000000000000000000000\n      dup2\n      mstore\n      0x04\n      add\n      mload(0x40)\n      dup1\n      swap2\n      sub\n      swap1\n      revert\n        /* \"contracts/callCon.sol\":1726:1844  if (success) {... */\n    tag_50:\n        /* \"contracts/callCon.sol\":1594:1850  {... */\n      pop\n      pop\n        /* \"contracts/callCon.sol\":1532:1850  function callTargetFun4(address payable add) external payable {... */\n      pop\n      jump\t// out\n        /* \"contracts/callCon.sol\":1329:1526  function callTargetFun3(address add, uint256 num) external {... */\n    tag_20:\n        /* \"contracts/callCon.sol\":1399:1411  bool success */\n      0x00\n        /* \"contracts/callCon.sol\":1417:1420  add */\n      dup3\n        /* \"contracts/callCon.sol\":1417:1425  add.call */\n      0xffffffffffffffffffffffffffffffffffffffff\n      and\n        /* \"contracts/callCon.sol\":1480:1483  num */\n      dup3\n        /* \"contracts/callCon.sol\":1439:1484  abi.encodeWithSignature(\"setX(uint256)\", num) */\n      add(0x24, mload(0x40))\n      tag_52\n      swap2\n      swap1\n      tag_26\n      jump\t// in\n    tag_52:\n      mload(0x40)\n      0x20\n      dup2\n      dup4\n      sub\n      sub\n      dup2\n      mstore\n      swap1\n      0x40\n      mstore\n      and(not(0xffffffffffffffffffffffffffffffffffffffffffffffffffffffff), 0x4018d9aa00000000000000000000000000000000000000000000000000000000)\n      0x20\n      dup3\n      add\n      dup1\n      mload\n      0xffffffffffffffffffffffffffffffffffffffffffffffffffffffff\n      dup4\n      dup2\n      dup4\n      and\n      or\n      dup4\n      mstore\n      pop\n      pop\n      pop\n      pop\n        /* \"contracts/callCon.sol\":1417:1494  add.call(... */\n      mload(0x40)\n      tag_53\n      swap2\n      swap1\n      tag_33\n      jump\t// in\n    tag_53:\n      0x00\n      mload(0x40)\n      dup1\n      dup4\n      sub\n      dup2\n      0x00\n      dup7\n      gas\n      call\n      swap2\n      pop\n      pop\n      returndatasize\n      dup1\n      0x00\n      dup2\n      eq\n      tag_56\n      jumpi\n      mload(0x40)\n      swap2\n      pop\n      and(add(returndatasize, 0x3f), not(0x1f))\n      dup3\n      add\n      0x40\n      mstore\n      returndatasize\n      dup3\n      mstore\n      returndatasize\n      0x00\n      0x20\n      dup5\n      add\n      returndatacopy\n      jump(tag_55)\n    tag_56:\n      0x60\n      swap2\n      pop\n    tag_55:\n      pop\n        /* \"contracts/callCon.sol\":1398:1494  (bool success, ) = add.call(... */\n      pop\n      swap1\n      pop\n        /* \"contracts/callCon.sol\":1388:1526  {... */\n      pop\n        /* \"contracts/callCon.sol\":1329:1526  function callTargetFun3(address add, uint256 num) external {... */\n      pop\n      pop\n      jump\t// out\n        /* \"contracts/callCon.sol\":678:945  function callTargetFun2(address addr) external returns (uint256) {... */\n    tag_24:\n        /* \"contracts/callCon.sol\":734:741  uint256 */\n      0x00\n        /* \"contracts/callCon.sol\":754:766  bool success */\n      dup1\n        /* \"contracts/callCon.sol\":768:785  bytes memory data */\n      0x00\n        /* \"contracts/callCon.sol\":789:793  addr */\n      dup4\n        /* \"contracts/callCon.sol\":789:798  addr.call */\n      0xffffffffffffffffffffffffffffffffffffffff\n      and\n        /* \"contracts/callCon.sol\":812:845  abi.encodeWithSignature(\"getX()\") */\n      add(0x24, mload(0x40))\n      mload(0x40)\n      0x20\n      dup2\n      dup4\n      sub\n      sub\n      dup2\n      mstore\n      swap1\n      0x40\n      mstore\n      and(not(0xffffffffffffffffffffffffffffffffffffffffffffffffffffffff), 0x5197c7aa00000000000000000000000000000000000000000000000000000000)\n      0x20\n      dup3\n      add\n      dup1\n      mload\n      0xffffffffffffffffffffffffffffffffffffffffffffffffffffffff\n      dup4\n      dup2\n      dup4\n      and\n      or\n      dup4\n      mstore\n      pop\n      pop\n      pop\n      pop\n        /* \"contracts/callCon.sol\":789:855  addr.call(... */\n      mload(0x40)\n      tag_59\n      swap2\n      swap1\n      tag_33\n      jump\t// in\n    tag_59:\n      0x00\n      mload(0x40)\n      dup1\n      dup4\n      sub\n      dup2\n      0x00\n      dup7\n      gas\n      call\n      swap2\n      pop\n      pop\n      returndatasize\n      dup1\n      0x00\n      dup2\n      eq\n      tag_62\n      jumpi\n      mload(0x40)\n      swap2\n      pop\n      and(add(returndatasize, 0x3f), not(0x1f))\n      dup3\n      add\n      0x40\n      mstore\n      returndatasize\n      dup3\n      mstore\n      returndatasize\n      0x00\n      0x20\n      dup5\n      add\n      returndatacopy\n      jump(tag_61)\n    tag_62:\n      0x60\n      swap2\n      pop\n    tag_61:\n      pop\n        /* \"contracts/callCon.sol\":753:855  (bool success, bytes memory data) = addr.call(... */\n      swap2\n      pop\n      swap2\n      pop\n        /* \"contracts/callCon.sol\":871:894  Response(success, data) */\n      0x13848c3e38f8886f3f5d2ad9dff80d8092c2bbb8efd5b887a99c2c6cfc09ac2a\n        /* \"contracts/callCon.sol\":880:887  success */\n      dup3\n        /* \"contracts/callCon.sol\":889:893  data */\n      dup3\n        /* \"contracts/callCon.sol\":871:894  Response(success, data) */\n      mload(0x40)\n      tag_63\n      swap3\n      swap2\n      swap1\n      tag_38\n      jump\t// in\n    tag_63:\n      mload(0x40)\n      dup1\n      swap2\n      sub\n      swap1\n      log1\n        /* \"contracts/callCon.sol\":922:926  data */\n      dup1\n        /* \"contracts/callCon.sol\":911:938  abi.decode(data, (uint256)) */\n      dup1\n      0x20\n      add\n      swap1\n      mload\n      dup2\n      add\n      swap1\n      tag_64\n      swap2\n      swap1\n      tag_65\n      jump\t// in\n    tag_64:\n        /* \"contracts/callCon.sol\":904:938  return abi.decode(data, (uint256)) */\n      swap3\n      pop\n      pop\n      pop\n        /* \"contracts/callCon.sol\":678:945  function callTargetFun2(address addr) external returns (uint256) {... */\n      swap2\n      swap1\n      pop\n      jump\t// out\n        /* \"contracts/callCon.sol\":424:672  function callTargetFun(address payable addr, uint256 amount)... */\n    tag_30:\n        /* \"contracts/callCon.sol\":531:543  bool success */\n      0x00\n        /* \"contracts/callCon.sol\":545:562  bytes memory data */\n      dup1\n        /* \"contracts/callCon.sol\":566:570  addr */\n      dup4\n        /* \"contracts/callCon.sol\":566:575  addr.call */\n      0xffffffffffffffffffffffffffffffffffffffff\n      and\n        /* \"contracts/callCon.sol\":583:592  msg.value */\n      callvalue\n        /* \"contracts/callCon.sol\":648:654  amount */\n      dup5\n        /* \"contracts/callCon.sol\":607:655  abi.encodeWithSignature(\"setX(uint256)\", amount) */\n      add(0x24, mload(0x40))\n      tag_67\n      swap2\n      swap1\n      tag_26\n      jump\t// in\n    tag_67:\n      mload(0x40)\n      0x20\n      dup2\n      dup4\n      sub\n      sub\n      dup2\n      mstore\n      swap1\n      0x40\n      mstore\n      and(not(0xffffffffffffffffffffffffffffffffffffffffffffffffffffffff), 0x4018d9aa00000000000000000000000000000000000000000000000000000000)\n      0x20\n      dup3\n      add\n      dup1\n      mload\n      0xffffffffffffffffffffffffffffffffffffffffffffffffffffffff\n      dup4\n      dup2\n      dup4\n      and\n      or\n      dup4\n      mstore\n      pop\n      pop\n      pop\n      pop\n        /* \"contracts/callCon.sol\":566:665  addr.call{value: msg.value}(... */\n      mload(0x40)\n      tag_68\n      swap2\n      swap1\n      tag_33\n      jump\t// in\n    tag_68:\n      0x00\n      mload(0x40)\n      dup1\n      dup4\n      sub\n      dup2\n      dup6\n      dup8\n      gas\n      call\n      swap3\n      pop\n      pop\n      pop\n      returndatasize\n      dup1\n      0x00\n      dup2\n      eq\n      tag_71\n      jumpi\n      mload(0x40)\n      swap2\n      pop\n      and(add(returndatasize, 0x3f), not(0x1f))\n      dup3\n      add\n      0x40\n      mstore\n      returndatasize\n      dup3\n      mstore\n      returndatasize\n      0x00\n      0x20\n      dup5\n      add\n      returndatacopy\n      jump(tag_70)\n    tag_71:\n      0x60\n      swap2\n      pop\n    tag_70:\n      pop\n        /* \"contracts/callCon.sol\":530:665  (bool success, bytes memory data) = addr.call{value: msg.value}(... */\n      swap2\n      pop\n      swap2\n      pop\n        /* \"contracts/callCon.sol\":520:672  {... */\n      pop\n      pop\n        /* \"contracts/callCon.sol\":424:672  function callTargetFun(address payable addr, uint256 amount)... */\n      pop\n      pop\n      jump\t// out\n        /* \"#utility.yul\":88:205   */\n    tag_73:\n        /* \"#utility.yul\":197:198   */\n      0x00\n        /* \"#utility.yul\":194:195   */\n      dup1\n        /* \"#utility.yul\":187:199   */\n      revert\n        /* \"#utility.yul\":334:460   */\n    tag_75:\n        /* \"#utility.yul\":371:378   */\n      0x00\n        /* \"#utility.yul\":411:453   */\n      0xffffffffffffffffffffffffffffffffffffffff\n        /* \"#utility.yul\":404:409   */\n      dup3\n        /* \"#utility.yul\":400:454   */\n      and\n        /* \"#utility.yul\":389:454   */\n      swap1\n      pop\n        /* \"#utility.yul\":334:460   */\n      swap2\n      swap1\n      pop\n      jump\t// out\n        /* \"#utility.yul\":466:562   */\n    tag_76:\n        /* \"#utility.yul\":503:510   */\n      0x00\n        /* \"#utility.yul\":532:556   */\n      tag_107\n        /* \"#utility.yul\":550:555   */\n      dup3\n        /* \"#utility.yul\":532:556   */\n      tag_75\n      jump\t// in\n    tag_107:\n        /* \"#utility.yul\":521:556   */\n      swap1\n      pop\n        /* \"#utility.yul\":466:562   */\n      swap2\n      swap1\n      pop\n      jump\t// out\n        /* \"#utility.yul\":568:690   */\n    tag_77:\n        /* \"#utility.yul\":641:665   */\n      tag_109\n        /* \"#utility.yul\":659:664   */\n      dup2\n        /* \"#utility.yul\":641:665   */\n      tag_76\n      jump\t// in\n    tag_109:\n        /* \"#utility.yul\":634:639   */\n      dup2\n        /* \"#utility.yul\":631:666   */\n      eq\n        /* \"#utility.yul\":621:684   */\n      tag_110\n      jumpi\n        /* \"#utility.yul\":680:681   */\n      0x00\n        /* \"#utility.yul\":677:678   */\n      dup1\n        /* \"#utility.yul\":670:682   */\n      revert\n        /* \"#utility.yul\":621:684   */\n    tag_110:\n        /* \"#utility.yul\":568:690   */\n      pop\n      jump\t// out\n        /* \"#utility.yul\":696:835   */\n    tag_78:\n        /* \"#utility.yul\":742:747   */\n      0x00\n        /* \"#utility.yul\":780:786   */\n      dup2\n        /* \"#utility.yul\":767:787   */\n      calldataload\n        /* \"#utility.yul\":758:787   */\n      swap1\n      pop\n        /* \"#utility.yul\":796:829   */\n      tag_112\n        /* \"#utility.yul\":823:828   */\n      dup2\n        /* \"#utility.yul\":796:829   */\n      tag_77\n      jump\t// in\n    tag_112:\n        /* \"#utility.yul\":696:835   */\n      swap3\n      swap2\n      pop\n      pop\n      jump\t// out\n        /* \"#utility.yul\":841:1170   */\n    tag_10:\n        /* \"#utility.yul\":900:906   */\n      0x00\n        /* \"#utility.yul\":949:951   */\n      0x20\n        /* \"#utility.yul\":937:946   */\n      dup3\n        /* \"#utility.yul\":928:935   */\n      dup5\n        /* \"#utility.yul\":924:947   */\n      sub\n        /* \"#utility.yul\":920:952   */\n      slt\n        /* \"#utility.yul\":917:1036   */\n      iszero\n      tag_114\n      jumpi\n        /* \"#utility.yul\":955:1034   */\n      tag_115\n      tag_73\n      jump\t// in\n    tag_115:\n        /* \"#utility.yul\":917:1036   */\n    tag_114:\n        /* \"#utility.yul\":1075:1076   */\n      0x00\n        /* \"#utility.yul\":1100:1153   */\n      tag_116\n        /* \"#utility.yul\":1145:1152   */\n      dup5\n        /* \"#utility.yul\":1136:1142   */\n      dup3\n        /* \"#utility.yul\":1125:1134   */\n      dup6\n        /* \"#utility.yul\":1121:1143   */\n      add\n        /* \"#utility.yul\":1100:1153   */\n      tag_78\n      jump\t// in\n    tag_116:\n        /* \"#utility.yul\":1090:1153   */\n      swap2\n      pop\n        /* \"#utility.yul\":1046:1163   */\n      pop\n        /* \"#utility.yul\":841:1170   */\n      swap3\n      swap2\n      pop\n      pop\n      jump\t// out\n        /* \"#utility.yul\":1176:1280   */\n    tag_79:\n        /* \"#utility.yul\":1221:1228   */\n      0x00\n        /* \"#utility.yul\":1250:1274   */\n      tag_118\n        /* \"#utility.yul\":1268:1273   */\n      dup3\n        /* \"#utility.yul\":1250:1274   */\n      tag_75\n      jump\t// in\n    tag_118:\n        /* \"#utility.yul\":1239:1274   */\n      swap1\n      pop\n        /* \"#utility.yul\":1176:1280   */\n      swap2\n      swap1\n      pop\n      jump\t// out\n        /* \"#utility.yul\":1286:1424   */\n    tag_80:\n        /* \"#utility.yul\":1367:1399   */\n      tag_120\n        /* \"#utility.yul\":1393:1398   */\n      dup2\n        /* \"#utility.yul\":1367:1399   */\n      tag_79\n      jump\t// in\n    tag_120:\n        /* \"#utility.yul\":1360:1365   */\n      dup2\n        /* \"#utility.yul\":1357:1400   */\n      eq\n        /* \"#utility.yul\":1347:1418   */\n      tag_121\n      jumpi\n        /* \"#utility.yul\":1414:1415   */\n      0x00\n        /* \"#utility.yul\":1411:1412   */\n      dup1\n        /* \"#utility.yul\":1404:1416   */\n      revert\n        /* \"#utility.yul\":1347:1418   */\n    tag_121:\n        /* \"#utility.yul\":1286:1424   */\n      pop\n      jump\t// out\n        /* \"#utility.yul\":1430:1585   */\n    tag_81:\n        /* \"#utility.yul\":1484:1489   */\n      0x00\n        /* \"#utility.yul\":1522:1528   */\n      dup2\n        /* \"#utility.yul\":1509:1529   */\n      calldataload\n        /* \"#utility.yul\":1500:1529   */\n      swap1\n      pop\n        /* \"#utility.yul\":1538:1579   */\n      tag_123\n        /* \"#utility.yul\":1573:1578   */\n      dup2\n        /* \"#utility.yul\":1538:1579   */\n      tag_80\n      jump\t// in\n    tag_123:\n        /* \"#utility.yul\":1430:1585   */\n      swap3\n      swap2\n      pop\n      pop\n      jump\t// out\n        /* \"#utility.yul\":1591:1936   */\n    tag_14:\n        /* \"#utility.yul\":1658:1664   */\n      0x00\n        /* \"#utility.yul\":1707:1709   */\n      0x20\n        /* \"#utility.yul\":1695:1704   */\n      dup3\n        /* \"#utility.yul\":1686:1693   */\n      dup5\n        /* \"#utility.yul\":1682:1705   */\n      sub\n        /* \"#utility.yul\":1678:1710   */\n      slt\n        /* \"#utility.yul\":1675:1794   */\n      iszero\n      tag_125\n      jumpi\n        /* \"#utility.yul\":1713:1792   */\n      tag_126\n      tag_73\n      jump\t// in\n    tag_126:\n        /* \"#utility.yul\":1675:1794   */\n    tag_125:\n        /* \"#utility.yul\":1833:1834   */\n      0x00\n        /* \"#utility.yul\":1858:1919   */\n      tag_127\n        /* \"#utility.yul\":1911:1918   */\n      dup5\n        /* \"#utility.yul\":1902:1908   */\n      dup3\n        /* \"#utility.yul\":1891:1900   */\n      dup6\n        /* \"#utility.yul\":1887:1909   */\n      add\n        /* \"#utility.yul\":1858:1919   */\n      tag_81\n      jump\t// in\n    tag_127:\n        /* \"#utility.yul\":1848:1919   */\n      swap2\n      pop\n        /* \"#utility.yul\":1804:1929   */\n      pop\n        /* \"#utility.yul\":1591:1936   */\n      swap3\n      swap2\n      pop\n      pop\n      jump\t// out\n        /* \"#utility.yul\":1942:2019   */\n    tag_82:\n        /* \"#utility.yul\":1979:1986   */\n      0x00\n        /* \"#utility.yul\":2008:2013   */\n      dup2\n        /* \"#utility.yul\":1997:2013   */\n      swap1\n      pop\n        /* \"#utility.yul\":1942:2019   */\n      swap2\n      swap1\n      pop\n      jump\t// out\n        /* \"#utility.yul\":2025:2147   */\n    tag_83:\n        /* \"#utility.yul\":2098:2122   */\n      tag_130\n        /* \"#utility.yul\":2116:2121   */\n      dup2\n        /* \"#utility.yul\":2098:2122   */\n      tag_82\n      jump\t// in\n    tag_130:\n        /* \"#utility.yul\":2091:2096   */\n      dup2\n        /* \"#utility.yul\":2088:2123   */\n      eq\n        /* \"#utility.yul\":2078:2141   */\n      tag_131\n      jumpi\n        /* \"#utility.yul\":2137:2138   */\n      0x00\n        /* \"#utility.yul\":2134:2135   */\n      dup1\n        /* \"#utility.yul\":2127:2139   */\n      revert\n        /* \"#utility.yul\":2078:2141   */\n    tag_131:\n        /* \"#utility.yul\":2025:2147   */\n      pop\n      jump\t// out\n        /* \"#utility.yul\":2153:2292   */\n    tag_84:\n        /* \"#utility.yul\":2199:2204   */\n      0x00\n        /* \"#utility.yul\":2237:2243   */\n      dup2\n        /* \"#utility.yul\":2224:2244   */\n      calldataload\n        /* \"#utility.yul\":2215:2244   */\n      swap1\n      pop\n        /* \"#utility.yul\":2253:2286   */\n      tag_133\n        /* \"#utility.yul\":2280:2285   */\n      dup2\n        /* \"#utility.yul\":2253:2286   */\n      tag_83\n      jump\t// in\n    tag_133:\n        /* \"#utility.yul\":2153:2292   */\n      swap3\n      swap2\n      pop\n      pop\n      jump\t// out\n        /* \"#utility.yul\":2298:2772   */\n    tag_19:\n        /* \"#utility.yul\":2366:2372   */\n      0x00\n        /* \"#utility.yul\":2374:2380   */\n      dup1\n        /* \"#utility.yul\":2423:2425   */\n      0x40\n        /* \"#utility.yul\":2411:2420   */\n      dup4\n        /* \"#utility.yul\":2402:2409   */\n      dup6\n        /* \"#utility.yul\":2398:2421   */\n      sub\n        /* \"#utility.yul\":2394:2426   */\n      slt\n        /* \"#utility.yul\":2391:2510   */\n      iszero\n      tag_135\n      jumpi\n        /* \"#utility.yul\":2429:2508   */\n      tag_136\n      tag_73\n      jump\t// in\n    tag_136:\n        /* \"#utility.yul\":2391:2510   */\n    tag_135:\n        /* \"#utility.yul\":2549:2550   */\n      0x00\n        /* \"#utility.yul\":2574:2627   */\n      tag_137\n        /* \"#utility.yul\":2619:2626   */\n      dup6\n        /* \"#utility.yul\":2610:2616   */\n      dup3\n        /* \"#utility.yul\":2599:2608   */\n      dup7\n        /* \"#utility.yul\":2595:2617   */\n      add\n        /* \"#utility.yul\":2574:2627   */\n      tag_78\n      jump\t// in\n    tag_137:\n        /* \"#utility.yul\":2564:2627   */\n      swap3\n      pop\n        /* \"#utility.yul\":2520:2637   */\n      pop\n        /* \"#utility.yul\":2676:2678   */\n      0x20\n        /* \"#utility.yul\":2702:2755   */\n      tag_138\n        /* \"#utility.yul\":2747:2754   */\n      dup6\n        /* \"#utility.yul\":2738:2744   */\n      dup3\n        /* \"#utility.yul\":2727:2736   */\n      dup7\n        /* \"#utility.yul\":2723:2745   */\n      add\n        /* \"#utility.yul\":2702:2755   */\n      tag_84\n      jump\t// in\n    tag_138:\n        /* \"#utility.yul\":2692:2755   */\n      swap2\n      pop\n        /* \"#utility.yul\":2647:2765   */\n      pop\n        /* \"#utility.yul\":2298:2772   */\n      swap3\n      pop\n      swap3\n      swap1\n      pop\n      jump\t// out\n        /* \"#utility.yul\":2778:2896   */\n    tag_85:\n        /* \"#utility.yul\":2865:2889   */\n      tag_140\n        /* \"#utility.yul\":2883:2888   */\n      dup2\n        /* \"#utility.yul\":2865:2889   */\n      tag_82\n      jump\t// in\n    tag_140:\n        /* \"#utility.yul\":2860:2863   */\n      dup3\n        /* \"#utility.yul\":2853:2890   */\n      mstore\n        /* \"#utility.yul\":2778:2896   */\n      pop\n      pop\n      jump\t// out\n        /* \"#utility.yul\":2902:3124   */\n    tag_26:\n        /* \"#utility.yul\":2995:2999   */\n      0x00\n        /* \"#utility.yul\":3033:3035   */\n      0x20\n        /* \"#utility.yul\":3022:3031   */\n      dup3\n        /* \"#utility.yul\":3018:3036   */\n      add\n        /* \"#utility.yul\":3010:3036   */\n      swap1\n      pop\n        /* \"#utility.yul\":3046:3117   */\n      tag_142\n        /* \"#utility.yul\":3114:3115   */\n      0x00\n        /* \"#utility.yul\":3103:3112   */\n      dup4\n        /* \"#utility.yul\":3099:3116   */\n      add\n        /* \"#utility.yul\":3090:3096   */\n      dup5\n        /* \"#utility.yul\":3046:3117   */\n      tag_85\n      jump\t// in\n    tag_142:\n        /* \"#utility.yul\":2902:3124   */\n      swap3\n      swap2\n      pop\n      pop\n      jump\t// out\n        /* \"#utility.yul\":3130:3620   */\n    tag_29:\n        /* \"#utility.yul\":3206:3212   */\n      0x00\n        /* \"#utility.yul\":3214:3220   */\n      dup1\n        /* \"#utility.yul\":3263:3265   */\n      0x40\n        /* \"#utility.yul\":3251:3260   */\n      dup4\n        /* \"#utility.yul\":3242:3249   */\n      dup6\n        /* \"#utility.yul\":3238:3261   */\n      sub\n        /* \"#utility.yul\":3234:3266   */\n      slt\n        /* \"#utility.yul\":3231:3350   */\n      iszero\n      tag_144\n      jumpi\n        /* \"#utility.yul\":3269:3348   */\n      tag_145\n      tag_73\n      jump\t// in\n    tag_145:\n        /* \"#utility.yul\":3231:3350   */\n    tag_144:\n        /* \"#utility.yul\":3389:3390   */\n      0x00\n        /* \"#utility.yul\":3414:3475   */\n      tag_146\n        /* \"#utility.yul\":3467:3474   */\n      dup6\n        /* \"#utility.yul\":3458:3464   */\n      dup3\n        /* \"#utility.yul\":3447:3456   */\n      dup7\n        /* \"#utility.yul\":3443:3465   */\n      add\n        /* \"#utility.yul\":3414:3475   */\n      tag_81\n      jump\t// in\n    tag_146:\n        /* \"#utility.yul\":3404:3475   */\n      swap3\n      pop\n        /* \"#utility.yul\":3360:3485   */\n      pop\n        /* \"#utility.yul\":3524:3526   */\n      0x20\n        /* \"#utility.yul\":3550:3603   */\n      tag_147\n        /* \"#utility.yul\":3595:3602   */\n      dup6\n        /* \"#utility.yul\":3586:3592   */\n      dup3\n        /* \"#utility.yul\":3575:3584   */\n      dup7\n        /* \"#utility.yul\":3571:3593   */\n      add\n        /* \"#utility.yul\":3550:3603   */\n      tag_84\n      jump\t// in\n    tag_147:\n        /* \"#utility.yul\":3540:3603   */\n      swap2\n      pop\n        /* \"#utility.yul\":3495:3613   */\n      pop\n        /* \"#utility.yul\":3130:3620   */\n      swap3\n      pop\n      swap3\n      swap1\n      pop\n      jump\t// out\n        /* \"#utility.yul\":3626:3724   */\n    tag_86:\n        /* \"#utility.yul\":3677:3683   */\n      0x00\n        /* \"#utility.yul\":3711:3716   */\n      dup2\n        /* \"#utility.yul\":3705:3717   */\n      mload\n        /* \"#utility.yul\":3695:3717   */\n      swap1\n      pop\n        /* \"#utility.yul\":3626:3724   */\n      swap2\n      swap1\n      pop\n      jump\t// out\n        /* \"#utility.yul\":3730:3877   */\n    tag_87:\n        /* \"#utility.yul\":3831:3842   */\n      0x00\n        /* \"#utility.yul\":3868:3871   */\n      dup2\n        /* \"#utility.yul\":3853:3871   */\n      swap1\n      pop\n        /* \"#utility.yul\":3730:3877   */\n      swap3\n      swap2\n      pop\n      pop\n      jump\t// out\n        /* \"#utility.yul\":3883:4129   */\n    tag_88:\n        /* \"#utility.yul\":3964:3965   */\n      0x00\n        /* \"#utility.yul\":3974:4087   */\n    tag_151:\n        /* \"#utility.yul\":3988:3994   */\n      dup4\n        /* \"#utility.yul\":3985:3986   */\n      dup2\n        /* \"#utility.yul\":3982:3995   */\n      lt\n        /* \"#utility.yul\":3974:4087   */\n      iszero\n      tag_153\n      jumpi\n        /* \"#utility.yul\":4073:4074   */\n      dup1\n        /* \"#utility.yul\":4068:4071   */\n      dup3\n        /* \"#utility.yul\":4064:4075   */\n      add\n        /* \"#utility.yul\":4058:4076   */\n      mload\n        /* \"#utility.yul\":4054:4055   */\n      dup2\n        /* \"#utility.yul\":4049:4052   */\n      dup5\n        /* \"#utility.yul\":4045:4056   */\n      add\n        /* \"#utility.yul\":4038:4077   */\n      mstore\n        /* \"#utility.yul\":4010:4012   */\n      0x20\n        /* \"#utility.yul\":4007:4008   */\n      dup2\n        /* \"#utility.yul\":4003:4013   */\n      add\n        /* \"#utility.yul\":3998:4013   */\n      swap1\n      pop\n        /* \"#utility.yul\":3974:4087   */\n      jump(tag_151)\n    tag_153:\n        /* \"#utility.yul\":4121:4122   */\n      0x00\n        /* \"#utility.yul\":4112:4118   */\n      dup5\n        /* \"#utility.yul\":4107:4110   */\n      dup5\n        /* \"#utility.yul\":4103:4119   */\n      add\n        /* \"#utility.yul\":4096:4123   */\n      mstore\n        /* \"#utility.yul\":3945:4129   */\n      pop\n        /* \"#utility.yul\":3883:4129   */\n      pop\n      pop\n      pop\n      jump\t// out\n        /* \"#utility.yul\":4135:4521   */\n    tag_89:\n        /* \"#utility.yul\":4239:4242   */\n      0x00\n        /* \"#utility.yul\":4267:4305   */\n      tag_155\n        /* \"#utility.yul\":4299:4304   */\n      dup3\n        /* \"#utility.yul\":4267:4305   */\n      tag_86\n      jump\t// in\n    tag_155:\n        /* \"#utility.yul\":4321:4409   */\n      tag_156\n        /* \"#utility.yul\":4402:4408   */\n      dup2\n        /* \"#utility.yul\":4397:4400   */\n      dup6\n        /* \"#utility.yul\":4321:4409   */\n      tag_87\n      jump\t// in\n    tag_156:\n        /* \"#utility.yul\":4314:4409   */\n      swap4\n      pop\n        /* \"#utility.yul\":4418:4483   */\n      tag_157\n        /* \"#utility.yul\":4476:4482   */\n      dup2\n        /* \"#utility.yul\":4471:4474   */\n      dup6\n        /* \"#utility.yul\":4464:4468   */\n      0x20\n        /* \"#utility.yul\":4457:4462   */\n      dup7\n        /* \"#utility.yul\":4453:4469   */\n      add\n        /* \"#utility.yul\":4418:4483   */\n      tag_88\n      jump\t// in\n    tag_157:\n        /* \"#utility.yul\":4508:4514   */\n      dup1\n        /* \"#utility.yul\":4503:4506   */\n      dup5\n        /* \"#utility.yul\":4499:4515   */\n      add\n        /* \"#utility.yul\":4492:4515   */\n      swap2\n      pop\n        /* \"#utility.yul\":4243:4521   */\n      pop\n        /* \"#utility.yul\":4135:4521   */\n      swap3\n      swap2\n      pop\n      pop\n      jump\t// out\n        /* \"#utility.yul\":4527:4798   */\n    tag_33:\n        /* \"#utility.yul\":4657:4660   */\n      0x00\n        /* \"#utility.yul\":4679:4772   */\n      tag_159\n        /* \"#utility.yul\":4768:4771   */\n      dup3\n        /* \"#utility.yul\":4759:4765   */\n      dup5\n        /* \"#utility.yul\":4679:4772   */\n      tag_89\n      jump\t// in\n    tag_159:\n        /* \"#utility.yul\":4672:4772   */\n      swap2\n      pop\n        /* \"#utility.yul\":4789:4792   */\n      dup2\n        /* \"#utility.yul\":4782:4792   */\n      swap1\n      pop\n        /* \"#utility.yul\":4527:4798   */\n      swap3\n      swap2\n      pop\n      pop\n      jump\t// out\n        /* \"#utility.yul\":4804:4894   */\n    tag_90:\n        /* \"#utility.yul\":4838:4845   */\n      0x00\n        /* \"#utility.yul\":4881:4886   */\n      dup2\n        /* \"#utility.yul\":4874:4887   */\n      iszero\n        /* \"#utility.yul\":4867:4888   */\n      iszero\n        /* \"#utility.yul\":4856:4888   */\n      swap1\n      pop\n        /* \"#utility.yul\":4804:4894   */\n      swap2\n      swap1\n      pop\n      jump\t// out\n        /* \"#utility.yul\":4900:5009   */\n    tag_91:\n        /* \"#utility.yul\":4981:5002   */\n      tag_162\n        /* \"#utility.yul\":4996:5001   */\n      dup2\n        /* \"#utility.yul\":4981:5002   */\n      tag_90\n      jump\t// in\n    tag_162:\n        /* \"#utility.yul\":4976:4979   */\n      dup3\n        /* \"#utility.yul\":4969:5003   */\n      mstore\n        /* \"#utility.yul\":4900:5009   */\n      pop\n      pop\n      jump\t// out\n        /* \"#utility.yul\":5015:5183   */\n    tag_92:\n        /* \"#utility.yul\":5098:5109   */\n      0x00\n        /* \"#utility.yul\":5132:5138   */\n      dup3\n        /* \"#utility.yul\":5127:5130   */\n      dup3\n        /* \"#utility.yul\":5120:5139   */\n      mstore\n        /* \"#utility.yul\":5172:5176   */\n      0x20\n        /* \"#utility.yul\":5167:5170   */\n      dup3\n        /* \"#utility.yul\":5163:5177   */\n      add\n        /* \"#utility.yul\":5148:5177   */\n      swap1\n      pop\n        /* \"#utility.yul\":5015:5183   */\n      swap3\n      swap2\n      pop\n      pop\n      jump\t// out\n        /* \"#utility.yul\":5189:5291   */\n    tag_93:\n        /* \"#utility.yul\":5230:5236   */\n      0x00\n        /* \"#utility.yul\":5281:5283   */\n      0x1f\n        /* \"#utility.yul\":5277:5284   */\n      not\n        /* \"#utility.yul\":5272:5274   */\n      0x1f\n        /* \"#utility.yul\":5265:5270   */\n      dup4\n        /* \"#utility.yul\":5261:5275   */\n      add\n        /* \"#utility.yul\":5257:5285   */\n      and\n        /* \"#utility.yul\":5247:5285   */\n      swap1\n      pop\n        /* \"#utility.yul\":5189:5291   */\n      swap2\n      swap1\n      pop\n      jump\t// out\n        /* \"#utility.yul\":5297:5670   */\n    tag_94:\n        /* \"#utility.yul\":5383:5386   */\n      0x00\n        /* \"#utility.yul\":5411:5449   */\n      tag_166\n        /* \"#utility.yul\":5443:5448   */\n      dup3\n        /* \"#utility.yul\":5411:5449   */\n      tag_86\n      jump\t// in\n    tag_166:\n        /* \"#utility.yul\":5465:5535   */\n      tag_167\n        /* \"#utility.yul\":5528:5534   */\n      dup2\n        /* \"#utility.yul\":5523:5526   */\n      dup6\n        /* \"#utility.yul\":5465:5535   */\n      tag_92\n      jump\t// in\n    tag_167:\n        /* \"#utility.yul\":5458:5535   */\n      swap4\n      pop\n        /* \"#utility.yul\":5544:5609   */\n      tag_168\n        /* \"#utility.yul\":5602:5608   */\n      dup2\n        /* \"#utility.yul\":5597:5600   */\n      dup6\n        /* \"#utility.yul\":5590:5594   */\n      0x20\n        /* \"#utility.yul\":5583:5588   */\n      dup7\n        /* \"#utility.yul\":5579:5595   */\n      add\n        /* \"#utility.yul\":5544:5609   */\n      tag_88\n      jump\t// in\n    tag_168:\n        /* \"#utility.yul\":5634:5663   */\n      tag_169\n        /* \"#utility.yul\":5656:5662   */\n      dup2\n        /* \"#utility.yul\":5634:5663   */\n      tag_93\n      jump\t// in\n    tag_169:\n        /* \"#utility.yul\":5629:5632   */\n      dup5\n        /* \"#utility.yul\":5625:5664   */\n      add\n        /* \"#utility.yul\":5618:5664   */\n      swap2\n      pop\n        /* \"#utility.yul\":5387:5670   */\n      pop\n        /* \"#utility.yul\":5297:5670   */\n      swap3\n      swap2\n      pop\n      pop\n      jump\t// out\n        /* \"#utility.yul\":5676:6083   */\n    tag_38:\n        /* \"#utility.yul\":5809:5813   */\n      0x00\n        /* \"#utility.yul\":5847:5849   */\n      0x40\n        /* \"#utility.yul\":5836:5845   */\n      dup3\n        /* \"#utility.yul\":5832:5850   */\n      add\n        /* \"#utility.yul\":5824:5850   */\n      swap1\n      pop\n        /* \"#utility.yul\":5860:5925   */\n      tag_171\n        /* \"#utility.yul\":5922:5923   */\n      0x00\n        /* \"#utility.yul\":5911:5920   */\n      dup4\n        /* \"#utility.yul\":5907:5924   */\n      add\n        /* \"#utility.yul\":5898:5904   */\n      dup6\n        /* \"#utility.yul\":5860:5925   */\n      tag_91\n      jump\t// in\n    tag_171:\n        /* \"#utility.yul\":5972:5981   */\n      dup2\n        /* \"#utility.yul\":5966:5970   */\n      dup2\n        /* \"#utility.yul\":5962:5982   */\n      sub\n        /* \"#utility.yul\":5957:5959   */\n      0x20\n        /* \"#utility.yul\":5946:5955   */\n      dup4\n        /* \"#utility.yul\":5942:5960   */\n      add\n        /* \"#utility.yul\":5935:5983   */\n      mstore\n        /* \"#utility.yul\":6000:6076   */\n      tag_172\n        /* \"#utility.yul\":6071:6075   */\n      dup2\n        /* \"#utility.yul\":6062:6068   */\n      dup5\n        /* \"#utility.yul\":6000:6076   */\n      tag_94\n      jump\t// in\n    tag_172:\n        /* \"#utility.yul\":5992:6076   */\n      swap1\n      pop\n        /* \"#utility.yul\":5676:6083   */\n      swap4\n      swap3\n      pop\n      pop\n      pop\n      jump\t// out\n        /* \"#utility.yul\":6089:6203   */\n    tag_95:\n      pop\n      jump\t// out\n        /* \"#utility.yul\":6209:6607   */\n    tag_96:\n        /* \"#utility.yul\":6368:6371   */\n      0x00\n        /* \"#utility.yul\":6389:6472   */\n      tag_175\n        /* \"#utility.yul\":6470:6471   */\n      0x00\n        /* \"#utility.yul\":6465:6468   */\n      dup4\n        /* \"#utility.yul\":6389:6472   */\n      tag_87\n      jump\t// in\n    tag_175:\n        /* \"#utility.yul\":6382:6472   */\n      swap2\n      pop\n        /* \"#utility.yul\":6481:6574   */\n      tag_176\n        /* \"#utility.yul\":6570:6573   */\n      dup3\n        /* \"#utility.yul\":6481:6574   */\n      tag_95\n      jump\t// in\n    tag_176:\n        /* \"#utility.yul\":6599:6600   */\n      0x00\n        /* \"#utility.yul\":6594:6597   */\n      dup3\n        /* \"#utility.yul\":6590:6601   */\n      add\n        /* \"#utility.yul\":6583:6601   */\n      swap1\n      pop\n        /* \"#utility.yul\":6209:6607   */\n      swap2\n      swap1\n      pop\n      jump\t// out\n        /* \"#utility.yul\":6613:6992   */\n    tag_41:\n        /* \"#utility.yul\":6797:6800   */\n      0x00\n        /* \"#utility.yul\":6819:6966   */\n      tag_178\n        /* \"#utility.yul\":6962:6965   */\n      dup3\n        /* \"#utility.yul\":6819:6966   */\n      tag_96\n      jump\t// in\n    tag_178:\n        /* \"#utility.yul\":6812:6966   */\n      swap2\n      pop\n        /* \"#utility.yul\":6983:6986   */\n      dup2\n        /* \"#utility.yul\":6976:6986   */\n      swap1\n      pop\n        /* \"#utility.yul\":6613:6992   */\n      swap2\n      swap1\n      pop\n      jump\t// out\n        /* \"#utility.yul\":6998:7167   */\n    tag_97:\n        /* \"#utility.yul\":7082:7093   */\n      0x00\n        /* \"#utility.yul\":7116:7122   */\n      dup3\n        /* \"#utility.yul\":7111:7114   */\n      dup3\n        /* \"#utility.yul\":7104:7123   */\n      mstore\n        /* \"#utility.yul\":7156:7160   */\n      0x20\n        /* \"#utility.yul\":7151:7154   */\n      dup3\n        /* \"#utility.yul\":7147:7161   */\n      add\n        /* \"#utility.yul\":7132:7161   */\n      swap1\n      pop\n        /* \"#utility.yul\":6998:7167   */\n      swap3\n      swap2\n      pop\n      pop\n      jump\t// out\n        /* \"#utility.yul\":7173:7339   */\n    tag_98:\n        /* \"#utility.yul\":7313:7331   */\n      0x6572726f722d73656e64206572726f7200000000000000000000000000000000\n        /* \"#utility.yul\":7309:7310   */\n      0x00\n        /* \"#utility.yul\":7301:7307   */\n      dup3\n        /* \"#utility.yul\":7297:7311   */\n      add\n        /* \"#utility.yul\":7290:7332   */\n      mstore\n        /* \"#utility.yul\":7173:7339   */\n      pop\n      jump\t// out\n        /* \"#utility.yul\":7345:7711   */\n    tag_99:\n        /* \"#utility.yul\":7487:7490   */\n      0x00\n        /* \"#utility.yul\":7508:7575   */\n      tag_182\n        /* \"#utility.yul\":7572:7574   */\n      0x10\n        /* \"#utility.yul\":7567:7570   */\n      dup4\n        /* \"#utility.yul\":7508:7575   */\n      tag_97\n      jump\t// in\n    tag_182:\n        /* \"#utility.yul\":7501:7575   */\n      swap2\n      pop\n        /* \"#utility.yul\":7584:7677   */\n      tag_183\n        /* \"#utility.yul\":7673:7676   */\n      dup3\n        /* \"#utility.yul\":7584:7677   */\n      tag_98\n      jump\t// in\n    tag_183:\n        /* \"#utility.yul\":7702:7704   */\n      0x20\n        /* \"#utility.yul\":7697:7700   */\n      dup3\n        /* \"#utility.yul\":7693:7705   */\n      add\n        /* \"#utility.yul\":7686:7705   */\n      swap1\n      pop\n        /* \"#utility.yul\":7345:7711   */\n      swap2\n      swap1\n      pop\n      jump\t// out\n        /* \"#utility.yul\":7717:8136   */\n    tag_47:\n        /* \"#utility.yul\":7883:7887   */\n      0x00\n        /* \"#utility.yul\":7921:7923   */\n      0x20\n        /* \"#utility.yul\":7910:7919   */\n      dup3\n        /* \"#utility.yul\":7906:7924   */\n      add\n        /* \"#utility.yul\":7898:7924   */\n      swap1\n      pop\n        /* \"#utility.yul\":7970:7979   */\n      dup2\n        /* \"#utility.yul\":7964:7968   */\n      dup2\n        /* \"#utility.yul\":7960:7980   */\n      sub\n        /* \"#utility.yul\":7956:7957   */\n      0x00\n        /* \"#utility.yul\":7945:7954   */\n      dup4\n        /* \"#utility.yul\":7941:7958   */\n      add\n        /* \"#utility.yul\":7934:7981   */\n      mstore\n        /* \"#utility.yul\":7998:8129   */\n      tag_185\n        /* \"#utility.yul\":8124:8128   */\n      dup2\n        /* \"#utility.yul\":7998:8129   */\n      tag_99\n      jump\t// in\n    tag_185:\n        /* \"#utility.yul\":7990:8129   */\n      swap1\n      pop\n        /* \"#utility.yul\":7717:8136   */\n      swap2\n      swap1\n      pop\n      jump\t// out\n        /* \"#utility.yul\":8142:8285   */\n    tag_100:\n        /* \"#utility.yul\":8199:8204   */\n      0x00\n        /* \"#utility.yul\":8230:8236   */\n      dup2\n        /* \"#utility.yul\":8224:8237   */\n      mload\n        /* \"#utility.yul\":8215:8237   */\n      swap1\n      pop\n        /* \"#utility.yul\":8246:8279   */\n      tag_187\n        /* \"#utility.yul\":8273:8278   */\n      dup2\n        /* \"#utility.yul\":8246:8279   */\n      tag_83\n      jump\t// in\n    tag_187:\n        /* \"#utility.yul\":8142:8285   */\n      swap3\n      swap2\n      pop\n      pop\n      jump\t// out\n        /* \"#utility.yul\":8291:8642   */\n    tag_65:\n        /* \"#utility.yul\":8361:8367   */\n      0x00\n        /* \"#utility.yul\":8410:8412   */\n      0x20\n        /* \"#utility.yul\":8398:8407   */\n      dup3\n        /* \"#utility.yul\":8389:8396   */\n      dup5\n        /* \"#utility.yul\":8385:8408   */\n      sub\n        /* \"#utility.yul\":8381:8413   */\n      slt\n        /* \"#utility.yul\":8378:8497   */\n      iszero\n      tag_189\n      jumpi\n        /* \"#utility.yul\":8416:8495   */\n      tag_190\n      tag_73\n      jump\t// in\n    tag_190:\n        /* \"#utility.yul\":8378:8497   */\n    tag_189:\n        /* \"#utility.yul\":8536:8537   */\n      0x00\n        /* \"#utility.yul\":8561:8625   */\n      tag_191\n        /* \"#utility.yul\":8617:8624   */\n      dup5\n        /* \"#utility.yul\":8608:8614   */\n      dup3\n        /* \"#utility.yul\":8597:8606   */\n      dup6\n        /* \"#utility.yul\":8593:8615   */\n      add\n        /* \"#utility.yul\":8561:8625   */\n      tag_100\n      jump\t// in\n    tag_191:\n        /* \"#utility.yul\":8551:8625   */\n      swap2\n      pop\n        /* \"#utility.yul\":8507:8635   */\n      pop\n        /* \"#utility.yul\":8291:8642   */\n      swap3\n      swap2\n      pop\n      pop\n      jump\t// out\n\n    auxdata: 0xa2646970667358221220dce66aaea98064729b7846d9c31043564ad6f4678fbb6d1a1492fc9086ccfafd64736f6c63430008120033\n}\n",
				"bytecode": {
					"linkReferences": {},
					"object": "608060405234801561001057600080fd5b50610af2806100206000396000f3fe60806040526004361061004a5760003560e01c8063392f4fc21461004f5780634b5a53a7146100785780636b4bf2a7146100945780638d5e7d08146100bd578063d99853bf146100fa575b600080fd5b34801561005b57600080fd5b506100766004803603810190610071919061071c565b610116565b005b610092600480360381019061008d9190610787565b610245565b005b3480156100a057600080fd5b506100bb60048036038101906100b691906107ea565b61036e565b005b3480156100c957600080fd5b506100e460048036038101906100df919061071c565b61046d565b6040516100f19190610839565b60405180910390f35b610114600480360381019061010f9190610854565b6105b6565b005b6000808273ffffffffffffffffffffffffffffffffffffffff166040516024016040516020818303038152906040527f2fbebd38000000000000000000000000000000000000000000000000000000007bffffffffffffffffffffffffffffffffffffffffffffffffffffffff19166020820180517bffffffffffffffffffffffffffffffffffffffffffffffffffffffff83818316178352505050506040516101c09190610905565b6000604051808303816000865af19150503d80600081146101fd576040519150601f19603f3d011682016040523d82523d6000602084013e610202565b606091505b50915091507f13848c3e38f8886f3f5d2ad9dff80d8092c2bbb8efd5b887a99c2c6cfc09ac2a8282604051610238929190610992565b60405180910390a1505050565b6000808273ffffffffffffffffffffffffffffffffffffffff163460405161026c906109e8565b60006040518083038185875af1925050503d80600081146102a9576040519150601f19603f3d011682016040523d82523d6000602084013e6102ae565b606091505b5091509150816102f3576040517f08c379a00000000000000000000000000000000000000000000000000000000081526004016102ea90610a5a565b60405180910390fd5b8115610337577f13848c3e38f8886f3f5d2ad9dff80d8092c2bbb8efd5b887a99c2c6cfc09ac2a828260405161032a929190610992565b60405180910390a1610369565b6040517f7be827d300000000000000000000000000000000000000000000000000000000815260040160405180910390fd5b505050565b60008273ffffffffffffffffffffffffffffffffffffffff16826040516024016103989190610839565b6040516020818303038152906040527f4018d9aa000000000000000000000000000000000000000000000000000000007bffffffffffffffffffffffffffffffffffffffffffffffffffffffff19166020820180517bffffffffffffffffffffffffffffffffffffffffffffffffffffffff83818316178352505050506040516104229190610905565b6000604051808303816000865af19150503d806000811461045f576040519150601f19603f3d011682016040523d82523d6000602084013e610464565b606091505b50509050505050565b60008060008373ffffffffffffffffffffffffffffffffffffffff166040516024016040516020818303038152906040527f5197c7aa000000000000000000000000000000000000000000000000000000007bffffffffffffffffffffffffffffffffffffffffffffffffffffffff19166020820180517bffffffffffffffffffffffffffffffffffffffffffffffffffffffff83818316178352505050506040516105199190610905565b6000604051808303816000865af19150503d8060008114610556576040519150601f19603f3d011682016040523d82523d6000602084013e61055b565b606091505b50915091507f13848c3e38f8886f3f5d2ad9dff80d8092c2bbb8efd5b887a99c2c6cfc09ac2a8282604051610591929190610992565b60405180910390a1808060200190518101906105ad9190610a8f565b92505050919050565b6000808373ffffffffffffffffffffffffffffffffffffffff1634846040516024016105e29190610839565b6040516020818303038152906040527f4018d9aa000000000000000000000000000000000000000000000000000000007bffffffffffffffffffffffffffffffffffffffffffffffffffffffff19166020820180517bffffffffffffffffffffffffffffffffffffffffffffffffffffffff838183161783525050505060405161066c9190610905565b60006040518083038185875af1925050503d80600081146106a9576040519150601f19603f3d011682016040523d82523d6000602084013e6106ae565b606091505b509150915050505050565b600080fd5b600073ffffffffffffffffffffffffffffffffffffffff82169050919050565b60006106e9826106be565b9050919050565b6106f9816106de565b811461070457600080fd5b50565b600081359050610716816106f0565b92915050565b600060208284031215610732576107316106b9565b5b600061074084828501610707565b91505092915050565b6000610754826106be565b9050919050565b61076481610749565b811461076f57600080fd5b50565b6000813590506107818161075b565b92915050565b60006020828403121561079d5761079c6106b9565b5b60006107ab84828501610772565b91505092915050565b6000819050919050565b6107c7816107b4565b81146107d257600080fd5b50565b6000813590506107e4816107be565b92915050565b60008060408385031215610801576108006106b9565b5b600061080f85828601610707565b9250506020610820858286016107d5565b9150509250929050565b610833816107b4565b82525050565b600060208201905061084e600083018461082a565b92915050565b6000806040838503121561086b5761086a6106b9565b5b600061087985828601610772565b925050602061088a858286016107d5565b9150509250929050565b600081519050919050565b600081905092915050565b60005b838110156108c85780820151818401526020810190506108ad565b60008484015250505050565b60006108df82610894565b6108e9818561089f565b93506108f98185602086016108aa565b80840191505092915050565b600061091182846108d4565b915081905092915050565b60008115159050919050565b6109318161091c565b82525050565b600082825260208201905092915050565b6000601f19601f8301169050919050565b600061096482610894565b61096e8185610937565b935061097e8185602086016108aa565b61098781610948565b840191505092915050565b60006040820190506109a76000830185610928565b81810360208301526109b98184610959565b90509392505050565b50565b60006109d260008361089f565b91506109dd826109c2565b600082019050919050565b60006109f3826109c5565b9150819050919050565b600082825260208201905092915050565b7f6572726f722d73656e64206572726f7200000000000000000000000000000000600082015250565b6000610a446010836109fd565b9150610a4f82610a0e565b602082019050919050565b60006020820190508181036000830152610a7381610a37565b9050919050565b600081519050610a89816107be565b92915050565b600060208284031215610aa557610aa46106b9565b5b6000610ab384828501610a7a565b9150509291505056fea2646970667358221220dce66aaea98064729b7846d9c31043564ad6f4678fbb6d1a1492fc9086ccfafd64736f6c63430008120033",
					"opcodes": "PUSH1 0x80 PUSH1 0x40 MSTORE CALLVALUE DUP1 ISZERO PUSH2 0x10 JUMPI PUSH1 0x0 DUP1 REVERT JUMPDEST POP PUSH2 0xAF2 DUP1 PUSH2 0x20 PUSH1 0x0 CODECOPY PUSH1 0x0 RETURN INVALID PUSH1 0x80 PUSH1 0x40 MSTORE PUSH1 0x4 CALLDATASIZE LT PUSH2 0x4A JUMPI PUSH1 0x0 CALLDATALOAD PUSH1 0xE0 SHR DUP1 PUSH4 0x392F4FC2 EQ PUSH2 0x4F JUMPI DUP1 PUSH4 0x4B5A53A7 EQ PUSH2 0x78 JUMPI DUP1 PUSH4 0x6B4BF2A7 EQ PUSH2 0x94 JUMPI DUP1 PUSH4 0x8D5E7D08 EQ PUSH2 0xBD JUMPI DUP1 PUSH4 0xD99853BF EQ PUSH2 0xFA JUMPI JUMPDEST PUSH1 0x0 DUP1 REVERT JUMPDEST CALLVALUE DUP1 ISZERO PUSH2 0x5B JUMPI PUSH1 0x0 DUP1 REVERT JUMPDEST POP PUSH2 0x76 PUSH1 0x4 DUP1 CALLDATASIZE SUB DUP2 ADD SWAP1 PUSH2 0x71 SWAP2 SWAP1 PUSH2 0x71C JUMP JUMPDEST PUSH2 0x116 JUMP JUMPDEST STOP JUMPDEST PUSH2 0x92 PUSH1 0x4 DUP1 CALLDATASIZE SUB DUP2 ADD SWAP1 PUSH2 0x8D SWAP2 SWAP1 PUSH2 0x787 JUMP JUMPDEST PUSH2 0x245 JUMP JUMPDEST STOP JUMPDEST CALLVALUE DUP1 ISZERO PUSH2 0xA0 JUMPI PUSH1 0x0 DUP1 REVERT JUMPDEST POP PUSH2 0xBB PUSH1 0x4 DUP1 CALLDATASIZE SUB DUP2 ADD SWAP1 PUSH2 0xB6 SWAP2 SWAP1 PUSH2 0x7EA JUMP JUMPDEST PUSH2 0x36E JUMP JUMPDEST STOP JUMPDEST CALLVALUE DUP1 ISZERO PUSH2 0xC9 JUMPI PUSH1 0x0 DUP1 REVERT JUMPDEST POP PUSH2 0xE4 PUSH1 0x4 DUP1 CALLDATASIZE SUB DUP2 ADD SWAP1 PUSH2 0xDF SWAP2 SWAP1 PUSH2 0x71C JUMP JUMPDEST PUSH2 0x46D JUMP JUMPDEST PUSH1 0x40 MLOAD PUSH2 0xF1 SWAP2 SWAP1 PUSH2 0x839 JUMP JUMPDEST PUSH1 0x40 MLOAD DUP1 SWAP2 SUB SWAP1 RETURN JUMPDEST PUSH2 0x114 PUSH1 0x4 DUP1 CALLDATASIZE SUB DUP2 ADD SWAP1 PUSH2 0x10F SWAP2 SWAP1 PUSH2 0x854 JUMP JUMPDEST PUSH2 0x5B6 JUMP JUMPDEST STOP JUMPDEST PUSH1 0x0 DUP1 DUP3 PUSH20 0xFFFFFFFFFFFFFFFFFFFFFFFFFFFFFFFFFFFFFFFF AND PUSH1 0x40 MLOAD PUSH1 0x24 ADD PUSH1 0x40 MLOAD PUSH1 0x20 DUP2 DUP4 SUB SUB DUP2 MSTORE SWAP1 PUSH1 0x40 MSTORE PUSH32 0x2FBEBD3800000000000000000000000000000000000000000000000000000000 PUSH28 0xFFFFFFFFFFFFFFFFFFFFFFFFFFFFFFFFFFFFFFFFFFFFFFFFFFFFFFFF NOT AND PUSH1 0x20 DUP3 ADD DUP1 MLOAD PUSH28 0xFFFFFFFFFFFFFFFFFFFFFFFFFFFFFFFFFFFFFFFFFFFFFFFFFFFFFFFF DUP4 DUP2 DUP4 AND OR DUP4 MSTORE POP POP POP POP PUSH1 0x40 MLOAD PUSH2 0x1C0 SWAP2 SWAP1 PUSH2 0x905 JUMP JUMPDEST PUSH1 0x0 PUSH1 0x40 MLOAD DUP1 DUP4 SUB DUP2 PUSH1 0x0 DUP7 GAS CALL SWAP2 POP POP RETURNDATASIZE DUP1 PUSH1 0x0 DUP2 EQ PUSH2 0x1FD JUMPI PUSH1 0x40 MLOAD SWAP2 POP PUSH1 0x1F NOT PUSH1 0x3F RETURNDATASIZE ADD AND DUP3 ADD PUSH1 0x40 MSTORE RETURNDATASIZE DUP3 MSTORE RETURNDATASIZE PUSH1 0x0 PUSH1 0x20 DUP5 ADD RETURNDATACOPY PUSH2 0x202 JUMP JUMPDEST PUSH1 0x60 SWAP2 POP JUMPDEST POP SWAP2 POP SWAP2 POP PUSH32 0x13848C3E38F8886F3F5D2AD9DFF80D8092C2BBB8EFD5B887A99C2C6CFC09AC2A DUP3 DUP3 PUSH1 0x40 MLOAD PUSH2 0x238 SWAP3 SWAP2 SWAP1 PUSH2 0x992 JUMP JUMPDEST PUSH1 0x40 MLOAD DUP1 SWAP2 SUB SWAP1 LOG1 POP POP POP JUMP JUMPDEST PUSH1 0x0 DUP1 DUP3 PUSH20 0xFFFFFFFFFFFFFFFFFFFFFFFFFFFFFFFFFFFFFFFF AND CALLVALUE PUSH1 0x40 MLOAD PUSH2 0x26C SWAP1 PUSH2 0x9E8 JUMP JUMPDEST PUSH1 0x0 PUSH1 0x40 MLOAD DUP1 DUP4 SUB DUP2 DUP6 DUP8 GAS CALL SWAP3 POP POP POP RETURNDATASIZE DUP1 PUSH1 0x0 DUP2 EQ PUSH2 0x2A9 JUMPI PUSH1 0x40 MLOAD SWAP2 POP PUSH1 0x1F NOT PUSH1 0x3F RETURNDATASIZE ADD AND DUP3 ADD PUSH1 0x40 MSTORE RETURNDATASIZE DUP3 MSTORE RETURNDATASIZE PUSH1 0x0 PUSH1 0x20 DUP5 ADD RETURNDATACOPY PUSH2 0x2AE JUMP JUMPDEST PUSH1 0x60 SWAP2 POP JUMPDEST POP SWAP2 POP SWAP2 POP DUP2 PUSH2 0x2F3 JUMPI PUSH1 0x40 MLOAD PUSH32 0x8C379A000000000000000000000000000000000000000000000000000000000 DUP2 MSTORE PUSH1 0x4 ADD PUSH2 0x2EA SWAP1 PUSH2 0xA5A JUMP JUMPDEST PUSH1 0x40 MLOAD DUP1 SWAP2 SUB SWAP1 REVERT JUMPDEST DUP2 ISZERO PUSH2 0x337 JUMPI PUSH32 0x13848C3E38F8886F3F5D2AD9DFF80D8092C2BBB8EFD5B887A99C2C6CFC09AC2A DUP3 DUP3 PUSH1 0x40 MLOAD PUSH2 0x32A SWAP3 SWAP2 SWAP1 PUSH2 0x992 JUMP JUMPDEST PUSH1 0x40 MLOAD DUP1 SWAP2 SUB SWAP1 LOG1 PUSH2 0x369 JUMP JUMPDEST PUSH1 0x40 MLOAD PUSH32 0x7BE827D300000000000000000000000000000000000000000000000000000000 DUP2 MSTORE PUSH1 0x4 ADD PUSH1 0x40 MLOAD DUP1 SWAP2 SUB SWAP1 REVERT JUMPDEST POP POP POP JUMP JUMPDEST PUSH1 0x0 DUP3 PUSH20 0xFFFFFFFFFFFFFFFFFFFFFFFFFFFFFFFFFFFFFFFF AND DUP3 PUSH1 0x40 MLOAD PUSH1 0x24 ADD PUSH2 0x398 SWAP2 SWAP1 PUSH2 0x839 JUMP JUMPDEST PUSH1 0x40 MLOAD PUSH1 0x20 DUP2 DUP4 SUB SUB DUP2 MSTORE SWAP1 PUSH1 0x40 MSTORE PUSH32 0x4018D9AA00000000000000000000000000000000000000000000000000000000 PUSH28 0xFFFFFFFFFFFFFFFFFFFFFFFFFFFFFFFFFFFFFFFFFFFFFFFFFFFFFFFF NOT AND PUSH1 0x20 DUP3 ADD DUP1 MLOAD PUSH28 0xFFFFFFFFFFFFFFFFFFFFFFFFFFFFFFFFFFFFFFFFFFFFFFFFFFFFFFFF DUP4 DUP2 DUP4 AND OR DUP4 MSTORE POP POP POP POP PUSH1 0x40 MLOAD PUSH2 0x422 SWAP2 SWAP1 PUSH2 0x905 JUMP JUMPDEST PUSH1 0x0 PUSH1 0x40 MLOAD DUP1 DUP4 SUB DUP2 PUSH1 0x0 DUP7 GAS CALL SWAP2 POP POP RETURNDATASIZE DUP1 PUSH1 0x0 DUP2 EQ PUSH2 0x45F JUMPI PUSH1 0x40 MLOAD SWAP2 POP PUSH1 0x1F NOT PUSH1 0x3F RETURNDATASIZE ADD AND DUP3 ADD PUSH1 0x40 MSTORE RETURNDATASIZE DUP3 MSTORE RETURNDATASIZE PUSH1 0x0 PUSH1 0x20 DUP5 ADD RETURNDATACOPY PUSH2 0x464 JUMP JUMPDEST PUSH1 0x60 SWAP2 POP JUMPDEST POP POP SWAP1 POP POP POP POP JUMP JUMPDEST PUSH1 0x0 DUP1 PUSH1 0x0 DUP4 PUSH20 0xFFFFFFFFFFFFFFFFFFFFFFFFFFFFFFFFFFFFFFFF AND PUSH1 0x40 MLOAD PUSH1 0x24 ADD PUSH1 0x40 MLOAD PUSH1 0x20 DUP2 DUP4 SUB SUB DUP2 MSTORE SWAP1 PUSH1 0x40 MSTORE PUSH32 0x5197C7AA00000000000000000000000000000000000000000000000000000000 PUSH28 0xFFFFFFFFFFFFFFFFFFFFFFFFFFFFFFFFFFFFFFFFFFFFFFFFFFFFFFFF NOT AND PUSH1 0x20 DUP3 ADD DUP1 MLOAD PUSH28 0xFFFFFFFFFFFFFFFFFFFFFFFFFFFFFFFFFFFFFFFFFFFFFFFFFFFFFFFF DUP4 DUP2 DUP4 AND OR DUP4 MSTORE POP POP POP POP PUSH1 0x40 MLOAD PUSH2 0x519 SWAP2 SWAP1 PUSH2 0x905 JUMP JUMPDEST PUSH1 0x0 PUSH1 0x40 MLOAD DUP1 DUP4 SUB DUP2 PUSH1 0x0 DUP7 GAS CALL SWAP2 POP POP RETURNDATASIZE DUP1 PUSH1 0x0 DUP2 EQ PUSH2 0x556 JUMPI PUSH1 0x40 MLOAD SWAP2 POP PUSH1 0x1F NOT PUSH1 0x3F RETURNDATASIZE ADD AND DUP3 ADD PUSH1 0x40 MSTORE RETURNDATASIZE DUP3 MSTORE RETURNDATASIZE PUSH1 0x0 PUSH1 0x20 DUP5 ADD RETURNDATACOPY PUSH2 0x55B JUMP JUMPDEST PUSH1 0x60 SWAP2 POP JUMPDEST POP SWAP2 POP SWAP2 POP PUSH32 0x13848C3E38F8886F3F5D2AD9DFF80D8092C2BBB8EFD5B887A99C2C6CFC09AC2A DUP3 DUP3 PUSH1 0x40 MLOAD PUSH2 0x591 SWAP3 SWAP2 SWAP1 PUSH2 0x992 JUMP JUMPDEST PUSH1 0x40 MLOAD DUP1 SWAP2 SUB SWAP1 LOG1 DUP1 DUP1 PUSH1 0x20 ADD SWAP1 MLOAD DUP2 ADD SWAP1 PUSH2 0x5AD SWAP2 SWAP1 PUSH2 0xA8F JUMP JUMPDEST SWAP3 POP POP POP SWAP2 SWAP1 POP JUMP JUMPDEST PUSH1 0x0 DUP1 DUP4 PUSH20 0xFFFFFFFFFFFFFFFFFFFFFFFFFFFFFFFFFFFFFFFF AND CALLVALUE DUP5 PUSH1 0x40 MLOAD PUSH1 0x24 ADD PUSH2 0x5E2 SWAP2 SWAP1 PUSH2 0x839 JUMP JUMPDEST PUSH1 0x40 MLOAD PUSH1 0x20 DUP2 DUP4 SUB SUB DUP2 MSTORE SWAP1 PUSH1 0x40 MSTORE PUSH32 0x4018D9AA00000000000000000000000000000000000000000000000000000000 PUSH28 0xFFFFFFFFFFFFFFFFFFFFFFFFFFFFFFFFFFFFFFFFFFFFFFFFFFFFFFFF NOT AND PUSH1 0x20 DUP3 ADD DUP1 MLOAD PUSH28 0xFFFFFFFFFFFFFFFFFFFFFFFFFFFFFFFFFFFFFFFFFFFFFFFFFFFFFFFF DUP4 DUP2 DUP4 AND OR DUP4 MSTORE POP POP POP POP PUSH1 0x40 MLOAD PUSH2 0x66C SWAP2 SWAP1 PUSH2 0x905 JUMP JUMPDEST PUSH1 0x0 PUSH1 0x40 MLOAD DUP1 DUP4 SUB DUP2 DUP6 DUP8 GAS CALL SWAP3 POP POP POP RETURNDATASIZE DUP1 PUSH1 0x0 DUP2 EQ PUSH2 0x6A9 JUMPI PUSH1 0x40 MLOAD SWAP2 POP PUSH1 0x1F NOT PUSH1 0x3F RETURNDATASIZE ADD AND DUP3 ADD PUSH1 0x40 MSTORE RETURNDATASIZE DUP3 MSTORE RETURNDATASIZE PUSH1 0x0 PUSH1 0x20 DUP5 ADD RETURNDATACOPY PUSH2 0x6AE JUMP JUMPDEST PUSH1 0x60 SWAP2 POP JUMPDEST POP SWAP2 POP SWAP2 POP POP POP POP POP JUMP JUMPDEST PUSH1 0x0 DUP1 REVERT JUMPDEST PUSH1 0x0 PUSH20 0xFFFFFFFFFFFFFFFFFFFFFFFFFFFFFFFFFFFFFFFF DUP3 AND SWAP1 POP SWAP2 SWAP1 POP JUMP JUMPDEST PUSH1 0x0 PUSH2 0x6E9 DUP3 PUSH2 0x6BE JUMP JUMPDEST SWAP1 POP SWAP2 SWAP1 POP JUMP JUMPDEST PUSH2 0x6F9 DUP2 PUSH2 0x6DE JUMP JUMPDEST DUP2 EQ PUSH2 0x704 JUMPI PUSH1 0x0 DUP1 REVERT JUMPDEST POP JUMP JUMPDEST PUSH1 0x0 DUP2 CALLDATALOAD SWAP1 POP PUSH2 0x716 DUP2 PUSH2 0x6F0 JUMP JUMPDEST SWAP3 SWAP2 POP POP JUMP JUMPDEST PUSH1 0x0 PUSH1 0x20 DUP3 DUP5 SUB SLT ISZERO PUSH2 0x732 JUMPI PUSH2 0x731 PUSH2 0x6B9 JUMP JUMPDEST JUMPDEST PUSH1 0x0 PUSH2 0x740 DUP5 DUP3 DUP6 ADD PUSH2 0x707 JUMP JUMPDEST SWAP2 POP POP SWAP3 SWAP2 POP POP JUMP JUMPDEST PUSH1 0x0 PUSH2 0x754 DUP3 PUSH2 0x6BE JUMP JUMPDEST SWAP1 POP SWAP2 SWAP1 POP JUMP JUMPDEST PUSH2 0x764 DUP2 PUSH2 0x749 JUMP JUMPDEST DUP2 EQ PUSH2 0x76F JUMPI PUSH1 0x0 DUP1 REVERT JUMPDEST POP JUMP JUMPDEST PUSH1 0x0 DUP2 CALLDATALOAD SWAP1 POP PUSH2 0x781 DUP2 PUSH2 0x75B JUMP JUMPDEST SWAP3 SWAP2 POP POP JUMP JUMPDEST PUSH1 0x0 PUSH1 0x20 DUP3 DUP5 SUB SLT ISZERO PUSH2 0x79D JUMPI PUSH2 0x79C PUSH2 0x6B9 JUMP JUMPDEST JUMPDEST PUSH1 0x0 PUSH2 0x7AB DUP5 DUP3 DUP6 ADD PUSH2 0x772 JUMP JUMPDEST SWAP2 POP POP SWAP3 SWAP2 POP POP JUMP JUMPDEST PUSH1 0x0 DUP2 SWAP1 POP SWAP2 SWAP1 POP JUMP JUMPDEST PUSH2 0x7C7 DUP2 PUSH2 0x7B4 JUMP JUMPDEST DUP2 EQ PUSH2 0x7D2 JUMPI PUSH1 0x0 DUP1 REVERT JUMPDEST POP JUMP JUMPDEST PUSH1 0x0 DUP2 CALLDATALOAD SWAP1 POP PUSH2 0x7E4 DUP2 PUSH2 0x7BE JUMP JUMPDEST SWAP3 SWAP2 POP POP JUMP JUMPDEST PUSH1 0x0 DUP1 PUSH1 0x40 DUP4 DUP6 SUB SLT ISZERO PUSH2 0x801 JUMPI PUSH2 0x800 PUSH2 0x6B9 JUMP JUMPDEST JUMPDEST PUSH1 0x0 PUSH2 0x80F DUP6 DUP3 DUP7 ADD PUSH2 0x707 JUMP JUMPDEST SWAP3 POP POP PUSH1 0x20 PUSH2 0x820 DUP6 DUP3 DUP7 ADD PUSH2 0x7D5 JUMP JUMPDEST SWAP2 POP POP SWAP3 POP SWAP3 SWAP1 POP JUMP JUMPDEST PUSH2 0x833 DUP2 PUSH2 0x7B4 JUMP JUMPDEST DUP3 MSTORE POP POP JUMP JUMPDEST PUSH1 0x0 PUSH1 0x20 DUP3 ADD SWAP1 POP PUSH2 0x84E PUSH1 0x0 DUP4 ADD DUP5 PUSH2 0x82A JUMP JUMPDEST SWAP3 SWAP2 POP POP JUMP JUMPDEST PUSH1 0x0 DUP1 PUSH1 0x40 DUP4 DUP6 SUB SLT ISZERO PUSH2 0x86B JUMPI PUSH2 0x86A PUSH2 0x6B9 JUMP JUMPDEST JUMPDEST PUSH1 0x0 PUSH2 0x879 DUP6 DUP3 DUP7 ADD PUSH2 0x772 JUMP JUMPDEST SWAP3 POP POP PUSH1 0x20 PUSH2 0x88A DUP6 DUP3 DUP7 ADD PUSH2 0x7D5 JUMP JUMPDEST SWAP2 POP POP SWAP3 POP SWAP3 SWAP1 POP JUMP JUMPDEST PUSH1 0x0 DUP2 MLOAD SWAP1 POP SWAP2 SWAP1 POP JUMP JUMPDEST PUSH1 0x0 DUP2 SWAP1 POP SWAP3 SWAP2 POP POP JUMP JUMPDEST PUSH1 0x0 JUMPDEST DUP4 DUP2 LT ISZERO PUSH2 0x8C8 JUMPI DUP1 DUP3 ADD MLOAD DUP2 DUP5 ADD MSTORE PUSH1 0x20 DUP2 ADD SWAP1 POP PUSH2 0x8AD JUMP JUMPDEST PUSH1 0x0 DUP5 DUP5 ADD MSTORE POP POP POP POP JUMP JUMPDEST PUSH1 0x0 PUSH2 0x8DF DUP3 PUSH2 0x894 JUMP JUMPDEST PUSH2 0x8E9 DUP2 DUP6 PUSH2 0x89F JUMP JUMPDEST SWAP4 POP PUSH2 0x8F9 DUP2 DUP6 PUSH1 0x20 DUP7 ADD PUSH2 0x8AA JUMP JUMPDEST DUP1 DUP5 ADD SWAP2 POP POP SWAP3 SWAP2 POP POP JUMP JUMPDEST PUSH1 0x0 PUSH2 0x911 DUP3 DUP5 PUSH2 0x8D4 JUMP JUMPDEST SWAP2 POP DUP2 SWAP1 POP SWAP3 SWAP2 POP POP JUMP JUMPDEST PUSH1 0x0 DUP2 ISZERO ISZERO SWAP1 POP SWAP2 SWAP1 POP JUMP JUMPDEST PUSH2 0x931 DUP2 PUSH2 0x91C JUMP JUMPDEST DUP3 MSTORE POP POP JUMP JUMPDEST PUSH1 0x0 DUP3 DUP3 MSTORE PUSH1 0x20 DUP3 ADD SWAP1 POP SWAP3 SWAP2 POP POP JUMP JUMPDEST PUSH1 0x0 PUSH1 0x1F NOT PUSH1 0x1F DUP4 ADD AND SWAP1 POP SWAP2 SWAP1 POP JUMP JUMPDEST PUSH1 0x0 PUSH2 0x964 DUP3 PUSH2 0x894 JUMP JUMPDEST PUSH2 0x96E DUP2 DUP6 PUSH2 0x937 JUMP JUMPDEST SWAP4 POP PUSH2 0x97E DUP2 DUP6 PUSH1 0x20 DUP7 ADD PUSH2 0x8AA JUMP JUMPDEST PUSH2 0x987 DUP2 PUSH2 0x948 JUMP JUMPDEST DUP5 ADD SWAP2 POP POP SWAP3 SWAP2 POP POP JUMP JUMPDEST PUSH1 0x0 PUSH1 0x40 DUP3 ADD SWAP1 POP PUSH2 0x9A7 PUSH1 0x0 DUP4 ADD DUP6 PUSH2 0x928 JUMP JUMPDEST DUP2 DUP2 SUB PUSH1 0x20 DUP4 ADD MSTORE PUSH2 0x9B9 DUP2 DUP5 PUSH2 0x959 JUMP JUMPDEST SWAP1 POP SWAP4 SWAP3 POP POP POP JUMP JUMPDEST POP JUMP JUMPDEST PUSH1 0x0 PUSH2 0x9D2 PUSH1 0x0 DUP4 PUSH2 0x89F JUMP JUMPDEST SWAP2 POP PUSH2 0x9DD DUP3 PUSH2 0x9C2 JUMP JUMPDEST PUSH1 0x0 DUP3 ADD SWAP1 POP SWAP2 SWAP1 POP JUMP JUMPDEST PUSH1 0x0 PUSH2 0x9F3 DUP3 PUSH2 0x9C5 JUMP JUMPDEST SWAP2 POP DUP2 SWAP1 POP SWAP2 SWAP1 POP JUMP JUMPDEST PUSH1 0x0 DUP3 DUP3 MSTORE PUSH1 0x20 DUP3 ADD SWAP1 POP SWAP3 SWAP2 POP POP JUMP JUMPDEST PUSH32 0x6572726F722D73656E64206572726F7200000000000000000000000000000000 PUSH1 0x0 DUP3 ADD MSTORE POP JUMP JUMPDEST PUSH1 0x0 PUSH2 0xA44 PUSH1 0x10 DUP4 PUSH2 0x9FD JUMP JUMPDEST SWAP2 POP PUSH2 0xA4F DUP3 PUSH2 0xA0E JUMP JUMPDEST PUSH1 0x20 DUP3 ADD SWAP1 POP SWAP2 SWAP1 POP JUMP JUMPDEST PUSH1 0x0 PUSH1 0x20 DUP3 ADD SWAP1 POP DUP2 DUP2 SUB PUSH1 0x0 DUP4 ADD MSTORE PUSH2 0xA73 DUP2 PUSH2 0xA37 JUMP JUMPDEST SWAP1 POP SWAP2 SWAP1 POP JUMP JUMPDEST PUSH1 0x0 DUP2 MLOAD SWAP1 POP PUSH2 0xA89 DUP2 PUSH2 0x7BE JUMP JUMPDEST SWAP3 SWAP2 POP POP JUMP JUMPDEST PUSH1 0x0 PUSH1 0x20 DUP3 DUP5 SUB SLT ISZERO PUSH2 0xAA5 JUMPI PUSH2 0xAA4 PUSH2 0x6B9 JUMP JUMPDEST JUMPDEST PUSH1 0x0 PUSH2 0xAB3 DUP5 DUP3 DUP6 ADD PUSH2 0xA7A JUMP JUMPDEST SWAP2 POP POP SWAP3 SWAP2 POP POP JUMP INVALID LOG2 PUSH5 0x6970667358 0x22 SLT KECCAK256 0xDC 0xE6 PUSH11 0xAEA98064729B7846D9C310 NUMBER JUMP 0x4A 0xD6 DELEGATECALL PUSH8 0x8FBB6D1A1492FC90 DUP7 0xCC STATICCALL REVERT PUSH5 0x736F6C6343 STOP ADDMOD SLT STOP CALLER "
				},
				"gasEstimates": {
					"creation": {
						"codeDepositCost": "560400",
						"executionCost": "594",
						"totalCost": "560994"
					},
					"external": {
						"callTargetFun(address,uint256)": "infinite",
						"callTargetFun2(address)": "infinite",
						"callTargetFun3(address,uint256)": "infinite",
						"callTargetFun4(address)": "infinite",
						"callTargetNotExitFun(address)": "infinite"
					}
				},
				"methodIdentifiers": {
					"callTargetFun(address,uint256)": "d99853bf",
					"callTargetFun2(address)": "8d5e7d08",
					"callTargetFun3(address,uint256)": "6b4bf2a7",
					"callTargetFun4(address)": "4b5a53a7",
					"callTargetNotExitFun(address)": "392f4fc2"
				}
			},
			"storageLayout": {
				"storage": [],
				"types": null
			},
			"userdoc": {
				"kind": "user",
				"methods": {},
				"version": 1
			}
		}
	}
}