{
	"contracts/abiTest.sol": {
		"AbiTest": {
			"abi": [
				{
					"anonymous": false,
					"inputs": [
						{
							"indexed": false,
							"internalType": "bytes",
							"name": "data",
							"type": "bytes"
						}
					],
					"name": "Log",
					"type": "event"
				},
				{
					"inputs": [],
					"name": "_msg",
					"outputs": [
						{
							"internalType": "bytes32",
							"name": "",
							"type": "bytes32"
						}
					],
					"stateMutability": "view",
					"type": "function"
				},
				{
					"inputs": [],
					"name": "callwithSignature",
					"outputs": [
						{
							"internalType": "bool",
							"name": "",
							"type": "bool"
						},
						{
							"internalType": "bytes",
							"name": "",
							"type": "bytes"
						}
					],
					"stateMutability": "nonpayable",
					"type": "function"
				},
				{
					"inputs": [],
					"name": "checkMethodId",
					"outputs": [
						{
							"internalType": "bytes4",
							"name": "",
							"type": "bytes4"
						}
					],
					"stateMutability": "pure",
					"type": "function"
				},
				{
					"inputs": [
						{
							"internalType": "bytes",
							"name": "data",
							"type": "bytes"
						}
					],
					"name": "decode1",
					"outputs": [
						{
							"internalType": "uint256",
							"name": "dx",
							"type": "uint256"
						},
						{
							"internalType": "address",
							"name": "daddr",
							"type": "address"
						},
						{
							"internalType": "string",
							"name": "dname",
							"type": "string"
						},
						{
							"internalType": "uint256[2]",
							"name": "darray",
							"type": "uint256[2]"
						}
					],
					"stateMutability": "pure",
					"type": "function"
				},
				{
					"inputs": [],
					"name": "encode",
					"outputs": [
						{
							"internalType": "bytes",
							"name": "result",
							"type": "bytes"
						}
					],
					"stateMutability": "view",
					"type": "function"
				},
				{
					"inputs": [],
					"name": "encode2",
					"outputs": [
						{
							"internalType": "bytes",
							"name": "result",
							"type": "bytes"
						}
					],
					"stateMutability": "view",
					"type": "function"
				},
				{
					"inputs": [],
					"name": "encode3",
					"outputs": [
						{
							"internalType": "bytes",
							"name": "result",
							"type": "bytes"
						}
					],
					"stateMutability": "view",
					"type": "function"
				},
				{
					"inputs": [],
					"name": "encode4",
					"outputs": [
						{
							"internalType": "bytes",
							"name": "result",
							"type": "bytes"
						}
					],
					"stateMutability": "view",
					"type": "function"
				},
				{
					"inputs": [],
					"name": "hash1",
					"outputs": [
						{
							"internalType": "bytes32",
							"name": "",
							"type": "bytes32"
						}
					],
					"stateMutability": "view",
					"type": "function"
				},
				{
					"inputs": [
						{
							"internalType": "string",
							"name": "word",
							"type": "string"
						},
						{
							"internalType": "uint256",
							"name": "num",
							"type": "uint256"
						},
						{
							"internalType": "address",
							"name": "_addr",
							"type": "address"
						}
					],
					"name": "hash2",
					"outputs": [
						{
							"internalType": "bytes32",
							"name": "",
							"type": "bytes32"
						}
					],
					"stateMutability": "pure",
					"type": "function"
				},
				{
					"inputs": [
						{
							"internalType": "address",
							"name": "to",
							"type": "address"
						}
					],
					"name": "mint",
					"outputs": [],
					"stateMutability": "nonpayable",
					"type": "function"
				},
				{
					"inputs": [
						{
							"internalType": "string",
							"name": "string1",
							"type": "string"
						}
					],
					"name": "weak",
					"outputs": [
						{
							"internalType": "bool",
							"name": "",
							"type": "bool"
						}
					],
					"stateMutability": "view",
					"type": "function"
				}
			],
			"devdoc": {
				"kind": "dev",
				"methods": {},
				"version": 1
			},
			"evm": {
				"assembly": "    /* \"contracts/abiTest.sol\":70:3023  contract AbiTest {... */\n  mstore(0x40, 0x80)\n    /* \"contracts/abiTest.sol\":105:108  123 */\n  0x7b\n    /* \"contracts/abiTest.sol\":93:108  uint256 x = 123 */\n  0x00\n  sstore\n    /* \"contracts/abiTest.sol\":129:171  0x7A58c0Be72BE218B41C608b7Fe7C5bB630736C71 */\n  0x7a58c0be72be218b41c608b7fe7c5bb630736c71\n    /* \"contracts/abiTest.sol\":114:171  address addr = 0x7A58c0Be72BE218B41C608b7Fe7C5bB630736C71 */\n  0x01\n  exp(0x0100, 0x00)\n  dup2\n  sload\n  dup2\n  0xffffffffffffffffffffffffffffffffffffffff\n  mul\n  not\n  and\n  swap1\n  dup4\n  0xffffffffffffffffffffffffffffffffffffffff\n  and\n  mul\n  or\n  swap1\n  sstore\n  pop\n    /* \"contracts/abiTest.sol\":177:197  string name = \"cwpp\" */\n  mload(0x40)\n  dup1\n  0x40\n  add\n  0x40\n  mstore\n  dup1\n  0x04\n  dup2\n  mstore\n  0x20\n  add\n  0x6377707000000000000000000000000000000000000000000000000000000000\n  dup2\n  mstore\n  pop\n  0x02\n  swap1\n  dup2\n  tag_1\n  swap2\n  swap1\n  tag_2\n  jump\t// in\ntag_1:\n  pop\n    /* \"contracts/abiTest.sol\":203:228  uint256[2] array = [6, 9] */\n  mload(0x40)\n  dup1\n  0x40\n  add\n  0x40\n  mstore\n  dup1\n    /* \"contracts/abiTest.sol\":223:224  6 */\n  0x06\n    /* \"contracts/abiTest.sol\":203:228  uint256[2] array = [6, 9] */\n  0xff\n  and\n  dup2\n  mstore\n  0x20\n  add\n    /* \"contracts/abiTest.sol\":226:227  9 */\n  0x09\n    /* \"contracts/abiTest.sol\":203:228  uint256[2] array = [6, 9] */\n  0xff\n  and\n  dup2\n  mstore\n  pop\n  0x03\n  swap1\n  0x02\n  tag_3\n  swap3\n  swap2\n  swap1\n  tag_4\n  jump\t// in\ntag_3:\n  pop\n    /* \"contracts/abiTest.sol\":2021:2045  abi.encodePacked(\"0xaa\") */\n  add(0x20, mload(0x40))\n  tag_5\n  swap1\n  tag_6\n  jump\t// in\ntag_5:\n  mload(0x40)\n  0x20\n  dup2\n  dup4\n  sub\n  sub\n  dup2\n  mstore\n  swap1\n  0x40\n  mstore\n    /* \"contracts/abiTest.sol\":2011:2046  keccak256(abi.encodePacked(\"0xaa\")) */\n  dup1\n  mload\n  swap1\n  0x20\n  add\n  keccak256\n    /* \"contracts/abiTest.sol\":1989:2046  bytes32 public _msg = keccak256(abi.encodePacked(\"0xaa\")) */\n  0x05\n  sstore\n    /* \"contracts/abiTest.sol\":70:3023  contract AbiTest {... */\n  callvalue\n  dup1\n  iszero\n  tag_7\n  jumpi\n  0x00\n  dup1\n  revert\ntag_7:\n  pop\n  jump(tag_8)\ntag_4:\n  dup3\n  0x02\n  dup2\n  add\n  swap3\n  dup3\n  iszero\n  tag_9\n  jumpi\n  swap2\n  0x20\n  mul\n  dup3\n  add\ntag_10:\n  dup3\n  dup2\n  gt\n  iszero\n  tag_11\n  jumpi\n  dup3\n  mload\n  dup3\n  swap1\n  0xff\n  and\n  swap1\n  sstore\n  swap2\n  0x20\n  add\n  swap2\n  swap1\n  0x01\n  add\n  swap1\n  jump(tag_10)\ntag_11:\ntag_9:\n  pop\n  swap1\n  pop\n  tag_12\n  swap2\n  swap1\n  tag_13\n  jump\t// in\ntag_12:\n  pop\n  swap1\n  jump\t// out\ntag_13:\ntag_14:\n  dup1\n  dup3\n  gt\n  iszero\n  tag_15\n  jumpi\n  0x00\n  dup2\n  0x00\n  swap1\n  sstore\n  pop\n  0x01\n  add\n  jump(tag_14)\ntag_15:\n  pop\n  swap1\n  jump\t// out\n    /* \"#utility.yul\":7:106   */\ntag_16:\n    /* \"#utility.yul\":59:65   */\n  0x00\n    /* \"#utility.yul\":93:98   */\n  dup2\n    /* \"#utility.yul\":87:99   */\n  mload\n    /* \"#utility.yul\":77:99   */\n  swap1\n  pop\n    /* \"#utility.yul\":7:106   */\n  swap2\n  swap1\n  pop\n  jump\t// out\n    /* \"#utility.yul\":112:292   */\ntag_17:\n    /* \"#utility.yul\":160:237   */\n  0x4e487b7100000000000000000000000000000000000000000000000000000000\n    /* \"#utility.yul\":157:158   */\n  0x00\n    /* \"#utility.yul\":150:238   */\n  mstore\n    /* \"#utility.yul\":257:261   */\n  0x41\n    /* \"#utility.yul\":254:255   */\n  0x04\n    /* \"#utility.yul\":247:262   */\n  mstore\n    /* \"#utility.yul\":281:285   */\n  0x24\n    /* \"#utility.yul\":278:279   */\n  0x00\n    /* \"#utility.yul\":271:286   */\n  revert\n    /* \"#utility.yul\":298:478   */\ntag_18:\n    /* \"#utility.yul\":346:423   */\n  0x4e487b7100000000000000000000000000000000000000000000000000000000\n    /* \"#utility.yul\":343:344   */\n  0x00\n    /* \"#utility.yul\":336:424   */\n  mstore\n    /* \"#utility.yul\":443:447   */\n  0x22\n    /* \"#utility.yul\":440:441   */\n  0x04\n    /* \"#utility.yul\":433:448   */\n  mstore\n    /* \"#utility.yul\":467:471   */\n  0x24\n    /* \"#utility.yul\":464:465   */\n  0x00\n    /* \"#utility.yul\":457:472   */\n  revert\n    /* \"#utility.yul\":484:804   */\ntag_19:\n    /* \"#utility.yul\":528:534   */\n  0x00\n    /* \"#utility.yul\":565:566   */\n  0x02\n    /* \"#utility.yul\":559:563   */\n  dup3\n    /* \"#utility.yul\":555:567   */\n  div\n    /* \"#utility.yul\":545:567   */\n  swap1\n  pop\n    /* \"#utility.yul\":612:613   */\n  0x01\n    /* \"#utility.yul\":606:610   */\n  dup3\n    /* \"#utility.yul\":602:614   */\n  and\n    /* \"#utility.yul\":633:651   */\n  dup1\n    /* \"#utility.yul\":623:704   */\n  tag_44\n  jumpi\n    /* \"#utility.yul\":689:693   */\n  0x7f\n    /* \"#utility.yul\":681:687   */\n  dup3\n    /* \"#utility.yul\":677:694   */\n  and\n    /* \"#utility.yul\":667:694   */\n  swap2\n  pop\n    /* \"#utility.yul\":623:704   */\ntag_44:\n    /* \"#utility.yul\":751:753   */\n  0x20\n    /* \"#utility.yul\":743:749   */\n  dup3\n    /* \"#utility.yul\":740:754   */\n  lt\n    /* \"#utility.yul\":720:738   */\n  dup2\n    /* \"#utility.yul\":717:755   */\n  sub\n    /* \"#utility.yul\":714:798   */\n  tag_45\n  jumpi\n    /* \"#utility.yul\":770:788   */\n  tag_46\n  tag_18\n  jump\t// in\ntag_46:\n    /* \"#utility.yul\":714:798   */\ntag_45:\n    /* \"#utility.yul\":535:804   */\n  pop\n    /* \"#utility.yul\":484:804   */\n  swap2\n  swap1\n  pop\n  jump\t// out\n    /* \"#utility.yul\":810:951   */\ntag_20:\n    /* \"#utility.yul\":859:863   */\n  0x00\n    /* \"#utility.yul\":882:885   */\n  dup2\n    /* \"#utility.yul\":874:885   */\n  swap1\n  pop\n    /* \"#utility.yul\":905:908   */\n  dup2\n    /* \"#utility.yul\":902:903   */\n  0x00\n    /* \"#utility.yul\":895:909   */\n  mstore\n    /* \"#utility.yul\":939:943   */\n  0x20\n    /* \"#utility.yul\":936:937   */\n  0x00\n    /* \"#utility.yul\":926:944   */\n  keccak256\n    /* \"#utility.yul\":918:944   */\n  swap1\n  pop\n    /* \"#utility.yul\":810:951   */\n  swap2\n  swap1\n  pop\n  jump\t// out\n    /* \"#utility.yul\":957:1050   */\ntag_21:\n    /* \"#utility.yul\":994:1000   */\n  0x00\n    /* \"#utility.yul\":1041:1043   */\n  0x20\n    /* \"#utility.yul\":1036:1038   */\n  0x1f\n    /* \"#utility.yul\":1029:1034   */\n  dup4\n    /* \"#utility.yul\":1025:1039   */\n  add\n    /* \"#utility.yul\":1021:1044   */\n  div\n    /* \"#utility.yul\":1011:1044   */\n  swap1\n  pop\n    /* \"#utility.yul\":957:1050   */\n  swap2\n  swap1\n  pop\n  jump\t// out\n    /* \"#utility.yul\":1056:1163   */\ntag_22:\n    /* \"#utility.yul\":1100:1108   */\n  0x00\n    /* \"#utility.yul\":1150:1155   */\n  dup3\n    /* \"#utility.yul\":1144:1148   */\n  dup3\n    /* \"#utility.yul\":1140:1156   */\n  shl\n    /* \"#utility.yul\":1119:1156   */\n  swap1\n  pop\n    /* \"#utility.yul\":1056:1163   */\n  swap3\n  swap2\n  pop\n  pop\n  jump\t// out\n    /* \"#utility.yul\":1169:1562   */\ntag_23:\n    /* \"#utility.yul\":1238:1244   */\n  0x00\n    /* \"#utility.yul\":1288:1289   */\n  0x08\n    /* \"#utility.yul\":1276:1286   */\n  dup4\n    /* \"#utility.yul\":1272:1290   */\n  mul\n    /* \"#utility.yul\":1311:1408   */\n  tag_51\n    /* \"#utility.yul\":1341:1407   */\n  0xffffffffffffffffffffffffffffffffffffffffffffffffffffffffffffffff\n    /* \"#utility.yul\":1330:1339   */\n  dup3\n    /* \"#utility.yul\":1311:1408   */\n  tag_22\n  jump\t// in\ntag_51:\n    /* \"#utility.yul\":1429:1468   */\n  tag_52\n    /* \"#utility.yul\":1459:1467   */\n  dup7\n    /* \"#utility.yul\":1448:1457   */\n  dup4\n    /* \"#utility.yul\":1429:1468   */\n  tag_22\n  jump\t// in\ntag_52:\n    /* \"#utility.yul\":1417:1468   */\n  swap6\n  pop\n    /* \"#utility.yul\":1501:1505   */\n  dup1\n    /* \"#utility.yul\":1497:1506   */\n  not\n    /* \"#utility.yul\":1490:1495   */\n  dup5\n    /* \"#utility.yul\":1486:1507   */\n  and\n    /* \"#utility.yul\":1477:1507   */\n  swap4\n  pop\n    /* \"#utility.yul\":1550:1554   */\n  dup1\n    /* \"#utility.yul\":1540:1548   */\n  dup7\n    /* \"#utility.yul\":1536:1555   */\n  and\n    /* \"#utility.yul\":1529:1534   */\n  dup5\n    /* \"#utility.yul\":1526:1556   */\n  or\n    /* \"#utility.yul\":1516:1556   */\n  swap3\n  pop\n    /* \"#utility.yul\":1245:1562   */\n  pop\n  pop\n    /* \"#utility.yul\":1169:1562   */\n  swap4\n  swap3\n  pop\n  pop\n  pop\n  jump\t// out\n    /* \"#utility.yul\":1568:1645   */\ntag_24:\n    /* \"#utility.yul\":1605:1612   */\n  0x00\n    /* \"#utility.yul\":1634:1639   */\n  dup2\n    /* \"#utility.yul\":1623:1639   */\n  swap1\n  pop\n    /* \"#utility.yul\":1568:1645   */\n  swap2\n  swap1\n  pop\n  jump\t// out\n    /* \"#utility.yul\":1651:1711   */\ntag_25:\n    /* \"#utility.yul\":1679:1682   */\n  0x00\n    /* \"#utility.yul\":1700:1705   */\n  dup2\n    /* \"#utility.yul\":1693:1705   */\n  swap1\n  pop\n    /* \"#utility.yul\":1651:1711   */\n  swap2\n  swap1\n  pop\n  jump\t// out\n    /* \"#utility.yul\":1717:1859   */\ntag_26:\n    /* \"#utility.yul\":1767:1776   */\n  0x00\n    /* \"#utility.yul\":1800:1853   */\n  tag_56\n    /* \"#utility.yul\":1818:1852   */\n  tag_57\n    /* \"#utility.yul\":1827:1851   */\n  tag_58\n    /* \"#utility.yul\":1845:1850   */\n  dup5\n    /* \"#utility.yul\":1827:1851   */\n  tag_24\n  jump\t// in\ntag_58:\n    /* \"#utility.yul\":1818:1852   */\n  tag_25\n  jump\t// in\ntag_57:\n    /* \"#utility.yul\":1800:1853   */\n  tag_24\n  jump\t// in\ntag_56:\n    /* \"#utility.yul\":1787:1853   */\n  swap1\n  pop\n    /* \"#utility.yul\":1717:1859   */\n  swap2\n  swap1\n  pop\n  jump\t// out\n    /* \"#utility.yul\":1865:1940   */\ntag_27:\n    /* \"#utility.yul\":1908:1911   */\n  0x00\n    /* \"#utility.yul\":1929:1934   */\n  dup2\n    /* \"#utility.yul\":1922:1934   */\n  swap1\n  pop\n    /* \"#utility.yul\":1865:1940   */\n  swap2\n  swap1\n  pop\n  jump\t// out\n    /* \"#utility.yul\":1946:2215   */\ntag_28:\n    /* \"#utility.yul\":2056:2095   */\n  tag_61\n    /* \"#utility.yul\":2087:2094   */\n  dup4\n    /* \"#utility.yul\":2056:2095   */\n  tag_26\n  jump\t// in\ntag_61:\n    /* \"#utility.yul\":2117:2208   */\n  tag_62\n    /* \"#utility.yul\":2166:2207   */\n  tag_63\n    /* \"#utility.yul\":2190:2206   */\n  dup3\n    /* \"#utility.yul\":2166:2207   */\n  tag_27\n  jump\t// in\ntag_63:\n    /* \"#utility.yul\":2158:2164   */\n  dup5\n    /* \"#utility.yul\":2151:2155   */\n  dup5\n    /* \"#utility.yul\":2145:2156   */\n  sload\n    /* \"#utility.yul\":2117:2208   */\n  tag_23\n  jump\t// in\ntag_62:\n    /* \"#utility.yul\":2111:2115   */\n  dup3\n    /* \"#utility.yul\":2104:2209   */\n  sstore\n    /* \"#utility.yul\":2022:2215   */\n  pop\n    /* \"#utility.yul\":1946:2215   */\n  pop\n  pop\n  pop\n  jump\t// out\n    /* \"#utility.yul\":2221:2294   */\ntag_29:\n    /* \"#utility.yul\":2266:2269   */\n  0x00\n    /* \"#utility.yul\":2221:2294   */\n  swap1\n  jump\t// out\n    /* \"#utility.yul\":2300:2489   */\ntag_30:\n    /* \"#utility.yul\":2377:2409   */\n  tag_66\n  tag_29\n  jump\t// in\ntag_66:\n    /* \"#utility.yul\":2418:2483   */\n  tag_67\n    /* \"#utility.yul\":2476:2482   */\n  dup2\n    /* \"#utility.yul\":2468:2474   */\n  dup5\n    /* \"#utility.yul\":2462:2466   */\n  dup5\n    /* \"#utility.yul\":2418:2483   */\n  tag_28\n  jump\t// in\ntag_67:\n    /* \"#utility.yul\":2353:2489   */\n  pop\n    /* \"#utility.yul\":2300:2489   */\n  pop\n  pop\n  jump\t// out\n    /* \"#utility.yul\":2495:2681   */\ntag_31:\n    /* \"#utility.yul\":2555:2675   */\ntag_69:\n    /* \"#utility.yul\":2572:2575   */\n  dup2\n    /* \"#utility.yul\":2565:2570   */\n  dup2\n    /* \"#utility.yul\":2562:2576   */\n  lt\n    /* \"#utility.yul\":2555:2675   */\n  iszero\n  tag_71\n  jumpi\n    /* \"#utility.yul\":2626:2665   */\n  tag_72\n    /* \"#utility.yul\":2663:2664   */\n  0x00\n    /* \"#utility.yul\":2656:2661   */\n  dup3\n    /* \"#utility.yul\":2626:2665   */\n  tag_30\n  jump\t// in\ntag_72:\n    /* \"#utility.yul\":2599:2600   */\n  0x01\n    /* \"#utility.yul\":2592:2597   */\n  dup2\n    /* \"#utility.yul\":2588:2601   */\n  add\n    /* \"#utility.yul\":2579:2601   */\n  swap1\n  pop\n    /* \"#utility.yul\":2555:2675   */\n  jump(tag_69)\ntag_71:\n    /* \"#utility.yul\":2495:2681   */\n  pop\n  pop\n  jump\t// out\n    /* \"#utility.yul\":2687:3230   */\ntag_32:\n    /* \"#utility.yul\":2788:2790   */\n  0x1f\n    /* \"#utility.yul\":2783:2786   */\n  dup3\n    /* \"#utility.yul\":2780:2791   */\n  gt\n    /* \"#utility.yul\":2777:3223   */\n  iszero\n  tag_74\n  jumpi\n    /* \"#utility.yul\":2822:2860   */\n  tag_75\n    /* \"#utility.yul\":2854:2859   */\n  dup2\n    /* \"#utility.yul\":2822:2860   */\n  tag_20\n  jump\t// in\ntag_75:\n    /* \"#utility.yul\":2906:2935   */\n  tag_76\n    /* \"#utility.yul\":2924:2934   */\n  dup5\n    /* \"#utility.yul\":2906:2935   */\n  tag_21\n  jump\t// in\ntag_76:\n    /* \"#utility.yul\":2896:2904   */\n  dup2\n    /* \"#utility.yul\":2892:2936   */\n  add\n    /* \"#utility.yul\":3089:3091   */\n  0x20\n    /* \"#utility.yul\":3077:3087   */\n  dup6\n    /* \"#utility.yul\":3074:3092   */\n  lt\n    /* \"#utility.yul\":3071:3120   */\n  iszero\n  tag_77\n  jumpi\n    /* \"#utility.yul\":3110:3118   */\n  dup2\n    /* \"#utility.yul\":3095:3118   */\n  swap1\n  pop\n    /* \"#utility.yul\":3071:3120   */\ntag_77:\n    /* \"#utility.yul\":3133:3213   */\n  tag_78\n    /* \"#utility.yul\":3189:3211   */\n  tag_79\n    /* \"#utility.yul\":3207:3210   */\n  dup6\n    /* \"#utility.yul\":3189:3211   */\n  tag_21\n  jump\t// in\ntag_79:\n    /* \"#utility.yul\":3179:3187   */\n  dup4\n    /* \"#utility.yul\":3175:3212   */\n  add\n    /* \"#utility.yul\":3162:3173   */\n  dup3\n    /* \"#utility.yul\":3133:3213   */\n  tag_31\n  jump\t// in\ntag_78:\n    /* \"#utility.yul\":2792:3223   */\n  pop\n  pop\n    /* \"#utility.yul\":2777:3223   */\ntag_74:\n    /* \"#utility.yul\":2687:3230   */\n  pop\n  pop\n  pop\n  jump\t// out\n    /* \"#utility.yul\":3236:3353   */\ntag_33:\n    /* \"#utility.yul\":3290:3298   */\n  0x00\n    /* \"#utility.yul\":3340:3345   */\n  dup3\n    /* \"#utility.yul\":3334:3338   */\n  dup3\n    /* \"#utility.yul\":3330:3346   */\n  shr\n    /* \"#utility.yul\":3309:3346   */\n  swap1\n  pop\n    /* \"#utility.yul\":3236:3353   */\n  swap3\n  swap2\n  pop\n  pop\n  jump\t// out\n    /* \"#utility.yul\":3359:3528   */\ntag_34:\n    /* \"#utility.yul\":3403:3409   */\n  0x00\n    /* \"#utility.yul\":3436:3487   */\n  tag_82\n    /* \"#utility.yul\":3484:3485   */\n  0x00\n    /* \"#utility.yul\":3480:3486   */\n  not\n    /* \"#utility.yul\":3472:3477   */\n  dup5\n    /* \"#utility.yul\":3469:3470   */\n  0x08\n    /* \"#utility.yul\":3465:3478   */\n  mul\n    /* \"#utility.yul\":3436:3487   */\n  tag_33\n  jump\t// in\ntag_82:\n    /* \"#utility.yul\":3432:3488   */\n  not\n    /* \"#utility.yul\":3517:3521   */\n  dup1\n    /* \"#utility.yul\":3511:3515   */\n  dup4\n    /* \"#utility.yul\":3507:3522   */\n  and\n    /* \"#utility.yul\":3497:3522   */\n  swap2\n  pop\n    /* \"#utility.yul\":3410:3528   */\n  pop\n    /* \"#utility.yul\":3359:3528   */\n  swap3\n  swap2\n  pop\n  pop\n  jump\t// out\n    /* \"#utility.yul\":3533:3828   */\ntag_35:\n    /* \"#utility.yul\":3609:3613   */\n  0x00\n    /* \"#utility.yul\":3755:3784   */\n  tag_84\n    /* \"#utility.yul\":3780:3783   */\n  dup4\n    /* \"#utility.yul\":3774:3778   */\n  dup4\n    /* \"#utility.yul\":3755:3784   */\n  tag_34\n  jump\t// in\ntag_84:\n    /* \"#utility.yul\":3747:3784   */\n  swap2\n  pop\n    /* \"#utility.yul\":3817:3820   */\n  dup3\n    /* \"#utility.yul\":3814:3815   */\n  0x02\n    /* \"#utility.yul\":3810:3821   */\n  mul\n    /* \"#utility.yul\":3804:3808   */\n  dup3\n    /* \"#utility.yul\":3801:3822   */\n  or\n    /* \"#utility.yul\":3793:3822   */\n  swap1\n  pop\n    /* \"#utility.yul\":3533:3828   */\n  swap3\n  swap2\n  pop\n  pop\n  jump\t// out\n    /* \"#utility.yul\":3833:5228   */\ntag_2:\n    /* \"#utility.yul\":3950:3987   */\n  tag_86\n    /* \"#utility.yul\":3983:3986   */\n  dup3\n    /* \"#utility.yul\":3950:3987   */\n  tag_16\n  jump\t// in\ntag_86:\n    /* \"#utility.yul\":4052:4070   */\n  0xffffffffffffffff\n    /* \"#utility.yul\":4044:4050   */\n  dup2\n    /* \"#utility.yul\":4041:4071   */\n  gt\n    /* \"#utility.yul\":4038:4094   */\n  iszero\n  tag_87\n  jumpi\n    /* \"#utility.yul\":4074:4092   */\n  tag_88\n  tag_17\n  jump\t// in\ntag_88:\n    /* \"#utility.yul\":4038:4094   */\ntag_87:\n    /* \"#utility.yul\":4118:4156   */\n  tag_89\n    /* \"#utility.yul\":4150:4154   */\n  dup3\n    /* \"#utility.yul\":4144:4155   */\n  sload\n    /* \"#utility.yul\":4118:4156   */\n  tag_19\n  jump\t// in\ntag_89:\n    /* \"#utility.yul\":4203:4270   */\n  tag_90\n    /* \"#utility.yul\":4263:4269   */\n  dup3\n    /* \"#utility.yul\":4255:4261   */\n  dup3\n    /* \"#utility.yul\":4249:4253   */\n  dup6\n    /* \"#utility.yul\":4203:4270   */\n  tag_32\n  jump\t// in\ntag_90:\n    /* \"#utility.yul\":4297:4298   */\n  0x00\n    /* \"#utility.yul\":4321:4325   */\n  0x20\n    /* \"#utility.yul\":4308:4325   */\n  swap1\n  pop\n    /* \"#utility.yul\":4353:4355   */\n  0x1f\n    /* \"#utility.yul\":4345:4351   */\n  dup4\n    /* \"#utility.yul\":4342:4356   */\n  gt\n    /* \"#utility.yul\":4370:4371   */\n  0x01\n    /* \"#utility.yul\":4365:4983   */\n  dup2\n  eq\n  tag_92\n  jumpi\n    /* \"#utility.yul\":5027:5028   */\n  0x00\n    /* \"#utility.yul\":5044:5050   */\n  dup5\n    /* \"#utility.yul\":5041:5118   */\n  iszero\n  tag_93\n  jumpi\n    /* \"#utility.yul\":5093:5102   */\n  dup3\n    /* \"#utility.yul\":5088:5091   */\n  dup8\n    /* \"#utility.yul\":5084:5103   */\n  add\n    /* \"#utility.yul\":5078:5104   */\n  mload\n    /* \"#utility.yul\":5069:5104   */\n  swap1\n  pop\n    /* \"#utility.yul\":5041:5118   */\ntag_93:\n    /* \"#utility.yul\":5144:5211   */\n  tag_94\n    /* \"#utility.yul\":5204:5210   */\n  dup6\n    /* \"#utility.yul\":5197:5202   */\n  dup3\n    /* \"#utility.yul\":5144:5211   */\n  tag_35\n  jump\t// in\ntag_94:\n    /* \"#utility.yul\":5138:5142   */\n  dup7\n    /* \"#utility.yul\":5131:5212   */\n  sstore\n    /* \"#utility.yul\":5000:5222   */\n  pop\n    /* \"#utility.yul\":4335:5222   */\n  jump(tag_91)\n    /* \"#utility.yul\":4365:4983   */\ntag_92:\n    /* \"#utility.yul\":4417:4421   */\n  0x1f\n    /* \"#utility.yul\":4413:4422   */\n  not\n    /* \"#utility.yul\":4405:4411   */\n  dup5\n    /* \"#utility.yul\":4401:4423   */\n  and\n    /* \"#utility.yul\":4451:4488   */\n  tag_95\n    /* \"#utility.yul\":4483:4487   */\n  dup7\n    /* \"#utility.yul\":4451:4488   */\n  tag_20\n  jump\t// in\ntag_95:\n    /* \"#utility.yul\":4510:4511   */\n  0x00\n    /* \"#utility.yul\":4524:4732   */\ntag_96:\n    /* \"#utility.yul\":4538:4545   */\n  dup3\n    /* \"#utility.yul\":4535:4536   */\n  dup2\n    /* \"#utility.yul\":4532:4546   */\n  lt\n    /* \"#utility.yul\":4524:4732   */\n  iszero\n  tag_98\n  jumpi\n    /* \"#utility.yul\":4617:4626   */\n  dup5\n    /* \"#utility.yul\":4612:4615   */\n  dup10\n    /* \"#utility.yul\":4608:4627   */\n  add\n    /* \"#utility.yul\":4602:4628   */\n  mload\n    /* \"#utility.yul\":4594:4600   */\n  dup3\n    /* \"#utility.yul\":4587:4629   */\n  sstore\n    /* \"#utility.yul\":4668:4669   */\n  0x01\n    /* \"#utility.yul\":4660:4666   */\n  dup3\n    /* \"#utility.yul\":4656:4670   */\n  add\n    /* \"#utility.yul\":4646:4670   */\n  swap2\n  pop\n    /* \"#utility.yul\":4715:4717   */\n  0x20\n    /* \"#utility.yul\":4704:4713   */\n  dup6\n    /* \"#utility.yul\":4700:4718   */\n  add\n    /* \"#utility.yul\":4687:4718   */\n  swap5\n  pop\n    /* \"#utility.yul\":4561:4565   */\n  0x20\n    /* \"#utility.yul\":4558:4559   */\n  dup2\n    /* \"#utility.yul\":4554:4566   */\n  add\n    /* \"#utility.yul\":4549:4566   */\n  swap1\n  pop\n    /* \"#utility.yul\":4524:4732   */\n  jump(tag_96)\ntag_98:\n    /* \"#utility.yul\":4760:4766   */\n  dup7\n    /* \"#utility.yul\":4751:4758   */\n  dup4\n    /* \"#utility.yul\":4748:4767   */\n  lt\n    /* \"#utility.yul\":4745:4924   */\n  iszero\n  tag_99\n  jumpi\n    /* \"#utility.yul\":4818:4827   */\n  dup5\n    /* \"#utility.yul\":4813:4816   */\n  dup10\n    /* \"#utility.yul\":4809:4828   */\n  add\n    /* \"#utility.yul\":4803:4829   */\n  mload\n    /* \"#utility.yul\":4861:4909   */\n  tag_100\n    /* \"#utility.yul\":4903:4907   */\n  0x1f\n    /* \"#utility.yul\":4895:4901   */\n  dup10\n    /* \"#utility.yul\":4891:4908   */\n  and\n    /* \"#utility.yul\":4880:4889   */\n  dup3\n    /* \"#utility.yul\":4861:4909   */\n  tag_34\n  jump\t// in\ntag_100:\n    /* \"#utility.yul\":4853:4859   */\n  dup4\n    /* \"#utility.yul\":4846:4910   */\n  sstore\n    /* \"#utility.yul\":4768:4924   */\n  pop\n    /* \"#utility.yul\":4745:4924   */\ntag_99:\n    /* \"#utility.yul\":4970:4971   */\n  0x01\n    /* \"#utility.yul\":4966:4967   */\n  0x02\n    /* \"#utility.yul\":4958:4964   */\n  dup9\n    /* \"#utility.yul\":4954:4968   */\n  mul\n    /* \"#utility.yul\":4950:4972   */\n  add\n    /* \"#utility.yul\":4944:4948   */\n  dup9\n    /* \"#utility.yul\":4937:4973   */\n  sstore\n    /* \"#utility.yul\":4372:4983   */\n  pop\n  pop\n  pop\n    /* \"#utility.yul\":4335:5222   */\ntag_91:\n  pop\n    /* \"#utility.yul\":3925:5228   */\n  pop\n  pop\n  pop\n    /* \"#utility.yul\":3833:5228   */\n  pop\n  pop\n  jump\t// out\n    /* \"#utility.yul\":5234:5382   */\ntag_36:\n    /* \"#utility.yul\":5336:5347   */\n  0x00\n    /* \"#utility.yul\":5373:5376   */\n  dup2\n    /* \"#utility.yul\":5358:5376   */\n  swap1\n  pop\n    /* \"#utility.yul\":5234:5382   */\n  swap3\n  swap2\n  pop\n  pop\n  jump\t// out\n    /* \"#utility.yul\":5388:5542   */\ntag_37:\n    /* \"#utility.yul\":5528:5534   */\n  0x3078616100000000000000000000000000000000000000000000000000000000\n    /* \"#utility.yul\":5524:5525   */\n  0x00\n    /* \"#utility.yul\":5516:5522   */\n  dup3\n    /* \"#utility.yul\":5512:5526   */\n  add\n    /* \"#utility.yul\":5505:5535   */\n  mstore\n    /* \"#utility.yul\":5388:5542   */\n  pop\n  jump\t// out\n    /* \"#utility.yul\":5548:5948   */\ntag_38:\n    /* \"#utility.yul\":5708:5711   */\n  0x00\n    /* \"#utility.yul\":5729:5813   */\n  tag_104\n    /* \"#utility.yul\":5811:5812   */\n  0x04\n    /* \"#utility.yul\":5806:5809   */\n  dup4\n    /* \"#utility.yul\":5729:5813   */\n  tag_36\n  jump\t// in\ntag_104:\n    /* \"#utility.yul\":5722:5813   */\n  swap2\n  pop\n    /* \"#utility.yul\":5822:5915   */\n  tag_105\n    /* \"#utility.yul\":5911:5914   */\n  dup3\n    /* \"#utility.yul\":5822:5915   */\n  tag_37\n  jump\t// in\ntag_105:\n    /* \"#utility.yul\":5940:5941   */\n  0x04\n    /* \"#utility.yul\":5935:5938   */\n  dup3\n    /* \"#utility.yul\":5931:5942   */\n  add\n    /* \"#utility.yul\":5924:5942   */\n  swap1\n  pop\n    /* \"#utility.yul\":5548:5948   */\n  swap2\n  swap1\n  pop\n  jump\t// out\n    /* \"#utility.yul\":5954:6335   */\ntag_6:\n    /* \"#utility.yul\":6139:6142   */\n  0x00\n    /* \"#utility.yul\":6161:6309   */\n  tag_107\n    /* \"#utility.yul\":6305:6308   */\n  dup3\n    /* \"#utility.yul\":6161:6309   */\n  tag_38\n  jump\t// in\ntag_107:\n    /* \"#utility.yul\":6154:6309   */\n  swap2\n  pop\n    /* \"#utility.yul\":6326:6329   */\n  dup2\n    /* \"#utility.yul\":6319:6329   */\n  swap1\n  pop\n    /* \"#utility.yul\":5954:6335   */\n  swap2\n  swap1\n  pop\n  jump\t// out\n    /* \"contracts/abiTest.sol\":70:3023  contract AbiTest {... */\ntag_8:\n  dataSize(sub_0)\n  dup1\n  dataOffset(sub_0)\n  0x00\n  codecopy\n  0x00\n  return\nstop\n\nsub_0: assembly {\n        /* \"contracts/abiTest.sol\":70:3023  contract AbiTest {... */\n      mstore(0x40, 0x80)\n      callvalue\n      dup1\n      iszero\n      tag_1\n      jumpi\n      0x00\n      dup1\n      revert\n    tag_1:\n      pop\n      jumpi(tag_2, lt(calldatasize, 0x04))\n      shr(0xe0, calldataload(0x00))\n      dup1\n      0xbac1d572\n      gt\n      tag_15\n      jumpi\n      dup1\n      0xbac1d572\n      eq\n      tag_9\n      jumpi\n      dup1\n      0xbd14598f\n      eq\n      tag_10\n      jumpi\n      dup1\n      0xbed7532c\n      eq\n      tag_11\n      jumpi\n      dup1\n      0xd6abfc7b\n      eq\n      tag_12\n      jumpi\n      dup1\n      0xf20f1e9e\n      eq\n      tag_13\n      jumpi\n      dup1\n      0xf7d13ab0\n      eq\n      tag_14\n      jumpi\n      jump(tag_2)\n    tag_15:\n      dup1\n      0x10c8c11d\n      eq\n      tag_3\n      jumpi\n      dup1\n      0x2b9c6157\n      eq\n      tag_4\n      jumpi\n      dup1\n      0x6a627842\n      eq\n      tag_5\n      jumpi\n      dup1\n      0x6b426eec\n      eq\n      tag_6\n      jumpi\n      dup1\n      0xb55ffc04\n      eq\n      tag_7\n      jumpi\n      dup1\n      0xba1663ca\n      eq\n      tag_8\n      jumpi\n    tag_2:\n      0x00\n      dup1\n      revert\n        /* \"contracts/abiTest.sol\":1989:2046  bytes32 public _msg = keccak256(abi.encodePacked(\"0xaa\")) */\n    tag_3:\n      tag_16\n      tag_17\n      jump\t// in\n    tag_16:\n      mload(0x40)\n      tag_18\n      swap2\n      swap1\n      tag_19\n      jump\t// in\n    tag_18:\n      mload(0x40)\n      dup1\n      swap2\n      sub\n      swap1\n      return\n        /* \"contracts/abiTest.sol\":2703:3021  function callwithSignature() external returns (bool, bytes memory) {... */\n    tag_4:\n      tag_20\n      tag_21\n      jump\t// in\n    tag_20:\n      mload(0x40)\n      tag_22\n      swap3\n      swap2\n      swap1\n      tag_23\n      jump\t// in\n    tag_22:\n      mload(0x40)\n      dup1\n      swap2\n      sub\n      swap1\n      return\n        /* \"contracts/abiTest.sol\":2509:2579  function mint(address to) external {... */\n    tag_5:\n      tag_24\n      0x04\n      dup1\n      calldatasize\n      sub\n      dup2\n      add\n      swap1\n      tag_25\n      swap2\n      swap1\n      tag_26\n      jump\t// in\n    tag_25:\n      tag_27\n      jump\t// in\n    tag_24:\n      stop\n        /* \"contracts/abiTest.sol\":2585:2697  function checkMethodId() public pure returns (bytes4) {... */\n    tag_6:\n      tag_28\n      tag_29\n      jump\t// in\n    tag_28:\n      mload(0x40)\n      tag_30\n      swap2\n      swap1\n      tag_31\n      jump\t// in\n    tag_30:\n      mload(0x40)\n      dup1\n      swap2\n      sub\n      swap1\n      return\n        /* \"contracts/abiTest.sol\":739:1000  function encode4() public view returns (bytes memory result) {... */\n    tag_7:\n      tag_32\n      tag_33\n      jump\t// in\n    tag_32:\n      mload(0x40)\n      tag_34\n      swap2\n      swap1\n      tag_35\n      jump\t// in\n    tag_34:\n      mload(0x40)\n      dup1\n      swap2\n      sub\n      swap1\n      return\n        /* \"contracts/abiTest.sol\":1558:1671  function hash1() public view returns (bytes32) {... */\n    tag_8:\n      tag_36\n      tag_37\n      jump\t// in\n    tag_36:\n      mload(0x40)\n      tag_38\n      swap2\n      swap1\n      tag_19\n      jump\t// in\n    tag_38:\n      mload(0x40)\n      dup1\n      swap2\n      sub\n      swap1\n      return\n        /* \"contracts/abiTest.sol\":1006:1359  function decode1(bytes memory data)... */\n    tag_9:\n      tag_39\n      0x04\n      dup1\n      calldatasize\n      sub\n      dup2\n      add\n      swap1\n      tag_40\n      swap2\n      swap1\n      tag_41\n      jump\t// in\n    tag_40:\n      tag_42\n      jump\t// in\n    tag_39:\n      mload(0x40)\n      tag_43\n      swap5\n      swap4\n      swap3\n      swap2\n      swap1\n      tag_44\n      jump\t// in\n    tag_43:\n      mload(0x40)\n      dup1\n      swap2\n      sub\n      swap1\n      return\n        /* \"contracts/abiTest.sol\":235:353  function encode() public view returns (bytes memory result) {... */\n    tag_10:\n      tag_45\n      tag_46\n      jump\t// in\n    tag_45:\n      mload(0x40)\n      tag_47\n      swap2\n      swap1\n      tag_35\n      jump\t// in\n    tag_47:\n      mload(0x40)\n      dup1\n      swap2\n      sub\n      swap1\n      return\n        /* \"contracts/abiTest.sol\":359:484  function encode2() public view returns (bytes memory result) {... */\n    tag_11:\n      tag_48\n      tag_49\n      jump\t// in\n    tag_48:\n      mload(0x40)\n      tag_50\n      swap2\n      swap1\n      tag_35\n      jump\t// in\n    tag_50:\n      mload(0x40)\n      dup1\n      swap2\n      sub\n      swap1\n      return\n        /* \"contracts/abiTest.sol\":2076:2208  function weak(string memory string1) public view returns (bool) {... */\n    tag_12:\n      tag_51\n      0x04\n      dup1\n      calldatasize\n      sub\n      dup2\n      add\n      swap1\n      tag_52\n      swap2\n      swap1\n      tag_53\n      jump\t// in\n    tag_52:\n      tag_54\n      jump\t// in\n    tag_51:\n      mload(0x40)\n      tag_55\n      swap2\n      swap1\n      tag_56\n      jump\t// in\n    tag_55:\n      mload(0x40)\n      dup1\n      swap2\n      sub\n      swap1\n      return\n        /* \"contracts/abiTest.sol\":1791:1983  function hash2(... */\n    tag_13:\n      tag_57\n      0x04\n      dup1\n      calldatasize\n      sub\n      dup2\n      add\n      swap1\n      tag_58\n      swap2\n      swap1\n      tag_59\n      jump\t// in\n    tag_58:\n      tag_60\n      jump\t// in\n    tag_57:\n      mload(0x40)\n      tag_61\n      swap2\n      swap1\n      tag_19\n      jump\t// in\n    tag_61:\n      mload(0x40)\n      dup1\n      swap2\n      sub\n      swap1\n      return\n        /* \"contracts/abiTest.sol\":490:733  function encode3() public view returns (bytes memory result) {... */\n    tag_14:\n      tag_62\n      tag_63\n      jump\t// in\n    tag_62:\n      mload(0x40)\n      tag_64\n      swap2\n      swap1\n      tag_35\n      jump\t// in\n    tag_64:\n      mload(0x40)\n      dup1\n      swap2\n      sub\n      swap1\n      return\n        /* \"contracts/abiTest.sol\":1989:2046  bytes32 public _msg = keccak256(abi.encodePacked(\"0xaa\")) */\n    tag_17:\n      sload(0x05)\n      dup2\n      jump\t// out\n        /* \"contracts/abiTest.sol\":2703:3021  function callwithSignature() external returns (bool, bytes memory) {... */\n    tag_21:\n        /* \"contracts/abiTest.sol\":2750:2754  bool */\n      0x00\n        /* \"contracts/abiTest.sol\":2756:2768  bytes memory */\n      0x60\n        /* \"contracts/abiTest.sol\":2781:2793  bool success */\n      0x00\n        /* \"contracts/abiTest.sol\":2795:2812  bytes memory data */\n      dup1\n        /* \"contracts/abiTest.sol\":2824:2828  this */\n      address\n        /* \"contracts/abiTest.sol\":2816:2834  address(this).call */\n      0xffffffffffffffffffffffffffffffffffffffff\n      and\n        /* \"contracts/abiTest.sol\":2888:2898  0x6a627842 */\n      0x6a627842\n        /* \"contracts/abiTest.sol\":2916:2958  0x2c44b726ADF1963cA47Af88B284C06f30380fC78 */\n      0x2c44b726adf1963ca47af88b284c06f30380fc78\n        /* \"contracts/abiTest.sol\":2848:2972  abi.encodeWithSelector(... */\n      add(0x24, mload(0x40))\n      tag_66\n      swap2\n      swap1\n      tag_67\n      jump\t// in\n    tag_66:\n      mload(0x40)\n      0x20\n      dup2\n      dup4\n      sub\n      sub\n      dup2\n      mstore\n      swap1\n      0x40\n      mstore\n      swap1\n      0xe0\n      shl\n      0x20\n      dup3\n      add\n      dup1\n      mload\n      0xffffffffffffffffffffffffffffffffffffffffffffffffffffffff\n      dup4\n      dup2\n      dup4\n      and\n      or\n      dup4\n      mstore\n      pop\n      pop\n      pop\n      pop\n        /* \"contracts/abiTest.sol\":2816:2982  address(this).call(... */\n      mload(0x40)\n      tag_68\n      swap2\n      swap1\n      tag_69\n      jump\t// in\n    tag_68:\n      0x00\n      mload(0x40)\n      dup1\n      dup4\n      sub\n      dup2\n      0x00\n      dup7\n      gas\n      call\n      swap2\n      pop\n      pop\n      returndatasize\n      dup1\n      0x00\n      dup2\n      eq\n      tag_72\n      jumpi\n      mload(0x40)\n      swap2\n      pop\n      and(add(returndatasize, 0x3f), not(0x1f))\n      dup3\n      add\n      0x40\n      mstore\n      returndatasize\n      dup3\n      mstore\n      returndatasize\n      0x00\n      0x20\n      dup5\n      add\n      returndatacopy\n      jump(tag_71)\n    tag_72:\n      0x60\n      swap2\n      pop\n    tag_71:\n      pop\n        /* \"contracts/abiTest.sol\":2780:2982  (bool success, bytes memory data) = address(this).call(... */\n      swap2\n      pop\n      swap2\n      pop\n        /* \"contracts/abiTest.sol\":3000:3007  success */\n      dup2\n        /* \"contracts/abiTest.sol\":3009:3013  data */\n      dup2\n        /* \"contracts/abiTest.sol\":2992:3014  return (success, data) */\n      swap4\n      pop\n      swap4\n      pop\n      pop\n      pop\n        /* \"contracts/abiTest.sol\":2703:3021  function callwithSignature() external returns (bool, bytes memory) {... */\n      swap1\n      swap2\n      jump\t// out\n        /* \"contracts/abiTest.sol\":2509:2579  function mint(address to) external {... */\n    tag_27:\n        /* \"contracts/abiTest.sol\":2559:2572  Log(msg.data) */\n      0xafabcf2dd47e06a477a89e49c03f8ebe8e0a7e94f775b25bbb24227c9d0110b2\n        /* \"contracts/abiTest.sol\":2563:2571  msg.data */\n      0x00\n      calldatasize\n        /* \"contracts/abiTest.sol\":2559:2572  Log(msg.data) */\n      mload(0x40)\n      tag_74\n      swap3\n      swap2\n      swap1\n      tag_75\n      jump\t// in\n    tag_74:\n      mload(0x40)\n      dup1\n      swap2\n      sub\n      swap1\n      log1\n        /* \"contracts/abiTest.sol\":2509:2579  function mint(address to) external {... */\n      pop\n      jump\t// out\n        /* \"contracts/abiTest.sol\":2585:2697  function checkMethodId() public pure returns (bytes4) {... */\n    tag_29:\n        /* \"contracts/abiTest.sol\":2631:2637  bytes4 */\n      0x00\n        /* \"contracts/abiTest.sol\":2663:2689  keccak256(\"mint(address)\") */\n      0x6a627842f752de95745ef8f3ca67858982b5f585d752f8163e5855050041cb3c\n        /* \"contracts/abiTest.sol\":2649:2690  return bytes4(keccak256(\"mint(address)\")) */\n      swap1\n      pop\n        /* \"contracts/abiTest.sol\":2585:2697  function checkMethodId() public pure returns (bytes4) {... */\n      swap1\n      jump\t// out\n        /* \"contracts/abiTest.sol\":739:1000  function encode4() public view returns (bytes memory result) {... */\n    tag_33:\n        /* \"contracts/abiTest.sol\":779:798  bytes memory result */\n      0x60\n        /* \"contracts/abiTest.sol\":862:912  keccak256(\"foo(unit256,address,string,unit256[])\") */\n      0xcc4decd87843118ac7919b8d43c3881a878e588562c10d9c65a231b5971b6c77\n        /* \"contracts/abiTest.sol\":927:928  x */\n      sload(0x00)\n        /* \"contracts/abiTest.sol\":942:946  addr */\n      0x01\n      0x00\n      swap1\n      sload\n      swap1\n      0x0100\n      exp\n      swap1\n      div\n      0xffffffffffffffffffffffffffffffffffffffff\n      and\n        /* \"contracts/abiTest.sol\":960:964  name */\n      0x02\n        /* \"contracts/abiTest.sol\":978:983  array */\n      0x03\n        /* \"contracts/abiTest.sol\":819:993  abi.encodeWithSelector(... */\n      add(0x24, mload(0x40))\n      tag_78\n      swap5\n      swap4\n      swap3\n      swap2\n      swap1\n      tag_79\n      jump\t// in\n    tag_78:\n      mload(0x40)\n      0x20\n      dup2\n      dup4\n      sub\n      sub\n      dup2\n      mstore\n      swap1\n      0x40\n      mstore\n      swap1\n      not(0xffffffffffffffffffffffffffffffffffffffffffffffffffffffff)\n      and\n      0x20\n      dup3\n      add\n      dup1\n      mload\n      0xffffffffffffffffffffffffffffffffffffffffffffffffffffffff\n      dup4\n      dup2\n      dup4\n      and\n      or\n      dup4\n      mstore\n      pop\n      pop\n      pop\n      pop\n        /* \"contracts/abiTest.sol\":810:993  result = abi.encodeWithSelector(... */\n      swap1\n      pop\n        /* \"contracts/abiTest.sol\":739:1000  function encode4() public view returns (bytes memory result) {... */\n      swap1\n      jump\t// out\n        /* \"contracts/abiTest.sol\":1558:1671  function hash1() public view returns (bytes32) {... */\n    tag_37:\n        /* \"contracts/abiTest.sol\":1596:1603  bytes32 */\n      0x00\n        /* \"contracts/abiTest.sol\":1649:1650  x */\n      dup1\n      sload\n        /* \"contracts/abiTest.sol\":1652:1656  name */\n      0x02\n        /* \"contracts/abiTest.sol\":1658:1662  addr */\n      0x01\n      0x00\n      swap1\n      sload\n      swap1\n      0x0100\n      exp\n      swap1\n      div\n      0xffffffffffffffffffffffffffffffffffffffff\n      and\n        /* \"contracts/abiTest.sol\":1632:1663  abi.encodePacked(x, name, addr) */\n      add(0x20, mload(0x40))\n      tag_81\n      swap4\n      swap3\n      swap2\n      swap1\n      tag_82\n      jump\t// in\n    tag_81:\n      mload(0x40)\n      0x20\n      dup2\n      dup4\n      sub\n      sub\n      dup2\n      mstore\n      swap1\n      0x40\n      mstore\n        /* \"contracts/abiTest.sol\":1622:1664  keccak256(abi.encodePacked(x, name, addr)) */\n      dup1\n      mload\n      swap1\n      0x20\n      add\n      keccak256\n        /* \"contracts/abiTest.sol\":1615:1664  return keccak256(abi.encodePacked(x, name, addr)) */\n      swap1\n      pop\n        /* \"contracts/abiTest.sol\":1558:1671  function hash1() public view returns (bytes32) {... */\n      swap1\n      jump\t// out\n        /* \"contracts/abiTest.sol\":1006:1359  function decode1(bytes memory data)... */\n    tag_42:\n        /* \"contracts/abiTest.sol\":1100:1110  uint256 dx */\n      0x00\n        /* \"contracts/abiTest.sol\":1124:1137  address daddr */\n      dup1\n        /* \"contracts/abiTest.sol\":1151:1170  string memory dname */\n      0x60\n        /* \"contracts/abiTest.sol\":1184:1208  uint256[2] memory darray */\n      tag_83\n      tag_84\n      jump\t// in\n    tag_83:\n        /* \"contracts/abiTest.sol\":1286:1290  data */\n      dup5\n        /* \"contracts/abiTest.sol\":1262:1352  abi.decode(... */\n      dup1\n      0x20\n      add\n      swap1\n      mload\n      dup2\n      add\n      swap1\n      tag_86\n      swap2\n      swap1\n      tag_87\n      jump\t// in\n    tag_86:\n        /* \"contracts/abiTest.sol\":1233:1352  (dx, daddr, dname, darray) = abi.decode(... */\n      dup1\n      swap5\n      pop\n      dup2\n      swap6\n      pop\n      dup3\n      swap7\n      pop\n      dup4\n      swap8\n      pop\n      pop\n      pop\n      pop\n      pop\n        /* \"contracts/abiTest.sol\":1006:1359  function decode1(bytes memory data)... */\n      swap2\n      swap4\n      pop\n      swap2\n      swap4\n      jump\t// out\n        /* \"contracts/abiTest.sol\":235:353  function encode() public view returns (bytes memory result) {... */\n    tag_46:\n        /* \"contracts/abiTest.sol\":274:293  bytes memory result */\n      0x60\n        /* \"contracts/abiTest.sol\":325:326  x */\n      sload(0x00)\n        /* \"contracts/abiTest.sol\":328:332  addr */\n      0x01\n      0x00\n      swap1\n      sload\n      swap1\n      0x0100\n      exp\n      swap1\n      div\n      0xffffffffffffffffffffffffffffffffffffffff\n      and\n        /* \"contracts/abiTest.sol\":334:338  name */\n      0x02\n        /* \"contracts/abiTest.sol\":340:345  array */\n      0x03\n        /* \"contracts/abiTest.sol\":314:346  abi.encode(x, addr, name, array) */\n      add(0x20, mload(0x40))\n      tag_89\n      swap5\n      swap4\n      swap3\n      swap2\n      swap1\n      tag_79\n      jump\t// in\n    tag_89:\n      mload(0x40)\n      0x20\n      dup2\n      dup4\n      sub\n      sub\n      dup2\n      mstore\n      swap1\n      0x40\n      mstore\n        /* \"contracts/abiTest.sol\":305:346  result = abi.encode(x, addr, name, array) */\n      swap1\n      pop\n        /* \"contracts/abiTest.sol\":235:353  function encode() public view returns (bytes memory result) {... */\n      swap1\n      jump\t// out\n        /* \"contracts/abiTest.sol\":359:484  function encode2() public view returns (bytes memory result) {... */\n    tag_49:\n        /* \"contracts/abiTest.sol\":399:418  bytes memory result */\n      0x60\n        /* \"contracts/abiTest.sol\":456:457  x */\n      sload(0x00)\n        /* \"contracts/abiTest.sol\":459:463  addr */\n      0x01\n      0x00\n      swap1\n      sload\n      swap1\n      0x0100\n      exp\n      swap1\n      div\n      0xffffffffffffffffffffffffffffffffffffffff\n      and\n        /* \"contracts/abiTest.sol\":465:469  name */\n      0x02\n        /* \"contracts/abiTest.sol\":471:476  array */\n      0x03\n        /* \"contracts/abiTest.sol\":439:477  abi.encodePacked(x, addr, name, array) */\n      add(0x20, mload(0x40))\n      tag_91\n      swap5\n      swap4\n      swap3\n      swap2\n      swap1\n      tag_92\n      jump\t// in\n    tag_91:\n      mload(0x40)\n      0x20\n      dup2\n      dup4\n      sub\n      sub\n      dup2\n      mstore\n      swap1\n      0x40\n      mstore\n        /* \"contracts/abiTest.sol\":430:477  result = abi.encodePacked(x, addr, name, array) */\n      swap1\n      pop\n        /* \"contracts/abiTest.sol\":359:484  function encode2() public view returns (bytes memory result) {... */\n      swap1\n      jump\t// out\n        /* \"contracts/abiTest.sol\":2076:2208  function weak(string memory string1) public view returns (bool) {... */\n    tag_54:\n        /* \"contracts/abiTest.sol\":2134:2138  bool */\n      0x00\n        /* \"contracts/abiTest.sol\":2197:2201  _msg */\n      sload(0x05)\n        /* \"contracts/abiTest.sol\":2184:2191  string1 */\n      dup3\n        /* \"contracts/abiTest.sol\":2167:2192  abi.encodePacked(string1) */\n      add(0x20, mload(0x40))\n      tag_94\n      swap2\n      swap1\n      tag_95\n      jump\t// in\n    tag_94:\n      mload(0x40)\n      0x20\n      dup2\n      dup4\n      sub\n      sub\n      dup2\n      mstore\n      swap1\n      0x40\n      mstore\n        /* \"contracts/abiTest.sol\":2157:2193  keccak256(abi.encodePacked(string1)) */\n      dup1\n      mload\n      swap1\n      0x20\n      add\n      keccak256\n        /* \"contracts/abiTest.sol\":2157:2201  keccak256(abi.encodePacked(string1)) == _msg */\n      eq\n        /* \"contracts/abiTest.sol\":2150:2201  return keccak256(abi.encodePacked(string1)) == _msg */\n      swap1\n      pop\n        /* \"contracts/abiTest.sol\":2076:2208  function weak(string memory string1) public view returns (bool) {... */\n      swap2\n      swap1\n      pop\n      jump\t// out\n        /* \"contracts/abiTest.sol\":1791:1983  function hash2(... */\n    tag_60:\n        /* \"contracts/abiTest.sol\":1905:1912  bytes32 */\n      0x00\n        /* \"contracts/abiTest.sol\":1958:1962  word */\n      dup4\n        /* \"contracts/abiTest.sol\":1964:1967  num */\n      dup4\n        /* \"contracts/abiTest.sol\":1969:1974  _addr */\n      dup4\n        /* \"contracts/abiTest.sol\":1941:1975  abi.encodePacked(word, num, _addr) */\n      add(0x20, mload(0x40))\n      tag_97\n      swap4\n      swap3\n      swap2\n      swap1\n      tag_98\n      jump\t// in\n    tag_97:\n      mload(0x40)\n      0x20\n      dup2\n      dup4\n      sub\n      sub\n      dup2\n      mstore\n      swap1\n      0x40\n      mstore\n        /* \"contracts/abiTest.sol\":1931:1976  keccak256(abi.encodePacked(word, num, _addr)) */\n      dup1\n      mload\n      swap1\n      0x20\n      add\n      keccak256\n        /* \"contracts/abiTest.sol\":1924:1976  return keccak256(abi.encodePacked(word, num, _addr)) */\n      swap1\n      pop\n        /* \"contracts/abiTest.sol\":1791:1983  function hash2(... */\n      swap4\n      swap3\n      pop\n      pop\n      pop\n      jump\t// out\n        /* \"contracts/abiTest.sol\":490:733  function encode3() public view returns (bytes memory result) {... */\n    tag_63:\n        /* \"contracts/abiTest.sol\":530:549  bytes memory result */\n      0x60\n        /* \"contracts/abiTest.sol\":660:661  x */\n      sload(0x00)\n        /* \"contracts/abiTest.sol\":675:679  addr */\n      0x01\n      0x00\n      swap1\n      sload\n      swap1\n      0x0100\n      exp\n      swap1\n      div\n      0xffffffffffffffffffffffffffffffffffffffff\n      and\n        /* \"contracts/abiTest.sol\":693:697  name */\n      0x02\n        /* \"contracts/abiTest.sol\":711:716  array */\n      0x03\n        /* \"contracts/abiTest.sol\":570:726  abi.encodeWithSignature(... */\n      add(0x24, mload(0x40))\n      tag_100\n      swap5\n      swap4\n      swap3\n      swap2\n      swap1\n      tag_79\n      jump\t// in\n    tag_100:\n      mload(0x40)\n      0x20\n      dup2\n      dup4\n      sub\n      sub\n      dup2\n      mstore\n      swap1\n      0x40\n      mstore\n      and(not(0xffffffffffffffffffffffffffffffffffffffffffffffffffffffff), 0xcc4decd800000000000000000000000000000000000000000000000000000000)\n      0x20\n      dup3\n      add\n      dup1\n      mload\n      0xffffffffffffffffffffffffffffffffffffffffffffffffffffffff\n      dup4\n      dup2\n      dup4\n      and\n      or\n      dup4\n      mstore\n      pop\n      pop\n      pop\n      pop\n        /* \"contracts/abiTest.sol\":561:726  result = abi.encodeWithSignature(... */\n      swap1\n      pop\n        /* \"contracts/abiTest.sol\":490:733  function encode3() public view returns (bytes memory result) {... */\n      swap1\n      jump\t// out\n    tag_84:\n      mload(0x40)\n      dup1\n      0x40\n      add\n      0x40\n      mstore\n      dup1\n      0x02\n      swap1\n      0x20\n      dup3\n      mul\n      dup1\n      calldatasize\n      dup4\n      calldatacopy\n      dup1\n      dup3\n      add\n      swap2\n      pop\n      pop\n      swap1\n      pop\n      pop\n      swap1\n      jump\t// out\n        /* \"#utility.yul\":7:84   */\n    tag_101:\n        /* \"#utility.yul\":44:51   */\n      0x00\n        /* \"#utility.yul\":73:78   */\n      dup2\n        /* \"#utility.yul\":62:78   */\n      swap1\n      pop\n        /* \"#utility.yul\":7:84   */\n      swap2\n      swap1\n      pop\n      jump\t// out\n        /* \"#utility.yul\":90:208   */\n    tag_102:\n        /* \"#utility.yul\":177:201   */\n      tag_187\n        /* \"#utility.yul\":195:200   */\n      dup2\n        /* \"#utility.yul\":177:201   */\n      tag_101\n      jump\t// in\n    tag_187:\n        /* \"#utility.yul\":172:175   */\n      dup3\n        /* \"#utility.yul\":165:202   */\n      mstore\n        /* \"#utility.yul\":90:208   */\n      pop\n      pop\n      jump\t// out\n        /* \"#utility.yul\":214:436   */\n    tag_19:\n        /* \"#utility.yul\":307:311   */\n      0x00\n        /* \"#utility.yul\":345:347   */\n      0x20\n        /* \"#utility.yul\":334:343   */\n      dup3\n        /* \"#utility.yul\":330:348   */\n      add\n        /* \"#utility.yul\":322:348   */\n      swap1\n      pop\n        /* \"#utility.yul\":358:429   */\n      tag_189\n        /* \"#utility.yul\":426:427   */\n      0x00\n        /* \"#utility.yul\":415:424   */\n      dup4\n        /* \"#utility.yul\":411:428   */\n      add\n        /* \"#utility.yul\":402:408   */\n      dup5\n        /* \"#utility.yul\":358:429   */\n      tag_102\n      jump\t// in\n    tag_189:\n        /* \"#utility.yul\":214:436   */\n      swap3\n      swap2\n      pop\n      pop\n      jump\t// out\n        /* \"#utility.yul\":442:532   */\n    tag_103:\n        /* \"#utility.yul\":476:483   */\n      0x00\n        /* \"#utility.yul\":519:524   */\n      dup2\n        /* \"#utility.yul\":512:525   */\n      iszero\n        /* \"#utility.yul\":505:526   */\n      iszero\n        /* \"#utility.yul\":494:526   */\n      swap1\n      pop\n        /* \"#utility.yul\":442:532   */\n      swap2\n      swap1\n      pop\n      jump\t// out\n        /* \"#utility.yul\":538:647   */\n    tag_104:\n        /* \"#utility.yul\":619:640   */\n      tag_192\n        /* \"#utility.yul\":634:639   */\n      dup2\n        /* \"#utility.yul\":619:640   */\n      tag_103\n      jump\t// in\n    tag_192:\n        /* \"#utility.yul\":614:617   */\n      dup3\n        /* \"#utility.yul\":607:641   */\n      mstore\n        /* \"#utility.yul\":538:647   */\n      pop\n      pop\n      jump\t// out\n        /* \"#utility.yul\":653:751   */\n    tag_105:\n        /* \"#utility.yul\":704:710   */\n      0x00\n        /* \"#utility.yul\":738:743   */\n      dup2\n        /* \"#utility.yul\":732:744   */\n      mload\n        /* \"#utility.yul\":722:744   */\n      swap1\n      pop\n        /* \"#utility.yul\":653:751   */\n      swap2\n      swap1\n      pop\n      jump\t// out\n        /* \"#utility.yul\":757:925   */\n    tag_106:\n        /* \"#utility.yul\":840:851   */\n      0x00\n        /* \"#utility.yul\":874:880   */\n      dup3\n        /* \"#utility.yul\":869:872   */\n      dup3\n        /* \"#utility.yul\":862:881   */\n      mstore\n        /* \"#utility.yul\":914:918   */\n      0x20\n        /* \"#utility.yul\":909:912   */\n      dup3\n        /* \"#utility.yul\":905:919   */\n      add\n        /* \"#utility.yul\":890:919   */\n      swap1\n      pop\n        /* \"#utility.yul\":757:925   */\n      swap3\n      swap2\n      pop\n      pop\n      jump\t// out\n        /* \"#utility.yul\":931:1177   */\n    tag_107:\n        /* \"#utility.yul\":1012:1013   */\n      0x00\n        /* \"#utility.yul\":1022:1135   */\n    tag_196:\n        /* \"#utility.yul\":1036:1042   */\n      dup4\n        /* \"#utility.yul\":1033:1034   */\n      dup2\n        /* \"#utility.yul\":1030:1043   */\n      lt\n        /* \"#utility.yul\":1022:1135   */\n      iszero\n      tag_198\n      jumpi\n        /* \"#utility.yul\":1121:1122   */\n      dup1\n        /* \"#utility.yul\":1116:1119   */\n      dup3\n        /* \"#utility.yul\":1112:1123   */\n      add\n        /* \"#utility.yul\":1106:1124   */\n      mload\n        /* \"#utility.yul\":1102:1103   */\n      dup2\n        /* \"#utility.yul\":1097:1100   */\n      dup5\n        /* \"#utility.yul\":1093:1104   */\n      add\n        /* \"#utility.yul\":1086:1125   */\n      mstore\n        /* \"#utility.yul\":1058:1060   */\n      0x20\n        /* \"#utility.yul\":1055:1056   */\n      dup2\n        /* \"#utility.yul\":1051:1061   */\n      add\n        /* \"#utility.yul\":1046:1061   */\n      swap1\n      pop\n        /* \"#utility.yul\":1022:1135   */\n      jump(tag_196)\n    tag_198:\n        /* \"#utility.yul\":1169:1170   */\n      0x00\n        /* \"#utility.yul\":1160:1166   */\n      dup5\n        /* \"#utility.yul\":1155:1158   */\n      dup5\n        /* \"#utility.yul\":1151:1167   */\n      add\n        /* \"#utility.yul\":1144:1171   */\n      mstore\n        /* \"#utility.yul\":993:1177   */\n      pop\n        /* \"#utility.yul\":931:1177   */\n      pop\n      pop\n      pop\n      jump\t// out\n        /* \"#utility.yul\":1183:1285   */\n    tag_108:\n        /* \"#utility.yul\":1224:1230   */\n      0x00\n        /* \"#utility.yul\":1275:1277   */\n      0x1f\n        /* \"#utility.yul\":1271:1278   */\n      not\n        /* \"#utility.yul\":1266:1268   */\n      0x1f\n        /* \"#utility.yul\":1259:1264   */\n      dup4\n        /* \"#utility.yul\":1255:1269   */\n      add\n        /* \"#utility.yul\":1251:1279   */\n      and\n        /* \"#utility.yul\":1241:1279   */\n      swap1\n      pop\n        /* \"#utility.yul\":1183:1285   */\n      swap2\n      swap1\n      pop\n      jump\t// out\n        /* \"#utility.yul\":1291:1664   */\n    tag_109:\n        /* \"#utility.yul\":1377:1380   */\n      0x00\n        /* \"#utility.yul\":1405:1443   */\n      tag_201\n        /* \"#utility.yul\":1437:1442   */\n      dup3\n        /* \"#utility.yul\":1405:1443   */\n      tag_105\n      jump\t// in\n    tag_201:\n        /* \"#utility.yul\":1459:1529   */\n      tag_202\n        /* \"#utility.yul\":1522:1528   */\n      dup2\n        /* \"#utility.yul\":1517:1520   */\n      dup6\n        /* \"#utility.yul\":1459:1529   */\n      tag_106\n      jump\t// in\n    tag_202:\n        /* \"#utility.yul\":1452:1529   */\n      swap4\n      pop\n        /* \"#utility.yul\":1538:1603   */\n      tag_203\n        /* \"#utility.yul\":1596:1602   */\n      dup2\n        /* \"#utility.yul\":1591:1594   */\n      dup6\n        /* \"#utility.yul\":1584:1588   */\n      0x20\n        /* \"#utility.yul\":1577:1582   */\n      dup7\n        /* \"#utility.yul\":1573:1589   */\n      add\n        /* \"#utility.yul\":1538:1603   */\n      tag_107\n      jump\t// in\n    tag_203:\n        /* \"#utility.yul\":1628:1657   */\n      tag_204\n        /* \"#utility.yul\":1650:1656   */\n      dup2\n        /* \"#utility.yul\":1628:1657   */\n      tag_108\n      jump\t// in\n    tag_204:\n        /* \"#utility.yul\":1623:1626   */\n      dup5\n        /* \"#utility.yul\":1619:1658   */\n      add\n        /* \"#utility.yul\":1612:1658   */\n      swap2\n      pop\n        /* \"#utility.yul\":1381:1664   */\n      pop\n        /* \"#utility.yul\":1291:1664   */\n      swap3\n      swap2\n      pop\n      pop\n      jump\t// out\n        /* \"#utility.yul\":1670:2077   */\n    tag_23:\n        /* \"#utility.yul\":1803:1807   */\n      0x00\n        /* \"#utility.yul\":1841:1843   */\n      0x40\n        /* \"#utility.yul\":1830:1839   */\n      dup3\n        /* \"#utility.yul\":1826:1844   */\n      add\n        /* \"#utility.yul\":1818:1844   */\n      swap1\n      pop\n        /* \"#utility.yul\":1854:1919   */\n      tag_206\n        /* \"#utility.yul\":1916:1917   */\n      0x00\n        /* \"#utility.yul\":1905:1914   */\n      dup4\n        /* \"#utility.yul\":1901:1918   */\n      add\n        /* \"#utility.yul\":1892:1898   */\n      dup6\n        /* \"#utility.yul\":1854:1919   */\n      tag_104\n      jump\t// in\n    tag_206:\n        /* \"#utility.yul\":1966:1975   */\n      dup2\n        /* \"#utility.yul\":1960:1964   */\n      dup2\n        /* \"#utility.yul\":1956:1976   */\n      sub\n        /* \"#utility.yul\":1951:1953   */\n      0x20\n        /* \"#utility.yul\":1940:1949   */\n      dup4\n        /* \"#utility.yul\":1936:1954   */\n      add\n        /* \"#utility.yul\":1929:1977   */\n      mstore\n        /* \"#utility.yul\":1994:2070   */\n      tag_207\n        /* \"#utility.yul\":2065:2069   */\n      dup2\n        /* \"#utility.yul\":2056:2062   */\n      dup5\n        /* \"#utility.yul\":1994:2070   */\n      tag_109\n      jump\t// in\n    tag_207:\n        /* \"#utility.yul\":1986:2070   */\n      swap1\n      pop\n        /* \"#utility.yul\":1670:2077   */\n      swap4\n      swap3\n      pop\n      pop\n      pop\n      jump\t// out\n        /* \"#utility.yul\":2083:2158   */\n    tag_110:\n        /* \"#utility.yul\":2116:2122   */\n      0x00\n        /* \"#utility.yul\":2149:2151   */\n      0x40\n        /* \"#utility.yul\":2143:2152   */\n      mload\n        /* \"#utility.yul\":2133:2152   */\n      swap1\n      pop\n        /* \"#utility.yul\":2083:2158   */\n      swap1\n      jump\t// out\n        /* \"#utility.yul\":2164:2281   */\n    tag_111:\n        /* \"#utility.yul\":2273:2274   */\n      0x00\n        /* \"#utility.yul\":2270:2271   */\n      dup1\n        /* \"#utility.yul\":2263:2275   */\n      revert\n        /* \"#utility.yul\":2287:2404   */\n    tag_112:\n        /* \"#utility.yul\":2396:2397   */\n      0x00\n        /* \"#utility.yul\":2393:2394   */\n      dup1\n        /* \"#utility.yul\":2386:2398   */\n      revert\n        /* \"#utility.yul\":2410:2536   */\n    tag_113:\n        /* \"#utility.yul\":2447:2454   */\n      0x00\n        /* \"#utility.yul\":2487:2529   */\n      0xffffffffffffffffffffffffffffffffffffffff\n        /* \"#utility.yul\":2480:2485   */\n      dup3\n        /* \"#utility.yul\":2476:2530   */\n      and\n        /* \"#utility.yul\":2465:2530   */\n      swap1\n      pop\n        /* \"#utility.yul\":2410:2536   */\n      swap2\n      swap1\n      pop\n      jump\t// out\n        /* \"#utility.yul\":2542:2638   */\n    tag_114:\n        /* \"#utility.yul\":2579:2586   */\n      0x00\n        /* \"#utility.yul\":2608:2632   */\n      tag_213\n        /* \"#utility.yul\":2626:2631   */\n      dup3\n        /* \"#utility.yul\":2608:2632   */\n      tag_113\n      jump\t// in\n    tag_213:\n        /* \"#utility.yul\":2597:2632   */\n      swap1\n      pop\n        /* \"#utility.yul\":2542:2638   */\n      swap2\n      swap1\n      pop\n      jump\t// out\n        /* \"#utility.yul\":2644:2766   */\n    tag_115:\n        /* \"#utility.yul\":2717:2741   */\n      tag_215\n        /* \"#utility.yul\":2735:2740   */\n      dup2\n        /* \"#utility.yul\":2717:2741   */\n      tag_114\n      jump\t// in\n    tag_215:\n        /* \"#utility.yul\":2710:2715   */\n      dup2\n        /* \"#utility.yul\":2707:2742   */\n      eq\n        /* \"#utility.yul\":2697:2760   */\n      tag_216\n      jumpi\n        /* \"#utility.yul\":2756:2757   */\n      0x00\n        /* \"#utility.yul\":2753:2754   */\n      dup1\n        /* \"#utility.yul\":2746:2758   */\n      revert\n        /* \"#utility.yul\":2697:2760   */\n    tag_216:\n        /* \"#utility.yul\":2644:2766   */\n      pop\n      jump\t// out\n        /* \"#utility.yul\":2772:2911   */\n    tag_116:\n        /* \"#utility.yul\":2818:2823   */\n      0x00\n        /* \"#utility.yul\":2856:2862   */\n      dup2\n        /* \"#utility.yul\":2843:2863   */\n      calldataload\n        /* \"#utility.yul\":2834:2863   */\n      swap1\n      pop\n        /* \"#utility.yul\":2872:2905   */\n      tag_218\n        /* \"#utility.yul\":2899:2904   */\n      dup2\n        /* \"#utility.yul\":2872:2905   */\n      tag_115\n      jump\t// in\n    tag_218:\n        /* \"#utility.yul\":2772:2911   */\n      swap3\n      swap2\n      pop\n      pop\n      jump\t// out\n        /* \"#utility.yul\":2917:3246   */\n    tag_26:\n        /* \"#utility.yul\":2976:2982   */\n      0x00\n        /* \"#utility.yul\":3025:3027   */\n      0x20\n        /* \"#utility.yul\":3013:3022   */\n      dup3\n        /* \"#utility.yul\":3004:3011   */\n      dup5\n        /* \"#utility.yul\":3000:3023   */\n      sub\n        /* \"#utility.yul\":2996:3028   */\n      slt\n        /* \"#utility.yul\":2993:3112   */\n      iszero\n      tag_220\n      jumpi\n        /* \"#utility.yul\":3031:3110   */\n      tag_221\n      tag_111\n      jump\t// in\n    tag_221:\n        /* \"#utility.yul\":2993:3112   */\n    tag_220:\n        /* \"#utility.yul\":3151:3152   */\n      0x00\n        /* \"#utility.yul\":3176:3229   */\n      tag_222\n        /* \"#utility.yul\":3221:3228   */\n      dup5\n        /* \"#utility.yul\":3212:3218   */\n      dup3\n        /* \"#utility.yul\":3201:3210   */\n      dup6\n        /* \"#utility.yul\":3197:3219   */\n      add\n        /* \"#utility.yul\":3176:3229   */\n      tag_116\n      jump\t// in\n    tag_222:\n        /* \"#utility.yul\":3166:3229   */\n      swap2\n      pop\n        /* \"#utility.yul\":3122:3239   */\n      pop\n        /* \"#utility.yul\":2917:3246   */\n      swap3\n      swap2\n      pop\n      pop\n      jump\t// out\n        /* \"#utility.yul\":3252:3401   */\n    tag_117:\n        /* \"#utility.yul\":3288:3295   */\n      0x00\n        /* \"#utility.yul\":3328:3394   */\n      0xffffffff00000000000000000000000000000000000000000000000000000000\n        /* \"#utility.yul\":3321:3326   */\n      dup3\n        /* \"#utility.yul\":3317:3395   */\n      and\n        /* \"#utility.yul\":3306:3395   */\n      swap1\n      pop\n        /* \"#utility.yul\":3252:3401   */\n      swap2\n      swap1\n      pop\n      jump\t// out\n        /* \"#utility.yul\":3407:3522   */\n    tag_118:\n        /* \"#utility.yul\":3492:3515   */\n      tag_225\n        /* \"#utility.yul\":3509:3514   */\n      dup2\n        /* \"#utility.yul\":3492:3515   */\n      tag_117\n      jump\t// in\n    tag_225:\n        /* \"#utility.yul\":3487:3490   */\n      dup3\n        /* \"#utility.yul\":3480:3516   */\n      mstore\n        /* \"#utility.yul\":3407:3522   */\n      pop\n      pop\n      jump\t// out\n        /* \"#utility.yul\":3528:3746   */\n    tag_31:\n        /* \"#utility.yul\":3619:3623   */\n      0x00\n        /* \"#utility.yul\":3657:3659   */\n      0x20\n        /* \"#utility.yul\":3646:3655   */\n      dup3\n        /* \"#utility.yul\":3642:3660   */\n      add\n        /* \"#utility.yul\":3634:3660   */\n      swap1\n      pop\n        /* \"#utility.yul\":3670:3739   */\n      tag_227\n        /* \"#utility.yul\":3736:3737   */\n      0x00\n        /* \"#utility.yul\":3725:3734   */\n      dup4\n        /* \"#utility.yul\":3721:3738   */\n      add\n        /* \"#utility.yul\":3712:3718   */\n      dup5\n        /* \"#utility.yul\":3670:3739   */\n      tag_118\n      jump\t// in\n    tag_227:\n        /* \"#utility.yul\":3528:3746   */\n      swap3\n      swap2\n      pop\n      pop\n      jump\t// out\n        /* \"#utility.yul\":3752:4061   */\n    tag_35:\n        /* \"#utility.yul\":3863:3867   */\n      0x00\n        /* \"#utility.yul\":3901:3903   */\n      0x20\n        /* \"#utility.yul\":3890:3899   */\n      dup3\n        /* \"#utility.yul\":3886:3904   */\n      add\n        /* \"#utility.yul\":3878:3904   */\n      swap1\n      pop\n        /* \"#utility.yul\":3950:3959   */\n      dup2\n        /* \"#utility.yul\":3944:3948   */\n      dup2\n        /* \"#utility.yul\":3940:3960   */\n      sub\n        /* \"#utility.yul\":3936:3937   */\n      0x00\n        /* \"#utility.yul\":3925:3934   */\n      dup4\n        /* \"#utility.yul\":3921:3938   */\n      add\n        /* \"#utility.yul\":3914:3961   */\n      mstore\n        /* \"#utility.yul\":3978:4054   */\n      tag_229\n        /* \"#utility.yul\":4049:4053   */\n      dup2\n        /* \"#utility.yul\":4040:4046   */\n      dup5\n        /* \"#utility.yul\":3978:4054   */\n      tag_109\n      jump\t// in\n    tag_229:\n        /* \"#utility.yul\":3970:4054   */\n      swap1\n      pop\n        /* \"#utility.yul\":3752:4061   */\n      swap3\n      swap2\n      pop\n      pop\n      jump\t// out\n        /* \"#utility.yul\":4067:4184   */\n    tag_119:\n        /* \"#utility.yul\":4176:4177   */\n      0x00\n        /* \"#utility.yul\":4173:4174   */\n      dup1\n        /* \"#utility.yul\":4166:4178   */\n      revert\n        /* \"#utility.yul\":4190:4307   */\n    tag_120:\n        /* \"#utility.yul\":4299:4300   */\n      0x00\n        /* \"#utility.yul\":4296:4297   */\n      dup1\n        /* \"#utility.yul\":4289:4301   */\n      revert\n        /* \"#utility.yul\":4313:4493   */\n    tag_121:\n        /* \"#utility.yul\":4361:4438   */\n      0x4e487b7100000000000000000000000000000000000000000000000000000000\n        /* \"#utility.yul\":4358:4359   */\n      0x00\n        /* \"#utility.yul\":4351:4439   */\n      mstore\n        /* \"#utility.yul\":4458:4462   */\n      0x41\n        /* \"#utility.yul\":4455:4456   */\n      0x04\n        /* \"#utility.yul\":4448:4463   */\n      mstore\n        /* \"#utility.yul\":4482:4486   */\n      0x24\n        /* \"#utility.yul\":4479:4480   */\n      0x00\n        /* \"#utility.yul\":4472:4487   */\n      revert\n        /* \"#utility.yul\":4499:4780   */\n    tag_122:\n        /* \"#utility.yul\":4582:4609   */\n      tag_234\n        /* \"#utility.yul\":4604:4608   */\n      dup3\n        /* \"#utility.yul\":4582:4609   */\n      tag_108\n      jump\t// in\n    tag_234:\n        /* \"#utility.yul\":4574:4580   */\n      dup2\n        /* \"#utility.yul\":4570:4610   */\n      add\n        /* \"#utility.yul\":4712:4718   */\n      dup2\n        /* \"#utility.yul\":4700:4710   */\n      dup2\n        /* \"#utility.yul\":4697:4719   */\n      lt\n        /* \"#utility.yul\":4676:4694   */\n      0xffffffffffffffff\n        /* \"#utility.yul\":4664:4674   */\n      dup3\n        /* \"#utility.yul\":4661:4695   */\n      gt\n        /* \"#utility.yul\":4658:4720   */\n      or\n        /* \"#utility.yul\":4655:4743   */\n      iszero\n      tag_235\n      jumpi\n        /* \"#utility.yul\":4723:4741   */\n      tag_236\n      tag_121\n      jump\t// in\n    tag_236:\n        /* \"#utility.yul\":4655:4743   */\n    tag_235:\n        /* \"#utility.yul\":4763:4773   */\n      dup1\n        /* \"#utility.yul\":4759:4761   */\n      0x40\n        /* \"#utility.yul\":4752:4774   */\n      mstore\n        /* \"#utility.yul\":4542:4780   */\n      pop\n        /* \"#utility.yul\":4499:4780   */\n      pop\n      pop\n      jump\t// out\n        /* \"#utility.yul\":4786:4915   */\n    tag_123:\n        /* \"#utility.yul\":4820:4826   */\n      0x00\n        /* \"#utility.yul\":4847:4867   */\n      tag_238\n      tag_110\n      jump\t// in\n    tag_238:\n        /* \"#utility.yul\":4837:4867   */\n      swap1\n      pop\n        /* \"#utility.yul\":4876:4909   */\n      tag_239\n        /* \"#utility.yul\":4904:4908   */\n      dup3\n        /* \"#utility.yul\":4896:4902   */\n      dup3\n        /* \"#utility.yul\":4876:4909   */\n      tag_122\n      jump\t// in\n    tag_239:\n        /* \"#utility.yul\":4786:4915   */\n      swap2\n      swap1\n      pop\n      jump\t// out\n        /* \"#utility.yul\":4921:5228   */\n    tag_124:\n        /* \"#utility.yul\":4982:4986   */\n      0x00\n        /* \"#utility.yul\":5072:5090   */\n      0xffffffffffffffff\n        /* \"#utility.yul\":5064:5070   */\n      dup3\n        /* \"#utility.yul\":5061:5091   */\n      gt\n        /* \"#utility.yul\":5058:5114   */\n      iszero\n      tag_241\n      jumpi\n        /* \"#utility.yul\":5094:5112   */\n      tag_242\n      tag_121\n      jump\t// in\n    tag_242:\n        /* \"#utility.yul\":5058:5114   */\n    tag_241:\n        /* \"#utility.yul\":5132:5161   */\n      tag_243\n        /* \"#utility.yul\":5154:5160   */\n      dup3\n        /* \"#utility.yul\":5132:5161   */\n      tag_108\n      jump\t// in\n    tag_243:\n        /* \"#utility.yul\":5124:5161   */\n      swap1\n      pop\n        /* \"#utility.yul\":5216:5220   */\n      0x20\n        /* \"#utility.yul\":5210:5214   */\n      dup2\n        /* \"#utility.yul\":5206:5221   */\n      add\n        /* \"#utility.yul\":5198:5221   */\n      swap1\n      pop\n        /* \"#utility.yul\":4921:5228   */\n      swap2\n      swap1\n      pop\n      jump\t// out\n        /* \"#utility.yul\":5234:5380   */\n    tag_125:\n        /* \"#utility.yul\":5331:5337   */\n      dup3\n        /* \"#utility.yul\":5326:5329   */\n      dup2\n        /* \"#utility.yul\":5321:5324   */\n      dup4\n        /* \"#utility.yul\":5308:5338   */\n      calldatacopy\n        /* \"#utility.yul\":5372:5373   */\n      0x00\n        /* \"#utility.yul\":5363:5369   */\n      dup4\n        /* \"#utility.yul\":5358:5361   */\n      dup4\n        /* \"#utility.yul\":5354:5370   */\n      add\n        /* \"#utility.yul\":5347:5374   */\n      mstore\n        /* \"#utility.yul\":5234:5380   */\n      pop\n      pop\n      pop\n      jump\t// out\n        /* \"#utility.yul\":5386:5809   */\n    tag_126:\n        /* \"#utility.yul\":5463:5468   */\n      0x00\n        /* \"#utility.yul\":5488:5553   */\n      tag_246\n        /* \"#utility.yul\":5504:5552   */\n      tag_247\n        /* \"#utility.yul\":5545:5551   */\n      dup5\n        /* \"#utility.yul\":5504:5552   */\n      tag_124\n      jump\t// in\n    tag_247:\n        /* \"#utility.yul\":5488:5553   */\n      tag_123\n      jump\t// in\n    tag_246:\n        /* \"#utility.yul\":5479:5553   */\n      swap1\n      pop\n        /* \"#utility.yul\":5576:5582   */\n      dup3\n        /* \"#utility.yul\":5569:5574   */\n      dup2\n        /* \"#utility.yul\":5562:5583   */\n      mstore\n        /* \"#utility.yul\":5614:5618   */\n      0x20\n        /* \"#utility.yul\":5607:5612   */\n      dup2\n        /* \"#utility.yul\":5603:5619   */\n      add\n        /* \"#utility.yul\":5652:5655   */\n      dup5\n        /* \"#utility.yul\":5643:5649   */\n      dup5\n        /* \"#utility.yul\":5638:5641   */\n      dup5\n        /* \"#utility.yul\":5634:5650   */\n      add\n        /* \"#utility.yul\":5631:5656   */\n      gt\n        /* \"#utility.yul\":5628:5740   */\n      iszero\n      tag_248\n      jumpi\n        /* \"#utility.yul\":5659:5738   */\n      tag_249\n      tag_120\n      jump\t// in\n    tag_249:\n        /* \"#utility.yul\":5628:5740   */\n    tag_248:\n        /* \"#utility.yul\":5749:5803   */\n      tag_250\n        /* \"#utility.yul\":5796:5802   */\n      dup5\n        /* \"#utility.yul\":5791:5794   */\n      dup3\n        /* \"#utility.yul\":5786:5789   */\n      dup6\n        /* \"#utility.yul\":5749:5803   */\n      tag_125\n      jump\t// in\n    tag_250:\n        /* \"#utility.yul\":5469:5809   */\n      pop\n        /* \"#utility.yul\":5386:5809   */\n      swap4\n      swap3\n      pop\n      pop\n      pop\n      jump\t// out\n        /* \"#utility.yul\":5828:6166   */\n    tag_127:\n        /* \"#utility.yul\":5883:5888   */\n      0x00\n        /* \"#utility.yul\":5932:5935   */\n      dup3\n        /* \"#utility.yul\":5925:5929   */\n      0x1f\n        /* \"#utility.yul\":5917:5923   */\n      dup4\n        /* \"#utility.yul\":5913:5930   */\n      add\n        /* \"#utility.yul\":5909:5936   */\n      slt\n        /* \"#utility.yul\":5899:6021   */\n      tag_252\n      jumpi\n        /* \"#utility.yul\":5940:6019   */\n      tag_253\n      tag_119\n      jump\t// in\n    tag_253:\n        /* \"#utility.yul\":5899:6021   */\n    tag_252:\n        /* \"#utility.yul\":6057:6063   */\n      dup2\n        /* \"#utility.yul\":6044:6064   */\n      calldataload\n        /* \"#utility.yul\":6082:6160   */\n      tag_254\n        /* \"#utility.yul\":6156:6159   */\n      dup5\n        /* \"#utility.yul\":6148:6154   */\n      dup3\n        /* \"#utility.yul\":6141:6145   */\n      0x20\n        /* \"#utility.yul\":6133:6139   */\n      dup7\n        /* \"#utility.yul\":6129:6146   */\n      add\n        /* \"#utility.yul\":6082:6160   */\n      tag_126\n      jump\t// in\n    tag_254:\n        /* \"#utility.yul\":6073:6160   */\n      swap2\n      pop\n        /* \"#utility.yul\":5889:6166   */\n      pop\n        /* \"#utility.yul\":5828:6166   */\n      swap3\n      swap2\n      pop\n      pop\n      jump\t// out\n        /* \"#utility.yul\":6172:6679   */\n    tag_41:\n        /* \"#utility.yul\":6240:6246   */\n      0x00\n        /* \"#utility.yul\":6289:6291   */\n      0x20\n        /* \"#utility.yul\":6277:6286   */\n      dup3\n        /* \"#utility.yul\":6268:6275   */\n      dup5\n        /* \"#utility.yul\":6264:6287   */\n      sub\n        /* \"#utility.yul\":6260:6292   */\n      slt\n        /* \"#utility.yul\":6257:6376   */\n      iszero\n      tag_256\n      jumpi\n        /* \"#utility.yul\":6295:6374   */\n      tag_257\n      tag_111\n      jump\t// in\n    tag_257:\n        /* \"#utility.yul\":6257:6376   */\n    tag_256:\n        /* \"#utility.yul\":6443:6444   */\n      0x00\n        /* \"#utility.yul\":6432:6441   */\n      dup3\n        /* \"#utility.yul\":6428:6445   */\n      add\n        /* \"#utility.yul\":6415:6446   */\n      calldataload\n        /* \"#utility.yul\":6473:6491   */\n      0xffffffffffffffff\n        /* \"#utility.yul\":6465:6471   */\n      dup2\n        /* \"#utility.yul\":6462:6492   */\n      gt\n        /* \"#utility.yul\":6459:6576   */\n      iszero\n      tag_258\n      jumpi\n        /* \"#utility.yul\":6495:6574   */\n      tag_259\n      tag_112\n      jump\t// in\n    tag_259:\n        /* \"#utility.yul\":6459:6576   */\n    tag_258:\n        /* \"#utility.yul\":6600:6662   */\n      tag_260\n        /* \"#utility.yul\":6654:6661   */\n      dup5\n        /* \"#utility.yul\":6645:6651   */\n      dup3\n        /* \"#utility.yul\":6634:6643   */\n      dup6\n        /* \"#utility.yul\":6630:6652   */\n      add\n        /* \"#utility.yul\":6600:6662   */\n      tag_127\n      jump\t// in\n    tag_260:\n        /* \"#utility.yul\":6590:6662   */\n      swap2\n      pop\n        /* \"#utility.yul\":6386:6672   */\n      pop\n        /* \"#utility.yul\":6172:6679   */\n      swap3\n      swap2\n      pop\n      pop\n      jump\t// out\n        /* \"#utility.yul\":6685:6762   */\n    tag_128:\n        /* \"#utility.yul\":6722:6729   */\n      0x00\n        /* \"#utility.yul\":6751:6756   */\n      dup2\n        /* \"#utility.yul\":6740:6756   */\n      swap1\n      pop\n        /* \"#utility.yul\":6685:6762   */\n      swap2\n      swap1\n      pop\n      jump\t// out\n        /* \"#utility.yul\":6768:6886   */\n    tag_129:\n        /* \"#utility.yul\":6855:6879   */\n      tag_263\n        /* \"#utility.yul\":6873:6878   */\n      dup2\n        /* \"#utility.yul\":6855:6879   */\n      tag_128\n      jump\t// in\n    tag_263:\n        /* \"#utility.yul\":6850:6853   */\n      dup3\n        /* \"#utility.yul\":6843:6880   */\n      mstore\n        /* \"#utility.yul\":6768:6886   */\n      pop\n      pop\n      jump\t// out\n        /* \"#utility.yul\":6892:7010   */\n    tag_130:\n        /* \"#utility.yul\":6979:7003   */\n      tag_265\n        /* \"#utility.yul\":6997:7002   */\n      dup2\n        /* \"#utility.yul\":6979:7003   */\n      tag_114\n      jump\t// in\n    tag_265:\n        /* \"#utility.yul\":6974:6977   */\n      dup3\n        /* \"#utility.yul\":6967:7004   */\n      mstore\n        /* \"#utility.yul\":6892:7010   */\n      pop\n      pop\n      jump\t// out\n        /* \"#utility.yul\":7016:7115   */\n    tag_131:\n        /* \"#utility.yul\":7068:7074   */\n      0x00\n        /* \"#utility.yul\":7102:7107   */\n      dup2\n        /* \"#utility.yul\":7096:7108   */\n      mload\n        /* \"#utility.yul\":7086:7108   */\n      swap1\n      pop\n        /* \"#utility.yul\":7016:7115   */\n      swap2\n      swap1\n      pop\n      jump\t// out\n        /* \"#utility.yul\":7121:7290   */\n    tag_132:\n        /* \"#utility.yul\":7205:7216   */\n      0x00\n        /* \"#utility.yul\":7239:7245   */\n      dup3\n        /* \"#utility.yul\":7234:7237   */\n      dup3\n        /* \"#utility.yul\":7227:7246   */\n      mstore\n        /* \"#utility.yul\":7279:7283   */\n      0x20\n        /* \"#utility.yul\":7274:7277   */\n      dup3\n        /* \"#utility.yul\":7270:7284   */\n      add\n        /* \"#utility.yul\":7255:7284   */\n      swap1\n      pop\n        /* \"#utility.yul\":7121:7290   */\n      swap3\n      swap2\n      pop\n      pop\n      jump\t// out\n        /* \"#utility.yul\":7296:7673   */\n    tag_133:\n        /* \"#utility.yul\":7384:7387   */\n      0x00\n        /* \"#utility.yul\":7412:7451   */\n      tag_269\n        /* \"#utility.yul\":7445:7450   */\n      dup3\n        /* \"#utility.yul\":7412:7451   */\n      tag_131\n      jump\t// in\n    tag_269:\n        /* \"#utility.yul\":7467:7538   */\n      tag_270\n        /* \"#utility.yul\":7531:7537   */\n      dup2\n        /* \"#utility.yul\":7526:7529   */\n      dup6\n        /* \"#utility.yul\":7467:7538   */\n      tag_132\n      jump\t// in\n    tag_270:\n        /* \"#utility.yul\":7460:7538   */\n      swap4\n      pop\n        /* \"#utility.yul\":7547:7612   */\n      tag_271\n        /* \"#utility.yul\":7605:7611   */\n      dup2\n        /* \"#utility.yul\":7600:7603   */\n      dup6\n        /* \"#utility.yul\":7593:7597   */\n      0x20\n        /* \"#utility.yul\":7586:7591   */\n      dup7\n        /* \"#utility.yul\":7582:7598   */\n      add\n        /* \"#utility.yul\":7547:7612   */\n      tag_107\n      jump\t// in\n    tag_271:\n        /* \"#utility.yul\":7637:7666   */\n      tag_272\n        /* \"#utility.yul\":7659:7665   */\n      dup2\n        /* \"#utility.yul\":7637:7666   */\n      tag_108\n      jump\t// in\n    tag_272:\n        /* \"#utility.yul\":7632:7635   */\n      dup5\n        /* \"#utility.yul\":7628:7667   */\n      add\n        /* \"#utility.yul\":7621:7667   */\n      swap2\n      pop\n        /* \"#utility.yul\":7388:7673   */\n      pop\n        /* \"#utility.yul\":7296:7673   */\n      swap3\n      swap2\n      pop\n      pop\n      jump\t// out\n        /* \"#utility.yul\":7679:7783   */\n    tag_134:\n        /* \"#utility.yul\":7744:7750   */\n      0x00\n        /* \"#utility.yul\":7772:7776   */\n      0x02\n        /* \"#utility.yul\":7762:7776   */\n      swap1\n      pop\n        /* \"#utility.yul\":7679:7783   */\n      swap2\n      swap1\n      pop\n      jump\t// out\n        /* \"#utility.yul\":7789:7932   */\n    tag_135:\n        /* \"#utility.yul\":7886:7897   */\n      0x00\n        /* \"#utility.yul\":7923:7926   */\n      dup2\n        /* \"#utility.yul\":7908:7926   */\n      swap1\n      pop\n        /* \"#utility.yul\":7789:7932   */\n      swap3\n      swap2\n      pop\n      pop\n      jump\t// out\n        /* \"#utility.yul\":7938:8036   */\n    tag_136:\n        /* \"#utility.yul\":8003:8007   */\n      0x00\n        /* \"#utility.yul\":8026:8029   */\n      dup2\n        /* \"#utility.yul\":8018:8029   */\n      swap1\n      pop\n        /* \"#utility.yul\":7938:8036   */\n      swap2\n      swap1\n      pop\n      jump\t// out\n        /* \"#utility.yul\":8042:8150   */\n    tag_137:\n        /* \"#utility.yul\":8119:8143   */\n      tag_277\n        /* \"#utility.yul\":8137:8142   */\n      dup2\n        /* \"#utility.yul\":8119:8143   */\n      tag_128\n      jump\t// in\n    tag_277:\n        /* \"#utility.yul\":8114:8117   */\n      dup3\n        /* \"#utility.yul\":8107:8144   */\n      mstore\n        /* \"#utility.yul\":8042:8150   */\n      pop\n      pop\n      jump\t// out\n        /* \"#utility.yul\":8156:8335   */\n    tag_138:\n        /* \"#utility.yul\":8225:8235   */\n      0x00\n        /* \"#utility.yul\":8246:8292   */\n      tag_279\n        /* \"#utility.yul\":8288:8291   */\n      dup4\n        /* \"#utility.yul\":8280:8286   */\n      dup4\n        /* \"#utility.yul\":8246:8292   */\n      tag_137\n      jump\t// in\n    tag_279:\n        /* \"#utility.yul\":8324:8328   */\n      0x20\n        /* \"#utility.yul\":8319:8322   */\n      dup4\n        /* \"#utility.yul\":8315:8329   */\n      add\n        /* \"#utility.yul\":8301:8329   */\n      swap1\n      pop\n        /* \"#utility.yul\":8156:8335   */\n      swap3\n      swap2\n      pop\n      pop\n      jump\t// out\n        /* \"#utility.yul\":8341:8452   */\n    tag_139:\n        /* \"#utility.yul\":8409:8413   */\n      0x00\n        /* \"#utility.yul\":8441:8445   */\n      0x20\n        /* \"#utility.yul\":8436:8439   */\n      dup3\n        /* \"#utility.yul\":8432:8446   */\n      add\n        /* \"#utility.yul\":8424:8446   */\n      swap1\n      pop\n        /* \"#utility.yul\":8341:8452   */\n      swap2\n      swap1\n      pop\n      jump\t// out\n        /* \"#utility.yul\":8490:9184   */\n    tag_140:\n        /* \"#utility.yul\":8626:8678   */\n      tag_282\n        /* \"#utility.yul\":8672:8677   */\n      dup2\n        /* \"#utility.yul\":8626:8678   */\n      tag_134\n      jump\t// in\n    tag_282:\n        /* \"#utility.yul\":8694:8778   */\n      tag_283\n        /* \"#utility.yul\":8771:8777   */\n      dup2\n        /* \"#utility.yul\":8766:8769   */\n      dup5\n        /* \"#utility.yul\":8694:8778   */\n      tag_135\n      jump\t// in\n    tag_283:\n        /* \"#utility.yul\":8687:8778   */\n      swap3\n      pop\n        /* \"#utility.yul\":8802:8856   */\n      tag_284\n        /* \"#utility.yul\":8850:8855   */\n      dup3\n        /* \"#utility.yul\":8802:8856   */\n      tag_136\n      jump\t// in\n    tag_284:\n        /* \"#utility.yul\":8879:8886   */\n      dup1\n        /* \"#utility.yul\":8910:8911   */\n      0x00\n        /* \"#utility.yul\":8895:9177   */\n    tag_285:\n        /* \"#utility.yul\":8920:8926   */\n      dup4\n        /* \"#utility.yul\":8917:8918   */\n      dup2\n        /* \"#utility.yul\":8914:8927   */\n      lt\n        /* \"#utility.yul\":8895:9177   */\n      iszero\n      tag_287\n      jumpi\n        /* \"#utility.yul\":8996:9002   */\n      dup2\n        /* \"#utility.yul\":8990:9003   */\n      mload\n        /* \"#utility.yul\":9023:9086   */\n      tag_288\n        /* \"#utility.yul\":9082:9085   */\n      dup8\n        /* \"#utility.yul\":9067:9080   */\n      dup3\n        /* \"#utility.yul\":9023:9086   */\n      tag_138\n      jump\t// in\n    tag_288:\n        /* \"#utility.yul\":9016:9086   */\n      swap7\n      pop\n        /* \"#utility.yul\":9109:9167   */\n      tag_289\n        /* \"#utility.yul\":9160:9166   */\n      dup4\n        /* \"#utility.yul\":9109:9167   */\n      tag_139\n      jump\t// in\n    tag_289:\n        /* \"#utility.yul\":9099:9167   */\n      swap3\n      pop\n        /* \"#utility.yul\":8955:9177   */\n      pop\n        /* \"#utility.yul\":8942:8943   */\n      0x01\n        /* \"#utility.yul\":8939:8940   */\n      dup2\n        /* \"#utility.yul\":8935:8944   */\n      add\n        /* \"#utility.yul\":8930:8944   */\n      swap1\n      pop\n        /* \"#utility.yul\":8895:9177   */\n      jump(tag_285)\n    tag_287:\n        /* \"#utility.yul\":8899:8913   */\n      pop\n        /* \"#utility.yul\":8602:9184   */\n      pop\n      pop\n      pop\n        /* \"#utility.yul\":8490:9184   */\n      pop\n      pop\n      jump\t// out\n        /* \"#utility.yul\":9190:9926   */\n    tag_44:\n        /* \"#utility.yul\":9433:9437   */\n      0x00\n        /* \"#utility.yul\":9471:9474   */\n      0xa0\n        /* \"#utility.yul\":9460:9469   */\n      dup3\n        /* \"#utility.yul\":9456:9475   */\n      add\n        /* \"#utility.yul\":9448:9475   */\n      swap1\n      pop\n        /* \"#utility.yul\":9485:9556   */\n      tag_291\n        /* \"#utility.yul\":9553:9554   */\n      0x00\n        /* \"#utility.yul\":9542:9551   */\n      dup4\n        /* \"#utility.yul\":9538:9555   */\n      add\n        /* \"#utility.yul\":9529:9535   */\n      dup8\n        /* \"#utility.yul\":9485:9556   */\n      tag_129\n      jump\t// in\n    tag_291:\n        /* \"#utility.yul\":9566:9638   */\n      tag_292\n        /* \"#utility.yul\":9634:9636   */\n      0x20\n        /* \"#utility.yul\":9623:9632   */\n      dup4\n        /* \"#utility.yul\":9619:9637   */\n      add\n        /* \"#utility.yul\":9610:9616   */\n      dup7\n        /* \"#utility.yul\":9566:9638   */\n      tag_130\n      jump\t// in\n    tag_292:\n        /* \"#utility.yul\":9685:9694   */\n      dup2\n        /* \"#utility.yul\":9679:9683   */\n      dup2\n        /* \"#utility.yul\":9675:9695   */\n      sub\n        /* \"#utility.yul\":9670:9672   */\n      0x40\n        /* \"#utility.yul\":9659:9668   */\n      dup4\n        /* \"#utility.yul\":9655:9673   */\n      add\n        /* \"#utility.yul\":9648:9696   */\n      mstore\n        /* \"#utility.yul\":9713:9791   */\n      tag_293\n        /* \"#utility.yul\":9786:9790   */\n      dup2\n        /* \"#utility.yul\":9777:9783   */\n      dup6\n        /* \"#utility.yul\":9713:9791   */\n      tag_133\n      jump\t// in\n    tag_293:\n        /* \"#utility.yul\":9705:9791   */\n      swap1\n      pop\n        /* \"#utility.yul\":9801:9919   */\n      tag_294\n        /* \"#utility.yul\":9915:9917   */\n      0x60\n        /* \"#utility.yul\":9904:9913   */\n      dup4\n        /* \"#utility.yul\":9900:9918   */\n      add\n        /* \"#utility.yul\":9891:9897   */\n      dup5\n        /* \"#utility.yul\":9801:9919   */\n      tag_140\n      jump\t// in\n    tag_294:\n        /* \"#utility.yul\":9190:9926   */\n      swap6\n      swap5\n      pop\n      pop\n      pop\n      pop\n      pop\n      jump\t// out\n        /* \"#utility.yul\":9932:10240   */\n    tag_141:\n        /* \"#utility.yul\":9994:9998   */\n      0x00\n        /* \"#utility.yul\":10084:10102   */\n      0xffffffffffffffff\n        /* \"#utility.yul\":10076:10082   */\n      dup3\n        /* \"#utility.yul\":10073:10103   */\n      gt\n        /* \"#utility.yul\":10070:10126   */\n      iszero\n      tag_296\n      jumpi\n        /* \"#utility.yul\":10106:10124   */\n      tag_297\n      tag_121\n      jump\t// in\n    tag_297:\n        /* \"#utility.yul\":10070:10126   */\n    tag_296:\n        /* \"#utility.yul\":10144:10173   */\n      tag_298\n        /* \"#utility.yul\":10166:10172   */\n      dup3\n        /* \"#utility.yul\":10144:10173   */\n      tag_108\n      jump\t// in\n    tag_298:\n        /* \"#utility.yul\":10136:10173   */\n      swap1\n      pop\n        /* \"#utility.yul\":10228:10232   */\n      0x20\n        /* \"#utility.yul\":10222:10226   */\n      dup2\n        /* \"#utility.yul\":10218:10233   */\n      add\n        /* \"#utility.yul\":10210:10233   */\n      swap1\n      pop\n        /* \"#utility.yul\":9932:10240   */\n      swap2\n      swap1\n      pop\n      jump\t// out\n        /* \"#utility.yul\":10246:10671   */\n    tag_142:\n        /* \"#utility.yul\":10324:10329   */\n      0x00\n        /* \"#utility.yul\":10349:10415   */\n      tag_300\n        /* \"#utility.yul\":10365:10414   */\n      tag_301\n        /* \"#utility.yul\":10407:10413   */\n      dup5\n        /* \"#utility.yul\":10365:10414   */\n      tag_141\n      jump\t// in\n    tag_301:\n        /* \"#utility.yul\":10349:10415   */\n      tag_123\n      jump\t// in\n    tag_300:\n        /* \"#utility.yul\":10340:10415   */\n      swap1\n      pop\n        /* \"#utility.yul\":10438:10444   */\n      dup3\n        /* \"#utility.yul\":10431:10436   */\n      dup2\n        /* \"#utility.yul\":10424:10445   */\n      mstore\n        /* \"#utility.yul\":10476:10480   */\n      0x20\n        /* \"#utility.yul\":10469:10474   */\n      dup2\n        /* \"#utility.yul\":10465:10481   */\n      add\n        /* \"#utility.yul\":10514:10517   */\n      dup5\n        /* \"#utility.yul\":10505:10511   */\n      dup5\n        /* \"#utility.yul\":10500:10503   */\n      dup5\n        /* \"#utility.yul\":10496:10512   */\n      add\n        /* \"#utility.yul\":10493:10518   */\n      gt\n        /* \"#utility.yul\":10490:10602   */\n      iszero\n      tag_302\n      jumpi\n        /* \"#utility.yul\":10521:10600   */\n      tag_303\n      tag_120\n      jump\t// in\n    tag_303:\n        /* \"#utility.yul\":10490:10602   */\n    tag_302:\n        /* \"#utility.yul\":10611:10665   */\n      tag_304\n        /* \"#utility.yul\":10658:10664   */\n      dup5\n        /* \"#utility.yul\":10653:10656   */\n      dup3\n        /* \"#utility.yul\":10648:10651   */\n      dup6\n        /* \"#utility.yul\":10611:10665   */\n      tag_125\n      jump\t// in\n    tag_304:\n        /* \"#utility.yul\":10330:10671   */\n      pop\n        /* \"#utility.yul\":10246:10671   */\n      swap4\n      swap3\n      pop\n      pop\n      pop\n      jump\t// out\n        /* \"#utility.yul\":10691:11031   */\n    tag_143:\n        /* \"#utility.yul\":10747:10752   */\n      0x00\n        /* \"#utility.yul\":10796:10799   */\n      dup3\n        /* \"#utility.yul\":10789:10793   */\n      0x1f\n        /* \"#utility.yul\":10781:10787   */\n      dup4\n        /* \"#utility.yul\":10777:10794   */\n      add\n        /* \"#utility.yul\":10773:10800   */\n      slt\n        /* \"#utility.yul\":10763:10885   */\n      tag_306\n      jumpi\n        /* \"#utility.yul\":10804:10883   */\n      tag_307\n      tag_119\n      jump\t// in\n    tag_307:\n        /* \"#utility.yul\":10763:10885   */\n    tag_306:\n        /* \"#utility.yul\":10921:10927   */\n      dup2\n        /* \"#utility.yul\":10908:10928   */\n      calldataload\n        /* \"#utility.yul\":10946:11025   */\n      tag_308\n        /* \"#utility.yul\":11021:11024   */\n      dup5\n        /* \"#utility.yul\":11013:11019   */\n      dup3\n        /* \"#utility.yul\":11006:11010   */\n      0x20\n        /* \"#utility.yul\":10998:11004   */\n      dup7\n        /* \"#utility.yul\":10994:11011   */\n      add\n        /* \"#utility.yul\":10946:11025   */\n      tag_142\n      jump\t// in\n    tag_308:\n        /* \"#utility.yul\":10937:11025   */\n      swap2\n      pop\n        /* \"#utility.yul\":10753:11031   */\n      pop\n        /* \"#utility.yul\":10691:11031   */\n      swap3\n      swap2\n      pop\n      pop\n      jump\t// out\n        /* \"#utility.yul\":11037:11546   */\n    tag_53:\n        /* \"#utility.yul\":11106:11112   */\n      0x00\n        /* \"#utility.yul\":11155:11157   */\n      0x20\n        /* \"#utility.yul\":11143:11152   */\n      dup3\n        /* \"#utility.yul\":11134:11141   */\n      dup5\n        /* \"#utility.yul\":11130:11153   */\n      sub\n        /* \"#utility.yul\":11126:11158   */\n      slt\n        /* \"#utility.yul\":11123:11242   */\n      iszero\n      tag_310\n      jumpi\n        /* \"#utility.yul\":11161:11240   */\n      tag_311\n      tag_111\n      jump\t// in\n    tag_311:\n        /* \"#utility.yul\":11123:11242   */\n    tag_310:\n        /* \"#utility.yul\":11309:11310   */\n      0x00\n        /* \"#utility.yul\":11298:11307   */\n      dup3\n        /* \"#utility.yul\":11294:11311   */\n      add\n        /* \"#utility.yul\":11281:11312   */\n      calldataload\n        /* \"#utility.yul\":11339:11357   */\n      0xffffffffffffffff\n        /* \"#utility.yul\":11331:11337   */\n      dup2\n        /* \"#utility.yul\":11328:11358   */\n      gt\n        /* \"#utility.yul\":11325:11442   */\n      iszero\n      tag_312\n      jumpi\n        /* \"#utility.yul\":11361:11440   */\n      tag_313\n      tag_112\n      jump\t// in\n    tag_313:\n        /* \"#utility.yul\":11325:11442   */\n    tag_312:\n        /* \"#utility.yul\":11466:11529   */\n      tag_314\n        /* \"#utility.yul\":11521:11528   */\n      dup5\n        /* \"#utility.yul\":11512:11518   */\n      dup3\n        /* \"#utility.yul\":11501:11510   */\n      dup6\n        /* \"#utility.yul\":11497:11519   */\n      add\n        /* \"#utility.yul\":11466:11529   */\n      tag_143\n      jump\t// in\n    tag_314:\n        /* \"#utility.yul\":11456:11529   */\n      swap2\n      pop\n        /* \"#utility.yul\":11252:11539   */\n      pop\n        /* \"#utility.yul\":11037:11546   */\n      swap3\n      swap2\n      pop\n      pop\n      jump\t// out\n        /* \"#utility.yul\":11552:11762   */\n    tag_56:\n        /* \"#utility.yul\":11639:11643   */\n      0x00\n        /* \"#utility.yul\":11677:11679   */\n      0x20\n        /* \"#utility.yul\":11666:11675   */\n      dup3\n        /* \"#utility.yul\":11662:11680   */\n      add\n        /* \"#utility.yul\":11654:11680   */\n      swap1\n      pop\n        /* \"#utility.yul\":11690:11755   */\n      tag_316\n        /* \"#utility.yul\":11752:11753   */\n      0x00\n        /* \"#utility.yul\":11741:11750   */\n      dup4\n        /* \"#utility.yul\":11737:11754   */\n      add\n        /* \"#utility.yul\":11728:11734   */\n      dup5\n        /* \"#utility.yul\":11690:11755   */\n      tag_104\n      jump\t// in\n    tag_316:\n        /* \"#utility.yul\":11552:11762   */\n      swap3\n      swap2\n      pop\n      pop\n      jump\t// out\n        /* \"#utility.yul\":11768:11890   */\n    tag_144:\n        /* \"#utility.yul\":11841:11865   */\n      tag_318\n        /* \"#utility.yul\":11859:11864   */\n      dup2\n        /* \"#utility.yul\":11841:11865   */\n      tag_128\n      jump\t// in\n    tag_318:\n        /* \"#utility.yul\":11834:11839   */\n      dup2\n        /* \"#utility.yul\":11831:11866   */\n      eq\n        /* \"#utility.yul\":11821:11884   */\n      tag_319\n      jumpi\n        /* \"#utility.yul\":11880:11881   */\n      0x00\n        /* \"#utility.yul\":11877:11878   */\n      dup1\n        /* \"#utility.yul\":11870:11882   */\n      revert\n        /* \"#utility.yul\":11821:11884   */\n    tag_319:\n        /* \"#utility.yul\":11768:11890   */\n      pop\n      jump\t// out\n        /* \"#utility.yul\":11896:12035   */\n    tag_145:\n        /* \"#utility.yul\":11942:11947   */\n      0x00\n        /* \"#utility.yul\":11980:11986   */\n      dup2\n        /* \"#utility.yul\":11967:11987   */\n      calldataload\n        /* \"#utility.yul\":11958:11987   */\n      swap1\n      pop\n        /* \"#utility.yul\":11996:12029   */\n      tag_321\n        /* \"#utility.yul\":12023:12028   */\n      dup2\n        /* \"#utility.yul\":11996:12029   */\n      tag_144\n      jump\t// in\n    tag_321:\n        /* \"#utility.yul\":11896:12035   */\n      swap3\n      swap2\n      pop\n      pop\n      jump\t// out\n        /* \"#utility.yul\":12041:12840   */\n    tag_59:\n        /* \"#utility.yul\":12128:12134   */\n      0x00\n        /* \"#utility.yul\":12136:12142   */\n      dup1\n        /* \"#utility.yul\":12144:12150   */\n      0x00\n        /* \"#utility.yul\":12193:12195   */\n      0x60\n        /* \"#utility.yul\":12181:12190   */\n      dup5\n        /* \"#utility.yul\":12172:12179   */\n      dup7\n        /* \"#utility.yul\":12168:12191   */\n      sub\n        /* \"#utility.yul\":12164:12196   */\n      slt\n        /* \"#utility.yul\":12161:12280   */\n      iszero\n      tag_323\n      jumpi\n        /* \"#utility.yul\":12199:12278   */\n      tag_324\n      tag_111\n      jump\t// in\n    tag_324:\n        /* \"#utility.yul\":12161:12280   */\n    tag_323:\n        /* \"#utility.yul\":12347:12348   */\n      0x00\n        /* \"#utility.yul\":12336:12345   */\n      dup5\n        /* \"#utility.yul\":12332:12349   */\n      add\n        /* \"#utility.yul\":12319:12350   */\n      calldataload\n        /* \"#utility.yul\":12377:12395   */\n      0xffffffffffffffff\n        /* \"#utility.yul\":12369:12375   */\n      dup2\n        /* \"#utility.yul\":12366:12396   */\n      gt\n        /* \"#utility.yul\":12363:12480   */\n      iszero\n      tag_325\n      jumpi\n        /* \"#utility.yul\":12399:12478   */\n      tag_326\n      tag_112\n      jump\t// in\n    tag_326:\n        /* \"#utility.yul\":12363:12480   */\n    tag_325:\n        /* \"#utility.yul\":12504:12567   */\n      tag_327\n        /* \"#utility.yul\":12559:12566   */\n      dup7\n        /* \"#utility.yul\":12550:12556   */\n      dup3\n        /* \"#utility.yul\":12539:12548   */\n      dup8\n        /* \"#utility.yul\":12535:12557   */\n      add\n        /* \"#utility.yul\":12504:12567   */\n      tag_143\n      jump\t// in\n    tag_327:\n        /* \"#utility.yul\":12494:12567   */\n      swap4\n      pop\n        /* \"#utility.yul\":12290:12577   */\n      pop\n        /* \"#utility.yul\":12616:12618   */\n      0x20\n        /* \"#utility.yul\":12642:12695   */\n      tag_328\n        /* \"#utility.yul\":12687:12694   */\n      dup7\n        /* \"#utility.yul\":12678:12684   */\n      dup3\n        /* \"#utility.yul\":12667:12676   */\n      dup8\n        /* \"#utility.yul\":12663:12685   */\n      add\n        /* \"#utility.yul\":12642:12695   */\n      tag_145\n      jump\t// in\n    tag_328:\n        /* \"#utility.yul\":12632:12695   */\n      swap3\n      pop\n        /* \"#utility.yul\":12587:12705   */\n      pop\n        /* \"#utility.yul\":12744:12746   */\n      0x40\n        /* \"#utility.yul\":12770:12823   */\n      tag_329\n        /* \"#utility.yul\":12815:12822   */\n      dup7\n        /* \"#utility.yul\":12806:12812   */\n      dup3\n        /* \"#utility.yul\":12795:12804   */\n      dup8\n        /* \"#utility.yul\":12791:12813   */\n      add\n        /* \"#utility.yul\":12770:12823   */\n      tag_116\n      jump\t// in\n    tag_329:\n        /* \"#utility.yul\":12760:12823   */\n      swap2\n      pop\n        /* \"#utility.yul\":12715:12833   */\n      pop\n        /* \"#utility.yul\":12041:12840   */\n      swap3\n      pop\n      swap3\n      pop\n      swap3\n      jump\t// out\n        /* \"#utility.yul\":12846:13068   */\n    tag_67:\n        /* \"#utility.yul\":12939:12943   */\n      0x00\n        /* \"#utility.yul\":12977:12979   */\n      0x20\n        /* \"#utility.yul\":12966:12975   */\n      dup3\n        /* \"#utility.yul\":12962:12980   */\n      add\n        /* \"#utility.yul\":12954:12980   */\n      swap1\n      pop\n        /* \"#utility.yul\":12990:13061   */\n      tag_331\n        /* \"#utility.yul\":13058:13059   */\n      0x00\n        /* \"#utility.yul\":13047:13056   */\n      dup4\n        /* \"#utility.yul\":13043:13060   */\n      add\n        /* \"#utility.yul\":13034:13040   */\n      dup5\n        /* \"#utility.yul\":12990:13061   */\n      tag_130\n      jump\t// in\n    tag_331:\n        /* \"#utility.yul\":12846:13068   */\n      swap3\n      swap2\n      pop\n      pop\n      jump\t// out\n        /* \"#utility.yul\":13074:13221   */\n    tag_146:\n        /* \"#utility.yul\":13175:13186   */\n      0x00\n        /* \"#utility.yul\":13212:13215   */\n      dup2\n        /* \"#utility.yul\":13197:13215   */\n      swap1\n      pop\n        /* \"#utility.yul\":13074:13221   */\n      swap3\n      swap2\n      pop\n      pop\n      jump\t// out\n        /* \"#utility.yul\":13227:13613   */\n    tag_147:\n        /* \"#utility.yul\":13331:13334   */\n      0x00\n        /* \"#utility.yul\":13359:13397   */\n      tag_334\n        /* \"#utility.yul\":13391:13396   */\n      dup3\n        /* \"#utility.yul\":13359:13397   */\n      tag_105\n      jump\t// in\n    tag_334:\n        /* \"#utility.yul\":13413:13501   */\n      tag_335\n        /* \"#utility.yul\":13494:13500   */\n      dup2\n        /* \"#utility.yul\":13489:13492   */\n      dup6\n        /* \"#utility.yul\":13413:13501   */\n      tag_146\n      jump\t// in\n    tag_335:\n        /* \"#utility.yul\":13406:13501   */\n      swap4\n      pop\n        /* \"#utility.yul\":13510:13575   */\n      tag_336\n        /* \"#utility.yul\":13568:13574   */\n      dup2\n        /* \"#utility.yul\":13563:13566   */\n      dup6\n        /* \"#utility.yul\":13556:13560   */\n      0x20\n        /* \"#utility.yul\":13549:13554   */\n      dup7\n        /* \"#utility.yul\":13545:13561   */\n      add\n        /* \"#utility.yul\":13510:13575   */\n      tag_107\n      jump\t// in\n    tag_336:\n        /* \"#utility.yul\":13600:13606   */\n      dup1\n        /* \"#utility.yul\":13595:13598   */\n      dup5\n        /* \"#utility.yul\":13591:13607   */\n      add\n        /* \"#utility.yul\":13584:13607   */\n      swap2\n      pop\n        /* \"#utility.yul\":13335:13613   */\n      pop\n        /* \"#utility.yul\":13227:13613   */\n      swap3\n      swap2\n      pop\n      pop\n      jump\t// out\n        /* \"#utility.yul\":13619:13890   */\n    tag_69:\n        /* \"#utility.yul\":13749:13752   */\n      0x00\n        /* \"#utility.yul\":13771:13864   */\n      tag_338\n        /* \"#utility.yul\":13860:13863   */\n      dup3\n        /* \"#utility.yul\":13851:13857   */\n      dup5\n        /* \"#utility.yul\":13771:13864   */\n      tag_147\n      jump\t// in\n    tag_338:\n        /* \"#utility.yul\":13764:13864   */\n      swap2\n      pop\n        /* \"#utility.yul\":13881:13884   */\n      dup2\n        /* \"#utility.yul\":13874:13884   */\n      swap1\n      pop\n        /* \"#utility.yul\":13619:13890   */\n      swap3\n      swap2\n      pop\n      pop\n      jump\t// out\n        /* \"#utility.yul\":13918:14232   */\n    tag_148:\n        /* \"#utility.yul\":14014:14017   */\n      0x00\n        /* \"#utility.yul\":14035:14105   */\n      tag_340\n        /* \"#utility.yul\":14098:14104   */\n      dup4\n        /* \"#utility.yul\":14093:14096   */\n      dup6\n        /* \"#utility.yul\":14035:14105   */\n      tag_106\n      jump\t// in\n    tag_340:\n        /* \"#utility.yul\":14028:14105   */\n      swap4\n      pop\n        /* \"#utility.yul\":14115:14171   */\n      tag_341\n        /* \"#utility.yul\":14164:14170   */\n      dup4\n        /* \"#utility.yul\":14159:14162   */\n      dup6\n        /* \"#utility.yul\":14152:14157   */\n      dup5\n        /* \"#utility.yul\":14115:14171   */\n      tag_125\n      jump\t// in\n    tag_341:\n        /* \"#utility.yul\":14196:14225   */\n      tag_342\n        /* \"#utility.yul\":14218:14224   */\n      dup4\n        /* \"#utility.yul\":14196:14225   */\n      tag_108\n      jump\t// in\n    tag_342:\n        /* \"#utility.yul\":14191:14194   */\n      dup5\n        /* \"#utility.yul\":14187:14226   */\n      add\n        /* \"#utility.yul\":14180:14226   */\n      swap1\n      pop\n        /* \"#utility.yul\":13918:14232   */\n      swap4\n      swap3\n      pop\n      pop\n      pop\n      jump\t// out\n        /* \"#utility.yul\":14238:14567   */\n    tag_75:\n        /* \"#utility.yul\":14359:14363   */\n      0x00\n        /* \"#utility.yul\":14397:14399   */\n      0x20\n        /* \"#utility.yul\":14386:14395   */\n      dup3\n        /* \"#utility.yul\":14382:14400   */\n      add\n        /* \"#utility.yul\":14374:14400   */\n      swap1\n      pop\n        /* \"#utility.yul\":14446:14455   */\n      dup2\n        /* \"#utility.yul\":14440:14444   */\n      dup2\n        /* \"#utility.yul\":14436:14456   */\n      sub\n        /* \"#utility.yul\":14432:14433   */\n      0x00\n        /* \"#utility.yul\":14421:14430   */\n      dup4\n        /* \"#utility.yul\":14417:14434   */\n      add\n        /* \"#utility.yul\":14410:14457   */\n      mstore\n        /* \"#utility.yul\":14474:14560   */\n      tag_344\n        /* \"#utility.yul\":14555:14559   */\n      dup2\n        /* \"#utility.yul\":14546:14552   */\n      dup5\n        /* \"#utility.yul\":14538:14544   */\n      dup7\n        /* \"#utility.yul\":14474:14560   */\n      tag_148\n      jump\t// in\n    tag_344:\n        /* \"#utility.yul\":14466:14560   */\n      swap1\n      pop\n        /* \"#utility.yul\":14238:14567   */\n      swap4\n      swap3\n      pop\n      pop\n      pop\n      jump\t// out\n        /* \"#utility.yul\":14573:14753   */\n    tag_149:\n        /* \"#utility.yul\":14621:14698   */\n      0x4e487b7100000000000000000000000000000000000000000000000000000000\n        /* \"#utility.yul\":14618:14619   */\n      0x00\n        /* \"#utility.yul\":14611:14699   */\n      mstore\n        /* \"#utility.yul\":14718:14722   */\n      0x22\n        /* \"#utility.yul\":14715:14716   */\n      0x04\n        /* \"#utility.yul\":14708:14723   */\n      mstore\n        /* \"#utility.yul\":14742:14746   */\n      0x24\n        /* \"#utility.yul\":14739:14740   */\n      0x00\n        /* \"#utility.yul\":14732:14747   */\n      revert\n        /* \"#utility.yul\":14759:15079   */\n    tag_150:\n        /* \"#utility.yul\":14803:14809   */\n      0x00\n        /* \"#utility.yul\":14840:14841   */\n      0x02\n        /* \"#utility.yul\":14834:14838   */\n      dup3\n        /* \"#utility.yul\":14830:14842   */\n      div\n        /* \"#utility.yul\":14820:14842   */\n      swap1\n      pop\n        /* \"#utility.yul\":14887:14888   */\n      0x01\n        /* \"#utility.yul\":14881:14885   */\n      dup3\n        /* \"#utility.yul\":14877:14889   */\n      and\n        /* \"#utility.yul\":14908:14926   */\n      dup1\n        /* \"#utility.yul\":14898:14979   */\n      tag_347\n      jumpi\n        /* \"#utility.yul\":14964:14968   */\n      0x7f\n        /* \"#utility.yul\":14956:14962   */\n      dup3\n        /* \"#utility.yul\":14952:14969   */\n      and\n        /* \"#utility.yul\":14942:14969   */\n      swap2\n      pop\n        /* \"#utility.yul\":14898:14979   */\n    tag_347:\n        /* \"#utility.yul\":15026:15028   */\n      0x20\n        /* \"#utility.yul\":15018:15024   */\n      dup3\n        /* \"#utility.yul\":15015:15029   */\n      lt\n        /* \"#utility.yul\":14995:15013   */\n      dup2\n        /* \"#utility.yul\":14992:15030   */\n      sub\n        /* \"#utility.yul\":14989:15073   */\n      tag_348\n      jumpi\n        /* \"#utility.yul\":15045:15063   */\n      tag_349\n      tag_149\n      jump\t// in\n    tag_349:\n        /* \"#utility.yul\":14989:15073   */\n    tag_348:\n        /* \"#utility.yul\":14810:15079   */\n      pop\n        /* \"#utility.yul\":14759:15079   */\n      swap2\n      swap1\n      pop\n      jump\t// out\n        /* \"#utility.yul\":15085:15226   */\n    tag_151:\n        /* \"#utility.yul\":15134:15138   */\n      0x00\n        /* \"#utility.yul\":15157:15160   */\n      dup2\n        /* \"#utility.yul\":15149:15160   */\n      swap1\n      pop\n        /* \"#utility.yul\":15180:15183   */\n      dup2\n        /* \"#utility.yul\":15177:15178   */\n      0x00\n        /* \"#utility.yul\":15170:15184   */\n      mstore\n        /* \"#utility.yul\":15214:15218   */\n      0x20\n        /* \"#utility.yul\":15211:15212   */\n      0x00\n        /* \"#utility.yul\":15201:15219   */\n      keccak256\n        /* \"#utility.yul\":15193:15219   */\n      swap1\n      pop\n        /* \"#utility.yul\":15085:15226   */\n      swap2\n      swap1\n      pop\n      jump\t// out\n        /* \"#utility.yul\":15256:16087   */\n    tag_152:\n        /* \"#utility.yul\":15341:15344   */\n      0x00\n        /* \"#utility.yul\":15378:15383   */\n      dup2\n        /* \"#utility.yul\":15372:15384   */\n      sload\n        /* \"#utility.yul\":15407:15443   */\n      tag_352\n        /* \"#utility.yul\":15433:15442   */\n      dup2\n        /* \"#utility.yul\":15407:15443   */\n      tag_150\n      jump\t// in\n    tag_352:\n        /* \"#utility.yul\":15459:15530   */\n      tag_353\n        /* \"#utility.yul\":15523:15529   */\n      dup2\n        /* \"#utility.yul\":15518:15521   */\n      dup7\n        /* \"#utility.yul\":15459:15530   */\n      tag_132\n      jump\t// in\n    tag_353:\n        /* \"#utility.yul\":15452:15530   */\n      swap5\n      pop\n        /* \"#utility.yul\":15561:15562   */\n      0x01\n        /* \"#utility.yul\":15550:15559   */\n      dup3\n        /* \"#utility.yul\":15546:15563   */\n      and\n        /* \"#utility.yul\":15577:15578   */\n      0x00\n        /* \"#utility.yul\":15572:15736   */\n      dup2\n      eq\n      tag_355\n      jumpi\n        /* \"#utility.yul\":15750:15751   */\n      0x01\n        /* \"#utility.yul\":15745:16081   */\n      dup2\n      eq\n      tag_356\n      jumpi\n        /* \"#utility.yul\":15539:16081   */\n      jump(tag_354)\n        /* \"#utility.yul\":15572:15736   */\n    tag_355:\n        /* \"#utility.yul\":15656:15660   */\n      0xff\n        /* \"#utility.yul\":15652:15661   */\n      not\n        /* \"#utility.yul\":15641:15650   */\n      dup4\n        /* \"#utility.yul\":15637:15662   */\n      and\n        /* \"#utility.yul\":15632:15635   */\n      dup7\n        /* \"#utility.yul\":15625:15663   */\n      mstore\n        /* \"#utility.yul\":15716:15722   */\n      dup2\n        /* \"#utility.yul\":15709:15723   */\n      iszero\n        /* \"#utility.yul\":15702:15724   */\n      iszero\n        /* \"#utility.yul\":15696:15700   */\n      0x20\n        /* \"#utility.yul\":15692:15725   */\n      mul\n        /* \"#utility.yul\":15687:15690   */\n      dup7\n        /* \"#utility.yul\":15683:15726   */\n      add\n        /* \"#utility.yul\":15676:15726   */\n      swap4\n      pop\n        /* \"#utility.yul\":15572:15736   */\n      jump(tag_354)\n        /* \"#utility.yul\":15745:16081   */\n    tag_356:\n        /* \"#utility.yul\":15812:15850   */\n      tag_357\n        /* \"#utility.yul\":15844:15849   */\n      dup6\n        /* \"#utility.yul\":15812:15850   */\n      tag_151\n      jump\t// in\n    tag_357:\n        /* \"#utility.yul\":15872:15873   */\n      0x00\n        /* \"#utility.yul\":15886:16040   */\n    tag_358:\n        /* \"#utility.yul\":15900:15906   */\n      dup4\n        /* \"#utility.yul\":15897:15898   */\n      dup2\n        /* \"#utility.yul\":15894:15907   */\n      lt\n        /* \"#utility.yul\":15886:16040   */\n      iszero\n      tag_360\n      jumpi\n        /* \"#utility.yul\":15974:15981   */\n      dup2\n        /* \"#utility.yul\":15968:15982   */\n      sload\n        /* \"#utility.yul\":15964:15965   */\n      dup2\n        /* \"#utility.yul\":15959:15962   */\n      dup10\n        /* \"#utility.yul\":15955:15966   */\n      add\n        /* \"#utility.yul\":15948:15983   */\n      mstore\n        /* \"#utility.yul\":16024:16025   */\n      0x01\n        /* \"#utility.yul\":16015:16022   */\n      dup3\n        /* \"#utility.yul\":16011:16026   */\n      add\n        /* \"#utility.yul\":16000:16026   */\n      swap2\n      pop\n        /* \"#utility.yul\":15922:15926   */\n      0x20\n        /* \"#utility.yul\":15919:15920   */\n      dup2\n        /* \"#utility.yul\":15915:15927   */\n      add\n        /* \"#utility.yul\":15910:15927   */\n      swap1\n      pop\n        /* \"#utility.yul\":15886:16040   */\n      jump(tag_358)\n    tag_360:\n        /* \"#utility.yul\":16069:16070   */\n      dup1\n        /* \"#utility.yul\":16064:16067   */\n      dup9\n        /* \"#utility.yul\":16060:16071   */\n      add\n        /* \"#utility.yul\":16053:16071   */\n      swap6\n      pop\n        /* \"#utility.yul\":15752:16081   */\n      pop\n      pop\n        /* \"#utility.yul\":15539:16081   */\n    tag_354:\n      pop\n        /* \"#utility.yul\":15345:16087   */\n      pop\n      pop\n        /* \"#utility.yul\":15256:16087   */\n      swap3\n      swap2\n      pop\n      pop\n      jump\t// out\n        /* \"#utility.yul\":16093:16194   */\n    tag_153:\n        /* \"#utility.yul\":16155:16161   */\n      0x00\n        /* \"#utility.yul\":16183:16187   */\n      0x02\n        /* \"#utility.yul\":16173:16187   */\n      swap1\n      pop\n        /* \"#utility.yul\":16093:16194   */\n      swap2\n      swap1\n      pop\n      jump\t// out\n        /* \"#utility.yul\":16200:16295   */\n    tag_154:\n        /* \"#utility.yul\":16262:16266   */\n      0x00\n        /* \"#utility.yul\":16285:16288   */\n      dup2\n        /* \"#utility.yul\":16277:16288   */\n      swap1\n      pop\n        /* \"#utility.yul\":16200:16295   */\n      swap2\n      swap1\n      pop\n      jump\t// out\n        /* \"#utility.yul\":16301:16403   */\n    tag_155:\n        /* \"#utility.yul\":16343:16351   */\n      0x00\n        /* \"#utility.yul\":16390:16395   */\n      dup2\n        /* \"#utility.yul\":16387:16388   */\n      0x00\n        /* \"#utility.yul\":16383:16396   */\n      shr\n        /* \"#utility.yul\":16362:16396   */\n      swap1\n      pop\n        /* \"#utility.yul\":16301:16403   */\n      swap2\n      swap1\n      pop\n      jump\t// out\n        /* \"#utility.yul\":16409:16499   */\n    tag_156:\n        /* \"#utility.yul\":16459:16466   */\n      0x00\n        /* \"#utility.yul\":16488:16493   */\n      dup2\n        /* \"#utility.yul\":16477:16493   */\n      swap1\n      pop\n        /* \"#utility.yul\":16409:16499   */\n      swap2\n      swap1\n      pop\n      jump\t// out\n        /* \"#utility.yul\":16505:16671   */\n    tag_157:\n        /* \"#utility.yul\":16574:16579   */\n      0x00\n        /* \"#utility.yul\":16599:16665   */\n      tag_366\n        /* \"#utility.yul\":16630:16664   */\n      tag_367\n        /* \"#utility.yul\":16653:16663   */\n      dup4\n        /* \"#utility.yul\":16630:16664   */\n      tag_155\n      jump\t// in\n    tag_367:\n        /* \"#utility.yul\":16599:16665   */\n      tag_156\n      jump\t// in\n    tag_366:\n        /* \"#utility.yul\":16590:16665   */\n      swap1\n      pop\n        /* \"#utility.yul\":16505:16671   */\n      swap2\n      swap1\n      pop\n      jump\t// out\n        /* \"#utility.yul\":16677:16821   */\n    tag_158:\n        /* \"#utility.yul\":16732:16737   */\n      0x00\n        /* \"#utility.yul\":16757:16814   */\n      tag_369\n        /* \"#utility.yul\":16808:16812   */\n      dup3\n        /* \"#utility.yul\":16802:16813   */\n      sload\n        /* \"#utility.yul\":16757:16814   */\n      tag_157\n      jump\t// in\n    tag_369:\n        /* \"#utility.yul\":16748:16814   */\n      swap1\n      pop\n        /* \"#utility.yul\":16677:16821   */\n      swap2\n      swap1\n      pop\n      jump\t// out\n        /* \"#utility.yul\":16827:16935   */\n    tag_159:\n        /* \"#utility.yul\":16892:16896   */\n      0x00\n        /* \"#utility.yul\":16924:16928   */\n      0x01\n        /* \"#utility.yul\":16919:16922   */\n      dup3\n        /* \"#utility.yul\":16915:16929   */\n      add\n        /* \"#utility.yul\":16907:16929   */\n      swap1\n      pop\n        /* \"#utility.yul\":16827:16935   */\n      swap2\n      swap1\n      pop\n      jump\t// out\n        /* \"#utility.yul\":16973:17686   */\n    tag_160:\n        /* \"#utility.yul\":17106:17155   */\n      tag_372\n        /* \"#utility.yul\":17149:17154   */\n      dup2\n        /* \"#utility.yul\":17106:17155   */\n      tag_153\n      jump\t// in\n    tag_372:\n        /* \"#utility.yul\":17171:17255   */\n      tag_373\n        /* \"#utility.yul\":17248:17254   */\n      dup2\n        /* \"#utility.yul\":17243:17246   */\n      dup5\n        /* \"#utility.yul\":17171:17255   */\n      tag_135\n      jump\t// in\n    tag_373:\n        /* \"#utility.yul\":17164:17255   */\n      swap3\n      pop\n        /* \"#utility.yul\":17279:17330   */\n      tag_374\n        /* \"#utility.yul\":17324:17329   */\n      dup3\n        /* \"#utility.yul\":17279:17330   */\n      tag_154\n      jump\t// in\n    tag_374:\n        /* \"#utility.yul\":17353:17360   */\n      dup1\n        /* \"#utility.yul\":17384:17385   */\n      0x00\n        /* \"#utility.yul\":17369:17679   */\n    tag_375:\n        /* \"#utility.yul\":17394:17400   */\n      dup4\n        /* \"#utility.yul\":17391:17392   */\n      dup2\n        /* \"#utility.yul\":17388:17401   */\n      lt\n        /* \"#utility.yul\":17369:17679   */\n      iszero\n      tag_377\n      jumpi\n        /* \"#utility.yul\":17464:17508   */\n      tag_378\n        /* \"#utility.yul\":17501:17507   */\n      dup3\n        /* \"#utility.yul\":17464:17508   */\n      tag_158\n      jump\t// in\n    tag_378:\n        /* \"#utility.yul\":17528:17591   */\n      tag_379\n        /* \"#utility.yul\":17587:17590   */\n      dup8\n        /* \"#utility.yul\":17572:17585   */\n      dup3\n        /* \"#utility.yul\":17528:17591   */\n      tag_138\n      jump\t// in\n    tag_379:\n        /* \"#utility.yul\":17521:17591   */\n      swap7\n      pop\n        /* \"#utility.yul\":17614:17669   */\n      tag_380\n        /* \"#utility.yul\":17662:17668   */\n      dup4\n        /* \"#utility.yul\":17614:17669   */\n      tag_159\n      jump\t// in\n    tag_380:\n        /* \"#utility.yul\":17604:17669   */\n      swap3\n      pop\n        /* \"#utility.yul\":17429:17679   */\n      pop\n        /* \"#utility.yul\":17416:17417   */\n      0x01\n        /* \"#utility.yul\":17413:17414   */\n      dup2\n        /* \"#utility.yul\":17409:17418   */\n      add\n        /* \"#utility.yul\":17404:17418   */\n      swap1\n      pop\n        /* \"#utility.yul\":17369:17679   */\n      jump(tag_375)\n    tag_377:\n        /* \"#utility.yul\":17373:17387   */\n      pop\n        /* \"#utility.yul\":17082:17686   */\n      pop\n      pop\n      pop\n        /* \"#utility.yul\":16973:17686   */\n      pop\n      pop\n      jump\t// out\n        /* \"#utility.yul\":17692:18416   */\n    tag_79:\n        /* \"#utility.yul\":17929:17933   */\n      0x00\n        /* \"#utility.yul\":17967:17970   */\n      0xa0\n        /* \"#utility.yul\":17956:17965   */\n      dup3\n        /* \"#utility.yul\":17952:17971   */\n      add\n        /* \"#utility.yul\":17944:17971   */\n      swap1\n      pop\n        /* \"#utility.yul\":17981:18052   */\n      tag_382\n        /* \"#utility.yul\":18049:18050   */\n      0x00\n        /* \"#utility.yul\":18038:18047   */\n      dup4\n        /* \"#utility.yul\":18034:18051   */\n      add\n        /* \"#utility.yul\":18025:18031   */\n      dup8\n        /* \"#utility.yul\":17981:18052   */\n      tag_129\n      jump\t// in\n    tag_382:\n        /* \"#utility.yul\":18062:18134   */\n      tag_383\n        /* \"#utility.yul\":18130:18132   */\n      0x20\n        /* \"#utility.yul\":18119:18128   */\n      dup4\n        /* \"#utility.yul\":18115:18133   */\n      add\n        /* \"#utility.yul\":18106:18112   */\n      dup7\n        /* \"#utility.yul\":18062:18134   */\n      tag_130\n      jump\t// in\n    tag_383:\n        /* \"#utility.yul\":18181:18190   */\n      dup2\n        /* \"#utility.yul\":18175:18179   */\n      dup2\n        /* \"#utility.yul\":18171:18191   */\n      sub\n        /* \"#utility.yul\":18166:18168   */\n      0x40\n        /* \"#utility.yul\":18155:18164   */\n      dup4\n        /* \"#utility.yul\":18151:18169   */\n      add\n        /* \"#utility.yul\":18144:18192   */\n      mstore\n        /* \"#utility.yul\":18209:18284   */\n      tag_384\n        /* \"#utility.yul\":18279:18283   */\n      dup2\n        /* \"#utility.yul\":18270:18276   */\n      dup6\n        /* \"#utility.yul\":18209:18284   */\n      tag_152\n      jump\t// in\n    tag_384:\n        /* \"#utility.yul\":18201:18284   */\n      swap1\n      pop\n        /* \"#utility.yul\":18294:18409   */\n      tag_385\n        /* \"#utility.yul\":18405:18407   */\n      0x60\n        /* \"#utility.yul\":18394:18403   */\n      dup4\n        /* \"#utility.yul\":18390:18408   */\n      add\n        /* \"#utility.yul\":18381:18387   */\n      dup5\n        /* \"#utility.yul\":18294:18409   */\n      tag_160\n      jump\t// in\n    tag_385:\n        /* \"#utility.yul\":17692:18416   */\n      swap6\n      swap5\n      pop\n      pop\n      pop\n      pop\n      pop\n      jump\t// out\n        /* \"#utility.yul\":18422:18501   */\n    tag_161:\n        /* \"#utility.yul\":18461:18468   */\n      0x00\n        /* \"#utility.yul\":18490:18495   */\n      dup2\n        /* \"#utility.yul\":18479:18495   */\n      swap1\n      pop\n        /* \"#utility.yul\":18422:18501   */\n      swap2\n      swap1\n      pop\n      jump\t// out\n        /* \"#utility.yul\":18507:18664   */\n    tag_162:\n        /* \"#utility.yul\":18612:18657   */\n      tag_388\n        /* \"#utility.yul\":18632:18656   */\n      tag_389\n        /* \"#utility.yul\":18650:18655   */\n      dup3\n        /* \"#utility.yul\":18632:18656   */\n      tag_128\n      jump\t// in\n    tag_389:\n        /* \"#utility.yul\":18612:18657   */\n      tag_161\n      jump\t// in\n    tag_388:\n        /* \"#utility.yul\":18607:18610   */\n      dup3\n        /* \"#utility.yul\":18600:18658   */\n      mstore\n        /* \"#utility.yul\":18507:18664   */\n      pop\n      pop\n      jump\t// out\n        /* \"#utility.yul\":18670:18818   */\n    tag_163:\n        /* \"#utility.yul\":18772:18783   */\n      0x00\n        /* \"#utility.yul\":18809:18812   */\n      dup2\n        /* \"#utility.yul\":18794:18812   */\n      swap1\n      pop\n        /* \"#utility.yul\":18670:18818   */\n      swap3\n      swap2\n      pop\n      pop\n      jump\t// out\n        /* \"#utility.yul\":18848:19722   */\n    tag_164:\n        /* \"#utility.yul\":18951:18954   */\n      0x00\n        /* \"#utility.yul\":18988:18993   */\n      dup2\n        /* \"#utility.yul\":18982:18994   */\n      sload\n        /* \"#utility.yul\":19017:19053   */\n      tag_392\n        /* \"#utility.yul\":19043:19052   */\n      dup2\n        /* \"#utility.yul\":19017:19053   */\n      tag_150\n      jump\t// in\n    tag_392:\n        /* \"#utility.yul\":19069:19158   */\n      tag_393\n        /* \"#utility.yul\":19151:19157   */\n      dup2\n        /* \"#utility.yul\":19146:19149   */\n      dup7\n        /* \"#utility.yul\":19069:19158   */\n      tag_163\n      jump\t// in\n    tag_393:\n        /* \"#utility.yul\":19062:19158   */\n      swap5\n      pop\n        /* \"#utility.yul\":19189:19190   */\n      0x01\n        /* \"#utility.yul\":19178:19187   */\n      dup3\n        /* \"#utility.yul\":19174:19191   */\n      and\n        /* \"#utility.yul\":19205:19206   */\n      0x00\n        /* \"#utility.yul\":19200:19366   */\n      dup2\n      eq\n      tag_395\n      jumpi\n        /* \"#utility.yul\":19380:19381   */\n      0x01\n        /* \"#utility.yul\":19375:19716   */\n      dup2\n      eq\n      tag_396\n      jumpi\n        /* \"#utility.yul\":19167:19716   */\n      jump(tag_394)\n        /* \"#utility.yul\":19200:19366   */\n    tag_395:\n        /* \"#utility.yul\":19284:19288   */\n      0xff\n        /* \"#utility.yul\":19280:19289   */\n      not\n        /* \"#utility.yul\":19269:19278   */\n      dup4\n        /* \"#utility.yul\":19265:19290   */\n      and\n        /* \"#utility.yul\":19260:19263   */\n      dup7\n        /* \"#utility.yul\":19253:19291   */\n      mstore\n        /* \"#utility.yul\":19346:19352   */\n      dup2\n        /* \"#utility.yul\":19339:19353   */\n      iszero\n        /* \"#utility.yul\":19332:19354   */\n      iszero\n        /* \"#utility.yul\":19324:19330   */\n      dup3\n        /* \"#utility.yul\":19320:19355   */\n      mul\n        /* \"#utility.yul\":19315:19318   */\n      dup7\n        /* \"#utility.yul\":19311:19356   */\n      add\n        /* \"#utility.yul\":19304:19356   */\n      swap4\n      pop\n        /* \"#utility.yul\":19200:19366   */\n      jump(tag_394)\n        /* \"#utility.yul\":19375:19716   */\n    tag_396:\n        /* \"#utility.yul\":19442:19480   */\n      tag_397\n        /* \"#utility.yul\":19474:19479   */\n      dup6\n        /* \"#utility.yul\":19442:19480   */\n      tag_151\n      jump\t// in\n    tag_397:\n        /* \"#utility.yul\":19502:19503   */\n      0x00\n        /* \"#utility.yul\":19516:19670   */\n    tag_398:\n        /* \"#utility.yul\":19530:19536   */\n      dup4\n        /* \"#utility.yul\":19527:19528   */\n      dup2\n        /* \"#utility.yul\":19524:19537   */\n      lt\n        /* \"#utility.yul\":19516:19670   */\n      iszero\n      tag_400\n      jumpi\n        /* \"#utility.yul\":19604:19611   */\n      dup2\n        /* \"#utility.yul\":19598:19612   */\n      sload\n        /* \"#utility.yul\":19594:19595   */\n      dup2\n        /* \"#utility.yul\":19589:19592   */\n      dup10\n        /* \"#utility.yul\":19585:19596   */\n      add\n        /* \"#utility.yul\":19578:19613   */\n      mstore\n        /* \"#utility.yul\":19654:19655   */\n      0x01\n        /* \"#utility.yul\":19645:19652   */\n      dup3\n        /* \"#utility.yul\":19641:19656   */\n      add\n        /* \"#utility.yul\":19630:19656   */\n      swap2\n      pop\n        /* \"#utility.yul\":19552:19556   */\n      0x20\n        /* \"#utility.yul\":19549:19550   */\n      dup2\n        /* \"#utility.yul\":19545:19557   */\n      add\n        /* \"#utility.yul\":19540:19557   */\n      swap1\n      pop\n        /* \"#utility.yul\":19516:19670   */\n      jump(tag_398)\n    tag_400:\n        /* \"#utility.yul\":19699:19705   */\n      dup4\n        /* \"#utility.yul\":19694:19697   */\n      dup9\n        /* \"#utility.yul\":19690:19706   */\n      add\n        /* \"#utility.yul\":19683:19706   */\n      swap6\n      pop\n        /* \"#utility.yul\":19382:19716   */\n      pop\n      pop\n        /* \"#utility.yul\":19167:19716   */\n    tag_394:\n      pop\n        /* \"#utility.yul\":18955:19722   */\n      pop\n      pop\n        /* \"#utility.yul\":18848:19722   */\n      swap3\n      swap2\n      pop\n      pop\n      jump\t// out\n        /* \"#utility.yul\":19728:19822   */\n    tag_165:\n        /* \"#utility.yul\":19761:19769   */\n      0x00\n        /* \"#utility.yul\":19809:19814   */\n      dup2\n        /* \"#utility.yul\":19805:19807   */\n      0x60\n        /* \"#utility.yul\":19801:19815   */\n      shl\n        /* \"#utility.yul\":19780:19815   */\n      swap1\n      pop\n        /* \"#utility.yul\":19728:19822   */\n      swap2\n      swap1\n      pop\n      jump\t// out\n        /* \"#utility.yul\":19828:19922   */\n    tag_166:\n        /* \"#utility.yul\":19867:19874   */\n      0x00\n        /* \"#utility.yul\":19896:19916   */\n      tag_403\n        /* \"#utility.yul\":19910:19915   */\n      dup3\n        /* \"#utility.yul\":19896:19916   */\n      tag_165\n      jump\t// in\n    tag_403:\n        /* \"#utility.yul\":19885:19916   */\n      swap1\n      pop\n        /* \"#utility.yul\":19828:19922   */\n      swap2\n      swap1\n      pop\n      jump\t// out\n        /* \"#utility.yul\":19928:20028   */\n    tag_167:\n        /* \"#utility.yul\":19967:19974   */\n      0x00\n        /* \"#utility.yul\":19996:20022   */\n      tag_405\n        /* \"#utility.yul\":20016:20021   */\n      dup3\n        /* \"#utility.yul\":19996:20022   */\n      tag_166\n      jump\t// in\n    tag_405:\n        /* \"#utility.yul\":19985:20022   */\n      swap1\n      pop\n        /* \"#utility.yul\":19928:20028   */\n      swap2\n      swap1\n      pop\n      jump\t// out\n        /* \"#utility.yul\":20034:20191   */\n    tag_168:\n        /* \"#utility.yul\":20139:20184   */\n      tag_407\n        /* \"#utility.yul\":20159:20183   */\n      tag_408\n        /* \"#utility.yul\":20177:20182   */\n      dup3\n        /* \"#utility.yul\":20159:20183   */\n      tag_114\n      jump\t// in\n    tag_408:\n        /* \"#utility.yul\":20139:20184   */\n      tag_167\n      jump\t// in\n    tag_407:\n        /* \"#utility.yul\":20134:20137   */\n      dup3\n        /* \"#utility.yul\":20127:20185   */\n      mstore\n        /* \"#utility.yul\":20034:20191   */\n      pop\n      pop\n      jump\t// out\n        /* \"#utility.yul\":20197:20748   */\n    tag_82:\n        /* \"#utility.yul\":20382:20385   */\n      0x00\n        /* \"#utility.yul\":20397:20472   */\n      tag_410\n        /* \"#utility.yul\":20468:20471   */\n      dup3\n        /* \"#utility.yul\":20459:20465   */\n      dup7\n        /* \"#utility.yul\":20397:20472   */\n      tag_162\n      jump\t// in\n    tag_410:\n        /* \"#utility.yul\":20497:20499   */\n      0x20\n        /* \"#utility.yul\":20492:20495   */\n      dup3\n        /* \"#utility.yul\":20488:20500   */\n      add\n        /* \"#utility.yul\":20481:20500   */\n      swap2\n      pop\n        /* \"#utility.yul\":20517:20609   */\n      tag_411\n        /* \"#utility.yul\":20605:20608   */\n      dup3\n        /* \"#utility.yul\":20596:20602   */\n      dup6\n        /* \"#utility.yul\":20517:20609   */\n      tag_164\n      jump\t// in\n    tag_411:\n        /* \"#utility.yul\":20510:20609   */\n      swap2\n      pop\n        /* \"#utility.yul\":20619:20694   */\n      tag_412\n        /* \"#utility.yul\":20690:20693   */\n      dup3\n        /* \"#utility.yul\":20681:20687   */\n      dup5\n        /* \"#utility.yul\":20619:20694   */\n      tag_168\n      jump\t// in\n    tag_412:\n        /* \"#utility.yul\":20719:20721   */\n      0x14\n        /* \"#utility.yul\":20714:20717   */\n      dup3\n        /* \"#utility.yul\":20710:20722   */\n      add\n        /* \"#utility.yul\":20703:20722   */\n      swap2\n      pop\n        /* \"#utility.yul\":20739:20742   */\n      dup2\n        /* \"#utility.yul\":20732:20742   */\n      swap1\n      pop\n        /* \"#utility.yul\":20197:20748   */\n      swap5\n      swap4\n      pop\n      pop\n      pop\n      pop\n      jump\t// out\n        /* \"#utility.yul\":20754:20897   */\n    tag_169:\n        /* \"#utility.yul\":20811:20816   */\n      0x00\n        /* \"#utility.yul\":20842:20848   */\n      dup2\n        /* \"#utility.yul\":20836:20849   */\n      mload\n        /* \"#utility.yul\":20827:20849   */\n      swap1\n      pop\n        /* \"#utility.yul\":20858:20891   */\n      tag_414\n        /* \"#utility.yul\":20885:20890   */\n      dup2\n        /* \"#utility.yul\":20858:20891   */\n      tag_144\n      jump\t// in\n    tag_414:\n        /* \"#utility.yul\":20754:20897   */\n      swap3\n      swap2\n      pop\n      pop\n      jump\t// out\n        /* \"#utility.yul\":20903:21007   */\n    tag_170:\n        /* \"#utility.yul\":20948:20955   */\n      0x00\n        /* \"#utility.yul\":20977:21001   */\n      tag_416\n        /* \"#utility.yul\":20995:21000   */\n      dup3\n        /* \"#utility.yul\":20977:21001   */\n      tag_113\n      jump\t// in\n    tag_416:\n        /* \"#utility.yul\":20966:21001   */\n      swap1\n      pop\n        /* \"#utility.yul\":20903:21007   */\n      swap2\n      swap1\n      pop\n      jump\t// out\n        /* \"#utility.yul\":21013:21151   */\n    tag_171:\n        /* \"#utility.yul\":21094:21126   */\n      tag_418\n        /* \"#utility.yul\":21120:21125   */\n      dup2\n        /* \"#utility.yul\":21094:21126   */\n      tag_170\n      jump\t// in\n    tag_418:\n        /* \"#utility.yul\":21087:21092   */\n      dup2\n        /* \"#utility.yul\":21084:21127   */\n      eq\n        /* \"#utility.yul\":21074:21145   */\n      tag_419\n      jumpi\n        /* \"#utility.yul\":21141:21142   */\n      0x00\n        /* \"#utility.yul\":21138:21139   */\n      dup1\n        /* \"#utility.yul\":21131:21143   */\n      revert\n        /* \"#utility.yul\":21074:21145   */\n    tag_419:\n        /* \"#utility.yul\":21013:21151   */\n      pop\n      jump\t// out\n        /* \"#utility.yul\":21157:21316   */\n    tag_172:\n        /* \"#utility.yul\":21222:21227   */\n      0x00\n        /* \"#utility.yul\":21253:21259   */\n      dup2\n        /* \"#utility.yul\":21247:21260   */\n      mload\n        /* \"#utility.yul\":21238:21260   */\n      swap1\n      pop\n        /* \"#utility.yul\":21269:21310   */\n      tag_421\n        /* \"#utility.yul\":21304:21309   */\n      dup2\n        /* \"#utility.yul\":21269:21310   */\n      tag_171\n      jump\t// in\n    tag_421:\n        /* \"#utility.yul\":21157:21316   */\n      swap3\n      swap2\n      pop\n      pop\n      jump\t// out\n        /* \"#utility.yul\":21322:21756   */\n    tag_173:\n        /* \"#utility.yul\":21411:21416   */\n      0x00\n        /* \"#utility.yul\":21436:21502   */\n      tag_423\n        /* \"#utility.yul\":21452:21501   */\n      tag_424\n        /* \"#utility.yul\":21494:21500   */\n      dup5\n        /* \"#utility.yul\":21452:21501   */\n      tag_141\n      jump\t// in\n    tag_424:\n        /* \"#utility.yul\":21436:21502   */\n      tag_123\n      jump\t// in\n    tag_423:\n        /* \"#utility.yul\":21427:21502   */\n      swap1\n      pop\n        /* \"#utility.yul\":21525:21531   */\n      dup3\n        /* \"#utility.yul\":21518:21523   */\n      dup2\n        /* \"#utility.yul\":21511:21532   */\n      mstore\n        /* \"#utility.yul\":21563:21567   */\n      0x20\n        /* \"#utility.yul\":21556:21561   */\n      dup2\n        /* \"#utility.yul\":21552:21568   */\n      add\n        /* \"#utility.yul\":21601:21604   */\n      dup5\n        /* \"#utility.yul\":21592:21598   */\n      dup5\n        /* \"#utility.yul\":21587:21590   */\n      dup5\n        /* \"#utility.yul\":21583:21599   */\n      add\n        /* \"#utility.yul\":21580:21605   */\n      gt\n        /* \"#utility.yul\":21577:21689   */\n      iszero\n      tag_425\n      jumpi\n        /* \"#utility.yul\":21608:21687   */\n      tag_426\n      tag_120\n      jump\t// in\n    tag_426:\n        /* \"#utility.yul\":21577:21689   */\n    tag_425:\n        /* \"#utility.yul\":21698:21750   */\n      tag_427\n        /* \"#utility.yul\":21743:21749   */\n      dup5\n        /* \"#utility.yul\":21738:21741   */\n      dup3\n        /* \"#utility.yul\":21733:21736   */\n      dup6\n        /* \"#utility.yul\":21698:21750   */\n      tag_107\n      jump\t// in\n    tag_427:\n        /* \"#utility.yul\":21417:21756   */\n      pop\n        /* \"#utility.yul\":21322:21756   */\n      swap4\n      swap3\n      pop\n      pop\n      pop\n      jump\t// out\n        /* \"#utility.yul\":21776:22131   */\n    tag_174:\n        /* \"#utility.yul\":21843:21848   */\n      0x00\n        /* \"#utility.yul\":21892:21895   */\n      dup3\n        /* \"#utility.yul\":21885:21889   */\n      0x1f\n        /* \"#utility.yul\":21877:21883   */\n      dup4\n        /* \"#utility.yul\":21873:21890   */\n      add\n        /* \"#utility.yul\":21869:21896   */\n      slt\n        /* \"#utility.yul\":21859:21981   */\n      tag_429\n      jumpi\n        /* \"#utility.yul\":21900:21979   */\n      tag_430\n      tag_119\n      jump\t// in\n    tag_430:\n        /* \"#utility.yul\":21859:21981   */\n    tag_429:\n        /* \"#utility.yul\":22010:22016   */\n      dup2\n        /* \"#utility.yul\":22004:22017   */\n      mload\n        /* \"#utility.yul\":22035:22125   */\n      tag_431\n        /* \"#utility.yul\":22121:22124   */\n      dup5\n        /* \"#utility.yul\":22113:22119   */\n      dup3\n        /* \"#utility.yul\":22106:22110   */\n      0x20\n        /* \"#utility.yul\":22098:22104   */\n      dup7\n        /* \"#utility.yul\":22094:22111   */\n      add\n        /* \"#utility.yul\":22035:22125   */\n      tag_173\n      jump\t// in\n    tag_431:\n        /* \"#utility.yul\":22026:22125   */\n      swap2\n      pop\n        /* \"#utility.yul\":21849:22131   */\n      pop\n        /* \"#utility.yul\":21776:22131   */\n      swap3\n      swap2\n      pop\n      pop\n      jump\t// out\n        /* \"#utility.yul\":22137:22386   */\n    tag_175:\n        /* \"#utility.yul\":22212:22216   */\n      0x00\n        /* \"#utility.yul\":22302:22320   */\n      0xffffffffffffffff\n        /* \"#utility.yul\":22294:22300   */\n      dup3\n        /* \"#utility.yul\":22291:22321   */\n      gt\n        /* \"#utility.yul\":22288:22344   */\n      iszero\n      tag_433\n      jumpi\n        /* \"#utility.yul\":22324:22342   */\n      tag_434\n      tag_121\n      jump\t// in\n    tag_434:\n        /* \"#utility.yul\":22288:22344   */\n    tag_433:\n        /* \"#utility.yul\":22374:22378   */\n      0x20\n        /* \"#utility.yul\":22366:22372   */\n      dup3\n        /* \"#utility.yul\":22362:22379   */\n      mul\n        /* \"#utility.yul\":22354:22379   */\n      swap1\n      pop\n        /* \"#utility.yul\":22137:22386   */\n      swap2\n      swap1\n      pop\n      jump\t// out\n        /* \"#utility.yul\":22392:22509   */\n    tag_176:\n        /* \"#utility.yul\":22501:22502   */\n      0x00\n        /* \"#utility.yul\":22498:22499   */\n      dup1\n        /* \"#utility.yul\":22491:22503   */\n      revert\n        /* \"#utility.yul\":22533:23198   */\n    tag_177:\n        /* \"#utility.yul\":22638:22643   */\n      0x00\n        /* \"#utility.yul\":22663:22742   */\n      tag_437\n        /* \"#utility.yul\":22679:22741   */\n      tag_438\n        /* \"#utility.yul\":22734:22740   */\n      dup5\n        /* \"#utility.yul\":22679:22741   */\n      tag_175\n      jump\t// in\n    tag_438:\n        /* \"#utility.yul\":22663:22742   */\n      tag_123\n      jump\t// in\n    tag_437:\n        /* \"#utility.yul\":22654:22742   */\n      swap1\n      pop\n        /* \"#utility.yul\":22762:22767   */\n      dup1\n        /* \"#utility.yul\":22815:22819   */\n      0x20\n        /* \"#utility.yul\":22807:22813   */\n      dup5\n        /* \"#utility.yul\":22803:22820   */\n      mul\n        /* \"#utility.yul\":22795:22801   */\n      dup4\n        /* \"#utility.yul\":22791:22821   */\n      add\n        /* \"#utility.yul\":22844:22847   */\n      dup6\n        /* \"#utility.yul\":22836:22842   */\n      dup2\n        /* \"#utility.yul\":22833:22848   */\n      gt\n        /* \"#utility.yul\":22830:22952   */\n      iszero\n      tag_439\n      jumpi\n        /* \"#utility.yul\":22863:22942   */\n      tag_440\n      tag_176\n      jump\t// in\n    tag_440:\n        /* \"#utility.yul\":22830:22952   */\n    tag_439:\n        /* \"#utility.yul\":22978:22984   */\n      dup4\n        /* \"#utility.yul\":22961:23192   */\n    tag_441:\n        /* \"#utility.yul\":22995:23001   */\n      dup2\n        /* \"#utility.yul\":22990:22993   */\n      dup2\n        /* \"#utility.yul\":22987:23002   */\n      lt\n        /* \"#utility.yul\":22961:23192   */\n      iszero\n      tag_443\n      jumpi\n        /* \"#utility.yul\":23070:23073   */\n      dup1\n        /* \"#utility.yul\":23099:23147   */\n      tag_444\n        /* \"#utility.yul\":23143:23146   */\n      dup9\n        /* \"#utility.yul\":23131:23141   */\n      dup3\n        /* \"#utility.yul\":23099:23147   */\n      tag_169\n      jump\t// in\n    tag_444:\n        /* \"#utility.yul\":23094:23097   */\n      dup5\n        /* \"#utility.yul\":23087:23148   */\n      mstore\n        /* \"#utility.yul\":23177:23181   */\n      0x20\n        /* \"#utility.yul\":23172:23175   */\n      dup5\n        /* \"#utility.yul\":23168:23182   */\n      add\n        /* \"#utility.yul\":23161:23182   */\n      swap4\n      pop\n        /* \"#utility.yul\":23037:23192   */\n      pop\n        /* \"#utility.yul\":23021:23025   */\n      0x20\n        /* \"#utility.yul\":23016:23019   */\n      dup2\n        /* \"#utility.yul\":23012:23026   */\n      add\n        /* \"#utility.yul\":23005:23026   */\n      swap1\n      pop\n        /* \"#utility.yul\":22961:23192   */\n      jump(tag_441)\n    tag_443:\n        /* \"#utility.yul\":22965:22986   */\n      pop\n        /* \"#utility.yul\":22644:23198   */\n      pop\n      pop\n        /* \"#utility.yul\":22533:23198   */\n      swap4\n      swap3\n      pop\n      pop\n      pop\n      jump\t// out\n        /* \"#utility.yul\":23222:23583   */\n    tag_178:\n        /* \"#utility.yul\":23302:23307   */\n      0x00\n        /* \"#utility.yul\":23351:23354   */\n      dup3\n        /* \"#utility.yul\":23344:23348   */\n      0x1f\n        /* \"#utility.yul\":23336:23342   */\n      dup4\n        /* \"#utility.yul\":23332:23349   */\n      add\n        /* \"#utility.yul\":23328:23355   */\n      slt\n        /* \"#utility.yul\":23318:23440   */\n      tag_446\n      jumpi\n        /* \"#utility.yul\":23359:23438   */\n      tag_447\n      tag_119\n      jump\t// in\n    tag_447:\n        /* \"#utility.yul\":23318:23440   */\n    tag_446:\n        /* \"#utility.yul\":23463:23467   */\n      0x02\n        /* \"#utility.yul\":23485:23577   */\n      tag_448\n        /* \"#utility.yul\":23573:23576   */\n      dup5\n        /* \"#utility.yul\":23565:23571   */\n      dup3\n        /* \"#utility.yul\":23557:23563   */\n      dup6\n        /* \"#utility.yul\":23485:23577   */\n      tag_177\n      jump\t// in\n    tag_448:\n        /* \"#utility.yul\":23476:23577   */\n      swap2\n      pop\n        /* \"#utility.yul\":23308:23583   */\n      pop\n        /* \"#utility.yul\":23222:23583   */\n      swap3\n      swap2\n      pop\n      pop\n      jump\t// out\n        /* \"#utility.yul\":23589:24644   */\n    tag_87:\n        /* \"#utility.yul\":23727:23733   */\n      0x00\n        /* \"#utility.yul\":23735:23741   */\n      dup1\n        /* \"#utility.yul\":23743:23749   */\n      0x00\n        /* \"#utility.yul\":23751:23757   */\n      dup1\n        /* \"#utility.yul\":23800:23803   */\n      0xa0\n        /* \"#utility.yul\":23788:23797   */\n      dup6\n        /* \"#utility.yul\":23779:23786   */\n      dup8\n        /* \"#utility.yul\":23775:23798   */\n      sub\n        /* \"#utility.yul\":23771:23804   */\n      slt\n        /* \"#utility.yul\":23768:23888   */\n      iszero\n      tag_450\n      jumpi\n        /* \"#utility.yul\":23807:23886   */\n      tag_451\n      tag_111\n      jump\t// in\n    tag_451:\n        /* \"#utility.yul\":23768:23888   */\n    tag_450:\n        /* \"#utility.yul\":23927:23928   */\n      0x00\n        /* \"#utility.yul\":23952:24016   */\n      tag_452\n        /* \"#utility.yul\":24008:24015   */\n      dup8\n        /* \"#utility.yul\":23999:24005   */\n      dup3\n        /* \"#utility.yul\":23988:23997   */\n      dup9\n        /* \"#utility.yul\":23984:24006   */\n      add\n        /* \"#utility.yul\":23952:24016   */\n      tag_169\n      jump\t// in\n    tag_452:\n        /* \"#utility.yul\":23942:24016   */\n      swap5\n      pop\n        /* \"#utility.yul\":23898:24026   */\n      pop\n        /* \"#utility.yul\":24065:24067   */\n      0x20\n        /* \"#utility.yul\":24091:24163   */\n      tag_453\n        /* \"#utility.yul\":24155:24162   */\n      dup8\n        /* \"#utility.yul\":24146:24152   */\n      dup3\n        /* \"#utility.yul\":24135:24144   */\n      dup9\n        /* \"#utility.yul\":24131:24153   */\n      add\n        /* \"#utility.yul\":24091:24163   */\n      tag_172\n      jump\t// in\n    tag_453:\n        /* \"#utility.yul\":24081:24163   */\n      swap4\n      pop\n        /* \"#utility.yul\":24036:24173   */\n      pop\n        /* \"#utility.yul\":24233:24235   */\n      0x40\n        /* \"#utility.yul\":24222:24231   */\n      dup6\n        /* \"#utility.yul\":24218:24236   */\n      add\n        /* \"#utility.yul\":24212:24237   */\n      mload\n        /* \"#utility.yul\":24264:24282   */\n      0xffffffffffffffff\n        /* \"#utility.yul\":24256:24262   */\n      dup2\n        /* \"#utility.yul\":24253:24283   */\n      gt\n        /* \"#utility.yul\":24250:24367   */\n      iszero\n      tag_454\n      jumpi\n        /* \"#utility.yul\":24286:24365   */\n      tag_455\n      tag_112\n      jump\t// in\n    tag_455:\n        /* \"#utility.yul\":24250:24367   */\n    tag_454:\n        /* \"#utility.yul\":24391:24465   */\n      tag_456\n        /* \"#utility.yul\":24457:24464   */\n      dup8\n        /* \"#utility.yul\":24448:24454   */\n      dup3\n        /* \"#utility.yul\":24437:24446   */\n      dup9\n        /* \"#utility.yul\":24433:24455   */\n      add\n        /* \"#utility.yul\":24391:24465   */\n      tag_174\n      jump\t// in\n    tag_456:\n        /* \"#utility.yul\":24381:24465   */\n      swap3\n      pop\n        /* \"#utility.yul\":24183:24475   */\n      pop\n        /* \"#utility.yul\":24514:24516   */\n      0x60\n        /* \"#utility.yul\":24540:24627   */\n      tag_457\n        /* \"#utility.yul\":24619:24626   */\n      dup8\n        /* \"#utility.yul\":24610:24616   */\n      dup3\n        /* \"#utility.yul\":24599:24608   */\n      dup9\n        /* \"#utility.yul\":24595:24617   */\n      add\n        /* \"#utility.yul\":24540:24627   */\n      tag_178\n      jump\t// in\n    tag_457:\n        /* \"#utility.yul\":24530:24627   */\n      swap2\n      pop\n        /* \"#utility.yul\":24485:24637   */\n      pop\n        /* \"#utility.yul\":23589:24644   */\n      swap3\n      swap6\n      swap2\n      swap5\n      pop\n      swap3\n      pop\n      jump\t// out\n        /* \"#utility.yul\":24650:24811   */\n    tag_179:\n        /* \"#utility.yul\":24765:24776   */\n      0x00\n        /* \"#utility.yul\":24802:24805   */\n      dup2\n        /* \"#utility.yul\":24787:24805   */\n      swap1\n      pop\n        /* \"#utility.yul\":24650:24811   */\n      swap3\n      swap2\n      pop\n      pop\n      jump\t// out\n        /* \"#utility.yul\":24817:24933   */\n    tag_180:\n        /* \"#utility.yul\":24902:24926   */\n      tag_460\n        /* \"#utility.yul\":24920:24925   */\n      dup2\n        /* \"#utility.yul\":24902:24926   */\n      tag_128\n      jump\t// in\n    tag_460:\n        /* \"#utility.yul\":24897:24900   */\n      dup3\n        /* \"#utility.yul\":24890:24927   */\n      mstore\n        /* \"#utility.yul\":24817:24933   */\n      pop\n      pop\n      jump\t// out\n        /* \"#utility.yul\":24939:25134   */\n    tag_181:\n        /* \"#utility.yul\":25016:25026   */\n      0x00\n        /* \"#utility.yul\":25037:25091   */\n      tag_462\n        /* \"#utility.yul\":25087:25090   */\n      dup4\n        /* \"#utility.yul\":25079:25085   */\n      dup4\n        /* \"#utility.yul\":25037:25091   */\n      tag_180\n      jump\t// in\n    tag_462:\n        /* \"#utility.yul\":25123:25127   */\n      0x20\n        /* \"#utility.yul\":25118:25121   */\n      dup4\n        /* \"#utility.yul\":25114:25128   */\n      add\n        /* \"#utility.yul\":25100:25128   */\n      swap1\n      pop\n        /* \"#utility.yul\":24939:25134   */\n      swap3\n      swap2\n      pop\n      pop\n      jump\t// out\n        /* \"#utility.yul\":25172:25929   */\n    tag_182:\n        /* \"#utility.yul\":25323:25372   */\n      tag_464\n        /* \"#utility.yul\":25366:25371   */\n      dup2\n        /* \"#utility.yul\":25323:25372   */\n      tag_153\n      jump\t// in\n    tag_464:\n        /* \"#utility.yul\":25388:25490   */\n      tag_465\n        /* \"#utility.yul\":25483:25489   */\n      dup2\n        /* \"#utility.yul\":25478:25481   */\n      dup5\n        /* \"#utility.yul\":25388:25490   */\n      tag_179\n      jump\t// in\n    tag_465:\n        /* \"#utility.yul\":25381:25490   */\n      swap3\n      pop\n        /* \"#utility.yul\":25514:25565   */\n      tag_466\n        /* \"#utility.yul\":25559:25564   */\n      dup3\n        /* \"#utility.yul\":25514:25565   */\n      tag_154\n      jump\t// in\n    tag_466:\n        /* \"#utility.yul\":25588:25595   */\n      dup1\n        /* \"#utility.yul\":25619:25620   */\n      0x00\n        /* \"#utility.yul\":25604:25922   */\n    tag_467:\n        /* \"#utility.yul\":25629:25635   */\n      dup4\n        /* \"#utility.yul\":25626:25627   */\n      dup2\n        /* \"#utility.yul\":25623:25636   */\n      lt\n        /* \"#utility.yul\":25604:25922   */\n      iszero\n      tag_469\n      jumpi\n        /* \"#utility.yul\":25699:25743   */\n      tag_470\n        /* \"#utility.yul\":25736:25742   */\n      dup3\n        /* \"#utility.yul\":25699:25743   */\n      tag_158\n      jump\t// in\n    tag_470:\n        /* \"#utility.yul\":25763:25834   */\n      tag_471\n        /* \"#utility.yul\":25830:25833   */\n      dup8\n        /* \"#utility.yul\":25815:25828   */\n      dup3\n        /* \"#utility.yul\":25763:25834   */\n      tag_181\n      jump\t// in\n    tag_471:\n        /* \"#utility.yul\":25756:25834   */\n      swap7\n      pop\n        /* \"#utility.yul\":25857:25912   */\n      tag_472\n        /* \"#utility.yul\":25905:25911   */\n      dup4\n        /* \"#utility.yul\":25857:25912   */\n      tag_159\n      jump\t// in\n    tag_472:\n        /* \"#utility.yul\":25847:25912   */\n      swap3\n      pop\n        /* \"#utility.yul\":25664:25922   */\n      pop\n        /* \"#utility.yul\":25651:25652   */\n      0x01\n        /* \"#utility.yul\":25648:25649   */\n      dup2\n        /* \"#utility.yul\":25644:25653   */\n      add\n        /* \"#utility.yul\":25639:25653   */\n      swap1\n      pop\n        /* \"#utility.yul\":25604:25922   */\n      jump(tag_467)\n    tag_469:\n        /* \"#utility.yul\":25608:25622   */\n      pop\n        /* \"#utility.yul\":25299:25929   */\n      pop\n      pop\n      pop\n        /* \"#utility.yul\":25172:25929   */\n      pop\n      pop\n      jump\t// out\n        /* \"#utility.yul\":25935:26713   */\n    tag_92:\n        /* \"#utility.yul\":26191:26194   */\n      0x00\n        /* \"#utility.yul\":26206:26281   */\n      tag_474\n        /* \"#utility.yul\":26277:26280   */\n      dup3\n        /* \"#utility.yul\":26268:26274   */\n      dup8\n        /* \"#utility.yul\":26206:26281   */\n      tag_162\n      jump\t// in\n    tag_474:\n        /* \"#utility.yul\":26306:26308   */\n      0x20\n        /* \"#utility.yul\":26301:26304   */\n      dup3\n        /* \"#utility.yul\":26297:26309   */\n      add\n        /* \"#utility.yul\":26290:26309   */\n      swap2\n      pop\n        /* \"#utility.yul\":26319:26394   */\n      tag_475\n        /* \"#utility.yul\":26390:26393   */\n      dup3\n        /* \"#utility.yul\":26381:26387   */\n      dup7\n        /* \"#utility.yul\":26319:26394   */\n      tag_168\n      jump\t// in\n    tag_475:\n        /* \"#utility.yul\":26419:26421   */\n      0x14\n        /* \"#utility.yul\":26414:26417   */\n      dup3\n        /* \"#utility.yul\":26410:26422   */\n      add\n        /* \"#utility.yul\":26403:26422   */\n      swap2\n      pop\n        /* \"#utility.yul\":26439:26531   */\n      tag_476\n        /* \"#utility.yul\":26527:26530   */\n      dup3\n        /* \"#utility.yul\":26518:26524   */\n      dup6\n        /* \"#utility.yul\":26439:26531   */\n      tag_164\n      jump\t// in\n    tag_476:\n        /* \"#utility.yul\":26432:26531   */\n      swap2\n      pop\n        /* \"#utility.yul\":26541:26659   */\n      tag_477\n        /* \"#utility.yul\":26655:26658   */\n      dup3\n        /* \"#utility.yul\":26646:26652   */\n      dup5\n        /* \"#utility.yul\":26541:26659   */\n      tag_182\n      jump\t// in\n    tag_477:\n        /* \"#utility.yul\":26684:26686   */\n      0x40\n        /* \"#utility.yul\":26679:26682   */\n      dup3\n        /* \"#utility.yul\":26675:26687   */\n      add\n        /* \"#utility.yul\":26668:26687   */\n      swap2\n      pop\n        /* \"#utility.yul\":26704:26707   */\n      dup2\n        /* \"#utility.yul\":26697:26707   */\n      swap1\n      pop\n        /* \"#utility.yul\":25935:26713   */\n      swap6\n      swap5\n      pop\n      pop\n      pop\n      pop\n      pop\n      jump\t// out\n        /* \"#utility.yul\":26719:27109   */\n    tag_183:\n        /* \"#utility.yul\":26825:26828   */\n      0x00\n        /* \"#utility.yul\":26853:26892   */\n      tag_479\n        /* \"#utility.yul\":26886:26891   */\n      dup3\n        /* \"#utility.yul\":26853:26892   */\n      tag_131\n      jump\t// in\n    tag_479:\n        /* \"#utility.yul\":26908:26997   */\n      tag_480\n        /* \"#utility.yul\":26990:26996   */\n      dup2\n        /* \"#utility.yul\":26985:26988   */\n      dup6\n        /* \"#utility.yul\":26908:26997   */\n      tag_163\n      jump\t// in\n    tag_480:\n        /* \"#utility.yul\":26901:26997   */\n      swap4\n      pop\n        /* \"#utility.yul\":27006:27071   */\n      tag_481\n        /* \"#utility.yul\":27064:27070   */\n      dup2\n        /* \"#utility.yul\":27059:27062   */\n      dup6\n        /* \"#utility.yul\":27052:27056   */\n      0x20\n        /* \"#utility.yul\":27045:27050   */\n      dup7\n        /* \"#utility.yul\":27041:27057   */\n      add\n        /* \"#utility.yul\":27006:27071   */\n      tag_107\n      jump\t// in\n    tag_481:\n        /* \"#utility.yul\":27096:27102   */\n      dup1\n        /* \"#utility.yul\":27091:27094   */\n      dup5\n        /* \"#utility.yul\":27087:27103   */\n      add\n        /* \"#utility.yul\":27080:27103   */\n      swap2\n      pop\n        /* \"#utility.yul\":26829:27109   */\n      pop\n        /* \"#utility.yul\":26719:27109   */\n      swap3\n      swap2\n      pop\n      pop\n      jump\t// out\n        /* \"#utility.yul\":27115:27390   */\n    tag_95:\n        /* \"#utility.yul\":27247:27250   */\n      0x00\n        /* \"#utility.yul\":27269:27364   */\n      tag_483\n        /* \"#utility.yul\":27360:27363   */\n      dup3\n        /* \"#utility.yul\":27351:27357   */\n      dup5\n        /* \"#utility.yul\":27269:27364   */\n      tag_183\n      jump\t// in\n    tag_483:\n        /* \"#utility.yul\":27262:27364   */\n      swap2\n      pop\n        /* \"#utility.yul\":27381:27384   */\n      dup2\n        /* \"#utility.yul\":27374:27384   */\n      swap1\n      pop\n        /* \"#utility.yul\":27115:27390   */\n      swap3\n      swap2\n      pop\n      pop\n      jump\t// out\n        /* \"#utility.yul\":27396:27953   */\n    tag_98:\n        /* \"#utility.yul\":27584:27587   */\n      0x00\n        /* \"#utility.yul\":27606:27701   */\n      tag_485\n        /* \"#utility.yul\":27697:27700   */\n      dup3\n        /* \"#utility.yul\":27688:27694   */\n      dup7\n        /* \"#utility.yul\":27606:27701   */\n      tag_183\n      jump\t// in\n    tag_485:\n        /* \"#utility.yul\":27599:27701   */\n      swap2\n      pop\n        /* \"#utility.yul\":27711:27786   */\n      tag_486\n        /* \"#utility.yul\":27782:27785   */\n      dup3\n        /* \"#utility.yul\":27773:27779   */\n      dup6\n        /* \"#utility.yul\":27711:27786   */\n      tag_162\n      jump\t// in\n    tag_486:\n        /* \"#utility.yul\":27811:27813   */\n      0x20\n        /* \"#utility.yul\":27806:27809   */\n      dup3\n        /* \"#utility.yul\":27802:27814   */\n      add\n        /* \"#utility.yul\":27795:27814   */\n      swap2\n      pop\n        /* \"#utility.yul\":27824:27899   */\n      tag_487\n        /* \"#utility.yul\":27895:27898   */\n      dup3\n        /* \"#utility.yul\":27886:27892   */\n      dup5\n        /* \"#utility.yul\":27824:27899   */\n      tag_168\n      jump\t// in\n    tag_487:\n        /* \"#utility.yul\":27924:27926   */\n      0x14\n        /* \"#utility.yul\":27919:27922   */\n      dup3\n        /* \"#utility.yul\":27915:27927   */\n      add\n        /* \"#utility.yul\":27908:27927   */\n      swap2\n      pop\n        /* \"#utility.yul\":27944:27947   */\n      dup2\n        /* \"#utility.yul\":27937:27947   */\n      swap1\n      pop\n        /* \"#utility.yul\":27396:27953   */\n      swap5\n      swap4\n      pop\n      pop\n      pop\n      pop\n      jump\t// out\n\n    auxdata: 0xa264697066735822122006cc310a46701bf66bce077abd10cd25ada655c11ebb4232790e23af41d3909b64736f6c63430008110033\n}\n",
				"bytecode": {
					"linkReferences": {},
					"object": "6080604052607b600055737a58c0be72be218b41c608b7fe7c5bb630736c71600160006101000a81548173ffffffffffffffffffffffffffffffffffffffff021916908373ffffffffffffffffffffffffffffffffffffffff1602179055506040518060400160405280600481526020017f637770700000000000000000000000000000000000000000000000000000000081525060029081620000a49190620003f6565b506040518060400160405280600660ff168152602001600960ff168152506003906002620000d492919062000113565b50604051602001620000e69062000538565b604051602081830303815290604052805190602001206005553480156200010c57600080fd5b506200054f565b82600281019282156200014a579160200282015b8281111562000149578251829060ff1690559160200191906001019062000127565b5b5090506200015991906200015d565b5090565b5b80821115620001785760008160009055506001016200015e565b5090565b600081519050919050565b7f4e487b7100000000000000000000000000000000000000000000000000000000600052604160045260246000fd5b7f4e487b7100000000000000000000000000000000000000000000000000000000600052602260045260246000fd5b60006002820490506001821680620001fe57607f821691505b602082108103620002145762000213620001b6565b5b50919050565b60008190508160005260206000209050919050565b60006020601f8301049050919050565b600082821b905092915050565b6000600883026200027e7fffffffffffffffffffffffffffffffffffffffffffffffffffffffffffffffff826200023f565b6200028a86836200023f565b95508019841693508086168417925050509392505050565b6000819050919050565b6000819050919050565b6000620002d7620002d1620002cb84620002a2565b620002ac565b620002a2565b9050919050565b6000819050919050565b620002f383620002b6565b6200030b6200030282620002de565b8484546200024c565b825550505050565b600090565b6200032262000313565b6200032f818484620002e8565b505050565b5b8181101562000357576200034b60008262000318565b60018101905062000335565b5050565b601f821115620003a65762000370816200021a565b6200037b846200022f565b810160208510156200038b578190505b620003a36200039a856200022f565b83018262000334565b50505b505050565b600082821c905092915050565b6000620003cb60001984600802620003ab565b1980831691505092915050565b6000620003e68383620003b8565b9150826002028217905092915050565b62000401826200017c565b67ffffffffffffffff8111156200041d576200041c62000187565b5b620004298254620001e5565b620004368282856200035b565b600060209050601f8311600181146200046e576000841562000459578287015190505b620004658582620003d8565b865550620004d5565b601f1984166200047e866200021a565b60005b82811015620004a85784890151825560018201915060208501945060208101905062000481565b86831015620004c85784890151620004c4601f891682620003b8565b8355505b6001600288020188555050505b505050505050565b600081905092915050565b7f3078616100000000000000000000000000000000000000000000000000000000600082015250565b600062000520600483620004dd565b91506200052d82620004e8565b600482019050919050565b6000620005458262000511565b9150819050919050565b61152d806200055f6000396000f3fe608060405234801561001057600080fd5b50600436106100b45760003560e01c8063bac1d57211610071578063bac1d5721461016c578063bd14598f1461019f578063bed7532c146101bd578063d6abfc7b146101db578063f20f1e9e1461020b578063f7d13ab01461023b576100b4565b806310c8c11d146100b95780632b9c6157146100d75780636a627842146100f65780636b426eec14610112578063b55ffc0414610130578063ba1663ca1461014e575b600080fd5b6100c1610259565b6040516100ce9190610709565b60405180910390f35b6100df61025f565b6040516100ed9291906107cf565b60405180910390f35b610110600480360381019061010b9190610871565b610348565b005b61011a610385565b60405161012791906108d9565b60405180910390f35b6101386103ad565b60405161014591906108f4565b60405180910390f35b61015661046f565b6040516101639190610709565b60405180910390f35b61018660048036038101906101819190610a4b565b6104c5565b6040516101969493929190610bbc565b60405180910390f35b6101a76104fd565b6040516101b491906108f4565b60405180910390f35b6101c5610550565b6040516101d291906108f4565b60405180910390f35b6101f560048036038101906101f09190610ca9565b6105a3565b6040516102029190610cf2565b60405180910390f35b61022560048036038101906102209190610d39565b6105d7565b6040516102329190610709565b60405180910390f35b61024361060d565b60405161025091906108f4565b60405180910390f35b60055481565b600060606000803073ffffffffffffffffffffffffffffffffffffffff16636a627842732c44b726adf1963ca47af88b284c06f30380fc786040516024016102a79190610da8565b6040516020818303038152906040529060e01b6020820180517bffffffffffffffffffffffffffffffffffffffffffffffffffffffff83818316178352505050506040516102f59190610dff565b6000604051808303816000865af19150503d8060008114610332576040519150601f19603f3d011682016040523d82523d6000602084013e610337565b606091505b509150915081819350935050509091565b7fafabcf2dd47e06a477a89e49c03f8ebe8e0a7e94f775b25bbb24227c9d0110b260003660405161037a929190610e43565b60405180910390a150565b60007f6a627842f752de95745ef8f3ca67858982b5f585d752f8163e5855050041cb3c905090565b60607fcc4decd87843118ac7919b8d43c3881a878e588562c10d9c65a231b5971b6c77600054600160009054906101000a900473ffffffffffffffffffffffffffffffffffffffff166002600360405160240161040d9493929190611024565b604051602081830303815290604052907bffffffffffffffffffffffffffffffffffffffffffffffffffffffff19166020820180517bffffffffffffffffffffffffffffffffffffffffffffffffffffffff8381831617835250505050905090565b600080546002600160009054906101000a900473ffffffffffffffffffffffffffffffffffffffff166040516020016104aa93929190611167565b60405160208183030381529060405280519060200120905090565b60008060606104d26106ce565b848060200190518101906104e69190611319565b809450819550829650839750505050509193509193565b6060600054600160009054906101000a900473ffffffffffffffffffffffffffffffffffffffff166002600360405160200161053c9493929190611024565b604051602081830303815290604052905090565b6060600054600160009054906101000a900473ffffffffffffffffffffffffffffffffffffffff166002600360405160200161058f949392919061142c565b604051602081830303815290604052905090565b6000600554826040516020016105b991906114a7565b60405160208183030381529060405280519060200120149050919050565b60008383836040516020016105ee939291906114be565b6040516020818303038152906040528051906020012090509392505050565b6060600054600160009054906101000a900473ffffffffffffffffffffffffffffffffffffffff166002600360405160240161064c9493929190611024565b6040516020818303038152906040527fcc4decd8000000000000000000000000000000000000000000000000000000007bffffffffffffffffffffffffffffffffffffffffffffffffffffffff19166020820180517bffffffffffffffffffffffffffffffffffffffffffffffffffffffff8381831617835250505050905090565b6040518060400160405280600290602082028036833780820191505090505090565b6000819050919050565b610703816106f0565b82525050565b600060208201905061071e60008301846106fa565b92915050565b60008115159050919050565b61073981610724565b82525050565b600081519050919050565b600082825260208201905092915050565b60005b8381101561077957808201518184015260208101905061075e565b60008484015250505050565b6000601f19601f8301169050919050565b60006107a18261073f565b6107ab818561074a565b93506107bb81856020860161075b565b6107c481610785565b840191505092915050565b60006040820190506107e46000830185610730565b81810360208301526107f68184610796565b90509392505050565b6000604051905090565b600080fd5b600080fd5b600073ffffffffffffffffffffffffffffffffffffffff82169050919050565b600061083e82610813565b9050919050565b61084e81610833565b811461085957600080fd5b50565b60008135905061086b81610845565b92915050565b60006020828403121561088757610886610809565b5b60006108958482850161085c565b91505092915050565b60007fffffffff0000000000000000000000000000000000000000000000000000000082169050919050565b6108d38161089e565b82525050565b60006020820190506108ee60008301846108ca565b92915050565b6000602082019050818103600083015261090e8184610796565b905092915050565b600080fd5b600080fd5b7f4e487b7100000000000000000000000000000000000000000000000000000000600052604160045260246000fd5b61095882610785565b810181811067ffffffffffffffff8211171561097757610976610920565b5b80604052505050565b600061098a6107ff565b9050610996828261094f565b919050565b600067ffffffffffffffff8211156109b6576109b5610920565b5b6109bf82610785565b9050602081019050919050565b82818337600083830152505050565b60006109ee6109e98461099b565b610980565b905082815260208101848484011115610a0a57610a0961091b565b5b610a158482856109cc565b509392505050565b600082601f830112610a3257610a31610916565b5b8135610a428482602086016109db565b91505092915050565b600060208284031215610a6157610a60610809565b5b600082013567ffffffffffffffff811115610a7f57610a7e61080e565b5b610a8b84828501610a1d565b91505092915050565b6000819050919050565b610aa781610a94565b82525050565b610ab681610833565b82525050565b600081519050919050565b600082825260208201905092915050565b6000610ae382610abc565b610aed8185610ac7565b9350610afd81856020860161075b565b610b0681610785565b840191505092915050565b600060029050919050565b600081905092915050565b6000819050919050565b610b3a81610a94565b82525050565b6000610b4c8383610b31565b60208301905092915050565b6000602082019050919050565b610b6e81610b11565b610b788184610b1c565b9250610b8382610b27565b8060005b83811015610bb4578151610b9b8782610b40565b9650610ba683610b58565b925050600181019050610b87565b505050505050565b600060a082019050610bd16000830187610a9e565b610bde6020830186610aad565b8181036040830152610bf08185610ad8565b9050610bff6060830184610b65565b95945050505050565b600067ffffffffffffffff821115610c2357610c22610920565b5b610c2c82610785565b9050602081019050919050565b6000610c4c610c4784610c08565b610980565b905082815260208101848484011115610c6857610c6761091b565b5b610c738482856109cc565b509392505050565b600082601f830112610c9057610c8f610916565b5b8135610ca0848260208601610c39565b91505092915050565b600060208284031215610cbf57610cbe610809565b5b600082013567ffffffffffffffff811115610cdd57610cdc61080e565b5b610ce984828501610c7b565b91505092915050565b6000602082019050610d076000830184610730565b92915050565b610d1681610a94565b8114610d2157600080fd5b50565b600081359050610d3381610d0d565b92915050565b600080600060608486031215610d5257610d51610809565b5b600084013567ffffffffffffffff811115610d7057610d6f61080e565b5b610d7c86828701610c7b565b9350506020610d8d86828701610d24565b9250506040610d9e8682870161085c565b9150509250925092565b6000602082019050610dbd6000830184610aad565b92915050565b600081905092915050565b6000610dd98261073f565b610de38185610dc3565b9350610df381856020860161075b565b80840191505092915050565b6000610e0b8284610dce565b915081905092915050565b6000610e22838561074a565b9350610e2f8385846109cc565b610e3883610785565b840190509392505050565b60006020820190508181036000830152610e5e818486610e16565b90509392505050565b7f4e487b7100000000000000000000000000000000000000000000000000000000600052602260045260246000fd5b60006002820490506001821680610eae57607f821691505b602082108103610ec157610ec0610e67565b5b50919050565b60008190508160005260206000209050919050565b60008154610ee981610e96565b610ef38186610ac7565b94506001821660008114610f0e5760018114610f2457610f57565b60ff198316865281151560200286019350610f57565b610f2d85610ec7565b60005b83811015610f4f57815481890152600182019150602081019050610f30565b808801955050505b50505092915050565b600060029050919050565b6000819050919050565b60008160001c9050919050565b6000819050919050565b6000610f9f610f9a83610f75565b610f82565b9050919050565b6000610fb28254610f8c565b9050919050565b6000600182019050919050565b610fcf81610f60565b610fd98184610b1c565b9250610fe482610f6b565b8060005b8381101561101c57610ff982610fa6565b6110038782610b40565b965061100e83610fb9565b925050600181019050610fe8565b505050505050565b600060a0820190506110396000830187610a9e565b6110466020830186610aad565b81810360408301526110588185610edc565b90506110676060830184610fc6565b95945050505050565b6000819050919050565b61108b61108682610a94565b611070565b82525050565b600081905092915050565b600081546110a981610e96565b6110b38186611091565b945060018216600081146110ce57600181146110e357611116565b60ff1983168652811515820286019350611116565b6110ec85610ec7565b60005b8381101561110e578154818901526001820191506020810190506110ef565b838801955050505b50505092915050565b60008160601b9050919050565b60006111378261111f565b9050919050565b60006111498261112c565b9050919050565b61116161115c82610833565b61113e565b82525050565b6000611173828661107a565b602082019150611183828561109c565b915061118f8284611150565b601482019150819050949350505050565b6000815190506111af81610d0d565b92915050565b60006111c082610813565b9050919050565b6111d0816111b5565b81146111db57600080fd5b50565b6000815190506111ed816111c7565b92915050565b600061120661120184610c08565b610980565b9050828152602081018484840111156112225761122161091b565b5b61122d84828561075b565b509392505050565b600082601f83011261124a57611249610916565b5b815161125a8482602086016111f3565b91505092915050565b600067ffffffffffffffff82111561127e5761127d610920565b5b602082029050919050565b600080fd5b60006112a161129c84611263565b610980565b905080602084028301858111156112bb576112ba611289565b5b835b818110156112e457806112d088826111a0565b8452602084019350506020810190506112bd565b5050509392505050565b600082601f83011261130357611302610916565b5b600261131084828561128e565b91505092915050565b60008060008060a0858703121561133357611332610809565b5b6000611341878288016111a0565b9450506020611352878288016111de565b935050604085015167ffffffffffffffff8111156113735761137261080e565b5b61137f87828801611235565b9250506060611390878288016112ee565b91505092959194509250565b600081905092915050565b6113b081610a94565b82525050565b60006113c283836113a7565b60208301905092915050565b6113d781610f60565b6113e1818461139c565b92506113ec82610f6b565b8060005b838110156114245761140182610fa6565b61140b87826113b6565b965061141683610fb9565b9250506001810190506113f0565b505050505050565b6000611438828761107a565b6020820191506114488286611150565b601482019150611458828561109c565b915061146482846113ce565b60408201915081905095945050505050565b600061148182610abc565b61148b8185611091565b935061149b81856020860161075b565b80840191505092915050565b60006114b38284611476565b915081905092915050565b60006114ca8286611476565b91506114d6828561107a565b6020820191506114e68284611150565b60148201915081905094935050505056fea264697066735822122006cc310a46701bf66bce077abd10cd25ada655c11ebb4232790e23af41d3909b64736f6c63430008110033",
					"opcodes": "PUSH1 0x80 PUSH1 0x40 MSTORE PUSH1 0x7B PUSH1 0x0 SSTORE PUSH20 0x7A58C0BE72BE218B41C608B7FE7C5BB630736C71 PUSH1 0x1 PUSH1 0x0 PUSH2 0x100 EXP DUP2 SLOAD DUP2 PUSH20 0xFFFFFFFFFFFFFFFFFFFFFFFFFFFFFFFFFFFFFFFF MUL NOT AND SWAP1 DUP4 PUSH20 0xFFFFFFFFFFFFFFFFFFFFFFFFFFFFFFFFFFFFFFFF AND MUL OR SWAP1 SSTORE POP PUSH1 0x40 MLOAD DUP1 PUSH1 0x40 ADD PUSH1 0x40 MSTORE DUP1 PUSH1 0x4 DUP2 MSTORE PUSH1 0x20 ADD PUSH32 0x6377707000000000000000000000000000000000000000000000000000000000 DUP2 MSTORE POP PUSH1 0x2 SWAP1 DUP2 PUSH3 0xA4 SWAP2 SWAP1 PUSH3 0x3F6 JUMP JUMPDEST POP PUSH1 0x40 MLOAD DUP1 PUSH1 0x40 ADD PUSH1 0x40 MSTORE DUP1 PUSH1 0x6 PUSH1 0xFF AND DUP2 MSTORE PUSH1 0x20 ADD PUSH1 0x9 PUSH1 0xFF AND DUP2 MSTORE POP PUSH1 0x3 SWAP1 PUSH1 0x2 PUSH3 0xD4 SWAP3 SWAP2 SWAP1 PUSH3 0x113 JUMP JUMPDEST POP PUSH1 0x40 MLOAD PUSH1 0x20 ADD PUSH3 0xE6 SWAP1 PUSH3 0x538 JUMP JUMPDEST PUSH1 0x40 MLOAD PUSH1 0x20 DUP2 DUP4 SUB SUB DUP2 MSTORE SWAP1 PUSH1 0x40 MSTORE DUP1 MLOAD SWAP1 PUSH1 0x20 ADD KECCAK256 PUSH1 0x5 SSTORE CALLVALUE DUP1 ISZERO PUSH3 0x10C JUMPI PUSH1 0x0 DUP1 REVERT JUMPDEST POP PUSH3 0x54F JUMP JUMPDEST DUP3 PUSH1 0x2 DUP2 ADD SWAP3 DUP3 ISZERO PUSH3 0x14A JUMPI SWAP2 PUSH1 0x20 MUL DUP3 ADD JUMPDEST DUP3 DUP2 GT ISZERO PUSH3 0x149 JUMPI DUP3 MLOAD DUP3 SWAP1 PUSH1 0xFF AND SWAP1 SSTORE SWAP2 PUSH1 0x20 ADD SWAP2 SWAP1 PUSH1 0x1 ADD SWAP1 PUSH3 0x127 JUMP JUMPDEST JUMPDEST POP SWAP1 POP PUSH3 0x159 SWAP2 SWAP1 PUSH3 0x15D JUMP JUMPDEST POP SWAP1 JUMP JUMPDEST JUMPDEST DUP1 DUP3 GT ISZERO PUSH3 0x178 JUMPI PUSH1 0x0 DUP2 PUSH1 0x0 SWAP1 SSTORE POP PUSH1 0x1 ADD PUSH3 0x15E JUMP JUMPDEST POP SWAP1 JUMP JUMPDEST PUSH1 0x0 DUP2 MLOAD SWAP1 POP SWAP2 SWAP1 POP JUMP JUMPDEST PUSH32 0x4E487B7100000000000000000000000000000000000000000000000000000000 PUSH1 0x0 MSTORE PUSH1 0x41 PUSH1 0x4 MSTORE PUSH1 0x24 PUSH1 0x0 REVERT JUMPDEST PUSH32 0x4E487B7100000000000000000000000000000000000000000000000000000000 PUSH1 0x0 MSTORE PUSH1 0x22 PUSH1 0x4 MSTORE PUSH1 0x24 PUSH1 0x0 REVERT JUMPDEST PUSH1 0x0 PUSH1 0x2 DUP3 DIV SWAP1 POP PUSH1 0x1 DUP3 AND DUP1 PUSH3 0x1FE JUMPI PUSH1 0x7F DUP3 AND SWAP2 POP JUMPDEST PUSH1 0x20 DUP3 LT DUP2 SUB PUSH3 0x214 JUMPI PUSH3 0x213 PUSH3 0x1B6 JUMP JUMPDEST JUMPDEST POP SWAP2 SWAP1 POP JUMP JUMPDEST PUSH1 0x0 DUP2 SWAP1 POP DUP2 PUSH1 0x0 MSTORE PUSH1 0x20 PUSH1 0x0 KECCAK256 SWAP1 POP SWAP2 SWAP1 POP JUMP JUMPDEST PUSH1 0x0 PUSH1 0x20 PUSH1 0x1F DUP4 ADD DIV SWAP1 POP SWAP2 SWAP1 POP JUMP JUMPDEST PUSH1 0x0 DUP3 DUP3 SHL SWAP1 POP SWAP3 SWAP2 POP POP JUMP JUMPDEST PUSH1 0x0 PUSH1 0x8 DUP4 MUL PUSH3 0x27E PUSH32 0xFFFFFFFFFFFFFFFFFFFFFFFFFFFFFFFFFFFFFFFFFFFFFFFFFFFFFFFFFFFFFFFF DUP3 PUSH3 0x23F JUMP JUMPDEST PUSH3 0x28A DUP7 DUP4 PUSH3 0x23F JUMP JUMPDEST SWAP6 POP DUP1 NOT DUP5 AND SWAP4 POP DUP1 DUP7 AND DUP5 OR SWAP3 POP POP POP SWAP4 SWAP3 POP POP POP JUMP JUMPDEST PUSH1 0x0 DUP2 SWAP1 POP SWAP2 SWAP1 POP JUMP JUMPDEST PUSH1 0x0 DUP2 SWAP1 POP SWAP2 SWAP1 POP JUMP JUMPDEST PUSH1 0x0 PUSH3 0x2D7 PUSH3 0x2D1 PUSH3 0x2CB DUP5 PUSH3 0x2A2 JUMP JUMPDEST PUSH3 0x2AC JUMP JUMPDEST PUSH3 0x2A2 JUMP JUMPDEST SWAP1 POP SWAP2 SWAP1 POP JUMP JUMPDEST PUSH1 0x0 DUP2 SWAP1 POP SWAP2 SWAP1 POP JUMP JUMPDEST PUSH3 0x2F3 DUP4 PUSH3 0x2B6 JUMP JUMPDEST PUSH3 0x30B PUSH3 0x302 DUP3 PUSH3 0x2DE JUMP JUMPDEST DUP5 DUP5 SLOAD PUSH3 0x24C JUMP JUMPDEST DUP3 SSTORE POP POP POP POP JUMP JUMPDEST PUSH1 0x0 SWAP1 JUMP JUMPDEST PUSH3 0x322 PUSH3 0x313 JUMP JUMPDEST PUSH3 0x32F DUP2 DUP5 DUP5 PUSH3 0x2E8 JUMP JUMPDEST POP POP POP JUMP JUMPDEST JUMPDEST DUP2 DUP2 LT ISZERO PUSH3 0x357 JUMPI PUSH3 0x34B PUSH1 0x0 DUP3 PUSH3 0x318 JUMP JUMPDEST PUSH1 0x1 DUP2 ADD SWAP1 POP PUSH3 0x335 JUMP JUMPDEST POP POP JUMP JUMPDEST PUSH1 0x1F DUP3 GT ISZERO PUSH3 0x3A6 JUMPI PUSH3 0x370 DUP2 PUSH3 0x21A JUMP JUMPDEST PUSH3 0x37B DUP5 PUSH3 0x22F JUMP JUMPDEST DUP2 ADD PUSH1 0x20 DUP6 LT ISZERO PUSH3 0x38B JUMPI DUP2 SWAP1 POP JUMPDEST PUSH3 0x3A3 PUSH3 0x39A DUP6 PUSH3 0x22F JUMP JUMPDEST DUP4 ADD DUP3 PUSH3 0x334 JUMP JUMPDEST POP POP JUMPDEST POP POP POP JUMP JUMPDEST PUSH1 0x0 DUP3 DUP3 SHR SWAP1 POP SWAP3 SWAP2 POP POP JUMP JUMPDEST PUSH1 0x0 PUSH3 0x3CB PUSH1 0x0 NOT DUP5 PUSH1 0x8 MUL PUSH3 0x3AB JUMP JUMPDEST NOT DUP1 DUP4 AND SWAP2 POP POP SWAP3 SWAP2 POP POP JUMP JUMPDEST PUSH1 0x0 PUSH3 0x3E6 DUP4 DUP4 PUSH3 0x3B8 JUMP JUMPDEST SWAP2 POP DUP3 PUSH1 0x2 MUL DUP3 OR SWAP1 POP SWAP3 SWAP2 POP POP JUMP JUMPDEST PUSH3 0x401 DUP3 PUSH3 0x17C JUMP JUMPDEST PUSH8 0xFFFFFFFFFFFFFFFF DUP2 GT ISZERO PUSH3 0x41D JUMPI PUSH3 0x41C PUSH3 0x187 JUMP JUMPDEST JUMPDEST PUSH3 0x429 DUP3 SLOAD PUSH3 0x1E5 JUMP JUMPDEST PUSH3 0x436 DUP3 DUP3 DUP6 PUSH3 0x35B JUMP JUMPDEST PUSH1 0x0 PUSH1 0x20 SWAP1 POP PUSH1 0x1F DUP4 GT PUSH1 0x1 DUP2 EQ PUSH3 0x46E JUMPI PUSH1 0x0 DUP5 ISZERO PUSH3 0x459 JUMPI DUP3 DUP8 ADD MLOAD SWAP1 POP JUMPDEST PUSH3 0x465 DUP6 DUP3 PUSH3 0x3D8 JUMP JUMPDEST DUP7 SSTORE POP PUSH3 0x4D5 JUMP JUMPDEST PUSH1 0x1F NOT DUP5 AND PUSH3 0x47E DUP7 PUSH3 0x21A JUMP JUMPDEST PUSH1 0x0 JUMPDEST DUP3 DUP2 LT ISZERO PUSH3 0x4A8 JUMPI DUP5 DUP10 ADD MLOAD DUP3 SSTORE PUSH1 0x1 DUP3 ADD SWAP2 POP PUSH1 0x20 DUP6 ADD SWAP5 POP PUSH1 0x20 DUP2 ADD SWAP1 POP PUSH3 0x481 JUMP JUMPDEST DUP7 DUP4 LT ISZERO PUSH3 0x4C8 JUMPI DUP5 DUP10 ADD MLOAD PUSH3 0x4C4 PUSH1 0x1F DUP10 AND DUP3 PUSH3 0x3B8 JUMP JUMPDEST DUP4 SSTORE POP JUMPDEST PUSH1 0x1 PUSH1 0x2 DUP9 MUL ADD DUP9 SSTORE POP POP POP JUMPDEST POP POP POP POP POP POP JUMP JUMPDEST PUSH1 0x0 DUP2 SWAP1 POP SWAP3 SWAP2 POP POP JUMP JUMPDEST PUSH32 0x3078616100000000000000000000000000000000000000000000000000000000 PUSH1 0x0 DUP3 ADD MSTORE POP JUMP JUMPDEST PUSH1 0x0 PUSH3 0x520 PUSH1 0x4 DUP4 PUSH3 0x4DD JUMP JUMPDEST SWAP2 POP PUSH3 0x52D DUP3 PUSH3 0x4E8 JUMP JUMPDEST PUSH1 0x4 DUP3 ADD SWAP1 POP SWAP2 SWAP1 POP JUMP JUMPDEST PUSH1 0x0 PUSH3 0x545 DUP3 PUSH3 0x511 JUMP JUMPDEST SWAP2 POP DUP2 SWAP1 POP SWAP2 SWAP1 POP JUMP JUMPDEST PUSH2 0x152D DUP1 PUSH3 0x55F PUSH1 0x0 CODECOPY PUSH1 0x0 RETURN INVALID PUSH1 0x80 PUSH1 0x40 MSTORE CALLVALUE DUP1 ISZERO PUSH2 0x10 JUMPI PUSH1 0x0 DUP1 REVERT JUMPDEST POP PUSH1 0x4 CALLDATASIZE LT PUSH2 0xB4 JUMPI PUSH1 0x0 CALLDATALOAD PUSH1 0xE0 SHR DUP1 PUSH4 0xBAC1D572 GT PUSH2 0x71 JUMPI DUP1 PUSH4 0xBAC1D572 EQ PUSH2 0x16C JUMPI DUP1 PUSH4 0xBD14598F EQ PUSH2 0x19F JUMPI DUP1 PUSH4 0xBED7532C EQ PUSH2 0x1BD JUMPI DUP1 PUSH4 0xD6ABFC7B EQ PUSH2 0x1DB JUMPI DUP1 PUSH4 0xF20F1E9E EQ PUSH2 0x20B JUMPI DUP1 PUSH4 0xF7D13AB0 EQ PUSH2 0x23B JUMPI PUSH2 0xB4 JUMP JUMPDEST DUP1 PUSH4 0x10C8C11D EQ PUSH2 0xB9 JUMPI DUP1 PUSH4 0x2B9C6157 EQ PUSH2 0xD7 JUMPI DUP1 PUSH4 0x6A627842 EQ PUSH2 0xF6 JUMPI DUP1 PUSH4 0x6B426EEC EQ PUSH2 0x112 JUMPI DUP1 PUSH4 0xB55FFC04 EQ PUSH2 0x130 JUMPI DUP1 PUSH4 0xBA1663CA EQ PUSH2 0x14E JUMPI JUMPDEST PUSH1 0x0 DUP1 REVERT JUMPDEST PUSH2 0xC1 PUSH2 0x259 JUMP JUMPDEST PUSH1 0x40 MLOAD PUSH2 0xCE SWAP2 SWAP1 PUSH2 0x709 JUMP JUMPDEST PUSH1 0x40 MLOAD DUP1 SWAP2 SUB SWAP1 RETURN JUMPDEST PUSH2 0xDF PUSH2 0x25F JUMP JUMPDEST PUSH1 0x40 MLOAD PUSH2 0xED SWAP3 SWAP2 SWAP1 PUSH2 0x7CF JUMP JUMPDEST PUSH1 0x40 MLOAD DUP1 SWAP2 SUB SWAP1 RETURN JUMPDEST PUSH2 0x110 PUSH1 0x4 DUP1 CALLDATASIZE SUB DUP2 ADD SWAP1 PUSH2 0x10B SWAP2 SWAP1 PUSH2 0x871 JUMP JUMPDEST PUSH2 0x348 JUMP JUMPDEST STOP JUMPDEST PUSH2 0x11A PUSH2 0x385 JUMP JUMPDEST PUSH1 0x40 MLOAD PUSH2 0x127 SWAP2 SWAP1 PUSH2 0x8D9 JUMP JUMPDEST PUSH1 0x40 MLOAD DUP1 SWAP2 SUB SWAP1 RETURN JUMPDEST PUSH2 0x138 PUSH2 0x3AD JUMP JUMPDEST PUSH1 0x40 MLOAD PUSH2 0x145 SWAP2 SWAP1 PUSH2 0x8F4 JUMP JUMPDEST PUSH1 0x40 MLOAD DUP1 SWAP2 SUB SWAP1 RETURN JUMPDEST PUSH2 0x156 PUSH2 0x46F JUMP JUMPDEST PUSH1 0x40 MLOAD PUSH2 0x163 SWAP2 SWAP1 PUSH2 0x709 JUMP JUMPDEST PUSH1 0x40 MLOAD DUP1 SWAP2 SUB SWAP1 RETURN JUMPDEST PUSH2 0x186 PUSH1 0x4 DUP1 CALLDATASIZE SUB DUP2 ADD SWAP1 PUSH2 0x181 SWAP2 SWAP1 PUSH2 0xA4B JUMP JUMPDEST PUSH2 0x4C5 JUMP JUMPDEST PUSH1 0x40 MLOAD PUSH2 0x196 SWAP5 SWAP4 SWAP3 SWAP2 SWAP1 PUSH2 0xBBC JUMP JUMPDEST PUSH1 0x40 MLOAD DUP1 SWAP2 SUB SWAP1 RETURN JUMPDEST PUSH2 0x1A7 PUSH2 0x4FD JUMP JUMPDEST PUSH1 0x40 MLOAD PUSH2 0x1B4 SWAP2 SWAP1 PUSH2 0x8F4 JUMP JUMPDEST PUSH1 0x40 MLOAD DUP1 SWAP2 SUB SWAP1 RETURN JUMPDEST PUSH2 0x1C5 PUSH2 0x550 JUMP JUMPDEST PUSH1 0x40 MLOAD PUSH2 0x1D2 SWAP2 SWAP1 PUSH2 0x8F4 JUMP JUMPDEST PUSH1 0x40 MLOAD DUP1 SWAP2 SUB SWAP1 RETURN JUMPDEST PUSH2 0x1F5 PUSH1 0x4 DUP1 CALLDATASIZE SUB DUP2 ADD SWAP1 PUSH2 0x1F0 SWAP2 SWAP1 PUSH2 0xCA9 JUMP JUMPDEST PUSH2 0x5A3 JUMP JUMPDEST PUSH1 0x40 MLOAD PUSH2 0x202 SWAP2 SWAP1 PUSH2 0xCF2 JUMP JUMPDEST PUSH1 0x40 MLOAD DUP1 SWAP2 SUB SWAP1 RETURN JUMPDEST PUSH2 0x225 PUSH1 0x4 DUP1 CALLDATASIZE SUB DUP2 ADD SWAP1 PUSH2 0x220 SWAP2 SWAP1 PUSH2 0xD39 JUMP JUMPDEST PUSH2 0x5D7 JUMP JUMPDEST PUSH1 0x40 MLOAD PUSH2 0x232 SWAP2 SWAP1 PUSH2 0x709 JUMP JUMPDEST PUSH1 0x40 MLOAD DUP1 SWAP2 SUB SWAP1 RETURN JUMPDEST PUSH2 0x243 PUSH2 0x60D JUMP JUMPDEST PUSH1 0x40 MLOAD PUSH2 0x250 SWAP2 SWAP1 PUSH2 0x8F4 JUMP JUMPDEST PUSH1 0x40 MLOAD DUP1 SWAP2 SUB SWAP1 RETURN JUMPDEST PUSH1 0x5 SLOAD DUP2 JUMP JUMPDEST PUSH1 0x0 PUSH1 0x60 PUSH1 0x0 DUP1 ADDRESS PUSH20 0xFFFFFFFFFFFFFFFFFFFFFFFFFFFFFFFFFFFFFFFF AND PUSH4 0x6A627842 PUSH20 0x2C44B726ADF1963CA47AF88B284C06F30380FC78 PUSH1 0x40 MLOAD PUSH1 0x24 ADD PUSH2 0x2A7 SWAP2 SWAP1 PUSH2 0xDA8 JUMP JUMPDEST PUSH1 0x40 MLOAD PUSH1 0x20 DUP2 DUP4 SUB SUB DUP2 MSTORE SWAP1 PUSH1 0x40 MSTORE SWAP1 PUSH1 0xE0 SHL PUSH1 0x20 DUP3 ADD DUP1 MLOAD PUSH28 0xFFFFFFFFFFFFFFFFFFFFFFFFFFFFFFFFFFFFFFFFFFFFFFFFFFFFFFFF DUP4 DUP2 DUP4 AND OR DUP4 MSTORE POP POP POP POP PUSH1 0x40 MLOAD PUSH2 0x2F5 SWAP2 SWAP1 PUSH2 0xDFF JUMP JUMPDEST PUSH1 0x0 PUSH1 0x40 MLOAD DUP1 DUP4 SUB DUP2 PUSH1 0x0 DUP7 GAS CALL SWAP2 POP POP RETURNDATASIZE DUP1 PUSH1 0x0 DUP2 EQ PUSH2 0x332 JUMPI PUSH1 0x40 MLOAD SWAP2 POP PUSH1 0x1F NOT PUSH1 0x3F RETURNDATASIZE ADD AND DUP3 ADD PUSH1 0x40 MSTORE RETURNDATASIZE DUP3 MSTORE RETURNDATASIZE PUSH1 0x0 PUSH1 0x20 DUP5 ADD RETURNDATACOPY PUSH2 0x337 JUMP JUMPDEST PUSH1 0x60 SWAP2 POP JUMPDEST POP SWAP2 POP SWAP2 POP DUP2 DUP2 SWAP4 POP SWAP4 POP POP POP SWAP1 SWAP2 JUMP JUMPDEST PUSH32 0xAFABCF2DD47E06A477A89E49C03F8EBE8E0A7E94F775B25BBB24227C9D0110B2 PUSH1 0x0 CALLDATASIZE PUSH1 0x40 MLOAD PUSH2 0x37A SWAP3 SWAP2 SWAP1 PUSH2 0xE43 JUMP JUMPDEST PUSH1 0x40 MLOAD DUP1 SWAP2 SUB SWAP1 LOG1 POP JUMP JUMPDEST PUSH1 0x0 PUSH32 0x6A627842F752DE95745EF8F3CA67858982B5F585D752F8163E5855050041CB3C SWAP1 POP SWAP1 JUMP JUMPDEST PUSH1 0x60 PUSH32 0xCC4DECD87843118AC7919B8D43C3881A878E588562C10D9C65A231B5971B6C77 PUSH1 0x0 SLOAD PUSH1 0x1 PUSH1 0x0 SWAP1 SLOAD SWAP1 PUSH2 0x100 EXP SWAP1 DIV PUSH20 0xFFFFFFFFFFFFFFFFFFFFFFFFFFFFFFFFFFFFFFFF AND PUSH1 0x2 PUSH1 0x3 PUSH1 0x40 MLOAD PUSH1 0x24 ADD PUSH2 0x40D SWAP5 SWAP4 SWAP3 SWAP2 SWAP1 PUSH2 0x1024 JUMP JUMPDEST PUSH1 0x40 MLOAD PUSH1 0x20 DUP2 DUP4 SUB SUB DUP2 MSTORE SWAP1 PUSH1 0x40 MSTORE SWAP1 PUSH28 0xFFFFFFFFFFFFFFFFFFFFFFFFFFFFFFFFFFFFFFFFFFFFFFFFFFFFFFFF NOT AND PUSH1 0x20 DUP3 ADD DUP1 MLOAD PUSH28 0xFFFFFFFFFFFFFFFFFFFFFFFFFFFFFFFFFFFFFFFFFFFFFFFFFFFFFFFF DUP4 DUP2 DUP4 AND OR DUP4 MSTORE POP POP POP POP SWAP1 POP SWAP1 JUMP JUMPDEST PUSH1 0x0 DUP1 SLOAD PUSH1 0x2 PUSH1 0x1 PUSH1 0x0 SWAP1 SLOAD SWAP1 PUSH2 0x100 EXP SWAP1 DIV PUSH20 0xFFFFFFFFFFFFFFFFFFFFFFFFFFFFFFFFFFFFFFFF AND PUSH1 0x40 MLOAD PUSH1 0x20 ADD PUSH2 0x4AA SWAP4 SWAP3 SWAP2 SWAP1 PUSH2 0x1167 JUMP JUMPDEST PUSH1 0x40 MLOAD PUSH1 0x20 DUP2 DUP4 SUB SUB DUP2 MSTORE SWAP1 PUSH1 0x40 MSTORE DUP1 MLOAD SWAP1 PUSH1 0x20 ADD KECCAK256 SWAP1 POP SWAP1 JUMP JUMPDEST PUSH1 0x0 DUP1 PUSH1 0x60 PUSH2 0x4D2 PUSH2 0x6CE JUMP JUMPDEST DUP5 DUP1 PUSH1 0x20 ADD SWAP1 MLOAD DUP2 ADD SWAP1 PUSH2 0x4E6 SWAP2 SWAP1 PUSH2 0x1319 JUMP JUMPDEST DUP1 SWAP5 POP DUP2 SWAP6 POP DUP3 SWAP7 POP DUP4 SWAP8 POP POP POP POP POP SWAP2 SWAP4 POP SWAP2 SWAP4 JUMP JUMPDEST PUSH1 0x60 PUSH1 0x0 SLOAD PUSH1 0x1 PUSH1 0x0 SWAP1 SLOAD SWAP1 PUSH2 0x100 EXP SWAP1 DIV PUSH20 0xFFFFFFFFFFFFFFFFFFFFFFFFFFFFFFFFFFFFFFFF AND PUSH1 0x2 PUSH1 0x3 PUSH1 0x40 MLOAD PUSH1 0x20 ADD PUSH2 0x53C SWAP5 SWAP4 SWAP3 SWAP2 SWAP1 PUSH2 0x1024 JUMP JUMPDEST PUSH1 0x40 MLOAD PUSH1 0x20 DUP2 DUP4 SUB SUB DUP2 MSTORE SWAP1 PUSH1 0x40 MSTORE SWAP1 POP SWAP1 JUMP JUMPDEST PUSH1 0x60 PUSH1 0x0 SLOAD PUSH1 0x1 PUSH1 0x0 SWAP1 SLOAD SWAP1 PUSH2 0x100 EXP SWAP1 DIV PUSH20 0xFFFFFFFFFFFFFFFFFFFFFFFFFFFFFFFFFFFFFFFF AND PUSH1 0x2 PUSH1 0x3 PUSH1 0x40 MLOAD PUSH1 0x20 ADD PUSH2 0x58F SWAP5 SWAP4 SWAP3 SWAP2 SWAP1 PUSH2 0x142C JUMP JUMPDEST PUSH1 0x40 MLOAD PUSH1 0x20 DUP2 DUP4 SUB SUB DUP2 MSTORE SWAP1 PUSH1 0x40 MSTORE SWAP1 POP SWAP1 JUMP JUMPDEST PUSH1 0x0 PUSH1 0x5 SLOAD DUP3 PUSH1 0x40 MLOAD PUSH1 0x20 ADD PUSH2 0x5B9 SWAP2 SWAP1 PUSH2 0x14A7 JUMP JUMPDEST PUSH1 0x40 MLOAD PUSH1 0x20 DUP2 DUP4 SUB SUB DUP2 MSTORE SWAP1 PUSH1 0x40 MSTORE DUP1 MLOAD SWAP1 PUSH1 0x20 ADD KECCAK256 EQ SWAP1 POP SWAP2 SWAP1 POP JUMP JUMPDEST PUSH1 0x0 DUP4 DUP4 DUP4 PUSH1 0x40 MLOAD PUSH1 0x20 ADD PUSH2 0x5EE SWAP4 SWAP3 SWAP2 SWAP1 PUSH2 0x14BE JUMP JUMPDEST PUSH1 0x40 MLOAD PUSH1 0x20 DUP2 DUP4 SUB SUB DUP2 MSTORE SWAP1 PUSH1 0x40 MSTORE DUP1 MLOAD SWAP1 PUSH1 0x20 ADD KECCAK256 SWAP1 POP SWAP4 SWAP3 POP POP POP JUMP JUMPDEST PUSH1 0x60 PUSH1 0x0 SLOAD PUSH1 0x1 PUSH1 0x0 SWAP1 SLOAD SWAP1 PUSH2 0x100 EXP SWAP1 DIV PUSH20 0xFFFFFFFFFFFFFFFFFFFFFFFFFFFFFFFFFFFFFFFF AND PUSH1 0x2 PUSH1 0x3 PUSH1 0x40 MLOAD PUSH1 0x24 ADD PUSH2 0x64C SWAP5 SWAP4 SWAP3 SWAP2 SWAP1 PUSH2 0x1024 JUMP JUMPDEST PUSH1 0x40 MLOAD PUSH1 0x20 DUP2 DUP4 SUB SUB DUP2 MSTORE SWAP1 PUSH1 0x40 MSTORE PUSH32 0xCC4DECD800000000000000000000000000000000000000000000000000000000 PUSH28 0xFFFFFFFFFFFFFFFFFFFFFFFFFFFFFFFFFFFFFFFFFFFFFFFFFFFFFFFF NOT AND PUSH1 0x20 DUP3 ADD DUP1 MLOAD PUSH28 0xFFFFFFFFFFFFFFFFFFFFFFFFFFFFFFFFFFFFFFFFFFFFFFFFFFFFFFFF DUP4 DUP2 DUP4 AND OR DUP4 MSTORE POP POP POP POP SWAP1 POP SWAP1 JUMP JUMPDEST PUSH1 0x40 MLOAD DUP1 PUSH1 0x40 ADD PUSH1 0x40 MSTORE DUP1 PUSH1 0x2 SWAP1 PUSH1 0x20 DUP3 MUL DUP1 CALLDATASIZE DUP4 CALLDATACOPY DUP1 DUP3 ADD SWAP2 POP POP SWAP1 POP POP SWAP1 JUMP JUMPDEST PUSH1 0x0 DUP2 SWAP1 POP SWAP2 SWAP1 POP JUMP JUMPDEST PUSH2 0x703 DUP2 PUSH2 0x6F0 JUMP JUMPDEST DUP3 MSTORE POP POP JUMP JUMPDEST PUSH1 0x0 PUSH1 0x20 DUP3 ADD SWAP1 POP PUSH2 0x71E PUSH1 0x0 DUP4 ADD DUP5 PUSH2 0x6FA JUMP JUMPDEST SWAP3 SWAP2 POP POP JUMP JUMPDEST PUSH1 0x0 DUP2 ISZERO ISZERO SWAP1 POP SWAP2 SWAP1 POP JUMP JUMPDEST PUSH2 0x739 DUP2 PUSH2 0x724 JUMP JUMPDEST DUP3 MSTORE POP POP JUMP JUMPDEST PUSH1 0x0 DUP2 MLOAD SWAP1 POP SWAP2 SWAP1 POP JUMP JUMPDEST PUSH1 0x0 DUP3 DUP3 MSTORE PUSH1 0x20 DUP3 ADD SWAP1 POP SWAP3 SWAP2 POP POP JUMP JUMPDEST PUSH1 0x0 JUMPDEST DUP4 DUP2 LT ISZERO PUSH2 0x779 JUMPI DUP1 DUP3 ADD MLOAD DUP2 DUP5 ADD MSTORE PUSH1 0x20 DUP2 ADD SWAP1 POP PUSH2 0x75E JUMP JUMPDEST PUSH1 0x0 DUP5 DUP5 ADD MSTORE POP POP POP POP JUMP JUMPDEST PUSH1 0x0 PUSH1 0x1F NOT PUSH1 0x1F DUP4 ADD AND SWAP1 POP SWAP2 SWAP1 POP JUMP JUMPDEST PUSH1 0x0 PUSH2 0x7A1 DUP3 PUSH2 0x73F JUMP JUMPDEST PUSH2 0x7AB DUP2 DUP6 PUSH2 0x74A JUMP JUMPDEST SWAP4 POP PUSH2 0x7BB DUP2 DUP6 PUSH1 0x20 DUP7 ADD PUSH2 0x75B JUMP JUMPDEST PUSH2 0x7C4 DUP2 PUSH2 0x785 JUMP JUMPDEST DUP5 ADD SWAP2 POP POP SWAP3 SWAP2 POP POP JUMP JUMPDEST PUSH1 0x0 PUSH1 0x40 DUP3 ADD SWAP1 POP PUSH2 0x7E4 PUSH1 0x0 DUP4 ADD DUP6 PUSH2 0x730 JUMP JUMPDEST DUP2 DUP2 SUB PUSH1 0x20 DUP4 ADD MSTORE PUSH2 0x7F6 DUP2 DUP5 PUSH2 0x796 JUMP JUMPDEST SWAP1 POP SWAP4 SWAP3 POP POP POP JUMP JUMPDEST PUSH1 0x0 PUSH1 0x40 MLOAD SWAP1 POP SWAP1 JUMP JUMPDEST PUSH1 0x0 DUP1 REVERT JUMPDEST PUSH1 0x0 DUP1 REVERT JUMPDEST PUSH1 0x0 PUSH20 0xFFFFFFFFFFFFFFFFFFFFFFFFFFFFFFFFFFFFFFFF DUP3 AND SWAP1 POP SWAP2 SWAP1 POP JUMP JUMPDEST PUSH1 0x0 PUSH2 0x83E DUP3 PUSH2 0x813 JUMP JUMPDEST SWAP1 POP SWAP2 SWAP1 POP JUMP JUMPDEST PUSH2 0x84E DUP2 PUSH2 0x833 JUMP JUMPDEST DUP2 EQ PUSH2 0x859 JUMPI PUSH1 0x0 DUP1 REVERT JUMPDEST POP JUMP JUMPDEST PUSH1 0x0 DUP2 CALLDATALOAD SWAP1 POP PUSH2 0x86B DUP2 PUSH2 0x845 JUMP JUMPDEST SWAP3 SWAP2 POP POP JUMP JUMPDEST PUSH1 0x0 PUSH1 0x20 DUP3 DUP5 SUB SLT ISZERO PUSH2 0x887 JUMPI PUSH2 0x886 PUSH2 0x809 JUMP JUMPDEST JUMPDEST PUSH1 0x0 PUSH2 0x895 DUP5 DUP3 DUP6 ADD PUSH2 0x85C JUMP JUMPDEST SWAP2 POP POP SWAP3 SWAP2 POP POP JUMP JUMPDEST PUSH1 0x0 PUSH32 0xFFFFFFFF00000000000000000000000000000000000000000000000000000000 DUP3 AND SWAP1 POP SWAP2 SWAP1 POP JUMP JUMPDEST PUSH2 0x8D3 DUP2 PUSH2 0x89E JUMP JUMPDEST DUP3 MSTORE POP POP JUMP JUMPDEST PUSH1 0x0 PUSH1 0x20 DUP3 ADD SWAP1 POP PUSH2 0x8EE PUSH1 0x0 DUP4 ADD DUP5 PUSH2 0x8CA JUMP JUMPDEST SWAP3 SWAP2 POP POP JUMP JUMPDEST PUSH1 0x0 PUSH1 0x20 DUP3 ADD SWAP1 POP DUP2 DUP2 SUB PUSH1 0x0 DUP4 ADD MSTORE PUSH2 0x90E DUP2 DUP5 PUSH2 0x796 JUMP JUMPDEST SWAP1 POP SWAP3 SWAP2 POP POP JUMP JUMPDEST PUSH1 0x0 DUP1 REVERT JUMPDEST PUSH1 0x0 DUP1 REVERT JUMPDEST PUSH32 0x4E487B7100000000000000000000000000000000000000000000000000000000 PUSH1 0x0 MSTORE PUSH1 0x41 PUSH1 0x4 MSTORE PUSH1 0x24 PUSH1 0x0 REVERT JUMPDEST PUSH2 0x958 DUP3 PUSH2 0x785 JUMP JUMPDEST DUP2 ADD DUP2 DUP2 LT PUSH8 0xFFFFFFFFFFFFFFFF DUP3 GT OR ISZERO PUSH2 0x977 JUMPI PUSH2 0x976 PUSH2 0x920 JUMP JUMPDEST JUMPDEST DUP1 PUSH1 0x40 MSTORE POP POP POP JUMP JUMPDEST PUSH1 0x0 PUSH2 0x98A PUSH2 0x7FF JUMP JUMPDEST SWAP1 POP PUSH2 0x996 DUP3 DUP3 PUSH2 0x94F JUMP JUMPDEST SWAP2 SWAP1 POP JUMP JUMPDEST PUSH1 0x0 PUSH8 0xFFFFFFFFFFFFFFFF DUP3 GT ISZERO PUSH2 0x9B6 JUMPI PUSH2 0x9B5 PUSH2 0x920 JUMP JUMPDEST JUMPDEST PUSH2 0x9BF DUP3 PUSH2 0x785 JUMP JUMPDEST SWAP1 POP PUSH1 0x20 DUP2 ADD SWAP1 POP SWAP2 SWAP1 POP JUMP JUMPDEST DUP3 DUP2 DUP4 CALLDATACOPY PUSH1 0x0 DUP4 DUP4 ADD MSTORE POP POP POP JUMP JUMPDEST PUSH1 0x0 PUSH2 0x9EE PUSH2 0x9E9 DUP5 PUSH2 0x99B JUMP JUMPDEST PUSH2 0x980 JUMP JUMPDEST SWAP1 POP DUP3 DUP2 MSTORE PUSH1 0x20 DUP2 ADD DUP5 DUP5 DUP5 ADD GT ISZERO PUSH2 0xA0A JUMPI PUSH2 0xA09 PUSH2 0x91B JUMP JUMPDEST JUMPDEST PUSH2 0xA15 DUP5 DUP3 DUP6 PUSH2 0x9CC JUMP JUMPDEST POP SWAP4 SWAP3 POP POP POP JUMP JUMPDEST PUSH1 0x0 DUP3 PUSH1 0x1F DUP4 ADD SLT PUSH2 0xA32 JUMPI PUSH2 0xA31 PUSH2 0x916 JUMP JUMPDEST JUMPDEST DUP2 CALLDATALOAD PUSH2 0xA42 DUP5 DUP3 PUSH1 0x20 DUP7 ADD PUSH2 0x9DB JUMP JUMPDEST SWAP2 POP POP SWAP3 SWAP2 POP POP JUMP JUMPDEST PUSH1 0x0 PUSH1 0x20 DUP3 DUP5 SUB SLT ISZERO PUSH2 0xA61 JUMPI PUSH2 0xA60 PUSH2 0x809 JUMP JUMPDEST JUMPDEST PUSH1 0x0 DUP3 ADD CALLDATALOAD PUSH8 0xFFFFFFFFFFFFFFFF DUP2 GT ISZERO PUSH2 0xA7F JUMPI PUSH2 0xA7E PUSH2 0x80E JUMP JUMPDEST JUMPDEST PUSH2 0xA8B DUP5 DUP3 DUP6 ADD PUSH2 0xA1D JUMP JUMPDEST SWAP2 POP POP SWAP3 SWAP2 POP POP JUMP JUMPDEST PUSH1 0x0 DUP2 SWAP1 POP SWAP2 SWAP1 POP JUMP JUMPDEST PUSH2 0xAA7 DUP2 PUSH2 0xA94 JUMP JUMPDEST DUP3 MSTORE POP POP JUMP JUMPDEST PUSH2 0xAB6 DUP2 PUSH2 0x833 JUMP JUMPDEST DUP3 MSTORE POP POP JUMP JUMPDEST PUSH1 0x0 DUP2 MLOAD SWAP1 POP SWAP2 SWAP1 POP JUMP JUMPDEST PUSH1 0x0 DUP3 DUP3 MSTORE PUSH1 0x20 DUP3 ADD SWAP1 POP SWAP3 SWAP2 POP POP JUMP JUMPDEST PUSH1 0x0 PUSH2 0xAE3 DUP3 PUSH2 0xABC JUMP JUMPDEST PUSH2 0xAED DUP2 DUP6 PUSH2 0xAC7 JUMP JUMPDEST SWAP4 POP PUSH2 0xAFD DUP2 DUP6 PUSH1 0x20 DUP7 ADD PUSH2 0x75B JUMP JUMPDEST PUSH2 0xB06 DUP2 PUSH2 0x785 JUMP JUMPDEST DUP5 ADD SWAP2 POP POP SWAP3 SWAP2 POP POP JUMP JUMPDEST PUSH1 0x0 PUSH1 0x2 SWAP1 POP SWAP2 SWAP1 POP JUMP JUMPDEST PUSH1 0x0 DUP2 SWAP1 POP SWAP3 SWAP2 POP POP JUMP JUMPDEST PUSH1 0x0 DUP2 SWAP1 POP SWAP2 SWAP1 POP JUMP JUMPDEST PUSH2 0xB3A DUP2 PUSH2 0xA94 JUMP JUMPDEST DUP3 MSTORE POP POP JUMP JUMPDEST PUSH1 0x0 PUSH2 0xB4C DUP4 DUP4 PUSH2 0xB31 JUMP JUMPDEST PUSH1 0x20 DUP4 ADD SWAP1 POP SWAP3 SWAP2 POP POP JUMP JUMPDEST PUSH1 0x0 PUSH1 0x20 DUP3 ADD SWAP1 POP SWAP2 SWAP1 POP JUMP JUMPDEST PUSH2 0xB6E DUP2 PUSH2 0xB11 JUMP JUMPDEST PUSH2 0xB78 DUP2 DUP5 PUSH2 0xB1C JUMP JUMPDEST SWAP3 POP PUSH2 0xB83 DUP3 PUSH2 0xB27 JUMP JUMPDEST DUP1 PUSH1 0x0 JUMPDEST DUP4 DUP2 LT ISZERO PUSH2 0xBB4 JUMPI DUP2 MLOAD PUSH2 0xB9B DUP8 DUP3 PUSH2 0xB40 JUMP JUMPDEST SWAP7 POP PUSH2 0xBA6 DUP4 PUSH2 0xB58 JUMP JUMPDEST SWAP3 POP POP PUSH1 0x1 DUP2 ADD SWAP1 POP PUSH2 0xB87 JUMP JUMPDEST POP POP POP POP POP POP JUMP JUMPDEST PUSH1 0x0 PUSH1 0xA0 DUP3 ADD SWAP1 POP PUSH2 0xBD1 PUSH1 0x0 DUP4 ADD DUP8 PUSH2 0xA9E JUMP JUMPDEST PUSH2 0xBDE PUSH1 0x20 DUP4 ADD DUP7 PUSH2 0xAAD JUMP JUMPDEST DUP2 DUP2 SUB PUSH1 0x40 DUP4 ADD MSTORE PUSH2 0xBF0 DUP2 DUP6 PUSH2 0xAD8 JUMP JUMPDEST SWAP1 POP PUSH2 0xBFF PUSH1 0x60 DUP4 ADD DUP5 PUSH2 0xB65 JUMP JUMPDEST SWAP6 SWAP5 POP POP POP POP POP JUMP JUMPDEST PUSH1 0x0 PUSH8 0xFFFFFFFFFFFFFFFF DUP3 GT ISZERO PUSH2 0xC23 JUMPI PUSH2 0xC22 PUSH2 0x920 JUMP JUMPDEST JUMPDEST PUSH2 0xC2C DUP3 PUSH2 0x785 JUMP JUMPDEST SWAP1 POP PUSH1 0x20 DUP2 ADD SWAP1 POP SWAP2 SWAP1 POP JUMP JUMPDEST PUSH1 0x0 PUSH2 0xC4C PUSH2 0xC47 DUP5 PUSH2 0xC08 JUMP JUMPDEST PUSH2 0x980 JUMP JUMPDEST SWAP1 POP DUP3 DUP2 MSTORE PUSH1 0x20 DUP2 ADD DUP5 DUP5 DUP5 ADD GT ISZERO PUSH2 0xC68 JUMPI PUSH2 0xC67 PUSH2 0x91B JUMP JUMPDEST JUMPDEST PUSH2 0xC73 DUP5 DUP3 DUP6 PUSH2 0x9CC JUMP JUMPDEST POP SWAP4 SWAP3 POP POP POP JUMP JUMPDEST PUSH1 0x0 DUP3 PUSH1 0x1F DUP4 ADD SLT PUSH2 0xC90 JUMPI PUSH2 0xC8F PUSH2 0x916 JUMP JUMPDEST JUMPDEST DUP2 CALLDATALOAD PUSH2 0xCA0 DUP5 DUP3 PUSH1 0x20 DUP7 ADD PUSH2 0xC39 JUMP JUMPDEST SWAP2 POP POP SWAP3 SWAP2 POP POP JUMP JUMPDEST PUSH1 0x0 PUSH1 0x20 DUP3 DUP5 SUB SLT ISZERO PUSH2 0xCBF JUMPI PUSH2 0xCBE PUSH2 0x809 JUMP JUMPDEST JUMPDEST PUSH1 0x0 DUP3 ADD CALLDATALOAD PUSH8 0xFFFFFFFFFFFFFFFF DUP2 GT ISZERO PUSH2 0xCDD JUMPI PUSH2 0xCDC PUSH2 0x80E JUMP JUMPDEST JUMPDEST PUSH2 0xCE9 DUP5 DUP3 DUP6 ADD PUSH2 0xC7B JUMP JUMPDEST SWAP2 POP POP SWAP3 SWAP2 POP POP JUMP JUMPDEST PUSH1 0x0 PUSH1 0x20 DUP3 ADD SWAP1 POP PUSH2 0xD07 PUSH1 0x0 DUP4 ADD DUP5 PUSH2 0x730 JUMP JUMPDEST SWAP3 SWAP2 POP POP JUMP JUMPDEST PUSH2 0xD16 DUP2 PUSH2 0xA94 JUMP JUMPDEST DUP2 EQ PUSH2 0xD21 JUMPI PUSH1 0x0 DUP1 REVERT JUMPDEST POP JUMP JUMPDEST PUSH1 0x0 DUP2 CALLDATALOAD SWAP1 POP PUSH2 0xD33 DUP2 PUSH2 0xD0D JUMP JUMPDEST SWAP3 SWAP2 POP POP JUMP JUMPDEST PUSH1 0x0 DUP1 PUSH1 0x0 PUSH1 0x60 DUP5 DUP7 SUB SLT ISZERO PUSH2 0xD52 JUMPI PUSH2 0xD51 PUSH2 0x809 JUMP JUMPDEST JUMPDEST PUSH1 0x0 DUP5 ADD CALLDATALOAD PUSH8 0xFFFFFFFFFFFFFFFF DUP2 GT ISZERO PUSH2 0xD70 JUMPI PUSH2 0xD6F PUSH2 0x80E JUMP JUMPDEST JUMPDEST PUSH2 0xD7C DUP7 DUP3 DUP8 ADD PUSH2 0xC7B JUMP JUMPDEST SWAP4 POP POP PUSH1 0x20 PUSH2 0xD8D DUP7 DUP3 DUP8 ADD PUSH2 0xD24 JUMP JUMPDEST SWAP3 POP POP PUSH1 0x40 PUSH2 0xD9E DUP7 DUP3 DUP8 ADD PUSH2 0x85C JUMP JUMPDEST SWAP2 POP POP SWAP3 POP SWAP3 POP SWAP3 JUMP JUMPDEST PUSH1 0x0 PUSH1 0x20 DUP3 ADD SWAP1 POP PUSH2 0xDBD PUSH1 0x0 DUP4 ADD DUP5 PUSH2 0xAAD JUMP JUMPDEST SWAP3 SWAP2 POP POP JUMP JUMPDEST PUSH1 0x0 DUP2 SWAP1 POP SWAP3 SWAP2 POP POP JUMP JUMPDEST PUSH1 0x0 PUSH2 0xDD9 DUP3 PUSH2 0x73F JUMP JUMPDEST PUSH2 0xDE3 DUP2 DUP6 PUSH2 0xDC3 JUMP JUMPDEST SWAP4 POP PUSH2 0xDF3 DUP2 DUP6 PUSH1 0x20 DUP7 ADD PUSH2 0x75B JUMP JUMPDEST DUP1 DUP5 ADD SWAP2 POP POP SWAP3 SWAP2 POP POP JUMP JUMPDEST PUSH1 0x0 PUSH2 0xE0B DUP3 DUP5 PUSH2 0xDCE JUMP JUMPDEST SWAP2 POP DUP2 SWAP1 POP SWAP3 SWAP2 POP POP JUMP JUMPDEST PUSH1 0x0 PUSH2 0xE22 DUP4 DUP6 PUSH2 0x74A JUMP JUMPDEST SWAP4 POP PUSH2 0xE2F DUP4 DUP6 DUP5 PUSH2 0x9CC JUMP JUMPDEST PUSH2 0xE38 DUP4 PUSH2 0x785 JUMP JUMPDEST DUP5 ADD SWAP1 POP SWAP4 SWAP3 POP POP POP JUMP JUMPDEST PUSH1 0x0 PUSH1 0x20 DUP3 ADD SWAP1 POP DUP2 DUP2 SUB PUSH1 0x0 DUP4 ADD MSTORE PUSH2 0xE5E DUP2 DUP5 DUP7 PUSH2 0xE16 JUMP JUMPDEST SWAP1 POP SWAP4 SWAP3 POP POP POP JUMP JUMPDEST PUSH32 0x4E487B7100000000000000000000000000000000000000000000000000000000 PUSH1 0x0 MSTORE PUSH1 0x22 PUSH1 0x4 MSTORE PUSH1 0x24 PUSH1 0x0 REVERT JUMPDEST PUSH1 0x0 PUSH1 0x2 DUP3 DIV SWAP1 POP PUSH1 0x1 DUP3 AND DUP1 PUSH2 0xEAE JUMPI PUSH1 0x7F DUP3 AND SWAP2 POP JUMPDEST PUSH1 0x20 DUP3 LT DUP2 SUB PUSH2 0xEC1 JUMPI PUSH2 0xEC0 PUSH2 0xE67 JUMP JUMPDEST JUMPDEST POP SWAP2 SWAP1 POP JUMP JUMPDEST PUSH1 0x0 DUP2 SWAP1 POP DUP2 PUSH1 0x0 MSTORE PUSH1 0x20 PUSH1 0x0 KECCAK256 SWAP1 POP SWAP2 SWAP1 POP JUMP JUMPDEST PUSH1 0x0 DUP2 SLOAD PUSH2 0xEE9 DUP2 PUSH2 0xE96 JUMP JUMPDEST PUSH2 0xEF3 DUP2 DUP7 PUSH2 0xAC7 JUMP JUMPDEST SWAP5 POP PUSH1 0x1 DUP3 AND PUSH1 0x0 DUP2 EQ PUSH2 0xF0E JUMPI PUSH1 0x1 DUP2 EQ PUSH2 0xF24 JUMPI PUSH2 0xF57 JUMP JUMPDEST PUSH1 0xFF NOT DUP4 AND DUP7 MSTORE DUP2 ISZERO ISZERO PUSH1 0x20 MUL DUP7 ADD SWAP4 POP PUSH2 0xF57 JUMP JUMPDEST PUSH2 0xF2D DUP6 PUSH2 0xEC7 JUMP JUMPDEST PUSH1 0x0 JUMPDEST DUP4 DUP2 LT ISZERO PUSH2 0xF4F JUMPI DUP2 SLOAD DUP2 DUP10 ADD MSTORE PUSH1 0x1 DUP3 ADD SWAP2 POP PUSH1 0x20 DUP2 ADD SWAP1 POP PUSH2 0xF30 JUMP JUMPDEST DUP1 DUP9 ADD SWAP6 POP POP POP JUMPDEST POP POP POP SWAP3 SWAP2 POP POP JUMP JUMPDEST PUSH1 0x0 PUSH1 0x2 SWAP1 POP SWAP2 SWAP1 POP JUMP JUMPDEST PUSH1 0x0 DUP2 SWAP1 POP SWAP2 SWAP1 POP JUMP JUMPDEST PUSH1 0x0 DUP2 PUSH1 0x0 SHR SWAP1 POP SWAP2 SWAP1 POP JUMP JUMPDEST PUSH1 0x0 DUP2 SWAP1 POP SWAP2 SWAP1 POP JUMP JUMPDEST PUSH1 0x0 PUSH2 0xF9F PUSH2 0xF9A DUP4 PUSH2 0xF75 JUMP JUMPDEST PUSH2 0xF82 JUMP JUMPDEST SWAP1 POP SWAP2 SWAP1 POP JUMP JUMPDEST PUSH1 0x0 PUSH2 0xFB2 DUP3 SLOAD PUSH2 0xF8C JUMP JUMPDEST SWAP1 POP SWAP2 SWAP1 POP JUMP JUMPDEST PUSH1 0x0 PUSH1 0x1 DUP3 ADD SWAP1 POP SWAP2 SWAP1 POP JUMP JUMPDEST PUSH2 0xFCF DUP2 PUSH2 0xF60 JUMP JUMPDEST PUSH2 0xFD9 DUP2 DUP5 PUSH2 0xB1C JUMP JUMPDEST SWAP3 POP PUSH2 0xFE4 DUP3 PUSH2 0xF6B JUMP JUMPDEST DUP1 PUSH1 0x0 JUMPDEST DUP4 DUP2 LT ISZERO PUSH2 0x101C JUMPI PUSH2 0xFF9 DUP3 PUSH2 0xFA6 JUMP JUMPDEST PUSH2 0x1003 DUP8 DUP3 PUSH2 0xB40 JUMP JUMPDEST SWAP7 POP PUSH2 0x100E DUP4 PUSH2 0xFB9 JUMP JUMPDEST SWAP3 POP POP PUSH1 0x1 DUP2 ADD SWAP1 POP PUSH2 0xFE8 JUMP JUMPDEST POP POP POP POP POP POP JUMP JUMPDEST PUSH1 0x0 PUSH1 0xA0 DUP3 ADD SWAP1 POP PUSH2 0x1039 PUSH1 0x0 DUP4 ADD DUP8 PUSH2 0xA9E JUMP JUMPDEST PUSH2 0x1046 PUSH1 0x20 DUP4 ADD DUP7 PUSH2 0xAAD JUMP JUMPDEST DUP2 DUP2 SUB PUSH1 0x40 DUP4 ADD MSTORE PUSH2 0x1058 DUP2 DUP6 PUSH2 0xEDC JUMP JUMPDEST SWAP1 POP PUSH2 0x1067 PUSH1 0x60 DUP4 ADD DUP5 PUSH2 0xFC6 JUMP JUMPDEST SWAP6 SWAP5 POP POP POP POP POP JUMP JUMPDEST PUSH1 0x0 DUP2 SWAP1 POP SWAP2 SWAP1 POP JUMP JUMPDEST PUSH2 0x108B PUSH2 0x1086 DUP3 PUSH2 0xA94 JUMP JUMPDEST PUSH2 0x1070 JUMP JUMPDEST DUP3 MSTORE POP POP JUMP JUMPDEST PUSH1 0x0 DUP2 SWAP1 POP SWAP3 SWAP2 POP POP JUMP JUMPDEST PUSH1 0x0 DUP2 SLOAD PUSH2 0x10A9 DUP2 PUSH2 0xE96 JUMP JUMPDEST PUSH2 0x10B3 DUP2 DUP7 PUSH2 0x1091 JUMP JUMPDEST SWAP5 POP PUSH1 0x1 DUP3 AND PUSH1 0x0 DUP2 EQ PUSH2 0x10CE JUMPI PUSH1 0x1 DUP2 EQ PUSH2 0x10E3 JUMPI PUSH2 0x1116 JUMP JUMPDEST PUSH1 0xFF NOT DUP4 AND DUP7 MSTORE DUP2 ISZERO ISZERO DUP3 MUL DUP7 ADD SWAP4 POP PUSH2 0x1116 JUMP JUMPDEST PUSH2 0x10EC DUP6 PUSH2 0xEC7 JUMP JUMPDEST PUSH1 0x0 JUMPDEST DUP4 DUP2 LT ISZERO PUSH2 0x110E JUMPI DUP2 SLOAD DUP2 DUP10 ADD MSTORE PUSH1 0x1 DUP3 ADD SWAP2 POP PUSH1 0x20 DUP2 ADD SWAP1 POP PUSH2 0x10EF JUMP JUMPDEST DUP4 DUP9 ADD SWAP6 POP POP POP JUMPDEST POP POP POP SWAP3 SWAP2 POP POP JUMP JUMPDEST PUSH1 0x0 DUP2 PUSH1 0x60 SHL SWAP1 POP SWAP2 SWAP1 POP JUMP JUMPDEST PUSH1 0x0 PUSH2 0x1137 DUP3 PUSH2 0x111F JUMP JUMPDEST SWAP1 POP SWAP2 SWAP1 POP JUMP JUMPDEST PUSH1 0x0 PUSH2 0x1149 DUP3 PUSH2 0x112C JUMP JUMPDEST SWAP1 POP SWAP2 SWAP1 POP JUMP JUMPDEST PUSH2 0x1161 PUSH2 0x115C DUP3 PUSH2 0x833 JUMP JUMPDEST PUSH2 0x113E JUMP JUMPDEST DUP3 MSTORE POP POP JUMP JUMPDEST PUSH1 0x0 PUSH2 0x1173 DUP3 DUP7 PUSH2 0x107A JUMP JUMPDEST PUSH1 0x20 DUP3 ADD SWAP2 POP PUSH2 0x1183 DUP3 DUP6 PUSH2 0x109C JUMP JUMPDEST SWAP2 POP PUSH2 0x118F DUP3 DUP5 PUSH2 0x1150 JUMP JUMPDEST PUSH1 0x14 DUP3 ADD SWAP2 POP DUP2 SWAP1 POP SWAP5 SWAP4 POP POP POP POP JUMP JUMPDEST PUSH1 0x0 DUP2 MLOAD SWAP1 POP PUSH2 0x11AF DUP2 PUSH2 0xD0D JUMP JUMPDEST SWAP3 SWAP2 POP POP JUMP JUMPDEST PUSH1 0x0 PUSH2 0x11C0 DUP3 PUSH2 0x813 JUMP JUMPDEST SWAP1 POP SWAP2 SWAP1 POP JUMP JUMPDEST PUSH2 0x11D0 DUP2 PUSH2 0x11B5 JUMP JUMPDEST DUP2 EQ PUSH2 0x11DB JUMPI PUSH1 0x0 DUP1 REVERT JUMPDEST POP JUMP JUMPDEST PUSH1 0x0 DUP2 MLOAD SWAP1 POP PUSH2 0x11ED DUP2 PUSH2 0x11C7 JUMP JUMPDEST SWAP3 SWAP2 POP POP JUMP JUMPDEST PUSH1 0x0 PUSH2 0x1206 PUSH2 0x1201 DUP5 PUSH2 0xC08 JUMP JUMPDEST PUSH2 0x980 JUMP JUMPDEST SWAP1 POP DUP3 DUP2 MSTORE PUSH1 0x20 DUP2 ADD DUP5 DUP5 DUP5 ADD GT ISZERO PUSH2 0x1222 JUMPI PUSH2 0x1221 PUSH2 0x91B JUMP JUMPDEST JUMPDEST PUSH2 0x122D DUP5 DUP3 DUP6 PUSH2 0x75B JUMP JUMPDEST POP SWAP4 SWAP3 POP POP POP JUMP JUMPDEST PUSH1 0x0 DUP3 PUSH1 0x1F DUP4 ADD SLT PUSH2 0x124A JUMPI PUSH2 0x1249 PUSH2 0x916 JUMP JUMPDEST JUMPDEST DUP2 MLOAD PUSH2 0x125A DUP5 DUP3 PUSH1 0x20 DUP7 ADD PUSH2 0x11F3 JUMP JUMPDEST SWAP2 POP POP SWAP3 SWAP2 POP POP JUMP JUMPDEST PUSH1 0x0 PUSH8 0xFFFFFFFFFFFFFFFF DUP3 GT ISZERO PUSH2 0x127E JUMPI PUSH2 0x127D PUSH2 0x920 JUMP JUMPDEST JUMPDEST PUSH1 0x20 DUP3 MUL SWAP1 POP SWAP2 SWAP1 POP JUMP JUMPDEST PUSH1 0x0 DUP1 REVERT JUMPDEST PUSH1 0x0 PUSH2 0x12A1 PUSH2 0x129C DUP5 PUSH2 0x1263 JUMP JUMPDEST PUSH2 0x980 JUMP JUMPDEST SWAP1 POP DUP1 PUSH1 0x20 DUP5 MUL DUP4 ADD DUP6 DUP2 GT ISZERO PUSH2 0x12BB JUMPI PUSH2 0x12BA PUSH2 0x1289 JUMP JUMPDEST JUMPDEST DUP4 JUMPDEST DUP2 DUP2 LT ISZERO PUSH2 0x12E4 JUMPI DUP1 PUSH2 0x12D0 DUP9 DUP3 PUSH2 0x11A0 JUMP JUMPDEST DUP5 MSTORE PUSH1 0x20 DUP5 ADD SWAP4 POP POP PUSH1 0x20 DUP2 ADD SWAP1 POP PUSH2 0x12BD JUMP JUMPDEST POP POP POP SWAP4 SWAP3 POP POP POP JUMP JUMPDEST PUSH1 0x0 DUP3 PUSH1 0x1F DUP4 ADD SLT PUSH2 0x1303 JUMPI PUSH2 0x1302 PUSH2 0x916 JUMP JUMPDEST JUMPDEST PUSH1 0x2 PUSH2 0x1310 DUP5 DUP3 DUP6 PUSH2 0x128E JUMP JUMPDEST SWAP2 POP POP SWAP3 SWAP2 POP POP JUMP JUMPDEST PUSH1 0x0 DUP1 PUSH1 0x0 DUP1 PUSH1 0xA0 DUP6 DUP8 SUB SLT ISZERO PUSH2 0x1333 JUMPI PUSH2 0x1332 PUSH2 0x809 JUMP JUMPDEST JUMPDEST PUSH1 0x0 PUSH2 0x1341 DUP8 DUP3 DUP9 ADD PUSH2 0x11A0 JUMP JUMPDEST SWAP5 POP POP PUSH1 0x20 PUSH2 0x1352 DUP8 DUP3 DUP9 ADD PUSH2 0x11DE JUMP JUMPDEST SWAP4 POP POP PUSH1 0x40 DUP6 ADD MLOAD PUSH8 0xFFFFFFFFFFFFFFFF DUP2 GT ISZERO PUSH2 0x1373 JUMPI PUSH2 0x1372 PUSH2 0x80E JUMP JUMPDEST JUMPDEST PUSH2 0x137F DUP8 DUP3 DUP9 ADD PUSH2 0x1235 JUMP JUMPDEST SWAP3 POP POP PUSH1 0x60 PUSH2 0x1390 DUP8 DUP3 DUP9 ADD PUSH2 0x12EE JUMP JUMPDEST SWAP2 POP POP SWAP3 SWAP6 SWAP2 SWAP5 POP SWAP3 POP JUMP JUMPDEST PUSH1 0x0 DUP2 SWAP1 POP SWAP3 SWAP2 POP POP JUMP JUMPDEST PUSH2 0x13B0 DUP2 PUSH2 0xA94 JUMP JUMPDEST DUP3 MSTORE POP POP JUMP JUMPDEST PUSH1 0x0 PUSH2 0x13C2 DUP4 DUP4 PUSH2 0x13A7 JUMP JUMPDEST PUSH1 0x20 DUP4 ADD SWAP1 POP SWAP3 SWAP2 POP POP JUMP JUMPDEST PUSH2 0x13D7 DUP2 PUSH2 0xF60 JUMP JUMPDEST PUSH2 0x13E1 DUP2 DUP5 PUSH2 0x139C JUMP JUMPDEST SWAP3 POP PUSH2 0x13EC DUP3 PUSH2 0xF6B JUMP JUMPDEST DUP1 PUSH1 0x0 JUMPDEST DUP4 DUP2 LT ISZERO PUSH2 0x1424 JUMPI PUSH2 0x1401 DUP3 PUSH2 0xFA6 JUMP JUMPDEST PUSH2 0x140B DUP8 DUP3 PUSH2 0x13B6 JUMP JUMPDEST SWAP7 POP PUSH2 0x1416 DUP4 PUSH2 0xFB9 JUMP JUMPDEST SWAP3 POP POP PUSH1 0x1 DUP2 ADD SWAP1 POP PUSH2 0x13F0 JUMP JUMPDEST POP POP POP POP POP POP JUMP JUMPDEST PUSH1 0x0 PUSH2 0x1438 DUP3 DUP8 PUSH2 0x107A JUMP JUMPDEST PUSH1 0x20 DUP3 ADD SWAP2 POP PUSH2 0x1448 DUP3 DUP7 PUSH2 0x1150 JUMP JUMPDEST PUSH1 0x14 DUP3 ADD SWAP2 POP PUSH2 0x1458 DUP3 DUP6 PUSH2 0x109C JUMP JUMPDEST SWAP2 POP PUSH2 0x1464 DUP3 DUP5 PUSH2 0x13CE JUMP JUMPDEST PUSH1 0x40 DUP3 ADD SWAP2 POP DUP2 SWAP1 POP SWAP6 SWAP5 POP POP POP POP POP JUMP JUMPDEST PUSH1 0x0 PUSH2 0x1481 DUP3 PUSH2 0xABC JUMP JUMPDEST PUSH2 0x148B DUP2 DUP6 PUSH2 0x1091 JUMP JUMPDEST SWAP4 POP PUSH2 0x149B DUP2 DUP6 PUSH1 0x20 DUP7 ADD PUSH2 0x75B JUMP JUMPDEST DUP1 DUP5 ADD SWAP2 POP POP SWAP3 SWAP2 POP POP JUMP JUMPDEST PUSH1 0x0 PUSH2 0x14B3 DUP3 DUP5 PUSH2 0x1476 JUMP JUMPDEST SWAP2 POP DUP2 SWAP1 POP SWAP3 SWAP2 POP POP JUMP JUMPDEST PUSH1 0x0 PUSH2 0x14CA DUP3 DUP7 PUSH2 0x1476 JUMP JUMPDEST SWAP2 POP PUSH2 0x14D6 DUP3 DUP6 PUSH2 0x107A JUMP JUMPDEST PUSH1 0x20 DUP3 ADD SWAP2 POP PUSH2 0x14E6 DUP3 DUP5 PUSH2 0x1150 JUMP JUMPDEST PUSH1 0x14 DUP3 ADD SWAP2 POP DUP2 SWAP1 POP SWAP5 SWAP4 POP POP POP POP JUMP INVALID LOG2 PUSH5 0x6970667358 0x22 SLT KECCAK256 MOD 0xCC BALANCE EXP CHAINID PUSH17 0x1BF66BCE077ABD10CD25ADA655C11EBB42 ORIGIN PUSH26 0xE23AF41D3909B64736F6C634300081100330000000000000000 "
				},
				"gasEstimates": {
					"creation": {
						"codeDepositCost": "1084200",
						"executionCost": "infinite",
						"totalCost": "infinite"
					},
					"external": {
						"_msg()": "2430",
						"callwithSignature()": "infinite",
						"checkMethodId()": "410",
						"decode1(bytes)": "infinite",
						"encode()": "infinite",
						"encode2()": "infinite",
						"encode3()": "infinite",
						"encode4()": "infinite",
						"hash1()": "infinite",
						"hash2(string,uint256,address)": "infinite",
						"mint(address)": "infinite",
						"weak(string)": "infinite"
					}
				},
				"methodIdentifiers": {
					"_msg()": "10c8c11d",
					"callwithSignature()": "2b9c6157",
					"checkMethodId()": "6b426eec",
					"decode1(bytes)": "bac1d572",
					"encode()": "bd14598f",
					"encode2()": "bed7532c",
					"encode3()": "f7d13ab0",
					"encode4()": "b55ffc04",
					"hash1()": "ba1663ca",
					"hash2(string,uint256,address)": "f20f1e9e",
					"mint(address)": "6a627842",
					"weak(string)": "d6abfc7b"
				}
			},
			"storageLayout": {
				"storage": [
					{
						"astId": 4,
						"contract": "contracts/abiTest.sol:AbiTest",
						"label": "x",
						"offset": 0,
						"slot": "0",
						"type": "t_uint256"
					},
					{
						"astId": 7,
						"contract": "contracts/abiTest.sol:AbiTest",
						"label": "addr",
						"offset": 0,
						"slot": "1",
						"type": "t_address"
					},
					{
						"astId": 10,
						"contract": "contracts/abiTest.sol:AbiTest",
						"label": "name",
						"offset": 0,
						"slot": "2",
						"type": "t_string_storage"
					},
					{
						"astId": 17,
						"contract": "contracts/abiTest.sol:AbiTest",
						"label": "array",
						"offset": 0,
						"slot": "3",
						"type": "t_array(t_uint256)2_storage"
					},
					{
						"astId": 172,
						"contract": "contracts/abiTest.sol:AbiTest",
						"label": "_msg",
						"offset": 0,
						"slot": "5",
						"type": "t_bytes32"
					}
				],
				"types": {
					"t_address": {
						"encoding": "inplace",
						"label": "address",
						"numberOfBytes": "20"
					},
					"t_array(t_uint256)2_storage": {
						"base": "t_uint256",
						"encoding": "inplace",
						"label": "uint256[2]",
						"numberOfBytes": "64"
					},
					"t_bytes32": {
						"encoding": "inplace",
						"label": "bytes32",
						"numberOfBytes": "32"
					},
					"t_string_storage": {
						"encoding": "bytes",
						"label": "string",
						"numberOfBytes": "32"
					},
					"t_uint256": {
						"encoding": "inplace",
						"label": "uint256",
						"numberOfBytes": "32"
					}
				}
			},
			"userdoc": {
				"kind": "user",
				"methods": {
					"hash1()": {
						"notice": "这个方法不能使用pure修饰的原因是 此方法使用三个了全局变量 pure修饰的方法是不能读取也不能写入的，使用了全局变量是需要读取的"
					},
					"hash2(string,uint256,address)": {
						"notice": "此方法使用pure修饰，是因为使用的参数是方法传进来的，不需要去读取或者写入"
					}
				},
				"version": 1
			}
		}
	}
}