{
	"contracts/airdrop.sol": {
		"Airdrop": {
			"abi": [
				{
					"inputs": [
						{
							"internalType": "uint256[]",
							"name": "_arr",
							"type": "uint256[]"
						}
					],
					"name": "getSum",
					"outputs": [
						{
							"internalType": "uint256",
							"name": "sum",
							"type": "uint256"
						}
					],
					"stateMutability": "pure",
					"type": "function"
				},
				{
					"inputs": [
						{
							"internalType": "address",
							"name": "_owner",
							"type": "address"
						},
						{
							"internalType": "address",
							"name": "_dropTokenAdd",
							"type": "address"
						},
						{
							"internalType": "address[]",
							"name": "_toAdd",
							"type": "address[]"
						},
						{
							"internalType": "uint256[]",
							"name": "_toAmount",
							"type": "uint256[]"
						}
					],
					"name": "sendERC20Airdrop",
					"outputs": [],
					"stateMutability": "nonpayable",
					"type": "function"
				}
			],
			"devdoc": {
				"kind": "dev",
				"methods": {},
				"version": 1
			},
			"evm": {
				"assembly": "    /* \"contracts/airdrop.sol\":154:1952  contract Airdrop {... */\n  mstore(0x40, 0x80)\n  callvalue\n  dup1\n  iszero\n  tag_1\n  jumpi\n  0x00\n  dup1\n  revert\ntag_1:\n  pop\n  dataSize(sub_0)\n  dup1\n  dataOffset(sub_0)\n  0x00\n  codecopy\n  0x00\n  return\nstop\n\nsub_0: assembly {\n        /* \"contracts/airdrop.sol\":154:1952  contract Airdrop {... */\n      mstore(0x40, 0x80)\n      callvalue\n      dup1\n      iszero\n      tag_1\n      jumpi\n      0x00\n      dup1\n      revert\n    tag_1:\n      pop\n      jumpi(tag_2, lt(calldatasize, 0x04))\n      shr(0xe0, calldataload(0x00))\n      dup1\n      0x6c47aa86\n      eq\n      tag_3\n      jumpi\n      dup1\n      0xccb8c1e0\n      eq\n      tag_4\n      jumpi\n    tag_2:\n      0x00\n      dup1\n      revert\n        /* \"contracts/airdrop.sol\":177:1767  function sendERC20Airdrop(... */\n    tag_3:\n      tag_5\n      0x04\n      dup1\n      calldatasize\n      sub\n      dup2\n      add\n      swap1\n      tag_6\n      swap2\n      swap1\n      tag_7\n      jump\t// in\n    tag_6:\n      tag_8\n      jump\t// in\n    tag_5:\n      stop\n        /* \"contracts/airdrop.sol\":1773:1950  function getSum(uint256[] calldata _arr) public pure returns (uint256 sum) {... */\n    tag_4:\n      tag_9\n      0x04\n      dup1\n      calldatasize\n      sub\n      dup2\n      add\n      swap1\n      tag_10\n      swap2\n      swap1\n      tag_11\n      jump\t// in\n    tag_10:\n      tag_12\n      jump\t// in\n    tag_9:\n      mload(0x40)\n      tag_13\n      swap2\n      swap1\n      tag_14\n      jump\t// in\n    tag_13:\n      mload(0x40)\n      dup1\n      swap2\n      sub\n      swap1\n      return\n        /* \"contracts/airdrop.sol\":177:1767  function sendERC20Airdrop(... */\n    tag_8:\n        /* \"contracts/airdrop.sol\":539:548  _toAmount */\n      dup2\n      dup2\n        /* \"contracts/airdrop.sol\":539:555  _toAmount.length */\n      swap1\n      pop\n        /* \"contracts/airdrop.sol\":522:528  _toAdd */\n      dup5\n      dup5\n        /* \"contracts/airdrop.sol\":522:535  _toAdd.length */\n      swap1\n      pop\n        /* \"contracts/airdrop.sol\":522:555  _toAdd.length == _toAmount.length */\n      eq\n        /* \"contracts/airdrop.sol\":514:579  require(_toAdd.length == _toAmount.length, \"error--------------\") */\n      tag_16\n      jumpi\n      mload(0x40)\n      0x08c379a000000000000000000000000000000000000000000000000000000000\n      dup2\n      mstore\n      0x04\n      add\n      tag_17\n      swap1\n      tag_18\n      jump\t// in\n    tag_17:\n      mload(0x40)\n      dup1\n      swap2\n      sub\n      swap1\n      revert\n    tag_16:\n        /* \"contracts/airdrop.sol\":589:601  IERC20 token */\n      0x00\n        /* \"contracts/airdrop.sol\":611:624  _dropTokenAdd */\n      dup6\n        /* \"contracts/airdrop.sol\":589:625  IERC20 token = IERC20(_dropTokenAdd) */\n      swap1\n      pop\n        /* \"contracts/airdrop.sol\":785:799  uint256 amount */\n      0x00\n        /* \"contracts/airdrop.sol\":802:819  getSum(_toAmount) */\n      tag_19\n        /* \"contracts/airdrop.sol\":809:818  _toAmount */\n      dup5\n      dup5\n        /* \"contracts/airdrop.sol\":802:808  getSum */\n      tag_12\n        /* \"contracts/airdrop.sol\":802:819  getSum(_toAmount) */\n      jump\t// in\n    tag_19:\n        /* \"contracts/airdrop.sol\":785:819  uint256 amount = getSum(_toAmount) */\n      swap1\n      pop\n        /* \"contracts/airdrop.sol\":1168:1174  amount */\n      dup1\n        /* \"contracts/airdrop.sol\":1126:1131  token */\n      dup3\n        /* \"contracts/airdrop.sol\":1126:1141  token.allowance */\n      0xffffffffffffffffffffffffffffffffffffffff\n      and\n      0xdd62ed3e\n        /* \"contracts/airdrop.sol\":1142:1148  _owner */\n      dup11\n        /* \"contracts/airdrop.sol\":1158:1162  this */\n      address\n        /* \"contracts/airdrop.sol\":1126:1164  token.allowance(_owner, address(this)) */\n      mload(0x40)\n      dup4\n      0xffffffff\n      and\n      0xe0\n      shl\n      dup2\n      mstore\n      0x04\n      add\n      tag_20\n      swap3\n      swap2\n      swap1\n      tag_21\n      jump\t// in\n    tag_20:\n      0x20\n      mload(0x40)\n      dup1\n      dup4\n      sub\n      dup2\n      dup7\n      gas\n      staticcall\n      iszero\n      dup1\n      iszero\n      tag_23\n      jumpi\n      returndatasize\n      0x00\n      dup1\n      returndatacopy\n      revert(0x00, returndatasize)\n    tag_23:\n      pop\n      pop\n      pop\n      pop\n      mload(0x40)\n      returndatasize\n      not(0x1f)\n      0x1f\n      dup3\n      add\n      and\n      dup3\n      add\n      dup1\n      0x40\n      mstore\n      pop\n      dup2\n      add\n      swap1\n      tag_24\n      swap2\n      swap1\n      tag_25\n      jump\t// in\n    tag_24:\n        /* \"contracts/airdrop.sol\":1126:1174  token.allowance(_owner, address(this)) >= amount */\n      lt\n      iszero\n        /* \"contracts/airdrop.sol\":1105:1215  require(... */\n      tag_26\n      jumpi\n      mload(0x40)\n      0x08c379a000000000000000000000000000000000000000000000000000000000\n      dup2\n      mstore\n      0x04\n      add\n      tag_27\n      swap1\n      tag_28\n      jump\t// in\n    tag_27:\n      mload(0x40)\n      dup1\n      swap2\n      sub\n      swap1\n      revert\n    tag_26:\n        /* \"contracts/airdrop.sol\":1576:1583  uint8 i */\n      0x00\n        /* \"contracts/airdrop.sol\":1571:1761  for (uint8 i = 0; i < _toAdd.length; i++) {... */\n    tag_29:\n        /* \"contracts/airdrop.sol\":1593:1599  _toAdd */\n      dup7\n      dup7\n        /* \"contracts/airdrop.sol\":1593:1606  _toAdd.length */\n      swap1\n      pop\n        /* \"contracts/airdrop.sol\":1589:1590  i */\n      dup2\n        /* \"contracts/airdrop.sol\":1589:1606  i < _toAdd.length */\n      0xff\n      and\n      lt\n        /* \"contracts/airdrop.sol\":1571:1761  for (uint8 i = 0; i < _toAdd.length; i++) {... */\n      iszero\n      tag_30\n      jumpi\n        /* \"contracts/airdrop.sol\":1699:1704  token */\n      dup3\n        /* \"contracts/airdrop.sol\":1699:1717  token.transferFrom */\n      0xffffffffffffffffffffffffffffffffffffffff\n      and\n      0x23b872dd\n        /* \"contracts/airdrop.sol\":1718:1724  _owner */\n      dup11\n        /* \"contracts/airdrop.sol\":1726:1732  _toAdd */\n      dup10\n      dup10\n        /* \"contracts/airdrop.sol\":1733:1734  i */\n      dup6\n        /* \"contracts/airdrop.sol\":1726:1735  _toAdd[i] */\n      0xff\n      and\n      dup2\n      dup2\n      lt\n      tag_32\n      jumpi\n      tag_33\n      tag_34\n      jump\t// in\n    tag_33:\n    tag_32:\n      swap1\n      pop\n      0x20\n      mul\n      add\n      0x20\n      dup2\n      add\n      swap1\n      tag_35\n      swap2\n      swap1\n      tag_36\n      jump\t// in\n    tag_35:\n        /* \"contracts/airdrop.sol\":1737:1746  _toAmount */\n      dup9\n      dup9\n        /* \"contracts/airdrop.sol\":1747:1748  i */\n      dup7\n        /* \"contracts/airdrop.sol\":1737:1749  _toAmount[i] */\n      0xff\n      and\n      dup2\n      dup2\n      lt\n      tag_37\n      jumpi\n      tag_38\n      tag_34\n      jump\t// in\n    tag_38:\n    tag_37:\n      swap1\n      pop\n      0x20\n      mul\n      add\n      calldataload\n        /* \"contracts/airdrop.sol\":1699:1750  token.transferFrom(_owner, _toAdd[i], _toAmount[i]) */\n      mload(0x40)\n      dup5\n      0xffffffff\n      and\n      0xe0\n      shl\n      dup2\n      mstore\n      0x04\n      add\n      tag_39\n      swap4\n      swap3\n      swap2\n      swap1\n      tag_40\n      jump\t// in\n    tag_39:\n      0x20\n      mload(0x40)\n      dup1\n      dup4\n      sub\n      dup2\n      0x00\n      dup8\n      gas\n      call\n      iszero\n      dup1\n      iszero\n      tag_42\n      jumpi\n      returndatasize\n      0x00\n      dup1\n      returndatacopy\n      revert(0x00, returndatasize)\n    tag_42:\n      pop\n      pop\n      pop\n      pop\n      mload(0x40)\n      returndatasize\n      not(0x1f)\n      0x1f\n      dup3\n      add\n      and\n      dup3\n      add\n      dup1\n      0x40\n      mstore\n      pop\n      dup2\n      add\n      swap1\n      tag_43\n      swap2\n      swap1\n      tag_44\n      jump\t// in\n    tag_43:\n      pop\n        /* \"contracts/airdrop.sol\":1608:1611  i++ */\n      dup1\n      dup1\n      tag_45\n      swap1\n      tag_46\n      jump\t// in\n    tag_45:\n      swap2\n      pop\n      pop\n        /* \"contracts/airdrop.sol\":1571:1761  for (uint8 i = 0; i < _toAdd.length; i++) {... */\n      jump(tag_29)\n    tag_30:\n      pop\n        /* \"contracts/airdrop.sol\":504:1767  {... */\n      pop\n      pop\n        /* \"contracts/airdrop.sol\":177:1767  function sendERC20Airdrop(... */\n      pop\n      pop\n      pop\n      pop\n      pop\n      pop\n      jump\t// out\n        /* \"contracts/airdrop.sol\":1773:1950  function getSum(uint256[] calldata _arr) public pure returns (uint256 sum) {... */\n    tag_12:\n        /* \"contracts/airdrop.sol\":1835:1846  uint256 sum */\n      0x00\n        /* \"contracts/airdrop.sol\":1863:1872  uint256 i */\n      dup1\n        /* \"contracts/airdrop.sol\":1875:1876  0 */\n      0x00\n        /* \"contracts/airdrop.sol\":1863:1876  uint256 i = 0 */\n      swap1\n      pop\n        /* \"contracts/airdrop.sol\":1858:1944  for (uint256 i = 0; i < _arr.length; i++) {... */\n    tag_48:\n        /* \"contracts/airdrop.sol\":1882:1886  _arr */\n      dup4\n      dup4\n        /* \"contracts/airdrop.sol\":1882:1893  _arr.length */\n      swap1\n      pop\n        /* \"contracts/airdrop.sol\":1878:1879  i */\n      dup2\n        /* \"contracts/airdrop.sol\":1878:1893  i < _arr.length */\n      lt\n        /* \"contracts/airdrop.sol\":1858:1944  for (uint256 i = 0; i < _arr.length; i++) {... */\n      iszero\n      tag_49\n      jumpi\n        /* \"contracts/airdrop.sol\":1926:1930  _arr */\n      dup4\n      dup4\n        /* \"contracts/airdrop.sol\":1931:1932  i */\n      dup3\n        /* \"contracts/airdrop.sol\":1926:1933  _arr[i] */\n      dup2\n      dup2\n      lt\n      tag_51\n      jumpi\n      tag_52\n      tag_34\n      jump\t// in\n    tag_52:\n    tag_51:\n      swap1\n      pop\n      0x20\n      mul\n      add\n      calldataload\n        /* \"contracts/airdrop.sol\":1920:1923  sum */\n      dup3\n        /* \"contracts/airdrop.sol\":1920:1933  sum + _arr[i] */\n      tag_53\n      swap2\n      swap1\n      tag_54\n      jump\t// in\n    tag_53:\n        /* \"contracts/airdrop.sol\":1914:1933  sum = sum + _arr[i] */\n      swap2\n      pop\n        /* \"contracts/airdrop.sol\":1895:1898  i++ */\n      dup1\n      dup1\n      tag_55\n      swap1\n      tag_56\n      jump\t// in\n    tag_55:\n      swap2\n      pop\n      pop\n        /* \"contracts/airdrop.sol\":1858:1944  for (uint256 i = 0; i < _arr.length; i++) {... */\n      jump(tag_48)\n    tag_49:\n      pop\n        /* \"contracts/airdrop.sol\":1773:1950  function getSum(uint256[] calldata _arr) public pure returns (uint256 sum) {... */\n      swap3\n      swap2\n      pop\n      pop\n      jump\t// out\n        /* \"#utility.yul\":88:205   */\n    tag_58:\n        /* \"#utility.yul\":197:198   */\n      0x00\n        /* \"#utility.yul\":194:195   */\n      dup1\n        /* \"#utility.yul\":187:199   */\n      revert\n        /* \"#utility.yul\":211:328   */\n    tag_59:\n        /* \"#utility.yul\":320:321   */\n      0x00\n        /* \"#utility.yul\":317:318   */\n      dup1\n        /* \"#utility.yul\":310:322   */\n      revert\n        /* \"#utility.yul\":334:460   */\n    tag_60:\n        /* \"#utility.yul\":371:378   */\n      0x00\n        /* \"#utility.yul\":411:453   */\n      0xffffffffffffffffffffffffffffffffffffffff\n        /* \"#utility.yul\":404:409   */\n      dup3\n        /* \"#utility.yul\":400:454   */\n      and\n        /* \"#utility.yul\":389:454   */\n      swap1\n      pop\n        /* \"#utility.yul\":334:460   */\n      swap2\n      swap1\n      pop\n      jump\t// out\n        /* \"#utility.yul\":466:562   */\n    tag_61:\n        /* \"#utility.yul\":503:510   */\n      0x00\n        /* \"#utility.yul\":532:556   */\n      tag_90\n        /* \"#utility.yul\":550:555   */\n      dup3\n        /* \"#utility.yul\":532:556   */\n      tag_60\n      jump\t// in\n    tag_90:\n        /* \"#utility.yul\":521:556   */\n      swap1\n      pop\n        /* \"#utility.yul\":466:562   */\n      swap2\n      swap1\n      pop\n      jump\t// out\n        /* \"#utility.yul\":568:690   */\n    tag_62:\n        /* \"#utility.yul\":641:665   */\n      tag_92\n        /* \"#utility.yul\":659:664   */\n      dup2\n        /* \"#utility.yul\":641:665   */\n      tag_61\n      jump\t// in\n    tag_92:\n        /* \"#utility.yul\":634:639   */\n      dup2\n        /* \"#utility.yul\":631:666   */\n      eq\n        /* \"#utility.yul\":621:684   */\n      tag_93\n      jumpi\n        /* \"#utility.yul\":680:681   */\n      0x00\n        /* \"#utility.yul\":677:678   */\n      dup1\n        /* \"#utility.yul\":670:682   */\n      revert\n        /* \"#utility.yul\":621:684   */\n    tag_93:\n        /* \"#utility.yul\":568:690   */\n      pop\n      jump\t// out\n        /* \"#utility.yul\":696:835   */\n    tag_63:\n        /* \"#utility.yul\":742:747   */\n      0x00\n        /* \"#utility.yul\":780:786   */\n      dup2\n        /* \"#utility.yul\":767:787   */\n      calldataload\n        /* \"#utility.yul\":758:787   */\n      swap1\n      pop\n        /* \"#utility.yul\":796:829   */\n      tag_95\n        /* \"#utility.yul\":823:828   */\n      dup2\n        /* \"#utility.yul\":796:829   */\n      tag_62\n      jump\t// in\n    tag_95:\n        /* \"#utility.yul\":696:835   */\n      swap3\n      swap2\n      pop\n      pop\n      jump\t// out\n        /* \"#utility.yul\":841:958   */\n    tag_64:\n        /* \"#utility.yul\":950:951   */\n      0x00\n        /* \"#utility.yul\":947:948   */\n      dup1\n        /* \"#utility.yul\":940:952   */\n      revert\n        /* \"#utility.yul\":964:1081   */\n    tag_65:\n        /* \"#utility.yul\":1073:1074   */\n      0x00\n        /* \"#utility.yul\":1070:1071   */\n      dup1\n        /* \"#utility.yul\":1063:1075   */\n      revert\n        /* \"#utility.yul\":1087:1204   */\n    tag_66:\n        /* \"#utility.yul\":1196:1197   */\n      0x00\n        /* \"#utility.yul\":1193:1194   */\n      dup1\n        /* \"#utility.yul\":1186:1198   */\n      revert\n        /* \"#utility.yul\":1227:1795   */\n    tag_67:\n        /* \"#utility.yul\":1300:1308   */\n      0x00\n        /* \"#utility.yul\":1310:1316   */\n      dup1\n        /* \"#utility.yul\":1360:1363   */\n      dup4\n        /* \"#utility.yul\":1353:1357   */\n      0x1f\n        /* \"#utility.yul\":1345:1351   */\n      dup5\n        /* \"#utility.yul\":1341:1358   */\n      add\n        /* \"#utility.yul\":1337:1364   */\n      slt\n        /* \"#utility.yul\":1327:1449   */\n      tag_100\n      jumpi\n        /* \"#utility.yul\":1368:1447   */\n      tag_101\n      tag_64\n      jump\t// in\n    tag_101:\n        /* \"#utility.yul\":1327:1449   */\n    tag_100:\n        /* \"#utility.yul\":1481:1487   */\n      dup3\n        /* \"#utility.yul\":1468:1488   */\n      calldataload\n        /* \"#utility.yul\":1458:1488   */\n      swap1\n      pop\n        /* \"#utility.yul\":1511:1529   */\n      0xffffffffffffffff\n        /* \"#utility.yul\":1503:1509   */\n      dup2\n        /* \"#utility.yul\":1500:1530   */\n      gt\n        /* \"#utility.yul\":1497:1614   */\n      iszero\n      tag_102\n      jumpi\n        /* \"#utility.yul\":1533:1612   */\n      tag_103\n      tag_65\n      jump\t// in\n    tag_103:\n        /* \"#utility.yul\":1497:1614   */\n    tag_102:\n        /* \"#utility.yul\":1647:1651   */\n      0x20\n        /* \"#utility.yul\":1639:1645   */\n      dup4\n        /* \"#utility.yul\":1635:1652   */\n      add\n        /* \"#utility.yul\":1623:1652   */\n      swap2\n      pop\n        /* \"#utility.yul\":1701:1704   */\n      dup4\n        /* \"#utility.yul\":1693:1697   */\n      0x20\n        /* \"#utility.yul\":1685:1691   */\n      dup3\n        /* \"#utility.yul\":1681:1698   */\n      mul\n        /* \"#utility.yul\":1671:1679   */\n      dup4\n        /* \"#utility.yul\":1667:1699   */\n      add\n        /* \"#utility.yul\":1664:1705   */\n      gt\n        /* \"#utility.yul\":1661:1789   */\n      iszero\n      tag_104\n      jumpi\n        /* \"#utility.yul\":1708:1787   */\n      tag_105\n      tag_66\n      jump\t// in\n    tag_105:\n        /* \"#utility.yul\":1661:1789   */\n    tag_104:\n        /* \"#utility.yul\":1227:1795   */\n      swap3\n      pop\n      swap3\n      swap1\n      pop\n      jump\t// out\n        /* \"#utility.yul\":1818:2386   */\n    tag_68:\n        /* \"#utility.yul\":1891:1899   */\n      0x00\n        /* \"#utility.yul\":1901:1907   */\n      dup1\n        /* \"#utility.yul\":1951:1954   */\n      dup4\n        /* \"#utility.yul\":1944:1948   */\n      0x1f\n        /* \"#utility.yul\":1936:1942   */\n      dup5\n        /* \"#utility.yul\":1932:1949   */\n      add\n        /* \"#utility.yul\":1928:1955   */\n      slt\n        /* \"#utility.yul\":1918:2040   */\n      tag_107\n      jumpi\n        /* \"#utility.yul\":1959:2038   */\n      tag_108\n      tag_64\n      jump\t// in\n    tag_108:\n        /* \"#utility.yul\":1918:2040   */\n    tag_107:\n        /* \"#utility.yul\":2072:2078   */\n      dup3\n        /* \"#utility.yul\":2059:2079   */\n      calldataload\n        /* \"#utility.yul\":2049:2079   */\n      swap1\n      pop\n        /* \"#utility.yul\":2102:2120   */\n      0xffffffffffffffff\n        /* \"#utility.yul\":2094:2100   */\n      dup2\n        /* \"#utility.yul\":2091:2121   */\n      gt\n        /* \"#utility.yul\":2088:2205   */\n      iszero\n      tag_109\n      jumpi\n        /* \"#utility.yul\":2124:2203   */\n      tag_110\n      tag_65\n      jump\t// in\n    tag_110:\n        /* \"#utility.yul\":2088:2205   */\n    tag_109:\n        /* \"#utility.yul\":2238:2242   */\n      0x20\n        /* \"#utility.yul\":2230:2236   */\n      dup4\n        /* \"#utility.yul\":2226:2243   */\n      add\n        /* \"#utility.yul\":2214:2243   */\n      swap2\n      pop\n        /* \"#utility.yul\":2292:2295   */\n      dup4\n        /* \"#utility.yul\":2284:2288   */\n      0x20\n        /* \"#utility.yul\":2276:2282   */\n      dup3\n        /* \"#utility.yul\":2272:2289   */\n      mul\n        /* \"#utility.yul\":2262:2270   */\n      dup4\n        /* \"#utility.yul\":2258:2290   */\n      add\n        /* \"#utility.yul\":2255:2296   */\n      gt\n        /* \"#utility.yul\":2252:2380   */\n      iszero\n      tag_111\n      jumpi\n        /* \"#utility.yul\":2299:2378   */\n      tag_112\n      tag_66\n      jump\t// in\n    tag_112:\n        /* \"#utility.yul\":2252:2380   */\n    tag_111:\n        /* \"#utility.yul\":1818:2386   */\n      swap3\n      pop\n      swap3\n      swap1\n      pop\n      jump\t// out\n        /* \"#utility.yul\":2392:3617   */\n    tag_7:\n        /* \"#utility.yul\":2532:2538   */\n      0x00\n        /* \"#utility.yul\":2540:2546   */\n      dup1\n        /* \"#utility.yul\":2548:2554   */\n      0x00\n        /* \"#utility.yul\":2556:2562   */\n      dup1\n        /* \"#utility.yul\":2564:2570   */\n      0x00\n        /* \"#utility.yul\":2572:2578   */\n      dup1\n        /* \"#utility.yul\":2621:2624   */\n      0x80\n        /* \"#utility.yul\":2609:2618   */\n      dup8\n        /* \"#utility.yul\":2600:2607   */\n      dup10\n        /* \"#utility.yul\":2596:2619   */\n      sub\n        /* \"#utility.yul\":2592:2625   */\n      slt\n        /* \"#utility.yul\":2589:2709   */\n      iszero\n      tag_114\n      jumpi\n        /* \"#utility.yul\":2628:2707   */\n      tag_115\n      tag_58\n      jump\t// in\n    tag_115:\n        /* \"#utility.yul\":2589:2709   */\n    tag_114:\n        /* \"#utility.yul\":2748:2749   */\n      0x00\n        /* \"#utility.yul\":2773:2826   */\n      tag_116\n        /* \"#utility.yul\":2818:2825   */\n      dup10\n        /* \"#utility.yul\":2809:2815   */\n      dup3\n        /* \"#utility.yul\":2798:2807   */\n      dup11\n        /* \"#utility.yul\":2794:2816   */\n      add\n        /* \"#utility.yul\":2773:2826   */\n      tag_63\n      jump\t// in\n    tag_116:\n        /* \"#utility.yul\":2763:2826   */\n      swap7\n      pop\n        /* \"#utility.yul\":2719:2836   */\n      pop\n        /* \"#utility.yul\":2875:2877   */\n      0x20\n        /* \"#utility.yul\":2901:2954   */\n      tag_117\n        /* \"#utility.yul\":2946:2953   */\n      dup10\n        /* \"#utility.yul\":2937:2943   */\n      dup3\n        /* \"#utility.yul\":2926:2935   */\n      dup11\n        /* \"#utility.yul\":2922:2944   */\n      add\n        /* \"#utility.yul\":2901:2954   */\n      tag_63\n      jump\t// in\n    tag_117:\n        /* \"#utility.yul\":2891:2954   */\n      swap6\n      pop\n        /* \"#utility.yul\":2846:2964   */\n      pop\n        /* \"#utility.yul\":3031:3033   */\n      0x40\n        /* \"#utility.yul\":3020:3029   */\n      dup8\n        /* \"#utility.yul\":3016:3034   */\n      add\n        /* \"#utility.yul\":3003:3035   */\n      calldataload\n        /* \"#utility.yul\":3062:3080   */\n      0xffffffffffffffff\n        /* \"#utility.yul\":3054:3060   */\n      dup2\n        /* \"#utility.yul\":3051:3081   */\n      gt\n        /* \"#utility.yul\":3048:3165   */\n      iszero\n      tag_118\n      jumpi\n        /* \"#utility.yul\":3084:3163   */\n      tag_119\n      tag_59\n      jump\t// in\n    tag_119:\n        /* \"#utility.yul\":3048:3165   */\n    tag_118:\n        /* \"#utility.yul\":3197:3277   */\n      tag_120\n        /* \"#utility.yul\":3269:3276   */\n      dup10\n        /* \"#utility.yul\":3260:3266   */\n      dup3\n        /* \"#utility.yul\":3249:3258   */\n      dup11\n        /* \"#utility.yul\":3245:3267   */\n      add\n        /* \"#utility.yul\":3197:3277   */\n      tag_67\n      jump\t// in\n    tag_120:\n        /* \"#utility.yul\":3179:3277   */\n      swap5\n      pop\n      swap5\n      pop\n        /* \"#utility.yul\":2974:3287   */\n      pop\n        /* \"#utility.yul\":3354:3356   */\n      0x60\n        /* \"#utility.yul\":3343:3352   */\n      dup8\n        /* \"#utility.yul\":3339:3357   */\n      add\n        /* \"#utility.yul\":3326:3358   */\n      calldataload\n        /* \"#utility.yul\":3385:3403   */\n      0xffffffffffffffff\n        /* \"#utility.yul\":3377:3383   */\n      dup2\n        /* \"#utility.yul\":3374:3404   */\n      gt\n        /* \"#utility.yul\":3371:3488   */\n      iszero\n      tag_121\n      jumpi\n        /* \"#utility.yul\":3407:3486   */\n      tag_122\n      tag_59\n      jump\t// in\n    tag_122:\n        /* \"#utility.yul\":3371:3488   */\n    tag_121:\n        /* \"#utility.yul\":3520:3600   */\n      tag_123\n        /* \"#utility.yul\":3592:3599   */\n      dup10\n        /* \"#utility.yul\":3583:3589   */\n      dup3\n        /* \"#utility.yul\":3572:3581   */\n      dup11\n        /* \"#utility.yul\":3568:3590   */\n      add\n        /* \"#utility.yul\":3520:3600   */\n      tag_68\n      jump\t// in\n    tag_123:\n        /* \"#utility.yul\":3502:3600   */\n      swap3\n      pop\n      swap3\n      pop\n        /* \"#utility.yul\":3297:3610   */\n      pop\n        /* \"#utility.yul\":2392:3617   */\n      swap3\n      swap6\n      pop\n      swap3\n      swap6\n      pop\n      swap3\n      swap6\n      jump\t// out\n        /* \"#utility.yul\":3623:4182   */\n    tag_11:\n        /* \"#utility.yul\":3709:3715   */\n      0x00\n        /* \"#utility.yul\":3717:3723   */\n      dup1\n        /* \"#utility.yul\":3766:3768   */\n      0x20\n        /* \"#utility.yul\":3754:3763   */\n      dup4\n        /* \"#utility.yul\":3745:3752   */\n      dup6\n        /* \"#utility.yul\":3741:3764   */\n      sub\n        /* \"#utility.yul\":3737:3769   */\n      slt\n        /* \"#utility.yul\":3734:3853   */\n      iszero\n      tag_125\n      jumpi\n        /* \"#utility.yul\":3772:3851   */\n      tag_126\n      tag_58\n      jump\t// in\n    tag_126:\n        /* \"#utility.yul\":3734:3853   */\n    tag_125:\n        /* \"#utility.yul\":3920:3921   */\n      0x00\n        /* \"#utility.yul\":3909:3918   */\n      dup4\n        /* \"#utility.yul\":3905:3922   */\n      add\n        /* \"#utility.yul\":3892:3923   */\n      calldataload\n        /* \"#utility.yul\":3950:3968   */\n      0xffffffffffffffff\n        /* \"#utility.yul\":3942:3948   */\n      dup2\n        /* \"#utility.yul\":3939:3969   */\n      gt\n        /* \"#utility.yul\":3936:4053   */\n      iszero\n      tag_127\n      jumpi\n        /* \"#utility.yul\":3972:4051   */\n      tag_128\n      tag_59\n      jump\t// in\n    tag_128:\n        /* \"#utility.yul\":3936:4053   */\n    tag_127:\n        /* \"#utility.yul\":4085:4165   */\n      tag_129\n        /* \"#utility.yul\":4157:4164   */\n      dup6\n        /* \"#utility.yul\":4148:4154   */\n      dup3\n        /* \"#utility.yul\":4137:4146   */\n      dup7\n        /* \"#utility.yul\":4133:4155   */\n      add\n        /* \"#utility.yul\":4085:4165   */\n      tag_68\n      jump\t// in\n    tag_129:\n        /* \"#utility.yul\":4067:4165   */\n      swap3\n      pop\n      swap3\n      pop\n        /* \"#utility.yul\":3863:4175   */\n      pop\n        /* \"#utility.yul\":3623:4182   */\n      swap3\n      pop\n      swap3\n      swap1\n      pop\n      jump\t// out\n        /* \"#utility.yul\":4188:4265   */\n    tag_69:\n        /* \"#utility.yul\":4225:4232   */\n      0x00\n        /* \"#utility.yul\":4254:4259   */\n      dup2\n        /* \"#utility.yul\":4243:4259   */\n      swap1\n      pop\n        /* \"#utility.yul\":4188:4265   */\n      swap2\n      swap1\n      pop\n      jump\t// out\n        /* \"#utility.yul\":4271:4389   */\n    tag_70:\n        /* \"#utility.yul\":4358:4382   */\n      tag_132\n        /* \"#utility.yul\":4376:4381   */\n      dup2\n        /* \"#utility.yul\":4358:4382   */\n      tag_69\n      jump\t// in\n    tag_132:\n        /* \"#utility.yul\":4353:4356   */\n      dup3\n        /* \"#utility.yul\":4346:4383   */\n      mstore\n        /* \"#utility.yul\":4271:4389   */\n      pop\n      pop\n      jump\t// out\n        /* \"#utility.yul\":4395:4617   */\n    tag_14:\n        /* \"#utility.yul\":4488:4492   */\n      0x00\n        /* \"#utility.yul\":4526:4528   */\n      0x20\n        /* \"#utility.yul\":4515:4524   */\n      dup3\n        /* \"#utility.yul\":4511:4529   */\n      add\n        /* \"#utility.yul\":4503:4529   */\n      swap1\n      pop\n        /* \"#utility.yul\":4539:4610   */\n      tag_134\n        /* \"#utility.yul\":4607:4608   */\n      0x00\n        /* \"#utility.yul\":4596:4605   */\n      dup4\n        /* \"#utility.yul\":4592:4609   */\n      add\n        /* \"#utility.yul\":4583:4589   */\n      dup5\n        /* \"#utility.yul\":4539:4610   */\n      tag_70\n      jump\t// in\n    tag_134:\n        /* \"#utility.yul\":4395:4617   */\n      swap3\n      swap2\n      pop\n      pop\n      jump\t// out\n        /* \"#utility.yul\":4623:4792   */\n    tag_71:\n        /* \"#utility.yul\":4707:4718   */\n      0x00\n        /* \"#utility.yul\":4741:4747   */\n      dup3\n        /* \"#utility.yul\":4736:4739   */\n      dup3\n        /* \"#utility.yul\":4729:4748   */\n      mstore\n        /* \"#utility.yul\":4781:4785   */\n      0x20\n        /* \"#utility.yul\":4776:4779   */\n      dup3\n        /* \"#utility.yul\":4772:4786   */\n      add\n        /* \"#utility.yul\":4757:4786   */\n      swap1\n      pop\n        /* \"#utility.yul\":4623:4792   */\n      swap3\n      swap2\n      pop\n      pop\n      jump\t// out\n        /* \"#utility.yul\":4798:4967   */\n    tag_72:\n        /* \"#utility.yul\":4938:4959   */\n      0x6572726f722d2d2d2d2d2d2d2d2d2d2d2d2d2d00000000000000000000000000\n        /* \"#utility.yul\":4934:4935   */\n      0x00\n        /* \"#utility.yul\":4926:4932   */\n      dup3\n        /* \"#utility.yul\":4922:4936   */\n      add\n        /* \"#utility.yul\":4915:4960   */\n      mstore\n        /* \"#utility.yul\":4798:4967   */\n      pop\n      jump\t// out\n        /* \"#utility.yul\":4973:5339   */\n    tag_73:\n        /* \"#utility.yul\":5115:5118   */\n      0x00\n        /* \"#utility.yul\":5136:5203   */\n      tag_138\n        /* \"#utility.yul\":5200:5202   */\n      0x13\n        /* \"#utility.yul\":5195:5198   */\n      dup4\n        /* \"#utility.yul\":5136:5203   */\n      tag_71\n      jump\t// in\n    tag_138:\n        /* \"#utility.yul\":5129:5203   */\n      swap2\n      pop\n        /* \"#utility.yul\":5212:5305   */\n      tag_139\n        /* \"#utility.yul\":5301:5304   */\n      dup3\n        /* \"#utility.yul\":5212:5305   */\n      tag_72\n      jump\t// in\n    tag_139:\n        /* \"#utility.yul\":5330:5332   */\n      0x20\n        /* \"#utility.yul\":5325:5328   */\n      dup3\n        /* \"#utility.yul\":5321:5333   */\n      add\n        /* \"#utility.yul\":5314:5333   */\n      swap1\n      pop\n        /* \"#utility.yul\":4973:5339   */\n      swap2\n      swap1\n      pop\n      jump\t// out\n        /* \"#utility.yul\":5345:5764   */\n    tag_18:\n        /* \"#utility.yul\":5511:5515   */\n      0x00\n        /* \"#utility.yul\":5549:5551   */\n      0x20\n        /* \"#utility.yul\":5538:5547   */\n      dup3\n        /* \"#utility.yul\":5534:5552   */\n      add\n        /* \"#utility.yul\":5526:5552   */\n      swap1\n      pop\n        /* \"#utility.yul\":5598:5607   */\n      dup2\n        /* \"#utility.yul\":5592:5596   */\n      dup2\n        /* \"#utility.yul\":5588:5608   */\n      sub\n        /* \"#utility.yul\":5584:5585   */\n      0x00\n        /* \"#utility.yul\":5573:5582   */\n      dup4\n        /* \"#utility.yul\":5569:5586   */\n      add\n        /* \"#utility.yul\":5562:5609   */\n      mstore\n        /* \"#utility.yul\":5626:5757   */\n      tag_141\n        /* \"#utility.yul\":5752:5756   */\n      dup2\n        /* \"#utility.yul\":5626:5757   */\n      tag_73\n      jump\t// in\n    tag_141:\n        /* \"#utility.yul\":5618:5757   */\n      swap1\n      pop\n        /* \"#utility.yul\":5345:5764   */\n      swap2\n      swap1\n      pop\n      jump\t// out\n        /* \"#utility.yul\":5770:5888   */\n    tag_74:\n        /* \"#utility.yul\":5857:5881   */\n      tag_143\n        /* \"#utility.yul\":5875:5880   */\n      dup2\n        /* \"#utility.yul\":5857:5881   */\n      tag_61\n      jump\t// in\n    tag_143:\n        /* \"#utility.yul\":5852:5855   */\n      dup3\n        /* \"#utility.yul\":5845:5882   */\n      mstore\n        /* \"#utility.yul\":5770:5888   */\n      pop\n      pop\n      jump\t// out\n        /* \"#utility.yul\":5894:6226   */\n    tag_21:\n        /* \"#utility.yul\":6015:6019   */\n      0x00\n        /* \"#utility.yul\":6053:6055   */\n      0x40\n        /* \"#utility.yul\":6042:6051   */\n      dup3\n        /* \"#utility.yul\":6038:6056   */\n      add\n        /* \"#utility.yul\":6030:6056   */\n      swap1\n      pop\n        /* \"#utility.yul\":6066:6137   */\n      tag_145\n        /* \"#utility.yul\":6134:6135   */\n      0x00\n        /* \"#utility.yul\":6123:6132   */\n      dup4\n        /* \"#utility.yul\":6119:6136   */\n      add\n        /* \"#utility.yul\":6110:6116   */\n      dup6\n        /* \"#utility.yul\":6066:6137   */\n      tag_74\n      jump\t// in\n    tag_145:\n        /* \"#utility.yul\":6147:6219   */\n      tag_146\n        /* \"#utility.yul\":6215:6217   */\n      0x20\n        /* \"#utility.yul\":6204:6213   */\n      dup4\n        /* \"#utility.yul\":6200:6218   */\n      add\n        /* \"#utility.yul\":6191:6197   */\n      dup5\n        /* \"#utility.yul\":6147:6219   */\n      tag_74\n      jump\t// in\n    tag_146:\n        /* \"#utility.yul\":5894:6226   */\n      swap4\n      swap3\n      pop\n      pop\n      pop\n      jump\t// out\n        /* \"#utility.yul\":6232:6354   */\n    tag_75:\n        /* \"#utility.yul\":6305:6329   */\n      tag_148\n        /* \"#utility.yul\":6323:6328   */\n      dup2\n        /* \"#utility.yul\":6305:6329   */\n      tag_69\n      jump\t// in\n    tag_148:\n        /* \"#utility.yul\":6298:6303   */\n      dup2\n        /* \"#utility.yul\":6295:6330   */\n      eq\n        /* \"#utility.yul\":6285:6348   */\n      tag_149\n      jumpi\n        /* \"#utility.yul\":6344:6345   */\n      0x00\n        /* \"#utility.yul\":6341:6342   */\n      dup1\n        /* \"#utility.yul\":6334:6346   */\n      revert\n        /* \"#utility.yul\":6285:6348   */\n    tag_149:\n        /* \"#utility.yul\":6232:6354   */\n      pop\n      jump\t// out\n        /* \"#utility.yul\":6360:6503   */\n    tag_76:\n        /* \"#utility.yul\":6417:6422   */\n      0x00\n        /* \"#utility.yul\":6448:6454   */\n      dup2\n        /* \"#utility.yul\":6442:6455   */\n      mload\n        /* \"#utility.yul\":6433:6455   */\n      swap1\n      pop\n        /* \"#utility.yul\":6464:6497   */\n      tag_151\n        /* \"#utility.yul\":6491:6496   */\n      dup2\n        /* \"#utility.yul\":6464:6497   */\n      tag_75\n      jump\t// in\n    tag_151:\n        /* \"#utility.yul\":6360:6503   */\n      swap3\n      swap2\n      pop\n      pop\n      jump\t// out\n        /* \"#utility.yul\":6509:6860   */\n    tag_25:\n        /* \"#utility.yul\":6579:6585   */\n      0x00\n        /* \"#utility.yul\":6628:6630   */\n      0x20\n        /* \"#utility.yul\":6616:6625   */\n      dup3\n        /* \"#utility.yul\":6607:6614   */\n      dup5\n        /* \"#utility.yul\":6603:6626   */\n      sub\n        /* \"#utility.yul\":6599:6631   */\n      slt\n        /* \"#utility.yul\":6596:6715   */\n      iszero\n      tag_153\n      jumpi\n        /* \"#utility.yul\":6634:6713   */\n      tag_154\n      tag_58\n      jump\t// in\n    tag_154:\n        /* \"#utility.yul\":6596:6715   */\n    tag_153:\n        /* \"#utility.yul\":6754:6755   */\n      0x00\n        /* \"#utility.yul\":6779:6843   */\n      tag_155\n        /* \"#utility.yul\":6835:6842   */\n      dup5\n        /* \"#utility.yul\":6826:6832   */\n      dup3\n        /* \"#utility.yul\":6815:6824   */\n      dup6\n        /* \"#utility.yul\":6811:6833   */\n      add\n        /* \"#utility.yul\":6779:6843   */\n      tag_76\n      jump\t// in\n    tag_155:\n        /* \"#utility.yul\":6769:6843   */\n      swap2\n      pop\n        /* \"#utility.yul\":6725:6853   */\n      pop\n        /* \"#utility.yul\":6509:6860   */\n      swap3\n      swap2\n      pop\n      pop\n      jump\t// out\n        /* \"#utility.yul\":6866:7031   */\n    tag_77:\n        /* \"#utility.yul\":7006:7023   */\n      0x6572726f722d2d2d2d616d6f756e740000000000000000000000000000000000\n        /* \"#utility.yul\":7002:7003   */\n      0x00\n        /* \"#utility.yul\":6994:7000   */\n      dup3\n        /* \"#utility.yul\":6990:7004   */\n      add\n        /* \"#utility.yul\":6983:7024   */\n      mstore\n        /* \"#utility.yul\":6866:7031   */\n      pop\n      jump\t// out\n        /* \"#utility.yul\":7037:7403   */\n    tag_78:\n        /* \"#utility.yul\":7179:7182   */\n      0x00\n        /* \"#utility.yul\":7200:7267   */\n      tag_158\n        /* \"#utility.yul\":7264:7266   */\n      0x0f\n        /* \"#utility.yul\":7259:7262   */\n      dup4\n        /* \"#utility.yul\":7200:7267   */\n      tag_71\n      jump\t// in\n    tag_158:\n        /* \"#utility.yul\":7193:7267   */\n      swap2\n      pop\n        /* \"#utility.yul\":7276:7369   */\n      tag_159\n        /* \"#utility.yul\":7365:7368   */\n      dup3\n        /* \"#utility.yul\":7276:7369   */\n      tag_77\n      jump\t// in\n    tag_159:\n        /* \"#utility.yul\":7394:7396   */\n      0x20\n        /* \"#utility.yul\":7389:7392   */\n      dup3\n        /* \"#utility.yul\":7385:7397   */\n      add\n        /* \"#utility.yul\":7378:7397   */\n      swap1\n      pop\n        /* \"#utility.yul\":7037:7403   */\n      swap2\n      swap1\n      pop\n      jump\t// out\n        /* \"#utility.yul\":7409:7828   */\n    tag_28:\n        /* \"#utility.yul\":7575:7579   */\n      0x00\n        /* \"#utility.yul\":7613:7615   */\n      0x20\n        /* \"#utility.yul\":7602:7611   */\n      dup3\n        /* \"#utility.yul\":7598:7616   */\n      add\n        /* \"#utility.yul\":7590:7616   */\n      swap1\n      pop\n        /* \"#utility.yul\":7662:7671   */\n      dup2\n        /* \"#utility.yul\":7656:7660   */\n      dup2\n        /* \"#utility.yul\":7652:7672   */\n      sub\n        /* \"#utility.yul\":7648:7649   */\n      0x00\n        /* \"#utility.yul\":7637:7646   */\n      dup4\n        /* \"#utility.yul\":7633:7650   */\n      add\n        /* \"#utility.yul\":7626:7673   */\n      mstore\n        /* \"#utility.yul\":7690:7821   */\n      tag_161\n        /* \"#utility.yul\":7816:7820   */\n      dup2\n        /* \"#utility.yul\":7690:7821   */\n      tag_78\n      jump\t// in\n    tag_161:\n        /* \"#utility.yul\":7682:7821   */\n      swap1\n      pop\n        /* \"#utility.yul\":7409:7828   */\n      swap2\n      swap1\n      pop\n      jump\t// out\n        /* \"#utility.yul\":7834:8014   */\n    tag_34:\n        /* \"#utility.yul\":7882:7959   */\n      0x4e487b7100000000000000000000000000000000000000000000000000000000\n        /* \"#utility.yul\":7879:7880   */\n      0x00\n        /* \"#utility.yul\":7872:7960   */\n      mstore\n        /* \"#utility.yul\":7979:7983   */\n      0x32\n        /* \"#utility.yul\":7976:7977   */\n      0x04\n        /* \"#utility.yul\":7969:7984   */\n      mstore\n        /* \"#utility.yul\":8003:8007   */\n      0x24\n        /* \"#utility.yul\":8000:8001   */\n      0x00\n        /* \"#utility.yul\":7993:8008   */\n      revert\n        /* \"#utility.yul\":8020:8349   */\n    tag_36:\n        /* \"#utility.yul\":8079:8085   */\n      0x00\n        /* \"#utility.yul\":8128:8130   */\n      0x20\n        /* \"#utility.yul\":8116:8125   */\n      dup3\n        /* \"#utility.yul\":8107:8114   */\n      dup5\n        /* \"#utility.yul\":8103:8126   */\n      sub\n        /* \"#utility.yul\":8099:8131   */\n      slt\n        /* \"#utility.yul\":8096:8215   */\n      iszero\n      tag_164\n      jumpi\n        /* \"#utility.yul\":8134:8213   */\n      tag_165\n      tag_58\n      jump\t// in\n    tag_165:\n        /* \"#utility.yul\":8096:8215   */\n    tag_164:\n        /* \"#utility.yul\":8254:8255   */\n      0x00\n        /* \"#utility.yul\":8279:8332   */\n      tag_166\n        /* \"#utility.yul\":8324:8331   */\n      dup5\n        /* \"#utility.yul\":8315:8321   */\n      dup3\n        /* \"#utility.yul\":8304:8313   */\n      dup6\n        /* \"#utility.yul\":8300:8322   */\n      add\n        /* \"#utility.yul\":8279:8332   */\n      tag_63\n      jump\t// in\n    tag_166:\n        /* \"#utility.yul\":8269:8332   */\n      swap2\n      pop\n        /* \"#utility.yul\":8225:8342   */\n      pop\n        /* \"#utility.yul\":8020:8349   */\n      swap3\n      swap2\n      pop\n      pop\n      jump\t// out\n        /* \"#utility.yul\":8355:8797   */\n    tag_40:\n        /* \"#utility.yul\":8504:8508   */\n      0x00\n        /* \"#utility.yul\":8542:8544   */\n      0x60\n        /* \"#utility.yul\":8531:8540   */\n      dup3\n        /* \"#utility.yul\":8527:8545   */\n      add\n        /* \"#utility.yul\":8519:8545   */\n      swap1\n      pop\n        /* \"#utility.yul\":8555:8626   */\n      tag_168\n        /* \"#utility.yul\":8623:8624   */\n      0x00\n        /* \"#utility.yul\":8612:8621   */\n      dup4\n        /* \"#utility.yul\":8608:8625   */\n      add\n        /* \"#utility.yul\":8599:8605   */\n      dup7\n        /* \"#utility.yul\":8555:8626   */\n      tag_74\n      jump\t// in\n    tag_168:\n        /* \"#utility.yul\":8636:8708   */\n      tag_169\n        /* \"#utility.yul\":8704:8706   */\n      0x20\n        /* \"#utility.yul\":8693:8702   */\n      dup4\n        /* \"#utility.yul\":8689:8707   */\n      add\n        /* \"#utility.yul\":8680:8686   */\n      dup6\n        /* \"#utility.yul\":8636:8708   */\n      tag_74\n      jump\t// in\n    tag_169:\n        /* \"#utility.yul\":8718:8790   */\n      tag_170\n        /* \"#utility.yul\":8786:8788   */\n      0x40\n        /* \"#utility.yul\":8775:8784   */\n      dup4\n        /* \"#utility.yul\":8771:8789   */\n      add\n        /* \"#utility.yul\":8762:8768   */\n      dup5\n        /* \"#utility.yul\":8718:8790   */\n      tag_70\n      jump\t// in\n    tag_170:\n        /* \"#utility.yul\":8355:8797   */\n      swap5\n      swap4\n      pop\n      pop\n      pop\n      pop\n      jump\t// out\n        /* \"#utility.yul\":8803:8893   */\n    tag_79:\n        /* \"#utility.yul\":8837:8844   */\n      0x00\n        /* \"#utility.yul\":8880:8885   */\n      dup2\n        /* \"#utility.yul\":8873:8886   */\n      iszero\n        /* \"#utility.yul\":8866:8887   */\n      iszero\n        /* \"#utility.yul\":8855:8887   */\n      swap1\n      pop\n        /* \"#utility.yul\":8803:8893   */\n      swap2\n      swap1\n      pop\n      jump\t// out\n        /* \"#utility.yul\":8899:9015   */\n    tag_80:\n        /* \"#utility.yul\":8969:8990   */\n      tag_173\n        /* \"#utility.yul\":8984:8989   */\n      dup2\n        /* \"#utility.yul\":8969:8990   */\n      tag_79\n      jump\t// in\n    tag_173:\n        /* \"#utility.yul\":8962:8967   */\n      dup2\n        /* \"#utility.yul\":8959:8991   */\n      eq\n        /* \"#utility.yul\":8949:9009   */\n      tag_174\n      jumpi\n        /* \"#utility.yul\":9005:9006   */\n      0x00\n        /* \"#utility.yul\":9002:9003   */\n      dup1\n        /* \"#utility.yul\":8995:9007   */\n      revert\n        /* \"#utility.yul\":8949:9009   */\n    tag_174:\n        /* \"#utility.yul\":8899:9015   */\n      pop\n      jump\t// out\n        /* \"#utility.yul\":9021:9158   */\n    tag_81:\n        /* \"#utility.yul\":9075:9080   */\n      0x00\n        /* \"#utility.yul\":9106:9112   */\n      dup2\n        /* \"#utility.yul\":9100:9113   */\n      mload\n        /* \"#utility.yul\":9091:9113   */\n      swap1\n      pop\n        /* \"#utility.yul\":9122:9152   */\n      tag_176\n        /* \"#utility.yul\":9146:9151   */\n      dup2\n        /* \"#utility.yul\":9122:9152   */\n      tag_80\n      jump\t// in\n    tag_176:\n        /* \"#utility.yul\":9021:9158   */\n      swap3\n      swap2\n      pop\n      pop\n      jump\t// out\n        /* \"#utility.yul\":9164:9509   */\n    tag_44:\n        /* \"#utility.yul\":9231:9237   */\n      0x00\n        /* \"#utility.yul\":9280:9282   */\n      0x20\n        /* \"#utility.yul\":9268:9277   */\n      dup3\n        /* \"#utility.yul\":9259:9266   */\n      dup5\n        /* \"#utility.yul\":9255:9278   */\n      sub\n        /* \"#utility.yul\":9251:9283   */\n      slt\n        /* \"#utility.yul\":9248:9367   */\n      iszero\n      tag_178\n      jumpi\n        /* \"#utility.yul\":9286:9365   */\n      tag_179\n      tag_58\n      jump\t// in\n    tag_179:\n        /* \"#utility.yul\":9248:9367   */\n    tag_178:\n        /* \"#utility.yul\":9406:9407   */\n      0x00\n        /* \"#utility.yul\":9431:9492   */\n      tag_180\n        /* \"#utility.yul\":9484:9491   */\n      dup5\n        /* \"#utility.yul\":9475:9481   */\n      dup3\n        /* \"#utility.yul\":9464:9473   */\n      dup6\n        /* \"#utility.yul\":9460:9482   */\n      add\n        /* \"#utility.yul\":9431:9492   */\n      tag_81\n      jump\t// in\n    tag_180:\n        /* \"#utility.yul\":9421:9492   */\n      swap2\n      pop\n        /* \"#utility.yul\":9377:9502   */\n      pop\n        /* \"#utility.yul\":9164:9509   */\n      swap3\n      swap2\n      pop\n      pop\n      jump\t// out\n        /* \"#utility.yul\":9515:9695   */\n    tag_82:\n        /* \"#utility.yul\":9563:9640   */\n      0x4e487b7100000000000000000000000000000000000000000000000000000000\n        /* \"#utility.yul\":9560:9561   */\n      0x00\n        /* \"#utility.yul\":9553:9641   */\n      mstore\n        /* \"#utility.yul\":9660:9664   */\n      0x11\n        /* \"#utility.yul\":9657:9658   */\n      0x04\n        /* \"#utility.yul\":9650:9665   */\n      mstore\n        /* \"#utility.yul\":9684:9688   */\n      0x24\n        /* \"#utility.yul\":9681:9682   */\n      0x00\n        /* \"#utility.yul\":9674:9689   */\n      revert\n        /* \"#utility.yul\":9701:9787   */\n    tag_83:\n        /* \"#utility.yul\":9736:9743   */\n      0x00\n        /* \"#utility.yul\":9776:9780   */\n      0xff\n        /* \"#utility.yul\":9769:9774   */\n      dup3\n        /* \"#utility.yul\":9765:9781   */\n      and\n        /* \"#utility.yul\":9754:9781   */\n      swap1\n      pop\n        /* \"#utility.yul\":9701:9787   */\n      swap2\n      swap1\n      pop\n      jump\t// out\n        /* \"#utility.yul\":9793:9960   */\n    tag_46:\n        /* \"#utility.yul\":9830:9833   */\n      0x00\n        /* \"#utility.yul\":9853:9875   */\n      tag_184\n        /* \"#utility.yul\":9869:9874   */\n      dup3\n        /* \"#utility.yul\":9853:9875   */\n      tag_83\n      jump\t// in\n    tag_184:\n        /* \"#utility.yul\":9844:9875   */\n      swap2\n      pop\n        /* \"#utility.yul\":9897:9901   */\n      0xff\n        /* \"#utility.yul\":9890:9895   */\n      dup3\n        /* \"#utility.yul\":9887:9902   */\n      sub\n        /* \"#utility.yul\":9884:9925   */\n      tag_185\n      jumpi\n        /* \"#utility.yul\":9905:9923   */\n      tag_186\n      tag_82\n      jump\t// in\n    tag_186:\n        /* \"#utility.yul\":9884:9925   */\n    tag_185:\n        /* \"#utility.yul\":9952:9953   */\n      0x01\n        /* \"#utility.yul\":9945:9950   */\n      dup3\n        /* \"#utility.yul\":9941:9954   */\n      add\n        /* \"#utility.yul\":9934:9954   */\n      swap1\n      pop\n        /* \"#utility.yul\":9793:9960   */\n      swap2\n      swap1\n      pop\n      jump\t// out\n        /* \"#utility.yul\":9966:10157   */\n    tag_54:\n        /* \"#utility.yul\":10006:10009   */\n      0x00\n        /* \"#utility.yul\":10025:10045   */\n      tag_188\n        /* \"#utility.yul\":10043:10044   */\n      dup3\n        /* \"#utility.yul\":10025:10045   */\n      tag_69\n      jump\t// in\n    tag_188:\n        /* \"#utility.yul\":10020:10045   */\n      swap2\n      pop\n        /* \"#utility.yul\":10059:10079   */\n      tag_189\n        /* \"#utility.yul\":10077:10078   */\n      dup4\n        /* \"#utility.yul\":10059:10079   */\n      tag_69\n      jump\t// in\n    tag_189:\n        /* \"#utility.yul\":10054:10079   */\n      swap3\n      pop\n        /* \"#utility.yul\":10102:10103   */\n      dup3\n        /* \"#utility.yul\":10099:10100   */\n      dup3\n        /* \"#utility.yul\":10095:10104   */\n      add\n        /* \"#utility.yul\":10088:10104   */\n      swap1\n      pop\n        /* \"#utility.yul\":10123:10126   */\n      dup1\n        /* \"#utility.yul\":10120:10121   */\n      dup3\n        /* \"#utility.yul\":10117:10127   */\n      gt\n        /* \"#utility.yul\":10114:10150   */\n      iszero\n      tag_190\n      jumpi\n        /* \"#utility.yul\":10130:10148   */\n      tag_191\n      tag_82\n      jump\t// in\n    tag_191:\n        /* \"#utility.yul\":10114:10150   */\n    tag_190:\n        /* \"#utility.yul\":9966:10157   */\n      swap3\n      swap2\n      pop\n      pop\n      jump\t// out\n        /* \"#utility.yul\":10163:10396   */\n    tag_56:\n        /* \"#utility.yul\":10202:10205   */\n      0x00\n        /* \"#utility.yul\":10225:10249   */\n      tag_193\n        /* \"#utility.yul\":10243:10248   */\n      dup3\n        /* \"#utility.yul\":10225:10249   */\n      tag_69\n      jump\t// in\n    tag_193:\n        /* \"#utility.yul\":10216:10249   */\n      swap2\n      pop\n        /* \"#utility.yul\":10271:10337   */\n      0xffffffffffffffffffffffffffffffffffffffffffffffffffffffffffffffff\n        /* \"#utility.yul\":10264:10269   */\n      dup3\n        /* \"#utility.yul\":10261:10338   */\n      sub\n        /* \"#utility.yul\":10258:10361   */\n      tag_194\n      jumpi\n        /* \"#utility.yul\":10341:10359   */\n      tag_195\n      tag_82\n      jump\t// in\n    tag_195:\n        /* \"#utility.yul\":10258:10361   */\n    tag_194:\n        /* \"#utility.yul\":10388:10389   */\n      0x01\n        /* \"#utility.yul\":10381:10386   */\n      dup3\n        /* \"#utility.yul\":10377:10390   */\n      add\n        /* \"#utility.yul\":10370:10390   */\n      swap1\n      pop\n        /* \"#utility.yul\":10163:10396   */\n      swap2\n      swap1\n      pop\n      jump\t// out\n\n    auxdata: 0xa2646970667358221220a1b910717f1e525ee49be97c25a2460cbfbb14df7fd70165f0f88eae775c781464736f6c63430008110033\n}\n",
				"bytecode": {
					"linkReferences": {},
					"object": "608060405234801561001057600080fd5b506108be806100206000396000f3fe608060405234801561001057600080fd5b50600436106100365760003560e01c80636c47aa861461003b578063ccb8c1e014610057575b600080fd5b6100556004803603810190610050919061040d565b610087565b005b610071600480360381019061006c91906104b4565b610296565b60405161007e919061051a565b60405180910390f35b8181905084849050146100cf576040517f08c379a00000000000000000000000000000000000000000000000000000000081526004016100c690610592565b60405180910390fd5b600085905060006100e08484610296565b9050808273ffffffffffffffffffffffffffffffffffffffff1663dd62ed3e8a306040518363ffffffff1660e01b815260040161011e9291906105c1565b602060405180830381865afa15801561013b573d6000803e3d6000fd5b505050506040513d601f19601f8201168201806040525081019061015f9190610616565b10156101a0576040517f08c379a00000000000000000000000000000000000000000000000000000000081526004016101979061068f565b60405180910390fd5b60005b868690508160ff16101561028b578273ffffffffffffffffffffffffffffffffffffffff166323b872dd8a89898560ff168181106101e4576101e36106af565b5b90506020020160208101906101f991906106de565b88888660ff1681811061020f5761020e6106af565b5b905060200201356040518463ffffffff1660e01b81526004016102349392919061070b565b6020604051808303816000875af1158015610253573d6000803e3d6000fd5b505050506040513d601f19601f82011682018060405250810190610277919061077a565b508080610283906107e3565b9150506101a3565b505050505050505050565b600080600090505b838390508110156102e3578383828181106102bc576102bb6106af565b5b90506020020135826102ce919061080c565b915080806102db90610840565b91505061029e565b5092915050565b600080fd5b600080fd5b600073ffffffffffffffffffffffffffffffffffffffff82169050919050565b600061031f826102f4565b9050919050565b61032f81610314565b811461033a57600080fd5b50565b60008135905061034c81610326565b92915050565b600080fd5b600080fd5b600080fd5b60008083601f84011261037757610376610352565b5b8235905067ffffffffffffffff81111561039457610393610357565b5b6020830191508360208202830111156103b0576103af61035c565b5b9250929050565b60008083601f8401126103cd576103cc610352565b5b8235905067ffffffffffffffff8111156103ea576103e9610357565b5b6020830191508360208202830111156104065761040561035c565b5b9250929050565b6000806000806000806080878903121561042a576104296102ea565b5b600061043889828a0161033d565b965050602061044989828a0161033d565b955050604087013567ffffffffffffffff81111561046a576104696102ef565b5b61047689828a01610361565b9450945050606087013567ffffffffffffffff811115610499576104986102ef565b5b6104a589828a016103b7565b92509250509295509295509295565b600080602083850312156104cb576104ca6102ea565b5b600083013567ffffffffffffffff8111156104e9576104e86102ef565b5b6104f5858286016103b7565b92509250509250929050565b6000819050919050565b61051481610501565b82525050565b600060208201905061052f600083018461050b565b92915050565b600082825260208201905092915050565b7f6572726f722d2d2d2d2d2d2d2d2d2d2d2d2d2d00000000000000000000000000600082015250565b600061057c601383610535565b915061058782610546565b602082019050919050565b600060208201905081810360008301526105ab8161056f565b9050919050565b6105bb81610314565b82525050565b60006040820190506105d660008301856105b2565b6105e360208301846105b2565b9392505050565b6105f381610501565b81146105fe57600080fd5b50565b600081519050610610816105ea565b92915050565b60006020828403121561062c5761062b6102ea565b5b600061063a84828501610601565b91505092915050565b7f6572726f722d2d2d2d616d6f756e740000000000000000000000000000000000600082015250565b6000610679600f83610535565b915061068482610643565b602082019050919050565b600060208201905081810360008301526106a88161066c565b9050919050565b7f4e487b7100000000000000000000000000000000000000000000000000000000600052603260045260246000fd5b6000602082840312156106f4576106f36102ea565b5b60006107028482850161033d565b91505092915050565b600060608201905061072060008301866105b2565b61072d60208301856105b2565b61073a604083018461050b565b949350505050565b60008115159050919050565b61075781610742565b811461076257600080fd5b50565b6000815190506107748161074e565b92915050565b6000602082840312156107905761078f6102ea565b5b600061079e84828501610765565b91505092915050565b7f4e487b7100000000000000000000000000000000000000000000000000000000600052601160045260246000fd5b600060ff82169050919050565b60006107ee826107d6565b915060ff8203610801576108006107a7565b5b600182019050919050565b600061081782610501565b915061082283610501565b925082820190508082111561083a576108396107a7565b5b92915050565b600061084b82610501565b91507fffffffffffffffffffffffffffffffffffffffffffffffffffffffffffffffff820361087d5761087c6107a7565b5b60018201905091905056fea2646970667358221220a1b910717f1e525ee49be97c25a2460cbfbb14df7fd70165f0f88eae775c781464736f6c63430008110033",
					"opcodes": "PUSH1 0x80 PUSH1 0x40 MSTORE CALLVALUE DUP1 ISZERO PUSH2 0x10 JUMPI PUSH1 0x0 DUP1 REVERT JUMPDEST POP PUSH2 0x8BE DUP1 PUSH2 0x20 PUSH1 0x0 CODECOPY PUSH1 0x0 RETURN INVALID PUSH1 0x80 PUSH1 0x40 MSTORE CALLVALUE DUP1 ISZERO PUSH2 0x10 JUMPI PUSH1 0x0 DUP1 REVERT JUMPDEST POP PUSH1 0x4 CALLDATASIZE LT PUSH2 0x36 JUMPI PUSH1 0x0 CALLDATALOAD PUSH1 0xE0 SHR DUP1 PUSH4 0x6C47AA86 EQ PUSH2 0x3B JUMPI DUP1 PUSH4 0xCCB8C1E0 EQ PUSH2 0x57 JUMPI JUMPDEST PUSH1 0x0 DUP1 REVERT JUMPDEST PUSH2 0x55 PUSH1 0x4 DUP1 CALLDATASIZE SUB DUP2 ADD SWAP1 PUSH2 0x50 SWAP2 SWAP1 PUSH2 0x40D JUMP JUMPDEST PUSH2 0x87 JUMP JUMPDEST STOP JUMPDEST PUSH2 0x71 PUSH1 0x4 DUP1 CALLDATASIZE SUB DUP2 ADD SWAP1 PUSH2 0x6C SWAP2 SWAP1 PUSH2 0x4B4 JUMP JUMPDEST PUSH2 0x296 JUMP JUMPDEST PUSH1 0x40 MLOAD PUSH2 0x7E SWAP2 SWAP1 PUSH2 0x51A JUMP JUMPDEST PUSH1 0x40 MLOAD DUP1 SWAP2 SUB SWAP1 RETURN JUMPDEST DUP2 DUP2 SWAP1 POP DUP5 DUP5 SWAP1 POP EQ PUSH2 0xCF JUMPI PUSH1 0x40 MLOAD PUSH32 0x8C379A000000000000000000000000000000000000000000000000000000000 DUP2 MSTORE PUSH1 0x4 ADD PUSH2 0xC6 SWAP1 PUSH2 0x592 JUMP JUMPDEST PUSH1 0x40 MLOAD DUP1 SWAP2 SUB SWAP1 REVERT JUMPDEST PUSH1 0x0 DUP6 SWAP1 POP PUSH1 0x0 PUSH2 0xE0 DUP5 DUP5 PUSH2 0x296 JUMP JUMPDEST SWAP1 POP DUP1 DUP3 PUSH20 0xFFFFFFFFFFFFFFFFFFFFFFFFFFFFFFFFFFFFFFFF AND PUSH4 0xDD62ED3E DUP11 ADDRESS PUSH1 0x40 MLOAD DUP4 PUSH4 0xFFFFFFFF AND PUSH1 0xE0 SHL DUP2 MSTORE PUSH1 0x4 ADD PUSH2 0x11E SWAP3 SWAP2 SWAP1 PUSH2 0x5C1 JUMP JUMPDEST PUSH1 0x20 PUSH1 0x40 MLOAD DUP1 DUP4 SUB DUP2 DUP7 GAS STATICCALL ISZERO DUP1 ISZERO PUSH2 0x13B JUMPI RETURNDATASIZE PUSH1 0x0 DUP1 RETURNDATACOPY RETURNDATASIZE PUSH1 0x0 REVERT JUMPDEST POP POP POP POP PUSH1 0x40 MLOAD RETURNDATASIZE PUSH1 0x1F NOT PUSH1 0x1F DUP3 ADD AND DUP3 ADD DUP1 PUSH1 0x40 MSTORE POP DUP2 ADD SWAP1 PUSH2 0x15F SWAP2 SWAP1 PUSH2 0x616 JUMP JUMPDEST LT ISZERO PUSH2 0x1A0 JUMPI PUSH1 0x40 MLOAD PUSH32 0x8C379A000000000000000000000000000000000000000000000000000000000 DUP2 MSTORE PUSH1 0x4 ADD PUSH2 0x197 SWAP1 PUSH2 0x68F JUMP JUMPDEST PUSH1 0x40 MLOAD DUP1 SWAP2 SUB SWAP1 REVERT JUMPDEST PUSH1 0x0 JUMPDEST DUP7 DUP7 SWAP1 POP DUP2 PUSH1 0xFF AND LT ISZERO PUSH2 0x28B JUMPI DUP3 PUSH20 0xFFFFFFFFFFFFFFFFFFFFFFFFFFFFFFFFFFFFFFFF AND PUSH4 0x23B872DD DUP11 DUP10 DUP10 DUP6 PUSH1 0xFF AND DUP2 DUP2 LT PUSH2 0x1E4 JUMPI PUSH2 0x1E3 PUSH2 0x6AF JUMP JUMPDEST JUMPDEST SWAP1 POP PUSH1 0x20 MUL ADD PUSH1 0x20 DUP2 ADD SWAP1 PUSH2 0x1F9 SWAP2 SWAP1 PUSH2 0x6DE JUMP JUMPDEST DUP9 DUP9 DUP7 PUSH1 0xFF AND DUP2 DUP2 LT PUSH2 0x20F JUMPI PUSH2 0x20E PUSH2 0x6AF JUMP JUMPDEST JUMPDEST SWAP1 POP PUSH1 0x20 MUL ADD CALLDATALOAD PUSH1 0x40 MLOAD DUP5 PUSH4 0xFFFFFFFF AND PUSH1 0xE0 SHL DUP2 MSTORE PUSH1 0x4 ADD PUSH2 0x234 SWAP4 SWAP3 SWAP2 SWAP1 PUSH2 0x70B JUMP JUMPDEST PUSH1 0x20 PUSH1 0x40 MLOAD DUP1 DUP4 SUB DUP2 PUSH1 0x0 DUP8 GAS CALL ISZERO DUP1 ISZERO PUSH2 0x253 JUMPI RETURNDATASIZE PUSH1 0x0 DUP1 RETURNDATACOPY RETURNDATASIZE PUSH1 0x0 REVERT JUMPDEST POP POP POP POP PUSH1 0x40 MLOAD RETURNDATASIZE PUSH1 0x1F NOT PUSH1 0x1F DUP3 ADD AND DUP3 ADD DUP1 PUSH1 0x40 MSTORE POP DUP2 ADD SWAP1 PUSH2 0x277 SWAP2 SWAP1 PUSH2 0x77A JUMP JUMPDEST POP DUP1 DUP1 PUSH2 0x283 SWAP1 PUSH2 0x7E3 JUMP JUMPDEST SWAP2 POP POP PUSH2 0x1A3 JUMP JUMPDEST POP POP POP POP POP POP POP POP POP JUMP JUMPDEST PUSH1 0x0 DUP1 PUSH1 0x0 SWAP1 POP JUMPDEST DUP4 DUP4 SWAP1 POP DUP2 LT ISZERO PUSH2 0x2E3 JUMPI DUP4 DUP4 DUP3 DUP2 DUP2 LT PUSH2 0x2BC JUMPI PUSH2 0x2BB PUSH2 0x6AF JUMP JUMPDEST JUMPDEST SWAP1 POP PUSH1 0x20 MUL ADD CALLDATALOAD DUP3 PUSH2 0x2CE SWAP2 SWAP1 PUSH2 0x80C JUMP JUMPDEST SWAP2 POP DUP1 DUP1 PUSH2 0x2DB SWAP1 PUSH2 0x840 JUMP JUMPDEST SWAP2 POP POP PUSH2 0x29E JUMP JUMPDEST POP SWAP3 SWAP2 POP POP JUMP JUMPDEST PUSH1 0x0 DUP1 REVERT JUMPDEST PUSH1 0x0 DUP1 REVERT JUMPDEST PUSH1 0x0 PUSH20 0xFFFFFFFFFFFFFFFFFFFFFFFFFFFFFFFFFFFFFFFF DUP3 AND SWAP1 POP SWAP2 SWAP1 POP JUMP JUMPDEST PUSH1 0x0 PUSH2 0x31F DUP3 PUSH2 0x2F4 JUMP JUMPDEST SWAP1 POP SWAP2 SWAP1 POP JUMP JUMPDEST PUSH2 0x32F DUP2 PUSH2 0x314 JUMP JUMPDEST DUP2 EQ PUSH2 0x33A JUMPI PUSH1 0x0 DUP1 REVERT JUMPDEST POP JUMP JUMPDEST PUSH1 0x0 DUP2 CALLDATALOAD SWAP1 POP PUSH2 0x34C DUP2 PUSH2 0x326 JUMP JUMPDEST SWAP3 SWAP2 POP POP JUMP JUMPDEST PUSH1 0x0 DUP1 REVERT JUMPDEST PUSH1 0x0 DUP1 REVERT JUMPDEST PUSH1 0x0 DUP1 REVERT JUMPDEST PUSH1 0x0 DUP1 DUP4 PUSH1 0x1F DUP5 ADD SLT PUSH2 0x377 JUMPI PUSH2 0x376 PUSH2 0x352 JUMP JUMPDEST JUMPDEST DUP3 CALLDATALOAD SWAP1 POP PUSH8 0xFFFFFFFFFFFFFFFF DUP2 GT ISZERO PUSH2 0x394 JUMPI PUSH2 0x393 PUSH2 0x357 JUMP JUMPDEST JUMPDEST PUSH1 0x20 DUP4 ADD SWAP2 POP DUP4 PUSH1 0x20 DUP3 MUL DUP4 ADD GT ISZERO PUSH2 0x3B0 JUMPI PUSH2 0x3AF PUSH2 0x35C JUMP JUMPDEST JUMPDEST SWAP3 POP SWAP3 SWAP1 POP JUMP JUMPDEST PUSH1 0x0 DUP1 DUP4 PUSH1 0x1F DUP5 ADD SLT PUSH2 0x3CD JUMPI PUSH2 0x3CC PUSH2 0x352 JUMP JUMPDEST JUMPDEST DUP3 CALLDATALOAD SWAP1 POP PUSH8 0xFFFFFFFFFFFFFFFF DUP2 GT ISZERO PUSH2 0x3EA JUMPI PUSH2 0x3E9 PUSH2 0x357 JUMP JUMPDEST JUMPDEST PUSH1 0x20 DUP4 ADD SWAP2 POP DUP4 PUSH1 0x20 DUP3 MUL DUP4 ADD GT ISZERO PUSH2 0x406 JUMPI PUSH2 0x405 PUSH2 0x35C JUMP JUMPDEST JUMPDEST SWAP3 POP SWAP3 SWAP1 POP JUMP JUMPDEST PUSH1 0x0 DUP1 PUSH1 0x0 DUP1 PUSH1 0x0 DUP1 PUSH1 0x80 DUP8 DUP10 SUB SLT ISZERO PUSH2 0x42A JUMPI PUSH2 0x429 PUSH2 0x2EA JUMP JUMPDEST JUMPDEST PUSH1 0x0 PUSH2 0x438 DUP10 DUP3 DUP11 ADD PUSH2 0x33D JUMP JUMPDEST SWAP7 POP POP PUSH1 0x20 PUSH2 0x449 DUP10 DUP3 DUP11 ADD PUSH2 0x33D JUMP JUMPDEST SWAP6 POP POP PUSH1 0x40 DUP8 ADD CALLDATALOAD PUSH8 0xFFFFFFFFFFFFFFFF DUP2 GT ISZERO PUSH2 0x46A JUMPI PUSH2 0x469 PUSH2 0x2EF JUMP JUMPDEST JUMPDEST PUSH2 0x476 DUP10 DUP3 DUP11 ADD PUSH2 0x361 JUMP JUMPDEST SWAP5 POP SWAP5 POP POP PUSH1 0x60 DUP8 ADD CALLDATALOAD PUSH8 0xFFFFFFFFFFFFFFFF DUP2 GT ISZERO PUSH2 0x499 JUMPI PUSH2 0x498 PUSH2 0x2EF JUMP JUMPDEST JUMPDEST PUSH2 0x4A5 DUP10 DUP3 DUP11 ADD PUSH2 0x3B7 JUMP JUMPDEST SWAP3 POP SWAP3 POP POP SWAP3 SWAP6 POP SWAP3 SWAP6 POP SWAP3 SWAP6 JUMP JUMPDEST PUSH1 0x0 DUP1 PUSH1 0x20 DUP4 DUP6 SUB SLT ISZERO PUSH2 0x4CB JUMPI PUSH2 0x4CA PUSH2 0x2EA JUMP JUMPDEST JUMPDEST PUSH1 0x0 DUP4 ADD CALLDATALOAD PUSH8 0xFFFFFFFFFFFFFFFF DUP2 GT ISZERO PUSH2 0x4E9 JUMPI PUSH2 0x4E8 PUSH2 0x2EF JUMP JUMPDEST JUMPDEST PUSH2 0x4F5 DUP6 DUP3 DUP7 ADD PUSH2 0x3B7 JUMP JUMPDEST SWAP3 POP SWAP3 POP POP SWAP3 POP SWAP3 SWAP1 POP JUMP JUMPDEST PUSH1 0x0 DUP2 SWAP1 POP SWAP2 SWAP1 POP JUMP JUMPDEST PUSH2 0x514 DUP2 PUSH2 0x501 JUMP JUMPDEST DUP3 MSTORE POP POP JUMP JUMPDEST PUSH1 0x0 PUSH1 0x20 DUP3 ADD SWAP1 POP PUSH2 0x52F PUSH1 0x0 DUP4 ADD DUP5 PUSH2 0x50B JUMP JUMPDEST SWAP3 SWAP2 POP POP JUMP JUMPDEST PUSH1 0x0 DUP3 DUP3 MSTORE PUSH1 0x20 DUP3 ADD SWAP1 POP SWAP3 SWAP2 POP POP JUMP JUMPDEST PUSH32 0x6572726F722D2D2D2D2D2D2D2D2D2D2D2D2D2D00000000000000000000000000 PUSH1 0x0 DUP3 ADD MSTORE POP JUMP JUMPDEST PUSH1 0x0 PUSH2 0x57C PUSH1 0x13 DUP4 PUSH2 0x535 JUMP JUMPDEST SWAP2 POP PUSH2 0x587 DUP3 PUSH2 0x546 JUMP JUMPDEST PUSH1 0x20 DUP3 ADD SWAP1 POP SWAP2 SWAP1 POP JUMP JUMPDEST PUSH1 0x0 PUSH1 0x20 DUP3 ADD SWAP1 POP DUP2 DUP2 SUB PUSH1 0x0 DUP4 ADD MSTORE PUSH2 0x5AB DUP2 PUSH2 0x56F JUMP JUMPDEST SWAP1 POP SWAP2 SWAP1 POP JUMP JUMPDEST PUSH2 0x5BB DUP2 PUSH2 0x314 JUMP JUMPDEST DUP3 MSTORE POP POP JUMP JUMPDEST PUSH1 0x0 PUSH1 0x40 DUP3 ADD SWAP1 POP PUSH2 0x5D6 PUSH1 0x0 DUP4 ADD DUP6 PUSH2 0x5B2 JUMP JUMPDEST PUSH2 0x5E3 PUSH1 0x20 DUP4 ADD DUP5 PUSH2 0x5B2 JUMP JUMPDEST SWAP4 SWAP3 POP POP POP JUMP JUMPDEST PUSH2 0x5F3 DUP2 PUSH2 0x501 JUMP JUMPDEST DUP2 EQ PUSH2 0x5FE JUMPI PUSH1 0x0 DUP1 REVERT JUMPDEST POP JUMP JUMPDEST PUSH1 0x0 DUP2 MLOAD SWAP1 POP PUSH2 0x610 DUP2 PUSH2 0x5EA JUMP JUMPDEST SWAP3 SWAP2 POP POP JUMP JUMPDEST PUSH1 0x0 PUSH1 0x20 DUP3 DUP5 SUB SLT ISZERO PUSH2 0x62C JUMPI PUSH2 0x62B PUSH2 0x2EA JUMP JUMPDEST JUMPDEST PUSH1 0x0 PUSH2 0x63A DUP5 DUP3 DUP6 ADD PUSH2 0x601 JUMP JUMPDEST SWAP2 POP POP SWAP3 SWAP2 POP POP JUMP JUMPDEST PUSH32 0x6572726F722D2D2D2D616D6F756E740000000000000000000000000000000000 PUSH1 0x0 DUP3 ADD MSTORE POP JUMP JUMPDEST PUSH1 0x0 PUSH2 0x679 PUSH1 0xF DUP4 PUSH2 0x535 JUMP JUMPDEST SWAP2 POP PUSH2 0x684 DUP3 PUSH2 0x643 JUMP JUMPDEST PUSH1 0x20 DUP3 ADD SWAP1 POP SWAP2 SWAP1 POP JUMP JUMPDEST PUSH1 0x0 PUSH1 0x20 DUP3 ADD SWAP1 POP DUP2 DUP2 SUB PUSH1 0x0 DUP4 ADD MSTORE PUSH2 0x6A8 DUP2 PUSH2 0x66C JUMP JUMPDEST SWAP1 POP SWAP2 SWAP1 POP JUMP JUMPDEST PUSH32 0x4E487B7100000000000000000000000000000000000000000000000000000000 PUSH1 0x0 MSTORE PUSH1 0x32 PUSH1 0x4 MSTORE PUSH1 0x24 PUSH1 0x0 REVERT JUMPDEST PUSH1 0x0 PUSH1 0x20 DUP3 DUP5 SUB SLT ISZERO PUSH2 0x6F4 JUMPI PUSH2 0x6F3 PUSH2 0x2EA JUMP JUMPDEST JUMPDEST PUSH1 0x0 PUSH2 0x702 DUP5 DUP3 DUP6 ADD PUSH2 0x33D JUMP JUMPDEST SWAP2 POP POP SWAP3 SWAP2 POP POP JUMP JUMPDEST PUSH1 0x0 PUSH1 0x60 DUP3 ADD SWAP1 POP PUSH2 0x720 PUSH1 0x0 DUP4 ADD DUP7 PUSH2 0x5B2 JUMP JUMPDEST PUSH2 0x72D PUSH1 0x20 DUP4 ADD DUP6 PUSH2 0x5B2 JUMP JUMPDEST PUSH2 0x73A PUSH1 0x40 DUP4 ADD DUP5 PUSH2 0x50B JUMP JUMPDEST SWAP5 SWAP4 POP POP POP POP JUMP JUMPDEST PUSH1 0x0 DUP2 ISZERO ISZERO SWAP1 POP SWAP2 SWAP1 POP JUMP JUMPDEST PUSH2 0x757 DUP2 PUSH2 0x742 JUMP JUMPDEST DUP2 EQ PUSH2 0x762 JUMPI PUSH1 0x0 DUP1 REVERT JUMPDEST POP JUMP JUMPDEST PUSH1 0x0 DUP2 MLOAD SWAP1 POP PUSH2 0x774 DUP2 PUSH2 0x74E JUMP JUMPDEST SWAP3 SWAP2 POP POP JUMP JUMPDEST PUSH1 0x0 PUSH1 0x20 DUP3 DUP5 SUB SLT ISZERO PUSH2 0x790 JUMPI PUSH2 0x78F PUSH2 0x2EA JUMP JUMPDEST JUMPDEST PUSH1 0x0 PUSH2 0x79E DUP5 DUP3 DUP6 ADD PUSH2 0x765 JUMP JUMPDEST SWAP2 POP POP SWAP3 SWAP2 POP POP JUMP JUMPDEST PUSH32 0x4E487B7100000000000000000000000000000000000000000000000000000000 PUSH1 0x0 MSTORE PUSH1 0x11 PUSH1 0x4 MSTORE PUSH1 0x24 PUSH1 0x0 REVERT JUMPDEST PUSH1 0x0 PUSH1 0xFF DUP3 AND SWAP1 POP SWAP2 SWAP1 POP JUMP JUMPDEST PUSH1 0x0 PUSH2 0x7EE DUP3 PUSH2 0x7D6 JUMP JUMPDEST SWAP2 POP PUSH1 0xFF DUP3 SUB PUSH2 0x801 JUMPI PUSH2 0x800 PUSH2 0x7A7 JUMP JUMPDEST JUMPDEST PUSH1 0x1 DUP3 ADD SWAP1 POP SWAP2 SWAP1 POP JUMP JUMPDEST PUSH1 0x0 PUSH2 0x817 DUP3 PUSH2 0x501 JUMP JUMPDEST SWAP2 POP PUSH2 0x822 DUP4 PUSH2 0x501 JUMP JUMPDEST SWAP3 POP DUP3 DUP3 ADD SWAP1 POP DUP1 DUP3 GT ISZERO PUSH2 0x83A JUMPI PUSH2 0x839 PUSH2 0x7A7 JUMP JUMPDEST JUMPDEST SWAP3 SWAP2 POP POP JUMP JUMPDEST PUSH1 0x0 PUSH2 0x84B DUP3 PUSH2 0x501 JUMP JUMPDEST SWAP2 POP PUSH32 0xFFFFFFFFFFFFFFFFFFFFFFFFFFFFFFFFFFFFFFFFFFFFFFFFFFFFFFFFFFFFFFFF DUP3 SUB PUSH2 0x87D JUMPI PUSH2 0x87C PUSH2 0x7A7 JUMP JUMPDEST JUMPDEST PUSH1 0x1 DUP3 ADD SWAP1 POP SWAP2 SWAP1 POP JUMP INVALID LOG2 PUSH5 0x6970667358 0x22 SLT KECCAK256 LOG1 0xB9 LT PUSH18 0x7F1E525EE49BE97C25A2460CBFBB14DF7FD7 ADD PUSH6 0xF0F88EAE775C PUSH25 0x1464736F6C6343000811003300000000000000000000000000 "
				},
				"gasEstimates": {
					"creation": {
						"codeDepositCost": "447600",
						"executionCost": "480",
						"totalCost": "448080"
					},
					"external": {
						"getSum(uint256[])": "infinite",
						"sendERC20Airdrop(address,address,address[],uint256[])": "infinite"
					}
				},
				"methodIdentifiers": {
					"getSum(uint256[])": "ccb8c1e0",
					"sendERC20Airdrop(address,address,address[],uint256[])": "6c47aa86"
				}
			},
			"storageLayout": {
				"storage": [],
				"types": null
			},
			"userdoc": {
				"kind": "user",
				"methods": {},
				"version": 1
			}
		}
	}
}