{
	"data": {
		"bytecode": {
			"linkReferences": {},
			"object": "6080604052607b600055737a58c0be72be218b41c608b7fe7c5bb630736c71600160006101000a81548173ffffffffffffffffffffffffffffffffffffffff021916908373ffffffffffffffffffffffffffffffffffffffff1602179055506040518060400160405280600481526020017f637770700000000000000000000000000000000000000000000000000000000081525060029081620000a49190620003cc565b506040518060400160405280600660ff168152602001600960ff168152506003906002620000d4929190620000e9565b50348015620000e257600080fd5b50620004b3565b826002810192821562000120579160200282015b828111156200011f578251829060ff16905591602001919060010190620000fd565b5b5090506200012f919062000133565b5090565b5b808211156200014e57600081600090555060010162000134565b5090565b600081519050919050565b7f4e487b7100000000000000000000000000000000000000000000000000000000600052604160045260246000fd5b7f4e487b7100000000000000000000000000000000000000000000000000000000600052602260045260246000fd5b60006002820490506001821680620001d457607f821691505b602082108103620001ea57620001e96200018c565b5b50919050565b60008190508160005260206000209050919050565b60006020601f8301049050919050565b600082821b905092915050565b600060088302620002547fffffffffffffffffffffffffffffffffffffffffffffffffffffffffffffffff8262000215565b62000260868362000215565b95508019841693508086168417925050509392505050565b6000819050919050565b6000819050919050565b6000620002ad620002a7620002a18462000278565b62000282565b62000278565b9050919050565b6000819050919050565b620002c9836200028c565b620002e1620002d882620002b4565b84845462000222565b825550505050565b600090565b620002f8620002e9565b62000305818484620002be565b505050565b5b818110156200032d5762000321600082620002ee565b6001810190506200030b565b5050565b601f8211156200037c576200034681620001f0565b620003518462000205565b8101602085101562000361578190505b62000379620003708562000205565b8301826200030a565b50505b505050565b600082821c905092915050565b6000620003a16000198460080262000381565b1980831691505092915050565b6000620003bc83836200038e565b9150826002028217905092915050565b620003d78262000152565b67ffffffffffffffff811115620003f357620003f26200015d565b5b620003ff8254620001bb565b6200040c82828562000331565b600060209050601f8311600181146200044457600084156200042f578287015190505b6200043b8582620003ae565b865550620004ab565b601f1984166200045486620001f0565b60005b828110156200047e5784890151825560018201915060208501945060208101905062000457565b868310156200049e57848901516200049a601f8916826200038e565b8355505b6001600288020188555050505b505050505050565b610dc880620004c36000396000f3fe608060405234801561001057600080fd5b50600436106100575760003560e01c8063b55ffc041461005c578063bac1d5721461007a578063bd14598f146100ad578063bed7532c146100cb578063f7d13ab0146100e9575b600080fd5b610064610107565b604051610071919061041a565b60405180910390f35b610094600480360381019061008f9190610585565b6101c9565b6040516100a49493929190610728565b60405180910390f35b6100b5610201565b6040516100c2919061041a565b60405180910390f35b6100d3610254565b6040516100e0919061041a565b60405180910390f35b6100f16102a7565b6040516100fe919061041a565b60405180910390f35b60607fcc4decd87843118ac7919b8d43c3881a878e588562c10d9c65a231b5971b6c77600054600160009054906101000a900473ffffffffffffffffffffffffffffffffffffffff16600260036040516024016101679493929190610931565b604051602081830303815290604052907bffffffffffffffffffffffffffffffffffffffffffffffffffffffff19166020820180517bffffffffffffffffffffffffffffffffffffffffffffffffffffffff8381831617835250505050905090565b60008060606101d6610368565b848060200190518101906101ea9190610b3e565b809450819550829650839750505050509193509193565b6060600054600160009054906101000a900473ffffffffffffffffffffffffffffffffffffffff16600260036040516020016102409493929190610931565b604051602081830303815290604052905090565b6060600054600160009054906101000a900473ffffffffffffffffffffffffffffffffffffffff16600260036040516020016102939493929190610d48565b604051602081830303815290604052905090565b6060600054600160009054906101000a900473ffffffffffffffffffffffffffffffffffffffff16600260036040516024016102e69493929190610931565b6040516020818303038152906040527fcc4decd8000000000000000000000000000000000000000000000000000000007bffffffffffffffffffffffffffffffffffffffffffffffffffffffff19166020820180517bffffffffffffffffffffffffffffffffffffffffffffffffffffffff8381831617835250505050905090565b6040518060400160405280600290602082028036833780820191505090505090565b600081519050919050565b600082825260208201905092915050565b60005b838110156103c45780820151818401526020810190506103a9565b60008484015250505050565b6000601f19601f8301169050919050565b60006103ec8261038a565b6103f68185610395565b93506104068185602086016103a6565b61040f816103d0565b840191505092915050565b6000602082019050818103600083015261043481846103e1565b905092915050565b6000604051905090565b600080fd5b600080fd5b600080fd5b600080fd5b7f4e487b7100000000000000000000000000000000000000000000000000000000600052604160045260246000fd5b610492826103d0565b810181811067ffffffffffffffff821117156104b1576104b061045a565b5b80604052505050565b60006104c461043c565b90506104d08282610489565b919050565b600067ffffffffffffffff8211156104f0576104ef61045a565b5b6104f9826103d0565b9050602081019050919050565b82818337600083830152505050565b6000610528610523846104d5565b6104ba565b90508281526020810184848401111561054457610543610455565b5b61054f848285610506565b509392505050565b600082601f83011261056c5761056b610450565b5b813561057c848260208601610515565b91505092915050565b60006020828403121561059b5761059a610446565b5b600082013567ffffffffffffffff8111156105b9576105b861044b565b5b6105c584828501610557565b91505092915050565b6000819050919050565b6105e1816105ce565b82525050565b600073ffffffffffffffffffffffffffffffffffffffff82169050919050565b6000610612826105e7565b9050919050565b61062281610607565b82525050565b600081519050919050565b600082825260208201905092915050565b600061064f82610628565b6106598185610633565b93506106698185602086016103a6565b610672816103d0565b840191505092915050565b600060029050919050565b600081905092915050565b6000819050919050565b6106a6816105ce565b82525050565b60006106b8838361069d565b60208301905092915050565b6000602082019050919050565b6106da8161067d565b6106e48184610688565b92506106ef82610693565b8060005b8381101561072057815161070787826106ac565b9650610712836106c4565b9250506001810190506106f3565b505050505050565b600060a08201905061073d60008301876105d8565b61074a6020830186610619565b818103604083015261075c8185610644565b905061076b60608301846106d1565b95945050505050565b7f4e487b7100000000000000000000000000000000000000000000000000000000600052602260045260246000fd5b600060028204905060018216806107bb57607f821691505b6020821081036107ce576107cd610774565b5b50919050565b60008190508160005260206000209050919050565b600081546107f6816107a3565b6108008186610633565b9450600182166000811461081b576001811461083157610864565b60ff198316865281151560200286019350610864565b61083a856107d4565b60005b8381101561085c5781548189015260018201915060208101905061083d565b808801955050505b50505092915050565b600060029050919050565b6000819050919050565b60008160001c9050919050565b6000819050919050565b60006108ac6108a783610882565b61088f565b9050919050565b60006108bf8254610899565b9050919050565b6000600182019050919050565b6108dc8161086d565b6108e68184610688565b92506108f182610878565b8060005b8381101561092957610906826108b3565b61091087826106ac565b965061091b836108c6565b9250506001810190506108f5565b505050505050565b600060a08201905061094660008301876105d8565b6109536020830186610619565b818103604083015261096581856107e9565b905061097460608301846108d3565b95945050505050565b610986816105ce565b811461099157600080fd5b50565b6000815190506109a38161097d565b92915050565b60006109b4826105e7565b9050919050565b6109c4816109a9565b81146109cf57600080fd5b50565b6000815190506109e1816109bb565b92915050565b600067ffffffffffffffff821115610a0257610a0161045a565b5b610a0b826103d0565b9050602081019050919050565b6000610a2b610a26846109e7565b6104ba565b905082815260208101848484011115610a4757610a46610455565b5b610a528482856103a6565b509392505050565b600082601f830112610a6f57610a6e610450565b5b8151610a7f848260208601610a18565b91505092915050565b600067ffffffffffffffff821115610aa357610aa261045a565b5b602082029050919050565b600080fd5b6000610ac6610ac184610a88565b6104ba565b90508060208402830185811115610ae057610adf610aae565b5b835b81811015610b095780610af58882610994565b845260208401935050602081019050610ae2565b5050509392505050565b600082601f830112610b2857610b27610450565b5b6002610b35848285610ab3565b91505092915050565b60008060008060a08587031215610b5857610b57610446565b5b6000610b6687828801610994565b9450506020610b77878288016109d2565b935050604085015167ffffffffffffffff811115610b9857610b9761044b565b5b610ba487828801610a5a565b9250506060610bb587828801610b13565b91505092959194509250565b6000819050919050565b610bdc610bd7826105ce565b610bc1565b82525050565b60008160601b9050919050565b6000610bfa82610be2565b9050919050565b6000610c0c82610bef565b9050919050565b610c24610c1f82610607565b610c01565b82525050565b600081905092915050565b60008154610c42816107a3565b610c4c8186610c2a565b94506001821660008114610c675760018114610c7c57610caf565b60ff1983168652811515820286019350610caf565b610c85856107d4565b60005b83811015610ca757815481890152600182019150602081019050610c88565b838801955050505b50505092915050565b600081905092915050565b610ccc816105ce565b82525050565b6000610cde8383610cc3565b60208301905092915050565b610cf38161086d565b610cfd8184610cb8565b9250610d0882610878565b8060005b83811015610d4057610d1d826108b3565b610d278782610cd2565b9650610d32836108c6565b925050600181019050610d0c565b505050505050565b6000610d548287610bcb565b602082019150610d648286610c13565b601482019150610d748285610c35565b9150610d808284610cea565b6040820191508190509594505050505056fea26469706673582212206f441332108ab3bdf16d5512362aafae8dbde6637a138c3de6e5c2ae9f1f8ff464736f6c63430008110033",
			"opcodes": "PUSH1 0x80 PUSH1 0x40 MSTORE PUSH1 0x7B PUSH1 0x0 SSTORE PUSH20 0x7A58C0BE72BE218B41C608B7FE7C5BB630736C71 PUSH1 0x1 PUSH1 0x0 PUSH2 0x100 EXP DUP2 SLOAD DUP2 PUSH20 0xFFFFFFFFFFFFFFFFFFFFFFFFFFFFFFFFFFFFFFFF MUL NOT AND SWAP1 DUP4 PUSH20 0xFFFFFFFFFFFFFFFFFFFFFFFFFFFFFFFFFFFFFFFF AND MUL OR SWAP1 SSTORE POP PUSH1 0x40 MLOAD DUP1 PUSH1 0x40 ADD PUSH1 0x40 MSTORE DUP1 PUSH1 0x4 DUP2 MSTORE PUSH1 0x20 ADD PUSH32 0x6377707000000000000000000000000000000000000000000000000000000000 DUP2 MSTORE POP PUSH1 0x2 SWAP1 DUP2 PUSH3 0xA4 SWAP2 SWAP1 PUSH3 0x3CC JUMP JUMPDEST POP PUSH1 0x40 MLOAD DUP1 PUSH1 0x40 ADD PUSH1 0x40 MSTORE DUP1 PUSH1 0x6 PUSH1 0xFF AND DUP2 MSTORE PUSH1 0x20 ADD PUSH1 0x9 PUSH1 0xFF AND DUP2 MSTORE POP PUSH1 0x3 SWAP1 PUSH1 0x2 PUSH3 0xD4 SWAP3 SWAP2 SWAP1 PUSH3 0xE9 JUMP JUMPDEST POP CALLVALUE DUP1 ISZERO PUSH3 0xE2 JUMPI PUSH1 0x0 DUP1 REVERT JUMPDEST POP PUSH3 0x4B3 JUMP JUMPDEST DUP3 PUSH1 0x2 DUP2 ADD SWAP3 DUP3 ISZERO PUSH3 0x120 JUMPI SWAP2 PUSH1 0x20 MUL DUP3 ADD JUMPDEST DUP3 DUP2 GT ISZERO PUSH3 0x11F JUMPI DUP3 MLOAD DUP3 SWAP1 PUSH1 0xFF AND SWAP1 SSTORE SWAP2 PUSH1 0x20 ADD SWAP2 SWAP1 PUSH1 0x1 ADD SWAP1 PUSH3 0xFD JUMP JUMPDEST JUMPDEST POP SWAP1 POP PUSH3 0x12F SWAP2 SWAP1 PUSH3 0x133 JUMP JUMPDEST POP SWAP1 JUMP JUMPDEST JUMPDEST DUP1 DUP3 GT ISZERO PUSH3 0x14E JUMPI PUSH1 0x0 DUP2 PUSH1 0x0 SWAP1 SSTORE POP PUSH1 0x1 ADD PUSH3 0x134 JUMP JUMPDEST POP SWAP1 JUMP JUMPDEST PUSH1 0x0 DUP2 MLOAD SWAP1 POP SWAP2 SWAP1 POP JUMP JUMPDEST PUSH32 0x4E487B7100000000000000000000000000000000000000000000000000000000 PUSH1 0x0 MSTORE PUSH1 0x41 PUSH1 0x4 MSTORE PUSH1 0x24 PUSH1 0x0 REVERT JUMPDEST PUSH32 0x4E487B7100000000000000000000000000000000000000000000000000000000 PUSH1 0x0 MSTORE PUSH1 0x22 PUSH1 0x4 MSTORE PUSH1 0x24 PUSH1 0x0 REVERT JUMPDEST PUSH1 0x0 PUSH1 0x2 DUP3 DIV SWAP1 POP PUSH1 0x1 DUP3 AND DUP1 PUSH3 0x1D4 JUMPI PUSH1 0x7F DUP3 AND SWAP2 POP JUMPDEST PUSH1 0x20 DUP3 LT DUP2 SUB PUSH3 0x1EA JUMPI PUSH3 0x1E9 PUSH3 0x18C JUMP JUMPDEST JUMPDEST POP SWAP2 SWAP1 POP JUMP JUMPDEST PUSH1 0x0 DUP2 SWAP1 POP DUP2 PUSH1 0x0 MSTORE PUSH1 0x20 PUSH1 0x0 KECCAK256 SWAP1 POP SWAP2 SWAP1 POP JUMP JUMPDEST PUSH1 0x0 PUSH1 0x20 PUSH1 0x1F DUP4 ADD DIV SWAP1 POP SWAP2 SWAP1 POP JUMP JUMPDEST PUSH1 0x0 DUP3 DUP3 SHL SWAP1 POP SWAP3 SWAP2 POP POP JUMP JUMPDEST PUSH1 0x0 PUSH1 0x8 DUP4 MUL PUSH3 0x254 PUSH32 0xFFFFFFFFFFFFFFFFFFFFFFFFFFFFFFFFFFFFFFFFFFFFFFFFFFFFFFFFFFFFFFFF DUP3 PUSH3 0x215 JUMP JUMPDEST PUSH3 0x260 DUP7 DUP4 PUSH3 0x215 JUMP JUMPDEST SWAP6 POP DUP1 NOT DUP5 AND SWAP4 POP DUP1 DUP7 AND DUP5 OR SWAP3 POP POP POP SWAP4 SWAP3 POP POP POP JUMP JUMPDEST PUSH1 0x0 DUP2 SWAP1 POP SWAP2 SWAP1 POP JUMP JUMPDEST PUSH1 0x0 DUP2 SWAP1 POP SWAP2 SWAP1 POP JUMP JUMPDEST PUSH1 0x0 PUSH3 0x2AD PUSH3 0x2A7 PUSH3 0x2A1 DUP5 PUSH3 0x278 JUMP JUMPDEST PUSH3 0x282 JUMP JUMPDEST PUSH3 0x278 JUMP JUMPDEST SWAP1 POP SWAP2 SWAP1 POP JUMP JUMPDEST PUSH1 0x0 DUP2 SWAP1 POP SWAP2 SWAP1 POP JUMP JUMPDEST PUSH3 0x2C9 DUP4 PUSH3 0x28C JUMP JUMPDEST PUSH3 0x2E1 PUSH3 0x2D8 DUP3 PUSH3 0x2B4 JUMP JUMPDEST DUP5 DUP5 SLOAD PUSH3 0x222 JUMP JUMPDEST DUP3 SSTORE POP POP POP POP JUMP JUMPDEST PUSH1 0x0 SWAP1 JUMP JUMPDEST PUSH3 0x2F8 PUSH3 0x2E9 JUMP JUMPDEST PUSH3 0x305 DUP2 DUP5 DUP5 PUSH3 0x2BE JUMP JUMPDEST POP POP POP JUMP JUMPDEST JUMPDEST DUP2 DUP2 LT ISZERO PUSH3 0x32D JUMPI PUSH3 0x321 PUSH1 0x0 DUP3 PUSH3 0x2EE JUMP JUMPDEST PUSH1 0x1 DUP2 ADD SWAP1 POP PUSH3 0x30B JUMP JUMPDEST POP POP JUMP JUMPDEST PUSH1 0x1F DUP3 GT ISZERO PUSH3 0x37C JUMPI PUSH3 0x346 DUP2 PUSH3 0x1F0 JUMP JUMPDEST PUSH3 0x351 DUP5 PUSH3 0x205 JUMP JUMPDEST DUP2 ADD PUSH1 0x20 DUP6 LT ISZERO PUSH3 0x361 JUMPI DUP2 SWAP1 POP JUMPDEST PUSH3 0x379 PUSH3 0x370 DUP6 PUSH3 0x205 JUMP JUMPDEST DUP4 ADD DUP3 PUSH3 0x30A JUMP JUMPDEST POP POP JUMPDEST POP POP POP JUMP JUMPDEST PUSH1 0x0 DUP3 DUP3 SHR SWAP1 POP SWAP3 SWAP2 POP POP JUMP JUMPDEST PUSH1 0x0 PUSH3 0x3A1 PUSH1 0x0 NOT DUP5 PUSH1 0x8 MUL PUSH3 0x381 JUMP JUMPDEST NOT DUP1 DUP4 AND SWAP2 POP POP SWAP3 SWAP2 POP POP JUMP JUMPDEST PUSH1 0x0 PUSH3 0x3BC DUP4 DUP4 PUSH3 0x38E JUMP JUMPDEST SWAP2 POP DUP3 PUSH1 0x2 MUL DUP3 OR SWAP1 POP SWAP3 SWAP2 POP POP JUMP JUMPDEST PUSH3 0x3D7 DUP3 PUSH3 0x152 JUMP JUMPDEST PUSH8 0xFFFFFFFFFFFFFFFF DUP2 GT ISZERO PUSH3 0x3F3 JUMPI PUSH3 0x3F2 PUSH3 0x15D JUMP JUMPDEST JUMPDEST PUSH3 0x3FF DUP3 SLOAD PUSH3 0x1BB JUMP JUMPDEST PUSH3 0x40C DUP3 DUP3 DUP6 PUSH3 0x331 JUMP JUMPDEST PUSH1 0x0 PUSH1 0x20 SWAP1 POP PUSH1 0x1F DUP4 GT PUSH1 0x1 DUP2 EQ PUSH3 0x444 JUMPI PUSH1 0x0 DUP5 ISZERO PUSH3 0x42F JUMPI DUP3 DUP8 ADD MLOAD SWAP1 POP JUMPDEST PUSH3 0x43B DUP6 DUP3 PUSH3 0x3AE JUMP JUMPDEST DUP7 SSTORE POP PUSH3 0x4AB JUMP JUMPDEST PUSH1 0x1F NOT DUP5 AND PUSH3 0x454 DUP7 PUSH3 0x1F0 JUMP JUMPDEST PUSH1 0x0 JUMPDEST DUP3 DUP2 LT ISZERO PUSH3 0x47E JUMPI DUP5 DUP10 ADD MLOAD DUP3 SSTORE PUSH1 0x1 DUP3 ADD SWAP2 POP PUSH1 0x20 DUP6 ADD SWAP5 POP PUSH1 0x20 DUP2 ADD SWAP1 POP PUSH3 0x457 JUMP JUMPDEST DUP7 DUP4 LT ISZERO PUSH3 0x49E JUMPI DUP5 DUP10 ADD MLOAD PUSH3 0x49A PUSH1 0x1F DUP10 AND DUP3 PUSH3 0x38E JUMP JUMPDEST DUP4 SSTORE POP JUMPDEST PUSH1 0x1 PUSH1 0x2 DUP9 MUL ADD DUP9 SSTORE POP POP POP JUMPDEST POP POP POP POP POP POP JUMP JUMPDEST PUSH2 0xDC8 DUP1 PUSH3 0x4C3 PUSH1 0x0 CODECOPY PUSH1 0x0 RETURN INVALID PUSH1 0x80 PUSH1 0x40 MSTORE CALLVALUE DUP1 ISZERO PUSH2 0x10 JUMPI PUSH1 0x0 DUP1 REVERT JUMPDEST POP PUSH1 0x4 CALLDATASIZE LT PUSH2 0x57 JUMPI PUSH1 0x0 CALLDATALOAD PUSH1 0xE0 SHR DUP1 PUSH4 0xB55FFC04 EQ PUSH2 0x5C JUMPI DUP1 PUSH4 0xBAC1D572 EQ PUSH2 0x7A JUMPI DUP1 PUSH4 0xBD14598F EQ PUSH2 0xAD JUMPI DUP1 PUSH4 0xBED7532C EQ PUSH2 0xCB JUMPI DUP1 PUSH4 0xF7D13AB0 EQ PUSH2 0xE9 JUMPI JUMPDEST PUSH1 0x0 DUP1 REVERT JUMPDEST PUSH2 0x64 PUSH2 0x107 JUMP JUMPDEST PUSH1 0x40 MLOAD PUSH2 0x71 SWAP2 SWAP1 PUSH2 0x41A JUMP JUMPDEST PUSH1 0x40 MLOAD DUP1 SWAP2 SUB SWAP1 RETURN JUMPDEST PUSH2 0x94 PUSH1 0x4 DUP1 CALLDATASIZE SUB DUP2 ADD SWAP1 PUSH2 0x8F SWAP2 SWAP1 PUSH2 0x585 JUMP JUMPDEST PUSH2 0x1C9 JUMP JUMPDEST PUSH1 0x40 MLOAD PUSH2 0xA4 SWAP5 SWAP4 SWAP3 SWAP2 SWAP1 PUSH2 0x728 JUMP JUMPDEST PUSH1 0x40 MLOAD DUP1 SWAP2 SUB SWAP1 RETURN JUMPDEST PUSH2 0xB5 PUSH2 0x201 JUMP JUMPDEST PUSH1 0x40 MLOAD PUSH2 0xC2 SWAP2 SWAP1 PUSH2 0x41A JUMP JUMPDEST PUSH1 0x40 MLOAD DUP1 SWAP2 SUB SWAP1 RETURN JUMPDEST PUSH2 0xD3 PUSH2 0x254 JUMP JUMPDEST PUSH1 0x40 MLOAD PUSH2 0xE0 SWAP2 SWAP1 PUSH2 0x41A JUMP JUMPDEST PUSH1 0x40 MLOAD DUP1 SWAP2 SUB SWAP1 RETURN JUMPDEST PUSH2 0xF1 PUSH2 0x2A7 JUMP JUMPDEST PUSH1 0x40 MLOAD PUSH2 0xFE SWAP2 SWAP1 PUSH2 0x41A JUMP JUMPDEST PUSH1 0x40 MLOAD DUP1 SWAP2 SUB SWAP1 RETURN JUMPDEST PUSH1 0x60 PUSH32 0xCC4DECD87843118AC7919B8D43C3881A878E588562C10D9C65A231B5971B6C77 PUSH1 0x0 SLOAD PUSH1 0x1 PUSH1 0x0 SWAP1 SLOAD SWAP1 PUSH2 0x100 EXP SWAP1 DIV PUSH20 0xFFFFFFFFFFFFFFFFFFFFFFFFFFFFFFFFFFFFFFFF AND PUSH1 0x2 PUSH1 0x3 PUSH1 0x40 MLOAD PUSH1 0x24 ADD PUSH2 0x167 SWAP5 SWAP4 SWAP3 SWAP2 SWAP1 PUSH2 0x931 JUMP JUMPDEST PUSH1 0x40 MLOAD PUSH1 0x20 DUP2 DUP4 SUB SUB DUP2 MSTORE SWAP1 PUSH1 0x40 MSTORE SWAP1 PUSH28 0xFFFFFFFFFFFFFFFFFFFFFFFFFFFFFFFFFFFFFFFFFFFFFFFFFFFFFFFF NOT AND PUSH1 0x20 DUP3 ADD DUP1 MLOAD PUSH28 0xFFFFFFFFFFFFFFFFFFFFFFFFFFFFFFFFFFFFFFFFFFFFFFFFFFFFFFFF DUP4 DUP2 DUP4 AND OR DUP4 MSTORE POP POP POP POP SWAP1 POP SWAP1 JUMP JUMPDEST PUSH1 0x0 DUP1 PUSH1 0x60 PUSH2 0x1D6 PUSH2 0x368 JUMP JUMPDEST DUP5 DUP1 PUSH1 0x20 ADD SWAP1 MLOAD DUP2 ADD SWAP1 PUSH2 0x1EA SWAP2 SWAP1 PUSH2 0xB3E JUMP JUMPDEST DUP1 SWAP5 POP DUP2 SWAP6 POP DUP3 SWAP7 POP DUP4 SWAP8 POP POP POP POP POP SWAP2 SWAP4 POP SWAP2 SWAP4 JUMP JUMPDEST PUSH1 0x60 PUSH1 0x0 SLOAD PUSH1 0x1 PUSH1 0x0 SWAP1 SLOAD SWAP1 PUSH2 0x100 EXP SWAP1 DIV PUSH20 0xFFFFFFFFFFFFFFFFFFFFFFFFFFFFFFFFFFFFFFFF AND PUSH1 0x2 PUSH1 0x3 PUSH1 0x40 MLOAD PUSH1 0x20 ADD PUSH2 0x240 SWAP5 SWAP4 SWAP3 SWAP2 SWAP1 PUSH2 0x931 JUMP JUMPDEST PUSH1 0x40 MLOAD PUSH1 0x20 DUP2 DUP4 SUB SUB DUP2 MSTORE SWAP1 PUSH1 0x40 MSTORE SWAP1 POP SWAP1 JUMP JUMPDEST PUSH1 0x60 PUSH1 0x0 SLOAD PUSH1 0x1 PUSH1 0x0 SWAP1 SLOAD SWAP1 PUSH2 0x100 EXP SWAP1 DIV PUSH20 0xFFFFFFFFFFFFFFFFFFFFFFFFFFFFFFFFFFFFFFFF AND PUSH1 0x2 PUSH1 0x3 PUSH1 0x40 MLOAD PUSH1 0x20 ADD PUSH2 0x293 SWAP5 SWAP4 SWAP3 SWAP2 SWAP1 PUSH2 0xD48 JUMP JUMPDEST PUSH1 0x40 MLOAD PUSH1 0x20 DUP2 DUP4 SUB SUB DUP2 MSTORE SWAP1 PUSH1 0x40 MSTORE SWAP1 POP SWAP1 JUMP JUMPDEST PUSH1 0x60 PUSH1 0x0 SLOAD PUSH1 0x1 PUSH1 0x0 SWAP1 SLOAD SWAP1 PUSH2 0x100 EXP SWAP1 DIV PUSH20 0xFFFFFFFFFFFFFFFFFFFFFFFFFFFFFFFFFFFFFFFF AND PUSH1 0x2 PUSH1 0x3 PUSH1 0x40 MLOAD PUSH1 0x24 ADD PUSH2 0x2E6 SWAP5 SWAP4 SWAP3 SWAP2 SWAP1 PUSH2 0x931 JUMP JUMPDEST PUSH1 0x40 MLOAD PUSH1 0x20 DUP2 DUP4 SUB SUB DUP2 MSTORE SWAP1 PUSH1 0x40 MSTORE PUSH32 0xCC4DECD800000000000000000000000000000000000000000000000000000000 PUSH28 0xFFFFFFFFFFFFFFFFFFFFFFFFFFFFFFFFFFFFFFFFFFFFFFFFFFFFFFFF NOT AND PUSH1 0x20 DUP3 ADD DUP1 MLOAD PUSH28 0xFFFFFFFFFFFFFFFFFFFFFFFFFFFFFFFFFFFFFFFFFFFFFFFFFFFFFFFF DUP4 DUP2 DUP4 AND OR DUP4 MSTORE POP POP POP POP SWAP1 POP SWAP1 JUMP JUMPDEST PUSH1 0x40 MLOAD DUP1 PUSH1 0x40 ADD PUSH1 0x40 MSTORE DUP1 PUSH1 0x2 SWAP1 PUSH1 0x20 DUP3 MUL DUP1 CALLDATASIZE DUP4 CALLDATACOPY DUP1 DUP3 ADD SWAP2 POP POP SWAP1 POP POP SWAP1 JUMP JUMPDEST PUSH1 0x0 DUP2 MLOAD SWAP1 POP SWAP2 SWAP1 POP JUMP JUMPDEST PUSH1 0x0 DUP3 DUP3 MSTORE PUSH1 0x20 DUP3 ADD SWAP1 POP SWAP3 SWAP2 POP POP JUMP JUMPDEST PUSH1 0x0 JUMPDEST DUP4 DUP2 LT ISZERO PUSH2 0x3C4 JUMPI DUP1 DUP3 ADD MLOAD DUP2 DUP5 ADD MSTORE PUSH1 0x20 DUP2 ADD SWAP1 POP PUSH2 0x3A9 JUMP JUMPDEST PUSH1 0x0 DUP5 DUP5 ADD MSTORE POP POP POP POP JUMP JUMPDEST PUSH1 0x0 PUSH1 0x1F NOT PUSH1 0x1F DUP4 ADD AND SWAP1 POP SWAP2 SWAP1 POP JUMP JUMPDEST PUSH1 0x0 PUSH2 0x3EC DUP3 PUSH2 0x38A JUMP JUMPDEST PUSH2 0x3F6 DUP2 DUP6 PUSH2 0x395 JUMP JUMPDEST SWAP4 POP PUSH2 0x406 DUP2 DUP6 PUSH1 0x20 DUP7 ADD PUSH2 0x3A6 JUMP JUMPDEST PUSH2 0x40F DUP2 PUSH2 0x3D0 JUMP JUMPDEST DUP5 ADD SWAP2 POP POP SWAP3 SWAP2 POP POP JUMP JUMPDEST PUSH1 0x0 PUSH1 0x20 DUP3 ADD SWAP1 POP DUP2 DUP2 SUB PUSH1 0x0 DUP4 ADD MSTORE PUSH2 0x434 DUP2 DUP5 PUSH2 0x3E1 JUMP JUMPDEST SWAP1 POP SWAP3 SWAP2 POP POP JUMP JUMPDEST PUSH1 0x0 PUSH1 0x40 MLOAD SWAP1 POP SWAP1 JUMP JUMPDEST PUSH1 0x0 DUP1 REVERT JUMPDEST PUSH1 0x0 DUP1 REVERT JUMPDEST PUSH1 0x0 DUP1 REVERT JUMPDEST PUSH1 0x0 DUP1 REVERT JUMPDEST PUSH32 0x4E487B7100000000000000000000000000000000000000000000000000000000 PUSH1 0x0 MSTORE PUSH1 0x41 PUSH1 0x4 MSTORE PUSH1 0x24 PUSH1 0x0 REVERT JUMPDEST PUSH2 0x492 DUP3 PUSH2 0x3D0 JUMP JUMPDEST DUP2 ADD DUP2 DUP2 LT PUSH8 0xFFFFFFFFFFFFFFFF DUP3 GT OR ISZERO PUSH2 0x4B1 JUMPI PUSH2 0x4B0 PUSH2 0x45A JUMP JUMPDEST JUMPDEST DUP1 PUSH1 0x40 MSTORE POP POP POP JUMP JUMPDEST PUSH1 0x0 PUSH2 0x4C4 PUSH2 0x43C JUMP JUMPDEST SWAP1 POP PUSH2 0x4D0 DUP3 DUP3 PUSH2 0x489 JUMP JUMPDEST SWAP2 SWAP1 POP JUMP JUMPDEST PUSH1 0x0 PUSH8 0xFFFFFFFFFFFFFFFF DUP3 GT ISZERO PUSH2 0x4F0 JUMPI PUSH2 0x4EF PUSH2 0x45A JUMP JUMPDEST JUMPDEST PUSH2 0x4F9 DUP3 PUSH2 0x3D0 JUMP JUMPDEST SWAP1 POP PUSH1 0x20 DUP2 ADD SWAP1 POP SWAP2 SWAP1 POP JUMP JUMPDEST DUP3 DUP2 DUP4 CALLDATACOPY PUSH1 0x0 DUP4 DUP4 ADD MSTORE POP POP POP JUMP JUMPDEST PUSH1 0x0 PUSH2 0x528 PUSH2 0x523 DUP5 PUSH2 0x4D5 JUMP JUMPDEST PUSH2 0x4BA JUMP JUMPDEST SWAP1 POP DUP3 DUP2 MSTORE PUSH1 0x20 DUP2 ADD DUP5 DUP5 DUP5 ADD GT ISZERO PUSH2 0x544 JUMPI PUSH2 0x543 PUSH2 0x455 JUMP JUMPDEST JUMPDEST PUSH2 0x54F DUP5 DUP3 DUP6 PUSH2 0x506 JUMP JUMPDEST POP SWAP4 SWAP3 POP POP POP JUMP JUMPDEST PUSH1 0x0 DUP3 PUSH1 0x1F DUP4 ADD SLT PUSH2 0x56C JUMPI PUSH2 0x56B PUSH2 0x450 JUMP JUMPDEST JUMPDEST DUP2 CALLDATALOAD PUSH2 0x57C DUP5 DUP3 PUSH1 0x20 DUP7 ADD PUSH2 0x515 JUMP JUMPDEST SWAP2 POP POP SWAP3 SWAP2 POP POP JUMP JUMPDEST PUSH1 0x0 PUSH1 0x20 DUP3 DUP5 SUB SLT ISZERO PUSH2 0x59B JUMPI PUSH2 0x59A PUSH2 0x446 JUMP JUMPDEST JUMPDEST PUSH1 0x0 DUP3 ADD CALLDATALOAD PUSH8 0xFFFFFFFFFFFFFFFF DUP2 GT ISZERO PUSH2 0x5B9 JUMPI PUSH2 0x5B8 PUSH2 0x44B JUMP JUMPDEST JUMPDEST PUSH2 0x5C5 DUP5 DUP3 DUP6 ADD PUSH2 0x557 JUMP JUMPDEST SWAP2 POP POP SWAP3 SWAP2 POP POP JUMP JUMPDEST PUSH1 0x0 DUP2 SWAP1 POP SWAP2 SWAP1 POP JUMP JUMPDEST PUSH2 0x5E1 DUP2 PUSH2 0x5CE JUMP JUMPDEST DUP3 MSTORE POP POP JUMP JUMPDEST PUSH1 0x0 PUSH20 0xFFFFFFFFFFFFFFFFFFFFFFFFFFFFFFFFFFFFFFFF DUP3 AND SWAP1 POP SWAP2 SWAP1 POP JUMP JUMPDEST PUSH1 0x0 PUSH2 0x612 DUP3 PUSH2 0x5E7 JUMP JUMPDEST SWAP1 POP SWAP2 SWAP1 POP JUMP JUMPDEST PUSH2 0x622 DUP2 PUSH2 0x607 JUMP JUMPDEST DUP3 MSTORE POP POP JUMP JUMPDEST PUSH1 0x0 DUP2 MLOAD SWAP1 POP SWAP2 SWAP1 POP JUMP JUMPDEST PUSH1 0x0 DUP3 DUP3 MSTORE PUSH1 0x20 DUP3 ADD SWAP1 POP SWAP3 SWAP2 POP POP JUMP JUMPDEST PUSH1 0x0 PUSH2 0x64F DUP3 PUSH2 0x628 JUMP JUMPDEST PUSH2 0x659 DUP2 DUP6 PUSH2 0x633 JUMP JUMPDEST SWAP4 POP PUSH2 0x669 DUP2 DUP6 PUSH1 0x20 DUP7 ADD PUSH2 0x3A6 JUMP JUMPDEST PUSH2 0x672 DUP2 PUSH2 0x3D0 JUMP JUMPDEST DUP5 ADD SWAP2 POP POP SWAP3 SWAP2 POP POP JUMP JUMPDEST PUSH1 0x0 PUSH1 0x2 SWAP1 POP SWAP2 SWAP1 POP JUMP JUMPDEST PUSH1 0x0 DUP2 SWAP1 POP SWAP3 SWAP2 POP POP JUMP JUMPDEST PUSH1 0x0 DUP2 SWAP1 POP SWAP2 SWAP1 POP JUMP JUMPDEST PUSH2 0x6A6 DUP2 PUSH2 0x5CE JUMP JUMPDEST DUP3 MSTORE POP POP JUMP JUMPDEST PUSH1 0x0 PUSH2 0x6B8 DUP4 DUP4 PUSH2 0x69D JUMP JUMPDEST PUSH1 0x20 DUP4 ADD SWAP1 POP SWAP3 SWAP2 POP POP JUMP JUMPDEST PUSH1 0x0 PUSH1 0x20 DUP3 ADD SWAP1 POP SWAP2 SWAP1 POP JUMP JUMPDEST PUSH2 0x6DA DUP2 PUSH2 0x67D JUMP JUMPDEST PUSH2 0x6E4 DUP2 DUP5 PUSH2 0x688 JUMP JUMPDEST SWAP3 POP PUSH2 0x6EF DUP3 PUSH2 0x693 JUMP JUMPDEST DUP1 PUSH1 0x0 JUMPDEST DUP4 DUP2 LT ISZERO PUSH2 0x720 JUMPI DUP2 MLOAD PUSH2 0x707 DUP8 DUP3 PUSH2 0x6AC JUMP JUMPDEST SWAP7 POP PUSH2 0x712 DUP4 PUSH2 0x6C4 JUMP JUMPDEST SWAP3 POP POP PUSH1 0x1 DUP2 ADD SWAP1 POP PUSH2 0x6F3 JUMP JUMPDEST POP POP POP POP POP POP JUMP JUMPDEST PUSH1 0x0 PUSH1 0xA0 DUP3 ADD SWAP1 POP PUSH2 0x73D PUSH1 0x0 DUP4 ADD DUP8 PUSH2 0x5D8 JUMP JUMPDEST PUSH2 0x74A PUSH1 0x20 DUP4 ADD DUP7 PUSH2 0x619 JUMP JUMPDEST DUP2 DUP2 SUB PUSH1 0x40 DUP4 ADD MSTORE PUSH2 0x75C DUP2 DUP6 PUSH2 0x644 JUMP JUMPDEST SWAP1 POP PUSH2 0x76B PUSH1 0x60 DUP4 ADD DUP5 PUSH2 0x6D1 JUMP JUMPDEST SWAP6 SWAP5 POP POP POP POP POP JUMP JUMPDEST PUSH32 0x4E487B7100000000000000000000000000000000000000000000000000000000 PUSH1 0x0 MSTORE PUSH1 0x22 PUSH1 0x4 MSTORE PUSH1 0x24 PUSH1 0x0 REVERT JUMPDEST PUSH1 0x0 PUSH1 0x2 DUP3 DIV SWAP1 POP PUSH1 0x1 DUP3 AND DUP1 PUSH2 0x7BB JUMPI PUSH1 0x7F DUP3 AND SWAP2 POP JUMPDEST PUSH1 0x20 DUP3 LT DUP2 SUB PUSH2 0x7CE JUMPI PUSH2 0x7CD PUSH2 0x774 JUMP JUMPDEST JUMPDEST POP SWAP2 SWAP1 POP JUMP JUMPDEST PUSH1 0x0 DUP2 SWAP1 POP DUP2 PUSH1 0x0 MSTORE PUSH1 0x20 PUSH1 0x0 KECCAK256 SWAP1 POP SWAP2 SWAP1 POP JUMP JUMPDEST PUSH1 0x0 DUP2 SLOAD PUSH2 0x7F6 DUP2 PUSH2 0x7A3 JUMP JUMPDEST PUSH2 0x800 DUP2 DUP7 PUSH2 0x633 JUMP JUMPDEST SWAP5 POP PUSH1 0x1 DUP3 AND PUSH1 0x0 DUP2 EQ PUSH2 0x81B JUMPI PUSH1 0x1 DUP2 EQ PUSH2 0x831 JUMPI PUSH2 0x864 JUMP JUMPDEST PUSH1 0xFF NOT DUP4 AND DUP7 MSTORE DUP2 ISZERO ISZERO PUSH1 0x20 MUL DUP7 ADD SWAP4 POP PUSH2 0x864 JUMP JUMPDEST PUSH2 0x83A DUP6 PUSH2 0x7D4 JUMP JUMPDEST PUSH1 0x0 JUMPDEST DUP4 DUP2 LT ISZERO PUSH2 0x85C JUMPI DUP2 SLOAD DUP2 DUP10 ADD MSTORE PUSH1 0x1 DUP3 ADD SWAP2 POP PUSH1 0x20 DUP2 ADD SWAP1 POP PUSH2 0x83D JUMP JUMPDEST DUP1 DUP9 ADD SWAP6 POP POP POP JUMPDEST POP POP POP SWAP3 SWAP2 POP POP JUMP JUMPDEST PUSH1 0x0 PUSH1 0x2 SWAP1 POP SWAP2 SWAP1 POP JUMP JUMPDEST PUSH1 0x0 DUP2 SWAP1 POP SWAP2 SWAP1 POP JUMP JUMPDEST PUSH1 0x0 DUP2 PUSH1 0x0 SHR SWAP1 POP SWAP2 SWAP1 POP JUMP JUMPDEST PUSH1 0x0 DUP2 SWAP1 POP SWAP2 SWAP1 POP JUMP JUMPDEST PUSH1 0x0 PUSH2 0x8AC PUSH2 0x8A7 DUP4 PUSH2 0x882 JUMP JUMPDEST PUSH2 0x88F JUMP JUMPDEST SWAP1 POP SWAP2 SWAP1 POP JUMP JUMPDEST PUSH1 0x0 PUSH2 0x8BF DUP3 SLOAD PUSH2 0x899 JUMP JUMPDEST SWAP1 POP SWAP2 SWAP1 POP JUMP JUMPDEST PUSH1 0x0 PUSH1 0x1 DUP3 ADD SWAP1 POP SWAP2 SWAP1 POP JUMP JUMPDEST PUSH2 0x8DC DUP2 PUSH2 0x86D JUMP JUMPDEST PUSH2 0x8E6 DUP2 DUP5 PUSH2 0x688 JUMP JUMPDEST SWAP3 POP PUSH2 0x8F1 DUP3 PUSH2 0x878 JUMP JUMPDEST DUP1 PUSH1 0x0 JUMPDEST DUP4 DUP2 LT ISZERO PUSH2 0x929 JUMPI PUSH2 0x906 DUP3 PUSH2 0x8B3 JUMP JUMPDEST PUSH2 0x910 DUP8 DUP3 PUSH2 0x6AC JUMP JUMPDEST SWAP7 POP PUSH2 0x91B DUP4 PUSH2 0x8C6 JUMP JUMPDEST SWAP3 POP POP PUSH1 0x1 DUP2 ADD SWAP1 POP PUSH2 0x8F5 JUMP JUMPDEST POP POP POP POP POP POP JUMP JUMPDEST PUSH1 0x0 PUSH1 0xA0 DUP3 ADD SWAP1 POP PUSH2 0x946 PUSH1 0x0 DUP4 ADD DUP8 PUSH2 0x5D8 JUMP JUMPDEST PUSH2 0x953 PUSH1 0x20 DUP4 ADD DUP7 PUSH2 0x619 JUMP JUMPDEST DUP2 DUP2 SUB PUSH1 0x40 DUP4 ADD MSTORE PUSH2 0x965 DUP2 DUP6 PUSH2 0x7E9 JUMP JUMPDEST SWAP1 POP PUSH2 0x974 PUSH1 0x60 DUP4 ADD DUP5 PUSH2 0x8D3 JUMP JUMPDEST SWAP6 SWAP5 POP POP POP POP POP JUMP JUMPDEST PUSH2 0x986 DUP2 PUSH2 0x5CE JUMP JUMPDEST DUP2 EQ PUSH2 0x991 JUMPI PUSH1 0x0 DUP1 REVERT JUMPDEST POP JUMP JUMPDEST PUSH1 0x0 DUP2 MLOAD SWAP1 POP PUSH2 0x9A3 DUP2 PUSH2 0x97D JUMP JUMPDEST SWAP3 SWAP2 POP POP JUMP JUMPDEST PUSH1 0x0 PUSH2 0x9B4 DUP3 PUSH2 0x5E7 JUMP JUMPDEST SWAP1 POP SWAP2 SWAP1 POP JUMP JUMPDEST PUSH2 0x9C4 DUP2 PUSH2 0x9A9 JUMP JUMPDEST DUP2 EQ PUSH2 0x9CF JUMPI PUSH1 0x0 DUP1 REVERT JUMPDEST POP JUMP JUMPDEST PUSH1 0x0 DUP2 MLOAD SWAP1 POP PUSH2 0x9E1 DUP2 PUSH2 0x9BB JUMP JUMPDEST SWAP3 SWAP2 POP POP JUMP JUMPDEST PUSH1 0x0 PUSH8 0xFFFFFFFFFFFFFFFF DUP3 GT ISZERO PUSH2 0xA02 JUMPI PUSH2 0xA01 PUSH2 0x45A JUMP JUMPDEST JUMPDEST PUSH2 0xA0B DUP3 PUSH2 0x3D0 JUMP JUMPDEST SWAP1 POP PUSH1 0x20 DUP2 ADD SWAP1 POP SWAP2 SWAP1 POP JUMP JUMPDEST PUSH1 0x0 PUSH2 0xA2B PUSH2 0xA26 DUP5 PUSH2 0x9E7 JUMP JUMPDEST PUSH2 0x4BA JUMP JUMPDEST SWAP1 POP DUP3 DUP2 MSTORE PUSH1 0x20 DUP2 ADD DUP5 DUP5 DUP5 ADD GT ISZERO PUSH2 0xA47 JUMPI PUSH2 0xA46 PUSH2 0x455 JUMP JUMPDEST JUMPDEST PUSH2 0xA52 DUP5 DUP3 DUP6 PUSH2 0x3A6 JUMP JUMPDEST POP SWAP4 SWAP3 POP POP POP JUMP JUMPDEST PUSH1 0x0 DUP3 PUSH1 0x1F DUP4 ADD SLT PUSH2 0xA6F JUMPI PUSH2 0xA6E PUSH2 0x450 JUMP JUMPDEST JUMPDEST DUP2 MLOAD PUSH2 0xA7F DUP5 DUP3 PUSH1 0x20 DUP7 ADD PUSH2 0xA18 JUMP JUMPDEST SWAP2 POP POP SWAP3 SWAP2 POP POP JUMP JUMPDEST PUSH1 0x0 PUSH8 0xFFFFFFFFFFFFFFFF DUP3 GT ISZERO PUSH2 0xAA3 JUMPI PUSH2 0xAA2 PUSH2 0x45A JUMP JUMPDEST JUMPDEST PUSH1 0x20 DUP3 MUL SWAP1 POP SWAP2 SWAP1 POP JUMP JUMPDEST PUSH1 0x0 DUP1 REVERT JUMPDEST PUSH1 0x0 PUSH2 0xAC6 PUSH2 0xAC1 DUP5 PUSH2 0xA88 JUMP JUMPDEST PUSH2 0x4BA JUMP JUMPDEST SWAP1 POP DUP1 PUSH1 0x20 DUP5 MUL DUP4 ADD DUP6 DUP2 GT ISZERO PUSH2 0xAE0 JUMPI PUSH2 0xADF PUSH2 0xAAE JUMP JUMPDEST JUMPDEST DUP4 JUMPDEST DUP2 DUP2 LT ISZERO PUSH2 0xB09 JUMPI DUP1 PUSH2 0xAF5 DUP9 DUP3 PUSH2 0x994 JUMP JUMPDEST DUP5 MSTORE PUSH1 0x20 DUP5 ADD SWAP4 POP POP PUSH1 0x20 DUP2 ADD SWAP1 POP PUSH2 0xAE2 JUMP JUMPDEST POP POP POP SWAP4 SWAP3 POP POP POP JUMP JUMPDEST PUSH1 0x0 DUP3 PUSH1 0x1F DUP4 ADD SLT PUSH2 0xB28 JUMPI PUSH2 0xB27 PUSH2 0x450 JUMP JUMPDEST JUMPDEST PUSH1 0x2 PUSH2 0xB35 DUP5 DUP3 DUP6 PUSH2 0xAB3 JUMP JUMPDEST SWAP2 POP POP SWAP3 SWAP2 POP POP JUMP JUMPDEST PUSH1 0x0 DUP1 PUSH1 0x0 DUP1 PUSH1 0xA0 DUP6 DUP8 SUB SLT ISZERO PUSH2 0xB58 JUMPI PUSH2 0xB57 PUSH2 0x446 JUMP JUMPDEST JUMPDEST PUSH1 0x0 PUSH2 0xB66 DUP8 DUP3 DUP9 ADD PUSH2 0x994 JUMP JUMPDEST SWAP5 POP POP PUSH1 0x20 PUSH2 0xB77 DUP8 DUP3 DUP9 ADD PUSH2 0x9D2 JUMP JUMPDEST SWAP4 POP POP PUSH1 0x40 DUP6 ADD MLOAD PUSH8 0xFFFFFFFFFFFFFFFF DUP2 GT ISZERO PUSH2 0xB98 JUMPI PUSH2 0xB97 PUSH2 0x44B JUMP JUMPDEST JUMPDEST PUSH2 0xBA4 DUP8 DUP3 DUP9 ADD PUSH2 0xA5A JUMP JUMPDEST SWAP3 POP POP PUSH1 0x60 PUSH2 0xBB5 DUP8 DUP3 DUP9 ADD PUSH2 0xB13 JUMP JUMPDEST SWAP2 POP POP SWAP3 SWAP6 SWAP2 SWAP5 POP SWAP3 POP JUMP JUMPDEST PUSH1 0x0 DUP2 SWAP1 POP SWAP2 SWAP1 POP JUMP JUMPDEST PUSH2 0xBDC PUSH2 0xBD7 DUP3 PUSH2 0x5CE JUMP JUMPDEST PUSH2 0xBC1 JUMP JUMPDEST DUP3 MSTORE POP POP JUMP JUMPDEST PUSH1 0x0 DUP2 PUSH1 0x60 SHL SWAP1 POP SWAP2 SWAP1 POP JUMP JUMPDEST PUSH1 0x0 PUSH2 0xBFA DUP3 PUSH2 0xBE2 JUMP JUMPDEST SWAP1 POP SWAP2 SWAP1 POP JUMP JUMPDEST PUSH1 0x0 PUSH2 0xC0C DUP3 PUSH2 0xBEF JUMP JUMPDEST SWAP1 POP SWAP2 SWAP1 POP JUMP JUMPDEST PUSH2 0xC24 PUSH2 0xC1F DUP3 PUSH2 0x607 JUMP JUMPDEST PUSH2 0xC01 JUMP JUMPDEST DUP3 MSTORE POP POP JUMP JUMPDEST PUSH1 0x0 DUP2 SWAP1 POP SWAP3 SWAP2 POP POP JUMP JUMPDEST PUSH1 0x0 DUP2 SLOAD PUSH2 0xC42 DUP2 PUSH2 0x7A3 JUMP JUMPDEST PUSH2 0xC4C DUP2 DUP7 PUSH2 0xC2A JUMP JUMPDEST SWAP5 POP PUSH1 0x1 DUP3 AND PUSH1 0x0 DUP2 EQ PUSH2 0xC67 JUMPI PUSH1 0x1 DUP2 EQ PUSH2 0xC7C JUMPI PUSH2 0xCAF JUMP JUMPDEST PUSH1 0xFF NOT DUP4 AND DUP7 MSTORE DUP2 ISZERO ISZERO DUP3 MUL DUP7 ADD SWAP4 POP PUSH2 0xCAF JUMP JUMPDEST PUSH2 0xC85 DUP6 PUSH2 0x7D4 JUMP JUMPDEST PUSH1 0x0 JUMPDEST DUP4 DUP2 LT ISZERO PUSH2 0xCA7 JUMPI DUP2 SLOAD DUP2 DUP10 ADD MSTORE PUSH1 0x1 DUP3 ADD SWAP2 POP PUSH1 0x20 DUP2 ADD SWAP1 POP PUSH2 0xC88 JUMP JUMPDEST DUP4 DUP9 ADD SWAP6 POP POP POP JUMPDEST POP POP POP SWAP3 SWAP2 POP POP JUMP JUMPDEST PUSH1 0x0 DUP2 SWAP1 POP SWAP3 SWAP2 POP POP JUMP JUMPDEST PUSH2 0xCCC DUP2 PUSH2 0x5CE JUMP JUMPDEST DUP3 MSTORE POP POP JUMP JUMPDEST PUSH1 0x0 PUSH2 0xCDE DUP4 DUP4 PUSH2 0xCC3 JUMP JUMPDEST PUSH1 0x20 DUP4 ADD SWAP1 POP SWAP3 SWAP2 POP POP JUMP JUMPDEST PUSH2 0xCF3 DUP2 PUSH2 0x86D JUMP JUMPDEST PUSH2 0xCFD DUP2 DUP5 PUSH2 0xCB8 JUMP JUMPDEST SWAP3 POP PUSH2 0xD08 DUP3 PUSH2 0x878 JUMP JUMPDEST DUP1 PUSH1 0x0 JUMPDEST DUP4 DUP2 LT ISZERO PUSH2 0xD40 JUMPI PUSH2 0xD1D DUP3 PUSH2 0x8B3 JUMP JUMPDEST PUSH2 0xD27 DUP8 DUP3 PUSH2 0xCD2 JUMP JUMPDEST SWAP7 POP PUSH2 0xD32 DUP4 PUSH2 0x8C6 JUMP JUMPDEST SWAP3 POP POP PUSH1 0x1 DUP2 ADD SWAP1 POP PUSH2 0xD0C JUMP JUMPDEST POP POP POP POP POP POP JUMP JUMPDEST PUSH1 0x0 PUSH2 0xD54 DUP3 DUP8 PUSH2 0xBCB JUMP JUMPDEST PUSH1 0x20 DUP3 ADD SWAP2 POP PUSH2 0xD64 DUP3 DUP7 PUSH2 0xC13 JUMP JUMPDEST PUSH1 0x14 DUP3 ADD SWAP2 POP PUSH2 0xD74 DUP3 DUP6 PUSH2 0xC35 JUMP JUMPDEST SWAP2 POP PUSH2 0xD80 DUP3 DUP5 PUSH2 0xCEA JUMP JUMPDEST PUSH1 0x40 DUP3 ADD SWAP2 POP DUP2 SWAP1 POP SWAP6 SWAP5 POP POP POP POP POP JUMP INVALID LOG2 PUSH5 0x6970667358 0x22 SLT KECCAK256 PUSH16 0x441332108AB3BDF16D5512362AAFAE8D 0xBD 0xE6 PUSH4 0x7A138C3D 0xE6 0xE5 0xC2 0xAE SWAP16 0x1F DUP16 DELEGATECALL PUSH5 0x736F6C6343 STOP ADDMOD GT STOP CALLER "
		},
		"gasEstimates": {
			"creation": {
				"codeDepositCost": "705600",
				"executionCost": "infinite",
				"totalCost": "infinite"
			},
			"external": {
				"decode1(bytes)": "infinite",
				"encode()": "infinite",
				"encode2()": "infinite",
				"encode3()": "infinite",
				"encode4()": "infinite"
			}
		},
		"methodIdentifiers": {
			"decode1(bytes)": "bac1d572",
			"encode()": "bd14598f",
			"encode2()": "bed7532c",
			"encode3()": "f7d13ab0",
			"encode4()": "b55ffc04"
		}
	},
	"abi": [
		{
			"inputs": [
				{
					"internalType": "bytes",
					"name": "data",
					"type": "bytes"
				}
			],
			"name": "decode1",
			"outputs": [
				{
					"internalType": "uint256",
					"name": "dx",
					"type": "uint256"
				},
				{
					"internalType": "address",
					"name": "daddr",
					"type": "address"
				},
				{
					"internalType": "string",
					"name": "dname",
					"type": "string"
				},
				{
					"internalType": "uint256[2]",
					"name": "darray",
					"type": "uint256[2]"
				}
			],
			"stateMutability": "pure",
			"type": "function"
		},
		{
			"inputs": [],
			"name": "encode",
			"outputs": [
				{
					"internalType": "bytes",
					"name": "result",
					"type": "bytes"
				}
			],
			"stateMutability": "view",
			"type": "function"
		},
		{
			"inputs": [],
			"name": "encode2",
			"outputs": [
				{
					"internalType": "bytes",
					"name": "result",
					"type": "bytes"
				}
			],
			"stateMutability": "view",
			"type": "function"
		},
		{
			"inputs": [],
			"name": "encode3",
			"outputs": [
				{
					"internalType": "bytes",
					"name": "result",
					"type": "bytes"
				}
			],
			"stateMutability": "view",
			"type": "function"
		},
		{
			"inputs": [],
			"name": "encode4",
			"outputs": [
				{
					"internalType": "bytes",
					"name": "result",
					"type": "bytes"
				}
			],
			"stateMutability": "view",
			"type": "function"
		}
	]
}