{
	"data": {
		"bytecode": {
			"linkReferences": {},
			"object": "608060405234801561001057600080fd5b506103f8806100206000396000f3fe6080604052600436106100345760003560e01c80633ca065bb1461003957806366563e6914610062578063673682b21461009f575b600080fd5b34801561004557600080fd5b50610060600480360381019061005b91906102ab565b6100bb565b005b34801561006e57600080fd5b5061008960048036038101906100849190610329565b61012a565b6040516100969190610365565b60405180910390f35b6100b960048036038101906100b491906102ab565b6101a2565b005b8173ffffffffffffffffffffffffffffffffffffffff16634018d9aa826040518263ffffffff1660e01b81526004016100f49190610365565b600060405180830381600087803b15801561010e57600080fd5b505af1158015610122573d6000803e3d6000fd5b505050505050565b60008173ffffffffffffffffffffffffffffffffffffffff16635197c7aa6040518163ffffffff1660e01b8152600401602060405180830381865afa158015610177573d6000803e3d6000fd5b505050506040513d601f19601f8201168201806040525081019061019b9190610395565b9050919050565b8173ffffffffffffffffffffffffffffffffffffffff16634018d9aa34836040518363ffffffff1660e01b81526004016101dc9190610365565b6000604051808303818588803b1580156101f557600080fd5b505af1158015610209573d6000803e3d6000fd5b50505050505050565b600080fd5b600073ffffffffffffffffffffffffffffffffffffffff82169050919050565b600061024282610217565b9050919050565b61025281610237565b811461025d57600080fd5b50565b60008135905061026f81610249565b92915050565b6000819050919050565b61028881610275565b811461029357600080fd5b50565b6000813590506102a58161027f565b92915050565b600080604083850312156102c2576102c1610212565b5b60006102d085828601610260565b92505060206102e185828601610296565b9150509250929050565b60006102f682610237565b9050919050565b610306816102eb565b811461031157600080fd5b50565b600081359050610323816102fd565b92915050565b60006020828403121561033f5761033e610212565b5b600061034d84828501610314565b91505092915050565b61035f81610275565b82525050565b600060208201905061037a6000830184610356565b92915050565b60008151905061038f8161027f565b92915050565b6000602082840312156103ab576103aa610212565b5b60006103b984828501610380565b9150509291505056fea26469706673582212209c6cb17f839e3c29d8d79fc001701875417e7004bb191ad3a98e66189f00820b64736f6c63430008120033",
			"opcodes": "PUSH1 0x80 PUSH1 0x40 MSTORE CALLVALUE DUP1 ISZERO PUSH2 0x10 JUMPI PUSH1 0x0 DUP1 REVERT JUMPDEST POP PUSH2 0x3F8 DUP1 PUSH2 0x20 PUSH1 0x0 CODECOPY PUSH1 0x0 RETURN INVALID PUSH1 0x80 PUSH1 0x40 MSTORE PUSH1 0x4 CALLDATASIZE LT PUSH2 0x34 JUMPI PUSH1 0x0 CALLDATALOAD PUSH1 0xE0 SHR DUP1 PUSH4 0x3CA065BB EQ PUSH2 0x39 JUMPI DUP1 PUSH4 0x66563E69 EQ PUSH2 0x62 JUMPI DUP1 PUSH4 0x673682B2 EQ PUSH2 0x9F JUMPI JUMPDEST PUSH1 0x0 DUP1 REVERT JUMPDEST CALLVALUE DUP1 ISZERO PUSH2 0x45 JUMPI PUSH1 0x0 DUP1 REVERT JUMPDEST POP PUSH2 0x60 PUSH1 0x4 DUP1 CALLDATASIZE SUB DUP2 ADD SWAP1 PUSH2 0x5B SWAP2 SWAP1 PUSH2 0x2AB JUMP JUMPDEST PUSH2 0xBB JUMP JUMPDEST STOP JUMPDEST CALLVALUE DUP1 ISZERO PUSH2 0x6E JUMPI PUSH1 0x0 DUP1 REVERT JUMPDEST POP PUSH2 0x89 PUSH1 0x4 DUP1 CALLDATASIZE SUB DUP2 ADD SWAP1 PUSH2 0x84 SWAP2 SWAP1 PUSH2 0x329 JUMP JUMPDEST PUSH2 0x12A JUMP JUMPDEST PUSH1 0x40 MLOAD PUSH2 0x96 SWAP2 SWAP1 PUSH2 0x365 JUMP JUMPDEST PUSH1 0x40 MLOAD DUP1 SWAP2 SUB SWAP1 RETURN JUMPDEST PUSH2 0xB9 PUSH1 0x4 DUP1 CALLDATASIZE SUB DUP2 ADD SWAP1 PUSH2 0xB4 SWAP2 SWAP1 PUSH2 0x2AB JUMP JUMPDEST PUSH2 0x1A2 JUMP JUMPDEST STOP JUMPDEST DUP2 PUSH20 0xFFFFFFFFFFFFFFFFFFFFFFFFFFFFFFFFFFFFFFFF AND PUSH4 0x4018D9AA DUP3 PUSH1 0x40 MLOAD DUP3 PUSH4 0xFFFFFFFF AND PUSH1 0xE0 SHL DUP2 MSTORE PUSH1 0x4 ADD PUSH2 0xF4 SWAP2 SWAP1 PUSH2 0x365 JUMP JUMPDEST PUSH1 0x0 PUSH1 0x40 MLOAD DUP1 DUP4 SUB DUP2 PUSH1 0x0 DUP8 DUP1 EXTCODESIZE ISZERO DUP1 ISZERO PUSH2 0x10E JUMPI PUSH1 0x0 DUP1 REVERT JUMPDEST POP GAS CALL ISZERO DUP1 ISZERO PUSH2 0x122 JUMPI RETURNDATASIZE PUSH1 0x0 DUP1 RETURNDATACOPY RETURNDATASIZE PUSH1 0x0 REVERT JUMPDEST POP POP POP POP POP POP JUMP JUMPDEST PUSH1 0x0 DUP2 PUSH20 0xFFFFFFFFFFFFFFFFFFFFFFFFFFFFFFFFFFFFFFFF AND PUSH4 0x5197C7AA PUSH1 0x40 MLOAD DUP2 PUSH4 0xFFFFFFFF AND PUSH1 0xE0 SHL DUP2 MSTORE PUSH1 0x4 ADD PUSH1 0x20 PUSH1 0x40 MLOAD DUP1 DUP4 SUB DUP2 DUP7 GAS STATICCALL ISZERO DUP1 ISZERO PUSH2 0x177 JUMPI RETURNDATASIZE PUSH1 0x0 DUP1 RETURNDATACOPY RETURNDATASIZE PUSH1 0x0 REVERT JUMPDEST POP POP POP POP PUSH1 0x40 MLOAD RETURNDATASIZE PUSH1 0x1F NOT PUSH1 0x1F DUP3 ADD AND DUP3 ADD DUP1 PUSH1 0x40 MSTORE POP DUP2 ADD SWAP1 PUSH2 0x19B SWAP2 SWAP1 PUSH2 0x395 JUMP JUMPDEST SWAP1 POP SWAP2 SWAP1 POP JUMP JUMPDEST DUP2 PUSH20 0xFFFFFFFFFFFFFFFFFFFFFFFFFFFFFFFFFFFFFFFF AND PUSH4 0x4018D9AA CALLVALUE DUP4 PUSH1 0x40 MLOAD DUP4 PUSH4 0xFFFFFFFF AND PUSH1 0xE0 SHL DUP2 MSTORE PUSH1 0x4 ADD PUSH2 0x1DC SWAP2 SWAP1 PUSH2 0x365 JUMP JUMPDEST PUSH1 0x0 PUSH1 0x40 MLOAD DUP1 DUP4 SUB DUP2 DUP6 DUP9 DUP1 EXTCODESIZE ISZERO DUP1 ISZERO PUSH2 0x1F5 JUMPI PUSH1 0x0 DUP1 REVERT JUMPDEST POP GAS CALL ISZERO DUP1 ISZERO PUSH2 0x209 JUMPI RETURNDATASIZE PUSH1 0x0 DUP1 RETURNDATACOPY RETURNDATASIZE PUSH1 0x0 REVERT JUMPDEST POP POP POP POP POP POP POP JUMP JUMPDEST PUSH1 0x0 DUP1 REVERT JUMPDEST PUSH1 0x0 PUSH20 0xFFFFFFFFFFFFFFFFFFFFFFFFFFFFFFFFFFFFFFFF DUP3 AND SWAP1 POP SWAP2 SWAP1 POP JUMP JUMPDEST PUSH1 0x0 PUSH2 0x242 DUP3 PUSH2 0x217 JUMP JUMPDEST SWAP1 POP SWAP2 SWAP1 POP JUMP JUMPDEST PUSH2 0x252 DUP2 PUSH2 0x237 JUMP JUMPDEST DUP2 EQ PUSH2 0x25D JUMPI PUSH1 0x0 DUP1 REVERT JUMPDEST POP JUMP JUMPDEST PUSH1 0x0 DUP2 CALLDATALOAD SWAP1 POP PUSH2 0x26F DUP2 PUSH2 0x249 JUMP JUMPDEST SWAP3 SWAP2 POP POP JUMP JUMPDEST PUSH1 0x0 DUP2 SWAP1 POP SWAP2 SWAP1 POP JUMP JUMPDEST PUSH2 0x288 DUP2 PUSH2 0x275 JUMP JUMPDEST DUP2 EQ PUSH2 0x293 JUMPI PUSH1 0x0 DUP1 REVERT JUMPDEST POP JUMP JUMPDEST PUSH1 0x0 DUP2 CALLDATALOAD SWAP1 POP PUSH2 0x2A5 DUP2 PUSH2 0x27F JUMP JUMPDEST SWAP3 SWAP2 POP POP JUMP JUMPDEST PUSH1 0x0 DUP1 PUSH1 0x40 DUP4 DUP6 SUB SLT ISZERO PUSH2 0x2C2 JUMPI PUSH2 0x2C1 PUSH2 0x212 JUMP JUMPDEST JUMPDEST PUSH1 0x0 PUSH2 0x2D0 DUP6 DUP3 DUP7 ADD PUSH2 0x260 JUMP JUMPDEST SWAP3 POP POP PUSH1 0x20 PUSH2 0x2E1 DUP6 DUP3 DUP7 ADD PUSH2 0x296 JUMP JUMPDEST SWAP2 POP POP SWAP3 POP SWAP3 SWAP1 POP JUMP JUMPDEST PUSH1 0x0 PUSH2 0x2F6 DUP3 PUSH2 0x237 JUMP JUMPDEST SWAP1 POP SWAP2 SWAP1 POP JUMP JUMPDEST PUSH2 0x306 DUP2 PUSH2 0x2EB JUMP JUMPDEST DUP2 EQ PUSH2 0x311 JUMPI PUSH1 0x0 DUP1 REVERT JUMPDEST POP JUMP JUMPDEST PUSH1 0x0 DUP2 CALLDATALOAD SWAP1 POP PUSH2 0x323 DUP2 PUSH2 0x2FD JUMP JUMPDEST SWAP3 SWAP2 POP POP JUMP JUMPDEST PUSH1 0x0 PUSH1 0x20 DUP3 DUP5 SUB SLT ISZERO PUSH2 0x33F JUMPI PUSH2 0x33E PUSH2 0x212 JUMP JUMPDEST JUMPDEST PUSH1 0x0 PUSH2 0x34D DUP5 DUP3 DUP6 ADD PUSH2 0x314 JUMP JUMPDEST SWAP2 POP POP SWAP3 SWAP2 POP POP JUMP JUMPDEST PUSH2 0x35F DUP2 PUSH2 0x275 JUMP JUMPDEST DUP3 MSTORE POP POP JUMP JUMPDEST PUSH1 0x0 PUSH1 0x20 DUP3 ADD SWAP1 POP PUSH2 0x37A PUSH1 0x0 DUP4 ADD DUP5 PUSH2 0x356 JUMP JUMPDEST SWAP3 SWAP2 POP POP JUMP JUMPDEST PUSH1 0x0 DUP2 MLOAD SWAP1 POP PUSH2 0x38F DUP2 PUSH2 0x27F JUMP JUMPDEST SWAP3 SWAP2 POP POP JUMP JUMPDEST PUSH1 0x0 PUSH1 0x20 DUP3 DUP5 SUB SLT ISZERO PUSH2 0x3AB JUMPI PUSH2 0x3AA PUSH2 0x212 JUMP JUMPDEST JUMPDEST PUSH1 0x0 PUSH2 0x3B9 DUP5 DUP3 DUP6 ADD PUSH2 0x380 JUMP JUMPDEST SWAP2 POP POP SWAP3 SWAP2 POP POP JUMP INVALID LOG2 PUSH5 0x6970667358 0x22 SLT KECCAK256 SWAP13 PUSH13 0xB17F839E3C29D8D79FC0017018 PUSH22 0x417E7004BB191AD3A98E66189F00820B64736F6C6343 STOP ADDMOD SLT STOP CALLER "
		},
		"gasEstimates": {
			"creation": {
				"codeDepositCost": "203200",
				"executionCost": "245",
				"totalCost": "203445"
			},
			"external": {
				"callGetX(address)": "infinite",
				"callSetX(address,uint256)": "infinite",
				"setXTranETH(address,uint256)": "infinite"
			}
		},
		"methodIdentifiers": {
			"callGetX(address)": "66563e69",
			"callSetX(address,uint256)": "3ca065bb",
			"setXTranETH(address,uint256)": "673682b2"
		}
	},
	"abi": [
		{
			"inputs": [
				{
					"internalType": "contract Feidian",
					"name": "_addr",
					"type": "address"
				}
			],
			"name": "callGetX",
			"outputs": [
				{
					"internalType": "uint256",
					"name": "x",
					"type": "uint256"
				}
			],
			"stateMutability": "view",
			"type": "function"
		},
		{
			"inputs": [
				{
					"internalType": "address payable",
					"name": "feidianAddr",
					"type": "address"
				},
				{
					"internalType": "uint256",
					"name": "num",
					"type": "uint256"
				}
			],
			"name": "callSetX",
			"outputs": [],
			"stateMutability": "nonpayable",
			"type": "function"
		},
		{
			"inputs": [
				{
					"internalType": "address payable",
					"name": "feidianAddr",
					"type": "address"
				},
				{
					"internalType": "uint256",
					"name": "amount",
					"type": "uint256"
				}
			],
			"name": "setXTranETH",
			"outputs": [],
			"stateMutability": "payable",
			"type": "function"
		}
	]
}