{
	"data": {
		"bytecode": {
			"linkReferences": {},
			"object": "60806040523480156200001157600080fd5b506040518060400160405280601181526020017f57544620447574636820417563746f696e0000000000000000000000000000008152506040518060400160405280601181526020017f57544620447574636820417563746f696e0000000000000000000000000000008152506200009e62000092620000d160201b60201c565b620000d960201b60201c565b8160019081620000af919062000417565b508060029081620000c1919062000417565b50505042600781905550620004fe565b600033905090565b60008060009054906101000a900473ffffffffffffffffffffffffffffffffffffffff169050816000806101000a81548173ffffffffffffffffffffffffffffffffffffffff021916908373ffffffffffffffffffffffffffffffffffffffff1602179055508173ffffffffffffffffffffffffffffffffffffffff168173ffffffffffffffffffffffffffffffffffffffff167f8be0079c531659141344cd1fd0a4f28419497f9722a3daafe3b4186f6b6457e060405160405180910390a35050565b600081519050919050565b7f4e487b7100000000000000000000000000000000000000000000000000000000600052604160045260246000fd5b7f4e487b7100000000000000000000000000000000000000000000000000000000600052602260045260246000fd5b600060028204905060018216806200021f57607f821691505b602082108103620002355762000234620001d7565b5b50919050565b60008190508160005260206000209050919050565b60006020601f8301049050919050565b600082821b905092915050565b6000600883026200029f7fffffffffffffffffffffffffffffffffffffffffffffffffffffffffffffffff8262000260565b620002ab868362000260565b95508019841693508086168417925050509392505050565b6000819050919050565b6000819050919050565b6000620002f8620002f2620002ec84620002c3565b620002cd565b620002c3565b9050919050565b6000819050919050565b6200031483620002d7565b6200032c6200032382620002ff565b8484546200026d565b825550505050565b600090565b6200034362000334565b6200035081848462000309565b505050565b5b8181101562000378576200036c60008262000339565b60018101905062000356565b5050565b601f821115620003c75762000391816200023b565b6200039c8462000250565b81016020851015620003ac578190505b620003c4620003bb8562000250565b83018262000355565b50505b505050565b600082821c905092915050565b6000620003ec60001984600802620003cc565b1980831691505092915050565b6000620004078383620003d9565b9150826002028217905092915050565b62000422826200019d565b67ffffffffffffffff8111156200043e576200043d620001a8565b5b6200044a825462000206565b620004578282856200037c565b600060209050601f8311600181146200048f57600084156200047a578287015190505b620004868582620003f9565b865550620004f6565b601f1984166200049f866200023b565b60005b82811015620004c957848901518255600182019150602085019450602081019050620004a2565b86831015620004e95784890151620004e5601f891682620003d9565b8355505b6001600288020188555050505b505050505050565b6137a0806200050e6000396000f3fe6080604052600436106101c25760003560e01c80636352211e116100f7578063ac44600211610095578063cfb07ccc11610064578063cfb07ccc1461060f578063e985e9c51461064c578063f2fde38b14610689578063f8a987d8146106b2576101c2565b8063ac44600214610567578063b88d4fde1461057e578063c87b56dd146105a7578063caf8a6d1146105e4576101c2565b80637a1c4a56116100d15780637a1c4a56146104bd5780638da5cb5b146104e857806395d89b4114610513578063a22cb4651461053e576101c2565b80636352211e1461042c57806370a0823114610469578063715018a6146104a6576101c2565b806323b872dd1161016457806342842e0e1161013e57806342842e0e1461038457806355f804b3146103ad57806359f369fe146103d65780635cae01d314610401576101c2565b806323b872dd146103145780632d6187d21461033d5780633ad46bf414610359576101c2565b8063081812fc116101a0578063081812fc14610258578063095ea7b31461029557806318160ddd146102be5780632100e6c1146102e9576101c2565b806301595266146101c757806301ffc9a7146101f057806306fdde031461022d575b600080fd5b3480156101d357600080fd5b506101ee60048036038101906101e9919061229d565b6106dd565b005b3480156101fc57600080fd5b5061021760048036038101906102129190612322565b6106f5565b604051610224919061236a565b60405180910390f35b34801561023957600080fd5b506102426107d7565b60405161024f9190612415565b60405180910390f35b34801561026457600080fd5b5061027f600480360381019061027a919061246d565b610869565b60405161028c91906124db565b60405180910390f35b3480156102a157600080fd5b506102bc60048036038101906102b79190612522565b6108af565b005b3480156102ca57600080fd5b506102d36109c6565b6040516102e09190612571565b60405180910390f35b3480156102f557600080fd5b506102fe6109d3565b60405161030b9190612571565b60405180910390f35b34801561032057600080fd5b5061033b6004803603810190610336919061258c565b6109da565b005b6103576004803603810190610352919061246d565b610a3a565b005b34801561036557600080fd5b5061036e610be3565b60405161037b9190612571565b60405180910390f35b34801561039057600080fd5b506103ab60048036038101906103a6919061258c565b610be9565b005b3480156103b957600080fd5b506103d460048036038101906103cf9190612644565b610c09565b005b3480156103e257600080fd5b506103eb610c27565b6040516103f89190612571565b60405180910390f35b34801561040d57600080fd5b50610416610c5e565b6040516104239190612571565b60405180910390f35b34801561043857600080fd5b50610453600480360381019061044e919061246d565b610c63565b60405161046091906124db565b60405180910390f35b34801561047557600080fd5b50610490600480360381019061048b9190612691565b610ce9565b60405161049d9190612571565b60405180910390f35b3480156104b257600080fd5b506104bb610da0565b005b3480156104c957600080fd5b506104d2610db4565b6040516104df9190612571565b60405180910390f35b3480156104f457600080fd5b506104fd610dc0565b60405161050a91906124db565b60405180910390f35b34801561051f57600080fd5b50610528610de9565b6040516105359190612415565b60405180910390f35b34801561054a57600080fd5b50610565600480360381019061056091906126ea565b610e7b565b005b34801561057357600080fd5b5061057c610e91565b005b34801561058a57600080fd5b506105a560048036038101906105a0919061285a565b610f48565b005b3480156105b357600080fd5b506105ce60048036038101906105c9919061246d565b610faa565b6040516105db9190612415565b60405180910390f35b3480156105f057600080fd5b506105f9611012565b6040516106069190612571565b60405180910390f35b34801561061b57600080fd5b506106366004803603810190610631919061246d565b61101d565b6040516106439190612571565b60405180910390f35b34801561065857600080fd5b50610673600480360381019061066e91906128dd565b6110d2565b604051610680919061236a565b60405180910390f35b34801561069557600080fd5b506106b060048036038101906106ab9190612691565b611166565b005b3480156106be57600080fd5b506106c76111e9565b6040516106d49190612571565b60405180910390f35b6106e56111ef565b8063ffffffff1660078190555050565b60007f80ac58cd000000000000000000000000000000000000000000000000000000007bffffffffffffffffffffffffffffffffffffffffffffffffffffffff1916827bffffffffffffffffffffffffffffffffffffffffffffffffffffffff191614806107c057507f5b5e139f000000000000000000000000000000000000000000000000000000007bffffffffffffffffffffffffffffffffffffffffffffffffffffffff1916827bffffffffffffffffffffffffffffffffffffffffffffffffffffffff1916145b806107d057506107cf8261126d565b5b9050919050565b6060600180546107e69061294c565b80601f01602080910402602001604051908101604052809291908181526020018280546108129061294c565b801561085f5780601f106108345761010080835404028352916020019161085f565b820191906000526020600020905b81548152906001019060200180831161084257829003601f168201915b5050505050905090565b6000610874826112d7565b6005600083815260200190815260200160002060009054906101000a900473ffffffffffffffffffffffffffffffffffffffff169050919050565b60006108ba82610c63565b90508073ffffffffffffffffffffffffffffffffffffffff168373ffffffffffffffffffffffffffffffffffffffff160361092a576040517f08c379a0000000000000000000000000000000000000000000000000000000008152600401610921906129ef565b60405180910390fd5b8073ffffffffffffffffffffffffffffffffffffffff16610949611322565b73ffffffffffffffffffffffffffffffffffffffff161480610978575061097781610972611322565b6110d2565b5b6109b7576040517f08c379a00000000000000000000000000000000000000000000000000000000081526004016109ae90612a81565b60405180910390fd5b6109c1838361132a565b505050565b6000600980549050905090565b620186a081565b6109eb6109e5611322565b826113e3565b610a2a576040517f08c379a0000000000000000000000000000000000000000000000000000000008152600401610a2190612b13565b60405180910390fd5b610a35838383611478565b505050565b6000600754905060008114158015610a525750804210155b610a91576040517f08c379a0000000000000000000000000000000000000000000000000000000008152600401610a8890612b7f565b60405180910390fd5b620186a082610a9e6109c6565b610aa89190612bce565b1115610ae9576040517f08c379a0000000000000000000000000000000000000000000000000000000008152600401610ae090612c4e565b60405180910390fd5b600082610af58361101d565b610aff9190612c6e565b905080341015610b44576040517f08c379a0000000000000000000000000000000000000000000000000000000008152600401610b3b90612cfc565b60405180910390fd5b60005b83811015610b82576000610b596109c6565b9050610b653382611771565b610b6e8161198e565b508080610b7a90612d1c565b915050610b47565b5080341115610bde573373ffffffffffffffffffffffffffffffffffffffff166108fc8234610bb19190612d64565b9081150290604051600060405180830381858888f19350505050158015610bdc573d6000803e3d6000fd5b505b505050565b60075481565b610c0483838360405180602001604052806000815250610f48565b505050565b610c116111ef565b818160089182610c22929190612f4f565b505050565b60786107f8610c36919061304e565b66354a6ba7a1800067016345785d8a0000610c519190612d64565b610c5b919061304e565b81565b607881565b600080610c6f836119ba565b9050600073ffffffffffffffffffffffffffffffffffffffff168173ffffffffffffffffffffffffffffffffffffffff1603610ce0576040517f08c379a0000000000000000000000000000000000000000000000000000000008152600401610cd7906130cb565b60405180910390fd5b80915050919050565b60008073ffffffffffffffffffffffffffffffffffffffff168273ffffffffffffffffffffffffffffffffffffffff1603610d59576040517f08c379a0000000000000000000000000000000000000000000000000000000008152600401610d509061315d565b60405180910390fd5b600460008373ffffffffffffffffffffffffffffffffffffffff1673ffffffffffffffffffffffffffffffffffffffff168152602001908152602001600020549050919050565b610da86111ef565b610db260006119f7565b565b67016345785d8a000081565b60008060009054906101000a900473ffffffffffffffffffffffffffffffffffffffff16905090565b606060028054610df89061294c565b80601f0160208091040260200160405190810160405280929190818152602001828054610e249061294c565b8015610e715780601f10610e4657610100808354040283529160200191610e71565b820191906000526020600020905b815481529060010190602001808311610e5457829003601f168201915b5050505050905090565b610e8d610e86611322565b8383611abb565b5050565b610e996111ef565b60003373ffffffffffffffffffffffffffffffffffffffff1647604051610ebf906131ae565b60006040518083038185875af1925050503d8060008114610efc576040519150601f19603f3d011682016040523d82523d6000602084013e610f01565b606091505b5050905080610f45576040517f08c379a0000000000000000000000000000000000000000000000000000000008152600401610f3c9061320f565b60405180910390fd5b50565b610f59610f53611322565b836113e3565b610f98576040517f08c379a0000000000000000000000000000000000000000000000000000000008152600401610f8f90612b13565b60405180910390fd5b610fa484848484611c27565b50505050565b6060610fb5826112d7565b6000610fbf611c83565b90506000815111610fdf576040518060200160405280600081525061100a565b80610fe984611d15565b604051602001610ffa92919061326b565b6040516020818303038152906040525b915050919050565b66354a6ba7a1800081565b6000814210156110375767016345785d8a000090506110cd565b6107f882426110469190612d64565b111561105b5766354a6ba7a1800090506110cd565b60006078834261106b9190612d64565b611075919061304e565b905060786107f8611086919061304e565b66354a6ba7a1800067016345785d8a00006110a19190612d64565b6110ab919061304e565b816110b69190612c6e565b67016345785d8a00006110c99190612d64565b9150505b919050565b6000600660008473ffffffffffffffffffffffffffffffffffffffff1673ffffffffffffffffffffffffffffffffffffffff16815260200190815260200160002060008373ffffffffffffffffffffffffffffffffffffffff1673ffffffffffffffffffffffffffffffffffffffff16815260200190815260200160002060009054906101000a900460ff16905092915050565b61116e6111ef565b600073ffffffffffffffffffffffffffffffffffffffff168173ffffffffffffffffffffffffffffffffffffffff16036111dd576040517f08c379a00000000000000000000000000000000000000000000000000000000081526004016111d490613301565b60405180910390fd5b6111e6816119f7565b50565b6107f881565b6111f7611322565b73ffffffffffffffffffffffffffffffffffffffff16611215610dc0565b73ffffffffffffffffffffffffffffffffffffffff161461126b576040517f08c379a00000000000000000000000000000000000000000000000000000000081526004016112629061336d565b60405180910390fd5b565b60007f01ffc9a7000000000000000000000000000000000000000000000000000000007bffffffffffffffffffffffffffffffffffffffffffffffffffffffff1916827bffffffffffffffffffffffffffffffffffffffffffffffffffffffff1916149050919050565b6112e081611de3565b61131f576040517f08c379a0000000000000000000000000000000000000000000000000000000008152600401611316906130cb565b60405180910390fd5b50565b600033905090565b816005600083815260200190815260200160002060006101000a81548173ffffffffffffffffffffffffffffffffffffffff021916908373ffffffffffffffffffffffffffffffffffffffff160217905550808273ffffffffffffffffffffffffffffffffffffffff1661139d83610c63565b73ffffffffffffffffffffffffffffffffffffffff167f8c5be1e5ebec7d5bd14f71427d1e84f3dd0314c0f7b2291e5b200ac8c7c3b92560405160405180910390a45050565b6000806113ef83610c63565b90508073ffffffffffffffffffffffffffffffffffffffff168473ffffffffffffffffffffffffffffffffffffffff161480611431575061143081856110d2565b5b8061146f57508373ffffffffffffffffffffffffffffffffffffffff1661145784610869565b73ffffffffffffffffffffffffffffffffffffffff16145b91505092915050565b8273ffffffffffffffffffffffffffffffffffffffff1661149882610c63565b73ffffffffffffffffffffffffffffffffffffffff16146114ee576040517f08c379a00000000000000000000000000000000000000000000000000000000081526004016114e5906133ff565b60405180910390fd5b600073ffffffffffffffffffffffffffffffffffffffff168273ffffffffffffffffffffffffffffffffffffffff160361155d576040517f08c379a000000000000000000000000000000000000000000000000000000000815260040161155490613491565b60405180910390fd5b61156a8383836001611e24565b8273ffffffffffffffffffffffffffffffffffffffff1661158a82610c63565b73ffffffffffffffffffffffffffffffffffffffff16146115e0576040517f08c379a00000000000000000000000000000000000000000000000000000000081526004016115d7906133ff565b60405180910390fd5b6005600082815260200190815260200160002060006101000a81549073ffffffffffffffffffffffffffffffffffffffff02191690556001600460008573ffffffffffffffffffffffffffffffffffffffff1673ffffffffffffffffffffffffffffffffffffffff168152602001908152602001600020600082825403925050819055506001600460008473ffffffffffffffffffffffffffffffffffffffff1673ffffffffffffffffffffffffffffffffffffffff16815260200190815260200160002060008282540192505081905550816003600083815260200190815260200160002060006101000a81548173ffffffffffffffffffffffffffffffffffffffff021916908373ffffffffffffffffffffffffffffffffffffffff160217905550808273ffffffffffffffffffffffffffffffffffffffff168473ffffffffffffffffffffffffffffffffffffffff167fddf252ad1be2c89b69c2b068fc378daa952ba7f163c4a11628f55a4df523b3ef60405160405180910390a461176c8383836001611f4a565b505050565b600073ffffffffffffffffffffffffffffffffffffffff168273ffffffffffffffffffffffffffffffffffffffff16036117e0576040517f08c379a00000000000000000000000000000000000000000000000000000000081526004016117d7906134fd565b60405180910390fd5b6117e981611de3565b15611829576040517f08c379a000000000000000000000000000000000000000000000000000000000815260040161182090613569565b60405180910390fd5b611837600083836001611e24565b61184081611de3565b15611880576040517f08c379a000000000000000000000000000000000000000000000000000000000815260040161187790613569565b60405180910390fd5b6001600460008473ffffffffffffffffffffffffffffffffffffffff1673ffffffffffffffffffffffffffffffffffffffff16815260200190815260200160002060008282540192505081905550816003600083815260200190815260200160002060006101000a81548173ffffffffffffffffffffffffffffffffffffffff021916908373ffffffffffffffffffffffffffffffffffffffff160217905550808273ffffffffffffffffffffffffffffffffffffffff16600073ffffffffffffffffffffffffffffffffffffffff167fddf252ad1be2c89b69c2b068fc378daa952ba7f163c4a11628f55a4df523b3ef60405160405180910390a461198a600083836001611f4a565b5050565b600981908060018154018082558091505060019003906000526020600020016000909190919091505550565b60006003600083815260200190815260200160002060009054906101000a900473ffffffffffffffffffffffffffffffffffffffff169050919050565b60008060009054906101000a900473ffffffffffffffffffffffffffffffffffffffff169050816000806101000a81548173ffffffffffffffffffffffffffffffffffffffff021916908373ffffffffffffffffffffffffffffffffffffffff1602179055508173ffffffffffffffffffffffffffffffffffffffff168173ffffffffffffffffffffffffffffffffffffffff167f8be0079c531659141344cd1fd0a4f28419497f9722a3daafe3b4186f6b6457e060405160405180910390a35050565b8173ffffffffffffffffffffffffffffffffffffffff168373ffffffffffffffffffffffffffffffffffffffff1603611b29576040517f08c379a0000000000000000000000000000000000000000000000000000000008152600401611b20906135d5565b60405180910390fd5b80600660008573ffffffffffffffffffffffffffffffffffffffff1673ffffffffffffffffffffffffffffffffffffffff16815260200190815260200160002060008473ffffffffffffffffffffffffffffffffffffffff1673ffffffffffffffffffffffffffffffffffffffff16815260200190815260200160002060006101000a81548160ff0219169083151502179055508173ffffffffffffffffffffffffffffffffffffffff168373ffffffffffffffffffffffffffffffffffffffff167f17307eab39ab6107e8899845ad3d59bd9653f200f220920489ca2b5937696c3183604051611c1a919061236a565b60405180910390a3505050565b611c32848484611478565b611c3e84848484611f50565b611c7d576040517f08c379a0000000000000000000000000000000000000000000000000000000008152600401611c7490613667565b60405180910390fd5b50505050565b606060088054611c929061294c565b80601f0160208091040260200160405190810160405280929190818152602001828054611cbe9061294c565b8015611d0b5780601f10611ce057610100808354040283529160200191611d0b565b820191906000526020600020905b815481529060010190602001808311611cee57829003601f168201915b5050505050905090565b606060006001611d24846120d7565b01905060008167ffffffffffffffff811115611d4357611d4261272f565b5b6040519080825280601f01601f191660200182016040528015611d755781602001600182028036833780820191505090505b509050600082602001820190505b600115611dd8578080600190039150507f3031323334353637383961626364656600000000000000000000000000000000600a86061a8153600a8581611dcc57611dcb61301f565b5b04945060008503611d83575b819350505050919050565b60008073ffffffffffffffffffffffffffffffffffffffff16611e05836119ba565b73ffffffffffffffffffffffffffffffffffffffff1614159050919050565b6001811115611f4457600073ffffffffffffffffffffffffffffffffffffffff168473ffffffffffffffffffffffffffffffffffffffff1614611eb85780600460008673ffffffffffffffffffffffffffffffffffffffff1673ffffffffffffffffffffffffffffffffffffffff1681526020019081526020016000206000828254611eb09190612d64565b925050819055505b600073ffffffffffffffffffffffffffffffffffffffff168373ffffffffffffffffffffffffffffffffffffffff1614611f435780600460008573ffffffffffffffffffffffffffffffffffffffff1673ffffffffffffffffffffffffffffffffffffffff1681526020019081526020016000206000828254611f3b9190612bce565b925050819055505b5b50505050565b50505050565b6000611f718473ffffffffffffffffffffffffffffffffffffffff1661222a565b156120ca578373ffffffffffffffffffffffffffffffffffffffff1663150b7a02611f9a611322565b8786866040518563ffffffff1660e01b8152600401611fbc94939291906136dc565b6020604051808303816000875af1925050508015611ff857506040513d601f19601f82011682018060405250810190611ff5919061373d565b60015b61207a573d8060008114612028576040519150601f19603f3d011682016040523d82523d6000602084013e61202d565b606091505b506000815103612072576040517f08c379a000000000000000000000000000000000000000000000000000000000815260040161206990613667565b60405180910390fd5b805181602001fd5b63150b7a0260e01b7bffffffffffffffffffffffffffffffffffffffffffffffffffffffff1916817bffffffffffffffffffffffffffffffffffffffffffffffffffffffff1916149150506120cf565b600190505b949350505050565b600080600090507a184f03e93ff9f4daa797ed6e38ed64bf6a1f0100000000000000008310612135577a184f03e93ff9f4daa797ed6e38ed64bf6a1f010000000000000000838161212b5761212a61301f565b5b0492506040810190505b6d04ee2d6d415b85acef81000000008310612172576d04ee2d6d415b85acef810000000083816121685761216761301f565b5b0492506020810190505b662386f26fc1000083106121a157662386f26fc1000083816121975761219661301f565b5b0492506010810190505b6305f5e10083106121ca576305f5e10083816121c0576121bf61301f565b5b0492506008810190505b61271083106121ef5761271083816121e5576121e461301f565b5b0492506004810190505b6064831061221257606483816122085761220761301f565b5b0492506002810190505b600a8310612221576001810190505b80915050919050565b6000808273ffffffffffffffffffffffffffffffffffffffff163b119050919050565b6000604051905090565b600080fd5b600080fd5b600063ffffffff82169050919050565b61227a81612261565b811461228557600080fd5b50565b60008135905061229781612271565b92915050565b6000602082840312156122b3576122b2612257565b5b60006122c184828501612288565b91505092915050565b60007fffffffff0000000000000000000000000000000000000000000000000000000082169050919050565b6122ff816122ca565b811461230a57600080fd5b50565b60008135905061231c816122f6565b92915050565b60006020828403121561233857612337612257565b5b60006123468482850161230d565b91505092915050565b60008115159050919050565b6123648161234f565b82525050565b600060208201905061237f600083018461235b565b92915050565b600081519050919050565b600082825260208201905092915050565b60005b838110156123bf5780820151818401526020810190506123a4565b60008484015250505050565b6000601f19601f8301169050919050565b60006123e782612385565b6123f18185612390565b93506124018185602086016123a1565b61240a816123cb565b840191505092915050565b6000602082019050818103600083015261242f81846123dc565b905092915050565b6000819050919050565b61244a81612437565b811461245557600080fd5b50565b60008135905061246781612441565b92915050565b60006020828403121561248357612482612257565b5b600061249184828501612458565b91505092915050565b600073ffffffffffffffffffffffffffffffffffffffff82169050919050565b60006124c58261249a565b9050919050565b6124d5816124ba565b82525050565b60006020820190506124f060008301846124cc565b92915050565b6124ff816124ba565b811461250a57600080fd5b50565b60008135905061251c816124f6565b92915050565b6000806040838503121561253957612538612257565b5b60006125478582860161250d565b925050602061255885828601612458565b9150509250929050565b61256b81612437565b82525050565b60006020820190506125866000830184612562565b92915050565b6000806000606084860312156125a5576125a4612257565b5b60006125b38682870161250d565b93505060206125c48682870161250d565b92505060406125d586828701612458565b9150509250925092565b600080fd5b600080fd5b600080fd5b60008083601f840112612604576126036125df565b5b8235905067ffffffffffffffff811115612621576126206125e4565b5b60208301915083600182028301111561263d5761263c6125e9565b5b9250929050565b6000806020838503121561265b5761265a612257565b5b600083013567ffffffffffffffff8111156126795761267861225c565b5b612685858286016125ee565b92509250509250929050565b6000602082840312156126a7576126a6612257565b5b60006126b58482850161250d565b91505092915050565b6126c78161234f565b81146126d257600080fd5b50565b6000813590506126e4816126be565b92915050565b6000806040838503121561270157612700612257565b5b600061270f8582860161250d565b9250506020612720858286016126d5565b9150509250929050565b600080fd5b7f4e487b7100000000000000000000000000000000000000000000000000000000600052604160045260246000fd5b612767826123cb565b810181811067ffffffffffffffff821117156127865761278561272f565b5b80604052505050565b600061279961224d565b90506127a5828261275e565b919050565b600067ffffffffffffffff8211156127c5576127c461272f565b5b6127ce826123cb565b9050602081019050919050565b82818337600083830152505050565b60006127fd6127f8846127aa565b61278f565b9050828152602081018484840111156128195761281861272a565b5b6128248482856127db565b509392505050565b600082601f830112612841576128406125df565b5b81356128518482602086016127ea565b91505092915050565b6000806000806080858703121561287457612873612257565b5b60006128828782880161250d565b94505060206128938782880161250d565b93505060406128a487828801612458565b925050606085013567ffffffffffffffff8111156128c5576128c461225c565b5b6128d18782880161282c565b91505092959194509250565b600080604083850312156128f4576128f3612257565b5b60006129028582860161250d565b92505060206129138582860161250d565b9150509250929050565b7f4e487b7100000000000000000000000000000000000000000000000000000000600052602260045260246000fd5b6000600282049050600182168061296457607f821691505b6020821081036129775761297661291d565b5b50919050565b7f4552433732313a20617070726f76616c20746f2063757272656e74206f776e6560008201527f7200000000000000000000000000000000000000000000000000000000000000602082015250565b60006129d9602183612390565b91506129e48261297d565b604082019050919050565b60006020820190508181036000830152612a08816129cc565b9050919050565b7f4552433732313a20617070726f76652063616c6c6572206973206e6f7420746f60008201527f6b656e206f776e6572206f7220617070726f76656420666f7220616c6c000000602082015250565b6000612a6b603d83612390565b9150612a7682612a0f565b604082019050919050565b60006020820190508181036000830152612a9a81612a5e565b9050919050565b7f4552433732313a2063616c6c6572206973206e6f7420746f6b656e206f776e6560008201527f72206f7220617070726f76656400000000000000000000000000000000000000602082015250565b6000612afd602d83612390565b9150612b0882612aa1565b604082019050919050565b60006020820190508181036000830152612b2c81612af0565b9050919050565b7f6572726f722d2d2d2d2d2d206e6f742073746172740000000000000000000000600082015250565b6000612b69601583612390565b9150612b7482612b33565b602082019050919050565b60006020820190508181036000830152612b9881612b5c565b9050919050565b7f4e487b7100000000000000000000000000000000000000000000000000000000600052601160045260246000fd5b6000612bd982612437565b9150612be483612437565b9250828201905080821115612bfc57612bfb612b9f565b5b92915050565b7f6572726f722d2d2d2d2d2d206f766572666c6f77000000000000000000000000600082015250565b6000612c38601483612390565b9150612c4382612c02565b602082019050919050565b60006020820190508181036000830152612c6781612c2b565b9050919050565b6000612c7982612437565b9150612c8483612437565b9250828202612c9281612437565b91508282048414831517612ca957612ca8612b9f565b5b5092915050565b7f4e65656420746f2073656e64206d6f7265204554482e00000000000000000000600082015250565b6000612ce6601683612390565b9150612cf182612cb0565b602082019050919050565b60006020820190508181036000830152612d1581612cd9565b9050919050565b6000612d2782612437565b91507fffffffffffffffffffffffffffffffffffffffffffffffffffffffffffffffff8203612d5957612d58612b9f565b5b600182019050919050565b6000612d6f82612437565b9150612d7a83612437565b9250828203905081811115612d9257612d91612b9f565b5b92915050565b600082905092915050565b60008190508160005260206000209050919050565b60006020601f8301049050919050565b600082821b905092915050565b600060088302612e057fffffffffffffffffffffffffffffffffffffffffffffffffffffffffffffffff82612dc8565b612e0f8683612dc8565b95508019841693508086168417925050509392505050565b6000819050919050565b6000612e4c612e47612e4284612437565b612e27565b612437565b9050919050565b6000819050919050565b612e6683612e31565b612e7a612e7282612e53565b848454612dd5565b825550505050565b600090565b612e8f612e82565b612e9a818484612e5d565b505050565b5b81811015612ebe57612eb3600082612e87565b600181019050612ea0565b5050565b601f821115612f0357612ed481612da3565b612edd84612db8565b81016020851015612eec578190505b612f00612ef885612db8565b830182612e9f565b50505b505050565b600082821c905092915050565b6000612f2660001984600802612f08565b1980831691505092915050565b6000612f3f8383612f15565b9150826002028217905092915050565b612f598383612d98565b67ffffffffffffffff811115612f7257612f7161272f565b5b612f7c825461294c565b612f87828285612ec2565b6000601f831160018114612fb65760008415612fa4578287013590505b612fae8582612f33565b865550613016565b601f198416612fc486612da3565b60005b82811015612fec57848901358255600182019150602085019450602081019050612fc7565b868310156130095784890135613005601f891682612f15565b8355505b6001600288020188555050505b50505050505050565b7f4e487b7100000000000000000000000000000000000000000000000000000000600052601260045260246000fd5b600061305982612437565b915061306483612437565b9250826130745761307361301f565b5b828204905092915050565b7f4552433732313a20696e76616c696420746f6b656e2049440000000000000000600082015250565b60006130b5601883612390565b91506130c08261307f565b602082019050919050565b600060208201905081810360008301526130e4816130a8565b9050919050565b7f4552433732313a2061646472657373207a65726f206973206e6f74206120766160008201527f6c6964206f776e65720000000000000000000000000000000000000000000000602082015250565b6000613147602983612390565b9150613152826130eb565b604082019050919050565b600060208201905081810360008301526131768161313a565b9050919050565b600081905092915050565b50565b600061319860008361317d565b91506131a382613188565b600082019050919050565b60006131b98261318b565b9150819050919050565b7f5472616e73666572206661696c65642e00000000000000000000000000000000600082015250565b60006131f9601083612390565b9150613204826131c3565b602082019050919050565b60006020820190508181036000830152613228816131ec565b9050919050565b600081905092915050565b600061324582612385565b61324f818561322f565b935061325f8185602086016123a1565b80840191505092915050565b6000613277828561323a565b9150613283828461323a565b91508190509392505050565b7f4f776e61626c653a206e6577206f776e657220697320746865207a65726f206160008201527f6464726573730000000000000000000000000000000000000000000000000000602082015250565b60006132eb602683612390565b91506132f68261328f565b604082019050919050565b6000602082019050818103600083015261331a816132de565b9050919050565b7f4f776e61626c653a2063616c6c6572206973206e6f7420746865206f776e6572600082015250565b6000613357602083612390565b915061336282613321565b602082019050919050565b600060208201905081810360008301526133868161334a565b9050919050565b7f4552433732313a207472616e736665722066726f6d20696e636f72726563742060008201527f6f776e6572000000000000000000000000000000000000000000000000000000602082015250565b60006133e9602583612390565b91506133f48261338d565b604082019050919050565b60006020820190508181036000830152613418816133dc565b9050919050565b7f4552433732313a207472616e7366657220746f20746865207a65726f2061646460008201527f7265737300000000000000000000000000000000000000000000000000000000602082015250565b600061347b602483612390565b91506134868261341f565b604082019050919050565b600060208201905081810360008301526134aa8161346e565b9050919050565b7f4552433732313a206d696e7420746f20746865207a65726f2061646472657373600082015250565b60006134e7602083612390565b91506134f2826134b1565b602082019050919050565b60006020820190508181036000830152613516816134da565b9050919050565b7f4552433732313a20746f6b656e20616c7265616479206d696e74656400000000600082015250565b6000613553601c83612390565b915061355e8261351d565b602082019050919050565b6000602082019050818103600083015261358281613546565b9050919050565b7f4552433732313a20617070726f766520746f2063616c6c657200000000000000600082015250565b60006135bf601983612390565b91506135ca82613589565b602082019050919050565b600060208201905081810360008301526135ee816135b2565b9050919050565b7f4552433732313a207472616e7366657220746f206e6f6e20455243373231526560008201527f63656976657220696d706c656d656e7465720000000000000000000000000000602082015250565b6000613651603283612390565b915061365c826135f5565b604082019050919050565b6000602082019050818103600083015261368081613644565b9050919050565b600081519050919050565b600082825260208201905092915050565b60006136ae82613687565b6136b88185613692565b93506136c88185602086016123a1565b6136d1816123cb565b840191505092915050565b60006080820190506136f160008301876124cc565b6136fe60208301866124cc565b61370b6040830185612562565b818103606083015261371d81846136a3565b905095945050505050565b600081519050613737816122f6565b92915050565b60006020828403121561375357613752612257565b5b600061376184828501613728565b9150509291505056fea2646970667358221220f692f80f2b1da782caaeb49f538f1d5db3aec2e7cd49f6fcd442382c36b7b12064736f6c63430008120033",
			"opcodes": "PUSH1 0x80 PUSH1 0x40 MSTORE CALLVALUE DUP1 ISZERO PUSH3 0x11 JUMPI PUSH1 0x0 DUP1 REVERT JUMPDEST POP PUSH1 0x40 MLOAD DUP1 PUSH1 0x40 ADD PUSH1 0x40 MSTORE DUP1 PUSH1 0x11 DUP2 MSTORE PUSH1 0x20 ADD PUSH32 0x57544620447574636820417563746F696E000000000000000000000000000000 DUP2 MSTORE POP PUSH1 0x40 MLOAD DUP1 PUSH1 0x40 ADD PUSH1 0x40 MSTORE DUP1 PUSH1 0x11 DUP2 MSTORE PUSH1 0x20 ADD PUSH32 0x57544620447574636820417563746F696E000000000000000000000000000000 DUP2 MSTORE POP PUSH3 0x9E PUSH3 0x92 PUSH3 0xD1 PUSH1 0x20 SHL PUSH1 0x20 SHR JUMP JUMPDEST PUSH3 0xD9 PUSH1 0x20 SHL PUSH1 0x20 SHR JUMP JUMPDEST DUP2 PUSH1 0x1 SWAP1 DUP2 PUSH3 0xAF SWAP2 SWAP1 PUSH3 0x417 JUMP JUMPDEST POP DUP1 PUSH1 0x2 SWAP1 DUP2 PUSH3 0xC1 SWAP2 SWAP1 PUSH3 0x417 JUMP JUMPDEST POP POP POP TIMESTAMP PUSH1 0x7 DUP2 SWAP1 SSTORE POP PUSH3 0x4FE JUMP JUMPDEST PUSH1 0x0 CALLER SWAP1 POP SWAP1 JUMP JUMPDEST PUSH1 0x0 DUP1 PUSH1 0x0 SWAP1 SLOAD SWAP1 PUSH2 0x100 EXP SWAP1 DIV PUSH20 0xFFFFFFFFFFFFFFFFFFFFFFFFFFFFFFFFFFFFFFFF AND SWAP1 POP DUP2 PUSH1 0x0 DUP1 PUSH2 0x100 EXP DUP2 SLOAD DUP2 PUSH20 0xFFFFFFFFFFFFFFFFFFFFFFFFFFFFFFFFFFFFFFFF MUL NOT AND SWAP1 DUP4 PUSH20 0xFFFFFFFFFFFFFFFFFFFFFFFFFFFFFFFFFFFFFFFF AND MUL OR SWAP1 SSTORE POP DUP2 PUSH20 0xFFFFFFFFFFFFFFFFFFFFFFFFFFFFFFFFFFFFFFFF AND DUP2 PUSH20 0xFFFFFFFFFFFFFFFFFFFFFFFFFFFFFFFFFFFFFFFF AND PUSH32 0x8BE0079C531659141344CD1FD0A4F28419497F9722A3DAAFE3B4186F6B6457E0 PUSH1 0x40 MLOAD PUSH1 0x40 MLOAD DUP1 SWAP2 SUB SWAP1 LOG3 POP POP JUMP JUMPDEST PUSH1 0x0 DUP2 MLOAD SWAP1 POP SWAP2 SWAP1 POP JUMP JUMPDEST PUSH32 0x4E487B7100000000000000000000000000000000000000000000000000000000 PUSH1 0x0 MSTORE PUSH1 0x41 PUSH1 0x4 MSTORE PUSH1 0x24 PUSH1 0x0 REVERT JUMPDEST PUSH32 0x4E487B7100000000000000000000000000000000000000000000000000000000 PUSH1 0x0 MSTORE PUSH1 0x22 PUSH1 0x4 MSTORE PUSH1 0x24 PUSH1 0x0 REVERT JUMPDEST PUSH1 0x0 PUSH1 0x2 DUP3 DIV SWAP1 POP PUSH1 0x1 DUP3 AND DUP1 PUSH3 0x21F JUMPI PUSH1 0x7F DUP3 AND SWAP2 POP JUMPDEST PUSH1 0x20 DUP3 LT DUP2 SUB PUSH3 0x235 JUMPI PUSH3 0x234 PUSH3 0x1D7 JUMP JUMPDEST JUMPDEST POP SWAP2 SWAP1 POP JUMP JUMPDEST PUSH1 0x0 DUP2 SWAP1 POP DUP2 PUSH1 0x0 MSTORE PUSH1 0x20 PUSH1 0x0 KECCAK256 SWAP1 POP SWAP2 SWAP1 POP JUMP JUMPDEST PUSH1 0x0 PUSH1 0x20 PUSH1 0x1F DUP4 ADD DIV SWAP1 POP SWAP2 SWAP1 POP JUMP JUMPDEST PUSH1 0x0 DUP3 DUP3 SHL SWAP1 POP SWAP3 SWAP2 POP POP JUMP JUMPDEST PUSH1 0x0 PUSH1 0x8 DUP4 MUL PUSH3 0x29F PUSH32 0xFFFFFFFFFFFFFFFFFFFFFFFFFFFFFFFFFFFFFFFFFFFFFFFFFFFFFFFFFFFFFFFF DUP3 PUSH3 0x260 JUMP JUMPDEST PUSH3 0x2AB DUP7 DUP4 PUSH3 0x260 JUMP JUMPDEST SWAP6 POP DUP1 NOT DUP5 AND SWAP4 POP DUP1 DUP7 AND DUP5 OR SWAP3 POP POP POP SWAP4 SWAP3 POP POP POP JUMP JUMPDEST PUSH1 0x0 DUP2 SWAP1 POP SWAP2 SWAP1 POP JUMP JUMPDEST PUSH1 0x0 DUP2 SWAP1 POP SWAP2 SWAP1 POP JUMP JUMPDEST PUSH1 0x0 PUSH3 0x2F8 PUSH3 0x2F2 PUSH3 0x2EC DUP5 PUSH3 0x2C3 JUMP JUMPDEST PUSH3 0x2CD JUMP JUMPDEST PUSH3 0x2C3 JUMP JUMPDEST SWAP1 POP SWAP2 SWAP1 POP JUMP JUMPDEST PUSH1 0x0 DUP2 SWAP1 POP SWAP2 SWAP1 POP JUMP JUMPDEST PUSH3 0x314 DUP4 PUSH3 0x2D7 JUMP JUMPDEST PUSH3 0x32C PUSH3 0x323 DUP3 PUSH3 0x2FF JUMP JUMPDEST DUP5 DUP5 SLOAD PUSH3 0x26D JUMP JUMPDEST DUP3 SSTORE POP POP POP POP JUMP JUMPDEST PUSH1 0x0 SWAP1 JUMP JUMPDEST PUSH3 0x343 PUSH3 0x334 JUMP JUMPDEST PUSH3 0x350 DUP2 DUP5 DUP5 PUSH3 0x309 JUMP JUMPDEST POP POP POP JUMP JUMPDEST JUMPDEST DUP2 DUP2 LT ISZERO PUSH3 0x378 JUMPI PUSH3 0x36C PUSH1 0x0 DUP3 PUSH3 0x339 JUMP JUMPDEST PUSH1 0x1 DUP2 ADD SWAP1 POP PUSH3 0x356 JUMP JUMPDEST POP POP JUMP JUMPDEST PUSH1 0x1F DUP3 GT ISZERO PUSH3 0x3C7 JUMPI PUSH3 0x391 DUP2 PUSH3 0x23B JUMP JUMPDEST PUSH3 0x39C DUP5 PUSH3 0x250 JUMP JUMPDEST DUP2 ADD PUSH1 0x20 DUP6 LT ISZERO PUSH3 0x3AC JUMPI DUP2 SWAP1 POP JUMPDEST PUSH3 0x3C4 PUSH3 0x3BB DUP6 PUSH3 0x250 JUMP JUMPDEST DUP4 ADD DUP3 PUSH3 0x355 JUMP JUMPDEST POP POP JUMPDEST POP POP POP JUMP JUMPDEST PUSH1 0x0 DUP3 DUP3 SHR SWAP1 POP SWAP3 SWAP2 POP POP JUMP JUMPDEST PUSH1 0x0 PUSH3 0x3EC PUSH1 0x0 NOT DUP5 PUSH1 0x8 MUL PUSH3 0x3CC JUMP JUMPDEST NOT DUP1 DUP4 AND SWAP2 POP POP SWAP3 SWAP2 POP POP JUMP JUMPDEST PUSH1 0x0 PUSH3 0x407 DUP4 DUP4 PUSH3 0x3D9 JUMP JUMPDEST SWAP2 POP DUP3 PUSH1 0x2 MUL DUP3 OR SWAP1 POP SWAP3 SWAP2 POP POP JUMP JUMPDEST PUSH3 0x422 DUP3 PUSH3 0x19D JUMP JUMPDEST PUSH8 0xFFFFFFFFFFFFFFFF DUP2 GT ISZERO PUSH3 0x43E JUMPI PUSH3 0x43D PUSH3 0x1A8 JUMP JUMPDEST JUMPDEST PUSH3 0x44A DUP3 SLOAD PUSH3 0x206 JUMP JUMPDEST PUSH3 0x457 DUP3 DUP3 DUP6 PUSH3 0x37C JUMP JUMPDEST PUSH1 0x0 PUSH1 0x20 SWAP1 POP PUSH1 0x1F DUP4 GT PUSH1 0x1 DUP2 EQ PUSH3 0x48F JUMPI PUSH1 0x0 DUP5 ISZERO PUSH3 0x47A JUMPI DUP3 DUP8 ADD MLOAD SWAP1 POP JUMPDEST PUSH3 0x486 DUP6 DUP3 PUSH3 0x3F9 JUMP JUMPDEST DUP7 SSTORE POP PUSH3 0x4F6 JUMP JUMPDEST PUSH1 0x1F NOT DUP5 AND PUSH3 0x49F DUP7 PUSH3 0x23B JUMP JUMPDEST PUSH1 0x0 JUMPDEST DUP3 DUP2 LT ISZERO PUSH3 0x4C9 JUMPI DUP5 DUP10 ADD MLOAD DUP3 SSTORE PUSH1 0x1 DUP3 ADD SWAP2 POP PUSH1 0x20 DUP6 ADD SWAP5 POP PUSH1 0x20 DUP2 ADD SWAP1 POP PUSH3 0x4A2 JUMP JUMPDEST DUP7 DUP4 LT ISZERO PUSH3 0x4E9 JUMPI DUP5 DUP10 ADD MLOAD PUSH3 0x4E5 PUSH1 0x1F DUP10 AND DUP3 PUSH3 0x3D9 JUMP JUMPDEST DUP4 SSTORE POP JUMPDEST PUSH1 0x1 PUSH1 0x2 DUP9 MUL ADD DUP9 SSTORE POP POP POP JUMPDEST POP POP POP POP POP POP JUMP JUMPDEST PUSH2 0x37A0 DUP1 PUSH3 0x50E PUSH1 0x0 CODECOPY PUSH1 0x0 RETURN INVALID PUSH1 0x80 PUSH1 0x40 MSTORE PUSH1 0x4 CALLDATASIZE LT PUSH2 0x1C2 JUMPI PUSH1 0x0 CALLDATALOAD PUSH1 0xE0 SHR DUP1 PUSH4 0x6352211E GT PUSH2 0xF7 JUMPI DUP1 PUSH4 0xAC446002 GT PUSH2 0x95 JUMPI DUP1 PUSH4 0xCFB07CCC GT PUSH2 0x64 JUMPI DUP1 PUSH4 0xCFB07CCC EQ PUSH2 0x60F JUMPI DUP1 PUSH4 0xE985E9C5 EQ PUSH2 0x64C JUMPI DUP1 PUSH4 0xF2FDE38B EQ PUSH2 0x689 JUMPI DUP1 PUSH4 0xF8A987D8 EQ PUSH2 0x6B2 JUMPI PUSH2 0x1C2 JUMP JUMPDEST DUP1 PUSH4 0xAC446002 EQ PUSH2 0x567 JUMPI DUP1 PUSH4 0xB88D4FDE EQ PUSH2 0x57E JUMPI DUP1 PUSH4 0xC87B56DD EQ PUSH2 0x5A7 JUMPI DUP1 PUSH4 0xCAF8A6D1 EQ PUSH2 0x5E4 JUMPI PUSH2 0x1C2 JUMP JUMPDEST DUP1 PUSH4 0x7A1C4A56 GT PUSH2 0xD1 JUMPI DUP1 PUSH4 0x7A1C4A56 EQ PUSH2 0x4BD JUMPI DUP1 PUSH4 0x8DA5CB5B EQ PUSH2 0x4E8 JUMPI DUP1 PUSH4 0x95D89B41 EQ PUSH2 0x513 JUMPI DUP1 PUSH4 0xA22CB465 EQ PUSH2 0x53E JUMPI PUSH2 0x1C2 JUMP JUMPDEST DUP1 PUSH4 0x6352211E EQ PUSH2 0x42C JUMPI DUP1 PUSH4 0x70A08231 EQ PUSH2 0x469 JUMPI DUP1 PUSH4 0x715018A6 EQ PUSH2 0x4A6 JUMPI PUSH2 0x1C2 JUMP JUMPDEST DUP1 PUSH4 0x23B872DD GT PUSH2 0x164 JUMPI DUP1 PUSH4 0x42842E0E GT PUSH2 0x13E JUMPI DUP1 PUSH4 0x42842E0E EQ PUSH2 0x384 JUMPI DUP1 PUSH4 0x55F804B3 EQ PUSH2 0x3AD JUMPI DUP1 PUSH4 0x59F369FE EQ PUSH2 0x3D6 JUMPI DUP1 PUSH4 0x5CAE01D3 EQ PUSH2 0x401 JUMPI PUSH2 0x1C2 JUMP JUMPDEST DUP1 PUSH4 0x23B872DD EQ PUSH2 0x314 JUMPI DUP1 PUSH4 0x2D6187D2 EQ PUSH2 0x33D JUMPI DUP1 PUSH4 0x3AD46BF4 EQ PUSH2 0x359 JUMPI PUSH2 0x1C2 JUMP JUMPDEST DUP1 PUSH4 0x81812FC GT PUSH2 0x1A0 JUMPI DUP1 PUSH4 0x81812FC EQ PUSH2 0x258 JUMPI DUP1 PUSH4 0x95EA7B3 EQ PUSH2 0x295 JUMPI DUP1 PUSH4 0x18160DDD EQ PUSH2 0x2BE JUMPI DUP1 PUSH4 0x2100E6C1 EQ PUSH2 0x2E9 JUMPI PUSH2 0x1C2 JUMP JUMPDEST DUP1 PUSH4 0x1595266 EQ PUSH2 0x1C7 JUMPI DUP1 PUSH4 0x1FFC9A7 EQ PUSH2 0x1F0 JUMPI DUP1 PUSH4 0x6FDDE03 EQ PUSH2 0x22D JUMPI JUMPDEST PUSH1 0x0 DUP1 REVERT JUMPDEST CALLVALUE DUP1 ISZERO PUSH2 0x1D3 JUMPI PUSH1 0x0 DUP1 REVERT JUMPDEST POP PUSH2 0x1EE PUSH1 0x4 DUP1 CALLDATASIZE SUB DUP2 ADD SWAP1 PUSH2 0x1E9 SWAP2 SWAP1 PUSH2 0x229D JUMP JUMPDEST PUSH2 0x6DD JUMP JUMPDEST STOP JUMPDEST CALLVALUE DUP1 ISZERO PUSH2 0x1FC JUMPI PUSH1 0x0 DUP1 REVERT JUMPDEST POP PUSH2 0x217 PUSH1 0x4 DUP1 CALLDATASIZE SUB DUP2 ADD SWAP1 PUSH2 0x212 SWAP2 SWAP1 PUSH2 0x2322 JUMP JUMPDEST PUSH2 0x6F5 JUMP JUMPDEST PUSH1 0x40 MLOAD PUSH2 0x224 SWAP2 SWAP1 PUSH2 0x236A JUMP JUMPDEST PUSH1 0x40 MLOAD DUP1 SWAP2 SUB SWAP1 RETURN JUMPDEST CALLVALUE DUP1 ISZERO PUSH2 0x239 JUMPI PUSH1 0x0 DUP1 REVERT JUMPDEST POP PUSH2 0x242 PUSH2 0x7D7 JUMP JUMPDEST PUSH1 0x40 MLOAD PUSH2 0x24F SWAP2 SWAP1 PUSH2 0x2415 JUMP JUMPDEST PUSH1 0x40 MLOAD DUP1 SWAP2 SUB SWAP1 RETURN JUMPDEST CALLVALUE DUP1 ISZERO PUSH2 0x264 JUMPI PUSH1 0x0 DUP1 REVERT JUMPDEST POP PUSH2 0x27F PUSH1 0x4 DUP1 CALLDATASIZE SUB DUP2 ADD SWAP1 PUSH2 0x27A SWAP2 SWAP1 PUSH2 0x246D JUMP JUMPDEST PUSH2 0x869 JUMP JUMPDEST PUSH1 0x40 MLOAD PUSH2 0x28C SWAP2 SWAP1 PUSH2 0x24DB JUMP JUMPDEST PUSH1 0x40 MLOAD DUP1 SWAP2 SUB SWAP1 RETURN JUMPDEST CALLVALUE DUP1 ISZERO PUSH2 0x2A1 JUMPI PUSH1 0x0 DUP1 REVERT JUMPDEST POP PUSH2 0x2BC PUSH1 0x4 DUP1 CALLDATASIZE SUB DUP2 ADD SWAP1 PUSH2 0x2B7 SWAP2 SWAP1 PUSH2 0x2522 JUMP JUMPDEST PUSH2 0x8AF JUMP JUMPDEST STOP JUMPDEST CALLVALUE DUP1 ISZERO PUSH2 0x2CA JUMPI PUSH1 0x0 DUP1 REVERT JUMPDEST POP PUSH2 0x2D3 PUSH2 0x9C6 JUMP JUMPDEST PUSH1 0x40 MLOAD PUSH2 0x2E0 SWAP2 SWAP1 PUSH2 0x2571 JUMP JUMPDEST PUSH1 0x40 MLOAD DUP1 SWAP2 SUB SWAP1 RETURN JUMPDEST CALLVALUE DUP1 ISZERO PUSH2 0x2F5 JUMPI PUSH1 0x0 DUP1 REVERT JUMPDEST POP PUSH2 0x2FE PUSH2 0x9D3 JUMP JUMPDEST PUSH1 0x40 MLOAD PUSH2 0x30B SWAP2 SWAP1 PUSH2 0x2571 JUMP JUMPDEST PUSH1 0x40 MLOAD DUP1 SWAP2 SUB SWAP1 RETURN JUMPDEST CALLVALUE DUP1 ISZERO PUSH2 0x320 JUMPI PUSH1 0x0 DUP1 REVERT JUMPDEST POP PUSH2 0x33B PUSH1 0x4 DUP1 CALLDATASIZE SUB DUP2 ADD SWAP1 PUSH2 0x336 SWAP2 SWAP1 PUSH2 0x258C JUMP JUMPDEST PUSH2 0x9DA JUMP JUMPDEST STOP JUMPDEST PUSH2 0x357 PUSH1 0x4 DUP1 CALLDATASIZE SUB DUP2 ADD SWAP1 PUSH2 0x352 SWAP2 SWAP1 PUSH2 0x246D JUMP JUMPDEST PUSH2 0xA3A JUMP JUMPDEST STOP JUMPDEST CALLVALUE DUP1 ISZERO PUSH2 0x365 JUMPI PUSH1 0x0 DUP1 REVERT JUMPDEST POP PUSH2 0x36E PUSH2 0xBE3 JUMP JUMPDEST PUSH1 0x40 MLOAD PUSH2 0x37B SWAP2 SWAP1 PUSH2 0x2571 JUMP JUMPDEST PUSH1 0x40 MLOAD DUP1 SWAP2 SUB SWAP1 RETURN JUMPDEST CALLVALUE DUP1 ISZERO PUSH2 0x390 JUMPI PUSH1 0x0 DUP1 REVERT JUMPDEST POP PUSH2 0x3AB PUSH1 0x4 DUP1 CALLDATASIZE SUB DUP2 ADD SWAP1 PUSH2 0x3A6 SWAP2 SWAP1 PUSH2 0x258C JUMP JUMPDEST PUSH2 0xBE9 JUMP JUMPDEST STOP JUMPDEST CALLVALUE DUP1 ISZERO PUSH2 0x3B9 JUMPI PUSH1 0x0 DUP1 REVERT JUMPDEST POP PUSH2 0x3D4 PUSH1 0x4 DUP1 CALLDATASIZE SUB DUP2 ADD SWAP1 PUSH2 0x3CF SWAP2 SWAP1 PUSH2 0x2644 JUMP JUMPDEST PUSH2 0xC09 JUMP JUMPDEST STOP JUMPDEST CALLVALUE DUP1 ISZERO PUSH2 0x3E2 JUMPI PUSH1 0x0 DUP1 REVERT JUMPDEST POP PUSH2 0x3EB PUSH2 0xC27 JUMP JUMPDEST PUSH1 0x40 MLOAD PUSH2 0x3F8 SWAP2 SWAP1 PUSH2 0x2571 JUMP JUMPDEST PUSH1 0x40 MLOAD DUP1 SWAP2 SUB SWAP1 RETURN JUMPDEST CALLVALUE DUP1 ISZERO PUSH2 0x40D JUMPI PUSH1 0x0 DUP1 REVERT JUMPDEST POP PUSH2 0x416 PUSH2 0xC5E JUMP JUMPDEST PUSH1 0x40 MLOAD PUSH2 0x423 SWAP2 SWAP1 PUSH2 0x2571 JUMP JUMPDEST PUSH1 0x40 MLOAD DUP1 SWAP2 SUB SWAP1 RETURN JUMPDEST CALLVALUE DUP1 ISZERO PUSH2 0x438 JUMPI PUSH1 0x0 DUP1 REVERT JUMPDEST POP PUSH2 0x453 PUSH1 0x4 DUP1 CALLDATASIZE SUB DUP2 ADD SWAP1 PUSH2 0x44E SWAP2 SWAP1 PUSH2 0x246D JUMP JUMPDEST PUSH2 0xC63 JUMP JUMPDEST PUSH1 0x40 MLOAD PUSH2 0x460 SWAP2 SWAP1 PUSH2 0x24DB JUMP JUMPDEST PUSH1 0x40 MLOAD DUP1 SWAP2 SUB SWAP1 RETURN JUMPDEST CALLVALUE DUP1 ISZERO PUSH2 0x475 JUMPI PUSH1 0x0 DUP1 REVERT JUMPDEST POP PUSH2 0x490 PUSH1 0x4 DUP1 CALLDATASIZE SUB DUP2 ADD SWAP1 PUSH2 0x48B SWAP2 SWAP1 PUSH2 0x2691 JUMP JUMPDEST PUSH2 0xCE9 JUMP JUMPDEST PUSH1 0x40 MLOAD PUSH2 0x49D SWAP2 SWAP1 PUSH2 0x2571 JUMP JUMPDEST PUSH1 0x40 MLOAD DUP1 SWAP2 SUB SWAP1 RETURN JUMPDEST CALLVALUE DUP1 ISZERO PUSH2 0x4B2 JUMPI PUSH1 0x0 DUP1 REVERT JUMPDEST POP PUSH2 0x4BB PUSH2 0xDA0 JUMP JUMPDEST STOP JUMPDEST CALLVALUE DUP1 ISZERO PUSH2 0x4C9 JUMPI PUSH1 0x0 DUP1 REVERT JUMPDEST POP PUSH2 0x4D2 PUSH2 0xDB4 JUMP JUMPDEST PUSH1 0x40 MLOAD PUSH2 0x4DF SWAP2 SWAP1 PUSH2 0x2571 JUMP JUMPDEST PUSH1 0x40 MLOAD DUP1 SWAP2 SUB SWAP1 RETURN JUMPDEST CALLVALUE DUP1 ISZERO PUSH2 0x4F4 JUMPI PUSH1 0x0 DUP1 REVERT JUMPDEST POP PUSH2 0x4FD PUSH2 0xDC0 JUMP JUMPDEST PUSH1 0x40 MLOAD PUSH2 0x50A SWAP2 SWAP1 PUSH2 0x24DB JUMP JUMPDEST PUSH1 0x40 MLOAD DUP1 SWAP2 SUB SWAP1 RETURN JUMPDEST CALLVALUE DUP1 ISZERO PUSH2 0x51F JUMPI PUSH1 0x0 DUP1 REVERT JUMPDEST POP PUSH2 0x528 PUSH2 0xDE9 JUMP JUMPDEST PUSH1 0x40 MLOAD PUSH2 0x535 SWAP2 SWAP1 PUSH2 0x2415 JUMP JUMPDEST PUSH1 0x40 MLOAD DUP1 SWAP2 SUB SWAP1 RETURN JUMPDEST CALLVALUE DUP1 ISZERO PUSH2 0x54A JUMPI PUSH1 0x0 DUP1 REVERT JUMPDEST POP PUSH2 0x565 PUSH1 0x4 DUP1 CALLDATASIZE SUB DUP2 ADD SWAP1 PUSH2 0x560 SWAP2 SWAP1 PUSH2 0x26EA JUMP JUMPDEST PUSH2 0xE7B JUMP JUMPDEST STOP JUMPDEST CALLVALUE DUP1 ISZERO PUSH2 0x573 JUMPI PUSH1 0x0 DUP1 REVERT JUMPDEST POP PUSH2 0x57C PUSH2 0xE91 JUMP JUMPDEST STOP JUMPDEST CALLVALUE DUP1 ISZERO PUSH2 0x58A JUMPI PUSH1 0x0 DUP1 REVERT JUMPDEST POP PUSH2 0x5A5 PUSH1 0x4 DUP1 CALLDATASIZE SUB DUP2 ADD SWAP1 PUSH2 0x5A0 SWAP2 SWAP1 PUSH2 0x285A JUMP JUMPDEST PUSH2 0xF48 JUMP JUMPDEST STOP JUMPDEST CALLVALUE DUP1 ISZERO PUSH2 0x5B3 JUMPI PUSH1 0x0 DUP1 REVERT JUMPDEST POP PUSH2 0x5CE PUSH1 0x4 DUP1 CALLDATASIZE SUB DUP2 ADD SWAP1 PUSH2 0x5C9 SWAP2 SWAP1 PUSH2 0x246D JUMP JUMPDEST PUSH2 0xFAA JUMP JUMPDEST PUSH1 0x40 MLOAD PUSH2 0x5DB SWAP2 SWAP1 PUSH2 0x2415 JUMP JUMPDEST PUSH1 0x40 MLOAD DUP1 SWAP2 SUB SWAP1 RETURN JUMPDEST CALLVALUE DUP1 ISZERO PUSH2 0x5F0 JUMPI PUSH1 0x0 DUP1 REVERT JUMPDEST POP PUSH2 0x5F9 PUSH2 0x1012 JUMP JUMPDEST PUSH1 0x40 MLOAD PUSH2 0x606 SWAP2 SWAP1 PUSH2 0x2571 JUMP JUMPDEST PUSH1 0x40 MLOAD DUP1 SWAP2 SUB SWAP1 RETURN JUMPDEST CALLVALUE DUP1 ISZERO PUSH2 0x61B JUMPI PUSH1 0x0 DUP1 REVERT JUMPDEST POP PUSH2 0x636 PUSH1 0x4 DUP1 CALLDATASIZE SUB DUP2 ADD SWAP1 PUSH2 0x631 SWAP2 SWAP1 PUSH2 0x246D JUMP JUMPDEST PUSH2 0x101D JUMP JUMPDEST PUSH1 0x40 MLOAD PUSH2 0x643 SWAP2 SWAP1 PUSH2 0x2571 JUMP JUMPDEST PUSH1 0x40 MLOAD DUP1 SWAP2 SUB SWAP1 RETURN JUMPDEST CALLVALUE DUP1 ISZERO PUSH2 0x658 JUMPI PUSH1 0x0 DUP1 REVERT JUMPDEST POP PUSH2 0x673 PUSH1 0x4 DUP1 CALLDATASIZE SUB DUP2 ADD SWAP1 PUSH2 0x66E SWAP2 SWAP1 PUSH2 0x28DD JUMP JUMPDEST PUSH2 0x10D2 JUMP JUMPDEST PUSH1 0x40 MLOAD PUSH2 0x680 SWAP2 SWAP1 PUSH2 0x236A JUMP JUMPDEST PUSH1 0x40 MLOAD DUP1 SWAP2 SUB SWAP1 RETURN JUMPDEST CALLVALUE DUP1 ISZERO PUSH2 0x695 JUMPI PUSH1 0x0 DUP1 REVERT JUMPDEST POP PUSH2 0x6B0 PUSH1 0x4 DUP1 CALLDATASIZE SUB DUP2 ADD SWAP1 PUSH2 0x6AB SWAP2 SWAP1 PUSH2 0x2691 JUMP JUMPDEST PUSH2 0x1166 JUMP JUMPDEST STOP JUMPDEST CALLVALUE DUP1 ISZERO PUSH2 0x6BE JUMPI PUSH1 0x0 DUP1 REVERT JUMPDEST POP PUSH2 0x6C7 PUSH2 0x11E9 JUMP JUMPDEST PUSH1 0x40 MLOAD PUSH2 0x6D4 SWAP2 SWAP1 PUSH2 0x2571 JUMP JUMPDEST PUSH1 0x40 MLOAD DUP1 SWAP2 SUB SWAP1 RETURN JUMPDEST PUSH2 0x6E5 PUSH2 0x11EF JUMP JUMPDEST DUP1 PUSH4 0xFFFFFFFF AND PUSH1 0x7 DUP2 SWAP1 SSTORE POP POP JUMP JUMPDEST PUSH1 0x0 PUSH32 0x80AC58CD00000000000000000000000000000000000000000000000000000000 PUSH28 0xFFFFFFFFFFFFFFFFFFFFFFFFFFFFFFFFFFFFFFFFFFFFFFFFFFFFFFFF NOT AND DUP3 PUSH28 0xFFFFFFFFFFFFFFFFFFFFFFFFFFFFFFFFFFFFFFFFFFFFFFFFFFFFFFFF NOT AND EQ DUP1 PUSH2 0x7C0 JUMPI POP PUSH32 0x5B5E139F00000000000000000000000000000000000000000000000000000000 PUSH28 0xFFFFFFFFFFFFFFFFFFFFFFFFFFFFFFFFFFFFFFFFFFFFFFFFFFFFFFFF NOT AND DUP3 PUSH28 0xFFFFFFFFFFFFFFFFFFFFFFFFFFFFFFFFFFFFFFFFFFFFFFFFFFFFFFFF NOT AND EQ JUMPDEST DUP1 PUSH2 0x7D0 JUMPI POP PUSH2 0x7CF DUP3 PUSH2 0x126D JUMP JUMPDEST JUMPDEST SWAP1 POP SWAP2 SWAP1 POP JUMP JUMPDEST PUSH1 0x60 PUSH1 0x1 DUP1 SLOAD PUSH2 0x7E6 SWAP1 PUSH2 0x294C JUMP JUMPDEST DUP1 PUSH1 0x1F ADD PUSH1 0x20 DUP1 SWAP2 DIV MUL PUSH1 0x20 ADD PUSH1 0x40 MLOAD SWAP1 DUP2 ADD PUSH1 0x40 MSTORE DUP1 SWAP3 SWAP2 SWAP1 DUP2 DUP2 MSTORE PUSH1 0x20 ADD DUP3 DUP1 SLOAD PUSH2 0x812 SWAP1 PUSH2 0x294C JUMP JUMPDEST DUP1 ISZERO PUSH2 0x85F JUMPI DUP1 PUSH1 0x1F LT PUSH2 0x834 JUMPI PUSH2 0x100 DUP1 DUP4 SLOAD DIV MUL DUP4 MSTORE SWAP2 PUSH1 0x20 ADD SWAP2 PUSH2 0x85F JUMP JUMPDEST DUP3 ADD SWAP2 SWAP1 PUSH1 0x0 MSTORE PUSH1 0x20 PUSH1 0x0 KECCAK256 SWAP1 JUMPDEST DUP2 SLOAD DUP2 MSTORE SWAP1 PUSH1 0x1 ADD SWAP1 PUSH1 0x20 ADD DUP1 DUP4 GT PUSH2 0x842 JUMPI DUP3 SWAP1 SUB PUSH1 0x1F AND DUP3 ADD SWAP2 JUMPDEST POP POP POP POP POP SWAP1 POP SWAP1 JUMP JUMPDEST PUSH1 0x0 PUSH2 0x874 DUP3 PUSH2 0x12D7 JUMP JUMPDEST PUSH1 0x5 PUSH1 0x0 DUP4 DUP2 MSTORE PUSH1 0x20 ADD SWAP1 DUP2 MSTORE PUSH1 0x20 ADD PUSH1 0x0 KECCAK256 PUSH1 0x0 SWAP1 SLOAD SWAP1 PUSH2 0x100 EXP SWAP1 DIV PUSH20 0xFFFFFFFFFFFFFFFFFFFFFFFFFFFFFFFFFFFFFFFF AND SWAP1 POP SWAP2 SWAP1 POP JUMP JUMPDEST PUSH1 0x0 PUSH2 0x8BA DUP3 PUSH2 0xC63 JUMP JUMPDEST SWAP1 POP DUP1 PUSH20 0xFFFFFFFFFFFFFFFFFFFFFFFFFFFFFFFFFFFFFFFF AND DUP4 PUSH20 0xFFFFFFFFFFFFFFFFFFFFFFFFFFFFFFFFFFFFFFFF AND SUB PUSH2 0x92A JUMPI PUSH1 0x40 MLOAD PUSH32 0x8C379A000000000000000000000000000000000000000000000000000000000 DUP2 MSTORE PUSH1 0x4 ADD PUSH2 0x921 SWAP1 PUSH2 0x29EF JUMP JUMPDEST PUSH1 0x40 MLOAD DUP1 SWAP2 SUB SWAP1 REVERT JUMPDEST DUP1 PUSH20 0xFFFFFFFFFFFFFFFFFFFFFFFFFFFFFFFFFFFFFFFF AND PUSH2 0x949 PUSH2 0x1322 JUMP JUMPDEST PUSH20 0xFFFFFFFFFFFFFFFFFFFFFFFFFFFFFFFFFFFFFFFF AND EQ DUP1 PUSH2 0x978 JUMPI POP PUSH2 0x977 DUP2 PUSH2 0x972 PUSH2 0x1322 JUMP JUMPDEST PUSH2 0x10D2 JUMP JUMPDEST JUMPDEST PUSH2 0x9B7 JUMPI PUSH1 0x40 MLOAD PUSH32 0x8C379A000000000000000000000000000000000000000000000000000000000 DUP2 MSTORE PUSH1 0x4 ADD PUSH2 0x9AE SWAP1 PUSH2 0x2A81 JUMP JUMPDEST PUSH1 0x40 MLOAD DUP1 SWAP2 SUB SWAP1 REVERT JUMPDEST PUSH2 0x9C1 DUP4 DUP4 PUSH2 0x132A JUMP JUMPDEST POP POP POP JUMP JUMPDEST PUSH1 0x0 PUSH1 0x9 DUP1 SLOAD SWAP1 POP SWAP1 POP SWAP1 JUMP JUMPDEST PUSH3 0x186A0 DUP2 JUMP JUMPDEST PUSH2 0x9EB PUSH2 0x9E5 PUSH2 0x1322 JUMP JUMPDEST DUP3 PUSH2 0x13E3 JUMP JUMPDEST PUSH2 0xA2A JUMPI PUSH1 0x40 MLOAD PUSH32 0x8C379A000000000000000000000000000000000000000000000000000000000 DUP2 MSTORE PUSH1 0x4 ADD PUSH2 0xA21 SWAP1 PUSH2 0x2B13 JUMP JUMPDEST PUSH1 0x40 MLOAD DUP1 SWAP2 SUB SWAP1 REVERT JUMPDEST PUSH2 0xA35 DUP4 DUP4 DUP4 PUSH2 0x1478 JUMP JUMPDEST POP POP POP JUMP JUMPDEST PUSH1 0x0 PUSH1 0x7 SLOAD SWAP1 POP PUSH1 0x0 DUP2 EQ ISZERO DUP1 ISZERO PUSH2 0xA52 JUMPI POP DUP1 TIMESTAMP LT ISZERO JUMPDEST PUSH2 0xA91 JUMPI PUSH1 0x40 MLOAD PUSH32 0x8C379A000000000000000000000000000000000000000000000000000000000 DUP2 MSTORE PUSH1 0x4 ADD PUSH2 0xA88 SWAP1 PUSH2 0x2B7F JUMP JUMPDEST PUSH1 0x40 MLOAD DUP1 SWAP2 SUB SWAP1 REVERT JUMPDEST PUSH3 0x186A0 DUP3 PUSH2 0xA9E PUSH2 0x9C6 JUMP JUMPDEST PUSH2 0xAA8 SWAP2 SWAP1 PUSH2 0x2BCE JUMP JUMPDEST GT ISZERO PUSH2 0xAE9 JUMPI PUSH1 0x40 MLOAD PUSH32 0x8C379A000000000000000000000000000000000000000000000000000000000 DUP2 MSTORE PUSH1 0x4 ADD PUSH2 0xAE0 SWAP1 PUSH2 0x2C4E JUMP JUMPDEST PUSH1 0x40 MLOAD DUP1 SWAP2 SUB SWAP1 REVERT JUMPDEST PUSH1 0x0 DUP3 PUSH2 0xAF5 DUP4 PUSH2 0x101D JUMP JUMPDEST PUSH2 0xAFF SWAP2 SWAP1 PUSH2 0x2C6E JUMP JUMPDEST SWAP1 POP DUP1 CALLVALUE LT ISZERO PUSH2 0xB44 JUMPI PUSH1 0x40 MLOAD PUSH32 0x8C379A000000000000000000000000000000000000000000000000000000000 DUP2 MSTORE PUSH1 0x4 ADD PUSH2 0xB3B SWAP1 PUSH2 0x2CFC JUMP JUMPDEST PUSH1 0x40 MLOAD DUP1 SWAP2 SUB SWAP1 REVERT JUMPDEST PUSH1 0x0 JUMPDEST DUP4 DUP2 LT ISZERO PUSH2 0xB82 JUMPI PUSH1 0x0 PUSH2 0xB59 PUSH2 0x9C6 JUMP JUMPDEST SWAP1 POP PUSH2 0xB65 CALLER DUP3 PUSH2 0x1771 JUMP JUMPDEST PUSH2 0xB6E DUP2 PUSH2 0x198E JUMP JUMPDEST POP DUP1 DUP1 PUSH2 0xB7A SWAP1 PUSH2 0x2D1C JUMP JUMPDEST SWAP2 POP POP PUSH2 0xB47 JUMP JUMPDEST POP DUP1 CALLVALUE GT ISZERO PUSH2 0xBDE JUMPI CALLER PUSH20 0xFFFFFFFFFFFFFFFFFFFFFFFFFFFFFFFFFFFFFFFF AND PUSH2 0x8FC DUP3 CALLVALUE PUSH2 0xBB1 SWAP2 SWAP1 PUSH2 0x2D64 JUMP JUMPDEST SWAP1 DUP2 ISZERO MUL SWAP1 PUSH1 0x40 MLOAD PUSH1 0x0 PUSH1 0x40 MLOAD DUP1 DUP4 SUB DUP2 DUP6 DUP9 DUP9 CALL SWAP4 POP POP POP POP ISZERO DUP1 ISZERO PUSH2 0xBDC JUMPI RETURNDATASIZE PUSH1 0x0 DUP1 RETURNDATACOPY RETURNDATASIZE PUSH1 0x0 REVERT JUMPDEST POP JUMPDEST POP POP POP JUMP JUMPDEST PUSH1 0x7 SLOAD DUP2 JUMP JUMPDEST PUSH2 0xC04 DUP4 DUP4 DUP4 PUSH1 0x40 MLOAD DUP1 PUSH1 0x20 ADD PUSH1 0x40 MSTORE DUP1 PUSH1 0x0 DUP2 MSTORE POP PUSH2 0xF48 JUMP JUMPDEST POP POP POP JUMP JUMPDEST PUSH2 0xC11 PUSH2 0x11EF JUMP JUMPDEST DUP2 DUP2 PUSH1 0x8 SWAP2 DUP3 PUSH2 0xC22 SWAP3 SWAP2 SWAP1 PUSH2 0x2F4F JUMP JUMPDEST POP POP POP JUMP JUMPDEST PUSH1 0x78 PUSH2 0x7F8 PUSH2 0xC36 SWAP2 SWAP1 PUSH2 0x304E JUMP JUMPDEST PUSH7 0x354A6BA7A18000 PUSH8 0x16345785D8A0000 PUSH2 0xC51 SWAP2 SWAP1 PUSH2 0x2D64 JUMP JUMPDEST PUSH2 0xC5B SWAP2 SWAP1 PUSH2 0x304E JUMP JUMPDEST DUP2 JUMP JUMPDEST PUSH1 0x78 DUP2 JUMP JUMPDEST PUSH1 0x0 DUP1 PUSH2 0xC6F DUP4 PUSH2 0x19BA JUMP JUMPDEST SWAP1 POP PUSH1 0x0 PUSH20 0xFFFFFFFFFFFFFFFFFFFFFFFFFFFFFFFFFFFFFFFF AND DUP2 PUSH20 0xFFFFFFFFFFFFFFFFFFFFFFFFFFFFFFFFFFFFFFFF AND SUB PUSH2 0xCE0 JUMPI PUSH1 0x40 MLOAD PUSH32 0x8C379A000000000000000000000000000000000000000000000000000000000 DUP2 MSTORE PUSH1 0x4 ADD PUSH2 0xCD7 SWAP1 PUSH2 0x30CB JUMP JUMPDEST PUSH1 0x40 MLOAD DUP1 SWAP2 SUB SWAP1 REVERT JUMPDEST DUP1 SWAP2 POP POP SWAP2 SWAP1 POP JUMP JUMPDEST PUSH1 0x0 DUP1 PUSH20 0xFFFFFFFFFFFFFFFFFFFFFFFFFFFFFFFFFFFFFFFF AND DUP3 PUSH20 0xFFFFFFFFFFFFFFFFFFFFFFFFFFFFFFFFFFFFFFFF AND SUB PUSH2 0xD59 JUMPI PUSH1 0x40 MLOAD PUSH32 0x8C379A000000000000000000000000000000000000000000000000000000000 DUP2 MSTORE PUSH1 0x4 ADD PUSH2 0xD50 SWAP1 PUSH2 0x315D JUMP JUMPDEST PUSH1 0x40 MLOAD DUP1 SWAP2 SUB SWAP1 REVERT JUMPDEST PUSH1 0x4 PUSH1 0x0 DUP4 PUSH20 0xFFFFFFFFFFFFFFFFFFFFFFFFFFFFFFFFFFFFFFFF AND PUSH20 0xFFFFFFFFFFFFFFFFFFFFFFFFFFFFFFFFFFFFFFFF AND DUP2 MSTORE PUSH1 0x20 ADD SWAP1 DUP2 MSTORE PUSH1 0x20 ADD PUSH1 0x0 KECCAK256 SLOAD SWAP1 POP SWAP2 SWAP1 POP JUMP JUMPDEST PUSH2 0xDA8 PUSH2 0x11EF JUMP JUMPDEST PUSH2 0xDB2 PUSH1 0x0 PUSH2 0x19F7 JUMP JUMPDEST JUMP JUMPDEST PUSH8 0x16345785D8A0000 DUP2 JUMP JUMPDEST PUSH1 0x0 DUP1 PUSH1 0x0 SWAP1 SLOAD SWAP1 PUSH2 0x100 EXP SWAP1 DIV PUSH20 0xFFFFFFFFFFFFFFFFFFFFFFFFFFFFFFFFFFFFFFFF AND SWAP1 POP SWAP1 JUMP JUMPDEST PUSH1 0x60 PUSH1 0x2 DUP1 SLOAD PUSH2 0xDF8 SWAP1 PUSH2 0x294C JUMP JUMPDEST DUP1 PUSH1 0x1F ADD PUSH1 0x20 DUP1 SWAP2 DIV MUL PUSH1 0x20 ADD PUSH1 0x40 MLOAD SWAP1 DUP2 ADD PUSH1 0x40 MSTORE DUP1 SWAP3 SWAP2 SWAP1 DUP2 DUP2 MSTORE PUSH1 0x20 ADD DUP3 DUP1 SLOAD PUSH2 0xE24 SWAP1 PUSH2 0x294C JUMP JUMPDEST DUP1 ISZERO PUSH2 0xE71 JUMPI DUP1 PUSH1 0x1F LT PUSH2 0xE46 JUMPI PUSH2 0x100 DUP1 DUP4 SLOAD DIV MUL DUP4 MSTORE SWAP2 PUSH1 0x20 ADD SWAP2 PUSH2 0xE71 JUMP JUMPDEST DUP3 ADD SWAP2 SWAP1 PUSH1 0x0 MSTORE PUSH1 0x20 PUSH1 0x0 KECCAK256 SWAP1 JUMPDEST DUP2 SLOAD DUP2 MSTORE SWAP1 PUSH1 0x1 ADD SWAP1 PUSH1 0x20 ADD DUP1 DUP4 GT PUSH2 0xE54 JUMPI DUP3 SWAP1 SUB PUSH1 0x1F AND DUP3 ADD SWAP2 JUMPDEST POP POP POP POP POP SWAP1 POP SWAP1 JUMP JUMPDEST PUSH2 0xE8D PUSH2 0xE86 PUSH2 0x1322 JUMP JUMPDEST DUP4 DUP4 PUSH2 0x1ABB JUMP JUMPDEST POP POP JUMP JUMPDEST PUSH2 0xE99 PUSH2 0x11EF JUMP JUMPDEST PUSH1 0x0 CALLER PUSH20 0xFFFFFFFFFFFFFFFFFFFFFFFFFFFFFFFFFFFFFFFF AND SELFBALANCE PUSH1 0x40 MLOAD PUSH2 0xEBF SWAP1 PUSH2 0x31AE JUMP JUMPDEST PUSH1 0x0 PUSH1 0x40 MLOAD DUP1 DUP4 SUB DUP2 DUP6 DUP8 GAS CALL SWAP3 POP POP POP RETURNDATASIZE DUP1 PUSH1 0x0 DUP2 EQ PUSH2 0xEFC JUMPI PUSH1 0x40 MLOAD SWAP2 POP PUSH1 0x1F NOT PUSH1 0x3F RETURNDATASIZE ADD AND DUP3 ADD PUSH1 0x40 MSTORE RETURNDATASIZE DUP3 MSTORE RETURNDATASIZE PUSH1 0x0 PUSH1 0x20 DUP5 ADD RETURNDATACOPY PUSH2 0xF01 JUMP JUMPDEST PUSH1 0x60 SWAP2 POP JUMPDEST POP POP SWAP1 POP DUP1 PUSH2 0xF45 JUMPI PUSH1 0x40 MLOAD PUSH32 0x8C379A000000000000000000000000000000000000000000000000000000000 DUP2 MSTORE PUSH1 0x4 ADD PUSH2 0xF3C SWAP1 PUSH2 0x320F JUMP JUMPDEST PUSH1 0x40 MLOAD DUP1 SWAP2 SUB SWAP1 REVERT JUMPDEST POP JUMP JUMPDEST PUSH2 0xF59 PUSH2 0xF53 PUSH2 0x1322 JUMP JUMPDEST DUP4 PUSH2 0x13E3 JUMP JUMPDEST PUSH2 0xF98 JUMPI PUSH1 0x40 MLOAD PUSH32 0x8C379A000000000000000000000000000000000000000000000000000000000 DUP2 MSTORE PUSH1 0x4 ADD PUSH2 0xF8F SWAP1 PUSH2 0x2B13 JUMP JUMPDEST PUSH1 0x40 MLOAD DUP1 SWAP2 SUB SWAP1 REVERT JUMPDEST PUSH2 0xFA4 DUP5 DUP5 DUP5 DUP5 PUSH2 0x1C27 JUMP JUMPDEST POP POP POP POP JUMP JUMPDEST PUSH1 0x60 PUSH2 0xFB5 DUP3 PUSH2 0x12D7 JUMP JUMPDEST PUSH1 0x0 PUSH2 0xFBF PUSH2 0x1C83 JUMP JUMPDEST SWAP1 POP PUSH1 0x0 DUP2 MLOAD GT PUSH2 0xFDF JUMPI PUSH1 0x40 MLOAD DUP1 PUSH1 0x20 ADD PUSH1 0x40 MSTORE DUP1 PUSH1 0x0 DUP2 MSTORE POP PUSH2 0x100A JUMP JUMPDEST DUP1 PUSH2 0xFE9 DUP5 PUSH2 0x1D15 JUMP JUMPDEST PUSH1 0x40 MLOAD PUSH1 0x20 ADD PUSH2 0xFFA SWAP3 SWAP2 SWAP1 PUSH2 0x326B JUMP JUMPDEST PUSH1 0x40 MLOAD PUSH1 0x20 DUP2 DUP4 SUB SUB DUP2 MSTORE SWAP1 PUSH1 0x40 MSTORE JUMPDEST SWAP2 POP POP SWAP2 SWAP1 POP JUMP JUMPDEST PUSH7 0x354A6BA7A18000 DUP2 JUMP JUMPDEST PUSH1 0x0 DUP2 TIMESTAMP LT ISZERO PUSH2 0x1037 JUMPI PUSH8 0x16345785D8A0000 SWAP1 POP PUSH2 0x10CD JUMP JUMPDEST PUSH2 0x7F8 DUP3 TIMESTAMP PUSH2 0x1046 SWAP2 SWAP1 PUSH2 0x2D64 JUMP JUMPDEST GT ISZERO PUSH2 0x105B JUMPI PUSH7 0x354A6BA7A18000 SWAP1 POP PUSH2 0x10CD JUMP JUMPDEST PUSH1 0x0 PUSH1 0x78 DUP4 TIMESTAMP PUSH2 0x106B SWAP2 SWAP1 PUSH2 0x2D64 JUMP JUMPDEST PUSH2 0x1075 SWAP2 SWAP1 PUSH2 0x304E JUMP JUMPDEST SWAP1 POP PUSH1 0x78 PUSH2 0x7F8 PUSH2 0x1086 SWAP2 SWAP1 PUSH2 0x304E JUMP JUMPDEST PUSH7 0x354A6BA7A18000 PUSH8 0x16345785D8A0000 PUSH2 0x10A1 SWAP2 SWAP1 PUSH2 0x2D64 JUMP JUMPDEST PUSH2 0x10AB SWAP2 SWAP1 PUSH2 0x304E JUMP JUMPDEST DUP2 PUSH2 0x10B6 SWAP2 SWAP1 PUSH2 0x2C6E JUMP JUMPDEST PUSH8 0x16345785D8A0000 PUSH2 0x10C9 SWAP2 SWAP1 PUSH2 0x2D64 JUMP JUMPDEST SWAP2 POP POP JUMPDEST SWAP2 SWAP1 POP JUMP JUMPDEST PUSH1 0x0 PUSH1 0x6 PUSH1 0x0 DUP5 PUSH20 0xFFFFFFFFFFFFFFFFFFFFFFFFFFFFFFFFFFFFFFFF AND PUSH20 0xFFFFFFFFFFFFFFFFFFFFFFFFFFFFFFFFFFFFFFFF AND DUP2 MSTORE PUSH1 0x20 ADD SWAP1 DUP2 MSTORE PUSH1 0x20 ADD PUSH1 0x0 KECCAK256 PUSH1 0x0 DUP4 PUSH20 0xFFFFFFFFFFFFFFFFFFFFFFFFFFFFFFFFFFFFFFFF AND PUSH20 0xFFFFFFFFFFFFFFFFFFFFFFFFFFFFFFFFFFFFFFFF AND DUP2 MSTORE PUSH1 0x20 ADD SWAP1 DUP2 MSTORE PUSH1 0x20 ADD PUSH1 0x0 KECCAK256 PUSH1 0x0 SWAP1 SLOAD SWAP1 PUSH2 0x100 EXP SWAP1 DIV PUSH1 0xFF AND SWAP1 POP SWAP3 SWAP2 POP POP JUMP JUMPDEST PUSH2 0x116E PUSH2 0x11EF JUMP JUMPDEST PUSH1 0x0 PUSH20 0xFFFFFFFFFFFFFFFFFFFFFFFFFFFFFFFFFFFFFFFF AND DUP2 PUSH20 0xFFFFFFFFFFFFFFFFFFFFFFFFFFFFFFFFFFFFFFFF AND SUB PUSH2 0x11DD JUMPI PUSH1 0x40 MLOAD PUSH32 0x8C379A000000000000000000000000000000000000000000000000000000000 DUP2 MSTORE PUSH1 0x4 ADD PUSH2 0x11D4 SWAP1 PUSH2 0x3301 JUMP JUMPDEST PUSH1 0x40 MLOAD DUP1 SWAP2 SUB SWAP1 REVERT JUMPDEST PUSH2 0x11E6 DUP2 PUSH2 0x19F7 JUMP JUMPDEST POP JUMP JUMPDEST PUSH2 0x7F8 DUP2 JUMP JUMPDEST PUSH2 0x11F7 PUSH2 0x1322 JUMP JUMPDEST PUSH20 0xFFFFFFFFFFFFFFFFFFFFFFFFFFFFFFFFFFFFFFFF AND PUSH2 0x1215 PUSH2 0xDC0 JUMP JUMPDEST PUSH20 0xFFFFFFFFFFFFFFFFFFFFFFFFFFFFFFFFFFFFFFFF AND EQ PUSH2 0x126B JUMPI PUSH1 0x40 MLOAD PUSH32 0x8C379A000000000000000000000000000000000000000000000000000000000 DUP2 MSTORE PUSH1 0x4 ADD PUSH2 0x1262 SWAP1 PUSH2 0x336D JUMP JUMPDEST PUSH1 0x40 MLOAD DUP1 SWAP2 SUB SWAP1 REVERT JUMPDEST JUMP JUMPDEST PUSH1 0x0 PUSH32 0x1FFC9A700000000000000000000000000000000000000000000000000000000 PUSH28 0xFFFFFFFFFFFFFFFFFFFFFFFFFFFFFFFFFFFFFFFFFFFFFFFFFFFFFFFF NOT AND DUP3 PUSH28 0xFFFFFFFFFFFFFFFFFFFFFFFFFFFFFFFFFFFFFFFFFFFFFFFFFFFFFFFF NOT AND EQ SWAP1 POP SWAP2 SWAP1 POP JUMP JUMPDEST PUSH2 0x12E0 DUP2 PUSH2 0x1DE3 JUMP JUMPDEST PUSH2 0x131F JUMPI PUSH1 0x40 MLOAD PUSH32 0x8C379A000000000000000000000000000000000000000000000000000000000 DUP2 MSTORE PUSH1 0x4 ADD PUSH2 0x1316 SWAP1 PUSH2 0x30CB JUMP JUMPDEST PUSH1 0x40 MLOAD DUP1 SWAP2 SUB SWAP1 REVERT JUMPDEST POP JUMP JUMPDEST PUSH1 0x0 CALLER SWAP1 POP SWAP1 JUMP JUMPDEST DUP2 PUSH1 0x5 PUSH1 0x0 DUP4 DUP2 MSTORE PUSH1 0x20 ADD SWAP1 DUP2 MSTORE PUSH1 0x20 ADD PUSH1 0x0 KECCAK256 PUSH1 0x0 PUSH2 0x100 EXP DUP2 SLOAD DUP2 PUSH20 0xFFFFFFFFFFFFFFFFFFFFFFFFFFFFFFFFFFFFFFFF MUL NOT AND SWAP1 DUP4 PUSH20 0xFFFFFFFFFFFFFFFFFFFFFFFFFFFFFFFFFFFFFFFF AND MUL OR SWAP1 SSTORE POP DUP1 DUP3 PUSH20 0xFFFFFFFFFFFFFFFFFFFFFFFFFFFFFFFFFFFFFFFF AND PUSH2 0x139D DUP4 PUSH2 0xC63 JUMP JUMPDEST PUSH20 0xFFFFFFFFFFFFFFFFFFFFFFFFFFFFFFFFFFFFFFFF AND PUSH32 0x8C5BE1E5EBEC7D5BD14F71427D1E84F3DD0314C0F7B2291E5B200AC8C7C3B925 PUSH1 0x40 MLOAD PUSH1 0x40 MLOAD DUP1 SWAP2 SUB SWAP1 LOG4 POP POP JUMP JUMPDEST PUSH1 0x0 DUP1 PUSH2 0x13EF DUP4 PUSH2 0xC63 JUMP JUMPDEST SWAP1 POP DUP1 PUSH20 0xFFFFFFFFFFFFFFFFFFFFFFFFFFFFFFFFFFFFFFFF AND DUP5 PUSH20 0xFFFFFFFFFFFFFFFFFFFFFFFFFFFFFFFFFFFFFFFF AND EQ DUP1 PUSH2 0x1431 JUMPI POP PUSH2 0x1430 DUP2 DUP6 PUSH2 0x10D2 JUMP JUMPDEST JUMPDEST DUP1 PUSH2 0x146F JUMPI POP DUP4 PUSH20 0xFFFFFFFFFFFFFFFFFFFFFFFFFFFFFFFFFFFFFFFF AND PUSH2 0x1457 DUP5 PUSH2 0x869 JUMP JUMPDEST PUSH20 0xFFFFFFFFFFFFFFFFFFFFFFFFFFFFFFFFFFFFFFFF AND EQ JUMPDEST SWAP2 POP POP SWAP3 SWAP2 POP POP JUMP JUMPDEST DUP3 PUSH20 0xFFFFFFFFFFFFFFFFFFFFFFFFFFFFFFFFFFFFFFFF AND PUSH2 0x1498 DUP3 PUSH2 0xC63 JUMP JUMPDEST PUSH20 0xFFFFFFFFFFFFFFFFFFFFFFFFFFFFFFFFFFFFFFFF AND EQ PUSH2 0x14EE JUMPI PUSH1 0x40 MLOAD PUSH32 0x8C379A000000000000000000000000000000000000000000000000000000000 DUP2 MSTORE PUSH1 0x4 ADD PUSH2 0x14E5 SWAP1 PUSH2 0x33FF JUMP JUMPDEST PUSH1 0x40 MLOAD DUP1 SWAP2 SUB SWAP1 REVERT JUMPDEST PUSH1 0x0 PUSH20 0xFFFFFFFFFFFFFFFFFFFFFFFFFFFFFFFFFFFFFFFF AND DUP3 PUSH20 0xFFFFFFFFFFFFFFFFFFFFFFFFFFFFFFFFFFFFFFFF AND SUB PUSH2 0x155D JUMPI PUSH1 0x40 MLOAD PUSH32 0x8C379A000000000000000000000000000000000000000000000000000000000 DUP2 MSTORE PUSH1 0x4 ADD PUSH2 0x1554 SWAP1 PUSH2 0x3491 JUMP JUMPDEST PUSH1 0x40 MLOAD DUP1 SWAP2 SUB SWAP1 REVERT JUMPDEST PUSH2 0x156A DUP4 DUP4 DUP4 PUSH1 0x1 PUSH2 0x1E24 JUMP JUMPDEST DUP3 PUSH20 0xFFFFFFFFFFFFFFFFFFFFFFFFFFFFFFFFFFFFFFFF AND PUSH2 0x158A DUP3 PUSH2 0xC63 JUMP JUMPDEST PUSH20 0xFFFFFFFFFFFFFFFFFFFFFFFFFFFFFFFFFFFFFFFF AND EQ PUSH2 0x15E0 JUMPI PUSH1 0x40 MLOAD PUSH32 0x8C379A000000000000000000000000000000000000000000000000000000000 DUP2 MSTORE PUSH1 0x4 ADD PUSH2 0x15D7 SWAP1 PUSH2 0x33FF JUMP JUMPDEST PUSH1 0x40 MLOAD DUP1 SWAP2 SUB SWAP1 REVERT JUMPDEST PUSH1 0x5 PUSH1 0x0 DUP3 DUP2 MSTORE PUSH1 0x20 ADD SWAP1 DUP2 MSTORE PUSH1 0x20 ADD PUSH1 0x0 KECCAK256 PUSH1 0x0 PUSH2 0x100 EXP DUP2 SLOAD SWAP1 PUSH20 0xFFFFFFFFFFFFFFFFFFFFFFFFFFFFFFFFFFFFFFFF MUL NOT AND SWAP1 SSTORE PUSH1 0x1 PUSH1 0x4 PUSH1 0x0 DUP6 PUSH20 0xFFFFFFFFFFFFFFFFFFFFFFFFFFFFFFFFFFFFFFFF AND PUSH20 0xFFFFFFFFFFFFFFFFFFFFFFFFFFFFFFFFFFFFFFFF AND DUP2 MSTORE PUSH1 0x20 ADD SWAP1 DUP2 MSTORE PUSH1 0x20 ADD PUSH1 0x0 KECCAK256 PUSH1 0x0 DUP3 DUP3 SLOAD SUB SWAP3 POP POP DUP2 SWAP1 SSTORE POP PUSH1 0x1 PUSH1 0x4 PUSH1 0x0 DUP5 PUSH20 0xFFFFFFFFFFFFFFFFFFFFFFFFFFFFFFFFFFFFFFFF AND PUSH20 0xFFFFFFFFFFFFFFFFFFFFFFFFFFFFFFFFFFFFFFFF AND DUP2 MSTORE PUSH1 0x20 ADD SWAP1 DUP2 MSTORE PUSH1 0x20 ADD PUSH1 0x0 KECCAK256 PUSH1 0x0 DUP3 DUP3 SLOAD ADD SWAP3 POP POP DUP2 SWAP1 SSTORE POP DUP2 PUSH1 0x3 PUSH1 0x0 DUP4 DUP2 MSTORE PUSH1 0x20 ADD SWAP1 DUP2 MSTORE PUSH1 0x20 ADD PUSH1 0x0 KECCAK256 PUSH1 0x0 PUSH2 0x100 EXP DUP2 SLOAD DUP2 PUSH20 0xFFFFFFFFFFFFFFFFFFFFFFFFFFFFFFFFFFFFFFFF MUL NOT AND SWAP1 DUP4 PUSH20 0xFFFFFFFFFFFFFFFFFFFFFFFFFFFFFFFFFFFFFFFF AND MUL OR SWAP1 SSTORE POP DUP1 DUP3 PUSH20 0xFFFFFFFFFFFFFFFFFFFFFFFFFFFFFFFFFFFFFFFF AND DUP5 PUSH20 0xFFFFFFFFFFFFFFFFFFFFFFFFFFFFFFFFFFFFFFFF AND PUSH32 0xDDF252AD1BE2C89B69C2B068FC378DAA952BA7F163C4A11628F55A4DF523B3EF PUSH1 0x40 MLOAD PUSH1 0x40 MLOAD DUP1 SWAP2 SUB SWAP1 LOG4 PUSH2 0x176C DUP4 DUP4 DUP4 PUSH1 0x1 PUSH2 0x1F4A JUMP JUMPDEST POP POP POP JUMP JUMPDEST PUSH1 0x0 PUSH20 0xFFFFFFFFFFFFFFFFFFFFFFFFFFFFFFFFFFFFFFFF AND DUP3 PUSH20 0xFFFFFFFFFFFFFFFFFFFFFFFFFFFFFFFFFFFFFFFF AND SUB PUSH2 0x17E0 JUMPI PUSH1 0x40 MLOAD PUSH32 0x8C379A000000000000000000000000000000000000000000000000000000000 DUP2 MSTORE PUSH1 0x4 ADD PUSH2 0x17D7 SWAP1 PUSH2 0x34FD JUMP JUMPDEST PUSH1 0x40 MLOAD DUP1 SWAP2 SUB SWAP1 REVERT JUMPDEST PUSH2 0x17E9 DUP2 PUSH2 0x1DE3 JUMP JUMPDEST ISZERO PUSH2 0x1829 JUMPI PUSH1 0x40 MLOAD PUSH32 0x8C379A000000000000000000000000000000000000000000000000000000000 DUP2 MSTORE PUSH1 0x4 ADD PUSH2 0x1820 SWAP1 PUSH2 0x3569 JUMP JUMPDEST PUSH1 0x40 MLOAD DUP1 SWAP2 SUB SWAP1 REVERT JUMPDEST PUSH2 0x1837 PUSH1 0x0 DUP4 DUP4 PUSH1 0x1 PUSH2 0x1E24 JUMP JUMPDEST PUSH2 0x1840 DUP2 PUSH2 0x1DE3 JUMP JUMPDEST ISZERO PUSH2 0x1880 JUMPI PUSH1 0x40 MLOAD PUSH32 0x8C379A000000000000000000000000000000000000000000000000000000000 DUP2 MSTORE PUSH1 0x4 ADD PUSH2 0x1877 SWAP1 PUSH2 0x3569 JUMP JUMPDEST PUSH1 0x40 MLOAD DUP1 SWAP2 SUB SWAP1 REVERT JUMPDEST PUSH1 0x1 PUSH1 0x4 PUSH1 0x0 DUP5 PUSH20 0xFFFFFFFFFFFFFFFFFFFFFFFFFFFFFFFFFFFFFFFF AND PUSH20 0xFFFFFFFFFFFFFFFFFFFFFFFFFFFFFFFFFFFFFFFF AND DUP2 MSTORE PUSH1 0x20 ADD SWAP1 DUP2 MSTORE PUSH1 0x20 ADD PUSH1 0x0 KECCAK256 PUSH1 0x0 DUP3 DUP3 SLOAD ADD SWAP3 POP POP DUP2 SWAP1 SSTORE POP DUP2 PUSH1 0x3 PUSH1 0x0 DUP4 DUP2 MSTORE PUSH1 0x20 ADD SWAP1 DUP2 MSTORE PUSH1 0x20 ADD PUSH1 0x0 KECCAK256 PUSH1 0x0 PUSH2 0x100 EXP DUP2 SLOAD DUP2 PUSH20 0xFFFFFFFFFFFFFFFFFFFFFFFFFFFFFFFFFFFFFFFF MUL NOT AND SWAP1 DUP4 PUSH20 0xFFFFFFFFFFFFFFFFFFFFFFFFFFFFFFFFFFFFFFFF AND MUL OR SWAP1 SSTORE POP DUP1 DUP3 PUSH20 0xFFFFFFFFFFFFFFFFFFFFFFFFFFFFFFFFFFFFFFFF AND PUSH1 0x0 PUSH20 0xFFFFFFFFFFFFFFFFFFFFFFFFFFFFFFFFFFFFFFFF AND PUSH32 0xDDF252AD1BE2C89B69C2B068FC378DAA952BA7F163C4A11628F55A4DF523B3EF PUSH1 0x40 MLOAD PUSH1 0x40 MLOAD DUP1 SWAP2 SUB SWAP1 LOG4 PUSH2 0x198A PUSH1 0x0 DUP4 DUP4 PUSH1 0x1 PUSH2 0x1F4A JUMP JUMPDEST POP POP JUMP JUMPDEST PUSH1 0x9 DUP2 SWAP1 DUP1 PUSH1 0x1 DUP2 SLOAD ADD DUP1 DUP3 SSTORE DUP1 SWAP2 POP POP PUSH1 0x1 SWAP1 SUB SWAP1 PUSH1 0x0 MSTORE PUSH1 0x20 PUSH1 0x0 KECCAK256 ADD PUSH1 0x0 SWAP1 SWAP2 SWAP1 SWAP2 SWAP1 SWAP2 POP SSTORE POP JUMP JUMPDEST PUSH1 0x0 PUSH1 0x3 PUSH1 0x0 DUP4 DUP2 MSTORE PUSH1 0x20 ADD SWAP1 DUP2 MSTORE PUSH1 0x20 ADD PUSH1 0x0 KECCAK256 PUSH1 0x0 SWAP1 SLOAD SWAP1 PUSH2 0x100 EXP SWAP1 DIV PUSH20 0xFFFFFFFFFFFFFFFFFFFFFFFFFFFFFFFFFFFFFFFF AND SWAP1 POP SWAP2 SWAP1 POP JUMP JUMPDEST PUSH1 0x0 DUP1 PUSH1 0x0 SWAP1 SLOAD SWAP1 PUSH2 0x100 EXP SWAP1 DIV PUSH20 0xFFFFFFFFFFFFFFFFFFFFFFFFFFFFFFFFFFFFFFFF AND SWAP1 POP DUP2 PUSH1 0x0 DUP1 PUSH2 0x100 EXP DUP2 SLOAD DUP2 PUSH20 0xFFFFFFFFFFFFFFFFFFFFFFFFFFFFFFFFFFFFFFFF MUL NOT AND SWAP1 DUP4 PUSH20 0xFFFFFFFFFFFFFFFFFFFFFFFFFFFFFFFFFFFFFFFF AND MUL OR SWAP1 SSTORE POP DUP2 PUSH20 0xFFFFFFFFFFFFFFFFFFFFFFFFFFFFFFFFFFFFFFFF AND DUP2 PUSH20 0xFFFFFFFFFFFFFFFFFFFFFFFFFFFFFFFFFFFFFFFF AND PUSH32 0x8BE0079C531659141344CD1FD0A4F28419497F9722A3DAAFE3B4186F6B6457E0 PUSH1 0x40 MLOAD PUSH1 0x40 MLOAD DUP1 SWAP2 SUB SWAP1 LOG3 POP POP JUMP JUMPDEST DUP2 PUSH20 0xFFFFFFFFFFFFFFFFFFFFFFFFFFFFFFFFFFFFFFFF AND DUP4 PUSH20 0xFFFFFFFFFFFFFFFFFFFFFFFFFFFFFFFFFFFFFFFF AND SUB PUSH2 0x1B29 JUMPI PUSH1 0x40 MLOAD PUSH32 0x8C379A000000000000000000000000000000000000000000000000000000000 DUP2 MSTORE PUSH1 0x4 ADD PUSH2 0x1B20 SWAP1 PUSH2 0x35D5 JUMP JUMPDEST PUSH1 0x40 MLOAD DUP1 SWAP2 SUB SWAP1 REVERT JUMPDEST DUP1 PUSH1 0x6 PUSH1 0x0 DUP6 PUSH20 0xFFFFFFFFFFFFFFFFFFFFFFFFFFFFFFFFFFFFFFFF AND PUSH20 0xFFFFFFFFFFFFFFFFFFFFFFFFFFFFFFFFFFFFFFFF AND DUP2 MSTORE PUSH1 0x20 ADD SWAP1 DUP2 MSTORE PUSH1 0x20 ADD PUSH1 0x0 KECCAK256 PUSH1 0x0 DUP5 PUSH20 0xFFFFFFFFFFFFFFFFFFFFFFFFFFFFFFFFFFFFFFFF AND PUSH20 0xFFFFFFFFFFFFFFFFFFFFFFFFFFFFFFFFFFFFFFFF AND DUP2 MSTORE PUSH1 0x20 ADD SWAP1 DUP2 MSTORE PUSH1 0x20 ADD PUSH1 0x0 KECCAK256 PUSH1 0x0 PUSH2 0x100 EXP DUP2 SLOAD DUP2 PUSH1 0xFF MUL NOT AND SWAP1 DUP4 ISZERO ISZERO MUL OR SWAP1 SSTORE POP DUP2 PUSH20 0xFFFFFFFFFFFFFFFFFFFFFFFFFFFFFFFFFFFFFFFF AND DUP4 PUSH20 0xFFFFFFFFFFFFFFFFFFFFFFFFFFFFFFFFFFFFFFFF AND PUSH32 0x17307EAB39AB6107E8899845AD3D59BD9653F200F220920489CA2B5937696C31 DUP4 PUSH1 0x40 MLOAD PUSH2 0x1C1A SWAP2 SWAP1 PUSH2 0x236A JUMP JUMPDEST PUSH1 0x40 MLOAD DUP1 SWAP2 SUB SWAP1 LOG3 POP POP POP JUMP JUMPDEST PUSH2 0x1C32 DUP5 DUP5 DUP5 PUSH2 0x1478 JUMP JUMPDEST PUSH2 0x1C3E DUP5 DUP5 DUP5 DUP5 PUSH2 0x1F50 JUMP JUMPDEST PUSH2 0x1C7D JUMPI PUSH1 0x40 MLOAD PUSH32 0x8C379A000000000000000000000000000000000000000000000000000000000 DUP2 MSTORE PUSH1 0x4 ADD PUSH2 0x1C74 SWAP1 PUSH2 0x3667 JUMP JUMPDEST PUSH1 0x40 MLOAD DUP1 SWAP2 SUB SWAP1 REVERT JUMPDEST POP POP POP POP JUMP JUMPDEST PUSH1 0x60 PUSH1 0x8 DUP1 SLOAD PUSH2 0x1C92 SWAP1 PUSH2 0x294C JUMP JUMPDEST DUP1 PUSH1 0x1F ADD PUSH1 0x20 DUP1 SWAP2 DIV MUL PUSH1 0x20 ADD PUSH1 0x40 MLOAD SWAP1 DUP2 ADD PUSH1 0x40 MSTORE DUP1 SWAP3 SWAP2 SWAP1 DUP2 DUP2 MSTORE PUSH1 0x20 ADD DUP3 DUP1 SLOAD PUSH2 0x1CBE SWAP1 PUSH2 0x294C JUMP JUMPDEST DUP1 ISZERO PUSH2 0x1D0B JUMPI DUP1 PUSH1 0x1F LT PUSH2 0x1CE0 JUMPI PUSH2 0x100 DUP1 DUP4 SLOAD DIV MUL DUP4 MSTORE SWAP2 PUSH1 0x20 ADD SWAP2 PUSH2 0x1D0B JUMP JUMPDEST DUP3 ADD SWAP2 SWAP1 PUSH1 0x0 MSTORE PUSH1 0x20 PUSH1 0x0 KECCAK256 SWAP1 JUMPDEST DUP2 SLOAD DUP2 MSTORE SWAP1 PUSH1 0x1 ADD SWAP1 PUSH1 0x20 ADD DUP1 DUP4 GT PUSH2 0x1CEE JUMPI DUP3 SWAP1 SUB PUSH1 0x1F AND DUP3 ADD SWAP2 JUMPDEST POP POP POP POP POP SWAP1 POP SWAP1 JUMP JUMPDEST PUSH1 0x60 PUSH1 0x0 PUSH1 0x1 PUSH2 0x1D24 DUP5 PUSH2 0x20D7 JUMP JUMPDEST ADD SWAP1 POP PUSH1 0x0 DUP2 PUSH8 0xFFFFFFFFFFFFFFFF DUP2 GT ISZERO PUSH2 0x1D43 JUMPI PUSH2 0x1D42 PUSH2 0x272F JUMP JUMPDEST JUMPDEST PUSH1 0x40 MLOAD SWAP1 DUP1 DUP3 MSTORE DUP1 PUSH1 0x1F ADD PUSH1 0x1F NOT AND PUSH1 0x20 ADD DUP3 ADD PUSH1 0x40 MSTORE DUP1 ISZERO PUSH2 0x1D75 JUMPI DUP2 PUSH1 0x20 ADD PUSH1 0x1 DUP3 MUL DUP1 CALLDATASIZE DUP4 CALLDATACOPY DUP1 DUP3 ADD SWAP2 POP POP SWAP1 POP JUMPDEST POP SWAP1 POP PUSH1 0x0 DUP3 PUSH1 0x20 ADD DUP3 ADD SWAP1 POP JUMPDEST PUSH1 0x1 ISZERO PUSH2 0x1DD8 JUMPI DUP1 DUP1 PUSH1 0x1 SWAP1 SUB SWAP2 POP POP PUSH32 0x3031323334353637383961626364656600000000000000000000000000000000 PUSH1 0xA DUP7 MOD BYTE DUP2 MSTORE8 PUSH1 0xA DUP6 DUP2 PUSH2 0x1DCC JUMPI PUSH2 0x1DCB PUSH2 0x301F JUMP JUMPDEST JUMPDEST DIV SWAP5 POP PUSH1 0x0 DUP6 SUB PUSH2 0x1D83 JUMPI JUMPDEST DUP2 SWAP4 POP POP POP POP SWAP2 SWAP1 POP JUMP JUMPDEST PUSH1 0x0 DUP1 PUSH20 0xFFFFFFFFFFFFFFFFFFFFFFFFFFFFFFFFFFFFFFFF AND PUSH2 0x1E05 DUP4 PUSH2 0x19BA JUMP JUMPDEST PUSH20 0xFFFFFFFFFFFFFFFFFFFFFFFFFFFFFFFFFFFFFFFF AND EQ ISZERO SWAP1 POP SWAP2 SWAP1 POP JUMP JUMPDEST PUSH1 0x1 DUP2 GT ISZERO PUSH2 0x1F44 JUMPI PUSH1 0x0 PUSH20 0xFFFFFFFFFFFFFFFFFFFFFFFFFFFFFFFFFFFFFFFF AND DUP5 PUSH20 0xFFFFFFFFFFFFFFFFFFFFFFFFFFFFFFFFFFFFFFFF AND EQ PUSH2 0x1EB8 JUMPI DUP1 PUSH1 0x4 PUSH1 0x0 DUP7 PUSH20 0xFFFFFFFFFFFFFFFFFFFFFFFFFFFFFFFFFFFFFFFF AND PUSH20 0xFFFFFFFFFFFFFFFFFFFFFFFFFFFFFFFFFFFFFFFF AND DUP2 MSTORE PUSH1 0x20 ADD SWAP1 DUP2 MSTORE PUSH1 0x20 ADD PUSH1 0x0 KECCAK256 PUSH1 0x0 DUP3 DUP3 SLOAD PUSH2 0x1EB0 SWAP2 SWAP1 PUSH2 0x2D64 JUMP JUMPDEST SWAP3 POP POP DUP2 SWAP1 SSTORE POP JUMPDEST PUSH1 0x0 PUSH20 0xFFFFFFFFFFFFFFFFFFFFFFFFFFFFFFFFFFFFFFFF AND DUP4 PUSH20 0xFFFFFFFFFFFFFFFFFFFFFFFFFFFFFFFFFFFFFFFF AND EQ PUSH2 0x1F43 JUMPI DUP1 PUSH1 0x4 PUSH1 0x0 DUP6 PUSH20 0xFFFFFFFFFFFFFFFFFFFFFFFFFFFFFFFFFFFFFFFF AND PUSH20 0xFFFFFFFFFFFFFFFFFFFFFFFFFFFFFFFFFFFFFFFF AND DUP2 MSTORE PUSH1 0x20 ADD SWAP1 DUP2 MSTORE PUSH1 0x20 ADD PUSH1 0x0 KECCAK256 PUSH1 0x0 DUP3 DUP3 SLOAD PUSH2 0x1F3B SWAP2 SWAP1 PUSH2 0x2BCE JUMP JUMPDEST SWAP3 POP POP DUP2 SWAP1 SSTORE POP JUMPDEST JUMPDEST POP POP POP POP JUMP JUMPDEST POP POP POP POP JUMP JUMPDEST PUSH1 0x0 PUSH2 0x1F71 DUP5 PUSH20 0xFFFFFFFFFFFFFFFFFFFFFFFFFFFFFFFFFFFFFFFF AND PUSH2 0x222A JUMP JUMPDEST ISZERO PUSH2 0x20CA JUMPI DUP4 PUSH20 0xFFFFFFFFFFFFFFFFFFFFFFFFFFFFFFFFFFFFFFFF AND PUSH4 0x150B7A02 PUSH2 0x1F9A PUSH2 0x1322 JUMP JUMPDEST DUP8 DUP7 DUP7 PUSH1 0x40 MLOAD DUP6 PUSH4 0xFFFFFFFF AND PUSH1 0xE0 SHL DUP2 MSTORE PUSH1 0x4 ADD PUSH2 0x1FBC SWAP5 SWAP4 SWAP3 SWAP2 SWAP1 PUSH2 0x36DC JUMP JUMPDEST PUSH1 0x20 PUSH1 0x40 MLOAD DUP1 DUP4 SUB DUP2 PUSH1 0x0 DUP8 GAS CALL SWAP3 POP POP POP DUP1 ISZERO PUSH2 0x1FF8 JUMPI POP PUSH1 0x40 MLOAD RETURNDATASIZE PUSH1 0x1F NOT PUSH1 0x1F DUP3 ADD AND DUP3 ADD DUP1 PUSH1 0x40 MSTORE POP DUP2 ADD SWAP1 PUSH2 0x1FF5 SWAP2 SWAP1 PUSH2 0x373D JUMP JUMPDEST PUSH1 0x1 JUMPDEST PUSH2 0x207A JUMPI RETURNDATASIZE DUP1 PUSH1 0x0 DUP2 EQ PUSH2 0x2028 JUMPI PUSH1 0x40 MLOAD SWAP2 POP PUSH1 0x1F NOT PUSH1 0x3F RETURNDATASIZE ADD AND DUP3 ADD PUSH1 0x40 MSTORE RETURNDATASIZE DUP3 MSTORE RETURNDATASIZE PUSH1 0x0 PUSH1 0x20 DUP5 ADD RETURNDATACOPY PUSH2 0x202D JUMP JUMPDEST PUSH1 0x60 SWAP2 POP JUMPDEST POP PUSH1 0x0 DUP2 MLOAD SUB PUSH2 0x2072 JUMPI PUSH1 0x40 MLOAD PUSH32 0x8C379A000000000000000000000000000000000000000000000000000000000 DUP2 MSTORE PUSH1 0x4 ADD PUSH2 0x2069 SWAP1 PUSH2 0x3667 JUMP JUMPDEST PUSH1 0x40 MLOAD DUP1 SWAP2 SUB SWAP1 REVERT JUMPDEST DUP1 MLOAD DUP2 PUSH1 0x20 ADD REVERT JUMPDEST PUSH4 0x150B7A02 PUSH1 0xE0 SHL PUSH28 0xFFFFFFFFFFFFFFFFFFFFFFFFFFFFFFFFFFFFFFFFFFFFFFFFFFFFFFFF NOT AND DUP2 PUSH28 0xFFFFFFFFFFFFFFFFFFFFFFFFFFFFFFFFFFFFFFFFFFFFFFFFFFFFFFFF NOT AND EQ SWAP2 POP POP PUSH2 0x20CF JUMP JUMPDEST PUSH1 0x1 SWAP1 POP JUMPDEST SWAP5 SWAP4 POP POP POP POP JUMP JUMPDEST PUSH1 0x0 DUP1 PUSH1 0x0 SWAP1 POP PUSH27 0x184F03E93FF9F4DAA797ED6E38ED64BF6A1F010000000000000000 DUP4 LT PUSH2 0x2135 JUMPI PUSH27 0x184F03E93FF9F4DAA797ED6E38ED64BF6A1F010000000000000000 DUP4 DUP2 PUSH2 0x212B JUMPI PUSH2 0x212A PUSH2 0x301F JUMP JUMPDEST JUMPDEST DIV SWAP3 POP PUSH1 0x40 DUP2 ADD SWAP1 POP JUMPDEST PUSH14 0x4EE2D6D415B85ACEF8100000000 DUP4 LT PUSH2 0x2172 JUMPI PUSH14 0x4EE2D6D415B85ACEF8100000000 DUP4 DUP2 PUSH2 0x2168 JUMPI PUSH2 0x2167 PUSH2 0x301F JUMP JUMPDEST JUMPDEST DIV SWAP3 POP PUSH1 0x20 DUP2 ADD SWAP1 POP JUMPDEST PUSH7 0x2386F26FC10000 DUP4 LT PUSH2 0x21A1 JUMPI PUSH7 0x2386F26FC10000 DUP4 DUP2 PUSH2 0x2197 JUMPI PUSH2 0x2196 PUSH2 0x301F JUMP JUMPDEST JUMPDEST DIV SWAP3 POP PUSH1 0x10 DUP2 ADD SWAP1 POP JUMPDEST PUSH4 0x5F5E100 DUP4 LT PUSH2 0x21CA JUMPI PUSH4 0x5F5E100 DUP4 DUP2 PUSH2 0x21C0 JUMPI PUSH2 0x21BF PUSH2 0x301F JUMP JUMPDEST JUMPDEST DIV SWAP3 POP PUSH1 0x8 DUP2 ADD SWAP1 POP JUMPDEST PUSH2 0x2710 DUP4 LT PUSH2 0x21EF JUMPI PUSH2 0x2710 DUP4 DUP2 PUSH2 0x21E5 JUMPI PUSH2 0x21E4 PUSH2 0x301F JUMP JUMPDEST JUMPDEST DIV SWAP3 POP PUSH1 0x4 DUP2 ADD SWAP1 POP JUMPDEST PUSH1 0x64 DUP4 LT PUSH2 0x2212 JUMPI PUSH1 0x64 DUP4 DUP2 PUSH2 0x2208 JUMPI PUSH2 0x2207 PUSH2 0x301F JUMP JUMPDEST JUMPDEST DIV SWAP3 POP PUSH1 0x2 DUP2 ADD SWAP1 POP JUMPDEST PUSH1 0xA DUP4 LT PUSH2 0x2221 JUMPI PUSH1 0x1 DUP2 ADD SWAP1 POP JUMPDEST DUP1 SWAP2 POP POP SWAP2 SWAP1 POP JUMP JUMPDEST PUSH1 0x0 DUP1 DUP3 PUSH20 0xFFFFFFFFFFFFFFFFFFFFFFFFFFFFFFFFFFFFFFFF AND EXTCODESIZE GT SWAP1 POP SWAP2 SWAP1 POP JUMP JUMPDEST PUSH1 0x0 PUSH1 0x40 MLOAD SWAP1 POP SWAP1 JUMP JUMPDEST PUSH1 0x0 DUP1 REVERT JUMPDEST PUSH1 0x0 DUP1 REVERT JUMPDEST PUSH1 0x0 PUSH4 0xFFFFFFFF DUP3 AND SWAP1 POP SWAP2 SWAP1 POP JUMP JUMPDEST PUSH2 0x227A DUP2 PUSH2 0x2261 JUMP JUMPDEST DUP2 EQ PUSH2 0x2285 JUMPI PUSH1 0x0 DUP1 REVERT JUMPDEST POP JUMP JUMPDEST PUSH1 0x0 DUP2 CALLDATALOAD SWAP1 POP PUSH2 0x2297 DUP2 PUSH2 0x2271 JUMP JUMPDEST SWAP3 SWAP2 POP POP JUMP JUMPDEST PUSH1 0x0 PUSH1 0x20 DUP3 DUP5 SUB SLT ISZERO PUSH2 0x22B3 JUMPI PUSH2 0x22B2 PUSH2 0x2257 JUMP JUMPDEST JUMPDEST PUSH1 0x0 PUSH2 0x22C1 DUP5 DUP3 DUP6 ADD PUSH2 0x2288 JUMP JUMPDEST SWAP2 POP POP SWAP3 SWAP2 POP POP JUMP JUMPDEST PUSH1 0x0 PUSH32 0xFFFFFFFF00000000000000000000000000000000000000000000000000000000 DUP3 AND SWAP1 POP SWAP2 SWAP1 POP JUMP JUMPDEST PUSH2 0x22FF DUP2 PUSH2 0x22CA JUMP JUMPDEST DUP2 EQ PUSH2 0x230A JUMPI PUSH1 0x0 DUP1 REVERT JUMPDEST POP JUMP JUMPDEST PUSH1 0x0 DUP2 CALLDATALOAD SWAP1 POP PUSH2 0x231C DUP2 PUSH2 0x22F6 JUMP JUMPDEST SWAP3 SWAP2 POP POP JUMP JUMPDEST PUSH1 0x0 PUSH1 0x20 DUP3 DUP5 SUB SLT ISZERO PUSH2 0x2338 JUMPI PUSH2 0x2337 PUSH2 0x2257 JUMP JUMPDEST JUMPDEST PUSH1 0x0 PUSH2 0x2346 DUP5 DUP3 DUP6 ADD PUSH2 0x230D JUMP JUMPDEST SWAP2 POP POP SWAP3 SWAP2 POP POP JUMP JUMPDEST PUSH1 0x0 DUP2 ISZERO ISZERO SWAP1 POP SWAP2 SWAP1 POP JUMP JUMPDEST PUSH2 0x2364 DUP2 PUSH2 0x234F JUMP JUMPDEST DUP3 MSTORE POP POP JUMP JUMPDEST PUSH1 0x0 PUSH1 0x20 DUP3 ADD SWAP1 POP PUSH2 0x237F PUSH1 0x0 DUP4 ADD DUP5 PUSH2 0x235B JUMP JUMPDEST SWAP3 SWAP2 POP POP JUMP JUMPDEST PUSH1 0x0 DUP2 MLOAD SWAP1 POP SWAP2 SWAP1 POP JUMP JUMPDEST PUSH1 0x0 DUP3 DUP3 MSTORE PUSH1 0x20 DUP3 ADD SWAP1 POP SWAP3 SWAP2 POP POP JUMP JUMPDEST PUSH1 0x0 JUMPDEST DUP4 DUP2 LT ISZERO PUSH2 0x23BF JUMPI DUP1 DUP3 ADD MLOAD DUP2 DUP5 ADD MSTORE PUSH1 0x20 DUP2 ADD SWAP1 POP PUSH2 0x23A4 JUMP JUMPDEST PUSH1 0x0 DUP5 DUP5 ADD MSTORE POP POP POP POP JUMP JUMPDEST PUSH1 0x0 PUSH1 0x1F NOT PUSH1 0x1F DUP4 ADD AND SWAP1 POP SWAP2 SWAP1 POP JUMP JUMPDEST PUSH1 0x0 PUSH2 0x23E7 DUP3 PUSH2 0x2385 JUMP JUMPDEST PUSH2 0x23F1 DUP2 DUP6 PUSH2 0x2390 JUMP JUMPDEST SWAP4 POP PUSH2 0x2401 DUP2 DUP6 PUSH1 0x20 DUP7 ADD PUSH2 0x23A1 JUMP JUMPDEST PUSH2 0x240A DUP2 PUSH2 0x23CB JUMP JUMPDEST DUP5 ADD SWAP2 POP POP SWAP3 SWAP2 POP POP JUMP JUMPDEST PUSH1 0x0 PUSH1 0x20 DUP3 ADD SWAP1 POP DUP2 DUP2 SUB PUSH1 0x0 DUP4 ADD MSTORE PUSH2 0x242F DUP2 DUP5 PUSH2 0x23DC JUMP JUMPDEST SWAP1 POP SWAP3 SWAP2 POP POP JUMP JUMPDEST PUSH1 0x0 DUP2 SWAP1 POP SWAP2 SWAP1 POP JUMP JUMPDEST PUSH2 0x244A DUP2 PUSH2 0x2437 JUMP JUMPDEST DUP2 EQ PUSH2 0x2455 JUMPI PUSH1 0x0 DUP1 REVERT JUMPDEST POP JUMP JUMPDEST PUSH1 0x0 DUP2 CALLDATALOAD SWAP1 POP PUSH2 0x2467 DUP2 PUSH2 0x2441 JUMP JUMPDEST SWAP3 SWAP2 POP POP JUMP JUMPDEST PUSH1 0x0 PUSH1 0x20 DUP3 DUP5 SUB SLT ISZERO PUSH2 0x2483 JUMPI PUSH2 0x2482 PUSH2 0x2257 JUMP JUMPDEST JUMPDEST PUSH1 0x0 PUSH2 0x2491 DUP5 DUP3 DUP6 ADD PUSH2 0x2458 JUMP JUMPDEST SWAP2 POP POP SWAP3 SWAP2 POP POP JUMP JUMPDEST PUSH1 0x0 PUSH20 0xFFFFFFFFFFFFFFFFFFFFFFFFFFFFFFFFFFFFFFFF DUP3 AND SWAP1 POP SWAP2 SWAP1 POP JUMP JUMPDEST PUSH1 0x0 PUSH2 0x24C5 DUP3 PUSH2 0x249A JUMP JUMPDEST SWAP1 POP SWAP2 SWAP1 POP JUMP JUMPDEST PUSH2 0x24D5 DUP2 PUSH2 0x24BA JUMP JUMPDEST DUP3 MSTORE POP POP JUMP JUMPDEST PUSH1 0x0 PUSH1 0x20 DUP3 ADD SWAP1 POP PUSH2 0x24F0 PUSH1 0x0 DUP4 ADD DUP5 PUSH2 0x24CC JUMP JUMPDEST SWAP3 SWAP2 POP POP JUMP JUMPDEST PUSH2 0x24FF DUP2 PUSH2 0x24BA JUMP JUMPDEST DUP2 EQ PUSH2 0x250A JUMPI PUSH1 0x0 DUP1 REVERT JUMPDEST POP JUMP JUMPDEST PUSH1 0x0 DUP2 CALLDATALOAD SWAP1 POP PUSH2 0x251C DUP2 PUSH2 0x24F6 JUMP JUMPDEST SWAP3 SWAP2 POP POP JUMP JUMPDEST PUSH1 0x0 DUP1 PUSH1 0x40 DUP4 DUP6 SUB SLT ISZERO PUSH2 0x2539 JUMPI PUSH2 0x2538 PUSH2 0x2257 JUMP JUMPDEST JUMPDEST PUSH1 0x0 PUSH2 0x2547 DUP6 DUP3 DUP7 ADD PUSH2 0x250D JUMP JUMPDEST SWAP3 POP POP PUSH1 0x20 PUSH2 0x2558 DUP6 DUP3 DUP7 ADD PUSH2 0x2458 JUMP JUMPDEST SWAP2 POP POP SWAP3 POP SWAP3 SWAP1 POP JUMP JUMPDEST PUSH2 0x256B DUP2 PUSH2 0x2437 JUMP JUMPDEST DUP3 MSTORE POP POP JUMP JUMPDEST PUSH1 0x0 PUSH1 0x20 DUP3 ADD SWAP1 POP PUSH2 0x2586 PUSH1 0x0 DUP4 ADD DUP5 PUSH2 0x2562 JUMP JUMPDEST SWAP3 SWAP2 POP POP JUMP JUMPDEST PUSH1 0x0 DUP1 PUSH1 0x0 PUSH1 0x60 DUP5 DUP7 SUB SLT ISZERO PUSH2 0x25A5 JUMPI PUSH2 0x25A4 PUSH2 0x2257 JUMP JUMPDEST JUMPDEST PUSH1 0x0 PUSH2 0x25B3 DUP7 DUP3 DUP8 ADD PUSH2 0x250D JUMP JUMPDEST SWAP4 POP POP PUSH1 0x20 PUSH2 0x25C4 DUP7 DUP3 DUP8 ADD PUSH2 0x250D JUMP JUMPDEST SWAP3 POP POP PUSH1 0x40 PUSH2 0x25D5 DUP7 DUP3 DUP8 ADD PUSH2 0x2458 JUMP JUMPDEST SWAP2 POP POP SWAP3 POP SWAP3 POP SWAP3 JUMP JUMPDEST PUSH1 0x0 DUP1 REVERT JUMPDEST PUSH1 0x0 DUP1 REVERT JUMPDEST PUSH1 0x0 DUP1 REVERT JUMPDEST PUSH1 0x0 DUP1 DUP4 PUSH1 0x1F DUP5 ADD SLT PUSH2 0x2604 JUMPI PUSH2 0x2603 PUSH2 0x25DF JUMP JUMPDEST JUMPDEST DUP3 CALLDATALOAD SWAP1 POP PUSH8 0xFFFFFFFFFFFFFFFF DUP2 GT ISZERO PUSH2 0x2621 JUMPI PUSH2 0x2620 PUSH2 0x25E4 JUMP JUMPDEST JUMPDEST PUSH1 0x20 DUP4 ADD SWAP2 POP DUP4 PUSH1 0x1 DUP3 MUL DUP4 ADD GT ISZERO PUSH2 0x263D JUMPI PUSH2 0x263C PUSH2 0x25E9 JUMP JUMPDEST JUMPDEST SWAP3 POP SWAP3 SWAP1 POP JUMP JUMPDEST PUSH1 0x0 DUP1 PUSH1 0x20 DUP4 DUP6 SUB SLT ISZERO PUSH2 0x265B JUMPI PUSH2 0x265A PUSH2 0x2257 JUMP JUMPDEST JUMPDEST PUSH1 0x0 DUP4 ADD CALLDATALOAD PUSH8 0xFFFFFFFFFFFFFFFF DUP2 GT ISZERO PUSH2 0x2679 JUMPI PUSH2 0x2678 PUSH2 0x225C JUMP JUMPDEST JUMPDEST PUSH2 0x2685 DUP6 DUP3 DUP7 ADD PUSH2 0x25EE JUMP JUMPDEST SWAP3 POP SWAP3 POP POP SWAP3 POP SWAP3 SWAP1 POP JUMP JUMPDEST PUSH1 0x0 PUSH1 0x20 DUP3 DUP5 SUB SLT ISZERO PUSH2 0x26A7 JUMPI PUSH2 0x26A6 PUSH2 0x2257 JUMP JUMPDEST JUMPDEST PUSH1 0x0 PUSH2 0x26B5 DUP5 DUP3 DUP6 ADD PUSH2 0x250D JUMP JUMPDEST SWAP2 POP POP SWAP3 SWAP2 POP POP JUMP JUMPDEST PUSH2 0x26C7 DUP2 PUSH2 0x234F JUMP JUMPDEST DUP2 EQ PUSH2 0x26D2 JUMPI PUSH1 0x0 DUP1 REVERT JUMPDEST POP JUMP JUMPDEST PUSH1 0x0 DUP2 CALLDATALOAD SWAP1 POP PUSH2 0x26E4 DUP2 PUSH2 0x26BE JUMP JUMPDEST SWAP3 SWAP2 POP POP JUMP JUMPDEST PUSH1 0x0 DUP1 PUSH1 0x40 DUP4 DUP6 SUB SLT ISZERO PUSH2 0x2701 JUMPI PUSH2 0x2700 PUSH2 0x2257 JUMP JUMPDEST JUMPDEST PUSH1 0x0 PUSH2 0x270F DUP6 DUP3 DUP7 ADD PUSH2 0x250D JUMP JUMPDEST SWAP3 POP POP PUSH1 0x20 PUSH2 0x2720 DUP6 DUP3 DUP7 ADD PUSH2 0x26D5 JUMP JUMPDEST SWAP2 POP POP SWAP3 POP SWAP3 SWAP1 POP JUMP JUMPDEST PUSH1 0x0 DUP1 REVERT JUMPDEST PUSH32 0x4E487B7100000000000000000000000000000000000000000000000000000000 PUSH1 0x0 MSTORE PUSH1 0x41 PUSH1 0x4 MSTORE PUSH1 0x24 PUSH1 0x0 REVERT JUMPDEST PUSH2 0x2767 DUP3 PUSH2 0x23CB JUMP JUMPDEST DUP2 ADD DUP2 DUP2 LT PUSH8 0xFFFFFFFFFFFFFFFF DUP3 GT OR ISZERO PUSH2 0x2786 JUMPI PUSH2 0x2785 PUSH2 0x272F JUMP JUMPDEST JUMPDEST DUP1 PUSH1 0x40 MSTORE POP POP POP JUMP JUMPDEST PUSH1 0x0 PUSH2 0x2799 PUSH2 0x224D JUMP JUMPDEST SWAP1 POP PUSH2 0x27A5 DUP3 DUP3 PUSH2 0x275E JUMP JUMPDEST SWAP2 SWAP1 POP JUMP JUMPDEST PUSH1 0x0 PUSH8 0xFFFFFFFFFFFFFFFF DUP3 GT ISZERO PUSH2 0x27C5 JUMPI PUSH2 0x27C4 PUSH2 0x272F JUMP JUMPDEST JUMPDEST PUSH2 0x27CE DUP3 PUSH2 0x23CB JUMP JUMPDEST SWAP1 POP PUSH1 0x20 DUP2 ADD SWAP1 POP SWAP2 SWAP1 POP JUMP JUMPDEST DUP3 DUP2 DUP4 CALLDATACOPY PUSH1 0x0 DUP4 DUP4 ADD MSTORE POP POP POP JUMP JUMPDEST PUSH1 0x0 PUSH2 0x27FD PUSH2 0x27F8 DUP5 PUSH2 0x27AA JUMP JUMPDEST PUSH2 0x278F JUMP JUMPDEST SWAP1 POP DUP3 DUP2 MSTORE PUSH1 0x20 DUP2 ADD DUP5 DUP5 DUP5 ADD GT ISZERO PUSH2 0x2819 JUMPI PUSH2 0x2818 PUSH2 0x272A JUMP JUMPDEST JUMPDEST PUSH2 0x2824 DUP5 DUP3 DUP6 PUSH2 0x27DB JUMP JUMPDEST POP SWAP4 SWAP3 POP POP POP JUMP JUMPDEST PUSH1 0x0 DUP3 PUSH1 0x1F DUP4 ADD SLT PUSH2 0x2841 JUMPI PUSH2 0x2840 PUSH2 0x25DF JUMP JUMPDEST JUMPDEST DUP2 CALLDATALOAD PUSH2 0x2851 DUP5 DUP3 PUSH1 0x20 DUP7 ADD PUSH2 0x27EA JUMP JUMPDEST SWAP2 POP POP SWAP3 SWAP2 POP POP JUMP JUMPDEST PUSH1 0x0 DUP1 PUSH1 0x0 DUP1 PUSH1 0x80 DUP6 DUP8 SUB SLT ISZERO PUSH2 0x2874 JUMPI PUSH2 0x2873 PUSH2 0x2257 JUMP JUMPDEST JUMPDEST PUSH1 0x0 PUSH2 0x2882 DUP8 DUP3 DUP9 ADD PUSH2 0x250D JUMP JUMPDEST SWAP5 POP POP PUSH1 0x20 PUSH2 0x2893 DUP8 DUP3 DUP9 ADD PUSH2 0x250D JUMP JUMPDEST SWAP4 POP POP PUSH1 0x40 PUSH2 0x28A4 DUP8 DUP3 DUP9 ADD PUSH2 0x2458 JUMP JUMPDEST SWAP3 POP POP PUSH1 0x60 DUP6 ADD CALLDATALOAD PUSH8 0xFFFFFFFFFFFFFFFF DUP2 GT ISZERO PUSH2 0x28C5 JUMPI PUSH2 0x28C4 PUSH2 0x225C JUMP JUMPDEST JUMPDEST PUSH2 0x28D1 DUP8 DUP3 DUP9 ADD PUSH2 0x282C JUMP JUMPDEST SWAP2 POP POP SWAP3 SWAP6 SWAP2 SWAP5 POP SWAP3 POP JUMP JUMPDEST PUSH1 0x0 DUP1 PUSH1 0x40 DUP4 DUP6 SUB SLT ISZERO PUSH2 0x28F4 JUMPI PUSH2 0x28F3 PUSH2 0x2257 JUMP JUMPDEST JUMPDEST PUSH1 0x0 PUSH2 0x2902 DUP6 DUP3 DUP7 ADD PUSH2 0x250D JUMP JUMPDEST SWAP3 POP POP PUSH1 0x20 PUSH2 0x2913 DUP6 DUP3 DUP7 ADD PUSH2 0x250D JUMP JUMPDEST SWAP2 POP POP SWAP3 POP SWAP3 SWAP1 POP JUMP JUMPDEST PUSH32 0x4E487B7100000000000000000000000000000000000000000000000000000000 PUSH1 0x0 MSTORE PUSH1 0x22 PUSH1 0x4 MSTORE PUSH1 0x24 PUSH1 0x0 REVERT JUMPDEST PUSH1 0x0 PUSH1 0x2 DUP3 DIV SWAP1 POP PUSH1 0x1 DUP3 AND DUP1 PUSH2 0x2964 JUMPI PUSH1 0x7F DUP3 AND SWAP2 POP JUMPDEST PUSH1 0x20 DUP3 LT DUP2 SUB PUSH2 0x2977 JUMPI PUSH2 0x2976 PUSH2 0x291D JUMP JUMPDEST JUMPDEST POP SWAP2 SWAP1 POP JUMP JUMPDEST PUSH32 0x4552433732313A20617070726F76616C20746F2063757272656E74206F776E65 PUSH1 0x0 DUP3 ADD MSTORE PUSH32 0x7200000000000000000000000000000000000000000000000000000000000000 PUSH1 0x20 DUP3 ADD MSTORE POP JUMP JUMPDEST PUSH1 0x0 PUSH2 0x29D9 PUSH1 0x21 DUP4 PUSH2 0x2390 JUMP JUMPDEST SWAP2 POP PUSH2 0x29E4 DUP3 PUSH2 0x297D JUMP JUMPDEST PUSH1 0x40 DUP3 ADD SWAP1 POP SWAP2 SWAP1 POP JUMP JUMPDEST PUSH1 0x0 PUSH1 0x20 DUP3 ADD SWAP1 POP DUP2 DUP2 SUB PUSH1 0x0 DUP4 ADD MSTORE PUSH2 0x2A08 DUP2 PUSH2 0x29CC JUMP JUMPDEST SWAP1 POP SWAP2 SWAP1 POP JUMP JUMPDEST PUSH32 0x4552433732313A20617070726F76652063616C6C6572206973206E6F7420746F PUSH1 0x0 DUP3 ADD MSTORE PUSH32 0x6B656E206F776E6572206F7220617070726F76656420666F7220616C6C000000 PUSH1 0x20 DUP3 ADD MSTORE POP JUMP JUMPDEST PUSH1 0x0 PUSH2 0x2A6B PUSH1 0x3D DUP4 PUSH2 0x2390 JUMP JUMPDEST SWAP2 POP PUSH2 0x2A76 DUP3 PUSH2 0x2A0F JUMP JUMPDEST PUSH1 0x40 DUP3 ADD SWAP1 POP SWAP2 SWAP1 POP JUMP JUMPDEST PUSH1 0x0 PUSH1 0x20 DUP3 ADD SWAP1 POP DUP2 DUP2 SUB PUSH1 0x0 DUP4 ADD MSTORE PUSH2 0x2A9A DUP2 PUSH2 0x2A5E JUMP JUMPDEST SWAP1 POP SWAP2 SWAP1 POP JUMP JUMPDEST PUSH32 0x4552433732313A2063616C6C6572206973206E6F7420746F6B656E206F776E65 PUSH1 0x0 DUP3 ADD MSTORE PUSH32 0x72206F7220617070726F76656400000000000000000000000000000000000000 PUSH1 0x20 DUP3 ADD MSTORE POP JUMP JUMPDEST PUSH1 0x0 PUSH2 0x2AFD PUSH1 0x2D DUP4 PUSH2 0x2390 JUMP JUMPDEST SWAP2 POP PUSH2 0x2B08 DUP3 PUSH2 0x2AA1 JUMP JUMPDEST PUSH1 0x40 DUP3 ADD SWAP1 POP SWAP2 SWAP1 POP JUMP JUMPDEST PUSH1 0x0 PUSH1 0x20 DUP3 ADD SWAP1 POP DUP2 DUP2 SUB PUSH1 0x0 DUP4 ADD MSTORE PUSH2 0x2B2C DUP2 PUSH2 0x2AF0 JUMP JUMPDEST SWAP1 POP SWAP2 SWAP1 POP JUMP JUMPDEST PUSH32 0x6572726F722D2D2D2D2D2D206E6F742073746172740000000000000000000000 PUSH1 0x0 DUP3 ADD MSTORE POP JUMP JUMPDEST PUSH1 0x0 PUSH2 0x2B69 PUSH1 0x15 DUP4 PUSH2 0x2390 JUMP JUMPDEST SWAP2 POP PUSH2 0x2B74 DUP3 PUSH2 0x2B33 JUMP JUMPDEST PUSH1 0x20 DUP3 ADD SWAP1 POP SWAP2 SWAP1 POP JUMP JUMPDEST PUSH1 0x0 PUSH1 0x20 DUP3 ADD SWAP1 POP DUP2 DUP2 SUB PUSH1 0x0 DUP4 ADD MSTORE PUSH2 0x2B98 DUP2 PUSH2 0x2B5C JUMP JUMPDEST SWAP1 POP SWAP2 SWAP1 POP JUMP JUMPDEST PUSH32 0x4E487B7100000000000000000000000000000000000000000000000000000000 PUSH1 0x0 MSTORE PUSH1 0x11 PUSH1 0x4 MSTORE PUSH1 0x24 PUSH1 0x0 REVERT JUMPDEST PUSH1 0x0 PUSH2 0x2BD9 DUP3 PUSH2 0x2437 JUMP JUMPDEST SWAP2 POP PUSH2 0x2BE4 DUP4 PUSH2 0x2437 JUMP JUMPDEST SWAP3 POP DUP3 DUP3 ADD SWAP1 POP DUP1 DUP3 GT ISZERO PUSH2 0x2BFC JUMPI PUSH2 0x2BFB PUSH2 0x2B9F JUMP JUMPDEST JUMPDEST SWAP3 SWAP2 POP POP JUMP JUMPDEST PUSH32 0x6572726F722D2D2D2D2D2D206F766572666C6F77000000000000000000000000 PUSH1 0x0 DUP3 ADD MSTORE POP JUMP JUMPDEST PUSH1 0x0 PUSH2 0x2C38 PUSH1 0x14 DUP4 PUSH2 0x2390 JUMP JUMPDEST SWAP2 POP PUSH2 0x2C43 DUP3 PUSH2 0x2C02 JUMP JUMPDEST PUSH1 0x20 DUP3 ADD SWAP1 POP SWAP2 SWAP1 POP JUMP JUMPDEST PUSH1 0x0 PUSH1 0x20 DUP3 ADD SWAP1 POP DUP2 DUP2 SUB PUSH1 0x0 DUP4 ADD MSTORE PUSH2 0x2C67 DUP2 PUSH2 0x2C2B JUMP JUMPDEST SWAP1 POP SWAP2 SWAP1 POP JUMP JUMPDEST PUSH1 0x0 PUSH2 0x2C79 DUP3 PUSH2 0x2437 JUMP JUMPDEST SWAP2 POP PUSH2 0x2C84 DUP4 PUSH2 0x2437 JUMP JUMPDEST SWAP3 POP DUP3 DUP3 MUL PUSH2 0x2C92 DUP2 PUSH2 0x2437 JUMP JUMPDEST SWAP2 POP DUP3 DUP3 DIV DUP5 EQ DUP4 ISZERO OR PUSH2 0x2CA9 JUMPI PUSH2 0x2CA8 PUSH2 0x2B9F JUMP JUMPDEST JUMPDEST POP SWAP3 SWAP2 POP POP JUMP JUMPDEST PUSH32 0x4E65656420746F2073656E64206D6F7265204554482E00000000000000000000 PUSH1 0x0 DUP3 ADD MSTORE POP JUMP JUMPDEST PUSH1 0x0 PUSH2 0x2CE6 PUSH1 0x16 DUP4 PUSH2 0x2390 JUMP JUMPDEST SWAP2 POP PUSH2 0x2CF1 DUP3 PUSH2 0x2CB0 JUMP JUMPDEST PUSH1 0x20 DUP3 ADD SWAP1 POP SWAP2 SWAP1 POP JUMP JUMPDEST PUSH1 0x0 PUSH1 0x20 DUP3 ADD SWAP1 POP DUP2 DUP2 SUB PUSH1 0x0 DUP4 ADD MSTORE PUSH2 0x2D15 DUP2 PUSH2 0x2CD9 JUMP JUMPDEST SWAP1 POP SWAP2 SWAP1 POP JUMP JUMPDEST PUSH1 0x0 PUSH2 0x2D27 DUP3 PUSH2 0x2437 JUMP JUMPDEST SWAP2 POP PUSH32 0xFFFFFFFFFFFFFFFFFFFFFFFFFFFFFFFFFFFFFFFFFFFFFFFFFFFFFFFFFFFFFFFF DUP3 SUB PUSH2 0x2D59 JUMPI PUSH2 0x2D58 PUSH2 0x2B9F JUMP JUMPDEST JUMPDEST PUSH1 0x1 DUP3 ADD SWAP1 POP SWAP2 SWAP1 POP JUMP JUMPDEST PUSH1 0x0 PUSH2 0x2D6F DUP3 PUSH2 0x2437 JUMP JUMPDEST SWAP2 POP PUSH2 0x2D7A DUP4 PUSH2 0x2437 JUMP JUMPDEST SWAP3 POP DUP3 DUP3 SUB SWAP1 POP DUP2 DUP2 GT ISZERO PUSH2 0x2D92 JUMPI PUSH2 0x2D91 PUSH2 0x2B9F JUMP JUMPDEST JUMPDEST SWAP3 SWAP2 POP POP JUMP JUMPDEST PUSH1 0x0 DUP3 SWAP1 POP SWAP3 SWAP2 POP POP JUMP JUMPDEST PUSH1 0x0 DUP2 SWAP1 POP DUP2 PUSH1 0x0 MSTORE PUSH1 0x20 PUSH1 0x0 KECCAK256 SWAP1 POP SWAP2 SWAP1 POP JUMP JUMPDEST PUSH1 0x0 PUSH1 0x20 PUSH1 0x1F DUP4 ADD DIV SWAP1 POP SWAP2 SWAP1 POP JUMP JUMPDEST PUSH1 0x0 DUP3 DUP3 SHL SWAP1 POP SWAP3 SWAP2 POP POP JUMP JUMPDEST PUSH1 0x0 PUSH1 0x8 DUP4 MUL PUSH2 0x2E05 PUSH32 0xFFFFFFFFFFFFFFFFFFFFFFFFFFFFFFFFFFFFFFFFFFFFFFFFFFFFFFFFFFFFFFFF DUP3 PUSH2 0x2DC8 JUMP JUMPDEST PUSH2 0x2E0F DUP7 DUP4 PUSH2 0x2DC8 JUMP JUMPDEST SWAP6 POP DUP1 NOT DUP5 AND SWAP4 POP DUP1 DUP7 AND DUP5 OR SWAP3 POP POP POP SWAP4 SWAP3 POP POP POP JUMP JUMPDEST PUSH1 0x0 DUP2 SWAP1 POP SWAP2 SWAP1 POP JUMP JUMPDEST PUSH1 0x0 PUSH2 0x2E4C PUSH2 0x2E47 PUSH2 0x2E42 DUP5 PUSH2 0x2437 JUMP JUMPDEST PUSH2 0x2E27 JUMP JUMPDEST PUSH2 0x2437 JUMP JUMPDEST SWAP1 POP SWAP2 SWAP1 POP JUMP JUMPDEST PUSH1 0x0 DUP2 SWAP1 POP SWAP2 SWAP1 POP JUMP JUMPDEST PUSH2 0x2E66 DUP4 PUSH2 0x2E31 JUMP JUMPDEST PUSH2 0x2E7A PUSH2 0x2E72 DUP3 PUSH2 0x2E53 JUMP JUMPDEST DUP5 DUP5 SLOAD PUSH2 0x2DD5 JUMP JUMPDEST DUP3 SSTORE POP POP POP POP JUMP JUMPDEST PUSH1 0x0 SWAP1 JUMP JUMPDEST PUSH2 0x2E8F PUSH2 0x2E82 JUMP JUMPDEST PUSH2 0x2E9A DUP2 DUP5 DUP5 PUSH2 0x2E5D JUMP JUMPDEST POP POP POP JUMP JUMPDEST JUMPDEST DUP2 DUP2 LT ISZERO PUSH2 0x2EBE JUMPI PUSH2 0x2EB3 PUSH1 0x0 DUP3 PUSH2 0x2E87 JUMP JUMPDEST PUSH1 0x1 DUP2 ADD SWAP1 POP PUSH2 0x2EA0 JUMP JUMPDEST POP POP JUMP JUMPDEST PUSH1 0x1F DUP3 GT ISZERO PUSH2 0x2F03 JUMPI PUSH2 0x2ED4 DUP2 PUSH2 0x2DA3 JUMP JUMPDEST PUSH2 0x2EDD DUP5 PUSH2 0x2DB8 JUMP JUMPDEST DUP2 ADD PUSH1 0x20 DUP6 LT ISZERO PUSH2 0x2EEC JUMPI DUP2 SWAP1 POP JUMPDEST PUSH2 0x2F00 PUSH2 0x2EF8 DUP6 PUSH2 0x2DB8 JUMP JUMPDEST DUP4 ADD DUP3 PUSH2 0x2E9F JUMP JUMPDEST POP POP JUMPDEST POP POP POP JUMP JUMPDEST PUSH1 0x0 DUP3 DUP3 SHR SWAP1 POP SWAP3 SWAP2 POP POP JUMP JUMPDEST PUSH1 0x0 PUSH2 0x2F26 PUSH1 0x0 NOT DUP5 PUSH1 0x8 MUL PUSH2 0x2F08 JUMP JUMPDEST NOT DUP1 DUP4 AND SWAP2 POP POP SWAP3 SWAP2 POP POP JUMP JUMPDEST PUSH1 0x0 PUSH2 0x2F3F DUP4 DUP4 PUSH2 0x2F15 JUMP JUMPDEST SWAP2 POP DUP3 PUSH1 0x2 MUL DUP3 OR SWAP1 POP SWAP3 SWAP2 POP POP JUMP JUMPDEST PUSH2 0x2F59 DUP4 DUP4 PUSH2 0x2D98 JUMP JUMPDEST PUSH8 0xFFFFFFFFFFFFFFFF DUP2 GT ISZERO PUSH2 0x2F72 JUMPI PUSH2 0x2F71 PUSH2 0x272F JUMP JUMPDEST JUMPDEST PUSH2 0x2F7C DUP3 SLOAD PUSH2 0x294C JUMP JUMPDEST PUSH2 0x2F87 DUP3 DUP3 DUP6 PUSH2 0x2EC2 JUMP JUMPDEST PUSH1 0x0 PUSH1 0x1F DUP4 GT PUSH1 0x1 DUP2 EQ PUSH2 0x2FB6 JUMPI PUSH1 0x0 DUP5 ISZERO PUSH2 0x2FA4 JUMPI DUP3 DUP8 ADD CALLDATALOAD SWAP1 POP JUMPDEST PUSH2 0x2FAE DUP6 DUP3 PUSH2 0x2F33 JUMP JUMPDEST DUP7 SSTORE POP PUSH2 0x3016 JUMP JUMPDEST PUSH1 0x1F NOT DUP5 AND PUSH2 0x2FC4 DUP7 PUSH2 0x2DA3 JUMP JUMPDEST PUSH1 0x0 JUMPDEST DUP3 DUP2 LT ISZERO PUSH2 0x2FEC JUMPI DUP5 DUP10 ADD CALLDATALOAD DUP3 SSTORE PUSH1 0x1 DUP3 ADD SWAP2 POP PUSH1 0x20 DUP6 ADD SWAP5 POP PUSH1 0x20 DUP2 ADD SWAP1 POP PUSH2 0x2FC7 JUMP JUMPDEST DUP7 DUP4 LT ISZERO PUSH2 0x3009 JUMPI DUP5 DUP10 ADD CALLDATALOAD PUSH2 0x3005 PUSH1 0x1F DUP10 AND DUP3 PUSH2 0x2F15 JUMP JUMPDEST DUP4 SSTORE POP JUMPDEST PUSH1 0x1 PUSH1 0x2 DUP9 MUL ADD DUP9 SSTORE POP POP POP JUMPDEST POP POP POP POP POP POP POP JUMP JUMPDEST PUSH32 0x4E487B7100000000000000000000000000000000000000000000000000000000 PUSH1 0x0 MSTORE PUSH1 0x12 PUSH1 0x4 MSTORE PUSH1 0x24 PUSH1 0x0 REVERT JUMPDEST PUSH1 0x0 PUSH2 0x3059 DUP3 PUSH2 0x2437 JUMP JUMPDEST SWAP2 POP PUSH2 0x3064 DUP4 PUSH2 0x2437 JUMP JUMPDEST SWAP3 POP DUP3 PUSH2 0x3074 JUMPI PUSH2 0x3073 PUSH2 0x301F JUMP JUMPDEST JUMPDEST DUP3 DUP3 DIV SWAP1 POP SWAP3 SWAP2 POP POP JUMP JUMPDEST PUSH32 0x4552433732313A20696E76616C696420746F6B656E2049440000000000000000 PUSH1 0x0 DUP3 ADD MSTORE POP JUMP JUMPDEST PUSH1 0x0 PUSH2 0x30B5 PUSH1 0x18 DUP4 PUSH2 0x2390 JUMP JUMPDEST SWAP2 POP PUSH2 0x30C0 DUP3 PUSH2 0x307F JUMP JUMPDEST PUSH1 0x20 DUP3 ADD SWAP1 POP SWAP2 SWAP1 POP JUMP JUMPDEST PUSH1 0x0 PUSH1 0x20 DUP3 ADD SWAP1 POP DUP2 DUP2 SUB PUSH1 0x0 DUP4 ADD MSTORE PUSH2 0x30E4 DUP2 PUSH2 0x30A8 JUMP JUMPDEST SWAP1 POP SWAP2 SWAP1 POP JUMP JUMPDEST PUSH32 0x4552433732313A2061646472657373207A65726F206973206E6F742061207661 PUSH1 0x0 DUP3 ADD MSTORE PUSH32 0x6C6964206F776E65720000000000000000000000000000000000000000000000 PUSH1 0x20 DUP3 ADD MSTORE POP JUMP JUMPDEST PUSH1 0x0 PUSH2 0x3147 PUSH1 0x29 DUP4 PUSH2 0x2390 JUMP JUMPDEST SWAP2 POP PUSH2 0x3152 DUP3 PUSH2 0x30EB JUMP JUMPDEST PUSH1 0x40 DUP3 ADD SWAP1 POP SWAP2 SWAP1 POP JUMP JUMPDEST PUSH1 0x0 PUSH1 0x20 DUP3 ADD SWAP1 POP DUP2 DUP2 SUB PUSH1 0x0 DUP4 ADD MSTORE PUSH2 0x3176 DUP2 PUSH2 0x313A JUMP JUMPDEST SWAP1 POP SWAP2 SWAP1 POP JUMP JUMPDEST PUSH1 0x0 DUP2 SWAP1 POP SWAP3 SWAP2 POP POP JUMP JUMPDEST POP JUMP JUMPDEST PUSH1 0x0 PUSH2 0x3198 PUSH1 0x0 DUP4 PUSH2 0x317D JUMP JUMPDEST SWAP2 POP PUSH2 0x31A3 DUP3 PUSH2 0x3188 JUMP JUMPDEST PUSH1 0x0 DUP3 ADD SWAP1 POP SWAP2 SWAP1 POP JUMP JUMPDEST PUSH1 0x0 PUSH2 0x31B9 DUP3 PUSH2 0x318B JUMP JUMPDEST SWAP2 POP DUP2 SWAP1 POP SWAP2 SWAP1 POP JUMP JUMPDEST PUSH32 0x5472616E73666572206661696C65642E00000000000000000000000000000000 PUSH1 0x0 DUP3 ADD MSTORE POP JUMP JUMPDEST PUSH1 0x0 PUSH2 0x31F9 PUSH1 0x10 DUP4 PUSH2 0x2390 JUMP JUMPDEST SWAP2 POP PUSH2 0x3204 DUP3 PUSH2 0x31C3 JUMP JUMPDEST PUSH1 0x20 DUP3 ADD SWAP1 POP SWAP2 SWAP1 POP JUMP JUMPDEST PUSH1 0x0 PUSH1 0x20 DUP3 ADD SWAP1 POP DUP2 DUP2 SUB PUSH1 0x0 DUP4 ADD MSTORE PUSH2 0x3228 DUP2 PUSH2 0x31EC JUMP JUMPDEST SWAP1 POP SWAP2 SWAP1 POP JUMP JUMPDEST PUSH1 0x0 DUP2 SWAP1 POP SWAP3 SWAP2 POP POP JUMP JUMPDEST PUSH1 0x0 PUSH2 0x3245 DUP3 PUSH2 0x2385 JUMP JUMPDEST PUSH2 0x324F DUP2 DUP6 PUSH2 0x322F JUMP JUMPDEST SWAP4 POP PUSH2 0x325F DUP2 DUP6 PUSH1 0x20 DUP7 ADD PUSH2 0x23A1 JUMP JUMPDEST DUP1 DUP5 ADD SWAP2 POP POP SWAP3 SWAP2 POP POP JUMP JUMPDEST PUSH1 0x0 PUSH2 0x3277 DUP3 DUP6 PUSH2 0x323A JUMP JUMPDEST SWAP2 POP PUSH2 0x3283 DUP3 DUP5 PUSH2 0x323A JUMP JUMPDEST SWAP2 POP DUP2 SWAP1 POP SWAP4 SWAP3 POP POP POP JUMP JUMPDEST PUSH32 0x4F776E61626C653A206E6577206F776E657220697320746865207A65726F2061 PUSH1 0x0 DUP3 ADD MSTORE PUSH32 0x6464726573730000000000000000000000000000000000000000000000000000 PUSH1 0x20 DUP3 ADD MSTORE POP JUMP JUMPDEST PUSH1 0x0 PUSH2 0x32EB PUSH1 0x26 DUP4 PUSH2 0x2390 JUMP JUMPDEST SWAP2 POP PUSH2 0x32F6 DUP3 PUSH2 0x328F JUMP JUMPDEST PUSH1 0x40 DUP3 ADD SWAP1 POP SWAP2 SWAP1 POP JUMP JUMPDEST PUSH1 0x0 PUSH1 0x20 DUP3 ADD SWAP1 POP DUP2 DUP2 SUB PUSH1 0x0 DUP4 ADD MSTORE PUSH2 0x331A DUP2 PUSH2 0x32DE JUMP JUMPDEST SWAP1 POP SWAP2 SWAP1 POP JUMP JUMPDEST PUSH32 0x4F776E61626C653A2063616C6C6572206973206E6F7420746865206F776E6572 PUSH1 0x0 DUP3 ADD MSTORE POP JUMP JUMPDEST PUSH1 0x0 PUSH2 0x3357 PUSH1 0x20 DUP4 PUSH2 0x2390 JUMP JUMPDEST SWAP2 POP PUSH2 0x3362 DUP3 PUSH2 0x3321 JUMP JUMPDEST PUSH1 0x20 DUP3 ADD SWAP1 POP SWAP2 SWAP1 POP JUMP JUMPDEST PUSH1 0x0 PUSH1 0x20 DUP3 ADD SWAP1 POP DUP2 DUP2 SUB PUSH1 0x0 DUP4 ADD MSTORE PUSH2 0x3386 DUP2 PUSH2 0x334A JUMP JUMPDEST SWAP1 POP SWAP2 SWAP1 POP JUMP JUMPDEST PUSH32 0x4552433732313A207472616E736665722066726F6D20696E636F727265637420 PUSH1 0x0 DUP3 ADD MSTORE PUSH32 0x6F776E6572000000000000000000000000000000000000000000000000000000 PUSH1 0x20 DUP3 ADD MSTORE POP JUMP JUMPDEST PUSH1 0x0 PUSH2 0x33E9 PUSH1 0x25 DUP4 PUSH2 0x2390 JUMP JUMPDEST SWAP2 POP PUSH2 0x33F4 DUP3 PUSH2 0x338D JUMP JUMPDEST PUSH1 0x40 DUP3 ADD SWAP1 POP SWAP2 SWAP1 POP JUMP JUMPDEST PUSH1 0x0 PUSH1 0x20 DUP3 ADD SWAP1 POP DUP2 DUP2 SUB PUSH1 0x0 DUP4 ADD MSTORE PUSH2 0x3418 DUP2 PUSH2 0x33DC JUMP JUMPDEST SWAP1 POP SWAP2 SWAP1 POP JUMP JUMPDEST PUSH32 0x4552433732313A207472616E7366657220746F20746865207A65726F20616464 PUSH1 0x0 DUP3 ADD MSTORE PUSH32 0x7265737300000000000000000000000000000000000000000000000000000000 PUSH1 0x20 DUP3 ADD MSTORE POP JUMP JUMPDEST PUSH1 0x0 PUSH2 0x347B PUSH1 0x24 DUP4 PUSH2 0x2390 JUMP JUMPDEST SWAP2 POP PUSH2 0x3486 DUP3 PUSH2 0x341F JUMP JUMPDEST PUSH1 0x40 DUP3 ADD SWAP1 POP SWAP2 SWAP1 POP JUMP JUMPDEST PUSH1 0x0 PUSH1 0x20 DUP3 ADD SWAP1 POP DUP2 DUP2 SUB PUSH1 0x0 DUP4 ADD MSTORE PUSH2 0x34AA DUP2 PUSH2 0x346E JUMP JUMPDEST SWAP1 POP SWAP2 SWAP1 POP JUMP JUMPDEST PUSH32 0x4552433732313A206D696E7420746F20746865207A65726F2061646472657373 PUSH1 0x0 DUP3 ADD MSTORE POP JUMP JUMPDEST PUSH1 0x0 PUSH2 0x34E7 PUSH1 0x20 DUP4 PUSH2 0x2390 JUMP JUMPDEST SWAP2 POP PUSH2 0x34F2 DUP3 PUSH2 0x34B1 JUMP JUMPDEST PUSH1 0x20 DUP3 ADD SWAP1 POP SWAP2 SWAP1 POP JUMP JUMPDEST PUSH1 0x0 PUSH1 0x20 DUP3 ADD SWAP1 POP DUP2 DUP2 SUB PUSH1 0x0 DUP4 ADD MSTORE PUSH2 0x3516 DUP2 PUSH2 0x34DA JUMP JUMPDEST SWAP1 POP SWAP2 SWAP1 POP JUMP JUMPDEST PUSH32 0x4552433732313A20746F6B656E20616C7265616479206D696E74656400000000 PUSH1 0x0 DUP3 ADD MSTORE POP JUMP JUMPDEST PUSH1 0x0 PUSH2 0x3553 PUSH1 0x1C DUP4 PUSH2 0x2390 JUMP JUMPDEST SWAP2 POP PUSH2 0x355E DUP3 PUSH2 0x351D JUMP JUMPDEST PUSH1 0x20 DUP3 ADD SWAP1 POP SWAP2 SWAP1 POP JUMP JUMPDEST PUSH1 0x0 PUSH1 0x20 DUP3 ADD SWAP1 POP DUP2 DUP2 SUB PUSH1 0x0 DUP4 ADD MSTORE PUSH2 0x3582 DUP2 PUSH2 0x3546 JUMP JUMPDEST SWAP1 POP SWAP2 SWAP1 POP JUMP JUMPDEST PUSH32 0x4552433732313A20617070726F766520746F2063616C6C657200000000000000 PUSH1 0x0 DUP3 ADD MSTORE POP JUMP JUMPDEST PUSH1 0x0 PUSH2 0x35BF PUSH1 0x19 DUP4 PUSH2 0x2390 JUMP JUMPDEST SWAP2 POP PUSH2 0x35CA DUP3 PUSH2 0x3589 JUMP JUMPDEST PUSH1 0x20 DUP3 ADD SWAP1 POP SWAP2 SWAP1 POP JUMP JUMPDEST PUSH1 0x0 PUSH1 0x20 DUP3 ADD SWAP1 POP DUP2 DUP2 SUB PUSH1 0x0 DUP4 ADD MSTORE PUSH2 0x35EE DUP2 PUSH2 0x35B2 JUMP JUMPDEST SWAP1 POP SWAP2 SWAP1 POP JUMP JUMPDEST PUSH32 0x4552433732313A207472616E7366657220746F206E6F6E204552433732315265 PUSH1 0x0 DUP3 ADD MSTORE PUSH32 0x63656976657220696D706C656D656E7465720000000000000000000000000000 PUSH1 0x20 DUP3 ADD MSTORE POP JUMP JUMPDEST PUSH1 0x0 PUSH2 0x3651 PUSH1 0x32 DUP4 PUSH2 0x2390 JUMP JUMPDEST SWAP2 POP PUSH2 0x365C DUP3 PUSH2 0x35F5 JUMP JUMPDEST PUSH1 0x40 DUP3 ADD SWAP1 POP SWAP2 SWAP1 POP JUMP JUMPDEST PUSH1 0x0 PUSH1 0x20 DUP3 ADD SWAP1 POP DUP2 DUP2 SUB PUSH1 0x0 DUP4 ADD MSTORE PUSH2 0x3680 DUP2 PUSH2 0x3644 JUMP JUMPDEST SWAP1 POP SWAP2 SWAP1 POP JUMP JUMPDEST PUSH1 0x0 DUP2 MLOAD SWAP1 POP SWAP2 SWAP1 POP JUMP JUMPDEST PUSH1 0x0 DUP3 DUP3 MSTORE PUSH1 0x20 DUP3 ADD SWAP1 POP SWAP3 SWAP2 POP POP JUMP JUMPDEST PUSH1 0x0 PUSH2 0x36AE DUP3 PUSH2 0x3687 JUMP JUMPDEST PUSH2 0x36B8 DUP2 DUP6 PUSH2 0x3692 JUMP JUMPDEST SWAP4 POP PUSH2 0x36C8 DUP2 DUP6 PUSH1 0x20 DUP7 ADD PUSH2 0x23A1 JUMP JUMPDEST PUSH2 0x36D1 DUP2 PUSH2 0x23CB JUMP JUMPDEST DUP5 ADD SWAP2 POP POP SWAP3 SWAP2 POP POP JUMP JUMPDEST PUSH1 0x0 PUSH1 0x80 DUP3 ADD SWAP1 POP PUSH2 0x36F1 PUSH1 0x0 DUP4 ADD DUP8 PUSH2 0x24CC JUMP JUMPDEST PUSH2 0x36FE PUSH1 0x20 DUP4 ADD DUP7 PUSH2 0x24CC JUMP JUMPDEST PUSH2 0x370B PUSH1 0x40 DUP4 ADD DUP6 PUSH2 0x2562 JUMP JUMPDEST DUP2 DUP2 SUB PUSH1 0x60 DUP4 ADD MSTORE PUSH2 0x371D DUP2 DUP5 PUSH2 0x36A3 JUMP JUMPDEST SWAP1 POP SWAP6 SWAP5 POP POP POP POP POP JUMP JUMPDEST PUSH1 0x0 DUP2 MLOAD SWAP1 POP PUSH2 0x3737 DUP2 PUSH2 0x22F6 JUMP JUMPDEST SWAP3 SWAP2 POP POP JUMP JUMPDEST PUSH1 0x0 PUSH1 0x20 DUP3 DUP5 SUB SLT ISZERO PUSH2 0x3753 JUMPI PUSH2 0x3752 PUSH2 0x2257 JUMP JUMPDEST JUMPDEST PUSH1 0x0 PUSH2 0x3761 DUP5 DUP3 DUP6 ADD PUSH2 0x3728 JUMP JUMPDEST SWAP2 POP POP SWAP3 SWAP2 POP POP JUMP INVALID LOG2 PUSH5 0x6970667358 0x22 SLT KECCAK256 0xF6 SWAP3 0xF8 0xF 0x2B SAR 0xA7 DUP3 0xCA 0xAE 0xB4 SWAP16 MSTORE8 DUP16 SAR 0x5D 0xB3 0xAE 0xC2 0xE7 0xCD 0x49 0xF6 0xFC 0xD4 TIMESTAMP CODESIZE 0x2C CALLDATASIZE 0xB7 0xB1 KECCAK256 PUSH5 0x736F6C6343 STOP ADDMOD SLT STOP CALLER "
		},
		"gasEstimates": {
			"creation": {
				"codeDepositCost": "2848000",
				"executionCost": "infinite",
				"totalCost": "infinite"
			},
			"external": {
				"AUCTION_DROP_INTERVAL()": "440",
				"AUCTION_DROP_PER_STEP()": "infinite",
				"AUCTION_END_PRICE()": "440",
				"AUCTION_PRICE_CURVE_LENGTH()": "439",
				"AUCTION_START_PRICE()": "374",
				"MAX_SUP()": "441",
				"approve(address,uint256)": "infinite",
				"autionStartMint(uint256)": "infinite",
				"balanceOf(address)": "2944",
				"getApproved(uint256)": "5278",
				"getAutionFee(uint256)": "infinite",
				"isApprovedForAll(address,address)": "infinite",
				"name()": "infinite",
				"owner()": "2589",
				"ownerOf(uint256)": "3045",
				"renounceOwnership()": "30488",
				"safeTransferFrom(address,address,uint256)": "infinite",
				"safeTransferFrom(address,address,uint256,bytes)": "infinite",
				"setApprovalForAll(address,bool)": "infinite",
				"setBaseURI(string)": "infinite",
				"setSaleStartTime(uint32)": "24843",
				"startActionTime()": "2519",
				"supportsInterface(bytes4)": "842",
				"symbol()": "infinite",
				"tokenURI(uint256)": "infinite",
				"totalSupply()": "2535",
				"transferFrom(address,address,uint256)": "infinite",
				"transferOwnership(address)": "30832",
				"withdrawMoney()": "infinite"
			},
			"internal": {
				"_addTokenToAllTokensEnumeration(uint256)": "46437",
				"_baseURI()": "infinite"
			}
		},
		"methodIdentifiers": {
			"AUCTION_DROP_INTERVAL()": "5cae01d3",
			"AUCTION_DROP_PER_STEP()": "59f369fe",
			"AUCTION_END_PRICE()": "caf8a6d1",
			"AUCTION_PRICE_CURVE_LENGTH()": "f8a987d8",
			"AUCTION_START_PRICE()": "7a1c4a56",
			"MAX_SUP()": "2100e6c1",
			"approve(address,uint256)": "095ea7b3",
			"autionStartMint(uint256)": "2d6187d2",
			"balanceOf(address)": "70a08231",
			"getApproved(uint256)": "081812fc",
			"getAutionFee(uint256)": "cfb07ccc",
			"isApprovedForAll(address,address)": "e985e9c5",
			"name()": "06fdde03",
			"owner()": "8da5cb5b",
			"ownerOf(uint256)": "6352211e",
			"renounceOwnership()": "715018a6",
			"safeTransferFrom(address,address,uint256)": "42842e0e",
			"safeTransferFrom(address,address,uint256,bytes)": "b88d4fde",
			"setApprovalForAll(address,bool)": "a22cb465",
			"setBaseURI(string)": "55f804b3",
			"setSaleStartTime(uint32)": "01595266",
			"startActionTime()": "3ad46bf4",
			"supportsInterface(bytes4)": "01ffc9a7",
			"symbol()": "95d89b41",
			"tokenURI(uint256)": "c87b56dd",
			"totalSupply()": "18160ddd",
			"transferFrom(address,address,uint256)": "23b872dd",
			"transferOwnership(address)": "f2fde38b",
			"withdrawMoney()": "ac446002"
		}
	},
	"abi": [
		{
			"inputs": [],
			"stateMutability": "nonpayable",
			"type": "constructor"
		},
		{
			"anonymous": false,
			"inputs": [
				{
					"indexed": true,
					"internalType": "address",
					"name": "owner",
					"type": "address"
				},
				{
					"indexed": true,
					"internalType": "address",
					"name": "approved",
					"type": "address"
				},
				{
					"indexed": true,
					"internalType": "uint256",
					"name": "tokenId",
					"type": "uint256"
				}
			],
			"name": "Approval",
			"type": "event"
		},
		{
			"anonymous": false,
			"inputs": [
				{
					"indexed": true,
					"internalType": "address",
					"name": "owner",
					"type": "address"
				},
				{
					"indexed": true,
					"internalType": "address",
					"name": "operator",
					"type": "address"
				},
				{
					"indexed": false,
					"internalType": "bool",
					"name": "approved",
					"type": "bool"
				}
			],
			"name": "ApprovalForAll",
			"type": "event"
		},
		{
			"anonymous": false,
			"inputs": [
				{
					"indexed": true,
					"internalType": "address",
					"name": "previousOwner",
					"type": "address"
				},
				{
					"indexed": true,
					"internalType": "address",
					"name": "newOwner",
					"type": "address"
				}
			],
			"name": "OwnershipTransferred",
			"type": "event"
		},
		{
			"anonymous": false,
			"inputs": [
				{
					"indexed": true,
					"internalType": "address",
					"name": "from",
					"type": "address"
				},
				{
					"indexed": true,
					"internalType": "address",
					"name": "to",
					"type": "address"
				},
				{
					"indexed": true,
					"internalType": "uint256",
					"name": "tokenId",
					"type": "uint256"
				}
			],
			"name": "Transfer",
			"type": "event"
		},
		{
			"inputs": [],
			"name": "AUCTION_DROP_INTERVAL",
			"outputs": [
				{
					"internalType": "uint256",
					"name": "",
					"type": "uint256"
				}
			],
			"stateMutability": "view",
			"type": "function"
		},
		{
			"inputs": [],
			"name": "AUCTION_DROP_PER_STEP",
			"outputs": [
				{
					"internalType": "uint256",
					"name": "",
					"type": "uint256"
				}
			],
			"stateMutability": "view",
			"type": "function"
		},
		{
			"inputs": [],
			"name": "AUCTION_END_PRICE",
			"outputs": [
				{
					"internalType": "uint256",
					"name": "",
					"type": "uint256"
				}
			],
			"stateMutability": "view",
			"type": "function"
		},
		{
			"inputs": [],
			"name": "AUCTION_PRICE_CURVE_LENGTH",
			"outputs": [
				{
					"internalType": "uint256",
					"name": "",
					"type": "uint256"
				}
			],
			"stateMutability": "view",
			"type": "function"
		},
		{
			"inputs": [],
			"name": "AUCTION_START_PRICE",
			"outputs": [
				{
					"internalType": "uint256",
					"name": "",
					"type": "uint256"
				}
			],
			"stateMutability": "view",
			"type": "function"
		},
		{
			"inputs": [],
			"name": "MAX_SUP",
			"outputs": [
				{
					"internalType": "uint256",
					"name": "",
					"type": "uint256"
				}
			],
			"stateMutability": "view",
			"type": "function"
		},
		{
			"inputs": [
				{
					"internalType": "address",
					"name": "to",
					"type": "address"
				},
				{
					"internalType": "uint256",
					"name": "tokenId",
					"type": "uint256"
				}
			],
			"name": "approve",
			"outputs": [],
			"stateMutability": "nonpayable",
			"type": "function"
		},
		{
			"inputs": [
				{
					"internalType": "uint256",
					"name": "quantity",
					"type": "uint256"
				}
			],
			"name": "autionStartMint",
			"outputs": [],
			"stateMutability": "payable",
			"type": "function"
		},
		{
			"inputs": [
				{
					"internalType": "address",
					"name": "owner",
					"type": "address"
				}
			],
			"name": "balanceOf",
			"outputs": [
				{
					"internalType": "uint256",
					"name": "",
					"type": "uint256"
				}
			],
			"stateMutability": "view",
			"type": "function"
		},
		{
			"inputs": [
				{
					"internalType": "uint256",
					"name": "tokenId",
					"type": "uint256"
				}
			],
			"name": "getApproved",
			"outputs": [
				{
					"internalType": "address",
					"name": "",
					"type": "address"
				}
			],
			"stateMutability": "view",
			"type": "function"
		},
		{
			"inputs": [
				{
					"internalType": "uint256",
					"name": "_startSaleTime",
					"type": "uint256"
				}
			],
			"name": "getAutionFee",
			"outputs": [
				{
					"internalType": "uint256",
					"name": "",
					"type": "uint256"
				}
			],
			"stateMutability": "view",
			"type": "function"
		},
		{
			"inputs": [
				{
					"internalType": "address",
					"name": "owner",
					"type": "address"
				},
				{
					"internalType": "address",
					"name": "operator",
					"type": "address"
				}
			],
			"name": "isApprovedForAll",
			"outputs": [
				{
					"internalType": "bool",
					"name": "",
					"type": "bool"
				}
			],
			"stateMutability": "view",
			"type": "function"
		},
		{
			"inputs": [],
			"name": "name",
			"outputs": [
				{
					"internalType": "string",
					"name": "",
					"type": "string"
				}
			],
			"stateMutability": "view",
			"type": "function"
		},
		{
			"inputs": [],
			"name": "owner",
			"outputs": [
				{
					"internalType": "address",
					"name": "",
					"type": "address"
				}
			],
			"stateMutability": "view",
			"type": "function"
		},
		{
			"inputs": [
				{
					"internalType": "uint256",
					"name": "tokenId",
					"type": "uint256"
				}
			],
			"name": "ownerOf",
			"outputs": [
				{
					"internalType": "address",
					"name": "",
					"type": "address"
				}
			],
			"stateMutability": "view",
			"type": "function"
		},
		{
			"inputs": [],
			"name": "renounceOwnership",
			"outputs": [],
			"stateMutability": "nonpayable",
			"type": "function"
		},
		{
			"inputs": [
				{
					"internalType": "address",
					"name": "from",
					"type": "address"
				},
				{
					"internalType": "address",
					"name": "to",
					"type": "address"
				},
				{
					"internalType": "uint256",
					"name": "tokenId",
					"type": "uint256"
				}
			],
			"name": "safeTransferFrom",
			"outputs": [],
			"stateMutability": "nonpayable",
			"type": "function"
		},
		{
			"inputs": [
				{
					"internalType": "address",
					"name": "from",
					"type": "address"
				},
				{
					"internalType": "address",
					"name": "to",
					"type": "address"
				},
				{
					"internalType": "uint256",
					"name": "tokenId",
					"type": "uint256"
				},
				{
					"internalType": "bytes",
					"name": "data",
					"type": "bytes"
				}
			],
			"name": "safeTransferFrom",
			"outputs": [],
			"stateMutability": "nonpayable",
			"type": "function"
		},
		{
			"inputs": [
				{
					"internalType": "address",
					"name": "operator",
					"type": "address"
				},
				{
					"internalType": "bool",
					"name": "approved",
					"type": "bool"
				}
			],
			"name": "setApprovalForAll",
			"outputs": [],
			"stateMutability": "nonpayable",
			"type": "function"
		},
		{
			"inputs": [
				{
					"internalType": "string",
					"name": "baseURI",
					"type": "string"
				}
			],
			"name": "setBaseURI",
			"outputs": [],
			"stateMutability": "nonpayable",
			"type": "function"
		},
		{
			"inputs": [
				{
					"internalType": "uint32",
					"name": "time",
					"type": "uint32"
				}
			],
			"name": "setSaleStartTime",
			"outputs": [],
			"stateMutability": "nonpayable",
			"type": "function"
		},
		{
			"inputs": [],
			"name": "startActionTime",
			"outputs": [
				{
					"internalType": "uint256",
					"name": "",
					"type": "uint256"
				}
			],
			"stateMutability": "view",
			"type": "function"
		},
		{
			"inputs": [
				{
					"internalType": "bytes4",
					"name": "interfaceId",
					"type": "bytes4"
				}
			],
			"name": "supportsInterface",
			"outputs": [
				{
					"internalType": "bool",
					"name": "",
					"type": "bool"
				}
			],
			"stateMutability": "view",
			"type": "function"
		},
		{
			"inputs": [],
			"name": "symbol",
			"outputs": [
				{
					"internalType": "string",
					"name": "",
					"type": "string"
				}
			],
			"stateMutability": "view",
			"type": "function"
		},
		{
			"inputs": [
				{
					"internalType": "uint256",
					"name": "tokenId",
					"type": "uint256"
				}
			],
			"name": "tokenURI",
			"outputs": [
				{
					"internalType": "string",
					"name": "",
					"type": "string"
				}
			],
			"stateMutability": "view",
			"type": "function"
		},
		{
			"inputs": [],
			"name": "totalSupply",
			"outputs": [
				{
					"internalType": "uint256",
					"name": "",
					"type": "uint256"
				}
			],
			"stateMutability": "view",
			"type": "function"
		},
		{
			"inputs": [
				{
					"internalType": "address",
					"name": "from",
					"type": "address"
				},
				{
					"internalType": "address",
					"name": "to",
					"type": "address"
				},
				{
					"internalType": "uint256",
					"name": "tokenId",
					"type": "uint256"
				}
			],
			"name": "transferFrom",
			"outputs": [],
			"stateMutability": "nonpayable",
			"type": "function"
		},
		{
			"inputs": [
				{
					"internalType": "address",
					"name": "newOwner",
					"type": "address"
				}
			],
			"name": "transferOwnership",
			"outputs": [],
			"stateMutability": "nonpayable",
			"type": "function"
		},
		{
			"inputs": [],
			"name": "withdrawMoney",
			"outputs": [],
			"stateMutability": "nonpayable",
			"type": "function"
		}
	]
}