{
	"data": {
		"bytecode": {
			"linkReferences": {},
			"object": "608060405234801561001057600080fd5b50336000806101000a81548173ffffffffffffffffffffffffffffffffffffffff021916908373ffffffffffffffffffffffffffffffffffffffff160217905550611e55806100606000396000f3fe6080604052600436106100c65760003560e01c8063adb576af1161007f578063c7f33d3611610059578063c7f33d3614610302578063e5aa3d581461032e578063ecdb5d1014610359578063f8b2cb4f1461038857610145565b8063adb576af14610271578063c15bae84146102ae578063c4076876146102d957610145565b80630aca7f951461014a5780632283bffd14610175578063500d6847146101a15780639e6b15e0146101cc578063a223e05d14610209578063a736652a1461023457610145565b36610145577f88a5966d370b9919b20f3e2c13ff65706f196a4e32cc2c12bf57088f8852587433346040516100fc929190611703565b60405180910390a16101436040518060400160405280600d81526020017f7265636569766564206e756e3a00000000000000000000000000000000000000815250346103c5565b005b600080fd5b34801561015657600080fd5b5061015f610461565b60405161016c91906116e8565b60405180910390f35b34801561018157600080fd5b5061018a610487565b60405161019892919061174e565b60405180910390f35b3480156101ad57600080fd5b506101b6610536565b6040516101c39190611785565b60405180910390f35b3480156101d857600080fd5b506101f360048036038101906101ee919061150f565b610549565b604051610200919061172c565b60405180910390f35b34801561021557600080fd5b5061021e610652565b60405161022b919061196c565b60405180910390f35b34801561024057600080fd5b5061025b6004803603810190610256919061150f565b610658565b604051610268919061172c565b60405180910390f35b34801561027d57600080fd5b5061029860048036038101906102939190611558565b6107a0565b6040516102a59190611815565b60405180910390f35b3480156102ba57600080fd5b506102c36107b2565b6040516102d09190611815565b60405180910390f35b3480156102e557600080fd5b5061030060048036038101906102fb91906114cf565b610840565b005b34801561030e57600080fd5b50610317610b56565b60405161032592919061174e565b60405180910390f35b34801561033a57600080fd5b50610343610bf9565b60405161035091906117fa565b60405180910390f35b34801561036557600080fd5b5061036e610bff565b60405161037f9594939291906117a0565b60405180910390f35b34801561039457600080fd5b506103af60048036038101906103aa91906114a2565b610ed2565b6040516103bc919061196c565b60405180910390f35b61045d82826040516024016103db9291906118ce565b6040516020818303038152906040527fb60e72cc000000000000000000000000000000000000000000000000000000007bffffffffffffffffffffffffffffffffffffffffffffffffffffffff19166020820180517bffffffffffffffffffffffffffffffffffffffffffffffffffffffff8381831617835250505050610ef3565b5050565b600660009054906101000a900473ffffffffffffffffffffffffffffffffffffffff1681565b6060806000601467ffffffffffffffff8111156104a7576104a6611d22565b5b6040519080825280602002602001820160405280156104d55781602001602082028036833780820191505090505b5090506000600a67ffffffffffffffff8111156104f5576104f4611d22565b5b6040519080825280601f01601f1916602001820160405280156105275781602001600182028036833780820191505090505b50905081819350935050509091565b600260009054906101000a900460ff1681565b60606000600190505b82518110156106495760008382815181106105705761056f611cf3565b5b6020026020010151905060008290505b600181101580156105b65750818560018361059b9190611b06565b815181106105ac576105ab611cf3565b5b6020026020010151115b1561061457846001826105c99190611b06565b815181106105da576105d9611cf3565b5b60200260200101518582815181106105f5576105f4611cf3565b5b602002602001018181525050808061060c90611bbf565b915050610580565b8185828151811061062857610627611cf3565b5b6020026020010181815250505050808061064190611c4c565b915050610552565b50819050919050565b60055481565b606060005b6001835161066b9190611b06565b8110156107975760005b81600185516106849190611b06565b61068e9190611b06565b81101561078357836001826106a39190611a56565b815181106106b4576106b3611cf3565b5b60200260200101518482815181106106cf576106ce611cf3565b5b602002602001015111156107705760008482815181106106f2576106f1611cf3565b5b602002602001015190508460018361070a9190611a56565b8151811061071b5761071a611cf3565b5b602002602001015185838151811061073657610735611cf3565b5b60200260200101818152505080856001846107519190611a56565b8151811061076257610761611cf3565b5b602002602001018181525050505b808061077b90611c4c565b915050610675565b50808061078f90611c4c565b91505061065d565b50819050919050565b60606107ab82610f1c565b9050919050565b600380546107bf90611be9565b80601f01602080910402602001604051908101604052809291908181526020018280546107eb90611be9565b80156108385780601f1061080d57610100808354040283529160200191610838565b820191906000526020600020905b81548152906001019060200180831161081b57829003601f168201915b505050505081565b60008054906101000a900473ffffffffffffffffffffffffffffffffffffffff1673ffffffffffffffffffffffffffffffffffffffff163373ffffffffffffffffffffffffffffffffffffffff16146108ce576040517f08c379a00000000000000000000000000000000000000000000000000000000081526004016108c59061191e565b60405180910390fd5b60006108d933610ed2565b90506109516040518060400160405280601081526020017f63757272656e74206163636f756e743a0000000000000000000000000000000081525060008054906101000a900473ffffffffffffffffffffffffffffffffffffffff1673ffffffffffffffffffffffffffffffffffffffff16316103c5565b6109926040518060400160405280601081526020017f63757272656e74206163636f756e743a00000000000000000000000000000000815250838310610f3a565b6109d16040518060400160405280601081526020017f63757272656e74206163636f756e743a00000000000000000000000000000000815250836103c5565b610a276040518060400160405280601081526020017f63757272656e74206163636f756e743a000000000000000000000000000000008152503373ffffffffffffffffffffffffffffffffffffffff16316103c5565b8160008054906101000a900473ffffffffffffffffffffffffffffffffffffffff1673ffffffffffffffffffffffffffffffffffffffff16311015610aa55781816040517f8c905368000000000000000000000000000000000000000000000000000000008152600401610a9c929190611987565b60405180910390fd5b81600160003373ffffffffffffffffffffffffffffffffffffffff1673ffffffffffffffffffffffffffffffffffffffff1681526020019081526020016000206000828254610af49190611b06565b9250508190555081600160008573ffffffffffffffffffffffffffffffffffffffff1673ffffffffffffffffffffffffffffffffffffffff1681526020019081526020016000206000828254610b4a9190611a56565b92505081905550505050565b606080601467ffffffffffffffff811115610b7457610b73611d22565b5b604051908082528060200260200182016040528015610ba25781602001602082028036833780820191505090505b509150600a67ffffffffffffffff811115610bc057610bbf611d22565b5b6040519080825280601f01601f191660200182016040528015610bf25781602001600182028036833780820191505090505b5090509091565b60045481565b600060606000806000610c566040518060400160405280600d81526020017f746573742064656661756c743a00000000000000000000000000000000000000815250600260009054906101000a900460ff16610f3a565b610d1f6040518060400160405280600d81526020017f746573742064656661756c743a0000000000000000000000000000000000000081525060038054610c9c90611be9565b80601f0160208091040260200160405190810160405280929190818152602001828054610cc890611be9565b8015610d155780601f10610cea57610100808354040283529160200191610d15565b820191906000526020600020905b815481529060010190602001808311610cf857829003601f168201915b5050505050610fd6565b7f6a837ff3973aa4181e7b9f07756f8b7ee366dd85a36655d2cb42cd47f10b9638600454604051610d50919061193e565b60405180910390a1610d996040518060400160405280600d81526020017f746573742064656661756c743a000000000000000000000000000000000000008152506005546103c5565b610dfa6040518060400160405280600d81526020017f746573742064656661756c743a00000000000000000000000000000000000000815250600660009054906101000a900473ffffffffffffffffffffffffffffffffffffffff16611072565b600260009054906101000a900460ff166003600454600554600660009054906101000a900473ffffffffffffffffffffffffffffffffffffffff16838054610e4190611be9565b80601f0160208091040260200160405190810160405280929190818152602001828054610e6d90611be9565b8015610eba5780601f10610e8f57610100808354040283529160200191610eba565b820191906000526020600020905b815481529060010190602001808311610e9d57829003601f168201915b50505050509350945094509450945094509091929394565b60008173ffffffffffffffffffffffffffffffffffffffff16319050919050565b60008151905060006a636f6e736f6c652e6c6f679050602083016000808483855afa5050505050565b6060610f33826001610f2d8561110e565b0161119e565b9050919050565b610fd28282604051602401610f50929190611867565b6040516020818303038152906040527fc3b55635000000000000000000000000000000000000000000000000000000007bffffffffffffffffffffffffffffffffffffffffffffffffffffffff19166020820180517bffffffffffffffffffffffffffffffffffffffffffffffffffffffff8381831617835250505050610ef3565b5050565b61106e8282604051602401610fec929190611897565b6040516020818303038152906040527f4b5c4277000000000000000000000000000000000000000000000000000000007bffffffffffffffffffffffffffffffffffffffffffffffffffffffff19166020820180517bffffffffffffffffffffffffffffffffffffffffffffffffffffffff8381831617835250505050610ef3565b5050565b61110a8282604051602401611088929190611837565b6040516020818303038152906040527f319af333000000000000000000000000000000000000000000000000000000007bffffffffffffffffffffffffffffffffffffffffffffffffffffffff19166020820180517bffffffffffffffffffffffffffffffffffffffffffffffffffffffff8381831617835250505050610ef3565b5050565b600080600090506000608084901c111561113057608083901c92506010810190505b6000604084901c111561114b57604083901c92506008810190505b6000602084901c111561116657602083901c92506004810190505b6000601084901c111561118157601083901c92506002810190505b6000600884901c1115611195576001810190505b80915050919050565b6060600060028360026111b19190611aac565b6111bb9190611a56565b67ffffffffffffffff8111156111d4576111d3611d22565b5b6040519080825280601f01601f1916602001820160405280156112065781602001600182028036833780820191505090505b5090507f30000000000000000000000000000000000000000000000000000000000000008160008151811061123e5761123d611cf3565b5b60200101907effffffffffffffffffffffffffffffffffffffffffffffffffffffffffffff1916908160001a9053507f7800000000000000000000000000000000000000000000000000000000000000816001815181106112a2576112a1611cf3565b5b60200101907effffffffffffffffffffffffffffffffffffffffffffffffffffffffffffff1916908160001a905350600060018460026112e29190611aac565b6112ec9190611a56565b90505b600181111561138c577f3031323334353637383961626364656600000000000000000000000000000000600f86166010811061132e5761132d611cf3565b5b1a60f81b82828151811061134557611344611cf3565b5b60200101907effffffffffffffffffffffffffffffffffffffffffffffffffffffffffffff1916908160001a905350600485901c94508061138590611bbf565b90506112ef565b50600084146113d0576040517f08c379a00000000000000000000000000000000000000000000000000000000081526004016113c7906118fe565b60405180910390fd5b8091505092915050565b60006113ed6113e8846119d5565b6119b0565b905080838252602082019050828560208602820111156114105761140f611d56565b5b60005b858110156114405781611426888261148d565b845260208401935060208301925050600181019050611413565b5050509392505050565b60008135905061145981611df1565b92915050565b600082601f83011261147457611473611d51565b5b81356114848482602086016113da565b91505092915050565b60008135905061149c81611e08565b92915050565b6000602082840312156114b8576114b7611d60565b5b60006114c68482850161144a565b91505092915050565b600080604083850312156114e6576114e5611d60565b5b60006114f48582860161144a565b92505060206115058582860161148d565b9150509250929050565b60006020828403121561152557611524611d60565b5b600082013567ffffffffffffffff81111561154357611542611d5b565b5b61154f8482850161145f565b91505092915050565b60006020828403121561156e5761156d611d60565b5b600061157c8482850161148d565b91505092915050565b600061159183836116ca565b60208301905092915050565b6115a681611b3a565b82525050565b60006115b782611a11565b6115c18185611a34565b93506115cc83611a01565b8060005b838110156115fd5781516115e48882611585565b97506115ef83611a27565b9250506001810190506115d0565b5085935050505092915050565b61161381611b4c565b82525050565b61162281611b58565b82525050565b600061163382611a1c565b61163d8185611a45565b935061164d818560208601611b8c565b61165681611d65565b840191505092915050565b600061166e602083611a45565b915061167982611d76565b602082019050919050565b6000611691601383611a45565b915061169c82611d9f565b602082019050919050565b60006116b4600d83611a45565b91506116bf82611dc8565b602082019050919050565b6116d381611b82565b82525050565b6116e281611b82565b82525050565b60006020820190506116fd600083018461159d565b92915050565b6000604082019050611718600083018561159d565b61172560208301846116d9565b9392505050565b6000602082019050818103600083015261174681846115ac565b905092915050565b6000604082019050818103600083015261176881856115ac565b9050818103602083015261177c8184611628565b90509392505050565b600060208201905061179a600083018461160a565b92915050565b600060a0820190506117b5600083018861160a565b81810360208301526117c78187611628565b90506117d66040830186611619565b6117e360608301856116d9565b6117f0608083018461159d565b9695505050505050565b600060208201905061180f6000830184611619565b92915050565b6000602082019050818103600083015261182f8184611628565b905092915050565b600060408201905081810360008301526118518185611628565b9050611860602083018461159d565b9392505050565b600060408201905081810360008301526118818185611628565b9050611890602083018461160a565b9392505050565b600060408201905081810360008301526118b18185611628565b905081810360208301526118c58184611628565b90509392505050565b600060408201905081810360008301526118e88185611628565b90506118f760208301846116d9565b9392505050565b6000602082019050818103600083015261191781611661565b9050919050565b6000602082019050818103600083015261193781611684565b9050919050565b60006040820190508181036000830152611957816116a7565b90506119666020830184611619565b92915050565b600060208201905061198160008301846116d9565b92915050565b600060408201905061199c60008301856116d9565b6119a960208301846116d9565b9392505050565b60006119ba6119cb565b90506119c68282611c1b565b919050565b6000604051905090565b600067ffffffffffffffff8211156119f0576119ef611d22565b5b602082029050602081019050919050565b6000819050602082019050919050565b600081519050919050565b600081519050919050565b6000602082019050919050565b600082825260208201905092915050565b600082825260208201905092915050565b6000611a6182611b82565b9150611a6c83611b82565b9250827fffffffffffffffffffffffffffffffffffffffffffffffffffffffffffffffff03821115611aa157611aa0611c95565b5b828201905092915050565b6000611ab782611b82565b9150611ac283611b82565b9250817fffffffffffffffffffffffffffffffffffffffffffffffffffffffffffffffff0483118215151615611afb57611afa611c95565b5b828202905092915050565b6000611b1182611b82565b9150611b1c83611b82565b925082821015611b2f57611b2e611c95565b5b828203905092915050565b6000611b4582611b62565b9050919050565b60008115159050919050565b6000819050919050565b600073ffffffffffffffffffffffffffffffffffffffff82169050919050565b6000819050919050565b60005b83811015611baa578082015181840152602081019050611b8f565b83811115611bb9576000848401525b50505050565b6000611bca82611b82565b91506000821415611bde57611bdd611c95565b5b600182039050919050565b60006002820490506001821680611c0157607f821691505b60208210811415611c1557611c14611cc4565b5b50919050565b611c2482611d65565b810181811067ffffffffffffffff82111715611c4357611c42611d22565b5b80604052505050565b6000611c5782611b82565b91507fffffffffffffffffffffffffffffffffffffffffffffffffffffffffffffffff821415611c8a57611c89611c95565b5b600182019050919050565b7f4e487b7100000000000000000000000000000000000000000000000000000000600052601160045260246000fd5b7f4e487b7100000000000000000000000000000000000000000000000000000000600052602260045260246000fd5b7f4e487b7100000000000000000000000000000000000000000000000000000000600052603260045260246000fd5b7f4e487b7100000000000000000000000000000000000000000000000000000000600052604160045260246000fd5b600080fd5b600080fd5b600080fd5b600080fd5b6000601f19601f8301169050919050565b7f537472696e67733a20686578206c656e67746820696e73756666696369656e74600082015250565b7f43616c6c6572206973206e6f74206f776e657200000000000000000000000000600082015250565b7f746573742064656661756c743a00000000000000000000000000000000000000600082015250565b611dfa81611b3a565b8114611e0557600080fd5b50565b611e1181611b82565b8114611e1c57600080fd5b5056fea26469706673582212203bbb07e6a330cf08007becc1cc8af25f7eb8f66ea8b946a86009197c0ff1807d64736f6c63430008070033",
			"opcodes": "PUSH1 0x80 PUSH1 0x40 MSTORE CALLVALUE DUP1 ISZERO PUSH2 0x10 JUMPI PUSH1 0x0 DUP1 REVERT JUMPDEST POP CALLER PUSH1 0x0 DUP1 PUSH2 0x100 EXP DUP2 SLOAD DUP2 PUSH20 0xFFFFFFFFFFFFFFFFFFFFFFFFFFFFFFFFFFFFFFFF MUL NOT AND SWAP1 DUP4 PUSH20 0xFFFFFFFFFFFFFFFFFFFFFFFFFFFFFFFFFFFFFFFF AND MUL OR SWAP1 SSTORE POP PUSH2 0x1E55 DUP1 PUSH2 0x60 PUSH1 0x0 CODECOPY PUSH1 0x0 RETURN INVALID PUSH1 0x80 PUSH1 0x40 MSTORE PUSH1 0x4 CALLDATASIZE LT PUSH2 0xC6 JUMPI PUSH1 0x0 CALLDATALOAD PUSH1 0xE0 SHR DUP1 PUSH4 0xADB576AF GT PUSH2 0x7F JUMPI DUP1 PUSH4 0xC7F33D36 GT PUSH2 0x59 JUMPI DUP1 PUSH4 0xC7F33D36 EQ PUSH2 0x302 JUMPI DUP1 PUSH4 0xE5AA3D58 EQ PUSH2 0x32E JUMPI DUP1 PUSH4 0xECDB5D10 EQ PUSH2 0x359 JUMPI DUP1 PUSH4 0xF8B2CB4F EQ PUSH2 0x388 JUMPI PUSH2 0x145 JUMP JUMPDEST DUP1 PUSH4 0xADB576AF EQ PUSH2 0x271 JUMPI DUP1 PUSH4 0xC15BAE84 EQ PUSH2 0x2AE JUMPI DUP1 PUSH4 0xC4076876 EQ PUSH2 0x2D9 JUMPI PUSH2 0x145 JUMP JUMPDEST DUP1 PUSH4 0xACA7F95 EQ PUSH2 0x14A JUMPI DUP1 PUSH4 0x2283BFFD EQ PUSH2 0x175 JUMPI DUP1 PUSH4 0x500D6847 EQ PUSH2 0x1A1 JUMPI DUP1 PUSH4 0x9E6B15E0 EQ PUSH2 0x1CC JUMPI DUP1 PUSH4 0xA223E05D EQ PUSH2 0x209 JUMPI DUP1 PUSH4 0xA736652A EQ PUSH2 0x234 JUMPI PUSH2 0x145 JUMP JUMPDEST CALLDATASIZE PUSH2 0x145 JUMPI PUSH32 0x88A5966D370B9919B20F3E2C13FF65706F196A4E32CC2C12BF57088F88525874 CALLER CALLVALUE PUSH1 0x40 MLOAD PUSH2 0xFC SWAP3 SWAP2 SWAP1 PUSH2 0x1703 JUMP JUMPDEST PUSH1 0x40 MLOAD DUP1 SWAP2 SUB SWAP1 LOG1 PUSH2 0x143 PUSH1 0x40 MLOAD DUP1 PUSH1 0x40 ADD PUSH1 0x40 MSTORE DUP1 PUSH1 0xD DUP2 MSTORE PUSH1 0x20 ADD PUSH32 0x7265636569766564206E756E3A00000000000000000000000000000000000000 DUP2 MSTORE POP CALLVALUE PUSH2 0x3C5 JUMP JUMPDEST STOP JUMPDEST PUSH1 0x0 DUP1 REVERT JUMPDEST CALLVALUE DUP1 ISZERO PUSH2 0x156 JUMPI PUSH1 0x0 DUP1 REVERT JUMPDEST POP PUSH2 0x15F PUSH2 0x461 JUMP JUMPDEST PUSH1 0x40 MLOAD PUSH2 0x16C SWAP2 SWAP1 PUSH2 0x16E8 JUMP JUMPDEST PUSH1 0x40 MLOAD DUP1 SWAP2 SUB SWAP1 RETURN JUMPDEST CALLVALUE DUP1 ISZERO PUSH2 0x181 JUMPI PUSH1 0x0 DUP1 REVERT JUMPDEST POP PUSH2 0x18A PUSH2 0x487 JUMP JUMPDEST PUSH1 0x40 MLOAD PUSH2 0x198 SWAP3 SWAP2 SWAP1 PUSH2 0x174E JUMP JUMPDEST PUSH1 0x40 MLOAD DUP1 SWAP2 SUB SWAP1 RETURN JUMPDEST CALLVALUE DUP1 ISZERO PUSH2 0x1AD JUMPI PUSH1 0x0 DUP1 REVERT JUMPDEST POP PUSH2 0x1B6 PUSH2 0x536 JUMP JUMPDEST PUSH1 0x40 MLOAD PUSH2 0x1C3 SWAP2 SWAP1 PUSH2 0x1785 JUMP JUMPDEST PUSH1 0x40 MLOAD DUP1 SWAP2 SUB SWAP1 RETURN JUMPDEST CALLVALUE DUP1 ISZERO PUSH2 0x1D8 JUMPI PUSH1 0x0 DUP1 REVERT JUMPDEST POP PUSH2 0x1F3 PUSH1 0x4 DUP1 CALLDATASIZE SUB DUP2 ADD SWAP1 PUSH2 0x1EE SWAP2 SWAP1 PUSH2 0x150F JUMP JUMPDEST PUSH2 0x549 JUMP JUMPDEST PUSH1 0x40 MLOAD PUSH2 0x200 SWAP2 SWAP1 PUSH2 0x172C JUMP JUMPDEST PUSH1 0x40 MLOAD DUP1 SWAP2 SUB SWAP1 RETURN JUMPDEST CALLVALUE DUP1 ISZERO PUSH2 0x215 JUMPI PUSH1 0x0 DUP1 REVERT JUMPDEST POP PUSH2 0x21E PUSH2 0x652 JUMP JUMPDEST PUSH1 0x40 MLOAD PUSH2 0x22B SWAP2 SWAP1 PUSH2 0x196C JUMP JUMPDEST PUSH1 0x40 MLOAD DUP1 SWAP2 SUB SWAP1 RETURN JUMPDEST CALLVALUE DUP1 ISZERO PUSH2 0x240 JUMPI PUSH1 0x0 DUP1 REVERT JUMPDEST POP PUSH2 0x25B PUSH1 0x4 DUP1 CALLDATASIZE SUB DUP2 ADD SWAP1 PUSH2 0x256 SWAP2 SWAP1 PUSH2 0x150F JUMP JUMPDEST PUSH2 0x658 JUMP JUMPDEST PUSH1 0x40 MLOAD PUSH2 0x268 SWAP2 SWAP1 PUSH2 0x172C JUMP JUMPDEST PUSH1 0x40 MLOAD DUP1 SWAP2 SUB SWAP1 RETURN JUMPDEST CALLVALUE DUP1 ISZERO PUSH2 0x27D JUMPI PUSH1 0x0 DUP1 REVERT JUMPDEST POP PUSH2 0x298 PUSH1 0x4 DUP1 CALLDATASIZE SUB DUP2 ADD SWAP1 PUSH2 0x293 SWAP2 SWAP1 PUSH2 0x1558 JUMP JUMPDEST PUSH2 0x7A0 JUMP JUMPDEST PUSH1 0x40 MLOAD PUSH2 0x2A5 SWAP2 SWAP1 PUSH2 0x1815 JUMP JUMPDEST PUSH1 0x40 MLOAD DUP1 SWAP2 SUB SWAP1 RETURN JUMPDEST CALLVALUE DUP1 ISZERO PUSH2 0x2BA JUMPI PUSH1 0x0 DUP1 REVERT JUMPDEST POP PUSH2 0x2C3 PUSH2 0x7B2 JUMP JUMPDEST PUSH1 0x40 MLOAD PUSH2 0x2D0 SWAP2 SWAP1 PUSH2 0x1815 JUMP JUMPDEST PUSH1 0x40 MLOAD DUP1 SWAP2 SUB SWAP1 RETURN JUMPDEST CALLVALUE DUP1 ISZERO PUSH2 0x2E5 JUMPI PUSH1 0x0 DUP1 REVERT JUMPDEST POP PUSH2 0x300 PUSH1 0x4 DUP1 CALLDATASIZE SUB DUP2 ADD SWAP1 PUSH2 0x2FB SWAP2 SWAP1 PUSH2 0x14CF JUMP JUMPDEST PUSH2 0x840 JUMP JUMPDEST STOP JUMPDEST CALLVALUE DUP1 ISZERO PUSH2 0x30E JUMPI PUSH1 0x0 DUP1 REVERT JUMPDEST POP PUSH2 0x317 PUSH2 0xB56 JUMP JUMPDEST PUSH1 0x40 MLOAD PUSH2 0x325 SWAP3 SWAP2 SWAP1 PUSH2 0x174E JUMP JUMPDEST PUSH1 0x40 MLOAD DUP1 SWAP2 SUB SWAP1 RETURN JUMPDEST CALLVALUE DUP1 ISZERO PUSH2 0x33A JUMPI PUSH1 0x0 DUP1 REVERT JUMPDEST POP PUSH2 0x343 PUSH2 0xBF9 JUMP JUMPDEST PUSH1 0x40 MLOAD PUSH2 0x350 SWAP2 SWAP1 PUSH2 0x17FA JUMP JUMPDEST PUSH1 0x40 MLOAD DUP1 SWAP2 SUB SWAP1 RETURN JUMPDEST CALLVALUE DUP1 ISZERO PUSH2 0x365 JUMPI PUSH1 0x0 DUP1 REVERT JUMPDEST POP PUSH2 0x36E PUSH2 0xBFF JUMP JUMPDEST PUSH1 0x40 MLOAD PUSH2 0x37F SWAP6 SWAP5 SWAP4 SWAP3 SWAP2 SWAP1 PUSH2 0x17A0 JUMP JUMPDEST PUSH1 0x40 MLOAD DUP1 SWAP2 SUB SWAP1 RETURN JUMPDEST CALLVALUE DUP1 ISZERO PUSH2 0x394 JUMPI PUSH1 0x0 DUP1 REVERT JUMPDEST POP PUSH2 0x3AF PUSH1 0x4 DUP1 CALLDATASIZE SUB DUP2 ADD SWAP1 PUSH2 0x3AA SWAP2 SWAP1 PUSH2 0x14A2 JUMP JUMPDEST PUSH2 0xED2 JUMP JUMPDEST PUSH1 0x40 MLOAD PUSH2 0x3BC SWAP2 SWAP1 PUSH2 0x196C JUMP JUMPDEST PUSH1 0x40 MLOAD DUP1 SWAP2 SUB SWAP1 RETURN JUMPDEST PUSH2 0x45D DUP3 DUP3 PUSH1 0x40 MLOAD PUSH1 0x24 ADD PUSH2 0x3DB SWAP3 SWAP2 SWAP1 PUSH2 0x18CE JUMP JUMPDEST PUSH1 0x40 MLOAD PUSH1 0x20 DUP2 DUP4 SUB SUB DUP2 MSTORE SWAP1 PUSH1 0x40 MSTORE PUSH32 0xB60E72CC00000000000000000000000000000000000000000000000000000000 PUSH28 0xFFFFFFFFFFFFFFFFFFFFFFFFFFFFFFFFFFFFFFFFFFFFFFFFFFFFFFFF NOT AND PUSH1 0x20 DUP3 ADD DUP1 MLOAD PUSH28 0xFFFFFFFFFFFFFFFFFFFFFFFFFFFFFFFFFFFFFFFFFFFFFFFFFFFFFFFF DUP4 DUP2 DUP4 AND OR DUP4 MSTORE POP POP POP POP PUSH2 0xEF3 JUMP JUMPDEST POP POP JUMP JUMPDEST PUSH1 0x6 PUSH1 0x0 SWAP1 SLOAD SWAP1 PUSH2 0x100 EXP SWAP1 DIV PUSH20 0xFFFFFFFFFFFFFFFFFFFFFFFFFFFFFFFFFFFFFFFF AND DUP2 JUMP JUMPDEST PUSH1 0x60 DUP1 PUSH1 0x0 PUSH1 0x14 PUSH8 0xFFFFFFFFFFFFFFFF DUP2 GT ISZERO PUSH2 0x4A7 JUMPI PUSH2 0x4A6 PUSH2 0x1D22 JUMP JUMPDEST JUMPDEST PUSH1 0x40 MLOAD SWAP1 DUP1 DUP3 MSTORE DUP1 PUSH1 0x20 MUL PUSH1 0x20 ADD DUP3 ADD PUSH1 0x40 MSTORE DUP1 ISZERO PUSH2 0x4D5 JUMPI DUP2 PUSH1 0x20 ADD PUSH1 0x20 DUP3 MUL DUP1 CALLDATASIZE DUP4 CALLDATACOPY DUP1 DUP3 ADD SWAP2 POP POP SWAP1 POP JUMPDEST POP SWAP1 POP PUSH1 0x0 PUSH1 0xA PUSH8 0xFFFFFFFFFFFFFFFF DUP2 GT ISZERO PUSH2 0x4F5 JUMPI PUSH2 0x4F4 PUSH2 0x1D22 JUMP JUMPDEST JUMPDEST PUSH1 0x40 MLOAD SWAP1 DUP1 DUP3 MSTORE DUP1 PUSH1 0x1F ADD PUSH1 0x1F NOT AND PUSH1 0x20 ADD DUP3 ADD PUSH1 0x40 MSTORE DUP1 ISZERO PUSH2 0x527 JUMPI DUP2 PUSH1 0x20 ADD PUSH1 0x1 DUP3 MUL DUP1 CALLDATASIZE DUP4 CALLDATACOPY DUP1 DUP3 ADD SWAP2 POP POP SWAP1 POP JUMPDEST POP SWAP1 POP DUP2 DUP2 SWAP4 POP SWAP4 POP POP POP SWAP1 SWAP2 JUMP JUMPDEST PUSH1 0x2 PUSH1 0x0 SWAP1 SLOAD SWAP1 PUSH2 0x100 EXP SWAP1 DIV PUSH1 0xFF AND DUP2 JUMP JUMPDEST PUSH1 0x60 PUSH1 0x0 PUSH1 0x1 SWAP1 POP JUMPDEST DUP3 MLOAD DUP2 LT ISZERO PUSH2 0x649 JUMPI PUSH1 0x0 DUP4 DUP3 DUP2 MLOAD DUP2 LT PUSH2 0x570 JUMPI PUSH2 0x56F PUSH2 0x1CF3 JUMP JUMPDEST JUMPDEST PUSH1 0x20 MUL PUSH1 0x20 ADD ADD MLOAD SWAP1 POP PUSH1 0x0 DUP3 SWAP1 POP JUMPDEST PUSH1 0x1 DUP2 LT ISZERO DUP1 ISZERO PUSH2 0x5B6 JUMPI POP DUP2 DUP6 PUSH1 0x1 DUP4 PUSH2 0x59B SWAP2 SWAP1 PUSH2 0x1B06 JUMP JUMPDEST DUP2 MLOAD DUP2 LT PUSH2 0x5AC JUMPI PUSH2 0x5AB PUSH2 0x1CF3 JUMP JUMPDEST JUMPDEST PUSH1 0x20 MUL PUSH1 0x20 ADD ADD MLOAD GT JUMPDEST ISZERO PUSH2 0x614 JUMPI DUP5 PUSH1 0x1 DUP3 PUSH2 0x5C9 SWAP2 SWAP1 PUSH2 0x1B06 JUMP JUMPDEST DUP2 MLOAD DUP2 LT PUSH2 0x5DA JUMPI PUSH2 0x5D9 PUSH2 0x1CF3 JUMP JUMPDEST JUMPDEST PUSH1 0x20 MUL PUSH1 0x20 ADD ADD MLOAD DUP6 DUP3 DUP2 MLOAD DUP2 LT PUSH2 0x5F5 JUMPI PUSH2 0x5F4 PUSH2 0x1CF3 JUMP JUMPDEST JUMPDEST PUSH1 0x20 MUL PUSH1 0x20 ADD ADD DUP2 DUP2 MSTORE POP POP DUP1 DUP1 PUSH2 0x60C SWAP1 PUSH2 0x1BBF JUMP JUMPDEST SWAP2 POP POP PUSH2 0x580 JUMP JUMPDEST DUP2 DUP6 DUP3 DUP2 MLOAD DUP2 LT PUSH2 0x628 JUMPI PUSH2 0x627 PUSH2 0x1CF3 JUMP JUMPDEST JUMPDEST PUSH1 0x20 MUL PUSH1 0x20 ADD ADD DUP2 DUP2 MSTORE POP POP POP POP DUP1 DUP1 PUSH2 0x641 SWAP1 PUSH2 0x1C4C JUMP JUMPDEST SWAP2 POP POP PUSH2 0x552 JUMP JUMPDEST POP DUP2 SWAP1 POP SWAP2 SWAP1 POP JUMP JUMPDEST PUSH1 0x5 SLOAD DUP2 JUMP JUMPDEST PUSH1 0x60 PUSH1 0x0 JUMPDEST PUSH1 0x1 DUP4 MLOAD PUSH2 0x66B SWAP2 SWAP1 PUSH2 0x1B06 JUMP JUMPDEST DUP2 LT ISZERO PUSH2 0x797 JUMPI PUSH1 0x0 JUMPDEST DUP2 PUSH1 0x1 DUP6 MLOAD PUSH2 0x684 SWAP2 SWAP1 PUSH2 0x1B06 JUMP JUMPDEST PUSH2 0x68E SWAP2 SWAP1 PUSH2 0x1B06 JUMP JUMPDEST DUP2 LT ISZERO PUSH2 0x783 JUMPI DUP4 PUSH1 0x1 DUP3 PUSH2 0x6A3 SWAP2 SWAP1 PUSH2 0x1A56 JUMP JUMPDEST DUP2 MLOAD DUP2 LT PUSH2 0x6B4 JUMPI PUSH2 0x6B3 PUSH2 0x1CF3 JUMP JUMPDEST JUMPDEST PUSH1 0x20 MUL PUSH1 0x20 ADD ADD MLOAD DUP5 DUP3 DUP2 MLOAD DUP2 LT PUSH2 0x6CF JUMPI PUSH2 0x6CE PUSH2 0x1CF3 JUMP JUMPDEST JUMPDEST PUSH1 0x20 MUL PUSH1 0x20 ADD ADD MLOAD GT ISZERO PUSH2 0x770 JUMPI PUSH1 0x0 DUP5 DUP3 DUP2 MLOAD DUP2 LT PUSH2 0x6F2 JUMPI PUSH2 0x6F1 PUSH2 0x1CF3 JUMP JUMPDEST JUMPDEST PUSH1 0x20 MUL PUSH1 0x20 ADD ADD MLOAD SWAP1 POP DUP5 PUSH1 0x1 DUP4 PUSH2 0x70A SWAP2 SWAP1 PUSH2 0x1A56 JUMP JUMPDEST DUP2 MLOAD DUP2 LT PUSH2 0x71B JUMPI PUSH2 0x71A PUSH2 0x1CF3 JUMP JUMPDEST JUMPDEST PUSH1 0x20 MUL PUSH1 0x20 ADD ADD MLOAD DUP6 DUP4 DUP2 MLOAD DUP2 LT PUSH2 0x736 JUMPI PUSH2 0x735 PUSH2 0x1CF3 JUMP JUMPDEST JUMPDEST PUSH1 0x20 MUL PUSH1 0x20 ADD ADD DUP2 DUP2 MSTORE POP POP DUP1 DUP6 PUSH1 0x1 DUP5 PUSH2 0x751 SWAP2 SWAP1 PUSH2 0x1A56 JUMP JUMPDEST DUP2 MLOAD DUP2 LT PUSH2 0x762 JUMPI PUSH2 0x761 PUSH2 0x1CF3 JUMP JUMPDEST JUMPDEST PUSH1 0x20 MUL PUSH1 0x20 ADD ADD DUP2 DUP2 MSTORE POP POP POP JUMPDEST DUP1 DUP1 PUSH2 0x77B SWAP1 PUSH2 0x1C4C JUMP JUMPDEST SWAP2 POP POP PUSH2 0x675 JUMP JUMPDEST POP DUP1 DUP1 PUSH2 0x78F SWAP1 PUSH2 0x1C4C JUMP JUMPDEST SWAP2 POP POP PUSH2 0x65D JUMP JUMPDEST POP DUP2 SWAP1 POP SWAP2 SWAP1 POP JUMP JUMPDEST PUSH1 0x60 PUSH2 0x7AB DUP3 PUSH2 0xF1C JUMP JUMPDEST SWAP1 POP SWAP2 SWAP1 POP JUMP JUMPDEST PUSH1 0x3 DUP1 SLOAD PUSH2 0x7BF SWAP1 PUSH2 0x1BE9 JUMP JUMPDEST DUP1 PUSH1 0x1F ADD PUSH1 0x20 DUP1 SWAP2 DIV MUL PUSH1 0x20 ADD PUSH1 0x40 MLOAD SWAP1 DUP2 ADD PUSH1 0x40 MSTORE DUP1 SWAP3 SWAP2 SWAP1 DUP2 DUP2 MSTORE PUSH1 0x20 ADD DUP3 DUP1 SLOAD PUSH2 0x7EB SWAP1 PUSH2 0x1BE9 JUMP JUMPDEST DUP1 ISZERO PUSH2 0x838 JUMPI DUP1 PUSH1 0x1F LT PUSH2 0x80D JUMPI PUSH2 0x100 DUP1 DUP4 SLOAD DIV MUL DUP4 MSTORE SWAP2 PUSH1 0x20 ADD SWAP2 PUSH2 0x838 JUMP JUMPDEST DUP3 ADD SWAP2 SWAP1 PUSH1 0x0 MSTORE PUSH1 0x20 PUSH1 0x0 KECCAK256 SWAP1 JUMPDEST DUP2 SLOAD DUP2 MSTORE SWAP1 PUSH1 0x1 ADD SWAP1 PUSH1 0x20 ADD DUP1 DUP4 GT PUSH2 0x81B JUMPI DUP3 SWAP1 SUB PUSH1 0x1F AND DUP3 ADD SWAP2 JUMPDEST POP POP POP POP POP DUP2 JUMP JUMPDEST PUSH1 0x0 DUP1 SLOAD SWAP1 PUSH2 0x100 EXP SWAP1 DIV PUSH20 0xFFFFFFFFFFFFFFFFFFFFFFFFFFFFFFFFFFFFFFFF AND PUSH20 0xFFFFFFFFFFFFFFFFFFFFFFFFFFFFFFFFFFFFFFFF AND CALLER PUSH20 0xFFFFFFFFFFFFFFFFFFFFFFFFFFFFFFFFFFFFFFFF AND EQ PUSH2 0x8CE JUMPI PUSH1 0x40 MLOAD PUSH32 0x8C379A000000000000000000000000000000000000000000000000000000000 DUP2 MSTORE PUSH1 0x4 ADD PUSH2 0x8C5 SWAP1 PUSH2 0x191E JUMP JUMPDEST PUSH1 0x40 MLOAD DUP1 SWAP2 SUB SWAP1 REVERT JUMPDEST PUSH1 0x0 PUSH2 0x8D9 CALLER PUSH2 0xED2 JUMP JUMPDEST SWAP1 POP PUSH2 0x951 PUSH1 0x40 MLOAD DUP1 PUSH1 0x40 ADD PUSH1 0x40 MSTORE DUP1 PUSH1 0x10 DUP2 MSTORE PUSH1 0x20 ADD PUSH32 0x63757272656E74206163636F756E743A00000000000000000000000000000000 DUP2 MSTORE POP PUSH1 0x0 DUP1 SLOAD SWAP1 PUSH2 0x100 EXP SWAP1 DIV PUSH20 0xFFFFFFFFFFFFFFFFFFFFFFFFFFFFFFFFFFFFFFFF AND PUSH20 0xFFFFFFFFFFFFFFFFFFFFFFFFFFFFFFFFFFFFFFFF AND BALANCE PUSH2 0x3C5 JUMP JUMPDEST PUSH2 0x992 PUSH1 0x40 MLOAD DUP1 PUSH1 0x40 ADD PUSH1 0x40 MSTORE DUP1 PUSH1 0x10 DUP2 MSTORE PUSH1 0x20 ADD PUSH32 0x63757272656E74206163636F756E743A00000000000000000000000000000000 DUP2 MSTORE POP DUP4 DUP4 LT PUSH2 0xF3A JUMP JUMPDEST PUSH2 0x9D1 PUSH1 0x40 MLOAD DUP1 PUSH1 0x40 ADD PUSH1 0x40 MSTORE DUP1 PUSH1 0x10 DUP2 MSTORE PUSH1 0x20 ADD PUSH32 0x63757272656E74206163636F756E743A00000000000000000000000000000000 DUP2 MSTORE POP DUP4 PUSH2 0x3C5 JUMP JUMPDEST PUSH2 0xA27 PUSH1 0x40 MLOAD DUP1 PUSH1 0x40 ADD PUSH1 0x40 MSTORE DUP1 PUSH1 0x10 DUP2 MSTORE PUSH1 0x20 ADD PUSH32 0x63757272656E74206163636F756E743A00000000000000000000000000000000 DUP2 MSTORE POP CALLER PUSH20 0xFFFFFFFFFFFFFFFFFFFFFFFFFFFFFFFFFFFFFFFF AND BALANCE PUSH2 0x3C5 JUMP JUMPDEST DUP2 PUSH1 0x0 DUP1 SLOAD SWAP1 PUSH2 0x100 EXP SWAP1 DIV PUSH20 0xFFFFFFFFFFFFFFFFFFFFFFFFFFFFFFFFFFFFFFFF AND PUSH20 0xFFFFFFFFFFFFFFFFFFFFFFFFFFFFFFFFFFFFFFFF AND BALANCE LT ISZERO PUSH2 0xAA5 JUMPI DUP2 DUP2 PUSH1 0x40 MLOAD PUSH32 0x8C90536800000000000000000000000000000000000000000000000000000000 DUP2 MSTORE PUSH1 0x4 ADD PUSH2 0xA9C SWAP3 SWAP2 SWAP1 PUSH2 0x1987 JUMP JUMPDEST PUSH1 0x40 MLOAD DUP1 SWAP2 SUB SWAP1 REVERT JUMPDEST DUP2 PUSH1 0x1 PUSH1 0x0 CALLER PUSH20 0xFFFFFFFFFFFFFFFFFFFFFFFFFFFFFFFFFFFFFFFF AND PUSH20 0xFFFFFFFFFFFFFFFFFFFFFFFFFFFFFFFFFFFFFFFF AND DUP2 MSTORE PUSH1 0x20 ADD SWAP1 DUP2 MSTORE PUSH1 0x20 ADD PUSH1 0x0 KECCAK256 PUSH1 0x0 DUP3 DUP3 SLOAD PUSH2 0xAF4 SWAP2 SWAP1 PUSH2 0x1B06 JUMP JUMPDEST SWAP3 POP POP DUP2 SWAP1 SSTORE POP DUP2 PUSH1 0x1 PUSH1 0x0 DUP6 PUSH20 0xFFFFFFFFFFFFFFFFFFFFFFFFFFFFFFFFFFFFFFFF AND PUSH20 0xFFFFFFFFFFFFFFFFFFFFFFFFFFFFFFFFFFFFFFFF AND DUP2 MSTORE PUSH1 0x20 ADD SWAP1 DUP2 MSTORE PUSH1 0x20 ADD PUSH1 0x0 KECCAK256 PUSH1 0x0 DUP3 DUP3 SLOAD PUSH2 0xB4A SWAP2 SWAP1 PUSH2 0x1A56 JUMP JUMPDEST SWAP3 POP POP DUP2 SWAP1 SSTORE POP POP POP POP JUMP JUMPDEST PUSH1 0x60 DUP1 PUSH1 0x14 PUSH8 0xFFFFFFFFFFFFFFFF DUP2 GT ISZERO PUSH2 0xB74 JUMPI PUSH2 0xB73 PUSH2 0x1D22 JUMP JUMPDEST JUMPDEST PUSH1 0x40 MLOAD SWAP1 DUP1 DUP3 MSTORE DUP1 PUSH1 0x20 MUL PUSH1 0x20 ADD DUP3 ADD PUSH1 0x40 MSTORE DUP1 ISZERO PUSH2 0xBA2 JUMPI DUP2 PUSH1 0x20 ADD PUSH1 0x20 DUP3 MUL DUP1 CALLDATASIZE DUP4 CALLDATACOPY DUP1 DUP3 ADD SWAP2 POP POP SWAP1 POP JUMPDEST POP SWAP2 POP PUSH1 0xA PUSH8 0xFFFFFFFFFFFFFFFF DUP2 GT ISZERO PUSH2 0xBC0 JUMPI PUSH2 0xBBF PUSH2 0x1D22 JUMP JUMPDEST JUMPDEST PUSH1 0x40 MLOAD SWAP1 DUP1 DUP3 MSTORE DUP1 PUSH1 0x1F ADD PUSH1 0x1F NOT AND PUSH1 0x20 ADD DUP3 ADD PUSH1 0x40 MSTORE DUP1 ISZERO PUSH2 0xBF2 JUMPI DUP2 PUSH1 0x20 ADD PUSH1 0x1 DUP3 MUL DUP1 CALLDATASIZE DUP4 CALLDATACOPY DUP1 DUP3 ADD SWAP2 POP POP SWAP1 POP JUMPDEST POP SWAP1 POP SWAP1 SWAP2 JUMP JUMPDEST PUSH1 0x4 SLOAD DUP2 JUMP JUMPDEST PUSH1 0x0 PUSH1 0x60 PUSH1 0x0 DUP1 PUSH1 0x0 PUSH2 0xC56 PUSH1 0x40 MLOAD DUP1 PUSH1 0x40 ADD PUSH1 0x40 MSTORE DUP1 PUSH1 0xD DUP2 MSTORE PUSH1 0x20 ADD PUSH32 0x746573742064656661756C743A00000000000000000000000000000000000000 DUP2 MSTORE POP PUSH1 0x2 PUSH1 0x0 SWAP1 SLOAD SWAP1 PUSH2 0x100 EXP SWAP1 DIV PUSH1 0xFF AND PUSH2 0xF3A JUMP JUMPDEST PUSH2 0xD1F PUSH1 0x40 MLOAD DUP1 PUSH1 0x40 ADD PUSH1 0x40 MSTORE DUP1 PUSH1 0xD DUP2 MSTORE PUSH1 0x20 ADD PUSH32 0x746573742064656661756C743A00000000000000000000000000000000000000 DUP2 MSTORE POP PUSH1 0x3 DUP1 SLOAD PUSH2 0xC9C SWAP1 PUSH2 0x1BE9 JUMP JUMPDEST DUP1 PUSH1 0x1F ADD PUSH1 0x20 DUP1 SWAP2 DIV MUL PUSH1 0x20 ADD PUSH1 0x40 MLOAD SWAP1 DUP2 ADD PUSH1 0x40 MSTORE DUP1 SWAP3 SWAP2 SWAP1 DUP2 DUP2 MSTORE PUSH1 0x20 ADD DUP3 DUP1 SLOAD PUSH2 0xCC8 SWAP1 PUSH2 0x1BE9 JUMP JUMPDEST DUP1 ISZERO PUSH2 0xD15 JUMPI DUP1 PUSH1 0x1F LT PUSH2 0xCEA JUMPI PUSH2 0x100 DUP1 DUP4 SLOAD DIV MUL DUP4 MSTORE SWAP2 PUSH1 0x20 ADD SWAP2 PUSH2 0xD15 JUMP JUMPDEST DUP3 ADD SWAP2 SWAP1 PUSH1 0x0 MSTORE PUSH1 0x20 PUSH1 0x0 KECCAK256 SWAP1 JUMPDEST DUP2 SLOAD DUP2 MSTORE SWAP1 PUSH1 0x1 ADD SWAP1 PUSH1 0x20 ADD DUP1 DUP4 GT PUSH2 0xCF8 JUMPI DUP3 SWAP1 SUB PUSH1 0x1F AND DUP3 ADD SWAP2 JUMPDEST POP POP POP POP POP PUSH2 0xFD6 JUMP JUMPDEST PUSH32 0x6A837FF3973AA4181E7B9F07756F8B7EE366DD85A36655D2CB42CD47F10B9638 PUSH1 0x4 SLOAD PUSH1 0x40 MLOAD PUSH2 0xD50 SWAP2 SWAP1 PUSH2 0x193E JUMP JUMPDEST PUSH1 0x40 MLOAD DUP1 SWAP2 SUB SWAP1 LOG1 PUSH2 0xD99 PUSH1 0x40 MLOAD DUP1 PUSH1 0x40 ADD PUSH1 0x40 MSTORE DUP1 PUSH1 0xD DUP2 MSTORE PUSH1 0x20 ADD PUSH32 0x746573742064656661756C743A00000000000000000000000000000000000000 DUP2 MSTORE POP PUSH1 0x5 SLOAD PUSH2 0x3C5 JUMP JUMPDEST PUSH2 0xDFA PUSH1 0x40 MLOAD DUP1 PUSH1 0x40 ADD PUSH1 0x40 MSTORE DUP1 PUSH1 0xD DUP2 MSTORE PUSH1 0x20 ADD PUSH32 0x746573742064656661756C743A00000000000000000000000000000000000000 DUP2 MSTORE POP PUSH1 0x6 PUSH1 0x0 SWAP1 SLOAD SWAP1 PUSH2 0x100 EXP SWAP1 DIV PUSH20 0xFFFFFFFFFFFFFFFFFFFFFFFFFFFFFFFFFFFFFFFF AND PUSH2 0x1072 JUMP JUMPDEST PUSH1 0x2 PUSH1 0x0 SWAP1 SLOAD SWAP1 PUSH2 0x100 EXP SWAP1 DIV PUSH1 0xFF AND PUSH1 0x3 PUSH1 0x4 SLOAD PUSH1 0x5 SLOAD PUSH1 0x6 PUSH1 0x0 SWAP1 SLOAD SWAP1 PUSH2 0x100 EXP SWAP1 DIV PUSH20 0xFFFFFFFFFFFFFFFFFFFFFFFFFFFFFFFFFFFFFFFF AND DUP4 DUP1 SLOAD PUSH2 0xE41 SWAP1 PUSH2 0x1BE9 JUMP JUMPDEST DUP1 PUSH1 0x1F ADD PUSH1 0x20 DUP1 SWAP2 DIV MUL PUSH1 0x20 ADD PUSH1 0x40 MLOAD SWAP1 DUP2 ADD PUSH1 0x40 MSTORE DUP1 SWAP3 SWAP2 SWAP1 DUP2 DUP2 MSTORE PUSH1 0x20 ADD DUP3 DUP1 SLOAD PUSH2 0xE6D SWAP1 PUSH2 0x1BE9 JUMP JUMPDEST DUP1 ISZERO PUSH2 0xEBA JUMPI DUP1 PUSH1 0x1F LT PUSH2 0xE8F JUMPI PUSH2 0x100 DUP1 DUP4 SLOAD DIV MUL DUP4 MSTORE SWAP2 PUSH1 0x20 ADD SWAP2 PUSH2 0xEBA JUMP JUMPDEST DUP3 ADD SWAP2 SWAP1 PUSH1 0x0 MSTORE PUSH1 0x20 PUSH1 0x0 KECCAK256 SWAP1 JUMPDEST DUP2 SLOAD DUP2 MSTORE SWAP1 PUSH1 0x1 ADD SWAP1 PUSH1 0x20 ADD DUP1 DUP4 GT PUSH2 0xE9D JUMPI DUP3 SWAP1 SUB PUSH1 0x1F AND DUP3 ADD SWAP2 JUMPDEST POP POP POP POP POP SWAP4 POP SWAP5 POP SWAP5 POP SWAP5 POP SWAP5 POP SWAP5 POP SWAP1 SWAP2 SWAP3 SWAP4 SWAP5 JUMP JUMPDEST PUSH1 0x0 DUP2 PUSH20 0xFFFFFFFFFFFFFFFFFFFFFFFFFFFFFFFFFFFFFFFF AND BALANCE SWAP1 POP SWAP2 SWAP1 POP JUMP JUMPDEST PUSH1 0x0 DUP2 MLOAD SWAP1 POP PUSH1 0x0 PUSH11 0x636F6E736F6C652E6C6F67 SWAP1 POP PUSH1 0x20 DUP4 ADD PUSH1 0x0 DUP1 DUP5 DUP4 DUP6 GAS STATICCALL POP POP POP POP POP JUMP JUMPDEST PUSH1 0x60 PUSH2 0xF33 DUP3 PUSH1 0x1 PUSH2 0xF2D DUP6 PUSH2 0x110E JUMP JUMPDEST ADD PUSH2 0x119E JUMP JUMPDEST SWAP1 POP SWAP2 SWAP1 POP JUMP JUMPDEST PUSH2 0xFD2 DUP3 DUP3 PUSH1 0x40 MLOAD PUSH1 0x24 ADD PUSH2 0xF50 SWAP3 SWAP2 SWAP1 PUSH2 0x1867 JUMP JUMPDEST PUSH1 0x40 MLOAD PUSH1 0x20 DUP2 DUP4 SUB SUB DUP2 MSTORE SWAP1 PUSH1 0x40 MSTORE PUSH32 0xC3B5563500000000000000000000000000000000000000000000000000000000 PUSH28 0xFFFFFFFFFFFFFFFFFFFFFFFFFFFFFFFFFFFFFFFFFFFFFFFFFFFFFFFF NOT AND PUSH1 0x20 DUP3 ADD DUP1 MLOAD PUSH28 0xFFFFFFFFFFFFFFFFFFFFFFFFFFFFFFFFFFFFFFFFFFFFFFFFFFFFFFFF DUP4 DUP2 DUP4 AND OR DUP4 MSTORE POP POP POP POP PUSH2 0xEF3 JUMP JUMPDEST POP POP JUMP JUMPDEST PUSH2 0x106E DUP3 DUP3 PUSH1 0x40 MLOAD PUSH1 0x24 ADD PUSH2 0xFEC SWAP3 SWAP2 SWAP1 PUSH2 0x1897 JUMP JUMPDEST PUSH1 0x40 MLOAD PUSH1 0x20 DUP2 DUP4 SUB SUB DUP2 MSTORE SWAP1 PUSH1 0x40 MSTORE PUSH32 0x4B5C427700000000000000000000000000000000000000000000000000000000 PUSH28 0xFFFFFFFFFFFFFFFFFFFFFFFFFFFFFFFFFFFFFFFFFFFFFFFFFFFFFFFF NOT AND PUSH1 0x20 DUP3 ADD DUP1 MLOAD PUSH28 0xFFFFFFFFFFFFFFFFFFFFFFFFFFFFFFFFFFFFFFFFFFFFFFFFFFFFFFFF DUP4 DUP2 DUP4 AND OR DUP4 MSTORE POP POP POP POP PUSH2 0xEF3 JUMP JUMPDEST POP POP JUMP JUMPDEST PUSH2 0x110A DUP3 DUP3 PUSH1 0x40 MLOAD PUSH1 0x24 ADD PUSH2 0x1088 SWAP3 SWAP2 SWAP1 PUSH2 0x1837 JUMP JUMPDEST PUSH1 0x40 MLOAD PUSH1 0x20 DUP2 DUP4 SUB SUB DUP2 MSTORE SWAP1 PUSH1 0x40 MSTORE PUSH32 0x319AF33300000000000000000000000000000000000000000000000000000000 PUSH28 0xFFFFFFFFFFFFFFFFFFFFFFFFFFFFFFFFFFFFFFFFFFFFFFFFFFFFFFFF NOT AND PUSH1 0x20 DUP3 ADD DUP1 MLOAD PUSH28 0xFFFFFFFFFFFFFFFFFFFFFFFFFFFFFFFFFFFFFFFFFFFFFFFFFFFFFFFF DUP4 DUP2 DUP4 AND OR DUP4 MSTORE POP POP POP POP PUSH2 0xEF3 JUMP JUMPDEST POP POP JUMP JUMPDEST PUSH1 0x0 DUP1 PUSH1 0x0 SWAP1 POP PUSH1 0x0 PUSH1 0x80 DUP5 SWAP1 SHR GT ISZERO PUSH2 0x1130 JUMPI PUSH1 0x80 DUP4 SWAP1 SHR SWAP3 POP PUSH1 0x10 DUP2 ADD SWAP1 POP JUMPDEST PUSH1 0x0 PUSH1 0x40 DUP5 SWAP1 SHR GT ISZERO PUSH2 0x114B JUMPI PUSH1 0x40 DUP4 SWAP1 SHR SWAP3 POP PUSH1 0x8 DUP2 ADD SWAP1 POP JUMPDEST PUSH1 0x0 PUSH1 0x20 DUP5 SWAP1 SHR GT ISZERO PUSH2 0x1166 JUMPI PUSH1 0x20 DUP4 SWAP1 SHR SWAP3 POP PUSH1 0x4 DUP2 ADD SWAP1 POP JUMPDEST PUSH1 0x0 PUSH1 0x10 DUP5 SWAP1 SHR GT ISZERO PUSH2 0x1181 JUMPI PUSH1 0x10 DUP4 SWAP1 SHR SWAP3 POP PUSH1 0x2 DUP2 ADD SWAP1 POP JUMPDEST PUSH1 0x0 PUSH1 0x8 DUP5 SWAP1 SHR GT ISZERO PUSH2 0x1195 JUMPI PUSH1 0x1 DUP2 ADD SWAP1 POP JUMPDEST DUP1 SWAP2 POP POP SWAP2 SWAP1 POP JUMP JUMPDEST PUSH1 0x60 PUSH1 0x0 PUSH1 0x2 DUP4 PUSH1 0x2 PUSH2 0x11B1 SWAP2 SWAP1 PUSH2 0x1AAC JUMP JUMPDEST PUSH2 0x11BB SWAP2 SWAP1 PUSH2 0x1A56 JUMP JUMPDEST PUSH8 0xFFFFFFFFFFFFFFFF DUP2 GT ISZERO PUSH2 0x11D4 JUMPI PUSH2 0x11D3 PUSH2 0x1D22 JUMP JUMPDEST JUMPDEST PUSH1 0x40 MLOAD SWAP1 DUP1 DUP3 MSTORE DUP1 PUSH1 0x1F ADD PUSH1 0x1F NOT AND PUSH1 0x20 ADD DUP3 ADD PUSH1 0x40 MSTORE DUP1 ISZERO PUSH2 0x1206 JUMPI DUP2 PUSH1 0x20 ADD PUSH1 0x1 DUP3 MUL DUP1 CALLDATASIZE DUP4 CALLDATACOPY DUP1 DUP3 ADD SWAP2 POP POP SWAP1 POP JUMPDEST POP SWAP1 POP PUSH32 0x3000000000000000000000000000000000000000000000000000000000000000 DUP2 PUSH1 0x0 DUP2 MLOAD DUP2 LT PUSH2 0x123E JUMPI PUSH2 0x123D PUSH2 0x1CF3 JUMP JUMPDEST JUMPDEST PUSH1 0x20 ADD ADD SWAP1 PUSH31 0xFFFFFFFFFFFFFFFFFFFFFFFFFFFFFFFFFFFFFFFFFFFFFFFFFFFFFFFFFFFFFF NOT AND SWAP1 DUP2 PUSH1 0x0 BYTE SWAP1 MSTORE8 POP PUSH32 0x7800000000000000000000000000000000000000000000000000000000000000 DUP2 PUSH1 0x1 DUP2 MLOAD DUP2 LT PUSH2 0x12A2 JUMPI PUSH2 0x12A1 PUSH2 0x1CF3 JUMP JUMPDEST JUMPDEST PUSH1 0x20 ADD ADD SWAP1 PUSH31 0xFFFFFFFFFFFFFFFFFFFFFFFFFFFFFFFFFFFFFFFFFFFFFFFFFFFFFFFFFFFFFF NOT AND SWAP1 DUP2 PUSH1 0x0 BYTE SWAP1 MSTORE8 POP PUSH1 0x0 PUSH1 0x1 DUP5 PUSH1 0x2 PUSH2 0x12E2 SWAP2 SWAP1 PUSH2 0x1AAC JUMP JUMPDEST PUSH2 0x12EC SWAP2 SWAP1 PUSH2 0x1A56 JUMP JUMPDEST SWAP1 POP JUMPDEST PUSH1 0x1 DUP2 GT ISZERO PUSH2 0x138C JUMPI PUSH32 0x3031323334353637383961626364656600000000000000000000000000000000 PUSH1 0xF DUP7 AND PUSH1 0x10 DUP2 LT PUSH2 0x132E JUMPI PUSH2 0x132D PUSH2 0x1CF3 JUMP JUMPDEST JUMPDEST BYTE PUSH1 0xF8 SHL DUP3 DUP3 DUP2 MLOAD DUP2 LT PUSH2 0x1345 JUMPI PUSH2 0x1344 PUSH2 0x1CF3 JUMP JUMPDEST JUMPDEST PUSH1 0x20 ADD ADD SWAP1 PUSH31 0xFFFFFFFFFFFFFFFFFFFFFFFFFFFFFFFFFFFFFFFFFFFFFFFFFFFFFFFFFFFFFF NOT AND SWAP1 DUP2 PUSH1 0x0 BYTE SWAP1 MSTORE8 POP PUSH1 0x4 DUP6 SWAP1 SHR SWAP5 POP DUP1 PUSH2 0x1385 SWAP1 PUSH2 0x1BBF JUMP JUMPDEST SWAP1 POP PUSH2 0x12EF JUMP JUMPDEST POP PUSH1 0x0 DUP5 EQ PUSH2 0x13D0 JUMPI PUSH1 0x40 MLOAD PUSH32 0x8C379A000000000000000000000000000000000000000000000000000000000 DUP2 MSTORE PUSH1 0x4 ADD PUSH2 0x13C7 SWAP1 PUSH2 0x18FE JUMP JUMPDEST PUSH1 0x40 MLOAD DUP1 SWAP2 SUB SWAP1 REVERT JUMPDEST DUP1 SWAP2 POP POP SWAP3 SWAP2 POP POP JUMP JUMPDEST PUSH1 0x0 PUSH2 0x13ED PUSH2 0x13E8 DUP5 PUSH2 0x19D5 JUMP JUMPDEST PUSH2 0x19B0 JUMP JUMPDEST SWAP1 POP DUP1 DUP4 DUP3 MSTORE PUSH1 0x20 DUP3 ADD SWAP1 POP DUP3 DUP6 PUSH1 0x20 DUP7 MUL DUP3 ADD GT ISZERO PUSH2 0x1410 JUMPI PUSH2 0x140F PUSH2 0x1D56 JUMP JUMPDEST JUMPDEST PUSH1 0x0 JUMPDEST DUP6 DUP2 LT ISZERO PUSH2 0x1440 JUMPI DUP2 PUSH2 0x1426 DUP9 DUP3 PUSH2 0x148D JUMP JUMPDEST DUP5 MSTORE PUSH1 0x20 DUP5 ADD SWAP4 POP PUSH1 0x20 DUP4 ADD SWAP3 POP POP PUSH1 0x1 DUP2 ADD SWAP1 POP PUSH2 0x1413 JUMP JUMPDEST POP POP POP SWAP4 SWAP3 POP POP POP JUMP JUMPDEST PUSH1 0x0 DUP2 CALLDATALOAD SWAP1 POP PUSH2 0x1459 DUP2 PUSH2 0x1DF1 JUMP JUMPDEST SWAP3 SWAP2 POP POP JUMP JUMPDEST PUSH1 0x0 DUP3 PUSH1 0x1F DUP4 ADD SLT PUSH2 0x1474 JUMPI PUSH2 0x1473 PUSH2 0x1D51 JUMP JUMPDEST JUMPDEST DUP2 CALLDATALOAD PUSH2 0x1484 DUP5 DUP3 PUSH1 0x20 DUP7 ADD PUSH2 0x13DA JUMP JUMPDEST SWAP2 POP POP SWAP3 SWAP2 POP POP JUMP JUMPDEST PUSH1 0x0 DUP2 CALLDATALOAD SWAP1 POP PUSH2 0x149C DUP2 PUSH2 0x1E08 JUMP JUMPDEST SWAP3 SWAP2 POP POP JUMP JUMPDEST PUSH1 0x0 PUSH1 0x20 DUP3 DUP5 SUB SLT ISZERO PUSH2 0x14B8 JUMPI PUSH2 0x14B7 PUSH2 0x1D60 JUMP JUMPDEST JUMPDEST PUSH1 0x0 PUSH2 0x14C6 DUP5 DUP3 DUP6 ADD PUSH2 0x144A JUMP JUMPDEST SWAP2 POP POP SWAP3 SWAP2 POP POP JUMP JUMPDEST PUSH1 0x0 DUP1 PUSH1 0x40 DUP4 DUP6 SUB SLT ISZERO PUSH2 0x14E6 JUMPI PUSH2 0x14E5 PUSH2 0x1D60 JUMP JUMPDEST JUMPDEST PUSH1 0x0 PUSH2 0x14F4 DUP6 DUP3 DUP7 ADD PUSH2 0x144A JUMP JUMPDEST SWAP3 POP POP PUSH1 0x20 PUSH2 0x1505 DUP6 DUP3 DUP7 ADD PUSH2 0x148D JUMP JUMPDEST SWAP2 POP POP SWAP3 POP SWAP3 SWAP1 POP JUMP JUMPDEST PUSH1 0x0 PUSH1 0x20 DUP3 DUP5 SUB SLT ISZERO PUSH2 0x1525 JUMPI PUSH2 0x1524 PUSH2 0x1D60 JUMP JUMPDEST JUMPDEST PUSH1 0x0 DUP3 ADD CALLDATALOAD PUSH8 0xFFFFFFFFFFFFFFFF DUP2 GT ISZERO PUSH2 0x1543 JUMPI PUSH2 0x1542 PUSH2 0x1D5B JUMP JUMPDEST JUMPDEST PUSH2 0x154F DUP5 DUP3 DUP6 ADD PUSH2 0x145F JUMP JUMPDEST SWAP2 POP POP SWAP3 SWAP2 POP POP JUMP JUMPDEST PUSH1 0x0 PUSH1 0x20 DUP3 DUP5 SUB SLT ISZERO PUSH2 0x156E JUMPI PUSH2 0x156D PUSH2 0x1D60 JUMP JUMPDEST JUMPDEST PUSH1 0x0 PUSH2 0x157C DUP5 DUP3 DUP6 ADD PUSH2 0x148D JUMP JUMPDEST SWAP2 POP POP SWAP3 SWAP2 POP POP JUMP JUMPDEST PUSH1 0x0 PUSH2 0x1591 DUP4 DUP4 PUSH2 0x16CA JUMP JUMPDEST PUSH1 0x20 DUP4 ADD SWAP1 POP SWAP3 SWAP2 POP POP JUMP JUMPDEST PUSH2 0x15A6 DUP2 PUSH2 0x1B3A JUMP JUMPDEST DUP3 MSTORE POP POP JUMP JUMPDEST PUSH1 0x0 PUSH2 0x15B7 DUP3 PUSH2 0x1A11 JUMP JUMPDEST PUSH2 0x15C1 DUP2 DUP6 PUSH2 0x1A34 JUMP JUMPDEST SWAP4 POP PUSH2 0x15CC DUP4 PUSH2 0x1A01 JUMP JUMPDEST DUP1 PUSH1 0x0 JUMPDEST DUP4 DUP2 LT ISZERO PUSH2 0x15FD JUMPI DUP2 MLOAD PUSH2 0x15E4 DUP9 DUP3 PUSH2 0x1585 JUMP JUMPDEST SWAP8 POP PUSH2 0x15EF DUP4 PUSH2 0x1A27 JUMP JUMPDEST SWAP3 POP POP PUSH1 0x1 DUP2 ADD SWAP1 POP PUSH2 0x15D0 JUMP JUMPDEST POP DUP6 SWAP4 POP POP POP POP SWAP3 SWAP2 POP POP JUMP JUMPDEST PUSH2 0x1613 DUP2 PUSH2 0x1B4C JUMP JUMPDEST DUP3 MSTORE POP POP JUMP JUMPDEST PUSH2 0x1622 DUP2 PUSH2 0x1B58 JUMP JUMPDEST DUP3 MSTORE POP POP JUMP JUMPDEST PUSH1 0x0 PUSH2 0x1633 DUP3 PUSH2 0x1A1C JUMP JUMPDEST PUSH2 0x163D DUP2 DUP6 PUSH2 0x1A45 JUMP JUMPDEST SWAP4 POP PUSH2 0x164D DUP2 DUP6 PUSH1 0x20 DUP7 ADD PUSH2 0x1B8C JUMP JUMPDEST PUSH2 0x1656 DUP2 PUSH2 0x1D65 JUMP JUMPDEST DUP5 ADD SWAP2 POP POP SWAP3 SWAP2 POP POP JUMP JUMPDEST PUSH1 0x0 PUSH2 0x166E PUSH1 0x20 DUP4 PUSH2 0x1A45 JUMP JUMPDEST SWAP2 POP PUSH2 0x1679 DUP3 PUSH2 0x1D76 JUMP JUMPDEST PUSH1 0x20 DUP3 ADD SWAP1 POP SWAP2 SWAP1 POP JUMP JUMPDEST PUSH1 0x0 PUSH2 0x1691 PUSH1 0x13 DUP4 PUSH2 0x1A45 JUMP JUMPDEST SWAP2 POP PUSH2 0x169C DUP3 PUSH2 0x1D9F JUMP JUMPDEST PUSH1 0x20 DUP3 ADD SWAP1 POP SWAP2 SWAP1 POP JUMP JUMPDEST PUSH1 0x0 PUSH2 0x16B4 PUSH1 0xD DUP4 PUSH2 0x1A45 JUMP JUMPDEST SWAP2 POP PUSH2 0x16BF DUP3 PUSH2 0x1DC8 JUMP JUMPDEST PUSH1 0x20 DUP3 ADD SWAP1 POP SWAP2 SWAP1 POP JUMP JUMPDEST PUSH2 0x16D3 DUP2 PUSH2 0x1B82 JUMP JUMPDEST DUP3 MSTORE POP POP JUMP JUMPDEST PUSH2 0x16E2 DUP2 PUSH2 0x1B82 JUMP JUMPDEST DUP3 MSTORE POP POP JUMP JUMPDEST PUSH1 0x0 PUSH1 0x20 DUP3 ADD SWAP1 POP PUSH2 0x16FD PUSH1 0x0 DUP4 ADD DUP5 PUSH2 0x159D JUMP JUMPDEST SWAP3 SWAP2 POP POP JUMP JUMPDEST PUSH1 0x0 PUSH1 0x40 DUP3 ADD SWAP1 POP PUSH2 0x1718 PUSH1 0x0 DUP4 ADD DUP6 PUSH2 0x159D JUMP JUMPDEST PUSH2 0x1725 PUSH1 0x20 DUP4 ADD DUP5 PUSH2 0x16D9 JUMP JUMPDEST SWAP4 SWAP3 POP POP POP JUMP JUMPDEST PUSH1 0x0 PUSH1 0x20 DUP3 ADD SWAP1 POP DUP2 DUP2 SUB PUSH1 0x0 DUP4 ADD MSTORE PUSH2 0x1746 DUP2 DUP5 PUSH2 0x15AC JUMP JUMPDEST SWAP1 POP SWAP3 SWAP2 POP POP JUMP JUMPDEST PUSH1 0x0 PUSH1 0x40 DUP3 ADD SWAP1 POP DUP2 DUP2 SUB PUSH1 0x0 DUP4 ADD MSTORE PUSH2 0x1768 DUP2 DUP6 PUSH2 0x15AC JUMP JUMPDEST SWAP1 POP DUP2 DUP2 SUB PUSH1 0x20 DUP4 ADD MSTORE PUSH2 0x177C DUP2 DUP5 PUSH2 0x1628 JUMP JUMPDEST SWAP1 POP SWAP4 SWAP3 POP POP POP JUMP JUMPDEST PUSH1 0x0 PUSH1 0x20 DUP3 ADD SWAP1 POP PUSH2 0x179A PUSH1 0x0 DUP4 ADD DUP5 PUSH2 0x160A JUMP JUMPDEST SWAP3 SWAP2 POP POP JUMP JUMPDEST PUSH1 0x0 PUSH1 0xA0 DUP3 ADD SWAP1 POP PUSH2 0x17B5 PUSH1 0x0 DUP4 ADD DUP9 PUSH2 0x160A JUMP JUMPDEST DUP2 DUP2 SUB PUSH1 0x20 DUP4 ADD MSTORE PUSH2 0x17C7 DUP2 DUP8 PUSH2 0x1628 JUMP JUMPDEST SWAP1 POP PUSH2 0x17D6 PUSH1 0x40 DUP4 ADD DUP7 PUSH2 0x1619 JUMP JUMPDEST PUSH2 0x17E3 PUSH1 0x60 DUP4 ADD DUP6 PUSH2 0x16D9 JUMP JUMPDEST PUSH2 0x17F0 PUSH1 0x80 DUP4 ADD DUP5 PUSH2 0x159D JUMP JUMPDEST SWAP7 SWAP6 POP POP POP POP POP POP JUMP JUMPDEST PUSH1 0x0 PUSH1 0x20 DUP3 ADD SWAP1 POP PUSH2 0x180F PUSH1 0x0 DUP4 ADD DUP5 PUSH2 0x1619 JUMP JUMPDEST SWAP3 SWAP2 POP POP JUMP JUMPDEST PUSH1 0x0 PUSH1 0x20 DUP3 ADD SWAP1 POP DUP2 DUP2 SUB PUSH1 0x0 DUP4 ADD MSTORE PUSH2 0x182F DUP2 DUP5 PUSH2 0x1628 JUMP JUMPDEST SWAP1 POP SWAP3 SWAP2 POP POP JUMP JUMPDEST PUSH1 0x0 PUSH1 0x40 DUP3 ADD SWAP1 POP DUP2 DUP2 SUB PUSH1 0x0 DUP4 ADD MSTORE PUSH2 0x1851 DUP2 DUP6 PUSH2 0x1628 JUMP JUMPDEST SWAP1 POP PUSH2 0x1860 PUSH1 0x20 DUP4 ADD DUP5 PUSH2 0x159D JUMP JUMPDEST SWAP4 SWAP3 POP POP POP JUMP JUMPDEST PUSH1 0x0 PUSH1 0x40 DUP3 ADD SWAP1 POP DUP2 DUP2 SUB PUSH1 0x0 DUP4 ADD MSTORE PUSH2 0x1881 DUP2 DUP6 PUSH2 0x1628 JUMP JUMPDEST SWAP1 POP PUSH2 0x1890 PUSH1 0x20 DUP4 ADD DUP5 PUSH2 0x160A JUMP JUMPDEST SWAP4 SWAP3 POP POP POP JUMP JUMPDEST PUSH1 0x0 PUSH1 0x40 DUP3 ADD SWAP1 POP DUP2 DUP2 SUB PUSH1 0x0 DUP4 ADD MSTORE PUSH2 0x18B1 DUP2 DUP6 PUSH2 0x1628 JUMP JUMPDEST SWAP1 POP DUP2 DUP2 SUB PUSH1 0x20 DUP4 ADD MSTORE PUSH2 0x18C5 DUP2 DUP5 PUSH2 0x1628 JUMP JUMPDEST SWAP1 POP SWAP4 SWAP3 POP POP POP JUMP JUMPDEST PUSH1 0x0 PUSH1 0x40 DUP3 ADD SWAP1 POP DUP2 DUP2 SUB PUSH1 0x0 DUP4 ADD MSTORE PUSH2 0x18E8 DUP2 DUP6 PUSH2 0x1628 JUMP JUMPDEST SWAP1 POP PUSH2 0x18F7 PUSH1 0x20 DUP4 ADD DUP5 PUSH2 0x16D9 JUMP JUMPDEST SWAP4 SWAP3 POP POP POP JUMP JUMPDEST PUSH1 0x0 PUSH1 0x20 DUP3 ADD SWAP1 POP DUP2 DUP2 SUB PUSH1 0x0 DUP4 ADD MSTORE PUSH2 0x1917 DUP2 PUSH2 0x1661 JUMP JUMPDEST SWAP1 POP SWAP2 SWAP1 POP JUMP JUMPDEST PUSH1 0x0 PUSH1 0x20 DUP3 ADD SWAP1 POP DUP2 DUP2 SUB PUSH1 0x0 DUP4 ADD MSTORE PUSH2 0x1937 DUP2 PUSH2 0x1684 JUMP JUMPDEST SWAP1 POP SWAP2 SWAP1 POP JUMP JUMPDEST PUSH1 0x0 PUSH1 0x40 DUP3 ADD SWAP1 POP DUP2 DUP2 SUB PUSH1 0x0 DUP4 ADD MSTORE PUSH2 0x1957 DUP2 PUSH2 0x16A7 JUMP JUMPDEST SWAP1 POP PUSH2 0x1966 PUSH1 0x20 DUP4 ADD DUP5 PUSH2 0x1619 JUMP JUMPDEST SWAP3 SWAP2 POP POP JUMP JUMPDEST PUSH1 0x0 PUSH1 0x20 DUP3 ADD SWAP1 POP PUSH2 0x1981 PUSH1 0x0 DUP4 ADD DUP5 PUSH2 0x16D9 JUMP JUMPDEST SWAP3 SWAP2 POP POP JUMP JUMPDEST PUSH1 0x0 PUSH1 0x40 DUP3 ADD SWAP1 POP PUSH2 0x199C PUSH1 0x0 DUP4 ADD DUP6 PUSH2 0x16D9 JUMP JUMPDEST PUSH2 0x19A9 PUSH1 0x20 DUP4 ADD DUP5 PUSH2 0x16D9 JUMP JUMPDEST SWAP4 SWAP3 POP POP POP JUMP JUMPDEST PUSH1 0x0 PUSH2 0x19BA PUSH2 0x19CB JUMP JUMPDEST SWAP1 POP PUSH2 0x19C6 DUP3 DUP3 PUSH2 0x1C1B JUMP JUMPDEST SWAP2 SWAP1 POP JUMP JUMPDEST PUSH1 0x0 PUSH1 0x40 MLOAD SWAP1 POP SWAP1 JUMP JUMPDEST PUSH1 0x0 PUSH8 0xFFFFFFFFFFFFFFFF DUP3 GT ISZERO PUSH2 0x19F0 JUMPI PUSH2 0x19EF PUSH2 0x1D22 JUMP JUMPDEST JUMPDEST PUSH1 0x20 DUP3 MUL SWAP1 POP PUSH1 0x20 DUP2 ADD SWAP1 POP SWAP2 SWAP1 POP JUMP JUMPDEST PUSH1 0x0 DUP2 SWAP1 POP PUSH1 0x20 DUP3 ADD SWAP1 POP SWAP2 SWAP1 POP JUMP JUMPDEST PUSH1 0x0 DUP2 MLOAD SWAP1 POP SWAP2 SWAP1 POP JUMP JUMPDEST PUSH1 0x0 DUP2 MLOAD SWAP1 POP SWAP2 SWAP1 POP JUMP JUMPDEST PUSH1 0x0 PUSH1 0x20 DUP3 ADD SWAP1 POP SWAP2 SWAP1 POP JUMP JUMPDEST PUSH1 0x0 DUP3 DUP3 MSTORE PUSH1 0x20 DUP3 ADD SWAP1 POP SWAP3 SWAP2 POP POP JUMP JUMPDEST PUSH1 0x0 DUP3 DUP3 MSTORE PUSH1 0x20 DUP3 ADD SWAP1 POP SWAP3 SWAP2 POP POP JUMP JUMPDEST PUSH1 0x0 PUSH2 0x1A61 DUP3 PUSH2 0x1B82 JUMP JUMPDEST SWAP2 POP PUSH2 0x1A6C DUP4 PUSH2 0x1B82 JUMP JUMPDEST SWAP3 POP DUP3 PUSH32 0xFFFFFFFFFFFFFFFFFFFFFFFFFFFFFFFFFFFFFFFFFFFFFFFFFFFFFFFFFFFFFFFF SUB DUP3 GT ISZERO PUSH2 0x1AA1 JUMPI PUSH2 0x1AA0 PUSH2 0x1C95 JUMP JUMPDEST JUMPDEST DUP3 DUP3 ADD SWAP1 POP SWAP3 SWAP2 POP POP JUMP JUMPDEST PUSH1 0x0 PUSH2 0x1AB7 DUP3 PUSH2 0x1B82 JUMP JUMPDEST SWAP2 POP PUSH2 0x1AC2 DUP4 PUSH2 0x1B82 JUMP JUMPDEST SWAP3 POP DUP2 PUSH32 0xFFFFFFFFFFFFFFFFFFFFFFFFFFFFFFFFFFFFFFFFFFFFFFFFFFFFFFFFFFFFFFFF DIV DUP4 GT DUP3 ISZERO ISZERO AND ISZERO PUSH2 0x1AFB JUMPI PUSH2 0x1AFA PUSH2 0x1C95 JUMP JUMPDEST JUMPDEST DUP3 DUP3 MUL SWAP1 POP SWAP3 SWAP2 POP POP JUMP JUMPDEST PUSH1 0x0 PUSH2 0x1B11 DUP3 PUSH2 0x1B82 JUMP JUMPDEST SWAP2 POP PUSH2 0x1B1C DUP4 PUSH2 0x1B82 JUMP JUMPDEST SWAP3 POP DUP3 DUP3 LT ISZERO PUSH2 0x1B2F JUMPI PUSH2 0x1B2E PUSH2 0x1C95 JUMP JUMPDEST JUMPDEST DUP3 DUP3 SUB SWAP1 POP SWAP3 SWAP2 POP POP JUMP JUMPDEST PUSH1 0x0 PUSH2 0x1B45 DUP3 PUSH2 0x1B62 JUMP JUMPDEST SWAP1 POP SWAP2 SWAP1 POP JUMP JUMPDEST PUSH1 0x0 DUP2 ISZERO ISZERO SWAP1 POP SWAP2 SWAP1 POP JUMP JUMPDEST PUSH1 0x0 DUP2 SWAP1 POP SWAP2 SWAP1 POP JUMP JUMPDEST PUSH1 0x0 PUSH20 0xFFFFFFFFFFFFFFFFFFFFFFFFFFFFFFFFFFFFFFFF DUP3 AND SWAP1 POP SWAP2 SWAP1 POP JUMP JUMPDEST PUSH1 0x0 DUP2 SWAP1 POP SWAP2 SWAP1 POP JUMP JUMPDEST PUSH1 0x0 JUMPDEST DUP4 DUP2 LT ISZERO PUSH2 0x1BAA JUMPI DUP1 DUP3 ADD MLOAD DUP2 DUP5 ADD MSTORE PUSH1 0x20 DUP2 ADD SWAP1 POP PUSH2 0x1B8F JUMP JUMPDEST DUP4 DUP2 GT ISZERO PUSH2 0x1BB9 JUMPI PUSH1 0x0 DUP5 DUP5 ADD MSTORE JUMPDEST POP POP POP POP JUMP JUMPDEST PUSH1 0x0 PUSH2 0x1BCA DUP3 PUSH2 0x1B82 JUMP JUMPDEST SWAP2 POP PUSH1 0x0 DUP3 EQ ISZERO PUSH2 0x1BDE JUMPI PUSH2 0x1BDD PUSH2 0x1C95 JUMP JUMPDEST JUMPDEST PUSH1 0x1 DUP3 SUB SWAP1 POP SWAP2 SWAP1 POP JUMP JUMPDEST PUSH1 0x0 PUSH1 0x2 DUP3 DIV SWAP1 POP PUSH1 0x1 DUP3 AND DUP1 PUSH2 0x1C01 JUMPI PUSH1 0x7F DUP3 AND SWAP2 POP JUMPDEST PUSH1 0x20 DUP3 LT DUP2 EQ ISZERO PUSH2 0x1C15 JUMPI PUSH2 0x1C14 PUSH2 0x1CC4 JUMP JUMPDEST JUMPDEST POP SWAP2 SWAP1 POP JUMP JUMPDEST PUSH2 0x1C24 DUP3 PUSH2 0x1D65 JUMP JUMPDEST DUP2 ADD DUP2 DUP2 LT PUSH8 0xFFFFFFFFFFFFFFFF DUP3 GT OR ISZERO PUSH2 0x1C43 JUMPI PUSH2 0x1C42 PUSH2 0x1D22 JUMP JUMPDEST JUMPDEST DUP1 PUSH1 0x40 MSTORE POP POP POP JUMP JUMPDEST PUSH1 0x0 PUSH2 0x1C57 DUP3 PUSH2 0x1B82 JUMP JUMPDEST SWAP2 POP PUSH32 0xFFFFFFFFFFFFFFFFFFFFFFFFFFFFFFFFFFFFFFFFFFFFFFFFFFFFFFFFFFFFFFFF DUP3 EQ ISZERO PUSH2 0x1C8A JUMPI PUSH2 0x1C89 PUSH2 0x1C95 JUMP JUMPDEST JUMPDEST PUSH1 0x1 DUP3 ADD SWAP1 POP SWAP2 SWAP1 POP JUMP JUMPDEST PUSH32 0x4E487B7100000000000000000000000000000000000000000000000000000000 PUSH1 0x0 MSTORE PUSH1 0x11 PUSH1 0x4 MSTORE PUSH1 0x24 PUSH1 0x0 REVERT JUMPDEST PUSH32 0x4E487B7100000000000000000000000000000000000000000000000000000000 PUSH1 0x0 MSTORE PUSH1 0x22 PUSH1 0x4 MSTORE PUSH1 0x24 PUSH1 0x0 REVERT JUMPDEST PUSH32 0x4E487B7100000000000000000000000000000000000000000000000000000000 PUSH1 0x0 MSTORE PUSH1 0x32 PUSH1 0x4 MSTORE PUSH1 0x24 PUSH1 0x0 REVERT JUMPDEST PUSH32 0x4E487B7100000000000000000000000000000000000000000000000000000000 PUSH1 0x0 MSTORE PUSH1 0x41 PUSH1 0x4 MSTORE PUSH1 0x24 PUSH1 0x0 REVERT JUMPDEST PUSH1 0x0 DUP1 REVERT JUMPDEST PUSH1 0x0 DUP1 REVERT JUMPDEST PUSH1 0x0 DUP1 REVERT JUMPDEST PUSH1 0x0 DUP1 REVERT JUMPDEST PUSH1 0x0 PUSH1 0x1F NOT PUSH1 0x1F DUP4 ADD AND SWAP1 POP SWAP2 SWAP1 POP JUMP JUMPDEST PUSH32 0x537472696E67733A20686578206C656E67746820696E73756666696369656E74 PUSH1 0x0 DUP3 ADD MSTORE POP JUMP JUMPDEST PUSH32 0x43616C6C6572206973206E6F74206F776E657200000000000000000000000000 PUSH1 0x0 DUP3 ADD MSTORE POP JUMP JUMPDEST PUSH32 0x746573742064656661756C743A00000000000000000000000000000000000000 PUSH1 0x0 DUP3 ADD MSTORE POP JUMP JUMPDEST PUSH2 0x1DFA DUP2 PUSH2 0x1B3A JUMP JUMPDEST DUP2 EQ PUSH2 0x1E05 JUMPI PUSH1 0x0 DUP1 REVERT JUMPDEST POP JUMP JUMPDEST PUSH2 0x1E11 DUP2 PUSH2 0x1B82 JUMP JUMPDEST DUP2 EQ PUSH2 0x1E1C JUMPI PUSH1 0x0 DUP1 REVERT JUMPDEST POP JUMP INVALID LOG2 PUSH5 0x6970667358 0x22 SLT KECCAK256 EXTCODESIZE 0xBB SMOD 0xE6 LOG3 ADDRESS 0xCF ADDMOD STOP PUSH28 0xECC1CC8AF25F7EB8F66EA8B946A86009197C0FF1807D64736F6C6343 STOP ADDMOD SMOD STOP CALLER "
		},
		"gasEstimates": {
			"creation": {
				"codeDepositCost": "1553000",
				"executionCost": "25890",
				"totalCost": "1578890"
			},
			"external": {
				"adr()": "2515",
				"bo()": "2516",
				"getBalance(address)": "3345",
				"getDefaultValue()": "infinite",
				"i()": "2473",
				"pay(address,uint256)": "infinite",
				"str()": "infinite",
				"testArray()": "infinite",
				"testArray2()": "infinite",
				"testIn(uint256[])": "infinite",
				"testInsert(uint256[])": "infinite",
				"testLibFuc(uint256)": "infinite",
				"ui()": "2518"
			},
			"internal": {
				"log(string memory,int256)": "infinite"
			}
		},
		"methodIdentifiers": {
			"adr()": "0aca7f95",
			"bo()": "500d6847",
			"getBalance(address)": "f8b2cb4f",
			"getDefaultValue()": "ecdb5d10",
			"i()": "e5aa3d58",
			"pay(address,uint256)": "c4076876",
			"str()": "c15bae84",
			"testArray()": "2283bffd",
			"testArray2()": "c7f33d36",
			"testIn(uint256[])": "a736652a",
			"testInsert(uint256[])": "9e6b15e0",
			"testLibFuc(uint256)": "adb576af",
			"ui()": "a223e05d"
		}
	},
	"abi": [
		{
			"inputs": [],
			"stateMutability": "nonpayable",
			"type": "constructor"
		},
		{
			"inputs": [
				{
					"internalType": "uint256",
					"name": "payMount",
					"type": "uint256"
				},
				{
					"internalType": "uint256",
					"name": "amount",
					"type": "uint256"
				}
			],
			"name": "NotEnoughFunds",
			"type": "error"
		},
		{
			"anonymous": false,
			"inputs": [
				{
					"indexed": false,
					"internalType": "string",
					"name": "",
					"type": "string"
				},
				{
					"indexed": false,
					"internalType": "int256",
					"name": "",
					"type": "int256"
				}
			],
			"name": "LogInt",
			"type": "event"
		},
		{
			"anonymous": false,
			"inputs": [
				{
					"indexed": false,
					"internalType": "address",
					"name": "Sender",
					"type": "address"
				},
				{
					"indexed": false,
					"internalType": "uint256",
					"name": "Value",
					"type": "uint256"
				}
			],
			"name": "Received",
			"type": "event"
		},
		{
			"inputs": [],
			"name": "adr",
			"outputs": [
				{
					"internalType": "address",
					"name": "",
					"type": "address"
				}
			],
			"stateMutability": "view",
			"type": "function"
		},
		{
			"inputs": [],
			"name": "bo",
			"outputs": [
				{
					"internalType": "bool",
					"name": "",
					"type": "bool"
				}
			],
			"stateMutability": "view",
			"type": "function"
		},
		{
			"inputs": [
				{
					"internalType": "address",
					"name": "add",
					"type": "address"
				}
			],
			"name": "getBalance",
			"outputs": [
				{
					"internalType": "uint256",
					"name": "",
					"type": "uint256"
				}
			],
			"stateMutability": "view",
			"type": "function"
		},
		{
			"inputs": [],
			"name": "getDefaultValue",
			"outputs": [
				{
					"internalType": "bool",
					"name": "",
					"type": "bool"
				},
				{
					"internalType": "string",
					"name": "",
					"type": "string"
				},
				{
					"internalType": "int256",
					"name": "",
					"type": "int256"
				},
				{
					"internalType": "uint256",
					"name": "",
					"type": "uint256"
				},
				{
					"internalType": "address",
					"name": "",
					"type": "address"
				}
			],
			"stateMutability": "nonpayable",
			"type": "function"
		},
		{
			"inputs": [],
			"name": "i",
			"outputs": [
				{
					"internalType": "int256",
					"name": "",
					"type": "int256"
				}
			],
			"stateMutability": "view",
			"type": "function"
		},
		{
			"inputs": [
				{
					"internalType": "address",
					"name": "reviceAdd",
					"type": "address"
				},
				{
					"internalType": "uint256",
					"name": "payAmount",
					"type": "uint256"
				}
			],
			"name": "pay",
			"outputs": [],
			"stateMutability": "nonpayable",
			"type": "function"
		},
		{
			"inputs": [],
			"name": "str",
			"outputs": [
				{
					"internalType": "string",
					"name": "",
					"type": "string"
				}
			],
			"stateMutability": "view",
			"type": "function"
		},
		{
			"inputs": [],
			"name": "testArray",
			"outputs": [
				{
					"internalType": "uint256[]",
					"name": "",
					"type": "uint256[]"
				},
				{
					"internalType": "string",
					"name": "",
					"type": "string"
				}
			],
			"stateMutability": "pure",
			"type": "function"
		},
		{
			"inputs": [],
			"name": "testArray2",
			"outputs": [
				{
					"internalType": "uint256[]",
					"name": "array1",
					"type": "uint256[]"
				},
				{
					"internalType": "string",
					"name": "array2",
					"type": "string"
				}
			],
			"stateMutability": "pure",
			"type": "function"
		},
		{
			"inputs": [
				{
					"internalType": "uint256[]",
					"name": "num",
					"type": "uint256[]"
				}
			],
			"name": "testIn",
			"outputs": [
				{
					"internalType": "uint256[]",
					"name": "",
					"type": "uint256[]"
				}
			],
			"stateMutability": "pure",
			"type": "function"
		},
		{
			"inputs": [
				{
					"internalType": "uint256[]",
					"name": "array",
					"type": "uint256[]"
				}
			],
			"name": "testInsert",
			"outputs": [
				{
					"internalType": "uint256[]",
					"name": "",
					"type": "uint256[]"
				}
			],
			"stateMutability": "pure",
			"type": "function"
		},
		{
			"inputs": [
				{
					"internalType": "uint256",
					"name": "num",
					"type": "uint256"
				}
			],
			"name": "testLibFuc",
			"outputs": [
				{
					"internalType": "string",
					"name": "",
					"type": "string"
				}
			],
			"stateMutability": "pure",
			"type": "function"
		},
		{
			"inputs": [],
			"name": "ui",
			"outputs": [
				{
					"internalType": "uint256",
					"name": "",
					"type": "uint256"
				}
			],
			"stateMutability": "view",
			"type": "function"
		},
		{
			"stateMutability": "payable",
			"type": "receive"
		}
	]
}