{
	"data": {
		"bytecode": {
			"linkReferences": {},
			"object": "60806040523480156200001157600080fd5b5060405180606001604052806036815260200162003679603691396200003d816200004460201b60201c565b50620003ba565b8060029081620000559190620002d3565b5050565b600081519050919050565b7f4e487b7100000000000000000000000000000000000000000000000000000000600052604160045260246000fd5b7f4e487b7100000000000000000000000000000000000000000000000000000000600052602260045260246000fd5b60006002820490506001821680620000db57607f821691505b602082108103620000f157620000f062000093565b5b50919050565b60008190508160005260206000209050919050565b60006020601f8301049050919050565b600082821b905092915050565b6000600883026200015b7fffffffffffffffffffffffffffffffffffffffffffffffffffffffffffffffff826200011c565b6200016786836200011c565b95508019841693508086168417925050509392505050565b6000819050919050565b6000819050919050565b6000620001b4620001ae620001a8846200017f565b62000189565b6200017f565b9050919050565b6000819050919050565b620001d08362000193565b620001e8620001df82620001bb565b84845462000129565b825550505050565b600090565b620001ff620001f0565b6200020c818484620001c5565b505050565b5b81811015620002345762000228600082620001f5565b60018101905062000212565b5050565b601f82111562000283576200024d81620000f7565b62000258846200010c565b8101602085101562000268578190505b6200028062000277856200010c565b83018262000211565b50505b505050565b600082821c905092915050565b6000620002a86000198460080262000288565b1980831691505092915050565b6000620002c3838362000295565b9150826002028217905092915050565b620002de8262000059565b67ffffffffffffffff811115620002fa57620002f962000064565b5b620003068254620000c2565b6200031382828562000238565b600060209050601f8311600181146200034b576000841562000336578287015190505b620003428582620002b5565b865550620003b2565b601f1984166200035b86620000f7565b60005b8281101562000385578489015182556001820191506020850194506020810190506200035e565b86831015620003a55784890151620003a1601f89168262000295565b8355505b6001600288020188555050505b505050505050565b6132af80620003ca6000396000f3fe608060405234801561001057600080fd5b50600436106100a85760003560e01c80632eb2c2d6116100715780632eb2c2d6146101895780634e1273f4146101a5578063a22cb465146101d5578063d81d0a15146101f1578063e985e9c51461020d578063f242432a1461023d576100a8565b8062fdd58e146100ad57806301ffc9a7146100dd5780630e89341c1461010d578063156e29f61461013d57806328c8168314610159575b600080fd5b6100c760048036038101906100c29190611bdd565b610259565b6040516100d49190611c2c565b60405180910390f35b6100f760048036038101906100f29190611c9f565b610321565b6040516101049190611ce7565b60405180910390f35b61012760048036038101906101229190611d02565b610403565b6040516101349190611dbf565b60405180910390f35b61015760048036038101906101529190611de1565b610497565b005b610173600480360381019061016e9190611d02565b61050c565b6040516101809190611dbf565b60405180910390f35b6101a3600480360381019061019e9190612031565b61057c565b005b6101bf60048036038101906101ba91906121c3565b61061d565b6040516101cc91906122f9565b60405180910390f35b6101ef60048036038101906101ea9190612347565b610736565b005b61020b60048036038101906102069190612387565b61074c565b005b61022760048036038101906102229190612412565b6107fb565b6040516102349190611ce7565b60405180910390f35b61025760048036038101906102529190612452565b61088f565b005b60008073ffffffffffffffffffffffffffffffffffffffff168373ffffffffffffffffffffffffffffffffffffffff16036102c9576040517f08c379a00000000000000000000000000000000000000000000000000000000081526004016102c09061255b565b60405180910390fd5b60008083815260200190815260200160002060008473ffffffffffffffffffffffffffffffffffffffff1673ffffffffffffffffffffffffffffffffffffffff16815260200190815260200160002054905092915050565b60007fd9b67a26000000000000000000000000000000000000000000000000000000007bffffffffffffffffffffffffffffffffffffffffffffffffffffffff1916827bffffffffffffffffffffffffffffffffffffffffffffffffffffffff191614806103ec57507f0e89341c000000000000000000000000000000000000000000000000000000007bffffffffffffffffffffffffffffffffffffffffffffffffffffffff1916827bffffffffffffffffffffffffffffffffffffffffffffffffffffffff1916145b806103fc57506103fb82610930565b5b9050919050565b606060028054610412906125aa565b80601f016020809104026020016040519081016040528092919081815260200182805461043e906125aa565b801561048b5780601f106104605761010080835404028352916020019161048b565b820191906000526020600020905b81548152906001019060200180831161046e57829003601f168201915b50505050509050919050565b61271082106104db576040517f08c379a00000000000000000000000000000000000000000000000000000000081526004016104d290612627565b60405180910390fd5b6104ec6104e78361050c565b61099a565b610507838383604051806020016040528060008152506109ad565b505050565b6060600060405180606001604052806036815260200161324460369139905060008151116105495760405180602001604052806000815250610574565b8061055384610b5d565b604051602001610564929190612683565b6040516020818303038152906040525b915050919050565b610584610c2b565b73ffffffffffffffffffffffffffffffffffffffff168573ffffffffffffffffffffffffffffffffffffffff1614806105ca57506105c9856105c4610c2b565b6107fb565b5b610609576040517f08c379a000000000000000000000000000000000000000000000000000000000815260040161060090612719565b60405180910390fd5b6106168585858585610c33565b5050505050565b60608151835114610663576040517f08c379a000000000000000000000000000000000000000000000000000000000815260040161065a906127ab565b60405180910390fd5b6000835167ffffffffffffffff8111156106805761067f611e39565b5b6040519080825280602002602001820160405280156106ae5781602001602082028036833780820191505090505b50905060005b845181101561072b576106fb8582815181106106d3576106d26127cb565b5b60200260200101518583815181106106ee576106ed6127cb565b5b6020026020010151610259565b82828151811061070e5761070d6127cb565b5b6020026020010181815250508061072490612829565b90506106b4565b508091505092915050565b610748610741610c2b565b8383610f54565b5050565b60005b82518110156107da5761271083828151811061076e5761076d6127cb565b5b6020026020010151106107b6576040517f08c379a00000000000000000000000000000000000000000000000000000000081526004016107ad906128bd565b60405180910390fd5b6107c76107c28261050c565b61099a565b80806107d290612829565b91505061074f565b506107f6838383604051806020016040528060008152506110c0565b505050565b6000600160008473ffffffffffffffffffffffffffffffffffffffff1673ffffffffffffffffffffffffffffffffffffffff16815260200190815260200160002060008373ffffffffffffffffffffffffffffffffffffffff1673ffffffffffffffffffffffffffffffffffffffff16815260200190815260200160002060009054906101000a900460ff16905092915050565b610897610c2b565b73ffffffffffffffffffffffffffffffffffffffff168573ffffffffffffffffffffffffffffffffffffffff1614806108dd57506108dc856108d7610c2b565b6107fb565b5b61091c576040517f08c379a000000000000000000000000000000000000000000000000000000000815260040161091390612719565b60405180910390fd5b61092985858585856112ec565b5050505050565b60007f01ffc9a7000000000000000000000000000000000000000000000000000000007bffffffffffffffffffffffffffffffffffffffffffffffffffffffff1916827bffffffffffffffffffffffffffffffffffffffffffffffffffffffff1916149050919050565b80600290816109a99190612a89565b5050565b600073ffffffffffffffffffffffffffffffffffffffff168473ffffffffffffffffffffffffffffffffffffffff1603610a1c576040517f08c379a0000000000000000000000000000000000000000000000000000000008152600401610a1390612bcd565b60405180910390fd5b6000610a26610c2b565b90506000610a3385611587565b90506000610a4085611587565b9050610a5183600089858589611601565b8460008088815260200190815260200160002060008973ffffffffffffffffffffffffffffffffffffffff1673ffffffffffffffffffffffffffffffffffffffff1681526020019081526020016000206000828254610ab09190612bed565b925050819055508673ffffffffffffffffffffffffffffffffffffffff16600073ffffffffffffffffffffffffffffffffffffffff168473ffffffffffffffffffffffffffffffffffffffff167fc3d58168c5ae7397731d063d5bbf3d657854427343f4c083240f7aacaa2d0f628989604051610b2e929190612c21565b60405180910390a4610b4583600089858589611609565b610b5483600089898989611611565b50505050505050565b606060006001610b6c846117e8565b01905060008167ffffffffffffffff811115610b8b57610b8a611e39565b5b6040519080825280601f01601f191660200182016040528015610bbd5781602001600182028036833780820191505090505b509050600082602001820190505b600115610c20578080600190039150507f3031323334353637383961626364656600000000000000000000000000000000600a86061a8153600a8581610c1457610c13612c4a565b5b04945060008503610bcb575b819350505050919050565b600033905090565b8151835114610c77576040517f08c379a0000000000000000000000000000000000000000000000000000000008152600401610c6e90612ceb565b60405180910390fd5b600073ffffffffffffffffffffffffffffffffffffffff168473ffffffffffffffffffffffffffffffffffffffff1603610ce6576040517f08c379a0000000000000000000000000000000000000000000000000000000008152600401610cdd90612d7d565b60405180910390fd5b6000610cf0610c2b565b9050610d00818787878787611601565b60005b8451811015610eb1576000858281518110610d2157610d206127cb565b5b602002602001015190506000858381518110610d4057610d3f6127cb565b5b60200260200101519050600080600084815260200190815260200160002060008b73ffffffffffffffffffffffffffffffffffffffff1673ffffffffffffffffffffffffffffffffffffffff16815260200190815260200160002054905081811015610de1576040517f08c379a0000000000000000000000000000000000000000000000000000000008152600401610dd890612e0f565b60405180910390fd5b81810360008085815260200190815260200160002060008c73ffffffffffffffffffffffffffffffffffffffff1673ffffffffffffffffffffffffffffffffffffffff168152602001908152602001600020819055508160008085815260200190815260200160002060008b73ffffffffffffffffffffffffffffffffffffffff1673ffffffffffffffffffffffffffffffffffffffff1681526020019081526020016000206000828254610e969190612bed565b9250508190555050505080610eaa90612829565b9050610d03565b508473ffffffffffffffffffffffffffffffffffffffff168673ffffffffffffffffffffffffffffffffffffffff168273ffffffffffffffffffffffffffffffffffffffff167f4a39dc06d4c0dbc64b70af90fd698a233a518aa5d07e595d983b8c0526c8f7fb8787604051610f28929190612e2f565b60405180910390a4610f3e818787878787611609565b610f4c81878787878761193b565b505050505050565b8173ffffffffffffffffffffffffffffffffffffffff168373ffffffffffffffffffffffffffffffffffffffff1603610fc2576040517f08c379a0000000000000000000000000000000000000000000000000000000008152600401610fb990612ed8565b60405180910390fd5b80600160008573ffffffffffffffffffffffffffffffffffffffff1673ffffffffffffffffffffffffffffffffffffffff16815260200190815260200160002060008473ffffffffffffffffffffffffffffffffffffffff1673ffffffffffffffffffffffffffffffffffffffff16815260200190815260200160002060006101000a81548160ff0219169083151502179055508173ffffffffffffffffffffffffffffffffffffffff168373ffffffffffffffffffffffffffffffffffffffff167f17307eab39ab6107e8899845ad3d59bd9653f200f220920489ca2b5937696c31836040516110b39190611ce7565b60405180910390a3505050565b600073ffffffffffffffffffffffffffffffffffffffff168473ffffffffffffffffffffffffffffffffffffffff160361112f576040517f08c379a000000000000000000000000000000000000000000000000000000000815260040161112690612bcd565b60405180910390fd5b8151835114611173576040517f08c379a000000000000000000000000000000000000000000000000000000000815260040161116a90612ceb565b60405180910390fd5b600061117d610c2b565b905061118e81600087878787611601565b60005b8451811015611247578381815181106111ad576111ac6127cb565b5b60200260200101516000808784815181106111cb576111ca6127cb565b5b6020026020010151815260200190815260200160002060008873ffffffffffffffffffffffffffffffffffffffff1673ffffffffffffffffffffffffffffffffffffffff168152602001908152602001600020600082825461122d9190612bed565b92505081905550808061123f90612829565b915050611191565b508473ffffffffffffffffffffffffffffffffffffffff16600073ffffffffffffffffffffffffffffffffffffffff168273ffffffffffffffffffffffffffffffffffffffff167f4a39dc06d4c0dbc64b70af90fd698a233a518aa5d07e595d983b8c0526c8f7fb87876040516112bf929190612e2f565b60405180910390a46112d681600087878787611609565b6112e58160008787878761193b565b5050505050565b600073ffffffffffffffffffffffffffffffffffffffff168473ffffffffffffffffffffffffffffffffffffffff160361135b576040517f08c379a000000000000000000000000000000000000000000000000000000000815260040161135290612d7d565b60405180910390fd5b6000611365610c2b565b9050600061137285611587565b9050600061137f85611587565b905061138f838989858589611601565b600080600088815260200190815260200160002060008a73ffffffffffffffffffffffffffffffffffffffff1673ffffffffffffffffffffffffffffffffffffffff16815260200190815260200160002054905085811015611426576040517f08c379a000000000000000000000000000000000000000000000000000000000815260040161141d90612e0f565b60405180910390fd5b85810360008089815260200190815260200160002060008b73ffffffffffffffffffffffffffffffffffffffff1673ffffffffffffffffffffffffffffffffffffffff168152602001908152602001600020819055508560008089815260200190815260200160002060008a73ffffffffffffffffffffffffffffffffffffffff1673ffffffffffffffffffffffffffffffffffffffff16815260200190815260200160002060008282546114db9190612bed565b925050819055508773ffffffffffffffffffffffffffffffffffffffff168973ffffffffffffffffffffffffffffffffffffffff168573ffffffffffffffffffffffffffffffffffffffff167fc3d58168c5ae7397731d063d5bbf3d657854427343f4c083240f7aacaa2d0f628a8a604051611558929190612c21565b60405180910390a461156e848a8a86868a611609565b61157c848a8a8a8a8a611611565b505050505050505050565b60606000600167ffffffffffffffff8111156115a6576115a5611e39565b5b6040519080825280602002602001820160405280156115d45781602001602082028036833780820191505090505b50905082816000815181106115ec576115eb6127cb565b5b60200260200101818152505080915050919050565b505050505050565b505050505050565b6116308473ffffffffffffffffffffffffffffffffffffffff16611b12565b156117e0578373ffffffffffffffffffffffffffffffffffffffff1663f23a6e6187878686866040518663ffffffff1660e01b8152600401611676959493929190612f5c565b6020604051808303816000875af19250505080156116b257506040513d601f19601f820116820180604052508101906116af9190612fcb565b60015b611757576116be613005565b806308c379a00361171a57506116d2613027565b806116dd575061171c565b806040517f08c379a00000000000000000000000000000000000000000000000000000000081526004016117119190611dbf565b60405180910390fd5b505b6040517f08c379a000000000000000000000000000000000000000000000000000000000815260040161174e90613129565b60405180910390fd5b63f23a6e6160e01b7bffffffffffffffffffffffffffffffffffffffffffffffffffffffff1916817bffffffffffffffffffffffffffffffffffffffffffffffffffffffff1916146117de576040517f08c379a00000000000000000000000000000000000000000000000000000000081526004016117d5906131bb565b60405180910390fd5b505b505050505050565b600080600090507a184f03e93ff9f4daa797ed6e38ed64bf6a1f0100000000000000008310611846577a184f03e93ff9f4daa797ed6e38ed64bf6a1f010000000000000000838161183c5761183b612c4a565b5b0492506040810190505b6d04ee2d6d415b85acef81000000008310611883576d04ee2d6d415b85acef8100000000838161187957611878612c4a565b5b0492506020810190505b662386f26fc1000083106118b257662386f26fc1000083816118a8576118a7612c4a565b5b0492506010810190505b6305f5e10083106118db576305f5e10083816118d1576118d0612c4a565b5b0492506008810190505b61271083106119005761271083816118f6576118f5612c4a565b5b0492506004810190505b60648310611923576064838161191957611918612c4a565b5b0492506002810190505b600a8310611932576001810190505b80915050919050565b61195a8473ffffffffffffffffffffffffffffffffffffffff16611b12565b15611b0a578373ffffffffffffffffffffffffffffffffffffffff1663bc197c8187878686866040518663ffffffff1660e01b81526004016119a09594939291906131db565b6020604051808303816000875af19250505080156119dc57506040513d601f19601f820116820180604052508101906119d99190612fcb565b60015b611a81576119e8613005565b806308c379a003611a4457506119fc613027565b80611a075750611a46565b806040517f08c379a0000000000000000000000000000000000000000000000000000000008152600401611a3b9190611dbf565b60405180910390fd5b505b6040517f08c379a0000000000000000000000000000000000000000000000000000000008152600401611a7890613129565b60405180910390fd5b63bc197c8160e01b7bffffffffffffffffffffffffffffffffffffffffffffffffffffffff1916817bffffffffffffffffffffffffffffffffffffffffffffffffffffffff191614611b08576040517f08c379a0000000000000000000000000000000000000000000000000000000008152600401611aff906131bb565b60405180910390fd5b505b505050505050565b6000808273ffffffffffffffffffffffffffffffffffffffff163b119050919050565b6000604051905090565b600080fd5b600080fd5b600073ffffffffffffffffffffffffffffffffffffffff82169050919050565b6000611b7482611b49565b9050919050565b611b8481611b69565b8114611b8f57600080fd5b50565b600081359050611ba181611b7b565b92915050565b6000819050919050565b611bba81611ba7565b8114611bc557600080fd5b50565b600081359050611bd781611bb1565b92915050565b60008060408385031215611bf457611bf3611b3f565b5b6000611c0285828601611b92565b9250506020611c1385828601611bc8565b9150509250929050565b611c2681611ba7565b82525050565b6000602082019050611c416000830184611c1d565b92915050565b60007fffffffff0000000000000000000000000000000000000000000000000000000082169050919050565b611c7c81611c47565b8114611c8757600080fd5b50565b600081359050611c9981611c73565b92915050565b600060208284031215611cb557611cb4611b3f565b5b6000611cc384828501611c8a565b91505092915050565b60008115159050919050565b611ce181611ccc565b82525050565b6000602082019050611cfc6000830184611cd8565b92915050565b600060208284031215611d1857611d17611b3f565b5b6000611d2684828501611bc8565b91505092915050565b600081519050919050565b600082825260208201905092915050565b60005b83811015611d69578082015181840152602081019050611d4e565b60008484015250505050565b6000601f19601f8301169050919050565b6000611d9182611d2f565b611d9b8185611d3a565b9350611dab818560208601611d4b565b611db481611d75565b840191505092915050565b60006020820190508181036000830152611dd98184611d86565b905092915050565b600080600060608486031215611dfa57611df9611b3f565b5b6000611e0886828701611b92565b9350506020611e1986828701611bc8565b9250506040611e2a86828701611bc8565b9150509250925092565b600080fd5b7f4e487b7100000000000000000000000000000000000000000000000000000000600052604160045260246000fd5b611e7182611d75565b810181811067ffffffffffffffff82111715611e9057611e8f611e39565b5b80604052505050565b6000611ea3611b35565b9050611eaf8282611e68565b919050565b600067ffffffffffffffff821115611ecf57611ece611e39565b5b602082029050602081019050919050565b600080fd5b6000611ef8611ef384611eb4565b611e99565b90508083825260208201905060208402830185811115611f1b57611f1a611ee0565b5b835b81811015611f445780611f308882611bc8565b845260208401935050602081019050611f1d565b5050509392505050565b600082601f830112611f6357611f62611e34565b5b8135611f73848260208601611ee5565b91505092915050565b600080fd5b600067ffffffffffffffff821115611f9c57611f9b611e39565b5b611fa582611d75565b9050602081019050919050565b82818337600083830152505050565b6000611fd4611fcf84611f81565b611e99565b905082815260208101848484011115611ff057611fef611f7c565b5b611ffb848285611fb2565b509392505050565b600082601f83011261201857612017611e34565b5b8135612028848260208601611fc1565b91505092915050565b600080600080600060a0868803121561204d5761204c611b3f565b5b600061205b88828901611b92565b955050602061206c88828901611b92565b945050604086013567ffffffffffffffff81111561208d5761208c611b44565b5b61209988828901611f4e565b935050606086013567ffffffffffffffff8111156120ba576120b9611b44565b5b6120c688828901611f4e565b925050608086013567ffffffffffffffff8111156120e7576120e6611b44565b5b6120f388828901612003565b9150509295509295909350565b600067ffffffffffffffff82111561211b5761211a611e39565b5b602082029050602081019050919050565b600061213f61213a84612100565b611e99565b9050808382526020820190506020840283018581111561216257612161611ee0565b5b835b8181101561218b57806121778882611b92565b845260208401935050602081019050612164565b5050509392505050565b600082601f8301126121aa576121a9611e34565b5b81356121ba84826020860161212c565b91505092915050565b600080604083850312156121da576121d9611b3f565b5b600083013567ffffffffffffffff8111156121f8576121f7611b44565b5b61220485828601612195565b925050602083013567ffffffffffffffff81111561222557612224611b44565b5b61223185828601611f4e565b9150509250929050565b600081519050919050565b600082825260208201905092915050565b6000819050602082019050919050565b61227081611ba7565b82525050565b60006122828383612267565b60208301905092915050565b6000602082019050919050565b60006122a68261223b565b6122b08185612246565b93506122bb83612257565b8060005b838110156122ec5781516122d38882612276565b97506122de8361228e565b9250506001810190506122bf565b5085935050505092915050565b60006020820190508181036000830152612313818461229b565b905092915050565b61232481611ccc565b811461232f57600080fd5b50565b6000813590506123418161231b565b92915050565b6000806040838503121561235e5761235d611b3f565b5b600061236c85828601611b92565b925050602061237d85828601612332565b9150509250929050565b6000806000606084860312156123a05761239f611b3f565b5b60006123ae86828701611b92565b935050602084013567ffffffffffffffff8111156123cf576123ce611b44565b5b6123db86828701611f4e565b925050604084013567ffffffffffffffff8111156123fc576123fb611b44565b5b61240886828701611f4e565b9150509250925092565b6000806040838503121561242957612428611b3f565b5b600061243785828601611b92565b925050602061244885828601611b92565b9150509250929050565b600080600080600060a0868803121561246e5761246d611b3f565b5b600061247c88828901611b92565b955050602061248d88828901611b92565b945050604061249e88828901611bc8565b93505060606124af88828901611bc8565b925050608086013567ffffffffffffffff8111156124d0576124cf611b44565b5b6124dc88828901612003565b9150509295509295909350565b7f455243313135353a2061646472657373207a65726f206973206e6f742061207660008201527f616c6964206f776e657200000000000000000000000000000000000000000000602082015250565b6000612545602a83611d3a565b9150612550826124e9565b604082019050919050565b6000602082019050818103600083015261257481612538565b9050919050565b7f4e487b7100000000000000000000000000000000000000000000000000000000600052602260045260246000fd5b600060028204905060018216806125c257607f821691505b6020821081036125d5576125d461257b565b5b50919050565b7f6572726f722d2d2d2d2d6964206e656564203c31303030300000000000000000600082015250565b6000612611601883611d3a565b915061261c826125db565b602082019050919050565b6000602082019050818103600083015261264081612604565b9050919050565b600081905092915050565b600061265d82611d2f565b6126678185612647565b9350612677818560208601611d4b565b80840191505092915050565b600061268f8285612652565b915061269b8284612652565b91508190509392505050565b7f455243313135353a2063616c6c6572206973206e6f7420746f6b656e206f776e60008201527f6572206f7220617070726f766564000000000000000000000000000000000000602082015250565b6000612703602e83611d3a565b915061270e826126a7565b604082019050919050565b60006020820190508181036000830152612732816126f6565b9050919050565b7f455243313135353a206163636f756e747320616e6420696473206c656e67746860008201527f206d69736d617463680000000000000000000000000000000000000000000000602082015250565b6000612795602983611d3a565b91506127a082612739565b604082019050919050565b600060208201905081810360008301526127c481612788565b9050919050565b7f4e487b7100000000000000000000000000000000000000000000000000000000600052603260045260246000fd5b7f4e487b7100000000000000000000000000000000000000000000000000000000600052601160045260246000fd5b600061283482611ba7565b91507fffffffffffffffffffffffffffffffffffffffffffffffffffffffffffffffff8203612866576128656127fa565b5b600182019050919050565b7f6964206f766572666c6f77000000000000000000000000000000000000000000600082015250565b60006128a7600b83611d3a565b91506128b282612871565b602082019050919050565b600060208201905081810360008301526128d68161289a565b9050919050565b60008190508160005260206000209050919050565b60006020601f8301049050919050565b600082821b905092915050565b60006008830261293f7fffffffffffffffffffffffffffffffffffffffffffffffffffffffffffffffff82612902565b6129498683612902565b95508019841693508086168417925050509392505050565b6000819050919050565b600061298661298161297c84611ba7565b612961565b611ba7565b9050919050565b6000819050919050565b6129a08361296b565b6129b46129ac8261298d565b84845461290f565b825550505050565b600090565b6129c96129bc565b6129d4818484612997565b505050565b5b818110156129f8576129ed6000826129c1565b6001810190506129da565b5050565b601f821115612a3d57612a0e816128dd565b612a17846128f2565b81016020851015612a26578190505b612a3a612a32856128f2565b8301826129d9565b50505b505050565b600082821c905092915050565b6000612a6060001984600802612a42565b1980831691505092915050565b6000612a798383612a4f565b9150826002028217905092915050565b612a9282611d2f565b67ffffffffffffffff811115612aab57612aaa611e39565b5b612ab582546125aa565b612ac08282856129fc565b600060209050601f831160018114612af35760008415612ae1578287015190505b612aeb8582612a6d565b865550612b53565b601f198416612b01866128dd565b60005b82811015612b2957848901518255600182019150602085019450602081019050612b04565b86831015612b465784890151612b42601f891682612a4f565b8355505b6001600288020188555050505b505050505050565b7f455243313135353a206d696e7420746f20746865207a65726f2061646472657360008201527f7300000000000000000000000000000000000000000000000000000000000000602082015250565b6000612bb7602183611d3a565b9150612bc282612b5b565b604082019050919050565b60006020820190508181036000830152612be681612baa565b9050919050565b6000612bf882611ba7565b9150612c0383611ba7565b9250828201905080821115612c1b57612c1a6127fa565b5b92915050565b6000604082019050612c366000830185611c1d565b612c436020830184611c1d565b9392505050565b7f4e487b7100000000000000000000000000000000000000000000000000000000600052601260045260246000fd5b7f455243313135353a2069647320616e6420616d6f756e7473206c656e6774682060008201527f6d69736d61746368000000000000000000000000000000000000000000000000602082015250565b6000612cd5602883611d3a565b9150612ce082612c79565b604082019050919050565b60006020820190508181036000830152612d0481612cc8565b9050919050565b7f455243313135353a207472616e7366657220746f20746865207a65726f20616460008201527f6472657373000000000000000000000000000000000000000000000000000000602082015250565b6000612d67602583611d3a565b9150612d7282612d0b565b604082019050919050565b60006020820190508181036000830152612d9681612d5a565b9050919050565b7f455243313135353a20696e73756666696369656e742062616c616e636520666f60008201527f72207472616e7366657200000000000000000000000000000000000000000000602082015250565b6000612df9602a83611d3a565b9150612e0482612d9d565b604082019050919050565b60006020820190508181036000830152612e2881612dec565b9050919050565b60006040820190508181036000830152612e49818561229b565b90508181036020830152612e5d818461229b565b90509392505050565b7f455243313135353a2073657474696e6720617070726f76616c2073746174757360008201527f20666f722073656c660000000000000000000000000000000000000000000000602082015250565b6000612ec2602983611d3a565b9150612ecd82612e66565b604082019050919050565b60006020820190508181036000830152612ef181612eb5565b9050919050565b612f0181611b69565b82525050565b600081519050919050565b600082825260208201905092915050565b6000612f2e82612f07565b612f388185612f12565b9350612f48818560208601611d4b565b612f5181611d75565b840191505092915050565b600060a082019050612f716000830188612ef8565b612f7e6020830187612ef8565b612f8b6040830186611c1d565b612f986060830185611c1d565b8181036080830152612faa8184612f23565b90509695505050505050565b600081519050612fc581611c73565b92915050565b600060208284031215612fe157612fe0611b3f565b5b6000612fef84828501612fb6565b91505092915050565b60008160e01c9050919050565b600060033d11156130245760046000803e613021600051612ff8565b90505b90565b600060443d106130b457613039611b35565b60043d036004823e80513d602482011167ffffffffffffffff821117156130615750506130b4565b808201805167ffffffffffffffff81111561307f57505050506130b4565b80602083010160043d03850181111561309c5750505050506130b4565b6130ab82602001850186611e68565b82955050505050505b90565b7f455243313135353a207472616e7366657220746f206e6f6e2d4552433131353560008201527f526563656976657220696d706c656d656e746572000000000000000000000000602082015250565b6000613113603483611d3a565b915061311e826130b7565b604082019050919050565b6000602082019050818103600083015261314281613106565b9050919050565b7f455243313135353a204552433131353552656365697665722072656a6563746560008201527f6420746f6b656e73000000000000000000000000000000000000000000000000602082015250565b60006131a5602883611d3a565b91506131b082613149565b604082019050919050565b600060208201905081810360008301526131d481613198565b9050919050565b600060a0820190506131f06000830188612ef8565b6131fd6020830187612ef8565b818103604083015261320f818661229b565b90508181036060830152613223818561229b565b905081810360808301526132378184612f23565b9050969550505050505056fe697066733a2f2f516d65536a53696e4870506e6d586d73704d6a776958794e367a533445397a63636172694752336a7863615774712fa2646970667358221220156e17d4bc37f049904c55a1a92cbc573709f06f4f5849d04073b564d0fc203f64736f6c63430008120033697066733a2f2f516d65536a53696e4870506e6d586d73704d6a776958794e367a533445397a63636172694752336a7863615774712f",
			"opcodes": "PUSH1 0x80 PUSH1 0x40 MSTORE CALLVALUE DUP1 ISZERO PUSH3 0x11 JUMPI PUSH1 0x0 DUP1 REVERT JUMPDEST POP PUSH1 0x40 MLOAD DUP1 PUSH1 0x60 ADD PUSH1 0x40 MSTORE DUP1 PUSH1 0x36 DUP2 MSTORE PUSH1 0x20 ADD PUSH3 0x3679 PUSH1 0x36 SWAP2 CODECOPY PUSH3 0x3D DUP2 PUSH3 0x44 PUSH1 0x20 SHL PUSH1 0x20 SHR JUMP JUMPDEST POP PUSH3 0x3BA JUMP JUMPDEST DUP1 PUSH1 0x2 SWAP1 DUP2 PUSH3 0x55 SWAP2 SWAP1 PUSH3 0x2D3 JUMP JUMPDEST POP POP JUMP JUMPDEST PUSH1 0x0 DUP2 MLOAD SWAP1 POP SWAP2 SWAP1 POP JUMP JUMPDEST PUSH32 0x4E487B7100000000000000000000000000000000000000000000000000000000 PUSH1 0x0 MSTORE PUSH1 0x41 PUSH1 0x4 MSTORE PUSH1 0x24 PUSH1 0x0 REVERT JUMPDEST PUSH32 0x4E487B7100000000000000000000000000000000000000000000000000000000 PUSH1 0x0 MSTORE PUSH1 0x22 PUSH1 0x4 MSTORE PUSH1 0x24 PUSH1 0x0 REVERT JUMPDEST PUSH1 0x0 PUSH1 0x2 DUP3 DIV SWAP1 POP PUSH1 0x1 DUP3 AND DUP1 PUSH3 0xDB JUMPI PUSH1 0x7F DUP3 AND SWAP2 POP JUMPDEST PUSH1 0x20 DUP3 LT DUP2 SUB PUSH3 0xF1 JUMPI PUSH3 0xF0 PUSH3 0x93 JUMP JUMPDEST JUMPDEST POP SWAP2 SWAP1 POP JUMP JUMPDEST PUSH1 0x0 DUP2 SWAP1 POP DUP2 PUSH1 0x0 MSTORE PUSH1 0x20 PUSH1 0x0 KECCAK256 SWAP1 POP SWAP2 SWAP1 POP JUMP JUMPDEST PUSH1 0x0 PUSH1 0x20 PUSH1 0x1F DUP4 ADD DIV SWAP1 POP SWAP2 SWAP1 POP JUMP JUMPDEST PUSH1 0x0 DUP3 DUP3 SHL SWAP1 POP SWAP3 SWAP2 POP POP JUMP JUMPDEST PUSH1 0x0 PUSH1 0x8 DUP4 MUL PUSH3 0x15B PUSH32 0xFFFFFFFFFFFFFFFFFFFFFFFFFFFFFFFFFFFFFFFFFFFFFFFFFFFFFFFFFFFFFFFF DUP3 PUSH3 0x11C JUMP JUMPDEST PUSH3 0x167 DUP7 DUP4 PUSH3 0x11C JUMP JUMPDEST SWAP6 POP DUP1 NOT DUP5 AND SWAP4 POP DUP1 DUP7 AND DUP5 OR SWAP3 POP POP POP SWAP4 SWAP3 POP POP POP JUMP JUMPDEST PUSH1 0x0 DUP2 SWAP1 POP SWAP2 SWAP1 POP JUMP JUMPDEST PUSH1 0x0 DUP2 SWAP1 POP SWAP2 SWAP1 POP JUMP JUMPDEST PUSH1 0x0 PUSH3 0x1B4 PUSH3 0x1AE PUSH3 0x1A8 DUP5 PUSH3 0x17F JUMP JUMPDEST PUSH3 0x189 JUMP JUMPDEST PUSH3 0x17F JUMP JUMPDEST SWAP1 POP SWAP2 SWAP1 POP JUMP JUMPDEST PUSH1 0x0 DUP2 SWAP1 POP SWAP2 SWAP1 POP JUMP JUMPDEST PUSH3 0x1D0 DUP4 PUSH3 0x193 JUMP JUMPDEST PUSH3 0x1E8 PUSH3 0x1DF DUP3 PUSH3 0x1BB JUMP JUMPDEST DUP5 DUP5 SLOAD PUSH3 0x129 JUMP JUMPDEST DUP3 SSTORE POP POP POP POP JUMP JUMPDEST PUSH1 0x0 SWAP1 JUMP JUMPDEST PUSH3 0x1FF PUSH3 0x1F0 JUMP JUMPDEST PUSH3 0x20C DUP2 DUP5 DUP5 PUSH3 0x1C5 JUMP JUMPDEST POP POP POP JUMP JUMPDEST JUMPDEST DUP2 DUP2 LT ISZERO PUSH3 0x234 JUMPI PUSH3 0x228 PUSH1 0x0 DUP3 PUSH3 0x1F5 JUMP JUMPDEST PUSH1 0x1 DUP2 ADD SWAP1 POP PUSH3 0x212 JUMP JUMPDEST POP POP JUMP JUMPDEST PUSH1 0x1F DUP3 GT ISZERO PUSH3 0x283 JUMPI PUSH3 0x24D DUP2 PUSH3 0xF7 JUMP JUMPDEST PUSH3 0x258 DUP5 PUSH3 0x10C JUMP JUMPDEST DUP2 ADD PUSH1 0x20 DUP6 LT ISZERO PUSH3 0x268 JUMPI DUP2 SWAP1 POP JUMPDEST PUSH3 0x280 PUSH3 0x277 DUP6 PUSH3 0x10C JUMP JUMPDEST DUP4 ADD DUP3 PUSH3 0x211 JUMP JUMPDEST POP POP JUMPDEST POP POP POP JUMP JUMPDEST PUSH1 0x0 DUP3 DUP3 SHR SWAP1 POP SWAP3 SWAP2 POP POP JUMP JUMPDEST PUSH1 0x0 PUSH3 0x2A8 PUSH1 0x0 NOT DUP5 PUSH1 0x8 MUL PUSH3 0x288 JUMP JUMPDEST NOT DUP1 DUP4 AND SWAP2 POP POP SWAP3 SWAP2 POP POP JUMP JUMPDEST PUSH1 0x0 PUSH3 0x2C3 DUP4 DUP4 PUSH3 0x295 JUMP JUMPDEST SWAP2 POP DUP3 PUSH1 0x2 MUL DUP3 OR SWAP1 POP SWAP3 SWAP2 POP POP JUMP JUMPDEST PUSH3 0x2DE DUP3 PUSH3 0x59 JUMP JUMPDEST PUSH8 0xFFFFFFFFFFFFFFFF DUP2 GT ISZERO PUSH3 0x2FA JUMPI PUSH3 0x2F9 PUSH3 0x64 JUMP JUMPDEST JUMPDEST PUSH3 0x306 DUP3 SLOAD PUSH3 0xC2 JUMP JUMPDEST PUSH3 0x313 DUP3 DUP3 DUP6 PUSH3 0x238 JUMP JUMPDEST PUSH1 0x0 PUSH1 0x20 SWAP1 POP PUSH1 0x1F DUP4 GT PUSH1 0x1 DUP2 EQ PUSH3 0x34B JUMPI PUSH1 0x0 DUP5 ISZERO PUSH3 0x336 JUMPI DUP3 DUP8 ADD MLOAD SWAP1 POP JUMPDEST PUSH3 0x342 DUP6 DUP3 PUSH3 0x2B5 JUMP JUMPDEST DUP7 SSTORE POP PUSH3 0x3B2 JUMP JUMPDEST PUSH1 0x1F NOT DUP5 AND PUSH3 0x35B DUP7 PUSH3 0xF7 JUMP JUMPDEST PUSH1 0x0 JUMPDEST DUP3 DUP2 LT ISZERO PUSH3 0x385 JUMPI DUP5 DUP10 ADD MLOAD DUP3 SSTORE PUSH1 0x1 DUP3 ADD SWAP2 POP PUSH1 0x20 DUP6 ADD SWAP5 POP PUSH1 0x20 DUP2 ADD SWAP1 POP PUSH3 0x35E JUMP JUMPDEST DUP7 DUP4 LT ISZERO PUSH3 0x3A5 JUMPI DUP5 DUP10 ADD MLOAD PUSH3 0x3A1 PUSH1 0x1F DUP10 AND DUP3 PUSH3 0x295 JUMP JUMPDEST DUP4 SSTORE POP JUMPDEST PUSH1 0x1 PUSH1 0x2 DUP9 MUL ADD DUP9 SSTORE POP POP POP JUMPDEST POP POP POP POP POP POP JUMP JUMPDEST PUSH2 0x32AF DUP1 PUSH3 0x3CA PUSH1 0x0 CODECOPY PUSH1 0x0 RETURN INVALID PUSH1 0x80 PUSH1 0x40 MSTORE CALLVALUE DUP1 ISZERO PUSH2 0x10 JUMPI PUSH1 0x0 DUP1 REVERT JUMPDEST POP PUSH1 0x4 CALLDATASIZE LT PUSH2 0xA8 JUMPI PUSH1 0x0 CALLDATALOAD PUSH1 0xE0 SHR DUP1 PUSH4 0x2EB2C2D6 GT PUSH2 0x71 JUMPI DUP1 PUSH4 0x2EB2C2D6 EQ PUSH2 0x189 JUMPI DUP1 PUSH4 0x4E1273F4 EQ PUSH2 0x1A5 JUMPI DUP1 PUSH4 0xA22CB465 EQ PUSH2 0x1D5 JUMPI DUP1 PUSH4 0xD81D0A15 EQ PUSH2 0x1F1 JUMPI DUP1 PUSH4 0xE985E9C5 EQ PUSH2 0x20D JUMPI DUP1 PUSH4 0xF242432A EQ PUSH2 0x23D JUMPI PUSH2 0xA8 JUMP JUMPDEST DUP1 PUSH3 0xFDD58E EQ PUSH2 0xAD JUMPI DUP1 PUSH4 0x1FFC9A7 EQ PUSH2 0xDD JUMPI DUP1 PUSH4 0xE89341C EQ PUSH2 0x10D JUMPI DUP1 PUSH4 0x156E29F6 EQ PUSH2 0x13D JUMPI DUP1 PUSH4 0x28C81683 EQ PUSH2 0x159 JUMPI JUMPDEST PUSH1 0x0 DUP1 REVERT JUMPDEST PUSH2 0xC7 PUSH1 0x4 DUP1 CALLDATASIZE SUB DUP2 ADD SWAP1 PUSH2 0xC2 SWAP2 SWAP1 PUSH2 0x1BDD JUMP JUMPDEST PUSH2 0x259 JUMP JUMPDEST PUSH1 0x40 MLOAD PUSH2 0xD4 SWAP2 SWAP1 PUSH2 0x1C2C JUMP JUMPDEST PUSH1 0x40 MLOAD DUP1 SWAP2 SUB SWAP1 RETURN JUMPDEST PUSH2 0xF7 PUSH1 0x4 DUP1 CALLDATASIZE SUB DUP2 ADD SWAP1 PUSH2 0xF2 SWAP2 SWAP1 PUSH2 0x1C9F JUMP JUMPDEST PUSH2 0x321 JUMP JUMPDEST PUSH1 0x40 MLOAD PUSH2 0x104 SWAP2 SWAP1 PUSH2 0x1CE7 JUMP JUMPDEST PUSH1 0x40 MLOAD DUP1 SWAP2 SUB SWAP1 RETURN JUMPDEST PUSH2 0x127 PUSH1 0x4 DUP1 CALLDATASIZE SUB DUP2 ADD SWAP1 PUSH2 0x122 SWAP2 SWAP1 PUSH2 0x1D02 JUMP JUMPDEST PUSH2 0x403 JUMP JUMPDEST PUSH1 0x40 MLOAD PUSH2 0x134 SWAP2 SWAP1 PUSH2 0x1DBF JUMP JUMPDEST PUSH1 0x40 MLOAD DUP1 SWAP2 SUB SWAP1 RETURN JUMPDEST PUSH2 0x157 PUSH1 0x4 DUP1 CALLDATASIZE SUB DUP2 ADD SWAP1 PUSH2 0x152 SWAP2 SWAP1 PUSH2 0x1DE1 JUMP JUMPDEST PUSH2 0x497 JUMP JUMPDEST STOP JUMPDEST PUSH2 0x173 PUSH1 0x4 DUP1 CALLDATASIZE SUB DUP2 ADD SWAP1 PUSH2 0x16E SWAP2 SWAP1 PUSH2 0x1D02 JUMP JUMPDEST PUSH2 0x50C JUMP JUMPDEST PUSH1 0x40 MLOAD PUSH2 0x180 SWAP2 SWAP1 PUSH2 0x1DBF JUMP JUMPDEST PUSH1 0x40 MLOAD DUP1 SWAP2 SUB SWAP1 RETURN JUMPDEST PUSH2 0x1A3 PUSH1 0x4 DUP1 CALLDATASIZE SUB DUP2 ADD SWAP1 PUSH2 0x19E SWAP2 SWAP1 PUSH2 0x2031 JUMP JUMPDEST PUSH2 0x57C JUMP JUMPDEST STOP JUMPDEST PUSH2 0x1BF PUSH1 0x4 DUP1 CALLDATASIZE SUB DUP2 ADD SWAP1 PUSH2 0x1BA SWAP2 SWAP1 PUSH2 0x21C3 JUMP JUMPDEST PUSH2 0x61D JUMP JUMPDEST PUSH1 0x40 MLOAD PUSH2 0x1CC SWAP2 SWAP1 PUSH2 0x22F9 JUMP JUMPDEST PUSH1 0x40 MLOAD DUP1 SWAP2 SUB SWAP1 RETURN JUMPDEST PUSH2 0x1EF PUSH1 0x4 DUP1 CALLDATASIZE SUB DUP2 ADD SWAP1 PUSH2 0x1EA SWAP2 SWAP1 PUSH2 0x2347 JUMP JUMPDEST PUSH2 0x736 JUMP JUMPDEST STOP JUMPDEST PUSH2 0x20B PUSH1 0x4 DUP1 CALLDATASIZE SUB DUP2 ADD SWAP1 PUSH2 0x206 SWAP2 SWAP1 PUSH2 0x2387 JUMP JUMPDEST PUSH2 0x74C JUMP JUMPDEST STOP JUMPDEST PUSH2 0x227 PUSH1 0x4 DUP1 CALLDATASIZE SUB DUP2 ADD SWAP1 PUSH2 0x222 SWAP2 SWAP1 PUSH2 0x2412 JUMP JUMPDEST PUSH2 0x7FB JUMP JUMPDEST PUSH1 0x40 MLOAD PUSH2 0x234 SWAP2 SWAP1 PUSH2 0x1CE7 JUMP JUMPDEST PUSH1 0x40 MLOAD DUP1 SWAP2 SUB SWAP1 RETURN JUMPDEST PUSH2 0x257 PUSH1 0x4 DUP1 CALLDATASIZE SUB DUP2 ADD SWAP1 PUSH2 0x252 SWAP2 SWAP1 PUSH2 0x2452 JUMP JUMPDEST PUSH2 0x88F JUMP JUMPDEST STOP JUMPDEST PUSH1 0x0 DUP1 PUSH20 0xFFFFFFFFFFFFFFFFFFFFFFFFFFFFFFFFFFFFFFFF AND DUP4 PUSH20 0xFFFFFFFFFFFFFFFFFFFFFFFFFFFFFFFFFFFFFFFF AND SUB PUSH2 0x2C9 JUMPI PUSH1 0x40 MLOAD PUSH32 0x8C379A000000000000000000000000000000000000000000000000000000000 DUP2 MSTORE PUSH1 0x4 ADD PUSH2 0x2C0 SWAP1 PUSH2 0x255B JUMP JUMPDEST PUSH1 0x40 MLOAD DUP1 SWAP2 SUB SWAP1 REVERT JUMPDEST PUSH1 0x0 DUP1 DUP4 DUP2 MSTORE PUSH1 0x20 ADD SWAP1 DUP2 MSTORE PUSH1 0x20 ADD PUSH1 0x0 KECCAK256 PUSH1 0x0 DUP5 PUSH20 0xFFFFFFFFFFFFFFFFFFFFFFFFFFFFFFFFFFFFFFFF AND PUSH20 0xFFFFFFFFFFFFFFFFFFFFFFFFFFFFFFFFFFFFFFFF AND DUP2 MSTORE PUSH1 0x20 ADD SWAP1 DUP2 MSTORE PUSH1 0x20 ADD PUSH1 0x0 KECCAK256 SLOAD SWAP1 POP SWAP3 SWAP2 POP POP JUMP JUMPDEST PUSH1 0x0 PUSH32 0xD9B67A2600000000000000000000000000000000000000000000000000000000 PUSH28 0xFFFFFFFFFFFFFFFFFFFFFFFFFFFFFFFFFFFFFFFFFFFFFFFFFFFFFFFF NOT AND DUP3 PUSH28 0xFFFFFFFFFFFFFFFFFFFFFFFFFFFFFFFFFFFFFFFFFFFFFFFFFFFFFFFF NOT AND EQ DUP1 PUSH2 0x3EC JUMPI POP PUSH32 0xE89341C00000000000000000000000000000000000000000000000000000000 PUSH28 0xFFFFFFFFFFFFFFFFFFFFFFFFFFFFFFFFFFFFFFFFFFFFFFFFFFFFFFFF NOT AND DUP3 PUSH28 0xFFFFFFFFFFFFFFFFFFFFFFFFFFFFFFFFFFFFFFFFFFFFFFFFFFFFFFFF NOT AND EQ JUMPDEST DUP1 PUSH2 0x3FC JUMPI POP PUSH2 0x3FB DUP3 PUSH2 0x930 JUMP JUMPDEST JUMPDEST SWAP1 POP SWAP2 SWAP1 POP JUMP JUMPDEST PUSH1 0x60 PUSH1 0x2 DUP1 SLOAD PUSH2 0x412 SWAP1 PUSH2 0x25AA JUMP JUMPDEST DUP1 PUSH1 0x1F ADD PUSH1 0x20 DUP1 SWAP2 DIV MUL PUSH1 0x20 ADD PUSH1 0x40 MLOAD SWAP1 DUP2 ADD PUSH1 0x40 MSTORE DUP1 SWAP3 SWAP2 SWAP1 DUP2 DUP2 MSTORE PUSH1 0x20 ADD DUP3 DUP1 SLOAD PUSH2 0x43E SWAP1 PUSH2 0x25AA JUMP JUMPDEST DUP1 ISZERO PUSH2 0x48B JUMPI DUP1 PUSH1 0x1F LT PUSH2 0x460 JUMPI PUSH2 0x100 DUP1 DUP4 SLOAD DIV MUL DUP4 MSTORE SWAP2 PUSH1 0x20 ADD SWAP2 PUSH2 0x48B JUMP JUMPDEST DUP3 ADD SWAP2 SWAP1 PUSH1 0x0 MSTORE PUSH1 0x20 PUSH1 0x0 KECCAK256 SWAP1 JUMPDEST DUP2 SLOAD DUP2 MSTORE SWAP1 PUSH1 0x1 ADD SWAP1 PUSH1 0x20 ADD DUP1 DUP4 GT PUSH2 0x46E JUMPI DUP3 SWAP1 SUB PUSH1 0x1F AND DUP3 ADD SWAP2 JUMPDEST POP POP POP POP POP SWAP1 POP SWAP2 SWAP1 POP JUMP JUMPDEST PUSH2 0x2710 DUP3 LT PUSH2 0x4DB JUMPI PUSH1 0x40 MLOAD PUSH32 0x8C379A000000000000000000000000000000000000000000000000000000000 DUP2 MSTORE PUSH1 0x4 ADD PUSH2 0x4D2 SWAP1 PUSH2 0x2627 JUMP JUMPDEST PUSH1 0x40 MLOAD DUP1 SWAP2 SUB SWAP1 REVERT JUMPDEST PUSH2 0x4EC PUSH2 0x4E7 DUP4 PUSH2 0x50C JUMP JUMPDEST PUSH2 0x99A JUMP JUMPDEST PUSH2 0x507 DUP4 DUP4 DUP4 PUSH1 0x40 MLOAD DUP1 PUSH1 0x20 ADD PUSH1 0x40 MSTORE DUP1 PUSH1 0x0 DUP2 MSTORE POP PUSH2 0x9AD JUMP JUMPDEST POP POP POP JUMP JUMPDEST PUSH1 0x60 PUSH1 0x0 PUSH1 0x40 MLOAD DUP1 PUSH1 0x60 ADD PUSH1 0x40 MSTORE DUP1 PUSH1 0x36 DUP2 MSTORE PUSH1 0x20 ADD PUSH2 0x3244 PUSH1 0x36 SWAP2 CODECOPY SWAP1 POP PUSH1 0x0 DUP2 MLOAD GT PUSH2 0x549 JUMPI PUSH1 0x40 MLOAD DUP1 PUSH1 0x20 ADD PUSH1 0x40 MSTORE DUP1 PUSH1 0x0 DUP2 MSTORE POP PUSH2 0x574 JUMP JUMPDEST DUP1 PUSH2 0x553 DUP5 PUSH2 0xB5D JUMP JUMPDEST PUSH1 0x40 MLOAD PUSH1 0x20 ADD PUSH2 0x564 SWAP3 SWAP2 SWAP1 PUSH2 0x2683 JUMP JUMPDEST PUSH1 0x40 MLOAD PUSH1 0x20 DUP2 DUP4 SUB SUB DUP2 MSTORE SWAP1 PUSH1 0x40 MSTORE JUMPDEST SWAP2 POP POP SWAP2 SWAP1 POP JUMP JUMPDEST PUSH2 0x584 PUSH2 0xC2B JUMP JUMPDEST PUSH20 0xFFFFFFFFFFFFFFFFFFFFFFFFFFFFFFFFFFFFFFFF AND DUP6 PUSH20 0xFFFFFFFFFFFFFFFFFFFFFFFFFFFFFFFFFFFFFFFF AND EQ DUP1 PUSH2 0x5CA JUMPI POP PUSH2 0x5C9 DUP6 PUSH2 0x5C4 PUSH2 0xC2B JUMP JUMPDEST PUSH2 0x7FB JUMP JUMPDEST JUMPDEST PUSH2 0x609 JUMPI PUSH1 0x40 MLOAD PUSH32 0x8C379A000000000000000000000000000000000000000000000000000000000 DUP2 MSTORE PUSH1 0x4 ADD PUSH2 0x600 SWAP1 PUSH2 0x2719 JUMP JUMPDEST PUSH1 0x40 MLOAD DUP1 SWAP2 SUB SWAP1 REVERT JUMPDEST PUSH2 0x616 DUP6 DUP6 DUP6 DUP6 DUP6 PUSH2 0xC33 JUMP JUMPDEST POP POP POP POP POP JUMP JUMPDEST PUSH1 0x60 DUP2 MLOAD DUP4 MLOAD EQ PUSH2 0x663 JUMPI PUSH1 0x40 MLOAD PUSH32 0x8C379A000000000000000000000000000000000000000000000000000000000 DUP2 MSTORE PUSH1 0x4 ADD PUSH2 0x65A SWAP1 PUSH2 0x27AB JUMP JUMPDEST PUSH1 0x40 MLOAD DUP1 SWAP2 SUB SWAP1 REVERT JUMPDEST PUSH1 0x0 DUP4 MLOAD PUSH8 0xFFFFFFFFFFFFFFFF DUP2 GT ISZERO PUSH2 0x680 JUMPI PUSH2 0x67F PUSH2 0x1E39 JUMP JUMPDEST JUMPDEST PUSH1 0x40 MLOAD SWAP1 DUP1 DUP3 MSTORE DUP1 PUSH1 0x20 MUL PUSH1 0x20 ADD DUP3 ADD PUSH1 0x40 MSTORE DUP1 ISZERO PUSH2 0x6AE JUMPI DUP2 PUSH1 0x20 ADD PUSH1 0x20 DUP3 MUL DUP1 CALLDATASIZE DUP4 CALLDATACOPY DUP1 DUP3 ADD SWAP2 POP POP SWAP1 POP JUMPDEST POP SWAP1 POP PUSH1 0x0 JUMPDEST DUP5 MLOAD DUP2 LT ISZERO PUSH2 0x72B JUMPI PUSH2 0x6FB DUP6 DUP3 DUP2 MLOAD DUP2 LT PUSH2 0x6D3 JUMPI PUSH2 0x6D2 PUSH2 0x27CB JUMP JUMPDEST JUMPDEST PUSH1 0x20 MUL PUSH1 0x20 ADD ADD MLOAD DUP6 DUP4 DUP2 MLOAD DUP2 LT PUSH2 0x6EE JUMPI PUSH2 0x6ED PUSH2 0x27CB JUMP JUMPDEST JUMPDEST PUSH1 0x20 MUL PUSH1 0x20 ADD ADD MLOAD PUSH2 0x259 JUMP JUMPDEST DUP3 DUP3 DUP2 MLOAD DUP2 LT PUSH2 0x70E JUMPI PUSH2 0x70D PUSH2 0x27CB JUMP JUMPDEST JUMPDEST PUSH1 0x20 MUL PUSH1 0x20 ADD ADD DUP2 DUP2 MSTORE POP POP DUP1 PUSH2 0x724 SWAP1 PUSH2 0x2829 JUMP JUMPDEST SWAP1 POP PUSH2 0x6B4 JUMP JUMPDEST POP DUP1 SWAP2 POP POP SWAP3 SWAP2 POP POP JUMP JUMPDEST PUSH2 0x748 PUSH2 0x741 PUSH2 0xC2B JUMP JUMPDEST DUP4 DUP4 PUSH2 0xF54 JUMP JUMPDEST POP POP JUMP JUMPDEST PUSH1 0x0 JUMPDEST DUP3 MLOAD DUP2 LT ISZERO PUSH2 0x7DA JUMPI PUSH2 0x2710 DUP4 DUP3 DUP2 MLOAD DUP2 LT PUSH2 0x76E JUMPI PUSH2 0x76D PUSH2 0x27CB JUMP JUMPDEST JUMPDEST PUSH1 0x20 MUL PUSH1 0x20 ADD ADD MLOAD LT PUSH2 0x7B6 JUMPI PUSH1 0x40 MLOAD PUSH32 0x8C379A000000000000000000000000000000000000000000000000000000000 DUP2 MSTORE PUSH1 0x4 ADD PUSH2 0x7AD SWAP1 PUSH2 0x28BD JUMP JUMPDEST PUSH1 0x40 MLOAD DUP1 SWAP2 SUB SWAP1 REVERT JUMPDEST PUSH2 0x7C7 PUSH2 0x7C2 DUP3 PUSH2 0x50C JUMP JUMPDEST PUSH2 0x99A JUMP JUMPDEST DUP1 DUP1 PUSH2 0x7D2 SWAP1 PUSH2 0x2829 JUMP JUMPDEST SWAP2 POP POP PUSH2 0x74F JUMP JUMPDEST POP PUSH2 0x7F6 DUP4 DUP4 DUP4 PUSH1 0x40 MLOAD DUP1 PUSH1 0x20 ADD PUSH1 0x40 MSTORE DUP1 PUSH1 0x0 DUP2 MSTORE POP PUSH2 0x10C0 JUMP JUMPDEST POP POP POP JUMP JUMPDEST PUSH1 0x0 PUSH1 0x1 PUSH1 0x0 DUP5 PUSH20 0xFFFFFFFFFFFFFFFFFFFFFFFFFFFFFFFFFFFFFFFF AND PUSH20 0xFFFFFFFFFFFFFFFFFFFFFFFFFFFFFFFFFFFFFFFF AND DUP2 MSTORE PUSH1 0x20 ADD SWAP1 DUP2 MSTORE PUSH1 0x20 ADD PUSH1 0x0 KECCAK256 PUSH1 0x0 DUP4 PUSH20 0xFFFFFFFFFFFFFFFFFFFFFFFFFFFFFFFFFFFFFFFF AND PUSH20 0xFFFFFFFFFFFFFFFFFFFFFFFFFFFFFFFFFFFFFFFF AND DUP2 MSTORE PUSH1 0x20 ADD SWAP1 DUP2 MSTORE PUSH1 0x20 ADD PUSH1 0x0 KECCAK256 PUSH1 0x0 SWAP1 SLOAD SWAP1 PUSH2 0x100 EXP SWAP1 DIV PUSH1 0xFF AND SWAP1 POP SWAP3 SWAP2 POP POP JUMP JUMPDEST PUSH2 0x897 PUSH2 0xC2B JUMP JUMPDEST PUSH20 0xFFFFFFFFFFFFFFFFFFFFFFFFFFFFFFFFFFFFFFFF AND DUP6 PUSH20 0xFFFFFFFFFFFFFFFFFFFFFFFFFFFFFFFFFFFFFFFF AND EQ DUP1 PUSH2 0x8DD JUMPI POP PUSH2 0x8DC DUP6 PUSH2 0x8D7 PUSH2 0xC2B JUMP JUMPDEST PUSH2 0x7FB JUMP JUMPDEST JUMPDEST PUSH2 0x91C JUMPI PUSH1 0x40 MLOAD PUSH32 0x8C379A000000000000000000000000000000000000000000000000000000000 DUP2 MSTORE PUSH1 0x4 ADD PUSH2 0x913 SWAP1 PUSH2 0x2719 JUMP JUMPDEST PUSH1 0x40 MLOAD DUP1 SWAP2 SUB SWAP1 REVERT JUMPDEST PUSH2 0x929 DUP6 DUP6 DUP6 DUP6 DUP6 PUSH2 0x12EC JUMP JUMPDEST POP POP POP POP POP JUMP JUMPDEST PUSH1 0x0 PUSH32 0x1FFC9A700000000000000000000000000000000000000000000000000000000 PUSH28 0xFFFFFFFFFFFFFFFFFFFFFFFFFFFFFFFFFFFFFFFFFFFFFFFFFFFFFFFF NOT AND DUP3 PUSH28 0xFFFFFFFFFFFFFFFFFFFFFFFFFFFFFFFFFFFFFFFFFFFFFFFFFFFFFFFF NOT AND EQ SWAP1 POP SWAP2 SWAP1 POP JUMP JUMPDEST DUP1 PUSH1 0x2 SWAP1 DUP2 PUSH2 0x9A9 SWAP2 SWAP1 PUSH2 0x2A89 JUMP JUMPDEST POP POP JUMP JUMPDEST PUSH1 0x0 PUSH20 0xFFFFFFFFFFFFFFFFFFFFFFFFFFFFFFFFFFFFFFFF AND DUP5 PUSH20 0xFFFFFFFFFFFFFFFFFFFFFFFFFFFFFFFFFFFFFFFF AND SUB PUSH2 0xA1C JUMPI PUSH1 0x40 MLOAD PUSH32 0x8C379A000000000000000000000000000000000000000000000000000000000 DUP2 MSTORE PUSH1 0x4 ADD PUSH2 0xA13 SWAP1 PUSH2 0x2BCD JUMP JUMPDEST PUSH1 0x40 MLOAD DUP1 SWAP2 SUB SWAP1 REVERT JUMPDEST PUSH1 0x0 PUSH2 0xA26 PUSH2 0xC2B JUMP JUMPDEST SWAP1 POP PUSH1 0x0 PUSH2 0xA33 DUP6 PUSH2 0x1587 JUMP JUMPDEST SWAP1 POP PUSH1 0x0 PUSH2 0xA40 DUP6 PUSH2 0x1587 JUMP JUMPDEST SWAP1 POP PUSH2 0xA51 DUP4 PUSH1 0x0 DUP10 DUP6 DUP6 DUP10 PUSH2 0x1601 JUMP JUMPDEST DUP5 PUSH1 0x0 DUP1 DUP9 DUP2 MSTORE PUSH1 0x20 ADD SWAP1 DUP2 MSTORE PUSH1 0x20 ADD PUSH1 0x0 KECCAK256 PUSH1 0x0 DUP10 PUSH20 0xFFFFFFFFFFFFFFFFFFFFFFFFFFFFFFFFFFFFFFFF AND PUSH20 0xFFFFFFFFFFFFFFFFFFFFFFFFFFFFFFFFFFFFFFFF AND DUP2 MSTORE PUSH1 0x20 ADD SWAP1 DUP2 MSTORE PUSH1 0x20 ADD PUSH1 0x0 KECCAK256 PUSH1 0x0 DUP3 DUP3 SLOAD PUSH2 0xAB0 SWAP2 SWAP1 PUSH2 0x2BED JUMP JUMPDEST SWAP3 POP POP DUP2 SWAP1 SSTORE POP DUP7 PUSH20 0xFFFFFFFFFFFFFFFFFFFFFFFFFFFFFFFFFFFFFFFF AND PUSH1 0x0 PUSH20 0xFFFFFFFFFFFFFFFFFFFFFFFFFFFFFFFFFFFFFFFF AND DUP5 PUSH20 0xFFFFFFFFFFFFFFFFFFFFFFFFFFFFFFFFFFFFFFFF AND PUSH32 0xC3D58168C5AE7397731D063D5BBF3D657854427343F4C083240F7AACAA2D0F62 DUP10 DUP10 PUSH1 0x40 MLOAD PUSH2 0xB2E SWAP3 SWAP2 SWAP1 PUSH2 0x2C21 JUMP JUMPDEST PUSH1 0x40 MLOAD DUP1 SWAP2 SUB SWAP1 LOG4 PUSH2 0xB45 DUP4 PUSH1 0x0 DUP10 DUP6 DUP6 DUP10 PUSH2 0x1609 JUMP JUMPDEST PUSH2 0xB54 DUP4 PUSH1 0x0 DUP10 DUP10 DUP10 DUP10 PUSH2 0x1611 JUMP JUMPDEST POP POP POP POP POP POP POP JUMP JUMPDEST PUSH1 0x60 PUSH1 0x0 PUSH1 0x1 PUSH2 0xB6C DUP5 PUSH2 0x17E8 JUMP JUMPDEST ADD SWAP1 POP PUSH1 0x0 DUP2 PUSH8 0xFFFFFFFFFFFFFFFF DUP2 GT ISZERO PUSH2 0xB8B JUMPI PUSH2 0xB8A PUSH2 0x1E39 JUMP JUMPDEST JUMPDEST PUSH1 0x40 MLOAD SWAP1 DUP1 DUP3 MSTORE DUP1 PUSH1 0x1F ADD PUSH1 0x1F NOT AND PUSH1 0x20 ADD DUP3 ADD PUSH1 0x40 MSTORE DUP1 ISZERO PUSH2 0xBBD JUMPI DUP2 PUSH1 0x20 ADD PUSH1 0x1 DUP3 MUL DUP1 CALLDATASIZE DUP4 CALLDATACOPY DUP1 DUP3 ADD SWAP2 POP POP SWAP1 POP JUMPDEST POP SWAP1 POP PUSH1 0x0 DUP3 PUSH1 0x20 ADD DUP3 ADD SWAP1 POP JUMPDEST PUSH1 0x1 ISZERO PUSH2 0xC20 JUMPI DUP1 DUP1 PUSH1 0x1 SWAP1 SUB SWAP2 POP POP PUSH32 0x3031323334353637383961626364656600000000000000000000000000000000 PUSH1 0xA DUP7 MOD BYTE DUP2 MSTORE8 PUSH1 0xA DUP6 DUP2 PUSH2 0xC14 JUMPI PUSH2 0xC13 PUSH2 0x2C4A JUMP JUMPDEST JUMPDEST DIV SWAP5 POP PUSH1 0x0 DUP6 SUB PUSH2 0xBCB JUMPI JUMPDEST DUP2 SWAP4 POP POP POP POP SWAP2 SWAP1 POP JUMP JUMPDEST PUSH1 0x0 CALLER SWAP1 POP SWAP1 JUMP JUMPDEST DUP2 MLOAD DUP4 MLOAD EQ PUSH2 0xC77 JUMPI PUSH1 0x40 MLOAD PUSH32 0x8C379A000000000000000000000000000000000000000000000000000000000 DUP2 MSTORE PUSH1 0x4 ADD PUSH2 0xC6E SWAP1 PUSH2 0x2CEB JUMP JUMPDEST PUSH1 0x40 MLOAD DUP1 SWAP2 SUB SWAP1 REVERT JUMPDEST PUSH1 0x0 PUSH20 0xFFFFFFFFFFFFFFFFFFFFFFFFFFFFFFFFFFFFFFFF AND DUP5 PUSH20 0xFFFFFFFFFFFFFFFFFFFFFFFFFFFFFFFFFFFFFFFF AND SUB PUSH2 0xCE6 JUMPI PUSH1 0x40 MLOAD PUSH32 0x8C379A000000000000000000000000000000000000000000000000000000000 DUP2 MSTORE PUSH1 0x4 ADD PUSH2 0xCDD SWAP1 PUSH2 0x2D7D JUMP JUMPDEST PUSH1 0x40 MLOAD DUP1 SWAP2 SUB SWAP1 REVERT JUMPDEST PUSH1 0x0 PUSH2 0xCF0 PUSH2 0xC2B JUMP JUMPDEST SWAP1 POP PUSH2 0xD00 DUP2 DUP8 DUP8 DUP8 DUP8 DUP8 PUSH2 0x1601 JUMP JUMPDEST PUSH1 0x0 JUMPDEST DUP5 MLOAD DUP2 LT ISZERO PUSH2 0xEB1 JUMPI PUSH1 0x0 DUP6 DUP3 DUP2 MLOAD DUP2 LT PUSH2 0xD21 JUMPI PUSH2 0xD20 PUSH2 0x27CB JUMP JUMPDEST JUMPDEST PUSH1 0x20 MUL PUSH1 0x20 ADD ADD MLOAD SWAP1 POP PUSH1 0x0 DUP6 DUP4 DUP2 MLOAD DUP2 LT PUSH2 0xD40 JUMPI PUSH2 0xD3F PUSH2 0x27CB JUMP JUMPDEST JUMPDEST PUSH1 0x20 MUL PUSH1 0x20 ADD ADD MLOAD SWAP1 POP PUSH1 0x0 DUP1 PUSH1 0x0 DUP5 DUP2 MSTORE PUSH1 0x20 ADD SWAP1 DUP2 MSTORE PUSH1 0x20 ADD PUSH1 0x0 KECCAK256 PUSH1 0x0 DUP12 PUSH20 0xFFFFFFFFFFFFFFFFFFFFFFFFFFFFFFFFFFFFFFFF AND PUSH20 0xFFFFFFFFFFFFFFFFFFFFFFFFFFFFFFFFFFFFFFFF AND DUP2 MSTORE PUSH1 0x20 ADD SWAP1 DUP2 MSTORE PUSH1 0x20 ADD PUSH1 0x0 KECCAK256 SLOAD SWAP1 POP DUP2 DUP2 LT ISZERO PUSH2 0xDE1 JUMPI PUSH1 0x40 MLOAD PUSH32 0x8C379A000000000000000000000000000000000000000000000000000000000 DUP2 MSTORE PUSH1 0x4 ADD PUSH2 0xDD8 SWAP1 PUSH2 0x2E0F JUMP JUMPDEST PUSH1 0x40 MLOAD DUP1 SWAP2 SUB SWAP1 REVERT JUMPDEST DUP2 DUP2 SUB PUSH1 0x0 DUP1 DUP6 DUP2 MSTORE PUSH1 0x20 ADD SWAP1 DUP2 MSTORE PUSH1 0x20 ADD PUSH1 0x0 KECCAK256 PUSH1 0x0 DUP13 PUSH20 0xFFFFFFFFFFFFFFFFFFFFFFFFFFFFFFFFFFFFFFFF AND PUSH20 0xFFFFFFFFFFFFFFFFFFFFFFFFFFFFFFFFFFFFFFFF AND DUP2 MSTORE PUSH1 0x20 ADD SWAP1 DUP2 MSTORE PUSH1 0x20 ADD PUSH1 0x0 KECCAK256 DUP2 SWAP1 SSTORE POP DUP2 PUSH1 0x0 DUP1 DUP6 DUP2 MSTORE PUSH1 0x20 ADD SWAP1 DUP2 MSTORE PUSH1 0x20 ADD PUSH1 0x0 KECCAK256 PUSH1 0x0 DUP12 PUSH20 0xFFFFFFFFFFFFFFFFFFFFFFFFFFFFFFFFFFFFFFFF AND PUSH20 0xFFFFFFFFFFFFFFFFFFFFFFFFFFFFFFFFFFFFFFFF AND DUP2 MSTORE PUSH1 0x20 ADD SWAP1 DUP2 MSTORE PUSH1 0x20 ADD PUSH1 0x0 KECCAK256 PUSH1 0x0 DUP3 DUP3 SLOAD PUSH2 0xE96 SWAP2 SWAP1 PUSH2 0x2BED JUMP JUMPDEST SWAP3 POP POP DUP2 SWAP1 SSTORE POP POP POP POP DUP1 PUSH2 0xEAA SWAP1 PUSH2 0x2829 JUMP JUMPDEST SWAP1 POP PUSH2 0xD03 JUMP JUMPDEST POP DUP5 PUSH20 0xFFFFFFFFFFFFFFFFFFFFFFFFFFFFFFFFFFFFFFFF AND DUP7 PUSH20 0xFFFFFFFFFFFFFFFFFFFFFFFFFFFFFFFFFFFFFFFF AND DUP3 PUSH20 0xFFFFFFFFFFFFFFFFFFFFFFFFFFFFFFFFFFFFFFFF AND PUSH32 0x4A39DC06D4C0DBC64B70AF90FD698A233A518AA5D07E595D983B8C0526C8F7FB DUP8 DUP8 PUSH1 0x40 MLOAD PUSH2 0xF28 SWAP3 SWAP2 SWAP1 PUSH2 0x2E2F JUMP JUMPDEST PUSH1 0x40 MLOAD DUP1 SWAP2 SUB SWAP1 LOG4 PUSH2 0xF3E DUP2 DUP8 DUP8 DUP8 DUP8 DUP8 PUSH2 0x1609 JUMP JUMPDEST PUSH2 0xF4C DUP2 DUP8 DUP8 DUP8 DUP8 DUP8 PUSH2 0x193B JUMP JUMPDEST POP POP POP POP POP POP JUMP JUMPDEST DUP2 PUSH20 0xFFFFFFFFFFFFFFFFFFFFFFFFFFFFFFFFFFFFFFFF AND DUP4 PUSH20 0xFFFFFFFFFFFFFFFFFFFFFFFFFFFFFFFFFFFFFFFF AND SUB PUSH2 0xFC2 JUMPI PUSH1 0x40 MLOAD PUSH32 0x8C379A000000000000000000000000000000000000000000000000000000000 DUP2 MSTORE PUSH1 0x4 ADD PUSH2 0xFB9 SWAP1 PUSH2 0x2ED8 JUMP JUMPDEST PUSH1 0x40 MLOAD DUP1 SWAP2 SUB SWAP1 REVERT JUMPDEST DUP1 PUSH1 0x1 PUSH1 0x0 DUP6 PUSH20 0xFFFFFFFFFFFFFFFFFFFFFFFFFFFFFFFFFFFFFFFF AND PUSH20 0xFFFFFFFFFFFFFFFFFFFFFFFFFFFFFFFFFFFFFFFF AND DUP2 MSTORE PUSH1 0x20 ADD SWAP1 DUP2 MSTORE PUSH1 0x20 ADD PUSH1 0x0 KECCAK256 PUSH1 0x0 DUP5 PUSH20 0xFFFFFFFFFFFFFFFFFFFFFFFFFFFFFFFFFFFFFFFF AND PUSH20 0xFFFFFFFFFFFFFFFFFFFFFFFFFFFFFFFFFFFFFFFF AND DUP2 MSTORE PUSH1 0x20 ADD SWAP1 DUP2 MSTORE PUSH1 0x20 ADD PUSH1 0x0 KECCAK256 PUSH1 0x0 PUSH2 0x100 EXP DUP2 SLOAD DUP2 PUSH1 0xFF MUL NOT AND SWAP1 DUP4 ISZERO ISZERO MUL OR SWAP1 SSTORE POP DUP2 PUSH20 0xFFFFFFFFFFFFFFFFFFFFFFFFFFFFFFFFFFFFFFFF AND DUP4 PUSH20 0xFFFFFFFFFFFFFFFFFFFFFFFFFFFFFFFFFFFFFFFF AND PUSH32 0x17307EAB39AB6107E8899845AD3D59BD9653F200F220920489CA2B5937696C31 DUP4 PUSH1 0x40 MLOAD PUSH2 0x10B3 SWAP2 SWAP1 PUSH2 0x1CE7 JUMP JUMPDEST PUSH1 0x40 MLOAD DUP1 SWAP2 SUB SWAP1 LOG3 POP POP POP JUMP JUMPDEST PUSH1 0x0 PUSH20 0xFFFFFFFFFFFFFFFFFFFFFFFFFFFFFFFFFFFFFFFF AND DUP5 PUSH20 0xFFFFFFFFFFFFFFFFFFFFFFFFFFFFFFFFFFFFFFFF AND SUB PUSH2 0x112F JUMPI PUSH1 0x40 MLOAD PUSH32 0x8C379A000000000000000000000000000000000000000000000000000000000 DUP2 MSTORE PUSH1 0x4 ADD PUSH2 0x1126 SWAP1 PUSH2 0x2BCD JUMP JUMPDEST PUSH1 0x40 MLOAD DUP1 SWAP2 SUB SWAP1 REVERT JUMPDEST DUP2 MLOAD DUP4 MLOAD EQ PUSH2 0x1173 JUMPI PUSH1 0x40 MLOAD PUSH32 0x8C379A000000000000000000000000000000000000000000000000000000000 DUP2 MSTORE PUSH1 0x4 ADD PUSH2 0x116A SWAP1 PUSH2 0x2CEB JUMP JUMPDEST PUSH1 0x40 MLOAD DUP1 SWAP2 SUB SWAP1 REVERT JUMPDEST PUSH1 0x0 PUSH2 0x117D PUSH2 0xC2B JUMP JUMPDEST SWAP1 POP PUSH2 0x118E DUP2 PUSH1 0x0 DUP8 DUP8 DUP8 DUP8 PUSH2 0x1601 JUMP JUMPDEST PUSH1 0x0 JUMPDEST DUP5 MLOAD DUP2 LT ISZERO PUSH2 0x1247 JUMPI DUP4 DUP2 DUP2 MLOAD DUP2 LT PUSH2 0x11AD JUMPI PUSH2 0x11AC PUSH2 0x27CB JUMP JUMPDEST JUMPDEST PUSH1 0x20 MUL PUSH1 0x20 ADD ADD MLOAD PUSH1 0x0 DUP1 DUP8 DUP5 DUP2 MLOAD DUP2 LT PUSH2 0x11CB JUMPI PUSH2 0x11CA PUSH2 0x27CB JUMP JUMPDEST JUMPDEST PUSH1 0x20 MUL PUSH1 0x20 ADD ADD MLOAD DUP2 MSTORE PUSH1 0x20 ADD SWAP1 DUP2 MSTORE PUSH1 0x20 ADD PUSH1 0x0 KECCAK256 PUSH1 0x0 DUP9 PUSH20 0xFFFFFFFFFFFFFFFFFFFFFFFFFFFFFFFFFFFFFFFF AND PUSH20 0xFFFFFFFFFFFFFFFFFFFFFFFFFFFFFFFFFFFFFFFF AND DUP2 MSTORE PUSH1 0x20 ADD SWAP1 DUP2 MSTORE PUSH1 0x20 ADD PUSH1 0x0 KECCAK256 PUSH1 0x0 DUP3 DUP3 SLOAD PUSH2 0x122D SWAP2 SWAP1 PUSH2 0x2BED JUMP JUMPDEST SWAP3 POP POP DUP2 SWAP1 SSTORE POP DUP1 DUP1 PUSH2 0x123F SWAP1 PUSH2 0x2829 JUMP JUMPDEST SWAP2 POP POP PUSH2 0x1191 JUMP JUMPDEST POP DUP5 PUSH20 0xFFFFFFFFFFFFFFFFFFFFFFFFFFFFFFFFFFFFFFFF AND PUSH1 0x0 PUSH20 0xFFFFFFFFFFFFFFFFFFFFFFFFFFFFFFFFFFFFFFFF AND DUP3 PUSH20 0xFFFFFFFFFFFFFFFFFFFFFFFFFFFFFFFFFFFFFFFF AND PUSH32 0x4A39DC06D4C0DBC64B70AF90FD698A233A518AA5D07E595D983B8C0526C8F7FB DUP8 DUP8 PUSH1 0x40 MLOAD PUSH2 0x12BF SWAP3 SWAP2 SWAP1 PUSH2 0x2E2F JUMP JUMPDEST PUSH1 0x40 MLOAD DUP1 SWAP2 SUB SWAP1 LOG4 PUSH2 0x12D6 DUP2 PUSH1 0x0 DUP8 DUP8 DUP8 DUP8 PUSH2 0x1609 JUMP JUMPDEST PUSH2 0x12E5 DUP2 PUSH1 0x0 DUP8 DUP8 DUP8 DUP8 PUSH2 0x193B JUMP JUMPDEST POP POP POP POP POP JUMP JUMPDEST PUSH1 0x0 PUSH20 0xFFFFFFFFFFFFFFFFFFFFFFFFFFFFFFFFFFFFFFFF AND DUP5 PUSH20 0xFFFFFFFFFFFFFFFFFFFFFFFFFFFFFFFFFFFFFFFF AND SUB PUSH2 0x135B JUMPI PUSH1 0x40 MLOAD PUSH32 0x8C379A000000000000000000000000000000000000000000000000000000000 DUP2 MSTORE PUSH1 0x4 ADD PUSH2 0x1352 SWAP1 PUSH2 0x2D7D JUMP JUMPDEST PUSH1 0x40 MLOAD DUP1 SWAP2 SUB SWAP1 REVERT JUMPDEST PUSH1 0x0 PUSH2 0x1365 PUSH2 0xC2B JUMP JUMPDEST SWAP1 POP PUSH1 0x0 PUSH2 0x1372 DUP6 PUSH2 0x1587 JUMP JUMPDEST SWAP1 POP PUSH1 0x0 PUSH2 0x137F DUP6 PUSH2 0x1587 JUMP JUMPDEST SWAP1 POP PUSH2 0x138F DUP4 DUP10 DUP10 DUP6 DUP6 DUP10 PUSH2 0x1601 JUMP JUMPDEST PUSH1 0x0 DUP1 PUSH1 0x0 DUP9 DUP2 MSTORE PUSH1 0x20 ADD SWAP1 DUP2 MSTORE PUSH1 0x20 ADD PUSH1 0x0 KECCAK256 PUSH1 0x0 DUP11 PUSH20 0xFFFFFFFFFFFFFFFFFFFFFFFFFFFFFFFFFFFFFFFF AND PUSH20 0xFFFFFFFFFFFFFFFFFFFFFFFFFFFFFFFFFFFFFFFF AND DUP2 MSTORE PUSH1 0x20 ADD SWAP1 DUP2 MSTORE PUSH1 0x20 ADD PUSH1 0x0 KECCAK256 SLOAD SWAP1 POP DUP6 DUP2 LT ISZERO PUSH2 0x1426 JUMPI PUSH1 0x40 MLOAD PUSH32 0x8C379A000000000000000000000000000000000000000000000000000000000 DUP2 MSTORE PUSH1 0x4 ADD PUSH2 0x141D SWAP1 PUSH2 0x2E0F JUMP JUMPDEST PUSH1 0x40 MLOAD DUP1 SWAP2 SUB SWAP1 REVERT JUMPDEST DUP6 DUP2 SUB PUSH1 0x0 DUP1 DUP10 DUP2 MSTORE PUSH1 0x20 ADD SWAP1 DUP2 MSTORE PUSH1 0x20 ADD PUSH1 0x0 KECCAK256 PUSH1 0x0 DUP12 PUSH20 0xFFFFFFFFFFFFFFFFFFFFFFFFFFFFFFFFFFFFFFFF AND PUSH20 0xFFFFFFFFFFFFFFFFFFFFFFFFFFFFFFFFFFFFFFFF AND DUP2 MSTORE PUSH1 0x20 ADD SWAP1 DUP2 MSTORE PUSH1 0x20 ADD PUSH1 0x0 KECCAK256 DUP2 SWAP1 SSTORE POP DUP6 PUSH1 0x0 DUP1 DUP10 DUP2 MSTORE PUSH1 0x20 ADD SWAP1 DUP2 MSTORE PUSH1 0x20 ADD PUSH1 0x0 KECCAK256 PUSH1 0x0 DUP11 PUSH20 0xFFFFFFFFFFFFFFFFFFFFFFFFFFFFFFFFFFFFFFFF AND PUSH20 0xFFFFFFFFFFFFFFFFFFFFFFFFFFFFFFFFFFFFFFFF AND DUP2 MSTORE PUSH1 0x20 ADD SWAP1 DUP2 MSTORE PUSH1 0x20 ADD PUSH1 0x0 KECCAK256 PUSH1 0x0 DUP3 DUP3 SLOAD PUSH2 0x14DB SWAP2 SWAP1 PUSH2 0x2BED JUMP JUMPDEST SWAP3 POP POP DUP2 SWAP1 SSTORE POP DUP8 PUSH20 0xFFFFFFFFFFFFFFFFFFFFFFFFFFFFFFFFFFFFFFFF AND DUP10 PUSH20 0xFFFFFFFFFFFFFFFFFFFFFFFFFFFFFFFFFFFFFFFF AND DUP6 PUSH20 0xFFFFFFFFFFFFFFFFFFFFFFFFFFFFFFFFFFFFFFFF AND PUSH32 0xC3D58168C5AE7397731D063D5BBF3D657854427343F4C083240F7AACAA2D0F62 DUP11 DUP11 PUSH1 0x40 MLOAD PUSH2 0x1558 SWAP3 SWAP2 SWAP1 PUSH2 0x2C21 JUMP JUMPDEST PUSH1 0x40 MLOAD DUP1 SWAP2 SUB SWAP1 LOG4 PUSH2 0x156E DUP5 DUP11 DUP11 DUP7 DUP7 DUP11 PUSH2 0x1609 JUMP JUMPDEST PUSH2 0x157C DUP5 DUP11 DUP11 DUP11 DUP11 DUP11 PUSH2 0x1611 JUMP JUMPDEST POP POP POP POP POP POP POP POP POP JUMP JUMPDEST PUSH1 0x60 PUSH1 0x0 PUSH1 0x1 PUSH8 0xFFFFFFFFFFFFFFFF DUP2 GT ISZERO PUSH2 0x15A6 JUMPI PUSH2 0x15A5 PUSH2 0x1E39 JUMP JUMPDEST JUMPDEST PUSH1 0x40 MLOAD SWAP1 DUP1 DUP3 MSTORE DUP1 PUSH1 0x20 MUL PUSH1 0x20 ADD DUP3 ADD PUSH1 0x40 MSTORE DUP1 ISZERO PUSH2 0x15D4 JUMPI DUP2 PUSH1 0x20 ADD PUSH1 0x20 DUP3 MUL DUP1 CALLDATASIZE DUP4 CALLDATACOPY DUP1 DUP3 ADD SWAP2 POP POP SWAP1 POP JUMPDEST POP SWAP1 POP DUP3 DUP2 PUSH1 0x0 DUP2 MLOAD DUP2 LT PUSH2 0x15EC JUMPI PUSH2 0x15EB PUSH2 0x27CB JUMP JUMPDEST JUMPDEST PUSH1 0x20 MUL PUSH1 0x20 ADD ADD DUP2 DUP2 MSTORE POP POP DUP1 SWAP2 POP POP SWAP2 SWAP1 POP JUMP JUMPDEST POP POP POP POP POP POP JUMP JUMPDEST POP POP POP POP POP POP JUMP JUMPDEST PUSH2 0x1630 DUP5 PUSH20 0xFFFFFFFFFFFFFFFFFFFFFFFFFFFFFFFFFFFFFFFF AND PUSH2 0x1B12 JUMP JUMPDEST ISZERO PUSH2 0x17E0 JUMPI DUP4 PUSH20 0xFFFFFFFFFFFFFFFFFFFFFFFFFFFFFFFFFFFFFFFF AND PUSH4 0xF23A6E61 DUP8 DUP8 DUP7 DUP7 DUP7 PUSH1 0x40 MLOAD DUP7 PUSH4 0xFFFFFFFF AND PUSH1 0xE0 SHL DUP2 MSTORE PUSH1 0x4 ADD PUSH2 0x1676 SWAP6 SWAP5 SWAP4 SWAP3 SWAP2 SWAP1 PUSH2 0x2F5C JUMP JUMPDEST PUSH1 0x20 PUSH1 0x40 MLOAD DUP1 DUP4 SUB DUP2 PUSH1 0x0 DUP8 GAS CALL SWAP3 POP POP POP DUP1 ISZERO PUSH2 0x16B2 JUMPI POP PUSH1 0x40 MLOAD RETURNDATASIZE PUSH1 0x1F NOT PUSH1 0x1F DUP3 ADD AND DUP3 ADD DUP1 PUSH1 0x40 MSTORE POP DUP2 ADD SWAP1 PUSH2 0x16AF SWAP2 SWAP1 PUSH2 0x2FCB JUMP JUMPDEST PUSH1 0x1 JUMPDEST PUSH2 0x1757 JUMPI PUSH2 0x16BE PUSH2 0x3005 JUMP JUMPDEST DUP1 PUSH4 0x8C379A0 SUB PUSH2 0x171A JUMPI POP PUSH2 0x16D2 PUSH2 0x3027 JUMP JUMPDEST DUP1 PUSH2 0x16DD JUMPI POP PUSH2 0x171C JUMP JUMPDEST DUP1 PUSH1 0x40 MLOAD PUSH32 0x8C379A000000000000000000000000000000000000000000000000000000000 DUP2 MSTORE PUSH1 0x4 ADD PUSH2 0x1711 SWAP2 SWAP1 PUSH2 0x1DBF JUMP JUMPDEST PUSH1 0x40 MLOAD DUP1 SWAP2 SUB SWAP1 REVERT JUMPDEST POP JUMPDEST PUSH1 0x40 MLOAD PUSH32 0x8C379A000000000000000000000000000000000000000000000000000000000 DUP2 MSTORE PUSH1 0x4 ADD PUSH2 0x174E SWAP1 PUSH2 0x3129 JUMP JUMPDEST PUSH1 0x40 MLOAD DUP1 SWAP2 SUB SWAP1 REVERT JUMPDEST PUSH4 0xF23A6E61 PUSH1 0xE0 SHL PUSH28 0xFFFFFFFFFFFFFFFFFFFFFFFFFFFFFFFFFFFFFFFFFFFFFFFFFFFFFFFF NOT AND DUP2 PUSH28 0xFFFFFFFFFFFFFFFFFFFFFFFFFFFFFFFFFFFFFFFFFFFFFFFFFFFFFFFF NOT AND EQ PUSH2 0x17DE JUMPI PUSH1 0x40 MLOAD PUSH32 0x8C379A000000000000000000000000000000000000000000000000000000000 DUP2 MSTORE PUSH1 0x4 ADD PUSH2 0x17D5 SWAP1 PUSH2 0x31BB JUMP JUMPDEST PUSH1 0x40 MLOAD DUP1 SWAP2 SUB SWAP1 REVERT JUMPDEST POP JUMPDEST POP POP POP POP POP POP JUMP JUMPDEST PUSH1 0x0 DUP1 PUSH1 0x0 SWAP1 POP PUSH27 0x184F03E93FF9F4DAA797ED6E38ED64BF6A1F010000000000000000 DUP4 LT PUSH2 0x1846 JUMPI PUSH27 0x184F03E93FF9F4DAA797ED6E38ED64BF6A1F010000000000000000 DUP4 DUP2 PUSH2 0x183C JUMPI PUSH2 0x183B PUSH2 0x2C4A JUMP JUMPDEST JUMPDEST DIV SWAP3 POP PUSH1 0x40 DUP2 ADD SWAP1 POP JUMPDEST PUSH14 0x4EE2D6D415B85ACEF8100000000 DUP4 LT PUSH2 0x1883 JUMPI PUSH14 0x4EE2D6D415B85ACEF8100000000 DUP4 DUP2 PUSH2 0x1879 JUMPI PUSH2 0x1878 PUSH2 0x2C4A JUMP JUMPDEST JUMPDEST DIV SWAP3 POP PUSH1 0x20 DUP2 ADD SWAP1 POP JUMPDEST PUSH7 0x2386F26FC10000 DUP4 LT PUSH2 0x18B2 JUMPI PUSH7 0x2386F26FC10000 DUP4 DUP2 PUSH2 0x18A8 JUMPI PUSH2 0x18A7 PUSH2 0x2C4A JUMP JUMPDEST JUMPDEST DIV SWAP3 POP PUSH1 0x10 DUP2 ADD SWAP1 POP JUMPDEST PUSH4 0x5F5E100 DUP4 LT PUSH2 0x18DB JUMPI PUSH4 0x5F5E100 DUP4 DUP2 PUSH2 0x18D1 JUMPI PUSH2 0x18D0 PUSH2 0x2C4A JUMP JUMPDEST JUMPDEST DIV SWAP3 POP PUSH1 0x8 DUP2 ADD SWAP1 POP JUMPDEST PUSH2 0x2710 DUP4 LT PUSH2 0x1900 JUMPI PUSH2 0x2710 DUP4 DUP2 PUSH2 0x18F6 JUMPI PUSH2 0x18F5 PUSH2 0x2C4A JUMP JUMPDEST JUMPDEST DIV SWAP3 POP PUSH1 0x4 DUP2 ADD SWAP1 POP JUMPDEST PUSH1 0x64 DUP4 LT PUSH2 0x1923 JUMPI PUSH1 0x64 DUP4 DUP2 PUSH2 0x1919 JUMPI PUSH2 0x1918 PUSH2 0x2C4A JUMP JUMPDEST JUMPDEST DIV SWAP3 POP PUSH1 0x2 DUP2 ADD SWAP1 POP JUMPDEST PUSH1 0xA DUP4 LT PUSH2 0x1932 JUMPI PUSH1 0x1 DUP2 ADD SWAP1 POP JUMPDEST DUP1 SWAP2 POP POP SWAP2 SWAP1 POP JUMP JUMPDEST PUSH2 0x195A DUP5 PUSH20 0xFFFFFFFFFFFFFFFFFFFFFFFFFFFFFFFFFFFFFFFF AND PUSH2 0x1B12 JUMP JUMPDEST ISZERO PUSH2 0x1B0A JUMPI DUP4 PUSH20 0xFFFFFFFFFFFFFFFFFFFFFFFFFFFFFFFFFFFFFFFF AND PUSH4 0xBC197C81 DUP8 DUP8 DUP7 DUP7 DUP7 PUSH1 0x40 MLOAD DUP7 PUSH4 0xFFFFFFFF AND PUSH1 0xE0 SHL DUP2 MSTORE PUSH1 0x4 ADD PUSH2 0x19A0 SWAP6 SWAP5 SWAP4 SWAP3 SWAP2 SWAP1 PUSH2 0x31DB JUMP JUMPDEST PUSH1 0x20 PUSH1 0x40 MLOAD DUP1 DUP4 SUB DUP2 PUSH1 0x0 DUP8 GAS CALL SWAP3 POP POP POP DUP1 ISZERO PUSH2 0x19DC JUMPI POP PUSH1 0x40 MLOAD RETURNDATASIZE PUSH1 0x1F NOT PUSH1 0x1F DUP3 ADD AND DUP3 ADD DUP1 PUSH1 0x40 MSTORE POP DUP2 ADD SWAP1 PUSH2 0x19D9 SWAP2 SWAP1 PUSH2 0x2FCB JUMP JUMPDEST PUSH1 0x1 JUMPDEST PUSH2 0x1A81 JUMPI PUSH2 0x19E8 PUSH2 0x3005 JUMP JUMPDEST DUP1 PUSH4 0x8C379A0 SUB PUSH2 0x1A44 JUMPI POP PUSH2 0x19FC PUSH2 0x3027 JUMP JUMPDEST DUP1 PUSH2 0x1A07 JUMPI POP PUSH2 0x1A46 JUMP JUMPDEST DUP1 PUSH1 0x40 MLOAD PUSH32 0x8C379A000000000000000000000000000000000000000000000000000000000 DUP2 MSTORE PUSH1 0x4 ADD PUSH2 0x1A3B SWAP2 SWAP1 PUSH2 0x1DBF JUMP JUMPDEST PUSH1 0x40 MLOAD DUP1 SWAP2 SUB SWAP1 REVERT JUMPDEST POP JUMPDEST PUSH1 0x40 MLOAD PUSH32 0x8C379A000000000000000000000000000000000000000000000000000000000 DUP2 MSTORE PUSH1 0x4 ADD PUSH2 0x1A78 SWAP1 PUSH2 0x3129 JUMP JUMPDEST PUSH1 0x40 MLOAD DUP1 SWAP2 SUB SWAP1 REVERT JUMPDEST PUSH4 0xBC197C81 PUSH1 0xE0 SHL PUSH28 0xFFFFFFFFFFFFFFFFFFFFFFFFFFFFFFFFFFFFFFFFFFFFFFFFFFFFFFFF NOT AND DUP2 PUSH28 0xFFFFFFFFFFFFFFFFFFFFFFFFFFFFFFFFFFFFFFFFFFFFFFFFFFFFFFFF NOT AND EQ PUSH2 0x1B08 JUMPI PUSH1 0x40 MLOAD PUSH32 0x8C379A000000000000000000000000000000000000000000000000000000000 DUP2 MSTORE PUSH1 0x4 ADD PUSH2 0x1AFF SWAP1 PUSH2 0x31BB JUMP JUMPDEST PUSH1 0x40 MLOAD DUP1 SWAP2 SUB SWAP1 REVERT JUMPDEST POP JUMPDEST POP POP POP POP POP POP JUMP JUMPDEST PUSH1 0x0 DUP1 DUP3 PUSH20 0xFFFFFFFFFFFFFFFFFFFFFFFFFFFFFFFFFFFFFFFF AND EXTCODESIZE GT SWAP1 POP SWAP2 SWAP1 POP JUMP JUMPDEST PUSH1 0x0 PUSH1 0x40 MLOAD SWAP1 POP SWAP1 JUMP JUMPDEST PUSH1 0x0 DUP1 REVERT JUMPDEST PUSH1 0x0 DUP1 REVERT JUMPDEST PUSH1 0x0 PUSH20 0xFFFFFFFFFFFFFFFFFFFFFFFFFFFFFFFFFFFFFFFF DUP3 AND SWAP1 POP SWAP2 SWAP1 POP JUMP JUMPDEST PUSH1 0x0 PUSH2 0x1B74 DUP3 PUSH2 0x1B49 JUMP JUMPDEST SWAP1 POP SWAP2 SWAP1 POP JUMP JUMPDEST PUSH2 0x1B84 DUP2 PUSH2 0x1B69 JUMP JUMPDEST DUP2 EQ PUSH2 0x1B8F JUMPI PUSH1 0x0 DUP1 REVERT JUMPDEST POP JUMP JUMPDEST PUSH1 0x0 DUP2 CALLDATALOAD SWAP1 POP PUSH2 0x1BA1 DUP2 PUSH2 0x1B7B JUMP JUMPDEST SWAP3 SWAP2 POP POP JUMP JUMPDEST PUSH1 0x0 DUP2 SWAP1 POP SWAP2 SWAP1 POP JUMP JUMPDEST PUSH2 0x1BBA DUP2 PUSH2 0x1BA7 JUMP JUMPDEST DUP2 EQ PUSH2 0x1BC5 JUMPI PUSH1 0x0 DUP1 REVERT JUMPDEST POP JUMP JUMPDEST PUSH1 0x0 DUP2 CALLDATALOAD SWAP1 POP PUSH2 0x1BD7 DUP2 PUSH2 0x1BB1 JUMP JUMPDEST SWAP3 SWAP2 POP POP JUMP JUMPDEST PUSH1 0x0 DUP1 PUSH1 0x40 DUP4 DUP6 SUB SLT ISZERO PUSH2 0x1BF4 JUMPI PUSH2 0x1BF3 PUSH2 0x1B3F JUMP JUMPDEST JUMPDEST PUSH1 0x0 PUSH2 0x1C02 DUP6 DUP3 DUP7 ADD PUSH2 0x1B92 JUMP JUMPDEST SWAP3 POP POP PUSH1 0x20 PUSH2 0x1C13 DUP6 DUP3 DUP7 ADD PUSH2 0x1BC8 JUMP JUMPDEST SWAP2 POP POP SWAP3 POP SWAP3 SWAP1 POP JUMP JUMPDEST PUSH2 0x1C26 DUP2 PUSH2 0x1BA7 JUMP JUMPDEST DUP3 MSTORE POP POP JUMP JUMPDEST PUSH1 0x0 PUSH1 0x20 DUP3 ADD SWAP1 POP PUSH2 0x1C41 PUSH1 0x0 DUP4 ADD DUP5 PUSH2 0x1C1D JUMP JUMPDEST SWAP3 SWAP2 POP POP JUMP JUMPDEST PUSH1 0x0 PUSH32 0xFFFFFFFF00000000000000000000000000000000000000000000000000000000 DUP3 AND SWAP1 POP SWAP2 SWAP1 POP JUMP JUMPDEST PUSH2 0x1C7C DUP2 PUSH2 0x1C47 JUMP JUMPDEST DUP2 EQ PUSH2 0x1C87 JUMPI PUSH1 0x0 DUP1 REVERT JUMPDEST POP JUMP JUMPDEST PUSH1 0x0 DUP2 CALLDATALOAD SWAP1 POP PUSH2 0x1C99 DUP2 PUSH2 0x1C73 JUMP JUMPDEST SWAP3 SWAP2 POP POP JUMP JUMPDEST PUSH1 0x0 PUSH1 0x20 DUP3 DUP5 SUB SLT ISZERO PUSH2 0x1CB5 JUMPI PUSH2 0x1CB4 PUSH2 0x1B3F JUMP JUMPDEST JUMPDEST PUSH1 0x0 PUSH2 0x1CC3 DUP5 DUP3 DUP6 ADD PUSH2 0x1C8A JUMP JUMPDEST SWAP2 POP POP SWAP3 SWAP2 POP POP JUMP JUMPDEST PUSH1 0x0 DUP2 ISZERO ISZERO SWAP1 POP SWAP2 SWAP1 POP JUMP JUMPDEST PUSH2 0x1CE1 DUP2 PUSH2 0x1CCC JUMP JUMPDEST DUP3 MSTORE POP POP JUMP JUMPDEST PUSH1 0x0 PUSH1 0x20 DUP3 ADD SWAP1 POP PUSH2 0x1CFC PUSH1 0x0 DUP4 ADD DUP5 PUSH2 0x1CD8 JUMP JUMPDEST SWAP3 SWAP2 POP POP JUMP JUMPDEST PUSH1 0x0 PUSH1 0x20 DUP3 DUP5 SUB SLT ISZERO PUSH2 0x1D18 JUMPI PUSH2 0x1D17 PUSH2 0x1B3F JUMP JUMPDEST JUMPDEST PUSH1 0x0 PUSH2 0x1D26 DUP5 DUP3 DUP6 ADD PUSH2 0x1BC8 JUMP JUMPDEST SWAP2 POP POP SWAP3 SWAP2 POP POP JUMP JUMPDEST PUSH1 0x0 DUP2 MLOAD SWAP1 POP SWAP2 SWAP1 POP JUMP JUMPDEST PUSH1 0x0 DUP3 DUP3 MSTORE PUSH1 0x20 DUP3 ADD SWAP1 POP SWAP3 SWAP2 POP POP JUMP JUMPDEST PUSH1 0x0 JUMPDEST DUP4 DUP2 LT ISZERO PUSH2 0x1D69 JUMPI DUP1 DUP3 ADD MLOAD DUP2 DUP5 ADD MSTORE PUSH1 0x20 DUP2 ADD SWAP1 POP PUSH2 0x1D4E JUMP JUMPDEST PUSH1 0x0 DUP5 DUP5 ADD MSTORE POP POP POP POP JUMP JUMPDEST PUSH1 0x0 PUSH1 0x1F NOT PUSH1 0x1F DUP4 ADD AND SWAP1 POP SWAP2 SWAP1 POP JUMP JUMPDEST PUSH1 0x0 PUSH2 0x1D91 DUP3 PUSH2 0x1D2F JUMP JUMPDEST PUSH2 0x1D9B DUP2 DUP6 PUSH2 0x1D3A JUMP JUMPDEST SWAP4 POP PUSH2 0x1DAB DUP2 DUP6 PUSH1 0x20 DUP7 ADD PUSH2 0x1D4B JUMP JUMPDEST PUSH2 0x1DB4 DUP2 PUSH2 0x1D75 JUMP JUMPDEST DUP5 ADD SWAP2 POP POP SWAP3 SWAP2 POP POP JUMP JUMPDEST PUSH1 0x0 PUSH1 0x20 DUP3 ADD SWAP1 POP DUP2 DUP2 SUB PUSH1 0x0 DUP4 ADD MSTORE PUSH2 0x1DD9 DUP2 DUP5 PUSH2 0x1D86 JUMP JUMPDEST SWAP1 POP SWAP3 SWAP2 POP POP JUMP JUMPDEST PUSH1 0x0 DUP1 PUSH1 0x0 PUSH1 0x60 DUP5 DUP7 SUB SLT ISZERO PUSH2 0x1DFA JUMPI PUSH2 0x1DF9 PUSH2 0x1B3F JUMP JUMPDEST JUMPDEST PUSH1 0x0 PUSH2 0x1E08 DUP7 DUP3 DUP8 ADD PUSH2 0x1B92 JUMP JUMPDEST SWAP4 POP POP PUSH1 0x20 PUSH2 0x1E19 DUP7 DUP3 DUP8 ADD PUSH2 0x1BC8 JUMP JUMPDEST SWAP3 POP POP PUSH1 0x40 PUSH2 0x1E2A DUP7 DUP3 DUP8 ADD PUSH2 0x1BC8 JUMP JUMPDEST SWAP2 POP POP SWAP3 POP SWAP3 POP SWAP3 JUMP JUMPDEST PUSH1 0x0 DUP1 REVERT JUMPDEST PUSH32 0x4E487B7100000000000000000000000000000000000000000000000000000000 PUSH1 0x0 MSTORE PUSH1 0x41 PUSH1 0x4 MSTORE PUSH1 0x24 PUSH1 0x0 REVERT JUMPDEST PUSH2 0x1E71 DUP3 PUSH2 0x1D75 JUMP JUMPDEST DUP2 ADD DUP2 DUP2 LT PUSH8 0xFFFFFFFFFFFFFFFF DUP3 GT OR ISZERO PUSH2 0x1E90 JUMPI PUSH2 0x1E8F PUSH2 0x1E39 JUMP JUMPDEST JUMPDEST DUP1 PUSH1 0x40 MSTORE POP POP POP JUMP JUMPDEST PUSH1 0x0 PUSH2 0x1EA3 PUSH2 0x1B35 JUMP JUMPDEST SWAP1 POP PUSH2 0x1EAF DUP3 DUP3 PUSH2 0x1E68 JUMP JUMPDEST SWAP2 SWAP1 POP JUMP JUMPDEST PUSH1 0x0 PUSH8 0xFFFFFFFFFFFFFFFF DUP3 GT ISZERO PUSH2 0x1ECF JUMPI PUSH2 0x1ECE PUSH2 0x1E39 JUMP JUMPDEST JUMPDEST PUSH1 0x20 DUP3 MUL SWAP1 POP PUSH1 0x20 DUP2 ADD SWAP1 POP SWAP2 SWAP1 POP JUMP JUMPDEST PUSH1 0x0 DUP1 REVERT JUMPDEST PUSH1 0x0 PUSH2 0x1EF8 PUSH2 0x1EF3 DUP5 PUSH2 0x1EB4 JUMP JUMPDEST PUSH2 0x1E99 JUMP JUMPDEST SWAP1 POP DUP1 DUP4 DUP3 MSTORE PUSH1 0x20 DUP3 ADD SWAP1 POP PUSH1 0x20 DUP5 MUL DUP4 ADD DUP6 DUP2 GT ISZERO PUSH2 0x1F1B JUMPI PUSH2 0x1F1A PUSH2 0x1EE0 JUMP JUMPDEST JUMPDEST DUP4 JUMPDEST DUP2 DUP2 LT ISZERO PUSH2 0x1F44 JUMPI DUP1 PUSH2 0x1F30 DUP9 DUP3 PUSH2 0x1BC8 JUMP JUMPDEST DUP5 MSTORE PUSH1 0x20 DUP5 ADD SWAP4 POP POP PUSH1 0x20 DUP2 ADD SWAP1 POP PUSH2 0x1F1D JUMP JUMPDEST POP POP POP SWAP4 SWAP3 POP POP POP JUMP JUMPDEST PUSH1 0x0 DUP3 PUSH1 0x1F DUP4 ADD SLT PUSH2 0x1F63 JUMPI PUSH2 0x1F62 PUSH2 0x1E34 JUMP JUMPDEST JUMPDEST DUP2 CALLDATALOAD PUSH2 0x1F73 DUP5 DUP3 PUSH1 0x20 DUP7 ADD PUSH2 0x1EE5 JUMP JUMPDEST SWAP2 POP POP SWAP3 SWAP2 POP POP JUMP JUMPDEST PUSH1 0x0 DUP1 REVERT JUMPDEST PUSH1 0x0 PUSH8 0xFFFFFFFFFFFFFFFF DUP3 GT ISZERO PUSH2 0x1F9C JUMPI PUSH2 0x1F9B PUSH2 0x1E39 JUMP JUMPDEST JUMPDEST PUSH2 0x1FA5 DUP3 PUSH2 0x1D75 JUMP JUMPDEST SWAP1 POP PUSH1 0x20 DUP2 ADD SWAP1 POP SWAP2 SWAP1 POP JUMP JUMPDEST DUP3 DUP2 DUP4 CALLDATACOPY PUSH1 0x0 DUP4 DUP4 ADD MSTORE POP POP POP JUMP JUMPDEST PUSH1 0x0 PUSH2 0x1FD4 PUSH2 0x1FCF DUP5 PUSH2 0x1F81 JUMP JUMPDEST PUSH2 0x1E99 JUMP JUMPDEST SWAP1 POP DUP3 DUP2 MSTORE PUSH1 0x20 DUP2 ADD DUP5 DUP5 DUP5 ADD GT ISZERO PUSH2 0x1FF0 JUMPI PUSH2 0x1FEF PUSH2 0x1F7C JUMP JUMPDEST JUMPDEST PUSH2 0x1FFB DUP5 DUP3 DUP6 PUSH2 0x1FB2 JUMP JUMPDEST POP SWAP4 SWAP3 POP POP POP JUMP JUMPDEST PUSH1 0x0 DUP3 PUSH1 0x1F DUP4 ADD SLT PUSH2 0x2018 JUMPI PUSH2 0x2017 PUSH2 0x1E34 JUMP JUMPDEST JUMPDEST DUP2 CALLDATALOAD PUSH2 0x2028 DUP5 DUP3 PUSH1 0x20 DUP7 ADD PUSH2 0x1FC1 JUMP JUMPDEST SWAP2 POP POP SWAP3 SWAP2 POP POP JUMP JUMPDEST PUSH1 0x0 DUP1 PUSH1 0x0 DUP1 PUSH1 0x0 PUSH1 0xA0 DUP7 DUP9 SUB SLT ISZERO PUSH2 0x204D JUMPI PUSH2 0x204C PUSH2 0x1B3F JUMP JUMPDEST JUMPDEST PUSH1 0x0 PUSH2 0x205B DUP9 DUP3 DUP10 ADD PUSH2 0x1B92 JUMP JUMPDEST SWAP6 POP POP PUSH1 0x20 PUSH2 0x206C DUP9 DUP3 DUP10 ADD PUSH2 0x1B92 JUMP JUMPDEST SWAP5 POP POP PUSH1 0x40 DUP7 ADD CALLDATALOAD PUSH8 0xFFFFFFFFFFFFFFFF DUP2 GT ISZERO PUSH2 0x208D JUMPI PUSH2 0x208C PUSH2 0x1B44 JUMP JUMPDEST JUMPDEST PUSH2 0x2099 DUP9 DUP3 DUP10 ADD PUSH2 0x1F4E JUMP JUMPDEST SWAP4 POP POP PUSH1 0x60 DUP7 ADD CALLDATALOAD PUSH8 0xFFFFFFFFFFFFFFFF DUP2 GT ISZERO PUSH2 0x20BA JUMPI PUSH2 0x20B9 PUSH2 0x1B44 JUMP JUMPDEST JUMPDEST PUSH2 0x20C6 DUP9 DUP3 DUP10 ADD PUSH2 0x1F4E JUMP JUMPDEST SWAP3 POP POP PUSH1 0x80 DUP7 ADD CALLDATALOAD PUSH8 0xFFFFFFFFFFFFFFFF DUP2 GT ISZERO PUSH2 0x20E7 JUMPI PUSH2 0x20E6 PUSH2 0x1B44 JUMP JUMPDEST JUMPDEST PUSH2 0x20F3 DUP9 DUP3 DUP10 ADD PUSH2 0x2003 JUMP JUMPDEST SWAP2 POP POP SWAP3 SWAP6 POP SWAP3 SWAP6 SWAP1 SWAP4 POP JUMP JUMPDEST PUSH1 0x0 PUSH8 0xFFFFFFFFFFFFFFFF DUP3 GT ISZERO PUSH2 0x211B JUMPI PUSH2 0x211A PUSH2 0x1E39 JUMP JUMPDEST JUMPDEST PUSH1 0x20 DUP3 MUL SWAP1 POP PUSH1 0x20 DUP2 ADD SWAP1 POP SWAP2 SWAP1 POP JUMP JUMPDEST PUSH1 0x0 PUSH2 0x213F PUSH2 0x213A DUP5 PUSH2 0x2100 JUMP JUMPDEST PUSH2 0x1E99 JUMP JUMPDEST SWAP1 POP DUP1 DUP4 DUP3 MSTORE PUSH1 0x20 DUP3 ADD SWAP1 POP PUSH1 0x20 DUP5 MUL DUP4 ADD DUP6 DUP2 GT ISZERO PUSH2 0x2162 JUMPI PUSH2 0x2161 PUSH2 0x1EE0 JUMP JUMPDEST JUMPDEST DUP4 JUMPDEST DUP2 DUP2 LT ISZERO PUSH2 0x218B JUMPI DUP1 PUSH2 0x2177 DUP9 DUP3 PUSH2 0x1B92 JUMP JUMPDEST DUP5 MSTORE PUSH1 0x20 DUP5 ADD SWAP4 POP POP PUSH1 0x20 DUP2 ADD SWAP1 POP PUSH2 0x2164 JUMP JUMPDEST POP POP POP SWAP4 SWAP3 POP POP POP JUMP JUMPDEST PUSH1 0x0 DUP3 PUSH1 0x1F DUP4 ADD SLT PUSH2 0x21AA JUMPI PUSH2 0x21A9 PUSH2 0x1E34 JUMP JUMPDEST JUMPDEST DUP2 CALLDATALOAD PUSH2 0x21BA DUP5 DUP3 PUSH1 0x20 DUP7 ADD PUSH2 0x212C JUMP JUMPDEST SWAP2 POP POP SWAP3 SWAP2 POP POP JUMP JUMPDEST PUSH1 0x0 DUP1 PUSH1 0x40 DUP4 DUP6 SUB SLT ISZERO PUSH2 0x21DA JUMPI PUSH2 0x21D9 PUSH2 0x1B3F JUMP JUMPDEST JUMPDEST PUSH1 0x0 DUP4 ADD CALLDATALOAD PUSH8 0xFFFFFFFFFFFFFFFF DUP2 GT ISZERO PUSH2 0x21F8 JUMPI PUSH2 0x21F7 PUSH2 0x1B44 JUMP JUMPDEST JUMPDEST PUSH2 0x2204 DUP6 DUP3 DUP7 ADD PUSH2 0x2195 JUMP JUMPDEST SWAP3 POP POP PUSH1 0x20 DUP4 ADD CALLDATALOAD PUSH8 0xFFFFFFFFFFFFFFFF DUP2 GT ISZERO PUSH2 0x2225 JUMPI PUSH2 0x2224 PUSH2 0x1B44 JUMP JUMPDEST JUMPDEST PUSH2 0x2231 DUP6 DUP3 DUP7 ADD PUSH2 0x1F4E JUMP JUMPDEST SWAP2 POP POP SWAP3 POP SWAP3 SWAP1 POP JUMP JUMPDEST PUSH1 0x0 DUP2 MLOAD SWAP1 POP SWAP2 SWAP1 POP JUMP JUMPDEST PUSH1 0x0 DUP3 DUP3 MSTORE PUSH1 0x20 DUP3 ADD SWAP1 POP SWAP3 SWAP2 POP POP JUMP JUMPDEST PUSH1 0x0 DUP2 SWAP1 POP PUSH1 0x20 DUP3 ADD SWAP1 POP SWAP2 SWAP1 POP JUMP JUMPDEST PUSH2 0x2270 DUP2 PUSH2 0x1BA7 JUMP JUMPDEST DUP3 MSTORE POP POP JUMP JUMPDEST PUSH1 0x0 PUSH2 0x2282 DUP4 DUP4 PUSH2 0x2267 JUMP JUMPDEST PUSH1 0x20 DUP4 ADD SWAP1 POP SWAP3 SWAP2 POP POP JUMP JUMPDEST PUSH1 0x0 PUSH1 0x20 DUP3 ADD SWAP1 POP SWAP2 SWAP1 POP JUMP JUMPDEST PUSH1 0x0 PUSH2 0x22A6 DUP3 PUSH2 0x223B JUMP JUMPDEST PUSH2 0x22B0 DUP2 DUP6 PUSH2 0x2246 JUMP JUMPDEST SWAP4 POP PUSH2 0x22BB DUP4 PUSH2 0x2257 JUMP JUMPDEST DUP1 PUSH1 0x0 JUMPDEST DUP4 DUP2 LT ISZERO PUSH2 0x22EC JUMPI DUP2 MLOAD PUSH2 0x22D3 DUP9 DUP3 PUSH2 0x2276 JUMP JUMPDEST SWAP8 POP PUSH2 0x22DE DUP4 PUSH2 0x228E JUMP JUMPDEST SWAP3 POP POP PUSH1 0x1 DUP2 ADD SWAP1 POP PUSH2 0x22BF JUMP JUMPDEST POP DUP6 SWAP4 POP POP POP POP SWAP3 SWAP2 POP POP JUMP JUMPDEST PUSH1 0x0 PUSH1 0x20 DUP3 ADD SWAP1 POP DUP2 DUP2 SUB PUSH1 0x0 DUP4 ADD MSTORE PUSH2 0x2313 DUP2 DUP5 PUSH2 0x229B JUMP JUMPDEST SWAP1 POP SWAP3 SWAP2 POP POP JUMP JUMPDEST PUSH2 0x2324 DUP2 PUSH2 0x1CCC JUMP JUMPDEST DUP2 EQ PUSH2 0x232F JUMPI PUSH1 0x0 DUP1 REVERT JUMPDEST POP JUMP JUMPDEST PUSH1 0x0 DUP2 CALLDATALOAD SWAP1 POP PUSH2 0x2341 DUP2 PUSH2 0x231B JUMP JUMPDEST SWAP3 SWAP2 POP POP JUMP JUMPDEST PUSH1 0x0 DUP1 PUSH1 0x40 DUP4 DUP6 SUB SLT ISZERO PUSH2 0x235E JUMPI PUSH2 0x235D PUSH2 0x1B3F JUMP JUMPDEST JUMPDEST PUSH1 0x0 PUSH2 0x236C DUP6 DUP3 DUP7 ADD PUSH2 0x1B92 JUMP JUMPDEST SWAP3 POP POP PUSH1 0x20 PUSH2 0x237D DUP6 DUP3 DUP7 ADD PUSH2 0x2332 JUMP JUMPDEST SWAP2 POP POP SWAP3 POP SWAP3 SWAP1 POP JUMP JUMPDEST PUSH1 0x0 DUP1 PUSH1 0x0 PUSH1 0x60 DUP5 DUP7 SUB SLT ISZERO PUSH2 0x23A0 JUMPI PUSH2 0x239F PUSH2 0x1B3F JUMP JUMPDEST JUMPDEST PUSH1 0x0 PUSH2 0x23AE DUP7 DUP3 DUP8 ADD PUSH2 0x1B92 JUMP JUMPDEST SWAP4 POP POP PUSH1 0x20 DUP5 ADD CALLDATALOAD PUSH8 0xFFFFFFFFFFFFFFFF DUP2 GT ISZERO PUSH2 0x23CF JUMPI PUSH2 0x23CE PUSH2 0x1B44 JUMP JUMPDEST JUMPDEST PUSH2 0x23DB DUP7 DUP3 DUP8 ADD PUSH2 0x1F4E JUMP JUMPDEST SWAP3 POP POP PUSH1 0x40 DUP5 ADD CALLDATALOAD PUSH8 0xFFFFFFFFFFFFFFFF DUP2 GT ISZERO PUSH2 0x23FC JUMPI PUSH2 0x23FB PUSH2 0x1B44 JUMP JUMPDEST JUMPDEST PUSH2 0x2408 DUP7 DUP3 DUP8 ADD PUSH2 0x1F4E JUMP JUMPDEST SWAP2 POP POP SWAP3 POP SWAP3 POP SWAP3 JUMP JUMPDEST PUSH1 0x0 DUP1 PUSH1 0x40 DUP4 DUP6 SUB SLT ISZERO PUSH2 0x2429 JUMPI PUSH2 0x2428 PUSH2 0x1B3F JUMP JUMPDEST JUMPDEST PUSH1 0x0 PUSH2 0x2437 DUP6 DUP3 DUP7 ADD PUSH2 0x1B92 JUMP JUMPDEST SWAP3 POP POP PUSH1 0x20 PUSH2 0x2448 DUP6 DUP3 DUP7 ADD PUSH2 0x1B92 JUMP JUMPDEST SWAP2 POP POP SWAP3 POP SWAP3 SWAP1 POP JUMP JUMPDEST PUSH1 0x0 DUP1 PUSH1 0x0 DUP1 PUSH1 0x0 PUSH1 0xA0 DUP7 DUP9 SUB SLT ISZERO PUSH2 0x246E JUMPI PUSH2 0x246D PUSH2 0x1B3F JUMP JUMPDEST JUMPDEST PUSH1 0x0 PUSH2 0x247C DUP9 DUP3 DUP10 ADD PUSH2 0x1B92 JUMP JUMPDEST SWAP6 POP POP PUSH1 0x20 PUSH2 0x248D DUP9 DUP3 DUP10 ADD PUSH2 0x1B92 JUMP JUMPDEST SWAP5 POP POP PUSH1 0x40 PUSH2 0x249E DUP9 DUP3 DUP10 ADD PUSH2 0x1BC8 JUMP JUMPDEST SWAP4 POP POP PUSH1 0x60 PUSH2 0x24AF DUP9 DUP3 DUP10 ADD PUSH2 0x1BC8 JUMP JUMPDEST SWAP3 POP POP PUSH1 0x80 DUP7 ADD CALLDATALOAD PUSH8 0xFFFFFFFFFFFFFFFF DUP2 GT ISZERO PUSH2 0x24D0 JUMPI PUSH2 0x24CF PUSH2 0x1B44 JUMP JUMPDEST JUMPDEST PUSH2 0x24DC DUP9 DUP3 DUP10 ADD PUSH2 0x2003 JUMP JUMPDEST SWAP2 POP POP SWAP3 SWAP6 POP SWAP3 SWAP6 SWAP1 SWAP4 POP JUMP JUMPDEST PUSH32 0x455243313135353A2061646472657373207A65726F206973206E6F7420612076 PUSH1 0x0 DUP3 ADD MSTORE PUSH32 0x616C6964206F776E657200000000000000000000000000000000000000000000 PUSH1 0x20 DUP3 ADD MSTORE POP JUMP JUMPDEST PUSH1 0x0 PUSH2 0x2545 PUSH1 0x2A DUP4 PUSH2 0x1D3A JUMP JUMPDEST SWAP2 POP PUSH2 0x2550 DUP3 PUSH2 0x24E9 JUMP JUMPDEST PUSH1 0x40 DUP3 ADD SWAP1 POP SWAP2 SWAP1 POP JUMP JUMPDEST PUSH1 0x0 PUSH1 0x20 DUP3 ADD SWAP1 POP DUP2 DUP2 SUB PUSH1 0x0 DUP4 ADD MSTORE PUSH2 0x2574 DUP2 PUSH2 0x2538 JUMP JUMPDEST SWAP1 POP SWAP2 SWAP1 POP JUMP JUMPDEST PUSH32 0x4E487B7100000000000000000000000000000000000000000000000000000000 PUSH1 0x0 MSTORE PUSH1 0x22 PUSH1 0x4 MSTORE PUSH1 0x24 PUSH1 0x0 REVERT JUMPDEST PUSH1 0x0 PUSH1 0x2 DUP3 DIV SWAP1 POP PUSH1 0x1 DUP3 AND DUP1 PUSH2 0x25C2 JUMPI PUSH1 0x7F DUP3 AND SWAP2 POP JUMPDEST PUSH1 0x20 DUP3 LT DUP2 SUB PUSH2 0x25D5 JUMPI PUSH2 0x25D4 PUSH2 0x257B JUMP JUMPDEST JUMPDEST POP SWAP2 SWAP1 POP JUMP JUMPDEST PUSH32 0x6572726F722D2D2D2D2D6964206E656564203C31303030300000000000000000 PUSH1 0x0 DUP3 ADD MSTORE POP JUMP JUMPDEST PUSH1 0x0 PUSH2 0x2611 PUSH1 0x18 DUP4 PUSH2 0x1D3A JUMP JUMPDEST SWAP2 POP PUSH2 0x261C DUP3 PUSH2 0x25DB JUMP JUMPDEST PUSH1 0x20 DUP3 ADD SWAP1 POP SWAP2 SWAP1 POP JUMP JUMPDEST PUSH1 0x0 PUSH1 0x20 DUP3 ADD SWAP1 POP DUP2 DUP2 SUB PUSH1 0x0 DUP4 ADD MSTORE PUSH2 0x2640 DUP2 PUSH2 0x2604 JUMP JUMPDEST SWAP1 POP SWAP2 SWAP1 POP JUMP JUMPDEST PUSH1 0x0 DUP2 SWAP1 POP SWAP3 SWAP2 POP POP JUMP JUMPDEST PUSH1 0x0 PUSH2 0x265D DUP3 PUSH2 0x1D2F JUMP JUMPDEST PUSH2 0x2667 DUP2 DUP6 PUSH2 0x2647 JUMP JUMPDEST SWAP4 POP PUSH2 0x2677 DUP2 DUP6 PUSH1 0x20 DUP7 ADD PUSH2 0x1D4B JUMP JUMPDEST DUP1 DUP5 ADD SWAP2 POP POP SWAP3 SWAP2 POP POP JUMP JUMPDEST PUSH1 0x0 PUSH2 0x268F DUP3 DUP6 PUSH2 0x2652 JUMP JUMPDEST SWAP2 POP PUSH2 0x269B DUP3 DUP5 PUSH2 0x2652 JUMP JUMPDEST SWAP2 POP DUP2 SWAP1 POP SWAP4 SWAP3 POP POP POP JUMP JUMPDEST PUSH32 0x455243313135353A2063616C6C6572206973206E6F7420746F6B656E206F776E PUSH1 0x0 DUP3 ADD MSTORE PUSH32 0x6572206F7220617070726F766564000000000000000000000000000000000000 PUSH1 0x20 DUP3 ADD MSTORE POP JUMP JUMPDEST PUSH1 0x0 PUSH2 0x2703 PUSH1 0x2E DUP4 PUSH2 0x1D3A JUMP JUMPDEST SWAP2 POP PUSH2 0x270E DUP3 PUSH2 0x26A7 JUMP JUMPDEST PUSH1 0x40 DUP3 ADD SWAP1 POP SWAP2 SWAP1 POP JUMP JUMPDEST PUSH1 0x0 PUSH1 0x20 DUP3 ADD SWAP1 POP DUP2 DUP2 SUB PUSH1 0x0 DUP4 ADD MSTORE PUSH2 0x2732 DUP2 PUSH2 0x26F6 JUMP JUMPDEST SWAP1 POP SWAP2 SWAP1 POP JUMP JUMPDEST PUSH32 0x455243313135353A206163636F756E747320616E6420696473206C656E677468 PUSH1 0x0 DUP3 ADD MSTORE PUSH32 0x206D69736D617463680000000000000000000000000000000000000000000000 PUSH1 0x20 DUP3 ADD MSTORE POP JUMP JUMPDEST PUSH1 0x0 PUSH2 0x2795 PUSH1 0x29 DUP4 PUSH2 0x1D3A JUMP JUMPDEST SWAP2 POP PUSH2 0x27A0 DUP3 PUSH2 0x2739 JUMP JUMPDEST PUSH1 0x40 DUP3 ADD SWAP1 POP SWAP2 SWAP1 POP JUMP JUMPDEST PUSH1 0x0 PUSH1 0x20 DUP3 ADD SWAP1 POP DUP2 DUP2 SUB PUSH1 0x0 DUP4 ADD MSTORE PUSH2 0x27C4 DUP2 PUSH2 0x2788 JUMP JUMPDEST SWAP1 POP SWAP2 SWAP1 POP JUMP JUMPDEST PUSH32 0x4E487B7100000000000000000000000000000000000000000000000000000000 PUSH1 0x0 MSTORE PUSH1 0x32 PUSH1 0x4 MSTORE PUSH1 0x24 PUSH1 0x0 REVERT JUMPDEST PUSH32 0x4E487B7100000000000000000000000000000000000000000000000000000000 PUSH1 0x0 MSTORE PUSH1 0x11 PUSH1 0x4 MSTORE PUSH1 0x24 PUSH1 0x0 REVERT JUMPDEST PUSH1 0x0 PUSH2 0x2834 DUP3 PUSH2 0x1BA7 JUMP JUMPDEST SWAP2 POP PUSH32 0xFFFFFFFFFFFFFFFFFFFFFFFFFFFFFFFFFFFFFFFFFFFFFFFFFFFFFFFFFFFFFFFF DUP3 SUB PUSH2 0x2866 JUMPI PUSH2 0x2865 PUSH2 0x27FA JUMP JUMPDEST JUMPDEST PUSH1 0x1 DUP3 ADD SWAP1 POP SWAP2 SWAP1 POP JUMP JUMPDEST PUSH32 0x6964206F766572666C6F77000000000000000000000000000000000000000000 PUSH1 0x0 DUP3 ADD MSTORE POP JUMP JUMPDEST PUSH1 0x0 PUSH2 0x28A7 PUSH1 0xB DUP4 PUSH2 0x1D3A JUMP JUMPDEST SWAP2 POP PUSH2 0x28B2 DUP3 PUSH2 0x2871 JUMP JUMPDEST PUSH1 0x20 DUP3 ADD SWAP1 POP SWAP2 SWAP1 POP JUMP JUMPDEST PUSH1 0x0 PUSH1 0x20 DUP3 ADD SWAP1 POP DUP2 DUP2 SUB PUSH1 0x0 DUP4 ADD MSTORE PUSH2 0x28D6 DUP2 PUSH2 0x289A JUMP JUMPDEST SWAP1 POP SWAP2 SWAP1 POP JUMP JUMPDEST PUSH1 0x0 DUP2 SWAP1 POP DUP2 PUSH1 0x0 MSTORE PUSH1 0x20 PUSH1 0x0 KECCAK256 SWAP1 POP SWAP2 SWAP1 POP JUMP JUMPDEST PUSH1 0x0 PUSH1 0x20 PUSH1 0x1F DUP4 ADD DIV SWAP1 POP SWAP2 SWAP1 POP JUMP JUMPDEST PUSH1 0x0 DUP3 DUP3 SHL SWAP1 POP SWAP3 SWAP2 POP POP JUMP JUMPDEST PUSH1 0x0 PUSH1 0x8 DUP4 MUL PUSH2 0x293F PUSH32 0xFFFFFFFFFFFFFFFFFFFFFFFFFFFFFFFFFFFFFFFFFFFFFFFFFFFFFFFFFFFFFFFF DUP3 PUSH2 0x2902 JUMP JUMPDEST PUSH2 0x2949 DUP7 DUP4 PUSH2 0x2902 JUMP JUMPDEST SWAP6 POP DUP1 NOT DUP5 AND SWAP4 POP DUP1 DUP7 AND DUP5 OR SWAP3 POP POP POP SWAP4 SWAP3 POP POP POP JUMP JUMPDEST PUSH1 0x0 DUP2 SWAP1 POP SWAP2 SWAP1 POP JUMP JUMPDEST PUSH1 0x0 PUSH2 0x2986 PUSH2 0x2981 PUSH2 0x297C DUP5 PUSH2 0x1BA7 JUMP JUMPDEST PUSH2 0x2961 JUMP JUMPDEST PUSH2 0x1BA7 JUMP JUMPDEST SWAP1 POP SWAP2 SWAP1 POP JUMP JUMPDEST PUSH1 0x0 DUP2 SWAP1 POP SWAP2 SWAP1 POP JUMP JUMPDEST PUSH2 0x29A0 DUP4 PUSH2 0x296B JUMP JUMPDEST PUSH2 0x29B4 PUSH2 0x29AC DUP3 PUSH2 0x298D JUMP JUMPDEST DUP5 DUP5 SLOAD PUSH2 0x290F JUMP JUMPDEST DUP3 SSTORE POP POP POP POP JUMP JUMPDEST PUSH1 0x0 SWAP1 JUMP JUMPDEST PUSH2 0x29C9 PUSH2 0x29BC JUMP JUMPDEST PUSH2 0x29D4 DUP2 DUP5 DUP5 PUSH2 0x2997 JUMP JUMPDEST POP POP POP JUMP JUMPDEST JUMPDEST DUP2 DUP2 LT ISZERO PUSH2 0x29F8 JUMPI PUSH2 0x29ED PUSH1 0x0 DUP3 PUSH2 0x29C1 JUMP JUMPDEST PUSH1 0x1 DUP2 ADD SWAP1 POP PUSH2 0x29DA JUMP JUMPDEST POP POP JUMP JUMPDEST PUSH1 0x1F DUP3 GT ISZERO PUSH2 0x2A3D JUMPI PUSH2 0x2A0E DUP2 PUSH2 0x28DD JUMP JUMPDEST PUSH2 0x2A17 DUP5 PUSH2 0x28F2 JUMP JUMPDEST DUP2 ADD PUSH1 0x20 DUP6 LT ISZERO PUSH2 0x2A26 JUMPI DUP2 SWAP1 POP JUMPDEST PUSH2 0x2A3A PUSH2 0x2A32 DUP6 PUSH2 0x28F2 JUMP JUMPDEST DUP4 ADD DUP3 PUSH2 0x29D9 JUMP JUMPDEST POP POP JUMPDEST POP POP POP JUMP JUMPDEST PUSH1 0x0 DUP3 DUP3 SHR SWAP1 POP SWAP3 SWAP2 POP POP JUMP JUMPDEST PUSH1 0x0 PUSH2 0x2A60 PUSH1 0x0 NOT DUP5 PUSH1 0x8 MUL PUSH2 0x2A42 JUMP JUMPDEST NOT DUP1 DUP4 AND SWAP2 POP POP SWAP3 SWAP2 POP POP JUMP JUMPDEST PUSH1 0x0 PUSH2 0x2A79 DUP4 DUP4 PUSH2 0x2A4F JUMP JUMPDEST SWAP2 POP DUP3 PUSH1 0x2 MUL DUP3 OR SWAP1 POP SWAP3 SWAP2 POP POP JUMP JUMPDEST PUSH2 0x2A92 DUP3 PUSH2 0x1D2F JUMP JUMPDEST PUSH8 0xFFFFFFFFFFFFFFFF DUP2 GT ISZERO PUSH2 0x2AAB JUMPI PUSH2 0x2AAA PUSH2 0x1E39 JUMP JUMPDEST JUMPDEST PUSH2 0x2AB5 DUP3 SLOAD PUSH2 0x25AA JUMP JUMPDEST PUSH2 0x2AC0 DUP3 DUP3 DUP6 PUSH2 0x29FC JUMP JUMPDEST PUSH1 0x0 PUSH1 0x20 SWAP1 POP PUSH1 0x1F DUP4 GT PUSH1 0x1 DUP2 EQ PUSH2 0x2AF3 JUMPI PUSH1 0x0 DUP5 ISZERO PUSH2 0x2AE1 JUMPI DUP3 DUP8 ADD MLOAD SWAP1 POP JUMPDEST PUSH2 0x2AEB DUP6 DUP3 PUSH2 0x2A6D JUMP JUMPDEST DUP7 SSTORE POP PUSH2 0x2B53 JUMP JUMPDEST PUSH1 0x1F NOT DUP5 AND PUSH2 0x2B01 DUP7 PUSH2 0x28DD JUMP JUMPDEST PUSH1 0x0 JUMPDEST DUP3 DUP2 LT ISZERO PUSH2 0x2B29 JUMPI DUP5 DUP10 ADD MLOAD DUP3 SSTORE PUSH1 0x1 DUP3 ADD SWAP2 POP PUSH1 0x20 DUP6 ADD SWAP5 POP PUSH1 0x20 DUP2 ADD SWAP1 POP PUSH2 0x2B04 JUMP JUMPDEST DUP7 DUP4 LT ISZERO PUSH2 0x2B46 JUMPI DUP5 DUP10 ADD MLOAD PUSH2 0x2B42 PUSH1 0x1F DUP10 AND DUP3 PUSH2 0x2A4F JUMP JUMPDEST DUP4 SSTORE POP JUMPDEST PUSH1 0x1 PUSH1 0x2 DUP9 MUL ADD DUP9 SSTORE POP POP POP JUMPDEST POP POP POP POP POP POP JUMP JUMPDEST PUSH32 0x455243313135353A206D696E7420746F20746865207A65726F20616464726573 PUSH1 0x0 DUP3 ADD MSTORE PUSH32 0x7300000000000000000000000000000000000000000000000000000000000000 PUSH1 0x20 DUP3 ADD MSTORE POP JUMP JUMPDEST PUSH1 0x0 PUSH2 0x2BB7 PUSH1 0x21 DUP4 PUSH2 0x1D3A JUMP JUMPDEST SWAP2 POP PUSH2 0x2BC2 DUP3 PUSH2 0x2B5B JUMP JUMPDEST PUSH1 0x40 DUP3 ADD SWAP1 POP SWAP2 SWAP1 POP JUMP JUMPDEST PUSH1 0x0 PUSH1 0x20 DUP3 ADD SWAP1 POP DUP2 DUP2 SUB PUSH1 0x0 DUP4 ADD MSTORE PUSH2 0x2BE6 DUP2 PUSH2 0x2BAA JUMP JUMPDEST SWAP1 POP SWAP2 SWAP1 POP JUMP JUMPDEST PUSH1 0x0 PUSH2 0x2BF8 DUP3 PUSH2 0x1BA7 JUMP JUMPDEST SWAP2 POP PUSH2 0x2C03 DUP4 PUSH2 0x1BA7 JUMP JUMPDEST SWAP3 POP DUP3 DUP3 ADD SWAP1 POP DUP1 DUP3 GT ISZERO PUSH2 0x2C1B JUMPI PUSH2 0x2C1A PUSH2 0x27FA JUMP JUMPDEST JUMPDEST SWAP3 SWAP2 POP POP JUMP JUMPDEST PUSH1 0x0 PUSH1 0x40 DUP3 ADD SWAP1 POP PUSH2 0x2C36 PUSH1 0x0 DUP4 ADD DUP6 PUSH2 0x1C1D JUMP JUMPDEST PUSH2 0x2C43 PUSH1 0x20 DUP4 ADD DUP5 PUSH2 0x1C1D JUMP JUMPDEST SWAP4 SWAP3 POP POP POP JUMP JUMPDEST PUSH32 0x4E487B7100000000000000000000000000000000000000000000000000000000 PUSH1 0x0 MSTORE PUSH1 0x12 PUSH1 0x4 MSTORE PUSH1 0x24 PUSH1 0x0 REVERT JUMPDEST PUSH32 0x455243313135353A2069647320616E6420616D6F756E7473206C656E67746820 PUSH1 0x0 DUP3 ADD MSTORE PUSH32 0x6D69736D61746368000000000000000000000000000000000000000000000000 PUSH1 0x20 DUP3 ADD MSTORE POP JUMP JUMPDEST PUSH1 0x0 PUSH2 0x2CD5 PUSH1 0x28 DUP4 PUSH2 0x1D3A JUMP JUMPDEST SWAP2 POP PUSH2 0x2CE0 DUP3 PUSH2 0x2C79 JUMP JUMPDEST PUSH1 0x40 DUP3 ADD SWAP1 POP SWAP2 SWAP1 POP JUMP JUMPDEST PUSH1 0x0 PUSH1 0x20 DUP3 ADD SWAP1 POP DUP2 DUP2 SUB PUSH1 0x0 DUP4 ADD MSTORE PUSH2 0x2D04 DUP2 PUSH2 0x2CC8 JUMP JUMPDEST SWAP1 POP SWAP2 SWAP1 POP JUMP JUMPDEST PUSH32 0x455243313135353A207472616E7366657220746F20746865207A65726F206164 PUSH1 0x0 DUP3 ADD MSTORE PUSH32 0x6472657373000000000000000000000000000000000000000000000000000000 PUSH1 0x20 DUP3 ADD MSTORE POP JUMP JUMPDEST PUSH1 0x0 PUSH2 0x2D67 PUSH1 0x25 DUP4 PUSH2 0x1D3A JUMP JUMPDEST SWAP2 POP PUSH2 0x2D72 DUP3 PUSH2 0x2D0B JUMP JUMPDEST PUSH1 0x40 DUP3 ADD SWAP1 POP SWAP2 SWAP1 POP JUMP JUMPDEST PUSH1 0x0 PUSH1 0x20 DUP3 ADD SWAP1 POP DUP2 DUP2 SUB PUSH1 0x0 DUP4 ADD MSTORE PUSH2 0x2D96 DUP2 PUSH2 0x2D5A JUMP JUMPDEST SWAP1 POP SWAP2 SWAP1 POP JUMP JUMPDEST PUSH32 0x455243313135353A20696E73756666696369656E742062616C616E636520666F PUSH1 0x0 DUP3 ADD MSTORE PUSH32 0x72207472616E7366657200000000000000000000000000000000000000000000 PUSH1 0x20 DUP3 ADD MSTORE POP JUMP JUMPDEST PUSH1 0x0 PUSH2 0x2DF9 PUSH1 0x2A DUP4 PUSH2 0x1D3A JUMP JUMPDEST SWAP2 POP PUSH2 0x2E04 DUP3 PUSH2 0x2D9D JUMP JUMPDEST PUSH1 0x40 DUP3 ADD SWAP1 POP SWAP2 SWAP1 POP JUMP JUMPDEST PUSH1 0x0 PUSH1 0x20 DUP3 ADD SWAP1 POP DUP2 DUP2 SUB PUSH1 0x0 DUP4 ADD MSTORE PUSH2 0x2E28 DUP2 PUSH2 0x2DEC JUMP JUMPDEST SWAP1 POP SWAP2 SWAP1 POP JUMP JUMPDEST PUSH1 0x0 PUSH1 0x40 DUP3 ADD SWAP1 POP DUP2 DUP2 SUB PUSH1 0x0 DUP4 ADD MSTORE PUSH2 0x2E49 DUP2 DUP6 PUSH2 0x229B JUMP JUMPDEST SWAP1 POP DUP2 DUP2 SUB PUSH1 0x20 DUP4 ADD MSTORE PUSH2 0x2E5D DUP2 DUP5 PUSH2 0x229B JUMP JUMPDEST SWAP1 POP SWAP4 SWAP3 POP POP POP JUMP JUMPDEST PUSH32 0x455243313135353A2073657474696E6720617070726F76616C20737461747573 PUSH1 0x0 DUP3 ADD MSTORE PUSH32 0x20666F722073656C660000000000000000000000000000000000000000000000 PUSH1 0x20 DUP3 ADD MSTORE POP JUMP JUMPDEST PUSH1 0x0 PUSH2 0x2EC2 PUSH1 0x29 DUP4 PUSH2 0x1D3A JUMP JUMPDEST SWAP2 POP PUSH2 0x2ECD DUP3 PUSH2 0x2E66 JUMP JUMPDEST PUSH1 0x40 DUP3 ADD SWAP1 POP SWAP2 SWAP1 POP JUMP JUMPDEST PUSH1 0x0 PUSH1 0x20 DUP3 ADD SWAP1 POP DUP2 DUP2 SUB PUSH1 0x0 DUP4 ADD MSTORE PUSH2 0x2EF1 DUP2 PUSH2 0x2EB5 JUMP JUMPDEST SWAP1 POP SWAP2 SWAP1 POP JUMP JUMPDEST PUSH2 0x2F01 DUP2 PUSH2 0x1B69 JUMP JUMPDEST DUP3 MSTORE POP POP JUMP JUMPDEST PUSH1 0x0 DUP2 MLOAD SWAP1 POP SWAP2 SWAP1 POP JUMP JUMPDEST PUSH1 0x0 DUP3 DUP3 MSTORE PUSH1 0x20 DUP3 ADD SWAP1 POP SWAP3 SWAP2 POP POP JUMP JUMPDEST PUSH1 0x0 PUSH2 0x2F2E DUP3 PUSH2 0x2F07 JUMP JUMPDEST PUSH2 0x2F38 DUP2 DUP6 PUSH2 0x2F12 JUMP JUMPDEST SWAP4 POP PUSH2 0x2F48 DUP2 DUP6 PUSH1 0x20 DUP7 ADD PUSH2 0x1D4B JUMP JUMPDEST PUSH2 0x2F51 DUP2 PUSH2 0x1D75 JUMP JUMPDEST DUP5 ADD SWAP2 POP POP SWAP3 SWAP2 POP POP JUMP JUMPDEST PUSH1 0x0 PUSH1 0xA0 DUP3 ADD SWAP1 POP PUSH2 0x2F71 PUSH1 0x0 DUP4 ADD DUP9 PUSH2 0x2EF8 JUMP JUMPDEST PUSH2 0x2F7E PUSH1 0x20 DUP4 ADD DUP8 PUSH2 0x2EF8 JUMP JUMPDEST PUSH2 0x2F8B PUSH1 0x40 DUP4 ADD DUP7 PUSH2 0x1C1D JUMP JUMPDEST PUSH2 0x2F98 PUSH1 0x60 DUP4 ADD DUP6 PUSH2 0x1C1D JUMP JUMPDEST DUP2 DUP2 SUB PUSH1 0x80 DUP4 ADD MSTORE PUSH2 0x2FAA DUP2 DUP5 PUSH2 0x2F23 JUMP JUMPDEST SWAP1 POP SWAP7 SWAP6 POP POP POP POP POP POP JUMP JUMPDEST PUSH1 0x0 DUP2 MLOAD SWAP1 POP PUSH2 0x2FC5 DUP2 PUSH2 0x1C73 JUMP JUMPDEST SWAP3 SWAP2 POP POP JUMP JUMPDEST PUSH1 0x0 PUSH1 0x20 DUP3 DUP5 SUB SLT ISZERO PUSH2 0x2FE1 JUMPI PUSH2 0x2FE0 PUSH2 0x1B3F JUMP JUMPDEST JUMPDEST PUSH1 0x0 PUSH2 0x2FEF DUP5 DUP3 DUP6 ADD PUSH2 0x2FB6 JUMP JUMPDEST SWAP2 POP POP SWAP3 SWAP2 POP POP JUMP JUMPDEST PUSH1 0x0 DUP2 PUSH1 0xE0 SHR SWAP1 POP SWAP2 SWAP1 POP JUMP JUMPDEST PUSH1 0x0 PUSH1 0x3 RETURNDATASIZE GT ISZERO PUSH2 0x3024 JUMPI PUSH1 0x4 PUSH1 0x0 DUP1 RETURNDATACOPY PUSH2 0x3021 PUSH1 0x0 MLOAD PUSH2 0x2FF8 JUMP JUMPDEST SWAP1 POP JUMPDEST SWAP1 JUMP JUMPDEST PUSH1 0x0 PUSH1 0x44 RETURNDATASIZE LT PUSH2 0x30B4 JUMPI PUSH2 0x3039 PUSH2 0x1B35 JUMP JUMPDEST PUSH1 0x4 RETURNDATASIZE SUB PUSH1 0x4 DUP3 RETURNDATACOPY DUP1 MLOAD RETURNDATASIZE PUSH1 0x24 DUP3 ADD GT PUSH8 0xFFFFFFFFFFFFFFFF DUP3 GT OR ISZERO PUSH2 0x3061 JUMPI POP POP PUSH2 0x30B4 JUMP JUMPDEST DUP1 DUP3 ADD DUP1 MLOAD PUSH8 0xFFFFFFFFFFFFFFFF DUP2 GT ISZERO PUSH2 0x307F JUMPI POP POP POP POP PUSH2 0x30B4 JUMP JUMPDEST DUP1 PUSH1 0x20 DUP4 ADD ADD PUSH1 0x4 RETURNDATASIZE SUB DUP6 ADD DUP2 GT ISZERO PUSH2 0x309C JUMPI POP POP POP POP POP PUSH2 0x30B4 JUMP JUMPDEST PUSH2 0x30AB DUP3 PUSH1 0x20 ADD DUP6 ADD DUP7 PUSH2 0x1E68 JUMP JUMPDEST DUP3 SWAP6 POP POP POP POP POP POP JUMPDEST SWAP1 JUMP JUMPDEST PUSH32 0x455243313135353A207472616E7366657220746F206E6F6E2D45524331313535 PUSH1 0x0 DUP3 ADD MSTORE PUSH32 0x526563656976657220696D706C656D656E746572000000000000000000000000 PUSH1 0x20 DUP3 ADD MSTORE POP JUMP JUMPDEST PUSH1 0x0 PUSH2 0x3113 PUSH1 0x34 DUP4 PUSH2 0x1D3A JUMP JUMPDEST SWAP2 POP PUSH2 0x311E DUP3 PUSH2 0x30B7 JUMP JUMPDEST PUSH1 0x40 DUP3 ADD SWAP1 POP SWAP2 SWAP1 POP JUMP JUMPDEST PUSH1 0x0 PUSH1 0x20 DUP3 ADD SWAP1 POP DUP2 DUP2 SUB PUSH1 0x0 DUP4 ADD MSTORE PUSH2 0x3142 DUP2 PUSH2 0x3106 JUMP JUMPDEST SWAP1 POP SWAP2 SWAP1 POP JUMP JUMPDEST PUSH32 0x455243313135353A204552433131353552656365697665722072656A65637465 PUSH1 0x0 DUP3 ADD MSTORE PUSH32 0x6420746F6B656E73000000000000000000000000000000000000000000000000 PUSH1 0x20 DUP3 ADD MSTORE POP JUMP JUMPDEST PUSH1 0x0 PUSH2 0x31A5 PUSH1 0x28 DUP4 PUSH2 0x1D3A JUMP JUMPDEST SWAP2 POP PUSH2 0x31B0 DUP3 PUSH2 0x3149 JUMP JUMPDEST PUSH1 0x40 DUP3 ADD SWAP1 POP SWAP2 SWAP1 POP JUMP JUMPDEST PUSH1 0x0 PUSH1 0x20 DUP3 ADD SWAP1 POP DUP2 DUP2 SUB PUSH1 0x0 DUP4 ADD MSTORE PUSH2 0x31D4 DUP2 PUSH2 0x3198 JUMP JUMPDEST SWAP1 POP SWAP2 SWAP1 POP JUMP JUMPDEST PUSH1 0x0 PUSH1 0xA0 DUP3 ADD SWAP1 POP PUSH2 0x31F0 PUSH1 0x0 DUP4 ADD DUP9 PUSH2 0x2EF8 JUMP JUMPDEST PUSH2 0x31FD PUSH1 0x20 DUP4 ADD DUP8 PUSH2 0x2EF8 JUMP JUMPDEST DUP2 DUP2 SUB PUSH1 0x40 DUP4 ADD MSTORE PUSH2 0x320F DUP2 DUP7 PUSH2 0x229B JUMP JUMPDEST SWAP1 POP DUP2 DUP2 SUB PUSH1 0x60 DUP4 ADD MSTORE PUSH2 0x3223 DUP2 DUP6 PUSH2 0x229B JUMP JUMPDEST SWAP1 POP DUP2 DUP2 SUB PUSH1 0x80 DUP4 ADD MSTORE PUSH2 0x3237 DUP2 DUP5 PUSH2 0x2F23 JUMP JUMPDEST SWAP1 POP SWAP7 SWAP6 POP POP POP POP POP POP JUMP INVALID PUSH10 0x7066733A2F2F516D6553 PUSH11 0x53696E4870506E6D586D73 PUSH17 0x4D6A776958794E367A533445397A636361 PUSH19 0x694752336A7863615774712FA2646970667358 0x22 SLT KECCAK256 ISZERO PUSH15 0x17D4BC37F049904C55A1A92CBC5737 MULMOD CREATE PUSH16 0x4F5849D04073B564D0FC203F64736F6C PUSH4 0x43000812 STOP CALLER PUSH10 0x7066733A2F2F516D6553 PUSH11 0x53696E4870506E6D586D73 PUSH17 0x4D6A776958794E367A533445397A636361 PUSH19 0x694752336A7863615774712F00000000000000 "
		},
		"gasEstimates": {
			"creation": {
				"codeDepositCost": "2595000",
				"executionCost": "infinite",
				"totalCost": "infinite"
			},
			"external": {
				"balanceOf(address,uint256)": "infinite",
				"balanceOfBatch(address[],uint256[])": "infinite",
				"generateUri(uint256)": "infinite",
				"isApprovedForAll(address,address)": "infinite",
				"mint(address,uint256,uint256)": "infinite",
				"mintBatch(address,uint256[],uint256[])": "infinite",
				"safeBatchTransferFrom(address,address,uint256[],uint256[],bytes)": "infinite",
				"safeTransferFrom(address,address,uint256,uint256,bytes)": "infinite",
				"setApprovalForAll(address,bool)": "infinite",
				"supportsInterface(bytes4)": "796",
				"uri(uint256)": "infinite"
			}
		},
		"methodIdentifiers": {
			"balanceOf(address,uint256)": "00fdd58e",
			"balanceOfBatch(address[],uint256[])": "4e1273f4",
			"generateUri(uint256)": "28c81683",
			"isApprovedForAll(address,address)": "e985e9c5",
			"mint(address,uint256,uint256)": "156e29f6",
			"mintBatch(address,uint256[],uint256[])": "d81d0a15",
			"safeBatchTransferFrom(address,address,uint256[],uint256[],bytes)": "2eb2c2d6",
			"safeTransferFrom(address,address,uint256,uint256,bytes)": "f242432a",
			"setApprovalForAll(address,bool)": "a22cb465",
			"supportsInterface(bytes4)": "01ffc9a7",
			"uri(uint256)": "0e89341c"
		}
	},
	"abi": [
		{
			"inputs": [],
			"stateMutability": "nonpayable",
			"type": "constructor"
		},
		{
			"anonymous": false,
			"inputs": [
				{
					"indexed": true,
					"internalType": "address",
					"name": "account",
					"type": "address"
				},
				{
					"indexed": true,
					"internalType": "address",
					"name": "operator",
					"type": "address"
				},
				{
					"indexed": false,
					"internalType": "bool",
					"name": "approved",
					"type": "bool"
				}
			],
			"name": "ApprovalForAll",
			"type": "event"
		},
		{
			"anonymous": false,
			"inputs": [
				{
					"indexed": true,
					"internalType": "address",
					"name": "operator",
					"type": "address"
				},
				{
					"indexed": true,
					"internalType": "address",
					"name": "from",
					"type": "address"
				},
				{
					"indexed": true,
					"internalType": "address",
					"name": "to",
					"type": "address"
				},
				{
					"indexed": false,
					"internalType": "uint256[]",
					"name": "ids",
					"type": "uint256[]"
				},
				{
					"indexed": false,
					"internalType": "uint256[]",
					"name": "values",
					"type": "uint256[]"
				}
			],
			"name": "TransferBatch",
			"type": "event"
		},
		{
			"anonymous": false,
			"inputs": [
				{
					"indexed": true,
					"internalType": "address",
					"name": "operator",
					"type": "address"
				},
				{
					"indexed": true,
					"internalType": "address",
					"name": "from",
					"type": "address"
				},
				{
					"indexed": true,
					"internalType": "address",
					"name": "to",
					"type": "address"
				},
				{
					"indexed": false,
					"internalType": "uint256",
					"name": "id",
					"type": "uint256"
				},
				{
					"indexed": false,
					"internalType": "uint256",
					"name": "value",
					"type": "uint256"
				}
			],
			"name": "TransferSingle",
			"type": "event"
		},
		{
			"anonymous": false,
			"inputs": [
				{
					"indexed": false,
					"internalType": "string",
					"name": "value",
					"type": "string"
				},
				{
					"indexed": true,
					"internalType": "uint256",
					"name": "id",
					"type": "uint256"
				}
			],
			"name": "URI",
			"type": "event"
		},
		{
			"inputs": [
				{
					"internalType": "address",
					"name": "account",
					"type": "address"
				},
				{
					"internalType": "uint256",
					"name": "id",
					"type": "uint256"
				}
			],
			"name": "balanceOf",
			"outputs": [
				{
					"internalType": "uint256",
					"name": "",
					"type": "uint256"
				}
			],
			"stateMutability": "view",
			"type": "function"
		},
		{
			"inputs": [
				{
					"internalType": "address[]",
					"name": "accounts",
					"type": "address[]"
				},
				{
					"internalType": "uint256[]",
					"name": "ids",
					"type": "uint256[]"
				}
			],
			"name": "balanceOfBatch",
			"outputs": [
				{
					"internalType": "uint256[]",
					"name": "",
					"type": "uint256[]"
				}
			],
			"stateMutability": "view",
			"type": "function"
		},
		{
			"inputs": [
				{
					"internalType": "uint256",
					"name": "id",
					"type": "uint256"
				}
			],
			"name": "generateUri",
			"outputs": [
				{
					"internalType": "string",
					"name": "",
					"type": "string"
				}
			],
			"stateMutability": "view",
			"type": "function"
		},
		{
			"inputs": [
				{
					"internalType": "address",
					"name": "account",
					"type": "address"
				},
				{
					"internalType": "address",
					"name": "operator",
					"type": "address"
				}
			],
			"name": "isApprovedForAll",
			"outputs": [
				{
					"internalType": "bool",
					"name": "",
					"type": "bool"
				}
			],
			"stateMutability": "view",
			"type": "function"
		},
		{
			"inputs": [
				{
					"internalType": "address",
					"name": "_to",
					"type": "address"
				},
				{
					"internalType": "uint256",
					"name": "_id",
					"type": "uint256"
				},
				{
					"internalType": "uint256",
					"name": "_count",
					"type": "uint256"
				}
			],
			"name": "mint",
			"outputs": [],
			"stateMutability": "nonpayable",
			"type": "function"
		},
		{
			"inputs": [
				{
					"internalType": "address",
					"name": "_to",
					"type": "address"
				},
				{
					"internalType": "uint256[]",
					"name": "_ids",
					"type": "uint256[]"
				},
				{
					"internalType": "uint256[]",
					"name": "_counts",
					"type": "uint256[]"
				}
			],
			"name": "mintBatch",
			"outputs": [],
			"stateMutability": "nonpayable",
			"type": "function"
		},
		{
			"inputs": [
				{
					"internalType": "address",
					"name": "from",
					"type": "address"
				},
				{
					"internalType": "address",
					"name": "to",
					"type": "address"
				},
				{
					"internalType": "uint256[]",
					"name": "ids",
					"type": "uint256[]"
				},
				{
					"internalType": "uint256[]",
					"name": "amounts",
					"type": "uint256[]"
				},
				{
					"internalType": "bytes",
					"name": "data",
					"type": "bytes"
				}
			],
			"name": "safeBatchTransferFrom",
			"outputs": [],
			"stateMutability": "nonpayable",
			"type": "function"
		},
		{
			"inputs": [
				{
					"internalType": "address",
					"name": "from",
					"type": "address"
				},
				{
					"internalType": "address",
					"name": "to",
					"type": "address"
				},
				{
					"internalType": "uint256",
					"name": "id",
					"type": "uint256"
				},
				{
					"internalType": "uint256",
					"name": "amount",
					"type": "uint256"
				},
				{
					"internalType": "bytes",
					"name": "data",
					"type": "bytes"
				}
			],
			"name": "safeTransferFrom",
			"outputs": [],
			"stateMutability": "nonpayable",
			"type": "function"
		},
		{
			"inputs": [
				{
					"internalType": "address",
					"name": "operator",
					"type": "address"
				},
				{
					"internalType": "bool",
					"name": "approved",
					"type": "bool"
				}
			],
			"name": "setApprovalForAll",
			"outputs": [],
			"stateMutability": "nonpayable",
			"type": "function"
		},
		{
			"inputs": [
				{
					"internalType": "bytes4",
					"name": "interfaceId",
					"type": "bytes4"
				}
			],
			"name": "supportsInterface",
			"outputs": [
				{
					"internalType": "bool",
					"name": "",
					"type": "bool"
				}
			],
			"stateMutability": "view",
			"type": "function"
		},
		{
			"inputs": [
				{
					"internalType": "uint256",
					"name": "",
					"type": "uint256"
				}
			],
			"name": "uri",
			"outputs": [
				{
					"internalType": "string",
					"name": "",
					"type": "string"
				}
			],
			"stateMutability": "view",
			"type": "function"
		}
	]
}