{
	"data": {
		"bytecode": {
			"linkReferences": {},
			"object": "6080604052610355806100136000396000f3fe6080604052600436106100385760003560e01c806364a197f3146100445780637b1a4909146100605780638419cf501461007c5761003f565b3661003f57005b600080fd5b61005e6004803603810190610059919061022a565b610098565b005b61007a6004803603810190610075919061022a565b61010d565b005b6100966004803603810190610091919061022a565b610158565b005b60008273ffffffffffffffffffffffffffffffffffffffff166108fc839081150290604051600060405180830381858888f19350505050905080610108576040517f81063e5100000000000000000000000000000000000000000000000000000000815260040160405180910390fd5b505050565b8173ffffffffffffffffffffffffffffffffffffffff166108fc829081150290604051600060405180830381858888f19350505050158015610153573d6000803e3d6000fd5b505050565b60008273ffffffffffffffffffffffffffffffffffffffff168260405161017e9061028d565b60006040518083038185875af1925050503d80600081146101bb576040519150601f19603f3d011682016040523d82523d6000602084013e6101c0565b606091505b50509050806101fb576040517f3204506f00000000000000000000000000000000000000000000000000000000815260040160405180910390fd5b505050565b60008135905061020f816102f1565b92915050565b60008135905061022481610308565b92915050565b60008060408385031215610241576102406102e9565b5b600061024f85828601610200565b925050602061026085828601610215565b9150509250929050565b60006102776000836102a2565b9150610282826102ee565b600082019050919050565b60006102988261026a565b9150819050919050565b600081905092915050565b60006102b8826102bf565b9050919050565b600073ffffffffffffffffffffffffffffffffffffffff82169050919050565b6000819050919050565b600080fd5b50565b6102fa816102ad565b811461030557600080fd5b50565b610311816102df565b811461031c57600080fd5b5056fea26469706673582212208d65376d6ead339433a2afa9440091e911ec3adb6c8d63d9625331a877a4c90264736f6c63430008070033",
			"opcodes": "PUSH1 0x80 PUSH1 0x40 MSTORE PUSH2 0x355 DUP1 PUSH2 0x13 PUSH1 0x0 CODECOPY PUSH1 0x0 RETURN INVALID PUSH1 0x80 PUSH1 0x40 MSTORE PUSH1 0x4 CALLDATASIZE LT PUSH2 0x38 JUMPI PUSH1 0x0 CALLDATALOAD PUSH1 0xE0 SHR DUP1 PUSH4 0x64A197F3 EQ PUSH2 0x44 JUMPI DUP1 PUSH4 0x7B1A4909 EQ PUSH2 0x60 JUMPI DUP1 PUSH4 0x8419CF50 EQ PUSH2 0x7C JUMPI PUSH2 0x3F JUMP JUMPDEST CALLDATASIZE PUSH2 0x3F JUMPI STOP JUMPDEST PUSH1 0x0 DUP1 REVERT JUMPDEST PUSH2 0x5E PUSH1 0x4 DUP1 CALLDATASIZE SUB DUP2 ADD SWAP1 PUSH2 0x59 SWAP2 SWAP1 PUSH2 0x22A JUMP JUMPDEST PUSH2 0x98 JUMP JUMPDEST STOP JUMPDEST PUSH2 0x7A PUSH1 0x4 DUP1 CALLDATASIZE SUB DUP2 ADD SWAP1 PUSH2 0x75 SWAP2 SWAP1 PUSH2 0x22A JUMP JUMPDEST PUSH2 0x10D JUMP JUMPDEST STOP JUMPDEST PUSH2 0x96 PUSH1 0x4 DUP1 CALLDATASIZE SUB DUP2 ADD SWAP1 PUSH2 0x91 SWAP2 SWAP1 PUSH2 0x22A JUMP JUMPDEST PUSH2 0x158 JUMP JUMPDEST STOP JUMPDEST PUSH1 0x0 DUP3 PUSH20 0xFFFFFFFFFFFFFFFFFFFFFFFFFFFFFFFFFFFFFFFF AND PUSH2 0x8FC DUP4 SWAP1 DUP2 ISZERO MUL SWAP1 PUSH1 0x40 MLOAD PUSH1 0x0 PUSH1 0x40 MLOAD DUP1 DUP4 SUB DUP2 DUP6 DUP9 DUP9 CALL SWAP4 POP POP POP POP SWAP1 POP DUP1 PUSH2 0x108 JUMPI PUSH1 0x40 MLOAD PUSH32 0x81063E5100000000000000000000000000000000000000000000000000000000 DUP2 MSTORE PUSH1 0x4 ADD PUSH1 0x40 MLOAD DUP1 SWAP2 SUB SWAP1 REVERT JUMPDEST POP POP POP JUMP JUMPDEST DUP2 PUSH20 0xFFFFFFFFFFFFFFFFFFFFFFFFFFFFFFFFFFFFFFFF AND PUSH2 0x8FC DUP3 SWAP1 DUP2 ISZERO MUL SWAP1 PUSH1 0x40 MLOAD PUSH1 0x0 PUSH1 0x40 MLOAD DUP1 DUP4 SUB DUP2 DUP6 DUP9 DUP9 CALL SWAP4 POP POP POP POP ISZERO DUP1 ISZERO PUSH2 0x153 JUMPI RETURNDATASIZE PUSH1 0x0 DUP1 RETURNDATACOPY RETURNDATASIZE PUSH1 0x0 REVERT JUMPDEST POP POP POP JUMP JUMPDEST PUSH1 0x0 DUP3 PUSH20 0xFFFFFFFFFFFFFFFFFFFFFFFFFFFFFFFFFFFFFFFF AND DUP3 PUSH1 0x40 MLOAD PUSH2 0x17E SWAP1 PUSH2 0x28D JUMP JUMPDEST PUSH1 0x0 PUSH1 0x40 MLOAD DUP1 DUP4 SUB DUP2 DUP6 DUP8 GAS CALL SWAP3 POP POP POP RETURNDATASIZE DUP1 PUSH1 0x0 DUP2 EQ PUSH2 0x1BB JUMPI PUSH1 0x40 MLOAD SWAP2 POP PUSH1 0x1F NOT PUSH1 0x3F RETURNDATASIZE ADD AND DUP3 ADD PUSH1 0x40 MSTORE RETURNDATASIZE DUP3 MSTORE RETURNDATASIZE PUSH1 0x0 PUSH1 0x20 DUP5 ADD RETURNDATACOPY PUSH2 0x1C0 JUMP JUMPDEST PUSH1 0x60 SWAP2 POP JUMPDEST POP POP SWAP1 POP DUP1 PUSH2 0x1FB JUMPI PUSH1 0x40 MLOAD PUSH32 0x3204506F00000000000000000000000000000000000000000000000000000000 DUP2 MSTORE PUSH1 0x4 ADD PUSH1 0x40 MLOAD DUP1 SWAP2 SUB SWAP1 REVERT JUMPDEST POP POP POP JUMP JUMPDEST PUSH1 0x0 DUP2 CALLDATALOAD SWAP1 POP PUSH2 0x20F DUP2 PUSH2 0x2F1 JUMP JUMPDEST SWAP3 SWAP2 POP POP JUMP JUMPDEST PUSH1 0x0 DUP2 CALLDATALOAD SWAP1 POP PUSH2 0x224 DUP2 PUSH2 0x308 JUMP JUMPDEST SWAP3 SWAP2 POP POP JUMP JUMPDEST PUSH1 0x0 DUP1 PUSH1 0x40 DUP4 DUP6 SUB SLT ISZERO PUSH2 0x241 JUMPI PUSH2 0x240 PUSH2 0x2E9 JUMP JUMPDEST JUMPDEST PUSH1 0x0 PUSH2 0x24F DUP6 DUP3 DUP7 ADD PUSH2 0x200 JUMP JUMPDEST SWAP3 POP POP PUSH1 0x20 PUSH2 0x260 DUP6 DUP3 DUP7 ADD PUSH2 0x215 JUMP JUMPDEST SWAP2 POP POP SWAP3 POP SWAP3 SWAP1 POP JUMP JUMPDEST PUSH1 0x0 PUSH2 0x277 PUSH1 0x0 DUP4 PUSH2 0x2A2 JUMP JUMPDEST SWAP2 POP PUSH2 0x282 DUP3 PUSH2 0x2EE JUMP JUMPDEST PUSH1 0x0 DUP3 ADD SWAP1 POP SWAP2 SWAP1 POP JUMP JUMPDEST PUSH1 0x0 PUSH2 0x298 DUP3 PUSH2 0x26A JUMP JUMPDEST SWAP2 POP DUP2 SWAP1 POP SWAP2 SWAP1 POP JUMP JUMPDEST PUSH1 0x0 DUP2 SWAP1 POP SWAP3 SWAP2 POP POP JUMP JUMPDEST PUSH1 0x0 PUSH2 0x2B8 DUP3 PUSH2 0x2BF JUMP JUMPDEST SWAP1 POP SWAP2 SWAP1 POP JUMP JUMPDEST PUSH1 0x0 PUSH20 0xFFFFFFFFFFFFFFFFFFFFFFFFFFFFFFFFFFFFFFFF DUP3 AND SWAP1 POP SWAP2 SWAP1 POP JUMP JUMPDEST PUSH1 0x0 DUP2 SWAP1 POP SWAP2 SWAP1 POP JUMP JUMPDEST PUSH1 0x0 DUP1 REVERT JUMPDEST POP JUMP JUMPDEST PUSH2 0x2FA DUP2 PUSH2 0x2AD JUMP JUMPDEST DUP2 EQ PUSH2 0x305 JUMPI PUSH1 0x0 DUP1 REVERT JUMPDEST POP JUMP JUMPDEST PUSH2 0x311 DUP2 PUSH2 0x2DF JUMP JUMPDEST DUP2 EQ PUSH2 0x31C JUMPI PUSH1 0x0 DUP1 REVERT JUMPDEST POP JUMP INVALID LOG2 PUSH5 0x6970667358 0x22 SLT KECCAK256 DUP14 PUSH6 0x376D6EAD3394 CALLER LOG2 0xAF 0xA9 DIFFICULTY STOP SWAP2 0xE9 GT 0xEC GASPRICE 0xDB PUSH13 0x8D63D9625331A877A4C9026473 PUSH16 0x6C634300080700330000000000000000 "
		},
		"gasEstimates": {
			"creation": {
				"codeDepositCost": "170600",
				"executionCost": "190",
				"totalCost": "170790"
			},
			"external": {
				"callETH(address,uint256)": "infinite",
				"sendETH(address,uint256)": "infinite",
				"transferETH(address,uint256)": "infinite"
			}
		},
		"methodIdentifiers": {
			"callETH(address,uint256)": "8419cf50",
			"sendETH(address,uint256)": "64a197f3",
			"transferETH(address,uint256)": "7b1a4909"
		}
	},
	"abi": [
		{
			"inputs": [],
			"stateMutability": "payable",
			"type": "constructor"
		},
		{
			"inputs": [],
			"name": "CallFailed",
			"type": "error"
		},
		{
			"inputs": [],
			"name": "SendFailed",
			"type": "error"
		},
		{
			"inputs": [
				{
					"internalType": "address payable",
					"name": "toAddr",
					"type": "address"
				},
				{
					"internalType": "uint256",
					"name": "amount",
					"type": "uint256"
				}
			],
			"name": "callETH",
			"outputs": [],
			"stateMutability": "payable",
			"type": "function"
		},
		{
			"inputs": [
				{
					"internalType": "address payable",
					"name": "toAddr",
					"type": "address"
				},
				{
					"internalType": "uint256",
					"name": "amount",
					"type": "uint256"
				}
			],
			"name": "sendETH",
			"outputs": [],
			"stateMutability": "payable",
			"type": "function"
		},
		{
			"inputs": [
				{
					"internalType": "address payable",
					"name": "toAddr",
					"type": "address"
				},
				{
					"internalType": "uint256",
					"name": "amount",
					"type": "uint256"
				}
			],
			"name": "transferETH",
			"outputs": [],
			"stateMutability": "payable",
			"type": "function"
		},
		{
			"stateMutability": "payable",
			"type": "receive"
		}
	]
}