{
	"data": {
		"bytecode": {
			"linkReferences": {},
			"object": "6080604052607b60005560018055737a58c0be72be218b41c608b7fe7c5bb630736c71600260006101000a81548173ffffffffffffffffffffffffffffffffffffffff021916908373ffffffffffffffffffffffffffffffffffffffff1602179055506040518060400160405280600481526020017f637770700000000000000000000000000000000000000000000000000000000081525060039081620000a89190620003fa565b506040518060400160405280600660ff168152602001600960ff168152506004906002620000d892919062000117565b50604051602001620000ea906200053c565b604051602081830303815290604052805190602001206006553480156200011057600080fd5b5062000553565b82600281019282156200014e579160200282015b828111156200014d578251829060ff169055916020019190600101906200012b565b5b5090506200015d919062000161565b5090565b5b808211156200017c57600081600090555060010162000162565b5090565b600081519050919050565b7f4e487b7100000000000000000000000000000000000000000000000000000000600052604160045260246000fd5b7f4e487b7100000000000000000000000000000000000000000000000000000000600052602260045260246000fd5b600060028204905060018216806200020257607f821691505b602082108103620002185762000217620001ba565b5b50919050565b60008190508160005260206000209050919050565b60006020601f8301049050919050565b600082821b905092915050565b600060088302620002827fffffffffffffffffffffffffffffffffffffffffffffffffffffffffffffffff8262000243565b6200028e868362000243565b95508019841693508086168417925050509392505050565b6000819050919050565b6000819050919050565b6000620002db620002d5620002cf84620002a6565b620002b0565b620002a6565b9050919050565b6000819050919050565b620002f783620002ba565b6200030f6200030682620002e2565b84845462000250565b825550505050565b600090565b6200032662000317565b62000333818484620002ec565b505050565b5b818110156200035b576200034f6000826200031c565b60018101905062000339565b5050565b601f821115620003aa5762000374816200021e565b6200037f8462000233565b810160208510156200038f578190505b620003a76200039e8562000233565b83018262000338565b50505b505050565b600082821c905092915050565b6000620003cf60001984600802620003af565b1980831691505092915050565b6000620003ea8383620003bc565b9150826002028217905092915050565b620004058262000180565b67ffffffffffffffff8111156200042157620004206200018b565b5b6200042d8254620001e9565b6200043a8282856200035f565b600060209050601f8311600181146200047257600084156200045d578287015190505b620004698582620003dc565b865550620004d9565b601f19841662000482866200021e565b60005b82811015620004ac5784890151825560018201915060208501945060208101905062000485565b86831015620004cc5784890151620004c8601f891682620003bc565b8355505b6001600288020188555050505b505050505050565b600081905092915050565b7f3078616100000000000000000000000000000000000000000000000000000000600082015250565b600062000524600483620004e1565b91506200053182620004ec565b600482019050919050565b6000620005498262000515565b9150819050919050565b6115ca80620005636000396000f3fe608060405234801561001057600080fd5b50600436106100cf5760003560e01c8063a33750bb1161008c578063bd14598f11610066578063bd14598f146101f4578063bed7532c14610212578063d6abfc7b14610230578063f7d13ab014610260576100cf565b8063a33750bb14610185578063b55ffc04146101a3578063bac1d572146101c1576100cf565b806310c8c11d146100d45780632b9c6157146100f25780632cbf5292146101115780636a627842146101415780636b426eec1461015d57806387ecd4171461017b575b600080fd5b6100dc61027e565b6040516100e9919061072d565b60405180910390f35b6100fa610284565b6040516101089291906107f3565b60405180910390f35b61012b60048036038101906101269190610a00565b61036d565b604051610138919061072d565b60405180910390f35b61015b60048036038101906101569190610a6f565b6103a3565b005b6101656103e0565b6040516101729190610ad7565b60405180910390f35b610183610408565b005b61018d610457565b60405161019a9190610b01565b60405180910390f35b6101ab61045d565b6040516101b89190610b1c565b60405180910390f35b6101db60048036038101906101d69190610bdf565b61051f565b6040516101eb9493929190610d37565b60405180910390f35b6101fc610557565b6040516102099190610b1c565b60405180910390f35b61021a6105aa565b6040516102279190610b1c565b60405180910390f35b61024a60048036038101906102459190610d83565b6105fd565b6040516102579190610dcc565b60405180910390f35b610268610631565b6040516102759190610b1c565b60405180910390f35b60065481565b600060606000803073ffffffffffffffffffffffffffffffffffffffff16636a627842732c44b726adf1963ca47af88b284c06f30380fc786040516024016102cc9190610de7565b6040516020818303038152906040529060e01b6020820180517bffffffffffffffffffffffffffffffffffffffffffffffffffffffff838183161783525050505060405161031a9190610e3e565b6000604051808303816000865af19150503d8060008114610357576040519150601f19603f3d011682016040523d82523d6000602084013e61035c565b606091505b509150915081819350935050509091565b600083838360405160200161038493929190610efa565b6040516020818303038152906040528051906020012090509392505050565b7fafabcf2dd47e06a477a89e49c03f8ebe8e0a7e94f775b25bbb24227c9d0110b26000366040516103d5929190610f60565b60405180910390a150565b60007f6a627842f752de95745ef8f3ca67858982b5f585d752f8163e5855050041cb3c905090565b60026001600082825461041b9190610fb3565b9250508190555060018060008282546104349190610fb3565b9250508190555060026001600082825461044e9190610fe7565b92505081905550565b60015481565b60607fcc4decd87843118ac7919b8d43c3881a878e588562c10d9c65a231b5971b6c77600054600260009054906101000a900473ffffffffffffffffffffffffffffffffffffffff16600360046040516024016104bd94939291906111d8565b604051602081830303815290604052907bffffffffffffffffffffffffffffffffffffffffffffffffffffffff19166020820180517bffffffffffffffffffffffffffffffffffffffffffffffffffffffff8381831617835250505050905090565b600080606061052c6106f2565b84806020019051810190610540919061139d565b809450819550829650839750505050509193509193565b6060600054600260009054906101000a900473ffffffffffffffffffffffffffffffffffffffff166003600460405160200161059694939291906111d8565b604051602081830303815290604052905090565b6060600054600260009054906101000a900473ffffffffffffffffffffffffffffffffffffffff16600360046040516020016105e99493929190611533565b604051602081830303815290604052905090565b600060065482604051602001610613919061157d565b60405160208183030381529060405280519060200120149050919050565b6060600054600260009054906101000a900473ffffffffffffffffffffffffffffffffffffffff166003600460405160240161067094939291906111d8565b6040516020818303038152906040527fcc4decd8000000000000000000000000000000000000000000000000000000007bffffffffffffffffffffffffffffffffffffffffffffffffffffffff19166020820180517bffffffffffffffffffffffffffffffffffffffffffffffffffffffff8381831617835250505050905090565b6040518060400160405280600290602082028036833780820191505090505090565b6000819050919050565b61072781610714565b82525050565b6000602082019050610742600083018461071e565b92915050565b60008115159050919050565b61075d81610748565b82525050565b600081519050919050565b600082825260208201905092915050565b60005b8381101561079d578082015181840152602081019050610782565b60008484015250505050565b6000601f19601f8301169050919050565b60006107c582610763565b6107cf818561076e565b93506107df81856020860161077f565b6107e8816107a9565b840191505092915050565b60006040820190506108086000830185610754565b818103602083015261081a81846107ba565b90509392505050565b6000604051905090565b600080fd5b600080fd5b600080fd5b600080fd5b7f4e487b7100000000000000000000000000000000000000000000000000000000600052604160045260246000fd5b610879826107a9565b810181811067ffffffffffffffff8211171561089857610897610841565b5b80604052505050565b60006108ab610823565b90506108b78282610870565b919050565b600067ffffffffffffffff8211156108d7576108d6610841565b5b6108e0826107a9565b9050602081019050919050565b82818337600083830152505050565b600061090f61090a846108bc565b6108a1565b90508281526020810184848401111561092b5761092a61083c565b5b6109368482856108ed565b509392505050565b600082601f83011261095357610952610837565b5b81356109638482602086016108fc565b91505092915050565b6000819050919050565b61097f8161096c565b811461098a57600080fd5b50565b60008135905061099c81610976565b92915050565b600073ffffffffffffffffffffffffffffffffffffffff82169050919050565b60006109cd826109a2565b9050919050565b6109dd816109c2565b81146109e857600080fd5b50565b6000813590506109fa816109d4565b92915050565b600080600060608486031215610a1957610a1861082d565b5b600084013567ffffffffffffffff811115610a3757610a36610832565b5b610a438682870161093e565b9350506020610a548682870161098d565b9250506040610a65868287016109eb565b9150509250925092565b600060208284031215610a8557610a8461082d565b5b6000610a93848285016109eb565b91505092915050565b60007fffffffff0000000000000000000000000000000000000000000000000000000082169050919050565b610ad181610a9c565b82525050565b6000602082019050610aec6000830184610ac8565b92915050565b610afb8161096c565b82525050565b6000602082019050610b166000830184610af2565b92915050565b60006020820190508181036000830152610b3681846107ba565b905092915050565b600067ffffffffffffffff821115610b5957610b58610841565b5b610b62826107a9565b9050602081019050919050565b6000610b82610b7d84610b3e565b6108a1565b905082815260208101848484011115610b9e57610b9d61083c565b5b610ba98482856108ed565b509392505050565b600082601f830112610bc657610bc5610837565b5b8135610bd6848260208601610b6f565b91505092915050565b600060208284031215610bf557610bf461082d565b5b600082013567ffffffffffffffff811115610c1357610c12610832565b5b610c1f84828501610bb1565b91505092915050565b610c31816109c2565b82525050565b600081519050919050565b600082825260208201905092915050565b6000610c5e82610c37565b610c688185610c42565b9350610c7881856020860161077f565b610c81816107a9565b840191505092915050565b600060029050919050565b600081905092915050565b6000819050919050565b610cb58161096c565b82525050565b6000610cc78383610cac565b60208301905092915050565b6000602082019050919050565b610ce981610c8c565b610cf38184610c97565b9250610cfe82610ca2565b8060005b83811015610d2f578151610d168782610cbb565b9650610d2183610cd3565b925050600181019050610d02565b505050505050565b600060a082019050610d4c6000830187610af2565b610d596020830186610c28565b8181036040830152610d6b8185610c53565b9050610d7a6060830184610ce0565b95945050505050565b600060208284031215610d9957610d9861082d565b5b600082013567ffffffffffffffff811115610db757610db6610832565b5b610dc38482850161093e565b91505092915050565b6000602082019050610de16000830184610754565b92915050565b6000602082019050610dfc6000830184610c28565b92915050565b600081905092915050565b6000610e1882610763565b610e228185610e02565b9350610e3281856020860161077f565b80840191505092915050565b6000610e4a8284610e0d565b915081905092915050565b600081905092915050565b6000610e6b82610c37565b610e758185610e55565b9350610e8581856020860161077f565b80840191505092915050565b6000819050919050565b610eac610ea78261096c565b610e91565b82525050565b60008160601b9050919050565b6000610eca82610eb2565b9050919050565b6000610edc82610ebf565b9050919050565b610ef4610eef826109c2565b610ed1565b82525050565b6000610f068286610e60565b9150610f128285610e9b565b602082019150610f228284610ee3565b601482019150819050949350505050565b6000610f3f838561076e565b9350610f4c8385846108ed565b610f55836107a9565b840190509392505050565b60006020820190508181036000830152610f7b818486610f33565b90509392505050565b7f4e487b7100000000000000000000000000000000000000000000000000000000600052601160045260246000fd5b6000610fbe8261096c565b9150610fc98361096c565b9250828201905080821115610fe157610fe0610f84565b5b92915050565b6000610ff28261096c565b9150610ffd8361096c565b925082820390508181111561101557611014610f84565b5b92915050565b7f4e487b7100000000000000000000000000000000000000000000000000000000600052602260045260246000fd5b6000600282049050600182168061106257607f821691505b6020821081036110755761107461101b565b5b50919050565b60008190508160005260206000209050919050565b6000815461109d8161104a565b6110a78186610c42565b945060018216600081146110c257600181146110d85761110b565b60ff19831686528115156020028601935061110b565b6110e18561107b565b60005b83811015611103578154818901526001820191506020810190506110e4565b808801955050505b50505092915050565b600060029050919050565b6000819050919050565b60008160001c9050919050565b6000819050919050565b600061115361114e83611129565b611136565b9050919050565b60006111668254611140565b9050919050565b6000600182019050919050565b61118381611114565b61118d8184610c97565b92506111988261111f565b8060005b838110156111d0576111ad8261115a565b6111b78782610cbb565b96506111c28361116d565b92505060018101905061119c565b505050505050565b600060a0820190506111ed6000830187610af2565b6111fa6020830186610c28565b818103604083015261120c8185611090565b905061121b606083018461117a565b95945050505050565b60008151905061123381610976565b92915050565b6000611244826109a2565b9050919050565b61125481611239565b811461125f57600080fd5b50565b6000815190506112718161124b565b92915050565b600061128a611285846108bc565b6108a1565b9050828152602081018484840111156112a6576112a561083c565b5b6112b184828561077f565b509392505050565b600082601f8301126112ce576112cd610837565b5b81516112de848260208601611277565b91505092915050565b600067ffffffffffffffff82111561130257611301610841565b5b602082029050919050565b600080fd5b6000611325611320846112e7565b6108a1565b9050806020840283018581111561133f5761133e61130d565b5b835b8181101561136857806113548882611224565b845260208401935050602081019050611341565b5050509392505050565b600082601f83011261138757611386610837565b5b6002611394848285611312565b91505092915050565b60008060008060a085870312156113b7576113b661082d565b5b60006113c587828801611224565b94505060206113d687828801611262565b935050604085015167ffffffffffffffff8111156113f7576113f6610832565b5b611403878288016112b9565b925050606061141487828801611372565b91505092959194509250565b6000815461142d8161104a565b6114378186610e55565b9450600182166000811461145257600181146114675761149a565b60ff198316865281151582028601935061149a565b6114708561107b565b60005b8381101561149257815481890152600182019150602081019050611473565b838801955050505b50505092915050565b600081905092915050565b6114b78161096c565b82525050565b60006114c983836114ae565b60208301905092915050565b6114de81611114565b6114e881846114a3565b92506114f38261111f565b8060005b8381101561152b576115088261115a565b61151287826114bd565b965061151d8361116d565b9250506001810190506114f7565b505050505050565b600061153f8287610e9b565b60208201915061154f8286610ee3565b60148201915061155f8285611420565b915061156b82846114d5565b60408201915081905095945050505050565b60006115898284610e60565b91508190509291505056fea2646970667358221220c54f302067a01db41be5e0b7484285277259d922936de20f413cfb48208fcc2064736f6c63430008120033",
			"opcodes": "PUSH1 0x80 PUSH1 0x40 MSTORE PUSH1 0x7B PUSH1 0x0 SSTORE PUSH1 0x1 DUP1 SSTORE PUSH20 0x7A58C0BE72BE218B41C608B7FE7C5BB630736C71 PUSH1 0x2 PUSH1 0x0 PUSH2 0x100 EXP DUP2 SLOAD DUP2 PUSH20 0xFFFFFFFFFFFFFFFFFFFFFFFFFFFFFFFFFFFFFFFF MUL NOT AND SWAP1 DUP4 PUSH20 0xFFFFFFFFFFFFFFFFFFFFFFFFFFFFFFFFFFFFFFFF AND MUL OR SWAP1 SSTORE POP PUSH1 0x40 MLOAD DUP1 PUSH1 0x40 ADD PUSH1 0x40 MSTORE DUP1 PUSH1 0x4 DUP2 MSTORE PUSH1 0x20 ADD PUSH32 0x6377707000000000000000000000000000000000000000000000000000000000 DUP2 MSTORE POP PUSH1 0x3 SWAP1 DUP2 PUSH3 0xA8 SWAP2 SWAP1 PUSH3 0x3FA JUMP JUMPDEST POP PUSH1 0x40 MLOAD DUP1 PUSH1 0x40 ADD PUSH1 0x40 MSTORE DUP1 PUSH1 0x6 PUSH1 0xFF AND DUP2 MSTORE PUSH1 0x20 ADD PUSH1 0x9 PUSH1 0xFF AND DUP2 MSTORE POP PUSH1 0x4 SWAP1 PUSH1 0x2 PUSH3 0xD8 SWAP3 SWAP2 SWAP1 PUSH3 0x117 JUMP JUMPDEST POP PUSH1 0x40 MLOAD PUSH1 0x20 ADD PUSH3 0xEA SWAP1 PUSH3 0x53C JUMP JUMPDEST PUSH1 0x40 MLOAD PUSH1 0x20 DUP2 DUP4 SUB SUB DUP2 MSTORE SWAP1 PUSH1 0x40 MSTORE DUP1 MLOAD SWAP1 PUSH1 0x20 ADD KECCAK256 PUSH1 0x6 SSTORE CALLVALUE DUP1 ISZERO PUSH3 0x110 JUMPI PUSH1 0x0 DUP1 REVERT JUMPDEST POP PUSH3 0x553 JUMP JUMPDEST DUP3 PUSH1 0x2 DUP2 ADD SWAP3 DUP3 ISZERO PUSH3 0x14E JUMPI SWAP2 PUSH1 0x20 MUL DUP3 ADD JUMPDEST DUP3 DUP2 GT ISZERO PUSH3 0x14D JUMPI DUP3 MLOAD DUP3 SWAP1 PUSH1 0xFF AND SWAP1 SSTORE SWAP2 PUSH1 0x20 ADD SWAP2 SWAP1 PUSH1 0x1 ADD SWAP1 PUSH3 0x12B JUMP JUMPDEST JUMPDEST POP SWAP1 POP PUSH3 0x15D SWAP2 SWAP1 PUSH3 0x161 JUMP JUMPDEST POP SWAP1 JUMP JUMPDEST JUMPDEST DUP1 DUP3 GT ISZERO PUSH3 0x17C JUMPI PUSH1 0x0 DUP2 PUSH1 0x0 SWAP1 SSTORE POP PUSH1 0x1 ADD PUSH3 0x162 JUMP JUMPDEST POP SWAP1 JUMP JUMPDEST PUSH1 0x0 DUP2 MLOAD SWAP1 POP SWAP2 SWAP1 POP JUMP JUMPDEST PUSH32 0x4E487B7100000000000000000000000000000000000000000000000000000000 PUSH1 0x0 MSTORE PUSH1 0x41 PUSH1 0x4 MSTORE PUSH1 0x24 PUSH1 0x0 REVERT JUMPDEST PUSH32 0x4E487B7100000000000000000000000000000000000000000000000000000000 PUSH1 0x0 MSTORE PUSH1 0x22 PUSH1 0x4 MSTORE PUSH1 0x24 PUSH1 0x0 REVERT JUMPDEST PUSH1 0x0 PUSH1 0x2 DUP3 DIV SWAP1 POP PUSH1 0x1 DUP3 AND DUP1 PUSH3 0x202 JUMPI PUSH1 0x7F DUP3 AND SWAP2 POP JUMPDEST PUSH1 0x20 DUP3 LT DUP2 SUB PUSH3 0x218 JUMPI PUSH3 0x217 PUSH3 0x1BA JUMP JUMPDEST JUMPDEST POP SWAP2 SWAP1 POP JUMP JUMPDEST PUSH1 0x0 DUP2 SWAP1 POP DUP2 PUSH1 0x0 MSTORE PUSH1 0x20 PUSH1 0x0 KECCAK256 SWAP1 POP SWAP2 SWAP1 POP JUMP JUMPDEST PUSH1 0x0 PUSH1 0x20 PUSH1 0x1F DUP4 ADD DIV SWAP1 POP SWAP2 SWAP1 POP JUMP JUMPDEST PUSH1 0x0 DUP3 DUP3 SHL SWAP1 POP SWAP3 SWAP2 POP POP JUMP JUMPDEST PUSH1 0x0 PUSH1 0x8 DUP4 MUL PUSH3 0x282 PUSH32 0xFFFFFFFFFFFFFFFFFFFFFFFFFFFFFFFFFFFFFFFFFFFFFFFFFFFFFFFFFFFFFFFF DUP3 PUSH3 0x243 JUMP JUMPDEST PUSH3 0x28E DUP7 DUP4 PUSH3 0x243 JUMP JUMPDEST SWAP6 POP DUP1 NOT DUP5 AND SWAP4 POP DUP1 DUP7 AND DUP5 OR SWAP3 POP POP POP SWAP4 SWAP3 POP POP POP JUMP JUMPDEST PUSH1 0x0 DUP2 SWAP1 POP SWAP2 SWAP1 POP JUMP JUMPDEST PUSH1 0x0 DUP2 SWAP1 POP SWAP2 SWAP1 POP JUMP JUMPDEST PUSH1 0x0 PUSH3 0x2DB PUSH3 0x2D5 PUSH3 0x2CF DUP5 PUSH3 0x2A6 JUMP JUMPDEST PUSH3 0x2B0 JUMP JUMPDEST PUSH3 0x2A6 JUMP JUMPDEST SWAP1 POP SWAP2 SWAP1 POP JUMP JUMPDEST PUSH1 0x0 DUP2 SWAP1 POP SWAP2 SWAP1 POP JUMP JUMPDEST PUSH3 0x2F7 DUP4 PUSH3 0x2BA JUMP JUMPDEST PUSH3 0x30F PUSH3 0x306 DUP3 PUSH3 0x2E2 JUMP JUMPDEST DUP5 DUP5 SLOAD PUSH3 0x250 JUMP JUMPDEST DUP3 SSTORE POP POP POP POP JUMP JUMPDEST PUSH1 0x0 SWAP1 JUMP JUMPDEST PUSH3 0x326 PUSH3 0x317 JUMP JUMPDEST PUSH3 0x333 DUP2 DUP5 DUP5 PUSH3 0x2EC JUMP JUMPDEST POP POP POP JUMP JUMPDEST JUMPDEST DUP2 DUP2 LT ISZERO PUSH3 0x35B JUMPI PUSH3 0x34F PUSH1 0x0 DUP3 PUSH3 0x31C JUMP JUMPDEST PUSH1 0x1 DUP2 ADD SWAP1 POP PUSH3 0x339 JUMP JUMPDEST POP POP JUMP JUMPDEST PUSH1 0x1F DUP3 GT ISZERO PUSH3 0x3AA JUMPI PUSH3 0x374 DUP2 PUSH3 0x21E JUMP JUMPDEST PUSH3 0x37F DUP5 PUSH3 0x233 JUMP JUMPDEST DUP2 ADD PUSH1 0x20 DUP6 LT ISZERO PUSH3 0x38F JUMPI DUP2 SWAP1 POP JUMPDEST PUSH3 0x3A7 PUSH3 0x39E DUP6 PUSH3 0x233 JUMP JUMPDEST DUP4 ADD DUP3 PUSH3 0x338 JUMP JUMPDEST POP POP JUMPDEST POP POP POP JUMP JUMPDEST PUSH1 0x0 DUP3 DUP3 SHR SWAP1 POP SWAP3 SWAP2 POP POP JUMP JUMPDEST PUSH1 0x0 PUSH3 0x3CF PUSH1 0x0 NOT DUP5 PUSH1 0x8 MUL PUSH3 0x3AF JUMP JUMPDEST NOT DUP1 DUP4 AND SWAP2 POP POP SWAP3 SWAP2 POP POP JUMP JUMPDEST PUSH1 0x0 PUSH3 0x3EA DUP4 DUP4 PUSH3 0x3BC JUMP JUMPDEST SWAP2 POP DUP3 PUSH1 0x2 MUL DUP3 OR SWAP1 POP SWAP3 SWAP2 POP POP JUMP JUMPDEST PUSH3 0x405 DUP3 PUSH3 0x180 JUMP JUMPDEST PUSH8 0xFFFFFFFFFFFFFFFF DUP2 GT ISZERO PUSH3 0x421 JUMPI PUSH3 0x420 PUSH3 0x18B JUMP JUMPDEST JUMPDEST PUSH3 0x42D DUP3 SLOAD PUSH3 0x1E9 JUMP JUMPDEST PUSH3 0x43A DUP3 DUP3 DUP6 PUSH3 0x35F JUMP JUMPDEST PUSH1 0x0 PUSH1 0x20 SWAP1 POP PUSH1 0x1F DUP4 GT PUSH1 0x1 DUP2 EQ PUSH3 0x472 JUMPI PUSH1 0x0 DUP5 ISZERO PUSH3 0x45D JUMPI DUP3 DUP8 ADD MLOAD SWAP1 POP JUMPDEST PUSH3 0x469 DUP6 DUP3 PUSH3 0x3DC JUMP JUMPDEST DUP7 SSTORE POP PUSH3 0x4D9 JUMP JUMPDEST PUSH1 0x1F NOT DUP5 AND PUSH3 0x482 DUP7 PUSH3 0x21E JUMP JUMPDEST PUSH1 0x0 JUMPDEST DUP3 DUP2 LT ISZERO PUSH3 0x4AC JUMPI DUP5 DUP10 ADD MLOAD DUP3 SSTORE PUSH1 0x1 DUP3 ADD SWAP2 POP PUSH1 0x20 DUP6 ADD SWAP5 POP PUSH1 0x20 DUP2 ADD SWAP1 POP PUSH3 0x485 JUMP JUMPDEST DUP7 DUP4 LT ISZERO PUSH3 0x4CC JUMPI DUP5 DUP10 ADD MLOAD PUSH3 0x4C8 PUSH1 0x1F DUP10 AND DUP3 PUSH3 0x3BC JUMP JUMPDEST DUP4 SSTORE POP JUMPDEST PUSH1 0x1 PUSH1 0x2 DUP9 MUL ADD DUP9 SSTORE POP POP POP JUMPDEST POP POP POP POP POP POP JUMP JUMPDEST PUSH1 0x0 DUP2 SWAP1 POP SWAP3 SWAP2 POP POP JUMP JUMPDEST PUSH32 0x3078616100000000000000000000000000000000000000000000000000000000 PUSH1 0x0 DUP3 ADD MSTORE POP JUMP JUMPDEST PUSH1 0x0 PUSH3 0x524 PUSH1 0x4 DUP4 PUSH3 0x4E1 JUMP JUMPDEST SWAP2 POP PUSH3 0x531 DUP3 PUSH3 0x4EC JUMP JUMPDEST PUSH1 0x4 DUP3 ADD SWAP1 POP SWAP2 SWAP1 POP JUMP JUMPDEST PUSH1 0x0 PUSH3 0x549 DUP3 PUSH3 0x515 JUMP JUMPDEST SWAP2 POP DUP2 SWAP1 POP SWAP2 SWAP1 POP JUMP JUMPDEST PUSH2 0x15CA DUP1 PUSH3 0x563 PUSH1 0x0 CODECOPY PUSH1 0x0 RETURN INVALID PUSH1 0x80 PUSH1 0x40 MSTORE CALLVALUE DUP1 ISZERO PUSH2 0x10 JUMPI PUSH1 0x0 DUP1 REVERT JUMPDEST POP PUSH1 0x4 CALLDATASIZE LT PUSH2 0xCF JUMPI PUSH1 0x0 CALLDATALOAD PUSH1 0xE0 SHR DUP1 PUSH4 0xA33750BB GT PUSH2 0x8C JUMPI DUP1 PUSH4 0xBD14598F GT PUSH2 0x66 JUMPI DUP1 PUSH4 0xBD14598F EQ PUSH2 0x1F4 JUMPI DUP1 PUSH4 0xBED7532C EQ PUSH2 0x212 JUMPI DUP1 PUSH4 0xD6ABFC7B EQ PUSH2 0x230 JUMPI DUP1 PUSH4 0xF7D13AB0 EQ PUSH2 0x260 JUMPI PUSH2 0xCF JUMP JUMPDEST DUP1 PUSH4 0xA33750BB EQ PUSH2 0x185 JUMPI DUP1 PUSH4 0xB55FFC04 EQ PUSH2 0x1A3 JUMPI DUP1 PUSH4 0xBAC1D572 EQ PUSH2 0x1C1 JUMPI PUSH2 0xCF JUMP JUMPDEST DUP1 PUSH4 0x10C8C11D EQ PUSH2 0xD4 JUMPI DUP1 PUSH4 0x2B9C6157 EQ PUSH2 0xF2 JUMPI DUP1 PUSH4 0x2CBF5292 EQ PUSH2 0x111 JUMPI DUP1 PUSH4 0x6A627842 EQ PUSH2 0x141 JUMPI DUP1 PUSH4 0x6B426EEC EQ PUSH2 0x15D JUMPI DUP1 PUSH4 0x87ECD417 EQ PUSH2 0x17B JUMPI JUMPDEST PUSH1 0x0 DUP1 REVERT JUMPDEST PUSH2 0xDC PUSH2 0x27E JUMP JUMPDEST PUSH1 0x40 MLOAD PUSH2 0xE9 SWAP2 SWAP1 PUSH2 0x72D JUMP JUMPDEST PUSH1 0x40 MLOAD DUP1 SWAP2 SUB SWAP1 RETURN JUMPDEST PUSH2 0xFA PUSH2 0x284 JUMP JUMPDEST PUSH1 0x40 MLOAD PUSH2 0x108 SWAP3 SWAP2 SWAP1 PUSH2 0x7F3 JUMP JUMPDEST PUSH1 0x40 MLOAD DUP1 SWAP2 SUB SWAP1 RETURN JUMPDEST PUSH2 0x12B PUSH1 0x4 DUP1 CALLDATASIZE SUB DUP2 ADD SWAP1 PUSH2 0x126 SWAP2 SWAP1 PUSH2 0xA00 JUMP JUMPDEST PUSH2 0x36D JUMP JUMPDEST PUSH1 0x40 MLOAD PUSH2 0x138 SWAP2 SWAP1 PUSH2 0x72D JUMP JUMPDEST PUSH1 0x40 MLOAD DUP1 SWAP2 SUB SWAP1 RETURN JUMPDEST PUSH2 0x15B PUSH1 0x4 DUP1 CALLDATASIZE SUB DUP2 ADD SWAP1 PUSH2 0x156 SWAP2 SWAP1 PUSH2 0xA6F JUMP JUMPDEST PUSH2 0x3A3 JUMP JUMPDEST STOP JUMPDEST PUSH2 0x165 PUSH2 0x3E0 JUMP JUMPDEST PUSH1 0x40 MLOAD PUSH2 0x172 SWAP2 SWAP1 PUSH2 0xAD7 JUMP JUMPDEST PUSH1 0x40 MLOAD DUP1 SWAP2 SUB SWAP1 RETURN JUMPDEST PUSH2 0x183 PUSH2 0x408 JUMP JUMPDEST STOP JUMPDEST PUSH2 0x18D PUSH2 0x457 JUMP JUMPDEST PUSH1 0x40 MLOAD PUSH2 0x19A SWAP2 SWAP1 PUSH2 0xB01 JUMP JUMPDEST PUSH1 0x40 MLOAD DUP1 SWAP2 SUB SWAP1 RETURN JUMPDEST PUSH2 0x1AB PUSH2 0x45D JUMP JUMPDEST PUSH1 0x40 MLOAD PUSH2 0x1B8 SWAP2 SWAP1 PUSH2 0xB1C JUMP JUMPDEST PUSH1 0x40 MLOAD DUP1 SWAP2 SUB SWAP1 RETURN JUMPDEST PUSH2 0x1DB PUSH1 0x4 DUP1 CALLDATASIZE SUB DUP2 ADD SWAP1 PUSH2 0x1D6 SWAP2 SWAP1 PUSH2 0xBDF JUMP JUMPDEST PUSH2 0x51F JUMP JUMPDEST PUSH1 0x40 MLOAD PUSH2 0x1EB SWAP5 SWAP4 SWAP3 SWAP2 SWAP1 PUSH2 0xD37 JUMP JUMPDEST PUSH1 0x40 MLOAD DUP1 SWAP2 SUB SWAP1 RETURN JUMPDEST PUSH2 0x1FC PUSH2 0x557 JUMP JUMPDEST PUSH1 0x40 MLOAD PUSH2 0x209 SWAP2 SWAP1 PUSH2 0xB1C JUMP JUMPDEST PUSH1 0x40 MLOAD DUP1 SWAP2 SUB SWAP1 RETURN JUMPDEST PUSH2 0x21A PUSH2 0x5AA JUMP JUMPDEST PUSH1 0x40 MLOAD PUSH2 0x227 SWAP2 SWAP1 PUSH2 0xB1C JUMP JUMPDEST PUSH1 0x40 MLOAD DUP1 SWAP2 SUB SWAP1 RETURN JUMPDEST PUSH2 0x24A PUSH1 0x4 DUP1 CALLDATASIZE SUB DUP2 ADD SWAP1 PUSH2 0x245 SWAP2 SWAP1 PUSH2 0xD83 JUMP JUMPDEST PUSH2 0x5FD JUMP JUMPDEST PUSH1 0x40 MLOAD PUSH2 0x257 SWAP2 SWAP1 PUSH2 0xDCC JUMP JUMPDEST PUSH1 0x40 MLOAD DUP1 SWAP2 SUB SWAP1 RETURN JUMPDEST PUSH2 0x268 PUSH2 0x631 JUMP JUMPDEST PUSH1 0x40 MLOAD PUSH2 0x275 SWAP2 SWAP1 PUSH2 0xB1C JUMP JUMPDEST PUSH1 0x40 MLOAD DUP1 SWAP2 SUB SWAP1 RETURN JUMPDEST PUSH1 0x6 SLOAD DUP2 JUMP JUMPDEST PUSH1 0x0 PUSH1 0x60 PUSH1 0x0 DUP1 ADDRESS PUSH20 0xFFFFFFFFFFFFFFFFFFFFFFFFFFFFFFFFFFFFFFFF AND PUSH4 0x6A627842 PUSH20 0x2C44B726ADF1963CA47AF88B284C06F30380FC78 PUSH1 0x40 MLOAD PUSH1 0x24 ADD PUSH2 0x2CC SWAP2 SWAP1 PUSH2 0xDE7 JUMP JUMPDEST PUSH1 0x40 MLOAD PUSH1 0x20 DUP2 DUP4 SUB SUB DUP2 MSTORE SWAP1 PUSH1 0x40 MSTORE SWAP1 PUSH1 0xE0 SHL PUSH1 0x20 DUP3 ADD DUP1 MLOAD PUSH28 0xFFFFFFFFFFFFFFFFFFFFFFFFFFFFFFFFFFFFFFFFFFFFFFFFFFFFFFFF DUP4 DUP2 DUP4 AND OR DUP4 MSTORE POP POP POP POP PUSH1 0x40 MLOAD PUSH2 0x31A SWAP2 SWAP1 PUSH2 0xE3E JUMP JUMPDEST PUSH1 0x0 PUSH1 0x40 MLOAD DUP1 DUP4 SUB DUP2 PUSH1 0x0 DUP7 GAS CALL SWAP2 POP POP RETURNDATASIZE DUP1 PUSH1 0x0 DUP2 EQ PUSH2 0x357 JUMPI PUSH1 0x40 MLOAD SWAP2 POP PUSH1 0x1F NOT PUSH1 0x3F RETURNDATASIZE ADD AND DUP3 ADD PUSH1 0x40 MSTORE RETURNDATASIZE DUP3 MSTORE RETURNDATASIZE PUSH1 0x0 PUSH1 0x20 DUP5 ADD RETURNDATACOPY PUSH2 0x35C JUMP JUMPDEST PUSH1 0x60 SWAP2 POP JUMPDEST POP SWAP2 POP SWAP2 POP DUP2 DUP2 SWAP4 POP SWAP4 POP POP POP SWAP1 SWAP2 JUMP JUMPDEST PUSH1 0x0 DUP4 DUP4 DUP4 PUSH1 0x40 MLOAD PUSH1 0x20 ADD PUSH2 0x384 SWAP4 SWAP3 SWAP2 SWAP1 PUSH2 0xEFA JUMP JUMPDEST PUSH1 0x40 MLOAD PUSH1 0x20 DUP2 DUP4 SUB SUB DUP2 MSTORE SWAP1 PUSH1 0x40 MSTORE DUP1 MLOAD SWAP1 PUSH1 0x20 ADD KECCAK256 SWAP1 POP SWAP4 SWAP3 POP POP POP JUMP JUMPDEST PUSH32 0xAFABCF2DD47E06A477A89E49C03F8EBE8E0A7E94F775B25BBB24227C9D0110B2 PUSH1 0x0 CALLDATASIZE PUSH1 0x40 MLOAD PUSH2 0x3D5 SWAP3 SWAP2 SWAP1 PUSH2 0xF60 JUMP JUMPDEST PUSH1 0x40 MLOAD DUP1 SWAP2 SUB SWAP1 LOG1 POP JUMP JUMPDEST PUSH1 0x0 PUSH32 0x6A627842F752DE95745EF8F3CA67858982B5F585D752F8163E5855050041CB3C SWAP1 POP SWAP1 JUMP JUMPDEST PUSH1 0x2 PUSH1 0x1 PUSH1 0x0 DUP3 DUP3 SLOAD PUSH2 0x41B SWAP2 SWAP1 PUSH2 0xFB3 JUMP JUMPDEST SWAP3 POP POP DUP2 SWAP1 SSTORE POP PUSH1 0x1 DUP1 PUSH1 0x0 DUP3 DUP3 SLOAD PUSH2 0x434 SWAP2 SWAP1 PUSH2 0xFB3 JUMP JUMPDEST SWAP3 POP POP DUP2 SWAP1 SSTORE POP PUSH1 0x2 PUSH1 0x1 PUSH1 0x0 DUP3 DUP3 SLOAD PUSH2 0x44E SWAP2 SWAP1 PUSH2 0xFE7 JUMP JUMPDEST SWAP3 POP POP DUP2 SWAP1 SSTORE POP JUMP JUMPDEST PUSH1 0x1 SLOAD DUP2 JUMP JUMPDEST PUSH1 0x60 PUSH32 0xCC4DECD87843118AC7919B8D43C3881A878E588562C10D9C65A231B5971B6C77 PUSH1 0x0 SLOAD PUSH1 0x2 PUSH1 0x0 SWAP1 SLOAD SWAP1 PUSH2 0x100 EXP SWAP1 DIV PUSH20 0xFFFFFFFFFFFFFFFFFFFFFFFFFFFFFFFFFFFFFFFF AND PUSH1 0x3 PUSH1 0x4 PUSH1 0x40 MLOAD PUSH1 0x24 ADD PUSH2 0x4BD SWAP5 SWAP4 SWAP3 SWAP2 SWAP1 PUSH2 0x11D8 JUMP JUMPDEST PUSH1 0x40 MLOAD PUSH1 0x20 DUP2 DUP4 SUB SUB DUP2 MSTORE SWAP1 PUSH1 0x40 MSTORE SWAP1 PUSH28 0xFFFFFFFFFFFFFFFFFFFFFFFFFFFFFFFFFFFFFFFFFFFFFFFFFFFFFFFF NOT AND PUSH1 0x20 DUP3 ADD DUP1 MLOAD PUSH28 0xFFFFFFFFFFFFFFFFFFFFFFFFFFFFFFFFFFFFFFFFFFFFFFFFFFFFFFFF DUP4 DUP2 DUP4 AND OR DUP4 MSTORE POP POP POP POP SWAP1 POP SWAP1 JUMP JUMPDEST PUSH1 0x0 DUP1 PUSH1 0x60 PUSH2 0x52C PUSH2 0x6F2 JUMP JUMPDEST DUP5 DUP1 PUSH1 0x20 ADD SWAP1 MLOAD DUP2 ADD SWAP1 PUSH2 0x540 SWAP2 SWAP1 PUSH2 0x139D JUMP JUMPDEST DUP1 SWAP5 POP DUP2 SWAP6 POP DUP3 SWAP7 POP DUP4 SWAP8 POP POP POP POP POP SWAP2 SWAP4 POP SWAP2 SWAP4 JUMP JUMPDEST PUSH1 0x60 PUSH1 0x0 SLOAD PUSH1 0x2 PUSH1 0x0 SWAP1 SLOAD SWAP1 PUSH2 0x100 EXP SWAP1 DIV PUSH20 0xFFFFFFFFFFFFFFFFFFFFFFFFFFFFFFFFFFFFFFFF AND PUSH1 0x3 PUSH1 0x4 PUSH1 0x40 MLOAD PUSH1 0x20 ADD PUSH2 0x596 SWAP5 SWAP4 SWAP3 SWAP2 SWAP1 PUSH2 0x11D8 JUMP JUMPDEST PUSH1 0x40 MLOAD PUSH1 0x20 DUP2 DUP4 SUB SUB DUP2 MSTORE SWAP1 PUSH1 0x40 MSTORE SWAP1 POP SWAP1 JUMP JUMPDEST PUSH1 0x60 PUSH1 0x0 SLOAD PUSH1 0x2 PUSH1 0x0 SWAP1 SLOAD SWAP1 PUSH2 0x100 EXP SWAP1 DIV PUSH20 0xFFFFFFFFFFFFFFFFFFFFFFFFFFFFFFFFFFFFFFFF AND PUSH1 0x3 PUSH1 0x4 PUSH1 0x40 MLOAD PUSH1 0x20 ADD PUSH2 0x5E9 SWAP5 SWAP4 SWAP3 SWAP2 SWAP1 PUSH2 0x1533 JUMP JUMPDEST PUSH1 0x40 MLOAD PUSH1 0x20 DUP2 DUP4 SUB SUB DUP2 MSTORE SWAP1 PUSH1 0x40 MSTORE SWAP1 POP SWAP1 JUMP JUMPDEST PUSH1 0x0 PUSH1 0x6 SLOAD DUP3 PUSH1 0x40 MLOAD PUSH1 0x20 ADD PUSH2 0x613 SWAP2 SWAP1 PUSH2 0x157D JUMP JUMPDEST PUSH1 0x40 MLOAD PUSH1 0x20 DUP2 DUP4 SUB SUB DUP2 MSTORE SWAP1 PUSH1 0x40 MSTORE DUP1 MLOAD SWAP1 PUSH1 0x20 ADD KECCAK256 EQ SWAP1 POP SWAP2 SWAP1 POP JUMP JUMPDEST PUSH1 0x60 PUSH1 0x0 SLOAD PUSH1 0x2 PUSH1 0x0 SWAP1 SLOAD SWAP1 PUSH2 0x100 EXP SWAP1 DIV PUSH20 0xFFFFFFFFFFFFFFFFFFFFFFFFFFFFFFFFFFFFFFFF AND PUSH1 0x3 PUSH1 0x4 PUSH1 0x40 MLOAD PUSH1 0x24 ADD PUSH2 0x670 SWAP5 SWAP4 SWAP3 SWAP2 SWAP1 PUSH2 0x11D8 JUMP JUMPDEST PUSH1 0x40 MLOAD PUSH1 0x20 DUP2 DUP4 SUB SUB DUP2 MSTORE SWAP1 PUSH1 0x40 MSTORE PUSH32 0xCC4DECD800000000000000000000000000000000000000000000000000000000 PUSH28 0xFFFFFFFFFFFFFFFFFFFFFFFFFFFFFFFFFFFFFFFFFFFFFFFFFFFFFFFF NOT AND PUSH1 0x20 DUP3 ADD DUP1 MLOAD PUSH28 0xFFFFFFFFFFFFFFFFFFFFFFFFFFFFFFFFFFFFFFFFFFFFFFFFFFFFFFFF DUP4 DUP2 DUP4 AND OR DUP4 MSTORE POP POP POP POP SWAP1 POP SWAP1 JUMP JUMPDEST PUSH1 0x40 MLOAD DUP1 PUSH1 0x40 ADD PUSH1 0x40 MSTORE DUP1 PUSH1 0x2 SWAP1 PUSH1 0x20 DUP3 MUL DUP1 CALLDATASIZE DUP4 CALLDATACOPY DUP1 DUP3 ADD SWAP2 POP POP SWAP1 POP POP SWAP1 JUMP JUMPDEST PUSH1 0x0 DUP2 SWAP1 POP SWAP2 SWAP1 POP JUMP JUMPDEST PUSH2 0x727 DUP2 PUSH2 0x714 JUMP JUMPDEST DUP3 MSTORE POP POP JUMP JUMPDEST PUSH1 0x0 PUSH1 0x20 DUP3 ADD SWAP1 POP PUSH2 0x742 PUSH1 0x0 DUP4 ADD DUP5 PUSH2 0x71E JUMP JUMPDEST SWAP3 SWAP2 POP POP JUMP JUMPDEST PUSH1 0x0 DUP2 ISZERO ISZERO SWAP1 POP SWAP2 SWAP1 POP JUMP JUMPDEST PUSH2 0x75D DUP2 PUSH2 0x748 JUMP JUMPDEST DUP3 MSTORE POP POP JUMP JUMPDEST PUSH1 0x0 DUP2 MLOAD SWAP1 POP SWAP2 SWAP1 POP JUMP JUMPDEST PUSH1 0x0 DUP3 DUP3 MSTORE PUSH1 0x20 DUP3 ADD SWAP1 POP SWAP3 SWAP2 POP POP JUMP JUMPDEST PUSH1 0x0 JUMPDEST DUP4 DUP2 LT ISZERO PUSH2 0x79D JUMPI DUP1 DUP3 ADD MLOAD DUP2 DUP5 ADD MSTORE PUSH1 0x20 DUP2 ADD SWAP1 POP PUSH2 0x782 JUMP JUMPDEST PUSH1 0x0 DUP5 DUP5 ADD MSTORE POP POP POP POP JUMP JUMPDEST PUSH1 0x0 PUSH1 0x1F NOT PUSH1 0x1F DUP4 ADD AND SWAP1 POP SWAP2 SWAP1 POP JUMP JUMPDEST PUSH1 0x0 PUSH2 0x7C5 DUP3 PUSH2 0x763 JUMP JUMPDEST PUSH2 0x7CF DUP2 DUP6 PUSH2 0x76E JUMP JUMPDEST SWAP4 POP PUSH2 0x7DF DUP2 DUP6 PUSH1 0x20 DUP7 ADD PUSH2 0x77F JUMP JUMPDEST PUSH2 0x7E8 DUP2 PUSH2 0x7A9 JUMP JUMPDEST DUP5 ADD SWAP2 POP POP SWAP3 SWAP2 POP POP JUMP JUMPDEST PUSH1 0x0 PUSH1 0x40 DUP3 ADD SWAP1 POP PUSH2 0x808 PUSH1 0x0 DUP4 ADD DUP6 PUSH2 0x754 JUMP JUMPDEST DUP2 DUP2 SUB PUSH1 0x20 DUP4 ADD MSTORE PUSH2 0x81A DUP2 DUP5 PUSH2 0x7BA JUMP JUMPDEST SWAP1 POP SWAP4 SWAP3 POP POP POP JUMP JUMPDEST PUSH1 0x0 PUSH1 0x40 MLOAD SWAP1 POP SWAP1 JUMP JUMPDEST PUSH1 0x0 DUP1 REVERT JUMPDEST PUSH1 0x0 DUP1 REVERT JUMPDEST PUSH1 0x0 DUP1 REVERT JUMPDEST PUSH1 0x0 DUP1 REVERT JUMPDEST PUSH32 0x4E487B7100000000000000000000000000000000000000000000000000000000 PUSH1 0x0 MSTORE PUSH1 0x41 PUSH1 0x4 MSTORE PUSH1 0x24 PUSH1 0x0 REVERT JUMPDEST PUSH2 0x879 DUP3 PUSH2 0x7A9 JUMP JUMPDEST DUP2 ADD DUP2 DUP2 LT PUSH8 0xFFFFFFFFFFFFFFFF DUP3 GT OR ISZERO PUSH2 0x898 JUMPI PUSH2 0x897 PUSH2 0x841 JUMP JUMPDEST JUMPDEST DUP1 PUSH1 0x40 MSTORE POP POP POP JUMP JUMPDEST PUSH1 0x0 PUSH2 0x8AB PUSH2 0x823 JUMP JUMPDEST SWAP1 POP PUSH2 0x8B7 DUP3 DUP3 PUSH2 0x870 JUMP JUMPDEST SWAP2 SWAP1 POP JUMP JUMPDEST PUSH1 0x0 PUSH8 0xFFFFFFFFFFFFFFFF DUP3 GT ISZERO PUSH2 0x8D7 JUMPI PUSH2 0x8D6 PUSH2 0x841 JUMP JUMPDEST JUMPDEST PUSH2 0x8E0 DUP3 PUSH2 0x7A9 JUMP JUMPDEST SWAP1 POP PUSH1 0x20 DUP2 ADD SWAP1 POP SWAP2 SWAP1 POP JUMP JUMPDEST DUP3 DUP2 DUP4 CALLDATACOPY PUSH1 0x0 DUP4 DUP4 ADD MSTORE POP POP POP JUMP JUMPDEST PUSH1 0x0 PUSH2 0x90F PUSH2 0x90A DUP5 PUSH2 0x8BC JUMP JUMPDEST PUSH2 0x8A1 JUMP JUMPDEST SWAP1 POP DUP3 DUP2 MSTORE PUSH1 0x20 DUP2 ADD DUP5 DUP5 DUP5 ADD GT ISZERO PUSH2 0x92B JUMPI PUSH2 0x92A PUSH2 0x83C JUMP JUMPDEST JUMPDEST PUSH2 0x936 DUP5 DUP3 DUP6 PUSH2 0x8ED JUMP JUMPDEST POP SWAP4 SWAP3 POP POP POP JUMP JUMPDEST PUSH1 0x0 DUP3 PUSH1 0x1F DUP4 ADD SLT PUSH2 0x953 JUMPI PUSH2 0x952 PUSH2 0x837 JUMP JUMPDEST JUMPDEST DUP2 CALLDATALOAD PUSH2 0x963 DUP5 DUP3 PUSH1 0x20 DUP7 ADD PUSH2 0x8FC JUMP JUMPDEST SWAP2 POP POP SWAP3 SWAP2 POP POP JUMP JUMPDEST PUSH1 0x0 DUP2 SWAP1 POP SWAP2 SWAP1 POP JUMP JUMPDEST PUSH2 0x97F DUP2 PUSH2 0x96C JUMP JUMPDEST DUP2 EQ PUSH2 0x98A JUMPI PUSH1 0x0 DUP1 REVERT JUMPDEST POP JUMP JUMPDEST PUSH1 0x0 DUP2 CALLDATALOAD SWAP1 POP PUSH2 0x99C DUP2 PUSH2 0x976 JUMP JUMPDEST SWAP3 SWAP2 POP POP JUMP JUMPDEST PUSH1 0x0 PUSH20 0xFFFFFFFFFFFFFFFFFFFFFFFFFFFFFFFFFFFFFFFF DUP3 AND SWAP1 POP SWAP2 SWAP1 POP JUMP JUMPDEST PUSH1 0x0 PUSH2 0x9CD DUP3 PUSH2 0x9A2 JUMP JUMPDEST SWAP1 POP SWAP2 SWAP1 POP JUMP JUMPDEST PUSH2 0x9DD DUP2 PUSH2 0x9C2 JUMP JUMPDEST DUP2 EQ PUSH2 0x9E8 JUMPI PUSH1 0x0 DUP1 REVERT JUMPDEST POP JUMP JUMPDEST PUSH1 0x0 DUP2 CALLDATALOAD SWAP1 POP PUSH2 0x9FA DUP2 PUSH2 0x9D4 JUMP JUMPDEST SWAP3 SWAP2 POP POP JUMP JUMPDEST PUSH1 0x0 DUP1 PUSH1 0x0 PUSH1 0x60 DUP5 DUP7 SUB SLT ISZERO PUSH2 0xA19 JUMPI PUSH2 0xA18 PUSH2 0x82D JUMP JUMPDEST JUMPDEST PUSH1 0x0 DUP5 ADD CALLDATALOAD PUSH8 0xFFFFFFFFFFFFFFFF DUP2 GT ISZERO PUSH2 0xA37 JUMPI PUSH2 0xA36 PUSH2 0x832 JUMP JUMPDEST JUMPDEST PUSH2 0xA43 DUP7 DUP3 DUP8 ADD PUSH2 0x93E JUMP JUMPDEST SWAP4 POP POP PUSH1 0x20 PUSH2 0xA54 DUP7 DUP3 DUP8 ADD PUSH2 0x98D JUMP JUMPDEST SWAP3 POP POP PUSH1 0x40 PUSH2 0xA65 DUP7 DUP3 DUP8 ADD PUSH2 0x9EB JUMP JUMPDEST SWAP2 POP POP SWAP3 POP SWAP3 POP SWAP3 JUMP JUMPDEST PUSH1 0x0 PUSH1 0x20 DUP3 DUP5 SUB SLT ISZERO PUSH2 0xA85 JUMPI PUSH2 0xA84 PUSH2 0x82D JUMP JUMPDEST JUMPDEST PUSH1 0x0 PUSH2 0xA93 DUP5 DUP3 DUP6 ADD PUSH2 0x9EB JUMP JUMPDEST SWAP2 POP POP SWAP3 SWAP2 POP POP JUMP JUMPDEST PUSH1 0x0 PUSH32 0xFFFFFFFF00000000000000000000000000000000000000000000000000000000 DUP3 AND SWAP1 POP SWAP2 SWAP1 POP JUMP JUMPDEST PUSH2 0xAD1 DUP2 PUSH2 0xA9C JUMP JUMPDEST DUP3 MSTORE POP POP JUMP JUMPDEST PUSH1 0x0 PUSH1 0x20 DUP3 ADD SWAP1 POP PUSH2 0xAEC PUSH1 0x0 DUP4 ADD DUP5 PUSH2 0xAC8 JUMP JUMPDEST SWAP3 SWAP2 POP POP JUMP JUMPDEST PUSH2 0xAFB DUP2 PUSH2 0x96C JUMP JUMPDEST DUP3 MSTORE POP POP JUMP JUMPDEST PUSH1 0x0 PUSH1 0x20 DUP3 ADD SWAP1 POP PUSH2 0xB16 PUSH1 0x0 DUP4 ADD DUP5 PUSH2 0xAF2 JUMP JUMPDEST SWAP3 SWAP2 POP POP JUMP JUMPDEST PUSH1 0x0 PUSH1 0x20 DUP3 ADD SWAP1 POP DUP2 DUP2 SUB PUSH1 0x0 DUP4 ADD MSTORE PUSH2 0xB36 DUP2 DUP5 PUSH2 0x7BA JUMP JUMPDEST SWAP1 POP SWAP3 SWAP2 POP POP JUMP JUMPDEST PUSH1 0x0 PUSH8 0xFFFFFFFFFFFFFFFF DUP3 GT ISZERO PUSH2 0xB59 JUMPI PUSH2 0xB58 PUSH2 0x841 JUMP JUMPDEST JUMPDEST PUSH2 0xB62 DUP3 PUSH2 0x7A9 JUMP JUMPDEST SWAP1 POP PUSH1 0x20 DUP2 ADD SWAP1 POP SWAP2 SWAP1 POP JUMP JUMPDEST PUSH1 0x0 PUSH2 0xB82 PUSH2 0xB7D DUP5 PUSH2 0xB3E JUMP JUMPDEST PUSH2 0x8A1 JUMP JUMPDEST SWAP1 POP DUP3 DUP2 MSTORE PUSH1 0x20 DUP2 ADD DUP5 DUP5 DUP5 ADD GT ISZERO PUSH2 0xB9E JUMPI PUSH2 0xB9D PUSH2 0x83C JUMP JUMPDEST JUMPDEST PUSH2 0xBA9 DUP5 DUP3 DUP6 PUSH2 0x8ED JUMP JUMPDEST POP SWAP4 SWAP3 POP POP POP JUMP JUMPDEST PUSH1 0x0 DUP3 PUSH1 0x1F DUP4 ADD SLT PUSH2 0xBC6 JUMPI PUSH2 0xBC5 PUSH2 0x837 JUMP JUMPDEST JUMPDEST DUP2 CALLDATALOAD PUSH2 0xBD6 DUP5 DUP3 PUSH1 0x20 DUP7 ADD PUSH2 0xB6F JUMP JUMPDEST SWAP2 POP POP SWAP3 SWAP2 POP POP JUMP JUMPDEST PUSH1 0x0 PUSH1 0x20 DUP3 DUP5 SUB SLT ISZERO PUSH2 0xBF5 JUMPI PUSH2 0xBF4 PUSH2 0x82D JUMP JUMPDEST JUMPDEST PUSH1 0x0 DUP3 ADD CALLDATALOAD PUSH8 0xFFFFFFFFFFFFFFFF DUP2 GT ISZERO PUSH2 0xC13 JUMPI PUSH2 0xC12 PUSH2 0x832 JUMP JUMPDEST JUMPDEST PUSH2 0xC1F DUP5 DUP3 DUP6 ADD PUSH2 0xBB1 JUMP JUMPDEST SWAP2 POP POP SWAP3 SWAP2 POP POP JUMP JUMPDEST PUSH2 0xC31 DUP2 PUSH2 0x9C2 JUMP JUMPDEST DUP3 MSTORE POP POP JUMP JUMPDEST PUSH1 0x0 DUP2 MLOAD SWAP1 POP SWAP2 SWAP1 POP JUMP JUMPDEST PUSH1 0x0 DUP3 DUP3 MSTORE PUSH1 0x20 DUP3 ADD SWAP1 POP SWAP3 SWAP2 POP POP JUMP JUMPDEST PUSH1 0x0 PUSH2 0xC5E DUP3 PUSH2 0xC37 JUMP JUMPDEST PUSH2 0xC68 DUP2 DUP6 PUSH2 0xC42 JUMP JUMPDEST SWAP4 POP PUSH2 0xC78 DUP2 DUP6 PUSH1 0x20 DUP7 ADD PUSH2 0x77F JUMP JUMPDEST PUSH2 0xC81 DUP2 PUSH2 0x7A9 JUMP JUMPDEST DUP5 ADD SWAP2 POP POP SWAP3 SWAP2 POP POP JUMP JUMPDEST PUSH1 0x0 PUSH1 0x2 SWAP1 POP SWAP2 SWAP1 POP JUMP JUMPDEST PUSH1 0x0 DUP2 SWAP1 POP SWAP3 SWAP2 POP POP JUMP JUMPDEST PUSH1 0x0 DUP2 SWAP1 POP SWAP2 SWAP1 POP JUMP JUMPDEST PUSH2 0xCB5 DUP2 PUSH2 0x96C JUMP JUMPDEST DUP3 MSTORE POP POP JUMP JUMPDEST PUSH1 0x0 PUSH2 0xCC7 DUP4 DUP4 PUSH2 0xCAC JUMP JUMPDEST PUSH1 0x20 DUP4 ADD SWAP1 POP SWAP3 SWAP2 POP POP JUMP JUMPDEST PUSH1 0x0 PUSH1 0x20 DUP3 ADD SWAP1 POP SWAP2 SWAP1 POP JUMP JUMPDEST PUSH2 0xCE9 DUP2 PUSH2 0xC8C JUMP JUMPDEST PUSH2 0xCF3 DUP2 DUP5 PUSH2 0xC97 JUMP JUMPDEST SWAP3 POP PUSH2 0xCFE DUP3 PUSH2 0xCA2 JUMP JUMPDEST DUP1 PUSH1 0x0 JUMPDEST DUP4 DUP2 LT ISZERO PUSH2 0xD2F JUMPI DUP2 MLOAD PUSH2 0xD16 DUP8 DUP3 PUSH2 0xCBB JUMP JUMPDEST SWAP7 POP PUSH2 0xD21 DUP4 PUSH2 0xCD3 JUMP JUMPDEST SWAP3 POP POP PUSH1 0x1 DUP2 ADD SWAP1 POP PUSH2 0xD02 JUMP JUMPDEST POP POP POP POP POP POP JUMP JUMPDEST PUSH1 0x0 PUSH1 0xA0 DUP3 ADD SWAP1 POP PUSH2 0xD4C PUSH1 0x0 DUP4 ADD DUP8 PUSH2 0xAF2 JUMP JUMPDEST PUSH2 0xD59 PUSH1 0x20 DUP4 ADD DUP7 PUSH2 0xC28 JUMP JUMPDEST DUP2 DUP2 SUB PUSH1 0x40 DUP4 ADD MSTORE PUSH2 0xD6B DUP2 DUP6 PUSH2 0xC53 JUMP JUMPDEST SWAP1 POP PUSH2 0xD7A PUSH1 0x60 DUP4 ADD DUP5 PUSH2 0xCE0 JUMP JUMPDEST SWAP6 SWAP5 POP POP POP POP POP JUMP JUMPDEST PUSH1 0x0 PUSH1 0x20 DUP3 DUP5 SUB SLT ISZERO PUSH2 0xD99 JUMPI PUSH2 0xD98 PUSH2 0x82D JUMP JUMPDEST JUMPDEST PUSH1 0x0 DUP3 ADD CALLDATALOAD PUSH8 0xFFFFFFFFFFFFFFFF DUP2 GT ISZERO PUSH2 0xDB7 JUMPI PUSH2 0xDB6 PUSH2 0x832 JUMP JUMPDEST JUMPDEST PUSH2 0xDC3 DUP5 DUP3 DUP6 ADD PUSH2 0x93E JUMP JUMPDEST SWAP2 POP POP SWAP3 SWAP2 POP POP JUMP JUMPDEST PUSH1 0x0 PUSH1 0x20 DUP3 ADD SWAP1 POP PUSH2 0xDE1 PUSH1 0x0 DUP4 ADD DUP5 PUSH2 0x754 JUMP JUMPDEST SWAP3 SWAP2 POP POP JUMP JUMPDEST PUSH1 0x0 PUSH1 0x20 DUP3 ADD SWAP1 POP PUSH2 0xDFC PUSH1 0x0 DUP4 ADD DUP5 PUSH2 0xC28 JUMP JUMPDEST SWAP3 SWAP2 POP POP JUMP JUMPDEST PUSH1 0x0 DUP2 SWAP1 POP SWAP3 SWAP2 POP POP JUMP JUMPDEST PUSH1 0x0 PUSH2 0xE18 DUP3 PUSH2 0x763 JUMP JUMPDEST PUSH2 0xE22 DUP2 DUP6 PUSH2 0xE02 JUMP JUMPDEST SWAP4 POP PUSH2 0xE32 DUP2 DUP6 PUSH1 0x20 DUP7 ADD PUSH2 0x77F JUMP JUMPDEST DUP1 DUP5 ADD SWAP2 POP POP SWAP3 SWAP2 POP POP JUMP JUMPDEST PUSH1 0x0 PUSH2 0xE4A DUP3 DUP5 PUSH2 0xE0D JUMP JUMPDEST SWAP2 POP DUP2 SWAP1 POP SWAP3 SWAP2 POP POP JUMP JUMPDEST PUSH1 0x0 DUP2 SWAP1 POP SWAP3 SWAP2 POP POP JUMP JUMPDEST PUSH1 0x0 PUSH2 0xE6B DUP3 PUSH2 0xC37 JUMP JUMPDEST PUSH2 0xE75 DUP2 DUP6 PUSH2 0xE55 JUMP JUMPDEST SWAP4 POP PUSH2 0xE85 DUP2 DUP6 PUSH1 0x20 DUP7 ADD PUSH2 0x77F JUMP JUMPDEST DUP1 DUP5 ADD SWAP2 POP POP SWAP3 SWAP2 POP POP JUMP JUMPDEST PUSH1 0x0 DUP2 SWAP1 POP SWAP2 SWAP1 POP JUMP JUMPDEST PUSH2 0xEAC PUSH2 0xEA7 DUP3 PUSH2 0x96C JUMP JUMPDEST PUSH2 0xE91 JUMP JUMPDEST DUP3 MSTORE POP POP JUMP JUMPDEST PUSH1 0x0 DUP2 PUSH1 0x60 SHL SWAP1 POP SWAP2 SWAP1 POP JUMP JUMPDEST PUSH1 0x0 PUSH2 0xECA DUP3 PUSH2 0xEB2 JUMP JUMPDEST SWAP1 POP SWAP2 SWAP1 POP JUMP JUMPDEST PUSH1 0x0 PUSH2 0xEDC DUP3 PUSH2 0xEBF JUMP JUMPDEST SWAP1 POP SWAP2 SWAP1 POP JUMP JUMPDEST PUSH2 0xEF4 PUSH2 0xEEF DUP3 PUSH2 0x9C2 JUMP JUMPDEST PUSH2 0xED1 JUMP JUMPDEST DUP3 MSTORE POP POP JUMP JUMPDEST PUSH1 0x0 PUSH2 0xF06 DUP3 DUP7 PUSH2 0xE60 JUMP JUMPDEST SWAP2 POP PUSH2 0xF12 DUP3 DUP6 PUSH2 0xE9B JUMP JUMPDEST PUSH1 0x20 DUP3 ADD SWAP2 POP PUSH2 0xF22 DUP3 DUP5 PUSH2 0xEE3 JUMP JUMPDEST PUSH1 0x14 DUP3 ADD SWAP2 POP DUP2 SWAP1 POP SWAP5 SWAP4 POP POP POP POP JUMP JUMPDEST PUSH1 0x0 PUSH2 0xF3F DUP4 DUP6 PUSH2 0x76E JUMP JUMPDEST SWAP4 POP PUSH2 0xF4C DUP4 DUP6 DUP5 PUSH2 0x8ED JUMP JUMPDEST PUSH2 0xF55 DUP4 PUSH2 0x7A9 JUMP JUMPDEST DUP5 ADD SWAP1 POP SWAP4 SWAP3 POP POP POP JUMP JUMPDEST PUSH1 0x0 PUSH1 0x20 DUP3 ADD SWAP1 POP DUP2 DUP2 SUB PUSH1 0x0 DUP4 ADD MSTORE PUSH2 0xF7B DUP2 DUP5 DUP7 PUSH2 0xF33 JUMP JUMPDEST SWAP1 POP SWAP4 SWAP3 POP POP POP JUMP JUMPDEST PUSH32 0x4E487B7100000000000000000000000000000000000000000000000000000000 PUSH1 0x0 MSTORE PUSH1 0x11 PUSH1 0x4 MSTORE PUSH1 0x24 PUSH1 0x0 REVERT JUMPDEST PUSH1 0x0 PUSH2 0xFBE DUP3 PUSH2 0x96C JUMP JUMPDEST SWAP2 POP PUSH2 0xFC9 DUP4 PUSH2 0x96C JUMP JUMPDEST SWAP3 POP DUP3 DUP3 ADD SWAP1 POP DUP1 DUP3 GT ISZERO PUSH2 0xFE1 JUMPI PUSH2 0xFE0 PUSH2 0xF84 JUMP JUMPDEST JUMPDEST SWAP3 SWAP2 POP POP JUMP JUMPDEST PUSH1 0x0 PUSH2 0xFF2 DUP3 PUSH2 0x96C JUMP JUMPDEST SWAP2 POP PUSH2 0xFFD DUP4 PUSH2 0x96C JUMP JUMPDEST SWAP3 POP DUP3 DUP3 SUB SWAP1 POP DUP2 DUP2 GT ISZERO PUSH2 0x1015 JUMPI PUSH2 0x1014 PUSH2 0xF84 JUMP JUMPDEST JUMPDEST SWAP3 SWAP2 POP POP JUMP JUMPDEST PUSH32 0x4E487B7100000000000000000000000000000000000000000000000000000000 PUSH1 0x0 MSTORE PUSH1 0x22 PUSH1 0x4 MSTORE PUSH1 0x24 PUSH1 0x0 REVERT JUMPDEST PUSH1 0x0 PUSH1 0x2 DUP3 DIV SWAP1 POP PUSH1 0x1 DUP3 AND DUP1 PUSH2 0x1062 JUMPI PUSH1 0x7F DUP3 AND SWAP2 POP JUMPDEST PUSH1 0x20 DUP3 LT DUP2 SUB PUSH2 0x1075 JUMPI PUSH2 0x1074 PUSH2 0x101B JUMP JUMPDEST JUMPDEST POP SWAP2 SWAP1 POP JUMP JUMPDEST PUSH1 0x0 DUP2 SWAP1 POP DUP2 PUSH1 0x0 MSTORE PUSH1 0x20 PUSH1 0x0 KECCAK256 SWAP1 POP SWAP2 SWAP1 POP JUMP JUMPDEST PUSH1 0x0 DUP2 SLOAD PUSH2 0x109D DUP2 PUSH2 0x104A JUMP JUMPDEST PUSH2 0x10A7 DUP2 DUP7 PUSH2 0xC42 JUMP JUMPDEST SWAP5 POP PUSH1 0x1 DUP3 AND PUSH1 0x0 DUP2 EQ PUSH2 0x10C2 JUMPI PUSH1 0x1 DUP2 EQ PUSH2 0x10D8 JUMPI PUSH2 0x110B JUMP JUMPDEST PUSH1 0xFF NOT DUP4 AND DUP7 MSTORE DUP2 ISZERO ISZERO PUSH1 0x20 MUL DUP7 ADD SWAP4 POP PUSH2 0x110B JUMP JUMPDEST PUSH2 0x10E1 DUP6 PUSH2 0x107B JUMP JUMPDEST PUSH1 0x0 JUMPDEST DUP4 DUP2 LT ISZERO PUSH2 0x1103 JUMPI DUP2 SLOAD DUP2 DUP10 ADD MSTORE PUSH1 0x1 DUP3 ADD SWAP2 POP PUSH1 0x20 DUP2 ADD SWAP1 POP PUSH2 0x10E4 JUMP JUMPDEST DUP1 DUP9 ADD SWAP6 POP POP POP JUMPDEST POP POP POP SWAP3 SWAP2 POP POP JUMP JUMPDEST PUSH1 0x0 PUSH1 0x2 SWAP1 POP SWAP2 SWAP1 POP JUMP JUMPDEST PUSH1 0x0 DUP2 SWAP1 POP SWAP2 SWAP1 POP JUMP JUMPDEST PUSH1 0x0 DUP2 PUSH1 0x0 SHR SWAP1 POP SWAP2 SWAP1 POP JUMP JUMPDEST PUSH1 0x0 DUP2 SWAP1 POP SWAP2 SWAP1 POP JUMP JUMPDEST PUSH1 0x0 PUSH2 0x1153 PUSH2 0x114E DUP4 PUSH2 0x1129 JUMP JUMPDEST PUSH2 0x1136 JUMP JUMPDEST SWAP1 POP SWAP2 SWAP1 POP JUMP JUMPDEST PUSH1 0x0 PUSH2 0x1166 DUP3 SLOAD PUSH2 0x1140 JUMP JUMPDEST SWAP1 POP SWAP2 SWAP1 POP JUMP JUMPDEST PUSH1 0x0 PUSH1 0x1 DUP3 ADD SWAP1 POP SWAP2 SWAP1 POP JUMP JUMPDEST PUSH2 0x1183 DUP2 PUSH2 0x1114 JUMP JUMPDEST PUSH2 0x118D DUP2 DUP5 PUSH2 0xC97 JUMP JUMPDEST SWAP3 POP PUSH2 0x1198 DUP3 PUSH2 0x111F JUMP JUMPDEST DUP1 PUSH1 0x0 JUMPDEST DUP4 DUP2 LT ISZERO PUSH2 0x11D0 JUMPI PUSH2 0x11AD DUP3 PUSH2 0x115A JUMP JUMPDEST PUSH2 0x11B7 DUP8 DUP3 PUSH2 0xCBB JUMP JUMPDEST SWAP7 POP PUSH2 0x11C2 DUP4 PUSH2 0x116D JUMP JUMPDEST SWAP3 POP POP PUSH1 0x1 DUP2 ADD SWAP1 POP PUSH2 0x119C JUMP JUMPDEST POP POP POP POP POP POP JUMP JUMPDEST PUSH1 0x0 PUSH1 0xA0 DUP3 ADD SWAP1 POP PUSH2 0x11ED PUSH1 0x0 DUP4 ADD DUP8 PUSH2 0xAF2 JUMP JUMPDEST PUSH2 0x11FA PUSH1 0x20 DUP4 ADD DUP7 PUSH2 0xC28 JUMP JUMPDEST DUP2 DUP2 SUB PUSH1 0x40 DUP4 ADD MSTORE PUSH2 0x120C DUP2 DUP6 PUSH2 0x1090 JUMP JUMPDEST SWAP1 POP PUSH2 0x121B PUSH1 0x60 DUP4 ADD DUP5 PUSH2 0x117A JUMP JUMPDEST SWAP6 SWAP5 POP POP POP POP POP JUMP JUMPDEST PUSH1 0x0 DUP2 MLOAD SWAP1 POP PUSH2 0x1233 DUP2 PUSH2 0x976 JUMP JUMPDEST SWAP3 SWAP2 POP POP JUMP JUMPDEST PUSH1 0x0 PUSH2 0x1244 DUP3 PUSH2 0x9A2 JUMP JUMPDEST SWAP1 POP SWAP2 SWAP1 POP JUMP JUMPDEST PUSH2 0x1254 DUP2 PUSH2 0x1239 JUMP JUMPDEST DUP2 EQ PUSH2 0x125F JUMPI PUSH1 0x0 DUP1 REVERT JUMPDEST POP JUMP JUMPDEST PUSH1 0x0 DUP2 MLOAD SWAP1 POP PUSH2 0x1271 DUP2 PUSH2 0x124B JUMP JUMPDEST SWAP3 SWAP2 POP POP JUMP JUMPDEST PUSH1 0x0 PUSH2 0x128A PUSH2 0x1285 DUP5 PUSH2 0x8BC JUMP JUMPDEST PUSH2 0x8A1 JUMP JUMPDEST SWAP1 POP DUP3 DUP2 MSTORE PUSH1 0x20 DUP2 ADD DUP5 DUP5 DUP5 ADD GT ISZERO PUSH2 0x12A6 JUMPI PUSH2 0x12A5 PUSH2 0x83C JUMP JUMPDEST JUMPDEST PUSH2 0x12B1 DUP5 DUP3 DUP6 PUSH2 0x77F JUMP JUMPDEST POP SWAP4 SWAP3 POP POP POP JUMP JUMPDEST PUSH1 0x0 DUP3 PUSH1 0x1F DUP4 ADD SLT PUSH2 0x12CE JUMPI PUSH2 0x12CD PUSH2 0x837 JUMP JUMPDEST JUMPDEST DUP2 MLOAD PUSH2 0x12DE DUP5 DUP3 PUSH1 0x20 DUP7 ADD PUSH2 0x1277 JUMP JUMPDEST SWAP2 POP POP SWAP3 SWAP2 POP POP JUMP JUMPDEST PUSH1 0x0 PUSH8 0xFFFFFFFFFFFFFFFF DUP3 GT ISZERO PUSH2 0x1302 JUMPI PUSH2 0x1301 PUSH2 0x841 JUMP JUMPDEST JUMPDEST PUSH1 0x20 DUP3 MUL SWAP1 POP SWAP2 SWAP1 POP JUMP JUMPDEST PUSH1 0x0 DUP1 REVERT JUMPDEST PUSH1 0x0 PUSH2 0x1325 PUSH2 0x1320 DUP5 PUSH2 0x12E7 JUMP JUMPDEST PUSH2 0x8A1 JUMP JUMPDEST SWAP1 POP DUP1 PUSH1 0x20 DUP5 MUL DUP4 ADD DUP6 DUP2 GT ISZERO PUSH2 0x133F JUMPI PUSH2 0x133E PUSH2 0x130D JUMP JUMPDEST JUMPDEST DUP4 JUMPDEST DUP2 DUP2 LT ISZERO PUSH2 0x1368 JUMPI DUP1 PUSH2 0x1354 DUP9 DUP3 PUSH2 0x1224 JUMP JUMPDEST DUP5 MSTORE PUSH1 0x20 DUP5 ADD SWAP4 POP POP PUSH1 0x20 DUP2 ADD SWAP1 POP PUSH2 0x1341 JUMP JUMPDEST POP POP POP SWAP4 SWAP3 POP POP POP JUMP JUMPDEST PUSH1 0x0 DUP3 PUSH1 0x1F DUP4 ADD SLT PUSH2 0x1387 JUMPI PUSH2 0x1386 PUSH2 0x837 JUMP JUMPDEST JUMPDEST PUSH1 0x2 PUSH2 0x1394 DUP5 DUP3 DUP6 PUSH2 0x1312 JUMP JUMPDEST SWAP2 POP POP SWAP3 SWAP2 POP POP JUMP JUMPDEST PUSH1 0x0 DUP1 PUSH1 0x0 DUP1 PUSH1 0xA0 DUP6 DUP8 SUB SLT ISZERO PUSH2 0x13B7 JUMPI PUSH2 0x13B6 PUSH2 0x82D JUMP JUMPDEST JUMPDEST PUSH1 0x0 PUSH2 0x13C5 DUP8 DUP3 DUP9 ADD PUSH2 0x1224 JUMP JUMPDEST SWAP5 POP POP PUSH1 0x20 PUSH2 0x13D6 DUP8 DUP3 DUP9 ADD PUSH2 0x1262 JUMP JUMPDEST SWAP4 POP POP PUSH1 0x40 DUP6 ADD MLOAD PUSH8 0xFFFFFFFFFFFFFFFF DUP2 GT ISZERO PUSH2 0x13F7 JUMPI PUSH2 0x13F6 PUSH2 0x832 JUMP JUMPDEST JUMPDEST PUSH2 0x1403 DUP8 DUP3 DUP9 ADD PUSH2 0x12B9 JUMP JUMPDEST SWAP3 POP POP PUSH1 0x60 PUSH2 0x1414 DUP8 DUP3 DUP9 ADD PUSH2 0x1372 JUMP JUMPDEST SWAP2 POP POP SWAP3 SWAP6 SWAP2 SWAP5 POP SWAP3 POP JUMP JUMPDEST PUSH1 0x0 DUP2 SLOAD PUSH2 0x142D DUP2 PUSH2 0x104A JUMP JUMPDEST PUSH2 0x1437 DUP2 DUP7 PUSH2 0xE55 JUMP JUMPDEST SWAP5 POP PUSH1 0x1 DUP3 AND PUSH1 0x0 DUP2 EQ PUSH2 0x1452 JUMPI PUSH1 0x1 DUP2 EQ PUSH2 0x1467 JUMPI PUSH2 0x149A JUMP JUMPDEST PUSH1 0xFF NOT DUP4 AND DUP7 MSTORE DUP2 ISZERO ISZERO DUP3 MUL DUP7 ADD SWAP4 POP PUSH2 0x149A JUMP JUMPDEST PUSH2 0x1470 DUP6 PUSH2 0x107B JUMP JUMPDEST PUSH1 0x0 JUMPDEST DUP4 DUP2 LT ISZERO PUSH2 0x1492 JUMPI DUP2 SLOAD DUP2 DUP10 ADD MSTORE PUSH1 0x1 DUP3 ADD SWAP2 POP PUSH1 0x20 DUP2 ADD SWAP1 POP PUSH2 0x1473 JUMP JUMPDEST DUP4 DUP9 ADD SWAP6 POP POP POP JUMPDEST POP POP POP SWAP3 SWAP2 POP POP JUMP JUMPDEST PUSH1 0x0 DUP2 SWAP1 POP SWAP3 SWAP2 POP POP JUMP JUMPDEST PUSH2 0x14B7 DUP2 PUSH2 0x96C JUMP JUMPDEST DUP3 MSTORE POP POP JUMP JUMPDEST PUSH1 0x0 PUSH2 0x14C9 DUP4 DUP4 PUSH2 0x14AE JUMP JUMPDEST PUSH1 0x20 DUP4 ADD SWAP1 POP SWAP3 SWAP2 POP POP JUMP JUMPDEST PUSH2 0x14DE DUP2 PUSH2 0x1114 JUMP JUMPDEST PUSH2 0x14E8 DUP2 DUP5 PUSH2 0x14A3 JUMP JUMPDEST SWAP3 POP PUSH2 0x14F3 DUP3 PUSH2 0x111F JUMP JUMPDEST DUP1 PUSH1 0x0 JUMPDEST DUP4 DUP2 LT ISZERO PUSH2 0x152B JUMPI PUSH2 0x1508 DUP3 PUSH2 0x115A JUMP JUMPDEST PUSH2 0x1512 DUP8 DUP3 PUSH2 0x14BD JUMP JUMPDEST SWAP7 POP PUSH2 0x151D DUP4 PUSH2 0x116D JUMP JUMPDEST SWAP3 POP POP PUSH1 0x1 DUP2 ADD SWAP1 POP PUSH2 0x14F7 JUMP JUMPDEST POP POP POP POP POP POP JUMP JUMPDEST PUSH1 0x0 PUSH2 0x153F DUP3 DUP8 PUSH2 0xE9B JUMP JUMPDEST PUSH1 0x20 DUP3 ADD SWAP2 POP PUSH2 0x154F DUP3 DUP7 PUSH2 0xEE3 JUMP JUMPDEST PUSH1 0x14 DUP3 ADD SWAP2 POP PUSH2 0x155F DUP3 DUP6 PUSH2 0x1420 JUMP JUMPDEST SWAP2 POP PUSH2 0x156B DUP3 DUP5 PUSH2 0x14D5 JUMP JUMPDEST PUSH1 0x40 DUP3 ADD SWAP2 POP DUP2 SWAP1 POP SWAP6 SWAP5 POP POP POP POP POP JUMP JUMPDEST PUSH1 0x0 PUSH2 0x1589 DUP3 DUP5 PUSH2 0xE60 JUMP JUMPDEST SWAP2 POP DUP2 SWAP1 POP SWAP3 SWAP2 POP POP JUMP INVALID LOG2 PUSH5 0x6970667358 0x22 SLT KECCAK256 0xC5 0x4F ADDRESS KECCAK256 PUSH8 0xA01DB41BE5E0B748 TIMESTAMP DUP6 0x27 PUSH19 0x59D922936DE20F413CFB48208FCC2064736F6C PUSH4 0x43000812 STOP CALLER "
		},
		"gasEstimates": {
			"creation": {
				"codeDepositCost": "1115600",
				"executionCost": "infinite",
				"totalCost": "infinite"
			},
			"external": {
				"_msg()": "2430",
				"callwithSignature()": "infinite",
				"checkMethodId()": "432",
				"decode1(bytes)": "infinite",
				"encode()": "infinite",
				"encode2()": "infinite",
				"encode3()": "infinite",
				"encode4()": "infinite",
				"hashText(string,uint256,address)": "infinite",
				"mint(address)": "infinite",
				"numX()": "2452",
				"verifyTh()": "infinite",
				"weak(string)": "infinite"
			}
		},
		"methodIdentifiers": {
			"_msg()": "10c8c11d",
			"callwithSignature()": "2b9c6157",
			"checkMethodId()": "6b426eec",
			"decode1(bytes)": "bac1d572",
			"encode()": "bd14598f",
			"encode2()": "bed7532c",
			"encode3()": "f7d13ab0",
			"encode4()": "b55ffc04",
			"hashText(string,uint256,address)": "2cbf5292",
			"mint(address)": "6a627842",
			"numX()": "a33750bb",
			"verifyTh()": "87ecd417",
			"weak(string)": "d6abfc7b"
		}
	},
	"abi": [
		{
			"anonymous": false,
			"inputs": [
				{
					"indexed": false,
					"internalType": "bytes",
					"name": "data",
					"type": "bytes"
				}
			],
			"name": "Log",
			"type": "event"
		},
		{
			"inputs": [],
			"name": "_msg",
			"outputs": [
				{
					"internalType": "bytes32",
					"name": "",
					"type": "bytes32"
				}
			],
			"stateMutability": "view",
			"type": "function"
		},
		{
			"inputs": [],
			"name": "callwithSignature",
			"outputs": [
				{
					"internalType": "bool",
					"name": "",
					"type": "bool"
				},
				{
					"internalType": "bytes",
					"name": "",
					"type": "bytes"
				}
			],
			"stateMutability": "nonpayable",
			"type": "function"
		},
		{
			"inputs": [],
			"name": "checkMethodId",
			"outputs": [
				{
					"internalType": "bytes4",
					"name": "",
					"type": "bytes4"
				}
			],
			"stateMutability": "pure",
			"type": "function"
		},
		{
			"inputs": [
				{
					"internalType": "bytes",
					"name": "data",
					"type": "bytes"
				}
			],
			"name": "decode1",
			"outputs": [
				{
					"internalType": "uint256",
					"name": "dx",
					"type": "uint256"
				},
				{
					"internalType": "address",
					"name": "daddr",
					"type": "address"
				},
				{
					"internalType": "string",
					"name": "dname",
					"type": "string"
				},
				{
					"internalType": "uint256[2]",
					"name": "darray",
					"type": "uint256[2]"
				}
			],
			"stateMutability": "pure",
			"type": "function"
		},
		{
			"inputs": [],
			"name": "encode",
			"outputs": [
				{
					"internalType": "bytes",
					"name": "result",
					"type": "bytes"
				}
			],
			"stateMutability": "view",
			"type": "function"
		},
		{
			"inputs": [],
			"name": "encode2",
			"outputs": [
				{
					"internalType": "bytes",
					"name": "result",
					"type": "bytes"
				}
			],
			"stateMutability": "view",
			"type": "function"
		},
		{
			"inputs": [],
			"name": "encode3",
			"outputs": [
				{
					"internalType": "bytes",
					"name": "result",
					"type": "bytes"
				}
			],
			"stateMutability": "view",
			"type": "function"
		},
		{
			"inputs": [],
			"name": "encode4",
			"outputs": [
				{
					"internalType": "bytes",
					"name": "result",
					"type": "bytes"
				}
			],
			"stateMutability": "view",
			"type": "function"
		},
		{
			"inputs": [
				{
					"internalType": "string",
					"name": "word",
					"type": "string"
				},
				{
					"internalType": "uint256",
					"name": "num",
					"type": "uint256"
				},
				{
					"internalType": "address",
					"name": "_addr",
					"type": "address"
				}
			],
			"name": "hashText",
			"outputs": [
				{
					"internalType": "bytes32",
					"name": "",
					"type": "bytes32"
				}
			],
			"stateMutability": "pure",
			"type": "function"
		},
		{
			"inputs": [
				{
					"internalType": "address",
					"name": "to",
					"type": "address"
				}
			],
			"name": "mint",
			"outputs": [],
			"stateMutability": "nonpayable",
			"type": "function"
		},
		{
			"inputs": [],
			"name": "numX",
			"outputs": [
				{
					"internalType": "uint256",
					"name": "",
					"type": "uint256"
				}
			],
			"stateMutability": "view",
			"type": "function"
		},
		{
			"inputs": [],
			"name": "verifyTh",
			"outputs": [],
			"stateMutability": "nonpayable",
			"type": "function"
		},
		{
			"inputs": [
				{
					"internalType": "string",
					"name": "string1",
					"type": "string"
				}
			],
			"name": "weak",
			"outputs": [
				{
					"internalType": "bool",
					"name": "",
					"type": "bool"
				}
			],
			"stateMutability": "view",
			"type": "function"
		}
	]
}