{
	"data": {
		"bytecode": {
			"linkReferences": {},
			"object": "6080604052336000806101000a81548173ffffffffffffffffffffffffffffffffffffffff021916908373ffffffffffffffffffffffffffffffffffffffff160217905550610452806100536000396000f3fe608060405234801561001057600080fd5b50600436106100365760003560e01c806369a3f2301461003b5780638da5cb5b14610057575b600080fd5b61005560048036038101906100509190610271565b610075565b005b61005f6101b4565b60405161006c91906102d2565b60405180910390f35b60008054906101000a900473ffffffffffffffffffffffffffffffffffffffff1673ffffffffffffffffffffffffffffffffffffffff163273ffffffffffffffffffffffffffffffffffffffff1614610103576040517f08c379a00000000000000000000000000000000000000000000000000000000081526004016100fa9061034a565b60405180910390fd5b60008273ffffffffffffffffffffffffffffffffffffffff16826040516101299061039b565b60006040518083038185875af1925050503d8060008114610166576040519150601f19603f3d011682016040523d82523d6000602084013e61016b565b606091505b50509050806101af576040517f08c379a00000000000000000000000000000000000000000000000000000000081526004016101a6906103fc565b60405180910390fd5b505050565b60008054906101000a900473ffffffffffffffffffffffffffffffffffffffff1681565b600080fd5b600073ffffffffffffffffffffffffffffffffffffffff82169050919050565b6000610208826101dd565b9050919050565b610218816101fd565b811461022357600080fd5b50565b6000813590506102358161020f565b92915050565b6000819050919050565b61024e8161023b565b811461025957600080fd5b50565b60008135905061026b81610245565b92915050565b60008060408385031215610288576102876101d8565b5b600061029685828601610226565b92505060206102a78582860161025c565b9150509250929050565b60006102bc826101dd565b9050919050565b6102cc816102b1565b82525050565b60006020820190506102e760008301846102c3565b92915050565b600082825260208201905092915050565b7f6572726f723a6e6f74206f776e65720000000000000000000000000000000000600082015250565b6000610334600f836102ed565b915061033f826102fe565b602082019050919050565b6000602082019050818103600083015261036381610327565b9050919050565b600081905092915050565b50565b600061038560008361036a565b915061039082610375565b600082019050919050565b60006103a682610378565b9150819050919050565b7f6572726f723a6d75737420737563636573730000000000000000000000000000600082015250565b60006103e66012836102ed565b91506103f1826103b0565b602082019050919050565b60006020820190508181036000830152610415816103d9565b905091905056fea26469706673582212207309803cd6a82f79f28ee4e5c30b00a9feafca0541c6d82f8286cf948a33411f64736f6c63430008120033",
			"opcodes": "PUSH1 0x80 PUSH1 0x40 MSTORE CALLER PUSH1 0x0 DUP1 PUSH2 0x100 EXP DUP2 SLOAD DUP2 PUSH20 0xFFFFFFFFFFFFFFFFFFFFFFFFFFFFFFFFFFFFFFFF MUL NOT AND SWAP1 DUP4 PUSH20 0xFFFFFFFFFFFFFFFFFFFFFFFFFFFFFFFFFFFFFFFF AND MUL OR SWAP1 SSTORE POP PUSH2 0x452 DUP1 PUSH2 0x53 PUSH1 0x0 CODECOPY PUSH1 0x0 RETURN INVALID PUSH1 0x80 PUSH1 0x40 MSTORE CALLVALUE DUP1 ISZERO PUSH2 0x10 JUMPI PUSH1 0x0 DUP1 REVERT JUMPDEST POP PUSH1 0x4 CALLDATASIZE LT PUSH2 0x36 JUMPI PUSH1 0x0 CALLDATALOAD PUSH1 0xE0 SHR DUP1 PUSH4 0x69A3F230 EQ PUSH2 0x3B JUMPI DUP1 PUSH4 0x8DA5CB5B EQ PUSH2 0x57 JUMPI JUMPDEST PUSH1 0x0 DUP1 REVERT JUMPDEST PUSH2 0x55 PUSH1 0x4 DUP1 CALLDATASIZE SUB DUP2 ADD SWAP1 PUSH2 0x50 SWAP2 SWAP1 PUSH2 0x271 JUMP JUMPDEST PUSH2 0x75 JUMP JUMPDEST STOP JUMPDEST PUSH2 0x5F PUSH2 0x1B4 JUMP JUMPDEST PUSH1 0x40 MLOAD PUSH2 0x6C SWAP2 SWAP1 PUSH2 0x2D2 JUMP JUMPDEST PUSH1 0x40 MLOAD DUP1 SWAP2 SUB SWAP1 RETURN JUMPDEST PUSH1 0x0 DUP1 SLOAD SWAP1 PUSH2 0x100 EXP SWAP1 DIV PUSH20 0xFFFFFFFFFFFFFFFFFFFFFFFFFFFFFFFFFFFFFFFF AND PUSH20 0xFFFFFFFFFFFFFFFFFFFFFFFFFFFFFFFFFFFFFFFF AND ORIGIN PUSH20 0xFFFFFFFFFFFFFFFFFFFFFFFFFFFFFFFFFFFFFFFF AND EQ PUSH2 0x103 JUMPI PUSH1 0x40 MLOAD PUSH32 0x8C379A000000000000000000000000000000000000000000000000000000000 DUP2 MSTORE PUSH1 0x4 ADD PUSH2 0xFA SWAP1 PUSH2 0x34A JUMP JUMPDEST PUSH1 0x40 MLOAD DUP1 SWAP2 SUB SWAP1 REVERT JUMPDEST PUSH1 0x0 DUP3 PUSH20 0xFFFFFFFFFFFFFFFFFFFFFFFFFFFFFFFFFFFFFFFF AND DUP3 PUSH1 0x40 MLOAD PUSH2 0x129 SWAP1 PUSH2 0x39B JUMP JUMPDEST PUSH1 0x0 PUSH1 0x40 MLOAD DUP1 DUP4 SUB DUP2 DUP6 DUP8 GAS CALL SWAP3 POP POP POP RETURNDATASIZE DUP1 PUSH1 0x0 DUP2 EQ PUSH2 0x166 JUMPI PUSH1 0x40 MLOAD SWAP2 POP PUSH1 0x1F NOT PUSH1 0x3F RETURNDATASIZE ADD AND DUP3 ADD PUSH1 0x40 MSTORE RETURNDATASIZE DUP3 MSTORE RETURNDATASIZE PUSH1 0x0 PUSH1 0x20 DUP5 ADD RETURNDATACOPY PUSH2 0x16B JUMP JUMPDEST PUSH1 0x60 SWAP2 POP JUMPDEST POP POP SWAP1 POP DUP1 PUSH2 0x1AF JUMPI PUSH1 0x40 MLOAD PUSH32 0x8C379A000000000000000000000000000000000000000000000000000000000 DUP2 MSTORE PUSH1 0x4 ADD PUSH2 0x1A6 SWAP1 PUSH2 0x3FC JUMP JUMPDEST PUSH1 0x40 MLOAD DUP1 SWAP2 SUB SWAP1 REVERT JUMPDEST POP POP POP JUMP JUMPDEST PUSH1 0x0 DUP1 SLOAD SWAP1 PUSH2 0x100 EXP SWAP1 DIV PUSH20 0xFFFFFFFFFFFFFFFFFFFFFFFFFFFFFFFFFFFFFFFF AND DUP2 JUMP JUMPDEST PUSH1 0x0 DUP1 REVERT JUMPDEST PUSH1 0x0 PUSH20 0xFFFFFFFFFFFFFFFFFFFFFFFFFFFFFFFFFFFFFFFF DUP3 AND SWAP1 POP SWAP2 SWAP1 POP JUMP JUMPDEST PUSH1 0x0 PUSH2 0x208 DUP3 PUSH2 0x1DD JUMP JUMPDEST SWAP1 POP SWAP2 SWAP1 POP JUMP JUMPDEST PUSH2 0x218 DUP2 PUSH2 0x1FD JUMP JUMPDEST DUP2 EQ PUSH2 0x223 JUMPI PUSH1 0x0 DUP1 REVERT JUMPDEST POP JUMP JUMPDEST PUSH1 0x0 DUP2 CALLDATALOAD SWAP1 POP PUSH2 0x235 DUP2 PUSH2 0x20F JUMP JUMPDEST SWAP3 SWAP2 POP POP JUMP JUMPDEST PUSH1 0x0 DUP2 SWAP1 POP SWAP2 SWAP1 POP JUMP JUMPDEST PUSH2 0x24E DUP2 PUSH2 0x23B JUMP JUMPDEST DUP2 EQ PUSH2 0x259 JUMPI PUSH1 0x0 DUP1 REVERT JUMPDEST POP JUMP JUMPDEST PUSH1 0x0 DUP2 CALLDATALOAD SWAP1 POP PUSH2 0x26B DUP2 PUSH2 0x245 JUMP JUMPDEST SWAP3 SWAP2 POP POP JUMP JUMPDEST PUSH1 0x0 DUP1 PUSH1 0x40 DUP4 DUP6 SUB SLT ISZERO PUSH2 0x288 JUMPI PUSH2 0x287 PUSH2 0x1D8 JUMP JUMPDEST JUMPDEST PUSH1 0x0 PUSH2 0x296 DUP6 DUP3 DUP7 ADD PUSH2 0x226 JUMP JUMPDEST SWAP3 POP POP PUSH1 0x20 PUSH2 0x2A7 DUP6 DUP3 DUP7 ADD PUSH2 0x25C JUMP JUMPDEST SWAP2 POP POP SWAP3 POP SWAP3 SWAP1 POP JUMP JUMPDEST PUSH1 0x0 PUSH2 0x2BC DUP3 PUSH2 0x1DD JUMP JUMPDEST SWAP1 POP SWAP2 SWAP1 POP JUMP JUMPDEST PUSH2 0x2CC DUP2 PUSH2 0x2B1 JUMP JUMPDEST DUP3 MSTORE POP POP JUMP JUMPDEST PUSH1 0x0 PUSH1 0x20 DUP3 ADD SWAP1 POP PUSH2 0x2E7 PUSH1 0x0 DUP4 ADD DUP5 PUSH2 0x2C3 JUMP JUMPDEST SWAP3 SWAP2 POP POP JUMP JUMPDEST PUSH1 0x0 DUP3 DUP3 MSTORE PUSH1 0x20 DUP3 ADD SWAP1 POP SWAP3 SWAP2 POP POP JUMP JUMPDEST PUSH32 0x6572726F723A6E6F74206F776E65720000000000000000000000000000000000 PUSH1 0x0 DUP3 ADD MSTORE POP JUMP JUMPDEST PUSH1 0x0 PUSH2 0x334 PUSH1 0xF DUP4 PUSH2 0x2ED JUMP JUMPDEST SWAP2 POP PUSH2 0x33F DUP3 PUSH2 0x2FE JUMP JUMPDEST PUSH1 0x20 DUP3 ADD SWAP1 POP SWAP2 SWAP1 POP JUMP JUMPDEST PUSH1 0x0 PUSH1 0x20 DUP3 ADD SWAP1 POP DUP2 DUP2 SUB PUSH1 0x0 DUP4 ADD MSTORE PUSH2 0x363 DUP2 PUSH2 0x327 JUMP JUMPDEST SWAP1 POP SWAP2 SWAP1 POP JUMP JUMPDEST PUSH1 0x0 DUP2 SWAP1 POP SWAP3 SWAP2 POP POP JUMP JUMPDEST POP JUMP JUMPDEST PUSH1 0x0 PUSH2 0x385 PUSH1 0x0 DUP4 PUSH2 0x36A JUMP JUMPDEST SWAP2 POP PUSH2 0x390 DUP3 PUSH2 0x375 JUMP JUMPDEST PUSH1 0x0 DUP3 ADD SWAP1 POP SWAP2 SWAP1 POP JUMP JUMPDEST PUSH1 0x0 PUSH2 0x3A6 DUP3 PUSH2 0x378 JUMP JUMPDEST SWAP2 POP DUP2 SWAP1 POP SWAP2 SWAP1 POP JUMP JUMPDEST PUSH32 0x6572726F723A6D75737420737563636573730000000000000000000000000000 PUSH1 0x0 DUP3 ADD MSTORE POP JUMP JUMPDEST PUSH1 0x0 PUSH2 0x3E6 PUSH1 0x12 DUP4 PUSH2 0x2ED JUMP JUMPDEST SWAP2 POP PUSH2 0x3F1 DUP3 PUSH2 0x3B0 JUMP JUMPDEST PUSH1 0x20 DUP3 ADD SWAP1 POP SWAP2 SWAP1 POP JUMP JUMPDEST PUSH1 0x0 PUSH1 0x20 DUP3 ADD SWAP1 POP DUP2 DUP2 SUB PUSH1 0x0 DUP4 ADD MSTORE PUSH2 0x415 DUP2 PUSH2 0x3D9 JUMP JUMPDEST SWAP1 POP SWAP2 SWAP1 POP JUMP INVALID LOG2 PUSH5 0x6970667358 0x22 SLT KECCAK256 PUSH20 0x9803CD6A82F79F28EE4E5C30B00A9FEAFCA0541 0xC6 0xD8 0x2F DUP3 DUP7 0xCF SWAP5 DUP11 CALLER COINBASE 0x1F PUSH5 0x736F6C6343 STOP ADDMOD SLT STOP CALLER "
		},
		"gasEstimates": {
			"creation": {
				"codeDepositCost": "221200",
				"executionCost": "24505",
				"totalCost": "245705"
			},
			"external": {
				"owner()": "2511",
				"tra(address,uint256)": "infinite"
			}
		},
		"methodIdentifiers": {
			"owner()": "8da5cb5b",
			"tra(address,uint256)": "69a3f230"
		}
	},
	"abi": [
		{
			"inputs": [],
			"stateMutability": "payable",
			"type": "constructor"
		},
		{
			"inputs": [],
			"name": "owner",
			"outputs": [
				{
					"internalType": "address",
					"name": "",
					"type": "address"
				}
			],
			"stateMutability": "view",
			"type": "function"
		},
		{
			"inputs": [
				{
					"internalType": "address payable",
					"name": "_to",
					"type": "address"
				},
				{
					"internalType": "uint256",
					"name": "amount",
					"type": "uint256"
				}
			],
			"name": "tra",
			"outputs": [],
			"stateMutability": "nonpayable",
			"type": "function"
		}
	]
}