{
	"data": {
		"bytecode": {
			"linkReferences": {},
			"object": "608060405234801561001057600080fd5b506040516106a23803806106a28339818101604052810190610032919061011c565b33600160006101000a81548173ffffffffffffffffffffffffffffffffffffffff021916908373ffffffffffffffffffffffffffffffffffffffff160217905550806000806101000a81548173ffffffffffffffffffffffffffffffffffffffff021916908373ffffffffffffffffffffffffffffffffffffffff16021790555050610149565b600080fd5b600073ffffffffffffffffffffffffffffffffffffffff82169050919050565b60006100e9826100be565b9050919050565b6100f9816100de565b811461010457600080fd5b50565b600081519050610116816100f0565b92915050565b600060208284031215610132576101316100b9565b5b600061014084828501610107565b91505092915050565b61054a806101586000396000f3fe6080604052600436106100435760003560e01c80635c60da1b146100d1578063f2c31bd9146100fc578063f787212214610127578063f851a4401461015057610044565b5b60008060008054906101000a900473ffffffffffffffffffffffffffffffffffffffff1673ffffffffffffffffffffffffffffffffffffffff1660003660405161008f92919061032f565b600060405180830381855af49150503d80600081146100ca576040519150601f19603f3d011682016040523d82523d6000602084013e6100cf565b606091505b005b3480156100dd57600080fd5b506100e661017b565b6040516100f39190610389565b60405180910390f35b34801561010857600080fd5b5061011161019f565b60405161011e9190610434565b60405180910390f35b34801561013357600080fd5b5061014e60048036038101906101499190610487565b61022d565b005b34801561015c57600080fd5b506101656102ca565b6040516101729190610389565b60405180910390f35b60008054906101000a900473ffffffffffffffffffffffffffffffffffffffff1681565b600280546101ac906104e3565b80601f01602080910402602001604051908101604052809291908181526020018280546101d8906104e3565b80156102255780601f106101fa57610100808354040283529160200191610225565b820191906000526020600020905b81548152906001019060200180831161020857829003601f168201915b505050505081565b600160009054906101000a900473ffffffffffffffffffffffffffffffffffffffff1673ffffffffffffffffffffffffffffffffffffffff163373ffffffffffffffffffffffffffffffffffffffff161461028757600080fd5b806000806101000a81548173ffffffffffffffffffffffffffffffffffffffff021916908373ffffffffffffffffffffffffffffffffffffffff16021790555050565b600160009054906101000a900473ffffffffffffffffffffffffffffffffffffffff1681565b600081905092915050565b82818337600083830152505050565b600061031683856102f0565b93506103238385846102fb565b82840190509392505050565b600061033c82848661030a565b91508190509392505050565b600073ffffffffffffffffffffffffffffffffffffffff82169050919050565b600061037382610348565b9050919050565b61038381610368565b82525050565b600060208201905061039e600083018461037a565b92915050565b600081519050919050565b600082825260208201905092915050565b60005b838110156103de5780820151818401526020810190506103c3565b60008484015250505050565b6000601f19601f8301169050919050565b6000610406826103a4565b61041081856103af565b93506104208185602086016103c0565b610429816103ea565b840191505092915050565b6000602082019050818103600083015261044e81846103fb565b905092915050565b600080fd5b61046481610368565b811461046f57600080fd5b50565b6000813590506104818161045b565b92915050565b60006020828403121561049d5761049c610456565b5b60006104ab84828501610472565b91505092915050565b7f4e487b7100000000000000000000000000000000000000000000000000000000600052602260045260246000fd5b600060028204905060018216806104fb57607f821691505b60208210810361050e5761050d6104b4565b5b5091905056fea2646970667358221220e43630e6bfd15117fb1116e260ee60a2fec639130db32ded3d5630d74e886e6864736f6c63430008120033",
			"opcodes": "PUSH1 0x80 PUSH1 0x40 MSTORE CALLVALUE DUP1 ISZERO PUSH2 0x10 JUMPI PUSH1 0x0 DUP1 REVERT JUMPDEST POP PUSH1 0x40 MLOAD PUSH2 0x6A2 CODESIZE SUB DUP1 PUSH2 0x6A2 DUP4 CODECOPY DUP2 DUP2 ADD PUSH1 0x40 MSTORE DUP2 ADD SWAP1 PUSH2 0x32 SWAP2 SWAP1 PUSH2 0x11C JUMP JUMPDEST CALLER PUSH1 0x1 PUSH1 0x0 PUSH2 0x100 EXP DUP2 SLOAD DUP2 PUSH20 0xFFFFFFFFFFFFFFFFFFFFFFFFFFFFFFFFFFFFFFFF MUL NOT AND SWAP1 DUP4 PUSH20 0xFFFFFFFFFFFFFFFFFFFFFFFFFFFFFFFFFFFFFFFF AND MUL OR SWAP1 SSTORE POP DUP1 PUSH1 0x0 DUP1 PUSH2 0x100 EXP DUP2 SLOAD DUP2 PUSH20 0xFFFFFFFFFFFFFFFFFFFFFFFFFFFFFFFFFFFFFFFF MUL NOT AND SWAP1 DUP4 PUSH20 0xFFFFFFFFFFFFFFFFFFFFFFFFFFFFFFFFFFFFFFFF AND MUL OR SWAP1 SSTORE POP POP PUSH2 0x149 JUMP JUMPDEST PUSH1 0x0 DUP1 REVERT JUMPDEST PUSH1 0x0 PUSH20 0xFFFFFFFFFFFFFFFFFFFFFFFFFFFFFFFFFFFFFFFF DUP3 AND SWAP1 POP SWAP2 SWAP1 POP JUMP JUMPDEST PUSH1 0x0 PUSH2 0xE9 DUP3 PUSH2 0xBE JUMP JUMPDEST SWAP1 POP SWAP2 SWAP1 POP JUMP JUMPDEST PUSH2 0xF9 DUP2 PUSH2 0xDE JUMP JUMPDEST DUP2 EQ PUSH2 0x104 JUMPI PUSH1 0x0 DUP1 REVERT JUMPDEST POP JUMP JUMPDEST PUSH1 0x0 DUP2 MLOAD SWAP1 POP PUSH2 0x116 DUP2 PUSH2 0xF0 JUMP JUMPDEST SWAP3 SWAP2 POP POP JUMP JUMPDEST PUSH1 0x0 PUSH1 0x20 DUP3 DUP5 SUB SLT ISZERO PUSH2 0x132 JUMPI PUSH2 0x131 PUSH2 0xB9 JUMP JUMPDEST JUMPDEST PUSH1 0x0 PUSH2 0x140 DUP5 DUP3 DUP6 ADD PUSH2 0x107 JUMP JUMPDEST SWAP2 POP POP SWAP3 SWAP2 POP POP JUMP JUMPDEST PUSH2 0x54A DUP1 PUSH2 0x158 PUSH1 0x0 CODECOPY PUSH1 0x0 RETURN INVALID PUSH1 0x80 PUSH1 0x40 MSTORE PUSH1 0x4 CALLDATASIZE LT PUSH2 0x43 JUMPI PUSH1 0x0 CALLDATALOAD PUSH1 0xE0 SHR DUP1 PUSH4 0x5C60DA1B EQ PUSH2 0xD1 JUMPI DUP1 PUSH4 0xF2C31BD9 EQ PUSH2 0xFC JUMPI DUP1 PUSH4 0xF7872122 EQ PUSH2 0x127 JUMPI DUP1 PUSH4 0xF851A440 EQ PUSH2 0x150 JUMPI PUSH2 0x44 JUMP JUMPDEST JUMPDEST PUSH1 0x0 DUP1 PUSH1 0x0 DUP1 SLOAD SWAP1 PUSH2 0x100 EXP SWAP1 DIV PUSH20 0xFFFFFFFFFFFFFFFFFFFFFFFFFFFFFFFFFFFFFFFF AND PUSH20 0xFFFFFFFFFFFFFFFFFFFFFFFFFFFFFFFFFFFFFFFF AND PUSH1 0x0 CALLDATASIZE PUSH1 0x40 MLOAD PUSH2 0x8F SWAP3 SWAP2 SWAP1 PUSH2 0x32F JUMP JUMPDEST PUSH1 0x0 PUSH1 0x40 MLOAD DUP1 DUP4 SUB DUP2 DUP6 GAS DELEGATECALL SWAP2 POP POP RETURNDATASIZE DUP1 PUSH1 0x0 DUP2 EQ PUSH2 0xCA JUMPI PUSH1 0x40 MLOAD SWAP2 POP PUSH1 0x1F NOT PUSH1 0x3F RETURNDATASIZE ADD AND DUP3 ADD PUSH1 0x40 MSTORE RETURNDATASIZE DUP3 MSTORE RETURNDATASIZE PUSH1 0x0 PUSH1 0x20 DUP5 ADD RETURNDATACOPY PUSH2 0xCF JUMP JUMPDEST PUSH1 0x60 SWAP2 POP JUMPDEST STOP JUMPDEST CALLVALUE DUP1 ISZERO PUSH2 0xDD JUMPI PUSH1 0x0 DUP1 REVERT JUMPDEST POP PUSH2 0xE6 PUSH2 0x17B JUMP JUMPDEST PUSH1 0x40 MLOAD PUSH2 0xF3 SWAP2 SWAP1 PUSH2 0x389 JUMP JUMPDEST PUSH1 0x40 MLOAD DUP1 SWAP2 SUB SWAP1 RETURN JUMPDEST CALLVALUE DUP1 ISZERO PUSH2 0x108 JUMPI PUSH1 0x0 DUP1 REVERT JUMPDEST POP PUSH2 0x111 PUSH2 0x19F JUMP JUMPDEST PUSH1 0x40 MLOAD PUSH2 0x11E SWAP2 SWAP1 PUSH2 0x434 JUMP JUMPDEST PUSH1 0x40 MLOAD DUP1 SWAP2 SUB SWAP1 RETURN JUMPDEST CALLVALUE DUP1 ISZERO PUSH2 0x133 JUMPI PUSH1 0x0 DUP1 REVERT JUMPDEST POP PUSH2 0x14E PUSH1 0x4 DUP1 CALLDATASIZE SUB DUP2 ADD SWAP1 PUSH2 0x149 SWAP2 SWAP1 PUSH2 0x487 JUMP JUMPDEST PUSH2 0x22D JUMP JUMPDEST STOP JUMPDEST CALLVALUE DUP1 ISZERO PUSH2 0x15C JUMPI PUSH1 0x0 DUP1 REVERT JUMPDEST POP PUSH2 0x165 PUSH2 0x2CA JUMP JUMPDEST PUSH1 0x40 MLOAD PUSH2 0x172 SWAP2 SWAP1 PUSH2 0x389 JUMP JUMPDEST PUSH1 0x40 MLOAD DUP1 SWAP2 SUB SWAP1 RETURN JUMPDEST PUSH1 0x0 DUP1 SLOAD SWAP1 PUSH2 0x100 EXP SWAP1 DIV PUSH20 0xFFFFFFFFFFFFFFFFFFFFFFFFFFFFFFFFFFFFFFFF AND DUP2 JUMP JUMPDEST PUSH1 0x2 DUP1 SLOAD PUSH2 0x1AC SWAP1 PUSH2 0x4E3 JUMP JUMPDEST DUP1 PUSH1 0x1F ADD PUSH1 0x20 DUP1 SWAP2 DIV MUL PUSH1 0x20 ADD PUSH1 0x40 MLOAD SWAP1 DUP2 ADD PUSH1 0x40 MSTORE DUP1 SWAP3 SWAP2 SWAP1 DUP2 DUP2 MSTORE PUSH1 0x20 ADD DUP3 DUP1 SLOAD PUSH2 0x1D8 SWAP1 PUSH2 0x4E3 JUMP JUMPDEST DUP1 ISZERO PUSH2 0x225 JUMPI DUP1 PUSH1 0x1F LT PUSH2 0x1FA JUMPI PUSH2 0x100 DUP1 DUP4 SLOAD DIV MUL DUP4 MSTORE SWAP2 PUSH1 0x20 ADD SWAP2 PUSH2 0x225 JUMP JUMPDEST DUP3 ADD SWAP2 SWAP1 PUSH1 0x0 MSTORE PUSH1 0x20 PUSH1 0x0 KECCAK256 SWAP1 JUMPDEST DUP2 SLOAD DUP2 MSTORE SWAP1 PUSH1 0x1 ADD SWAP1 PUSH1 0x20 ADD DUP1 DUP4 GT PUSH2 0x208 JUMPI DUP3 SWAP1 SUB PUSH1 0x1F AND DUP3 ADD SWAP2 JUMPDEST POP POP POP POP POP DUP2 JUMP JUMPDEST PUSH1 0x1 PUSH1 0x0 SWAP1 SLOAD SWAP1 PUSH2 0x100 EXP SWAP1 DIV PUSH20 0xFFFFFFFFFFFFFFFFFFFFFFFFFFFFFFFFFFFFFFFF AND PUSH20 0xFFFFFFFFFFFFFFFFFFFFFFFFFFFFFFFFFFFFFFFF AND CALLER PUSH20 0xFFFFFFFFFFFFFFFFFFFFFFFFFFFFFFFFFFFFFFFF AND EQ PUSH2 0x287 JUMPI PUSH1 0x0 DUP1 REVERT JUMPDEST DUP1 PUSH1 0x0 DUP1 PUSH2 0x100 EXP DUP2 SLOAD DUP2 PUSH20 0xFFFFFFFFFFFFFFFFFFFFFFFFFFFFFFFFFFFFFFFF MUL NOT AND SWAP1 DUP4 PUSH20 0xFFFFFFFFFFFFFFFFFFFFFFFFFFFFFFFFFFFFFFFF AND MUL OR SWAP1 SSTORE POP POP JUMP JUMPDEST PUSH1 0x1 PUSH1 0x0 SWAP1 SLOAD SWAP1 PUSH2 0x100 EXP SWAP1 DIV PUSH20 0xFFFFFFFFFFFFFFFFFFFFFFFFFFFFFFFFFFFFFFFF AND DUP2 JUMP JUMPDEST PUSH1 0x0 DUP2 SWAP1 POP SWAP3 SWAP2 POP POP JUMP JUMPDEST DUP3 DUP2 DUP4 CALLDATACOPY PUSH1 0x0 DUP4 DUP4 ADD MSTORE POP POP POP JUMP JUMPDEST PUSH1 0x0 PUSH2 0x316 DUP4 DUP6 PUSH2 0x2F0 JUMP JUMPDEST SWAP4 POP PUSH2 0x323 DUP4 DUP6 DUP5 PUSH2 0x2FB JUMP JUMPDEST DUP3 DUP5 ADD SWAP1 POP SWAP4 SWAP3 POP POP POP JUMP JUMPDEST PUSH1 0x0 PUSH2 0x33C DUP3 DUP5 DUP7 PUSH2 0x30A JUMP JUMPDEST SWAP2 POP DUP2 SWAP1 POP SWAP4 SWAP3 POP POP POP JUMP JUMPDEST PUSH1 0x0 PUSH20 0xFFFFFFFFFFFFFFFFFFFFFFFFFFFFFFFFFFFFFFFF DUP3 AND SWAP1 POP SWAP2 SWAP1 POP JUMP JUMPDEST PUSH1 0x0 PUSH2 0x373 DUP3 PUSH2 0x348 JUMP JUMPDEST SWAP1 POP SWAP2 SWAP1 POP JUMP JUMPDEST PUSH2 0x383 DUP2 PUSH2 0x368 JUMP JUMPDEST DUP3 MSTORE POP POP JUMP JUMPDEST PUSH1 0x0 PUSH1 0x20 DUP3 ADD SWAP1 POP PUSH2 0x39E PUSH1 0x0 DUP4 ADD DUP5 PUSH2 0x37A JUMP JUMPDEST SWAP3 SWAP2 POP POP JUMP JUMPDEST PUSH1 0x0 DUP2 MLOAD SWAP1 POP SWAP2 SWAP1 POP JUMP JUMPDEST PUSH1 0x0 DUP3 DUP3 MSTORE PUSH1 0x20 DUP3 ADD SWAP1 POP SWAP3 SWAP2 POP POP JUMP JUMPDEST PUSH1 0x0 JUMPDEST DUP4 DUP2 LT ISZERO PUSH2 0x3DE JUMPI DUP1 DUP3 ADD MLOAD DUP2 DUP5 ADD MSTORE PUSH1 0x20 DUP2 ADD SWAP1 POP PUSH2 0x3C3 JUMP JUMPDEST PUSH1 0x0 DUP5 DUP5 ADD MSTORE POP POP POP POP JUMP JUMPDEST PUSH1 0x0 PUSH1 0x1F NOT PUSH1 0x1F DUP4 ADD AND SWAP1 POP SWAP2 SWAP1 POP JUMP JUMPDEST PUSH1 0x0 PUSH2 0x406 DUP3 PUSH2 0x3A4 JUMP JUMPDEST PUSH2 0x410 DUP2 DUP6 PUSH2 0x3AF JUMP JUMPDEST SWAP4 POP PUSH2 0x420 DUP2 DUP6 PUSH1 0x20 DUP7 ADD PUSH2 0x3C0 JUMP JUMPDEST PUSH2 0x429 DUP2 PUSH2 0x3EA JUMP JUMPDEST DUP5 ADD SWAP2 POP POP SWAP3 SWAP2 POP POP JUMP JUMPDEST PUSH1 0x0 PUSH1 0x20 DUP3 ADD SWAP1 POP DUP2 DUP2 SUB PUSH1 0x0 DUP4 ADD MSTORE PUSH2 0x44E DUP2 DUP5 PUSH2 0x3FB JUMP JUMPDEST SWAP1 POP SWAP3 SWAP2 POP POP JUMP JUMPDEST PUSH1 0x0 DUP1 REVERT JUMPDEST PUSH2 0x464 DUP2 PUSH2 0x368 JUMP JUMPDEST DUP2 EQ PUSH2 0x46F JUMPI PUSH1 0x0 DUP1 REVERT JUMPDEST POP JUMP JUMPDEST PUSH1 0x0 DUP2 CALLDATALOAD SWAP1 POP PUSH2 0x481 DUP2 PUSH2 0x45B JUMP JUMPDEST SWAP3 SWAP2 POP POP JUMP JUMPDEST PUSH1 0x0 PUSH1 0x20 DUP3 DUP5 SUB SLT ISZERO PUSH2 0x49D JUMPI PUSH2 0x49C PUSH2 0x456 JUMP JUMPDEST JUMPDEST PUSH1 0x0 PUSH2 0x4AB DUP5 DUP3 DUP6 ADD PUSH2 0x472 JUMP JUMPDEST SWAP2 POP POP SWAP3 SWAP2 POP POP JUMP JUMPDEST PUSH32 0x4E487B7100000000000000000000000000000000000000000000000000000000 PUSH1 0x0 MSTORE PUSH1 0x22 PUSH1 0x4 MSTORE PUSH1 0x24 PUSH1 0x0 REVERT JUMPDEST PUSH1 0x0 PUSH1 0x2 DUP3 DIV SWAP1 POP PUSH1 0x1 DUP3 AND DUP1 PUSH2 0x4FB JUMPI PUSH1 0x7F DUP3 AND SWAP2 POP JUMPDEST PUSH1 0x20 DUP3 LT DUP2 SUB PUSH2 0x50E JUMPI PUSH2 0x50D PUSH2 0x4B4 JUMP JUMPDEST JUMPDEST POP SWAP2 SWAP1 POP JUMP INVALID LOG2 PUSH5 0x6970667358 0x22 SLT KECCAK256 0xE4 CALLDATASIZE ADDRESS 0xE6 0xBF 0xD1 MLOAD OR 0xFB GT AND 0xE2 PUSH1 0xEE PUSH1 0xA2 INVALID 0xC6 CODECOPY SGT 0xD 0xB3 0x2D 0xED RETURNDATASIZE JUMP ADDRESS 0xD7 0x4E DUP9 PUSH15 0x6864736F6C63430008120033000000 "
		},
		"gasEstimates": {
			"creation": {
				"codeDepositCost": "270800",
				"executionCost": "infinite",
				"totalCost": "infinite"
			},
			"external": {
				"": "infinite",
				"Upgrade(address)": "26914",
				"admin()": "2558",
				"implementation()": "2489",
				"words()": "infinite"
			}
		},
		"methodIdentifiers": {
			"Upgrade(address)": "f7872122",
			"admin()": "f851a440",
			"implementation()": "5c60da1b",
			"words()": "f2c31bd9"
		}
	},
	"abi": [
		{
			"inputs": [
				{
					"internalType": "address",
					"name": "implementation_",
					"type": "address"
				}
			],
			"stateMutability": "nonpayable",
			"type": "constructor"
		},
		{
			"stateMutability": "payable",
			"type": "fallback"
		},
		{
			"inputs": [
				{
					"internalType": "address",
					"name": "newImplementation",
					"type": "address"
				}
			],
			"name": "Upgrade",
			"outputs": [],
			"stateMutability": "nonpayable",
			"type": "function"
		},
		{
			"inputs": [],
			"name": "admin",
			"outputs": [
				{
					"internalType": "address",
					"name": "",
					"type": "address"
				}
			],
			"stateMutability": "view",
			"type": "function"
		},
		{
			"inputs": [],
			"name": "implementation",
			"outputs": [
				{
					"internalType": "address",
					"name": "",
					"type": "address"
				}
			],
			"stateMutability": "view",
			"type": "function"
		},
		{
			"inputs": [],
			"name": "words",
			"outputs": [
				{
					"internalType": "string",
					"name": "",
					"type": "string"
				}
			],
			"stateMutability": "view",
			"type": "function"
		}
	]
}