{
	"data": {
		"bytecode": {
			"linkReferences": {},
			"object": "608060405234801561001057600080fd5b50610294806100206000396000f3fe608060405234801561001057600080fd5b50600436106100415760003560e01c806382bbb2a9146100465780638f6c696b14610050578063c04062261461005a575b600080fd5b61004e610064565b005b61005861009b565b005b6100626100d2565b005b7f41304facd9323d75b11bcdd609cb38effffdb05710f7caf0e9b16c6d9d709f50604051610091906101b2565b60405180910390a1565b7f41304facd9323d75b11bcdd609cb38effffdb05710f7caf0e9b16c6d9d709f506040516100c890610172565b60405180910390a1565b7f41304facd9323d75b11bcdd609cb38effffdb05710f7caf0e9b16c6d9d709f506040516100ff90610192565b60405180910390a1565b60006101166009836101d2565b9150610121826101e3565b602082019050919050565b60006101396008836101d2565b91506101448261020c565b602082019050919050565b600061015c6015836101d2565b915061016782610235565b602082019050919050565b6000602082019050818103600083015261018b81610109565b9050919050565b600060208201905081810360008301526101ab8161012c565b9050919050565b600060208201905081810360008301526101cb8161014f565b9050919050565b600082825260208201905092915050565b7f79657965206a756d700000000000000000000000000000000000000000000000600082015250565b7f796579652072756e000000000000000000000000000000000000000000000000600082015250565b7f79657965206e616d65206d6163626f6f6b2070726f000000000000000000000060008201525056fea2646970667358221220b762ce178703fc1a54be46d27cb630f7d1a0087c43712b5e955e6c03eecb69d564736f6c63430008070033",
			"opcodes": "PUSH1 0x80 PUSH1 0x40 MSTORE CALLVALUE DUP1 ISZERO PUSH2 0x10 JUMPI PUSH1 0x0 DUP1 REVERT JUMPDEST POP PUSH2 0x294 DUP1 PUSH2 0x20 PUSH1 0x0 CODECOPY PUSH1 0x0 RETURN INVALID PUSH1 0x80 PUSH1 0x40 MSTORE CALLVALUE DUP1 ISZERO PUSH2 0x10 JUMPI PUSH1 0x0 DUP1 REVERT JUMPDEST POP PUSH1 0x4 CALLDATASIZE LT PUSH2 0x41 JUMPI PUSH1 0x0 CALLDATALOAD PUSH1 0xE0 SHR DUP1 PUSH4 0x82BBB2A9 EQ PUSH2 0x46 JUMPI DUP1 PUSH4 0x8F6C696B EQ PUSH2 0x50 JUMPI DUP1 PUSH4 0xC0406226 EQ PUSH2 0x5A JUMPI JUMPDEST PUSH1 0x0 DUP1 REVERT JUMPDEST PUSH2 0x4E PUSH2 0x64 JUMP JUMPDEST STOP JUMPDEST PUSH2 0x58 PUSH2 0x9B JUMP JUMPDEST STOP JUMPDEST PUSH2 0x62 PUSH2 0xD2 JUMP JUMPDEST STOP JUMPDEST PUSH32 0x41304FACD9323D75B11BCDD609CB38EFFFFDB05710F7CAF0E9B16C6D9D709F50 PUSH1 0x40 MLOAD PUSH2 0x91 SWAP1 PUSH2 0x1B2 JUMP JUMPDEST PUSH1 0x40 MLOAD DUP1 SWAP2 SUB SWAP1 LOG1 JUMP JUMPDEST PUSH32 0x41304FACD9323D75B11BCDD609CB38EFFFFDB05710F7CAF0E9B16C6D9D709F50 PUSH1 0x40 MLOAD PUSH2 0xC8 SWAP1 PUSH2 0x172 JUMP JUMPDEST PUSH1 0x40 MLOAD DUP1 SWAP2 SUB SWAP1 LOG1 JUMP JUMPDEST PUSH32 0x41304FACD9323D75B11BCDD609CB38EFFFFDB05710F7CAF0E9B16C6D9D709F50 PUSH1 0x40 MLOAD PUSH2 0xFF SWAP1 PUSH2 0x192 JUMP JUMPDEST PUSH1 0x40 MLOAD DUP1 SWAP2 SUB SWAP1 LOG1 JUMP JUMPDEST PUSH1 0x0 PUSH2 0x116 PUSH1 0x9 DUP4 PUSH2 0x1D2 JUMP JUMPDEST SWAP2 POP PUSH2 0x121 DUP3 PUSH2 0x1E3 JUMP JUMPDEST PUSH1 0x20 DUP3 ADD SWAP1 POP SWAP2 SWAP1 POP JUMP JUMPDEST PUSH1 0x0 PUSH2 0x139 PUSH1 0x8 DUP4 PUSH2 0x1D2 JUMP JUMPDEST SWAP2 POP PUSH2 0x144 DUP3 PUSH2 0x20C JUMP JUMPDEST PUSH1 0x20 DUP3 ADD SWAP1 POP SWAP2 SWAP1 POP JUMP JUMPDEST PUSH1 0x0 PUSH2 0x15C PUSH1 0x15 DUP4 PUSH2 0x1D2 JUMP JUMPDEST SWAP2 POP PUSH2 0x167 DUP3 PUSH2 0x235 JUMP JUMPDEST PUSH1 0x20 DUP3 ADD SWAP1 POP SWAP2 SWAP1 POP JUMP JUMPDEST PUSH1 0x0 PUSH1 0x20 DUP3 ADD SWAP1 POP DUP2 DUP2 SUB PUSH1 0x0 DUP4 ADD MSTORE PUSH2 0x18B DUP2 PUSH2 0x109 JUMP JUMPDEST SWAP1 POP SWAP2 SWAP1 POP JUMP JUMPDEST PUSH1 0x0 PUSH1 0x20 DUP3 ADD SWAP1 POP DUP2 DUP2 SUB PUSH1 0x0 DUP4 ADD MSTORE PUSH2 0x1AB DUP2 PUSH2 0x12C JUMP JUMPDEST SWAP1 POP SWAP2 SWAP1 POP JUMP JUMPDEST PUSH1 0x0 PUSH1 0x20 DUP3 ADD SWAP1 POP DUP2 DUP2 SUB PUSH1 0x0 DUP4 ADD MSTORE PUSH2 0x1CB DUP2 PUSH2 0x14F JUMP JUMPDEST SWAP1 POP SWAP2 SWAP1 POP JUMP JUMPDEST PUSH1 0x0 DUP3 DUP3 MSTORE PUSH1 0x20 DUP3 ADD SWAP1 POP SWAP3 SWAP2 POP POP JUMP JUMPDEST PUSH32 0x79657965206A756D700000000000000000000000000000000000000000000000 PUSH1 0x0 DUP3 ADD MSTORE POP JUMP JUMPDEST PUSH32 0x796579652072756E000000000000000000000000000000000000000000000000 PUSH1 0x0 DUP3 ADD MSTORE POP JUMP JUMPDEST PUSH32 0x79657965206E616D65206D6163626F6F6B2070726F0000000000000000000000 PUSH1 0x0 DUP3 ADD MSTORE POP JUMP INVALID LOG2 PUSH5 0x6970667358 0x22 SLT KECCAK256 0xB7 PUSH3 0xCE1787 SUB 0xFC BYTE SLOAD 0xBE CHAINID 0xD2 PUSH29 0xB630F7D1A0087C43712B5E955E6C03EECB69D564736F6C634300080700 CALLER "
		},
		"gasEstimates": {
			"creation": {
				"codeDepositCost": "132000",
				"executionCost": "177",
				"totalCost": "132177"
			},
			"external": {
				"jump()": "1946",
				"logName()": "1924",
				"run()": "1968"
			}
		},
		"methodIdentifiers": {
			"jump()": "8f6c696b",
			"logName()": "82bbb2a9",
			"run()": "c0406226"
		}
	},
	"abi": [
		{
			"anonymous": false,
			"inputs": [
				{
					"indexed": false,
					"internalType": "string",
					"name": "msg",
					"type": "string"
				}
			],
			"name": "log",
			"type": "event"
		},
		{
			"inputs": [],
			"name": "jump",
			"outputs": [],
			"stateMutability": "nonpayable",
			"type": "function"
		},
		{
			"inputs": [],
			"name": "logName",
			"outputs": [],
			"stateMutability": "nonpayable",
			"type": "function"
		},
		{
			"inputs": [],
			"name": "run",
			"outputs": [],
			"stateMutability": "nonpayable",
			"type": "function"
		}
	]
}